{
	"ERC721/ERC721.sol": {
		"ERC721": {
			"abi": [
				{
					"inputs": [],
					"stateMutability": "nonpayable",
					"type": "constructor"
				},
				{
					"anonymous": false,
					"inputs": [
						{
							"indexed": true,
							"internalType": "address",
							"name": "_owner",
							"type": "address"
						},
						{
							"indexed": true,
							"internalType": "address",
							"name": "_approved",
							"type": "address"
						},
						{
							"indexed": true,
							"internalType": "uint256",
							"name": "_tokenId",
							"type": "uint256"
						}
					],
					"name": "Approval",
					"type": "event"
				},
				{
					"anonymous": false,
					"inputs": [
						{
							"indexed": true,
							"internalType": "address",
							"name": "_owner",
							"type": "address"
						},
						{
							"indexed": true,
							"internalType": "address",
							"name": "_operator",
							"type": "address"
						},
						{
							"indexed": false,
							"internalType": "bool",
							"name": "_approved",
							"type": "bool"
						}
					],
					"name": "ApprovalForAll",
					"type": "event"
				},
				{
					"anonymous": false,
					"inputs": [
						{
							"indexed": true,
							"internalType": "address",
							"name": "_from",
							"type": "address"
						},
						{
							"indexed": true,
							"internalType": "address",
							"name": "_to",
							"type": "address"
						},
						{
							"indexed": true,
							"internalType": "uint256",
							"name": "_tokenId",
							"type": "uint256"
						}
					],
					"name": "Transfer",
					"type": "event"
				},
				{
					"inputs": [
						{
							"internalType": "address",
							"name": "_approved",
							"type": "address"
						},
						{
							"internalType": "uint256",
							"name": "_tokenId",
							"type": "uint256"
						}
					],
					"name": "approve",
					"outputs": [],
					"stateMutability": "payable",
					"type": "function"
				},
				{
					"inputs": [
						{
							"internalType": "address",
							"name": "_owner",
							"type": "address"
						}
					],
					"name": "balanceOf",
					"outputs": [
						{
							"internalType": "uint256",
							"name": "",
							"type": "uint256"
						}
					],
					"stateMutability": "view",
					"type": "function"
				},
				{
					"inputs": [
						{
							"internalType": "uint256",
							"name": "_tokenId",
							"type": "uint256"
						}
					],
					"name": "getApproved",
					"outputs": [
						{
							"internalType": "address",
							"name": "",
							"type": "address"
						}
					],
					"stateMutability": "view",
					"type": "function"
				},
				{
					"inputs": [
						{
							"internalType": "address",
							"name": "_owner",
							"type": "address"
						},
						{
							"internalType": "address",
							"name": "_operator",
							"type": "address"
						}
					],
					"name": "isApprovedForAll",
					"outputs": [
						{
							"internalType": "bool",
							"name": "",
							"type": "bool"
						}
					],
					"stateMutability": "view",
					"type": "function"
				},
				{
					"inputs": [
						{
							"internalType": "address",
							"name": "_to",
							"type": "address"
						},
						{
							"internalType": "uint256",
							"name": "_tokenId",
							"type": "uint256"
						},
						{
							"internalType": "bytes",
							"name": "data",
							"type": "bytes"
						}
					],
					"name": "mint",
					"outputs": [],
					"stateMutability": "nonpayable",
					"type": "function"
				},
				{
					"inputs": [
						{
							"internalType": "uint256",
							"name": "_tokenId",
							"type": "uint256"
						}
					],
					"name": "ownerOf",
					"outputs": [
						{
							"internalType": "address",
							"name": "",
							"type": "address"
						}
					],
					"stateMutability": "view",
					"type": "function"
				},
				{
					"inputs": [
						{
							"internalType": "address",
							"name": "_from",
							"type": "address"
						},
						{
							"internalType": "address",
							"name": "_to",
							"type": "address"
						},
						{
							"internalType": "uint256",
							"name": "_tokenId",
							"type": "uint256"
						}
					],
					"name": "safeTransferFrom",
					"outputs": [],
					"stateMutability": "payable",
					"type": "function"
				},
				{
					"inputs": [
						{
							"internalType": "address",
							"name": "_from",
							"type": "address"
						},
						{
							"internalType": "address",
							"name": "_to",
							"type": "address"
						},
						{
							"internalType": "uint256",
							"name": "_tokenId",
							"type": "uint256"
						},
						{
							"internalType": "bytes",
							"name": "data",
							"type": "bytes"
						}
					],
					"name": "safeTransferFrom",
					"outputs": [],
					"stateMutability": "payable",
					"type": "function"
				},
				{
					"inputs": [
						{
							"internalType": "address",
							"name": "_operator",
							"type": "address"
						},
						{
							"internalType": "bool",
							"name": "_approved",
							"type": "bool"
						}
					],
					"name": "setApprovalForAll",
					"outputs": [],
					"stateMutability": "nonpayable",
					"type": "function"
				},
				{
					"inputs": [
						{
							"internalType": "bytes4",
							"name": "interfaceID",
							"type": "bytes4"
						}
					],
					"name": "supportsInterface",
					"outputs": [
						{
							"internalType": "bool",
							"name": "",
							"type": "bool"
						}
					],
					"stateMutability": "view",
					"type": "function"
				},
				{
					"inputs": [
						{
							"internalType": "address",
							"name": "_from",
							"type": "address"
						},
						{
							"internalType": "address",
							"name": "_to",
							"type": "address"
						},
						{
							"internalType": "uint256",
							"name": "_tokenId",
							"type": "uint256"
						}
					],
					"name": "transferFrom",
					"outputs": [],
					"stateMutability": "payable",
					"type": "function"
				}
			],
			"devdoc": {
				"kind": "dev",
				"methods": {
					"approve(address,uint256)": {
						"details": "The zero address indicates there is no approved address.  Throws unless `msg.sender` is the current NFT owner, or an authorized  operator of the current owner.",
						"params": {
							"_approved": "The new approved NFT controller",
							"_tokenId": "The NFT to approve"
						}
					},
					"getApproved(uint256)": {
						"details": "Throws if `_tokenId` is not a valid NFT.",
						"params": {
							"_tokenId": "The NFT to find the approved address for"
						},
						"returns": {
							"_0": "The approved address for this NFT, or the zero address if there is none"
						}
					},
					"isApprovedForAll(address,address)": {
						"params": {
							"_operator": "The address that acts on behalf of the owner",
							"_owner": "The address that owns the NFTs"
						},
						"returns": {
							"_0": "True if `_operator` is an approved operator for `_owner`, false otherwise"
						}
					},
					"ownerOf(uint256)": {
						"details": "NFTs assigned to zero address are considered invalid, and queries  about them do throw.",
						"params": {
							"_tokenId": "The identifier for an NFT"
						},
						"returns": {
							"_0": "The address of the owner of the NFT"
						}
					},
					"safeTransferFrom(address,address,uint256)": {
						"details": "This works identically to the other function with an extra data parameter,  except this function just sets data to \"\".",
						"params": {
							"_from": "The current owner of the NFT",
							"_to": "The new owner",
							"_tokenId": "The NFT to transfer"
						}
					},
					"safeTransferFrom(address,address,uint256,bytes)": {
						"details": "Throws unless `msg.sender` is the current owner, an authorized  operator, or the approved address for this NFT. Throws if `_from` is  not the current owner. Throws if `_to` is the zero address. Throws if  `_tokenId` is not a valid NFT. When transfer is complete, this function  checks if `_to` is a smart contract (code size > 0). If so, it calls  `onERC721Received` on `_to` and throws if the return value is not  `bytes4(keccak256(\"onERC721Received(address,address,uint256,bytes)\"))`.",
						"params": {
							"_from": "The current owner of the NFT",
							"_to": "The new owner",
							"_tokenId": "The NFT to transfer",
							"data": "Additional data with no specified format, sent in call to `_to`"
						}
					},
					"setApprovalForAll(address,bool)": {
						"details": "Emits the ApprovalForAll event. The contract MUST allow  multiple operators per owner.",
						"params": {
							"_approved": "True if the operator is approved, false to revoke approval",
							"_operator": "Address to add to the set of authorized operators"
						}
					},
					"supportsInterface(bytes4)": {
						"details": "Interface identification is specified in ERC-165. This function  uses less than 30,000 gas.",
						"params": {
							"interfaceID": "The interface identifier, as specified in ERC-165"
						},
						"returns": {
							"_0": "`true` if the contract implements `interfaceID` and  `interfaceID` is not 0xffffffff, `false` otherwise"
						}
					},
					"transferFrom(address,address,uint256)": {
						"details": "Throws unless `msg.sender` is the current owner, an authorized  operator, or the approved address for this NFT. Throws if `_from` is  not the current owner. Throws if `_to` is the zero address. Throws if  `_tokenId` is not a valid NFT.",
						"params": {
							"_from": "The current owner of the NFT",
							"_to": "The new owner",
							"_tokenId": "The NFT to transfer"
						}
					}
				},
				"version": 1
			},
			"evm": {
				"assembly": "    /* \"ERC721/ERC721.sol\":1219:6348  contract ERC721 is IERC165, IERC721{\r... */\n  mstore(0x40, 0x80)\n    /* \"ERC721/ERC721.sol\":1343:1353  0xffffffff */\n  0xffffffff\n    /* \"ERC721/ERC721.sol\":1326:1353  bytes4 invalid = 0xffffffff */\n  0xe0\n  shl\n  0x01\n  exp(0x0100, 0x00)\n  dup2\n  sload\n  dup2\n  0xffffffff\n  mul\n  not\n  and\n  swap1\n  dup4\n  0xe0\n  shr\n  mul\n  or\n  swap1\n  sstore\n  pop\n    /* \"ERC721/ERC721.sol\":1902:2021  constructor(){\r... */\n  callvalue\n  dup1\n  iszero\n  tag_1\n  jumpi\n  0x00\n  dup1\n  revert\ntag_1:\n  pop\n    /* \"ERC721/ERC721.sol\":1926:1964  _registerInterface(ERC165_InterfaceID) */\n  tag_4\n    /* \"ERC721/ERC721.sol\":1447:1457  0x01ffc9a7 */\n  0x01ffc9a7\n    /* \"ERC721/ERC721.sol\":1945:1963  ERC165_InterfaceID */\n  0xe0\n  shl\n    /* \"ERC721/ERC721.sol\":1926:1944  _registerInterface */\n  shl(0x20, tag_5)\n    /* \"ERC721/ERC721.sol\":1926:1964  _registerInterface(ERC165_InterfaceID) */\n  0x20\n  shr\n  jump\t// in\ntag_4:\n    /* \"ERC721/ERC721.sol\":1975:2013  _registerInterface(ERC721_InterfaceID) */\n  tag_6\n    /* \"ERC721/ERC721.sol\":1501:1511  0x80ac58cd */\n  0x80ac58cd\n    /* \"ERC721/ERC721.sol\":1994:2012  ERC721_InterfaceID */\n  0xe0\n  shl\n    /* \"ERC721/ERC721.sol\":1975:1993  _registerInterface */\n  shl(0x20, tag_5)\n    /* \"ERC721/ERC721.sol\":1975:2013  _registerInterface(ERC721_InterfaceID) */\n  0x20\n  shr\n  jump\t// in\ntag_6:\n    /* \"ERC721/ERC721.sol\":1219:6348  contract ERC721 is IERC165, IERC721{\r... */\n  jump(tag_7)\n    /* \"ERC721/ERC721.sol\":2679:2793  function _registerInterface(bytes4 interfaceID) internal{\r... */\ntag_5:\n    /* \"ERC721/ERC721.sol\":2781:2785  true */\n  0x01\n    /* \"ERC721/ERC721.sol\":2746:2765  supportedInterfaces */\n  0x00\n    /* \"ERC721/ERC721.sol\":2746:2778  supportedInterfaces[interfaceID] */\n  dup1\n    /* \"ERC721/ERC721.sol\":2766:2777  interfaceID */\n  dup4\n    /* \"ERC721/ERC721.sol\":2746:2778  supportedInterfaces[interfaceID] */\n  not(0xffffffffffffffffffffffffffffffffffffffffffffffffffffffff)\n  and\n  not(0xffffffffffffffffffffffffffffffffffffffffffffffffffffffff)\n  and\n  dup2\n  mstore\n  0x20\n  add\n  swap1\n  dup2\n  mstore\n  0x20\n  add\n  0x00\n  keccak256\n  0x00\n    /* \"ERC721/ERC721.sol\":2746:2785  supportedInterfaces[interfaceID] = true */\n  0x0100\n  exp\n  dup2\n  sload\n  dup2\n  0xff\n  mul\n  not\n  and\n  swap1\n  dup4\n  iszero\n  iszero\n  mul\n  or\n  swap1\n  sstore\n  pop\n    /* \"ERC721/ERC721.sol\":2679:2793  function _registerInterface(bytes4 interfaceID) internal{\r... */\n  pop\n  jump\t// out\n    /* \"ERC721/ERC721.sol\":1219:6348  contract ERC721 is IERC165, IERC721{\r... */\ntag_7:\n  dataSize(sub_0)\n  dup1\n  dataOffset(sub_0)\n  0x00\n  codecopy\n  0x00\n  return\nstop\n\nsub_0: assembly {\n        /* \"ERC721/ERC721.sol\":1219:6348  contract ERC721 is IERC165, IERC721{\r... */\n      mstore(0x40, 0x80)\n      jumpi(tag_1, lt(calldatasize, 0x04))\n      shr(0xe0, calldataload(0x00))\n      dup1\n      0x6352211e\n      gt\n      tag_13\n      jumpi\n      dup1\n      0x6352211e\n      eq\n      tag_7\n      jumpi\n      dup1\n      0x70a08231\n      eq\n      tag_8\n      jumpi\n      dup1\n      0x94d008ef\n      eq\n      tag_9\n      jumpi\n      dup1\n      0xa22cb465\n      eq\n      tag_10\n      jumpi\n      dup1\n      0xb88d4fde\n      eq\n      tag_11\n      jumpi\n      dup1\n      0xe985e9c5\n      eq\n      tag_12\n      jumpi\n      jump(tag_1)\n    tag_13:\n      dup1\n      0x01ffc9a7\n      eq\n      tag_2\n      jumpi\n      dup1\n      0x081812fc\n      eq\n      tag_3\n      jumpi\n      dup1\n      0x095ea7b3\n      eq\n      tag_4\n      jumpi\n      dup1\n      0x23b872dd\n      eq\n      tag_5\n      jumpi\n      dup1\n      0x42842e0e\n      eq\n      tag_6\n      jumpi\n    tag_1:\n      0x00\n      dup1\n      revert\n        /* \"ERC721/ERC721.sol\":2805:3013  function supportsInterface(bytes4 interfaceID) override external view returns (bool){\r... */\n    tag_2:\n      callvalue\n      dup1\n      iszero\n      tag_14\n      jumpi\n      0x00\n      dup1\n      revert\n    tag_14:\n      pop\n      tag_15\n      0x04\n      dup1\n      calldatasize\n      sub\n      dup2\n      add\n      swap1\n      tag_16\n      swap2\n      swap1\n      tag_17\n      jump\t// in\n    tag_16:\n      tag_18\n      jump\t// in\n    tag_15:\n      mload(0x40)\n      tag_19\n      swap2\n      swap1\n      tag_20\n      jump\t// in\n    tag_19:\n      mload(0x40)\n      dup1\n      swap2\n      sub\n      swap1\n      return\n        /* \"ERC721/ERC721.sol\":3333:3464  function getApproved(uint256 _tokenId) override external view returns (address){\r... */\n    tag_3:\n      callvalue\n      dup1\n      iszero\n      tag_21\n      jumpi\n      0x00\n      dup1\n      revert\n    tag_21:\n      pop\n      tag_22\n      0x04\n      dup1\n      calldatasize\n      sub\n      dup2\n      add\n      swap1\n      tag_23\n      swap2\n      swap1\n      tag_24\n      jump\t// in\n    tag_23:\n      tag_25\n      jump\t// in\n    tag_22:\n      mload(0x40)\n      tag_26\n      swap2\n      swap1\n      tag_27\n      jump\t// in\n    tag_26:\n      mload(0x40)\n      dup1\n      swap2\n      sub\n      swap1\n      return\n        /* \"ERC721/ERC721.sol\":3650:3862  function approve(address _approved, uint256 _tokenId) override canOperate(_tokenId) external payable{\r... */\n    tag_4:\n      tag_28\n      0x04\n      dup1\n      calldatasize\n      sub\n      dup2\n      add\n      swap1\n      tag_29\n      swap2\n      swap1\n      tag_30\n      jump\t// in\n    tag_29:\n      tag_31\n      jump\t// in\n    tag_28:\n      stop\n        /* \"ERC721/ERC721.sol\":4088:4243  function transferFrom(address _from, address _to, uint256 _tokenId) override external payable{\r... */\n    tag_5:\n      tag_32\n      0x04\n      dup1\n      calldatasize\n      sub\n      dup2\n      add\n      swap1\n      tag_33\n      swap2\n      swap1\n      tag_34\n      jump\t// in\n    tag_33:\n      tag_35\n      jump\t// in\n    tag_32:\n      stop\n        /* \"ERC721/ERC721.sol\":4652:4808  function safeTransferFrom(address _from, address _to, uint256 _tokenId) override external payable{\r... */\n    tag_6:\n      tag_36\n      0x04\n      dup1\n      calldatasize\n      sub\n      dup2\n      add\n      swap1\n      tag_37\n      swap2\n      swap1\n      tag_34\n      jump\t// in\n    tag_37:\n      tag_38\n      jump\t// in\n    tag_36:\n      stop\n        /* \"ERC721/ERC721.sol\":3201:3325  function ownerOf(uint256 _tokenId) override external view returns (address){\r... */\n    tag_7:\n      callvalue\n      dup1\n      iszero\n      tag_39\n      jumpi\n      0x00\n      dup1\n      revert\n    tag_39:\n      pop\n      tag_40\n      0x04\n      dup1\n      calldatasize\n      sub\n      dup2\n      add\n      swap1\n      tag_41\n      swap2\n      swap1\n      tag_24\n      jump\t// in\n    tag_41:\n      tag_42\n      jump\t// in\n    tag_40:\n      mload(0x40)\n      tag_43\n      swap2\n      swap1\n      tag_27\n      jump\t// in\n    tag_43:\n      mload(0x40)\n      dup1\n      swap2\n      sub\n      swap1\n      return\n        /* \"ERC721/ERC721.sol\":3073:3195  function balanceOf(address _owner) override external view returns (uint256){\r... */\n    tag_8:\n      callvalue\n      dup1\n      iszero\n      tag_44\n      jumpi\n      0x00\n      dup1\n      revert\n    tag_44:\n      pop\n      tag_45\n      0x04\n      dup1\n      calldatasize\n      sub\n      dup2\n      add\n      swap1\n      tag_46\n      swap2\n      swap1\n      tag_47\n      jump\t// in\n    tag_46:\n      tag_48\n      jump\t// in\n    tag_45:\n      mload(0x40)\n      tag_49\n      swap2\n      swap1\n      tag_50\n      jump\t// in\n    tag_49:\n      mload(0x40)\n      dup1\n      swap2\n      sub\n      swap1\n      return\n        /* \"ERC721/ERC721.sol\":5595:6345  function mint(address _to, uint256 _tokenId,bytes memory data) external{\r... */\n    tag_9:\n      callvalue\n      dup1\n      iszero\n      tag_51\n      jumpi\n      0x00\n      dup1\n      revert\n    tag_51:\n      pop\n      tag_52\n      0x04\n      dup1\n      calldatasize\n      sub\n      dup2\n      add\n      swap1\n      tag_53\n      swap2\n      swap1\n      tag_54\n      jump\t// in\n    tag_53:\n      tag_55\n      jump\t// in\n    tag_52:\n      stop\n        /* \"ERC721/ERC721.sol\":3870:4082  function setApprovalForAll(address _operator, bool _approved) override external{\r... */\n    tag_10:\n      callvalue\n      dup1\n      iszero\n      tag_56\n      jumpi\n      0x00\n      dup1\n      revert\n    tag_56:\n      pop\n      tag_57\n      0x04\n      dup1\n      calldatasize\n      sub\n      dup2\n      add\n      swap1\n      tag_58\n      swap2\n      swap1\n      tag_59\n      jump\t// in\n    tag_58:\n      tag_60\n      jump\t// in\n    tag_57:\n      stop\n        /* \"ERC721/ERC721.sol\":4814:4991  function safeTransferFrom(address _from, address _to, uint256 _tokenId, bytes memory data) override external payable{\r... */\n    tag_11:\n      tag_61\n      0x04\n      dup1\n      calldatasize\n      sub\n      dup2\n      add\n      swap1\n      tag_62\n      swap2\n      swap1\n      tag_63\n      jump\t// in\n    tag_62:\n      tag_64\n      jump\t// in\n    tag_61:\n      stop\n        /* \"ERC721/ERC721.sol\":3470:3630  function isApprovedForAll(address _owner, address _operator) override external view returns (bool){\r... */\n    tag_12:\n      callvalue\n      dup1\n      iszero\n      tag_65\n      jumpi\n      0x00\n      dup1\n      revert\n    tag_65:\n      pop\n      tag_66\n      0x04\n      dup1\n      calldatasize\n      sub\n      dup2\n      add\n      swap1\n      tag_67\n      swap2\n      swap1\n      tag_68\n      jump\t// in\n    tag_67:\n      tag_69\n      jump\t// in\n    tag_66:\n      mload(0x40)\n      tag_70\n      swap2\n      swap1\n      tag_20\n      jump\t// in\n    tag_70:\n      mload(0x40)\n      dup1\n      swap2\n      sub\n      swap1\n      return\n        /* \"ERC721/ERC721.sol\":2805:3013  function supportsInterface(bytes4 interfaceID) override external view returns (bool){\r... */\n    tag_18:\n        /* \"ERC721/ERC721.sol\":2884:2888  bool */\n      0x00\n        /* \"ERC721/ERC721.sol\":2923:2930  invalid */\n      0x01\n      0x00\n      swap1\n      sload\n      swap1\n      0x0100\n      exp\n      swap1\n      div\n      0xe0\n      shl\n        /* \"ERC721/ERC721.sol\":2908:2930  interfaceID != invalid */\n      not(0xffffffffffffffffffffffffffffffffffffffffffffffffffffffff)\n      and\n        /* \"ERC721/ERC721.sol\":2908:2919  interfaceID */\n      dup3\n        /* \"ERC721/ERC721.sol\":2908:2930  interfaceID != invalid */\n      not(0xffffffffffffffffffffffffffffffffffffffffffffffffffffffff)\n      and\n      eq\n      iszero\n        /* \"ERC721/ERC721.sol\":2900:2955  require(interfaceID != invalid, \"invalid interface id\") */\n      tag_72\n      jumpi\n      mload(0x40)\n      0x08c379a000000000000000000000000000000000000000000000000000000000\n      dup2\n      mstore\n      0x04\n      add\n      tag_73\n      swap1\n      tag_74\n      jump\t// in\n    tag_73:\n      mload(0x40)\n      dup1\n      swap2\n      sub\n      swap1\n      revert\n    tag_72:\n        /* \"ERC721/ERC721.sol\":2973:2992  supportedInterfaces */\n      0x00\n        /* \"ERC721/ERC721.sol\":2973:3005  supportedInterfaces[interfaceID] */\n      dup1\n        /* \"ERC721/ERC721.sol\":2993:3004  interfaceID */\n      dup4\n        /* \"ERC721/ERC721.sol\":2973:3005  supportedInterfaces[interfaceID] */\n      not(0xffffffffffffffffffffffffffffffffffffffffffffffffffffffff)\n      and\n      not(0xffffffffffffffffffffffffffffffffffffffffffffffffffffffff)\n      and\n      dup2\n      mstore\n      0x20\n      add\n      swap1\n      dup2\n      mstore\n      0x20\n      add\n      0x00\n      keccak256\n      0x00\n      swap1\n      sload\n      swap1\n      0x0100\n      exp\n      swap1\n      div\n      0xff\n      and\n        /* \"ERC721/ERC721.sol\":2966:3005  return supportedInterfaces[interfaceID] */\n      swap1\n      pop\n        /* \"ERC721/ERC721.sol\":2805:3013  function supportsInterface(bytes4 interfaceID) override external view returns (bool){\r... */\n      swap2\n      swap1\n      pop\n      jump\t// out\n        /* \"ERC721/ERC721.sol\":3333:3464  function getApproved(uint256 _tokenId) override external view returns (address){\r... */\n    tag_25:\n        /* \"ERC721/ERC721.sol\":3404:3411  address */\n      0x00\n        /* \"ERC721/ERC721.sol\":3430:3446  ercToeknApproved */\n      0x04\n        /* \"ERC721/ERC721.sol\":3430:3456  ercToeknApproved[_tokenId] */\n      0x00\n        /* \"ERC721/ERC721.sol\":3447:3455  _tokenId */\n      dup4\n        /* \"ERC721/ERC721.sol\":3430:3456  ercToeknApproved[_tokenId] */\n      dup2\n      mstore\n      0x20\n      add\n      swap1\n      dup2\n      mstore\n      0x20\n      add\n      0x00\n      keccak256\n      0x00\n      swap1\n      sload\n      swap1\n      0x0100\n      exp\n      swap1\n      div\n      0xffffffffffffffffffffffffffffffffffffffff\n      and\n        /* \"ERC721/ERC721.sol\":3423:3456  return ercToeknApproved[_tokenId] */\n      swap1\n      pop\n        /* \"ERC721/ERC721.sol\":3333:3464  function getApproved(uint256 _tokenId) override external view returns (address){\r... */\n      swap2\n      swap1\n      pop\n      jump\t// out\n        /* \"ERC721/ERC721.sol\":3650:3862  function approve(address _approved, uint256 _tokenId) override canOperate(_tokenId) external payable{\r... */\n    tag_31:\n        /* \"ERC721/ERC721.sol\":3724:3732  _tokenId */\n      dup1\n        /* \"ERC721/ERC721.sol\":2089:2107  address tokenOwner */\n      0x00\n        /* \"ERC721/ERC721.sol\":2110:2123  ercTokenOwner */\n      0x03\n        /* \"ERC721/ERC721.sol\":2110:2133  ercTokenOwner[_tokenId] */\n      0x00\n        /* \"ERC721/ERC721.sol\":2124:2132  _tokenId */\n      dup4\n        /* \"ERC721/ERC721.sol\":2110:2133  ercTokenOwner[_tokenId] */\n      dup2\n      mstore\n      0x20\n      add\n      swap1\n      dup2\n      mstore\n      0x20\n      add\n      0x00\n      keccak256\n      0x00\n      swap1\n      sload\n      swap1\n      0x0100\n      exp\n      swap1\n      div\n      0xffffffffffffffffffffffffffffffffffffffff\n      and\n        /* \"ERC721/ERC721.sol\":2089:2133  address tokenOwner = ercTokenOwner[_tokenId] */\n      swap1\n      pop\n        /* \"ERC721/ERC721.sol\":2166:2176  msg.sender */\n      caller\n        /* \"ERC721/ERC721.sol\":2152:2176  tokenOwner == msg.sender */\n      0xffffffffffffffffffffffffffffffffffffffff\n      and\n        /* \"ERC721/ERC721.sol\":2152:2162  tokenOwner */\n      dup2\n        /* \"ERC721/ERC721.sol\":2152:2176  tokenOwner == msg.sender */\n      0xffffffffffffffffffffffffffffffffffffffff\n      and\n      eq\n        /* \"ERC721/ERC721.sol\":2152:2287  tokenOwner == msg.sender || \r... */\n      dup1\n      tag_77\n      jumpi\n      pop\n        /* \"ERC721/ERC721.sol\":2246:2263  ercOperatorForAll */\n      0x05\n        /* \"ERC721/ERC721.sol\":2246:2275  ercOperatorForAll[tokenOwner] */\n      0x00\n        /* \"ERC721/ERC721.sol\":2264:2274  tokenOwner */\n      dup3\n        /* \"ERC721/ERC721.sol\":2246:2275  ercOperatorForAll[tokenOwner] */\n      0xffffffffffffffffffffffffffffffffffffffff\n      and\n      0xffffffffffffffffffffffffffffffffffffffff\n      and\n      dup2\n      mstore\n      0x20\n      add\n      swap1\n      dup2\n      mstore\n      0x20\n      add\n      0x00\n      keccak256\n        /* \"ERC721/ERC721.sol\":2246:2287  ercOperatorForAll[tokenOwner][msg.sender] */\n      0x00\n        /* \"ERC721/ERC721.sol\":2276:2286  msg.sender */\n      caller\n        /* \"ERC721/ERC721.sol\":2246:2287  ercOperatorForAll[tokenOwner][msg.sender] */\n      0xffffffffffffffffffffffffffffffffffffffff\n      and\n      0xffffffffffffffffffffffffffffffffffffffff\n      and\n      dup2\n      mstore\n      0x20\n      add\n      swap1\n      dup2\n      mstore\n      0x20\n      add\n      0x00\n      keccak256\n      0x00\n      swap1\n      sload\n      swap1\n      0x0100\n      exp\n      swap1\n      div\n      0xff\n      and\n        /* \"ERC721/ERC721.sol\":2152:2287  tokenOwner == msg.sender || \r... */\n    tag_77:\n        /* \"ERC721/ERC721.sol\":2144:2288  require(tokenOwner == msg.sender || \r... */\n      tag_78\n      jumpi\n      0x00\n      dup1\n      revert\n    tag_78:\n        /* \"ERC721/ERC721.sol\":3790:3799  _approved */\n      dup4\n        /* \"ERC721/ERC721.sol\":3761:3777  ercToeknApproved */\n      0x04\n        /* \"ERC721/ERC721.sol\":3761:3787  ercToeknApproved[_tokenId] */\n      0x00\n        /* \"ERC721/ERC721.sol\":3778:3786  _tokenId */\n      dup6\n        /* \"ERC721/ERC721.sol\":3761:3787  ercToeknApproved[_tokenId] */\n      dup2\n      mstore\n      0x20\n      add\n      swap1\n      dup2\n      mstore\n      0x20\n      add\n      0x00\n      keccak256\n      0x00\n        /* \"ERC721/ERC721.sol\":3761:3799  ercToeknApproved[_tokenId] = _approved */\n      0x0100\n      exp\n      dup2\n      sload\n      dup2\n      0xffffffffffffffffffffffffffffffffffffffff\n      mul\n      not\n      and\n      swap1\n      dup4\n      0xffffffffffffffffffffffffffffffffffffffff\n      and\n      mul\n      or\n      swap1\n      sstore\n      pop\n        /* \"ERC721/ERC721.sol\":3845:3853  _tokenId */\n      dup3\n        /* \"ERC721/ERC721.sol\":3835:3844  _approved */\n      dup5\n        /* \"ERC721/ERC721.sol\":3815:3854  Approval(msg.sender,_approved,_tokenId) */\n      0xffffffffffffffffffffffffffffffffffffffff\n      and\n        /* \"ERC721/ERC721.sol\":3824:3834  msg.sender */\n      caller\n        /* \"ERC721/ERC721.sol\":3815:3854  Approval(msg.sender,_approved,_tokenId) */\n      0xffffffffffffffffffffffffffffffffffffffff\n      and\n      0x8c5be1e5ebec7d5bd14f71427d1e84f3dd0314c0f7b2291e5b200ac8c7c3b925\n      mload(0x40)\n      mload(0x40)\n      dup1\n      swap2\n      sub\n      swap1\n      log4\n        /* \"ERC721/ERC721.sol\":2078:2308  {\r... */\n      pop\n        /* \"ERC721/ERC721.sol\":3650:3862  function approve(address _approved, uint256 _tokenId) override canOperate(_tokenId) external payable{\r... */\n      pop\n      pop\n      pop\n      jump\t// out\n        /* \"ERC721/ERC721.sol\":4088:4243  function transferFrom(address _from, address _to, uint256 _tokenId) override external payable{\r... */\n    tag_35:\n        /* \"ERC721/ERC721.sol\":4192:4225  _transferFrom(_from,_to,_tokenId) */\n      tag_81\n        /* \"ERC721/ERC721.sol\":4206:4211  _from */\n      dup4\n        /* \"ERC721/ERC721.sol\":4212:4215  _to */\n      dup4\n        /* \"ERC721/ERC721.sol\":4216:4224  _tokenId */\n      dup4\n        /* \"ERC721/ERC721.sol\":4192:4205  _transferFrom */\n      tag_82\n        /* \"ERC721/ERC721.sol\":4192:4225  _transferFrom(_from,_to,_tokenId) */\n      jump\t// in\n    tag_81:\n        /* \"ERC721/ERC721.sol\":4088:4243  function transferFrom(address _from, address _to, uint256 _tokenId) override external payable{\r... */\n      pop\n      pop\n      pop\n      jump\t// out\n        /* \"ERC721/ERC721.sol\":4652:4808  function safeTransferFrom(address _from, address _to, uint256 _tokenId) override external payable{\r... */\n    tag_38:\n        /* \"ERC721/ERC721.sol\":4760:4800  _safeTransferFrom(_from,_to,_tokenId,\"\") */\n      tag_84\n        /* \"ERC721/ERC721.sol\":4778:4783  _from */\n      dup4\n        /* \"ERC721/ERC721.sol\":4784:4787  _to */\n      dup4\n        /* \"ERC721/ERC721.sol\":4788:4796  _tokenId */\n      dup4\n        /* \"ERC721/ERC721.sol\":4760:4800  _safeTransferFrom(_from,_to,_tokenId,\"\") */\n      mload(0x40)\n      dup1\n      0x20\n      add\n      0x40\n      mstore\n      dup1\n      0x00\n      dup2\n      mstore\n      pop\n        /* \"ERC721/ERC721.sol\":4760:4777  _safeTransferFrom */\n      tag_85\n        /* \"ERC721/ERC721.sol\":4760:4800  _safeTransferFrom(_from,_to,_tokenId,\"\") */\n      jump\t// in\n    tag_84:\n        /* \"ERC721/ERC721.sol\":4652:4808  function safeTransferFrom(address _from, address _to, uint256 _tokenId) override external payable{\r... */\n      pop\n      pop\n      pop\n      jump\t// out\n        /* \"ERC721/ERC721.sol\":3201:3325  function ownerOf(uint256 _tokenId) override external view returns (address){\r... */\n    tag_42:\n        /* \"ERC721/ERC721.sol\":3268:3275  address */\n      0x00\n        /* \"ERC721/ERC721.sol\":3294:3307  ercTokenOwner */\n      0x03\n        /* \"ERC721/ERC721.sol\":3294:3317  ercTokenOwner[_tokenId] */\n      0x00\n        /* \"ERC721/ERC721.sol\":3308:3316  _tokenId */\n      dup4\n        /* \"ERC721/ERC721.sol\":3294:3317  ercTokenOwner[_tokenId] */\n      dup2\n      mstore\n      0x20\n      add\n      swap1\n      dup2\n      mstore\n      0x20\n      add\n      0x00\n      keccak256\n      0x00\n      swap1\n      sload\n      swap1\n      0x0100\n      exp\n      swap1\n      div\n      0xffffffffffffffffffffffffffffffffffffffff\n      and\n        /* \"ERC721/ERC721.sol\":3287:3317  return ercTokenOwner[_tokenId] */\n      swap1\n      pop\n        /* \"ERC721/ERC721.sol\":3201:3325  function ownerOf(uint256 _tokenId) override external view returns (address){\r... */\n      swap2\n      swap1\n      pop\n      jump\t// out\n        /* \"ERC721/ERC721.sol\":3073:3195  function balanceOf(address _owner) override external view returns (uint256){\r... */\n    tag_48:\n        /* \"ERC721/ERC721.sol\":3140:3147  uint256 */\n      0x00\n        /* \"ERC721/ERC721.sol\":3166:3179  ercTokenCount */\n      0x02\n        /* \"ERC721/ERC721.sol\":3166:3187  ercTokenCount[_owner] */\n      0x00\n        /* \"ERC721/ERC721.sol\":3180:3186  _owner */\n      dup4\n        /* \"ERC721/ERC721.sol\":3166:3187  ercTokenCount[_owner] */\n      0xffffffffffffffffffffffffffffffffffffffff\n      and\n      0xffffffffffffffffffffffffffffffffffffffff\n      and\n      dup2\n      mstore\n      0x20\n      add\n      swap1\n      dup2\n      mstore\n      0x20\n      add\n      0x00\n      keccak256\n      sload\n        /* \"ERC721/ERC721.sol\":3159:3187  return ercTokenCount[_owner] */\n      swap1\n      pop\n        /* \"ERC721/ERC721.sol\":3073:3195  function balanceOf(address _owner) override external view returns (uint256){\r... */\n      swap2\n      swap1\n      pop\n      jump\t// out\n        /* \"ERC721/ERC721.sol\":5595:6345  function mint(address _to, uint256 _tokenId,bytes memory data) external{\r... */\n    tag_55:\n        /* \"ERC721/ERC721.sol\":5700:5701  0 */\n      0x00\n        /* \"ERC721/ERC721.sol\":5685:5702  _to != address(0) */\n      0xffffffffffffffffffffffffffffffffffffffff\n      and\n        /* \"ERC721/ERC721.sol\":5685:5688  _to */\n      dup4\n        /* \"ERC721/ERC721.sol\":5685:5702  _to != address(0) */\n      0xffffffffffffffffffffffffffffffffffffffff\n      and\n      eq\n      iszero\n        /* \"ERC721/ERC721.sol\":5677:5725  require(_to != address(0),\"_to is zero address\") */\n      tag_89\n      jumpi\n      mload(0x40)\n      0x08c379a000000000000000000000000000000000000000000000000000000000\n      dup2\n      mstore\n      0x04\n      add\n      tag_90\n      swap1\n      tag_91\n      jump\t// in\n    tag_90:\n      mload(0x40)\n      dup1\n      swap2\n      sub\n      swap1\n      revert\n    tag_89:\n        /* \"ERC721/ERC721.sol\":5777:5778  0 */\n      0x00\n        /* \"ERC721/ERC721.sol\":5744:5779  ercTokenOwner[_tokenId]==address(0) */\n      0xffffffffffffffffffffffffffffffffffffffff\n      and\n        /* \"ERC721/ERC721.sol\":5744:5757  ercTokenOwner */\n      0x03\n        /* \"ERC721/ERC721.sol\":5744:5767  ercTokenOwner[_tokenId] */\n      0x00\n        /* \"ERC721/ERC721.sol\":5758:5766  _tokenId */\n      dup5\n        /* \"ERC721/ERC721.sol\":5744:5767  ercTokenOwner[_tokenId] */\n      dup2\n      mstore\n      0x20\n      add\n      swap1\n      dup2\n      mstore\n      0x20\n      add\n      0x00\n      keccak256\n      0x00\n      swap1\n      sload\n      swap1\n      0x0100\n      exp\n      swap1\n      div\n      0xffffffffffffffffffffffffffffffffffffffff\n      and\n        /* \"ERC721/ERC721.sol\":5744:5779  ercTokenOwner[_tokenId]==address(0) */\n      0xffffffffffffffffffffffffffffffffffffffff\n      and\n      eq\n        /* \"ERC721/ERC721.sol\":5736:5806  require(ercTokenOwner[_tokenId]==address(0),\"_tokenId already exists\") */\n      tag_92\n      jumpi\n      mload(0x40)\n      0x08c379a000000000000000000000000000000000000000000000000000000000\n      dup2\n      mstore\n      0x04\n      add\n      tag_93\n      swap1\n      tag_94\n      jump\t// in\n    tag_93:\n      mload(0x40)\n      dup1\n      swap2\n      sub\n      swap1\n      revert\n    tag_92:\n        /* \"ERC721/ERC721.sol\":5843:5846  _to */\n      dup3\n        /* \"ERC721/ERC721.sol\":5817:5830  ercTokenOwner */\n      0x03\n        /* \"ERC721/ERC721.sol\":5817:5840  ercTokenOwner[_tokenId] */\n      0x00\n        /* \"ERC721/ERC721.sol\":5831:5839  _tokenId */\n      dup5\n        /* \"ERC721/ERC721.sol\":5817:5840  ercTokenOwner[_tokenId] */\n      dup2\n      mstore\n      0x20\n      add\n      swap1\n      dup2\n      mstore\n      0x20\n      add\n      0x00\n      keccak256\n      0x00\n        /* \"ERC721/ERC721.sol\":5817:5846  ercTokenOwner[_tokenId] = _to */\n      0x0100\n      exp\n      dup2\n      sload\n      dup2\n      0xffffffffffffffffffffffffffffffffffffffff\n      mul\n      not\n      and\n      swap1\n      dup4\n      0xffffffffffffffffffffffffffffffffffffffff\n      and\n      mul\n      or\n      swap1\n      sstore\n      pop\n        /* \"ERC721/ERC721.sol\":5879:5880  1 */\n      0x01\n        /* \"ERC721/ERC721.sol\":5857:5870  ercTokenCount */\n      0x02\n        /* \"ERC721/ERC721.sol\":5857:5875  ercTokenCount[_to] */\n      0x00\n        /* \"ERC721/ERC721.sol\":5871:5874  _to */\n      dup6\n        /* \"ERC721/ERC721.sol\":5857:5875  ercTokenCount[_to] */\n      0xffffffffffffffffffffffffffffffffffffffff\n      and\n      0xffffffffffffffffffffffffffffffffffffffff\n      and\n      dup2\n      mstore\n      0x20\n      add\n      swap1\n      dup2\n      mstore\n      0x20\n      add\n      0x00\n      keccak256\n      0x00\n        /* \"ERC721/ERC721.sol\":5857:5880  ercTokenCount[_to] += 1 */\n      dup3\n      dup3\n      sload\n      tag_95\n      swap2\n      swap1\n      tag_96\n      jump\t// in\n    tag_95:\n      swap3\n      pop\n      pop\n      dup2\n      swap1\n      sstore\n      pop\n        /* \"ERC721/ERC721.sol\":5921:5937  _to.isContract() */\n      tag_97\n        /* \"ERC721/ERC721.sol\":5921:5924  _to */\n      dup4\n        /* \"ERC721/ERC721.sol\":5921:5935  _to.isContract */\n      0xffffffffffffffffffffffffffffffffffffffff\n      and\n      tag_98\n        /* \"ERC721/ERC721.sol\":5921:5937  _to.isContract() */\n      jump\t// in\n    tag_97:\n        /* \"ERC721/ERC721.sol\":5918:6279  if(_to.isContract()) {\r... */\n      iszero\n      tag_99\n      jumpi\n        /* \"ERC721/ERC721.sol\":6040:6053  bytes4 retval */\n      0x00\n        /* \"ERC721/ERC721.sol\":6076:6079  _to */\n      dup4\n        /* \"ERC721/ERC721.sol\":6056:6097  ERC721TokenReceiver(_to).onERC721Received */\n      0xffffffffffffffffffffffffffffffffffffffff\n      and\n      0x150b7a02\n        /* \"ERC721/ERC721.sol\":6098:6108  msg.sender */\n      caller\n        /* \"ERC721/ERC721.sol\":6118:6119  0 */\n      0x00\n        /* \"ERC721/ERC721.sol\":6122:6130  _tokenId */\n      dup7\n        /* \"ERC721/ERC721.sol\":6132:6136  data */\n      dup7\n        /* \"ERC721/ERC721.sol\":6056:6137  ERC721TokenReceiver(_to).onERC721Received(msg.sender, address(0), _tokenId, data) */\n      mload(0x40)\n      dup6\n      0xffffffff\n      and\n      0xe0\n      shl\n      dup2\n      mstore\n      0x04\n      add\n      tag_100\n      swap5\n      swap4\n      swap3\n      swap2\n      swap1\n      tag_101\n      jump\t// in\n    tag_100:\n      0x20\n      mload(0x40)\n      dup1\n      dup4\n      sub\n      dup2\n      0x00\n      dup8\n      dup1\n      extcodesize\n      iszero\n      dup1\n      iszero\n      tag_102\n      jumpi\n      0x00\n      dup1\n      revert\n    tag_102:\n      pop\n      gas\n      call\n      iszero\n      dup1\n      iszero\n      tag_104\n      jumpi\n      returndatasize\n      0x00\n      dup1\n      returndatacopy\n      revert(0x00, returndatasize)\n    tag_104:\n      pop\n      pop\n      pop\n      pop\n      mload(0x40)\n      returndatasize\n      not(0x1f)\n      0x1f\n      dup3\n      add\n      and\n      dup3\n      add\n      dup1\n      0x40\n      mstore\n      pop\n      dup2\n      add\n      swap1\n      tag_105\n      swap2\n      swap1\n      tag_106\n      jump\t// in\n    tag_105:\n        /* \"ERC721/ERC721.sol\":6040:6137  bytes4 retval = ERC721TokenReceiver(_to).onERC721Received(msg.sender, address(0), _tokenId, data) */\n      swap1\n      pop\n        /* \"ERC721/ERC721.sol\":6170:6215  ERC721TokenReceiver.onERC721Received.selector */\n      shl(0xe0, 0x150b7a02)\n        /* \"ERC721/ERC721.sol\":6160:6215  retval == ERC721TokenReceiver.onERC721Received.selector */\n      not(0xffffffffffffffffffffffffffffffffffffffffffffffffffffffff)\n      and\n        /* \"ERC721/ERC721.sol\":6160:6166  retval */\n      dup2\n        /* \"ERC721/ERC721.sol\":6160:6215  retval == ERC721TokenReceiver.onERC721Received.selector */\n      not(0xffffffffffffffffffffffffffffffffffffffffffffffffffffffff)\n      and\n      eq\n        /* \"ERC721/ERC721.sol\":6152:6267  require(retval == ERC721TokenReceiver.onERC721Received.selector, \"retval not equal onERC721Received's interfaceID\") */\n      tag_107\n      jumpi\n      mload(0x40)\n      0x08c379a000000000000000000000000000000000000000000000000000000000\n      dup2\n      mstore\n      0x04\n      add\n      tag_108\n      swap1\n      tag_109\n      jump\t// in\n    tag_108:\n      mload(0x40)\n      dup1\n      swap2\n      sub\n      swap1\n      revert\n    tag_107:\n        /* \"ERC721/ERC721.sol\":5939:6279  {\r... */\n      pop\n        /* \"ERC721/ERC721.sol\":5918:6279  if(_to.isContract()) {\r... */\n    tag_99:\n        /* \"ERC721/ERC721.sol\":6328:6336  _tokenId */\n      dup2\n        /* \"ERC721/ERC721.sol\":6324:6327  _to */\n      dup4\n        /* \"ERC721/ERC721.sol\":6304:6337  Transfer(address(0),_to,_tokenId) */\n      0xffffffffffffffffffffffffffffffffffffffff\n      and\n        /* \"ERC721/ERC721.sol\":6321:6322  0 */\n      0x00\n        /* \"ERC721/ERC721.sol\":6304:6337  Transfer(address(0),_to,_tokenId) */\n      0xffffffffffffffffffffffffffffffffffffffff\n      and\n      0xddf252ad1be2c89b69c2b068fc378daa952ba7f163c4a11628f55a4df523b3ef\n      mload(0x40)\n      mload(0x40)\n      dup1\n      swap2\n      sub\n      swap1\n      log4\n        /* \"ERC721/ERC721.sol\":5595:6345  function mint(address _to, uint256 _tokenId,bytes memory data) external{\r... */\n      pop\n      pop\n      pop\n      jump\t// out\n        /* \"ERC721/ERC721.sol\":3870:4082  function setApprovalForAll(address _operator, bool _approved) override external{\r... */\n    tag_60:\n        /* \"ERC721/ERC721.sol\":4003:4012  _approved */\n      dup1\n        /* \"ERC721/ERC721.sol\":3960:3977  ercOperatorForAll */\n      0x05\n        /* \"ERC721/ERC721.sol\":3960:3989  ercOperatorForAll[msg.sender] */\n      0x00\n        /* \"ERC721/ERC721.sol\":3978:3988  msg.sender */\n      caller\n        /* \"ERC721/ERC721.sol\":3960:3989  ercOperatorForAll[msg.sender] */\n      0xffffffffffffffffffffffffffffffffffffffff\n      and\n      0xffffffffffffffffffffffffffffffffffffffff\n      and\n      dup2\n      mstore\n      0x20\n      add\n      swap1\n      dup2\n      mstore\n      0x20\n      add\n      0x00\n      keccak256\n        /* \"ERC721/ERC721.sol\":3960:4000  ercOperatorForAll[msg.sender][_operator] */\n      0x00\n        /* \"ERC721/ERC721.sol\":3990:3999  _operator */\n      dup5\n        /* \"ERC721/ERC721.sol\":3960:4000  ercOperatorForAll[msg.sender][_operator] */\n      0xffffffffffffffffffffffffffffffffffffffff\n      and\n      0xffffffffffffffffffffffffffffffffffffffff\n      and\n      dup2\n      mstore\n      0x20\n      add\n      swap1\n      dup2\n      mstore\n      0x20\n      add\n      0x00\n      keccak256\n      0x00\n        /* \"ERC721/ERC721.sol\":3960:4012  ercOperatorForAll[msg.sender][_operator] = _approved */\n      0x0100\n      exp\n      dup2\n      sload\n      dup2\n      0xff\n      mul\n      not\n      and\n      swap1\n      dup4\n      iszero\n      iszero\n      mul\n      or\n      swap1\n      sstore\n      pop\n        /* \"ERC721/ERC721.sol\":4054:4063  _operator */\n      dup2\n        /* \"ERC721/ERC721.sol\":4028:4074  ApprovalForAll(msg.sender,_operator,_approved) */\n      0xffffffffffffffffffffffffffffffffffffffff\n      and\n        /* \"ERC721/ERC721.sol\":4043:4053  msg.sender */\n      caller\n        /* \"ERC721/ERC721.sol\":4028:4074  ApprovalForAll(msg.sender,_operator,_approved) */\n      0xffffffffffffffffffffffffffffffffffffffff\n      and\n      0x17307eab39ab6107e8899845ad3d59bd9653f200f220920489ca2b5937696c31\n        /* \"ERC721/ERC721.sol\":4064:4073  _approved */\n      dup4\n        /* \"ERC721/ERC721.sol\":4028:4074  ApprovalForAll(msg.sender,_operator,_approved) */\n      mload(0x40)\n      tag_111\n      swap2\n      swap1\n      tag_20\n      jump\t// in\n    tag_111:\n      mload(0x40)\n      dup1\n      swap2\n      sub\n      swap1\n      log3\n        /* \"ERC721/ERC721.sol\":3870:4082  function setApprovalForAll(address _operator, bool _approved) override external{\r... */\n      pop\n      pop\n      jump\t// out\n        /* \"ERC721/ERC721.sol\":4814:4991  function safeTransferFrom(address _from, address _to, uint256 _tokenId, bytes memory data) override external payable{\r... */\n    tag_64:\n        /* \"ERC721/ERC721.sol\":4941:4983  _safeTransferFrom(_from,_to,_tokenId,data) */\n      tag_113\n        /* \"ERC721/ERC721.sol\":4959:4964  _from */\n      dup5\n        /* \"ERC721/ERC721.sol\":4965:4968  _to */\n      dup5\n        /* \"ERC721/ERC721.sol\":4969:4977  _tokenId */\n      dup5\n        /* \"ERC721/ERC721.sol\":4978:4982  data */\n      dup5\n        /* \"ERC721/ERC721.sol\":4941:4958  _safeTransferFrom */\n      tag_85\n        /* \"ERC721/ERC721.sol\":4941:4983  _safeTransferFrom(_from,_to,_tokenId,data) */\n      jump\t// in\n    tag_113:\n        /* \"ERC721/ERC721.sol\":4814:4991  function safeTransferFrom(address _from, address _to, uint256 _tokenId, bytes memory data) override external payable{\r... */\n      pop\n      pop\n      pop\n      pop\n      jump\t// out\n        /* \"ERC721/ERC721.sol\":3470:3630  function isApprovedForAll(address _owner, address _operator) override external view returns (bool){\r... */\n    tag_69:\n        /* \"ERC721/ERC721.sol\":3563:3567  bool */\n      0x00\n        /* \"ERC721/ERC721.sol\":3586:3603  ercOperatorForAll */\n      0x05\n        /* \"ERC721/ERC721.sol\":3586:3611  ercOperatorForAll[_owner] */\n      0x00\n        /* \"ERC721/ERC721.sol\":3604:3610  _owner */\n      dup5\n        /* \"ERC721/ERC721.sol\":3586:3611  ercOperatorForAll[_owner] */\n      0xffffffffffffffffffffffffffffffffffffffff\n      and\n      0xffffffffffffffffffffffffffffffffffffffff\n      and\n      dup2\n      mstore\n      0x20\n      add\n      swap1\n      dup2\n      mstore\n      0x20\n      add\n      0x00\n      keccak256\n        /* \"ERC721/ERC721.sol\":3586:3622  ercOperatorForAll[_owner][_operator] */\n      0x00\n        /* \"ERC721/ERC721.sol\":3612:3621  _operator */\n      dup4\n        /* \"ERC721/ERC721.sol\":3586:3622  ercOperatorForAll[_owner][_operator] */\n      0xffffffffffffffffffffffffffffffffffffffff\n      and\n      0xffffffffffffffffffffffffffffffffffffffff\n      and\n      dup2\n      mstore\n      0x20\n      add\n      swap1\n      dup2\n      mstore\n      0x20\n      add\n      0x00\n      keccak256\n      0x00\n      swap1\n      sload\n      swap1\n      0x0100\n      exp\n      swap1\n      div\n      0xff\n      and\n        /* \"ERC721/ERC721.sol\":3579:3622  return ercOperatorForAll[_owner][_operator] */\n      swap1\n      pop\n        /* \"ERC721/ERC721.sol\":3470:3630  function isApprovedForAll(address _owner, address _operator) override external view returns (bool){\r... */\n      swap3\n      swap2\n      pop\n      pop\n      jump\t// out\n        /* \"ERC721/ERC721.sol\":4249:4646  function _transferFrom(address _from, address _to, uint256 _tokenId)  internal canTransfer(_tokenId,_from) {\r... */\n    tag_82:\n        /* \"ERC721/ERC721.sol\":4340:4348  _tokenId */\n      dup1\n        /* \"ERC721/ERC721.sol\":4349:4354  _from */\n      dup4\n        /* \"ERC721/ERC721.sol\":2391:2409  address tokenOwner */\n      0x00\n        /* \"ERC721/ERC721.sol\":2412:2425  ercTokenOwner */\n      0x03\n        /* \"ERC721/ERC721.sol\":2412:2435  ercTokenOwner[_tokenId] */\n      0x00\n        /* \"ERC721/ERC721.sol\":2426:2434  _tokenId */\n      dup5\n        /* \"ERC721/ERC721.sol\":2412:2435  ercTokenOwner[_tokenId] */\n      dup2\n      mstore\n      0x20\n      add\n      swap1\n      dup2\n      mstore\n      0x20\n      add\n      0x00\n      keccak256\n      0x00\n      swap1\n      sload\n      swap1\n      0x0100\n      exp\n      swap1\n      div\n      0xffffffffffffffffffffffffffffffffffffffff\n      and\n        /* \"ERC721/ERC721.sol\":2391:2435  address tokenOwner = ercTokenOwner[_tokenId] */\n      swap1\n      pop\n        /* \"ERC721/ERC721.sol\":2468:2473  _from */\n      dup2\n        /* \"ERC721/ERC721.sol\":2454:2473  tokenOwner == _from */\n      0xffffffffffffffffffffffffffffffffffffffff\n      and\n        /* \"ERC721/ERC721.sol\":2454:2464  tokenOwner */\n      dup2\n        /* \"ERC721/ERC721.sol\":2454:2473  tokenOwner == _from */\n      0xffffffffffffffffffffffffffffffffffffffff\n      and\n      eq\n        /* \"ERC721/ERC721.sol\":2446:2496  require(tokenOwner == _from,\"tokenOwner != _from\") */\n      tag_116\n      jumpi\n      mload(0x40)\n      0x08c379a000000000000000000000000000000000000000000000000000000000\n      dup2\n      mstore\n      0x04\n      add\n      tag_117\n      swap1\n      tag_118\n      jump\t// in\n    tag_117:\n      mload(0x40)\n      dup1\n      swap2\n      sub\n      swap1\n      revert\n    tag_116:\n        /* \"ERC721/ERC721.sol\":2529:2539  msg.sender */\n      caller\n        /* \"ERC721/ERC721.sol\":2515:2539  tokenOwner == msg.sender */\n      0xffffffffffffffffffffffffffffffffffffffff\n      and\n        /* \"ERC721/ERC721.sol\":2515:2525  tokenOwner */\n      dup2\n        /* \"ERC721/ERC721.sol\":2515:2539  tokenOwner == msg.sender */\n      0xffffffffffffffffffffffffffffffffffffffff\n      and\n      eq\n        /* \"ERC721/ERC721.sol\":2515:2592  tokenOwner == msg.sender ||\r... */\n      dup1\n      tag_119\n      jumpi\n      pop\n        /* \"ERC721/ERC721.sol\":2582:2592  msg.sender */\n      caller\n        /* \"ERC721/ERC721.sol\":2552:2592  ercToeknApproved[_tokenId] == msg.sender */\n      0xffffffffffffffffffffffffffffffffffffffff\n      and\n        /* \"ERC721/ERC721.sol\":2552:2568  ercToeknApproved */\n      0x04\n        /* \"ERC721/ERC721.sol\":2552:2578  ercToeknApproved[_tokenId] */\n      0x00\n        /* \"ERC721/ERC721.sol\":2569:2577  _tokenId */\n      dup6\n        /* \"ERC721/ERC721.sol\":2552:2578  ercToeknApproved[_tokenId] */\n      dup2\n      mstore\n      0x20\n      add\n      swap1\n      dup2\n      mstore\n      0x20\n      add\n      0x00\n      keccak256\n      0x00\n      swap1\n      sload\n      swap1\n      0x0100\n      exp\n      swap1\n      div\n      0xffffffffffffffffffffffffffffffffffffffff\n      and\n        /* \"ERC721/ERC721.sol\":2552:2592  ercToeknApproved[_tokenId] == msg.sender */\n      0xffffffffffffffffffffffffffffffffffffffff\n      and\n      eq\n        /* \"ERC721/ERC721.sol\":2515:2592  tokenOwner == msg.sender ||\r... */\n    tag_119:\n        /* \"ERC721/ERC721.sol\":2515:2646  tokenOwner == msg.sender ||\r... */\n      dup1\n      tag_120\n      jumpi\n      pop\n        /* \"ERC721/ERC721.sol\":2605:2622  ercOperatorForAll */\n      0x05\n        /* \"ERC721/ERC721.sol\":2605:2634  ercOperatorForAll[tokenOwner] */\n      0x00\n        /* \"ERC721/ERC721.sol\":2623:2633  tokenOwner */\n      dup3\n        /* \"ERC721/ERC721.sol\":2605:2634  ercOperatorForAll[tokenOwner] */\n      0xffffffffffffffffffffffffffffffffffffffff\n      and\n      0xffffffffffffffffffffffffffffffffffffffff\n      and\n      dup2\n      mstore\n      0x20\n      add\n      swap1\n      dup2\n      mstore\n      0x20\n      add\n      0x00\n      keccak256\n        /* \"ERC721/ERC721.sol\":2605:2646  ercOperatorForAll[tokenOwner][msg.sender] */\n      0x00\n        /* \"ERC721/ERC721.sol\":2635:2645  msg.sender */\n      caller\n        /* \"ERC721/ERC721.sol\":2605:2646  ercOperatorForAll[tokenOwner][msg.sender] */\n      0xffffffffffffffffffffffffffffffffffffffff\n      and\n      0xffffffffffffffffffffffffffffffffffffffff\n      and\n      dup2\n      mstore\n      0x20\n      add\n      swap1\n      dup2\n      mstore\n      0x20\n      add\n      0x00\n      keccak256\n      0x00\n      swap1\n      sload\n      swap1\n      0x0100\n      exp\n      swap1\n      div\n      0xff\n      and\n        /* \"ERC721/ERC721.sol\":2515:2646  tokenOwner == msg.sender ||\r... */\n    tag_120:\n        /* \"ERC721/ERC721.sol\":2507:2647  require(tokenOwner == msg.sender ||\r... */\n      tag_121\n      jumpi\n      0x00\n      dup1\n      revert\n    tag_121:\n        /* \"ERC721/ERC721.sol\":4393:4396  _to */\n      dup5\n        /* \"ERC721/ERC721.sol\":4367:4380  ercTokenOwner */\n      0x03\n        /* \"ERC721/ERC721.sol\":4367:4390  ercTokenOwner[_tokenId] */\n      0x00\n        /* \"ERC721/ERC721.sol\":4381:4389  _tokenId */\n      dup7\n        /* \"ERC721/ERC721.sol\":4367:4390  ercTokenOwner[_tokenId] */\n      dup2\n      mstore\n      0x20\n      add\n      swap1\n      dup2\n      mstore\n      0x20\n      add\n      0x00\n      keccak256\n      0x00\n        /* \"ERC721/ERC721.sol\":4367:4396  ercTokenOwner[_tokenId] = _to */\n      0x0100\n      exp\n      dup2\n      sload\n      dup2\n      0xffffffffffffffffffffffffffffffffffffffff\n      mul\n      not\n      and\n      swap1\n      dup4\n      0xffffffffffffffffffffffffffffffffffffffff\n      and\n      mul\n      or\n      swap1\n      sstore\n      pop\n        /* \"ERC721/ERC721.sol\":4446:4447  1 */\n      0x01\n        /* \"ERC721/ERC721.sol\":4422:4435  ercTokenCount */\n      0x02\n        /* \"ERC721/ERC721.sol\":4422:4442  ercTokenCount[_from] */\n      0x00\n        /* \"ERC721/ERC721.sol\":4436:4441  _from */\n      dup9\n        /* \"ERC721/ERC721.sol\":4422:4442  ercTokenCount[_from] */\n      0xffffffffffffffffffffffffffffffffffffffff\n      and\n      0xffffffffffffffffffffffffffffffffffffffff\n      and\n      dup2\n      mstore\n      0x20\n      add\n      swap1\n      dup2\n      mstore\n      0x20\n      add\n      0x00\n      keccak256\n      0x00\n        /* \"ERC721/ERC721.sol\":4422:4447  ercTokenCount[_from] -= 1 */\n      dup3\n      dup3\n      sload\n      tag_123\n      swap2\n      swap1\n      tag_124\n      jump\t// in\n    tag_123:\n      swap3\n      pop\n      pop\n      dup2\n      swap1\n      sstore\n      pop\n        /* \"ERC721/ERC721.sol\":4504:4505  1 */\n      0x01\n        /* \"ERC721/ERC721.sol\":4482:4495  ercTokenCount */\n      0x02\n        /* \"ERC721/ERC721.sol\":4482:4500  ercTokenCount[_to] */\n      0x00\n        /* \"ERC721/ERC721.sol\":4496:4499  _to */\n      dup8\n        /* \"ERC721/ERC721.sol\":4482:4500  ercTokenCount[_to] */\n      0xffffffffffffffffffffffffffffffffffffffff\n      and\n      0xffffffffffffffffffffffffffffffffffffffff\n      and\n      dup2\n      mstore\n      0x20\n      add\n      swap1\n      dup2\n      mstore\n      0x20\n      add\n      0x00\n      keccak256\n      0x00\n        /* \"ERC721/ERC721.sol\":4482:4505  ercTokenCount[_to] += 1 */\n      dup3\n      dup3\n      sload\n      tag_125\n      swap2\n      swap1\n      tag_96\n      jump\t// in\n    tag_125:\n      swap3\n      pop\n      pop\n      dup2\n      swap1\n      sstore\n      pop\n        /* \"ERC721/ERC721.sol\":4577:4578  0 */\n      0x00\n        /* \"ERC721/ERC721.sol\":4540:4556  ercToeknApproved */\n      0x04\n        /* \"ERC721/ERC721.sol\":4540:4566  ercToeknApproved[_tokenId] */\n      0x00\n        /* \"ERC721/ERC721.sol\":4557:4565  _tokenId */\n      dup7\n        /* \"ERC721/ERC721.sol\":4540:4566  ercToeknApproved[_tokenId] */\n      dup2\n      mstore\n      0x20\n      add\n      swap1\n      dup2\n      mstore\n      0x20\n      add\n      0x00\n      keccak256\n      0x00\n        /* \"ERC721/ERC721.sol\":4540:4579  ercToeknApproved[_tokenId] = address(0) */\n      0x0100\n      exp\n      dup2\n      sload\n      dup2\n      0xffffffffffffffffffffffffffffffffffffffff\n      mul\n      not\n      and\n      swap1\n      dup4\n      0xffffffffffffffffffffffffffffffffffffffff\n      and\n      mul\n      or\n      swap1\n      sstore\n      pop\n        /* \"ERC721/ERC721.sol\":4629:4637  _tokenId */\n      dup4\n        /* \"ERC721/ERC721.sol\":4625:4628  _to */\n      dup6\n        /* \"ERC721/ERC721.sol\":4610:4638  Transfer(_from,_to,_tokenId) */\n      0xffffffffffffffffffffffffffffffffffffffff\n      and\n        /* \"ERC721/ERC721.sol\":4619:4624  _from */\n      dup8\n        /* \"ERC721/ERC721.sol\":4610:4638  Transfer(_from,_to,_tokenId) */\n      0xffffffffffffffffffffffffffffffffffffffff\n      and\n      0xddf252ad1be2c89b69c2b068fc378daa952ba7f163c4a11628f55a4df523b3ef\n      mload(0x40)\n      mload(0x40)\n      dup1\n      swap2\n      sub\n      swap1\n      log4\n        /* \"ERC721/ERC721.sol\":2380:2667  {\r... */\n      pop\n        /* \"ERC721/ERC721.sol\":4249:4646  function _transferFrom(address _from, address _to, uint256 _tokenId)  internal canTransfer(_tokenId,_from) {\r... */\n      pop\n      pop\n      pop\n      pop\n      pop\n      jump\t// out\n        /* \"ERC721/ERC721.sol\":4997:5589  function _safeTransferFrom(address _from, address _to, uint256 _tokenId, bytes memory data) internal{\r... */\n    tag_85:\n        /* \"ERC721/ERC721.sol\":5108:5141  _transferFrom(_from,_to,_tokenId) */\n      tag_127\n        /* \"ERC721/ERC721.sol\":5122:5127  _from */\n      dup5\n        /* \"ERC721/ERC721.sol\":5128:5131  _to */\n      dup5\n        /* \"ERC721/ERC721.sol\":5132:5140  _tokenId */\n      dup5\n        /* \"ERC721/ERC721.sol\":5108:5121  _transferFrom */\n      tag_82\n        /* \"ERC721/ERC721.sol\":5108:5141  _transferFrom(_from,_to,_tokenId) */\n      jump\t// in\n    tag_127:\n        /* \"ERC721/ERC721.sol\":5180:5196  _to.isContract() */\n      tag_128\n        /* \"ERC721/ERC721.sol\":5180:5183  _to */\n      dup4\n        /* \"ERC721/ERC721.sol\":5180:5194  _to.isContract */\n      0xffffffffffffffffffffffffffffffffffffffff\n      and\n      tag_98\n        /* \"ERC721/ERC721.sol\":5180:5196  _to.isContract() */\n      jump\t// in\n    tag_128:\n        /* \"ERC721/ERC721.sol\":5177:5538  if(_to.isContract()) {\r... */\n      iszero\n      tag_129\n      jumpi\n        /* \"ERC721/ERC721.sol\":5299:5312  bytes4 retval */\n      0x00\n        /* \"ERC721/ERC721.sol\":5335:5338  _to */\n      dup4\n        /* \"ERC721/ERC721.sol\":5315:5356  ERC721TokenReceiver(_to).onERC721Received */\n      0xffffffffffffffffffffffffffffffffffffffff\n      and\n      0x150b7a02\n        /* \"ERC721/ERC721.sol\":5357:5367  msg.sender */\n      caller\n        /* \"ERC721/ERC721.sol\":5377:5378  0 */\n      0x00\n        /* \"ERC721/ERC721.sol\":5381:5389  _tokenId */\n      dup7\n        /* \"ERC721/ERC721.sol\":5391:5395  data */\n      dup7\n        /* \"ERC721/ERC721.sol\":5315:5396  ERC721TokenReceiver(_to).onERC721Received(msg.sender, address(0), _tokenId, data) */\n      mload(0x40)\n      dup6\n      0xffffffff\n      and\n      0xe0\n      shl\n      dup2\n      mstore\n      0x04\n      add\n      tag_130\n      swap5\n      swap4\n      swap3\n      swap2\n      swap1\n      tag_101\n      jump\t// in\n    tag_130:\n      0x20\n      mload(0x40)\n      dup1\n      dup4\n      sub\n      dup2\n      0x00\n      dup8\n      dup1\n      extcodesize\n      iszero\n      dup1\n      iszero\n      tag_131\n      jumpi\n      0x00\n      dup1\n      revert\n    tag_131:\n      pop\n      gas\n      call\n      iszero\n      dup1\n      iszero\n      tag_133\n      jumpi\n      returndatasize\n      0x00\n      dup1\n      returndatacopy\n      revert(0x00, returndatasize)\n    tag_133:\n      pop\n      pop\n      pop\n      pop\n      mload(0x40)\n      returndatasize\n      not(0x1f)\n      0x1f\n      dup3\n      add\n      and\n      dup3\n      add\n      dup1\n      0x40\n      mstore\n      pop\n      dup2\n      add\n      swap1\n      tag_134\n      swap2\n      swap1\n      tag_106\n      jump\t// in\n    tag_134:\n        /* \"ERC721/ERC721.sol\":5299:5396  bytes4 retval = ERC721TokenReceiver(_to).onERC721Received(msg.sender, address(0), _tokenId, data) */\n      swap1\n      pop\n        /* \"ERC721/ERC721.sol\":5429:5474  ERC721TokenReceiver.onERC721Received.selector */\n      shl(0xe0, 0x150b7a02)\n        /* \"ERC721/ERC721.sol\":5419:5474  retval == ERC721TokenReceiver.onERC721Received.selector */\n      not(0xffffffffffffffffffffffffffffffffffffffffffffffffffffffff)\n      and\n        /* \"ERC721/ERC721.sol\":5419:5425  retval */\n      dup2\n        /* \"ERC721/ERC721.sol\":5419:5474  retval == ERC721TokenReceiver.onERC721Received.selector */\n      not(0xffffffffffffffffffffffffffffffffffffffffffffffffffffffff)\n      and\n      eq\n        /* \"ERC721/ERC721.sol\":5411:5526  require(retval == ERC721TokenReceiver.onERC721Received.selector, \"retval not equal onERC721Received's interfaceID\") */\n      tag_135\n      jumpi\n      mload(0x40)\n      0x08c379a000000000000000000000000000000000000000000000000000000000\n      dup2\n      mstore\n      0x04\n      add\n      tag_136\n      swap1\n      tag_109\n      jump\t// in\n    tag_136:\n      mload(0x40)\n      dup1\n      swap2\n      sub\n      swap1\n      revert\n    tag_135:\n        /* \"ERC721/ERC721.sol\":5198:5538  {\r... */\n      pop\n        /* \"ERC721/ERC721.sol\":5177:5538  if(_to.isContract()) {\r... */\n    tag_129:\n        /* \"ERC721/ERC721.sol\":5572:5580  _tokenId */\n      dup2\n        /* \"ERC721/ERC721.sol\":5568:5571  _to */\n      dup4\n        /* \"ERC721/ERC721.sol\":5553:5581  Transfer(_from,_to,_tokenId) */\n      0xffffffffffffffffffffffffffffffffffffffff\n      and\n        /* \"ERC721/ERC721.sol\":5562:5567  _from */\n      dup6\n        /* \"ERC721/ERC721.sol\":5553:5581  Transfer(_from,_to,_tokenId) */\n      0xffffffffffffffffffffffffffffffffffffffff\n      and\n      0xddf252ad1be2c89b69c2b068fc378daa952ba7f163c4a11628f55a4df523b3ef\n      mload(0x40)\n      mload(0x40)\n      dup1\n      swap2\n      sub\n      swap1\n      log4\n        /* \"ERC721/ERC721.sol\":4997:5589  function _safeTransferFrom(address _from, address _to, uint256 _tokenId, bytes memory data) internal{\r... */\n      pop\n      pop\n      pop\n      pop\n      jump\t// out\n        /* \"github.com/OpenZeppelin/openzeppelin-contracts/contracts/utils/Address.sol\":1175:1495  function isContract(address account) internal view returns (bool) {... */\n    tag_98:\n        /* \"github.com/OpenZeppelin/openzeppelin-contracts/contracts/utils/Address.sol\":1235:1239  bool */\n      0x00\n        /* \"github.com/OpenZeppelin/openzeppelin-contracts/contracts/utils/Address.sol\":1487:1488  0 */\n      dup1\n        /* \"github.com/OpenZeppelin/openzeppelin-contracts/contracts/utils/Address.sol\":1465:1472  account */\n      dup3\n        /* \"github.com/OpenZeppelin/openzeppelin-contracts/contracts/utils/Address.sol\":1465:1484  account.code.length */\n      0xffffffffffffffffffffffffffffffffffffffff\n      and\n      extcodesize\n        /* \"github.com/OpenZeppelin/openzeppelin-contracts/contracts/utils/Address.sol\":1465:1488  account.code.length > 0 */\n      gt\n        /* \"github.com/OpenZeppelin/openzeppelin-contracts/contracts/utils/Address.sol\":1458:1488  return account.code.length > 0 */\n      swap1\n      pop\n        /* \"github.com/OpenZeppelin/openzeppelin-contracts/contracts/utils/Address.sol\":1175:1495  function isContract(address account) internal view returns (bool) {... */\n      swap2\n      swap1\n      pop\n      jump\t// out\n        /* \"#utility.yul\":7:417   */\n    tag_139:\n        /* \"#utility.yul\":84:89   */\n      0x00\n        /* \"#utility.yul\":109:174   */\n      tag_141\n        /* \"#utility.yul\":125:173   */\n      tag_142\n        /* \"#utility.yul\":166:172   */\n      dup5\n        /* \"#utility.yul\":125:173   */\n      tag_143\n      jump\t// in\n    tag_142:\n        /* \"#utility.yul\":109:174   */\n      tag_144\n      jump\t// in\n    tag_141:\n        /* \"#utility.yul\":100:174   */\n      swap1\n      pop\n        /* \"#utility.yul\":197:203   */\n      dup3\n        /* \"#utility.yul\":190:195   */\n      dup2\n        /* \"#utility.yul\":183:204   */\n      mstore\n        /* \"#utility.yul\":235:239   */\n      0x20\n        /* \"#utility.yul\":228:233   */\n      dup2\n        /* \"#utility.yul\":224:240   */\n      add\n        /* \"#utility.yul\":273:276   */\n      dup5\n        /* \"#utility.yul\":264:270   */\n      dup5\n        /* \"#utility.yul\":259:262   */\n      dup5\n        /* \"#utility.yul\":255:271   */\n      add\n        /* \"#utility.yul\":252:277   */\n      gt\n        /* \"#utility.yul\":249:361   */\n      iszero\n      tag_145\n      jumpi\n        /* \"#utility.yul\":280:359   */\n      tag_146\n      tag_147\n      jump\t// in\n    tag_146:\n        /* \"#utility.yul\":249:361   */\n    tag_145:\n        /* \"#utility.yul\":370:411   */\n      tag_148\n        /* \"#utility.yul\":404:410   */\n      dup5\n        /* \"#utility.yul\":399:402   */\n      dup3\n        /* \"#utility.yul\":394:397   */\n      dup6\n        /* \"#utility.yul\":370:411   */\n      tag_149\n      jump\t// in\n    tag_148:\n        /* \"#utility.yul\":90:417   */\n      pop\n        /* \"#utility.yul\":7:417   */\n      swap4\n      swap3\n      pop\n      pop\n      pop\n      jump\t// out\n        /* \"#utility.yul\":423:562   */\n    tag_150:\n        /* \"#utility.yul\":469:474   */\n      0x00\n        /* \"#utility.yul\":507:513   */\n      dup2\n        /* \"#utility.yul\":494:514   */\n      calldataload\n        /* \"#utility.yul\":485:514   */\n      swap1\n      pop\n        /* \"#utility.yul\":523:556   */\n      tag_152\n        /* \"#utility.yul\":550:555   */\n      dup2\n        /* \"#utility.yul\":523:556   */\n      tag_153\n      jump\t// in\n    tag_152:\n        /* \"#utility.yul\":423:562   */\n      swap3\n      swap2\n      pop\n      pop\n      jump\t// out\n        /* \"#utility.yul\":568:701   */\n    tag_154:\n        /* \"#utility.yul\":611:616   */\n      0x00\n        /* \"#utility.yul\":649:655   */\n      dup2\n        /* \"#utility.yul\":636:656   */\n      calldataload\n        /* \"#utility.yul\":627:656   */\n      swap1\n      pop\n        /* \"#utility.yul\":665:695   */\n      tag_156\n        /* \"#utility.yul\":689:694   */\n      dup2\n        /* \"#utility.yul\":665:695   */\n      tag_157\n      jump\t// in\n    tag_156:\n        /* \"#utility.yul\":568:701   */\n      swap3\n      swap2\n      pop\n      pop\n      jump\t// out\n        /* \"#utility.yul\":707:844   */\n    tag_158:\n        /* \"#utility.yul\":752:757   */\n      0x00\n        /* \"#utility.yul\":790:796   */\n      dup2\n        /* \"#utility.yul\":777:797   */\n      calldataload\n        /* \"#utility.yul\":768:797   */\n      swap1\n      pop\n        /* \"#utility.yul\":806:838   */\n      tag_160\n        /* \"#utility.yul\":832:837   */\n      dup2\n        /* \"#utility.yul\":806:838   */\n      tag_161\n      jump\t// in\n    tag_160:\n        /* \"#utility.yul\":707:844   */\n      swap3\n      swap2\n      pop\n      pop\n      jump\t// out\n        /* \"#utility.yul\":850:991   */\n    tag_162:\n        /* \"#utility.yul\":906:911   */\n      0x00\n        /* \"#utility.yul\":937:943   */\n      dup2\n        /* \"#utility.yul\":931:944   */\n      mload\n        /* \"#utility.yul\":922:944   */\n      swap1\n      pop\n        /* \"#utility.yul\":953:985   */\n      tag_164\n        /* \"#utility.yul\":979:984   */\n      dup2\n        /* \"#utility.yul\":953:985   */\n      tag_161\n      jump\t// in\n    tag_164:\n        /* \"#utility.yul\":850:991   */\n      swap3\n      swap2\n      pop\n      pop\n      jump\t// out\n        /* \"#utility.yul\":1010:1348   */\n    tag_165:\n        /* \"#utility.yul\":1065:1070   */\n      0x00\n        /* \"#utility.yul\":1114:1117   */\n      dup3\n        /* \"#utility.yul\":1107:1111   */\n      0x1f\n        /* \"#utility.yul\":1099:1105   */\n      dup4\n        /* \"#utility.yul\":1095:1112   */\n      add\n        /* \"#utility.yul\":1091:1118   */\n      slt\n        /* \"#utility.yul\":1081:1203   */\n      tag_167\n      jumpi\n        /* \"#utility.yul\":1122:1201   */\n      tag_168\n      tag_169\n      jump\t// in\n    tag_168:\n        /* \"#utility.yul\":1081:1203   */\n    tag_167:\n        /* \"#utility.yul\":1239:1245   */\n      dup2\n        /* \"#utility.yul\":1226:1246   */\n      calldataload\n        /* \"#utility.yul\":1264:1342   */\n      tag_170\n        /* \"#utility.yul\":1338:1341   */\n      dup5\n        /* \"#utility.yul\":1330:1336   */\n      dup3\n        /* \"#utility.yul\":1323:1327   */\n      0x20\n        /* \"#utility.yul\":1315:1321   */\n      dup7\n        /* \"#utility.yul\":1311:1328   */\n      add\n        /* \"#utility.yul\":1264:1342   */\n      tag_139\n      jump\t// in\n    tag_170:\n        /* \"#utility.yul\":1255:1342   */\n      swap2\n      pop\n        /* \"#utility.yul\":1071:1348   */\n      pop\n        /* \"#utility.yul\":1010:1348   */\n      swap3\n      swap2\n      pop\n      pop\n      jump\t// out\n        /* \"#utility.yul\":1354:1493   */\n    tag_171:\n        /* \"#utility.yul\":1400:1405   */\n      0x00\n        /* \"#utility.yul\":1438:1444   */\n      dup2\n        /* \"#utility.yul\":1425:1445   */\n      calldataload\n        /* \"#utility.yul\":1416:1445   */\n      swap1\n      pop\n        /* \"#utility.yul\":1454:1487   */\n      tag_173\n        /* \"#utility.yul\":1481:1486   */\n      dup2\n        /* \"#utility.yul\":1454:1487   */\n      tag_174\n      jump\t// in\n    tag_173:\n        /* \"#utility.yul\":1354:1493   */\n      swap3\n      swap2\n      pop\n      pop\n      jump\t// out\n        /* \"#utility.yul\":1499:1828   */\n    tag_47:\n        /* \"#utility.yul\":1558:1564   */\n      0x00\n        /* \"#utility.yul\":1607:1609   */\n      0x20\n        /* \"#utility.yul\":1595:1604   */\n      dup3\n        /* \"#utility.yul\":1586:1593   */\n      dup5\n        /* \"#utility.yul\":1582:1605   */\n      sub\n        /* \"#utility.yul\":1578:1610   */\n      slt\n        /* \"#utility.yul\":1575:1694   */\n      iszero\n      tag_176\n      jumpi\n        /* \"#utility.yul\":1613:1692   */\n      tag_177\n      tag_178\n      jump\t// in\n    tag_177:\n        /* \"#utility.yul\":1575:1694   */\n    tag_176:\n        /* \"#utility.yul\":1733:1734   */\n      0x00\n        /* \"#utility.yul\":1758:1811   */\n      tag_179\n        /* \"#utility.yul\":1803:1810   */\n      dup5\n        /* \"#utility.yul\":1794:1800   */\n      dup3\n        /* \"#utility.yul\":1783:1792   */\n      dup6\n        /* \"#utility.yul\":1779:1801   */\n      add\n        /* \"#utility.yul\":1758:1811   */\n      tag_150\n      jump\t// in\n    tag_179:\n        /* \"#utility.yul\":1748:1811   */\n      swap2\n      pop\n        /* \"#utility.yul\":1704:1821   */\n      pop\n        /* \"#utility.yul\":1499:1828   */\n      swap3\n      swap2\n      pop\n      pop\n      jump\t// out\n        /* \"#utility.yul\":1834:2308   */\n    tag_68:\n        /* \"#utility.yul\":1902:1908   */\n      0x00\n        /* \"#utility.yul\":1910:1916   */\n      dup1\n        /* \"#utility.yul\":1959:1961   */\n      0x40\n        /* \"#utility.yul\":1947:1956   */\n      dup4\n        /* \"#utility.yul\":1938:1945   */\n      dup6\n        /* \"#utility.yul\":1934:1957   */\n      sub\n        /* \"#utility.yul\":1930:1962   */\n      slt\n        /* \"#utility.yul\":1927:2046   */\n      iszero\n      tag_181\n      jumpi\n        /* \"#utility.yul\":1965:2044   */\n      tag_182\n      tag_178\n      jump\t// in\n    tag_182:\n        /* \"#utility.yul\":1927:2046   */\n    tag_181:\n        /* \"#utility.yul\":2085:2086   */\n      0x00\n        /* \"#utility.yul\":2110:2163   */\n      tag_183\n        /* \"#utility.yul\":2155:2162   */\n      dup6\n        /* \"#utility.yul\":2146:2152   */\n      dup3\n        /* \"#utility.yul\":2135:2144   */\n      dup7\n        /* \"#utility.yul\":2131:2153   */\n      add\n        /* \"#utility.yul\":2110:2163   */\n      tag_150\n      jump\t// in\n    tag_183:\n        /* \"#utility.yul\":2100:2163   */\n      swap3\n      pop\n        /* \"#utility.yul\":2056:2173   */\n      pop\n        /* \"#utility.yul\":2212:2214   */\n      0x20\n        /* \"#utility.yul\":2238:2291   */\n      tag_184\n        /* \"#utility.yul\":2283:2290   */\n      dup6\n        /* \"#utility.yul\":2274:2280   */\n      dup3\n        /* \"#utility.yul\":2263:2272   */\n      dup7\n        /* \"#utility.yul\":2259:2281   */\n      add\n        /* \"#utility.yul\":2238:2291   */\n      tag_150\n      jump\t// in\n    tag_184:\n        /* \"#utility.yul\":2228:2291   */\n      swap2\n      pop\n        /* \"#utility.yul\":2183:2301   */\n      pop\n        /* \"#utility.yul\":1834:2308   */\n      swap3\n      pop\n      swap3\n      swap1\n      pop\n      jump\t// out\n        /* \"#utility.yul\":2314:2933   */\n    tag_34:\n        /* \"#utility.yul\":2391:2397   */\n      0x00\n        /* \"#utility.yul\":2399:2405   */\n      dup1\n        /* \"#utility.yul\":2407:2413   */\n      0x00\n        /* \"#utility.yul\":2456:2458   */\n      0x60\n        /* \"#utility.yul\":2444:2453   */\n      dup5\n        /* \"#utility.yul\":2435:2442   */\n      dup7\n        /* \"#utility.yul\":2431:2454   */\n      sub\n        /* \"#utility.yul\":2427:2459   */\n      slt\n        /* \"#utility.yul\":2424:2543   */\n      iszero\n      tag_186\n      jumpi\n        /* \"#utility.yul\":2462:2541   */\n      tag_187\n      tag_178\n      jump\t// in\n    tag_187:\n        /* \"#utility.yul\":2424:2543   */\n    tag_186:\n        /* \"#utility.yul\":2582:2583   */\n      0x00\n        /* \"#utility.yul\":2607:2660   */\n      tag_188\n        /* \"#utility.yul\":2652:2659   */\n      dup7\n        /* \"#utility.yul\":2643:2649   */\n      dup3\n        /* \"#utility.yul\":2632:2641   */\n      dup8\n        /* \"#utility.yul\":2628:2650   */\n      add\n        /* \"#utility.yul\":2607:2660   */\n      tag_150\n      jump\t// in\n    tag_188:\n        /* \"#utility.yul\":2597:2660   */\n      swap4\n      pop\n        /* \"#utility.yul\":2553:2670   */\n      pop\n        /* \"#utility.yul\":2709:2711   */\n      0x20\n        /* \"#utility.yul\":2735:2788   */\n      tag_189\n        /* \"#utility.yul\":2780:2787   */\n      dup7\n        /* \"#utility.yul\":2771:2777   */\n      dup3\n        /* \"#utility.yul\":2760:2769   */\n      dup8\n        /* \"#utility.yul\":2756:2778   */\n      add\n        /* \"#utility.yul\":2735:2788   */\n      tag_150\n      jump\t// in\n    tag_189:\n        /* \"#utility.yul\":2725:2788   */\n      swap3\n      pop\n        /* \"#utility.yul\":2680:2798   */\n      pop\n        /* \"#utility.yul\":2837:2839   */\n      0x40\n        /* \"#utility.yul\":2863:2916   */\n      tag_190\n        /* \"#utility.yul\":2908:2915   */\n      dup7\n        /* \"#utility.yul\":2899:2905   */\n      dup3\n        /* \"#utility.yul\":2888:2897   */\n      dup8\n        /* \"#utility.yul\":2884:2906   */\n      add\n        /* \"#utility.yul\":2863:2916   */\n      tag_171\n      jump\t// in\n    tag_190:\n        /* \"#utility.yul\":2853:2916   */\n      swap2\n      pop\n        /* \"#utility.yul\":2808:2926   */\n      pop\n        /* \"#utility.yul\":2314:2933   */\n      swap3\n      pop\n      swap3\n      pop\n      swap3\n      jump\t// out\n        /* \"#utility.yul\":2939:3882   */\n    tag_63:\n        /* \"#utility.yul\":3034:3040   */\n      0x00\n        /* \"#utility.yul\":3042:3048   */\n      dup1\n        /* \"#utility.yul\":3050:3056   */\n      0x00\n        /* \"#utility.yul\":3058:3064   */\n      dup1\n        /* \"#utility.yul\":3107:3110   */\n      0x80\n        /* \"#utility.yul\":3095:3104   */\n      dup6\n        /* \"#utility.yul\":3086:3093   */\n      dup8\n        /* \"#utility.yul\":3082:3105   */\n      sub\n        /* \"#utility.yul\":3078:3111   */\n      slt\n        /* \"#utility.yul\":3075:3195   */\n      iszero\n      tag_192\n      jumpi\n        /* \"#utility.yul\":3114:3193   */\n      tag_193\n      tag_178\n      jump\t// in\n    tag_193:\n        /* \"#utility.yul\":3075:3195   */\n    tag_192:\n        /* \"#utility.yul\":3234:3235   */\n      0x00\n        /* \"#utility.yul\":3259:3312   */\n      tag_194\n        /* \"#utility.yul\":3304:3311   */\n      dup8\n        /* \"#utility.yul\":3295:3301   */\n      dup3\n        /* \"#utility.yul\":3284:3293   */\n      dup9\n        /* \"#utility.yul\":3280:3302   */\n      add\n        /* \"#utility.yul\":3259:3312   */\n      tag_150\n      jump\t// in\n    tag_194:\n        /* \"#utility.yul\":3249:3312   */\n      swap5\n      pop\n        /* \"#utility.yul\":3205:3322   */\n      pop\n        /* \"#utility.yul\":3361:3363   */\n      0x20\n        /* \"#utility.yul\":3387:3440   */\n      tag_195\n        /* \"#utility.yul\":3432:3439   */\n      dup8\n        /* \"#utility.yul\":3423:3429   */\n      dup3\n        /* \"#utility.yul\":3412:3421   */\n      dup9\n        /* \"#utility.yul\":3408:3430   */\n      add\n        /* \"#utility.yul\":3387:3440   */\n      tag_150\n      jump\t// in\n    tag_195:\n        /* \"#utility.yul\":3377:3440   */\n      swap4\n      pop\n        /* \"#utility.yul\":3332:3450   */\n      pop\n        /* \"#utility.yul\":3489:3491   */\n      0x40\n        /* \"#utility.yul\":3515:3568   */\n      tag_196\n        /* \"#utility.yul\":3560:3567   */\n      dup8\n        /* \"#utility.yul\":3551:3557   */\n      dup3\n        /* \"#utility.yul\":3540:3549   */\n      dup9\n        /* \"#utility.yul\":3536:3558   */\n      add\n        /* \"#utility.yul\":3515:3568   */\n      tag_171\n      jump\t// in\n    tag_196:\n        /* \"#utility.yul\":3505:3568   */\n      swap3\n      pop\n        /* \"#utility.yul\":3460:3578   */\n      pop\n        /* \"#utility.yul\":3645:3647   */\n      0x60\n        /* \"#utility.yul\":3634:3643   */\n      dup6\n        /* \"#utility.yul\":3630:3648   */\n      add\n        /* \"#utility.yul\":3617:3649   */\n      calldataload\n        /* \"#utility.yul\":3676:3694   */\n      0xffffffffffffffff\n        /* \"#utility.yul\":3668:3674   */\n      dup2\n        /* \"#utility.yul\":3665:3695   */\n      gt\n        /* \"#utility.yul\":3662:3779   */\n      iszero\n      tag_197\n      jumpi\n        /* \"#utility.yul\":3698:3777   */\n      tag_198\n      tag_199\n      jump\t// in\n    tag_198:\n        /* \"#utility.yul\":3662:3779   */\n    tag_197:\n        /* \"#utility.yul\":3803:3865   */\n      tag_200\n        /* \"#utility.yul\":3857:3864   */\n      dup8\n        /* \"#utility.yul\":3848:3854   */\n      dup3\n        /* \"#utility.yul\":3837:3846   */\n      dup9\n        /* \"#utility.yul\":3833:3855   */\n      add\n        /* \"#utility.yul\":3803:3865   */\n      tag_165\n      jump\t// in\n    tag_200:\n        /* \"#utility.yul\":3793:3865   */\n      swap2\n      pop\n        /* \"#utility.yul\":3588:3875   */\n      pop\n        /* \"#utility.yul\":2939:3882   */\n      swap3\n      swap6\n      swap2\n      swap5\n      pop\n      swap3\n      pop\n      jump\t// out\n        /* \"#utility.yul\":3888:4356   */\n    tag_59:\n        /* \"#utility.yul\":3953:3959   */\n      0x00\n        /* \"#utility.yul\":3961:3967   */\n      dup1\n        /* \"#utility.yul\":4010:4012   */\n      0x40\n        /* \"#utility.yul\":3998:4007   */\n      dup4\n        /* \"#utility.yul\":3989:3996   */\n      dup6\n        /* \"#utility.yul\":3985:4008   */\n      sub\n        /* \"#utility.yul\":3981:4013   */\n      slt\n        /* \"#utility.yul\":3978:4097   */\n      iszero\n      tag_202\n      jumpi\n        /* \"#utility.yul\":4016:4095   */\n      tag_203\n      tag_178\n      jump\t// in\n    tag_203:\n        /* \"#utility.yul\":3978:4097   */\n    tag_202:\n        /* \"#utility.yul\":4136:4137   */\n      0x00\n        /* \"#utility.yul\":4161:4214   */\n      tag_204\n        /* \"#utility.yul\":4206:4213   */\n      dup6\n        /* \"#utility.yul\":4197:4203   */\n      dup3\n        /* \"#utility.yul\":4186:4195   */\n      dup7\n        /* \"#utility.yul\":4182:4204   */\n      add\n        /* \"#utility.yul\":4161:4214   */\n      tag_150\n      jump\t// in\n    tag_204:\n        /* \"#utility.yul\":4151:4214   */\n      swap3\n      pop\n        /* \"#utility.yul\":4107:4224   */\n      pop\n        /* \"#utility.yul\":4263:4265   */\n      0x20\n        /* \"#utility.yul\":4289:4339   */\n      tag_205\n        /* \"#utility.yul\":4331:4338   */\n      dup6\n        /* \"#utility.yul\":4322:4328   */\n      dup3\n        /* \"#utility.yul\":4311:4320   */\n      dup7\n        /* \"#utility.yul\":4307:4329   */\n      add\n        /* \"#utility.yul\":4289:4339   */\n      tag_154\n      jump\t// in\n    tag_205:\n        /* \"#utility.yul\":4279:4339   */\n      swap2\n      pop\n        /* \"#utility.yul\":4234:4349   */\n      pop\n        /* \"#utility.yul\":3888:4356   */\n      swap3\n      pop\n      swap3\n      swap1\n      pop\n      jump\t// out\n        /* \"#utility.yul\":4362:4836   */\n    tag_30:\n        /* \"#utility.yul\":4430:4436   */\n      0x00\n        /* \"#utility.yul\":4438:4444   */\n      dup1\n        /* \"#utility.yul\":4487:4489   */\n      0x40\n        /* \"#utility.yul\":4475:4484   */\n      dup4\n        /* \"#utility.yul\":4466:4473   */\n      dup6\n        /* \"#utility.yul\":4462:4485   */\n      sub\n        /* \"#utility.yul\":4458:4490   */\n      slt\n        /* \"#utility.yul\":4455:4574   */\n      iszero\n      tag_207\n      jumpi\n        /* \"#utility.yul\":4493:4572   */\n      tag_208\n      tag_178\n      jump\t// in\n    tag_208:\n        /* \"#utility.yul\":4455:4574   */\n    tag_207:\n        /* \"#utility.yul\":4613:4614   */\n      0x00\n        /* \"#utility.yul\":4638:4691   */\n      tag_209\n        /* \"#utility.yul\":4683:4690   */\n      dup6\n        /* \"#utility.yul\":4674:4680   */\n      dup3\n        /* \"#utility.yul\":4663:4672   */\n      dup7\n        /* \"#utility.yul\":4659:4681   */\n      add\n        /* \"#utility.yul\":4638:4691   */\n      tag_150\n      jump\t// in\n    tag_209:\n        /* \"#utility.yul\":4628:4691   */\n      swap3\n      pop\n        /* \"#utility.yul\":4584:4701   */\n      pop\n        /* \"#utility.yul\":4740:4742   */\n      0x20\n        /* \"#utility.yul\":4766:4819   */\n      tag_210\n        /* \"#utility.yul\":4811:4818   */\n      dup6\n        /* \"#utility.yul\":4802:4808   */\n      dup3\n        /* \"#utility.yul\":4791:4800   */\n      dup7\n        /* \"#utility.yul\":4787:4809   */\n      add\n        /* \"#utility.yul\":4766:4819   */\n      tag_171\n      jump\t// in\n    tag_210:\n        /* \"#utility.yul\":4756:4819   */\n      swap2\n      pop\n        /* \"#utility.yul\":4711:4829   */\n      pop\n        /* \"#utility.yul\":4362:4836   */\n      swap3\n      pop\n      swap3\n      swap1\n      pop\n      jump\t// out\n        /* \"#utility.yul\":4842:5639   */\n    tag_54:\n        /* \"#utility.yul\":4928:4934   */\n      0x00\n        /* \"#utility.yul\":4936:4942   */\n      dup1\n        /* \"#utility.yul\":4944:4950   */\n      0x00\n        /* \"#utility.yul\":4993:4995   */\n      0x60\n        /* \"#utility.yul\":4981:4990   */\n      dup5\n        /* \"#utility.yul\":4972:4979   */\n      dup7\n        /* \"#utility.yul\":4968:4991   */\n      sub\n        /* \"#utility.yul\":4964:4996   */\n      slt\n        /* \"#utility.yul\":4961:5080   */\n      iszero\n      tag_212\n      jumpi\n        /* \"#utility.yul\":4999:5078   */\n      tag_213\n      tag_178\n      jump\t// in\n    tag_213:\n        /* \"#utility.yul\":4961:5080   */\n    tag_212:\n        /* \"#utility.yul\":5119:5120   */\n      0x00\n        /* \"#utility.yul\":5144:5197   */\n      tag_214\n        /* \"#utility.yul\":5189:5196   */\n      dup7\n        /* \"#utility.yul\":5180:5186   */\n      dup3\n        /* \"#utility.yul\":5169:5178   */\n      dup8\n        /* \"#utility.yul\":5165:5187   */\n      add\n        /* \"#utility.yul\":5144:5197   */\n      tag_150\n      jump\t// in\n    tag_214:\n        /* \"#utility.yul\":5134:5197   */\n      swap4\n      pop\n        /* \"#utility.yul\":5090:5207   */\n      pop\n        /* \"#utility.yul\":5246:5248   */\n      0x20\n        /* \"#utility.yul\":5272:5325   */\n      tag_215\n        /* \"#utility.yul\":5317:5324   */\n      dup7\n        /* \"#utility.yul\":5308:5314   */\n      dup3\n        /* \"#utility.yul\":5297:5306   */\n      dup8\n        /* \"#utility.yul\":5293:5315   */\n      add\n        /* \"#utility.yul\":5272:5325   */\n      tag_171\n      jump\t// in\n    tag_215:\n        /* \"#utility.yul\":5262:5325   */\n      swap3\n      pop\n        /* \"#utility.yul\":5217:5335   */\n      pop\n        /* \"#utility.yul\":5402:5404   */\n      0x40\n        /* \"#utility.yul\":5391:5400   */\n      dup5\n        /* \"#utility.yul\":5387:5405   */\n      add\n        /* \"#utility.yul\":5374:5406   */\n      calldataload\n        /* \"#utility.yul\":5433:5451   */\n      0xffffffffffffffff\n        /* \"#utility.yul\":5425:5431   */\n      dup2\n        /* \"#utility.yul\":5422:5452   */\n      gt\n        /* \"#utility.yul\":5419:5536   */\n      iszero\n      tag_216\n      jumpi\n        /* \"#utility.yul\":5455:5534   */\n      tag_217\n      tag_199\n      jump\t// in\n    tag_217:\n        /* \"#utility.yul\":5419:5536   */\n    tag_216:\n        /* \"#utility.yul\":5560:5622   */\n      tag_218\n        /* \"#utility.yul\":5614:5621   */\n      dup7\n        /* \"#utility.yul\":5605:5611   */\n      dup3\n        /* \"#utility.yul\":5594:5603   */\n      dup8\n        /* \"#utility.yul\":5590:5612   */\n      add\n        /* \"#utility.yul\":5560:5622   */\n      tag_165\n      jump\t// in\n    tag_218:\n        /* \"#utility.yul\":5550:5622   */\n      swap2\n      pop\n        /* \"#utility.yul\":5345:5632   */\n      pop\n        /* \"#utility.yul\":4842:5639   */\n      swap3\n      pop\n      swap3\n      pop\n      swap3\n      jump\t// out\n        /* \"#utility.yul\":5645:5972   */\n    tag_17:\n        /* \"#utility.yul\":5703:5709   */\n      0x00\n        /* \"#utility.yul\":5752:5754   */\n      0x20\n        /* \"#utility.yul\":5740:5749   */\n      dup3\n        /* \"#utility.yul\":5731:5738   */\n      dup5\n        /* \"#utility.yul\":5727:5750   */\n      sub\n        /* \"#utility.yul\":5723:5755   */\n      slt\n        /* \"#utility.yul\":5720:5839   */\n      iszero\n      tag_220\n      jumpi\n        /* \"#utility.yul\":5758:5837   */\n      tag_221\n      tag_178\n      jump\t// in\n    tag_221:\n        /* \"#utility.yul\":5720:5839   */\n    tag_220:\n        /* \"#utility.yul\":5878:5879   */\n      0x00\n        /* \"#utility.yul\":5903:5955   */\n      tag_222\n        /* \"#utility.yul\":5947:5954   */\n      dup5\n        /* \"#utility.yul\":5938:5944   */\n      dup3\n        /* \"#utility.yul\":5927:5936   */\n      dup6\n        /* \"#utility.yul\":5923:5945   */\n      add\n        /* \"#utility.yul\":5903:5955   */\n      tag_158\n      jump\t// in\n    tag_222:\n        /* \"#utility.yul\":5893:5955   */\n      swap2\n      pop\n        /* \"#utility.yul\":5849:5965   */\n      pop\n        /* \"#utility.yul\":5645:5972   */\n      swap3\n      swap2\n      pop\n      pop\n      jump\t// out\n        /* \"#utility.yul\":5978:6327   */\n    tag_106:\n        /* \"#utility.yul\":6047:6053   */\n      0x00\n        /* \"#utility.yul\":6096:6098   */\n      0x20\n        /* \"#utility.yul\":6084:6093   */\n      dup3\n        /* \"#utility.yul\":6075:6082   */\n      dup5\n        /* \"#utility.yul\":6071:6094   */\n      sub\n        /* \"#utility.yul\":6067:6099   */\n      slt\n        /* \"#utility.yul\":6064:6183   */\n      iszero\n      tag_224\n      jumpi\n        /* \"#utility.yul\":6102:6181   */\n      tag_225\n      tag_178\n      jump\t// in\n    tag_225:\n        /* \"#utility.yul\":6064:6183   */\n    tag_224:\n        /* \"#utility.yul\":6222:6223   */\n      0x00\n        /* \"#utility.yul\":6247:6310   */\n      tag_226\n        /* \"#utility.yul\":6302:6309   */\n      dup5\n        /* \"#utility.yul\":6293:6299   */\n      dup3\n        /* \"#utility.yul\":6282:6291   */\n      dup6\n        /* \"#utility.yul\":6278:6300   */\n      add\n        /* \"#utility.yul\":6247:6310   */\n      tag_162\n      jump\t// in\n    tag_226:\n        /* \"#utility.yul\":6237:6310   */\n      swap2\n      pop\n        /* \"#utility.yul\":6193:6320   */\n      pop\n        /* \"#utility.yul\":5978:6327   */\n      swap3\n      swap2\n      pop\n      pop\n      jump\t// out\n        /* \"#utility.yul\":6333:6662   */\n    tag_24:\n        /* \"#utility.yul\":6392:6398   */\n      0x00\n        /* \"#utility.yul\":6441:6443   */\n      0x20\n        /* \"#utility.yul\":6429:6438   */\n      dup3\n        /* \"#utility.yul\":6420:6427   */\n      dup5\n        /* \"#utility.yul\":6416:6439   */\n      sub\n        /* \"#utility.yul\":6412:6444   */\n      slt\n        /* \"#utility.yul\":6409:6528   */\n      iszero\n      tag_228\n      jumpi\n        /* \"#utility.yul\":6447:6526   */\n      tag_229\n      tag_178\n      jump\t// in\n    tag_229:\n        /* \"#utility.yul\":6409:6528   */\n    tag_228:\n        /* \"#utility.yul\":6567:6568   */\n      0x00\n        /* \"#utility.yul\":6592:6645   */\n      tag_230\n        /* \"#utility.yul\":6637:6644   */\n      dup5\n        /* \"#utility.yul\":6628:6634   */\n      dup3\n        /* \"#utility.yul\":6617:6626   */\n      dup6\n        /* \"#utility.yul\":6613:6635   */\n      add\n        /* \"#utility.yul\":6592:6645   */\n      tag_171\n      jump\t// in\n    tag_230:\n        /* \"#utility.yul\":6582:6645   */\n      swap2\n      pop\n        /* \"#utility.yul\":6538:6655   */\n      pop\n        /* \"#utility.yul\":6333:6662   */\n      swap3\n      swap2\n      pop\n      pop\n      jump\t// out\n        /* \"#utility.yul\":6668:6786   */\n    tag_231:\n        /* \"#utility.yul\":6755:6779   */\n      tag_233\n        /* \"#utility.yul\":6773:6778   */\n      dup2\n        /* \"#utility.yul\":6755:6779   */\n      tag_234\n      jump\t// in\n    tag_233:\n        /* \"#utility.yul\":6750:6753   */\n      dup3\n        /* \"#utility.yul\":6743:6780   */\n      mstore\n        /* \"#utility.yul\":6668:6786   */\n      pop\n      pop\n      jump\t// out\n        /* \"#utility.yul\":6792:6901   */\n    tag_235:\n        /* \"#utility.yul\":6873:6894   */\n      tag_237\n        /* \"#utility.yul\":6888:6893   */\n      dup2\n        /* \"#utility.yul\":6873:6894   */\n      tag_238\n      jump\t// in\n    tag_237:\n        /* \"#utility.yul\":6868:6871   */\n      dup3\n        /* \"#utility.yul\":6861:6895   */\n      mstore\n        /* \"#utility.yul\":6792:6901   */\n      pop\n      pop\n      jump\t// out\n        /* \"#utility.yul\":6907:7267   */\n    tag_239:\n        /* \"#utility.yul\":6993:6996   */\n      0x00\n        /* \"#utility.yul\":7021:7059   */\n      tag_241\n        /* \"#utility.yul\":7053:7058   */\n      dup3\n        /* \"#utility.yul\":7021:7059   */\n      tag_242\n      jump\t// in\n    tag_241:\n        /* \"#utility.yul\":7075:7145   */\n      tag_243\n        /* \"#utility.yul\":7138:7144   */\n      dup2\n        /* \"#utility.yul\":7133:7136   */\n      dup6\n        /* \"#utility.yul\":7075:7145   */\n      tag_244\n      jump\t// in\n    tag_243:\n        /* \"#utility.yul\":7068:7145   */\n      swap4\n      pop\n        /* \"#utility.yul\":7154:7206   */\n      tag_245\n        /* \"#utility.yul\":7199:7205   */\n      dup2\n        /* \"#utility.yul\":7194:7197   */\n      dup6\n        /* \"#utility.yul\":7187:7191   */\n      0x20\n        /* \"#utility.yul\":7180:7185   */\n      dup7\n        /* \"#utility.yul\":7176:7192   */\n      add\n        /* \"#utility.yul\":7154:7206   */\n      tag_246\n      jump\t// in\n    tag_245:\n        /* \"#utility.yul\":7231:7260   */\n      tag_247\n        /* \"#utility.yul\":7253:7259   */\n      dup2\n        /* \"#utility.yul\":7231:7260   */\n      tag_248\n      jump\t// in\n    tag_247:\n        /* \"#utility.yul\":7226:7229   */\n      dup5\n        /* \"#utility.yul\":7222:7261   */\n      add\n        /* \"#utility.yul\":7215:7261   */\n      swap2\n      pop\n        /* \"#utility.yul\":6997:7267   */\n      pop\n        /* \"#utility.yul\":6907:7267   */\n      swap3\n      swap2\n      pop\n      pop\n      jump\t// out\n        /* \"#utility.yul\":7273:7639   */\n    tag_249:\n        /* \"#utility.yul\":7415:7418   */\n      0x00\n        /* \"#utility.yul\":7436:7503   */\n      tag_251\n        /* \"#utility.yul\":7500:7502   */\n      0x13\n        /* \"#utility.yul\":7495:7498   */\n      dup4\n        /* \"#utility.yul\":7436:7503   */\n      tag_252\n      jump\t// in\n    tag_251:\n        /* \"#utility.yul\":7429:7503   */\n      swap2\n      pop\n        /* \"#utility.yul\":7512:7605   */\n      tag_253\n        /* \"#utility.yul\":7601:7604   */\n      dup3\n        /* \"#utility.yul\":7512:7605   */\n      tag_254\n      jump\t// in\n    tag_253:\n        /* \"#utility.yul\":7630:7632   */\n      0x20\n        /* \"#utility.yul\":7625:7628   */\n      dup3\n        /* \"#utility.yul\":7621:7633   */\n      add\n        /* \"#utility.yul\":7614:7633   */\n      swap1\n      pop\n        /* \"#utility.yul\":7273:7639   */\n      swap2\n      swap1\n      pop\n      jump\t// out\n        /* \"#utility.yul\":7645:8011   */\n    tag_255:\n        /* \"#utility.yul\":7787:7790   */\n      0x00\n        /* \"#utility.yul\":7808:7875   */\n      tag_257\n        /* \"#utility.yul\":7872:7874   */\n      0x17\n        /* \"#utility.yul\":7867:7870   */\n      dup4\n        /* \"#utility.yul\":7808:7875   */\n      tag_252\n      jump\t// in\n    tag_257:\n        /* \"#utility.yul\":7801:7875   */\n      swap2\n      pop\n        /* \"#utility.yul\":7884:7977   */\n      tag_258\n        /* \"#utility.yul\":7973:7976   */\n      dup3\n        /* \"#utility.yul\":7884:7977   */\n      tag_259\n      jump\t// in\n    tag_258:\n        /* \"#utility.yul\":8002:8004   */\n      0x20\n        /* \"#utility.yul\":7997:8000   */\n      dup3\n        /* \"#utility.yul\":7993:8005   */\n      add\n        /* \"#utility.yul\":7986:8005   */\n      swap1\n      pop\n        /* \"#utility.yul\":7645:8011   */\n      swap2\n      swap1\n      pop\n      jump\t// out\n        /* \"#utility.yul\":8017:8383   */\n    tag_260:\n        /* \"#utility.yul\":8159:8162   */\n      0x00\n        /* \"#utility.yul\":8180:8247   */\n      tag_262\n        /* \"#utility.yul\":8244:8246   */\n      0x13\n        /* \"#utility.yul\":8239:8242   */\n      dup4\n        /* \"#utility.yul\":8180:8247   */\n      tag_252\n      jump\t// in\n    tag_262:\n        /* \"#utility.yul\":8173:8247   */\n      swap2\n      pop\n        /* \"#utility.yul\":8256:8349   */\n      tag_263\n        /* \"#utility.yul\":8345:8348   */\n      dup3\n        /* \"#utility.yul\":8256:8349   */\n      tag_264\n      jump\t// in\n    tag_263:\n        /* \"#utility.yul\":8374:8376   */\n      0x20\n        /* \"#utility.yul\":8369:8372   */\n      dup3\n        /* \"#utility.yul\":8365:8377   */\n      add\n        /* \"#utility.yul\":8358:8377   */\n      swap1\n      pop\n        /* \"#utility.yul\":8017:8383   */\n      swap2\n      swap1\n      pop\n      jump\t// out\n        /* \"#utility.yul\":8389:8755   */\n    tag_265:\n        /* \"#utility.yul\":8531:8534   */\n      0x00\n        /* \"#utility.yul\":8552:8619   */\n      tag_267\n        /* \"#utility.yul\":8616:8618   */\n      0x14\n        /* \"#utility.yul\":8611:8614   */\n      dup4\n        /* \"#utility.yul\":8552:8619   */\n      tag_252\n      jump\t// in\n    tag_267:\n        /* \"#utility.yul\":8545:8619   */\n      swap2\n      pop\n        /* \"#utility.yul\":8628:8721   */\n      tag_268\n        /* \"#utility.yul\":8717:8720   */\n      dup3\n        /* \"#utility.yul\":8628:8721   */\n      tag_269\n      jump\t// in\n    tag_268:\n        /* \"#utility.yul\":8746:8748   */\n      0x20\n        /* \"#utility.yul\":8741:8744   */\n      dup3\n        /* \"#utility.yul\":8737:8749   */\n      add\n        /* \"#utility.yul\":8730:8749   */\n      swap1\n      pop\n        /* \"#utility.yul\":8389:8755   */\n      swap2\n      swap1\n      pop\n      jump\t// out\n        /* \"#utility.yul\":8761:9127   */\n    tag_270:\n        /* \"#utility.yul\":8903:8906   */\n      0x00\n        /* \"#utility.yul\":8924:8991   */\n      tag_272\n        /* \"#utility.yul\":8988:8990   */\n      0x2f\n        /* \"#utility.yul\":8983:8986   */\n      dup4\n        /* \"#utility.yul\":8924:8991   */\n      tag_252\n      jump\t// in\n    tag_272:\n        /* \"#utility.yul\":8917:8991   */\n      swap2\n      pop\n        /* \"#utility.yul\":9000:9093   */\n      tag_273\n        /* \"#utility.yul\":9089:9092   */\n      dup3\n        /* \"#utility.yul\":9000:9093   */\n      tag_274\n      jump\t// in\n    tag_273:\n        /* \"#utility.yul\":9118:9120   */\n      0x40\n        /* \"#utility.yul\":9113:9116   */\n      dup3\n        /* \"#utility.yul\":9109:9121   */\n      add\n        /* \"#utility.yul\":9102:9121   */\n      swap1\n      pop\n        /* \"#utility.yul\":8761:9127   */\n      swap2\n      swap1\n      pop\n      jump\t// out\n        /* \"#utility.yul\":9133:9251   */\n    tag_275:\n        /* \"#utility.yul\":9220:9244   */\n      tag_277\n        /* \"#utility.yul\":9238:9243   */\n      dup2\n        /* \"#utility.yul\":9220:9244   */\n      tag_278\n      jump\t// in\n    tag_277:\n        /* \"#utility.yul\":9215:9218   */\n      dup3\n        /* \"#utility.yul\":9208:9245   */\n      mstore\n        /* \"#utility.yul\":9133:9251   */\n      pop\n      pop\n      jump\t// out\n        /* \"#utility.yul\":9257:9479   */\n    tag_27:\n        /* \"#utility.yul\":9350:9354   */\n      0x00\n        /* \"#utility.yul\":9388:9390   */\n      0x20\n        /* \"#utility.yul\":9377:9386   */\n      dup3\n        /* \"#utility.yul\":9373:9391   */\n      add\n        /* \"#utility.yul\":9365:9391   */\n      swap1\n      pop\n        /* \"#utility.yul\":9401:9472   */\n      tag_280\n        /* \"#utility.yul\":9469:9470   */\n      0x00\n        /* \"#utility.yul\":9458:9467   */\n      dup4\n        /* \"#utility.yul\":9454:9471   */\n      add\n        /* \"#utility.yul\":9445:9451   */\n      dup5\n        /* \"#utility.yul\":9401:9472   */\n      tag_231\n      jump\t// in\n    tag_280:\n        /* \"#utility.yul\":9257:9479   */\n      swap3\n      swap2\n      pop\n      pop\n      jump\t// out\n        /* \"#utility.yul\":9485:10125   */\n    tag_101:\n        /* \"#utility.yul\":9680:9684   */\n      0x00\n        /* \"#utility.yul\":9718:9721   */\n      0x80\n        /* \"#utility.yul\":9707:9716   */\n      dup3\n        /* \"#utility.yul\":9703:9722   */\n      add\n        /* \"#utility.yul\":9695:9722   */\n      swap1\n      pop\n        /* \"#utility.yul\":9732:9803   */\n      tag_282\n        /* \"#utility.yul\":9800:9801   */\n      0x00\n        /* \"#utility.yul\":9789:9798   */\n      dup4\n        /* \"#utility.yul\":9785:9802   */\n      add\n        /* \"#utility.yul\":9776:9782   */\n      dup8\n        /* \"#utility.yul\":9732:9803   */\n      tag_231\n      jump\t// in\n    tag_282:\n        /* \"#utility.yul\":9813:9885   */\n      tag_283\n        /* \"#utility.yul\":9881:9883   */\n      0x20\n        /* \"#utility.yul\":9870:9879   */\n      dup4\n        /* \"#utility.yul\":9866:9884   */\n      add\n        /* \"#utility.yul\":9857:9863   */\n      dup7\n        /* \"#utility.yul\":9813:9885   */\n      tag_231\n      jump\t// in\n    tag_283:\n        /* \"#utility.yul\":9895:9967   */\n      tag_284\n        /* \"#utility.yul\":9963:9965   */\n      0x40\n        /* \"#utility.yul\":9952:9961   */\n      dup4\n        /* \"#utility.yul\":9948:9966   */\n      add\n        /* \"#utility.yul\":9939:9945   */\n      dup6\n        /* \"#utility.yul\":9895:9967   */\n      tag_275\n      jump\t// in\n    tag_284:\n        /* \"#utility.yul\":10014:10023   */\n      dup2\n        /* \"#utility.yul\":10008:10012   */\n      dup2\n        /* \"#utility.yul\":10004:10024   */\n      sub\n        /* \"#utility.yul\":9999:10001   */\n      0x60\n        /* \"#utility.yul\":9988:9997   */\n      dup4\n        /* \"#utility.yul\":9984:10002   */\n      add\n        /* \"#utility.yul\":9977:10025   */\n      mstore\n        /* \"#utility.yul\":10042:10118   */\n      tag_285\n        /* \"#utility.yul\":10113:10117   */\n      dup2\n        /* \"#utility.yul\":10104:10110   */\n      dup5\n        /* \"#utility.yul\":10042:10118   */\n      tag_239\n      jump\t// in\n    tag_285:\n        /* \"#utility.yul\":10034:10118   */\n      swap1\n      pop\n        /* \"#utility.yul\":9485:10125   */\n      swap6\n      swap5\n      pop\n      pop\n      pop\n      pop\n      pop\n      jump\t// out\n        /* \"#utility.yul\":10131:10341   */\n    tag_20:\n        /* \"#utility.yul\":10218:10222   */\n      0x00\n        /* \"#utility.yul\":10256:10258   */\n      0x20\n        /* \"#utility.yul\":10245:10254   */\n      dup3\n        /* \"#utility.yul\":10241:10259   */\n      add\n        /* \"#utility.yul\":10233:10259   */\n      swap1\n      pop\n        /* \"#utility.yul\":10269:10334   */\n      tag_287\n        /* \"#utility.yul\":10331:10332   */\n      0x00\n        /* \"#utility.yul\":10320:10329   */\n      dup4\n        /* \"#utility.yul\":10316:10333   */\n      add\n        /* \"#utility.yul\":10307:10313   */\n      dup5\n        /* \"#utility.yul\":10269:10334   */\n      tag_235\n      jump\t// in\n    tag_287:\n        /* \"#utility.yul\":10131:10341   */\n      swap3\n      swap2\n      pop\n      pop\n      jump\t// out\n        /* \"#utility.yul\":10347:10766   */\n    tag_118:\n        /* \"#utility.yul\":10513:10517   */\n      0x00\n        /* \"#utility.yul\":10551:10553   */\n      0x20\n        /* \"#utility.yul\":10540:10549   */\n      dup3\n        /* \"#utility.yul\":10536:10554   */\n      add\n        /* \"#utility.yul\":10528:10554   */\n      swap1\n      pop\n        /* \"#utility.yul\":10600:10609   */\n      dup2\n        /* \"#utility.yul\":10594:10598   */\n      dup2\n        /* \"#utility.yul\":10590:10610   */\n      sub\n        /* \"#utility.yul\":10586:10587   */\n      0x00\n        /* \"#utility.yul\":10575:10584   */\n      dup4\n        /* \"#utility.yul\":10571:10588   */\n      add\n        /* \"#utility.yul\":10564:10611   */\n      mstore\n        /* \"#utility.yul\":10628:10759   */\n      tag_289\n        /* \"#utility.yul\":10754:10758   */\n      dup2\n        /* \"#utility.yul\":10628:10759   */\n      tag_249\n      jump\t// in\n    tag_289:\n        /* \"#utility.yul\":10620:10759   */\n      swap1\n      pop\n        /* \"#utility.yul\":10347:10766   */\n      swap2\n      swap1\n      pop\n      jump\t// out\n        /* \"#utility.yul\":10772:11191   */\n    tag_94:\n        /* \"#utility.yul\":10938:10942   */\n      0x00\n        /* \"#utility.yul\":10976:10978   */\n      0x20\n        /* \"#utility.yul\":10965:10974   */\n      dup3\n        /* \"#utility.yul\":10961:10979   */\n      add\n        /* \"#utility.yul\":10953:10979   */\n      swap1\n      pop\n        /* \"#utility.yul\":11025:11034   */\n      dup2\n        /* \"#utility.yul\":11019:11023   */\n      dup2\n        /* \"#utility.yul\":11015:11035   */\n      sub\n        /* \"#utility.yul\":11011:11012   */\n      0x00\n        /* \"#utility.yul\":11000:11009   */\n      dup4\n        /* \"#utility.yul\":10996:11013   */\n      add\n        /* \"#utility.yul\":10989:11036   */\n      mstore\n        /* \"#utility.yul\":11053:11184   */\n      tag_291\n        /* \"#utility.yul\":11179:11183   */\n      dup2\n        /* \"#utility.yul\":11053:11184   */\n      tag_255\n      jump\t// in\n    tag_291:\n        /* \"#utility.yul\":11045:11184   */\n      swap1\n      pop\n        /* \"#utility.yul\":10772:11191   */\n      swap2\n      swap1\n      pop\n      jump\t// out\n        /* \"#utility.yul\":11197:11616   */\n    tag_91:\n        /* \"#utility.yul\":11363:11367   */\n      0x00\n        /* \"#utility.yul\":11401:11403   */\n      0x20\n        /* \"#utility.yul\":11390:11399   */\n      dup3\n        /* \"#utility.yul\":11386:11404   */\n      add\n        /* \"#utility.yul\":11378:11404   */\n      swap1\n      pop\n        /* \"#utility.yul\":11450:11459   */\n      dup2\n        /* \"#utility.yul\":11444:11448   */\n      dup2\n        /* \"#utility.yul\":11440:11460   */\n      sub\n        /* \"#utility.yul\":11436:11437   */\n      0x00\n        /* \"#utility.yul\":11425:11434   */\n      dup4\n        /* \"#utility.yul\":11421:11438   */\n      add\n        /* \"#utility.yul\":11414:11461   */\n      mstore\n        /* \"#utility.yul\":11478:11609   */\n      tag_293\n        /* \"#utility.yul\":11604:11608   */\n      dup2\n        /* \"#utility.yul\":11478:11609   */\n      tag_260\n      jump\t// in\n    tag_293:\n        /* \"#utility.yul\":11470:11609   */\n      swap1\n      pop\n        /* \"#utility.yul\":11197:11616   */\n      swap2\n      swap1\n      pop\n      jump\t// out\n        /* \"#utility.yul\":11622:12041   */\n    tag_74:\n        /* \"#utility.yul\":11788:11792   */\n      0x00\n        /* \"#utility.yul\":11826:11828   */\n      0x20\n        /* \"#utility.yul\":11815:11824   */\n      dup3\n        /* \"#utility.yul\":11811:11829   */\n      add\n        /* \"#utility.yul\":11803:11829   */\n      swap1\n      pop\n        /* \"#utility.yul\":11875:11884   */\n      dup2\n        /* \"#utility.yul\":11869:11873   */\n      dup2\n        /* \"#utility.yul\":11865:11885   */\n      sub\n        /* \"#utility.yul\":11861:11862   */\n      0x00\n        /* \"#utility.yul\":11850:11859   */\n      dup4\n        /* \"#utility.yul\":11846:11863   */\n      add\n        /* \"#utility.yul\":11839:11886   */\n      mstore\n        /* \"#utility.yul\":11903:12034   */\n      tag_295\n        /* \"#utility.yul\":12029:12033   */\n      dup2\n        /* \"#utility.yul\":11903:12034   */\n      tag_265\n      jump\t// in\n    tag_295:\n        /* \"#utility.yul\":11895:12034   */\n      swap1\n      pop\n        /* \"#utility.yul\":11622:12041   */\n      swap2\n      swap1\n      pop\n      jump\t// out\n        /* \"#utility.yul\":12047:12466   */\n    tag_109:\n        /* \"#utility.yul\":12213:12217   */\n      0x00\n        /* \"#utility.yul\":12251:12253   */\n      0x20\n        /* \"#utility.yul\":12240:12249   */\n      dup3\n        /* \"#utility.yul\":12236:12254   */\n      add\n        /* \"#utility.yul\":12228:12254   */\n      swap1\n      pop\n        /* \"#utility.yul\":12300:12309   */\n      dup2\n        /* \"#utility.yul\":12294:12298   */\n      dup2\n        /* \"#utility.yul\":12290:12310   */\n      sub\n        /* \"#utility.yul\":12286:12287   */\n      0x00\n        /* \"#utility.yul\":12275:12284   */\n      dup4\n        /* \"#utility.yul\":12271:12288   */\n      add\n        /* \"#utility.yul\":12264:12311   */\n      mstore\n        /* \"#utility.yul\":12328:12459   */\n      tag_297\n        /* \"#utility.yul\":12454:12458   */\n      dup2\n        /* \"#utility.yul\":12328:12459   */\n      tag_270\n      jump\t// in\n    tag_297:\n        /* \"#utility.yul\":12320:12459   */\n      swap1\n      pop\n        /* \"#utility.yul\":12047:12466   */\n      swap2\n      swap1\n      pop\n      jump\t// out\n        /* \"#utility.yul\":12472:12694   */\n    tag_50:\n        /* \"#utility.yul\":12565:12569   */\n      0x00\n        /* \"#utility.yul\":12603:12605   */\n      0x20\n        /* \"#utility.yul\":12592:12601   */\n      dup3\n        /* \"#utility.yul\":12588:12606   */\n      add\n        /* \"#utility.yul\":12580:12606   */\n      swap1\n      pop\n        /* \"#utility.yul\":12616:12687   */\n      tag_299\n        /* \"#utility.yul\":12684:12685   */\n      0x00\n        /* \"#utility.yul\":12673:12682   */\n      dup4\n        /* \"#utility.yul\":12669:12686   */\n      add\n        /* \"#utility.yul\":12660:12666   */\n      dup5\n        /* \"#utility.yul\":12616:12687   */\n      tag_275\n      jump\t// in\n    tag_299:\n        /* \"#utility.yul\":12472:12694   */\n      swap3\n      swap2\n      pop\n      pop\n      jump\t// out\n        /* \"#utility.yul\":12700:12829   */\n    tag_144:\n        /* \"#utility.yul\":12734:12740   */\n      0x00\n        /* \"#utility.yul\":12761:12781   */\n      tag_301\n      tag_302\n      jump\t// in\n    tag_301:\n        /* \"#utility.yul\":12751:12781   */\n      swap1\n      pop\n        /* \"#utility.yul\":12790:12823   */\n      tag_303\n        /* \"#utility.yul\":12818:12822   */\n      dup3\n        /* \"#utility.yul\":12810:12816   */\n      dup3\n        /* \"#utility.yul\":12790:12823   */\n      tag_304\n      jump\t// in\n    tag_303:\n        /* \"#utility.yul\":12700:12829   */\n      swap2\n      swap1\n      pop\n      jump\t// out\n        /* \"#utility.yul\":12835:12910   */\n    tag_302:\n        /* \"#utility.yul\":12868:12874   */\n      0x00\n        /* \"#utility.yul\":12901:12903   */\n      0x40\n        /* \"#utility.yul\":12895:12904   */\n      mload\n        /* \"#utility.yul\":12885:12904   */\n      swap1\n      pop\n        /* \"#utility.yul\":12835:12910   */\n      swap1\n      jump\t// out\n        /* \"#utility.yul\":12916:13223   */\n    tag_143:\n        /* \"#utility.yul\":12977:12981   */\n      0x00\n        /* \"#utility.yul\":13067:13085   */\n      0xffffffffffffffff\n        /* \"#utility.yul\":13059:13065   */\n      dup3\n        /* \"#utility.yul\":13056:13086   */\n      gt\n        /* \"#utility.yul\":13053:13109   */\n      iszero\n      tag_307\n      jumpi\n        /* \"#utility.yul\":13089:13107   */\n      tag_308\n      tag_309\n      jump\t// in\n    tag_308:\n        /* \"#utility.yul\":13053:13109   */\n    tag_307:\n        /* \"#utility.yul\":13127:13156   */\n      tag_310\n        /* \"#utility.yul\":13149:13155   */\n      dup3\n        /* \"#utility.yul\":13127:13156   */\n      tag_248\n      jump\t// in\n    tag_310:\n        /* \"#utility.yul\":13119:13156   */\n      swap1\n      pop\n        /* \"#utility.yul\":13211:13215   */\n      0x20\n        /* \"#utility.yul\":13205:13209   */\n      dup2\n        /* \"#utility.yul\":13201:13216   */\n      add\n        /* \"#utility.yul\":13193:13216   */\n      swap1\n      pop\n        /* \"#utility.yul\":12916:13223   */\n      swap2\n      swap1\n      pop\n      jump\t// out\n        /* \"#utility.yul\":13229:13327   */\n    tag_242:\n        /* \"#utility.yul\":13280:13286   */\n      0x00\n        /* \"#utility.yul\":13314:13319   */\n      dup2\n        /* \"#utility.yul\":13308:13320   */\n      mload\n        /* \"#utility.yul\":13298:13320   */\n      swap1\n      pop\n        /* \"#utility.yul\":13229:13327   */\n      swap2\n      swap1\n      pop\n      jump\t// out\n        /* \"#utility.yul\":13333:13501   */\n    tag_244:\n        /* \"#utility.yul\":13416:13427   */\n      0x00\n        /* \"#utility.yul\":13450:13456   */\n      dup3\n        /* \"#utility.yul\":13445:13448   */\n      dup3\n        /* \"#utility.yul\":13438:13457   */\n      mstore\n        /* \"#utility.yul\":13490:13494   */\n      0x20\n        /* \"#utility.yul\":13485:13488   */\n      dup3\n        /* \"#utility.yul\":13481:13495   */\n      add\n        /* \"#utility.yul\":13466:13495   */\n      swap1\n      pop\n        /* \"#utility.yul\":13333:13501   */\n      swap3\n      swap2\n      pop\n      pop\n      jump\t// out\n        /* \"#utility.yul\":13507:13676   */\n    tag_252:\n        /* \"#utility.yul\":13591:13602   */\n      0x00\n        /* \"#utility.yul\":13625:13631   */\n      dup3\n        /* \"#utility.yul\":13620:13623   */\n      dup3\n        /* \"#utility.yul\":13613:13632   */\n      mstore\n        /* \"#utility.yul\":13665:13669   */\n      0x20\n        /* \"#utility.yul\":13660:13663   */\n      dup3\n        /* \"#utility.yul\":13656:13670   */\n      add\n        /* \"#utility.yul\":13641:13670   */\n      swap1\n      pop\n        /* \"#utility.yul\":13507:13676   */\n      swap3\n      swap2\n      pop\n      pop\n      jump\t// out\n        /* \"#utility.yul\":13682:13987   */\n    tag_96:\n        /* \"#utility.yul\":13722:13725   */\n      0x00\n        /* \"#utility.yul\":13741:13761   */\n      tag_315\n        /* \"#utility.yul\":13759:13760   */\n      dup3\n        /* \"#utility.yul\":13741:13761   */\n      tag_278\n      jump\t// in\n    tag_315:\n        /* \"#utility.yul\":13736:13761   */\n      swap2\n      pop\n        /* \"#utility.yul\":13775:13795   */\n      tag_316\n        /* \"#utility.yul\":13793:13794   */\n      dup4\n        /* \"#utility.yul\":13775:13795   */\n      tag_278\n      jump\t// in\n    tag_316:\n        /* \"#utility.yul\":13770:13795   */\n      swap3\n      pop\n        /* \"#utility.yul\":13929:13930   */\n      dup3\n        /* \"#utility.yul\":13861:13927   */\n      0xffffffffffffffffffffffffffffffffffffffffffffffffffffffffffffffff\n        /* \"#utility.yul\":13857:13931   */\n      sub\n        /* \"#utility.yul\":13854:13855   */\n      dup3\n        /* \"#utility.yul\":13851:13932   */\n      gt\n        /* \"#utility.yul\":13848:13955   */\n      iszero\n      tag_317\n      jumpi\n        /* \"#utility.yul\":13935:13953   */\n      tag_318\n      tag_319\n      jump\t// in\n    tag_318:\n        /* \"#utility.yul\":13848:13955   */\n    tag_317:\n        /* \"#utility.yul\":13979:13980   */\n      dup3\n        /* \"#utility.yul\":13976:13977   */\n      dup3\n        /* \"#utility.yul\":13972:13981   */\n      add\n        /* \"#utility.yul\":13965:13981   */\n      swap1\n      pop\n        /* \"#utility.yul\":13682:13987   */\n      swap3\n      swap2\n      pop\n      pop\n      jump\t// out\n        /* \"#utility.yul\":13993:14184   */\n    tag_124:\n        /* \"#utility.yul\":14033:14037   */\n      0x00\n        /* \"#utility.yul\":14053:14073   */\n      tag_321\n        /* \"#utility.yul\":14071:14072   */\n      dup3\n        /* \"#utility.yul\":14053:14073   */\n      tag_278\n      jump\t// in\n    tag_321:\n        /* \"#utility.yul\":14048:14073   */\n      swap2\n      pop\n        /* \"#utility.yul\":14087:14107   */\n      tag_322\n        /* \"#utility.yul\":14105:14106   */\n      dup4\n        /* \"#utility.yul\":14087:14107   */\n      tag_278\n      jump\t// in\n    tag_322:\n        /* \"#utility.yul\":14082:14107   */\n      swap3\n      pop\n        /* \"#utility.yul\":14126:14127   */\n      dup3\n        /* \"#utility.yul\":14123:14124   */\n      dup3\n        /* \"#utility.yul\":14120:14128   */\n      lt\n        /* \"#utility.yul\":14117:14151   */\n      iszero\n      tag_323\n      jumpi\n        /* \"#utility.yul\":14131:14149   */\n      tag_324\n      tag_319\n      jump\t// in\n    tag_324:\n        /* \"#utility.yul\":14117:14151   */\n    tag_323:\n        /* \"#utility.yul\":14176:14177   */\n      dup3\n        /* \"#utility.yul\":14173:14174   */\n      dup3\n        /* \"#utility.yul\":14169:14178   */\n      sub\n        /* \"#utility.yul\":14161:14178   */\n      swap1\n      pop\n        /* \"#utility.yul\":13993:14184   */\n      swap3\n      swap2\n      pop\n      pop\n      jump\t// out\n        /* \"#utility.yul\":14190:14286   */\n    tag_234:\n        /* \"#utility.yul\":14227:14234   */\n      0x00\n        /* \"#utility.yul\":14256:14280   */\n      tag_326\n        /* \"#utility.yul\":14274:14279   */\n      dup3\n        /* \"#utility.yul\":14256:14280   */\n      tag_327\n      jump\t// in\n    tag_326:\n        /* \"#utility.yul\":14245:14280   */\n      swap1\n      pop\n        /* \"#utility.yul\":14190:14286   */\n      swap2\n      swap1\n      pop\n      jump\t// out\n        /* \"#utility.yul\":14292:14382   */\n    tag_238:\n        /* \"#utility.yul\":14326:14333   */\n      0x00\n        /* \"#utility.yul\":14369:14374   */\n      dup2\n        /* \"#utility.yul\":14362:14375   */\n      iszero\n        /* \"#utility.yul\":14355:14376   */\n      iszero\n        /* \"#utility.yul\":14344:14376   */\n      swap1\n      pop\n        /* \"#utility.yul\":14292:14382   */\n      swap2\n      swap1\n      pop\n      jump\t// out\n        /* \"#utility.yul\":14388:14537   */\n    tag_329:\n        /* \"#utility.yul\":14424:14431   */\n      0x00\n        /* \"#utility.yul\":14464:14530   */\n      0xffffffff00000000000000000000000000000000000000000000000000000000\n        /* \"#utility.yul\":14457:14462   */\n      dup3\n        /* \"#utility.yul\":14453:14531   */\n      and\n        /* \"#utility.yul\":14442:14531   */\n      swap1\n      pop\n        /* \"#utility.yul\":14388:14537   */\n      swap2\n      swap1\n      pop\n      jump\t// out\n        /* \"#utility.yul\":14543:14669   */\n    tag_327:\n        /* \"#utility.yul\":14580:14587   */\n      0x00\n        /* \"#utility.yul\":14620:14662   */\n      0xffffffffffffffffffffffffffffffffffffffff\n        /* \"#utility.yul\":14613:14618   */\n      dup3\n        /* \"#utility.yul\":14609:14663   */\n      and\n        /* \"#utility.yul\":14598:14663   */\n      swap1\n      pop\n        /* \"#utility.yul\":14543:14669   */\n      swap2\n      swap1\n      pop\n      jump\t// out\n        /* \"#utility.yul\":14675:14752   */\n    tag_278:\n        /* \"#utility.yul\":14712:14719   */\n      0x00\n        /* \"#utility.yul\":14741:14746   */\n      dup2\n        /* \"#utility.yul\":14730:14746   */\n      swap1\n      pop\n        /* \"#utility.yul\":14675:14752   */\n      swap2\n      swap1\n      pop\n      jump\t// out\n        /* \"#utility.yul\":14758:14912   */\n    tag_149:\n        /* \"#utility.yul\":14842:14848   */\n      dup3\n        /* \"#utility.yul\":14837:14840   */\n      dup2\n        /* \"#utility.yul\":14832:14835   */\n      dup4\n        /* \"#utility.yul\":14819:14849   */\n      calldatacopy\n        /* \"#utility.yul\":14904:14905   */\n      0x00\n        /* \"#utility.yul\":14895:14901   */\n      dup4\n        /* \"#utility.yul\":14890:14893   */\n      dup4\n        /* \"#utility.yul\":14886:14902   */\n      add\n        /* \"#utility.yul\":14879:14906   */\n      mstore\n        /* \"#utility.yul\":14758:14912   */\n      pop\n      pop\n      pop\n      jump\t// out\n        /* \"#utility.yul\":14918:15225   */\n    tag_246:\n        /* \"#utility.yul\":14986:14987   */\n      0x00\n        /* \"#utility.yul\":14996:15109   */\n    tag_335:\n        /* \"#utility.yul\":15010:15016   */\n      dup4\n        /* \"#utility.yul\":15007:15008   */\n      dup2\n        /* \"#utility.yul\":15004:15017   */\n      lt\n        /* \"#utility.yul\":14996:15109   */\n      iszero\n      tag_337\n      jumpi\n        /* \"#utility.yul\":15095:15096   */\n      dup1\n        /* \"#utility.yul\":15090:15093   */\n      dup3\n        /* \"#utility.yul\":15086:15097   */\n      add\n        /* \"#utility.yul\":15080:15098   */\n      mload\n        /* \"#utility.yul\":15076:15077   */\n      dup2\n        /* \"#utility.yul\":15071:15074   */\n      dup5\n        /* \"#utility.yul\":15067:15078   */\n      add\n        /* \"#utility.yul\":15060:15099   */\n      mstore\n        /* \"#utility.yul\":15032:15034   */\n      0x20\n        /* \"#utility.yul\":15029:15030   */\n      dup2\n        /* \"#utility.yul\":15025:15035   */\n      add\n        /* \"#utility.yul\":15020:15035   */\n      swap1\n      pop\n        /* \"#utility.yul\":14996:15109   */\n      jump(tag_335)\n    tag_337:\n        /* \"#utility.yul\":15127:15133   */\n      dup4\n        /* \"#utility.yul\":15124:15125   */\n      dup2\n        /* \"#utility.yul\":15121:15134   */\n      gt\n        /* \"#utility.yul\":15118:15219   */\n      iszero\n      tag_338\n      jumpi\n        /* \"#utility.yul\":15207:15208   */\n      0x00\n        /* \"#utility.yul\":15198:15204   */\n      dup5\n        /* \"#utility.yul\":15193:15196   */\n      dup5\n        /* \"#utility.yul\":15189:15205   */\n      add\n        /* \"#utility.yul\":15182:15209   */\n      mstore\n        /* \"#utility.yul\":15118:15219   */\n    tag_338:\n        /* \"#utility.yul\":14967:15225   */\n      pop\n        /* \"#utility.yul\":14918:15225   */\n      pop\n      pop\n      pop\n      jump\t// out\n        /* \"#utility.yul\":15231:15512   */\n    tag_304:\n        /* \"#utility.yul\":15314:15341   */\n      tag_340\n        /* \"#utility.yul\":15336:15340   */\n      dup3\n        /* \"#utility.yul\":15314:15341   */\n      tag_248\n      jump\t// in\n    tag_340:\n        /* \"#utility.yul\":15306:15312   */\n      dup2\n        /* \"#utility.yul\":15302:15342   */\n      add\n        /* \"#utility.yul\":15444:15450   */\n      dup2\n        /* \"#utility.yul\":15432:15442   */\n      dup2\n        /* \"#utility.yul\":15429:15451   */\n      lt\n        /* \"#utility.yul\":15408:15426   */\n      0xffffffffffffffff\n        /* \"#utility.yul\":15396:15406   */\n      dup3\n        /* \"#utility.yul\":15393:15427   */\n      gt\n        /* \"#utility.yul\":15390:15452   */\n      or\n        /* \"#utility.yul\":15387:15475   */\n      iszero\n      tag_341\n      jumpi\n        /* \"#utility.yul\":15455:15473   */\n      tag_342\n      tag_309\n      jump\t// in\n    tag_342:\n        /* \"#utility.yul\":15387:15475   */\n    tag_341:\n        /* \"#utility.yul\":15495:15505   */\n      dup1\n        /* \"#utility.yul\":15491:15493   */\n      0x40\n        /* \"#utility.yul\":15484:15506   */\n      mstore\n        /* \"#utility.yul\":15274:15512   */\n      pop\n        /* \"#utility.yul\":15231:15512   */\n      pop\n      pop\n      jump\t// out\n        /* \"#utility.yul\":15518:15698   */\n    tag_319:\n        /* \"#utility.yul\":15566:15643   */\n      0x4e487b7100000000000000000000000000000000000000000000000000000000\n        /* \"#utility.yul\":15563:15564   */\n      0x00\n        /* \"#utility.yul\":15556:15644   */\n      mstore\n        /* \"#utility.yul\":15663:15667   */\n      0x11\n        /* \"#utility.yul\":15660:15661   */\n      0x04\n        /* \"#utility.yul\":15653:15668   */\n      mstore\n        /* \"#utility.yul\":15687:15691   */\n      0x24\n        /* \"#utility.yul\":15684:15685   */\n      0x00\n        /* \"#utility.yul\":15677:15692   */\n      revert\n        /* \"#utility.yul\":15704:15884   */\n    tag_309:\n        /* \"#utility.yul\":15752:15829   */\n      0x4e487b7100000000000000000000000000000000000000000000000000000000\n        /* \"#utility.yul\":15749:15750   */\n      0x00\n        /* \"#utility.yul\":15742:15830   */\n      mstore\n        /* \"#utility.yul\":15849:15853   */\n      0x41\n        /* \"#utility.yul\":15846:15847   */\n      0x04\n        /* \"#utility.yul\":15839:15854   */\n      mstore\n        /* \"#utility.yul\":15873:15877   */\n      0x24\n        /* \"#utility.yul\":15870:15871   */\n      0x00\n        /* \"#utility.yul\":15863:15878   */\n      revert\n        /* \"#utility.yul\":15890:16007   */\n    tag_169:\n        /* \"#utility.yul\":15999:16000   */\n      0x00\n        /* \"#utility.yul\":15996:15997   */\n      dup1\n        /* \"#utility.yul\":15989:16001   */\n      revert\n        /* \"#utility.yul\":16013:16130   */\n    tag_147:\n        /* \"#utility.yul\":16122:16123   */\n      0x00\n        /* \"#utility.yul\":16119:16120   */\n      dup1\n        /* \"#utility.yul\":16112:16124   */\n      revert\n        /* \"#utility.yul\":16136:16253   */\n    tag_199:\n        /* \"#utility.yul\":16245:16246   */\n      0x00\n        /* \"#utility.yul\":16242:16243   */\n      dup1\n        /* \"#utility.yul\":16235:16247   */\n      revert\n        /* \"#utility.yul\":16259:16376   */\n    tag_178:\n        /* \"#utility.yul\":16368:16369   */\n      0x00\n        /* \"#utility.yul\":16365:16366   */\n      dup1\n        /* \"#utility.yul\":16358:16370   */\n      revert\n        /* \"#utility.yul\":16382:16484   */\n    tag_248:\n        /* \"#utility.yul\":16423:16429   */\n      0x00\n        /* \"#utility.yul\":16474:16476   */\n      0x1f\n        /* \"#utility.yul\":16470:16477   */\n      not\n        /* \"#utility.yul\":16465:16467   */\n      0x1f\n        /* \"#utility.yul\":16458:16463   */\n      dup4\n        /* \"#utility.yul\":16454:16468   */\n      add\n        /* \"#utility.yul\":16450:16478   */\n      and\n        /* \"#utility.yul\":16440:16478   */\n      swap1\n      pop\n        /* \"#utility.yul\":16382:16484   */\n      swap2\n      swap1\n      pop\n      jump\t// out\n        /* \"#utility.yul\":16490:16659   */\n    tag_254:\n        /* \"#utility.yul\":16630:16651   */\n      0x746f6b656e4f776e657220213d205f66726f6d00000000000000000000000000\n        /* \"#utility.yul\":16626:16627   */\n      0x00\n        /* \"#utility.yul\":16618:16624   */\n      dup3\n        /* \"#utility.yul\":16614:16628   */\n      add\n        /* \"#utility.yul\":16607:16652   */\n      mstore\n        /* \"#utility.yul\":16490:16659   */\n      pop\n      jump\t// out\n        /* \"#utility.yul\":16665:16838   */\n    tag_259:\n        /* \"#utility.yul\":16805:16830   */\n      0x5f746f6b656e496420616c726561647920657869737473000000000000000000\n        /* \"#utility.yul\":16801:16802   */\n      0x00\n        /* \"#utility.yul\":16793:16799   */\n      dup3\n        /* \"#utility.yul\":16789:16803   */\n      add\n        /* \"#utility.yul\":16782:16831   */\n      mstore\n        /* \"#utility.yul\":16665:16838   */\n      pop\n      jump\t// out\n        /* \"#utility.yul\":16844:17013   */\n    tag_264:\n        /* \"#utility.yul\":16984:17005   */\n      0x5f746f206973207a65726f206164647265737300000000000000000000000000\n        /* \"#utility.yul\":16980:16981   */\n      0x00\n        /* \"#utility.yul\":16972:16978   */\n      dup3\n        /* \"#utility.yul\":16968:16982   */\n      add\n        /* \"#utility.yul\":16961:17006   */\n      mstore\n        /* \"#utility.yul\":16844:17013   */\n      pop\n      jump\t// out\n        /* \"#utility.yul\":17019:17189   */\n    tag_269:\n        /* \"#utility.yul\":17159:17181   */\n      0x696e76616c696420696e74657266616365206964000000000000000000000000\n        /* \"#utility.yul\":17155:17156   */\n      0x00\n        /* \"#utility.yul\":17147:17153   */\n      dup3\n        /* \"#utility.yul\":17143:17157   */\n      add\n        /* \"#utility.yul\":17136:17182   */\n      mstore\n        /* \"#utility.yul\":17019:17189   */\n      pop\n      jump\t// out\n        /* \"#utility.yul\":17195:17429   */\n    tag_274:\n        /* \"#utility.yul\":17335:17369   */\n      0x72657476616c206e6f7420657175616c206f6e45524337323152656365697665\n        /* \"#utility.yul\":17331:17332   */\n      0x00\n        /* \"#utility.yul\":17323:17329   */\n      dup3\n        /* \"#utility.yul\":17319:17333   */\n      add\n        /* \"#utility.yul\":17312:17370   */\n      mstore\n        /* \"#utility.yul\":17404:17421   */\n      0x64277320696e7465726661636549440000000000000000000000000000000000\n        /* \"#utility.yul\":17399:17401   */\n      0x20\n        /* \"#utility.yul\":17391:17397   */\n      dup3\n        /* \"#utility.yul\":17387:17402   */\n      add\n        /* \"#utility.yul\":17380:17422   */\n      mstore\n        /* \"#utility.yul\":17195:17429   */\n      pop\n      jump\t// out\n        /* \"#utility.yul\":17435:17557   */\n    tag_153:\n        /* \"#utility.yul\":17508:17532   */\n      tag_356\n        /* \"#utility.yul\":17526:17531   */\n      dup2\n        /* \"#utility.yul\":17508:17532   */\n      tag_234\n      jump\t// in\n    tag_356:\n        /* \"#utility.yul\":17501:17506   */\n      dup2\n        /* \"#utility.yul\":17498:17533   */\n      eq\n        /* \"#utility.yul\":17488:17551   */\n      tag_357\n      jumpi\n        /* \"#utility.yul\":17547:17548   */\n      0x00\n        /* \"#utility.yul\":17544:17545   */\n      dup1\n        /* \"#utility.yul\":17537:17549   */\n      revert\n        /* \"#utility.yul\":17488:17551   */\n    tag_357:\n        /* \"#utility.yul\":17435:17557   */\n      pop\n      jump\t// out\n        /* \"#utility.yul\":17563:17679   */\n    tag_157:\n        /* \"#utility.yul\":17633:17654   */\n      tag_359\n        /* \"#utility.yul\":17648:17653   */\n      dup2\n        /* \"#utility.yul\":17633:17654   */\n      tag_238\n      jump\t// in\n    tag_359:\n        /* \"#utility.yul\":17626:17631   */\n      dup2\n        /* \"#utility.yul\":17623:17655   */\n      eq\n        /* \"#utility.yul\":17613:17673   */\n      tag_360\n      jumpi\n        /* \"#utility.yul\":17669:17670   */\n      0x00\n        /* \"#utility.yul\":17666:17667   */\n      dup1\n        /* \"#utility.yul\":17659:17671   */\n      revert\n        /* \"#utility.yul\":17613:17673   */\n    tag_360:\n        /* \"#utility.yul\":17563:17679   */\n      pop\n      jump\t// out\n        /* \"#utility.yul\":17685:17805   */\n    tag_161:\n        /* \"#utility.yul\":17757:17780   */\n      tag_362\n        /* \"#utility.yul\":17774:17779   */\n      dup2\n        /* \"#utility.yul\":17757:17780   */\n      tag_329\n      jump\t// in\n    tag_362:\n        /* \"#utility.yul\":17750:17755   */\n      dup2\n        /* \"#utility.yul\":17747:17781   */\n      eq\n        /* \"#utility.yul\":17737:17799   */\n      tag_363\n      jumpi\n        /* \"#utility.yul\":17795:17796   */\n      0x00\n        /* \"#utility.yul\":17792:17793   */\n      dup1\n        /* \"#utility.yul\":17785:17797   */\n      revert\n        /* \"#utility.yul\":17737:17799   */\n    tag_363:\n        /* \"#utility.yul\":17685:17805   */\n      pop\n      jump\t// out\n        /* \"#utility.yul\":17811:17933   */\n    tag_174:\n        /* \"#utility.yul\":17884:17908   */\n      tag_365\n        /* \"#utility.yul\":17902:17907   */\n      dup2\n        /* \"#utility.yul\":17884:17908   */\n      tag_278\n      jump\t// in\n    tag_365:\n        /* \"#utility.yul\":17877:17882   */\n      dup2\n        /* \"#utility.yul\":17874:17909   */\n      eq\n        /* \"#utility.yul\":17864:17927   */\n      tag_366\n      jumpi\n        /* \"#utility.yul\":17923:17924   */\n      0x00\n        /* \"#utility.yul\":17920:17921   */\n      dup1\n        /* \"#utility.yul\":17913:17925   */\n      revert\n        /* \"#utility.yul\":17864:17927   */\n    tag_366:\n        /* \"#utility.yul\":17811:17933   */\n      pop\n      jump\t// out\n\n    auxdata: 0xa26469706673582212205ad3c46684d9f5f63416d6211077b18ba97af9502d9687de20798fcc827c13da64736f6c63430008070033\n}\n",
				"bytecode": {
					"linkReferences": {},
					"object": "608060405263ffffffff60e01b600160006101000a81548163ffffffff021916908360e01c021790555034801561003557600080fd5b5061004c6301ffc9a760e01b61006760201b60201c565b6100626380ac58cd60e01b61006760201b60201c565b6100d3565b6001600080837bffffffffffffffffffffffffffffffffffffffffffffffffffffffff19167bffffffffffffffffffffffffffffffffffffffffffffffffffffffff1916815260200190815260200160002060006101000a81548160ff02191690831515021790555050565b611a77806100e26000396000f3fe60806040526004361061009c5760003560e01c80636352211e116100645780636352211e1461016f57806370a08231146101ac57806394d008ef146101e9578063a22cb46514610212578063b88d4fde1461023b578063e985e9c5146102575761009c565b806301ffc9a7146100a1578063081812fc146100de578063095ea7b31461011b57806323b872dd1461013757806342842e0e14610153575b600080fd5b3480156100ad57600080fd5b506100c860048036038101906100c391906113a2565b610294565b6040516100d591906115a5565b60405180910390f35b3480156100ea57600080fd5b50610105600480360381019061010091906113fc565b61038b565b604051610112919061153e565b60405180910390f35b610135600480360381019061013091906112f3565b6103c8565b005b610151600480360381019061014c91906111dd565b61057d565b005b61016d600480360381019061016891906111dd565b61058d565b005b34801561017b57600080fd5b50610196600480360381019061019191906113fc565b6105ad565b6040516101a3919061153e565b60405180910390f35b3480156101b857600080fd5b506101d360048036038101906101ce9190611170565b6105ea565b6040516101e09190611660565b60405180910390f35b3480156101f557600080fd5b50610210600480360381019061020b9190611333565b610633565b005b34801561021e57600080fd5b50610239600480360381019061023491906112b3565b610992565b005b61025560048036038101906102509190611230565b610a8f565b005b34801561026357600080fd5b5061027e6004803603810190610279919061119d565b610aa1565b60405161028b91906115a5565b60405180910390f35b6000600160009054906101000a900460e01b7bffffffffffffffffffffffffffffffffffffffffffffffffffffffff1916827bffffffffffffffffffffffffffffffffffffffffffffffffffffffff19161415610326576040517f08c379a000000000000000000000000000000000000000000000000000000000815260040161031d90611620565b60405180910390fd5b600080837bffffffffffffffffffffffffffffffffffffffffffffffffffffffff19167bffffffffffffffffffffffffffffffffffffffffffffffffffffffff1916815260200190815260200160002060009054906101000a900460ff169050919050565b60006004600083815260200190815260200160002060009054906101000a900473ffffffffffffffffffffffffffffffffffffffff169050919050565b8060006003600083815260200190815260200160002060009054906101000a900473ffffffffffffffffffffffffffffffffffffffff1690503373ffffffffffffffffffffffffffffffffffffffff168173ffffffffffffffffffffffffffffffffffffffff1614806104c15750600560008273ffffffffffffffffffffffffffffffffffffffff1673ffffffffffffffffffffffffffffffffffffffff16815260200190815260200160002060003373ffffffffffffffffffffffffffffffffffffffff1673ffffffffffffffffffffffffffffffffffffffff16815260200190815260200160002060009054906101000a900460ff165b6104ca57600080fd5b836004600085815260200190815260200160002060006101000a81548173ffffffffffffffffffffffffffffffffffffffff021916908373ffffffffffffffffffffffffffffffffffffffff160217905550828473ffffffffffffffffffffffffffffffffffffffff163373ffffffffffffffffffffffffffffffffffffffff167f8c5be1e5ebec7d5bd14f71427d1e84f3dd0314c0f7b2291e5b200ac8c7c3b92560405160405180910390a450505050565b610588838383610b35565b505050565b6105a883838360405180602001604052806000815250610ec5565b505050565b60006003600083815260200190815260200160002060009054906101000a900473ffffffffffffffffffffffffffffffffffffffff169050919050565b6000600260008373ffffffffffffffffffffffffffffffffffffffff1673ffffffffffffffffffffffffffffffffffffffff168152602001908152602001600020549050919050565b600073ffffffffffffffffffffffffffffffffffffffff168373ffffffffffffffffffffffffffffffffffffffff1614156106a3576040517f08c379a000000000000000000000000000000000000000000000000000000000815260040161069a90611600565b60405180910390fd5b600073ffffffffffffffffffffffffffffffffffffffff166003600084815260200190815260200160002060009054906101000a900473ffffffffffffffffffffffffffffffffffffffff1673ffffffffffffffffffffffffffffffffffffffff1614610745576040517f08c379a000000000000000000000000000000000000000000000000000000000815260040161073c906115e0565b60405180910390fd5b826003600084815260200190815260200160002060006101000a81548173ffffffffffffffffffffffffffffffffffffffff021916908373ffffffffffffffffffffffffffffffffffffffff1602179055506001600260008573ffffffffffffffffffffffffffffffffffffffff1673ffffffffffffffffffffffffffffffffffffffff16815260200190815260200160002060008282546107e791906116fe565b9250508190555061080d8373ffffffffffffffffffffffffffffffffffffffff16611074565b156109315760008373ffffffffffffffffffffffffffffffffffffffff1663150b7a0233600086866040518563ffffffff1660e01b81526004016108549493929190611559565b602060405180830381600087803b15801561086e57600080fd5b505af1158015610882573d6000803e3d6000fd5b505050506040513d601f19601f820116820180604052508101906108a691906113cf565b905063150b7a0260e01b7bffffffffffffffffffffffffffffffffffffffffffffffffffffffff1916817bffffffffffffffffffffffffffffffffffffffffffffffffffffffff19161461092f576040517f08c379a000000000000000000000000000000000000000000000000000000000815260040161092690611640565b60405180910390fd5b505b818373ffffffffffffffffffffffffffffffffffffffff16600073ffffffffffffffffffffffffffffffffffffffff167fddf252ad1be2c89b69c2b068fc378daa952ba7f163c4a11628f55a4df523b3ef60405160405180910390a4505050565b80600560003373ffffffffffffffffffffffffffffffffffffffff1673ffffffffffffffffffffffffffffffffffffffff16815260200190815260200160002060008473ffffffffffffffffffffffffffffffffffffffff1673ffffffffffffffffffffffffffffffffffffffff16815260200190815260200160002060006101000a81548160ff0219169083151502179055508173ffffffffffffffffffffffffffffffffffffffff163373ffffffffffffffffffffffffffffffffffffffff167f17307eab39ab6107e8899845ad3d59bd9653f200f220920489ca2b5937696c3183604051610a8391906115a5565b60405180910390a35050565b610a9b84848484610ec5565b50505050565b6000600560008473ffffffffffffffffffffffffffffffffffffffff1673ffffffffffffffffffffffffffffffffffffffff16815260200190815260200160002060008373ffffffffffffffffffffffffffffffffffffffff1673ffffffffffffffffffffffffffffffffffffffff16815260200190815260200160002060009054906101000a900460ff16905092915050565b808360006003600084815260200190815260200160002060009054906101000a900473ffffffffffffffffffffffffffffffffffffffff1690508173ffffffffffffffffffffffffffffffffffffffff168173ffffffffffffffffffffffffffffffffffffffff1614610bdd576040517f08c379a0000000000000000000000000000000000000000000000000000000008152600401610bd4906115c0565b60405180910390fd5b3373ffffffffffffffffffffffffffffffffffffffff168173ffffffffffffffffffffffffffffffffffffffff161480610c7557503373ffffffffffffffffffffffffffffffffffffffff166004600085815260200190815260200160002060009054906101000a900473ffffffffffffffffffffffffffffffffffffffff1673ffffffffffffffffffffffffffffffffffffffff16145b80610d065750600560008273ffffffffffffffffffffffffffffffffffffffff1673ffffffffffffffffffffffffffffffffffffffff16815260200190815260200160002060003373ffffffffffffffffffffffffffffffffffffffff1673ffffffffffffffffffffffffffffffffffffffff16815260200190815260200160002060009054906101000a900460ff165b610d0f57600080fd5b846003600086815260200190815260200160002060006101000a81548173ffffffffffffffffffffffffffffffffffffffff021916908373ffffffffffffffffffffffffffffffffffffffff1602179055506001600260008873ffffffffffffffffffffffffffffffffffffffff1673ffffffffffffffffffffffffffffffffffffffff1681526020019081526020016000206000828254610db19190611754565b925050819055506001600260008773ffffffffffffffffffffffffffffffffffffffff1673ffffffffffffffffffffffffffffffffffffffff1681526020019081526020016000206000828254610e0891906116fe565b9250508190555060006004600086815260200190815260200160002060006101000a81548173ffffffffffffffffffffffffffffffffffffffff021916908373ffffffffffffffffffffffffffffffffffffffff160217905550838573ffffffffffffffffffffffffffffffffffffffff168773ffffffffffffffffffffffffffffffffffffffff167fddf252ad1be2c89b69c2b068fc378daa952ba7f163c4a11628f55a4df523b3ef60405160405180910390a4505050505050565b610ed0848484610b35565b610eef8373ffffffffffffffffffffffffffffffffffffffff16611074565b156110135760008373ffffffffffffffffffffffffffffffffffffffff1663150b7a0233600086866040518563ffffffff1660e01b8152600401610f369493929190611559565b602060405180830381600087803b158015610f5057600080fd5b505af1158015610f64573d6000803e3d6000fd5b505050506040513d601f19601f82011682018060405250810190610f8891906113cf565b905063150b7a0260e01b7bffffffffffffffffffffffffffffffffffffffffffffffffffffffff1916817bffffffffffffffffffffffffffffffffffffffffffffffffffffffff191614611011576040517f08c379a000000000000000000000000000000000000000000000000000000000815260040161100890611640565b60405180910390fd5b505b818373ffffffffffffffffffffffffffffffffffffffff168573ffffffffffffffffffffffffffffffffffffffff167fddf252ad1be2c89b69c2b068fc378daa952ba7f163c4a11628f55a4df523b3ef60405160405180910390a450505050565b6000808273ffffffffffffffffffffffffffffffffffffffff163b119050919050565b60006110aa6110a5846116a0565b61167b565b9050828152602081018484840111156110c6576110c56118d2565b5b6110d18482856117fc565b509392505050565b6000813590506110e8816119e5565b92915050565b6000813590506110fd816119fc565b92915050565b60008135905061111281611a13565b92915050565b60008151905061112781611a13565b92915050565b600082601f830112611142576111416118cd565b5b8135611152848260208601611097565b91505092915050565b60008135905061116a81611a2a565b92915050565b600060208284031215611186576111856118dc565b5b6000611194848285016110d9565b91505092915050565b600080604083850312156111b4576111b36118dc565b5b60006111c2858286016110d9565b92505060206111d3858286016110d9565b9150509250929050565b6000806000606084860312156111f6576111f56118dc565b5b6000611204868287016110d9565b9350506020611215868287016110d9565b92505060406112268682870161115b565b9150509250925092565b6000806000806080858703121561124a576112496118dc565b5b6000611258878288016110d9565b9450506020611269878288016110d9565b935050604061127a8782880161115b565b925050606085013567ffffffffffffffff81111561129b5761129a6118d7565b5b6112a78782880161112d565b91505092959194509250565b600080604083850312156112ca576112c96118dc565b5b60006112d8858286016110d9565b92505060206112e9858286016110ee565b9150509250929050565b6000806040838503121561130a576113096118dc565b5b6000611318858286016110d9565b92505060206113298582860161115b565b9150509250929050565b60008060006060848603121561134c5761134b6118dc565b5b600061135a868287016110d9565b935050602061136b8682870161115b565b925050604084013567ffffffffffffffff81111561138c5761138b6118d7565b5b6113988682870161112d565b9150509250925092565b6000602082840312156113b8576113b76118dc565b5b60006113c684828501611103565b91505092915050565b6000602082840312156113e5576113e46118dc565b5b60006113f384828501611118565b91505092915050565b600060208284031215611412576114116118dc565b5b60006114208482850161115b565b91505092915050565b61143281611788565b82525050565b6114418161179a565b82525050565b6000611452826116d1565b61145c81856116dc565b935061146c81856020860161180b565b611475816118e1565b840191505092915050565b600061148d6013836116ed565b9150611498826118f2565b602082019050919050565b60006114b06017836116ed565b91506114bb8261191b565b602082019050919050565b60006114d36013836116ed565b91506114de82611944565b602082019050919050565b60006114f66014836116ed565b91506115018261196d565b602082019050919050565b6000611519602f836116ed565b915061152482611996565b604082019050919050565b611538816117f2565b82525050565b60006020820190506115536000830184611429565b92915050565b600060808201905061156e6000830187611429565b61157b6020830186611429565b611588604083018561152f565b818103606083015261159a8184611447565b905095945050505050565b60006020820190506115ba6000830184611438565b92915050565b600060208201905081810360008301526115d981611480565b9050919050565b600060208201905081810360008301526115f9816114a3565b9050919050565b60006020820190508181036000830152611619816114c6565b9050919050565b60006020820190508181036000830152611639816114e9565b9050919050565b600060208201905081810360008301526116598161150c565b9050919050565b6000602082019050611675600083018461152f565b92915050565b6000611685611696565b9050611691828261183e565b919050565b6000604051905090565b600067ffffffffffffffff8211156116bb576116ba61189e565b5b6116c4826118e1565b9050602081019050919050565b600081519050919050565b600082825260208201905092915050565b600082825260208201905092915050565b6000611709826117f2565b9150611714836117f2565b9250827fffffffffffffffffffffffffffffffffffffffffffffffffffffffffffffffff038211156117495761174861186f565b5b828201905092915050565b600061175f826117f2565b915061176a836117f2565b92508282101561177d5761177c61186f565b5b828203905092915050565b6000611793826117d2565b9050919050565b60008115159050919050565b60007fffffffff0000000000000000000000000000000000000000000000000000000082169050919050565b600073ffffffffffffffffffffffffffffffffffffffff82169050919050565b6000819050919050565b82818337600083830152505050565b60005b8381101561182957808201518184015260208101905061180e565b83811115611838576000848401525b50505050565b611847826118e1565b810181811067ffffffffffffffff821117156118665761186561189e565b5b80604052505050565b7f4e487b7100000000000000000000000000000000000000000000000000000000600052601160045260246000fd5b7f4e487b7100000000000000000000000000000000000000000000000000000000600052604160045260246000fd5b600080fd5b600080fd5b600080fd5b600080fd5b6000601f19601f8301169050919050565b7f746f6b656e4f776e657220213d205f66726f6d00000000000000000000000000600082015250565b7f5f746f6b656e496420616c726561647920657869737473000000000000000000600082015250565b7f5f746f206973207a65726f206164647265737300000000000000000000000000600082015250565b7f696e76616c696420696e74657266616365206964000000000000000000000000600082015250565b7f72657476616c206e6f7420657175616c206f6e4552433732315265636569766560008201527f64277320696e7465726661636549440000000000000000000000000000000000602082015250565b6119ee81611788565b81146119f957600080fd5b50565b611a058161179a565b8114611a1057600080fd5b50565b611a1c816117a6565b8114611a2757600080fd5b50565b611a33816117f2565b8114611a3e57600080fd5b5056fea26469706673582212205ad3c46684d9f5f63416d6211077b18ba97af9502d9687de20798fcc827c13da64736f6c63430008070033",
					"opcodes": "PUSH1 0x80 PUSH1 0x40 MSTORE PUSH4 0xFFFFFFFF PUSH1 0xE0 SHL PUSH1 0x1 PUSH1 0x0 PUSH2 0x100 EXP DUP2 SLOAD DUP2 PUSH4 0xFFFFFFFF MUL NOT AND SWAP1 DUP4 PUSH1 0xE0 SHR MUL OR SWAP1 SSTORE POP CALLVALUE DUP1 ISZERO PUSH2 0x35 JUMPI PUSH1 0x0 DUP1 REVERT JUMPDEST POP PUSH2 0x4C PUSH4 0x1FFC9A7 PUSH1 0xE0 SHL PUSH2 0x67 PUSH1 0x20 SHL PUSH1 0x20 SHR JUMP JUMPDEST PUSH2 0x62 PUSH4 0x80AC58CD PUSH1 0xE0 SHL PUSH2 0x67 PUSH1 0x20 SHL PUSH1 0x20 SHR JUMP JUMPDEST PUSH2 0xD3 JUMP JUMPDEST PUSH1 0x1 PUSH1 0x0 DUP1 DUP4 PUSH28 0xFFFFFFFFFFFFFFFFFFFFFFFFFFFFFFFFFFFFFFFFFFFFFFFFFFFFFFFF NOT AND PUSH28 0xFFFFFFFFFFFFFFFFFFFFFFFFFFFFFFFFFFFFFFFFFFFFFFFFFFFFFFFF NOT AND DUP2 MSTORE PUSH1 0x20 ADD SWAP1 DUP2 MSTORE PUSH1 0x20 ADD PUSH1 0x0 KECCAK256 PUSH1 0x0 PUSH2 0x100 EXP DUP2 SLOAD DUP2 PUSH1 0xFF MUL NOT AND SWAP1 DUP4 ISZERO ISZERO MUL OR SWAP1 SSTORE POP POP JUMP JUMPDEST PUSH2 0x1A77 DUP1 PUSH2 0xE2 PUSH1 0x0 CODECOPY PUSH1 0x0 RETURN INVALID PUSH1 0x80 PUSH1 0x40 MSTORE PUSH1 0x4 CALLDATASIZE LT PUSH2 0x9C JUMPI PUSH1 0x0 CALLDATALOAD PUSH1 0xE0 SHR DUP1 PUSH4 0x6352211E GT PUSH2 0x64 JUMPI DUP1 PUSH4 0x6352211E EQ PUSH2 0x16F JUMPI DUP1 PUSH4 0x70A08231 EQ PUSH2 0x1AC JUMPI DUP1 PUSH4 0x94D008EF EQ PUSH2 0x1E9 JUMPI DUP1 PUSH4 0xA22CB465 EQ PUSH2 0x212 JUMPI DUP1 PUSH4 0xB88D4FDE EQ PUSH2 0x23B JUMPI DUP1 PUSH4 0xE985E9C5 EQ PUSH2 0x257 JUMPI PUSH2 0x9C JUMP JUMPDEST DUP1 PUSH4 0x1FFC9A7 EQ PUSH2 0xA1 JUMPI DUP1 PUSH4 0x81812FC EQ PUSH2 0xDE JUMPI DUP1 PUSH4 0x95EA7B3 EQ PUSH2 0x11B JUMPI DUP1 PUSH4 0x23B872DD EQ PUSH2 0x137 JUMPI DUP1 PUSH4 0x42842E0E EQ PUSH2 0x153 JUMPI JUMPDEST PUSH1 0x0 DUP1 REVERT JUMPDEST CALLVALUE DUP1 ISZERO PUSH2 0xAD JUMPI PUSH1 0x0 DUP1 REVERT JUMPDEST POP PUSH2 0xC8 PUSH1 0x4 DUP1 CALLDATASIZE SUB DUP2 ADD SWAP1 PUSH2 0xC3 SWAP2 SWAP1 PUSH2 0x13A2 JUMP JUMPDEST PUSH2 0x294 JUMP JUMPDEST PUSH1 0x40 MLOAD PUSH2 0xD5 SWAP2 SWAP1 PUSH2 0x15A5 JUMP JUMPDEST PUSH1 0x40 MLOAD DUP1 SWAP2 SUB SWAP1 RETURN JUMPDEST CALLVALUE DUP1 ISZERO PUSH2 0xEA JUMPI PUSH1 0x0 DUP1 REVERT JUMPDEST POP PUSH2 0x105 PUSH1 0x4 DUP1 CALLDATASIZE SUB DUP2 ADD SWAP1 PUSH2 0x100 SWAP2 SWAP1 PUSH2 0x13FC JUMP JUMPDEST PUSH2 0x38B JUMP JUMPDEST PUSH1 0x40 MLOAD PUSH2 0x112 SWAP2 SWAP1 PUSH2 0x153E JUMP JUMPDEST PUSH1 0x40 MLOAD DUP1 SWAP2 SUB SWAP1 RETURN JUMPDEST PUSH2 0x135 PUSH1 0x4 DUP1 CALLDATASIZE SUB DUP2 ADD SWAP1 PUSH2 0x130 SWAP2 SWAP1 PUSH2 0x12F3 JUMP JUMPDEST PUSH2 0x3C8 JUMP JUMPDEST STOP JUMPDEST PUSH2 0x151 PUSH1 0x4 DUP1 CALLDATASIZE SUB DUP2 ADD SWAP1 PUSH2 0x14C SWAP2 SWAP1 PUSH2 0x11DD JUMP JUMPDEST PUSH2 0x57D JUMP JUMPDEST STOP JUMPDEST PUSH2 0x16D PUSH1 0x4 DUP1 CALLDATASIZE SUB DUP2 ADD SWAP1 PUSH2 0x168 SWAP2 SWAP1 PUSH2 0x11DD JUMP JUMPDEST PUSH2 0x58D JUMP JUMPDEST STOP JUMPDEST CALLVALUE DUP1 ISZERO PUSH2 0x17B JUMPI PUSH1 0x0 DUP1 REVERT JUMPDEST POP PUSH2 0x196 PUSH1 0x4 DUP1 CALLDATASIZE SUB DUP2 ADD SWAP1 PUSH2 0x191 SWAP2 SWAP1 PUSH2 0x13FC JUMP JUMPDEST PUSH2 0x5AD JUMP JUMPDEST PUSH1 0x40 MLOAD PUSH2 0x1A3 SWAP2 SWAP1 PUSH2 0x153E JUMP JUMPDEST PUSH1 0x40 MLOAD DUP1 SWAP2 SUB SWAP1 RETURN JUMPDEST CALLVALUE DUP1 ISZERO PUSH2 0x1B8 JUMPI PUSH1 0x0 DUP1 REVERT JUMPDEST POP PUSH2 0x1D3 PUSH1 0x4 DUP1 CALLDATASIZE SUB DUP2 ADD SWAP1 PUSH2 0x1CE SWAP2 SWAP1 PUSH2 0x1170 JUMP JUMPDEST PUSH2 0x5EA JUMP JUMPDEST PUSH1 0x40 MLOAD PUSH2 0x1E0 SWAP2 SWAP1 PUSH2 0x1660 JUMP JUMPDEST PUSH1 0x40 MLOAD DUP1 SWAP2 SUB SWAP1 RETURN JUMPDEST CALLVALUE DUP1 ISZERO PUSH2 0x1F5 JUMPI PUSH1 0x0 DUP1 REVERT JUMPDEST POP PUSH2 0x210 PUSH1 0x4 DUP1 CALLDATASIZE SUB DUP2 ADD SWAP1 PUSH2 0x20B SWAP2 SWAP1 PUSH2 0x1333 JUMP JUMPDEST PUSH2 0x633 JUMP JUMPDEST STOP JUMPDEST CALLVALUE DUP1 ISZERO PUSH2 0x21E JUMPI PUSH1 0x0 DUP1 REVERT JUMPDEST POP PUSH2 0x239 PUSH1 0x4 DUP1 CALLDATASIZE SUB DUP2 ADD SWAP1 PUSH2 0x234 SWAP2 SWAP1 PUSH2 0x12B3 JUMP JUMPDEST PUSH2 0x992 JUMP JUMPDEST STOP JUMPDEST PUSH2 0x255 PUSH1 0x4 DUP1 CALLDATASIZE SUB DUP2 ADD SWAP1 PUSH2 0x250 SWAP2 SWAP1 PUSH2 0x1230 JUMP JUMPDEST PUSH2 0xA8F JUMP JUMPDEST STOP JUMPDEST CALLVALUE DUP1 ISZERO PUSH2 0x263 JUMPI PUSH1 0x0 DUP1 REVERT JUMPDEST POP PUSH2 0x27E PUSH1 0x4 DUP1 CALLDATASIZE SUB DUP2 ADD SWAP1 PUSH2 0x279 SWAP2 SWAP1 PUSH2 0x119D JUMP JUMPDEST PUSH2 0xAA1 JUMP JUMPDEST PUSH1 0x40 MLOAD PUSH2 0x28B SWAP2 SWAP1 PUSH2 0x15A5 JUMP JUMPDEST PUSH1 0x40 MLOAD DUP1 SWAP2 SUB SWAP1 RETURN JUMPDEST PUSH1 0x0 PUSH1 0x1 PUSH1 0x0 SWAP1 SLOAD SWAP1 PUSH2 0x100 EXP SWAP1 DIV PUSH1 0xE0 SHL PUSH28 0xFFFFFFFFFFFFFFFFFFFFFFFFFFFFFFFFFFFFFFFFFFFFFFFFFFFFFFFF NOT AND DUP3 PUSH28 0xFFFFFFFFFFFFFFFFFFFFFFFFFFFFFFFFFFFFFFFFFFFFFFFFFFFFFFFF NOT AND EQ ISZERO PUSH2 0x326 JUMPI PUSH1 0x40 MLOAD PUSH32 0x8C379A000000000000000000000000000000000000000000000000000000000 DUP2 MSTORE PUSH1 0x4 ADD PUSH2 0x31D SWAP1 PUSH2 0x1620 JUMP JUMPDEST PUSH1 0x40 MLOAD DUP1 SWAP2 SUB SWAP1 REVERT JUMPDEST PUSH1 0x0 DUP1 DUP4 PUSH28 0xFFFFFFFFFFFFFFFFFFFFFFFFFFFFFFFFFFFFFFFFFFFFFFFFFFFFFFFF NOT AND PUSH28 0xFFFFFFFFFFFFFFFFFFFFFFFFFFFFFFFFFFFFFFFFFFFFFFFFFFFFFFFF NOT AND DUP2 MSTORE PUSH1 0x20 ADD SWAP1 DUP2 MSTORE PUSH1 0x20 ADD PUSH1 0x0 KECCAK256 PUSH1 0x0 SWAP1 SLOAD SWAP1 PUSH2 0x100 EXP SWAP1 DIV PUSH1 0xFF AND SWAP1 POP SWAP2 SWAP1 POP JUMP JUMPDEST PUSH1 0x0 PUSH1 0x4 PUSH1 0x0 DUP4 DUP2 MSTORE PUSH1 0x20 ADD SWAP1 DUP2 MSTORE PUSH1 0x20 ADD PUSH1 0x0 KECCAK256 PUSH1 0x0 SWAP1 SLOAD SWAP1 PUSH2 0x100 EXP SWAP1 DIV PUSH20 0xFFFFFFFFFFFFFFFFFFFFFFFFFFFFFFFFFFFFFFFF AND SWAP1 POP SWAP2 SWAP1 POP JUMP JUMPDEST DUP1 PUSH1 0x0 PUSH1 0x3 PUSH1 0x0 DUP4 DUP2 MSTORE PUSH1 0x20 ADD SWAP1 DUP2 MSTORE PUSH1 0x20 ADD PUSH1 0x0 KECCAK256 PUSH1 0x0 SWAP1 SLOAD SWAP1 PUSH2 0x100 EXP SWAP1 DIV PUSH20 0xFFFFFFFFFFFFFFFFFFFFFFFFFFFFFFFFFFFFFFFF AND SWAP1 POP CALLER PUSH20 0xFFFFFFFFFFFFFFFFFFFFFFFFFFFFFFFFFFFFFFFF AND DUP2 PUSH20 0xFFFFFFFFFFFFFFFFFFFFFFFFFFFFFFFFFFFFFFFF AND EQ DUP1 PUSH2 0x4C1 JUMPI POP PUSH1 0x5 PUSH1 0x0 DUP3 PUSH20 0xFFFFFFFFFFFFFFFFFFFFFFFFFFFFFFFFFFFFFFFF AND PUSH20 0xFFFFFFFFFFFFFFFFFFFFFFFFFFFFFFFFFFFFFFFF AND DUP2 MSTORE PUSH1 0x20 ADD SWAP1 DUP2 MSTORE PUSH1 0x20 ADD PUSH1 0x0 KECCAK256 PUSH1 0x0 CALLER PUSH20 0xFFFFFFFFFFFFFFFFFFFFFFFFFFFFFFFFFFFFFFFF AND PUSH20 0xFFFFFFFFFFFFFFFFFFFFFFFFFFFFFFFFFFFFFFFF AND DUP2 MSTORE PUSH1 0x20 ADD SWAP1 DUP2 MSTORE PUSH1 0x20 ADD PUSH1 0x0 KECCAK256 PUSH1 0x0 SWAP1 SLOAD SWAP1 PUSH2 0x100 EXP SWAP1 DIV PUSH1 0xFF AND JUMPDEST PUSH2 0x4CA JUMPI PUSH1 0x0 DUP1 REVERT JUMPDEST DUP4 PUSH1 0x4 PUSH1 0x0 DUP6 DUP2 MSTORE PUSH1 0x20 ADD SWAP1 DUP2 MSTORE PUSH1 0x20 ADD PUSH1 0x0 KECCAK256 PUSH1 0x0 PUSH2 0x100 EXP DUP2 SLOAD DUP2 PUSH20 0xFFFFFFFFFFFFFFFFFFFFFFFFFFFFFFFFFFFFFFFF MUL NOT AND SWAP1 DUP4 PUSH20 0xFFFFFFFFFFFFFFFFFFFFFFFFFFFFFFFFFFFFFFFF AND MUL OR SWAP1 SSTORE POP DUP3 DUP5 PUSH20 0xFFFFFFFFFFFFFFFFFFFFFFFFFFFFFFFFFFFFFFFF AND CALLER PUSH20 0xFFFFFFFFFFFFFFFFFFFFFFFFFFFFFFFFFFFFFFFF AND PUSH32 0x8C5BE1E5EBEC7D5BD14F71427D1E84F3DD0314C0F7B2291E5B200AC8C7C3B925 PUSH1 0x40 MLOAD PUSH1 0x40 MLOAD DUP1 SWAP2 SUB SWAP1 LOG4 POP POP POP POP JUMP JUMPDEST PUSH2 0x588 DUP4 DUP4 DUP4 PUSH2 0xB35 JUMP JUMPDEST POP POP POP JUMP JUMPDEST PUSH2 0x5A8 DUP4 DUP4 DUP4 PUSH1 0x40 MLOAD DUP1 PUSH1 0x20 ADD PUSH1 0x40 MSTORE DUP1 PUSH1 0x0 DUP2 MSTORE POP PUSH2 0xEC5 JUMP JUMPDEST POP POP POP JUMP JUMPDEST PUSH1 0x0 PUSH1 0x3 PUSH1 0x0 DUP4 DUP2 MSTORE PUSH1 0x20 ADD SWAP1 DUP2 MSTORE PUSH1 0x20 ADD PUSH1 0x0 KECCAK256 PUSH1 0x0 SWAP1 SLOAD SWAP1 PUSH2 0x100 EXP SWAP1 DIV PUSH20 0xFFFFFFFFFFFFFFFFFFFFFFFFFFFFFFFFFFFFFFFF AND SWAP1 POP SWAP2 SWAP1 POP JUMP JUMPDEST PUSH1 0x0 PUSH1 0x2 PUSH1 0x0 DUP4 PUSH20 0xFFFFFFFFFFFFFFFFFFFFFFFFFFFFFFFFFFFFFFFF AND PUSH20 0xFFFFFFFFFFFFFFFFFFFFFFFFFFFFFFFFFFFFFFFF AND DUP2 MSTORE PUSH1 0x20 ADD SWAP1 DUP2 MSTORE PUSH1 0x20 ADD PUSH1 0x0 KECCAK256 SLOAD SWAP1 POP SWAP2 SWAP1 POP JUMP JUMPDEST PUSH1 0x0 PUSH20 0xFFFFFFFFFFFFFFFFFFFFFFFFFFFFFFFFFFFFFFFF AND DUP4 PUSH20 0xFFFFFFFFFFFFFFFFFFFFFFFFFFFFFFFFFFFFFFFF AND EQ ISZERO PUSH2 0x6A3 JUMPI PUSH1 0x40 MLOAD PUSH32 0x8C379A000000000000000000000000000000000000000000000000000000000 DUP2 MSTORE PUSH1 0x4 ADD PUSH2 0x69A SWAP1 PUSH2 0x1600 JUMP JUMPDEST PUSH1 0x40 MLOAD DUP1 SWAP2 SUB SWAP1 REVERT JUMPDEST PUSH1 0x0 PUSH20 0xFFFFFFFFFFFFFFFFFFFFFFFFFFFFFFFFFFFFFFFF AND PUSH1 0x3 PUSH1 0x0 DUP5 DUP2 MSTORE PUSH1 0x20 ADD SWAP1 DUP2 MSTORE PUSH1 0x20 ADD PUSH1 0x0 KECCAK256 PUSH1 0x0 SWAP1 SLOAD SWAP1 PUSH2 0x100 EXP SWAP1 DIV PUSH20 0xFFFFFFFFFFFFFFFFFFFFFFFFFFFFFFFFFFFFFFFF AND PUSH20 0xFFFFFFFFFFFFFFFFFFFFFFFFFFFFFFFFFFFFFFFF AND EQ PUSH2 0x745 JUMPI PUSH1 0x40 MLOAD PUSH32 0x8C379A000000000000000000000000000000000000000000000000000000000 DUP2 MSTORE PUSH1 0x4 ADD PUSH2 0x73C SWAP1 PUSH2 0x15E0 JUMP JUMPDEST PUSH1 0x40 MLOAD DUP1 SWAP2 SUB SWAP1 REVERT JUMPDEST DUP3 PUSH1 0x3 PUSH1 0x0 DUP5 DUP2 MSTORE PUSH1 0x20 ADD SWAP1 DUP2 MSTORE PUSH1 0x20 ADD PUSH1 0x0 KECCAK256 PUSH1 0x0 PUSH2 0x100 EXP DUP2 SLOAD DUP2 PUSH20 0xFFFFFFFFFFFFFFFFFFFFFFFFFFFFFFFFFFFFFFFF MUL NOT AND SWAP1 DUP4 PUSH20 0xFFFFFFFFFFFFFFFFFFFFFFFFFFFFFFFFFFFFFFFF AND MUL OR SWAP1 SSTORE POP PUSH1 0x1 PUSH1 0x2 PUSH1 0x0 DUP6 PUSH20 0xFFFFFFFFFFFFFFFFFFFFFFFFFFFFFFFFFFFFFFFF AND PUSH20 0xFFFFFFFFFFFFFFFFFFFFFFFFFFFFFFFFFFFFFFFF AND DUP2 MSTORE PUSH1 0x20 ADD SWAP1 DUP2 MSTORE PUSH1 0x20 ADD PUSH1 0x0 KECCAK256 PUSH1 0x0 DUP3 DUP3 SLOAD PUSH2 0x7E7 SWAP2 SWAP1 PUSH2 0x16FE JUMP JUMPDEST SWAP3 POP POP DUP2 SWAP1 SSTORE POP PUSH2 0x80D DUP4 PUSH20 0xFFFFFFFFFFFFFFFFFFFFFFFFFFFFFFFFFFFFFFFF AND PUSH2 0x1074 JUMP JUMPDEST ISZERO PUSH2 0x931 JUMPI PUSH1 0x0 DUP4 PUSH20 0xFFFFFFFFFFFFFFFFFFFFFFFFFFFFFFFFFFFFFFFF AND PUSH4 0x150B7A02 CALLER PUSH1 0x0 DUP7 DUP7 PUSH1 0x40 MLOAD DUP6 PUSH4 0xFFFFFFFF AND PUSH1 0xE0 SHL DUP2 MSTORE PUSH1 0x4 ADD PUSH2 0x854 SWAP5 SWAP4 SWAP3 SWAP2 SWAP1 PUSH2 0x1559 JUMP JUMPDEST PUSH1 0x20 PUSH1 0x40 MLOAD DUP1 DUP4 SUB DUP2 PUSH1 0x0 DUP8 DUP1 EXTCODESIZE ISZERO DUP1 ISZERO PUSH2 0x86E JUMPI PUSH1 0x0 DUP1 REVERT JUMPDEST POP GAS CALL ISZERO DUP1 ISZERO PUSH2 0x882 JUMPI RETURNDATASIZE PUSH1 0x0 DUP1 RETURNDATACOPY RETURNDATASIZE PUSH1 0x0 REVERT JUMPDEST POP POP POP POP PUSH1 0x40 MLOAD RETURNDATASIZE PUSH1 0x1F NOT PUSH1 0x1F DUP3 ADD AND DUP3 ADD DUP1 PUSH1 0x40 MSTORE POP DUP2 ADD SWAP1 PUSH2 0x8A6 SWAP2 SWAP1 PUSH2 0x13CF JUMP JUMPDEST SWAP1 POP PUSH4 0x150B7A02 PUSH1 0xE0 SHL PUSH28 0xFFFFFFFFFFFFFFFFFFFFFFFFFFFFFFFFFFFFFFFFFFFFFFFFFFFFFFFF NOT AND DUP2 PUSH28 0xFFFFFFFFFFFFFFFFFFFFFFFFFFFFFFFFFFFFFFFFFFFFFFFFFFFFFFFF NOT AND EQ PUSH2 0x92F JUMPI PUSH1 0x40 MLOAD PUSH32 0x8C379A000000000000000000000000000000000000000000000000000000000 DUP2 MSTORE PUSH1 0x4 ADD PUSH2 0x926 SWAP1 PUSH2 0x1640 JUMP JUMPDEST PUSH1 0x40 MLOAD DUP1 SWAP2 SUB SWAP1 REVERT JUMPDEST POP JUMPDEST DUP2 DUP4 PUSH20 0xFFFFFFFFFFFFFFFFFFFFFFFFFFFFFFFFFFFFFFFF AND PUSH1 0x0 PUSH20 0xFFFFFFFFFFFFFFFFFFFFFFFFFFFFFFFFFFFFFFFF AND PUSH32 0xDDF252AD1BE2C89B69C2B068FC378DAA952BA7F163C4A11628F55A4DF523B3EF PUSH1 0x40 MLOAD PUSH1 0x40 MLOAD DUP1 SWAP2 SUB SWAP1 LOG4 POP POP POP JUMP JUMPDEST DUP1 PUSH1 0x5 PUSH1 0x0 CALLER PUSH20 0xFFFFFFFFFFFFFFFFFFFFFFFFFFFFFFFFFFFFFFFF AND PUSH20 0xFFFFFFFFFFFFFFFFFFFFFFFFFFFFFFFFFFFFFFFF AND DUP2 MSTORE PUSH1 0x20 ADD SWAP1 DUP2 MSTORE PUSH1 0x20 ADD PUSH1 0x0 KECCAK256 PUSH1 0x0 DUP5 PUSH20 0xFFFFFFFFFFFFFFFFFFFFFFFFFFFFFFFFFFFFFFFF AND PUSH20 0xFFFFFFFFFFFFFFFFFFFFFFFFFFFFFFFFFFFFFFFF AND DUP2 MSTORE PUSH1 0x20 ADD SWAP1 DUP2 MSTORE PUSH1 0x20 ADD PUSH1 0x0 KECCAK256 PUSH1 0x0 PUSH2 0x100 EXP DUP2 SLOAD DUP2 PUSH1 0xFF MUL NOT AND SWAP1 DUP4 ISZERO ISZERO MUL OR SWAP1 SSTORE POP DUP2 PUSH20 0xFFFFFFFFFFFFFFFFFFFFFFFFFFFFFFFFFFFFFFFF AND CALLER PUSH20 0xFFFFFFFFFFFFFFFFFFFFFFFFFFFFFFFFFFFFFFFF AND PUSH32 0x17307EAB39AB6107E8899845AD3D59BD9653F200F220920489CA2B5937696C31 DUP4 PUSH1 0x40 MLOAD PUSH2 0xA83 SWAP2 SWAP1 PUSH2 0x15A5 JUMP JUMPDEST PUSH1 0x40 MLOAD DUP1 SWAP2 SUB SWAP1 LOG3 POP POP JUMP JUMPDEST PUSH2 0xA9B DUP5 DUP5 DUP5 DUP5 PUSH2 0xEC5 JUMP JUMPDEST POP POP POP POP JUMP JUMPDEST PUSH1 0x0 PUSH1 0x5 PUSH1 0x0 DUP5 PUSH20 0xFFFFFFFFFFFFFFFFFFFFFFFFFFFFFFFFFFFFFFFF AND PUSH20 0xFFFFFFFFFFFFFFFFFFFFFFFFFFFFFFFFFFFFFFFF AND DUP2 MSTORE PUSH1 0x20 ADD SWAP1 DUP2 MSTORE PUSH1 0x20 ADD PUSH1 0x0 KECCAK256 PUSH1 0x0 DUP4 PUSH20 0xFFFFFFFFFFFFFFFFFFFFFFFFFFFFFFFFFFFFFFFF AND PUSH20 0xFFFFFFFFFFFFFFFFFFFFFFFFFFFFFFFFFFFFFFFF AND DUP2 MSTORE PUSH1 0x20 ADD SWAP1 DUP2 MSTORE PUSH1 0x20 ADD PUSH1 0x0 KECCAK256 PUSH1 0x0 SWAP1 SLOAD SWAP1 PUSH2 0x100 EXP SWAP1 DIV PUSH1 0xFF AND SWAP1 POP SWAP3 SWAP2 POP POP JUMP JUMPDEST DUP1 DUP4 PUSH1 0x0 PUSH1 0x3 PUSH1 0x0 DUP5 DUP2 MSTORE PUSH1 0x20 ADD SWAP1 DUP2 MSTORE PUSH1 0x20 ADD PUSH1 0x0 KECCAK256 PUSH1 0x0 SWAP1 SLOAD SWAP1 PUSH2 0x100 EXP SWAP1 DIV PUSH20 0xFFFFFFFFFFFFFFFFFFFFFFFFFFFFFFFFFFFFFFFF AND SWAP1 POP DUP2 PUSH20 0xFFFFFFFFFFFFFFFFFFFFFFFFFFFFFFFFFFFFFFFF AND DUP2 PUSH20 0xFFFFFFFFFFFFFFFFFFFFFFFFFFFFFFFFFFFFFFFF AND EQ PUSH2 0xBDD JUMPI PUSH1 0x40 MLOAD PUSH32 0x8C379A000000000000000000000000000000000000000000000000000000000 DUP2 MSTORE PUSH1 0x4 ADD PUSH2 0xBD4 SWAP1 PUSH2 0x15C0 JUMP JUMPDEST PUSH1 0x40 MLOAD DUP1 SWAP2 SUB SWAP1 REVERT JUMPDEST CALLER PUSH20 0xFFFFFFFFFFFFFFFFFFFFFFFFFFFFFFFFFFFFFFFF AND DUP2 PUSH20 0xFFFFFFFFFFFFFFFFFFFFFFFFFFFFFFFFFFFFFFFF AND EQ DUP1 PUSH2 0xC75 JUMPI POP CALLER PUSH20 0xFFFFFFFFFFFFFFFFFFFFFFFFFFFFFFFFFFFFFFFF AND PUSH1 0x4 PUSH1 0x0 DUP6 DUP2 MSTORE PUSH1 0x20 ADD SWAP1 DUP2 MSTORE PUSH1 0x20 ADD PUSH1 0x0 KECCAK256 PUSH1 0x0 SWAP1 SLOAD SWAP1 PUSH2 0x100 EXP SWAP1 DIV PUSH20 0xFFFFFFFFFFFFFFFFFFFFFFFFFFFFFFFFFFFFFFFF AND PUSH20 0xFFFFFFFFFFFFFFFFFFFFFFFFFFFFFFFFFFFFFFFF AND EQ JUMPDEST DUP1 PUSH2 0xD06 JUMPI POP PUSH1 0x5 PUSH1 0x0 DUP3 PUSH20 0xFFFFFFFFFFFFFFFFFFFFFFFFFFFFFFFFFFFFFFFF AND PUSH20 0xFFFFFFFFFFFFFFFFFFFFFFFFFFFFFFFFFFFFFFFF AND DUP2 MSTORE PUSH1 0x20 ADD SWAP1 DUP2 MSTORE PUSH1 0x20 ADD PUSH1 0x0 KECCAK256 PUSH1 0x0 CALLER PUSH20 0xFFFFFFFFFFFFFFFFFFFFFFFFFFFFFFFFFFFFFFFF AND PUSH20 0xFFFFFFFFFFFFFFFFFFFFFFFFFFFFFFFFFFFFFFFF AND DUP2 MSTORE PUSH1 0x20 ADD SWAP1 DUP2 MSTORE PUSH1 0x20 ADD PUSH1 0x0 KECCAK256 PUSH1 0x0 SWAP1 SLOAD SWAP1 PUSH2 0x100 EXP SWAP1 DIV PUSH1 0xFF AND JUMPDEST PUSH2 0xD0F JUMPI PUSH1 0x0 DUP1 REVERT JUMPDEST DUP5 PUSH1 0x3 PUSH1 0x0 DUP7 DUP2 MSTORE PUSH1 0x20 ADD SWAP1 DUP2 MSTORE PUSH1 0x20 ADD PUSH1 0x0 KECCAK256 PUSH1 0x0 PUSH2 0x100 EXP DUP2 SLOAD DUP2 PUSH20 0xFFFFFFFFFFFFFFFFFFFFFFFFFFFFFFFFFFFFFFFF MUL NOT AND SWAP1 DUP4 PUSH20 0xFFFFFFFFFFFFFFFFFFFFFFFFFFFFFFFFFFFFFFFF AND MUL OR SWAP1 SSTORE POP PUSH1 0x1 PUSH1 0x2 PUSH1 0x0 DUP9 PUSH20 0xFFFFFFFFFFFFFFFFFFFFFFFFFFFFFFFFFFFFFFFF AND PUSH20 0xFFFFFFFFFFFFFFFFFFFFFFFFFFFFFFFFFFFFFFFF AND DUP2 MSTORE PUSH1 0x20 ADD SWAP1 DUP2 MSTORE PUSH1 0x20 ADD PUSH1 0x0 KECCAK256 PUSH1 0x0 DUP3 DUP3 SLOAD PUSH2 0xDB1 SWAP2 SWAP1 PUSH2 0x1754 JUMP JUMPDEST SWAP3 POP POP DUP2 SWAP1 SSTORE POP PUSH1 0x1 PUSH1 0x2 PUSH1 0x0 DUP8 PUSH20 0xFFFFFFFFFFFFFFFFFFFFFFFFFFFFFFFFFFFFFFFF AND PUSH20 0xFFFFFFFFFFFFFFFFFFFFFFFFFFFFFFFFFFFFFFFF AND DUP2 MSTORE PUSH1 0x20 ADD SWAP1 DUP2 MSTORE PUSH1 0x20 ADD PUSH1 0x0 KECCAK256 PUSH1 0x0 DUP3 DUP3 SLOAD PUSH2 0xE08 SWAP2 SWAP1 PUSH2 0x16FE JUMP JUMPDEST SWAP3 POP POP DUP2 SWAP1 SSTORE POP PUSH1 0x0 PUSH1 0x4 PUSH1 0x0 DUP7 DUP2 MSTORE PUSH1 0x20 ADD SWAP1 DUP2 MSTORE PUSH1 0x20 ADD PUSH1 0x0 KECCAK256 PUSH1 0x0 PUSH2 0x100 EXP DUP2 SLOAD DUP2 PUSH20 0xFFFFFFFFFFFFFFFFFFFFFFFFFFFFFFFFFFFFFFFF MUL NOT AND SWAP1 DUP4 PUSH20 0xFFFFFFFFFFFFFFFFFFFFFFFFFFFFFFFFFFFFFFFF AND MUL OR SWAP1 SSTORE POP DUP4 DUP6 PUSH20 0xFFFFFFFFFFFFFFFFFFFFFFFFFFFFFFFFFFFFFFFF AND DUP8 PUSH20 0xFFFFFFFFFFFFFFFFFFFFFFFFFFFFFFFFFFFFFFFF AND PUSH32 0xDDF252AD1BE2C89B69C2B068FC378DAA952BA7F163C4A11628F55A4DF523B3EF PUSH1 0x40 MLOAD PUSH1 0x40 MLOAD DUP1 SWAP2 SUB SWAP1 LOG4 POP POP POP POP POP POP JUMP JUMPDEST PUSH2 0xED0 DUP5 DUP5 DUP5 PUSH2 0xB35 JUMP JUMPDEST PUSH2 0xEEF DUP4 PUSH20 0xFFFFFFFFFFFFFFFFFFFFFFFFFFFFFFFFFFFFFFFF AND PUSH2 0x1074 JUMP JUMPDEST ISZERO PUSH2 0x1013 JUMPI PUSH1 0x0 DUP4 PUSH20 0xFFFFFFFFFFFFFFFFFFFFFFFFFFFFFFFFFFFFFFFF AND PUSH4 0x150B7A02 CALLER PUSH1 0x0 DUP7 DUP7 PUSH1 0x40 MLOAD DUP6 PUSH4 0xFFFFFFFF AND PUSH1 0xE0 SHL DUP2 MSTORE PUSH1 0x4 ADD PUSH2 0xF36 SWAP5 SWAP4 SWAP3 SWAP2 SWAP1 PUSH2 0x1559 JUMP JUMPDEST PUSH1 0x20 PUSH1 0x40 MLOAD DUP1 DUP4 SUB DUP2 PUSH1 0x0 DUP8 DUP1 EXTCODESIZE ISZERO DUP1 ISZERO PUSH2 0xF50 JUMPI PUSH1 0x0 DUP1 REVERT JUMPDEST POP GAS CALL ISZERO DUP1 ISZERO PUSH2 0xF64 JUMPI RETURNDATASIZE PUSH1 0x0 DUP1 RETURNDATACOPY RETURNDATASIZE PUSH1 0x0 REVERT JUMPDEST POP POP POP POP PUSH1 0x40 MLOAD RETURNDATASIZE PUSH1 0x1F NOT PUSH1 0x1F DUP3 ADD AND DUP3 ADD DUP1 PUSH1 0x40 MSTORE POP DUP2 ADD SWAP1 PUSH2 0xF88 SWAP2 SWAP1 PUSH2 0x13CF JUMP JUMPDEST SWAP1 POP PUSH4 0x150B7A02 PUSH1 0xE0 SHL PUSH28 0xFFFFFFFFFFFFFFFFFFFFFFFFFFFFFFFFFFFFFFFFFFFFFFFFFFFFFFFF NOT AND DUP2 PUSH28 0xFFFFFFFFFFFFFFFFFFFFFFFFFFFFFFFFFFFFFFFFFFFFFFFFFFFFFFFF NOT AND EQ PUSH2 0x1011 JUMPI PUSH1 0x40 MLOAD PUSH32 0x8C379A000000000000000000000000000000000000000000000000000000000 DUP2 MSTORE PUSH1 0x4 ADD PUSH2 0x1008 SWAP1 PUSH2 0x1640 JUMP JUMPDEST PUSH1 0x40 MLOAD DUP1 SWAP2 SUB SWAP1 REVERT JUMPDEST POP JUMPDEST DUP2 DUP4 PUSH20 0xFFFFFFFFFFFFFFFFFFFFFFFFFFFFFFFFFFFFFFFF AND DUP6 PUSH20 0xFFFFFFFFFFFFFFFFFFFFFFFFFFFFFFFFFFFFFFFF AND PUSH32 0xDDF252AD1BE2C89B69C2B068FC378DAA952BA7F163C4A11628F55A4DF523B3EF PUSH1 0x40 MLOAD PUSH1 0x40 MLOAD DUP1 SWAP2 SUB SWAP1 LOG4 POP POP POP POP JUMP JUMPDEST PUSH1 0x0 DUP1 DUP3 PUSH20 0xFFFFFFFFFFFFFFFFFFFFFFFFFFFFFFFFFFFFFFFF AND EXTCODESIZE GT SWAP1 POP SWAP2 SWAP1 POP JUMP JUMPDEST PUSH1 0x0 PUSH2 0x10AA PUSH2 0x10A5 DUP5 PUSH2 0x16A0 JUMP JUMPDEST PUSH2 0x167B JUMP JUMPDEST SWAP1 POP DUP3 DUP2 MSTORE PUSH1 0x20 DUP2 ADD DUP5 DUP5 DUP5 ADD GT ISZERO PUSH2 0x10C6 JUMPI PUSH2 0x10C5 PUSH2 0x18D2 JUMP JUMPDEST JUMPDEST PUSH2 0x10D1 DUP5 DUP3 DUP6 PUSH2 0x17FC JUMP JUMPDEST POP SWAP4 SWAP3 POP POP POP JUMP JUMPDEST PUSH1 0x0 DUP2 CALLDATALOAD SWAP1 POP PUSH2 0x10E8 DUP2 PUSH2 0x19E5 JUMP JUMPDEST SWAP3 SWAP2 POP POP JUMP JUMPDEST PUSH1 0x0 DUP2 CALLDATALOAD SWAP1 POP PUSH2 0x10FD DUP2 PUSH2 0x19FC JUMP JUMPDEST SWAP3 SWAP2 POP POP JUMP JUMPDEST PUSH1 0x0 DUP2 CALLDATALOAD SWAP1 POP PUSH2 0x1112 DUP2 PUSH2 0x1A13 JUMP JUMPDEST SWAP3 SWAP2 POP POP JUMP JUMPDEST PUSH1 0x0 DUP2 MLOAD SWAP1 POP PUSH2 0x1127 DUP2 PUSH2 0x1A13 JUMP JUMPDEST SWAP3 SWAP2 POP POP JUMP JUMPDEST PUSH1 0x0 DUP3 PUSH1 0x1F DUP4 ADD SLT PUSH2 0x1142 JUMPI PUSH2 0x1141 PUSH2 0x18CD JUMP JUMPDEST JUMPDEST DUP2 CALLDATALOAD PUSH2 0x1152 DUP5 DUP3 PUSH1 0x20 DUP7 ADD PUSH2 0x1097 JUMP JUMPDEST SWAP2 POP POP SWAP3 SWAP2 POP POP JUMP JUMPDEST PUSH1 0x0 DUP2 CALLDATALOAD SWAP1 POP PUSH2 0x116A DUP2 PUSH2 0x1A2A JUMP JUMPDEST SWAP3 SWAP2 POP POP JUMP JUMPDEST PUSH1 0x0 PUSH1 0x20 DUP3 DUP5 SUB SLT ISZERO PUSH2 0x1186 JUMPI PUSH2 0x1185 PUSH2 0x18DC JUMP JUMPDEST JUMPDEST PUSH1 0x0 PUSH2 0x1194 DUP5 DUP3 DUP6 ADD PUSH2 0x10D9 JUMP JUMPDEST SWAP2 POP POP SWAP3 SWAP2 POP POP JUMP JUMPDEST PUSH1 0x0 DUP1 PUSH1 0x40 DUP4 DUP6 SUB SLT ISZERO PUSH2 0x11B4 JUMPI PUSH2 0x11B3 PUSH2 0x18DC JUMP JUMPDEST JUMPDEST PUSH1 0x0 PUSH2 0x11C2 DUP6 DUP3 DUP7 ADD PUSH2 0x10D9 JUMP JUMPDEST SWAP3 POP POP PUSH1 0x20 PUSH2 0x11D3 DUP6 DUP3 DUP7 ADD PUSH2 0x10D9 JUMP JUMPDEST SWAP2 POP POP SWAP3 POP SWAP3 SWAP1 POP JUMP JUMPDEST PUSH1 0x0 DUP1 PUSH1 0x0 PUSH1 0x60 DUP5 DUP7 SUB SLT ISZERO PUSH2 0x11F6 JUMPI PUSH2 0x11F5 PUSH2 0x18DC JUMP JUMPDEST JUMPDEST PUSH1 0x0 PUSH2 0x1204 DUP7 DUP3 DUP8 ADD PUSH2 0x10D9 JUMP JUMPDEST SWAP4 POP POP PUSH1 0x20 PUSH2 0x1215 DUP7 DUP3 DUP8 ADD PUSH2 0x10D9 JUMP JUMPDEST SWAP3 POP POP PUSH1 0x40 PUSH2 0x1226 DUP7 DUP3 DUP8 ADD PUSH2 0x115B JUMP JUMPDEST SWAP2 POP POP SWAP3 POP SWAP3 POP SWAP3 JUMP JUMPDEST PUSH1 0x0 DUP1 PUSH1 0x0 DUP1 PUSH1 0x80 DUP6 DUP8 SUB SLT ISZERO PUSH2 0x124A JUMPI PUSH2 0x1249 PUSH2 0x18DC JUMP JUMPDEST JUMPDEST PUSH1 0x0 PUSH2 0x1258 DUP8 DUP3 DUP9 ADD PUSH2 0x10D9 JUMP JUMPDEST SWAP5 POP POP PUSH1 0x20 PUSH2 0x1269 DUP8 DUP3 DUP9 ADD PUSH2 0x10D9 JUMP JUMPDEST SWAP4 POP POP PUSH1 0x40 PUSH2 0x127A DUP8 DUP3 DUP9 ADD PUSH2 0x115B JUMP JUMPDEST SWAP3 POP POP PUSH1 0x60 DUP6 ADD CALLDATALOAD PUSH8 0xFFFFFFFFFFFFFFFF DUP2 GT ISZERO PUSH2 0x129B JUMPI PUSH2 0x129A PUSH2 0x18D7 JUMP JUMPDEST JUMPDEST PUSH2 0x12A7 DUP8 DUP3 DUP9 ADD PUSH2 0x112D JUMP JUMPDEST SWAP2 POP POP SWAP3 SWAP6 SWAP2 SWAP5 POP SWAP3 POP JUMP JUMPDEST PUSH1 0x0 DUP1 PUSH1 0x40 DUP4 DUP6 SUB SLT ISZERO PUSH2 0x12CA JUMPI PUSH2 0x12C9 PUSH2 0x18DC JUMP JUMPDEST JUMPDEST PUSH1 0x0 PUSH2 0x12D8 DUP6 DUP3 DUP7 ADD PUSH2 0x10D9 JUMP JUMPDEST SWAP3 POP POP PUSH1 0x20 PUSH2 0x12E9 DUP6 DUP3 DUP7 ADD PUSH2 0x10EE JUMP JUMPDEST SWAP2 POP POP SWAP3 POP SWAP3 SWAP1 POP JUMP JUMPDEST PUSH1 0x0 DUP1 PUSH1 0x40 DUP4 DUP6 SUB SLT ISZERO PUSH2 0x130A JUMPI PUSH2 0x1309 PUSH2 0x18DC JUMP JUMPDEST JUMPDEST PUSH1 0x0 PUSH2 0x1318 DUP6 DUP3 DUP7 ADD PUSH2 0x10D9 JUMP JUMPDEST SWAP3 POP POP PUSH1 0x20 PUSH2 0x1329 DUP6 DUP3 DUP7 ADD PUSH2 0x115B JUMP JUMPDEST SWAP2 POP POP SWAP3 POP SWAP3 SWAP1 POP JUMP JUMPDEST PUSH1 0x0 DUP1 PUSH1 0x0 PUSH1 0x60 DUP5 DUP7 SUB SLT ISZERO PUSH2 0x134C JUMPI PUSH2 0x134B PUSH2 0x18DC JUMP JUMPDEST JUMPDEST PUSH1 0x0 PUSH2 0x135A DUP7 DUP3 DUP8 ADD PUSH2 0x10D9 JUMP JUMPDEST SWAP4 POP POP PUSH1 0x20 PUSH2 0x136B DUP7 DUP3 DUP8 ADD PUSH2 0x115B JUMP JUMPDEST SWAP3 POP POP PUSH1 0x40 DUP5 ADD CALLDATALOAD PUSH8 0xFFFFFFFFFFFFFFFF DUP2 GT ISZERO PUSH2 0x138C JUMPI PUSH2 0x138B PUSH2 0x18D7 JUMP JUMPDEST JUMPDEST PUSH2 0x1398 DUP7 DUP3 DUP8 ADD PUSH2 0x112D JUMP JUMPDEST SWAP2 POP POP SWAP3 POP SWAP3 POP SWAP3 JUMP JUMPDEST PUSH1 0x0 PUSH1 0x20 DUP3 DUP5 SUB SLT ISZERO PUSH2 0x13B8 JUMPI PUSH2 0x13B7 PUSH2 0x18DC JUMP JUMPDEST JUMPDEST PUSH1 0x0 PUSH2 0x13C6 DUP5 DUP3 DUP6 ADD PUSH2 0x1103 JUMP JUMPDEST SWAP2 POP POP SWAP3 SWAP2 POP POP JUMP JUMPDEST PUSH1 0x0 PUSH1 0x20 DUP3 DUP5 SUB SLT ISZERO PUSH2 0x13E5 JUMPI PUSH2 0x13E4 PUSH2 0x18DC JUMP JUMPDEST JUMPDEST PUSH1 0x0 PUSH2 0x13F3 DUP5 DUP3 DUP6 ADD PUSH2 0x1118 JUMP JUMPDEST SWAP2 POP POP SWAP3 SWAP2 POP POP JUMP JUMPDEST PUSH1 0x0 PUSH1 0x20 DUP3 DUP5 SUB SLT ISZERO PUSH2 0x1412 JUMPI PUSH2 0x1411 PUSH2 0x18DC JUMP JUMPDEST JUMPDEST PUSH1 0x0 PUSH2 0x1420 DUP5 DUP3 DUP6 ADD PUSH2 0x115B JUMP JUMPDEST SWAP2 POP POP SWAP3 SWAP2 POP POP JUMP JUMPDEST PUSH2 0x1432 DUP2 PUSH2 0x1788 JUMP JUMPDEST DUP3 MSTORE POP POP JUMP JUMPDEST PUSH2 0x1441 DUP2 PUSH2 0x179A JUMP JUMPDEST DUP3 MSTORE POP POP JUMP JUMPDEST PUSH1 0x0 PUSH2 0x1452 DUP3 PUSH2 0x16D1 JUMP JUMPDEST PUSH2 0x145C DUP2 DUP6 PUSH2 0x16DC JUMP JUMPDEST SWAP4 POP PUSH2 0x146C DUP2 DUP6 PUSH1 0x20 DUP7 ADD PUSH2 0x180B JUMP JUMPDEST PUSH2 0x1475 DUP2 PUSH2 0x18E1 JUMP JUMPDEST DUP5 ADD SWAP2 POP POP SWAP3 SWAP2 POP POP JUMP JUMPDEST PUSH1 0x0 PUSH2 0x148D PUSH1 0x13 DUP4 PUSH2 0x16ED JUMP JUMPDEST SWAP2 POP PUSH2 0x1498 DUP3 PUSH2 0x18F2 JUMP JUMPDEST PUSH1 0x20 DUP3 ADD SWAP1 POP SWAP2 SWAP1 POP JUMP JUMPDEST PUSH1 0x0 PUSH2 0x14B0 PUSH1 0x17 DUP4 PUSH2 0x16ED JUMP JUMPDEST SWAP2 POP PUSH2 0x14BB DUP3 PUSH2 0x191B JUMP JUMPDEST PUSH1 0x20 DUP3 ADD SWAP1 POP SWAP2 SWAP1 POP JUMP JUMPDEST PUSH1 0x0 PUSH2 0x14D3 PUSH1 0x13 DUP4 PUSH2 0x16ED JUMP JUMPDEST SWAP2 POP PUSH2 0x14DE DUP3 PUSH2 0x1944 JUMP JUMPDEST PUSH1 0x20 DUP3 ADD SWAP1 POP SWAP2 SWAP1 POP JUMP JUMPDEST PUSH1 0x0 PUSH2 0x14F6 PUSH1 0x14 DUP4 PUSH2 0x16ED JUMP JUMPDEST SWAP2 POP PUSH2 0x1501 DUP3 PUSH2 0x196D JUMP JUMPDEST PUSH1 0x20 DUP3 ADD SWAP1 POP SWAP2 SWAP1 POP JUMP JUMPDEST PUSH1 0x0 PUSH2 0x1519 PUSH1 0x2F DUP4 PUSH2 0x16ED JUMP JUMPDEST SWAP2 POP PUSH2 0x1524 DUP3 PUSH2 0x1996 JUMP JUMPDEST PUSH1 0x40 DUP3 ADD SWAP1 POP SWAP2 SWAP1 POP JUMP JUMPDEST PUSH2 0x1538 DUP2 PUSH2 0x17F2 JUMP JUMPDEST DUP3 MSTORE POP POP JUMP JUMPDEST PUSH1 0x0 PUSH1 0x20 DUP3 ADD SWAP1 POP PUSH2 0x1553 PUSH1 0x0 DUP4 ADD DUP5 PUSH2 0x1429 JUMP JUMPDEST SWAP3 SWAP2 POP POP JUMP JUMPDEST PUSH1 0x0 PUSH1 0x80 DUP3 ADD SWAP1 POP PUSH2 0x156E PUSH1 0x0 DUP4 ADD DUP8 PUSH2 0x1429 JUMP JUMPDEST PUSH2 0x157B PUSH1 0x20 DUP4 ADD DUP7 PUSH2 0x1429 JUMP JUMPDEST PUSH2 0x1588 PUSH1 0x40 DUP4 ADD DUP6 PUSH2 0x152F JUMP JUMPDEST DUP2 DUP2 SUB PUSH1 0x60 DUP4 ADD MSTORE PUSH2 0x159A DUP2 DUP5 PUSH2 0x1447 JUMP JUMPDEST SWAP1 POP SWAP6 SWAP5 POP POP POP POP POP JUMP JUMPDEST PUSH1 0x0 PUSH1 0x20 DUP3 ADD SWAP1 POP PUSH2 0x15BA PUSH1 0x0 DUP4 ADD DUP5 PUSH2 0x1438 JUMP JUMPDEST SWAP3 SWAP2 POP POP JUMP JUMPDEST PUSH1 0x0 PUSH1 0x20 DUP3 ADD SWAP1 POP DUP2 DUP2 SUB PUSH1 0x0 DUP4 ADD MSTORE PUSH2 0x15D9 DUP2 PUSH2 0x1480 JUMP JUMPDEST SWAP1 POP SWAP2 SWAP1 POP JUMP JUMPDEST PUSH1 0x0 PUSH1 0x20 DUP3 ADD SWAP1 POP DUP2 DUP2 SUB PUSH1 0x0 DUP4 ADD MSTORE PUSH2 0x15F9 DUP2 PUSH2 0x14A3 JUMP JUMPDEST SWAP1 POP SWAP2 SWAP1 POP JUMP JUMPDEST PUSH1 0x0 PUSH1 0x20 DUP3 ADD SWAP1 POP DUP2 DUP2 SUB PUSH1 0x0 DUP4 ADD MSTORE PUSH2 0x1619 DUP2 PUSH2 0x14C6 JUMP JUMPDEST SWAP1 POP SWAP2 SWAP1 POP JUMP JUMPDEST PUSH1 0x0 PUSH1 0x20 DUP3 ADD SWAP1 POP DUP2 DUP2 SUB PUSH1 0x0 DUP4 ADD MSTORE PUSH2 0x1639 DUP2 PUSH2 0x14E9 JUMP JUMPDEST SWAP1 POP SWAP2 SWAP1 POP JUMP JUMPDEST PUSH1 0x0 PUSH1 0x20 DUP3 ADD SWAP1 POP DUP2 DUP2 SUB PUSH1 0x0 DUP4 ADD MSTORE PUSH2 0x1659 DUP2 PUSH2 0x150C JUMP JUMPDEST SWAP1 POP SWAP2 SWAP1 POP JUMP JUMPDEST PUSH1 0x0 PUSH1 0x20 DUP3 ADD SWAP1 POP PUSH2 0x1675 PUSH1 0x0 DUP4 ADD DUP5 PUSH2 0x152F JUMP JUMPDEST SWAP3 SWAP2 POP POP JUMP JUMPDEST PUSH1 0x0 PUSH2 0x1685 PUSH2 0x1696 JUMP JUMPDEST SWAP1 POP PUSH2 0x1691 DUP3 DUP3 PUSH2 0x183E JUMP JUMPDEST SWAP2 SWAP1 POP JUMP JUMPDEST PUSH1 0x0 PUSH1 0x40 MLOAD SWAP1 POP SWAP1 JUMP JUMPDEST PUSH1 0x0 PUSH8 0xFFFFFFFFFFFFFFFF DUP3 GT ISZERO PUSH2 0x16BB JUMPI PUSH2 0x16BA PUSH2 0x189E JUMP JUMPDEST JUMPDEST PUSH2 0x16C4 DUP3 PUSH2 0x18E1 JUMP JUMPDEST SWAP1 POP PUSH1 0x20 DUP2 ADD SWAP1 POP SWAP2 SWAP1 POP JUMP JUMPDEST PUSH1 0x0 DUP2 MLOAD SWAP1 POP SWAP2 SWAP1 POP JUMP JUMPDEST PUSH1 0x0 DUP3 DUP3 MSTORE PUSH1 0x20 DUP3 ADD SWAP1 POP SWAP3 SWAP2 POP POP JUMP JUMPDEST PUSH1 0x0 DUP3 DUP3 MSTORE PUSH1 0x20 DUP3 ADD SWAP1 POP SWAP3 SWAP2 POP POP JUMP JUMPDEST PUSH1 0x0 PUSH2 0x1709 DUP3 PUSH2 0x17F2 JUMP JUMPDEST SWAP2 POP PUSH2 0x1714 DUP4 PUSH2 0x17F2 JUMP JUMPDEST SWAP3 POP DUP3 PUSH32 0xFFFFFFFFFFFFFFFFFFFFFFFFFFFFFFFFFFFFFFFFFFFFFFFFFFFFFFFFFFFFFFFF SUB DUP3 GT ISZERO PUSH2 0x1749 JUMPI PUSH2 0x1748 PUSH2 0x186F JUMP JUMPDEST JUMPDEST DUP3 DUP3 ADD SWAP1 POP SWAP3 SWAP2 POP POP JUMP JUMPDEST PUSH1 0x0 PUSH2 0x175F DUP3 PUSH2 0x17F2 JUMP JUMPDEST SWAP2 POP PUSH2 0x176A DUP4 PUSH2 0x17F2 JUMP JUMPDEST SWAP3 POP DUP3 DUP3 LT ISZERO PUSH2 0x177D JUMPI PUSH2 0x177C PUSH2 0x186F JUMP JUMPDEST JUMPDEST DUP3 DUP3 SUB SWAP1 POP SWAP3 SWAP2 POP POP JUMP JUMPDEST PUSH1 0x0 PUSH2 0x1793 DUP3 PUSH2 0x17D2 JUMP JUMPDEST SWAP1 POP SWAP2 SWAP1 POP JUMP JUMPDEST PUSH1 0x0 DUP2 ISZERO ISZERO SWAP1 POP SWAP2 SWAP1 POP JUMP JUMPDEST PUSH1 0x0 PUSH32 0xFFFFFFFF00000000000000000000000000000000000000000000000000000000 DUP3 AND SWAP1 POP SWAP2 SWAP1 POP JUMP JUMPDEST PUSH1 0x0 PUSH20 0xFFFFFFFFFFFFFFFFFFFFFFFFFFFFFFFFFFFFFFFF DUP3 AND SWAP1 POP SWAP2 SWAP1 POP JUMP JUMPDEST PUSH1 0x0 DUP2 SWAP1 POP SWAP2 SWAP1 POP JUMP JUMPDEST DUP3 DUP2 DUP4 CALLDATACOPY PUSH1 0x0 DUP4 DUP4 ADD MSTORE POP POP POP JUMP JUMPDEST PUSH1 0x0 JUMPDEST DUP4 DUP2 LT ISZERO PUSH2 0x1829 JUMPI DUP1 DUP3 ADD MLOAD DUP2 DUP5 ADD MSTORE PUSH1 0x20 DUP2 ADD SWAP1 POP PUSH2 0x180E JUMP JUMPDEST DUP4 DUP2 GT ISZERO PUSH2 0x1838 JUMPI PUSH1 0x0 DUP5 DUP5 ADD MSTORE JUMPDEST POP POP POP POP JUMP JUMPDEST PUSH2 0x1847 DUP3 PUSH2 0x18E1 JUMP JUMPDEST DUP2 ADD DUP2 DUP2 LT PUSH8 0xFFFFFFFFFFFFFFFF DUP3 GT OR ISZERO PUSH2 0x1866 JUMPI PUSH2 0x1865 PUSH2 0x189E JUMP JUMPDEST JUMPDEST DUP1 PUSH1 0x40 MSTORE POP POP POP JUMP JUMPDEST PUSH32 0x4E487B7100000000000000000000000000000000000000000000000000000000 PUSH1 0x0 MSTORE PUSH1 0x11 PUSH1 0x4 MSTORE PUSH1 0x24 PUSH1 0x0 REVERT JUMPDEST PUSH32 0x4E487B7100000000000000000000000000000000000000000000000000000000 PUSH1 0x0 MSTORE PUSH1 0x41 PUSH1 0x4 MSTORE PUSH1 0x24 PUSH1 0x0 REVERT JUMPDEST PUSH1 0x0 DUP1 REVERT JUMPDEST PUSH1 0x0 DUP1 REVERT JUMPDEST PUSH1 0x0 DUP1 REVERT JUMPDEST PUSH1 0x0 DUP1 REVERT JUMPDEST PUSH1 0x0 PUSH1 0x1F NOT PUSH1 0x1F DUP4 ADD AND SWAP1 POP SWAP2 SWAP1 POP JUMP JUMPDEST PUSH32 0x746F6B656E4F776E657220213D205F66726F6D00000000000000000000000000 PUSH1 0x0 DUP3 ADD MSTORE POP JUMP JUMPDEST PUSH32 0x5F746F6B656E496420616C726561647920657869737473000000000000000000 PUSH1 0x0 DUP3 ADD MSTORE POP JUMP JUMPDEST PUSH32 0x5F746F206973207A65726F206164647265737300000000000000000000000000 PUSH1 0x0 DUP3 ADD MSTORE POP JUMP JUMPDEST PUSH32 0x696E76616C696420696E74657266616365206964000000000000000000000000 PUSH1 0x0 DUP3 ADD MSTORE POP JUMP JUMPDEST PUSH32 0x72657476616C206E6F7420657175616C206F6E45524337323152656365697665 PUSH1 0x0 DUP3 ADD MSTORE PUSH32 0x64277320696E7465726661636549440000000000000000000000000000000000 PUSH1 0x20 DUP3 ADD MSTORE POP JUMP JUMPDEST PUSH2 0x19EE DUP2 PUSH2 0x1788 JUMP JUMPDEST DUP2 EQ PUSH2 0x19F9 JUMPI PUSH1 0x0 DUP1 REVERT JUMPDEST POP JUMP JUMPDEST PUSH2 0x1A05 DUP2 PUSH2 0x179A JUMP JUMPDEST DUP2 EQ PUSH2 0x1A10 JUMPI PUSH1 0x0 DUP1 REVERT JUMPDEST POP JUMP JUMPDEST PUSH2 0x1A1C DUP2 PUSH2 0x17A6 JUMP JUMPDEST DUP2 EQ PUSH2 0x1A27 JUMPI PUSH1 0x0 DUP1 REVERT JUMPDEST POP JUMP JUMPDEST PUSH2 0x1A33 DUP2 PUSH2 0x17F2 JUMP JUMPDEST DUP2 EQ PUSH2 0x1A3E JUMPI PUSH1 0x0 DUP1 REVERT JUMPDEST POP JUMP INVALID LOG2 PUSH5 0x6970667358 0x22 SLT KECCAK256 GAS 0xD3 0xC4 PUSH7 0x84D9F5F63416D6 0x21 LT PUSH24 0xB18BA97AF9502D9687DE20798FCC827C13DA64736F6C6343 STOP ADDMOD SMOD STOP CALLER "
				},
				"gasEstimates": {
					"creation": {
						"codeDepositCost": "1355000",
						"executionCost": "infinite",
						"totalCost": "infinite"
					},
					"external": {
						"approve(address,uint256)": "31519",
						"balanceOf(address)": "2863",
						"getApproved(uint256)": "2888",
						"isApprovedForAll(address,address)": "infinite",
						"mint(address,uint256,bytes)": "infinite",
						"ownerOf(uint256)": "2865",
						"safeTransferFrom(address,address,uint256)": "infinite",
						"safeTransferFrom(address,address,uint256,bytes)": "infinite",
						"setApprovalForAll(address,bool)": "infinite",
						"supportsInterface(bytes4)": "5027",
						"transferFrom(address,address,uint256)": "infinite"
					},
					"internal": {
						"_registerInterface(bytes4)": "infinite",
						"_safeTransferFrom(address,address,uint256,bytes memory)": "infinite",
						"_transferFrom(address,address,uint256)": "infinite"
					}
				},
				"methodIdentifiers": {
					"approve(address,uint256)": "095ea7b3",
					"balanceOf(address)": "70a08231",
					"getApproved(uint256)": "081812fc",
					"isApprovedForAll(address,address)": "e985e9c5",
					"mint(address,uint256,bytes)": "94d008ef",
					"ownerOf(uint256)": "6352211e",
					"safeTransferFrom(address,address,uint256)": "42842e0e",
					"safeTransferFrom(address,address,uint256,bytes)": "b88d4fde",
					"setApprovalForAll(address,bool)": "a22cb465",
					"supportsInterface(bytes4)": "01ffc9a7",
					"transferFrom(address,address,uint256)": "23b872dd"
				}
			},
			"storageLayout": {
				"storage": [
					{
						"astId": 28,
						"contract": "ERC721/ERC721.sol:ERC721",
						"label": "supportedInterfaces",
						"offset": 0,
						"slot": "0",
						"type": "t_mapping(t_bytes4,t_bool)"
					},
					{
						"astId": 31,
						"contract": "ERC721/ERC721.sol:ERC721",
						"label": "invalid",
						"offset": 0,
						"slot": "1",
						"type": "t_bytes4"
					},
					{
						"astId": 41,
						"contract": "ERC721/ERC721.sol:ERC721",
						"label": "ercTokenCount",
						"offset": 0,
						"slot": "2",
						"type": "t_mapping(t_address,t_uint256)"
					},
					{
						"astId": 45,
						"contract": "ERC721/ERC721.sol:ERC721",
						"label": "ercTokenOwner",
						"offset": 0,
						"slot": "3",
						"type": "t_mapping(t_uint256,t_address)"
					},
					{
						"astId": 49,
						"contract": "ERC721/ERC721.sol:ERC721",
						"label": "ercToeknApproved",
						"offset": 0,
						"slot": "4",
						"type": "t_mapping(t_uint256,t_address)"
					},
					{
						"astId": 55,
						"contract": "ERC721/ERC721.sol:ERC721",
						"label": "ercOperatorForAll",
						"offset": 0,
						"slot": "5",
						"type": "t_mapping(t_address,t_mapping(t_address,t_bool))"
					}
				],
				"types": {
					"t_address": {
						"encoding": "inplace",
						"label": "address",
						"numberOfBytes": "20"
					},
					"t_bool": {
						"encoding": "inplace",
						"label": "bool",
						"numberOfBytes": "1"
					},
					"t_bytes4": {
						"encoding": "inplace",
						"label": "bytes4",
						"numberOfBytes": "4"
					},
					"t_mapping(t_address,t_bool)": {
						"encoding": "mapping",
						"key": "t_address",
						"label": "mapping(address => bool)",
						"numberOfBytes": "32",
						"value": "t_bool"
					},
					"t_mapping(t_address,t_mapping(t_address,t_bool))": {
						"encoding": "mapping",
						"key": "t_address",
						"label": "mapping(address => mapping(address => bool))",
						"numberOfBytes": "32",
						"value": "t_mapping(t_address,t_bool)"
					},
					"t_mapping(t_address,t_uint256)": {
						"encoding": "mapping",
						"key": "t_address",
						"label": "mapping(address => uint256)",
						"numberOfBytes": "32",
						"value": "t_uint256"
					},
					"t_mapping(t_bytes4,t_bool)": {
						"encoding": "mapping",
						"key": "t_bytes4",
						"label": "mapping(bytes4 => bool)",
						"numberOfBytes": "32",
						"value": "t_bool"
					},
					"t_mapping(t_uint256,t_address)": {
						"encoding": "mapping",
						"key": "t_uint256",
						"label": "mapping(uint256 => address)",
						"numberOfBytes": "32",
						"value": "t_address"
					},
					"t_uint256": {
						"encoding": "inplace",
						"label": "uint256",
						"numberOfBytes": "32"
					}
				}
			},
			"userdoc": {
				"kind": "user",
				"methods": {
					"approve(address,uint256)": {
						"notice": "Change or reaffirm the approved address for an NFT"
					},
					"balanceOf(address)": {
						"notice": "*************** ERC721 *************** ///"
					},
					"getApproved(uint256)": {
						"notice": "Get the approved address for a single NFT"
					},
					"isApprovedForAll(address,address)": {
						"notice": "Query if an address is an authorized operator for another address"
					},
					"ownerOf(uint256)": {
						"notice": "Find the owner of an NFT"
					},
					"safeTransferFrom(address,address,uint256)": {
						"notice": "Transfers the ownership of an NFT from one address to another address"
					},
					"safeTransferFrom(address,address,uint256,bytes)": {
						"notice": "Transfers the ownership of an NFT from one address to another address"
					},
					"setApprovalForAll(address,bool)": {
						"notice": "Enable or disable approval for a third party (\"operator\") to manage  all of `msg.sender`'s assets"
					},
					"supportsInterface(bytes4)": {
						"notice": "Query if a contract implements an interface"
					},
					"transferFrom(address,address,uint256)": {
						"notice": "Transfer ownership of an NFT -- THE CALLER IS RESPONSIBLE  TO CONFIRM THAT `_to` IS CAPABLE OF RECEIVING NFTS OR ELSE  THEY MAY BE PERMANENTLY LOST"
					}
				},
				"version": 1
			}
		}
	}
}