{
	"advance/08-factory.sol": {
		"factory": {
			"abi": [
				{
					"inputs": [],
					"name": "getAllCars",
					"outputs": [
						{
							"internalType": "address[]",
							"name": "",
							"type": "address[]"
						}
					],
					"stateMutability": "view",
					"type": "function"
				},
				{
					"inputs": [
						{
							"internalType": "string",
							"name": "_name",
							"type": "string"
						},
						{
							"internalType": "uint256",
							"name": "_val",
							"type": "uint256"
						},
						{
							"internalType": "string",
							"name": "_ver",
							"type": "string"
						}
					],
					"name": "product",
					"outputs": [],
					"stateMutability": "nonpayable",
					"type": "function"
				}
			],
			"devdoc": {
				"kind": "dev",
				"methods": {},
				"version": 1
			},
			"evm": {
				"assembly": "    /* \"advance/08-factory.sol\":432:750  contract factory {... */\n  mstore(0x40, 0x80)\n  callvalue\n  dup1\n  iszero\n  tag_1\n  jumpi\n  0x00\n  dup1\n  revert\ntag_1:\n  pop\n  dataSize(sub_0)\n  dup1\n  dataOffset(sub_0)\n  0x00\n  codecopy\n  0x00\n  return\nstop\n\nsub_0: assembly {\n        /* \"advance/08-factory.sol\":432:750  contract factory {... */\n      mstore(0x40, 0x80)\n      callvalue\n      dup1\n      iszero\n      tag_1\n      jumpi\n      0x00\n      dup1\n      revert\n    tag_1:\n      pop\n      jumpi(tag_2, lt(calldatasize, 0x04))\n      shr(0xe0, calldataload(0x00))\n      dup1\n      0x50296a87\n      eq\n      tag_3\n      jumpi\n      dup1\n      0xabfe5d57\n      eq\n      tag_4\n      jumpi\n    tag_2:\n      0x00\n      dup1\n      revert\n        /* \"advance/08-factory.sol\":483:651  function product(string memory _name, uint256 _val, string memory _ver) public {... */\n    tag_3:\n      tag_5\n      0x04\n      dup1\n      calldatasize\n      sub\n      dup2\n      add\n      swap1\n      tag_6\n      swap2\n      swap1\n      tag_7\n      jump\t// in\n    tag_6:\n      tag_8\n      jump\t// in\n    tag_5:\n      stop\n        /* \"advance/08-factory.sol\":656:748  function getAllCars() public view returns (address[] memory) {... */\n    tag_4:\n      tag_9\n      tag_10\n      jump\t// in\n    tag_9:\n      mload(0x40)\n      tag_11\n      swap2\n      swap1\n      tag_12\n      jump\t// in\n    tag_11:\n      mload(0x40)\n      dup1\n      swap2\n      sub\n      swap1\n      return\n        /* \"advance/08-factory.sol\":483:651  function product(string memory _name, uint256 _val, string memory _ver) public {... */\n    tag_8:\n        /* \"advance/08-factory.sol\":572:579  Car car */\n      0x00\n        /* \"advance/08-factory.sol\":590:595  _name */\n      dup4\n        /* \"advance/08-factory.sol\":597:601  _val */\n      dup4\n        /* \"advance/08-factory.sol\":603:607  _ver */\n      dup4\n        /* \"advance/08-factory.sol\":582:608  new Car(_name, _val, _ver) */\n      mload(0x40)\n      tag_14\n      swap1\n      tag_15\n      jump\t// in\n    tag_14:\n      tag_16\n      swap4\n      swap3\n      swap2\n      swap1\n      tag_17\n      jump\t// in\n    tag_16:\n      mload(0x40)\n      dup1\n      swap2\n      sub\n      swap1\n      0x00\n      create\n      dup1\n      iszero\n      dup1\n      iszero\n      tag_18\n      jumpi\n      returndatasize\n      0x00\n      dup1\n      returndatacopy\n      revert(0x00, returndatasize)\n    tag_18:\n      pop\n        /* \"advance/08-factory.sol\":572:608  Car car = new Car(_name, _val, _ver) */\n      swap1\n      pop\n        /* \"advance/08-factory.sol\":618:625  allCars */\n      0x00\n        /* \"advance/08-factory.sol\":639:642  car */\n      dup2\n        /* \"advance/08-factory.sol\":618:644  allCars.push(address(car)) */\n      swap1\n      dup1\n      0x01\n      dup2\n      sload\n      add\n      dup1\n      dup3\n      sstore\n      dup1\n      swap2\n      pop\n      pop\n      0x01\n      swap1\n      sub\n      swap1\n      0x00\n      mstore\n      keccak256(0x00, 0x20)\n      add\n      0x00\n      swap1\n      swap2\n      swap1\n      swap2\n      swap1\n      swap2\n      0x0100\n      exp\n      dup2\n      sload\n      dup2\n      0xffffffffffffffffffffffffffffffffffffffff\n      mul\n      not\n      and\n      swap1\n      dup4\n      0xffffffffffffffffffffffffffffffffffffffff\n      and\n      mul\n      or\n      swap1\n      sstore\n      pop\n        /* \"advance/08-factory.sol\":562:651  {... */\n      pop\n        /* \"advance/08-factory.sol\":483:651  function product(string memory _name, uint256 _val, string memory _ver) public {... */\n      pop\n      pop\n      pop\n      jump\t// out\n        /* \"advance/08-factory.sol\":656:748  function getAllCars() public view returns (address[] memory) {... */\n    tag_10:\n        /* \"advance/08-factory.sol\":699:715  address[] memory */\n      0x60\n        /* \"advance/08-factory.sol\":734:741  allCars */\n      0x00\n        /* \"advance/08-factory.sol\":727:741  return allCars */\n      dup1\n      sload\n      dup1\n      0x20\n      mul\n      0x20\n      add\n      mload(0x40)\n      swap1\n      dup2\n      add\n      0x40\n      mstore\n      dup1\n      swap3\n      swap2\n      swap1\n      dup2\n      dup2\n      mstore\n      0x20\n      add\n      dup3\n      dup1\n      sload\n      dup1\n      iszero\n      tag_21\n      jumpi\n      0x20\n      mul\n      dup3\n      add\n      swap2\n      swap1\n      0x00\n      mstore\n      keccak256(0x00, 0x20)\n      swap1\n    tag_22:\n      dup2\n      0x00\n      swap1\n      sload\n      swap1\n      0x0100\n      exp\n      swap1\n      div\n      0xffffffffffffffffffffffffffffffffffffffff\n      and\n      0xffffffffffffffffffffffffffffffffffffffff\n      and\n      dup2\n      mstore\n      0x20\n      add\n      swap1\n      0x01\n      add\n      swap1\n      dup1\n      dup4\n      gt\n      tag_22\n      jumpi\n    tag_21:\n      pop\n      pop\n      pop\n      pop\n      pop\n      swap1\n      pop\n        /* \"advance/08-factory.sol\":656:748  function getAllCars() public view returns (address[] memory) {... */\n      swap1\n      jump\t// out\n    tag_15:\n      dataSize(sub_0)\n      dup1\n      dataOffset(sub_0)\n      dup4\n      codecopy\n      add\n      swap1\n      jump\t// out\n        /* \"#utility.yul\":7:419   */\n    tag_24:\n        /* \"#utility.yul\":85:90   */\n      0x00\n        /* \"#utility.yul\":110:176   */\n      tag_26\n        /* \"#utility.yul\":126:175   */\n      tag_27\n        /* \"#utility.yul\":168:174   */\n      dup5\n        /* \"#utility.yul\":126:175   */\n      tag_28\n      jump\t// in\n    tag_27:\n        /* \"#utility.yul\":110:176   */\n      tag_29\n      jump\t// in\n    tag_26:\n        /* \"#utility.yul\":101:176   */\n      swap1\n      pop\n        /* \"#utility.yul\":199:205   */\n      dup3\n        /* \"#utility.yul\":192:197   */\n      dup2\n        /* \"#utility.yul\":185:206   */\n      mstore\n        /* \"#utility.yul\":237:241   */\n      0x20\n        /* \"#utility.yul\":230:235   */\n      dup2\n        /* \"#utility.yul\":226:242   */\n      add\n        /* \"#utility.yul\":275:278   */\n      dup5\n        /* \"#utility.yul\":266:272   */\n      dup5\n        /* \"#utility.yul\":261:264   */\n      dup5\n        /* \"#utility.yul\":257:273   */\n      add\n        /* \"#utility.yul\":254:279   */\n      gt\n        /* \"#utility.yul\":251:363   */\n      iszero\n      tag_30\n      jumpi\n        /* \"#utility.yul\":282:361   */\n      tag_31\n      tag_32\n      jump\t// in\n    tag_31:\n        /* \"#utility.yul\":251:363   */\n    tag_30:\n        /* \"#utility.yul\":372:413   */\n      tag_33\n        /* \"#utility.yul\":406:412   */\n      dup5\n        /* \"#utility.yul\":401:404   */\n      dup3\n        /* \"#utility.yul\":396:399   */\n      dup6\n        /* \"#utility.yul\":372:413   */\n      tag_34\n      jump\t// in\n    tag_33:\n        /* \"#utility.yul\":91:419   */\n      pop\n        /* \"#utility.yul\":7:419   */\n      swap4\n      swap3\n      pop\n      pop\n      pop\n      jump\t// out\n        /* \"#utility.yul\":439:779   */\n    tag_35:\n        /* \"#utility.yul\":495:500   */\n      0x00\n        /* \"#utility.yul\":544:547   */\n      dup3\n        /* \"#utility.yul\":537:541   */\n      0x1f\n        /* \"#utility.yul\":529:535   */\n      dup4\n        /* \"#utility.yul\":525:542   */\n      add\n        /* \"#utility.yul\":521:548   */\n      slt\n        /* \"#utility.yul\":511:633   */\n      tag_37\n      jumpi\n        /* \"#utility.yul\":552:631   */\n      tag_38\n      tag_39\n      jump\t// in\n    tag_38:\n        /* \"#utility.yul\":511:633   */\n    tag_37:\n        /* \"#utility.yul\":669:675   */\n      dup2\n        /* \"#utility.yul\":656:676   */\n      calldataload\n        /* \"#utility.yul\":694:773   */\n      tag_40\n        /* \"#utility.yul\":769:772   */\n      dup5\n        /* \"#utility.yul\":761:767   */\n      dup3\n        /* \"#utility.yul\":754:758   */\n      0x20\n        /* \"#utility.yul\":746:752   */\n      dup7\n        /* \"#utility.yul\":742:759   */\n      add\n        /* \"#utility.yul\":694:773   */\n      tag_24\n      jump\t// in\n    tag_40:\n        /* \"#utility.yul\":685:773   */\n      swap2\n      pop\n        /* \"#utility.yul\":501:779   */\n      pop\n        /* \"#utility.yul\":439:779   */\n      swap3\n      swap2\n      pop\n      pop\n      jump\t// out\n        /* \"#utility.yul\":785:924   */\n    tag_41:\n        /* \"#utility.yul\":831:836   */\n      0x00\n        /* \"#utility.yul\":869:875   */\n      dup2\n        /* \"#utility.yul\":856:876   */\n      calldataload\n        /* \"#utility.yul\":847:876   */\n      swap1\n      pop\n        /* \"#utility.yul\":885:918   */\n      tag_43\n        /* \"#utility.yul\":912:917   */\n      dup2\n        /* \"#utility.yul\":885:918   */\n      tag_44\n      jump\t// in\n    tag_43:\n        /* \"#utility.yul\":785:924   */\n      swap3\n      swap2\n      pop\n      pop\n      jump\t// out\n        /* \"#utility.yul\":930:1909   */\n    tag_7:\n        /* \"#utility.yul\":1027:1033   */\n      0x00\n        /* \"#utility.yul\":1035:1041   */\n      dup1\n        /* \"#utility.yul\":1043:1049   */\n      0x00\n        /* \"#utility.yul\":1092:1094   */\n      0x60\n        /* \"#utility.yul\":1080:1089   */\n      dup5\n        /* \"#utility.yul\":1071:1078   */\n      dup7\n        /* \"#utility.yul\":1067:1090   */\n      sub\n        /* \"#utility.yul\":1063:1095   */\n      slt\n        /* \"#utility.yul\":1060:1179   */\n      iszero\n      tag_46\n      jumpi\n        /* \"#utility.yul\":1098:1177   */\n      tag_47\n      tag_48\n      jump\t// in\n    tag_47:\n        /* \"#utility.yul\":1060:1179   */\n    tag_46:\n        /* \"#utility.yul\":1246:1247   */\n      0x00\n        /* \"#utility.yul\":1235:1244   */\n      dup5\n        /* \"#utility.yul\":1231:1248   */\n      add\n        /* \"#utility.yul\":1218:1249   */\n      calldataload\n        /* \"#utility.yul\":1276:1294   */\n      0xffffffffffffffff\n        /* \"#utility.yul\":1268:1274   */\n      dup2\n        /* \"#utility.yul\":1265:1295   */\n      gt\n        /* \"#utility.yul\":1262:1379   */\n      iszero\n      tag_49\n      jumpi\n        /* \"#utility.yul\":1298:1377   */\n      tag_50\n      tag_51\n      jump\t// in\n    tag_50:\n        /* \"#utility.yul\":1262:1379   */\n    tag_49:\n        /* \"#utility.yul\":1403:1466   */\n      tag_52\n        /* \"#utility.yul\":1458:1465   */\n      dup7\n        /* \"#utility.yul\":1449:1455   */\n      dup3\n        /* \"#utility.yul\":1438:1447   */\n      dup8\n        /* \"#utility.yul\":1434:1456   */\n      add\n        /* \"#utility.yul\":1403:1466   */\n      tag_35\n      jump\t// in\n    tag_52:\n        /* \"#utility.yul\":1393:1466   */\n      swap4\n      pop\n        /* \"#utility.yul\":1189:1476   */\n      pop\n        /* \"#utility.yul\":1515:1517   */\n      0x20\n        /* \"#utility.yul\":1541:1594   */\n      tag_53\n        /* \"#utility.yul\":1586:1593   */\n      dup7\n        /* \"#utility.yul\":1577:1583   */\n      dup3\n        /* \"#utility.yul\":1566:1575   */\n      dup8\n        /* \"#utility.yul\":1562:1584   */\n      add\n        /* \"#utility.yul\":1541:1594   */\n      tag_41\n      jump\t// in\n    tag_53:\n        /* \"#utility.yul\":1531:1594   */\n      swap3\n      pop\n        /* \"#utility.yul\":1486:1604   */\n      pop\n        /* \"#utility.yul\":1671:1673   */\n      0x40\n        /* \"#utility.yul\":1660:1669   */\n      dup5\n        /* \"#utility.yul\":1656:1674   */\n      add\n        /* \"#utility.yul\":1643:1675   */\n      calldataload\n        /* \"#utility.yul\":1702:1720   */\n      0xffffffffffffffff\n        /* \"#utility.yul\":1694:1700   */\n      dup2\n        /* \"#utility.yul\":1691:1721   */\n      gt\n        /* \"#utility.yul\":1688:1805   */\n      iszero\n      tag_54\n      jumpi\n        /* \"#utility.yul\":1724:1803   */\n      tag_55\n      tag_51\n      jump\t// in\n    tag_55:\n        /* \"#utility.yul\":1688:1805   */\n    tag_54:\n        /* \"#utility.yul\":1829:1892   */\n      tag_56\n        /* \"#utility.yul\":1884:1891   */\n      dup7\n        /* \"#utility.yul\":1875:1881   */\n      dup3\n        /* \"#utility.yul\":1864:1873   */\n      dup8\n        /* \"#utility.yul\":1860:1882   */\n      add\n        /* \"#utility.yul\":1829:1892   */\n      tag_35\n      jump\t// in\n    tag_56:\n        /* \"#utility.yul\":1819:1892   */\n      swap2\n      pop\n        /* \"#utility.yul\":1614:1902   */\n      pop\n        /* \"#utility.yul\":930:1909   */\n      swap3\n      pop\n      swap3\n      pop\n      swap3\n      jump\t// out\n        /* \"#utility.yul\":1915:2094   */\n    tag_57:\n        /* \"#utility.yul\":1984:1994   */\n      0x00\n        /* \"#utility.yul\":2005:2051   */\n      tag_59\n        /* \"#utility.yul\":2047:2050   */\n      dup4\n        /* \"#utility.yul\":2039:2045   */\n      dup4\n        /* \"#utility.yul\":2005:2051   */\n      tag_60\n      jump\t// in\n    tag_59:\n        /* \"#utility.yul\":2083:2087   */\n      0x20\n        /* \"#utility.yul\":2078:2081   */\n      dup4\n        /* \"#utility.yul\":2074:2088   */\n      add\n        /* \"#utility.yul\":2060:2088   */\n      swap1\n      pop\n        /* \"#utility.yul\":1915:2094   */\n      swap3\n      swap2\n      pop\n      pop\n      jump\t// out\n        /* \"#utility.yul\":2100:2208   */\n    tag_60:\n        /* \"#utility.yul\":2177:2201   */\n      tag_62\n        /* \"#utility.yul\":2195:2200   */\n      dup2\n        /* \"#utility.yul\":2177:2201   */\n      tag_63\n      jump\t// in\n    tag_62:\n        /* \"#utility.yul\":2172:2175   */\n      dup3\n        /* \"#utility.yul\":2165:2202   */\n      mstore\n        /* \"#utility.yul\":2100:2208   */\n      pop\n      pop\n      jump\t// out\n        /* \"#utility.yul\":2244:2976   */\n    tag_64:\n        /* \"#utility.yul\":2363:2366   */\n      0x00\n        /* \"#utility.yul\":2392:2446   */\n      tag_66\n        /* \"#utility.yul\":2440:2445   */\n      dup3\n        /* \"#utility.yul\":2392:2446   */\n      tag_67\n      jump\t// in\n    tag_66:\n        /* \"#utility.yul\":2462:2548   */\n      tag_68\n        /* \"#utility.yul\":2541:2547   */\n      dup2\n        /* \"#utility.yul\":2536:2539   */\n      dup6\n        /* \"#utility.yul\":2462:2548   */\n      tag_69\n      jump\t// in\n    tag_68:\n        /* \"#utility.yul\":2455:2548   */\n      swap4\n      pop\n        /* \"#utility.yul\":2572:2628   */\n      tag_70\n        /* \"#utility.yul\":2622:2627   */\n      dup4\n        /* \"#utility.yul\":2572:2628   */\n      tag_71\n      jump\t// in\n    tag_70:\n        /* \"#utility.yul\":2651:2658   */\n      dup1\n        /* \"#utility.yul\":2682:2683   */\n      0x00\n        /* \"#utility.yul\":2667:2951   */\n    tag_72:\n        /* \"#utility.yul\":2692:2698   */\n      dup4\n        /* \"#utility.yul\":2689:2690   */\n      dup2\n        /* \"#utility.yul\":2686:2699   */\n      lt\n        /* \"#utility.yul\":2667:2951   */\n      iszero\n      tag_74\n      jumpi\n        /* \"#utility.yul\":2768:2774   */\n      dup2\n        /* \"#utility.yul\":2762:2775   */\n      mload\n        /* \"#utility.yul\":2795:2858   */\n      tag_75\n        /* \"#utility.yul\":2854:2857   */\n      dup9\n        /* \"#utility.yul\":2839:2852   */\n      dup3\n        /* \"#utility.yul\":2795:2858   */\n      tag_57\n      jump\t// in\n    tag_75:\n        /* \"#utility.yul\":2788:2858   */\n      swap8\n      pop\n        /* \"#utility.yul\":2881:2941   */\n      tag_76\n        /* \"#utility.yul\":2934:2940   */\n      dup4\n        /* \"#utility.yul\":2881:2941   */\n      tag_77\n      jump\t// in\n    tag_76:\n        /* \"#utility.yul\":2871:2941   */\n      swap3\n      pop\n        /* \"#utility.yul\":2727:2951   */\n      pop\n        /* \"#utility.yul\":2714:2715   */\n      0x01\n        /* \"#utility.yul\":2711:2712   */\n      dup2\n        /* \"#utility.yul\":2707:2716   */\n      add\n        /* \"#utility.yul\":2702:2716   */\n      swap1\n      pop\n        /* \"#utility.yul\":2667:2951   */\n      jump(tag_72)\n    tag_74:\n        /* \"#utility.yul\":2671:2685   */\n      pop\n        /* \"#utility.yul\":2967:2970   */\n      dup6\n        /* \"#utility.yul\":2960:2970   */\n      swap4\n      pop\n        /* \"#utility.yul\":2368:2976   */\n      pop\n      pop\n      pop\n        /* \"#utility.yul\":2244:2976   */\n      swap3\n      swap2\n      pop\n      pop\n      jump\t// out\n        /* \"#utility.yul\":2982:3346   */\n    tag_78:\n        /* \"#utility.yul\":3070:3073   */\n      0x00\n        /* \"#utility.yul\":3098:3137   */\n      tag_80\n        /* \"#utility.yul\":3131:3136   */\n      dup3\n        /* \"#utility.yul\":3098:3137   */\n      tag_81\n      jump\t// in\n    tag_80:\n        /* \"#utility.yul\":3153:3224   */\n      tag_82\n        /* \"#utility.yul\":3217:3223   */\n      dup2\n        /* \"#utility.yul\":3212:3215   */\n      dup6\n        /* \"#utility.yul\":3153:3224   */\n      tag_83\n      jump\t// in\n    tag_82:\n        /* \"#utility.yul\":3146:3224   */\n      swap4\n      pop\n        /* \"#utility.yul\":3233:3285   */\n      tag_84\n        /* \"#utility.yul\":3278:3284   */\n      dup2\n        /* \"#utility.yul\":3273:3276   */\n      dup6\n        /* \"#utility.yul\":3266:3270   */\n      0x20\n        /* \"#utility.yul\":3259:3264   */\n      dup7\n        /* \"#utility.yul\":3255:3271   */\n      add\n        /* \"#utility.yul\":3233:3285   */\n      tag_85\n      jump\t// in\n    tag_84:\n        /* \"#utility.yul\":3310:3339   */\n      tag_86\n        /* \"#utility.yul\":3332:3338   */\n      dup2\n        /* \"#utility.yul\":3310:3339   */\n      tag_87\n      jump\t// in\n    tag_86:\n        /* \"#utility.yul\":3305:3308   */\n      dup5\n        /* \"#utility.yul\":3301:3340   */\n      add\n        /* \"#utility.yul\":3294:3340   */\n      swap2\n      pop\n        /* \"#utility.yul\":3074:3346   */\n      pop\n        /* \"#utility.yul\":2982:3346   */\n      swap3\n      swap2\n      pop\n      pop\n      jump\t// out\n        /* \"#utility.yul\":3352:3470   */\n    tag_88:\n        /* \"#utility.yul\":3439:3463   */\n      tag_90\n        /* \"#utility.yul\":3457:3462   */\n      dup2\n        /* \"#utility.yul\":3439:3463   */\n      tag_91\n      jump\t// in\n    tag_90:\n        /* \"#utility.yul\":3434:3437   */\n      dup3\n        /* \"#utility.yul\":3427:3464   */\n      mstore\n        /* \"#utility.yul\":3352:3470   */\n      pop\n      pop\n      jump\t// out\n        /* \"#utility.yul\":3476:3849   */\n    tag_12:\n        /* \"#utility.yul\":3619:3623   */\n      0x00\n        /* \"#utility.yul\":3657:3659   */\n      0x20\n        /* \"#utility.yul\":3646:3655   */\n      dup3\n        /* \"#utility.yul\":3642:3660   */\n      add\n        /* \"#utility.yul\":3634:3660   */\n      swap1\n      pop\n        /* \"#utility.yul\":3706:3715   */\n      dup2\n        /* \"#utility.yul\":3700:3704   */\n      dup2\n        /* \"#utility.yul\":3696:3716   */\n      sub\n        /* \"#utility.yul\":3692:3693   */\n      0x00\n        /* \"#utility.yul\":3681:3690   */\n      dup4\n        /* \"#utility.yul\":3677:3694   */\n      add\n        /* \"#utility.yul\":3670:3717   */\n      mstore\n        /* \"#utility.yul\":3734:3842   */\n      tag_93\n        /* \"#utility.yul\":3837:3841   */\n      dup2\n        /* \"#utility.yul\":3828:3834   */\n      dup5\n        /* \"#utility.yul\":3734:3842   */\n      tag_64\n      jump\t// in\n    tag_93:\n        /* \"#utility.yul\":3726:3842   */\n      swap1\n      pop\n        /* \"#utility.yul\":3476:3849   */\n      swap3\n      swap2\n      pop\n      pop\n      jump\t// out\n        /* \"#utility.yul\":3855:4479   */\n    tag_17:\n        /* \"#utility.yul\":4044:4048   */\n      0x00\n        /* \"#utility.yul\":4082:4084   */\n      0x60\n        /* \"#utility.yul\":4071:4080   */\n      dup3\n        /* \"#utility.yul\":4067:4085   */\n      add\n        /* \"#utility.yul\":4059:4085   */\n      swap1\n      pop\n        /* \"#utility.yul\":4131:4140   */\n      dup2\n        /* \"#utility.yul\":4125:4129   */\n      dup2\n        /* \"#utility.yul\":4121:4141   */\n      sub\n        /* \"#utility.yul\":4117:4118   */\n      0x00\n        /* \"#utility.yul\":4106:4115   */\n      dup4\n        /* \"#utility.yul\":4102:4119   */\n      add\n        /* \"#utility.yul\":4095:4142   */\n      mstore\n        /* \"#utility.yul\":4159:4237   */\n      tag_95\n        /* \"#utility.yul\":4232:4236   */\n      dup2\n        /* \"#utility.yul\":4223:4229   */\n      dup7\n        /* \"#utility.yul\":4159:4237   */\n      tag_78\n      jump\t// in\n    tag_95:\n        /* \"#utility.yul\":4151:4237   */\n      swap1\n      pop\n        /* \"#utility.yul\":4247:4319   */\n      tag_96\n        /* \"#utility.yul\":4315:4317   */\n      0x20\n        /* \"#utility.yul\":4304:4313   */\n      dup4\n        /* \"#utility.yul\":4300:4318   */\n      add\n        /* \"#utility.yul\":4291:4297   */\n      dup6\n        /* \"#utility.yul\":4247:4319   */\n      tag_88\n      jump\t// in\n    tag_96:\n        /* \"#utility.yul\":4366:4375   */\n      dup2\n        /* \"#utility.yul\":4360:4364   */\n      dup2\n        /* \"#utility.yul\":4356:4376   */\n      sub\n        /* \"#utility.yul\":4351:4353   */\n      0x40\n        /* \"#utility.yul\":4340:4349   */\n      dup4\n        /* \"#utility.yul\":4336:4354   */\n      add\n        /* \"#utility.yul\":4329:4377   */\n      mstore\n        /* \"#utility.yul\":4394:4472   */\n      tag_97\n        /* \"#utility.yul\":4467:4471   */\n      dup2\n        /* \"#utility.yul\":4458:4464   */\n      dup5\n        /* \"#utility.yul\":4394:4472   */\n      tag_78\n      jump\t// in\n    tag_97:\n        /* \"#utility.yul\":4386:4472   */\n      swap1\n      pop\n        /* \"#utility.yul\":3855:4479   */\n      swap5\n      swap4\n      pop\n      pop\n      pop\n      pop\n      jump\t// out\n        /* \"#utility.yul\":4485:4614   */\n    tag_29:\n        /* \"#utility.yul\":4519:4525   */\n      0x00\n        /* \"#utility.yul\":4546:4566   */\n      tag_99\n      tag_100\n      jump\t// in\n    tag_99:\n        /* \"#utility.yul\":4536:4566   */\n      swap1\n      pop\n        /* \"#utility.yul\":4575:4608   */\n      tag_101\n        /* \"#utility.yul\":4603:4607   */\n      dup3\n        /* \"#utility.yul\":4595:4601   */\n      dup3\n        /* \"#utility.yul\":4575:4608   */\n      tag_102\n      jump\t// in\n    tag_101:\n        /* \"#utility.yul\":4485:4614   */\n      swap2\n      swap1\n      pop\n      jump\t// out\n        /* \"#utility.yul\":4620:4695   */\n    tag_100:\n        /* \"#utility.yul\":4653:4659   */\n      0x00\n        /* \"#utility.yul\":4686:4688   */\n      0x40\n        /* \"#utility.yul\":4680:4689   */\n      mload\n        /* \"#utility.yul\":4670:4689   */\n      swap1\n      pop\n        /* \"#utility.yul\":4620:4695   */\n      swap1\n      jump\t// out\n        /* \"#utility.yul\":4701:5009   */\n    tag_28:\n        /* \"#utility.yul\":4763:4767   */\n      0x00\n        /* \"#utility.yul\":4853:4871   */\n      0xffffffffffffffff\n        /* \"#utility.yul\":4845:4851   */\n      dup3\n        /* \"#utility.yul\":4842:4872   */\n      gt\n        /* \"#utility.yul\":4839:4895   */\n      iszero\n      tag_105\n      jumpi\n        /* \"#utility.yul\":4875:4893   */\n      tag_106\n      tag_107\n      jump\t// in\n    tag_106:\n        /* \"#utility.yul\":4839:4895   */\n    tag_105:\n        /* \"#utility.yul\":4913:4942   */\n      tag_108\n        /* \"#utility.yul\":4935:4941   */\n      dup3\n        /* \"#utility.yul\":4913:4942   */\n      tag_87\n      jump\t// in\n    tag_108:\n        /* \"#utility.yul\":4905:4942   */\n      swap1\n      pop\n        /* \"#utility.yul\":4997:5001   */\n      0x20\n        /* \"#utility.yul\":4991:4995   */\n      dup2\n        /* \"#utility.yul\":4987:5002   */\n      add\n        /* \"#utility.yul\":4979:5002   */\n      swap1\n      pop\n        /* \"#utility.yul\":4701:5009   */\n      swap2\n      swap1\n      pop\n      jump\t// out\n        /* \"#utility.yul\":5015:5147   */\n    tag_71:\n        /* \"#utility.yul\":5082:5086   */\n      0x00\n        /* \"#utility.yul\":5105:5108   */\n      dup2\n        /* \"#utility.yul\":5097:5108   */\n      swap1\n      pop\n        /* \"#utility.yul\":5135:5139   */\n      0x20\n        /* \"#utility.yul\":5130:5133   */\n      dup3\n        /* \"#utility.yul\":5126:5140   */\n      add\n        /* \"#utility.yul\":5118:5140   */\n      swap1\n      pop\n        /* \"#utility.yul\":5015:5147   */\n      swap2\n      swap1\n      pop\n      jump\t// out\n        /* \"#utility.yul\":5153:5267   */\n    tag_67:\n        /* \"#utility.yul\":5220:5226   */\n      0x00\n        /* \"#utility.yul\":5254:5259   */\n      dup2\n        /* \"#utility.yul\":5248:5260   */\n      mload\n        /* \"#utility.yul\":5238:5260   */\n      swap1\n      pop\n        /* \"#utility.yul\":5153:5267   */\n      swap2\n      swap1\n      pop\n      jump\t// out\n        /* \"#utility.yul\":5273:5372   */\n    tag_81:\n        /* \"#utility.yul\":5325:5331   */\n      0x00\n        /* \"#utility.yul\":5359:5364   */\n      dup2\n        /* \"#utility.yul\":5353:5365   */\n      mload\n        /* \"#utility.yul\":5343:5365   */\n      swap1\n      pop\n        /* \"#utility.yul\":5273:5372   */\n      swap2\n      swap1\n      pop\n      jump\t// out\n        /* \"#utility.yul\":5378:5491   */\n    tag_77:\n        /* \"#utility.yul\":5448:5452   */\n      0x00\n        /* \"#utility.yul\":5480:5484   */\n      0x20\n        /* \"#utility.yul\":5475:5478   */\n      dup3\n        /* \"#utility.yul\":5471:5485   */\n      add\n        /* \"#utility.yul\":5463:5485   */\n      swap1\n      pop\n        /* \"#utility.yul\":5378:5491   */\n      swap2\n      swap1\n      pop\n      jump\t// out\n        /* \"#utility.yul\":5497:5681   */\n    tag_69:\n        /* \"#utility.yul\":5596:5607   */\n      0x00\n        /* \"#utility.yul\":5630:5636   */\n      dup3\n        /* \"#utility.yul\":5625:5628   */\n      dup3\n        /* \"#utility.yul\":5618:5637   */\n      mstore\n        /* \"#utility.yul\":5670:5674   */\n      0x20\n        /* \"#utility.yul\":5665:5668   */\n      dup3\n        /* \"#utility.yul\":5661:5675   */\n      add\n        /* \"#utility.yul\":5646:5675   */\n      swap1\n      pop\n        /* \"#utility.yul\":5497:5681   */\n      swap3\n      swap2\n      pop\n      pop\n      jump\t// out\n        /* \"#utility.yul\":5687:5856   */\n    tag_83:\n        /* \"#utility.yul\":5771:5782   */\n      0x00\n        /* \"#utility.yul\":5805:5811   */\n      dup3\n        /* \"#utility.yul\":5800:5803   */\n      dup3\n        /* \"#utility.yul\":5793:5812   */\n      mstore\n        /* \"#utility.yul\":5845:5849   */\n      0x20\n        /* \"#utility.yul\":5840:5843   */\n      dup3\n        /* \"#utility.yul\":5836:5850   */\n      add\n        /* \"#utility.yul\":5821:5850   */\n      swap1\n      pop\n        /* \"#utility.yul\":5687:5856   */\n      swap3\n      swap2\n      pop\n      pop\n      jump\t// out\n        /* \"#utility.yul\":5862:5958   */\n    tag_63:\n        /* \"#utility.yul\":5899:5906   */\n      0x00\n        /* \"#utility.yul\":5928:5952   */\n      tag_116\n        /* \"#utility.yul\":5946:5951   */\n      dup3\n        /* \"#utility.yul\":5928:5952   */\n      tag_117\n      jump\t// in\n    tag_116:\n        /* \"#utility.yul\":5917:5952   */\n      swap1\n      pop\n        /* \"#utility.yul\":5862:5958   */\n      swap2\n      swap1\n      pop\n      jump\t// out\n        /* \"#utility.yul\":5964:6090   */\n    tag_117:\n        /* \"#utility.yul\":6001:6008   */\n      0x00\n        /* \"#utility.yul\":6041:6083   */\n      0xffffffffffffffffffffffffffffffffffffffff\n        /* \"#utility.yul\":6034:6039   */\n      dup3\n        /* \"#utility.yul\":6030:6084   */\n      and\n        /* \"#utility.yul\":6019:6084   */\n      swap1\n      pop\n        /* \"#utility.yul\":5964:6090   */\n      swap2\n      swap1\n      pop\n      jump\t// out\n        /* \"#utility.yul\":6096:6173   */\n    tag_91:\n        /* \"#utility.yul\":6133:6140   */\n      0x00\n        /* \"#utility.yul\":6162:6167   */\n      dup2\n        /* \"#utility.yul\":6151:6167   */\n      swap1\n      pop\n        /* \"#utility.yul\":6096:6173   */\n      swap2\n      swap1\n      pop\n      jump\t// out\n        /* \"#utility.yul\":6179:6333   */\n    tag_34:\n        /* \"#utility.yul\":6263:6269   */\n      dup3\n        /* \"#utility.yul\":6258:6261   */\n      dup2\n        /* \"#utility.yul\":6253:6256   */\n      dup4\n        /* \"#utility.yul\":6240:6270   */\n      calldatacopy\n        /* \"#utility.yul\":6325:6326   */\n      0x00\n        /* \"#utility.yul\":6316:6322   */\n      dup4\n        /* \"#utility.yul\":6311:6314   */\n      dup4\n        /* \"#utility.yul\":6307:6323   */\n      add\n        /* \"#utility.yul\":6300:6327   */\n      mstore\n        /* \"#utility.yul\":6179:6333   */\n      pop\n      pop\n      pop\n      jump\t// out\n        /* \"#utility.yul\":6339:6646   */\n    tag_85:\n        /* \"#utility.yul\":6407:6408   */\n      0x00\n        /* \"#utility.yul\":6417:6530   */\n    tag_122:\n        /* \"#utility.yul\":6431:6437   */\n      dup4\n        /* \"#utility.yul\":6428:6429   */\n      dup2\n        /* \"#utility.yul\":6425:6438   */\n      lt\n        /* \"#utility.yul\":6417:6530   */\n      iszero\n      tag_124\n      jumpi\n        /* \"#utility.yul\":6516:6517   */\n      dup1\n        /* \"#utility.yul\":6511:6514   */\n      dup3\n        /* \"#utility.yul\":6507:6518   */\n      add\n        /* \"#utility.yul\":6501:6519   */\n      mload\n        /* \"#utility.yul\":6497:6498   */\n      dup2\n        /* \"#utility.yul\":6492:6495   */\n      dup5\n        /* \"#utility.yul\":6488:6499   */\n      add\n        /* \"#utility.yul\":6481:6520   */\n      mstore\n        /* \"#utility.yul\":6453:6455   */\n      0x20\n        /* \"#utility.yul\":6450:6451   */\n      dup2\n        /* \"#utility.yul\":6446:6456   */\n      add\n        /* \"#utility.yul\":6441:6456   */\n      swap1\n      pop\n        /* \"#utility.yul\":6417:6530   */\n      jump(tag_122)\n    tag_124:\n        /* \"#utility.yul\":6548:6554   */\n      dup4\n        /* \"#utility.yul\":6545:6546   */\n      dup2\n        /* \"#utility.yul\":6542:6555   */\n      gt\n        /* \"#utility.yul\":6539:6640   */\n      iszero\n      tag_125\n      jumpi\n        /* \"#utility.yul\":6628:6629   */\n      0x00\n        /* \"#utility.yul\":6619:6625   */\n      dup5\n        /* \"#utility.yul\":6614:6617   */\n      dup5\n        /* \"#utility.yul\":6610:6626   */\n      add\n        /* \"#utility.yul\":6603:6630   */\n      mstore\n        /* \"#utility.yul\":6539:6640   */\n    tag_125:\n        /* \"#utility.yul\":6388:6646   */\n      pop\n        /* \"#utility.yul\":6339:6646   */\n      pop\n      pop\n      pop\n      jump\t// out\n        /* \"#utility.yul\":6652:6933   */\n    tag_102:\n        /* \"#utility.yul\":6735:6762   */\n      tag_127\n        /* \"#utility.yul\":6757:6761   */\n      dup3\n        /* \"#utility.yul\":6735:6762   */\n      tag_87\n      jump\t// in\n    tag_127:\n        /* \"#utility.yul\":6727:6733   */\n      dup2\n        /* \"#utility.yul\":6723:6763   */\n      add\n        /* \"#utility.yul\":6865:6871   */\n      dup2\n        /* \"#utility.yul\":6853:6863   */\n      dup2\n        /* \"#utility.yul\":6850:6872   */\n      lt\n        /* \"#utility.yul\":6829:6847   */\n      0xffffffffffffffff\n        /* \"#utility.yul\":6817:6827   */\n      dup3\n        /* \"#utility.yul\":6814:6848   */\n      gt\n        /* \"#utility.yul\":6811:6873   */\n      or\n        /* \"#utility.yul\":6808:6896   */\n      iszero\n      tag_128\n      jumpi\n        /* \"#utility.yul\":6876:6894   */\n      tag_129\n      tag_107\n      jump\t// in\n    tag_129:\n        /* \"#utility.yul\":6808:6896   */\n    tag_128:\n        /* \"#utility.yul\":6916:6926   */\n      dup1\n        /* \"#utility.yul\":6912:6914   */\n      0x40\n        /* \"#utility.yul\":6905:6927   */\n      mstore\n        /* \"#utility.yul\":6695:6933   */\n      pop\n        /* \"#utility.yul\":6652:6933   */\n      pop\n      pop\n      jump\t// out\n        /* \"#utility.yul\":6939:7119   */\n    tag_107:\n        /* \"#utility.yul\":6987:7064   */\n      0x4e487b7100000000000000000000000000000000000000000000000000000000\n        /* \"#utility.yul\":6984:6985   */\n      0x00\n        /* \"#utility.yul\":6977:7065   */\n      mstore\n        /* \"#utility.yul\":7084:7088   */\n      0x41\n        /* \"#utility.yul\":7081:7082   */\n      0x04\n        /* \"#utility.yul\":7074:7089   */\n      mstore\n        /* \"#utility.yul\":7108:7112   */\n      0x24\n        /* \"#utility.yul\":7105:7106   */\n      0x00\n        /* \"#utility.yul\":7098:7113   */\n      revert\n        /* \"#utility.yul\":7125:7242   */\n    tag_39:\n        /* \"#utility.yul\":7234:7235   */\n      0x00\n        /* \"#utility.yul\":7231:7232   */\n      dup1\n        /* \"#utility.yul\":7224:7236   */\n      revert\n        /* \"#utility.yul\":7248:7365   */\n    tag_32:\n        /* \"#utility.yul\":7357:7358   */\n      0x00\n        /* \"#utility.yul\":7354:7355   */\n      dup1\n        /* \"#utility.yul\":7347:7359   */\n      revert\n        /* \"#utility.yul\":7371:7488   */\n    tag_51:\n        /* \"#utility.yul\":7480:7481   */\n      0x00\n        /* \"#utility.yul\":7477:7478   */\n      dup1\n        /* \"#utility.yul\":7470:7482   */\n      revert\n        /* \"#utility.yul\":7494:7611   */\n    tag_48:\n        /* \"#utility.yul\":7603:7604   */\n      0x00\n        /* \"#utility.yul\":7600:7601   */\n      dup1\n        /* \"#utility.yul\":7593:7605   */\n      revert\n        /* \"#utility.yul\":7617:7719   */\n    tag_87:\n        /* \"#utility.yul\":7658:7664   */\n      0x00\n        /* \"#utility.yul\":7709:7711   */\n      0x1f\n        /* \"#utility.yul\":7705:7712   */\n      not\n        /* \"#utility.yul\":7700:7702   */\n      0x1f\n        /* \"#utility.yul\":7693:7698   */\n      dup4\n        /* \"#utility.yul\":7689:7703   */\n      add\n        /* \"#utility.yul\":7685:7713   */\n      and\n        /* \"#utility.yul\":7675:7713   */\n      swap1\n      pop\n        /* \"#utility.yul\":7617:7719   */\n      swap2\n      swap1\n      pop\n      jump\t// out\n        /* \"#utility.yul\":7725:7847   */\n    tag_44:\n        /* \"#utility.yul\":7798:7822   */\n      tag_137\n        /* \"#utility.yul\":7816:7821   */\n      dup2\n        /* \"#utility.yul\":7798:7822   */\n      tag_91\n      jump\t// in\n    tag_137:\n        /* \"#utility.yul\":7791:7796   */\n      dup2\n        /* \"#utility.yul\":7788:7823   */\n      eq\n        /* \"#utility.yul\":7778:7841   */\n      tag_138\n      jumpi\n        /* \"#utility.yul\":7837:7838   */\n      0x00\n        /* \"#utility.yul\":7834:7835   */\n      dup1\n        /* \"#utility.yul\":7827:7839   */\n      revert\n        /* \"#utility.yul\":7778:7841   */\n    tag_138:\n        /* \"#utility.yul\":7725:7847   */\n      pop\n      jump\t// out\n    stop\n\n    sub_0: assembly {\n            /* \"advance/08-factory.sol\":57:430  contract Car {... */\n          mstore(0x40, 0x80)\n            /* \"advance/08-factory.sol\":142:295  constructor(string memory _name, uint256 _val, string memory _ver) {... */\n          callvalue\n          dup1\n          iszero\n          tag_1\n          jumpi\n          0x00\n          dup1\n          revert\n        tag_1:\n          pop\n          mload(0x40)\n          sub(codesize, bytecodeSize)\n          dup1\n          bytecodeSize\n          dup4\n          codecopy\n          dup2\n          dup2\n          add\n          0x40\n          mstore\n          dup2\n          add\n          swap1\n          tag_2\n          swap2\n          swap1\n          tag_3\n          jump\t// in\n        tag_2:\n            /* \"advance/08-factory.sol\":231:236  _name */\n          dup3\n            /* \"advance/08-factory.sol\":219:228  brandName */\n          0x00\n            /* \"advance/08-factory.sol\":219:236  brandName = _name */\n          swap1\n          dup1\n          mload\n          swap1\n          0x20\n          add\n          swap1\n          tag_6\n          swap3\n          swap2\n          swap1\n          tag_7\n          jump\t// in\n        tag_6:\n          pop\n            /* \"advance/08-factory.sol\":258:262  _val */\n          dup2\n            /* \"advance/08-factory.sol\":246:251  value */\n          0x01\n            /* \"advance/08-factory.sol\":246:262  value     = _val */\n          dup2\n          swap1\n          sstore\n          pop\n            /* \"advance/08-factory.sol\":284:288  _ver */\n          dup1\n            /* \"advance/08-factory.sol\":272:279  version */\n          0x02\n            /* \"advance/08-factory.sol\":272:288  version   = _ver */\n          swap1\n          dup1\n          mload\n          swap1\n          0x20\n          add\n          swap1\n          tag_8\n          swap3\n          swap2\n          swap1\n          tag_7\n          jump\t// in\n        tag_8:\n          pop\n            /* \"advance/08-factory.sol\":142:295  constructor(string memory _name, uint256 _val, string memory _ver) {... */\n          pop\n          pop\n          pop\n            /* \"advance/08-factory.sol\":57:430  contract Car {... */\n          jump(tag_9)\n        tag_7:\n          dup3\n          dup1\n          sload\n          tag_10\n          swap1\n          tag_11\n          jump\t// in\n        tag_10:\n          swap1\n          0x00\n          mstore\n          keccak256(0x00, 0x20)\n          swap1\n          0x1f\n          add\n          0x20\n          swap1\n          div\n          dup2\n          add\n          swap3\n          dup3\n          tag_13\n          jumpi\n          0x00\n          dup6\n          sstore\n          jump(tag_12)\n        tag_13:\n          dup3\n          0x1f\n          lt\n          tag_14\n          jumpi\n          dup1\n          mload\n          not(0xff)\n          and\n          dup4\n          dup1\n          add\n          or\n          dup6\n          sstore\n          jump(tag_12)\n        tag_14:\n          dup3\n          dup1\n          add\n          0x01\n          add\n          dup6\n          sstore\n          dup3\n          iszero\n          tag_12\n          jumpi\n          swap2\n          dup3\n          add\n        tag_15:\n          dup3\n          dup2\n          gt\n          iszero\n          tag_16\n          jumpi\n          dup3\n          mload\n          dup3\n          sstore\n          swap2\n          0x20\n          add\n          swap2\n          swap1\n          0x01\n          add\n          swap1\n          jump(tag_15)\n        tag_16:\n        tag_12:\n          pop\n          swap1\n          pop\n          tag_17\n          swap2\n          swap1\n          tag_18\n          jump\t// in\n        tag_17:\n          pop\n          swap1\n          jump\t// out\n        tag_18:\n        tag_19:\n          dup1\n          dup3\n          gt\n          iszero\n          tag_20\n          jumpi\n          0x00\n          dup2\n          0x00\n          swap1\n          sstore\n          pop\n          0x01\n          add\n          jump(tag_19)\n        tag_20:\n          pop\n          swap1\n          jump\t// out\n            /* \"#utility.yul\":7:428   */\n        tag_22:\n            /* \"#utility.yul\":96:101   */\n          0x00\n            /* \"#utility.yul\":121:187   */\n          tag_24\n            /* \"#utility.yul\":137:186   */\n          tag_25\n            /* \"#utility.yul\":179:185   */\n          dup5\n            /* \"#utility.yul\":137:186   */\n          tag_26\n          jump\t// in\n        tag_25:\n            /* \"#utility.yul\":121:187   */\n          tag_27\n          jump\t// in\n        tag_24:\n            /* \"#utility.yul\":112:187   */\n          swap1\n          pop\n            /* \"#utility.yul\":210:216   */\n          dup3\n            /* \"#utility.yul\":203:208   */\n          dup2\n            /* \"#utility.yul\":196:217   */\n          mstore\n            /* \"#utility.yul\":248:252   */\n          0x20\n            /* \"#utility.yul\":241:246   */\n          dup2\n            /* \"#utility.yul\":237:253   */\n          add\n            /* \"#utility.yul\":286:289   */\n          dup5\n            /* \"#utility.yul\":277:283   */\n          dup5\n            /* \"#utility.yul\":272:275   */\n          dup5\n            /* \"#utility.yul\":268:284   */\n          add\n            /* \"#utility.yul\":265:290   */\n          gt\n            /* \"#utility.yul\":262:374   */\n          iszero\n          tag_28\n          jumpi\n            /* \"#utility.yul\":293:372   */\n          tag_29\n          tag_30\n          jump\t// in\n        tag_29:\n            /* \"#utility.yul\":262:374   */\n        tag_28:\n            /* \"#utility.yul\":383:422   */\n          tag_31\n            /* \"#utility.yul\":415:421   */\n          dup5\n            /* \"#utility.yul\":410:413   */\n          dup3\n            /* \"#utility.yul\":405:408   */\n          dup6\n            /* \"#utility.yul\":383:422   */\n          tag_32\n          jump\t// in\n        tag_31:\n            /* \"#utility.yul\":102:428   */\n          pop\n            /* \"#utility.yul\":7:428   */\n          swap4\n          swap3\n          pop\n          pop\n          pop\n          jump\t// out\n            /* \"#utility.yul\":448:803   */\n        tag_33:\n            /* \"#utility.yul\":515:520   */\n          0x00\n            /* \"#utility.yul\":564:567   */\n          dup3\n            /* \"#utility.yul\":557:561   */\n          0x1f\n            /* \"#utility.yul\":549:555   */\n          dup4\n            /* \"#utility.yul\":545:562   */\n          add\n            /* \"#utility.yul\":541:568   */\n          slt\n            /* \"#utility.yul\":531:653   */\n          tag_35\n          jumpi\n            /* \"#utility.yul\":572:651   */\n          tag_36\n          tag_37\n          jump\t// in\n        tag_36:\n            /* \"#utility.yul\":531:653   */\n        tag_35:\n            /* \"#utility.yul\":682:688   */\n          dup2\n            /* \"#utility.yul\":676:689   */\n          mload\n            /* \"#utility.yul\":707:797   */\n          tag_38\n            /* \"#utility.yul\":793:796   */\n          dup5\n            /* \"#utility.yul\":785:791   */\n          dup3\n            /* \"#utility.yul\":778:782   */\n          0x20\n            /* \"#utility.yul\":770:776   */\n          dup7\n            /* \"#utility.yul\":766:783   */\n          add\n            /* \"#utility.yul\":707:797   */\n          tag_22\n          jump\t// in\n        tag_38:\n            /* \"#utility.yul\":698:797   */\n          swap2\n          pop\n            /* \"#utility.yul\":521:803   */\n          pop\n            /* \"#utility.yul\":448:803   */\n          swap3\n          swap2\n          pop\n          pop\n          jump\t// out\n            /* \"#utility.yul\":809:952   */\n        tag_39:\n            /* \"#utility.yul\":866:871   */\n          0x00\n            /* \"#utility.yul\":897:903   */\n          dup2\n            /* \"#utility.yul\":891:904   */\n          mload\n            /* \"#utility.yul\":882:904   */\n          swap1\n          pop\n            /* \"#utility.yul\":913:946   */\n          tag_41\n            /* \"#utility.yul\":940:945   */\n          dup2\n            /* \"#utility.yul\":913:946   */\n          tag_42\n          jump\t// in\n        tag_41:\n            /* \"#utility.yul\":809:952   */\n          swap3\n          swap2\n          pop\n          pop\n          jump\t// out\n            /* \"#utility.yul\":958:1967   */\n        tag_3:\n            /* \"#utility.yul\":1066:1072   */\n          0x00\n            /* \"#utility.yul\":1074:1080   */\n          dup1\n            /* \"#utility.yul\":1082:1088   */\n          0x00\n            /* \"#utility.yul\":1131:1133   */\n          0x60\n            /* \"#utility.yul\":1119:1128   */\n          dup5\n            /* \"#utility.yul\":1110:1117   */\n          dup7\n            /* \"#utility.yul\":1106:1129   */\n          sub\n            /* \"#utility.yul\":1102:1134   */\n          slt\n            /* \"#utility.yul\":1099:1218   */\n          iszero\n          tag_44\n          jumpi\n            /* \"#utility.yul\":1137:1216   */\n          tag_45\n          tag_46\n          jump\t// in\n        tag_45:\n            /* \"#utility.yul\":1099:1218   */\n        tag_44:\n            /* \"#utility.yul\":1278:1279   */\n          0x00\n            /* \"#utility.yul\":1267:1276   */\n          dup5\n            /* \"#utility.yul\":1263:1280   */\n          add\n            /* \"#utility.yul\":1257:1281   */\n          mload\n            /* \"#utility.yul\":1308:1326   */\n          0xffffffffffffffff\n            /* \"#utility.yul\":1300:1306   */\n          dup2\n            /* \"#utility.yul\":1297:1327   */\n          gt\n            /* \"#utility.yul\":1294:1411   */\n          iszero\n          tag_47\n          jumpi\n            /* \"#utility.yul\":1330:1409   */\n          tag_48\n          tag_49\n          jump\t// in\n        tag_48:\n            /* \"#utility.yul\":1294:1411   */\n        tag_47:\n            /* \"#utility.yul\":1435:1509   */\n          tag_50\n            /* \"#utility.yul\":1501:1508   */\n          dup7\n            /* \"#utility.yul\":1492:1498   */\n          dup3\n            /* \"#utility.yul\":1481:1490   */\n          dup8\n            /* \"#utility.yul\":1477:1499   */\n          add\n            /* \"#utility.yul\":1435:1509   */\n          tag_33\n          jump\t// in\n        tag_50:\n            /* \"#utility.yul\":1425:1509   */\n          swap4\n          pop\n            /* \"#utility.yul\":1228:1519   */\n          pop\n            /* \"#utility.yul\":1558:1560   */\n          0x20\n            /* \"#utility.yul\":1584:1648   */\n          tag_51\n            /* \"#utility.yul\":1640:1647   */\n          dup7\n            /* \"#utility.yul\":1631:1637   */\n          dup3\n            /* \"#utility.yul\":1620:1629   */\n          dup8\n            /* \"#utility.yul\":1616:1638   */\n          add\n            /* \"#utility.yul\":1584:1648   */\n          tag_39\n          jump\t// in\n        tag_51:\n            /* \"#utility.yul\":1574:1648   */\n          swap3\n          pop\n            /* \"#utility.yul\":1529:1658   */\n          pop\n            /* \"#utility.yul\":1718:1720   */\n          0x40\n            /* \"#utility.yul\":1707:1716   */\n          dup5\n            /* \"#utility.yul\":1703:1721   */\n          add\n            /* \"#utility.yul\":1697:1722   */\n          mload\n            /* \"#utility.yul\":1749:1767   */\n          0xffffffffffffffff\n            /* \"#utility.yul\":1741:1747   */\n          dup2\n            /* \"#utility.yul\":1738:1768   */\n          gt\n            /* \"#utility.yul\":1735:1852   */\n          iszero\n          tag_52\n          jumpi\n            /* \"#utility.yul\":1771:1850   */\n          tag_53\n          tag_49\n          jump\t// in\n        tag_53:\n            /* \"#utility.yul\":1735:1852   */\n        tag_52:\n            /* \"#utility.yul\":1876:1950   */\n          tag_54\n            /* \"#utility.yul\":1942:1949   */\n          dup7\n            /* \"#utility.yul\":1933:1939   */\n          dup3\n            /* \"#utility.yul\":1922:1931   */\n          dup8\n            /* \"#utility.yul\":1918:1940   */\n          add\n            /* \"#utility.yul\":1876:1950   */\n          tag_33\n          jump\t// in\n        tag_54:\n            /* \"#utility.yul\":1866:1950   */\n          swap2\n          pop\n            /* \"#utility.yul\":1668:1960   */\n          pop\n            /* \"#utility.yul\":958:1967   */\n          swap3\n          pop\n          swap3\n          pop\n          swap3\n          jump\t// out\n            /* \"#utility.yul\":1973:2102   */\n        tag_27:\n            /* \"#utility.yul\":2007:2013   */\n          0x00\n            /* \"#utility.yul\":2034:2054   */\n          tag_56\n          tag_57\n          jump\t// in\n        tag_56:\n            /* \"#utility.yul\":2024:2054   */\n          swap1\n          pop\n            /* \"#utility.yul\":2063:2096   */\n          tag_58\n            /* \"#utility.yul\":2091:2095   */\n          dup3\n            /* \"#utility.yul\":2083:2089   */\n          dup3\n            /* \"#utility.yul\":2063:2096   */\n          tag_59\n          jump\t// in\n        tag_58:\n            /* \"#utility.yul\":1973:2102   */\n          swap2\n          swap1\n          pop\n          jump\t// out\n            /* \"#utility.yul\":2108:2183   */\n        tag_57:\n            /* \"#utility.yul\":2141:2147   */\n          0x00\n            /* \"#utility.yul\":2174:2176   */\n          0x40\n            /* \"#utility.yul\":2168:2177   */\n          mload\n            /* \"#utility.yul\":2158:2177   */\n          swap1\n          pop\n            /* \"#utility.yul\":2108:2183   */\n          swap1\n          jump\t// out\n            /* \"#utility.yul\":2189:2497   */\n        tag_26:\n            /* \"#utility.yul\":2251:2255   */\n          0x00\n            /* \"#utility.yul\":2341:2359   */\n          0xffffffffffffffff\n            /* \"#utility.yul\":2333:2339   */\n          dup3\n            /* \"#utility.yul\":2330:2360   */\n          gt\n            /* \"#utility.yul\":2327:2383   */\n          iszero\n          tag_62\n          jumpi\n            /* \"#utility.yul\":2363:2381   */\n          tag_63\n          tag_64\n          jump\t// in\n        tag_63:\n            /* \"#utility.yul\":2327:2383   */\n        tag_62:\n            /* \"#utility.yul\":2401:2430   */\n          tag_65\n            /* \"#utility.yul\":2423:2429   */\n          dup3\n            /* \"#utility.yul\":2401:2430   */\n          tag_66\n          jump\t// in\n        tag_65:\n            /* \"#utility.yul\":2393:2430   */\n          swap1\n          pop\n            /* \"#utility.yul\":2485:2489   */\n          0x20\n            /* \"#utility.yul\":2479:2483   */\n          dup2\n            /* \"#utility.yul\":2475:2490   */\n          add\n            /* \"#utility.yul\":2467:2490   */\n          swap1\n          pop\n            /* \"#utility.yul\":2189:2497   */\n          swap2\n          swap1\n          pop\n          jump\t// out\n            /* \"#utility.yul\":2503:2580   */\n        tag_67:\n            /* \"#utility.yul\":2540:2547   */\n          0x00\n            /* \"#utility.yul\":2569:2574   */\n          dup2\n            /* \"#utility.yul\":2558:2574   */\n          swap1\n          pop\n            /* \"#utility.yul\":2503:2580   */\n          swap2\n          swap1\n          pop\n          jump\t// out\n            /* \"#utility.yul\":2586:2893   */\n        tag_32:\n            /* \"#utility.yul\":2654:2655   */\n          0x00\n            /* \"#utility.yul\":2664:2777   */\n        tag_70:\n            /* \"#utility.yul\":2678:2684   */\n          dup4\n            /* \"#utility.yul\":2675:2676   */\n          dup2\n            /* \"#utility.yul\":2672:2685   */\n          lt\n            /* \"#utility.yul\":2664:2777   */\n          iszero\n          tag_72\n          jumpi\n            /* \"#utility.yul\":2763:2764   */\n          dup1\n            /* \"#utility.yul\":2758:2761   */\n          dup3\n            /* \"#utility.yul\":2754:2765   */\n          add\n            /* \"#utility.yul\":2748:2766   */\n          mload\n            /* \"#utility.yul\":2744:2745   */\n          dup2\n            /* \"#utility.yul\":2739:2742   */\n          dup5\n            /* \"#utility.yul\":2735:2746   */\n          add\n            /* \"#utility.yul\":2728:2767   */\n          mstore\n            /* \"#utility.yul\":2700:2702   */\n          0x20\n            /* \"#utility.yul\":2697:2698   */\n          dup2\n            /* \"#utility.yul\":2693:2703   */\n          add\n            /* \"#utility.yul\":2688:2703   */\n          swap1\n          pop\n            /* \"#utility.yul\":2664:2777   */\n          jump(tag_70)\n        tag_72:\n            /* \"#utility.yul\":2795:2801   */\n          dup4\n            /* \"#utility.yul\":2792:2793   */\n          dup2\n            /* \"#utility.yul\":2789:2802   */\n          gt\n            /* \"#utility.yul\":2786:2887   */\n          iszero\n          tag_73\n          jumpi\n            /* \"#utility.yul\":2875:2876   */\n          0x00\n            /* \"#utility.yul\":2866:2872   */\n          dup5\n            /* \"#utility.yul\":2861:2864   */\n          dup5\n            /* \"#utility.yul\":2857:2873   */\n          add\n            /* \"#utility.yul\":2850:2877   */\n          mstore\n            /* \"#utility.yul\":2786:2887   */\n        tag_73:\n            /* \"#utility.yul\":2635:2893   */\n          pop\n            /* \"#utility.yul\":2586:2893   */\n          pop\n          pop\n          pop\n          jump\t// out\n            /* \"#utility.yul\":2899:3219   */\n        tag_11:\n            /* \"#utility.yul\":2943:2949   */\n          0x00\n            /* \"#utility.yul\":2980:2981   */\n          0x02\n            /* \"#utility.yul\":2974:2978   */\n          dup3\n            /* \"#utility.yul\":2970:2982   */\n          div\n            /* \"#utility.yul\":2960:2982   */\n          swap1\n          pop\n            /* \"#utility.yul\":3027:3028   */\n          0x01\n            /* \"#utility.yul\":3021:3025   */\n          dup3\n            /* \"#utility.yul\":3017:3029   */\n          and\n            /* \"#utility.yul\":3048:3066   */\n          dup1\n            /* \"#utility.yul\":3038:3119   */\n          tag_75\n          jumpi\n            /* \"#utility.yul\":3104:3108   */\n          0x7f\n            /* \"#utility.yul\":3096:3102   */\n          dup3\n            /* \"#utility.yul\":3092:3109   */\n          and\n            /* \"#utility.yul\":3082:3109   */\n          swap2\n          pop\n            /* \"#utility.yul\":3038:3119   */\n        tag_75:\n            /* \"#utility.yul\":3166:3168   */\n          0x20\n            /* \"#utility.yul\":3158:3164   */\n          dup3\n            /* \"#utility.yul\":3155:3169   */\n          lt\n            /* \"#utility.yul\":3135:3153   */\n          dup2\n            /* \"#utility.yul\":3132:3170   */\n          eq\n            /* \"#utility.yul\":3129:3213   */\n          iszero\n          tag_76\n          jumpi\n            /* \"#utility.yul\":3185:3203   */\n          tag_77\n          tag_78\n          jump\t// in\n        tag_77:\n            /* \"#utility.yul\":3129:3213   */\n        tag_76:\n            /* \"#utility.yul\":2950:3219   */\n          pop\n            /* \"#utility.yul\":2899:3219   */\n          swap2\n          swap1\n          pop\n          jump\t// out\n            /* \"#utility.yul\":3225:3506   */\n        tag_59:\n            /* \"#utility.yul\":3308:3335   */\n          tag_80\n            /* \"#utility.yul\":3330:3334   */\n          dup3\n            /* \"#utility.yul\":3308:3335   */\n          tag_66\n          jump\t// in\n        tag_80:\n            /* \"#utility.yul\":3300:3306   */\n          dup2\n            /* \"#utility.yul\":3296:3336   */\n          add\n            /* \"#utility.yul\":3438:3444   */\n          dup2\n            /* \"#utility.yul\":3426:3436   */\n          dup2\n            /* \"#utility.yul\":3423:3445   */\n          lt\n            /* \"#utility.yul\":3402:3420   */\n          0xffffffffffffffff\n            /* \"#utility.yul\":3390:3400   */\n          dup3\n            /* \"#utility.yul\":3387:3421   */\n          gt\n            /* \"#utility.yul\":3384:3446   */\n          or\n            /* \"#utility.yul\":3381:3469   */\n          iszero\n          tag_81\n          jumpi\n            /* \"#utility.yul\":3449:3467   */\n          tag_82\n          tag_64\n          jump\t// in\n        tag_82:\n            /* \"#utility.yul\":3381:3469   */\n        tag_81:\n            /* \"#utility.yul\":3489:3499   */\n          dup1\n            /* \"#utility.yul\":3485:3487   */\n          0x40\n            /* \"#utility.yul\":3478:3500   */\n          mstore\n            /* \"#utility.yul\":3268:3506   */\n          pop\n            /* \"#utility.yul\":3225:3506   */\n          pop\n          pop\n          jump\t// out\n            /* \"#utility.yul\":3512:3692   */\n        tag_78:\n            /* \"#utility.yul\":3560:3637   */\n          0x4e487b7100000000000000000000000000000000000000000000000000000000\n            /* \"#utility.yul\":3557:3558   */\n          0x00\n            /* \"#utility.yul\":3550:3638   */\n          mstore\n            /* \"#utility.yul\":3657:3661   */\n          0x22\n            /* \"#utility.yul\":3654:3655   */\n          0x04\n            /* \"#utility.yul\":3647:3662   */\n          mstore\n            /* \"#utility.yul\":3681:3685   */\n          0x24\n            /* \"#utility.yul\":3678:3679   */\n          0x00\n            /* \"#utility.yul\":3671:3686   */\n          revert\n            /* \"#utility.yul\":3698:3878   */\n        tag_64:\n            /* \"#utility.yul\":3746:3823   */\n          0x4e487b7100000000000000000000000000000000000000000000000000000000\n            /* \"#utility.yul\":3743:3744   */\n          0x00\n            /* \"#utility.yul\":3736:3824   */\n          mstore\n            /* \"#utility.yul\":3843:3847   */\n          0x41\n            /* \"#utility.yul\":3840:3841   */\n          0x04\n            /* \"#utility.yul\":3833:3848   */\n          mstore\n            /* \"#utility.yul\":3867:3871   */\n          0x24\n            /* \"#utility.yul\":3864:3865   */\n          0x00\n            /* \"#utility.yul\":3857:3872   */\n          revert\n            /* \"#utility.yul\":3884:4001   */\n        tag_37:\n            /* \"#utility.yul\":3993:3994   */\n          0x00\n            /* \"#utility.yul\":3990:3991   */\n          dup1\n            /* \"#utility.yul\":3983:3995   */\n          revert\n            /* \"#utility.yul\":4007:4124   */\n        tag_30:\n            /* \"#utility.yul\":4116:4117   */\n          0x00\n            /* \"#utility.yul\":4113:4114   */\n          dup1\n            /* \"#utility.yul\":4106:4118   */\n          revert\n            /* \"#utility.yul\":4130:4247   */\n        tag_49:\n            /* \"#utility.yul\":4239:4240   */\n          0x00\n            /* \"#utility.yul\":4236:4237   */\n          dup1\n            /* \"#utility.yul\":4229:4241   */\n          revert\n            /* \"#utility.yul\":4253:4370   */\n        tag_46:\n            /* \"#utility.yul\":4362:4363   */\n          0x00\n            /* \"#utility.yul\":4359:4360   */\n          dup1\n            /* \"#utility.yul\":4352:4364   */\n          revert\n            /* \"#utility.yul\":4376:4478   */\n        tag_66:\n            /* \"#utility.yul\":4417:4423   */\n          0x00\n            /* \"#utility.yul\":4468:4470   */\n          0x1f\n            /* \"#utility.yul\":4464:4471   */\n          not\n            /* \"#utility.yul\":4459:4461   */\n          0x1f\n            /* \"#utility.yul\":4452:4457   */\n          dup4\n            /* \"#utility.yul\":4448:4462   */\n          add\n            /* \"#utility.yul\":4444:4472   */\n          and\n            /* \"#utility.yul\":4434:4472   */\n          swap1\n          pop\n            /* \"#utility.yul\":4376:4478   */\n          swap2\n          swap1\n          pop\n          jump\t// out\n            /* \"#utility.yul\":4484:4606   */\n        tag_42:\n            /* \"#utility.yul\":4557:4581   */\n          tag_91\n            /* \"#utility.yul\":4575:4580   */\n          dup2\n            /* \"#utility.yul\":4557:4581   */\n          tag_67\n          jump\t// in\n        tag_91:\n            /* \"#utility.yul\":4550:4555   */\n          dup2\n            /* \"#utility.yul\":4547:4582   */\n          eq\n            /* \"#utility.yul\":4537:4600   */\n          tag_92\n          jumpi\n            /* \"#utility.yul\":4596:4597   */\n          0x00\n            /* \"#utility.yul\":4593:4594   */\n          dup1\n            /* \"#utility.yul\":4586:4598   */\n          revert\n            /* \"#utility.yul\":4537:4600   */\n        tag_92:\n            /* \"#utility.yul\":4484:4606   */\n          pop\n          jump\t// out\n            /* \"advance/08-factory.sol\":57:430  contract Car {... */\n        tag_9:\n          dataSize(sub_0)\n          dup1\n          dataOffset(sub_0)\n          0x00\n          codecopy\n          0x00\n          return\n        stop\n\n        sub_0: assembly {\n                /* \"advance/08-factory.sol\":57:430  contract Car {... */\n              mstore(0x40, 0x80)\n              callvalue\n              dup1\n              iszero\n              tag_1\n              jumpi\n              0x00\n              dup1\n              revert\n            tag_1:\n              pop\n              jumpi(tag_2, lt(calldatasize, 0x04))\n              shr(0xe0, calldataload(0x00))\n              dup1\n              0x5a9b0b89\n              eq\n              tag_3\n              jumpi\n            tag_2:\n              0x00\n              dup1\n              revert\n                /* \"advance/08-factory.sol\":300:428  function getInfo() public view returns (string memory, uint256, string memory) {... */\n            tag_3:\n              tag_4\n              tag_5\n              jump\t// in\n            tag_4:\n              mload(0x40)\n              tag_6\n              swap4\n              swap3\n              swap2\n              swap1\n              tag_7\n              jump\t// in\n            tag_6:\n              mload(0x40)\n              dup1\n              swap2\n              sub\n              swap1\n              return\n            tag_5:\n                /* \"advance/08-factory.sol\":340:353  string memory */\n              0x60\n                /* \"advance/08-factory.sol\":355:362  uint256 */\n              0x00\n                /* \"advance/08-factory.sol\":364:377  string memory */\n              0x60\n                /* \"advance/08-factory.sol\":397:406  brandName */\n              0x00\n                /* \"advance/08-factory.sol\":407:412  value */\n              sload(0x01)\n                /* \"advance/08-factory.sol\":413:420  version */\n              0x02\n                /* \"advance/08-factory.sol\":389:421  return (brandName,value,version) */\n              dup3\n              dup1\n              sload\n              tag_9\n              swap1\n              tag_10\n              jump\t// in\n            tag_9:\n              dup1\n              0x1f\n              add\n              0x20\n              dup1\n              swap2\n              div\n              mul\n              0x20\n              add\n              mload(0x40)\n              swap1\n              dup2\n              add\n              0x40\n              mstore\n              dup1\n              swap3\n              swap2\n              swap1\n              dup2\n              dup2\n              mstore\n              0x20\n              add\n              dup3\n              dup1\n              sload\n              tag_11\n              swap1\n              tag_10\n              jump\t// in\n            tag_11:\n              dup1\n              iszero\n              tag_12\n              jumpi\n              dup1\n              0x1f\n              lt\n              tag_13\n              jumpi\n              0x0100\n              dup1\n              dup4\n              sload\n              div\n              mul\n              dup4\n              mstore\n              swap2\n              0x20\n              add\n              swap2\n              jump(tag_12)\n            tag_13:\n              dup3\n              add\n              swap2\n              swap1\n              0x00\n              mstore\n              keccak256(0x00, 0x20)\n              swap1\n            tag_14:\n              dup2\n              sload\n              dup2\n              mstore\n              swap1\n              0x01\n              add\n              swap1\n              0x20\n              add\n              dup1\n              dup4\n              gt\n              tag_14\n              jumpi\n              dup3\n              swap1\n              sub\n              0x1f\n              and\n              dup3\n              add\n              swap2\n            tag_12:\n              pop\n              pop\n              pop\n              pop\n              pop\n              swap3\n              pop\n              dup1\n              dup1\n              sload\n              tag_15\n              swap1\n              tag_10\n              jump\t// in\n            tag_15:\n              dup1\n              0x1f\n              add\n              0x20\n              dup1\n              swap2\n              div\n              mul\n              0x20\n              add\n              mload(0x40)\n              swap1\n              dup2\n              add\n              0x40\n              mstore\n              dup1\n              swap3\n              swap2\n              swap1\n              dup2\n              dup2\n              mstore\n              0x20\n              add\n              dup3\n              dup1\n              sload\n              tag_16\n              swap1\n              tag_10\n              jump\t// in\n            tag_16:\n              dup1\n              iszero\n              tag_17\n              jumpi\n              dup1\n              0x1f\n              lt\n              tag_18\n              jumpi\n              0x0100\n              dup1\n              dup4\n              sload\n              div\n              mul\n              dup4\n              mstore\n              swap2\n              0x20\n              add\n              swap2\n              jump(tag_17)\n            tag_18:\n              dup3\n              add\n              swap2\n              swap1\n              0x00\n              mstore\n              keccak256(0x00, 0x20)\n              swap1\n            tag_19:\n              dup2\n              sload\n              dup2\n              mstore\n              swap1\n              0x01\n              add\n              swap1\n              0x20\n              add\n              dup1\n              dup4\n              gt\n              tag_19\n              jumpi\n              dup3\n              swap1\n              sub\n              0x1f\n              and\n              dup3\n              add\n              swap2\n            tag_17:\n              pop\n              pop\n              pop\n              pop\n              pop\n              swap1\n              pop\n              swap3\n              pop\n              swap3\n              pop\n              swap3\n              pop\n                /* \"advance/08-factory.sol\":300:428  function getInfo() public view returns (string memory, uint256, string memory) {... */\n              swap1\n              swap2\n              swap3\n              jump\t// out\n                /* \"#utility.yul\":7:371   */\n            tag_21:\n                /* \"#utility.yul\":95:98   */\n              0x00\n                /* \"#utility.yul\":123:162   */\n              tag_23\n                /* \"#utility.yul\":156:161   */\n              dup3\n                /* \"#utility.yul\":123:162   */\n              tag_24\n              jump\t// in\n            tag_23:\n                /* \"#utility.yul\":178:249   */\n              tag_25\n                /* \"#utility.yul\":242:248   */\n              dup2\n                /* \"#utility.yul\":237:240   */\n              dup6\n                /* \"#utility.yul\":178:249   */\n              tag_26\n              jump\t// in\n            tag_25:\n                /* \"#utility.yul\":171:249   */\n              swap4\n              pop\n                /* \"#utility.yul\":258:310   */\n              tag_27\n                /* \"#utility.yul\":303:309   */\n              dup2\n                /* \"#utility.yul\":298:301   */\n              dup6\n                /* \"#utility.yul\":291:295   */\n              0x20\n                /* \"#utility.yul\":284:289   */\n              dup7\n                /* \"#utility.yul\":280:296   */\n              add\n                /* \"#utility.yul\":258:310   */\n              tag_28\n              jump\t// in\n            tag_27:\n                /* \"#utility.yul\":335:364   */\n              tag_29\n                /* \"#utility.yul\":357:363   */\n              dup2\n                /* \"#utility.yul\":335:364   */\n              tag_30\n              jump\t// in\n            tag_29:\n                /* \"#utility.yul\":330:333   */\n              dup5\n                /* \"#utility.yul\":326:365   */\n              add\n                /* \"#utility.yul\":319:365   */\n              swap2\n              pop\n                /* \"#utility.yul\":99:371   */\n              pop\n                /* \"#utility.yul\":7:371   */\n              swap3\n              swap2\n              pop\n              pop\n              jump\t// out\n                /* \"#utility.yul\":377:495   */\n            tag_31:\n                /* \"#utility.yul\":464:488   */\n              tag_33\n                /* \"#utility.yul\":482:487   */\n              dup2\n                /* \"#utility.yul\":464:488   */\n              tag_34\n              jump\t// in\n            tag_33:\n                /* \"#utility.yul\":459:462   */\n              dup3\n                /* \"#utility.yul\":452:489   */\n              mstore\n                /* \"#utility.yul\":377:495   */\n              pop\n              pop\n              jump\t// out\n                /* \"#utility.yul\":501:1125   */\n            tag_7:\n                /* \"#utility.yul\":690:694   */\n              0x00\n                /* \"#utility.yul\":728:730   */\n              0x60\n                /* \"#utility.yul\":717:726   */\n              dup3\n                /* \"#utility.yul\":713:731   */\n              add\n                /* \"#utility.yul\":705:731   */\n              swap1\n              pop\n                /* \"#utility.yul\":777:786   */\n              dup2\n                /* \"#utility.yul\":771:775   */\n              dup2\n                /* \"#utility.yul\":767:787   */\n              sub\n                /* \"#utility.yul\":763:764   */\n              0x00\n                /* \"#utility.yul\":752:761   */\n              dup4\n                /* \"#utility.yul\":748:765   */\n              add\n                /* \"#utility.yul\":741:788   */\n              mstore\n                /* \"#utility.yul\":805:883   */\n              tag_36\n                /* \"#utility.yul\":878:882   */\n              dup2\n                /* \"#utility.yul\":869:875   */\n              dup7\n                /* \"#utility.yul\":805:883   */\n              tag_21\n              jump\t// in\n            tag_36:\n                /* \"#utility.yul\":797:883   */\n              swap1\n              pop\n                /* \"#utility.yul\":893:965   */\n              tag_37\n                /* \"#utility.yul\":961:963   */\n              0x20\n                /* \"#utility.yul\":950:959   */\n              dup4\n                /* \"#utility.yul\":946:964   */\n              add\n                /* \"#utility.yul\":937:943   */\n              dup6\n                /* \"#utility.yul\":893:965   */\n              tag_31\n              jump\t// in\n            tag_37:\n                /* \"#utility.yul\":1012:1021   */\n              dup2\n                /* \"#utility.yul\":1006:1010   */\n              dup2\n                /* \"#utility.yul\":1002:1022   */\n              sub\n                /* \"#utility.yul\":997:999   */\n              0x40\n                /* \"#utility.yul\":986:995   */\n              dup4\n                /* \"#utility.yul\":982:1000   */\n              add\n                /* \"#utility.yul\":975:1023   */\n              mstore\n                /* \"#utility.yul\":1040:1118   */\n              tag_38\n                /* \"#utility.yul\":1113:1117   */\n              dup2\n                /* \"#utility.yul\":1104:1110   */\n              dup5\n                /* \"#utility.yul\":1040:1118   */\n              tag_21\n              jump\t// in\n            tag_38:\n                /* \"#utility.yul\":1032:1118   */\n              swap1\n              pop\n                /* \"#utility.yul\":501:1125   */\n              swap5\n              swap4\n              pop\n              pop\n              pop\n              pop\n              jump\t// out\n                /* \"#utility.yul\":1131:1230   */\n            tag_24:\n                /* \"#utility.yul\":1183:1189   */\n              0x00\n                /* \"#utility.yul\":1217:1222   */\n              dup2\n                /* \"#utility.yul\":1211:1223   */\n              mload\n                /* \"#utility.yul\":1201:1223   */\n              swap1\n              pop\n                /* \"#utility.yul\":1131:1230   */\n              swap2\n              swap1\n              pop\n              jump\t// out\n                /* \"#utility.yul\":1236:1405   */\n            tag_26:\n                /* \"#utility.yul\":1320:1331   */\n              0x00\n                /* \"#utility.yul\":1354:1360   */\n              dup3\n                /* \"#utility.yul\":1349:1352   */\n              dup3\n                /* \"#utility.yul\":1342:1361   */\n              mstore\n                /* \"#utility.yul\":1394:1398   */\n              0x20\n                /* \"#utility.yul\":1389:1392   */\n              dup3\n                /* \"#utility.yul\":1385:1399   */\n              add\n                /* \"#utility.yul\":1370:1399   */\n              swap1\n              pop\n                /* \"#utility.yul\":1236:1405   */\n              swap3\n              swap2\n              pop\n              pop\n              jump\t// out\n                /* \"#utility.yul\":1411:1488   */\n            tag_34:\n                /* \"#utility.yul\":1448:1455   */\n              0x00\n                /* \"#utility.yul\":1477:1482   */\n              dup2\n                /* \"#utility.yul\":1466:1482   */\n              swap1\n              pop\n                /* \"#utility.yul\":1411:1488   */\n              swap2\n              swap1\n              pop\n              jump\t// out\n                /* \"#utility.yul\":1494:1801   */\n            tag_28:\n                /* \"#utility.yul\":1562:1563   */\n              0x00\n                /* \"#utility.yul\":1572:1685   */\n            tag_43:\n                /* \"#utility.yul\":1586:1592   */\n              dup4\n                /* \"#utility.yul\":1583:1584   */\n              dup2\n                /* \"#utility.yul\":1580:1593   */\n              lt\n                /* \"#utility.yul\":1572:1685   */\n              iszero\n              tag_45\n              jumpi\n                /* \"#utility.yul\":1671:1672   */\n              dup1\n                /* \"#utility.yul\":1666:1669   */\n              dup3\n                /* \"#utility.yul\":1662:1673   */\n              add\n                /* \"#utility.yul\":1656:1674   */\n              mload\n                /* \"#utility.yul\":1652:1653   */\n              dup2\n                /* \"#utility.yul\":1647:1650   */\n              dup5\n                /* \"#utility.yul\":1643:1654   */\n              add\n                /* \"#utility.yul\":1636:1675   */\n              mstore\n                /* \"#utility.yul\":1608:1610   */\n              0x20\n                /* \"#utility.yul\":1605:1606   */\n              dup2\n                /* \"#utility.yul\":1601:1611   */\n              add\n                /* \"#utility.yul\":1596:1611   */\n              swap1\n              pop\n                /* \"#utility.yul\":1572:1685   */\n              jump(tag_43)\n            tag_45:\n                /* \"#utility.yul\":1703:1709   */\n              dup4\n                /* \"#utility.yul\":1700:1701   */\n              dup2\n                /* \"#utility.yul\":1697:1710   */\n              gt\n                /* \"#utility.yul\":1694:1795   */\n              iszero\n              tag_46\n              jumpi\n                /* \"#utility.yul\":1783:1784   */\n              0x00\n                /* \"#utility.yul\":1774:1780   */\n              dup5\n                /* \"#utility.yul\":1769:1772   */\n              dup5\n                /* \"#utility.yul\":1765:1781   */\n              add\n                /* \"#utility.yul\":1758:1785   */\n              mstore\n                /* \"#utility.yul\":1694:1795   */\n            tag_46:\n                /* \"#utility.yul\":1543:1801   */\n              pop\n                /* \"#utility.yul\":1494:1801   */\n              pop\n              pop\n              pop\n              jump\t// out\n                /* \"#utility.yul\":1807:2127   */\n            tag_10:\n                /* \"#utility.yul\":1851:1857   */\n              0x00\n                /* \"#utility.yul\":1888:1889   */\n              0x02\n                /* \"#utility.yul\":1882:1886   */\n              dup3\n                /* \"#utility.yul\":1878:1890   */\n              div\n                /* \"#utility.yul\":1868:1890   */\n              swap1\n              pop\n                /* \"#utility.yul\":1935:1936   */\n              0x01\n                /* \"#utility.yul\":1929:1933   */\n              dup3\n                /* \"#utility.yul\":1925:1937   */\n              and\n                /* \"#utility.yul\":1956:1974   */\n              dup1\n                /* \"#utility.yul\":1946:2027   */\n              tag_48\n              jumpi\n                /* \"#utility.yul\":2012:2016   */\n              0x7f\n                /* \"#utility.yul\":2004:2010   */\n              dup3\n                /* \"#utility.yul\":2000:2017   */\n              and\n                /* \"#utility.yul\":1990:2017   */\n              swap2\n              pop\n                /* \"#utility.yul\":1946:2027   */\n            tag_48:\n                /* \"#utility.yul\":2074:2076   */\n              0x20\n                /* \"#utility.yul\":2066:2072   */\n              dup3\n                /* \"#utility.yul\":2063:2077   */\n              lt\n                /* \"#utility.yul\":2043:2061   */\n              dup2\n                /* \"#utility.yul\":2040:2078   */\n              eq\n                /* \"#utility.yul\":2037:2121   */\n              iszero\n              tag_49\n              jumpi\n                /* \"#utility.yul\":2093:2111   */\n              tag_50\n              tag_51\n              jump\t// in\n            tag_50:\n                /* \"#utility.yul\":2037:2121   */\n            tag_49:\n                /* \"#utility.yul\":1858:2127   */\n              pop\n                /* \"#utility.yul\":1807:2127   */\n              swap2\n              swap1\n              pop\n              jump\t// out\n                /* \"#utility.yul\":2133:2313   */\n            tag_51:\n                /* \"#utility.yul\":2181:2258   */\n              0x4e487b7100000000000000000000000000000000000000000000000000000000\n                /* \"#utility.yul\":2178:2179   */\n              0x00\n                /* \"#utility.yul\":2171:2259   */\n              mstore\n                /* \"#utility.yul\":2278:2282   */\n              0x22\n                /* \"#utility.yul\":2275:2276   */\n              0x04\n                /* \"#utility.yul\":2268:2283   */\n              mstore\n                /* \"#utility.yul\":2302:2306   */\n              0x24\n                /* \"#utility.yul\":2299:2300   */\n              0x00\n                /* \"#utility.yul\":2292:2307   */\n              revert\n                /* \"#utility.yul\":2319:2421   */\n            tag_30:\n                /* \"#utility.yul\":2360:2366   */\n              0x00\n                /* \"#utility.yul\":2411:2413   */\n              0x1f\n                /* \"#utility.yul\":2407:2414   */\n              not\n                /* \"#utility.yul\":2402:2404   */\n              0x1f\n                /* \"#utility.yul\":2395:2400   */\n              dup4\n                /* \"#utility.yul\":2391:2405   */\n              add\n                /* \"#utility.yul\":2387:2415   */\n              and\n                /* \"#utility.yul\":2377:2415   */\n              swap1\n              pop\n                /* \"#utility.yul\":2319:2421   */\n              swap2\n              swap1\n              pop\n              jump\t// out\n\n            auxdata: 0xa2646970667358221220b79e9cfe194dcdb39b6ec3c5be8fb061243cf2339adb9a44d38384acecbbc84b64736f6c63430008070033\n        }\n    }\n\n    auxdata: 0xa264697066735822122038668f63dfe55519ed3d32a3e75e0e01acea0e092cd5915e2bd76f29787c6be164736f6c63430008070033\n}\n",
				"bytecode": {
					"linkReferences": {},
					"object": "608060405234801561001057600080fd5b50610d2e806100206000396000f3fe60806040523480156200001157600080fd5b50600436106200003a5760003560e01c806350296a87146200003f578063abfe5d57146200005f575b600080fd5b6200005d60048036038101906200005791906200025e565b62000081565b005b620000696200012b565b604051620000789190620003df565b60405180910390f35b60008383836040516200009490620001bb565b620000a29392919062000403565b604051809103906000f080158015620000bf573d6000803e3d6000fd5b5090506000819080600181540180825580915050600190039060005260206000200160009091909190916101000a81548173ffffffffffffffffffffffffffffffffffffffff021916908373ffffffffffffffffffffffffffffffffffffffff16021790555050505050565b60606000805480602002602001604051908101604052809291908181526020018280548015620001b157602002820191906000526020600020905b8160009054906101000a900473ffffffffffffffffffffffffffffffffffffffff1673ffffffffffffffffffffffffffffffffffffffff168152602001906001019080831162000166575b5050505050905090565b6106cf806200062a83390190565b6000620001e0620001da8462000477565b6200044e565b905082815260208101848484011115620001ff57620001fe620005ef565b5b6200020c84828562000540565b509392505050565b600082601f8301126200022c576200022b620005ea565b5b81356200023e848260208601620001c9565b91505092915050565b60008135905062000258816200060f565b92915050565b6000806000606084860312156200027a5762000279620005f9565b5b600084013567ffffffffffffffff8111156200029b576200029a620005f4565b5b620002a98682870162000214565b9350506020620002bc8682870162000247565b925050604084013567ffffffffffffffff811115620002e057620002df620005f4565b5b620002ee8682870162000214565b9150509250925092565b600062000306838362000312565b60208301905092915050565b6200031d8162000502565b82525050565b60006200033082620004bd565b6200033c8185620004e0565b93506200034983620004ad565b8060005b8381101562000380578151620003648882620002f8565b97506200037183620004d3565b9250506001810190506200034d565b5085935050505092915050565b60006200039a82620004c8565b620003a68185620004f1565b9350620003b88185602086016200054f565b620003c381620005fe565b840191505092915050565b620003d98162000536565b82525050565b60006020820190508181036000830152620003fb818462000323565b905092915050565b600060608201905081810360008301526200041f81866200038d565b9050620004306020830185620003ce565b81810360408301526200044481846200038d565b9050949350505050565b60006200045a6200046d565b905062000468828262000585565b919050565b6000604051905090565b600067ffffffffffffffff821115620004955762000494620005bb565b5b620004a082620005fe565b9050602081019050919050565b6000819050602082019050919050565b600081519050919050565b600081519050919050565b6000602082019050919050565b600082825260208201905092915050565b600082825260208201905092915050565b60006200050f8262000516565b9050919050565b600073ffffffffffffffffffffffffffffffffffffffff82169050919050565b6000819050919050565b82818337600083830152505050565b60005b838110156200056f57808201518184015260208101905062000552565b838111156200057f576000848401525b50505050565b6200059082620005fe565b810181811067ffffffffffffffff82111715620005b257620005b1620005bb565b5b80604052505050565b7f4e487b7100000000000000000000000000000000000000000000000000000000600052604160045260246000fd5b600080fd5b600080fd5b600080fd5b600080fd5b6000601f19601f8301169050919050565b6200061a8162000536565b81146200062657600080fd5b5056fe608060405234801561001057600080fd5b506040516106cf3803806106cf83398181016040528101906100329190610197565b826000908051906020019061004892919061006f565b5081600181905550806002908051906020019061006692919061006f565b505050506103b2565b82805461007b906102b5565b90600052602060002090601f01602090048101928261009d57600085556100e4565b82601f106100b657805160ff19168380011785556100e4565b828001600101855582156100e4579182015b828111156100e35782518255916020019190600101906100c8565b5b5090506100f191906100f5565b5090565b5b8082111561010e5760008160009055506001016100f6565b5090565b600061012561012084610247565b610222565b9050828152602081018484840111156101415761014061037b565b5b61014c848285610282565b509392505050565b600082601f83011261016957610168610376565b5b8151610179848260208601610112565b91505092915050565b6000815190506101918161039b565b92915050565b6000806000606084860312156101b0576101af610385565b5b600084015167ffffffffffffffff8111156101ce576101cd610380565b5b6101da86828701610154565b93505060206101eb86828701610182565b925050604084015167ffffffffffffffff81111561020c5761020b610380565b5b61021886828701610154565b9150509250925092565b600061022c61023d565b905061023882826102e7565b919050565b6000604051905090565b600067ffffffffffffffff82111561026257610261610347565b5b61026b8261038a565b9050602081019050919050565b6000819050919050565b60005b838110156102a0578082015181840152602081019050610285565b838111156102af576000848401525b50505050565b600060028204905060018216806102cd57607f821691505b602082108114156102e1576102e0610318565b5b50919050565b6102f08261038a565b810181811067ffffffffffffffff8211171561030f5761030e610347565b5b80604052505050565b7f4e487b7100000000000000000000000000000000000000000000000000000000600052602260045260246000fd5b7f4e487b7100000000000000000000000000000000000000000000000000000000600052604160045260246000fd5b600080fd5b600080fd5b600080fd5b600080fd5b6000601f19601f8301169050919050565b6103a481610278565b81146103af57600080fd5b50565b61030e806103c16000396000f3fe608060405234801561001057600080fd5b506004361061002b5760003560e01c80635a9b0b8914610030575b600080fd5b610038610050565b604051610047939291906101c8565b60405180910390f35b6060600060606000600154600282805461006990610266565b80601f016020809104026020016040519081016040528092919081815260200182805461009590610266565b80156100e25780601f106100b7576101008083540402835291602001916100e2565b820191906000526020600020905b8154815290600101906020018083116100c557829003601f168201915b505050505092508080546100f590610266565b80601f016020809104026020016040519081016040528092919081815260200182805461012190610266565b801561016e5780601f106101435761010080835404028352916020019161016e565b820191906000526020600020905b81548152906001019060200180831161015157829003601f168201915b50505050509050925092509250909192565b600061018b8261020d565b6101958185610218565b93506101a5818560208601610233565b6101ae816102c7565b840191505092915050565b6101c281610229565b82525050565b600060608201905081810360008301526101e28186610180565b90506101f160208301856101b9565b81810360408301526102038184610180565b9050949350505050565b600081519050919050565b600082825260208201905092915050565b6000819050919050565b60005b83811015610251578082015181840152602081019050610236565b83811115610260576000848401525b50505050565b6000600282049050600182168061027e57607f821691505b6020821081141561029257610291610298565b5b50919050565b7f4e487b7100000000000000000000000000000000000000000000000000000000600052602260045260246000fd5b6000601f19601f830116905091905056fea2646970667358221220b79e9cfe194dcdb39b6ec3c5be8fb061243cf2339adb9a44d38384acecbbc84b64736f6c63430008070033a264697066735822122038668f63dfe55519ed3d32a3e75e0e01acea0e092cd5915e2bd76f29787c6be164736f6c63430008070033",
					"opcodes": "PUSH1 0x80 PUSH1 0x40 MSTORE CALLVALUE DUP1 ISZERO PUSH2 0x10 JUMPI PUSH1 0x0 DUP1 REVERT JUMPDEST POP PUSH2 0xD2E DUP1 PUSH2 0x20 PUSH1 0x0 CODECOPY PUSH1 0x0 RETURN INVALID PUSH1 0x80 PUSH1 0x40 MSTORE CALLVALUE DUP1 ISZERO PUSH3 0x11 JUMPI PUSH1 0x0 DUP1 REVERT JUMPDEST POP PUSH1 0x4 CALLDATASIZE LT PUSH3 0x3A JUMPI PUSH1 0x0 CALLDATALOAD PUSH1 0xE0 SHR DUP1 PUSH4 0x50296A87 EQ PUSH3 0x3F JUMPI DUP1 PUSH4 0xABFE5D57 EQ PUSH3 0x5F JUMPI JUMPDEST PUSH1 0x0 DUP1 REVERT JUMPDEST PUSH3 0x5D PUSH1 0x4 DUP1 CALLDATASIZE SUB DUP2 ADD SWAP1 PUSH3 0x57 SWAP2 SWAP1 PUSH3 0x25E JUMP JUMPDEST PUSH3 0x81 JUMP JUMPDEST STOP JUMPDEST PUSH3 0x69 PUSH3 0x12B JUMP JUMPDEST PUSH1 0x40 MLOAD PUSH3 0x78 SWAP2 SWAP1 PUSH3 0x3DF JUMP JUMPDEST PUSH1 0x40 MLOAD DUP1 SWAP2 SUB SWAP1 RETURN JUMPDEST PUSH1 0x0 DUP4 DUP4 DUP4 PUSH1 0x40 MLOAD PUSH3 0x94 SWAP1 PUSH3 0x1BB JUMP JUMPDEST PUSH3 0xA2 SWAP4 SWAP3 SWAP2 SWAP1 PUSH3 0x403 JUMP JUMPDEST PUSH1 0x40 MLOAD DUP1 SWAP2 SUB SWAP1 PUSH1 0x0 CREATE DUP1 ISZERO DUP1 ISZERO PUSH3 0xBF JUMPI RETURNDATASIZE PUSH1 0x0 DUP1 RETURNDATACOPY RETURNDATASIZE PUSH1 0x0 REVERT JUMPDEST POP SWAP1 POP PUSH1 0x0 DUP2 SWAP1 DUP1 PUSH1 0x1 DUP2 SLOAD ADD DUP1 DUP3 SSTORE DUP1 SWAP2 POP POP PUSH1 0x1 SWAP1 SUB SWAP1 PUSH1 0x0 MSTORE PUSH1 0x20 PUSH1 0x0 KECCAK256 ADD PUSH1 0x0 SWAP1 SWAP2 SWAP1 SWAP2 SWAP1 SWAP2 PUSH2 0x100 EXP DUP2 SLOAD DUP2 PUSH20 0xFFFFFFFFFFFFFFFFFFFFFFFFFFFFFFFFFFFFFFFF MUL NOT AND SWAP1 DUP4 PUSH20 0xFFFFFFFFFFFFFFFFFFFFFFFFFFFFFFFFFFFFFFFF AND MUL OR SWAP1 SSTORE POP POP POP POP POP JUMP JUMPDEST PUSH1 0x60 PUSH1 0x0 DUP1 SLOAD DUP1 PUSH1 0x20 MUL PUSH1 0x20 ADD PUSH1 0x40 MLOAD SWAP1 DUP2 ADD PUSH1 0x40 MSTORE DUP1 SWAP3 SWAP2 SWAP1 DUP2 DUP2 MSTORE PUSH1 0x20 ADD DUP3 DUP1 SLOAD DUP1 ISZERO PUSH3 0x1B1 JUMPI PUSH1 0x20 MUL DUP3 ADD SWAP2 SWAP1 PUSH1 0x0 MSTORE PUSH1 0x20 PUSH1 0x0 KECCAK256 SWAP1 JUMPDEST DUP2 PUSH1 0x0 SWAP1 SLOAD SWAP1 PUSH2 0x100 EXP SWAP1 DIV PUSH20 0xFFFFFFFFFFFFFFFFFFFFFFFFFFFFFFFFFFFFFFFF AND PUSH20 0xFFFFFFFFFFFFFFFFFFFFFFFFFFFFFFFFFFFFFFFF AND DUP2 MSTORE PUSH1 0x20 ADD SWAP1 PUSH1 0x1 ADD SWAP1 DUP1 DUP4 GT PUSH3 0x166 JUMPI JUMPDEST POP POP POP POP POP SWAP1 POP SWAP1 JUMP JUMPDEST PUSH2 0x6CF DUP1 PUSH3 0x62A DUP4 CODECOPY ADD SWAP1 JUMP JUMPDEST PUSH1 0x0 PUSH3 0x1E0 PUSH3 0x1DA DUP5 PUSH3 0x477 JUMP JUMPDEST PUSH3 0x44E JUMP JUMPDEST SWAP1 POP DUP3 DUP2 MSTORE PUSH1 0x20 DUP2 ADD DUP5 DUP5 DUP5 ADD GT ISZERO PUSH3 0x1FF JUMPI PUSH3 0x1FE PUSH3 0x5EF JUMP JUMPDEST JUMPDEST PUSH3 0x20C DUP5 DUP3 DUP6 PUSH3 0x540 JUMP JUMPDEST POP SWAP4 SWAP3 POP POP POP JUMP JUMPDEST PUSH1 0x0 DUP3 PUSH1 0x1F DUP4 ADD SLT PUSH3 0x22C JUMPI PUSH3 0x22B PUSH3 0x5EA JUMP JUMPDEST JUMPDEST DUP2 CALLDATALOAD PUSH3 0x23E DUP5 DUP3 PUSH1 0x20 DUP7 ADD PUSH3 0x1C9 JUMP JUMPDEST SWAP2 POP POP SWAP3 SWAP2 POP POP JUMP JUMPDEST PUSH1 0x0 DUP2 CALLDATALOAD SWAP1 POP PUSH3 0x258 DUP2 PUSH3 0x60F JUMP JUMPDEST SWAP3 SWAP2 POP POP JUMP JUMPDEST PUSH1 0x0 DUP1 PUSH1 0x0 PUSH1 0x60 DUP5 DUP7 SUB SLT ISZERO PUSH3 0x27A JUMPI PUSH3 0x279 PUSH3 0x5F9 JUMP JUMPDEST JUMPDEST PUSH1 0x0 DUP5 ADD CALLDATALOAD PUSH8 0xFFFFFFFFFFFFFFFF DUP2 GT ISZERO PUSH3 0x29B JUMPI PUSH3 0x29A PUSH3 0x5F4 JUMP JUMPDEST JUMPDEST PUSH3 0x2A9 DUP7 DUP3 DUP8 ADD PUSH3 0x214 JUMP JUMPDEST SWAP4 POP POP PUSH1 0x20 PUSH3 0x2BC DUP7 DUP3 DUP8 ADD PUSH3 0x247 JUMP JUMPDEST SWAP3 POP POP PUSH1 0x40 DUP5 ADD CALLDATALOAD PUSH8 0xFFFFFFFFFFFFFFFF DUP2 GT ISZERO PUSH3 0x2E0 JUMPI PUSH3 0x2DF PUSH3 0x5F4 JUMP JUMPDEST JUMPDEST PUSH3 0x2EE DUP7 DUP3 DUP8 ADD PUSH3 0x214 JUMP JUMPDEST SWAP2 POP POP SWAP3 POP SWAP3 POP SWAP3 JUMP JUMPDEST PUSH1 0x0 PUSH3 0x306 DUP4 DUP4 PUSH3 0x312 JUMP JUMPDEST PUSH1 0x20 DUP4 ADD SWAP1 POP SWAP3 SWAP2 POP POP JUMP JUMPDEST PUSH3 0x31D DUP2 PUSH3 0x502 JUMP JUMPDEST DUP3 MSTORE POP POP JUMP JUMPDEST PUSH1 0x0 PUSH3 0x330 DUP3 PUSH3 0x4BD JUMP JUMPDEST PUSH3 0x33C DUP2 DUP6 PUSH3 0x4E0 JUMP JUMPDEST SWAP4 POP PUSH3 0x349 DUP4 PUSH3 0x4AD JUMP JUMPDEST DUP1 PUSH1 0x0 JUMPDEST DUP4 DUP2 LT ISZERO PUSH3 0x380 JUMPI DUP2 MLOAD PUSH3 0x364 DUP9 DUP3 PUSH3 0x2F8 JUMP JUMPDEST SWAP8 POP PUSH3 0x371 DUP4 PUSH3 0x4D3 JUMP JUMPDEST SWAP3 POP POP PUSH1 0x1 DUP2 ADD SWAP1 POP PUSH3 0x34D JUMP JUMPDEST POP DUP6 SWAP4 POP POP POP POP SWAP3 SWAP2 POP POP JUMP JUMPDEST PUSH1 0x0 PUSH3 0x39A DUP3 PUSH3 0x4C8 JUMP JUMPDEST PUSH3 0x3A6 DUP2 DUP6 PUSH3 0x4F1 JUMP JUMPDEST SWAP4 POP PUSH3 0x3B8 DUP2 DUP6 PUSH1 0x20 DUP7 ADD PUSH3 0x54F JUMP JUMPDEST PUSH3 0x3C3 DUP2 PUSH3 0x5FE JUMP JUMPDEST DUP5 ADD SWAP2 POP POP SWAP3 SWAP2 POP POP JUMP JUMPDEST PUSH3 0x3D9 DUP2 PUSH3 0x536 JUMP JUMPDEST DUP3 MSTORE POP POP JUMP JUMPDEST PUSH1 0x0 PUSH1 0x20 DUP3 ADD SWAP1 POP DUP2 DUP2 SUB PUSH1 0x0 DUP4 ADD MSTORE PUSH3 0x3FB DUP2 DUP5 PUSH3 0x323 JUMP JUMPDEST SWAP1 POP SWAP3 SWAP2 POP POP JUMP JUMPDEST PUSH1 0x0 PUSH1 0x60 DUP3 ADD SWAP1 POP DUP2 DUP2 SUB PUSH1 0x0 DUP4 ADD MSTORE PUSH3 0x41F DUP2 DUP7 PUSH3 0x38D JUMP JUMPDEST SWAP1 POP PUSH3 0x430 PUSH1 0x20 DUP4 ADD DUP6 PUSH3 0x3CE JUMP JUMPDEST DUP2 DUP2 SUB PUSH1 0x40 DUP4 ADD MSTORE PUSH3 0x444 DUP2 DUP5 PUSH3 0x38D JUMP JUMPDEST SWAP1 POP SWAP5 SWAP4 POP POP POP POP JUMP JUMPDEST PUSH1 0x0 PUSH3 0x45A PUSH3 0x46D JUMP JUMPDEST SWAP1 POP PUSH3 0x468 DUP3 DUP3 PUSH3 0x585 JUMP JUMPDEST SWAP2 SWAP1 POP JUMP JUMPDEST PUSH1 0x0 PUSH1 0x40 MLOAD SWAP1 POP SWAP1 JUMP JUMPDEST PUSH1 0x0 PUSH8 0xFFFFFFFFFFFFFFFF DUP3 GT ISZERO PUSH3 0x495 JUMPI PUSH3 0x494 PUSH3 0x5BB JUMP JUMPDEST JUMPDEST PUSH3 0x4A0 DUP3 PUSH3 0x5FE JUMP JUMPDEST SWAP1 POP PUSH1 0x20 DUP2 ADD SWAP1 POP SWAP2 SWAP1 POP JUMP JUMPDEST PUSH1 0x0 DUP2 SWAP1 POP PUSH1 0x20 DUP3 ADD SWAP1 POP SWAP2 SWAP1 POP JUMP JUMPDEST PUSH1 0x0 DUP2 MLOAD SWAP1 POP SWAP2 SWAP1 POP JUMP JUMPDEST PUSH1 0x0 DUP2 MLOAD SWAP1 POP SWAP2 SWAP1 POP JUMP JUMPDEST PUSH1 0x0 PUSH1 0x20 DUP3 ADD SWAP1 POP SWAP2 SWAP1 POP JUMP JUMPDEST PUSH1 0x0 DUP3 DUP3 MSTORE PUSH1 0x20 DUP3 ADD SWAP1 POP SWAP3 SWAP2 POP POP JUMP JUMPDEST PUSH1 0x0 DUP3 DUP3 MSTORE PUSH1 0x20 DUP3 ADD SWAP1 POP SWAP3 SWAP2 POP POP JUMP JUMPDEST PUSH1 0x0 PUSH3 0x50F DUP3 PUSH3 0x516 JUMP JUMPDEST SWAP1 POP SWAP2 SWAP1 POP JUMP JUMPDEST PUSH1 0x0 PUSH20 0xFFFFFFFFFFFFFFFFFFFFFFFFFFFFFFFFFFFFFFFF DUP3 AND SWAP1 POP SWAP2 SWAP1 POP JUMP JUMPDEST PUSH1 0x0 DUP2 SWAP1 POP SWAP2 SWAP1 POP JUMP JUMPDEST DUP3 DUP2 DUP4 CALLDATACOPY PUSH1 0x0 DUP4 DUP4 ADD MSTORE POP POP POP JUMP JUMPDEST PUSH1 0x0 JUMPDEST DUP4 DUP2 LT ISZERO PUSH3 0x56F JUMPI DUP1 DUP3 ADD MLOAD DUP2 DUP5 ADD MSTORE PUSH1 0x20 DUP2 ADD SWAP1 POP PUSH3 0x552 JUMP JUMPDEST DUP4 DUP2 GT ISZERO PUSH3 0x57F JUMPI PUSH1 0x0 DUP5 DUP5 ADD MSTORE JUMPDEST POP POP POP POP JUMP JUMPDEST PUSH3 0x590 DUP3 PUSH3 0x5FE JUMP JUMPDEST DUP2 ADD DUP2 DUP2 LT PUSH8 0xFFFFFFFFFFFFFFFF DUP3 GT OR ISZERO PUSH3 0x5B2 JUMPI PUSH3 0x5B1 PUSH3 0x5BB JUMP JUMPDEST JUMPDEST DUP1 PUSH1 0x40 MSTORE POP POP POP JUMP JUMPDEST PUSH32 0x4E487B7100000000000000000000000000000000000000000000000000000000 PUSH1 0x0 MSTORE PUSH1 0x41 PUSH1 0x4 MSTORE PUSH1 0x24 PUSH1 0x0 REVERT JUMPDEST PUSH1 0x0 DUP1 REVERT JUMPDEST PUSH1 0x0 DUP1 REVERT JUMPDEST PUSH1 0x0 DUP1 REVERT JUMPDEST PUSH1 0x0 DUP1 REVERT JUMPDEST PUSH1 0x0 PUSH1 0x1F NOT PUSH1 0x1F DUP4 ADD AND SWAP1 POP SWAP2 SWAP1 POP JUMP JUMPDEST PUSH3 0x61A DUP2 PUSH3 0x536 JUMP JUMPDEST DUP2 EQ PUSH3 0x626 JUMPI PUSH1 0x0 DUP1 REVERT JUMPDEST POP JUMP INVALID PUSH1 0x80 PUSH1 0x40 MSTORE CALLVALUE DUP1 ISZERO PUSH2 0x10 JUMPI PUSH1 0x0 DUP1 REVERT JUMPDEST POP PUSH1 0x40 MLOAD PUSH2 0x6CF CODESIZE SUB DUP1 PUSH2 0x6CF DUP4 CODECOPY DUP2 DUP2 ADD PUSH1 0x40 MSTORE DUP2 ADD SWAP1 PUSH2 0x32 SWAP2 SWAP1 PUSH2 0x197 JUMP JUMPDEST DUP3 PUSH1 0x0 SWAP1 DUP1 MLOAD SWAP1 PUSH1 0x20 ADD SWAP1 PUSH2 0x48 SWAP3 SWAP2 SWAP1 PUSH2 0x6F JUMP JUMPDEST POP DUP2 PUSH1 0x1 DUP2 SWAP1 SSTORE POP DUP1 PUSH1 0x2 SWAP1 DUP1 MLOAD SWAP1 PUSH1 0x20 ADD SWAP1 PUSH2 0x66 SWAP3 SWAP2 SWAP1 PUSH2 0x6F JUMP JUMPDEST POP POP POP POP PUSH2 0x3B2 JUMP JUMPDEST DUP3 DUP1 SLOAD PUSH2 0x7B SWAP1 PUSH2 0x2B5 JUMP JUMPDEST SWAP1 PUSH1 0x0 MSTORE PUSH1 0x20 PUSH1 0x0 KECCAK256 SWAP1 PUSH1 0x1F ADD PUSH1 0x20 SWAP1 DIV DUP2 ADD SWAP3 DUP3 PUSH2 0x9D JUMPI PUSH1 0x0 DUP6 SSTORE PUSH2 0xE4 JUMP JUMPDEST DUP3 PUSH1 0x1F LT PUSH2 0xB6 JUMPI DUP1 MLOAD PUSH1 0xFF NOT AND DUP4 DUP1 ADD OR DUP6 SSTORE PUSH2 0xE4 JUMP JUMPDEST DUP3 DUP1 ADD PUSH1 0x1 ADD DUP6 SSTORE DUP3 ISZERO PUSH2 0xE4 JUMPI SWAP2 DUP3 ADD JUMPDEST DUP3 DUP2 GT ISZERO PUSH2 0xE3 JUMPI DUP3 MLOAD DUP3 SSTORE SWAP2 PUSH1 0x20 ADD SWAP2 SWAP1 PUSH1 0x1 ADD SWAP1 PUSH2 0xC8 JUMP JUMPDEST JUMPDEST POP SWAP1 POP PUSH2 0xF1 SWAP2 SWAP1 PUSH2 0xF5 JUMP JUMPDEST POP SWAP1 JUMP JUMPDEST JUMPDEST DUP1 DUP3 GT ISZERO PUSH2 0x10E JUMPI PUSH1 0x0 DUP2 PUSH1 0x0 SWAP1 SSTORE POP PUSH1 0x1 ADD PUSH2 0xF6 JUMP JUMPDEST POP SWAP1 JUMP JUMPDEST PUSH1 0x0 PUSH2 0x125 PUSH2 0x120 DUP5 PUSH2 0x247 JUMP JUMPDEST PUSH2 0x222 JUMP JUMPDEST SWAP1 POP DUP3 DUP2 MSTORE PUSH1 0x20 DUP2 ADD DUP5 DUP5 DUP5 ADD GT ISZERO PUSH2 0x141 JUMPI PUSH2 0x140 PUSH2 0x37B JUMP JUMPDEST JUMPDEST PUSH2 0x14C DUP5 DUP3 DUP6 PUSH2 0x282 JUMP JUMPDEST POP SWAP4 SWAP3 POP POP POP JUMP JUMPDEST PUSH1 0x0 DUP3 PUSH1 0x1F DUP4 ADD SLT PUSH2 0x169 JUMPI PUSH2 0x168 PUSH2 0x376 JUMP JUMPDEST JUMPDEST DUP2 MLOAD PUSH2 0x179 DUP5 DUP3 PUSH1 0x20 DUP7 ADD PUSH2 0x112 JUMP JUMPDEST SWAP2 POP POP SWAP3 SWAP2 POP POP JUMP JUMPDEST PUSH1 0x0 DUP2 MLOAD SWAP1 POP PUSH2 0x191 DUP2 PUSH2 0x39B JUMP JUMPDEST SWAP3 SWAP2 POP POP JUMP JUMPDEST PUSH1 0x0 DUP1 PUSH1 0x0 PUSH1 0x60 DUP5 DUP7 SUB SLT ISZERO PUSH2 0x1B0 JUMPI PUSH2 0x1AF PUSH2 0x385 JUMP JUMPDEST JUMPDEST PUSH1 0x0 DUP5 ADD MLOAD PUSH8 0xFFFFFFFFFFFFFFFF DUP2 GT ISZERO PUSH2 0x1CE JUMPI PUSH2 0x1CD PUSH2 0x380 JUMP JUMPDEST JUMPDEST PUSH2 0x1DA DUP7 DUP3 DUP8 ADD PUSH2 0x154 JUMP JUMPDEST SWAP4 POP POP PUSH1 0x20 PUSH2 0x1EB DUP7 DUP3 DUP8 ADD PUSH2 0x182 JUMP JUMPDEST SWAP3 POP POP PUSH1 0x40 DUP5 ADD MLOAD PUSH8 0xFFFFFFFFFFFFFFFF DUP2 GT ISZERO PUSH2 0x20C JUMPI PUSH2 0x20B PUSH2 0x380 JUMP JUMPDEST JUMPDEST PUSH2 0x218 DUP7 DUP3 DUP8 ADD PUSH2 0x154 JUMP JUMPDEST SWAP2 POP POP SWAP3 POP SWAP3 POP SWAP3 JUMP JUMPDEST PUSH1 0x0 PUSH2 0x22C PUSH2 0x23D JUMP JUMPDEST SWAP1 POP PUSH2 0x238 DUP3 DUP3 PUSH2 0x2E7 JUMP JUMPDEST SWAP2 SWAP1 POP JUMP JUMPDEST PUSH1 0x0 PUSH1 0x40 MLOAD SWAP1 POP SWAP1 JUMP JUMPDEST PUSH1 0x0 PUSH8 0xFFFFFFFFFFFFFFFF DUP3 GT ISZERO PUSH2 0x262 JUMPI PUSH2 0x261 PUSH2 0x347 JUMP JUMPDEST JUMPDEST PUSH2 0x26B DUP3 PUSH2 0x38A JUMP JUMPDEST SWAP1 POP PUSH1 0x20 DUP2 ADD SWAP1 POP SWAP2 SWAP1 POP JUMP JUMPDEST PUSH1 0x0 DUP2 SWAP1 POP SWAP2 SWAP1 POP JUMP JUMPDEST PUSH1 0x0 JUMPDEST DUP4 DUP2 LT ISZERO PUSH2 0x2A0 JUMPI DUP1 DUP3 ADD MLOAD DUP2 DUP5 ADD MSTORE PUSH1 0x20 DUP2 ADD SWAP1 POP PUSH2 0x285 JUMP JUMPDEST DUP4 DUP2 GT ISZERO PUSH2 0x2AF JUMPI PUSH1 0x0 DUP5 DUP5 ADD MSTORE JUMPDEST POP POP POP POP JUMP JUMPDEST PUSH1 0x0 PUSH1 0x2 DUP3 DIV SWAP1 POP PUSH1 0x1 DUP3 AND DUP1 PUSH2 0x2CD JUMPI PUSH1 0x7F DUP3 AND SWAP2 POP JUMPDEST PUSH1 0x20 DUP3 LT DUP2 EQ ISZERO PUSH2 0x2E1 JUMPI PUSH2 0x2E0 PUSH2 0x318 JUMP JUMPDEST JUMPDEST POP SWAP2 SWAP1 POP JUMP JUMPDEST PUSH2 0x2F0 DUP3 PUSH2 0x38A JUMP JUMPDEST DUP2 ADD DUP2 DUP2 LT PUSH8 0xFFFFFFFFFFFFFFFF DUP3 GT OR ISZERO PUSH2 0x30F JUMPI PUSH2 0x30E PUSH2 0x347 JUMP JUMPDEST JUMPDEST DUP1 PUSH1 0x40 MSTORE POP POP POP JUMP JUMPDEST PUSH32 0x4E487B7100000000000000000000000000000000000000000000000000000000 PUSH1 0x0 MSTORE PUSH1 0x22 PUSH1 0x4 MSTORE PUSH1 0x24 PUSH1 0x0 REVERT JUMPDEST PUSH32 0x4E487B7100000000000000000000000000000000000000000000000000000000 PUSH1 0x0 MSTORE PUSH1 0x41 PUSH1 0x4 MSTORE PUSH1 0x24 PUSH1 0x0 REVERT JUMPDEST PUSH1 0x0 DUP1 REVERT JUMPDEST PUSH1 0x0 DUP1 REVERT JUMPDEST PUSH1 0x0 DUP1 REVERT JUMPDEST PUSH1 0x0 DUP1 REVERT JUMPDEST PUSH1 0x0 PUSH1 0x1F NOT PUSH1 0x1F DUP4 ADD AND SWAP1 POP SWAP2 SWAP1 POP JUMP JUMPDEST PUSH2 0x3A4 DUP2 PUSH2 0x278 JUMP JUMPDEST DUP2 EQ PUSH2 0x3AF JUMPI PUSH1 0x0 DUP1 REVERT JUMPDEST POP JUMP JUMPDEST PUSH2 0x30E DUP1 PUSH2 0x3C1 PUSH1 0x0 CODECOPY PUSH1 0x0 RETURN INVALID PUSH1 0x80 PUSH1 0x40 MSTORE CALLVALUE DUP1 ISZERO PUSH2 0x10 JUMPI PUSH1 0x0 DUP1 REVERT JUMPDEST POP PUSH1 0x4 CALLDATASIZE LT PUSH2 0x2B JUMPI PUSH1 0x0 CALLDATALOAD PUSH1 0xE0 SHR DUP1 PUSH4 0x5A9B0B89 EQ PUSH2 0x30 JUMPI JUMPDEST PUSH1 0x0 DUP1 REVERT JUMPDEST PUSH2 0x38 PUSH2 0x50 JUMP JUMPDEST PUSH1 0x40 MLOAD PUSH2 0x47 SWAP4 SWAP3 SWAP2 SWAP1 PUSH2 0x1C8 JUMP JUMPDEST PUSH1 0x40 MLOAD DUP1 SWAP2 SUB SWAP1 RETURN JUMPDEST PUSH1 0x60 PUSH1 0x0 PUSH1 0x60 PUSH1 0x0 PUSH1 0x1 SLOAD PUSH1 0x2 DUP3 DUP1 SLOAD PUSH2 0x69 SWAP1 PUSH2 0x266 JUMP JUMPDEST DUP1 PUSH1 0x1F ADD PUSH1 0x20 DUP1 SWAP2 DIV MUL PUSH1 0x20 ADD PUSH1 0x40 MLOAD SWAP1 DUP2 ADD PUSH1 0x40 MSTORE DUP1 SWAP3 SWAP2 SWAP1 DUP2 DUP2 MSTORE PUSH1 0x20 ADD DUP3 DUP1 SLOAD PUSH2 0x95 SWAP1 PUSH2 0x266 JUMP JUMPDEST DUP1 ISZERO PUSH2 0xE2 JUMPI DUP1 PUSH1 0x1F LT PUSH2 0xB7 JUMPI PUSH2 0x100 DUP1 DUP4 SLOAD DIV MUL DUP4 MSTORE SWAP2 PUSH1 0x20 ADD SWAP2 PUSH2 0xE2 JUMP JUMPDEST DUP3 ADD SWAP2 SWAP1 PUSH1 0x0 MSTORE PUSH1 0x20 PUSH1 0x0 KECCAK256 SWAP1 JUMPDEST DUP2 SLOAD DUP2 MSTORE SWAP1 PUSH1 0x1 ADD SWAP1 PUSH1 0x20 ADD DUP1 DUP4 GT PUSH2 0xC5 JUMPI DUP3 SWAP1 SUB PUSH1 0x1F AND DUP3 ADD SWAP2 JUMPDEST POP POP POP POP POP SWAP3 POP DUP1 DUP1 SLOAD PUSH2 0xF5 SWAP1 PUSH2 0x266 JUMP JUMPDEST DUP1 PUSH1 0x1F ADD PUSH1 0x20 DUP1 SWAP2 DIV MUL PUSH1 0x20 ADD PUSH1 0x40 MLOAD SWAP1 DUP2 ADD PUSH1 0x40 MSTORE DUP1 SWAP3 SWAP2 SWAP1 DUP2 DUP2 MSTORE PUSH1 0x20 ADD DUP3 DUP1 SLOAD PUSH2 0x121 SWAP1 PUSH2 0x266 JUMP JUMPDEST DUP1 ISZERO PUSH2 0x16E JUMPI DUP1 PUSH1 0x1F LT PUSH2 0x143 JUMPI PUSH2 0x100 DUP1 DUP4 SLOAD DIV MUL DUP4 MSTORE SWAP2 PUSH1 0x20 ADD SWAP2 PUSH2 0x16E JUMP JUMPDEST DUP3 ADD SWAP2 SWAP1 PUSH1 0x0 MSTORE PUSH1 0x20 PUSH1 0x0 KECCAK256 SWAP1 JUMPDEST DUP2 SLOAD DUP2 MSTORE SWAP1 PUSH1 0x1 ADD SWAP1 PUSH1 0x20 ADD DUP1 DUP4 GT PUSH2 0x151 JUMPI DUP3 SWAP1 SUB PUSH1 0x1F AND DUP3 ADD SWAP2 JUMPDEST POP POP POP POP POP SWAP1 POP SWAP3 POP SWAP3 POP SWAP3 POP SWAP1 SWAP2 SWAP3 JUMP JUMPDEST PUSH1 0x0 PUSH2 0x18B DUP3 PUSH2 0x20D JUMP JUMPDEST PUSH2 0x195 DUP2 DUP6 PUSH2 0x218 JUMP JUMPDEST SWAP4 POP PUSH2 0x1A5 DUP2 DUP6 PUSH1 0x20 DUP7 ADD PUSH2 0x233 JUMP JUMPDEST PUSH2 0x1AE DUP2 PUSH2 0x2C7 JUMP JUMPDEST DUP5 ADD SWAP2 POP POP SWAP3 SWAP2 POP POP JUMP JUMPDEST PUSH2 0x1C2 DUP2 PUSH2 0x229 JUMP JUMPDEST DUP3 MSTORE POP POP JUMP JUMPDEST PUSH1 0x0 PUSH1 0x60 DUP3 ADD SWAP1 POP DUP2 DUP2 SUB PUSH1 0x0 DUP4 ADD MSTORE PUSH2 0x1E2 DUP2 DUP7 PUSH2 0x180 JUMP JUMPDEST SWAP1 POP PUSH2 0x1F1 PUSH1 0x20 DUP4 ADD DUP6 PUSH2 0x1B9 JUMP JUMPDEST DUP2 DUP2 SUB PUSH1 0x40 DUP4 ADD MSTORE PUSH2 0x203 DUP2 DUP5 PUSH2 0x180 JUMP JUMPDEST SWAP1 POP SWAP5 SWAP4 POP POP POP POP JUMP JUMPDEST PUSH1 0x0 DUP2 MLOAD SWAP1 POP SWAP2 SWAP1 POP JUMP JUMPDEST PUSH1 0x0 DUP3 DUP3 MSTORE PUSH1 0x20 DUP3 ADD SWAP1 POP SWAP3 SWAP2 POP POP JUMP JUMPDEST PUSH1 0x0 DUP2 SWAP1 POP SWAP2 SWAP1 POP JUMP JUMPDEST PUSH1 0x0 JUMPDEST DUP4 DUP2 LT ISZERO PUSH2 0x251 JUMPI DUP1 DUP3 ADD MLOAD DUP2 DUP5 ADD MSTORE PUSH1 0x20 DUP2 ADD SWAP1 POP PUSH2 0x236 JUMP JUMPDEST DUP4 DUP2 GT ISZERO PUSH2 0x260 JUMPI PUSH1 0x0 DUP5 DUP5 ADD MSTORE JUMPDEST POP POP POP POP JUMP JUMPDEST PUSH1 0x0 PUSH1 0x2 DUP3 DIV SWAP1 POP PUSH1 0x1 DUP3 AND DUP1 PUSH2 0x27E JUMPI PUSH1 0x7F DUP3 AND SWAP2 POP JUMPDEST PUSH1 0x20 DUP3 LT DUP2 EQ ISZERO PUSH2 0x292 JUMPI PUSH2 0x291 PUSH2 0x298 JUMP JUMPDEST JUMPDEST POP SWAP2 SWAP1 POP JUMP JUMPDEST PUSH32 0x4E487B7100000000000000000000000000000000000000000000000000000000 PUSH1 0x0 MSTORE PUSH1 0x22 PUSH1 0x4 MSTORE PUSH1 0x24 PUSH1 0x0 REVERT JUMPDEST PUSH1 0x0 PUSH1 0x1F NOT PUSH1 0x1F DUP4 ADD AND SWAP1 POP SWAP2 SWAP1 POP JUMP INVALID LOG2 PUSH5 0x6970667358 0x22 SLT KECCAK256 0xB7 SWAP15 SWAP13 INVALID NOT 0x4D 0xCD 0xB3 SWAP12 PUSH15 0xC3C5BE8FB061243CF2339ADB9A44D3 DUP4 DUP5 0xAC 0xEC 0xBB 0xC8 0x4B PUSH5 0x736F6C6343 STOP ADDMOD SMOD STOP CALLER LOG2 PUSH5 0x6970667358 0x22 SLT KECCAK256 CODESIZE PUSH7 0x8F63DFE55519ED RETURNDATASIZE ORIGIN LOG3 0xE7 0x5E 0xE ADD 0xAC 0xEA 0xE MULMOD 0x2C 0xD5 SWAP2 0x5E 0x2B 0xD7 PUSH16 0x29787C6BE164736F6C63430008070033 "
				},
				"gasEstimates": {
					"creation": {
						"codeDepositCost": "674800",
						"executionCost": "708",
						"totalCost": "675508"
					},
					"external": {
						"getAllCars()": "infinite",
						"product(string,uint256,string)": "infinite"
					}
				},
				"methodIdentifiers": {
					"getAllCars()": "abfe5d57",
					"product(string,uint256,string)": "50296a87"
				}
			},
			"storageLayout": {
				"storage": [
					{
						"astId": 48,
						"contract": "advance/08-factory.sol:factory",
						"label": "allCars",
						"offset": 0,
						"slot": "0",
						"type": "t_array(t_address)dyn_storage"
					}
				],
				"types": {
					"t_address": {
						"encoding": "inplace",
						"label": "address",
						"numberOfBytes": "20"
					},
					"t_array(t_address)dyn_storage": {
						"base": "t_address",
						"encoding": "dynamic_array",
						"label": "address[]",
						"numberOfBytes": "32"
					}
				}
			},
			"userdoc": {
				"kind": "user",
				"methods": {},
				"version": 1
			}
		}
	}
}