{
	"advance/06-call-demo2.sol": {
		"call_demo": {
			"abi": [
				{
					"inputs": [
						{
							"internalType": "address",
							"name": "addr",
							"type": "address"
						}
					],
					"stateMutability": "nonpayable",
					"type": "constructor"
				},
				{
					"inputs": [],
					"name": "getName",
					"outputs": [
						{
							"internalType": "string",
							"name": "",
							"type": "string"
						}
					],
					"stateMutability": "view",
					"type": "function"
				},
				{
					"inputs": [
						{
							"internalType": "string",
							"name": "_name",
							"type": "string"
						}
					],
					"name": "setName",
					"outputs": [],
					"stateMutability": "nonpayable",
					"type": "function"
				},
				{
					"inputs": [
						{
							"internalType": "address",
							"name": "addr",
							"type": "address"
						}
					],
					"name": "upgrade",
					"outputs": [],
					"stateMutability": "nonpayable",
					"type": "function"
				}
			],
			"devdoc": {
				"kind": "dev",
				"methods": {},
				"version": 1
			},
			"evm": {
				"assembly": "    /* \"advance/06-call-demo2.sol\":451:813  contract call_demo {... */\n  mstore(0x40, 0x80)\n    /* \"advance/06-call-demo2.sol\":491:546  constructor(address addr) {... */\n  callvalue\n  dup1\n  iszero\n  tag_1\n  jumpi\n  0x00\n  dup1\n  revert\ntag_1:\n  pop\n  mload(0x40)\n  sub(codesize, bytecodeSize)\n  dup1\n  bytecodeSize\n  dup4\n  codecopy\n  dup2\n  dup2\n  add\n  0x40\n  mstore\n  dup2\n  add\n  swap1\n  tag_2\n  swap2\n  swap1\n  tag_3\n  jump\t// in\ntag_2:\n    /* \"advance/06-call-demo2.sol\":534:538  addr */\n  dup1\n    /* \"advance/06-call-demo2.sol\":527:528  a */\n  0x00\n  dup1\n    /* \"advance/06-call-demo2.sol\":527:539  a = IA(addr) */\n  0x0100\n  exp\n  dup2\n  sload\n  dup2\n  0xffffffffffffffffffffffffffffffffffffffff\n  mul\n  not\n  and\n  swap1\n  dup4\n  0xffffffffffffffffffffffffffffffffffffffff\n  and\n  mul\n  or\n  swap1\n  sstore\n  pop\n    /* \"advance/06-call-demo2.sol\":491:546  constructor(address addr) {... */\n  pop\n    /* \"advance/06-call-demo2.sol\":451:813  contract call_demo {... */\n  jump(tag_6)\n    /* \"#utility.yul\":7:150   */\ntag_8:\n    /* \"#utility.yul\":64:69   */\n  0x00\n    /* \"#utility.yul\":95:101   */\n  dup2\n    /* \"#utility.yul\":89:102   */\n  mload\n    /* \"#utility.yul\":80:102   */\n  swap1\n  pop\n    /* \"#utility.yul\":111:144   */\n  tag_10\n    /* \"#utility.yul\":138:143   */\n  dup2\n    /* \"#utility.yul\":111:144   */\n  tag_11\n  jump\t// in\ntag_10:\n    /* \"#utility.yul\":7:150   */\n  swap3\n  swap2\n  pop\n  pop\n  jump\t// out\n    /* \"#utility.yul\":156:507   */\ntag_3:\n    /* \"#utility.yul\":226:232   */\n  0x00\n    /* \"#utility.yul\":275:277   */\n  0x20\n    /* \"#utility.yul\":263:272   */\n  dup3\n    /* \"#utility.yul\":254:261   */\n  dup5\n    /* \"#utility.yul\":250:273   */\n  sub\n    /* \"#utility.yul\":246:278   */\n  slt\n    /* \"#utility.yul\":243:362   */\n  iszero\n  tag_13\n  jumpi\n    /* \"#utility.yul\":281:360   */\n  tag_14\n  tag_15\n  jump\t// in\ntag_14:\n    /* \"#utility.yul\":243:362   */\ntag_13:\n    /* \"#utility.yul\":401:402   */\n  0x00\n    /* \"#utility.yul\":426:490   */\n  tag_16\n    /* \"#utility.yul\":482:489   */\n  dup5\n    /* \"#utility.yul\":473:479   */\n  dup3\n    /* \"#utility.yul\":462:471   */\n  dup6\n    /* \"#utility.yul\":458:480   */\n  add\n    /* \"#utility.yul\":426:490   */\n  tag_8\n  jump\t// in\ntag_16:\n    /* \"#utility.yul\":416:490   */\n  swap2\n  pop\n    /* \"#utility.yul\":372:500   */\n  pop\n    /* \"#utility.yul\":156:507   */\n  swap3\n  swap2\n  pop\n  pop\n  jump\t// out\n    /* \"#utility.yul\":594:690   */\ntag_19:\n    /* \"#utility.yul\":631:638   */\n  0x00\n    /* \"#utility.yul\":660:684   */\n  tag_21\n    /* \"#utility.yul\":678:683   */\n  dup3\n    /* \"#utility.yul\":660:684   */\n  tag_22\n  jump\t// in\ntag_21:\n    /* \"#utility.yul\":649:684   */\n  swap1\n  pop\n    /* \"#utility.yul\":594:690   */\n  swap2\n  swap1\n  pop\n  jump\t// out\n    /* \"#utility.yul\":696:822   */\ntag_22:\n    /* \"#utility.yul\":733:740   */\n  0x00\n    /* \"#utility.yul\":773:815   */\n  0xffffffffffffffffffffffffffffffffffffffff\n    /* \"#utility.yul\":766:771   */\n  dup3\n    /* \"#utility.yul\":762:816   */\n  and\n    /* \"#utility.yul\":751:816   */\n  swap1\n  pop\n    /* \"#utility.yul\":696:822   */\n  swap2\n  swap1\n  pop\n  jump\t// out\n    /* \"#utility.yul\":951:1068   */\ntag_15:\n    /* \"#utility.yul\":1060:1061   */\n  0x00\n    /* \"#utility.yul\":1057:1058   */\n  dup1\n    /* \"#utility.yul\":1050:1062   */\n  revert\n    /* \"#utility.yul\":1074:1196   */\ntag_11:\n    /* \"#utility.yul\":1147:1171   */\n  tag_28\n    /* \"#utility.yul\":1165:1170   */\n  dup2\n    /* \"#utility.yul\":1147:1171   */\n  tag_19\n  jump\t// in\ntag_28:\n    /* \"#utility.yul\":1140:1145   */\n  dup2\n    /* \"#utility.yul\":1137:1172   */\n  eq\n    /* \"#utility.yul\":1127:1190   */\n  tag_29\n  jumpi\n    /* \"#utility.yul\":1186:1187   */\n  0x00\n    /* \"#utility.yul\":1183:1184   */\n  dup1\n    /* \"#utility.yul\":1176:1188   */\n  revert\n    /* \"#utility.yul\":1127:1190   */\ntag_29:\n    /* \"#utility.yul\":1074:1196   */\n  pop\n  jump\t// out\n    /* \"advance/06-call-demo2.sol\":451:813  contract call_demo {... */\ntag_6:\n  dataSize(sub_0)\n  dup1\n  dataOffset(sub_0)\n  0x00\n  codecopy\n  0x00\n  return\nstop\n\nsub_0: assembly {\n        /* \"advance/06-call-demo2.sol\":451:813  contract call_demo {... */\n      mstore(0x40, 0x80)\n      callvalue\n      dup1\n      iszero\n      tag_1\n      jumpi\n      0x00\n      dup1\n      revert\n    tag_1:\n      pop\n      jumpi(tag_2, lt(calldatasize, 0x04))\n      shr(0xe0, calldataload(0x00))\n      dup1\n      0x0900f010\n      eq\n      tag_3\n      jumpi\n      dup1\n      0x17d7de7c\n      eq\n      tag_4\n      jumpi\n      dup1\n      0xc47f0027\n      eq\n      tag_5\n      jumpi\n    tag_2:\n      0x00\n      dup1\n      revert\n        /* \"advance/06-call-demo2.sol\":556:623  function upgrade(address addr) public {... */\n    tag_3:\n      tag_6\n      0x04\n      dup1\n      calldatasize\n      sub\n      dup2\n      add\n      swap1\n      tag_7\n      swap2\n      swap1\n      tag_8\n      jump\t// in\n    tag_7:\n      tag_9\n      jump\t// in\n    tag_6:\n      stop\n        /* \"advance/06-call-demo2.sol\":721:811  function getName() public view returns (string memory) {... */\n    tag_4:\n      tag_10\n      tag_11\n      jump\t// in\n    tag_10:\n      mload(0x40)\n      tag_12\n      swap2\n      swap1\n      tag_13\n      jump\t// in\n    tag_12:\n      mload(0x40)\n      dup1\n      swap2\n      sub\n      swap1\n      return\n        /* \"advance/06-call-demo2.sol\":633:711  function setName(string memory _name) public {... */\n    tag_5:\n      tag_14\n      0x04\n      dup1\n      calldatasize\n      sub\n      dup2\n      add\n      swap1\n      tag_15\n      swap2\n      swap1\n      tag_16\n      jump\t// in\n    tag_15:\n      tag_17\n      jump\t// in\n    tag_14:\n      stop\n        /* \"advance/06-call-demo2.sol\":556:623  function upgrade(address addr) public {... */\n    tag_9:\n        /* \"advance/06-call-demo2.sol\":611:615  addr */\n      dup1\n        /* \"advance/06-call-demo2.sol\":604:605  a */\n      0x00\n      dup1\n        /* \"advance/06-call-demo2.sol\":604:616  a = IA(addr) */\n      0x0100\n      exp\n      dup2\n      sload\n      dup2\n      0xffffffffffffffffffffffffffffffffffffffff\n      mul\n      not\n      and\n      swap1\n      dup4\n      0xffffffffffffffffffffffffffffffffffffffff\n      and\n      mul\n      or\n      swap1\n      sstore\n      pop\n        /* \"advance/06-call-demo2.sol\":556:623  function upgrade(address addr) public {... */\n      pop\n      jump\t// out\n        /* \"advance/06-call-demo2.sol\":721:811  function getName() public view returns (string memory) {... */\n    tag_11:\n        /* \"advance/06-call-demo2.sol\":761:774  string memory */\n      0x60\n        /* \"advance/06-call-demo2.sol\":793:794  a */\n      0x00\n      dup1\n      sload\n      swap1\n      0x0100\n      exp\n      swap1\n      div\n      0xffffffffffffffffffffffffffffffffffffffff\n      and\n        /* \"advance/06-call-demo2.sol\":793:802  a.getName */\n      0xffffffffffffffffffffffffffffffffffffffff\n      and\n      0x17d7de7c\n        /* \"advance/06-call-demo2.sol\":793:804  a.getName() */\n      mload(0x40)\n      dup2\n      0xffffffff\n      and\n      0xe0\n      shl\n      dup2\n      mstore\n      0x04\n      add\n      0x00\n      mload(0x40)\n      dup1\n      dup4\n      sub\n      dup2\n      dup7\n      dup1\n      extcodesize\n      iszero\n      dup1\n      iszero\n      tag_20\n      jumpi\n      0x00\n      dup1\n      revert\n    tag_20:\n      pop\n      gas\n      staticcall\n      iszero\n      dup1\n      iszero\n      tag_22\n      jumpi\n      returndatasize\n      0x00\n      dup1\n      returndatacopy\n      revert(0x00, returndatasize)\n    tag_22:\n      pop\n      pop\n      pop\n      pop\n      mload(0x40)\n      returndatasize\n      0x00\n      dup3\n      returndatacopy\n      returndatasize\n      not(0x1f)\n      0x1f\n      dup3\n      add\n      and\n      dup3\n      add\n      dup1\n      0x40\n      mstore\n      pop\n      dup2\n      add\n      swap1\n      tag_23\n      swap2\n      swap1\n      tag_24\n      jump\t// in\n    tag_23:\n        /* \"advance/06-call-demo2.sol\":786:804  return a.getName() */\n      swap1\n      pop\n        /* \"advance/06-call-demo2.sol\":721:811  function getName() public view returns (string memory) {... */\n      swap1\n      jump\t// out\n        /* \"advance/06-call-demo2.sol\":633:711  function setName(string memory _name) public {... */\n    tag_17:\n        /* \"advance/06-call-demo2.sol\":688:689  a */\n      0x00\n      dup1\n      sload\n      swap1\n      0x0100\n      exp\n      swap1\n      div\n      0xffffffffffffffffffffffffffffffffffffffff\n      and\n        /* \"advance/06-call-demo2.sol\":688:697  a.setName */\n      0xffffffffffffffffffffffffffffffffffffffff\n      and\n      0xc47f0027\n        /* \"advance/06-call-demo2.sol\":698:703  _name */\n      dup3\n        /* \"advance/06-call-demo2.sol\":688:704  a.setName(_name) */\n      mload(0x40)\n      dup3\n      0xffffffff\n      and\n      0xe0\n      shl\n      dup2\n      mstore\n      0x04\n      add\n      tag_26\n      swap2\n      swap1\n      tag_13\n      jump\t// in\n    tag_26:\n      0x00\n      mload(0x40)\n      dup1\n      dup4\n      sub\n      dup2\n      0x00\n      dup8\n      dup1\n      extcodesize\n      iszero\n      dup1\n      iszero\n      tag_27\n      jumpi\n      0x00\n      dup1\n      revert\n    tag_27:\n      pop\n      gas\n      call\n      iszero\n      dup1\n      iszero\n      tag_29\n      jumpi\n      returndatasize\n      0x00\n      dup1\n      returndatacopy\n      revert(0x00, returndatasize)\n    tag_29:\n      pop\n      pop\n      pop\n      pop\n        /* \"advance/06-call-demo2.sol\":633:711  function setName(string memory _name) public {... */\n      pop\n      jump\t// out\n        /* \"#utility.yul\":7:419   */\n    tag_31:\n        /* \"#utility.yul\":85:90   */\n      0x00\n        /* \"#utility.yul\":110:176   */\n      tag_33\n        /* \"#utility.yul\":126:175   */\n      tag_34\n        /* \"#utility.yul\":168:174   */\n      dup5\n        /* \"#utility.yul\":126:175   */\n      tag_35\n      jump\t// in\n    tag_34:\n        /* \"#utility.yul\":110:176   */\n      tag_36\n      jump\t// in\n    tag_33:\n        /* \"#utility.yul\":101:176   */\n      swap1\n      pop\n        /* \"#utility.yul\":199:205   */\n      dup3\n        /* \"#utility.yul\":192:197   */\n      dup2\n        /* \"#utility.yul\":185:206   */\n      mstore\n        /* \"#utility.yul\":237:241   */\n      0x20\n        /* \"#utility.yul\":230:235   */\n      dup2\n        /* \"#utility.yul\":226:242   */\n      add\n        /* \"#utility.yul\":275:278   */\n      dup5\n        /* \"#utility.yul\":266:272   */\n      dup5\n        /* \"#utility.yul\":261:264   */\n      dup5\n        /* \"#utility.yul\":257:273   */\n      add\n        /* \"#utility.yul\":254:279   */\n      gt\n        /* \"#utility.yul\":251:363   */\n      iszero\n      tag_37\n      jumpi\n        /* \"#utility.yul\":282:361   */\n      tag_38\n      tag_39\n      jump\t// in\n    tag_38:\n        /* \"#utility.yul\":251:363   */\n    tag_37:\n        /* \"#utility.yul\":372:413   */\n      tag_40\n        /* \"#utility.yul\":406:412   */\n      dup5\n        /* \"#utility.yul\":401:404   */\n      dup3\n        /* \"#utility.yul\":396:399   */\n      dup6\n        /* \"#utility.yul\":372:413   */\n      tag_41\n      jump\t// in\n    tag_40:\n        /* \"#utility.yul\":91:419   */\n      pop\n        /* \"#utility.yul\":7:419   */\n      swap4\n      swap3\n      pop\n      pop\n      pop\n      jump\t// out\n        /* \"#utility.yul\":425:846   */\n    tag_42:\n        /* \"#utility.yul\":514:519   */\n      0x00\n        /* \"#utility.yul\":539:605   */\n      tag_44\n        /* \"#utility.yul\":555:604   */\n      tag_45\n        /* \"#utility.yul\":597:603   */\n      dup5\n        /* \"#utility.yul\":555:604   */\n      tag_35\n      jump\t// in\n    tag_45:\n        /* \"#utility.yul\":539:605   */\n      tag_36\n      jump\t// in\n    tag_44:\n        /* \"#utility.yul\":530:605   */\n      swap1\n      pop\n        /* \"#utility.yul\":628:634   */\n      dup3\n        /* \"#utility.yul\":621:626   */\n      dup2\n        /* \"#utility.yul\":614:635   */\n      mstore\n        /* \"#utility.yul\":666:670   */\n      0x20\n        /* \"#utility.yul\":659:664   */\n      dup2\n        /* \"#utility.yul\":655:671   */\n      add\n        /* \"#utility.yul\":704:707   */\n      dup5\n        /* \"#utility.yul\":695:701   */\n      dup5\n        /* \"#utility.yul\":690:693   */\n      dup5\n        /* \"#utility.yul\":686:702   */\n      add\n        /* \"#utility.yul\":683:708   */\n      gt\n        /* \"#utility.yul\":680:792   */\n      iszero\n      tag_46\n      jumpi\n        /* \"#utility.yul\":711:790   */\n      tag_47\n      tag_39\n      jump\t// in\n    tag_47:\n        /* \"#utility.yul\":680:792   */\n    tag_46:\n        /* \"#utility.yul\":801:840   */\n      tag_48\n        /* \"#utility.yul\":833:839   */\n      dup5\n        /* \"#utility.yul\":828:831   */\n      dup3\n        /* \"#utility.yul\":823:826   */\n      dup6\n        /* \"#utility.yul\":801:840   */\n      tag_49\n      jump\t// in\n    tag_48:\n        /* \"#utility.yul\":520:846   */\n      pop\n        /* \"#utility.yul\":425:846   */\n      swap4\n      swap3\n      pop\n      pop\n      pop\n      jump\t// out\n        /* \"#utility.yul\":852:991   */\n    tag_50:\n        /* \"#utility.yul\":898:903   */\n      0x00\n        /* \"#utility.yul\":936:942   */\n      dup2\n        /* \"#utility.yul\":923:943   */\n      calldataload\n        /* \"#utility.yul\":914:943   */\n      swap1\n      pop\n        /* \"#utility.yul\":952:985   */\n      tag_52\n        /* \"#utility.yul\":979:984   */\n      dup2\n        /* \"#utility.yul\":952:985   */\n      tag_53\n      jump\t// in\n    tag_52:\n        /* \"#utility.yul\":852:991   */\n      swap3\n      swap2\n      pop\n      pop\n      jump\t// out\n        /* \"#utility.yul\":1011:1351   */\n    tag_54:\n        /* \"#utility.yul\":1067:1072   */\n      0x00\n        /* \"#utility.yul\":1116:1119   */\n      dup3\n        /* \"#utility.yul\":1109:1113   */\n      0x1f\n        /* \"#utility.yul\":1101:1107   */\n      dup4\n        /* \"#utility.yul\":1097:1114   */\n      add\n        /* \"#utility.yul\":1093:1120   */\n      slt\n        /* \"#utility.yul\":1083:1205   */\n      tag_56\n      jumpi\n        /* \"#utility.yul\":1124:1203   */\n      tag_57\n      tag_58\n      jump\t// in\n    tag_57:\n        /* \"#utility.yul\":1083:1205   */\n    tag_56:\n        /* \"#utility.yul\":1241:1247   */\n      dup2\n        /* \"#utility.yul\":1228:1248   */\n      calldataload\n        /* \"#utility.yul\":1266:1345   */\n      tag_59\n        /* \"#utility.yul\":1341:1344   */\n      dup5\n        /* \"#utility.yul\":1333:1339   */\n      dup3\n        /* \"#utility.yul\":1326:1330   */\n      0x20\n        /* \"#utility.yul\":1318:1324   */\n      dup7\n        /* \"#utility.yul\":1314:1331   */\n      add\n        /* \"#utility.yul\":1266:1345   */\n      tag_31\n      jump\t// in\n    tag_59:\n        /* \"#utility.yul\":1257:1345   */\n      swap2\n      pop\n        /* \"#utility.yul\":1073:1351   */\n      pop\n        /* \"#utility.yul\":1011:1351   */\n      swap3\n      swap2\n      pop\n      pop\n      jump\t// out\n        /* \"#utility.yul\":1371:1726   */\n    tag_60:\n        /* \"#utility.yul\":1438:1443   */\n      0x00\n        /* \"#utility.yul\":1487:1490   */\n      dup3\n        /* \"#utility.yul\":1480:1484   */\n      0x1f\n        /* \"#utility.yul\":1472:1478   */\n      dup4\n        /* \"#utility.yul\":1468:1485   */\n      add\n        /* \"#utility.yul\":1464:1491   */\n      slt\n        /* \"#utility.yul\":1454:1576   */\n      tag_62\n      jumpi\n        /* \"#utility.yul\":1495:1574   */\n      tag_63\n      tag_58\n      jump\t// in\n    tag_63:\n        /* \"#utility.yul\":1454:1576   */\n    tag_62:\n        /* \"#utility.yul\":1605:1611   */\n      dup2\n        /* \"#utility.yul\":1599:1612   */\n      mload\n        /* \"#utility.yul\":1630:1720   */\n      tag_64\n        /* \"#utility.yul\":1716:1719   */\n      dup5\n        /* \"#utility.yul\":1708:1714   */\n      dup3\n        /* \"#utility.yul\":1701:1705   */\n      0x20\n        /* \"#utility.yul\":1693:1699   */\n      dup7\n        /* \"#utility.yul\":1689:1706   */\n      add\n        /* \"#utility.yul\":1630:1720   */\n      tag_42\n      jump\t// in\n    tag_64:\n        /* \"#utility.yul\":1621:1720   */\n      swap2\n      pop\n        /* \"#utility.yul\":1444:1726   */\n      pop\n        /* \"#utility.yul\":1371:1726   */\n      swap3\n      swap2\n      pop\n      pop\n      jump\t// out\n        /* \"#utility.yul\":1732:2061   */\n    tag_8:\n        /* \"#utility.yul\":1791:1797   */\n      0x00\n        /* \"#utility.yul\":1840:1842   */\n      0x20\n        /* \"#utility.yul\":1828:1837   */\n      dup3\n        /* \"#utility.yul\":1819:1826   */\n      dup5\n        /* \"#utility.yul\":1815:1838   */\n      sub\n        /* \"#utility.yul\":1811:1843   */\n      slt\n        /* \"#utility.yul\":1808:1927   */\n      iszero\n      tag_66\n      jumpi\n        /* \"#utility.yul\":1846:1925   */\n      tag_67\n      tag_68\n      jump\t// in\n    tag_67:\n        /* \"#utility.yul\":1808:1927   */\n    tag_66:\n        /* \"#utility.yul\":1966:1967   */\n      0x00\n        /* \"#utility.yul\":1991:2044   */\n      tag_69\n        /* \"#utility.yul\":2036:2043   */\n      dup5\n        /* \"#utility.yul\":2027:2033   */\n      dup3\n        /* \"#utility.yul\":2016:2025   */\n      dup6\n        /* \"#utility.yul\":2012:2034   */\n      add\n        /* \"#utility.yul\":1991:2044   */\n      tag_50\n      jump\t// in\n    tag_69:\n        /* \"#utility.yul\":1981:2044   */\n      swap2\n      pop\n        /* \"#utility.yul\":1937:2054   */\n      pop\n        /* \"#utility.yul\":1732:2061   */\n      swap3\n      swap2\n      pop\n      pop\n      jump\t// out\n        /* \"#utility.yul\":2067:2576   */\n    tag_16:\n        /* \"#utility.yul\":2136:2142   */\n      0x00\n        /* \"#utility.yul\":2185:2187   */\n      0x20\n        /* \"#utility.yul\":2173:2182   */\n      dup3\n        /* \"#utility.yul\":2164:2171   */\n      dup5\n        /* \"#utility.yul\":2160:2183   */\n      sub\n        /* \"#utility.yul\":2156:2188   */\n      slt\n        /* \"#utility.yul\":2153:2272   */\n      iszero\n      tag_71\n      jumpi\n        /* \"#utility.yul\":2191:2270   */\n      tag_72\n      tag_68\n      jump\t// in\n    tag_72:\n        /* \"#utility.yul\":2153:2272   */\n    tag_71:\n        /* \"#utility.yul\":2339:2340   */\n      0x00\n        /* \"#utility.yul\":2328:2337   */\n      dup3\n        /* \"#utility.yul\":2324:2341   */\n      add\n        /* \"#utility.yul\":2311:2342   */\n      calldataload\n        /* \"#utility.yul\":2369:2387   */\n      0xffffffffffffffff\n        /* \"#utility.yul\":2361:2367   */\n      dup2\n        /* \"#utility.yul\":2358:2388   */\n      gt\n        /* \"#utility.yul\":2355:2472   */\n      iszero\n      tag_73\n      jumpi\n        /* \"#utility.yul\":2391:2470   */\n      tag_74\n      tag_75\n      jump\t// in\n    tag_74:\n        /* \"#utility.yul\":2355:2472   */\n    tag_73:\n        /* \"#utility.yul\":2496:2559   */\n      tag_76\n        /* \"#utility.yul\":2551:2558   */\n      dup5\n        /* \"#utility.yul\":2542:2548   */\n      dup3\n        /* \"#utility.yul\":2531:2540   */\n      dup6\n        /* \"#utility.yul\":2527:2549   */\n      add\n        /* \"#utility.yul\":2496:2559   */\n      tag_54\n      jump\t// in\n    tag_76:\n        /* \"#utility.yul\":2486:2559   */\n      swap2\n      pop\n        /* \"#utility.yul\":2282:2569   */\n      pop\n        /* \"#utility.yul\":2067:2576   */\n      swap3\n      swap2\n      pop\n      pop\n      jump\t// out\n        /* \"#utility.yul\":2582:3106   */\n    tag_24:\n        /* \"#utility.yul\":2662:2668   */\n      0x00\n        /* \"#utility.yul\":2711:2713   */\n      0x20\n        /* \"#utility.yul\":2699:2708   */\n      dup3\n        /* \"#utility.yul\":2690:2697   */\n      dup5\n        /* \"#utility.yul\":2686:2709   */\n      sub\n        /* \"#utility.yul\":2682:2714   */\n      slt\n        /* \"#utility.yul\":2679:2798   */\n      iszero\n      tag_78\n      jumpi\n        /* \"#utility.yul\":2717:2796   */\n      tag_79\n      tag_68\n      jump\t// in\n    tag_79:\n        /* \"#utility.yul\":2679:2798   */\n    tag_78:\n        /* \"#utility.yul\":2858:2859   */\n      0x00\n        /* \"#utility.yul\":2847:2856   */\n      dup3\n        /* \"#utility.yul\":2843:2860   */\n      add\n        /* \"#utility.yul\":2837:2861   */\n      mload\n        /* \"#utility.yul\":2888:2906   */\n      0xffffffffffffffff\n        /* \"#utility.yul\":2880:2886   */\n      dup2\n        /* \"#utility.yul\":2877:2907   */\n      gt\n        /* \"#utility.yul\":2874:2991   */\n      iszero\n      tag_80\n      jumpi\n        /* \"#utility.yul\":2910:2989   */\n      tag_81\n      tag_75\n      jump\t// in\n    tag_81:\n        /* \"#utility.yul\":2874:2991   */\n    tag_80:\n        /* \"#utility.yul\":3015:3089   */\n      tag_82\n        /* \"#utility.yul\":3081:3088   */\n      dup5\n        /* \"#utility.yul\":3072:3078   */\n      dup3\n        /* \"#utility.yul\":3061:3070   */\n      dup6\n        /* \"#utility.yul\":3057:3079   */\n      add\n        /* \"#utility.yul\":3015:3089   */\n      tag_60\n      jump\t// in\n    tag_82:\n        /* \"#utility.yul\":3005:3089   */\n      swap2\n      pop\n        /* \"#utility.yul\":2808:3099   */\n      pop\n        /* \"#utility.yul\":2582:3106   */\n      swap3\n      swap2\n      pop\n      pop\n      jump\t// out\n        /* \"#utility.yul\":3112:3476   */\n    tag_83:\n        /* \"#utility.yul\":3200:3203   */\n      0x00\n        /* \"#utility.yul\":3228:3267   */\n      tag_85\n        /* \"#utility.yul\":3261:3266   */\n      dup3\n        /* \"#utility.yul\":3228:3267   */\n      tag_86\n      jump\t// in\n    tag_85:\n        /* \"#utility.yul\":3283:3354   */\n      tag_87\n        /* \"#utility.yul\":3347:3353   */\n      dup2\n        /* \"#utility.yul\":3342:3345   */\n      dup6\n        /* \"#utility.yul\":3283:3354   */\n      tag_88\n      jump\t// in\n    tag_87:\n        /* \"#utility.yul\":3276:3354   */\n      swap4\n      pop\n        /* \"#utility.yul\":3363:3415   */\n      tag_89\n        /* \"#utility.yul\":3408:3414   */\n      dup2\n        /* \"#utility.yul\":3403:3406   */\n      dup6\n        /* \"#utility.yul\":3396:3400   */\n      0x20\n        /* \"#utility.yul\":3389:3394   */\n      dup7\n        /* \"#utility.yul\":3385:3401   */\n      add\n        /* \"#utility.yul\":3363:3415   */\n      tag_49\n      jump\t// in\n    tag_89:\n        /* \"#utility.yul\":3440:3469   */\n      tag_90\n        /* \"#utility.yul\":3462:3468   */\n      dup2\n        /* \"#utility.yul\":3440:3469   */\n      tag_91\n      jump\t// in\n    tag_90:\n        /* \"#utility.yul\":3435:3438   */\n      dup5\n        /* \"#utility.yul\":3431:3470   */\n      add\n        /* \"#utility.yul\":3424:3470   */\n      swap2\n      pop\n        /* \"#utility.yul\":3204:3476   */\n      pop\n        /* \"#utility.yul\":3112:3476   */\n      swap3\n      swap2\n      pop\n      pop\n      jump\t// out\n        /* \"#utility.yul\":3482:3795   */\n    tag_13:\n        /* \"#utility.yul\":3595:3599   */\n      0x00\n        /* \"#utility.yul\":3633:3635   */\n      0x20\n        /* \"#utility.yul\":3622:3631   */\n      dup3\n        /* \"#utility.yul\":3618:3636   */\n      add\n        /* \"#utility.yul\":3610:3636   */\n      swap1\n      pop\n        /* \"#utility.yul\":3682:3691   */\n      dup2\n        /* \"#utility.yul\":3676:3680   */\n      dup2\n        /* \"#utility.yul\":3672:3692   */\n      sub\n        /* \"#utility.yul\":3668:3669   */\n      0x00\n        /* \"#utility.yul\":3657:3666   */\n      dup4\n        /* \"#utility.yul\":3653:3670   */\n      add\n        /* \"#utility.yul\":3646:3693   */\n      mstore\n        /* \"#utility.yul\":3710:3788   */\n      tag_93\n        /* \"#utility.yul\":3783:3787   */\n      dup2\n        /* \"#utility.yul\":3774:3780   */\n      dup5\n        /* \"#utility.yul\":3710:3788   */\n      tag_83\n      jump\t// in\n    tag_93:\n        /* \"#utility.yul\":3702:3788   */\n      swap1\n      pop\n        /* \"#utility.yul\":3482:3795   */\n      swap3\n      swap2\n      pop\n      pop\n      jump\t// out\n        /* \"#utility.yul\":3801:3930   */\n    tag_36:\n        /* \"#utility.yul\":3835:3841   */\n      0x00\n        /* \"#utility.yul\":3862:3882   */\n      tag_95\n      tag_96\n      jump\t// in\n    tag_95:\n        /* \"#utility.yul\":3852:3882   */\n      swap1\n      pop\n        /* \"#utility.yul\":3891:3924   */\n      tag_97\n        /* \"#utility.yul\":3919:3923   */\n      dup3\n        /* \"#utility.yul\":3911:3917   */\n      dup3\n        /* \"#utility.yul\":3891:3924   */\n      tag_98\n      jump\t// in\n    tag_97:\n        /* \"#utility.yul\":3801:3930   */\n      swap2\n      swap1\n      pop\n      jump\t// out\n        /* \"#utility.yul\":3936:4011   */\n    tag_96:\n        /* \"#utility.yul\":3969:3975   */\n      0x00\n        /* \"#utility.yul\":4002:4004   */\n      0x40\n        /* \"#utility.yul\":3996:4005   */\n      mload\n        /* \"#utility.yul\":3986:4005   */\n      swap1\n      pop\n        /* \"#utility.yul\":3936:4011   */\n      swap1\n      jump\t// out\n        /* \"#utility.yul\":4017:4325   */\n    tag_35:\n        /* \"#utility.yul\":4079:4083   */\n      0x00\n        /* \"#utility.yul\":4169:4187   */\n      0xffffffffffffffff\n        /* \"#utility.yul\":4161:4167   */\n      dup3\n        /* \"#utility.yul\":4158:4188   */\n      gt\n        /* \"#utility.yul\":4155:4211   */\n      iszero\n      tag_101\n      jumpi\n        /* \"#utility.yul\":4191:4209   */\n      tag_102\n      tag_103\n      jump\t// in\n    tag_102:\n        /* \"#utility.yul\":4155:4211   */\n    tag_101:\n        /* \"#utility.yul\":4229:4258   */\n      tag_104\n        /* \"#utility.yul\":4251:4257   */\n      dup3\n        /* \"#utility.yul\":4229:4258   */\n      tag_91\n      jump\t// in\n    tag_104:\n        /* \"#utility.yul\":4221:4258   */\n      swap1\n      pop\n        /* \"#utility.yul\":4313:4317   */\n      0x20\n        /* \"#utility.yul\":4307:4311   */\n      dup2\n        /* \"#utility.yul\":4303:4318   */\n      add\n        /* \"#utility.yul\":4295:4318   */\n      swap1\n      pop\n        /* \"#utility.yul\":4017:4325   */\n      swap2\n      swap1\n      pop\n      jump\t// out\n        /* \"#utility.yul\":4331:4430   */\n    tag_86:\n        /* \"#utility.yul\":4383:4389   */\n      0x00\n        /* \"#utility.yul\":4417:4422   */\n      dup2\n        /* \"#utility.yul\":4411:4423   */\n      mload\n        /* \"#utility.yul\":4401:4423   */\n      swap1\n      pop\n        /* \"#utility.yul\":4331:4430   */\n      swap2\n      swap1\n      pop\n      jump\t// out\n        /* \"#utility.yul\":4436:4605   */\n    tag_88:\n        /* \"#utility.yul\":4520:4531   */\n      0x00\n        /* \"#utility.yul\":4554:4560   */\n      dup3\n        /* \"#utility.yul\":4549:4552   */\n      dup3\n        /* \"#utility.yul\":4542:4561   */\n      mstore\n        /* \"#utility.yul\":4594:4598   */\n      0x20\n        /* \"#utility.yul\":4589:4592   */\n      dup3\n        /* \"#utility.yul\":4585:4599   */\n      add\n        /* \"#utility.yul\":4570:4599   */\n      swap1\n      pop\n        /* \"#utility.yul\":4436:4605   */\n      swap3\n      swap2\n      pop\n      pop\n      jump\t// out\n        /* \"#utility.yul\":4611:4707   */\n    tag_107:\n        /* \"#utility.yul\":4648:4655   */\n      0x00\n        /* \"#utility.yul\":4677:4701   */\n      tag_109\n        /* \"#utility.yul\":4695:4700   */\n      dup3\n        /* \"#utility.yul\":4677:4701   */\n      tag_110\n      jump\t// in\n    tag_109:\n        /* \"#utility.yul\":4666:4701   */\n      swap1\n      pop\n        /* \"#utility.yul\":4611:4707   */\n      swap2\n      swap1\n      pop\n      jump\t// out\n        /* \"#utility.yul\":4713:4839   */\n    tag_110:\n        /* \"#utility.yul\":4750:4757   */\n      0x00\n        /* \"#utility.yul\":4790:4832   */\n      0xffffffffffffffffffffffffffffffffffffffff\n        /* \"#utility.yul\":4783:4788   */\n      dup3\n        /* \"#utility.yul\":4779:4833   */\n      and\n        /* \"#utility.yul\":4768:4833   */\n      swap1\n      pop\n        /* \"#utility.yul\":4713:4839   */\n      swap2\n      swap1\n      pop\n      jump\t// out\n        /* \"#utility.yul\":4845:4999   */\n    tag_41:\n        /* \"#utility.yul\":4929:4935   */\n      dup3\n        /* \"#utility.yul\":4924:4927   */\n      dup2\n        /* \"#utility.yul\":4919:4922   */\n      dup4\n        /* \"#utility.yul\":4906:4936   */\n      calldatacopy\n        /* \"#utility.yul\":4991:4992   */\n      0x00\n        /* \"#utility.yul\":4982:4988   */\n      dup4\n        /* \"#utility.yul\":4977:4980   */\n      dup4\n        /* \"#utility.yul\":4973:4989   */\n      add\n        /* \"#utility.yul\":4966:4993   */\n      mstore\n        /* \"#utility.yul\":4845:4999   */\n      pop\n      pop\n      pop\n      jump\t// out\n        /* \"#utility.yul\":5005:5312   */\n    tag_49:\n        /* \"#utility.yul\":5073:5074   */\n      0x00\n        /* \"#utility.yul\":5083:5196   */\n    tag_114:\n        /* \"#utility.yul\":5097:5103   */\n      dup4\n        /* \"#utility.yul\":5094:5095   */\n      dup2\n        /* \"#utility.yul\":5091:5104   */\n      lt\n        /* \"#utility.yul\":5083:5196   */\n      iszero\n      tag_116\n      jumpi\n        /* \"#utility.yul\":5182:5183   */\n      dup1\n        /* \"#utility.yul\":5177:5180   */\n      dup3\n        /* \"#utility.yul\":5173:5184   */\n      add\n        /* \"#utility.yul\":5167:5185   */\n      mload\n        /* \"#utility.yul\":5163:5164   */\n      dup2\n        /* \"#utility.yul\":5158:5161   */\n      dup5\n        /* \"#utility.yul\":5154:5165   */\n      add\n        /* \"#utility.yul\":5147:5186   */\n      mstore\n        /* \"#utility.yul\":5119:5121   */\n      0x20\n        /* \"#utility.yul\":5116:5117   */\n      dup2\n        /* \"#utility.yul\":5112:5122   */\n      add\n        /* \"#utility.yul\":5107:5122   */\n      swap1\n      pop\n        /* \"#utility.yul\":5083:5196   */\n      jump(tag_114)\n    tag_116:\n        /* \"#utility.yul\":5214:5220   */\n      dup4\n        /* \"#utility.yul\":5211:5212   */\n      dup2\n        /* \"#utility.yul\":5208:5221   */\n      gt\n        /* \"#utility.yul\":5205:5306   */\n      iszero\n      tag_117\n      jumpi\n        /* \"#utility.yul\":5294:5295   */\n      0x00\n        /* \"#utility.yul\":5285:5291   */\n      dup5\n        /* \"#utility.yul\":5280:5283   */\n      dup5\n        /* \"#utility.yul\":5276:5292   */\n      add\n        /* \"#utility.yul\":5269:5296   */\n      mstore\n        /* \"#utility.yul\":5205:5306   */\n    tag_117:\n        /* \"#utility.yul\":5054:5312   */\n      pop\n        /* \"#utility.yul\":5005:5312   */\n      pop\n      pop\n      pop\n      jump\t// out\n        /* \"#utility.yul\":5318:5599   */\n    tag_98:\n        /* \"#utility.yul\":5401:5428   */\n      tag_119\n        /* \"#utility.yul\":5423:5427   */\n      dup3\n        /* \"#utility.yul\":5401:5428   */\n      tag_91\n      jump\t// in\n    tag_119:\n        /* \"#utility.yul\":5393:5399   */\n      dup2\n        /* \"#utility.yul\":5389:5429   */\n      add\n        /* \"#utility.yul\":5531:5537   */\n      dup2\n        /* \"#utility.yul\":5519:5529   */\n      dup2\n        /* \"#utility.yul\":5516:5538   */\n      lt\n        /* \"#utility.yul\":5495:5513   */\n      0xffffffffffffffff\n        /* \"#utility.yul\":5483:5493   */\n      dup3\n        /* \"#utility.yul\":5480:5514   */\n      gt\n        /* \"#utility.yul\":5477:5539   */\n      or\n        /* \"#utility.yul\":5474:5562   */\n      iszero\n      tag_120\n      jumpi\n        /* \"#utility.yul\":5542:5560   */\n      tag_121\n      tag_103\n      jump\t// in\n    tag_121:\n        /* \"#utility.yul\":5474:5562   */\n    tag_120:\n        /* \"#utility.yul\":5582:5592   */\n      dup1\n        /* \"#utility.yul\":5578:5580   */\n      0x40\n        /* \"#utility.yul\":5571:5593   */\n      mstore\n        /* \"#utility.yul\":5361:5599   */\n      pop\n        /* \"#utility.yul\":5318:5599   */\n      pop\n      pop\n      jump\t// out\n        /* \"#utility.yul\":5605:5785   */\n    tag_103:\n        /* \"#utility.yul\":5653:5730   */\n      0x4e487b7100000000000000000000000000000000000000000000000000000000\n        /* \"#utility.yul\":5650:5651   */\n      0x00\n        /* \"#utility.yul\":5643:5731   */\n      mstore\n        /* \"#utility.yul\":5750:5754   */\n      0x41\n        /* \"#utility.yul\":5747:5748   */\n      0x04\n        /* \"#utility.yul\":5740:5755   */\n      mstore\n        /* \"#utility.yul\":5774:5778   */\n      0x24\n        /* \"#utility.yul\":5771:5772   */\n      0x00\n        /* \"#utility.yul\":5764:5779   */\n      revert\n        /* \"#utility.yul\":5791:5908   */\n    tag_58:\n        /* \"#utility.yul\":5900:5901   */\n      0x00\n        /* \"#utility.yul\":5897:5898   */\n      dup1\n        /* \"#utility.yul\":5890:5902   */\n      revert\n        /* \"#utility.yul\":5914:6031   */\n    tag_39:\n        /* \"#utility.yul\":6023:6024   */\n      0x00\n        /* \"#utility.yul\":6020:6021   */\n      dup1\n        /* \"#utility.yul\":6013:6025   */\n      revert\n        /* \"#utility.yul\":6037:6154   */\n    tag_75:\n        /* \"#utility.yul\":6146:6147   */\n      0x00\n        /* \"#utility.yul\":6143:6144   */\n      dup1\n        /* \"#utility.yul\":6136:6148   */\n      revert\n        /* \"#utility.yul\":6160:6277   */\n    tag_68:\n        /* \"#utility.yul\":6269:6270   */\n      0x00\n        /* \"#utility.yul\":6266:6267   */\n      dup1\n        /* \"#utility.yul\":6259:6271   */\n      revert\n        /* \"#utility.yul\":6283:6385   */\n    tag_91:\n        /* \"#utility.yul\":6324:6330   */\n      0x00\n        /* \"#utility.yul\":6375:6377   */\n      0x1f\n        /* \"#utility.yul\":6371:6378   */\n      not\n        /* \"#utility.yul\":6366:6368   */\n      0x1f\n        /* \"#utility.yul\":6359:6364   */\n      dup4\n        /* \"#utility.yul\":6355:6369   */\n      add\n        /* \"#utility.yul\":6351:6379   */\n      and\n        /* \"#utility.yul\":6341:6379   */\n      swap1\n      pop\n        /* \"#utility.yul\":6283:6385   */\n      swap2\n      swap1\n      pop\n      jump\t// out\n        /* \"#utility.yul\":6391:6513   */\n    tag_53:\n        /* \"#utility.yul\":6464:6488   */\n      tag_129\n        /* \"#utility.yul\":6482:6487   */\n      dup2\n        /* \"#utility.yul\":6464:6488   */\n      tag_107\n      jump\t// in\n    tag_129:\n        /* \"#utility.yul\":6457:6462   */\n      dup2\n        /* \"#utility.yul\":6454:6489   */\n      eq\n        /* \"#utility.yul\":6444:6507   */\n      tag_130\n      jumpi\n        /* \"#utility.yul\":6503:6504   */\n      0x00\n        /* \"#utility.yul\":6500:6501   */\n      dup1\n        /* \"#utility.yul\":6493:6505   */\n      revert\n        /* \"#utility.yul\":6444:6507   */\n    tag_130:\n        /* \"#utility.yul\":6391:6513   */\n      pop\n      jump\t// out\n\n    auxdata: 0xa2646970667358221220eb7a08ef19abc4ac5dcccca0f4327383da39c747bb1a34002da0a464599193a264736f6c63430008070033\n}\n",
				"bytecode": {
					"linkReferences": {},
					"object": "608060405234801561001057600080fd5b506040516106f53803806106f58339818101604052810190610032919061008d565b806000806101000a81548173ffffffffffffffffffffffffffffffffffffffff021916908373ffffffffffffffffffffffffffffffffffffffff16021790555050610108565b600081519050610087816100f1565b92915050565b6000602082840312156100a3576100a26100ec565b5b60006100b184828501610078565b91505092915050565b60006100c5826100cc565b9050919050565b600073ffffffffffffffffffffffffffffffffffffffff82169050919050565b600080fd5b6100fa816100ba565b811461010557600080fd5b50565b6105de806101176000396000f3fe608060405234801561001057600080fd5b50600436106100415760003560e01c80630900f0101461004657806317d7de7c14610062578063c47f002714610080575b600080fd5b610060600480360381019061005b919061030c565b61009c565b005b61006a6100df565b6040516100779190610404565b60405180910390f35b61009a60048036038101906100959190610339565b610189565b005b806000806101000a81548173ffffffffffffffffffffffffffffffffffffffff021916908373ffffffffffffffffffffffffffffffffffffffff16021790555050565b606060008054906101000a900473ffffffffffffffffffffffffffffffffffffffff1673ffffffffffffffffffffffffffffffffffffffff166317d7de7c6040518163ffffffff1660e01b815260040160006040518083038186803b15801561014757600080fd5b505afa15801561015b573d6000803e3d6000fd5b505050506040513d6000823e3d601f19601f820116820180604052508101906101849190610382565b905090565b60008054906101000a900473ffffffffffffffffffffffffffffffffffffffff1673ffffffffffffffffffffffffffffffffffffffff1663c47f0027826040518263ffffffff1660e01b81526004016101e29190610404565b600060405180830381600087803b1580156101fc57600080fd5b505af1158015610210573d6000803e3d6000fd5b5050505050565b600061022a6102258461044b565b610426565b90508281526020810184848401111561024657610245610571565b5b6102518482856104ca565b509392505050565b600061026c6102678461044b565b610426565b90508281526020810184848401111561028857610287610571565b5b6102938482856104d9565b509392505050565b6000813590506102aa81610591565b92915050565b600082601f8301126102c5576102c461056c565b5b81356102d5848260208601610217565b91505092915050565b600082601f8301126102f3576102f261056c565b5b8151610303848260208601610259565b91505092915050565b6000602082840312156103225761032161057b565b5b60006103308482850161029b565b91505092915050565b60006020828403121561034f5761034e61057b565b5b600082013567ffffffffffffffff81111561036d5761036c610576565b5b610379848285016102b0565b91505092915050565b6000602082840312156103985761039761057b565b5b600082015167ffffffffffffffff8111156103b6576103b5610576565b5b6103c2848285016102de565b91505092915050565b60006103d68261047c565b6103e08185610487565b93506103f08185602086016104d9565b6103f981610580565b840191505092915050565b6000602082019050818103600083015261041e81846103cb565b905092915050565b6000610430610441565b905061043c828261050c565b919050565b6000604051905090565b600067ffffffffffffffff8211156104665761046561053d565b5b61046f82610580565b9050602081019050919050565b600081519050919050565b600082825260208201905092915050565b60006104a3826104aa565b9050919050565b600073ffffffffffffffffffffffffffffffffffffffff82169050919050565b82818337600083830152505050565b60005b838110156104f75780820151818401526020810190506104dc565b83811115610506576000848401525b50505050565b61051582610580565b810181811067ffffffffffffffff821117156105345761053361053d565b5b80604052505050565b7f4e487b7100000000000000000000000000000000000000000000000000000000600052604160045260246000fd5b600080fd5b600080fd5b600080fd5b600080fd5b6000601f19601f8301169050919050565b61059a81610498565b81146105a557600080fd5b5056fea2646970667358221220eb7a08ef19abc4ac5dcccca0f4327383da39c747bb1a34002da0a464599193a264736f6c63430008070033",
					"opcodes": "PUSH1 0x80 PUSH1 0x40 MSTORE CALLVALUE DUP1 ISZERO PUSH2 0x10 JUMPI PUSH1 0x0 DUP1 REVERT JUMPDEST POP PUSH1 0x40 MLOAD PUSH2 0x6F5 CODESIZE SUB DUP1 PUSH2 0x6F5 DUP4 CODECOPY DUP2 DUP2 ADD PUSH1 0x40 MSTORE DUP2 ADD SWAP1 PUSH2 0x32 SWAP2 SWAP1 PUSH2 0x8D JUMP JUMPDEST DUP1 PUSH1 0x0 DUP1 PUSH2 0x100 EXP DUP2 SLOAD DUP2 PUSH20 0xFFFFFFFFFFFFFFFFFFFFFFFFFFFFFFFFFFFFFFFF MUL NOT AND SWAP1 DUP4 PUSH20 0xFFFFFFFFFFFFFFFFFFFFFFFFFFFFFFFFFFFFFFFF AND MUL OR SWAP1 SSTORE POP POP PUSH2 0x108 JUMP JUMPDEST PUSH1 0x0 DUP2 MLOAD SWAP1 POP PUSH2 0x87 DUP2 PUSH2 0xF1 JUMP JUMPDEST SWAP3 SWAP2 POP POP JUMP JUMPDEST PUSH1 0x0 PUSH1 0x20 DUP3 DUP5 SUB SLT ISZERO PUSH2 0xA3 JUMPI PUSH2 0xA2 PUSH2 0xEC JUMP JUMPDEST JUMPDEST PUSH1 0x0 PUSH2 0xB1 DUP5 DUP3 DUP6 ADD PUSH2 0x78 JUMP JUMPDEST SWAP2 POP POP SWAP3 SWAP2 POP POP JUMP JUMPDEST PUSH1 0x0 PUSH2 0xC5 DUP3 PUSH2 0xCC JUMP JUMPDEST SWAP1 POP SWAP2 SWAP1 POP JUMP JUMPDEST PUSH1 0x0 PUSH20 0xFFFFFFFFFFFFFFFFFFFFFFFFFFFFFFFFFFFFFFFF DUP3 AND SWAP1 POP SWAP2 SWAP1 POP JUMP JUMPDEST PUSH1 0x0 DUP1 REVERT JUMPDEST PUSH2 0xFA DUP2 PUSH2 0xBA JUMP JUMPDEST DUP2 EQ PUSH2 0x105 JUMPI PUSH1 0x0 DUP1 REVERT JUMPDEST POP JUMP JUMPDEST PUSH2 0x5DE DUP1 PUSH2 0x117 PUSH1 0x0 CODECOPY PUSH1 0x0 RETURN INVALID PUSH1 0x80 PUSH1 0x40 MSTORE CALLVALUE DUP1 ISZERO PUSH2 0x10 JUMPI PUSH1 0x0 DUP1 REVERT JUMPDEST POP PUSH1 0x4 CALLDATASIZE LT PUSH2 0x41 JUMPI PUSH1 0x0 CALLDATALOAD PUSH1 0xE0 SHR DUP1 PUSH4 0x900F010 EQ PUSH2 0x46 JUMPI DUP1 PUSH4 0x17D7DE7C EQ PUSH2 0x62 JUMPI DUP1 PUSH4 0xC47F0027 EQ PUSH2 0x80 JUMPI JUMPDEST PUSH1 0x0 DUP1 REVERT JUMPDEST PUSH2 0x60 PUSH1 0x4 DUP1 CALLDATASIZE SUB DUP2 ADD SWAP1 PUSH2 0x5B SWAP2 SWAP1 PUSH2 0x30C JUMP JUMPDEST PUSH2 0x9C JUMP JUMPDEST STOP JUMPDEST PUSH2 0x6A PUSH2 0xDF JUMP JUMPDEST PUSH1 0x40 MLOAD PUSH2 0x77 SWAP2 SWAP1 PUSH2 0x404 JUMP JUMPDEST PUSH1 0x40 MLOAD DUP1 SWAP2 SUB SWAP1 RETURN JUMPDEST PUSH2 0x9A PUSH1 0x4 DUP1 CALLDATASIZE SUB DUP2 ADD SWAP1 PUSH2 0x95 SWAP2 SWAP1 PUSH2 0x339 JUMP JUMPDEST PUSH2 0x189 JUMP JUMPDEST STOP JUMPDEST DUP1 PUSH1 0x0 DUP1 PUSH2 0x100 EXP DUP2 SLOAD DUP2 PUSH20 0xFFFFFFFFFFFFFFFFFFFFFFFFFFFFFFFFFFFFFFFF MUL NOT AND SWAP1 DUP4 PUSH20 0xFFFFFFFFFFFFFFFFFFFFFFFFFFFFFFFFFFFFFFFF AND MUL OR SWAP1 SSTORE POP POP JUMP JUMPDEST PUSH1 0x60 PUSH1 0x0 DUP1 SLOAD SWAP1 PUSH2 0x100 EXP SWAP1 DIV PUSH20 0xFFFFFFFFFFFFFFFFFFFFFFFFFFFFFFFFFFFFFFFF AND PUSH20 0xFFFFFFFFFFFFFFFFFFFFFFFFFFFFFFFFFFFFFFFF AND PUSH4 0x17D7DE7C PUSH1 0x40 MLOAD DUP2 PUSH4 0xFFFFFFFF AND PUSH1 0xE0 SHL DUP2 MSTORE PUSH1 0x4 ADD PUSH1 0x0 PUSH1 0x40 MLOAD DUP1 DUP4 SUB DUP2 DUP7 DUP1 EXTCODESIZE ISZERO DUP1 ISZERO PUSH2 0x147 JUMPI PUSH1 0x0 DUP1 REVERT JUMPDEST POP GAS STATICCALL ISZERO DUP1 ISZERO PUSH2 0x15B JUMPI RETURNDATASIZE PUSH1 0x0 DUP1 RETURNDATACOPY RETURNDATASIZE PUSH1 0x0 REVERT JUMPDEST POP POP POP POP PUSH1 0x40 MLOAD RETURNDATASIZE PUSH1 0x0 DUP3 RETURNDATACOPY RETURNDATASIZE PUSH1 0x1F NOT PUSH1 0x1F DUP3 ADD AND DUP3 ADD DUP1 PUSH1 0x40 MSTORE POP DUP2 ADD SWAP1 PUSH2 0x184 SWAP2 SWAP1 PUSH2 0x382 JUMP JUMPDEST SWAP1 POP SWAP1 JUMP JUMPDEST PUSH1 0x0 DUP1 SLOAD SWAP1 PUSH2 0x100 EXP SWAP1 DIV PUSH20 0xFFFFFFFFFFFFFFFFFFFFFFFFFFFFFFFFFFFFFFFF AND PUSH20 0xFFFFFFFFFFFFFFFFFFFFFFFFFFFFFFFFFFFFFFFF AND PUSH4 0xC47F0027 DUP3 PUSH1 0x40 MLOAD DUP3 PUSH4 0xFFFFFFFF AND PUSH1 0xE0 SHL DUP2 MSTORE PUSH1 0x4 ADD PUSH2 0x1E2 SWAP2 SWAP1 PUSH2 0x404 JUMP JUMPDEST PUSH1 0x0 PUSH1 0x40 MLOAD DUP1 DUP4 SUB DUP2 PUSH1 0x0 DUP8 DUP1 EXTCODESIZE ISZERO DUP1 ISZERO PUSH2 0x1FC JUMPI PUSH1 0x0 DUP1 REVERT JUMPDEST POP GAS CALL ISZERO DUP1 ISZERO PUSH2 0x210 JUMPI RETURNDATASIZE PUSH1 0x0 DUP1 RETURNDATACOPY RETURNDATASIZE PUSH1 0x0 REVERT JUMPDEST POP POP POP POP POP JUMP JUMPDEST PUSH1 0x0 PUSH2 0x22A PUSH2 0x225 DUP5 PUSH2 0x44B JUMP JUMPDEST PUSH2 0x426 JUMP JUMPDEST SWAP1 POP DUP3 DUP2 MSTORE PUSH1 0x20 DUP2 ADD DUP5 DUP5 DUP5 ADD GT ISZERO PUSH2 0x246 JUMPI PUSH2 0x245 PUSH2 0x571 JUMP JUMPDEST JUMPDEST PUSH2 0x251 DUP5 DUP3 DUP6 PUSH2 0x4CA JUMP JUMPDEST POP SWAP4 SWAP3 POP POP POP JUMP JUMPDEST PUSH1 0x0 PUSH2 0x26C PUSH2 0x267 DUP5 PUSH2 0x44B JUMP JUMPDEST PUSH2 0x426 JUMP JUMPDEST SWAP1 POP DUP3 DUP2 MSTORE PUSH1 0x20 DUP2 ADD DUP5 DUP5 DUP5 ADD GT ISZERO PUSH2 0x288 JUMPI PUSH2 0x287 PUSH2 0x571 JUMP JUMPDEST JUMPDEST PUSH2 0x293 DUP5 DUP3 DUP6 PUSH2 0x4D9 JUMP JUMPDEST POP SWAP4 SWAP3 POP POP POP JUMP JUMPDEST PUSH1 0x0 DUP2 CALLDATALOAD SWAP1 POP PUSH2 0x2AA DUP2 PUSH2 0x591 JUMP JUMPDEST SWAP3 SWAP2 POP POP JUMP JUMPDEST PUSH1 0x0 DUP3 PUSH1 0x1F DUP4 ADD SLT PUSH2 0x2C5 JUMPI PUSH2 0x2C4 PUSH2 0x56C JUMP JUMPDEST JUMPDEST DUP2 CALLDATALOAD PUSH2 0x2D5 DUP5 DUP3 PUSH1 0x20 DUP7 ADD PUSH2 0x217 JUMP JUMPDEST SWAP2 POP POP SWAP3 SWAP2 POP POP JUMP JUMPDEST PUSH1 0x0 DUP3 PUSH1 0x1F DUP4 ADD SLT PUSH2 0x2F3 JUMPI PUSH2 0x2F2 PUSH2 0x56C JUMP JUMPDEST JUMPDEST DUP2 MLOAD PUSH2 0x303 DUP5 DUP3 PUSH1 0x20 DUP7 ADD PUSH2 0x259 JUMP JUMPDEST SWAP2 POP POP SWAP3 SWAP2 POP POP JUMP JUMPDEST PUSH1 0x0 PUSH1 0x20 DUP3 DUP5 SUB SLT ISZERO PUSH2 0x322 JUMPI PUSH2 0x321 PUSH2 0x57B JUMP JUMPDEST JUMPDEST PUSH1 0x0 PUSH2 0x330 DUP5 DUP3 DUP6 ADD PUSH2 0x29B JUMP JUMPDEST SWAP2 POP POP SWAP3 SWAP2 POP POP JUMP JUMPDEST PUSH1 0x0 PUSH1 0x20 DUP3 DUP5 SUB SLT ISZERO PUSH2 0x34F JUMPI PUSH2 0x34E PUSH2 0x57B JUMP JUMPDEST JUMPDEST PUSH1 0x0 DUP3 ADD CALLDATALOAD PUSH8 0xFFFFFFFFFFFFFFFF DUP2 GT ISZERO PUSH2 0x36D JUMPI PUSH2 0x36C PUSH2 0x576 JUMP JUMPDEST JUMPDEST PUSH2 0x379 DUP5 DUP3 DUP6 ADD PUSH2 0x2B0 JUMP JUMPDEST SWAP2 POP POP SWAP3 SWAP2 POP POP JUMP JUMPDEST PUSH1 0x0 PUSH1 0x20 DUP3 DUP5 SUB SLT ISZERO PUSH2 0x398 JUMPI PUSH2 0x397 PUSH2 0x57B JUMP JUMPDEST JUMPDEST PUSH1 0x0 DUP3 ADD MLOAD PUSH8 0xFFFFFFFFFFFFFFFF DUP2 GT ISZERO PUSH2 0x3B6 JUMPI PUSH2 0x3B5 PUSH2 0x576 JUMP JUMPDEST JUMPDEST PUSH2 0x3C2 DUP5 DUP3 DUP6 ADD PUSH2 0x2DE JUMP JUMPDEST SWAP2 POP POP SWAP3 SWAP2 POP POP JUMP JUMPDEST PUSH1 0x0 PUSH2 0x3D6 DUP3 PUSH2 0x47C JUMP JUMPDEST PUSH2 0x3E0 DUP2 DUP6 PUSH2 0x487 JUMP JUMPDEST SWAP4 POP PUSH2 0x3F0 DUP2 DUP6 PUSH1 0x20 DUP7 ADD PUSH2 0x4D9 JUMP JUMPDEST PUSH2 0x3F9 DUP2 PUSH2 0x580 JUMP JUMPDEST DUP5 ADD SWAP2 POP POP SWAP3 SWAP2 POP POP JUMP JUMPDEST PUSH1 0x0 PUSH1 0x20 DUP3 ADD SWAP1 POP DUP2 DUP2 SUB PUSH1 0x0 DUP4 ADD MSTORE PUSH2 0x41E DUP2 DUP5 PUSH2 0x3CB JUMP JUMPDEST SWAP1 POP SWAP3 SWAP2 POP POP JUMP JUMPDEST PUSH1 0x0 PUSH2 0x430 PUSH2 0x441 JUMP JUMPDEST SWAP1 POP PUSH2 0x43C DUP3 DUP3 PUSH2 0x50C JUMP JUMPDEST SWAP2 SWAP1 POP JUMP JUMPDEST PUSH1 0x0 PUSH1 0x40 MLOAD SWAP1 POP SWAP1 JUMP JUMPDEST PUSH1 0x0 PUSH8 0xFFFFFFFFFFFFFFFF DUP3 GT ISZERO PUSH2 0x466 JUMPI PUSH2 0x465 PUSH2 0x53D JUMP JUMPDEST JUMPDEST PUSH2 0x46F DUP3 PUSH2 0x580 JUMP JUMPDEST SWAP1 POP PUSH1 0x20 DUP2 ADD SWAP1 POP SWAP2 SWAP1 POP JUMP JUMPDEST PUSH1 0x0 DUP2 MLOAD SWAP1 POP SWAP2 SWAP1 POP JUMP JUMPDEST PUSH1 0x0 DUP3 DUP3 MSTORE PUSH1 0x20 DUP3 ADD SWAP1 POP SWAP3 SWAP2 POP POP JUMP JUMPDEST PUSH1 0x0 PUSH2 0x4A3 DUP3 PUSH2 0x4AA JUMP JUMPDEST SWAP1 POP SWAP2 SWAP1 POP JUMP JUMPDEST PUSH1 0x0 PUSH20 0xFFFFFFFFFFFFFFFFFFFFFFFFFFFFFFFFFFFFFFFF DUP3 AND SWAP1 POP SWAP2 SWAP1 POP JUMP JUMPDEST DUP3 DUP2 DUP4 CALLDATACOPY PUSH1 0x0 DUP4 DUP4 ADD MSTORE POP POP POP JUMP JUMPDEST PUSH1 0x0 JUMPDEST DUP4 DUP2 LT ISZERO PUSH2 0x4F7 JUMPI DUP1 DUP3 ADD MLOAD DUP2 DUP5 ADD MSTORE PUSH1 0x20 DUP2 ADD SWAP1 POP PUSH2 0x4DC JUMP JUMPDEST DUP4 DUP2 GT ISZERO PUSH2 0x506 JUMPI PUSH1 0x0 DUP5 DUP5 ADD MSTORE JUMPDEST POP POP POP POP JUMP JUMPDEST PUSH2 0x515 DUP3 PUSH2 0x580 JUMP JUMPDEST DUP2 ADD DUP2 DUP2 LT PUSH8 0xFFFFFFFFFFFFFFFF DUP3 GT OR ISZERO PUSH2 0x534 JUMPI PUSH2 0x533 PUSH2 0x53D JUMP JUMPDEST JUMPDEST DUP1 PUSH1 0x40 MSTORE POP POP POP JUMP JUMPDEST PUSH32 0x4E487B7100000000000000000000000000000000000000000000000000000000 PUSH1 0x0 MSTORE PUSH1 0x41 PUSH1 0x4 MSTORE PUSH1 0x24 PUSH1 0x0 REVERT JUMPDEST PUSH1 0x0 DUP1 REVERT JUMPDEST PUSH1 0x0 DUP1 REVERT JUMPDEST PUSH1 0x0 DUP1 REVERT JUMPDEST PUSH1 0x0 DUP1 REVERT JUMPDEST PUSH1 0x0 PUSH1 0x1F NOT PUSH1 0x1F DUP4 ADD AND SWAP1 POP SWAP2 SWAP1 POP JUMP JUMPDEST PUSH2 0x59A DUP2 PUSH2 0x498 JUMP JUMPDEST DUP2 EQ PUSH2 0x5A5 JUMPI PUSH1 0x0 DUP1 REVERT JUMPDEST POP JUMP INVALID LOG2 PUSH5 0x6970667358 0x22 SLT KECCAK256 0xEB PUSH27 0x8EF19ABC4AC5DCCCCA0F4327383DA39C747BB1A34002DA0A46459 SWAP2 SWAP4 LOG2 PUSH5 0x736F6C6343 STOP ADDMOD SMOD STOP CALLER "
				},
				"gasEstimates": {
					"creation": {
						"codeDepositCost": "300400",
						"executionCost": "infinite",
						"totalCost": "infinite"
					},
					"external": {
						"getName()": "infinite",
						"setName(string)": "infinite",
						"upgrade(address)": "24700"
					}
				},
				"methodIdentifiers": {
					"getName()": "17d7de7c",
					"setName(string)": "c47f0027",
					"upgrade(address)": "0900f010"
				}
			},
			"storageLayout": {
				"storage": [
					{
						"astId": 40,
						"contract": "advance/06-call-demo2.sol:call_demo",
						"label": "a",
						"offset": 0,
						"slot": "0",
						"type": "t_contract(IA)12"
					}
				],
				"types": {
					"t_contract(IA)12": {
						"encoding": "inplace",
						"label": "contract IA",
						"numberOfBytes": "20"
					}
				}
			},
			"userdoc": {
				"kind": "user",
				"methods": {},
				"version": 1
			}
		}
	}
}