{
	"data": {
		"bytecode": {
			"linkReferences": {},
			"object": "608060405234801561001057600080fd5b506133a9806100206000396000f3fe60806040523480156200001157600080fd5b5060043610620000885760003560e01c8063473b084c1162000063578063473b084c146200012f5780634ec6b62b1462000165578063a55f9927146200019b578063f5610d8214620001d15762000088565b806338f9fb94146200008d5780634430e65814620000c3578063462a1fad14620000f9575b600080fd5b620000ab6004803603810190620000a5919062000a4b565b62000207565b604051620000ba919062000eea565b60405180910390f35b620000e16004803603810190620000db919062000ac4565b62000372565b604051620000f0919062000eb0565b60405180910390f35b62000117600480360381019062000111919062000a7d565b62000422565b60405162000126919062000e8c565b60405180910390f35b6200014d600480360381019062000147919062000a4b565b620004d0565b6040516200015c919062000eea565b60405180910390f35b6200018360048036038101906200017d919062000b87565b6200050f565b60405162000192919062000ecd565b60405180910390f35b620001b96004803603810190620001b3919062000a7d565b62000541565b604051620001c8919062000fcb565b60405180910390f35b620001ef6004803603810190620001e9919062000a7d565b620005e9565b604051620001fe919062000f07565b60405180910390f35b600080600083815260200190815260200160002060000160149054906101000a900460ff16156200026f576040517f08c379a0000000000000000000000000000000000000000000000000000000008152600401620002669062000f48565b60405180910390fd5b600082604051620002809062000693565b6200028c919062000ecd565b604051809103906000f080158015620002a9573d6000803e3d6000fd5b509050600160008085815260200190815260200160002060000160146101000a81548160ff0219169083151502179055508060008085815260200190815260200160002060000160006101000a81548173ffffffffffffffffffffffffffffffffffffffff021916908373ffffffffffffffffffffffffffffffffffffffff1602179055507f29c10f977b5f95f51520ff820b625f02f1e711f199c1306e359ffd067d1f21e133846040516200036192919062000e5f565b60405180910390a180915050919050565b6000806200038086620004d0565b90508073ffffffffffffffffffffffffffffffffffffffff1663a2a8578d8686866040518463ffffffff1660e01b8152600401620003c19392919062000f87565b602060405180830381600087803b158015620003dc57600080fd5b505af1158015620003f1573d6000803e3d6000fd5b505050506040513d601f19601f8201168201806040525081019062000417919062000a19565b915050949350505050565b606060006200043184620004d0565b90508073ffffffffffffffffffffffffffffffffffffffff16631e81c3ad846040518263ffffffff1660e01b81526004016200046e919062000f6a565b60006040518083038186803b1580156200048757600080fd5b505afa1580156200049c573d6000803e3d6000fd5b505050506040513d6000823e3d601f19601f82011682018060405250810190620004c79190620009c8565b91505092915050565b600080600083815260200190815260200160002060000160009054906101000a900473ffffffffffffffffffffffffffffffffffffffff169050919050565b60008160405160200162000524919062000f24565b604051602081830303815290604052805190602001209050919050565b6000806200054f84620004d0565b90508073ffffffffffffffffffffffffffffffffffffffff16635c622a0e846040518263ffffffff1660e01b81526004016200058c919062000f6a565b60206040518083038186803b158015620005a557600080fd5b505afa158015620005ba573d6000803e3d6000fd5b505050506040513d601f19601f82011682018060405250810190620005e0919062000bd8565b91505092915050565b600080620005f784620004d0565b90508073ffffffffffffffffffffffffffffffffffffffff16635a35dc9f846040518263ffffffff1660e01b815260040162000634919062000f6a565b602060405180830381600087803b1580156200064f57600080fd5b505af115801562000664573d6000803e3d6000fd5b505050506040513d601f19601f820116820180604052508101906200068a919062000b55565b91505092915050565b61202f806200134583390190565b6000620006b8620006b28462001011565b62000fe8565b90508083825260208201905082856020860282011115620006de57620006dd6200125a565b5b60005b858110156200073357815167ffffffffffffffff8111156200070857620007076200124b565b5b808601620007178982620008c8565b85526020850194506020840193505050600181019050620006e1565b5050509392505050565b6000620007546200074e8462001040565b62000fe8565b9050828152602081018484840111156200077357620007726200125f565b5b62000780848285620011a1565b509392505050565b60006200079f620007998462001040565b62000fe8565b905082815260208101848484011115620007be57620007bd6200125f565b5b620007cb848285620011b0565b509392505050565b600081519050620007e481620012a8565b92915050565b600082601f8301126200080257620008016200124b565b5b815162000814848260208601620006a1565b91505092915050565b6000815190506200082e81620012c2565b92915050565b6000813590506200084581620012dc565b92915050565b6000815190506200085c81620012f6565b92915050565b600082601f8301126200087a57620008796200124b565b5b81356200088c8482602086016200073d565b91505092915050565b600082601f830112620008ad57620008ac6200124b565b5b8151620008bf84826020860162000788565b91505092915050565b600060808284031215620008e157620008e062001250565b5b620008ed608062000fe8565b90506000620008ff84828501620007d3565b60008301525060206200091584828501620009b1565b60208301525060406200092b8482850162000983565b604083015250606082015167ffffffffffffffff81111562000952576200095162001255565b5b620009608482850162000895565b60608301525092915050565b6000813590506200097d8162001310565b92915050565b600081519050620009948162001310565b92915050565b600081359050620009ab816200132a565b92915050565b600081519050620009c2816200132a565b92915050565b600060208284031215620009e157620009e062001269565b5b600082015167ffffffffffffffff81111562000a025762000a0162001264565b5b62000a1084828501620007ea565b91505092915050565b60006020828403121562000a325762000a3162001269565b5b600062000a42848285016200081d565b91505092915050565b60006020828403121562000a645762000a6362001269565b5b600062000a748482850162000834565b91505092915050565b6000806040838503121562000a975762000a9662001269565b5b600062000aa78582860162000834565b925050602062000aba858286016200096c565b9150509250929050565b6000806000806080858703121562000ae15762000ae062001269565b5b600062000af18782880162000834565b945050602062000b04878288016200096c565b935050604062000b17878288016200099a565b925050606085013567ffffffffffffffff81111562000b3b5762000b3a62001264565b5b62000b498782880162000862565b91505092959194509250565b60006020828403121562000b6e5762000b6d62001269565b5b600062000b7e848285016200084b565b91505092915050565b60006020828403121562000ba05762000b9f62001269565b5b600082013567ffffffffffffffff81111562000bc15762000bc062001264565b5b62000bcf8482850162000862565b91505092915050565b60006020828403121562000bf15762000bf062001269565b5b600062000c0184828501620009b1565b91505092915050565b600062000c18838362000db0565b905092915050565b62000c2b81620010dc565b82525050565b62000c3c81620010dc565b82525050565b600062000c4f8262001086565b62000c5b8185620010a9565b93508360208202850162000c6f8562001076565b8060005b8581101562000cb1578484038952815162000c8f858262000c0a565b945062000c9c836200109c565b925060208a0199505060018101905062000c73565b50829750879550505050505092915050565b62000cce81620010f0565b82525050565b62000cdf81620010fc565b82525050565b62000cf08162001151565b82525050565b62000d018162001165565b82525050565b600062000d148262001091565b62000d208185620010ba565b935062000d32818560208601620011b0565b62000d3d816200126e565b840191505092915050565b600062000d558262001091565b62000d618185620010cb565b935062000d73818560208601620011b0565b62000d7e816200126e565b840191505092915050565b600062000d98601683620010cb565b915062000da5826200127f565b602082019050919050565b600060808301600083015162000dca600086018262000c20565b50602083015162000ddf602086018262000e3d565b50604083015162000df4604086018262000e1b565b506060830151848203606086015262000e0e828262000d07565b9150508091505092915050565b62000e26816200113a565b82525050565b62000e37816200113a565b82525050565b62000e488162001144565b82525050565b62000e598162001144565b82525050565b600060408201905062000e76600083018562000c31565b62000e85602083018462000cd4565b9392505050565b6000602082019050818103600083015262000ea8818462000c42565b905092915050565b600060208201905062000ec7600083018462000cc3565b92915050565b600060208201905062000ee4600083018462000cd4565b92915050565b600060208201905062000f01600083018462000ce5565b92915050565b600060208201905062000f1e600083018462000cf6565b92915050565b6000602082019050818103600083015262000f40818462000d48565b905092915050565b6000602082019050818103600083015262000f638162000d89565b9050919050565b600060208201905062000f81600083018462000e2c565b92915050565b600060608201905062000f9e600083018662000e2c565b62000fad602083018562000e4e565b818103604083015262000fc1818462000d48565b9050949350505050565b600060208201905062000fe2600083018462000e4e565b92915050565b600062000ff462001007565b9050620010028282620011e6565b919050565b6000604051905090565b600067ffffffffffffffff8211156200102f576200102e6200121c565b5b602082029050602081019050919050565b600067ffffffffffffffff8211156200105e576200105d6200121c565b5b62001069826200126e565b9050602081019050919050565b6000819050602082019050919050565b600081519050919050565b600081519050919050565b6000602082019050919050565b600082825260208201905092915050565b600082825260208201905092915050565b600082825260208201905092915050565b6000620010e9826200111a565b9050919050565b60008115159050919050565b6000819050919050565b60006200111382620010dc565b9050919050565b600073ffffffffffffffffffffffffffffffffffffffff82169050919050565b6000819050919050565b600060ff82169050919050565b60006200115e8262001179565b9050919050565b6000620011728262001179565b9050919050565b600062001186826200118d565b9050919050565b60006200119a826200111a565b9050919050565b82818337600083830152505050565b60005b83811015620011d0578082015181840152602081019050620011b3565b83811115620011e0576000848401525b50505050565b620011f1826200126e565b810181811067ffffffffffffffff821117156200121357620012126200121c565b5b80604052505050565b7f4e487b7100000000000000000000000000000000000000000000000000000000600052604160045260246000fd5b600080fd5b600080fd5b600080fd5b600080fd5b600080fd5b600080fd5b600080fd5b6000601f19601f8301169050919050565b7f636174676f727920616c72656164792065786973747300000000000000000000600082015250565b620012b381620010dc565b8114620012bf57600080fd5b50565b620012cd81620010f0565b8114620012d957600080fd5b50565b620012e781620010fc565b8114620012f357600080fd5b50565b620013018162001106565b81146200130d57600080fd5b50565b6200131b816200113a565b81146200132757600080fd5b50565b620013358162001144565b81146200134157600080fd5b5056fe608060405234801561001057600080fd5b506040516200202f3803806200202f83398181016040528101906100349190610056565b80600081905550506100a9565b60008151905061005081610092565b92915050565b60006020828403121561006c5761006b61008d565b5b600061007a84828501610041565b91505092915050565b6000819050919050565b600080fd5b61009b81610083565b81146100a657600080fd5b50565b611f7680620000b96000396000f3fe60806040523480156200001157600080fd5b50600436106200005e5760003560e01c80631e81c3ad14620000635780635a35dc9f14620000995780635c622a0e14620000cf578063a2a8578d1462000105578063b2590033146200013b575b600080fd5b6200008160048036038101906200007b91906200095f565b62000172565b60405162000090919062000c9e565b60405180910390f35b620000b76004803603810190620000b191906200095f565b62000238565b604051620000c6919062000d0c565b60405180910390f35b620000ed6004803603810190620000e791906200095f565b620003a5565b604051620000fc919062000d68565b60405180910390f35b6200012360048036038101906200011d919062000991565b6200049a565b60405162000132919062000cc2565b60405180910390f35b6200015960048036038101906200015391906200095f565b6200056e565b6040516200016992919062000cdf565b60405180910390f35b60606001600083815260200190815260200160002060000160009054906101000a900473ffffffffffffffffffffffffffffffffffffffff1673ffffffffffffffffffffffffffffffffffffffff1663f0d984e46040518163ffffffff1660e01b815260040160006040518083038186803b158015620001f157600080fd5b505afa15801562000206573d6000803e3d6000fd5b505050506040513d6000823e3d601f19601f82011682018060405250810190620002319190620008dc565b9050919050565b60006001600083815260200190815260200160002060000160149054906101000a900460ff1615620002a1576040517f08c379a0000000000000000000000000000000000000000000000000000000008152600401620002989062000d29565b60405180910390fd5b600180600084815260200190815260200160002060000160146101000a81548160ff021916908315150217905550600082604051620002e090620005d5565b620002ec919062000d4b565b604051809103906000f08015801562000309573d6000803e3d6000fd5b509050806001600085815260200190815260200160002060000160006101000a81548173ffffffffffffffffffffffffffffffffffffffff021916908373ffffffffffffffffffffffffffffffffffffffff1602179055507ffcd250d4823d3120f25f4aedf84774079aa371901ba8e4404b92ceda1a7948c833846040516200039492919062000c71565b60405180910390a180915050919050565b60006001600083815260200190815260200160002060000160149054906101000a900460ff16620003da5760ff905062000495565b6001600083815260200190815260200160002060000160009054906101000a900473ffffffffffffffffffffffffffffffffffffffff1673ffffffffffffffffffffffffffffffffffffffff16634e69d5606040518163ffffffff1660e01b815260040160206040518083038186803b1580156200045757600080fd5b505afa1580156200046c573d6000803e3d6000fd5b505050506040513d601f19601f8201168201806040525081019062000492919062000a0c565b90505b919050565b60006001600085815260200190815260200160002060000160009054906101000a900473ffffffffffffffffffffffffffffffffffffffff1673ffffffffffffffffffffffffffffffffffffffff1663173d773d84846040518363ffffffff1660e01b81526004016200050f92919062000d85565b602060405180830381600087803b1580156200052a57600080fd5b505af11580156200053f573d6000803e3d6000fd5b505050506040513d601f19601f820116820180604052508101906200056591906200092d565b90509392505050565b6000806001600084815260200190815260200160002060000160149054906101000a900460ff166001600085815260200190815260200160002060000160009054906101000a900473ffffffffffffffffffffffffffffffffffffffff1691509150915091565b610e9180620010b083390190565b6000620005fa620005f48462000de2565b62000db9565b9050808382526020820190508285602086028201111562000620576200061f62000ff9565b5b60005b858110156200067557815167ffffffffffffffff8111156200064a576200064962000fea565b5b808601620006598982620007dc565b8552602085019450602084019350505060018101905062000623565b5050509392505050565b600062000696620006908462000e11565b62000db9565b905082815260208101848484011115620006b557620006b462000ffe565b5b620006c284828562000f40565b509392505050565b6000620006e1620006db8462000e11565b62000db9565b9050828152602081018484840111156200070057620006ff62000ffe565b5b6200070d84828562000f4f565b509392505050565b600081519050620007268162001047565b92915050565b600082601f83011262000744576200074362000fea565b5b815162000756848260208601620005e3565b91505092915050565b600081519050620007708162001061565b92915050565b600082601f8301126200078e576200078d62000fea565b5b8135620007a08482602086016200067f565b91505092915050565b600082601f830112620007c157620007c062000fea565b5b8151620007d3848260208601620006ca565b91505092915050565b600060808284031215620007f557620007f462000fef565b5b62000801608062000db9565b90506000620008138482850162000715565b60008301525060206200082984828501620008c5565b60208301525060406200083f8482850162000897565b604083015250606082015167ffffffffffffffff81111562000866576200086562000ff4565b5b6200087484828501620007a9565b60608301525092915050565b60008135905062000891816200107b565b92915050565b600081519050620008a8816200107b565b92915050565b600081359050620008bf8162001095565b92915050565b600081519050620008d68162001095565b92915050565b600060208284031215620008f557620008f462001008565b5b600082015167ffffffffffffffff81111562000916576200091562001003565b5b62000924848285016200072c565b91505092915050565b60006020828403121562000946576200094562001008565b5b600062000956848285016200075f565b91505092915050565b60006020828403121562000978576200097762001008565b5b6000620009888482850162000880565b91505092915050565b600080600060608486031215620009ad57620009ac62001008565b5b6000620009bd8682870162000880565b9350506020620009d086828701620008ae565b925050604084013567ffffffffffffffff811115620009f457620009f362001003565b5b62000a028682870162000776565b9150509250925092565b60006020828403121562000a255762000a2462001008565b5b600062000a3584828501620008c5565b91505092915050565b600062000a4c838362000bc2565b905092915050565b62000a5f8162000ead565b82525050565b62000a708162000ead565b82525050565b600062000a838262000e57565b62000a8f818562000e7a565b93508360208202850162000aa38562000e47565b8060005b8581101562000ae5578484038952815162000ac3858262000a3e565b945062000ad08362000e6d565b925060208a0199505060018101905062000aa7565b50829750879550505050505092915050565b62000b028162000ec1565b82525050565b62000b138162000f04565b82525050565b600062000b268262000e62565b62000b32818562000e8b565b935062000b4481856020860162000f4f565b62000b4f816200100d565b840191505092915050565b600062000b678262000e62565b62000b73818562000e9c565b935062000b8581856020860162000f4f565b62000b90816200100d565b840191505092915050565b600062000baa60168362000e9c565b915062000bb7826200101e565b602082019050919050565b600060808301600083015162000bdc600086018262000a54565b50602083015162000bf1602086018262000c4f565b50604083015162000c06604086018262000c2d565b506060830151848203606086015262000c20828262000b19565b9150508091505092915050565b62000c388162000eed565b82525050565b62000c498162000eed565b82525050565b62000c5a8162000ef7565b82525050565b62000c6b8162000ef7565b82525050565b600060408201905062000c88600083018562000a65565b62000c97602083018462000c3e565b9392505050565b6000602082019050818103600083015262000cba818462000a76565b905092915050565b600060208201905062000cd9600083018462000af7565b92915050565b600060408201905062000cf6600083018562000af7565b62000d05602083018462000b08565b9392505050565b600060208201905062000d23600083018462000b08565b92915050565b6000602082019050818103600083015262000d448162000b9b565b9050919050565b600060208201905062000d62600083018462000c3e565b92915050565b600060208201905062000d7f600083018462000c60565b92915050565b600060408201905062000d9c600083018562000c60565b818103602083015262000db0818462000b5a565b90509392505050565b600062000dc562000dd8565b905062000dd3828262000f85565b919050565b6000604051905090565b600067ffffffffffffffff82111562000e005762000dff62000fbb565b5b602082029050602081019050919050565b600067ffffffffffffffff82111562000e2f5762000e2e62000fbb565b5b62000e3a826200100d565b9050602081019050919050565b6000819050602082019050919050565b600081519050919050565b600081519050919050565b6000602082019050919050565b600082825260208201905092915050565b600082825260208201905092915050565b600082825260208201905092915050565b600062000eba8262000ecd565b9050919050565b60008115159050919050565b600073ffffffffffffffffffffffffffffffffffffffff82169050919050565b6000819050919050565b600060ff82169050919050565b600062000f118262000f18565b9050919050565b600062000f258262000f2c565b9050919050565b600062000f398262000ecd565b9050919050565b82818337600083830152505050565b60005b8381101562000f6f57808201518184015260208101905062000f52565b8381111562000f7f576000848401525b50505050565b62000f90826200100d565b810181811067ffffffffffffffff8211171562000fb25762000fb162000fbb565b5b80604052505050565b7f4e487b7100000000000000000000000000000000000000000000000000000000600052604160045260246000fd5b600080fd5b600080fd5b600080fd5b600080fd5b600080fd5b600080fd5b600080fd5b6000601f19601f8301169050919050565b7f676f6f6473494420616c72656164792065786973747300000000000000000000600082015250565b620010528162000ead565b81146200105e57600080fd5b50565b6200106c8162000ec1565b81146200107857600080fd5b50565b620010868162000eed565b81146200109257600080fd5b50565b620010a08162000ef7565b8114620010ac57600080fd5b5056fe60806040523480156200001157600080fd5b5060405162000e9138038062000e91833981810160405281019062000037919062000294565b80600081905550600260405180608001604052803273ffffffffffffffffffffffffffffffffffffffff168152602001600060ff1681526020014281526020016040518060400160405280600681526020017f6372656174650000000000000000000000000000000000000000000000000000815250815250908060018154018082558091505060019003906000526020600020906003020160009091909190915060008201518160000160006101000a81548173ffffffffffffffffffffffffffffffffffffffff021916908373ffffffffffffffffffffffffffffffffffffffff16021790555060208201518160000160146101000a81548160ff021916908360ff16021790555060408201518160010155606082015181600201908051906020019062000169929190620001cd565b5050506000600160006101000a81548160ff021916908360ff1602179055507f38930409e72d179a853c881163fcee8ed63d42ec95ee4599fc17e0421e1303d832600042604051620001be9392919062000320565b60405180910390a1506200047b565b828054620001db90620003ce565b90600052602060002090601f016020900481019282620001ff57600085556200024b565b82601f106200021a57805160ff19168380011785556200024b565b828001600101855582156200024b579182015b828111156200024a5782518255916020019190600101906200022d565b5b5090506200025a91906200025e565b5090565b5b80821115620002795760008160009055506001016200025f565b5090565b6000815190506200028e8162000461565b92915050565b600060208284031215620002ad57620002ac62000433565b5b6000620002bd848285016200027d565b91505092915050565b620002d18162000383565b82525050565b6000620002e660068362000372565b9150620002f38262000438565b602082019050919050565b6200030981620003b7565b82525050565b6200031a81620003c1565b82525050565b6000608082019050620003376000830186620002c6565b6200034660208301856200030f565b620003556040830184620002fe565b81810360608301526200036881620002d7565b9050949350505050565b600082825260208201905092915050565b6000620003908262000397565b9050919050565b600073ffffffffffffffffffffffffffffffffffffffff82169050919050565b6000819050919050565b600060ff82169050919050565b60006002820490506001821680620003e757607f821691505b60208210811415620003fe57620003fd62000404565b5b50919050565b7f4e487b7100000000000000000000000000000000000000000000000000000000600052602260045260246000fd5b600080fd5b7f6372656174650000000000000000000000000000000000000000000000000000600082015250565b6200046c81620003b7565b81146200047857600080fd5b50565b610a06806200048b6000396000f3fe608060405234801561001057600080fd5b50600436106100415760003560e01c8063173d773d146100465780634e69d56014610076578063f0d984e414610094575b600080fd5b610060600480360381019061005b91906104b9565b6100b2565b60405161006d919061074a565b60405180910390f35b61007e61020c565b60405161008b9190610765565b60405180910390f35b61009c610223565b6040516100a99190610728565b60405180910390f35b600082600160006101000a81548160ff021916908360ff160217905550600260405180608001604052803273ffffffffffffffffffffffffffffffffffffffff1681526020018560ff16815260200142815260200184815250908060018154018082558091505060019003906000526020600020906003020160009091909190915060008201518160000160006101000a81548173ffffffffffffffffffffffffffffffffffffffff021916908373ffffffffffffffffffffffffffffffffffffffff16021790555060208201518160000160146101000a81548160ff021916908360ff1602179055506040820151816001015560608201518160020190805190602001906101c2929190610391565b5050507f38930409e72d179a853c881163fcee8ed63d42ec95ee4599fc17e0421e1303d8328442856040516101fa94939291906106dc565b60405180910390a16001905092915050565b6000600160009054906101000a900460ff16905090565b60606002805480602002602001604051908101604052809291908181526020016000905b8282101561038857838290600052602060002090600302016040518060800160405290816000820160009054906101000a900473ffffffffffffffffffffffffffffffffffffffff1673ffffffffffffffffffffffffffffffffffffffff1673ffffffffffffffffffffffffffffffffffffffff1681526020016000820160149054906101000a900460ff1660ff1660ff168152602001600182015481526020016002820180546102f7906108d3565b80601f0160208091040260200160405190810160405280929190818152602001828054610323906108d3565b80156103705780601f1061034557610100808354040283529160200191610370565b820191906000526020600020905b81548152906001019060200180831161035357829003601f168201915b50505050508152505081526020019060010190610247565b50505050905090565b82805461039d906108d3565b90600052602060002090601f0160209004810192826103bf5760008555610406565b82601f106103d857805160ff1916838001178555610406565b82800160010185558215610406579182015b828111156104055782518255916020019190600101906103ea565b5b5090506104139190610417565b5090565b5b80821115610430576000816000905550600101610418565b5090565b6000610447610442846107a5565b610780565b90508281526020810184848401111561046357610462610999565b5b61046e848285610891565b509392505050565b600082601f83011261048b5761048a610994565b5b813561049b848260208601610434565b91505092915050565b6000813590506104b3816109b9565b92915050565b600080604083850312156104d0576104cf6109a3565b5b60006104de858286016104a4565b925050602083013567ffffffffffffffff8111156104ff576104fe61099e565b5b61050b85828601610476565b9150509250929050565b6000610521838361063d565b905092915050565b6105328161083c565b82525050565b6105418161083c565b82525050565b6000610552826107e6565b61055c8185610809565b93508360208202850161056e856107d6565b8060005b858110156105aa578484038952815161058b8582610515565b9450610596836107fc565b925060208a01995050600181019050610572565b50829750879550505050505092915050565b6105c58161084e565b82525050565b60006105d6826107f1565b6105e0818561081a565b93506105f08185602086016108a0565b6105f9816109a8565b840191505092915050565b600061060f826107f1565b610619818561082b565b93506106298185602086016108a0565b610632816109a8565b840191505092915050565b60006080830160008301516106556000860182610529565b50602083015161066860208601826106be565b50604083015161067b60408601826106a0565b506060830151848203606086015261069382826105cb565b9150508091505092915050565b6106a98161087a565b82525050565b6106b88161087a565b82525050565b6106c781610884565b82525050565b6106d681610884565b82525050565b60006080820190506106f16000830187610538565b6106fe60208301866106cd565b61070b60408301856106af565b818103606083015261071d8184610604565b905095945050505050565b600060208201905081810360008301526107428184610547565b905092915050565b600060208201905061075f60008301846105bc565b92915050565b600060208201905061077a60008301846106cd565b92915050565b600061078a61079b565b90506107968282610905565b919050565b6000604051905090565b600067ffffffffffffffff8211156107c0576107bf610965565b5b6107c9826109a8565b9050602081019050919050565b6000819050602082019050919050565b600081519050919050565b600081519050919050565b6000602082019050919050565b600082825260208201905092915050565b600082825260208201905092915050565b600082825260208201905092915050565b60006108478261085a565b9050919050565b60008115159050919050565b600073ffffffffffffffffffffffffffffffffffffffff82169050919050565b6000819050919050565b600060ff82169050919050565b82818337600083830152505050565b60005b838110156108be5780820151818401526020810190506108a3565b838111156108cd576000848401525b50505050565b600060028204905060018216806108eb57607f821691505b602082108114156108ff576108fe610936565b5b50919050565b61090e826109a8565b810181811067ffffffffffffffff8211171561092d5761092c610965565b5b80604052505050565b7f4e487b7100000000000000000000000000000000000000000000000000000000600052602260045260246000fd5b7f4e487b7100000000000000000000000000000000000000000000000000000000600052604160045260246000fd5b600080fd5b600080fd5b600080fd5b600080fd5b6000601f19601f8301169050919050565b6109c281610884565b81146109cd57600080fd5b5056fea2646970667358221220892ee9dcb367667990a6bb7a8625d2d17898da35cb4b1b553454a1e337e0d69e64736f6c63430008070033a264697066735822122093219814c8517516260bf7e5d863d718ceef786a111f32c9b4791fe2d259ea2c64736f6c63430008070033a2646970667358221220550af9d8c9c79157733117b111d6006c280019dcb47519e2bc1bab42c678d39164736f6c63430008070033",
			"opcodes": "PUSH1 0x80 PUSH1 0x40 MSTORE CALLVALUE DUP1 ISZERO PUSH2 0x10 JUMPI PUSH1 0x0 DUP1 REVERT JUMPDEST POP PUSH2 0x33A9 DUP1 PUSH2 0x20 PUSH1 0x0 CODECOPY PUSH1 0x0 RETURN INVALID PUSH1 0x80 PUSH1 0x40 MSTORE CALLVALUE DUP1 ISZERO PUSH3 0x11 JUMPI PUSH1 0x0 DUP1 REVERT JUMPDEST POP PUSH1 0x4 CALLDATASIZE LT PUSH3 0x88 JUMPI PUSH1 0x0 CALLDATALOAD PUSH1 0xE0 SHR DUP1 PUSH4 0x473B084C GT PUSH3 0x63 JUMPI DUP1 PUSH4 0x473B084C EQ PUSH3 0x12F JUMPI DUP1 PUSH4 0x4EC6B62B EQ PUSH3 0x165 JUMPI DUP1 PUSH4 0xA55F9927 EQ PUSH3 0x19B JUMPI DUP1 PUSH4 0xF5610D82 EQ PUSH3 0x1D1 JUMPI PUSH3 0x88 JUMP JUMPDEST DUP1 PUSH4 0x38F9FB94 EQ PUSH3 0x8D JUMPI DUP1 PUSH4 0x4430E658 EQ PUSH3 0xC3 JUMPI DUP1 PUSH4 0x462A1FAD EQ PUSH3 0xF9 JUMPI JUMPDEST PUSH1 0x0 DUP1 REVERT JUMPDEST PUSH3 0xAB PUSH1 0x4 DUP1 CALLDATASIZE SUB DUP2 ADD SWAP1 PUSH3 0xA5 SWAP2 SWAP1 PUSH3 0xA4B JUMP JUMPDEST PUSH3 0x207 JUMP JUMPDEST PUSH1 0x40 MLOAD PUSH3 0xBA SWAP2 SWAP1 PUSH3 0xEEA JUMP JUMPDEST PUSH1 0x40 MLOAD DUP1 SWAP2 SUB SWAP1 RETURN JUMPDEST PUSH3 0xE1 PUSH1 0x4 DUP1 CALLDATASIZE SUB DUP2 ADD SWAP1 PUSH3 0xDB SWAP2 SWAP1 PUSH3 0xAC4 JUMP JUMPDEST PUSH3 0x372 JUMP JUMPDEST PUSH1 0x40 MLOAD PUSH3 0xF0 SWAP2 SWAP1 PUSH3 0xEB0 JUMP JUMPDEST PUSH1 0x40 MLOAD DUP1 SWAP2 SUB SWAP1 RETURN JUMPDEST PUSH3 0x117 PUSH1 0x4 DUP1 CALLDATASIZE SUB DUP2 ADD SWAP1 PUSH3 0x111 SWAP2 SWAP1 PUSH3 0xA7D JUMP JUMPDEST PUSH3 0x422 JUMP JUMPDEST PUSH1 0x40 MLOAD PUSH3 0x126 SWAP2 SWAP1 PUSH3 0xE8C JUMP JUMPDEST PUSH1 0x40 MLOAD DUP1 SWAP2 SUB SWAP1 RETURN JUMPDEST PUSH3 0x14D PUSH1 0x4 DUP1 CALLDATASIZE SUB DUP2 ADD SWAP1 PUSH3 0x147 SWAP2 SWAP1 PUSH3 0xA4B JUMP JUMPDEST PUSH3 0x4D0 JUMP JUMPDEST PUSH1 0x40 MLOAD PUSH3 0x15C SWAP2 SWAP1 PUSH3 0xEEA JUMP JUMPDEST PUSH1 0x40 MLOAD DUP1 SWAP2 SUB SWAP1 RETURN JUMPDEST PUSH3 0x183 PUSH1 0x4 DUP1 CALLDATASIZE SUB DUP2 ADD SWAP1 PUSH3 0x17D SWAP2 SWAP1 PUSH3 0xB87 JUMP JUMPDEST PUSH3 0x50F JUMP JUMPDEST PUSH1 0x40 MLOAD PUSH3 0x192 SWAP2 SWAP1 PUSH3 0xECD JUMP JUMPDEST PUSH1 0x40 MLOAD DUP1 SWAP2 SUB SWAP1 RETURN JUMPDEST PUSH3 0x1B9 PUSH1 0x4 DUP1 CALLDATASIZE SUB DUP2 ADD SWAP1 PUSH3 0x1B3 SWAP2 SWAP1 PUSH3 0xA7D JUMP JUMPDEST PUSH3 0x541 JUMP JUMPDEST PUSH1 0x40 MLOAD PUSH3 0x1C8 SWAP2 SWAP1 PUSH3 0xFCB JUMP JUMPDEST PUSH1 0x40 MLOAD DUP1 SWAP2 SUB SWAP1 RETURN JUMPDEST PUSH3 0x1EF PUSH1 0x4 DUP1 CALLDATASIZE SUB DUP2 ADD SWAP1 PUSH3 0x1E9 SWAP2 SWAP1 PUSH3 0xA7D JUMP JUMPDEST PUSH3 0x5E9 JUMP JUMPDEST PUSH1 0x40 MLOAD PUSH3 0x1FE SWAP2 SWAP1 PUSH3 0xF07 JUMP JUMPDEST PUSH1 0x40 MLOAD DUP1 SWAP2 SUB SWAP1 RETURN JUMPDEST PUSH1 0x0 DUP1 PUSH1 0x0 DUP4 DUP2 MSTORE PUSH1 0x20 ADD SWAP1 DUP2 MSTORE PUSH1 0x20 ADD PUSH1 0x0 KECCAK256 PUSH1 0x0 ADD PUSH1 0x14 SWAP1 SLOAD SWAP1 PUSH2 0x100 EXP SWAP1 DIV PUSH1 0xFF AND ISZERO PUSH3 0x26F JUMPI PUSH1 0x40 MLOAD PUSH32 0x8C379A000000000000000000000000000000000000000000000000000000000 DUP2 MSTORE PUSH1 0x4 ADD PUSH3 0x266 SWAP1 PUSH3 0xF48 JUMP JUMPDEST PUSH1 0x40 MLOAD DUP1 SWAP2 SUB SWAP1 REVERT JUMPDEST PUSH1 0x0 DUP3 PUSH1 0x40 MLOAD PUSH3 0x280 SWAP1 PUSH3 0x693 JUMP JUMPDEST PUSH3 0x28C SWAP2 SWAP1 PUSH3 0xECD JUMP JUMPDEST PUSH1 0x40 MLOAD DUP1 SWAP2 SUB SWAP1 PUSH1 0x0 CREATE DUP1 ISZERO DUP1 ISZERO PUSH3 0x2A9 JUMPI RETURNDATASIZE PUSH1 0x0 DUP1 RETURNDATACOPY RETURNDATASIZE PUSH1 0x0 REVERT JUMPDEST POP SWAP1 POP PUSH1 0x1 PUSH1 0x0 DUP1 DUP6 DUP2 MSTORE PUSH1 0x20 ADD SWAP1 DUP2 MSTORE PUSH1 0x20 ADD PUSH1 0x0 KECCAK256 PUSH1 0x0 ADD PUSH1 0x14 PUSH2 0x100 EXP DUP2 SLOAD DUP2 PUSH1 0xFF MUL NOT AND SWAP1 DUP4 ISZERO ISZERO MUL OR SWAP1 SSTORE POP DUP1 PUSH1 0x0 DUP1 DUP6 DUP2 MSTORE PUSH1 0x20 ADD SWAP1 DUP2 MSTORE PUSH1 0x20 ADD PUSH1 0x0 KECCAK256 PUSH1 0x0 ADD PUSH1 0x0 PUSH2 0x100 EXP DUP2 SLOAD DUP2 PUSH20 0xFFFFFFFFFFFFFFFFFFFFFFFFFFFFFFFFFFFFFFFF MUL NOT AND SWAP1 DUP4 PUSH20 0xFFFFFFFFFFFFFFFFFFFFFFFFFFFFFFFFFFFFFFFF AND MUL OR SWAP1 SSTORE POP PUSH32 0x29C10F977B5F95F51520FF820B625F02F1E711F199C1306E359FFD067D1F21E1 CALLER DUP5 PUSH1 0x40 MLOAD PUSH3 0x361 SWAP3 SWAP2 SWAP1 PUSH3 0xE5F JUMP JUMPDEST PUSH1 0x40 MLOAD DUP1 SWAP2 SUB SWAP1 LOG1 DUP1 SWAP2 POP POP SWAP2 SWAP1 POP JUMP JUMPDEST PUSH1 0x0 DUP1 PUSH3 0x380 DUP7 PUSH3 0x4D0 JUMP JUMPDEST SWAP1 POP DUP1 PUSH20 0xFFFFFFFFFFFFFFFFFFFFFFFFFFFFFFFFFFFFFFFF AND PUSH4 0xA2A8578D DUP7 DUP7 DUP7 PUSH1 0x40 MLOAD DUP5 PUSH4 0xFFFFFFFF AND PUSH1 0xE0 SHL DUP2 MSTORE PUSH1 0x4 ADD PUSH3 0x3C1 SWAP4 SWAP3 SWAP2 SWAP1 PUSH3 0xF87 JUMP JUMPDEST PUSH1 0x20 PUSH1 0x40 MLOAD DUP1 DUP4 SUB DUP2 PUSH1 0x0 DUP8 DUP1 EXTCODESIZE ISZERO DUP1 ISZERO PUSH3 0x3DC JUMPI PUSH1 0x0 DUP1 REVERT JUMPDEST POP GAS CALL ISZERO DUP1 ISZERO PUSH3 0x3F1 JUMPI RETURNDATASIZE PUSH1 0x0 DUP1 RETURNDATACOPY RETURNDATASIZE PUSH1 0x0 REVERT JUMPDEST POP POP POP POP PUSH1 0x40 MLOAD RETURNDATASIZE PUSH1 0x1F NOT PUSH1 0x1F DUP3 ADD AND DUP3 ADD DUP1 PUSH1 0x40 MSTORE POP DUP2 ADD SWAP1 PUSH3 0x417 SWAP2 SWAP1 PUSH3 0xA19 JUMP JUMPDEST SWAP2 POP POP SWAP5 SWAP4 POP POP POP POP JUMP JUMPDEST PUSH1 0x60 PUSH1 0x0 PUSH3 0x431 DUP5 PUSH3 0x4D0 JUMP JUMPDEST SWAP1 POP DUP1 PUSH20 0xFFFFFFFFFFFFFFFFFFFFFFFFFFFFFFFFFFFFFFFF AND PUSH4 0x1E81C3AD DUP5 PUSH1 0x40 MLOAD DUP3 PUSH4 0xFFFFFFFF AND PUSH1 0xE0 SHL DUP2 MSTORE PUSH1 0x4 ADD PUSH3 0x46E SWAP2 SWAP1 PUSH3 0xF6A JUMP JUMPDEST PUSH1 0x0 PUSH1 0x40 MLOAD DUP1 DUP4 SUB DUP2 DUP7 DUP1 EXTCODESIZE ISZERO DUP1 ISZERO PUSH3 0x487 JUMPI PUSH1 0x0 DUP1 REVERT JUMPDEST POP GAS STATICCALL ISZERO DUP1 ISZERO PUSH3 0x49C JUMPI RETURNDATASIZE PUSH1 0x0 DUP1 RETURNDATACOPY RETURNDATASIZE PUSH1 0x0 REVERT JUMPDEST POP POP POP POP PUSH1 0x40 MLOAD RETURNDATASIZE PUSH1 0x0 DUP3 RETURNDATACOPY RETURNDATASIZE PUSH1 0x1F NOT PUSH1 0x1F DUP3 ADD AND DUP3 ADD DUP1 PUSH1 0x40 MSTORE POP DUP2 ADD SWAP1 PUSH3 0x4C7 SWAP2 SWAP1 PUSH3 0x9C8 JUMP JUMPDEST SWAP2 POP POP SWAP3 SWAP2 POP POP JUMP JUMPDEST PUSH1 0x0 DUP1 PUSH1 0x0 DUP4 DUP2 MSTORE PUSH1 0x20 ADD SWAP1 DUP2 MSTORE PUSH1 0x20 ADD PUSH1 0x0 KECCAK256 PUSH1 0x0 ADD PUSH1 0x0 SWAP1 SLOAD SWAP1 PUSH2 0x100 EXP SWAP1 DIV PUSH20 0xFFFFFFFFFFFFFFFFFFFFFFFFFFFFFFFFFFFFFFFF AND SWAP1 POP SWAP2 SWAP1 POP JUMP JUMPDEST PUSH1 0x0 DUP2 PUSH1 0x40 MLOAD PUSH1 0x20 ADD PUSH3 0x524 SWAP2 SWAP1 PUSH3 0xF24 JUMP JUMPDEST PUSH1 0x40 MLOAD PUSH1 0x20 DUP2 DUP4 SUB SUB DUP2 MSTORE SWAP1 PUSH1 0x40 MSTORE DUP1 MLOAD SWAP1 PUSH1 0x20 ADD KECCAK256 SWAP1 POP SWAP2 SWAP1 POP JUMP JUMPDEST PUSH1 0x0 DUP1 PUSH3 0x54F DUP5 PUSH3 0x4D0 JUMP JUMPDEST SWAP1 POP DUP1 PUSH20 0xFFFFFFFFFFFFFFFFFFFFFFFFFFFFFFFFFFFFFFFF AND PUSH4 0x5C622A0E DUP5 PUSH1 0x40 MLOAD DUP3 PUSH4 0xFFFFFFFF AND PUSH1 0xE0 SHL DUP2 MSTORE PUSH1 0x4 ADD PUSH3 0x58C SWAP2 SWAP1 PUSH3 0xF6A JUMP JUMPDEST PUSH1 0x20 PUSH1 0x40 MLOAD DUP1 DUP4 SUB DUP2 DUP7 DUP1 EXTCODESIZE ISZERO DUP1 ISZERO PUSH3 0x5A5 JUMPI PUSH1 0x0 DUP1 REVERT JUMPDEST POP GAS STATICCALL ISZERO DUP1 ISZERO PUSH3 0x5BA JUMPI RETURNDATASIZE PUSH1 0x0 DUP1 RETURNDATACOPY RETURNDATASIZE PUSH1 0x0 REVERT JUMPDEST POP POP POP POP PUSH1 0x40 MLOAD RETURNDATASIZE PUSH1 0x1F NOT PUSH1 0x1F DUP3 ADD AND DUP3 ADD DUP1 PUSH1 0x40 MSTORE POP DUP2 ADD SWAP1 PUSH3 0x5E0 SWAP2 SWAP1 PUSH3 0xBD8 JUMP JUMPDEST SWAP2 POP POP SWAP3 SWAP2 POP POP JUMP JUMPDEST PUSH1 0x0 DUP1 PUSH3 0x5F7 DUP5 PUSH3 0x4D0 JUMP JUMPDEST SWAP1 POP DUP1 PUSH20 0xFFFFFFFFFFFFFFFFFFFFFFFFFFFFFFFFFFFFFFFF AND PUSH4 0x5A35DC9F DUP5 PUSH1 0x40 MLOAD DUP3 PUSH4 0xFFFFFFFF AND PUSH1 0xE0 SHL DUP2 MSTORE PUSH1 0x4 ADD PUSH3 0x634 SWAP2 SWAP1 PUSH3 0xF6A JUMP JUMPDEST PUSH1 0x20 PUSH1 0x40 MLOAD DUP1 DUP4 SUB DUP2 PUSH1 0x0 DUP8 DUP1 EXTCODESIZE ISZERO DUP1 ISZERO PUSH3 0x64F JUMPI PUSH1 0x0 DUP1 REVERT JUMPDEST POP GAS CALL ISZERO DUP1 ISZERO PUSH3 0x664 JUMPI RETURNDATASIZE PUSH1 0x0 DUP1 RETURNDATACOPY RETURNDATASIZE PUSH1 0x0 REVERT JUMPDEST POP POP POP POP PUSH1 0x40 MLOAD RETURNDATASIZE PUSH1 0x1F NOT PUSH1 0x1F DUP3 ADD AND DUP3 ADD DUP1 PUSH1 0x40 MSTORE POP DUP2 ADD SWAP1 PUSH3 0x68A SWAP2 SWAP1 PUSH3 0xB55 JUMP JUMPDEST SWAP2 POP POP SWAP3 SWAP2 POP POP JUMP JUMPDEST PUSH2 0x202F DUP1 PUSH3 0x1345 DUP4 CODECOPY ADD SWAP1 JUMP JUMPDEST PUSH1 0x0 PUSH3 0x6B8 PUSH3 0x6B2 DUP5 PUSH3 0x1011 JUMP JUMPDEST PUSH3 0xFE8 JUMP JUMPDEST SWAP1 POP DUP1 DUP4 DUP3 MSTORE PUSH1 0x20 DUP3 ADD SWAP1 POP DUP3 DUP6 PUSH1 0x20 DUP7 MUL DUP3 ADD GT ISZERO PUSH3 0x6DE JUMPI PUSH3 0x6DD PUSH3 0x125A JUMP JUMPDEST JUMPDEST PUSH1 0x0 JUMPDEST DUP6 DUP2 LT ISZERO PUSH3 0x733 JUMPI DUP2 MLOAD PUSH8 0xFFFFFFFFFFFFFFFF DUP2 GT ISZERO PUSH3 0x708 JUMPI PUSH3 0x707 PUSH3 0x124B JUMP JUMPDEST JUMPDEST DUP1 DUP7 ADD PUSH3 0x717 DUP10 DUP3 PUSH3 0x8C8 JUMP JUMPDEST DUP6 MSTORE PUSH1 0x20 DUP6 ADD SWAP5 POP PUSH1 0x20 DUP5 ADD SWAP4 POP POP POP PUSH1 0x1 DUP2 ADD SWAP1 POP PUSH3 0x6E1 JUMP JUMPDEST POP POP POP SWAP4 SWAP3 POP POP POP JUMP JUMPDEST PUSH1 0x0 PUSH3 0x754 PUSH3 0x74E DUP5 PUSH3 0x1040 JUMP JUMPDEST PUSH3 0xFE8 JUMP JUMPDEST SWAP1 POP DUP3 DUP2 MSTORE PUSH1 0x20 DUP2 ADD DUP5 DUP5 DUP5 ADD GT ISZERO PUSH3 0x773 JUMPI PUSH3 0x772 PUSH3 0x125F JUMP JUMPDEST JUMPDEST PUSH3 0x780 DUP5 DUP3 DUP6 PUSH3 0x11A1 JUMP JUMPDEST POP SWAP4 SWAP3 POP POP POP JUMP JUMPDEST PUSH1 0x0 PUSH3 0x79F PUSH3 0x799 DUP5 PUSH3 0x1040 JUMP JUMPDEST PUSH3 0xFE8 JUMP JUMPDEST SWAP1 POP DUP3 DUP2 MSTORE PUSH1 0x20 DUP2 ADD DUP5 DUP5 DUP5 ADD GT ISZERO PUSH3 0x7BE JUMPI PUSH3 0x7BD PUSH3 0x125F JUMP JUMPDEST JUMPDEST PUSH3 0x7CB DUP5 DUP3 DUP6 PUSH3 0x11B0 JUMP JUMPDEST POP SWAP4 SWAP3 POP POP POP JUMP JUMPDEST PUSH1 0x0 DUP2 MLOAD SWAP1 POP PUSH3 0x7E4 DUP2 PUSH3 0x12A8 JUMP JUMPDEST SWAP3 SWAP2 POP POP JUMP JUMPDEST PUSH1 0x0 DUP3 PUSH1 0x1F DUP4 ADD SLT PUSH3 0x802 JUMPI PUSH3 0x801 PUSH3 0x124B JUMP JUMPDEST JUMPDEST DUP2 MLOAD PUSH3 0x814 DUP5 DUP3 PUSH1 0x20 DUP7 ADD PUSH3 0x6A1 JUMP JUMPDEST SWAP2 POP POP SWAP3 SWAP2 POP POP JUMP JUMPDEST PUSH1 0x0 DUP2 MLOAD SWAP1 POP PUSH3 0x82E DUP2 PUSH3 0x12C2 JUMP JUMPDEST SWAP3 SWAP2 POP POP JUMP JUMPDEST PUSH1 0x0 DUP2 CALLDATALOAD SWAP1 POP PUSH3 0x845 DUP2 PUSH3 0x12DC JUMP JUMPDEST SWAP3 SWAP2 POP POP JUMP JUMPDEST PUSH1 0x0 DUP2 MLOAD SWAP1 POP PUSH3 0x85C DUP2 PUSH3 0x12F6 JUMP JUMPDEST SWAP3 SWAP2 POP POP JUMP JUMPDEST PUSH1 0x0 DUP3 PUSH1 0x1F DUP4 ADD SLT PUSH3 0x87A JUMPI PUSH3 0x879 PUSH3 0x124B JUMP JUMPDEST JUMPDEST DUP2 CALLDATALOAD PUSH3 0x88C DUP5 DUP3 PUSH1 0x20 DUP7 ADD PUSH3 0x73D JUMP JUMPDEST SWAP2 POP POP SWAP3 SWAP2 POP POP JUMP JUMPDEST PUSH1 0x0 DUP3 PUSH1 0x1F DUP4 ADD SLT PUSH3 0x8AD JUMPI PUSH3 0x8AC PUSH3 0x124B JUMP JUMPDEST JUMPDEST DUP2 MLOAD PUSH3 0x8BF DUP5 DUP3 PUSH1 0x20 DUP7 ADD PUSH3 0x788 JUMP JUMPDEST SWAP2 POP POP SWAP3 SWAP2 POP POP JUMP JUMPDEST PUSH1 0x0 PUSH1 0x80 DUP3 DUP5 SUB SLT ISZERO PUSH3 0x8E1 JUMPI PUSH3 0x8E0 PUSH3 0x1250 JUMP JUMPDEST JUMPDEST PUSH3 0x8ED PUSH1 0x80 PUSH3 0xFE8 JUMP JUMPDEST SWAP1 POP PUSH1 0x0 PUSH3 0x8FF DUP5 DUP3 DUP6 ADD PUSH3 0x7D3 JUMP JUMPDEST PUSH1 0x0 DUP4 ADD MSTORE POP PUSH1 0x20 PUSH3 0x915 DUP5 DUP3 DUP6 ADD PUSH3 0x9B1 JUMP JUMPDEST PUSH1 0x20 DUP4 ADD MSTORE POP PUSH1 0x40 PUSH3 0x92B DUP5 DUP3 DUP6 ADD PUSH3 0x983 JUMP JUMPDEST PUSH1 0x40 DUP4 ADD MSTORE POP PUSH1 0x60 DUP3 ADD MLOAD PUSH8 0xFFFFFFFFFFFFFFFF DUP2 GT ISZERO PUSH3 0x952 JUMPI PUSH3 0x951 PUSH3 0x1255 JUMP JUMPDEST JUMPDEST PUSH3 0x960 DUP5 DUP3 DUP6 ADD PUSH3 0x895 JUMP JUMPDEST PUSH1 0x60 DUP4 ADD MSTORE POP SWAP3 SWAP2 POP POP JUMP JUMPDEST PUSH1 0x0 DUP2 CALLDATALOAD SWAP1 POP PUSH3 0x97D DUP2 PUSH3 0x1310 JUMP JUMPDEST SWAP3 SWAP2 POP POP JUMP JUMPDEST PUSH1 0x0 DUP2 MLOAD SWAP1 POP PUSH3 0x994 DUP2 PUSH3 0x1310 JUMP JUMPDEST SWAP3 SWAP2 POP POP JUMP JUMPDEST PUSH1 0x0 DUP2 CALLDATALOAD SWAP1 POP PUSH3 0x9AB DUP2 PUSH3 0x132A JUMP JUMPDEST SWAP3 SWAP2 POP POP JUMP JUMPDEST PUSH1 0x0 DUP2 MLOAD SWAP1 POP PUSH3 0x9C2 DUP2 PUSH3 0x132A JUMP JUMPDEST SWAP3 SWAP2 POP POP JUMP JUMPDEST PUSH1 0x0 PUSH1 0x20 DUP3 DUP5 SUB SLT ISZERO PUSH3 0x9E1 JUMPI PUSH3 0x9E0 PUSH3 0x1269 JUMP JUMPDEST JUMPDEST PUSH1 0x0 DUP3 ADD MLOAD PUSH8 0xFFFFFFFFFFFFFFFF DUP2 GT ISZERO PUSH3 0xA02 JUMPI PUSH3 0xA01 PUSH3 0x1264 JUMP JUMPDEST JUMPDEST PUSH3 0xA10 DUP5 DUP3 DUP6 ADD PUSH3 0x7EA JUMP JUMPDEST SWAP2 POP POP SWAP3 SWAP2 POP POP JUMP JUMPDEST PUSH1 0x0 PUSH1 0x20 DUP3 DUP5 SUB SLT ISZERO PUSH3 0xA32 JUMPI PUSH3 0xA31 PUSH3 0x1269 JUMP JUMPDEST JUMPDEST PUSH1 0x0 PUSH3 0xA42 DUP5 DUP3 DUP6 ADD PUSH3 0x81D JUMP JUMPDEST SWAP2 POP POP SWAP3 SWAP2 POP POP JUMP JUMPDEST PUSH1 0x0 PUSH1 0x20 DUP3 DUP5 SUB SLT ISZERO PUSH3 0xA64 JUMPI PUSH3 0xA63 PUSH3 0x1269 JUMP JUMPDEST JUMPDEST PUSH1 0x0 PUSH3 0xA74 DUP5 DUP3 DUP6 ADD PUSH3 0x834 JUMP JUMPDEST SWAP2 POP POP SWAP3 SWAP2 POP POP JUMP JUMPDEST PUSH1 0x0 DUP1 PUSH1 0x40 DUP4 DUP6 SUB SLT ISZERO PUSH3 0xA97 JUMPI PUSH3 0xA96 PUSH3 0x1269 JUMP JUMPDEST JUMPDEST PUSH1 0x0 PUSH3 0xAA7 DUP6 DUP3 DUP7 ADD PUSH3 0x834 JUMP JUMPDEST SWAP3 POP POP PUSH1 0x20 PUSH3 0xABA DUP6 DUP3 DUP7 ADD PUSH3 0x96C JUMP JUMPDEST SWAP2 POP POP SWAP3 POP SWAP3 SWAP1 POP JUMP JUMPDEST PUSH1 0x0 DUP1 PUSH1 0x0 DUP1 PUSH1 0x80 DUP6 DUP8 SUB SLT ISZERO PUSH3 0xAE1 JUMPI PUSH3 0xAE0 PUSH3 0x1269 JUMP JUMPDEST JUMPDEST PUSH1 0x0 PUSH3 0xAF1 DUP8 DUP3 DUP9 ADD PUSH3 0x834 JUMP JUMPDEST SWAP5 POP POP PUSH1 0x20 PUSH3 0xB04 DUP8 DUP3 DUP9 ADD PUSH3 0x96C JUMP JUMPDEST SWAP4 POP POP PUSH1 0x40 PUSH3 0xB17 DUP8 DUP3 DUP9 ADD PUSH3 0x99A JUMP JUMPDEST SWAP3 POP POP PUSH1 0x60 DUP6 ADD CALLDATALOAD PUSH8 0xFFFFFFFFFFFFFFFF DUP2 GT ISZERO PUSH3 0xB3B JUMPI PUSH3 0xB3A PUSH3 0x1264 JUMP JUMPDEST JUMPDEST PUSH3 0xB49 DUP8 DUP3 DUP9 ADD PUSH3 0x862 JUMP JUMPDEST SWAP2 POP POP SWAP3 SWAP6 SWAP2 SWAP5 POP SWAP3 POP JUMP JUMPDEST PUSH1 0x0 PUSH1 0x20 DUP3 DUP5 SUB SLT ISZERO PUSH3 0xB6E JUMPI PUSH3 0xB6D PUSH3 0x1269 JUMP JUMPDEST JUMPDEST PUSH1 0x0 PUSH3 0xB7E DUP5 DUP3 DUP6 ADD PUSH3 0x84B JUMP JUMPDEST SWAP2 POP POP SWAP3 SWAP2 POP POP JUMP JUMPDEST PUSH1 0x0 PUSH1 0x20 DUP3 DUP5 SUB SLT ISZERO PUSH3 0xBA0 JUMPI PUSH3 0xB9F PUSH3 0x1269 JUMP JUMPDEST JUMPDEST PUSH1 0x0 DUP3 ADD CALLDATALOAD PUSH8 0xFFFFFFFFFFFFFFFF DUP2 GT ISZERO PUSH3 0xBC1 JUMPI PUSH3 0xBC0 PUSH3 0x1264 JUMP JUMPDEST JUMPDEST PUSH3 0xBCF DUP5 DUP3 DUP6 ADD PUSH3 0x862 JUMP JUMPDEST SWAP2 POP POP SWAP3 SWAP2 POP POP JUMP JUMPDEST PUSH1 0x0 PUSH1 0x20 DUP3 DUP5 SUB SLT ISZERO PUSH3 0xBF1 JUMPI PUSH3 0xBF0 PUSH3 0x1269 JUMP JUMPDEST JUMPDEST PUSH1 0x0 PUSH3 0xC01 DUP5 DUP3 DUP6 ADD PUSH3 0x9B1 JUMP JUMPDEST SWAP2 POP POP SWAP3 SWAP2 POP POP JUMP JUMPDEST PUSH1 0x0 PUSH3 0xC18 DUP4 DUP4 PUSH3 0xDB0 JUMP JUMPDEST SWAP1 POP SWAP3 SWAP2 POP POP JUMP JUMPDEST PUSH3 0xC2B DUP2 PUSH3 0x10DC JUMP JUMPDEST DUP3 MSTORE POP POP JUMP JUMPDEST PUSH3 0xC3C DUP2 PUSH3 0x10DC JUMP JUMPDEST DUP3 MSTORE POP POP JUMP JUMPDEST PUSH1 0x0 PUSH3 0xC4F DUP3 PUSH3 0x1086 JUMP JUMPDEST PUSH3 0xC5B DUP2 DUP6 PUSH3 0x10A9 JUMP JUMPDEST SWAP4 POP DUP4 PUSH1 0x20 DUP3 MUL DUP6 ADD PUSH3 0xC6F DUP6 PUSH3 0x1076 JUMP JUMPDEST DUP1 PUSH1 0x0 JUMPDEST DUP6 DUP2 LT ISZERO PUSH3 0xCB1 JUMPI DUP5 DUP5 SUB DUP10 MSTORE DUP2 MLOAD PUSH3 0xC8F DUP6 DUP3 PUSH3 0xC0A JUMP JUMPDEST SWAP5 POP PUSH3 0xC9C DUP4 PUSH3 0x109C JUMP JUMPDEST SWAP3 POP PUSH1 0x20 DUP11 ADD SWAP10 POP POP PUSH1 0x1 DUP2 ADD SWAP1 POP PUSH3 0xC73 JUMP JUMPDEST POP DUP3 SWAP8 POP DUP8 SWAP6 POP POP POP POP POP POP SWAP3 SWAP2 POP POP JUMP JUMPDEST PUSH3 0xCCE DUP2 PUSH3 0x10F0 JUMP JUMPDEST DUP3 MSTORE POP POP JUMP JUMPDEST PUSH3 0xCDF DUP2 PUSH3 0x10FC JUMP JUMPDEST DUP3 MSTORE POP POP JUMP JUMPDEST PUSH3 0xCF0 DUP2 PUSH3 0x1151 JUMP JUMPDEST DUP3 MSTORE POP POP JUMP JUMPDEST PUSH3 0xD01 DUP2 PUSH3 0x1165 JUMP JUMPDEST DUP3 MSTORE POP POP JUMP JUMPDEST PUSH1 0x0 PUSH3 0xD14 DUP3 PUSH3 0x1091 JUMP JUMPDEST PUSH3 0xD20 DUP2 DUP6 PUSH3 0x10BA JUMP JUMPDEST SWAP4 POP PUSH3 0xD32 DUP2 DUP6 PUSH1 0x20 DUP7 ADD PUSH3 0x11B0 JUMP JUMPDEST PUSH3 0xD3D DUP2 PUSH3 0x126E JUMP JUMPDEST DUP5 ADD SWAP2 POP POP SWAP3 SWAP2 POP POP JUMP JUMPDEST PUSH1 0x0 PUSH3 0xD55 DUP3 PUSH3 0x1091 JUMP JUMPDEST PUSH3 0xD61 DUP2 DUP6 PUSH3 0x10CB JUMP JUMPDEST SWAP4 POP PUSH3 0xD73 DUP2 DUP6 PUSH1 0x20 DUP7 ADD PUSH3 0x11B0 JUMP JUMPDEST PUSH3 0xD7E DUP2 PUSH3 0x126E JUMP JUMPDEST DUP5 ADD SWAP2 POP POP SWAP3 SWAP2 POP POP JUMP JUMPDEST PUSH1 0x0 PUSH3 0xD98 PUSH1 0x16 DUP4 PUSH3 0x10CB JUMP JUMPDEST SWAP2 POP PUSH3 0xDA5 DUP3 PUSH3 0x127F JUMP JUMPDEST PUSH1 0x20 DUP3 ADD SWAP1 POP SWAP2 SWAP1 POP JUMP JUMPDEST PUSH1 0x0 PUSH1 0x80 DUP4 ADD PUSH1 0x0 DUP4 ADD MLOAD PUSH3 0xDCA PUSH1 0x0 DUP7 ADD DUP3 PUSH3 0xC20 JUMP JUMPDEST POP PUSH1 0x20 DUP4 ADD MLOAD PUSH3 0xDDF PUSH1 0x20 DUP7 ADD DUP3 PUSH3 0xE3D JUMP JUMPDEST POP PUSH1 0x40 DUP4 ADD MLOAD PUSH3 0xDF4 PUSH1 0x40 DUP7 ADD DUP3 PUSH3 0xE1B JUMP JUMPDEST POP PUSH1 0x60 DUP4 ADD MLOAD DUP5 DUP3 SUB PUSH1 0x60 DUP7 ADD MSTORE PUSH3 0xE0E DUP3 DUP3 PUSH3 0xD07 JUMP JUMPDEST SWAP2 POP POP DUP1 SWAP2 POP POP SWAP3 SWAP2 POP POP JUMP JUMPDEST PUSH3 0xE26 DUP2 PUSH3 0x113A JUMP JUMPDEST DUP3 MSTORE POP POP JUMP JUMPDEST PUSH3 0xE37 DUP2 PUSH3 0x113A JUMP JUMPDEST DUP3 MSTORE POP POP JUMP JUMPDEST PUSH3 0xE48 DUP2 PUSH3 0x1144 JUMP JUMPDEST DUP3 MSTORE POP POP JUMP JUMPDEST PUSH3 0xE59 DUP2 PUSH3 0x1144 JUMP JUMPDEST DUP3 MSTORE POP POP JUMP JUMPDEST PUSH1 0x0 PUSH1 0x40 DUP3 ADD SWAP1 POP PUSH3 0xE76 PUSH1 0x0 DUP4 ADD DUP6 PUSH3 0xC31 JUMP JUMPDEST PUSH3 0xE85 PUSH1 0x20 DUP4 ADD DUP5 PUSH3 0xCD4 JUMP JUMPDEST SWAP4 SWAP3 POP POP POP JUMP JUMPDEST PUSH1 0x0 PUSH1 0x20 DUP3 ADD SWAP1 POP DUP2 DUP2 SUB PUSH1 0x0 DUP4 ADD MSTORE PUSH3 0xEA8 DUP2 DUP5 PUSH3 0xC42 JUMP JUMPDEST SWAP1 POP SWAP3 SWAP2 POP POP JUMP JUMPDEST PUSH1 0x0 PUSH1 0x20 DUP3 ADD SWAP1 POP PUSH3 0xEC7 PUSH1 0x0 DUP4 ADD DUP5 PUSH3 0xCC3 JUMP JUMPDEST SWAP3 SWAP2 POP POP JUMP JUMPDEST PUSH1 0x0 PUSH1 0x20 DUP3 ADD SWAP1 POP PUSH3 0xEE4 PUSH1 0x0 DUP4 ADD DUP5 PUSH3 0xCD4 JUMP JUMPDEST SWAP3 SWAP2 POP POP JUMP JUMPDEST PUSH1 0x0 PUSH1 0x20 DUP3 ADD SWAP1 POP PUSH3 0xF01 PUSH1 0x0 DUP4 ADD DUP5 PUSH3 0xCE5 JUMP JUMPDEST SWAP3 SWAP2 POP POP JUMP JUMPDEST PUSH1 0x0 PUSH1 0x20 DUP3 ADD SWAP1 POP PUSH3 0xF1E PUSH1 0x0 DUP4 ADD DUP5 PUSH3 0xCF6 JUMP JUMPDEST SWAP3 SWAP2 POP POP JUMP JUMPDEST PUSH1 0x0 PUSH1 0x20 DUP3 ADD SWAP1 POP DUP2 DUP2 SUB PUSH1 0x0 DUP4 ADD MSTORE PUSH3 0xF40 DUP2 DUP5 PUSH3 0xD48 JUMP JUMPDEST SWAP1 POP SWAP3 SWAP2 POP POP JUMP JUMPDEST PUSH1 0x0 PUSH1 0x20 DUP3 ADD SWAP1 POP DUP2 DUP2 SUB PUSH1 0x0 DUP4 ADD MSTORE PUSH3 0xF63 DUP2 PUSH3 0xD89 JUMP JUMPDEST SWAP1 POP SWAP2 SWAP1 POP JUMP JUMPDEST PUSH1 0x0 PUSH1 0x20 DUP3 ADD SWAP1 POP PUSH3 0xF81 PUSH1 0x0 DUP4 ADD DUP5 PUSH3 0xE2C JUMP JUMPDEST SWAP3 SWAP2 POP POP JUMP JUMPDEST PUSH1 0x0 PUSH1 0x60 DUP3 ADD SWAP1 POP PUSH3 0xF9E PUSH1 0x0 DUP4 ADD DUP7 PUSH3 0xE2C JUMP JUMPDEST PUSH3 0xFAD PUSH1 0x20 DUP4 ADD DUP6 PUSH3 0xE4E JUMP JUMPDEST DUP2 DUP2 SUB PUSH1 0x40 DUP4 ADD MSTORE PUSH3 0xFC1 DUP2 DUP5 PUSH3 0xD48 JUMP JUMPDEST SWAP1 POP SWAP5 SWAP4 POP POP POP POP JUMP JUMPDEST PUSH1 0x0 PUSH1 0x20 DUP3 ADD SWAP1 POP PUSH3 0xFE2 PUSH1 0x0 DUP4 ADD DUP5 PUSH3 0xE4E JUMP JUMPDEST SWAP3 SWAP2 POP POP JUMP JUMPDEST PUSH1 0x0 PUSH3 0xFF4 PUSH3 0x1007 JUMP JUMPDEST SWAP1 POP PUSH3 0x1002 DUP3 DUP3 PUSH3 0x11E6 JUMP JUMPDEST SWAP2 SWAP1 POP JUMP JUMPDEST PUSH1 0x0 PUSH1 0x40 MLOAD SWAP1 POP SWAP1 JUMP JUMPDEST PUSH1 0x0 PUSH8 0xFFFFFFFFFFFFFFFF DUP3 GT ISZERO PUSH3 0x102F JUMPI PUSH3 0x102E PUSH3 0x121C JUMP JUMPDEST JUMPDEST PUSH1 0x20 DUP3 MUL SWAP1 POP PUSH1 0x20 DUP2 ADD SWAP1 POP SWAP2 SWAP1 POP JUMP JUMPDEST PUSH1 0x0 PUSH8 0xFFFFFFFFFFFFFFFF DUP3 GT ISZERO PUSH3 0x105E JUMPI PUSH3 0x105D PUSH3 0x121C JUMP JUMPDEST JUMPDEST PUSH3 0x1069 DUP3 PUSH3 0x126E JUMP JUMPDEST SWAP1 POP PUSH1 0x20 DUP2 ADD SWAP1 POP SWAP2 SWAP1 POP JUMP JUMPDEST PUSH1 0x0 DUP2 SWAP1 POP PUSH1 0x20 DUP3 ADD SWAP1 POP SWAP2 SWAP1 POP JUMP JUMPDEST PUSH1 0x0 DUP2 MLOAD SWAP1 POP SWAP2 SWAP1 POP JUMP JUMPDEST PUSH1 0x0 DUP2 MLOAD SWAP1 POP SWAP2 SWAP1 POP JUMP JUMPDEST PUSH1 0x0 PUSH1 0x20 DUP3 ADD SWAP1 POP SWAP2 SWAP1 POP JUMP JUMPDEST PUSH1 0x0 DUP3 DUP3 MSTORE PUSH1 0x20 DUP3 ADD SWAP1 POP SWAP3 SWAP2 POP POP JUMP JUMPDEST PUSH1 0x0 DUP3 DUP3 MSTORE PUSH1 0x20 DUP3 ADD SWAP1 POP SWAP3 SWAP2 POP POP JUMP JUMPDEST PUSH1 0x0 DUP3 DUP3 MSTORE PUSH1 0x20 DUP3 ADD SWAP1 POP SWAP3 SWAP2 POP POP JUMP JUMPDEST PUSH1 0x0 PUSH3 0x10E9 DUP3 PUSH3 0x111A JUMP JUMPDEST SWAP1 POP SWAP2 SWAP1 POP JUMP JUMPDEST PUSH1 0x0 DUP2 ISZERO ISZERO SWAP1 POP SWAP2 SWAP1 POP JUMP JUMPDEST PUSH1 0x0 DUP2 SWAP1 POP SWAP2 SWAP1 POP JUMP JUMPDEST PUSH1 0x0 PUSH3 0x1113 DUP3 PUSH3 0x10DC JUMP JUMPDEST SWAP1 POP SWAP2 SWAP1 POP JUMP JUMPDEST PUSH1 0x0 PUSH20 0xFFFFFFFFFFFFFFFFFFFFFFFFFFFFFFFFFFFFFFFF DUP3 AND SWAP1 POP SWAP2 SWAP1 POP JUMP JUMPDEST PUSH1 0x0 DUP2 SWAP1 POP SWAP2 SWAP1 POP JUMP JUMPDEST PUSH1 0x0 PUSH1 0xFF DUP3 AND SWAP1 POP SWAP2 SWAP1 POP JUMP JUMPDEST PUSH1 0x0 PUSH3 0x115E DUP3 PUSH3 0x1179 JUMP JUMPDEST SWAP1 POP SWAP2 SWAP1 POP JUMP JUMPDEST PUSH1 0x0 PUSH3 0x1172 DUP3 PUSH3 0x1179 JUMP JUMPDEST SWAP1 POP SWAP2 SWAP1 POP JUMP JUMPDEST PUSH1 0x0 PUSH3 0x1186 DUP3 PUSH3 0x118D JUMP JUMPDEST SWAP1 POP SWAP2 SWAP1 POP JUMP JUMPDEST PUSH1 0x0 PUSH3 0x119A DUP3 PUSH3 0x111A JUMP JUMPDEST SWAP1 POP SWAP2 SWAP1 POP JUMP JUMPDEST DUP3 DUP2 DUP4 CALLDATACOPY PUSH1 0x0 DUP4 DUP4 ADD MSTORE POP POP POP JUMP JUMPDEST PUSH1 0x0 JUMPDEST DUP4 DUP2 LT ISZERO PUSH3 0x11D0 JUMPI DUP1 DUP3 ADD MLOAD DUP2 DUP5 ADD MSTORE PUSH1 0x20 DUP2 ADD SWAP1 POP PUSH3 0x11B3 JUMP JUMPDEST DUP4 DUP2 GT ISZERO PUSH3 0x11E0 JUMPI PUSH1 0x0 DUP5 DUP5 ADD MSTORE JUMPDEST POP POP POP POP JUMP JUMPDEST PUSH3 0x11F1 DUP3 PUSH3 0x126E JUMP JUMPDEST DUP2 ADD DUP2 DUP2 LT PUSH8 0xFFFFFFFFFFFFFFFF DUP3 GT OR ISZERO PUSH3 0x1213 JUMPI PUSH3 0x1212 PUSH3 0x121C JUMP JUMPDEST JUMPDEST DUP1 PUSH1 0x40 MSTORE POP POP POP JUMP JUMPDEST PUSH32 0x4E487B7100000000000000000000000000000000000000000000000000000000 PUSH1 0x0 MSTORE PUSH1 0x41 PUSH1 0x4 MSTORE PUSH1 0x24 PUSH1 0x0 REVERT JUMPDEST PUSH1 0x0 DUP1 REVERT JUMPDEST PUSH1 0x0 DUP1 REVERT JUMPDEST PUSH1 0x0 DUP1 REVERT JUMPDEST PUSH1 0x0 DUP1 REVERT JUMPDEST PUSH1 0x0 DUP1 REVERT JUMPDEST PUSH1 0x0 DUP1 REVERT JUMPDEST PUSH1 0x0 DUP1 REVERT JUMPDEST PUSH1 0x0 PUSH1 0x1F NOT PUSH1 0x1F DUP4 ADD AND SWAP1 POP SWAP2 SWAP1 POP JUMP JUMPDEST PUSH32 0x636174676F727920616C72656164792065786973747300000000000000000000 PUSH1 0x0 DUP3 ADD MSTORE POP JUMP JUMPDEST PUSH3 0x12B3 DUP2 PUSH3 0x10DC JUMP JUMPDEST DUP2 EQ PUSH3 0x12BF JUMPI PUSH1 0x0 DUP1 REVERT JUMPDEST POP JUMP JUMPDEST PUSH3 0x12CD DUP2 PUSH3 0x10F0 JUMP JUMPDEST DUP2 EQ PUSH3 0x12D9 JUMPI PUSH1 0x0 DUP1 REVERT JUMPDEST POP JUMP JUMPDEST PUSH3 0x12E7 DUP2 PUSH3 0x10FC JUMP JUMPDEST DUP2 EQ PUSH3 0x12F3 JUMPI PUSH1 0x0 DUP1 REVERT JUMPDEST POP JUMP JUMPDEST PUSH3 0x1301 DUP2 PUSH3 0x1106 JUMP JUMPDEST DUP2 EQ PUSH3 0x130D JUMPI PUSH1 0x0 DUP1 REVERT JUMPDEST POP JUMP JUMPDEST PUSH3 0x131B DUP2 PUSH3 0x113A JUMP JUMPDEST DUP2 EQ PUSH3 0x1327 JUMPI PUSH1 0x0 DUP1 REVERT JUMPDEST POP JUMP JUMPDEST PUSH3 0x1335 DUP2 PUSH3 0x1144 JUMP JUMPDEST DUP2 EQ PUSH3 0x1341 JUMPI PUSH1 0x0 DUP1 REVERT JUMPDEST POP JUMP INVALID PUSH1 0x80 PUSH1 0x40 MSTORE CALLVALUE DUP1 ISZERO PUSH2 0x10 JUMPI PUSH1 0x0 DUP1 REVERT JUMPDEST POP PUSH1 0x40 MLOAD PUSH3 0x202F CODESIZE SUB DUP1 PUSH3 0x202F DUP4 CODECOPY DUP2 DUP2 ADD PUSH1 0x40 MSTORE DUP2 ADD SWAP1 PUSH2 0x34 SWAP2 SWAP1 PUSH2 0x56 JUMP JUMPDEST DUP1 PUSH1 0x0 DUP2 SWAP1 SSTORE POP POP PUSH2 0xA9 JUMP JUMPDEST PUSH1 0x0 DUP2 MLOAD SWAP1 POP PUSH2 0x50 DUP2 PUSH2 0x92 JUMP JUMPDEST SWAP3 SWAP2 POP POP JUMP JUMPDEST PUSH1 0x0 PUSH1 0x20 DUP3 DUP5 SUB SLT ISZERO PUSH2 0x6C JUMPI PUSH2 0x6B PUSH2 0x8D JUMP JUMPDEST JUMPDEST PUSH1 0x0 PUSH2 0x7A DUP5 DUP3 DUP6 ADD PUSH2 0x41 JUMP JUMPDEST SWAP2 POP POP SWAP3 SWAP2 POP POP JUMP JUMPDEST PUSH1 0x0 DUP2 SWAP1 POP SWAP2 SWAP1 POP JUMP JUMPDEST PUSH1 0x0 DUP1 REVERT JUMPDEST PUSH2 0x9B DUP2 PUSH2 0x83 JUMP JUMPDEST DUP2 EQ PUSH2 0xA6 JUMPI PUSH1 0x0 DUP1 REVERT JUMPDEST POP JUMP JUMPDEST PUSH2 0x1F76 DUP1 PUSH3 0xB9 PUSH1 0x0 CODECOPY PUSH1 0x0 RETURN INVALID PUSH1 0x80 PUSH1 0x40 MSTORE CALLVALUE DUP1 ISZERO PUSH3 0x11 JUMPI PUSH1 0x0 DUP1 REVERT JUMPDEST POP PUSH1 0x4 CALLDATASIZE LT PUSH3 0x5E JUMPI PUSH1 0x0 CALLDATALOAD PUSH1 0xE0 SHR DUP1 PUSH4 0x1E81C3AD EQ PUSH3 0x63 JUMPI DUP1 PUSH4 0x5A35DC9F EQ PUSH3 0x99 JUMPI DUP1 PUSH4 0x5C622A0E EQ PUSH3 0xCF JUMPI DUP1 PUSH4 0xA2A8578D EQ PUSH3 0x105 JUMPI DUP1 PUSH4 0xB2590033 EQ PUSH3 0x13B JUMPI JUMPDEST PUSH1 0x0 DUP1 REVERT JUMPDEST PUSH3 0x81 PUSH1 0x4 DUP1 CALLDATASIZE SUB DUP2 ADD SWAP1 PUSH3 0x7B SWAP2 SWAP1 PUSH3 0x95F JUMP JUMPDEST PUSH3 0x172 JUMP JUMPDEST PUSH1 0x40 MLOAD PUSH3 0x90 SWAP2 SWAP1 PUSH3 0xC9E JUMP JUMPDEST PUSH1 0x40 MLOAD DUP1 SWAP2 SUB SWAP1 RETURN JUMPDEST PUSH3 0xB7 PUSH1 0x4 DUP1 CALLDATASIZE SUB DUP2 ADD SWAP1 PUSH3 0xB1 SWAP2 SWAP1 PUSH3 0x95F JUMP JUMPDEST PUSH3 0x238 JUMP JUMPDEST PUSH1 0x40 MLOAD PUSH3 0xC6 SWAP2 SWAP1 PUSH3 0xD0C JUMP JUMPDEST PUSH1 0x40 MLOAD DUP1 SWAP2 SUB SWAP1 RETURN JUMPDEST PUSH3 0xED PUSH1 0x4 DUP1 CALLDATASIZE SUB DUP2 ADD SWAP1 PUSH3 0xE7 SWAP2 SWAP1 PUSH3 0x95F JUMP JUMPDEST PUSH3 0x3A5 JUMP JUMPDEST PUSH1 0x40 MLOAD PUSH3 0xFC SWAP2 SWAP1 PUSH3 0xD68 JUMP JUMPDEST PUSH1 0x40 MLOAD DUP1 SWAP2 SUB SWAP1 RETURN JUMPDEST PUSH3 0x123 PUSH1 0x4 DUP1 CALLDATASIZE SUB DUP2 ADD SWAP1 PUSH3 0x11D SWAP2 SWAP1 PUSH3 0x991 JUMP JUMPDEST PUSH3 0x49A JUMP JUMPDEST PUSH1 0x40 MLOAD PUSH3 0x132 SWAP2 SWAP1 PUSH3 0xCC2 JUMP JUMPDEST PUSH1 0x40 MLOAD DUP1 SWAP2 SUB SWAP1 RETURN JUMPDEST PUSH3 0x159 PUSH1 0x4 DUP1 CALLDATASIZE SUB DUP2 ADD SWAP1 PUSH3 0x153 SWAP2 SWAP1 PUSH3 0x95F JUMP JUMPDEST PUSH3 0x56E JUMP JUMPDEST PUSH1 0x40 MLOAD PUSH3 0x169 SWAP3 SWAP2 SWAP1 PUSH3 0xCDF JUMP JUMPDEST PUSH1 0x40 MLOAD DUP1 SWAP2 SUB SWAP1 RETURN JUMPDEST PUSH1 0x60 PUSH1 0x1 PUSH1 0x0 DUP4 DUP2 MSTORE PUSH1 0x20 ADD SWAP1 DUP2 MSTORE PUSH1 0x20 ADD PUSH1 0x0 KECCAK256 PUSH1 0x0 ADD PUSH1 0x0 SWAP1 SLOAD SWAP1 PUSH2 0x100 EXP SWAP1 DIV PUSH20 0xFFFFFFFFFFFFFFFFFFFFFFFFFFFFFFFFFFFFFFFF AND PUSH20 0xFFFFFFFFFFFFFFFFFFFFFFFFFFFFFFFFFFFFFFFF AND PUSH4 0xF0D984E4 PUSH1 0x40 MLOAD DUP2 PUSH4 0xFFFFFFFF AND PUSH1 0xE0 SHL DUP2 MSTORE PUSH1 0x4 ADD PUSH1 0x0 PUSH1 0x40 MLOAD DUP1 DUP4 SUB DUP2 DUP7 DUP1 EXTCODESIZE ISZERO DUP1 ISZERO PUSH3 0x1F1 JUMPI PUSH1 0x0 DUP1 REVERT JUMPDEST POP GAS STATICCALL ISZERO DUP1 ISZERO PUSH3 0x206 JUMPI RETURNDATASIZE PUSH1 0x0 DUP1 RETURNDATACOPY RETURNDATASIZE PUSH1 0x0 REVERT JUMPDEST POP POP POP POP PUSH1 0x40 MLOAD RETURNDATASIZE PUSH1 0x0 DUP3 RETURNDATACOPY RETURNDATASIZE PUSH1 0x1F NOT PUSH1 0x1F DUP3 ADD AND DUP3 ADD DUP1 PUSH1 0x40 MSTORE POP DUP2 ADD SWAP1 PUSH3 0x231 SWAP2 SWAP1 PUSH3 0x8DC JUMP JUMPDEST SWAP1 POP SWAP2 SWAP1 POP JUMP JUMPDEST PUSH1 0x0 PUSH1 0x1 PUSH1 0x0 DUP4 DUP2 MSTORE PUSH1 0x20 ADD SWAP1 DUP2 MSTORE PUSH1 0x20 ADD PUSH1 0x0 KECCAK256 PUSH1 0x0 ADD PUSH1 0x14 SWAP1 SLOAD SWAP1 PUSH2 0x100 EXP SWAP1 DIV PUSH1 0xFF AND ISZERO PUSH3 0x2A1 JUMPI PUSH1 0x40 MLOAD PUSH32 0x8C379A000000000000000000000000000000000000000000000000000000000 DUP2 MSTORE PUSH1 0x4 ADD PUSH3 0x298 SWAP1 PUSH3 0xD29 JUMP JUMPDEST PUSH1 0x40 MLOAD DUP1 SWAP2 SUB SWAP1 REVERT JUMPDEST PUSH1 0x1 DUP1 PUSH1 0x0 DUP5 DUP2 MSTORE PUSH1 0x20 ADD SWAP1 DUP2 MSTORE PUSH1 0x20 ADD PUSH1 0x0 KECCAK256 PUSH1 0x0 ADD PUSH1 0x14 PUSH2 0x100 EXP DUP2 SLOAD DUP2 PUSH1 0xFF MUL NOT AND SWAP1 DUP4 ISZERO ISZERO MUL OR SWAP1 SSTORE POP PUSH1 0x0 DUP3 PUSH1 0x40 MLOAD PUSH3 0x2E0 SWAP1 PUSH3 0x5D5 JUMP JUMPDEST PUSH3 0x2EC SWAP2 SWAP1 PUSH3 0xD4B JUMP JUMPDEST PUSH1 0x40 MLOAD DUP1 SWAP2 SUB SWAP1 PUSH1 0x0 CREATE DUP1 ISZERO DUP1 ISZERO PUSH3 0x309 JUMPI RETURNDATASIZE PUSH1 0x0 DUP1 RETURNDATACOPY RETURNDATASIZE PUSH1 0x0 REVERT JUMPDEST POP SWAP1 POP DUP1 PUSH1 0x1 PUSH1 0x0 DUP6 DUP2 MSTORE PUSH1 0x20 ADD SWAP1 DUP2 MSTORE PUSH1 0x20 ADD PUSH1 0x0 KECCAK256 PUSH1 0x0 ADD PUSH1 0x0 PUSH2 0x100 EXP DUP2 SLOAD DUP2 PUSH20 0xFFFFFFFFFFFFFFFFFFFFFFFFFFFFFFFFFFFFFFFF MUL NOT AND SWAP1 DUP4 PUSH20 0xFFFFFFFFFFFFFFFFFFFFFFFFFFFFFFFFFFFFFFFF AND MUL OR SWAP1 SSTORE POP PUSH32 0xFCD250D4823D3120F25F4AEDF84774079AA371901BA8E4404B92CEDA1A7948C8 CALLER DUP5 PUSH1 0x40 MLOAD PUSH3 0x394 SWAP3 SWAP2 SWAP1 PUSH3 0xC71 JUMP JUMPDEST PUSH1 0x40 MLOAD DUP1 SWAP2 SUB SWAP1 LOG1 DUP1 SWAP2 POP POP SWAP2 SWAP1 POP JUMP JUMPDEST PUSH1 0x0 PUSH1 0x1 PUSH1 0x0 DUP4 DUP2 MSTORE PUSH1 0x20 ADD SWAP1 DUP2 MSTORE PUSH1 0x20 ADD PUSH1 0x0 KECCAK256 PUSH1 0x0 ADD PUSH1 0x14 SWAP1 SLOAD SWAP1 PUSH2 0x100 EXP SWAP1 DIV PUSH1 0xFF AND PUSH3 0x3DA JUMPI PUSH1 0xFF SWAP1 POP PUSH3 0x495 JUMP JUMPDEST PUSH1 0x1 PUSH1 0x0 DUP4 DUP2 MSTORE PUSH1 0x20 ADD SWAP1 DUP2 MSTORE PUSH1 0x20 ADD PUSH1 0x0 KECCAK256 PUSH1 0x0 ADD PUSH1 0x0 SWAP1 SLOAD SWAP1 PUSH2 0x100 EXP SWAP1 DIV PUSH20 0xFFFFFFFFFFFFFFFFFFFFFFFFFFFFFFFFFFFFFFFF AND PUSH20 0xFFFFFFFFFFFFFFFFFFFFFFFFFFFFFFFFFFFFFFFF AND PUSH4 0x4E69D560 PUSH1 0x40 MLOAD DUP2 PUSH4 0xFFFFFFFF AND PUSH1 0xE0 SHL DUP2 MSTORE PUSH1 0x4 ADD PUSH1 0x20 PUSH1 0x40 MLOAD DUP1 DUP4 SUB DUP2 DUP7 DUP1 EXTCODESIZE ISZERO DUP1 ISZERO PUSH3 0x457 JUMPI PUSH1 0x0 DUP1 REVERT JUMPDEST POP GAS STATICCALL ISZERO DUP1 ISZERO PUSH3 0x46C JUMPI RETURNDATASIZE PUSH1 0x0 DUP1 RETURNDATACOPY RETURNDATASIZE PUSH1 0x0 REVERT JUMPDEST POP POP POP POP PUSH1 0x40 MLOAD RETURNDATASIZE PUSH1 0x1F NOT PUSH1 0x1F DUP3 ADD AND DUP3 ADD DUP1 PUSH1 0x40 MSTORE POP DUP2 ADD SWAP1 PUSH3 0x492 SWAP2 SWAP1 PUSH3 0xA0C JUMP JUMPDEST SWAP1 POP JUMPDEST SWAP2 SWAP1 POP JUMP JUMPDEST PUSH1 0x0 PUSH1 0x1 PUSH1 0x0 DUP6 DUP2 MSTORE PUSH1 0x20 ADD SWAP1 DUP2 MSTORE PUSH1 0x20 ADD PUSH1 0x0 KECCAK256 PUSH1 0x0 ADD PUSH1 0x0 SWAP1 SLOAD SWAP1 PUSH2 0x100 EXP SWAP1 DIV PUSH20 0xFFFFFFFFFFFFFFFFFFFFFFFFFFFFFFFFFFFFFFFF AND PUSH20 0xFFFFFFFFFFFFFFFFFFFFFFFFFFFFFFFFFFFFFFFF AND PUSH4 0x173D773D DUP5 DUP5 PUSH1 0x40 MLOAD DUP4 PUSH4 0xFFFFFFFF AND PUSH1 0xE0 SHL DUP2 MSTORE PUSH1 0x4 ADD PUSH3 0x50F SWAP3 SWAP2 SWAP1 PUSH3 0xD85 JUMP JUMPDEST PUSH1 0x20 PUSH1 0x40 MLOAD DUP1 DUP4 SUB DUP2 PUSH1 0x0 DUP8 DUP1 EXTCODESIZE ISZERO DUP1 ISZERO PUSH3 0x52A JUMPI PUSH1 0x0 DUP1 REVERT JUMPDEST POP GAS CALL ISZERO DUP1 ISZERO PUSH3 0x53F JUMPI RETURNDATASIZE PUSH1 0x0 DUP1 RETURNDATACOPY RETURNDATASIZE PUSH1 0x0 REVERT JUMPDEST POP POP POP POP PUSH1 0x40 MLOAD RETURNDATASIZE PUSH1 0x1F NOT PUSH1 0x1F DUP3 ADD AND DUP3 ADD DUP1 PUSH1 0x40 MSTORE POP DUP2 ADD SWAP1 PUSH3 0x565 SWAP2 SWAP1 PUSH3 0x92D JUMP JUMPDEST SWAP1 POP SWAP4 SWAP3 POP POP POP JUMP JUMPDEST PUSH1 0x0 DUP1 PUSH1 0x1 PUSH1 0x0 DUP5 DUP2 MSTORE PUSH1 0x20 ADD SWAP1 DUP2 MSTORE PUSH1 0x20 ADD PUSH1 0x0 KECCAK256 PUSH1 0x0 ADD PUSH1 0x14 SWAP1 SLOAD SWAP1 PUSH2 0x100 EXP SWAP1 DIV PUSH1 0xFF AND PUSH1 0x1 PUSH1 0x0 DUP6 DUP2 MSTORE PUSH1 0x20 ADD SWAP1 DUP2 MSTORE PUSH1 0x20 ADD PUSH1 0x0 KECCAK256 PUSH1 0x0 ADD PUSH1 0x0 SWAP1 SLOAD SWAP1 PUSH2 0x100 EXP SWAP1 DIV PUSH20 0xFFFFFFFFFFFFFFFFFFFFFFFFFFFFFFFFFFFFFFFF AND SWAP2 POP SWAP2 POP SWAP2 POP SWAP2 JUMP JUMPDEST PUSH2 0xE91 DUP1 PUSH3 0x10B0 DUP4 CODECOPY ADD SWAP1 JUMP JUMPDEST PUSH1 0x0 PUSH3 0x5FA PUSH3 0x5F4 DUP5 PUSH3 0xDE2 JUMP JUMPDEST PUSH3 0xDB9 JUMP JUMPDEST SWAP1 POP DUP1 DUP4 DUP3 MSTORE PUSH1 0x20 DUP3 ADD SWAP1 POP DUP3 DUP6 PUSH1 0x20 DUP7 MUL DUP3 ADD GT ISZERO PUSH3 0x620 JUMPI PUSH3 0x61F PUSH3 0xFF9 JUMP JUMPDEST JUMPDEST PUSH1 0x0 JUMPDEST DUP6 DUP2 LT ISZERO PUSH3 0x675 JUMPI DUP2 MLOAD PUSH8 0xFFFFFFFFFFFFFFFF DUP2 GT ISZERO PUSH3 0x64A JUMPI PUSH3 0x649 PUSH3 0xFEA JUMP JUMPDEST JUMPDEST DUP1 DUP7 ADD PUSH3 0x659 DUP10 DUP3 PUSH3 0x7DC JUMP JUMPDEST DUP6 MSTORE PUSH1 0x20 DUP6 ADD SWAP5 POP PUSH1 0x20 DUP5 ADD SWAP4 POP POP POP PUSH1 0x1 DUP2 ADD SWAP1 POP PUSH3 0x623 JUMP JUMPDEST POP POP POP SWAP4 SWAP3 POP POP POP JUMP JUMPDEST PUSH1 0x0 PUSH3 0x696 PUSH3 0x690 DUP5 PUSH3 0xE11 JUMP JUMPDEST PUSH3 0xDB9 JUMP JUMPDEST SWAP1 POP DUP3 DUP2 MSTORE PUSH1 0x20 DUP2 ADD DUP5 DUP5 DUP5 ADD GT ISZERO PUSH3 0x6B5 JUMPI PUSH3 0x6B4 PUSH3 0xFFE JUMP JUMPDEST JUMPDEST PUSH3 0x6C2 DUP5 DUP3 DUP6 PUSH3 0xF40 JUMP JUMPDEST POP SWAP4 SWAP3 POP POP POP JUMP JUMPDEST PUSH1 0x0 PUSH3 0x6E1 PUSH3 0x6DB DUP5 PUSH3 0xE11 JUMP JUMPDEST PUSH3 0xDB9 JUMP JUMPDEST SWAP1 POP DUP3 DUP2 MSTORE PUSH1 0x20 DUP2 ADD DUP5 DUP5 DUP5 ADD GT ISZERO PUSH3 0x700 JUMPI PUSH3 0x6FF PUSH3 0xFFE JUMP JUMPDEST JUMPDEST PUSH3 0x70D DUP5 DUP3 DUP6 PUSH3 0xF4F JUMP JUMPDEST POP SWAP4 SWAP3 POP POP POP JUMP JUMPDEST PUSH1 0x0 DUP2 MLOAD SWAP1 POP PUSH3 0x726 DUP2 PUSH3 0x1047 JUMP JUMPDEST SWAP3 SWAP2 POP POP JUMP JUMPDEST PUSH1 0x0 DUP3 PUSH1 0x1F DUP4 ADD SLT PUSH3 0x744 JUMPI PUSH3 0x743 PUSH3 0xFEA JUMP JUMPDEST JUMPDEST DUP2 MLOAD PUSH3 0x756 DUP5 DUP3 PUSH1 0x20 DUP7 ADD PUSH3 0x5E3 JUMP JUMPDEST SWAP2 POP POP SWAP3 SWAP2 POP POP JUMP JUMPDEST PUSH1 0x0 DUP2 MLOAD SWAP1 POP PUSH3 0x770 DUP2 PUSH3 0x1061 JUMP JUMPDEST SWAP3 SWAP2 POP POP JUMP JUMPDEST PUSH1 0x0 DUP3 PUSH1 0x1F DUP4 ADD SLT PUSH3 0x78E JUMPI PUSH3 0x78D PUSH3 0xFEA JUMP JUMPDEST JUMPDEST DUP2 CALLDATALOAD PUSH3 0x7A0 DUP5 DUP3 PUSH1 0x20 DUP7 ADD PUSH3 0x67F JUMP JUMPDEST SWAP2 POP POP SWAP3 SWAP2 POP POP JUMP JUMPDEST PUSH1 0x0 DUP3 PUSH1 0x1F DUP4 ADD SLT PUSH3 0x7C1 JUMPI PUSH3 0x7C0 PUSH3 0xFEA JUMP JUMPDEST JUMPDEST DUP2 MLOAD PUSH3 0x7D3 DUP5 DUP3 PUSH1 0x20 DUP7 ADD PUSH3 0x6CA JUMP JUMPDEST SWAP2 POP POP SWAP3 SWAP2 POP POP JUMP JUMPDEST PUSH1 0x0 PUSH1 0x80 DUP3 DUP5 SUB SLT ISZERO PUSH3 0x7F5 JUMPI PUSH3 0x7F4 PUSH3 0xFEF JUMP JUMPDEST JUMPDEST PUSH3 0x801 PUSH1 0x80 PUSH3 0xDB9 JUMP JUMPDEST SWAP1 POP PUSH1 0x0 PUSH3 0x813 DUP5 DUP3 DUP6 ADD PUSH3 0x715 JUMP JUMPDEST PUSH1 0x0 DUP4 ADD MSTORE POP PUSH1 0x20 PUSH3 0x829 DUP5 DUP3 DUP6 ADD PUSH3 0x8C5 JUMP JUMPDEST PUSH1 0x20 DUP4 ADD MSTORE POP PUSH1 0x40 PUSH3 0x83F DUP5 DUP3 DUP6 ADD PUSH3 0x897 JUMP JUMPDEST PUSH1 0x40 DUP4 ADD MSTORE POP PUSH1 0x60 DUP3 ADD MLOAD PUSH8 0xFFFFFFFFFFFFFFFF DUP2 GT ISZERO PUSH3 0x866 JUMPI PUSH3 0x865 PUSH3 0xFF4 JUMP JUMPDEST JUMPDEST PUSH3 0x874 DUP5 DUP3 DUP6 ADD PUSH3 0x7A9 JUMP JUMPDEST PUSH1 0x60 DUP4 ADD MSTORE POP SWAP3 SWAP2 POP POP JUMP JUMPDEST PUSH1 0x0 DUP2 CALLDATALOAD SWAP1 POP PUSH3 0x891 DUP2 PUSH3 0x107B JUMP JUMPDEST SWAP3 SWAP2 POP POP JUMP JUMPDEST PUSH1 0x0 DUP2 MLOAD SWAP1 POP PUSH3 0x8A8 DUP2 PUSH3 0x107B JUMP JUMPDEST SWAP3 SWAP2 POP POP JUMP JUMPDEST PUSH1 0x0 DUP2 CALLDATALOAD SWAP1 POP PUSH3 0x8BF DUP2 PUSH3 0x1095 JUMP JUMPDEST SWAP3 SWAP2 POP POP JUMP JUMPDEST PUSH1 0x0 DUP2 MLOAD SWAP1 POP PUSH3 0x8D6 DUP2 PUSH3 0x1095 JUMP JUMPDEST SWAP3 SWAP2 POP POP JUMP JUMPDEST PUSH1 0x0 PUSH1 0x20 DUP3 DUP5 SUB SLT ISZERO PUSH3 0x8F5 JUMPI PUSH3 0x8F4 PUSH3 0x1008 JUMP JUMPDEST JUMPDEST PUSH1 0x0 DUP3 ADD MLOAD PUSH8 0xFFFFFFFFFFFFFFFF DUP2 GT ISZERO PUSH3 0x916 JUMPI PUSH3 0x915 PUSH3 0x1003 JUMP JUMPDEST JUMPDEST PUSH3 0x924 DUP5 DUP3 DUP6 ADD PUSH3 0x72C JUMP JUMPDEST SWAP2 POP POP SWAP3 SWAP2 POP POP JUMP JUMPDEST PUSH1 0x0 PUSH1 0x20 DUP3 DUP5 SUB SLT ISZERO PUSH3 0x946 JUMPI PUSH3 0x945 PUSH3 0x1008 JUMP JUMPDEST JUMPDEST PUSH1 0x0 PUSH3 0x956 DUP5 DUP3 DUP6 ADD PUSH3 0x75F JUMP JUMPDEST SWAP2 POP POP SWAP3 SWAP2 POP POP JUMP JUMPDEST PUSH1 0x0 PUSH1 0x20 DUP3 DUP5 SUB SLT ISZERO PUSH3 0x978 JUMPI PUSH3 0x977 PUSH3 0x1008 JUMP JUMPDEST JUMPDEST PUSH1 0x0 PUSH3 0x988 DUP5 DUP3 DUP6 ADD PUSH3 0x880 JUMP JUMPDEST SWAP2 POP POP SWAP3 SWAP2 POP POP JUMP JUMPDEST PUSH1 0x0 DUP1 PUSH1 0x0 PUSH1 0x60 DUP5 DUP7 SUB SLT ISZERO PUSH3 0x9AD JUMPI PUSH3 0x9AC PUSH3 0x1008 JUMP JUMPDEST JUMPDEST PUSH1 0x0 PUSH3 0x9BD DUP7 DUP3 DUP8 ADD PUSH3 0x880 JUMP JUMPDEST SWAP4 POP POP PUSH1 0x20 PUSH3 0x9D0 DUP7 DUP3 DUP8 ADD PUSH3 0x8AE JUMP JUMPDEST SWAP3 POP POP PUSH1 0x40 DUP5 ADD CALLDATALOAD PUSH8 0xFFFFFFFFFFFFFFFF DUP2 GT ISZERO PUSH3 0x9F4 JUMPI PUSH3 0x9F3 PUSH3 0x1003 JUMP JUMPDEST JUMPDEST PUSH3 0xA02 DUP7 DUP3 DUP8 ADD PUSH3 0x776 JUMP JUMPDEST SWAP2 POP POP SWAP3 POP SWAP3 POP SWAP3 JUMP JUMPDEST PUSH1 0x0 PUSH1 0x20 DUP3 DUP5 SUB SLT ISZERO PUSH3 0xA25 JUMPI PUSH3 0xA24 PUSH3 0x1008 JUMP JUMPDEST JUMPDEST PUSH1 0x0 PUSH3 0xA35 DUP5 DUP3 DUP6 ADD PUSH3 0x8C5 JUMP JUMPDEST SWAP2 POP POP SWAP3 SWAP2 POP POP JUMP JUMPDEST PUSH1 0x0 PUSH3 0xA4C DUP4 DUP4 PUSH3 0xBC2 JUMP JUMPDEST SWAP1 POP SWAP3 SWAP2 POP POP JUMP JUMPDEST PUSH3 0xA5F DUP2 PUSH3 0xEAD JUMP JUMPDEST DUP3 MSTORE POP POP JUMP JUMPDEST PUSH3 0xA70 DUP2 PUSH3 0xEAD JUMP JUMPDEST DUP3 MSTORE POP POP JUMP JUMPDEST PUSH1 0x0 PUSH3 0xA83 DUP3 PUSH3 0xE57 JUMP JUMPDEST PUSH3 0xA8F DUP2 DUP6 PUSH3 0xE7A JUMP JUMPDEST SWAP4 POP DUP4 PUSH1 0x20 DUP3 MUL DUP6 ADD PUSH3 0xAA3 DUP6 PUSH3 0xE47 JUMP JUMPDEST DUP1 PUSH1 0x0 JUMPDEST DUP6 DUP2 LT ISZERO PUSH3 0xAE5 JUMPI DUP5 DUP5 SUB DUP10 MSTORE DUP2 MLOAD PUSH3 0xAC3 DUP6 DUP3 PUSH3 0xA3E JUMP JUMPDEST SWAP5 POP PUSH3 0xAD0 DUP4 PUSH3 0xE6D JUMP JUMPDEST SWAP3 POP PUSH1 0x20 DUP11 ADD SWAP10 POP POP PUSH1 0x1 DUP2 ADD SWAP1 POP PUSH3 0xAA7 JUMP JUMPDEST POP DUP3 SWAP8 POP DUP8 SWAP6 POP POP POP POP POP POP SWAP3 SWAP2 POP POP JUMP JUMPDEST PUSH3 0xB02 DUP2 PUSH3 0xEC1 JUMP JUMPDEST DUP3 MSTORE POP POP JUMP JUMPDEST PUSH3 0xB13 DUP2 PUSH3 0xF04 JUMP JUMPDEST DUP3 MSTORE POP POP JUMP JUMPDEST PUSH1 0x0 PUSH3 0xB26 DUP3 PUSH3 0xE62 JUMP JUMPDEST PUSH3 0xB32 DUP2 DUP6 PUSH3 0xE8B JUMP JUMPDEST SWAP4 POP PUSH3 0xB44 DUP2 DUP6 PUSH1 0x20 DUP7 ADD PUSH3 0xF4F JUMP JUMPDEST PUSH3 0xB4F DUP2 PUSH3 0x100D JUMP JUMPDEST DUP5 ADD SWAP2 POP POP SWAP3 SWAP2 POP POP JUMP JUMPDEST PUSH1 0x0 PUSH3 0xB67 DUP3 PUSH3 0xE62 JUMP JUMPDEST PUSH3 0xB73 DUP2 DUP6 PUSH3 0xE9C JUMP JUMPDEST SWAP4 POP PUSH3 0xB85 DUP2 DUP6 PUSH1 0x20 DUP7 ADD PUSH3 0xF4F JUMP JUMPDEST PUSH3 0xB90 DUP2 PUSH3 0x100D JUMP JUMPDEST DUP5 ADD SWAP2 POP POP SWAP3 SWAP2 POP POP JUMP JUMPDEST PUSH1 0x0 PUSH3 0xBAA PUSH1 0x16 DUP4 PUSH3 0xE9C JUMP JUMPDEST SWAP2 POP PUSH3 0xBB7 DUP3 PUSH3 0x101E JUMP JUMPDEST PUSH1 0x20 DUP3 ADD SWAP1 POP SWAP2 SWAP1 POP JUMP JUMPDEST PUSH1 0x0 PUSH1 0x80 DUP4 ADD PUSH1 0x0 DUP4 ADD MLOAD PUSH3 0xBDC PUSH1 0x0 DUP7 ADD DUP3 PUSH3 0xA54 JUMP JUMPDEST POP PUSH1 0x20 DUP4 ADD MLOAD PUSH3 0xBF1 PUSH1 0x20 DUP7 ADD DUP3 PUSH3 0xC4F JUMP JUMPDEST POP PUSH1 0x40 DUP4 ADD MLOAD PUSH3 0xC06 PUSH1 0x40 DUP7 ADD DUP3 PUSH3 0xC2D JUMP JUMPDEST POP PUSH1 0x60 DUP4 ADD MLOAD DUP5 DUP3 SUB PUSH1 0x60 DUP7 ADD MSTORE PUSH3 0xC20 DUP3 DUP3 PUSH3 0xB19 JUMP JUMPDEST SWAP2 POP POP DUP1 SWAP2 POP POP SWAP3 SWAP2 POP POP JUMP JUMPDEST PUSH3 0xC38 DUP2 PUSH3 0xEED JUMP JUMPDEST DUP3 MSTORE POP POP JUMP JUMPDEST PUSH3 0xC49 DUP2 PUSH3 0xEED JUMP JUMPDEST DUP3 MSTORE POP POP JUMP JUMPDEST PUSH3 0xC5A DUP2 PUSH3 0xEF7 JUMP JUMPDEST DUP3 MSTORE POP POP JUMP JUMPDEST PUSH3 0xC6B DUP2 PUSH3 0xEF7 JUMP JUMPDEST DUP3 MSTORE POP POP JUMP JUMPDEST PUSH1 0x0 PUSH1 0x40 DUP3 ADD SWAP1 POP PUSH3 0xC88 PUSH1 0x0 DUP4 ADD DUP6 PUSH3 0xA65 JUMP JUMPDEST PUSH3 0xC97 PUSH1 0x20 DUP4 ADD DUP5 PUSH3 0xC3E JUMP JUMPDEST SWAP4 SWAP3 POP POP POP JUMP JUMPDEST PUSH1 0x0 PUSH1 0x20 DUP3 ADD SWAP1 POP DUP2 DUP2 SUB PUSH1 0x0 DUP4 ADD MSTORE PUSH3 0xCBA DUP2 DUP5 PUSH3 0xA76 JUMP JUMPDEST SWAP1 POP SWAP3 SWAP2 POP POP JUMP JUMPDEST PUSH1 0x0 PUSH1 0x20 DUP3 ADD SWAP1 POP PUSH3 0xCD9 PUSH1 0x0 DUP4 ADD DUP5 PUSH3 0xAF7 JUMP JUMPDEST SWAP3 SWAP2 POP POP JUMP JUMPDEST PUSH1 0x0 PUSH1 0x40 DUP3 ADD SWAP1 POP PUSH3 0xCF6 PUSH1 0x0 DUP4 ADD DUP6 PUSH3 0xAF7 JUMP JUMPDEST PUSH3 0xD05 PUSH1 0x20 DUP4 ADD DUP5 PUSH3 0xB08 JUMP JUMPDEST SWAP4 SWAP3 POP POP POP JUMP JUMPDEST PUSH1 0x0 PUSH1 0x20 DUP3 ADD SWAP1 POP PUSH3 0xD23 PUSH1 0x0 DUP4 ADD DUP5 PUSH3 0xB08 JUMP JUMPDEST SWAP3 SWAP2 POP POP JUMP JUMPDEST PUSH1 0x0 PUSH1 0x20 DUP3 ADD SWAP1 POP DUP2 DUP2 SUB PUSH1 0x0 DUP4 ADD MSTORE PUSH3 0xD44 DUP2 PUSH3 0xB9B JUMP JUMPDEST SWAP1 POP SWAP2 SWAP1 POP JUMP JUMPDEST PUSH1 0x0 PUSH1 0x20 DUP3 ADD SWAP1 POP PUSH3 0xD62 PUSH1 0x0 DUP4 ADD DUP5 PUSH3 0xC3E JUMP JUMPDEST SWAP3 SWAP2 POP POP JUMP JUMPDEST PUSH1 0x0 PUSH1 0x20 DUP3 ADD SWAP1 POP PUSH3 0xD7F PUSH1 0x0 DUP4 ADD DUP5 PUSH3 0xC60 JUMP JUMPDEST SWAP3 SWAP2 POP POP JUMP JUMPDEST PUSH1 0x0 PUSH1 0x40 DUP3 ADD SWAP1 POP PUSH3 0xD9C PUSH1 0x0 DUP4 ADD DUP6 PUSH3 0xC60 JUMP JUMPDEST DUP2 DUP2 SUB PUSH1 0x20 DUP4 ADD MSTORE PUSH3 0xDB0 DUP2 DUP5 PUSH3 0xB5A JUMP JUMPDEST SWAP1 POP SWAP4 SWAP3 POP POP POP JUMP JUMPDEST PUSH1 0x0 PUSH3 0xDC5 PUSH3 0xDD8 JUMP JUMPDEST SWAP1 POP PUSH3 0xDD3 DUP3 DUP3 PUSH3 0xF85 JUMP JUMPDEST SWAP2 SWAP1 POP JUMP JUMPDEST PUSH1 0x0 PUSH1 0x40 MLOAD SWAP1 POP SWAP1 JUMP JUMPDEST PUSH1 0x0 PUSH8 0xFFFFFFFFFFFFFFFF DUP3 GT ISZERO PUSH3 0xE00 JUMPI PUSH3 0xDFF PUSH3 0xFBB JUMP JUMPDEST JUMPDEST PUSH1 0x20 DUP3 MUL SWAP1 POP PUSH1 0x20 DUP2 ADD SWAP1 POP SWAP2 SWAP1 POP JUMP JUMPDEST PUSH1 0x0 PUSH8 0xFFFFFFFFFFFFFFFF DUP3 GT ISZERO PUSH3 0xE2F JUMPI PUSH3 0xE2E PUSH3 0xFBB JUMP JUMPDEST JUMPDEST PUSH3 0xE3A DUP3 PUSH3 0x100D JUMP JUMPDEST SWAP1 POP PUSH1 0x20 DUP2 ADD SWAP1 POP SWAP2 SWAP1 POP JUMP JUMPDEST PUSH1 0x0 DUP2 SWAP1 POP PUSH1 0x20 DUP3 ADD SWAP1 POP SWAP2 SWAP1 POP JUMP JUMPDEST PUSH1 0x0 DUP2 MLOAD SWAP1 POP SWAP2 SWAP1 POP JUMP JUMPDEST PUSH1 0x0 DUP2 MLOAD SWAP1 POP SWAP2 SWAP1 POP JUMP JUMPDEST PUSH1 0x0 PUSH1 0x20 DUP3 ADD SWAP1 POP SWAP2 SWAP1 POP JUMP JUMPDEST PUSH1 0x0 DUP3 DUP3 MSTORE PUSH1 0x20 DUP3 ADD SWAP1 POP SWAP3 SWAP2 POP POP JUMP JUMPDEST PUSH1 0x0 DUP3 DUP3 MSTORE PUSH1 0x20 DUP3 ADD SWAP1 POP SWAP3 SWAP2 POP POP JUMP JUMPDEST PUSH1 0x0 DUP3 DUP3 MSTORE PUSH1 0x20 DUP3 ADD SWAP1 POP SWAP3 SWAP2 POP POP JUMP JUMPDEST PUSH1 0x0 PUSH3 0xEBA DUP3 PUSH3 0xECD JUMP JUMPDEST SWAP1 POP SWAP2 SWAP1 POP JUMP JUMPDEST PUSH1 0x0 DUP2 ISZERO ISZERO SWAP1 POP SWAP2 SWAP1 POP JUMP JUMPDEST PUSH1 0x0 PUSH20 0xFFFFFFFFFFFFFFFFFFFFFFFFFFFFFFFFFFFFFFFF DUP3 AND SWAP1 POP SWAP2 SWAP1 POP JUMP JUMPDEST PUSH1 0x0 DUP2 SWAP1 POP SWAP2 SWAP1 POP JUMP JUMPDEST PUSH1 0x0 PUSH1 0xFF DUP3 AND SWAP1 POP SWAP2 SWAP1 POP JUMP JUMPDEST PUSH1 0x0 PUSH3 0xF11 DUP3 PUSH3 0xF18 JUMP JUMPDEST SWAP1 POP SWAP2 SWAP1 POP JUMP JUMPDEST PUSH1 0x0 PUSH3 0xF25 DUP3 PUSH3 0xF2C JUMP JUMPDEST SWAP1 POP SWAP2 SWAP1 POP JUMP JUMPDEST PUSH1 0x0 PUSH3 0xF39 DUP3 PUSH3 0xECD JUMP JUMPDEST SWAP1 POP SWAP2 SWAP1 POP JUMP JUMPDEST DUP3 DUP2 DUP4 CALLDATACOPY PUSH1 0x0 DUP4 DUP4 ADD MSTORE POP POP POP JUMP JUMPDEST PUSH1 0x0 JUMPDEST DUP4 DUP2 LT ISZERO PUSH3 0xF6F JUMPI DUP1 DUP3 ADD MLOAD DUP2 DUP5 ADD MSTORE PUSH1 0x20 DUP2 ADD SWAP1 POP PUSH3 0xF52 JUMP JUMPDEST DUP4 DUP2 GT ISZERO PUSH3 0xF7F JUMPI PUSH1 0x0 DUP5 DUP5 ADD MSTORE JUMPDEST POP POP POP POP JUMP JUMPDEST PUSH3 0xF90 DUP3 PUSH3 0x100D JUMP JUMPDEST DUP2 ADD DUP2 DUP2 LT PUSH8 0xFFFFFFFFFFFFFFFF DUP3 GT OR ISZERO PUSH3 0xFB2 JUMPI PUSH3 0xFB1 PUSH3 0xFBB JUMP JUMPDEST JUMPDEST DUP1 PUSH1 0x40 MSTORE POP POP POP JUMP JUMPDEST PUSH32 0x4E487B7100000000000000000000000000000000000000000000000000000000 PUSH1 0x0 MSTORE PUSH1 0x41 PUSH1 0x4 MSTORE PUSH1 0x24 PUSH1 0x0 REVERT JUMPDEST PUSH1 0x0 DUP1 REVERT JUMPDEST PUSH1 0x0 DUP1 REVERT JUMPDEST PUSH1 0x0 DUP1 REVERT JUMPDEST PUSH1 0x0 DUP1 REVERT JUMPDEST PUSH1 0x0 DUP1 REVERT JUMPDEST PUSH1 0x0 DUP1 REVERT JUMPDEST PUSH1 0x0 DUP1 REVERT JUMPDEST PUSH1 0x0 PUSH1 0x1F NOT PUSH1 0x1F DUP4 ADD AND SWAP1 POP SWAP2 SWAP1 POP JUMP JUMPDEST PUSH32 0x676F6F6473494420616C72656164792065786973747300000000000000000000 PUSH1 0x0 DUP3 ADD MSTORE POP JUMP JUMPDEST PUSH3 0x1052 DUP2 PUSH3 0xEAD JUMP JUMPDEST DUP2 EQ PUSH3 0x105E JUMPI PUSH1 0x0 DUP1 REVERT JUMPDEST POP JUMP JUMPDEST PUSH3 0x106C DUP2 PUSH3 0xEC1 JUMP JUMPDEST DUP2 EQ PUSH3 0x1078 JUMPI PUSH1 0x0 DUP1 REVERT JUMPDEST POP JUMP JUMPDEST PUSH3 0x1086 DUP2 PUSH3 0xEED JUMP JUMPDEST DUP2 EQ PUSH3 0x1092 JUMPI PUSH1 0x0 DUP1 REVERT JUMPDEST POP JUMP JUMPDEST PUSH3 0x10A0 DUP2 PUSH3 0xEF7 JUMP JUMPDEST DUP2 EQ PUSH3 0x10AC JUMPI PUSH1 0x0 DUP1 REVERT JUMPDEST POP JUMP INVALID PUSH1 0x80 PUSH1 0x40 MSTORE CALLVALUE DUP1 ISZERO PUSH3 0x11 JUMPI PUSH1 0x0 DUP1 REVERT JUMPDEST POP PUSH1 0x40 MLOAD PUSH3 0xE91 CODESIZE SUB DUP1 PUSH3 0xE91 DUP4 CODECOPY DUP2 DUP2 ADD PUSH1 0x40 MSTORE DUP2 ADD SWAP1 PUSH3 0x37 SWAP2 SWAP1 PUSH3 0x294 JUMP JUMPDEST DUP1 PUSH1 0x0 DUP2 SWAP1 SSTORE POP PUSH1 0x2 PUSH1 0x40 MLOAD DUP1 PUSH1 0x80 ADD PUSH1 0x40 MSTORE DUP1 ORIGIN PUSH20 0xFFFFFFFFFFFFFFFFFFFFFFFFFFFFFFFFFFFFFFFF AND DUP2 MSTORE PUSH1 0x20 ADD PUSH1 0x0 PUSH1 0xFF AND DUP2 MSTORE PUSH1 0x20 ADD TIMESTAMP DUP2 MSTORE PUSH1 0x20 ADD PUSH1 0x40 MLOAD DUP1 PUSH1 0x40 ADD PUSH1 0x40 MSTORE DUP1 PUSH1 0x6 DUP2 MSTORE PUSH1 0x20 ADD PUSH32 0x6372656174650000000000000000000000000000000000000000000000000000 DUP2 MSTORE POP DUP2 MSTORE POP SWAP1 DUP1 PUSH1 0x1 DUP2 SLOAD ADD DUP1 DUP3 SSTORE DUP1 SWAP2 POP POP PUSH1 0x1 SWAP1 SUB SWAP1 PUSH1 0x0 MSTORE PUSH1 0x20 PUSH1 0x0 KECCAK256 SWAP1 PUSH1 0x3 MUL ADD PUSH1 0x0 SWAP1 SWAP2 SWAP1 SWAP2 SWAP1 SWAP2 POP PUSH1 0x0 DUP3 ADD MLOAD DUP2 PUSH1 0x0 ADD PUSH1 0x0 PUSH2 0x100 EXP DUP2 SLOAD DUP2 PUSH20 0xFFFFFFFFFFFFFFFFFFFFFFFFFFFFFFFFFFFFFFFF MUL NOT AND SWAP1 DUP4 PUSH20 0xFFFFFFFFFFFFFFFFFFFFFFFFFFFFFFFFFFFFFFFF AND MUL OR SWAP1 SSTORE POP PUSH1 0x20 DUP3 ADD MLOAD DUP2 PUSH1 0x0 ADD PUSH1 0x14 PUSH2 0x100 EXP DUP2 SLOAD DUP2 PUSH1 0xFF MUL NOT AND SWAP1 DUP4 PUSH1 0xFF AND MUL OR SWAP1 SSTORE POP PUSH1 0x40 DUP3 ADD MLOAD DUP2 PUSH1 0x1 ADD SSTORE PUSH1 0x60 DUP3 ADD MLOAD DUP2 PUSH1 0x2 ADD SWAP1 DUP1 MLOAD SWAP1 PUSH1 0x20 ADD SWAP1 PUSH3 0x169 SWAP3 SWAP2 SWAP1 PUSH3 0x1CD JUMP JUMPDEST POP POP POP PUSH1 0x0 PUSH1 0x1 PUSH1 0x0 PUSH2 0x100 EXP DUP2 SLOAD DUP2 PUSH1 0xFF MUL NOT AND SWAP1 DUP4 PUSH1 0xFF AND MUL OR SWAP1 SSTORE POP PUSH32 0x38930409E72D179A853C881163FCEE8ED63D42EC95EE4599FC17E0421E1303D8 ORIGIN PUSH1 0x0 TIMESTAMP PUSH1 0x40 MLOAD PUSH3 0x1BE SWAP4 SWAP3 SWAP2 SWAP1 PUSH3 0x320 JUMP JUMPDEST PUSH1 0x40 MLOAD DUP1 SWAP2 SUB SWAP1 LOG1 POP PUSH3 0x47B JUMP JUMPDEST DUP3 DUP1 SLOAD PUSH3 0x1DB SWAP1 PUSH3 0x3CE JUMP JUMPDEST SWAP1 PUSH1 0x0 MSTORE PUSH1 0x20 PUSH1 0x0 KECCAK256 SWAP1 PUSH1 0x1F ADD PUSH1 0x20 SWAP1 DIV DUP2 ADD SWAP3 DUP3 PUSH3 0x1FF JUMPI PUSH1 0x0 DUP6 SSTORE PUSH3 0x24B JUMP JUMPDEST DUP3 PUSH1 0x1F LT PUSH3 0x21A JUMPI DUP1 MLOAD PUSH1 0xFF NOT AND DUP4 DUP1 ADD OR DUP6 SSTORE PUSH3 0x24B JUMP JUMPDEST DUP3 DUP1 ADD PUSH1 0x1 ADD DUP6 SSTORE DUP3 ISZERO PUSH3 0x24B JUMPI SWAP2 DUP3 ADD JUMPDEST DUP3 DUP2 GT ISZERO PUSH3 0x24A JUMPI DUP3 MLOAD DUP3 SSTORE SWAP2 PUSH1 0x20 ADD SWAP2 SWAP1 PUSH1 0x1 ADD SWAP1 PUSH3 0x22D JUMP JUMPDEST JUMPDEST POP SWAP1 POP PUSH3 0x25A SWAP2 SWAP1 PUSH3 0x25E JUMP JUMPDEST POP SWAP1 JUMP JUMPDEST JUMPDEST DUP1 DUP3 GT ISZERO PUSH3 0x279 JUMPI PUSH1 0x0 DUP2 PUSH1 0x0 SWAP1 SSTORE POP PUSH1 0x1 ADD PUSH3 0x25F JUMP JUMPDEST POP SWAP1 JUMP JUMPDEST PUSH1 0x0 DUP2 MLOAD SWAP1 POP PUSH3 0x28E DUP2 PUSH3 0x461 JUMP JUMPDEST SWAP3 SWAP2 POP POP JUMP JUMPDEST PUSH1 0x0 PUSH1 0x20 DUP3 DUP5 SUB SLT ISZERO PUSH3 0x2AD JUMPI PUSH3 0x2AC PUSH3 0x433 JUMP JUMPDEST JUMPDEST PUSH1 0x0 PUSH3 0x2BD DUP5 DUP3 DUP6 ADD PUSH3 0x27D JUMP JUMPDEST SWAP2 POP POP SWAP3 SWAP2 POP POP JUMP JUMPDEST PUSH3 0x2D1 DUP2 PUSH3 0x383 JUMP JUMPDEST DUP3 MSTORE POP POP JUMP JUMPDEST PUSH1 0x0 PUSH3 0x2E6 PUSH1 0x6 DUP4 PUSH3 0x372 JUMP JUMPDEST SWAP2 POP PUSH3 0x2F3 DUP3 PUSH3 0x438 JUMP JUMPDEST PUSH1 0x20 DUP3 ADD SWAP1 POP SWAP2 SWAP1 POP JUMP JUMPDEST PUSH3 0x309 DUP2 PUSH3 0x3B7 JUMP JUMPDEST DUP3 MSTORE POP POP JUMP JUMPDEST PUSH3 0x31A DUP2 PUSH3 0x3C1 JUMP JUMPDEST DUP3 MSTORE POP POP JUMP JUMPDEST PUSH1 0x0 PUSH1 0x80 DUP3 ADD SWAP1 POP PUSH3 0x337 PUSH1 0x0 DUP4 ADD DUP7 PUSH3 0x2C6 JUMP JUMPDEST PUSH3 0x346 PUSH1 0x20 DUP4 ADD DUP6 PUSH3 0x30F JUMP JUMPDEST PUSH3 0x355 PUSH1 0x40 DUP4 ADD DUP5 PUSH3 0x2FE JUMP JUMPDEST DUP2 DUP2 SUB PUSH1 0x60 DUP4 ADD MSTORE PUSH3 0x368 DUP2 PUSH3 0x2D7 JUMP JUMPDEST SWAP1 POP SWAP5 SWAP4 POP POP POP POP JUMP JUMPDEST PUSH1 0x0 DUP3 DUP3 MSTORE PUSH1 0x20 DUP3 ADD SWAP1 POP SWAP3 SWAP2 POP POP JUMP JUMPDEST PUSH1 0x0 PUSH3 0x390 DUP3 PUSH3 0x397 JUMP JUMPDEST SWAP1 POP SWAP2 SWAP1 POP JUMP JUMPDEST PUSH1 0x0 PUSH20 0xFFFFFFFFFFFFFFFFFFFFFFFFFFFFFFFFFFFFFFFF DUP3 AND SWAP1 POP SWAP2 SWAP1 POP JUMP JUMPDEST PUSH1 0x0 DUP2 SWAP1 POP SWAP2 SWAP1 POP JUMP JUMPDEST PUSH1 0x0 PUSH1 0xFF DUP3 AND SWAP1 POP SWAP2 SWAP1 POP JUMP JUMPDEST PUSH1 0x0 PUSH1 0x2 DUP3 DIV SWAP1 POP PUSH1 0x1 DUP3 AND DUP1 PUSH3 0x3E7 JUMPI PUSH1 0x7F DUP3 AND SWAP2 POP JUMPDEST PUSH1 0x20 DUP3 LT DUP2 EQ ISZERO PUSH3 0x3FE JUMPI PUSH3 0x3FD PUSH3 0x404 JUMP JUMPDEST JUMPDEST POP SWAP2 SWAP1 POP JUMP JUMPDEST PUSH32 0x4E487B7100000000000000000000000000000000000000000000000000000000 PUSH1 0x0 MSTORE PUSH1 0x22 PUSH1 0x4 MSTORE PUSH1 0x24 PUSH1 0x0 REVERT JUMPDEST PUSH1 0x0 DUP1 REVERT JUMPDEST PUSH32 0x6372656174650000000000000000000000000000000000000000000000000000 PUSH1 0x0 DUP3 ADD MSTORE POP JUMP JUMPDEST PUSH3 0x46C DUP2 PUSH3 0x3B7 JUMP JUMPDEST DUP2 EQ PUSH3 0x478 JUMPI PUSH1 0x0 DUP1 REVERT JUMPDEST POP JUMP JUMPDEST PUSH2 0xA06 DUP1 PUSH3 0x48B PUSH1 0x0 CODECOPY PUSH1 0x0 RETURN INVALID PUSH1 0x80 PUSH1 0x40 MSTORE CALLVALUE DUP1 ISZERO PUSH2 0x10 JUMPI PUSH1 0x0 DUP1 REVERT JUMPDEST POP PUSH1 0x4 CALLDATASIZE LT PUSH2 0x41 JUMPI PUSH1 0x0 CALLDATALOAD PUSH1 0xE0 SHR DUP1 PUSH4 0x173D773D EQ PUSH2 0x46 JUMPI DUP1 PUSH4 0x4E69D560 EQ PUSH2 0x76 JUMPI DUP1 PUSH4 0xF0D984E4 EQ PUSH2 0x94 JUMPI JUMPDEST PUSH1 0x0 DUP1 REVERT JUMPDEST PUSH2 0x60 PUSH1 0x4 DUP1 CALLDATASIZE SUB DUP2 ADD SWAP1 PUSH2 0x5B SWAP2 SWAP1 PUSH2 0x4B9 JUMP JUMPDEST PUSH2 0xB2 JUMP JUMPDEST PUSH1 0x40 MLOAD PUSH2 0x6D SWAP2 SWAP1 PUSH2 0x74A JUMP JUMPDEST PUSH1 0x40 MLOAD DUP1 SWAP2 SUB SWAP1 RETURN JUMPDEST PUSH2 0x7E PUSH2 0x20C JUMP JUMPDEST PUSH1 0x40 MLOAD PUSH2 0x8B SWAP2 SWAP1 PUSH2 0x765 JUMP JUMPDEST PUSH1 0x40 MLOAD DUP1 SWAP2 SUB SWAP1 RETURN JUMPDEST PUSH2 0x9C PUSH2 0x223 JUMP JUMPDEST PUSH1 0x40 MLOAD PUSH2 0xA9 SWAP2 SWAP1 PUSH2 0x728 JUMP JUMPDEST PUSH1 0x40 MLOAD DUP1 SWAP2 SUB SWAP1 RETURN JUMPDEST PUSH1 0x0 DUP3 PUSH1 0x1 PUSH1 0x0 PUSH2 0x100 EXP DUP2 SLOAD DUP2 PUSH1 0xFF MUL NOT AND SWAP1 DUP4 PUSH1 0xFF AND MUL OR SWAP1 SSTORE POP PUSH1 0x2 PUSH1 0x40 MLOAD DUP1 PUSH1 0x80 ADD PUSH1 0x40 MSTORE DUP1 ORIGIN PUSH20 0xFFFFFFFFFFFFFFFFFFFFFFFFFFFFFFFFFFFFFFFF AND DUP2 MSTORE PUSH1 0x20 ADD DUP6 PUSH1 0xFF AND DUP2 MSTORE PUSH1 0x20 ADD TIMESTAMP DUP2 MSTORE PUSH1 0x20 ADD DUP5 DUP2 MSTORE POP SWAP1 DUP1 PUSH1 0x1 DUP2 SLOAD ADD DUP1 DUP3 SSTORE DUP1 SWAP2 POP POP PUSH1 0x1 SWAP1 SUB SWAP1 PUSH1 0x0 MSTORE PUSH1 0x20 PUSH1 0x0 KECCAK256 SWAP1 PUSH1 0x3 MUL ADD PUSH1 0x0 SWAP1 SWAP2 SWAP1 SWAP2 SWAP1 SWAP2 POP PUSH1 0x0 DUP3 ADD MLOAD DUP2 PUSH1 0x0 ADD PUSH1 0x0 PUSH2 0x100 EXP DUP2 SLOAD DUP2 PUSH20 0xFFFFFFFFFFFFFFFFFFFFFFFFFFFFFFFFFFFFFFFF MUL NOT AND SWAP1 DUP4 PUSH20 0xFFFFFFFFFFFFFFFFFFFFFFFFFFFFFFFFFFFFFFFF AND MUL OR SWAP1 SSTORE POP PUSH1 0x20 DUP3 ADD MLOAD DUP2 PUSH1 0x0 ADD PUSH1 0x14 PUSH2 0x100 EXP DUP2 SLOAD DUP2 PUSH1 0xFF MUL NOT AND SWAP1 DUP4 PUSH1 0xFF AND MUL OR SWAP1 SSTORE POP PUSH1 0x40 DUP3 ADD MLOAD DUP2 PUSH1 0x1 ADD SSTORE PUSH1 0x60 DUP3 ADD MLOAD DUP2 PUSH1 0x2 ADD SWAP1 DUP1 MLOAD SWAP1 PUSH1 0x20 ADD SWAP1 PUSH2 0x1C2 SWAP3 SWAP2 SWAP1 PUSH2 0x391 JUMP JUMPDEST POP POP POP PUSH32 0x38930409E72D179A853C881163FCEE8ED63D42EC95EE4599FC17E0421E1303D8 ORIGIN DUP5 TIMESTAMP DUP6 PUSH1 0x40 MLOAD PUSH2 0x1FA SWAP5 SWAP4 SWAP3 SWAP2 SWAP1 PUSH2 0x6DC JUMP JUMPDEST PUSH1 0x40 MLOAD DUP1 SWAP2 SUB SWAP1 LOG1 PUSH1 0x1 SWAP1 POP SWAP3 SWAP2 POP POP JUMP JUMPDEST PUSH1 0x0 PUSH1 0x1 PUSH1 0x0 SWAP1 SLOAD SWAP1 PUSH2 0x100 EXP SWAP1 DIV PUSH1 0xFF AND SWAP1 POP SWAP1 JUMP JUMPDEST PUSH1 0x60 PUSH1 0x2 DUP1 SLOAD DUP1 PUSH1 0x20 MUL PUSH1 0x20 ADD PUSH1 0x40 MLOAD SWAP1 DUP2 ADD PUSH1 0x40 MSTORE DUP1 SWAP3 SWAP2 SWAP1 DUP2 DUP2 MSTORE PUSH1 0x20 ADD PUSH1 0x0 SWAP1 JUMPDEST DUP3 DUP3 LT ISZERO PUSH2 0x388 JUMPI DUP4 DUP3 SWAP1 PUSH1 0x0 MSTORE PUSH1 0x20 PUSH1 0x0 KECCAK256 SWAP1 PUSH1 0x3 MUL ADD PUSH1 0x40 MLOAD DUP1 PUSH1 0x80 ADD PUSH1 0x40 MSTORE SWAP1 DUP2 PUSH1 0x0 DUP3 ADD PUSH1 0x0 SWAP1 SLOAD SWAP1 PUSH2 0x100 EXP SWAP1 DIV PUSH20 0xFFFFFFFFFFFFFFFFFFFFFFFFFFFFFFFFFFFFFFFF AND PUSH20 0xFFFFFFFFFFFFFFFFFFFFFFFFFFFFFFFFFFFFFFFF AND PUSH20 0xFFFFFFFFFFFFFFFFFFFFFFFFFFFFFFFFFFFFFFFF AND DUP2 MSTORE PUSH1 0x20 ADD PUSH1 0x0 DUP3 ADD PUSH1 0x14 SWAP1 SLOAD SWAP1 PUSH2 0x100 EXP SWAP1 DIV PUSH1 0xFF AND PUSH1 0xFF AND PUSH1 0xFF AND DUP2 MSTORE PUSH1 0x20 ADD PUSH1 0x1 DUP3 ADD SLOAD DUP2 MSTORE PUSH1 0x20 ADD PUSH1 0x2 DUP3 ADD DUP1 SLOAD PUSH2 0x2F7 SWAP1 PUSH2 0x8D3 JUMP JUMPDEST DUP1 PUSH1 0x1F ADD PUSH1 0x20 DUP1 SWAP2 DIV MUL PUSH1 0x20 ADD PUSH1 0x40 MLOAD SWAP1 DUP2 ADD PUSH1 0x40 MSTORE DUP1 SWAP3 SWAP2 SWAP1 DUP2 DUP2 MSTORE PUSH1 0x20 ADD DUP3 DUP1 SLOAD PUSH2 0x323 SWAP1 PUSH2 0x8D3 JUMP JUMPDEST DUP1 ISZERO PUSH2 0x370 JUMPI DUP1 PUSH1 0x1F LT PUSH2 0x345 JUMPI PUSH2 0x100 DUP1 DUP4 SLOAD DIV MUL DUP4 MSTORE SWAP2 PUSH1 0x20 ADD SWAP2 PUSH2 0x370 JUMP JUMPDEST DUP3 ADD SWAP2 SWAP1 PUSH1 0x0 MSTORE PUSH1 0x20 PUSH1 0x0 KECCAK256 SWAP1 JUMPDEST DUP2 SLOAD DUP2 MSTORE SWAP1 PUSH1 0x1 ADD SWAP1 PUSH1 0x20 ADD DUP1 DUP4 GT PUSH2 0x353 JUMPI DUP3 SWAP1 SUB PUSH1 0x1F AND DUP3 ADD SWAP2 JUMPDEST POP POP POP POP POP DUP2 MSTORE POP POP DUP2 MSTORE PUSH1 0x20 ADD SWAP1 PUSH1 0x1 ADD SWAP1 PUSH2 0x247 JUMP JUMPDEST POP POP POP POP SWAP1 POP SWAP1 JUMP JUMPDEST DUP3 DUP1 SLOAD PUSH2 0x39D SWAP1 PUSH2 0x8D3 JUMP JUMPDEST SWAP1 PUSH1 0x0 MSTORE PUSH1 0x20 PUSH1 0x0 KECCAK256 SWAP1 PUSH1 0x1F ADD PUSH1 0x20 SWAP1 DIV DUP2 ADD SWAP3 DUP3 PUSH2 0x3BF JUMPI PUSH1 0x0 DUP6 SSTORE PUSH2 0x406 JUMP JUMPDEST DUP3 PUSH1 0x1F LT PUSH2 0x3D8 JUMPI DUP1 MLOAD PUSH1 0xFF NOT AND DUP4 DUP1 ADD OR DUP6 SSTORE PUSH2 0x406 JUMP JUMPDEST DUP3 DUP1 ADD PUSH1 0x1 ADD DUP6 SSTORE DUP3 ISZERO PUSH2 0x406 JUMPI SWAP2 DUP3 ADD JUMPDEST DUP3 DUP2 GT ISZERO PUSH2 0x405 JUMPI DUP3 MLOAD DUP3 SSTORE SWAP2 PUSH1 0x20 ADD SWAP2 SWAP1 PUSH1 0x1 ADD SWAP1 PUSH2 0x3EA JUMP JUMPDEST JUMPDEST POP SWAP1 POP PUSH2 0x413 SWAP2 SWAP1 PUSH2 0x417 JUMP JUMPDEST POP SWAP1 JUMP JUMPDEST JUMPDEST DUP1 DUP3 GT ISZERO PUSH2 0x430 JUMPI PUSH1 0x0 DUP2 PUSH1 0x0 SWAP1 SSTORE POP PUSH1 0x1 ADD PUSH2 0x418 JUMP JUMPDEST POP SWAP1 JUMP JUMPDEST PUSH1 0x0 PUSH2 0x447 PUSH2 0x442 DUP5 PUSH2 0x7A5 JUMP JUMPDEST PUSH2 0x780 JUMP JUMPDEST SWAP1 POP DUP3 DUP2 MSTORE PUSH1 0x20 DUP2 ADD DUP5 DUP5 DUP5 ADD GT ISZERO PUSH2 0x463 JUMPI PUSH2 0x462 PUSH2 0x999 JUMP JUMPDEST JUMPDEST PUSH2 0x46E DUP5 DUP3 DUP6 PUSH2 0x891 JUMP JUMPDEST POP SWAP4 SWAP3 POP POP POP JUMP JUMPDEST PUSH1 0x0 DUP3 PUSH1 0x1F DUP4 ADD SLT PUSH2 0x48B JUMPI PUSH2 0x48A PUSH2 0x994 JUMP JUMPDEST JUMPDEST DUP2 CALLDATALOAD PUSH2 0x49B DUP5 DUP3 PUSH1 0x20 DUP7 ADD PUSH2 0x434 JUMP JUMPDEST SWAP2 POP POP SWAP3 SWAP2 POP POP JUMP JUMPDEST PUSH1 0x0 DUP2 CALLDATALOAD SWAP1 POP PUSH2 0x4B3 DUP2 PUSH2 0x9B9 JUMP JUMPDEST SWAP3 SWAP2 POP POP JUMP JUMPDEST PUSH1 0x0 DUP1 PUSH1 0x40 DUP4 DUP6 SUB SLT ISZERO PUSH2 0x4D0 JUMPI PUSH2 0x4CF PUSH2 0x9A3 JUMP JUMPDEST JUMPDEST PUSH1 0x0 PUSH2 0x4DE DUP6 DUP3 DUP7 ADD PUSH2 0x4A4 JUMP JUMPDEST SWAP3 POP POP PUSH1 0x20 DUP4 ADD CALLDATALOAD PUSH8 0xFFFFFFFFFFFFFFFF DUP2 GT ISZERO PUSH2 0x4FF JUMPI PUSH2 0x4FE PUSH2 0x99E JUMP JUMPDEST JUMPDEST PUSH2 0x50B DUP6 DUP3 DUP7 ADD PUSH2 0x476 JUMP JUMPDEST SWAP2 POP POP SWAP3 POP SWAP3 SWAP1 POP JUMP JUMPDEST PUSH1 0x0 PUSH2 0x521 DUP4 DUP4 PUSH2 0x63D JUMP JUMPDEST SWAP1 POP SWAP3 SWAP2 POP POP JUMP JUMPDEST PUSH2 0x532 DUP2 PUSH2 0x83C JUMP JUMPDEST DUP3 MSTORE POP POP JUMP JUMPDEST PUSH2 0x541 DUP2 PUSH2 0x83C JUMP JUMPDEST DUP3 MSTORE POP POP JUMP JUMPDEST PUSH1 0x0 PUSH2 0x552 DUP3 PUSH2 0x7E6 JUMP JUMPDEST PUSH2 0x55C DUP2 DUP6 PUSH2 0x809 JUMP JUMPDEST SWAP4 POP DUP4 PUSH1 0x20 DUP3 MUL DUP6 ADD PUSH2 0x56E DUP6 PUSH2 0x7D6 JUMP JUMPDEST DUP1 PUSH1 0x0 JUMPDEST DUP6 DUP2 LT ISZERO PUSH2 0x5AA JUMPI DUP5 DUP5 SUB DUP10 MSTORE DUP2 MLOAD PUSH2 0x58B DUP6 DUP3 PUSH2 0x515 JUMP JUMPDEST SWAP5 POP PUSH2 0x596 DUP4 PUSH2 0x7FC JUMP JUMPDEST SWAP3 POP PUSH1 0x20 DUP11 ADD SWAP10 POP POP PUSH1 0x1 DUP2 ADD SWAP1 POP PUSH2 0x572 JUMP JUMPDEST POP DUP3 SWAP8 POP DUP8 SWAP6 POP POP POP POP POP POP SWAP3 SWAP2 POP POP JUMP JUMPDEST PUSH2 0x5C5 DUP2 PUSH2 0x84E JUMP JUMPDEST DUP3 MSTORE POP POP JUMP JUMPDEST PUSH1 0x0 PUSH2 0x5D6 DUP3 PUSH2 0x7F1 JUMP JUMPDEST PUSH2 0x5E0 DUP2 DUP6 PUSH2 0x81A JUMP JUMPDEST SWAP4 POP PUSH2 0x5F0 DUP2 DUP6 PUSH1 0x20 DUP7 ADD PUSH2 0x8A0 JUMP JUMPDEST PUSH2 0x5F9 DUP2 PUSH2 0x9A8 JUMP JUMPDEST DUP5 ADD SWAP2 POP POP SWAP3 SWAP2 POP POP JUMP JUMPDEST PUSH1 0x0 PUSH2 0x60F DUP3 PUSH2 0x7F1 JUMP JUMPDEST PUSH2 0x619 DUP2 DUP6 PUSH2 0x82B JUMP JUMPDEST SWAP4 POP PUSH2 0x629 DUP2 DUP6 PUSH1 0x20 DUP7 ADD PUSH2 0x8A0 JUMP JUMPDEST PUSH2 0x632 DUP2 PUSH2 0x9A8 JUMP JUMPDEST DUP5 ADD SWAP2 POP POP SWAP3 SWAP2 POP POP JUMP JUMPDEST PUSH1 0x0 PUSH1 0x80 DUP4 ADD PUSH1 0x0 DUP4 ADD MLOAD PUSH2 0x655 PUSH1 0x0 DUP7 ADD DUP3 PUSH2 0x529 JUMP JUMPDEST POP PUSH1 0x20 DUP4 ADD MLOAD PUSH2 0x668 PUSH1 0x20 DUP7 ADD DUP3 PUSH2 0x6BE JUMP JUMPDEST POP PUSH1 0x40 DUP4 ADD MLOAD PUSH2 0x67B PUSH1 0x40 DUP7 ADD DUP3 PUSH2 0x6A0 JUMP JUMPDEST POP PUSH1 0x60 DUP4 ADD MLOAD DUP5 DUP3 SUB PUSH1 0x60 DUP7 ADD MSTORE PUSH2 0x693 DUP3 DUP3 PUSH2 0x5CB JUMP JUMPDEST SWAP2 POP POP DUP1 SWAP2 POP POP SWAP3 SWAP2 POP POP JUMP JUMPDEST PUSH2 0x6A9 DUP2 PUSH2 0x87A JUMP JUMPDEST DUP3 MSTORE POP POP JUMP JUMPDEST PUSH2 0x6B8 DUP2 PUSH2 0x87A JUMP JUMPDEST DUP3 MSTORE POP POP JUMP JUMPDEST PUSH2 0x6C7 DUP2 PUSH2 0x884 JUMP JUMPDEST DUP3 MSTORE POP POP JUMP JUMPDEST PUSH2 0x6D6 DUP2 PUSH2 0x884 JUMP JUMPDEST DUP3 MSTORE POP POP JUMP JUMPDEST PUSH1 0x0 PUSH1 0x80 DUP3 ADD SWAP1 POP PUSH2 0x6F1 PUSH1 0x0 DUP4 ADD DUP8 PUSH2 0x538 JUMP JUMPDEST PUSH2 0x6FE PUSH1 0x20 DUP4 ADD DUP7 PUSH2 0x6CD JUMP JUMPDEST PUSH2 0x70B PUSH1 0x40 DUP4 ADD DUP6 PUSH2 0x6AF JUMP JUMPDEST DUP2 DUP2 SUB PUSH1 0x60 DUP4 ADD MSTORE PUSH2 0x71D DUP2 DUP5 PUSH2 0x604 JUMP JUMPDEST SWAP1 POP SWAP6 SWAP5 POP POP POP POP POP JUMP JUMPDEST PUSH1 0x0 PUSH1 0x20 DUP3 ADD SWAP1 POP DUP2 DUP2 SUB PUSH1 0x0 DUP4 ADD MSTORE PUSH2 0x742 DUP2 DUP5 PUSH2 0x547 JUMP JUMPDEST SWAP1 POP SWAP3 SWAP2 POP POP JUMP JUMPDEST PUSH1 0x0 PUSH1 0x20 DUP3 ADD SWAP1 POP PUSH2 0x75F PUSH1 0x0 DUP4 ADD DUP5 PUSH2 0x5BC JUMP JUMPDEST SWAP3 SWAP2 POP POP JUMP JUMPDEST PUSH1 0x0 PUSH1 0x20 DUP3 ADD SWAP1 POP PUSH2 0x77A PUSH1 0x0 DUP4 ADD DUP5 PUSH2 0x6CD JUMP JUMPDEST SWAP3 SWAP2 POP POP JUMP JUMPDEST PUSH1 0x0 PUSH2 0x78A PUSH2 0x79B JUMP JUMPDEST SWAP1 POP PUSH2 0x796 DUP3 DUP3 PUSH2 0x905 JUMP JUMPDEST SWAP2 SWAP1 POP JUMP JUMPDEST PUSH1 0x0 PUSH1 0x40 MLOAD SWAP1 POP SWAP1 JUMP JUMPDEST PUSH1 0x0 PUSH8 0xFFFFFFFFFFFFFFFF DUP3 GT ISZERO PUSH2 0x7C0 JUMPI PUSH2 0x7BF PUSH2 0x965 JUMP JUMPDEST JUMPDEST PUSH2 0x7C9 DUP3 PUSH2 0x9A8 JUMP JUMPDEST SWAP1 POP PUSH1 0x20 DUP2 ADD SWAP1 POP SWAP2 SWAP1 POP JUMP JUMPDEST PUSH1 0x0 DUP2 SWAP1 POP PUSH1 0x20 DUP3 ADD SWAP1 POP SWAP2 SWAP1 POP JUMP JUMPDEST PUSH1 0x0 DUP2 MLOAD SWAP1 POP SWAP2 SWAP1 POP JUMP JUMPDEST PUSH1 0x0 DUP2 MLOAD SWAP1 POP SWAP2 SWAP1 POP JUMP JUMPDEST PUSH1 0x0 PUSH1 0x20 DUP3 ADD SWAP1 POP SWAP2 SWAP1 POP JUMP JUMPDEST PUSH1 0x0 DUP3 DUP3 MSTORE PUSH1 0x20 DUP3 ADD SWAP1 POP SWAP3 SWAP2 POP POP JUMP JUMPDEST PUSH1 0x0 DUP3 DUP3 MSTORE PUSH1 0x20 DUP3 ADD SWAP1 POP SWAP3 SWAP2 POP POP JUMP JUMPDEST PUSH1 0x0 DUP3 DUP3 MSTORE PUSH1 0x20 DUP3 ADD SWAP1 POP SWAP3 SWAP2 POP POP JUMP JUMPDEST PUSH1 0x0 PUSH2 0x847 DUP3 PUSH2 0x85A JUMP JUMPDEST SWAP1 POP SWAP2 SWAP1 POP JUMP JUMPDEST PUSH1 0x0 DUP2 ISZERO ISZERO SWAP1 POP SWAP2 SWAP1 POP JUMP JUMPDEST PUSH1 0x0 PUSH20 0xFFFFFFFFFFFFFFFFFFFFFFFFFFFFFFFFFFFFFFFF DUP3 AND SWAP1 POP SWAP2 SWAP1 POP JUMP JUMPDEST PUSH1 0x0 DUP2 SWAP1 POP SWAP2 SWAP1 POP JUMP JUMPDEST PUSH1 0x0 PUSH1 0xFF DUP3 AND SWAP1 POP SWAP2 SWAP1 POP JUMP JUMPDEST DUP3 DUP2 DUP4 CALLDATACOPY PUSH1 0x0 DUP4 DUP4 ADD MSTORE POP POP POP JUMP JUMPDEST PUSH1 0x0 JUMPDEST DUP4 DUP2 LT ISZERO PUSH2 0x8BE JUMPI DUP1 DUP3 ADD MLOAD DUP2 DUP5 ADD MSTORE PUSH1 0x20 DUP2 ADD SWAP1 POP PUSH2 0x8A3 JUMP JUMPDEST DUP4 DUP2 GT ISZERO PUSH2 0x8CD JUMPI PUSH1 0x0 DUP5 DUP5 ADD MSTORE JUMPDEST POP POP POP POP JUMP JUMPDEST PUSH1 0x0 PUSH1 0x2 DUP3 DIV SWAP1 POP PUSH1 0x1 DUP3 AND DUP1 PUSH2 0x8EB JUMPI PUSH1 0x7F DUP3 AND SWAP2 POP JUMPDEST PUSH1 0x20 DUP3 LT DUP2 EQ ISZERO PUSH2 0x8FF JUMPI PUSH2 0x8FE PUSH2 0x936 JUMP JUMPDEST JUMPDEST POP SWAP2 SWAP1 POP JUMP JUMPDEST PUSH2 0x90E DUP3 PUSH2 0x9A8 JUMP JUMPDEST DUP2 ADD DUP2 DUP2 LT PUSH8 0xFFFFFFFFFFFFFFFF DUP3 GT OR ISZERO PUSH2 0x92D JUMPI PUSH2 0x92C PUSH2 0x965 JUMP JUMPDEST JUMPDEST DUP1 PUSH1 0x40 MSTORE POP POP POP JUMP JUMPDEST PUSH32 0x4E487B7100000000000000000000000000000000000000000000000000000000 PUSH1 0x0 MSTORE PUSH1 0x22 PUSH1 0x4 MSTORE PUSH1 0x24 PUSH1 0x0 REVERT JUMPDEST PUSH32 0x4E487B7100000000000000000000000000000000000000000000000000000000 PUSH1 0x0 MSTORE PUSH1 0x41 PUSH1 0x4 MSTORE PUSH1 0x24 PUSH1 0x0 REVERT JUMPDEST PUSH1 0x0 DUP1 REVERT JUMPDEST PUSH1 0x0 DUP1 REVERT JUMPDEST PUSH1 0x0 DUP1 REVERT JUMPDEST PUSH1 0x0 DUP1 REVERT JUMPDEST PUSH1 0x0 PUSH1 0x1F NOT PUSH1 0x1F DUP4 ADD AND SWAP1 POP SWAP2 SWAP1 POP JUMP JUMPDEST PUSH2 0x9C2 DUP2 PUSH2 0x884 JUMP JUMPDEST DUP2 EQ PUSH2 0x9CD JUMPI PUSH1 0x0 DUP1 REVERT JUMPDEST POP JUMP INVALID LOG2 PUSH5 0x6970667358 0x22 SLT KECCAK256 DUP10 0x2E 0xE9 0xDC 0xB3 PUSH8 0x667990A6BB7A8625 0xD2 0xD1 PUSH25 0x98DA35CB4B1B553454A1E337E0D69E64736F6C634300080700 CALLER LOG2 PUSH5 0x6970667358 0x22 SLT KECCAK256 SWAP4 0x21 SWAP9 EQ 0xC8 MLOAD PUSH22 0x16260BF7E5D863D718CEEF786A111F32C9B4791FE2D2 MSIZE 0xEA 0x2C PUSH5 0x736F6C6343 STOP ADDMOD SMOD STOP CALLER LOG2 PUSH5 0x6970667358 0x22 SLT KECCAK256 SSTORE EXP 0xF9 0xD8 0xC9 0xC7 SWAP2 JUMPI PUSH20 0x3117B111D6006C280019DCB47519E2BC1BAB42C6 PUSH25 0xD39164736F6C63430008070033000000000000000000000000 "
		},
		"gasEstimates": {
			"creation": {
				"codeDepositCost": "2645000",
				"executionCost": "2869",
				"totalCost": "2647869"
			},
			"external": {
				"calCategory(string)": "infinite",
				"changeStatus(bytes32,uint256,uint8,string)": "infinite",
				"getCategory(bytes32)": "2957",
				"getStatus(bytes32,uint256)": "infinite",
				"getTraceInfo(bytes32,uint256)": "infinite",
				"newCategory(bytes32)": "infinite",
				"newGoods(bytes32,uint256)": "infinite"
			}
		},
		"methodIdentifiers": {
			"calCategory(string)": "4ec6b62b",
			"changeStatus(bytes32,uint256,uint8,string)": "4430e658",
			"getCategory(bytes32)": "473b084c",
			"getStatus(bytes32,uint256)": "a55f9927",
			"getTraceInfo(bytes32,uint256)": "462a1fad",
			"newCategory(bytes32)": "38f9fb94",
			"newGoods(bytes32,uint256)": "f5610d82"
		}
	},
	"abi": [
		{
			"anonymous": false,
			"inputs": [
				{
					"indexed": false,
					"internalType": "address",
					"name": "_operator",
					"type": "address"
				},
				{
					"indexed": false,
					"internalType": "bytes32",
					"name": "_category",
					"type": "bytes32"
				}
			],
			"name": "NewCateGory",
			"type": "event"
		},
		{
			"inputs": [
				{
					"internalType": "string",
					"name": "_name",
					"type": "string"
				}
			],
			"name": "calCategory",
			"outputs": [
				{
					"internalType": "bytes32",
					"name": "",
					"type": "bytes32"
				}
			],
			"stateMutability": "pure",
			"type": "function"
		},
		{
			"inputs": [
				{
					"internalType": "bytes32",
					"name": "_category",
					"type": "bytes32"
				},
				{
					"internalType": "uint256",
					"name": "_goodsID",
					"type": "uint256"
				},
				{
					"internalType": "uint8",
					"name": "_status",
					"type": "uint8"
				},
				{
					"internalType": "string",
					"name": "_remark",
					"type": "string"
				}
			],
			"name": "changeStatus",
			"outputs": [
				{
					"internalType": "bool",
					"name": "",
					"type": "bool"
				}
			],
			"stateMutability": "nonpayable",
			"type": "function"
		},
		{
			"inputs": [
				{
					"internalType": "bytes32",
					"name": "_category",
					"type": "bytes32"
				}
			],
			"name": "getCategory",
			"outputs": [
				{
					"internalType": "contract Category",
					"name": "",
					"type": "address"
				}
			],
			"stateMutability": "view",
			"type": "function"
		},
		{
			"inputs": [
				{
					"internalType": "bytes32",
					"name": "_category",
					"type": "bytes32"
				},
				{
					"internalType": "uint256",
					"name": "_goodsID",
					"type": "uint256"
				}
			],
			"name": "getStatus",
			"outputs": [
				{
					"internalType": "uint8",
					"name": "",
					"type": "uint8"
				}
			],
			"stateMutability": "view",
			"type": "function"
		},
		{
			"inputs": [
				{
					"internalType": "bytes32",
					"name": "_category",
					"type": "bytes32"
				},
				{
					"internalType": "uint256",
					"name": "_goodsID",
					"type": "uint256"
				}
			],
			"name": "getTraceInfo",
			"outputs": [
				{
					"components": [
						{
							"internalType": "address",
							"name": "operator",
							"type": "address"
						},
						{
							"internalType": "uint8",
							"name": "status",
							"type": "uint8"
						},
						{
							"internalType": "uint256",
							"name": "timestamp",
							"type": "uint256"
						},
						{
							"internalType": "string",
							"name": "remark",
							"type": "string"
						}
					],
					"internalType": "struct Goods.TraceData[]",
					"name": "",
					"type": "tuple[]"
				}
			],
			"stateMutability": "view",
			"type": "function"
		},
		{
			"inputs": [
				{
					"internalType": "bytes32",
					"name": "_category",
					"type": "bytes32"
				}
			],
			"name": "newCategory",
			"outputs": [
				{
					"internalType": "contract Category",
					"name": "",
					"type": "address"
				}
			],
			"stateMutability": "nonpayable",
			"type": "function"
		},
		{
			"inputs": [
				{
					"internalType": "bytes32",
					"name": "_category",
					"type": "bytes32"
				},
				{
					"internalType": "uint256",
					"name": "_goodsID",
					"type": "uint256"
				}
			],
			"name": "newGoods",
			"outputs": [
				{
					"internalType": "contract Goods",
					"name": "",
					"type": "address"
				}
			],
			"stateMutability": "nonpayable",
			"type": "function"
		}
	]
}