{
	"marriage/character.sol": {
		"Character": {
			"abi": [
				{
					"inputs": [],
					"stateMutability": "nonpayable",
					"type": "constructor"
				},
				{
					"inputs": [
						{
							"internalType": "address",
							"name": "_person",
							"type": "address"
						},
						{
							"internalType": "string",
							"name": "_summary",
							"type": "string"
						}
					],
					"name": "addCharacter",
					"outputs": [
						{
							"internalType": "bool",
							"name": "",
							"type": "bool"
						}
					],
					"stateMutability": "nonpayable",
					"type": "function"
				},
				{
					"inputs": [
						{
							"internalType": "address",
							"name": "_person",
							"type": "address"
						}
					],
					"name": "isCharacter",
					"outputs": [
						{
							"internalType": "bool",
							"name": "",
							"type": "bool"
						}
					],
					"stateMutability": "view",
					"type": "function"
				},
				{
					"inputs": [
						{
							"internalType": "address",
							"name": "_person",
							"type": "address"
						}
					],
					"name": "removeCharacter",
					"outputs": [
						{
							"internalType": "bool",
							"name": "",
							"type": "bool"
						}
					],
					"stateMutability": "nonpayable",
					"type": "function"
				},
				{
					"inputs": [
						{
							"internalType": "address",
							"name": "_person",
							"type": "address"
						},
						{
							"internalType": "string",
							"name": "_summary",
							"type": "string"
						}
					],
					"name": "resetCharacter",
					"outputs": [
						{
							"internalType": "bool",
							"name": "",
							"type": "bool"
						}
					],
					"stateMutability": "nonpayable",
					"type": "function"
				}
			],
			"devdoc": {
				"kind": "dev",
				"methods": {},
				"version": 1
			},
			"evm": {
				"assembly": "    /* \"marriage/character.sol\":46:1548  contract Character{... */\n  mstore(0x40, 0x80)\n    /* \"marriage/character.sol\":186:234  constructor(){... */\n  callvalue\n  dup1\n  iszero\n  tag_1\n  jumpi\n  0x00\n  dup1\n  revert\ntag_1:\n  pop\n    /* \"marriage/character.sol\":217:227  msg.sender */\n  caller\n    /* \"marriage/character.sol\":209:214  owner */\n  0x03\n  0x00\n    /* \"marriage/character.sol\":209:227  owner = msg.sender */\n  0x0100\n  exp\n  dup2\n  sload\n  dup2\n  0xffffffffffffffffffffffffffffffffffffffff\n  mul\n  not\n  and\n  swap1\n  dup4\n  0xffffffffffffffffffffffffffffffffffffffff\n  and\n  mul\n  or\n  swap1\n  sstore\n  pop\n    /* \"marriage/character.sol\":46:1548  contract Character{... */\n  dataSize(sub_0)\n  dup1\n  dataOffset(sub_0)\n  0x00\n  codecopy\n  0x00\n  return\nstop\n\nsub_0: assembly {\n        /* \"marriage/character.sol\":46:1548  contract Character{... */\n      mstore(0x40, 0x80)\n      callvalue\n      dup1\n      iszero\n      tag_1\n      jumpi\n      0x00\n      dup1\n      revert\n    tag_1:\n      pop\n      jumpi(tag_2, lt(calldatasize, 0x04))\n      shr(0xe0, calldataload(0x00))\n      dup1\n      0x7e496913\n      eq\n      tag_3\n      jumpi\n      dup1\n      0x8ec856db\n      eq\n      tag_4\n      jumpi\n      dup1\n      0xd17ddc0f\n      eq\n      tag_5\n      jumpi\n      dup1\n      0xd3aa4aab\n      eq\n      tag_6\n      jumpi\n    tag_2:\n      0x00\n      dup1\n      revert\n        /* \"marriage/character.sol\":1318:1544  function resetCharacter(address _person,string memory _summary) public onlyOwner returns(bool){... */\n    tag_3:\n      tag_7\n      0x04\n      dup1\n      calldatasize\n      sub\n      dup2\n      add\n      swap1\n      tag_8\n      swap2\n      swap1\n      tag_9\n      jump\t// in\n    tag_8:\n      tag_10\n      jump\t// in\n    tag_7:\n      mload(0x40)\n      tag_11\n      swap2\n      swap1\n      tag_12\n      jump\t// in\n    tag_11:\n      mload(0x40)\n      dup1\n      swap2\n      sub\n      swap1\n      return\n        /* \"marriage/character.sol\":464:722  function addCharacter(address _person,string memory _summary) public onlyOwner returns(bool){... */\n    tag_4:\n      tag_13\n      0x04\n      dup1\n      calldatasize\n      sub\n      dup2\n      add\n      swap1\n      tag_14\n      swap2\n      swap1\n      tag_9\n      jump\t// in\n    tag_14:\n      tag_15\n      jump\t// in\n    tag_13:\n      mload(0x40)\n      tag_16\n      swap2\n      swap1\n      tag_12\n      jump\t// in\n    tag_16:\n      mload(0x40)\n      dup1\n      swap2\n      sub\n      swap1\n      return\n        /* \"marriage/character.sol\":728:1308  function removeCharacter(address _person) public onlyOwner returns(bool){... */\n    tag_5:\n      tag_17\n      0x04\n      dup1\n      calldatasize\n      sub\n      dup2\n      add\n      swap1\n      tag_18\n      swap2\n      swap1\n      tag_19\n      jump\t// in\n    tag_18:\n      tag_20\n      jump\t// in\n    tag_17:\n      mload(0x40)\n      tag_21\n      swap2\n      swap1\n      tag_12\n      jump\t// in\n    tag_21:\n      mload(0x40)\n      dup1\n      swap2\n      sub\n      swap1\n      return\n        /* \"marriage/character.sol\":346:458  function isCharacter(address _person) public view returns(bool){... */\n    tag_6:\n      tag_22\n      0x04\n      dup1\n      calldatasize\n      sub\n      dup2\n      add\n      swap1\n      tag_23\n      swap2\n      swap1\n      tag_19\n      jump\t// in\n    tag_23:\n      tag_24\n      jump\t// in\n    tag_22:\n      mload(0x40)\n      tag_25\n      swap2\n      swap1\n      tag_12\n      jump\t// in\n    tag_25:\n      mload(0x40)\n      dup1\n      swap2\n      sub\n      swap1\n      return\n        /* \"marriage/character.sol\":1318:1544  function resetCharacter(address _person,string memory _summary) public onlyOwner returns(bool){... */\n    tag_10:\n        /* \"marriage/character.sol\":1407:1411  bool */\n      0x00\n        /* \"marriage/character.sol\":291:296  owner */\n      0x03\n      0x00\n      swap1\n      sload\n      swap1\n      0x0100\n      exp\n      swap1\n      div\n      0xffffffffffffffffffffffffffffffffffffffff\n      and\n        /* \"marriage/character.sol\":277:296  msg.sender == owner */\n      0xffffffffffffffffffffffffffffffffffffffff\n      and\n        /* \"marriage/character.sol\":277:287  msg.sender */\n      caller\n        /* \"marriage/character.sol\":277:296  msg.sender == owner */\n      0xffffffffffffffffffffffffffffffffffffffff\n      and\n      eq\n        /* \"marriage/character.sol\":269:322  require(msg.sender == owner,\"only owner can do this\") */\n      tag_27\n      jumpi\n      mload(0x40)\n      0x08c379a000000000000000000000000000000000000000000000000000000000\n      dup2\n      mstore\n      0x04\n      add\n      tag_28\n      swap1\n      tag_29\n      jump\t// in\n    tag_28:\n      mload(0x40)\n      dup1\n      swap2\n      sub\n      swap1\n      revert\n    tag_27:\n        /* \"marriage/character.sol\":1422:1429  bool ok */\n      0x00\n        /* \"marriage/character.sol\":1432:1470  character.resetRole(_person, _summary) */\n      tag_31\n        /* \"marriage/character.sol\":1452:1459  _person */\n      dup5\n        /* \"marriage/character.sol\":1461:1469  _summary */\n      dup5\n        /* \"marriage/character.sol\":1432:1441  character */\n      0x00\n        /* \"marriage/character.sol\":1432:1451  character.resetRole */\n      tag_32\n      swap1\n        /* \"marriage/character.sol\":1432:1470  character.resetRole(_person, _summary) */\n      swap3\n      swap2\n      swap1\n      0xffffffff\n      and\n      jump\t// in\n    tag_31:\n        /* \"marriage/character.sol\":1422:1470  bool ok = character.resetRole(_person, _summary) */\n      swap1\n      pop\n        /* \"marriage/character.sol\":1488:1490  ok */\n      dup1\n        /* \"marriage/character.sol\":1480:1516  require(ok,\"reset character failed\") */\n      tag_33\n      jumpi\n      mload(0x40)\n      0x08c379a000000000000000000000000000000000000000000000000000000000\n      dup2\n      mstore\n      0x04\n      add\n      tag_34\n      swap1\n      tag_35\n      jump\t// in\n    tag_34:\n      mload(0x40)\n      dup1\n      swap2\n      sub\n      swap1\n      revert\n    tag_33:\n        /* \"marriage/character.sol\":1533:1537  true */\n      0x01\n        /* \"marriage/character.sol\":1526:1537  return true */\n      swap2\n      pop\n      pop\n        /* \"marriage/character.sol\":1318:1544  function resetCharacter(address _person,string memory _summary) public onlyOwner returns(bool){... */\n      swap3\n      swap2\n      pop\n      pop\n      jump\t// out\n        /* \"marriage/character.sol\":464:722  function addCharacter(address _person,string memory _summary) public onlyOwner returns(bool){... */\n    tag_15:\n        /* \"marriage/character.sol\":551:555  bool */\n      0x00\n        /* \"marriage/character.sol\":291:296  owner */\n      0x03\n      0x00\n      swap1\n      sload\n      swap1\n      0x0100\n      exp\n      swap1\n      div\n      0xffffffffffffffffffffffffffffffffffffffff\n      and\n        /* \"marriage/character.sol\":277:296  msg.sender == owner */\n      0xffffffffffffffffffffffffffffffffffffffff\n      and\n        /* \"marriage/character.sol\":277:287  msg.sender */\n      caller\n        /* \"marriage/character.sol\":277:296  msg.sender == owner */\n      0xffffffffffffffffffffffffffffffffffffffff\n      and\n      eq\n        /* \"marriage/character.sol\":269:322  require(msg.sender == owner,\"only owner can do this\") */\n      tag_37\n      jumpi\n      mload(0x40)\n      0x08c379a000000000000000000000000000000000000000000000000000000000\n      dup2\n      mstore\n      0x04\n      add\n      tag_38\n      swap1\n      tag_29\n      jump\t// in\n    tag_38:\n      mload(0x40)\n      dup1\n      swap2\n      sub\n      swap1\n      revert\n    tag_37:\n        /* \"marriage/character.sol\":566:573  bool ok */\n      0x00\n        /* \"marriage/character.sol\":576:612  character.addRole(_person, _summary) */\n      tag_40\n        /* \"marriage/character.sol\":594:601  _person */\n      dup5\n        /* \"marriage/character.sol\":603:611  _summary */\n      dup5\n        /* \"marriage/character.sol\":576:585  character */\n      0x00\n        /* \"marriage/character.sol\":576:593  character.addRole */\n      tag_41\n      swap1\n        /* \"marriage/character.sol\":576:612  character.addRole(_person, _summary) */\n      swap3\n      swap2\n      swap1\n      0xffffffff\n      and\n      jump\t// in\n    tag_40:\n        /* \"marriage/character.sol\":566:612  bool ok = character.addRole(_person, _summary) */\n      swap1\n      pop\n        /* \"marriage/character.sol\":630:632  ok */\n      dup1\n        /* \"marriage/character.sol\":622:656  require(ok,\"add character failed\") */\n      tag_42\n      jumpi\n      mload(0x40)\n      0x08c379a000000000000000000000000000000000000000000000000000000000\n      dup2\n      mstore\n      0x04\n      add\n      tag_43\n      swap1\n      tag_44\n      jump\t// in\n    tag_43:\n      mload(0x40)\n      dup1\n      swap2\n      sub\n      swap1\n      revert\n    tag_42:\n        /* \"marriage/character.sol\":666:679  allCharacters */\n      0x02\n        /* \"marriage/character.sol\":685:692  _person */\n      dup5\n        /* \"marriage/character.sol\":666:693  allCharacters.push(_person) */\n      swap1\n      dup1\n      0x01\n      dup2\n      sload\n      add\n      dup1\n      dup3\n      sstore\n      dup1\n      swap2\n      pop\n      pop\n      0x01\n      swap1\n      sub\n      swap1\n      0x00\n      mstore\n      keccak256(0x00, 0x20)\n      add\n      0x00\n      swap1\n      swap2\n      swap1\n      swap2\n      swap1\n      swap2\n      0x0100\n      exp\n      dup2\n      sload\n      dup2\n      0xffffffffffffffffffffffffffffffffffffffff\n      mul\n      not\n      and\n      swap1\n      dup4\n      0xffffffffffffffffffffffffffffffffffffffff\n      and\n      mul\n      or\n      swap1\n      sstore\n      pop\n        /* \"marriage/character.sol\":710:714  true */\n      0x01\n        /* \"marriage/character.sol\":703:714  return true */\n      swap2\n      pop\n      pop\n        /* \"marriage/character.sol\":464:722  function addCharacter(address _person,string memory _summary) public onlyOwner returns(bool){... */\n      swap3\n      swap2\n      pop\n      pop\n      jump\t// out\n        /* \"marriage/character.sol\":728:1308  function removeCharacter(address _person) public onlyOwner returns(bool){... */\n    tag_20:\n        /* \"marriage/character.sol\":795:799  bool */\n      0x00\n        /* \"marriage/character.sol\":291:296  owner */\n      0x03\n      0x00\n      swap1\n      sload\n      swap1\n      0x0100\n      exp\n      swap1\n      div\n      0xffffffffffffffffffffffffffffffffffffffff\n      and\n        /* \"marriage/character.sol\":277:296  msg.sender == owner */\n      0xffffffffffffffffffffffffffffffffffffffff\n      and\n        /* \"marriage/character.sol\":277:287  msg.sender */\n      caller\n        /* \"marriage/character.sol\":277:296  msg.sender == owner */\n      0xffffffffffffffffffffffffffffffffffffffff\n      and\n      eq\n        /* \"marriage/character.sol\":269:322  require(msg.sender == owner,\"only owner can do this\") */\n      tag_47\n      jumpi\n      mload(0x40)\n      0x08c379a000000000000000000000000000000000000000000000000000000000\n      dup2\n      mstore\n      0x04\n      add\n      tag_48\n      swap1\n      tag_29\n      jump\t// in\n    tag_48:\n      mload(0x40)\n      dup1\n      swap2\n      sub\n      swap1\n      revert\n    tag_47:\n        /* \"marriage/character.sol\":810:817  bool ok */\n      0x00\n        /* \"marriage/character.sol\":820:849  character.removeRole(_person) */\n      tag_50\n        /* \"marriage/character.sol\":841:848  _person */\n      dup4\n        /* \"marriage/character.sol\":820:829  character */\n      0x00\n        /* \"marriage/character.sol\":820:840  character.removeRole */\n      tag_51\n      swap1\n        /* \"marriage/character.sol\":820:849  character.removeRole(_person) */\n      swap2\n      swap1\n      0xffffffff\n      and\n      jump\t// in\n    tag_50:\n        /* \"marriage/character.sol\":810:849  bool ok = character.removeRole(_person) */\n      swap1\n      pop\n        /* \"marriage/character.sol\":867:869  ok */\n      dup1\n        /* \"marriage/character.sol\":859:896  require(ok,\"remove character failed\") */\n      tag_52\n      jumpi\n      mload(0x40)\n      0x08c379a000000000000000000000000000000000000000000000000000000000\n      dup2\n      mstore\n      0x04\n      add\n      tag_53\n      swap1\n      tag_54\n      jump\t// in\n    tag_53:\n      mload(0x40)\n      dup1\n      swap2\n      sub\n      swap1\n      revert\n    tag_52:\n        /* \"marriage/character.sol\":906:919  uint256 index */\n      0x00\n        /* \"marriage/character.sol\":933:1070  for(;index<allCharacters.length;index++){... */\n    tag_55:\n        /* \"marriage/character.sol\":944:957  allCharacters */\n      0x02\n        /* \"marriage/character.sol\":944:964  allCharacters.length */\n      dup1\n      sload\n      swap1\n      pop\n        /* \"marriage/character.sol\":938:943  index */\n      dup2\n        /* \"marriage/character.sol\":938:964  index<allCharacters.length */\n      lt\n        /* \"marriage/character.sol\":933:1070  for(;index<allCharacters.length;index++){... */\n      iszero\n      tag_56\n      jumpi\n        /* \"marriage/character.sol\":1001:1014  allCharacters */\n      0x02\n        /* \"marriage/character.sol\":1015:1020  index */\n      dup2\n        /* \"marriage/character.sol\":1001:1021  allCharacters[index] */\n      dup2\n      sload\n      dup2\n      lt\n      tag_58\n      jumpi\n      tag_59\n      tag_60\n      jump\t// in\n    tag_59:\n    tag_58:\n      swap1\n      0x00\n      mstore\n      keccak256(0x00, 0x20)\n      add\n      0x00\n      swap1\n      sload\n      swap1\n      0x0100\n      exp\n      swap1\n      div\n      0xffffffffffffffffffffffffffffffffffffffff\n      and\n        /* \"marriage/character.sol\":990:1021  _person == allCharacters[index] */\n      0xffffffffffffffffffffffffffffffffffffffff\n      and\n        /* \"marriage/character.sol\":990:997  _person */\n      dup5\n        /* \"marriage/character.sol\":990:1021  _person == allCharacters[index] */\n      0xffffffffffffffffffffffffffffffffffffffff\n      and\n      eq\n        /* \"marriage/character.sol\":987:1060  if(_person == allCharacters[index]){... */\n      iszero\n      tag_62\n      jumpi\n        /* \"marriage/character.sol\":1040:1045  break */\n      jump(tag_56)\n        /* \"marriage/character.sol\":987:1060  if(_person == allCharacters[index]){... */\n    tag_62:\n        /* \"marriage/character.sol\":965:972  index++ */\n      dup1\n      dup1\n      tag_63\n      swap1\n      tag_64\n      jump\t// in\n    tag_63:\n      swap2\n      pop\n      pop\n        /* \"marriage/character.sol\":933:1070  for(;index<allCharacters.length;index++){... */\n      jump(tag_55)\n    tag_56:\n        /* \"marriage/character.sol\":1110:1111  1 */\n      0x01\n        /* \"marriage/character.sol\":1088:1101  allCharacters */\n      0x02\n        /* \"marriage/character.sol\":1088:1108  allCharacters.length */\n      dup1\n      sload\n      swap1\n      pop\n        /* \"marriage/character.sol\":1088:1111  allCharacters.length -1 */\n      tag_65\n      swap2\n      swap1\n      tag_66\n      jump\t// in\n    tag_65:\n        /* \"marriage/character.sol\":1082:1087  index */\n      dup2\n        /* \"marriage/character.sol\":1082:1111  index<allCharacters.length -1 */\n      lt\n        /* \"marriage/character.sol\":1079:1280  if(index<allCharacters.length -1){... */\n      iszero\n      tag_67\n      jumpi\n        /* \"marriage/character.sol\":1149:1162  allCharacters */\n      0x02\n        /* \"marriage/character.sol\":1185:1186  1 */\n      0x01\n        /* \"marriage/character.sol\":1163:1176  allCharacters */\n      0x02\n        /* \"marriage/character.sol\":1163:1183  allCharacters.length */\n      dup1\n      sload\n      swap1\n      pop\n        /* \"marriage/character.sol\":1163:1186  allCharacters.length -1 */\n      tag_68\n      swap2\n      swap1\n      tag_66\n      jump\t// in\n    tag_68:\n        /* \"marriage/character.sol\":1149:1187  allCharacters[allCharacters.length -1] */\n      dup2\n      sload\n      dup2\n      lt\n      tag_69\n      jumpi\n      tag_70\n      tag_60\n      jump\t// in\n    tag_70:\n    tag_69:\n      swap1\n      0x00\n      mstore\n      keccak256(0x00, 0x20)\n      add\n      0x00\n      swap1\n      sload\n      swap1\n      0x0100\n      exp\n      swap1\n      div\n      0xffffffffffffffffffffffffffffffffffffffff\n      and\n        /* \"marriage/character.sol\":1126:1139  allCharacters */\n      0x02\n        /* \"marriage/character.sol\":1140:1145  index */\n      dup3\n        /* \"marriage/character.sol\":1126:1146  allCharacters[index] */\n      dup2\n      sload\n      dup2\n      lt\n      tag_72\n      jumpi\n      tag_73\n      tag_60\n      jump\t// in\n    tag_73:\n    tag_72:\n      swap1\n      0x00\n      mstore\n      keccak256(0x00, 0x20)\n      add\n      0x00\n        /* \"marriage/character.sol\":1126:1187  allCharacters[index] = allCharacters[allCharacters.length -1] */\n      0x0100\n      exp\n      dup2\n      sload\n      dup2\n      0xffffffffffffffffffffffffffffffffffffffff\n      mul\n      not\n      and\n      swap1\n      dup4\n      0xffffffffffffffffffffffffffffffffffffffff\n      and\n      mul\n      or\n      swap1\n      sstore\n      pop\n        /* \"marriage/character.sol\":1202:1215  allCharacters */\n      0x02\n        /* \"marriage/character.sol\":1202:1221  allCharacters.pop() */\n      dup1\n      sload\n      dup1\n      tag_75\n      jumpi\n      tag_76\n      tag_77\n      jump\t// in\n    tag_76:\n    tag_75:\n      0x01\n      swap1\n      sub\n      dup2\n      dup2\n      swap1\n      0x00\n      mstore\n      keccak256(0x00, 0x20)\n      add\n      exp(0x0100, 0x00)\n      dup2\n      sload\n      swap1\n      0xffffffffffffffffffffffffffffffffffffffff\n      mul\n      not\n      and\n      swap1\n      sstore\n      swap1\n      sstore\n        /* \"marriage/character.sol\":1079:1280  if(index<allCharacters.length -1){... */\n      jump(tag_79)\n    tag_67:\n        /* \"marriage/character.sol\":1250:1263  allCharacters */\n      0x02\n        /* \"marriage/character.sol\":1250:1269  allCharacters.pop() */\n      dup1\n      sload\n      dup1\n      tag_80\n      jumpi\n      tag_81\n      tag_77\n      jump\t// in\n    tag_81:\n    tag_80:\n      0x01\n      swap1\n      sub\n      dup2\n      dup2\n      swap1\n      0x00\n      mstore\n      keccak256(0x00, 0x20)\n      add\n      exp(0x0100, 0x00)\n      dup2\n      sload\n      swap1\n      0xffffffffffffffffffffffffffffffffffffffff\n      mul\n      not\n      and\n      swap1\n      sstore\n      swap1\n      sstore\n        /* \"marriage/character.sol\":1079:1280  if(index<allCharacters.length -1){... */\n    tag_79:\n        /* \"marriage/character.sol\":1297:1301  true */\n      0x01\n        /* \"marriage/character.sol\":1290:1301  return true */\n      swap3\n      pop\n      pop\n      pop\n        /* \"marriage/character.sol\":728:1308  function removeCharacter(address _person) public onlyOwner returns(bool){... */\n      swap2\n      swap1\n      pop\n      jump\t// out\n        /* \"marriage/character.sol\":346:458  function isCharacter(address _person) public view returns(bool){... */\n    tag_24:\n        /* \"marriage/character.sol\":404:408  bool */\n      0x00\n        /* \"marriage/character.sol\":426:451  character.isRole(_person) */\n      tag_84\n        /* \"marriage/character.sol\":443:450  _person */\n      dup3\n        /* \"marriage/character.sol\":426:435  character */\n      0x00\n        /* \"marriage/character.sol\":426:442  character.isRole */\n      tag_85\n      swap1\n        /* \"marriage/character.sol\":426:451  character.isRole(_person) */\n      swap2\n      swap1\n      0xffffffff\n      and\n      jump\t// in\n    tag_84:\n        /* \"marriage/character.sol\":419:451  return character.isRole(_person) */\n      swap1\n      pop\n        /* \"marriage/character.sol\":346:458  function isCharacter(address _person) public view returns(bool){... */\n      swap2\n      swap1\n      pop\n      jump\t// out\n        /* \"marriage/role.sol\":961:1219  function resetRole(PersonRole storage _role,address _person,string memory _summary) internal returns(bool){\r... */\n    tag_32:\n        /* \"marriage/role.sol\":1062:1066  bool */\n      0x00\n        /* \"marriage/role.sol\":1082:1104  isRole(_role, _person) */\n      tag_87\n        /* \"marriage/role.sol\":1089:1094  _role */\n      dup5\n        /* \"marriage/role.sol\":1096:1103  _person */\n      dup5\n        /* \"marriage/role.sol\":1082:1088  isRole */\n      tag_85\n        /* \"marriage/role.sol\":1082:1104  isRole(_role, _person) */\n      jump\t// in\n    tag_87:\n        /* \"marriage/role.sol\":1078:1144  if(!isRole(_role, _person)){\r... */\n      tag_88\n      jumpi\n        /* \"marriage/role.sol\":1127:1132  false */\n      0x00\n        /* \"marriage/role.sol\":1120:1132  return false */\n      swap1\n      pop\n      jump(tag_86)\n        /* \"marriage/role.sol\":1078:1144  if(!isRole(_role, _person)){\r... */\n    tag_88:\n        /* \"marriage/role.sol\":1179:1187  _summary */\n      dup2\n        /* \"marriage/role.sol\":1154:1159  _role */\n      dup5\n        /* \"marriage/role.sol\":1154:1167  _role.summary */\n      0x01\n      add\n        /* \"marriage/role.sol\":1154:1176  _role.summary[_person] */\n      0x00\n        /* \"marriage/role.sol\":1168:1175  _person */\n      dup6\n        /* \"marriage/role.sol\":1154:1176  _role.summary[_person] */\n      0xffffffffffffffffffffffffffffffffffffffff\n      and\n      0xffffffffffffffffffffffffffffffffffffffff\n      and\n      dup2\n      mstore\n      0x20\n      add\n      swap1\n      dup2\n      mstore\n      0x20\n      add\n      0x00\n      keccak256\n        /* \"marriage/role.sol\":1154:1187  _role.summary[_person] = _summary */\n      swap1\n      dup1\n      mload\n      swap1\n      0x20\n      add\n      swap1\n      tag_89\n      swap3\n      swap2\n      swap1\n      tag_90\n      jump\t// in\n    tag_89:\n      pop\n        /* \"marriage/role.sol\":1205:1209  true */\n      0x01\n        /* \"marriage/role.sol\":1198:1209  return true */\n      swap1\n      pop\n        /* \"marriage/role.sol\":961:1219  function resetRole(PersonRole storage _role,address _person,string memory _summary) internal returns(bool){\r... */\n    tag_86:\n      swap4\n      swap3\n      pop\n      pop\n      pop\n      jump\t// out\n        /* \"marriage/role.sol\":380:674  function addRole(PersonRole storage _role,address _person,string memory _summary) internal returns(bool){\r... */\n    tag_41:\n        /* \"marriage/role.sol\":479:483  bool */\n      0x00\n        /* \"marriage/role.sol\":498:520  isRole(_role, _person) */\n      tag_92\n        /* \"marriage/role.sol\":505:510  _role */\n      dup5\n        /* \"marriage/role.sol\":512:519  _person */\n      dup5\n        /* \"marriage/role.sol\":498:504  isRole */\n      tag_85\n        /* \"marriage/role.sol\":498:520  isRole(_role, _person) */\n      jump\t// in\n    tag_92:\n        /* \"marriage/role.sol\":495:560  if(isRole(_role, _person)){\r... */\n      iszero\n      tag_93\n      jumpi\n        /* \"marriage/role.sol\":543:548  false */\n      0x00\n        /* \"marriage/role.sol\":536:548  return false */\n      swap1\n      pop\n      jump(tag_91)\n        /* \"marriage/role.sol\":495:560  if(isRole(_role, _person)){\r... */\n    tag_93:\n        /* \"marriage/role.sol\":596:600  true */\n      0x01\n        /* \"marriage/role.sol\":570:575  _role */\n      dup5\n        /* \"marriage/role.sol\":570:584  _role.isExists */\n      0x00\n      add\n        /* \"marriage/role.sol\":570:593  _role.isExists[_person] */\n      0x00\n        /* \"marriage/role.sol\":585:592  _person */\n      dup6\n        /* \"marriage/role.sol\":570:593  _role.isExists[_person] */\n      0xffffffffffffffffffffffffffffffffffffffff\n      and\n      0xffffffffffffffffffffffffffffffffffffffff\n      and\n      dup2\n      mstore\n      0x20\n      add\n      swap1\n      dup2\n      mstore\n      0x20\n      add\n      0x00\n      keccak256\n      0x00\n        /* \"marriage/role.sol\":570:600  _role.isExists[_person] = true */\n      0x0100\n      exp\n      dup2\n      sload\n      dup2\n      0xff\n      mul\n      not\n      and\n      swap1\n      dup4\n      iszero\n      iszero\n      mul\n      or\n      swap1\n      sstore\n      pop\n        /* \"marriage/role.sol\":636:644  _summary */\n      dup2\n        /* \"marriage/role.sol\":611:616  _role */\n      dup5\n        /* \"marriage/role.sol\":611:624  _role.summary */\n      0x01\n      add\n        /* \"marriage/role.sol\":611:633  _role.summary[_person] */\n      0x00\n        /* \"marriage/role.sol\":625:632  _person */\n      dup6\n        /* \"marriage/role.sol\":611:633  _role.summary[_person] */\n      0xffffffffffffffffffffffffffffffffffffffff\n      and\n      0xffffffffffffffffffffffffffffffffffffffff\n      and\n      dup2\n      mstore\n      0x20\n      add\n      swap1\n      dup2\n      mstore\n      0x20\n      add\n      0x00\n      keccak256\n        /* \"marriage/role.sol\":611:644  _role.summary[_person] = _summary */\n      swap1\n      dup1\n      mload\n      swap1\n      0x20\n      add\n      swap1\n      tag_94\n      swap3\n      swap2\n      swap1\n      tag_90\n      jump\t// in\n    tag_94:\n      pop\n        /* \"marriage/role.sol\":662:666  true */\n      0x01\n        /* \"marriage/role.sol\":655:666  return true */\n      swap1\n      pop\n        /* \"marriage/role.sol\":380:674  function addRole(PersonRole storage _role,address _person,string memory _summary) internal returns(bool){\r... */\n    tag_91:\n      swap4\n      swap3\n      pop\n      pop\n      pop\n      jump\t// out\n        /* \"marriage/role.sol\":682:953  function removeRole(PersonRole storage _role,address _person) internal returns(bool){\r... */\n    tag_51:\n        /* \"marriage/role.sol\":761:765  bool */\n      0x00\n        /* \"marriage/role.sol\":781:803  isRole(_role, _person) */\n      tag_96\n        /* \"marriage/role.sol\":788:793  _role */\n      dup4\n        /* \"marriage/role.sol\":795:802  _person */\n      dup4\n        /* \"marriage/role.sol\":781:787  isRole */\n      tag_85\n        /* \"marriage/role.sol\":781:803  isRole(_role, _person) */\n      jump\t// in\n    tag_96:\n        /* \"marriage/role.sol\":777:843  if(!isRole(_role, _person)){\r... */\n      tag_97\n      jumpi\n        /* \"marriage/role.sol\":826:831  false */\n      0x00\n        /* \"marriage/role.sol\":819:831  return false */\n      swap1\n      pop\n      jump(tag_95)\n        /* \"marriage/role.sol\":777:843  if(!isRole(_role, _person)){\r... */\n    tag_97:\n        /* \"marriage/role.sol\":860:865  _role */\n      dup3\n        /* \"marriage/role.sol\":860:874  _role.isExists */\n      0x00\n      add\n        /* \"marriage/role.sol\":860:883  _role.isExists[_person] */\n      0x00\n        /* \"marriage/role.sol\":875:882  _person */\n      dup4\n        /* \"marriage/role.sol\":860:883  _role.isExists[_person] */\n      0xffffffffffffffffffffffffffffffffffffffff\n      and\n      0xffffffffffffffffffffffffffffffffffffffff\n      and\n      dup2\n      mstore\n      0x20\n      add\n      swap1\n      dup2\n      mstore\n      0x20\n      add\n      0x00\n      keccak256\n      0x00\n        /* \"marriage/role.sol\":853:883  delete _role.isExists[_person] */\n      0x0100\n      exp\n      dup2\n      sload\n      swap1\n      0xff\n      mul\n      not\n      and\n      swap1\n      sstore\n        /* \"marriage/role.sol\":901:906  _role */\n      dup3\n        /* \"marriage/role.sol\":901:914  _role.summary */\n      0x01\n      add\n        /* \"marriage/role.sol\":901:923  _role.summary[_person] */\n      0x00\n        /* \"marriage/role.sol\":915:922  _person */\n      dup4\n        /* \"marriage/role.sol\":901:923  _role.summary[_person] */\n      0xffffffffffffffffffffffffffffffffffffffff\n      and\n      0xffffffffffffffffffffffffffffffffffffffff\n      and\n      dup2\n      mstore\n      0x20\n      add\n      swap1\n      dup2\n      mstore\n      0x20\n      add\n      0x00\n      keccak256\n      0x00\n        /* \"marriage/role.sol\":894:923  delete _role.summary[_person] */\n      tag_98\n      swap2\n      swap1\n      tag_99\n      jump\t// in\n    tag_98:\n        /* \"marriage/role.sol\":941:945  true */\n      0x01\n        /* \"marriage/role.sol\":934:945  return true */\n      swap1\n      pop\n        /* \"marriage/role.sol\":682:953  function removeRole(PersonRole storage _role,address _person) internal returns(bool){\r... */\n    tag_95:\n      swap3\n      swap2\n      pop\n      pop\n      jump\t// out\n        /* \"marriage/role.sol\":163:372  function isRole(PersonRole storage _role,address _person ) internal view returns(bool){\r... */\n    tag_85:\n        /* \"marriage/role.sol\":244:248  bool */\n      0x00\n        /* \"marriage/role.sol\":282:283  0 */\n      dup1\n        /* \"marriage/role.sol\":263:284  _person == address(0) */\n      0xffffffffffffffffffffffffffffffffffffffff\n      and\n        /* \"marriage/role.sol\":263:270  _person */\n      dup3\n        /* \"marriage/role.sol\":263:284  _person == address(0) */\n      0xffffffffffffffffffffffffffffffffffffffff\n      and\n      eq\n        /* \"marriage/role.sol\":260:324  if(_person == address(0)){\r... */\n      iszero\n      tag_101\n      jumpi\n        /* \"marriage/role.sol\":307:312  false */\n      0x00\n        /* \"marriage/role.sol\":300:312  return false */\n      swap1\n      pop\n      jump(tag_100)\n        /* \"marriage/role.sol\":260:324  if(_person == address(0)){\r... */\n    tag_101:\n        /* \"marriage/role.sol\":341:346  _role */\n      dup3\n        /* \"marriage/role.sol\":341:355  _role.isExists */\n      0x00\n      add\n        /* \"marriage/role.sol\":341:364  _role.isExists[_person] */\n      0x00\n        /* \"marriage/role.sol\":356:363  _person */\n      dup4\n        /* \"marriage/role.sol\":341:364  _role.isExists[_person] */\n      0xffffffffffffffffffffffffffffffffffffffff\n      and\n      0xffffffffffffffffffffffffffffffffffffffff\n      and\n      dup2\n      mstore\n      0x20\n      add\n      swap1\n      dup2\n      mstore\n      0x20\n      add\n      0x00\n      keccak256\n      0x00\n      swap1\n      sload\n      swap1\n      0x0100\n      exp\n      swap1\n      div\n      0xff\n      and\n        /* \"marriage/role.sol\":334:364  return _role.isExists[_person] */\n      swap1\n      pop\n        /* \"marriage/role.sol\":163:372  function isRole(PersonRole storage _role,address _person ) internal view returns(bool){\r... */\n    tag_100:\n      swap3\n      swap2\n      pop\n      pop\n      jump\t// out\n    tag_90:\n      dup3\n      dup1\n      sload\n      tag_102\n      swap1\n      tag_103\n      jump\t// in\n    tag_102:\n      swap1\n      0x00\n      mstore\n      keccak256(0x00, 0x20)\n      swap1\n      0x1f\n      add\n      0x20\n      swap1\n      div\n      dup2\n      add\n      swap3\n      dup3\n      tag_105\n      jumpi\n      0x00\n      dup6\n      sstore\n      jump(tag_104)\n    tag_105:\n      dup3\n      0x1f\n      lt\n      tag_106\n      jumpi\n      dup1\n      mload\n      not(0xff)\n      and\n      dup4\n      dup1\n      add\n      or\n      dup6\n      sstore\n      jump(tag_104)\n    tag_106:\n      dup3\n      dup1\n      add\n      0x01\n      add\n      dup6\n      sstore\n      dup3\n      iszero\n      tag_104\n      jumpi\n      swap2\n      dup3\n      add\n    tag_107:\n      dup3\n      dup2\n      gt\n      iszero\n      tag_108\n      jumpi\n      dup3\n      mload\n      dup3\n      sstore\n      swap2\n      0x20\n      add\n      swap2\n      swap1\n      0x01\n      add\n      swap1\n      jump(tag_107)\n    tag_108:\n    tag_104:\n      pop\n      swap1\n      pop\n      tag_109\n      swap2\n      swap1\n      tag_110\n      jump\t// in\n    tag_109:\n      pop\n      swap1\n      jump\t// out\n    tag_99:\n      pop\n      dup1\n      sload\n      tag_111\n      swap1\n      tag_103\n      jump\t// in\n    tag_111:\n      0x00\n      dup3\n      sstore\n      dup1\n      0x1f\n      lt\n      tag_113\n      jumpi\n      pop\n      jump(tag_112)\n    tag_113:\n      0x1f\n      add\n      0x20\n      swap1\n      div\n      swap1\n      0x00\n      mstore\n      keccak256(0x00, 0x20)\n      swap1\n      dup2\n      add\n      swap1\n      tag_114\n      swap2\n      swap1\n      tag_110\n      jump\t// in\n    tag_114:\n    tag_112:\n      pop\n      jump\t// out\n    tag_110:\n    tag_115:\n      dup1\n      dup3\n      gt\n      iszero\n      tag_116\n      jumpi\n      0x00\n      dup2\n      0x00\n      swap1\n      sstore\n      pop\n      0x01\n      add\n      jump(tag_115)\n    tag_116:\n      pop\n      swap1\n      jump\t// out\n        /* \"#utility.yul\":7:419   */\n    tag_118:\n        /* \"#utility.yul\":85:90   */\n      0x00\n        /* \"#utility.yul\":110:176   */\n      tag_120\n        /* \"#utility.yul\":126:175   */\n      tag_121\n        /* \"#utility.yul\":168:174   */\n      dup5\n        /* \"#utility.yul\":126:175   */\n      tag_122\n      jump\t// in\n    tag_121:\n        /* \"#utility.yul\":110:176   */\n      tag_123\n      jump\t// in\n    tag_120:\n        /* \"#utility.yul\":101:176   */\n      swap1\n      pop\n        /* \"#utility.yul\":199:205   */\n      dup3\n        /* \"#utility.yul\":192:197   */\n      dup2\n        /* \"#utility.yul\":185:206   */\n      mstore\n        /* \"#utility.yul\":237:241   */\n      0x20\n        /* \"#utility.yul\":230:235   */\n      dup2\n        /* \"#utility.yul\":226:242   */\n      add\n        /* \"#utility.yul\":275:278   */\n      dup5\n        /* \"#utility.yul\":266:272   */\n      dup5\n        /* \"#utility.yul\":261:264   */\n      dup5\n        /* \"#utility.yul\":257:273   */\n      add\n        /* \"#utility.yul\":254:279   */\n      gt\n        /* \"#utility.yul\":251:363   */\n      iszero\n      tag_124\n      jumpi\n        /* \"#utility.yul\":282:361   */\n      tag_125\n      tag_126\n      jump\t// in\n    tag_125:\n        /* \"#utility.yul\":251:363   */\n    tag_124:\n        /* \"#utility.yul\":372:413   */\n      tag_127\n        /* \"#utility.yul\":406:412   */\n      dup5\n        /* \"#utility.yul\":401:404   */\n      dup3\n        /* \"#utility.yul\":396:399   */\n      dup6\n        /* \"#utility.yul\":372:413   */\n      tag_128\n      jump\t// in\n    tag_127:\n        /* \"#utility.yul\":91:419   */\n      pop\n        /* \"#utility.yul\":7:419   */\n      swap4\n      swap3\n      pop\n      pop\n      pop\n      jump\t// out\n        /* \"#utility.yul\":425:564   */\n    tag_129:\n        /* \"#utility.yul\":471:476   */\n      0x00\n        /* \"#utility.yul\":509:515   */\n      dup2\n        /* \"#utility.yul\":496:516   */\n      calldataload\n        /* \"#utility.yul\":487:516   */\n      swap1\n      pop\n        /* \"#utility.yul\":525:558   */\n      tag_131\n        /* \"#utility.yul\":552:557   */\n      dup2\n        /* \"#utility.yul\":525:558   */\n      tag_132\n      jump\t// in\n    tag_131:\n        /* \"#utility.yul\":425:564   */\n      swap3\n      swap2\n      pop\n      pop\n      jump\t// out\n        /* \"#utility.yul\":584:924   */\n    tag_133:\n        /* \"#utility.yul\":640:645   */\n      0x00\n        /* \"#utility.yul\":689:692   */\n      dup3\n        /* \"#utility.yul\":682:686   */\n      0x1f\n        /* \"#utility.yul\":674:680   */\n      dup4\n        /* \"#utility.yul\":670:687   */\n      add\n        /* \"#utility.yul\":666:693   */\n      slt\n        /* \"#utility.yul\":656:778   */\n      tag_135\n      jumpi\n        /* \"#utility.yul\":697:776   */\n      tag_136\n      tag_137\n      jump\t// in\n    tag_136:\n        /* \"#utility.yul\":656:778   */\n    tag_135:\n        /* \"#utility.yul\":814:820   */\n      dup2\n        /* \"#utility.yul\":801:821   */\n      calldataload\n        /* \"#utility.yul\":839:918   */\n      tag_138\n        /* \"#utility.yul\":914:917   */\n      dup5\n        /* \"#utility.yul\":906:912   */\n      dup3\n        /* \"#utility.yul\":899:903   */\n      0x20\n        /* \"#utility.yul\":891:897   */\n      dup7\n        /* \"#utility.yul\":887:904   */\n      add\n        /* \"#utility.yul\":839:918   */\n      tag_118\n      jump\t// in\n    tag_138:\n        /* \"#utility.yul\":830:918   */\n      swap2\n      pop\n        /* \"#utility.yul\":646:924   */\n      pop\n        /* \"#utility.yul\":584:924   */\n      swap3\n      swap2\n      pop\n      pop\n      jump\t// out\n        /* \"#utility.yul\":930:1259   */\n    tag_19:\n        /* \"#utility.yul\":989:995   */\n      0x00\n        /* \"#utility.yul\":1038:1040   */\n      0x20\n        /* \"#utility.yul\":1026:1035   */\n      dup3\n        /* \"#utility.yul\":1017:1024   */\n      dup5\n        /* \"#utility.yul\":1013:1036   */\n      sub\n        /* \"#utility.yul\":1009:1041   */\n      slt\n        /* \"#utility.yul\":1006:1125   */\n      iszero\n      tag_140\n      jumpi\n        /* \"#utility.yul\":1044:1123   */\n      tag_141\n      tag_142\n      jump\t// in\n    tag_141:\n        /* \"#utility.yul\":1006:1125   */\n    tag_140:\n        /* \"#utility.yul\":1164:1165   */\n      0x00\n        /* \"#utility.yul\":1189:1242   */\n      tag_143\n        /* \"#utility.yul\":1234:1241   */\n      dup5\n        /* \"#utility.yul\":1225:1231   */\n      dup3\n        /* \"#utility.yul\":1214:1223   */\n      dup6\n        /* \"#utility.yul\":1210:1232   */\n      add\n        /* \"#utility.yul\":1189:1242   */\n      tag_129\n      jump\t// in\n    tag_143:\n        /* \"#utility.yul\":1179:1242   */\n      swap2\n      pop\n        /* \"#utility.yul\":1135:1252   */\n      pop\n        /* \"#utility.yul\":930:1259   */\n      swap3\n      swap2\n      pop\n      pop\n      jump\t// out\n        /* \"#utility.yul\":1265:1919   */\n    tag_9:\n        /* \"#utility.yul\":1343:1349   */\n      0x00\n        /* \"#utility.yul\":1351:1357   */\n      dup1\n        /* \"#utility.yul\":1400:1402   */\n      0x40\n        /* \"#utility.yul\":1388:1397   */\n      dup4\n        /* \"#utility.yul\":1379:1386   */\n      dup6\n        /* \"#utility.yul\":1375:1398   */\n      sub\n        /* \"#utility.yul\":1371:1403   */\n      slt\n        /* \"#utility.yul\":1368:1487   */\n      iszero\n      tag_145\n      jumpi\n        /* \"#utility.yul\":1406:1485   */\n      tag_146\n      tag_142\n      jump\t// in\n    tag_146:\n        /* \"#utility.yul\":1368:1487   */\n    tag_145:\n        /* \"#utility.yul\":1526:1527   */\n      0x00\n        /* \"#utility.yul\":1551:1604   */\n      tag_147\n        /* \"#utility.yul\":1596:1603   */\n      dup6\n        /* \"#utility.yul\":1587:1593   */\n      dup3\n        /* \"#utility.yul\":1576:1585   */\n      dup7\n        /* \"#utility.yul\":1572:1594   */\n      add\n        /* \"#utility.yul\":1551:1604   */\n      tag_129\n      jump\t// in\n    tag_147:\n        /* \"#utility.yul\":1541:1604   */\n      swap3\n      pop\n        /* \"#utility.yul\":1497:1614   */\n      pop\n        /* \"#utility.yul\":1681:1683   */\n      0x20\n        /* \"#utility.yul\":1670:1679   */\n      dup4\n        /* \"#utility.yul\":1666:1684   */\n      add\n        /* \"#utility.yul\":1653:1685   */\n      calldataload\n        /* \"#utility.yul\":1712:1730   */\n      0xffffffffffffffff\n        /* \"#utility.yul\":1704:1710   */\n      dup2\n        /* \"#utility.yul\":1701:1731   */\n      gt\n        /* \"#utility.yul\":1698:1815   */\n      iszero\n      tag_148\n      jumpi\n        /* \"#utility.yul\":1734:1813   */\n      tag_149\n      tag_150\n      jump\t// in\n    tag_149:\n        /* \"#utility.yul\":1698:1815   */\n    tag_148:\n        /* \"#utility.yul\":1839:1902   */\n      tag_151\n        /* \"#utility.yul\":1894:1901   */\n      dup6\n        /* \"#utility.yul\":1885:1891   */\n      dup3\n        /* \"#utility.yul\":1874:1883   */\n      dup7\n        /* \"#utility.yul\":1870:1892   */\n      add\n        /* \"#utility.yul\":1839:1902   */\n      tag_133\n      jump\t// in\n    tag_151:\n        /* \"#utility.yul\":1829:1902   */\n      swap2\n      pop\n        /* \"#utility.yul\":1624:1912   */\n      pop\n        /* \"#utility.yul\":1265:1919   */\n      swap3\n      pop\n      swap3\n      swap1\n      pop\n      jump\t// out\n        /* \"#utility.yul\":1925:2034   */\n    tag_152:\n        /* \"#utility.yul\":2006:2027   */\n      tag_154\n        /* \"#utility.yul\":2021:2026   */\n      dup2\n        /* \"#utility.yul\":2006:2027   */\n      tag_155\n      jump\t// in\n    tag_154:\n        /* \"#utility.yul\":2001:2004   */\n      dup3\n        /* \"#utility.yul\":1994:2028   */\n      mstore\n        /* \"#utility.yul\":1925:2034   */\n      pop\n      pop\n      jump\t// out\n        /* \"#utility.yul\":2040:2406   */\n    tag_156:\n        /* \"#utility.yul\":2182:2185   */\n      0x00\n        /* \"#utility.yul\":2203:2270   */\n      tag_158\n        /* \"#utility.yul\":2267:2269   */\n      0x16\n        /* \"#utility.yul\":2262:2265   */\n      dup4\n        /* \"#utility.yul\":2203:2270   */\n      tag_159\n      jump\t// in\n    tag_158:\n        /* \"#utility.yul\":2196:2270   */\n      swap2\n      pop\n        /* \"#utility.yul\":2279:2372   */\n      tag_160\n        /* \"#utility.yul\":2368:2371   */\n      dup3\n        /* \"#utility.yul\":2279:2372   */\n      tag_161\n      jump\t// in\n    tag_160:\n        /* \"#utility.yul\":2397:2399   */\n      0x20\n        /* \"#utility.yul\":2392:2395   */\n      dup3\n        /* \"#utility.yul\":2388:2400   */\n      add\n        /* \"#utility.yul\":2381:2400   */\n      swap1\n      pop\n        /* \"#utility.yul\":2040:2406   */\n      swap2\n      swap1\n      pop\n      jump\t// out\n        /* \"#utility.yul\":2412:2778   */\n    tag_162:\n        /* \"#utility.yul\":2554:2557   */\n      0x00\n        /* \"#utility.yul\":2575:2642   */\n      tag_164\n        /* \"#utility.yul\":2639:2641   */\n      0x17\n        /* \"#utility.yul\":2634:2637   */\n      dup4\n        /* \"#utility.yul\":2575:2642   */\n      tag_159\n      jump\t// in\n    tag_164:\n        /* \"#utility.yul\":2568:2642   */\n      swap2\n      pop\n        /* \"#utility.yul\":2651:2744   */\n      tag_165\n        /* \"#utility.yul\":2740:2743   */\n      dup3\n        /* \"#utility.yul\":2651:2744   */\n      tag_166\n      jump\t// in\n    tag_165:\n        /* \"#utility.yul\":2769:2771   */\n      0x20\n        /* \"#utility.yul\":2764:2767   */\n      dup3\n        /* \"#utility.yul\":2760:2772   */\n      add\n        /* \"#utility.yul\":2753:2772   */\n      swap1\n      pop\n        /* \"#utility.yul\":2412:2778   */\n      swap2\n      swap1\n      pop\n      jump\t// out\n        /* \"#utility.yul\":2784:3150   */\n    tag_167:\n        /* \"#utility.yul\":2926:2929   */\n      0x00\n        /* \"#utility.yul\":2947:3014   */\n      tag_169\n        /* \"#utility.yul\":3011:3013   */\n      0x14\n        /* \"#utility.yul\":3006:3009   */\n      dup4\n        /* \"#utility.yul\":2947:3014   */\n      tag_159\n      jump\t// in\n    tag_169:\n        /* \"#utility.yul\":2940:3014   */\n      swap2\n      pop\n        /* \"#utility.yul\":3023:3116   */\n      tag_170\n        /* \"#utility.yul\":3112:3115   */\n      dup3\n        /* \"#utility.yul\":3023:3116   */\n      tag_171\n      jump\t// in\n    tag_170:\n        /* \"#utility.yul\":3141:3143   */\n      0x20\n        /* \"#utility.yul\":3136:3139   */\n      dup3\n        /* \"#utility.yul\":3132:3144   */\n      add\n        /* \"#utility.yul\":3125:3144   */\n      swap1\n      pop\n        /* \"#utility.yul\":2784:3150   */\n      swap2\n      swap1\n      pop\n      jump\t// out\n        /* \"#utility.yul\":3156:3522   */\n    tag_172:\n        /* \"#utility.yul\":3298:3301   */\n      0x00\n        /* \"#utility.yul\":3319:3386   */\n      tag_174\n        /* \"#utility.yul\":3383:3385   */\n      0x16\n        /* \"#utility.yul\":3378:3381   */\n      dup4\n        /* \"#utility.yul\":3319:3386   */\n      tag_159\n      jump\t// in\n    tag_174:\n        /* \"#utility.yul\":3312:3386   */\n      swap2\n      pop\n        /* \"#utility.yul\":3395:3488   */\n      tag_175\n        /* \"#utility.yul\":3484:3487   */\n      dup3\n        /* \"#utility.yul\":3395:3488   */\n      tag_176\n      jump\t// in\n    tag_175:\n        /* \"#utility.yul\":3513:3515   */\n      0x20\n        /* \"#utility.yul\":3508:3511   */\n      dup3\n        /* \"#utility.yul\":3504:3516   */\n      add\n        /* \"#utility.yul\":3497:3516   */\n      swap1\n      pop\n        /* \"#utility.yul\":3156:3522   */\n      swap2\n      swap1\n      pop\n      jump\t// out\n        /* \"#utility.yul\":3528:3738   */\n    tag_12:\n        /* \"#utility.yul\":3615:3619   */\n      0x00\n        /* \"#utility.yul\":3653:3655   */\n      0x20\n        /* \"#utility.yul\":3642:3651   */\n      dup3\n        /* \"#utility.yul\":3638:3656   */\n      add\n        /* \"#utility.yul\":3630:3656   */\n      swap1\n      pop\n        /* \"#utility.yul\":3666:3731   */\n      tag_178\n        /* \"#utility.yul\":3728:3729   */\n      0x00\n        /* \"#utility.yul\":3717:3726   */\n      dup4\n        /* \"#utility.yul\":3713:3730   */\n      add\n        /* \"#utility.yul\":3704:3710   */\n      dup5\n        /* \"#utility.yul\":3666:3731   */\n      tag_152\n      jump\t// in\n    tag_178:\n        /* \"#utility.yul\":3528:3738   */\n      swap3\n      swap2\n      pop\n      pop\n      jump\t// out\n        /* \"#utility.yul\":3744:4163   */\n    tag_35:\n        /* \"#utility.yul\":3910:3914   */\n      0x00\n        /* \"#utility.yul\":3948:3950   */\n      0x20\n        /* \"#utility.yul\":3937:3946   */\n      dup3\n        /* \"#utility.yul\":3933:3951   */\n      add\n        /* \"#utility.yul\":3925:3951   */\n      swap1\n      pop\n        /* \"#utility.yul\":3997:4006   */\n      dup2\n        /* \"#utility.yul\":3991:3995   */\n      dup2\n        /* \"#utility.yul\":3987:4007   */\n      sub\n        /* \"#utility.yul\":3983:3984   */\n      0x00\n        /* \"#utility.yul\":3972:3981   */\n      dup4\n        /* \"#utility.yul\":3968:3985   */\n      add\n        /* \"#utility.yul\":3961:4008   */\n      mstore\n        /* \"#utility.yul\":4025:4156   */\n      tag_180\n        /* \"#utility.yul\":4151:4155   */\n      dup2\n        /* \"#utility.yul\":4025:4156   */\n      tag_156\n      jump\t// in\n    tag_180:\n        /* \"#utility.yul\":4017:4156   */\n      swap1\n      pop\n        /* \"#utility.yul\":3744:4163   */\n      swap2\n      swap1\n      pop\n      jump\t// out\n        /* \"#utility.yul\":4169:4588   */\n    tag_54:\n        /* \"#utility.yul\":4335:4339   */\n      0x00\n        /* \"#utility.yul\":4373:4375   */\n      0x20\n        /* \"#utility.yul\":4362:4371   */\n      dup3\n        /* \"#utility.yul\":4358:4376   */\n      add\n        /* \"#utility.yul\":4350:4376   */\n      swap1\n      pop\n        /* \"#utility.yul\":4422:4431   */\n      dup2\n        /* \"#utility.yul\":4416:4420   */\n      dup2\n        /* \"#utility.yul\":4412:4432   */\n      sub\n        /* \"#utility.yul\":4408:4409   */\n      0x00\n        /* \"#utility.yul\":4397:4406   */\n      dup4\n        /* \"#utility.yul\":4393:4410   */\n      add\n        /* \"#utility.yul\":4386:4433   */\n      mstore\n        /* \"#utility.yul\":4450:4581   */\n      tag_182\n        /* \"#utility.yul\":4576:4580   */\n      dup2\n        /* \"#utility.yul\":4450:4581   */\n      tag_162\n      jump\t// in\n    tag_182:\n        /* \"#utility.yul\":4442:4581   */\n      swap1\n      pop\n        /* \"#utility.yul\":4169:4588   */\n      swap2\n      swap1\n      pop\n      jump\t// out\n        /* \"#utility.yul\":4594:5013   */\n    tag_44:\n        /* \"#utility.yul\":4760:4764   */\n      0x00\n        /* \"#utility.yul\":4798:4800   */\n      0x20\n        /* \"#utility.yul\":4787:4796   */\n      dup3\n        /* \"#utility.yul\":4783:4801   */\n      add\n        /* \"#utility.yul\":4775:4801   */\n      swap1\n      pop\n        /* \"#utility.yul\":4847:4856   */\n      dup2\n        /* \"#utility.yul\":4841:4845   */\n      dup2\n        /* \"#utility.yul\":4837:4857   */\n      sub\n        /* \"#utility.yul\":4833:4834   */\n      0x00\n        /* \"#utility.yul\":4822:4831   */\n      dup4\n        /* \"#utility.yul\":4818:4835   */\n      add\n        /* \"#utility.yul\":4811:4858   */\n      mstore\n        /* \"#utility.yul\":4875:5006   */\n      tag_184\n        /* \"#utility.yul\":5001:5005   */\n      dup2\n        /* \"#utility.yul\":4875:5006   */\n      tag_167\n      jump\t// in\n    tag_184:\n        /* \"#utility.yul\":4867:5006   */\n      swap1\n      pop\n        /* \"#utility.yul\":4594:5013   */\n      swap2\n      swap1\n      pop\n      jump\t// out\n        /* \"#utility.yul\":5019:5438   */\n    tag_29:\n        /* \"#utility.yul\":5185:5189   */\n      0x00\n        /* \"#utility.yul\":5223:5225   */\n      0x20\n        /* \"#utility.yul\":5212:5221   */\n      dup3\n        /* \"#utility.yul\":5208:5226   */\n      add\n        /* \"#utility.yul\":5200:5226   */\n      swap1\n      pop\n        /* \"#utility.yul\":5272:5281   */\n      dup2\n        /* \"#utility.yul\":5266:5270   */\n      dup2\n        /* \"#utility.yul\":5262:5282   */\n      sub\n        /* \"#utility.yul\":5258:5259   */\n      0x00\n        /* \"#utility.yul\":5247:5256   */\n      dup4\n        /* \"#utility.yul\":5243:5260   */\n      add\n        /* \"#utility.yul\":5236:5283   */\n      mstore\n        /* \"#utility.yul\":5300:5431   */\n      tag_186\n        /* \"#utility.yul\":5426:5430   */\n      dup2\n        /* \"#utility.yul\":5300:5431   */\n      tag_172\n      jump\t// in\n    tag_186:\n        /* \"#utility.yul\":5292:5431   */\n      swap1\n      pop\n        /* \"#utility.yul\":5019:5438   */\n      swap2\n      swap1\n      pop\n      jump\t// out\n        /* \"#utility.yul\":5444:5573   */\n    tag_123:\n        /* \"#utility.yul\":5478:5484   */\n      0x00\n        /* \"#utility.yul\":5505:5525   */\n      tag_188\n      tag_189\n      jump\t// in\n    tag_188:\n        /* \"#utility.yul\":5495:5525   */\n      swap1\n      pop\n        /* \"#utility.yul\":5534:5567   */\n      tag_190\n        /* \"#utility.yul\":5562:5566   */\n      dup3\n        /* \"#utility.yul\":5554:5560   */\n      dup3\n        /* \"#utility.yul\":5534:5567   */\n      tag_191\n      jump\t// in\n    tag_190:\n        /* \"#utility.yul\":5444:5573   */\n      swap2\n      swap1\n      pop\n      jump\t// out\n        /* \"#utility.yul\":5579:5654   */\n    tag_189:\n        /* \"#utility.yul\":5612:5618   */\n      0x00\n        /* \"#utility.yul\":5645:5647   */\n      0x40\n        /* \"#utility.yul\":5639:5648   */\n      mload\n        /* \"#utility.yul\":5629:5648   */\n      swap1\n      pop\n        /* \"#utility.yul\":5579:5654   */\n      swap1\n      jump\t// out\n        /* \"#utility.yul\":5660:5968   */\n    tag_122:\n        /* \"#utility.yul\":5722:5726   */\n      0x00\n        /* \"#utility.yul\":5812:5830   */\n      0xffffffffffffffff\n        /* \"#utility.yul\":5804:5810   */\n      dup3\n        /* \"#utility.yul\":5801:5831   */\n      gt\n        /* \"#utility.yul\":5798:5854   */\n      iszero\n      tag_194\n      jumpi\n        /* \"#utility.yul\":5834:5852   */\n      tag_195\n      tag_196\n      jump\t// in\n    tag_195:\n        /* \"#utility.yul\":5798:5854   */\n    tag_194:\n        /* \"#utility.yul\":5872:5901   */\n      tag_197\n        /* \"#utility.yul\":5894:5900   */\n      dup3\n        /* \"#utility.yul\":5872:5901   */\n      tag_198\n      jump\t// in\n    tag_197:\n        /* \"#utility.yul\":5864:5901   */\n      swap1\n      pop\n        /* \"#utility.yul\":5956:5960   */\n      0x20\n        /* \"#utility.yul\":5950:5954   */\n      dup2\n        /* \"#utility.yul\":5946:5961   */\n      add\n        /* \"#utility.yul\":5938:5961   */\n      swap1\n      pop\n        /* \"#utility.yul\":5660:5968   */\n      swap2\n      swap1\n      pop\n      jump\t// out\n        /* \"#utility.yul\":5974:6143   */\n    tag_159:\n        /* \"#utility.yul\":6058:6069   */\n      0x00\n        /* \"#utility.yul\":6092:6098   */\n      dup3\n        /* \"#utility.yul\":6087:6090   */\n      dup3\n        /* \"#utility.yul\":6080:6099   */\n      mstore\n        /* \"#utility.yul\":6132:6136   */\n      0x20\n        /* \"#utility.yul\":6127:6130   */\n      dup3\n        /* \"#utility.yul\":6123:6137   */\n      add\n        /* \"#utility.yul\":6108:6137   */\n      swap1\n      pop\n        /* \"#utility.yul\":5974:6143   */\n      swap3\n      swap2\n      pop\n      pop\n      jump\t// out\n        /* \"#utility.yul\":6149:6340   */\n    tag_66:\n        /* \"#utility.yul\":6189:6193   */\n      0x00\n        /* \"#utility.yul\":6209:6229   */\n      tag_201\n        /* \"#utility.yul\":6227:6228   */\n      dup3\n        /* \"#utility.yul\":6209:6229   */\n      tag_202\n      jump\t// in\n    tag_201:\n        /* \"#utility.yul\":6204:6229   */\n      swap2\n      pop\n        /* \"#utility.yul\":6243:6263   */\n      tag_203\n        /* \"#utility.yul\":6261:6262   */\n      dup4\n        /* \"#utility.yul\":6243:6263   */\n      tag_202\n      jump\t// in\n    tag_203:\n        /* \"#utility.yul\":6238:6263   */\n      swap3\n      pop\n        /* \"#utility.yul\":6282:6283   */\n      dup3\n        /* \"#utility.yul\":6279:6280   */\n      dup3\n        /* \"#utility.yul\":6276:6284   */\n      lt\n        /* \"#utility.yul\":6273:6307   */\n      iszero\n      tag_204\n      jumpi\n        /* \"#utility.yul\":6287:6305   */\n      tag_205\n      tag_206\n      jump\t// in\n    tag_205:\n        /* \"#utility.yul\":6273:6307   */\n    tag_204:\n        /* \"#utility.yul\":6332:6333   */\n      dup3\n        /* \"#utility.yul\":6329:6330   */\n      dup3\n        /* \"#utility.yul\":6325:6334   */\n      sub\n        /* \"#utility.yul\":6317:6334   */\n      swap1\n      pop\n        /* \"#utility.yul\":6149:6340   */\n      swap3\n      swap2\n      pop\n      pop\n      jump\t// out\n        /* \"#utility.yul\":6346:6442   */\n    tag_207:\n        /* \"#utility.yul\":6383:6390   */\n      0x00\n        /* \"#utility.yul\":6412:6436   */\n      tag_209\n        /* \"#utility.yul\":6430:6435   */\n      dup3\n        /* \"#utility.yul\":6412:6436   */\n      tag_210\n      jump\t// in\n    tag_209:\n        /* \"#utility.yul\":6401:6436   */\n      swap1\n      pop\n        /* \"#utility.yul\":6346:6442   */\n      swap2\n      swap1\n      pop\n      jump\t// out\n        /* \"#utility.yul\":6448:6538   */\n    tag_155:\n        /* \"#utility.yul\":6482:6489   */\n      0x00\n        /* \"#utility.yul\":6525:6530   */\n      dup2\n        /* \"#utility.yul\":6518:6531   */\n      iszero\n        /* \"#utility.yul\":6511:6532   */\n      iszero\n        /* \"#utility.yul\":6500:6532   */\n      swap1\n      pop\n        /* \"#utility.yul\":6448:6538   */\n      swap2\n      swap1\n      pop\n      jump\t// out\n        /* \"#utility.yul\":6544:6670   */\n    tag_210:\n        /* \"#utility.yul\":6581:6588   */\n      0x00\n        /* \"#utility.yul\":6621:6663   */\n      0xffffffffffffffffffffffffffffffffffffffff\n        /* \"#utility.yul\":6614:6619   */\n      dup3\n        /* \"#utility.yul\":6610:6664   */\n      and\n        /* \"#utility.yul\":6599:6664   */\n      swap1\n      pop\n        /* \"#utility.yul\":6544:6670   */\n      swap2\n      swap1\n      pop\n      jump\t// out\n        /* \"#utility.yul\":6676:6753   */\n    tag_202:\n        /* \"#utility.yul\":6713:6720   */\n      0x00\n        /* \"#utility.yul\":6742:6747   */\n      dup2\n        /* \"#utility.yul\":6731:6747   */\n      swap1\n      pop\n        /* \"#utility.yul\":6676:6753   */\n      swap2\n      swap1\n      pop\n      jump\t// out\n        /* \"#utility.yul\":6759:6913   */\n    tag_128:\n        /* \"#utility.yul\":6843:6849   */\n      dup3\n        /* \"#utility.yul\":6838:6841   */\n      dup2\n        /* \"#utility.yul\":6833:6836   */\n      dup4\n        /* \"#utility.yul\":6820:6850   */\n      calldatacopy\n        /* \"#utility.yul\":6905:6906   */\n      0x00\n        /* \"#utility.yul\":6896:6902   */\n      dup4\n        /* \"#utility.yul\":6891:6894   */\n      dup4\n        /* \"#utility.yul\":6887:6903   */\n      add\n        /* \"#utility.yul\":6880:6907   */\n      mstore\n        /* \"#utility.yul\":6759:6913   */\n      pop\n      pop\n      pop\n      jump\t// out\n        /* \"#utility.yul\":6919:7239   */\n    tag_103:\n        /* \"#utility.yul\":6963:6969   */\n      0x00\n        /* \"#utility.yul\":7000:7001   */\n      0x02\n        /* \"#utility.yul\":6994:6998   */\n      dup3\n        /* \"#utility.yul\":6990:7002   */\n      div\n        /* \"#utility.yul\":6980:7002   */\n      swap1\n      pop\n        /* \"#utility.yul\":7047:7048   */\n      0x01\n        /* \"#utility.yul\":7041:7045   */\n      dup3\n        /* \"#utility.yul\":7037:7049   */\n      and\n        /* \"#utility.yul\":7068:7086   */\n      dup1\n        /* \"#utility.yul\":7058:7139   */\n      tag_216\n      jumpi\n        /* \"#utility.yul\":7124:7128   */\n      0x7f\n        /* \"#utility.yul\":7116:7122   */\n      dup3\n        /* \"#utility.yul\":7112:7129   */\n      and\n        /* \"#utility.yul\":7102:7129   */\n      swap2\n      pop\n        /* \"#utility.yul\":7058:7139   */\n    tag_216:\n        /* \"#utility.yul\":7186:7188   */\n      0x20\n        /* \"#utility.yul\":7178:7184   */\n      dup3\n        /* \"#utility.yul\":7175:7189   */\n      lt\n        /* \"#utility.yul\":7155:7173   */\n      dup2\n        /* \"#utility.yul\":7152:7190   */\n      eq\n        /* \"#utility.yul\":7149:7233   */\n      iszero\n      tag_217\n      jumpi\n        /* \"#utility.yul\":7205:7223   */\n      tag_218\n      tag_219\n      jump\t// in\n    tag_218:\n        /* \"#utility.yul\":7149:7233   */\n    tag_217:\n        /* \"#utility.yul\":6970:7239   */\n      pop\n        /* \"#utility.yul\":6919:7239   */\n      swap2\n      swap1\n      pop\n      jump\t// out\n        /* \"#utility.yul\":7245:7526   */\n    tag_191:\n        /* \"#utility.yul\":7328:7355   */\n      tag_221\n        /* \"#utility.yul\":7350:7354   */\n      dup3\n        /* \"#utility.yul\":7328:7355   */\n      tag_198\n      jump\t// in\n    tag_221:\n        /* \"#utility.yul\":7320:7326   */\n      dup2\n        /* \"#utility.yul\":7316:7356   */\n      add\n        /* \"#utility.yul\":7458:7464   */\n      dup2\n        /* \"#utility.yul\":7446:7456   */\n      dup2\n        /* \"#utility.yul\":7443:7465   */\n      lt\n        /* \"#utility.yul\":7422:7440   */\n      0xffffffffffffffff\n        /* \"#utility.yul\":7410:7420   */\n      dup3\n        /* \"#utility.yul\":7407:7441   */\n      gt\n        /* \"#utility.yul\":7404:7466   */\n      or\n        /* \"#utility.yul\":7401:7489   */\n      iszero\n      tag_222\n      jumpi\n        /* \"#utility.yul\":7469:7487   */\n      tag_223\n      tag_196\n      jump\t// in\n    tag_223:\n        /* \"#utility.yul\":7401:7489   */\n    tag_222:\n        /* \"#utility.yul\":7509:7519   */\n      dup1\n        /* \"#utility.yul\":7505:7507   */\n      0x40\n        /* \"#utility.yul\":7498:7520   */\n      mstore\n        /* \"#utility.yul\":7288:7526   */\n      pop\n        /* \"#utility.yul\":7245:7526   */\n      pop\n      pop\n      jump\t// out\n        /* \"#utility.yul\":7532:7765   */\n    tag_64:\n        /* \"#utility.yul\":7571:7574   */\n      0x00\n        /* \"#utility.yul\":7594:7618   */\n      tag_225\n        /* \"#utility.yul\":7612:7617   */\n      dup3\n        /* \"#utility.yul\":7594:7618   */\n      tag_202\n      jump\t// in\n    tag_225:\n        /* \"#utility.yul\":7585:7618   */\n      swap2\n      pop\n        /* \"#utility.yul\":7640:7706   */\n      0xffffffffffffffffffffffffffffffffffffffffffffffffffffffffffffffff\n        /* \"#utility.yul\":7633:7638   */\n      dup3\n        /* \"#utility.yul\":7630:7707   */\n      eq\n        /* \"#utility.yul\":7627:7730   */\n      iszero\n      tag_226\n      jumpi\n        /* \"#utility.yul\":7710:7728   */\n      tag_227\n      tag_206\n      jump\t// in\n    tag_227:\n        /* \"#utility.yul\":7627:7730   */\n    tag_226:\n        /* \"#utility.yul\":7757:7758   */\n      0x01\n        /* \"#utility.yul\":7750:7755   */\n      dup3\n        /* \"#utility.yul\":7746:7759   */\n      add\n        /* \"#utility.yul\":7739:7759   */\n      swap1\n      pop\n        /* \"#utility.yul\":7532:7765   */\n      swap2\n      swap1\n      pop\n      jump\t// out\n        /* \"#utility.yul\":7771:7951   */\n    tag_206:\n        /* \"#utility.yul\":7819:7896   */\n      0x4e487b7100000000000000000000000000000000000000000000000000000000\n        /* \"#utility.yul\":7816:7817   */\n      0x00\n        /* \"#utility.yul\":7809:7897   */\n      mstore\n        /* \"#utility.yul\":7916:7920   */\n      0x11\n        /* \"#utility.yul\":7913:7914   */\n      0x04\n        /* \"#utility.yul\":7906:7921   */\n      mstore\n        /* \"#utility.yul\":7940:7944   */\n      0x24\n        /* \"#utility.yul\":7937:7938   */\n      0x00\n        /* \"#utility.yul\":7930:7945   */\n      revert\n        /* \"#utility.yul\":7957:8137   */\n    tag_219:\n        /* \"#utility.yul\":8005:8082   */\n      0x4e487b7100000000000000000000000000000000000000000000000000000000\n        /* \"#utility.yul\":8002:8003   */\n      0x00\n        /* \"#utility.yul\":7995:8083   */\n      mstore\n        /* \"#utility.yul\":8102:8106   */\n      0x22\n        /* \"#utility.yul\":8099:8100   */\n      0x04\n        /* \"#utility.yul\":8092:8107   */\n      mstore\n        /* \"#utility.yul\":8126:8130   */\n      0x24\n        /* \"#utility.yul\":8123:8124   */\n      0x00\n        /* \"#utility.yul\":8116:8131   */\n      revert\n        /* \"#utility.yul\":8143:8323   */\n    tag_77:\n        /* \"#utility.yul\":8191:8268   */\n      0x4e487b7100000000000000000000000000000000000000000000000000000000\n        /* \"#utility.yul\":8188:8189   */\n      0x00\n        /* \"#utility.yul\":8181:8269   */\n      mstore\n        /* \"#utility.yul\":8288:8292   */\n      0x31\n        /* \"#utility.yul\":8285:8286   */\n      0x04\n        /* \"#utility.yul\":8278:8293   */\n      mstore\n        /* \"#utility.yul\":8312:8316   */\n      0x24\n        /* \"#utility.yul\":8309:8310   */\n      0x00\n        /* \"#utility.yul\":8302:8317   */\n      revert\n        /* \"#utility.yul\":8329:8509   */\n    tag_60:\n        /* \"#utility.yul\":8377:8454   */\n      0x4e487b7100000000000000000000000000000000000000000000000000000000\n        /* \"#utility.yul\":8374:8375   */\n      0x00\n        /* \"#utility.yul\":8367:8455   */\n      mstore\n        /* \"#utility.yul\":8474:8478   */\n      0x32\n        /* \"#utility.yul\":8471:8472   */\n      0x04\n        /* \"#utility.yul\":8464:8479   */\n      mstore\n        /* \"#utility.yul\":8498:8502   */\n      0x24\n        /* \"#utility.yul\":8495:8496   */\n      0x00\n        /* \"#utility.yul\":8488:8503   */\n      revert\n        /* \"#utility.yul\":8515:8695   */\n    tag_196:\n        /* \"#utility.yul\":8563:8640   */\n      0x4e487b7100000000000000000000000000000000000000000000000000000000\n        /* \"#utility.yul\":8560:8561   */\n      0x00\n        /* \"#utility.yul\":8553:8641   */\n      mstore\n        /* \"#utility.yul\":8660:8664   */\n      0x41\n        /* \"#utility.yul\":8657:8658   */\n      0x04\n        /* \"#utility.yul\":8650:8665   */\n      mstore\n        /* \"#utility.yul\":8684:8688   */\n      0x24\n        /* \"#utility.yul\":8681:8682   */\n      0x00\n        /* \"#utility.yul\":8674:8689   */\n      revert\n        /* \"#utility.yul\":8701:8818   */\n    tag_137:\n        /* \"#utility.yul\":8810:8811   */\n      0x00\n        /* \"#utility.yul\":8807:8808   */\n      dup1\n        /* \"#utility.yul\":8800:8812   */\n      revert\n        /* \"#utility.yul\":8824:8941   */\n    tag_126:\n        /* \"#utility.yul\":8933:8934   */\n      0x00\n        /* \"#utility.yul\":8930:8931   */\n      dup1\n        /* \"#utility.yul\":8923:8935   */\n      revert\n        /* \"#utility.yul\":8947:9064   */\n    tag_150:\n        /* \"#utility.yul\":9056:9057   */\n      0x00\n        /* \"#utility.yul\":9053:9054   */\n      dup1\n        /* \"#utility.yul\":9046:9058   */\n      revert\n        /* \"#utility.yul\":9070:9187   */\n    tag_142:\n        /* \"#utility.yul\":9179:9180   */\n      0x00\n        /* \"#utility.yul\":9176:9177   */\n      dup1\n        /* \"#utility.yul\":9169:9181   */\n      revert\n        /* \"#utility.yul\":9193:9295   */\n    tag_198:\n        /* \"#utility.yul\":9234:9240   */\n      0x00\n        /* \"#utility.yul\":9285:9287   */\n      0x1f\n        /* \"#utility.yul\":9281:9288   */\n      not\n        /* \"#utility.yul\":9276:9278   */\n      0x1f\n        /* \"#utility.yul\":9269:9274   */\n      dup4\n        /* \"#utility.yul\":9265:9279   */\n      add\n        /* \"#utility.yul\":9261:9289   */\n      and\n        /* \"#utility.yul\":9251:9289   */\n      swap1\n      pop\n        /* \"#utility.yul\":9193:9295   */\n      swap2\n      swap1\n      pop\n      jump\t// out\n        /* \"#utility.yul\":9301:9473   */\n    tag_161:\n        /* \"#utility.yul\":9441:9465   */\n      0x726573657420636861726163746572206661696c656400000000000000000000\n        /* \"#utility.yul\":9437:9438   */\n      0x00\n        /* \"#utility.yul\":9429:9435   */\n      dup3\n        /* \"#utility.yul\":9425:9439   */\n      add\n        /* \"#utility.yul\":9418:9466   */\n      mstore\n        /* \"#utility.yul\":9301:9473   */\n      pop\n      jump\t// out\n        /* \"#utility.yul\":9479:9652   */\n    tag_166:\n        /* \"#utility.yul\":9619:9644   */\n      0x72656d6f766520636861726163746572206661696c6564000000000000000000\n        /* \"#utility.yul\":9615:9616   */\n      0x00\n        /* \"#utility.yul\":9607:9613   */\n      dup3\n        /* \"#utility.yul\":9603:9617   */\n      add\n        /* \"#utility.yul\":9596:9645   */\n      mstore\n        /* \"#utility.yul\":9479:9652   */\n      pop\n      jump\t// out\n        /* \"#utility.yul\":9658:9828   */\n    tag_171:\n        /* \"#utility.yul\":9798:9820   */\n      0x61646420636861726163746572206661696c6564000000000000000000000000\n        /* \"#utility.yul\":9794:9795   */\n      0x00\n        /* \"#utility.yul\":9786:9792   */\n      dup3\n        /* \"#utility.yul\":9782:9796   */\n      add\n        /* \"#utility.yul\":9775:9821   */\n      mstore\n        /* \"#utility.yul\":9658:9828   */\n      pop\n      jump\t// out\n        /* \"#utility.yul\":9834:10006   */\n    tag_176:\n        /* \"#utility.yul\":9974:9998   */\n      0x6f6e6c79206f776e65722063616e20646f207468697300000000000000000000\n        /* \"#utility.yul\":9970:9971   */\n      0x00\n        /* \"#utility.yul\":9962:9968   */\n      dup3\n        /* \"#utility.yul\":9958:9972   */\n      add\n        /* \"#utility.yul\":9951:9999   */\n      mstore\n        /* \"#utility.yul\":9834:10006   */\n      pop\n      jump\t// out\n        /* \"#utility.yul\":10012:10134   */\n    tag_132:\n        /* \"#utility.yul\":10085:10109   */\n      tag_243\n        /* \"#utility.yul\":10103:10108   */\n      dup2\n        /* \"#utility.yul\":10085:10109   */\n      tag_207\n      jump\t// in\n    tag_243:\n        /* \"#utility.yul\":10078:10083   */\n      dup2\n        /* \"#utility.yul\":10075:10110   */\n      eq\n        /* \"#utility.yul\":10065:10128   */\n      tag_244\n      jumpi\n        /* \"#utility.yul\":10124:10125   */\n      0x00\n        /* \"#utility.yul\":10121:10122   */\n      dup1\n        /* \"#utility.yul\":10114:10126   */\n      revert\n        /* \"#utility.yul\":10065:10128   */\n    tag_244:\n        /* \"#utility.yul\":10012:10134   */\n      pop\n      jump\t// out\n\n    auxdata: 0xa2646970667358221220d33e05f9684613e24dd2cd61dfd1a557fa3c3080cbb9573efde3e2237f3f685f64736f6c63430008070033\n}\n",
				"bytecode": {
					"linkReferences": {},
					"object": "608060405234801561001057600080fd5b5033600360006101000a81548173ffffffffffffffffffffffffffffffffffffffff021916908373ffffffffffffffffffffffffffffffffffffffff160217905550610fd7806100616000396000f3fe608060405234801561001057600080fd5b506004361061004c5760003560e01c80637e496913146100515780638ec856db14610081578063d17ddc0f146100b1578063d3aa4aab146100e1575b600080fd5b61006b60048036038101906100669190610aa6565b610111565b6040516100789190610b9d565b60405180910390f35b61009b60048036038101906100969190610aa6565b610208565b6040516100a89190610b9d565b60405180910390f35b6100cb60048036038101906100c69190610a79565b610362565b6040516100d89190610b9d565b60405180910390f35b6100fb60048036038101906100f69190610a79565b61064a565b6040516101089190610b9d565b60405180910390f35b6000600360009054906101000a900473ffffffffffffffffffffffffffffffffffffffff1673ffffffffffffffffffffffffffffffffffffffff163373ffffffffffffffffffffffffffffffffffffffff16146101a3576040517f08c379a000000000000000000000000000000000000000000000000000000000815260040161019a90610c18565b60405180910390fd5b60006101bb848460006106679092919063ffffffff16565b9050806101fd576040517f08c379a00000000000000000000000000000000000000000000000000000000081526004016101f490610bb8565b60405180910390fd5b600191505092915050565b6000600360009054906101000a900473ffffffffffffffffffffffffffffffffffffffff1673ffffffffffffffffffffffffffffffffffffffff163373ffffffffffffffffffffffffffffffffffffffff161461029a576040517f08c379a000000000000000000000000000000000000000000000000000000000815260040161029190610c18565b60405180910390fd5b60006102b2848460006106e29092919063ffffffff16565b9050806102f4576040517f08c379a00000000000000000000000000000000000000000000000000000000081526004016102eb90610bf8565b60405180910390fd5b6002849080600181540180825580915050600190039060005260206000200160009091909190916101000a81548173ffffffffffffffffffffffffffffffffffffffff021916908373ffffffffffffffffffffffffffffffffffffffff160217905550600191505092915050565b6000600360009054906101000a900473ffffffffffffffffffffffffffffffffffffffff1673ffffffffffffffffffffffffffffffffffffffff163373ffffffffffffffffffffffffffffffffffffffff16146103f4576040517f08c379a00000000000000000000000000000000000000000000000000000000081526004016103eb90610c18565b60405180910390fd5b600061040a8360006107b890919063ffffffff16565b90508061044c576040517f08c379a000000000000000000000000000000000000000000000000000000000815260040161044390610bd8565b60405180910390fd5b60005b6002805490508110156104e657600281815481106104705761046f610e63565b5b9060005260206000200160009054906101000a900473ffffffffffffffffffffffffffffffffffffffff1673ffffffffffffffffffffffffffffffffffffffff168473ffffffffffffffffffffffffffffffffffffffff1614156104d3576104e6565b80806104de90610d8d565b91505061044f565b60016002805490506104f89190610c9f565b8110156105f757600260016002805490506105139190610c9f565b8154811061052457610523610e63565b5b9060005260206000200160009054906101000a900473ffffffffffffffffffffffffffffffffffffffff166002828154811061056357610562610e63565b5b9060005260206000200160006101000a81548173ffffffffffffffffffffffffffffffffffffffff021916908373ffffffffffffffffffffffffffffffffffffffff16021790555060028054806105bd576105bc610e34565b5b6001900381819060005260206000200160006101000a81549073ffffffffffffffffffffffffffffffffffffffff0219169055905561063f565b600280548061060957610608610e34565b5b6001900381819060005260206000200160006101000a81549073ffffffffffffffffffffffffffffffffffffffff021916905590555b600192505050919050565b600061066082600061087a90919063ffffffff16565b9050919050565b6000610673848461087a565b61068057600090506106db565b818460010160008573ffffffffffffffffffffffffffffffffffffffff1673ffffffffffffffffffffffffffffffffffffffff16815260200190815260200160002090805190602001906106d5929190610911565b50600190505b9392505050565b60006106ee848461087a565b156106fc57600090506107b1565b60018460000160008573ffffffffffffffffffffffffffffffffffffffff1673ffffffffffffffffffffffffffffffffffffffff16815260200190815260200160002060006101000a81548160ff021916908315150217905550818460010160008573ffffffffffffffffffffffffffffffffffffffff1673ffffffffffffffffffffffffffffffffffffffff16815260200190815260200160002090805190602001906107ab929190610911565b50600190505b9392505050565b60006107c4838361087a565b6107d15760009050610874565b8260000160008373ffffffffffffffffffffffffffffffffffffffff1673ffffffffffffffffffffffffffffffffffffffff16815260200190815260200160002060006101000a81549060ff02191690558260010160008373ffffffffffffffffffffffffffffffffffffffff1673ffffffffffffffffffffffffffffffffffffffff168152602001908152602001600020600061086f9190610997565b600190505b92915050565b60008073ffffffffffffffffffffffffffffffffffffffff168273ffffffffffffffffffffffffffffffffffffffff1614156108b9576000905061090b565b8260000160008373ffffffffffffffffffffffffffffffffffffffff1673ffffffffffffffffffffffffffffffffffffffff16815260200190815260200160002060009054906101000a900460ff1690505b92915050565b82805461091d90610d2a565b90600052602060002090601f01602090048101928261093f5760008555610986565b82601f1061095857805160ff1916838001178555610986565b82800160010185558215610986579182015b8281111561098557825182559160200191906001019061096a565b5b50905061099391906109d7565b5090565b5080546109a390610d2a565b6000825580601f106109b557506109d4565b601f0160209004906000526020600020908101906109d391906109d7565b5b50565b5b808211156109f05760008160009055506001016109d8565b5090565b6000610a07610a0284610c5d565b610c38565b905082815260208101848484011115610a2357610a22610ec6565b5b610a2e848285610d1b565b509392505050565b600081359050610a4581610f8a565b92915050565b600082601f830112610a6057610a5f610ec1565b5b8135610a708482602086016109f4565b91505092915050565b600060208284031215610a8f57610a8e610ed0565b5b6000610a9d84828501610a36565b91505092915050565b60008060408385031215610abd57610abc610ed0565b5b6000610acb85828601610a36565b925050602083013567ffffffffffffffff811115610aec57610aeb610ecb565b5b610af885828601610a4b565b9150509250929050565b610b0b81610ce5565b82525050565b6000610b1e601683610c8e565b9150610b2982610ee6565b602082019050919050565b6000610b41601783610c8e565b9150610b4c82610f0f565b602082019050919050565b6000610b64601483610c8e565b9150610b6f82610f38565b602082019050919050565b6000610b87601683610c8e565b9150610b9282610f61565b602082019050919050565b6000602082019050610bb26000830184610b02565b92915050565b60006020820190508181036000830152610bd181610b11565b9050919050565b60006020820190508181036000830152610bf181610b34565b9050919050565b60006020820190508181036000830152610c1181610b57565b9050919050565b60006020820190508181036000830152610c3181610b7a565b9050919050565b6000610c42610c53565b9050610c4e8282610d5c565b919050565b6000604051905090565b600067ffffffffffffffff821115610c7857610c77610e92565b5b610c8182610ed5565b9050602081019050919050565b600082825260208201905092915050565b6000610caa82610d11565b9150610cb583610d11565b925082821015610cc857610cc7610dd6565b5b828203905092915050565b6000610cde82610cf1565b9050919050565b60008115159050919050565b600073ffffffffffffffffffffffffffffffffffffffff82169050919050565b6000819050919050565b82818337600083830152505050565b60006002820490506001821680610d4257607f821691505b60208210811415610d5657610d55610e05565b5b50919050565b610d6582610ed5565b810181811067ffffffffffffffff82111715610d8457610d83610e92565b5b80604052505050565b6000610d9882610d11565b91507fffffffffffffffffffffffffffffffffffffffffffffffffffffffffffffffff821415610dcb57610dca610dd6565b5b600182019050919050565b7f4e487b7100000000000000000000000000000000000000000000000000000000600052601160045260246000fd5b7f4e487b7100000000000000000000000000000000000000000000000000000000600052602260045260246000fd5b7f4e487b7100000000000000000000000000000000000000000000000000000000600052603160045260246000fd5b7f4e487b7100000000000000000000000000000000000000000000000000000000600052603260045260246000fd5b7f4e487b7100000000000000000000000000000000000000000000000000000000600052604160045260246000fd5b600080fd5b600080fd5b600080fd5b600080fd5b6000601f19601f8301169050919050565b7f726573657420636861726163746572206661696c656400000000000000000000600082015250565b7f72656d6f766520636861726163746572206661696c6564000000000000000000600082015250565b7f61646420636861726163746572206661696c6564000000000000000000000000600082015250565b7f6f6e6c79206f776e65722063616e20646f207468697300000000000000000000600082015250565b610f9381610cd3565b8114610f9e57600080fd5b5056fea2646970667358221220d33e05f9684613e24dd2cd61dfd1a557fa3c3080cbb9573efde3e2237f3f685f64736f6c63430008070033",
					"opcodes": "PUSH1 0x80 PUSH1 0x40 MSTORE CALLVALUE DUP1 ISZERO PUSH2 0x10 JUMPI PUSH1 0x0 DUP1 REVERT JUMPDEST POP CALLER PUSH1 0x3 PUSH1 0x0 PUSH2 0x100 EXP DUP2 SLOAD DUP2 PUSH20 0xFFFFFFFFFFFFFFFFFFFFFFFFFFFFFFFFFFFFFFFF MUL NOT AND SWAP1 DUP4 PUSH20 0xFFFFFFFFFFFFFFFFFFFFFFFFFFFFFFFFFFFFFFFF AND MUL OR SWAP1 SSTORE POP PUSH2 0xFD7 DUP1 PUSH2 0x61 PUSH1 0x0 CODECOPY PUSH1 0x0 RETURN INVALID PUSH1 0x80 PUSH1 0x40 MSTORE CALLVALUE DUP1 ISZERO PUSH2 0x10 JUMPI PUSH1 0x0 DUP1 REVERT JUMPDEST POP PUSH1 0x4 CALLDATASIZE LT PUSH2 0x4C JUMPI PUSH1 0x0 CALLDATALOAD PUSH1 0xE0 SHR DUP1 PUSH4 0x7E496913 EQ PUSH2 0x51 JUMPI DUP1 PUSH4 0x8EC856DB EQ PUSH2 0x81 JUMPI DUP1 PUSH4 0xD17DDC0F EQ PUSH2 0xB1 JUMPI DUP1 PUSH4 0xD3AA4AAB EQ PUSH2 0xE1 JUMPI JUMPDEST PUSH1 0x0 DUP1 REVERT JUMPDEST PUSH2 0x6B PUSH1 0x4 DUP1 CALLDATASIZE SUB DUP2 ADD SWAP1 PUSH2 0x66 SWAP2 SWAP1 PUSH2 0xAA6 JUMP JUMPDEST PUSH2 0x111 JUMP JUMPDEST PUSH1 0x40 MLOAD PUSH2 0x78 SWAP2 SWAP1 PUSH2 0xB9D JUMP JUMPDEST PUSH1 0x40 MLOAD DUP1 SWAP2 SUB SWAP1 RETURN JUMPDEST PUSH2 0x9B PUSH1 0x4 DUP1 CALLDATASIZE SUB DUP2 ADD SWAP1 PUSH2 0x96 SWAP2 SWAP1 PUSH2 0xAA6 JUMP JUMPDEST PUSH2 0x208 JUMP JUMPDEST PUSH1 0x40 MLOAD PUSH2 0xA8 SWAP2 SWAP1 PUSH2 0xB9D JUMP JUMPDEST PUSH1 0x40 MLOAD DUP1 SWAP2 SUB SWAP1 RETURN JUMPDEST PUSH2 0xCB PUSH1 0x4 DUP1 CALLDATASIZE SUB DUP2 ADD SWAP1 PUSH2 0xC6 SWAP2 SWAP1 PUSH2 0xA79 JUMP JUMPDEST PUSH2 0x362 JUMP JUMPDEST PUSH1 0x40 MLOAD PUSH2 0xD8 SWAP2 SWAP1 PUSH2 0xB9D JUMP JUMPDEST PUSH1 0x40 MLOAD DUP1 SWAP2 SUB SWAP1 RETURN JUMPDEST PUSH2 0xFB PUSH1 0x4 DUP1 CALLDATASIZE SUB DUP2 ADD SWAP1 PUSH2 0xF6 SWAP2 SWAP1 PUSH2 0xA79 JUMP JUMPDEST PUSH2 0x64A JUMP JUMPDEST PUSH1 0x40 MLOAD PUSH2 0x108 SWAP2 SWAP1 PUSH2 0xB9D JUMP JUMPDEST PUSH1 0x40 MLOAD DUP1 SWAP2 SUB SWAP1 RETURN JUMPDEST PUSH1 0x0 PUSH1 0x3 PUSH1 0x0 SWAP1 SLOAD SWAP1 PUSH2 0x100 EXP SWAP1 DIV PUSH20 0xFFFFFFFFFFFFFFFFFFFFFFFFFFFFFFFFFFFFFFFF AND PUSH20 0xFFFFFFFFFFFFFFFFFFFFFFFFFFFFFFFFFFFFFFFF AND CALLER PUSH20 0xFFFFFFFFFFFFFFFFFFFFFFFFFFFFFFFFFFFFFFFF AND EQ PUSH2 0x1A3 JUMPI PUSH1 0x40 MLOAD PUSH32 0x8C379A000000000000000000000000000000000000000000000000000000000 DUP2 MSTORE PUSH1 0x4 ADD PUSH2 0x19A SWAP1 PUSH2 0xC18 JUMP JUMPDEST PUSH1 0x40 MLOAD DUP1 SWAP2 SUB SWAP1 REVERT JUMPDEST PUSH1 0x0 PUSH2 0x1BB DUP5 DUP5 PUSH1 0x0 PUSH2 0x667 SWAP1 SWAP3 SWAP2 SWAP1 PUSH4 0xFFFFFFFF AND JUMP JUMPDEST SWAP1 POP DUP1 PUSH2 0x1FD JUMPI PUSH1 0x40 MLOAD PUSH32 0x8C379A000000000000000000000000000000000000000000000000000000000 DUP2 MSTORE PUSH1 0x4 ADD PUSH2 0x1F4 SWAP1 PUSH2 0xBB8 JUMP JUMPDEST PUSH1 0x40 MLOAD DUP1 SWAP2 SUB SWAP1 REVERT JUMPDEST PUSH1 0x1 SWAP2 POP POP SWAP3 SWAP2 POP POP JUMP JUMPDEST PUSH1 0x0 PUSH1 0x3 PUSH1 0x0 SWAP1 SLOAD SWAP1 PUSH2 0x100 EXP SWAP1 DIV PUSH20 0xFFFFFFFFFFFFFFFFFFFFFFFFFFFFFFFFFFFFFFFF AND PUSH20 0xFFFFFFFFFFFFFFFFFFFFFFFFFFFFFFFFFFFFFFFF AND CALLER PUSH20 0xFFFFFFFFFFFFFFFFFFFFFFFFFFFFFFFFFFFFFFFF AND EQ PUSH2 0x29A JUMPI PUSH1 0x40 MLOAD PUSH32 0x8C379A000000000000000000000000000000000000000000000000000000000 DUP2 MSTORE PUSH1 0x4 ADD PUSH2 0x291 SWAP1 PUSH2 0xC18 JUMP JUMPDEST PUSH1 0x40 MLOAD DUP1 SWAP2 SUB SWAP1 REVERT JUMPDEST PUSH1 0x0 PUSH2 0x2B2 DUP5 DUP5 PUSH1 0x0 PUSH2 0x6E2 SWAP1 SWAP3 SWAP2 SWAP1 PUSH4 0xFFFFFFFF AND JUMP JUMPDEST SWAP1 POP DUP1 PUSH2 0x2F4 JUMPI PUSH1 0x40 MLOAD PUSH32 0x8C379A000000000000000000000000000000000000000000000000000000000 DUP2 MSTORE PUSH1 0x4 ADD PUSH2 0x2EB SWAP1 PUSH2 0xBF8 JUMP JUMPDEST PUSH1 0x40 MLOAD DUP1 SWAP2 SUB SWAP1 REVERT JUMPDEST PUSH1 0x2 DUP5 SWAP1 DUP1 PUSH1 0x1 DUP2 SLOAD ADD DUP1 DUP3 SSTORE DUP1 SWAP2 POP POP PUSH1 0x1 SWAP1 SUB SWAP1 PUSH1 0x0 MSTORE PUSH1 0x20 PUSH1 0x0 KECCAK256 ADD PUSH1 0x0 SWAP1 SWAP2 SWAP1 SWAP2 SWAP1 SWAP2 PUSH2 0x100 EXP DUP2 SLOAD DUP2 PUSH20 0xFFFFFFFFFFFFFFFFFFFFFFFFFFFFFFFFFFFFFFFF MUL NOT AND SWAP1 DUP4 PUSH20 0xFFFFFFFFFFFFFFFFFFFFFFFFFFFFFFFFFFFFFFFF AND MUL OR SWAP1 SSTORE POP PUSH1 0x1 SWAP2 POP POP SWAP3 SWAP2 POP POP JUMP JUMPDEST PUSH1 0x0 PUSH1 0x3 PUSH1 0x0 SWAP1 SLOAD SWAP1 PUSH2 0x100 EXP SWAP1 DIV PUSH20 0xFFFFFFFFFFFFFFFFFFFFFFFFFFFFFFFFFFFFFFFF AND PUSH20 0xFFFFFFFFFFFFFFFFFFFFFFFFFFFFFFFFFFFFFFFF AND CALLER PUSH20 0xFFFFFFFFFFFFFFFFFFFFFFFFFFFFFFFFFFFFFFFF AND EQ PUSH2 0x3F4 JUMPI PUSH1 0x40 MLOAD PUSH32 0x8C379A000000000000000000000000000000000000000000000000000000000 DUP2 MSTORE PUSH1 0x4 ADD PUSH2 0x3EB SWAP1 PUSH2 0xC18 JUMP JUMPDEST PUSH1 0x40 MLOAD DUP1 SWAP2 SUB SWAP1 REVERT JUMPDEST PUSH1 0x0 PUSH2 0x40A DUP4 PUSH1 0x0 PUSH2 0x7B8 SWAP1 SWAP2 SWAP1 PUSH4 0xFFFFFFFF AND JUMP JUMPDEST SWAP1 POP DUP1 PUSH2 0x44C JUMPI PUSH1 0x40 MLOAD PUSH32 0x8C379A000000000000000000000000000000000000000000000000000000000 DUP2 MSTORE PUSH1 0x4 ADD PUSH2 0x443 SWAP1 PUSH2 0xBD8 JUMP JUMPDEST PUSH1 0x40 MLOAD DUP1 SWAP2 SUB SWAP1 REVERT JUMPDEST PUSH1 0x0 JUMPDEST PUSH1 0x2 DUP1 SLOAD SWAP1 POP DUP2 LT ISZERO PUSH2 0x4E6 JUMPI PUSH1 0x2 DUP2 DUP2 SLOAD DUP2 LT PUSH2 0x470 JUMPI PUSH2 0x46F PUSH2 0xE63 JUMP JUMPDEST JUMPDEST SWAP1 PUSH1 0x0 MSTORE PUSH1 0x20 PUSH1 0x0 KECCAK256 ADD PUSH1 0x0 SWAP1 SLOAD SWAP1 PUSH2 0x100 EXP SWAP1 DIV PUSH20 0xFFFFFFFFFFFFFFFFFFFFFFFFFFFFFFFFFFFFFFFF AND PUSH20 0xFFFFFFFFFFFFFFFFFFFFFFFFFFFFFFFFFFFFFFFF AND DUP5 PUSH20 0xFFFFFFFFFFFFFFFFFFFFFFFFFFFFFFFFFFFFFFFF AND EQ ISZERO PUSH2 0x4D3 JUMPI PUSH2 0x4E6 JUMP JUMPDEST DUP1 DUP1 PUSH2 0x4DE SWAP1 PUSH2 0xD8D JUMP JUMPDEST SWAP2 POP POP PUSH2 0x44F JUMP JUMPDEST PUSH1 0x1 PUSH1 0x2 DUP1 SLOAD SWAP1 POP PUSH2 0x4F8 SWAP2 SWAP1 PUSH2 0xC9F JUMP JUMPDEST DUP2 LT ISZERO PUSH2 0x5F7 JUMPI PUSH1 0x2 PUSH1 0x1 PUSH1 0x2 DUP1 SLOAD SWAP1 POP PUSH2 0x513 SWAP2 SWAP1 PUSH2 0xC9F JUMP JUMPDEST DUP2 SLOAD DUP2 LT PUSH2 0x524 JUMPI PUSH2 0x523 PUSH2 0xE63 JUMP JUMPDEST JUMPDEST SWAP1 PUSH1 0x0 MSTORE PUSH1 0x20 PUSH1 0x0 KECCAK256 ADD PUSH1 0x0 SWAP1 SLOAD SWAP1 PUSH2 0x100 EXP SWAP1 DIV PUSH20 0xFFFFFFFFFFFFFFFFFFFFFFFFFFFFFFFFFFFFFFFF AND PUSH1 0x2 DUP3 DUP2 SLOAD DUP2 LT PUSH2 0x563 JUMPI PUSH2 0x562 PUSH2 0xE63 JUMP JUMPDEST JUMPDEST SWAP1 PUSH1 0x0 MSTORE PUSH1 0x20 PUSH1 0x0 KECCAK256 ADD PUSH1 0x0 PUSH2 0x100 EXP DUP2 SLOAD DUP2 PUSH20 0xFFFFFFFFFFFFFFFFFFFFFFFFFFFFFFFFFFFFFFFF MUL NOT AND SWAP1 DUP4 PUSH20 0xFFFFFFFFFFFFFFFFFFFFFFFFFFFFFFFFFFFFFFFF AND MUL OR SWAP1 SSTORE POP PUSH1 0x2 DUP1 SLOAD DUP1 PUSH2 0x5BD JUMPI PUSH2 0x5BC PUSH2 0xE34 JUMP JUMPDEST JUMPDEST PUSH1 0x1 SWAP1 SUB DUP2 DUP2 SWAP1 PUSH1 0x0 MSTORE PUSH1 0x20 PUSH1 0x0 KECCAK256 ADD PUSH1 0x0 PUSH2 0x100 EXP DUP2 SLOAD SWAP1 PUSH20 0xFFFFFFFFFFFFFFFFFFFFFFFFFFFFFFFFFFFFFFFF MUL NOT AND SWAP1 SSTORE SWAP1 SSTORE PUSH2 0x63F JUMP JUMPDEST PUSH1 0x2 DUP1 SLOAD DUP1 PUSH2 0x609 JUMPI PUSH2 0x608 PUSH2 0xE34 JUMP JUMPDEST JUMPDEST PUSH1 0x1 SWAP1 SUB DUP2 DUP2 SWAP1 PUSH1 0x0 MSTORE PUSH1 0x20 PUSH1 0x0 KECCAK256 ADD PUSH1 0x0 PUSH2 0x100 EXP DUP2 SLOAD SWAP1 PUSH20 0xFFFFFFFFFFFFFFFFFFFFFFFFFFFFFFFFFFFFFFFF MUL NOT AND SWAP1 SSTORE SWAP1 SSTORE JUMPDEST PUSH1 0x1 SWAP3 POP POP POP SWAP2 SWAP1 POP JUMP JUMPDEST PUSH1 0x0 PUSH2 0x660 DUP3 PUSH1 0x0 PUSH2 0x87A SWAP1 SWAP2 SWAP1 PUSH4 0xFFFFFFFF AND JUMP JUMPDEST SWAP1 POP SWAP2 SWAP1 POP JUMP JUMPDEST PUSH1 0x0 PUSH2 0x673 DUP5 DUP5 PUSH2 0x87A JUMP JUMPDEST PUSH2 0x680 JUMPI PUSH1 0x0 SWAP1 POP PUSH2 0x6DB JUMP JUMPDEST DUP2 DUP5 PUSH1 0x1 ADD PUSH1 0x0 DUP6 PUSH20 0xFFFFFFFFFFFFFFFFFFFFFFFFFFFFFFFFFFFFFFFF AND PUSH20 0xFFFFFFFFFFFFFFFFFFFFFFFFFFFFFFFFFFFFFFFF AND DUP2 MSTORE PUSH1 0x20 ADD SWAP1 DUP2 MSTORE PUSH1 0x20 ADD PUSH1 0x0 KECCAK256 SWAP1 DUP1 MLOAD SWAP1 PUSH1 0x20 ADD SWAP1 PUSH2 0x6D5 SWAP3 SWAP2 SWAP1 PUSH2 0x911 JUMP JUMPDEST POP PUSH1 0x1 SWAP1 POP JUMPDEST SWAP4 SWAP3 POP POP POP JUMP JUMPDEST PUSH1 0x0 PUSH2 0x6EE DUP5 DUP5 PUSH2 0x87A JUMP JUMPDEST ISZERO PUSH2 0x6FC JUMPI PUSH1 0x0 SWAP1 POP PUSH2 0x7B1 JUMP JUMPDEST PUSH1 0x1 DUP5 PUSH1 0x0 ADD PUSH1 0x0 DUP6 PUSH20 0xFFFFFFFFFFFFFFFFFFFFFFFFFFFFFFFFFFFFFFFF AND PUSH20 0xFFFFFFFFFFFFFFFFFFFFFFFFFFFFFFFFFFFFFFFF AND DUP2 MSTORE PUSH1 0x20 ADD SWAP1 DUP2 MSTORE PUSH1 0x20 ADD PUSH1 0x0 KECCAK256 PUSH1 0x0 PUSH2 0x100 EXP DUP2 SLOAD DUP2 PUSH1 0xFF MUL NOT AND SWAP1 DUP4 ISZERO ISZERO MUL OR SWAP1 SSTORE POP DUP2 DUP5 PUSH1 0x1 ADD PUSH1 0x0 DUP6 PUSH20 0xFFFFFFFFFFFFFFFFFFFFFFFFFFFFFFFFFFFFFFFF AND PUSH20 0xFFFFFFFFFFFFFFFFFFFFFFFFFFFFFFFFFFFFFFFF AND DUP2 MSTORE PUSH1 0x20 ADD SWAP1 DUP2 MSTORE PUSH1 0x20 ADD PUSH1 0x0 KECCAK256 SWAP1 DUP1 MLOAD SWAP1 PUSH1 0x20 ADD SWAP1 PUSH2 0x7AB SWAP3 SWAP2 SWAP1 PUSH2 0x911 JUMP JUMPDEST POP PUSH1 0x1 SWAP1 POP JUMPDEST SWAP4 SWAP3 POP POP POP JUMP JUMPDEST PUSH1 0x0 PUSH2 0x7C4 DUP4 DUP4 PUSH2 0x87A JUMP JUMPDEST PUSH2 0x7D1 JUMPI PUSH1 0x0 SWAP1 POP PUSH2 0x874 JUMP JUMPDEST DUP3 PUSH1 0x0 ADD PUSH1 0x0 DUP4 PUSH20 0xFFFFFFFFFFFFFFFFFFFFFFFFFFFFFFFFFFFFFFFF AND PUSH20 0xFFFFFFFFFFFFFFFFFFFFFFFFFFFFFFFFFFFFFFFF AND DUP2 MSTORE PUSH1 0x20 ADD SWAP1 DUP2 MSTORE PUSH1 0x20 ADD PUSH1 0x0 KECCAK256 PUSH1 0x0 PUSH2 0x100 EXP DUP2 SLOAD SWAP1 PUSH1 0xFF MUL NOT AND SWAP1 SSTORE DUP3 PUSH1 0x1 ADD PUSH1 0x0 DUP4 PUSH20 0xFFFFFFFFFFFFFFFFFFFFFFFFFFFFFFFFFFFFFFFF AND PUSH20 0xFFFFFFFFFFFFFFFFFFFFFFFFFFFFFFFFFFFFFFFF AND DUP2 MSTORE PUSH1 0x20 ADD SWAP1 DUP2 MSTORE PUSH1 0x20 ADD PUSH1 0x0 KECCAK256 PUSH1 0x0 PUSH2 0x86F SWAP2 SWAP1 PUSH2 0x997 JUMP JUMPDEST PUSH1 0x1 SWAP1 POP JUMPDEST SWAP3 SWAP2 POP POP JUMP JUMPDEST PUSH1 0x0 DUP1 PUSH20 0xFFFFFFFFFFFFFFFFFFFFFFFFFFFFFFFFFFFFFFFF AND DUP3 PUSH20 0xFFFFFFFFFFFFFFFFFFFFFFFFFFFFFFFFFFFFFFFF AND EQ ISZERO PUSH2 0x8B9 JUMPI PUSH1 0x0 SWAP1 POP PUSH2 0x90B JUMP JUMPDEST DUP3 PUSH1 0x0 ADD PUSH1 0x0 DUP4 PUSH20 0xFFFFFFFFFFFFFFFFFFFFFFFFFFFFFFFFFFFFFFFF AND PUSH20 0xFFFFFFFFFFFFFFFFFFFFFFFFFFFFFFFFFFFFFFFF AND DUP2 MSTORE PUSH1 0x20 ADD SWAP1 DUP2 MSTORE PUSH1 0x20 ADD PUSH1 0x0 KECCAK256 PUSH1 0x0 SWAP1 SLOAD SWAP1 PUSH2 0x100 EXP SWAP1 DIV PUSH1 0xFF AND SWAP1 POP JUMPDEST SWAP3 SWAP2 POP POP JUMP JUMPDEST DUP3 DUP1 SLOAD PUSH2 0x91D SWAP1 PUSH2 0xD2A JUMP JUMPDEST SWAP1 PUSH1 0x0 MSTORE PUSH1 0x20 PUSH1 0x0 KECCAK256 SWAP1 PUSH1 0x1F ADD PUSH1 0x20 SWAP1 DIV DUP2 ADD SWAP3 DUP3 PUSH2 0x93F JUMPI PUSH1 0x0 DUP6 SSTORE PUSH2 0x986 JUMP JUMPDEST DUP3 PUSH1 0x1F LT PUSH2 0x958 JUMPI DUP1 MLOAD PUSH1 0xFF NOT AND DUP4 DUP1 ADD OR DUP6 SSTORE PUSH2 0x986 JUMP JUMPDEST DUP3 DUP1 ADD PUSH1 0x1 ADD DUP6 SSTORE DUP3 ISZERO PUSH2 0x986 JUMPI SWAP2 DUP3 ADD JUMPDEST DUP3 DUP2 GT ISZERO PUSH2 0x985 JUMPI DUP3 MLOAD DUP3 SSTORE SWAP2 PUSH1 0x20 ADD SWAP2 SWAP1 PUSH1 0x1 ADD SWAP1 PUSH2 0x96A JUMP JUMPDEST JUMPDEST POP SWAP1 POP PUSH2 0x993 SWAP2 SWAP1 PUSH2 0x9D7 JUMP JUMPDEST POP SWAP1 JUMP JUMPDEST POP DUP1 SLOAD PUSH2 0x9A3 SWAP1 PUSH2 0xD2A JUMP JUMPDEST PUSH1 0x0 DUP3 SSTORE DUP1 PUSH1 0x1F LT PUSH2 0x9B5 JUMPI POP PUSH2 0x9D4 JUMP JUMPDEST PUSH1 0x1F ADD PUSH1 0x20 SWAP1 DIV SWAP1 PUSH1 0x0 MSTORE PUSH1 0x20 PUSH1 0x0 KECCAK256 SWAP1 DUP2 ADD SWAP1 PUSH2 0x9D3 SWAP2 SWAP1 PUSH2 0x9D7 JUMP JUMPDEST JUMPDEST POP JUMP JUMPDEST JUMPDEST DUP1 DUP3 GT ISZERO PUSH2 0x9F0 JUMPI PUSH1 0x0 DUP2 PUSH1 0x0 SWAP1 SSTORE POP PUSH1 0x1 ADD PUSH2 0x9D8 JUMP JUMPDEST POP SWAP1 JUMP JUMPDEST PUSH1 0x0 PUSH2 0xA07 PUSH2 0xA02 DUP5 PUSH2 0xC5D JUMP JUMPDEST PUSH2 0xC38 JUMP JUMPDEST SWAP1 POP DUP3 DUP2 MSTORE PUSH1 0x20 DUP2 ADD DUP5 DUP5 DUP5 ADD GT ISZERO PUSH2 0xA23 JUMPI PUSH2 0xA22 PUSH2 0xEC6 JUMP JUMPDEST JUMPDEST PUSH2 0xA2E DUP5 DUP3 DUP6 PUSH2 0xD1B JUMP JUMPDEST POP SWAP4 SWAP3 POP POP POP JUMP JUMPDEST PUSH1 0x0 DUP2 CALLDATALOAD SWAP1 POP PUSH2 0xA45 DUP2 PUSH2 0xF8A JUMP JUMPDEST SWAP3 SWAP2 POP POP JUMP JUMPDEST PUSH1 0x0 DUP3 PUSH1 0x1F DUP4 ADD SLT PUSH2 0xA60 JUMPI PUSH2 0xA5F PUSH2 0xEC1 JUMP JUMPDEST JUMPDEST DUP2 CALLDATALOAD PUSH2 0xA70 DUP5 DUP3 PUSH1 0x20 DUP7 ADD PUSH2 0x9F4 JUMP JUMPDEST SWAP2 POP POP SWAP3 SWAP2 POP POP JUMP JUMPDEST PUSH1 0x0 PUSH1 0x20 DUP3 DUP5 SUB SLT ISZERO PUSH2 0xA8F JUMPI PUSH2 0xA8E PUSH2 0xED0 JUMP JUMPDEST JUMPDEST PUSH1 0x0 PUSH2 0xA9D DUP5 DUP3 DUP6 ADD PUSH2 0xA36 JUMP JUMPDEST SWAP2 POP POP SWAP3 SWAP2 POP POP JUMP JUMPDEST PUSH1 0x0 DUP1 PUSH1 0x40 DUP4 DUP6 SUB SLT ISZERO PUSH2 0xABD JUMPI PUSH2 0xABC PUSH2 0xED0 JUMP JUMPDEST JUMPDEST PUSH1 0x0 PUSH2 0xACB DUP6 DUP3 DUP7 ADD PUSH2 0xA36 JUMP JUMPDEST SWAP3 POP POP PUSH1 0x20 DUP4 ADD CALLDATALOAD PUSH8 0xFFFFFFFFFFFFFFFF DUP2 GT ISZERO PUSH2 0xAEC JUMPI PUSH2 0xAEB PUSH2 0xECB JUMP JUMPDEST JUMPDEST PUSH2 0xAF8 DUP6 DUP3 DUP7 ADD PUSH2 0xA4B JUMP JUMPDEST SWAP2 POP POP SWAP3 POP SWAP3 SWAP1 POP JUMP JUMPDEST PUSH2 0xB0B DUP2 PUSH2 0xCE5 JUMP JUMPDEST DUP3 MSTORE POP POP JUMP JUMPDEST PUSH1 0x0 PUSH2 0xB1E PUSH1 0x16 DUP4 PUSH2 0xC8E JUMP JUMPDEST SWAP2 POP PUSH2 0xB29 DUP3 PUSH2 0xEE6 JUMP JUMPDEST PUSH1 0x20 DUP3 ADD SWAP1 POP SWAP2 SWAP1 POP JUMP JUMPDEST PUSH1 0x0 PUSH2 0xB41 PUSH1 0x17 DUP4 PUSH2 0xC8E JUMP JUMPDEST SWAP2 POP PUSH2 0xB4C DUP3 PUSH2 0xF0F JUMP JUMPDEST PUSH1 0x20 DUP3 ADD SWAP1 POP SWAP2 SWAP1 POP JUMP JUMPDEST PUSH1 0x0 PUSH2 0xB64 PUSH1 0x14 DUP4 PUSH2 0xC8E JUMP JUMPDEST SWAP2 POP PUSH2 0xB6F DUP3 PUSH2 0xF38 JUMP JUMPDEST PUSH1 0x20 DUP3 ADD SWAP1 POP SWAP2 SWAP1 POP JUMP JUMPDEST PUSH1 0x0 PUSH2 0xB87 PUSH1 0x16 DUP4 PUSH2 0xC8E JUMP JUMPDEST SWAP2 POP PUSH2 0xB92 DUP3 PUSH2 0xF61 JUMP JUMPDEST PUSH1 0x20 DUP3 ADD SWAP1 POP SWAP2 SWAP1 POP JUMP JUMPDEST PUSH1 0x0 PUSH1 0x20 DUP3 ADD SWAP1 POP PUSH2 0xBB2 PUSH1 0x0 DUP4 ADD DUP5 PUSH2 0xB02 JUMP JUMPDEST SWAP3 SWAP2 POP POP JUMP JUMPDEST PUSH1 0x0 PUSH1 0x20 DUP3 ADD SWAP1 POP DUP2 DUP2 SUB PUSH1 0x0 DUP4 ADD MSTORE PUSH2 0xBD1 DUP2 PUSH2 0xB11 JUMP JUMPDEST SWAP1 POP SWAP2 SWAP1 POP JUMP JUMPDEST PUSH1 0x0 PUSH1 0x20 DUP3 ADD SWAP1 POP DUP2 DUP2 SUB PUSH1 0x0 DUP4 ADD MSTORE PUSH2 0xBF1 DUP2 PUSH2 0xB34 JUMP JUMPDEST SWAP1 POP SWAP2 SWAP1 POP JUMP JUMPDEST PUSH1 0x0 PUSH1 0x20 DUP3 ADD SWAP1 POP DUP2 DUP2 SUB PUSH1 0x0 DUP4 ADD MSTORE PUSH2 0xC11 DUP2 PUSH2 0xB57 JUMP JUMPDEST SWAP1 POP SWAP2 SWAP1 POP JUMP JUMPDEST PUSH1 0x0 PUSH1 0x20 DUP3 ADD SWAP1 POP DUP2 DUP2 SUB PUSH1 0x0 DUP4 ADD MSTORE PUSH2 0xC31 DUP2 PUSH2 0xB7A JUMP JUMPDEST SWAP1 POP SWAP2 SWAP1 POP JUMP JUMPDEST PUSH1 0x0 PUSH2 0xC42 PUSH2 0xC53 JUMP JUMPDEST SWAP1 POP PUSH2 0xC4E DUP3 DUP3 PUSH2 0xD5C JUMP JUMPDEST SWAP2 SWAP1 POP JUMP JUMPDEST PUSH1 0x0 PUSH1 0x40 MLOAD SWAP1 POP SWAP1 JUMP JUMPDEST PUSH1 0x0 PUSH8 0xFFFFFFFFFFFFFFFF DUP3 GT ISZERO PUSH2 0xC78 JUMPI PUSH2 0xC77 PUSH2 0xE92 JUMP JUMPDEST JUMPDEST PUSH2 0xC81 DUP3 PUSH2 0xED5 JUMP JUMPDEST SWAP1 POP PUSH1 0x20 DUP2 ADD SWAP1 POP SWAP2 SWAP1 POP JUMP JUMPDEST PUSH1 0x0 DUP3 DUP3 MSTORE PUSH1 0x20 DUP3 ADD SWAP1 POP SWAP3 SWAP2 POP POP JUMP JUMPDEST PUSH1 0x0 PUSH2 0xCAA DUP3 PUSH2 0xD11 JUMP JUMPDEST SWAP2 POP PUSH2 0xCB5 DUP4 PUSH2 0xD11 JUMP JUMPDEST SWAP3 POP DUP3 DUP3 LT ISZERO PUSH2 0xCC8 JUMPI PUSH2 0xCC7 PUSH2 0xDD6 JUMP JUMPDEST JUMPDEST DUP3 DUP3 SUB SWAP1 POP SWAP3 SWAP2 POP POP JUMP JUMPDEST PUSH1 0x0 PUSH2 0xCDE DUP3 PUSH2 0xCF1 JUMP JUMPDEST SWAP1 POP SWAP2 SWAP1 POP JUMP JUMPDEST PUSH1 0x0 DUP2 ISZERO ISZERO SWAP1 POP SWAP2 SWAP1 POP JUMP JUMPDEST PUSH1 0x0 PUSH20 0xFFFFFFFFFFFFFFFFFFFFFFFFFFFFFFFFFFFFFFFF DUP3 AND SWAP1 POP SWAP2 SWAP1 POP JUMP JUMPDEST PUSH1 0x0 DUP2 SWAP1 POP SWAP2 SWAP1 POP JUMP JUMPDEST DUP3 DUP2 DUP4 CALLDATACOPY PUSH1 0x0 DUP4 DUP4 ADD MSTORE POP POP POP JUMP JUMPDEST PUSH1 0x0 PUSH1 0x2 DUP3 DIV SWAP1 POP PUSH1 0x1 DUP3 AND DUP1 PUSH2 0xD42 JUMPI PUSH1 0x7F DUP3 AND SWAP2 POP JUMPDEST PUSH1 0x20 DUP3 LT DUP2 EQ ISZERO PUSH2 0xD56 JUMPI PUSH2 0xD55 PUSH2 0xE05 JUMP JUMPDEST JUMPDEST POP SWAP2 SWAP1 POP JUMP JUMPDEST PUSH2 0xD65 DUP3 PUSH2 0xED5 JUMP JUMPDEST DUP2 ADD DUP2 DUP2 LT PUSH8 0xFFFFFFFFFFFFFFFF DUP3 GT OR ISZERO PUSH2 0xD84 JUMPI PUSH2 0xD83 PUSH2 0xE92 JUMP JUMPDEST JUMPDEST DUP1 PUSH1 0x40 MSTORE POP POP POP JUMP JUMPDEST PUSH1 0x0 PUSH2 0xD98 DUP3 PUSH2 0xD11 JUMP JUMPDEST SWAP2 POP PUSH32 0xFFFFFFFFFFFFFFFFFFFFFFFFFFFFFFFFFFFFFFFFFFFFFFFFFFFFFFFFFFFFFFFF DUP3 EQ ISZERO PUSH2 0xDCB JUMPI PUSH2 0xDCA PUSH2 0xDD6 JUMP JUMPDEST JUMPDEST PUSH1 0x1 DUP3 ADD SWAP1 POP SWAP2 SWAP1 POP JUMP JUMPDEST PUSH32 0x4E487B7100000000000000000000000000000000000000000000000000000000 PUSH1 0x0 MSTORE PUSH1 0x11 PUSH1 0x4 MSTORE PUSH1 0x24 PUSH1 0x0 REVERT JUMPDEST PUSH32 0x4E487B7100000000000000000000000000000000000000000000000000000000 PUSH1 0x0 MSTORE PUSH1 0x22 PUSH1 0x4 MSTORE PUSH1 0x24 PUSH1 0x0 REVERT JUMPDEST PUSH32 0x4E487B7100000000000000000000000000000000000000000000000000000000 PUSH1 0x0 MSTORE PUSH1 0x31 PUSH1 0x4 MSTORE PUSH1 0x24 PUSH1 0x0 REVERT JUMPDEST PUSH32 0x4E487B7100000000000000000000000000000000000000000000000000000000 PUSH1 0x0 MSTORE PUSH1 0x32 PUSH1 0x4 MSTORE PUSH1 0x24 PUSH1 0x0 REVERT JUMPDEST PUSH32 0x4E487B7100000000000000000000000000000000000000000000000000000000 PUSH1 0x0 MSTORE PUSH1 0x41 PUSH1 0x4 MSTORE PUSH1 0x24 PUSH1 0x0 REVERT JUMPDEST PUSH1 0x0 DUP1 REVERT JUMPDEST PUSH1 0x0 DUP1 REVERT JUMPDEST PUSH1 0x0 DUP1 REVERT JUMPDEST PUSH1 0x0 DUP1 REVERT JUMPDEST PUSH1 0x0 PUSH1 0x1F NOT PUSH1 0x1F DUP4 ADD AND SWAP1 POP SWAP2 SWAP1 POP JUMP JUMPDEST PUSH32 0x726573657420636861726163746572206661696C656400000000000000000000 PUSH1 0x0 DUP3 ADD MSTORE POP JUMP JUMPDEST PUSH32 0x72656D6F766520636861726163746572206661696C6564000000000000000000 PUSH1 0x0 DUP3 ADD MSTORE POP JUMP JUMPDEST PUSH32 0x61646420636861726163746572206661696C6564000000000000000000000000 PUSH1 0x0 DUP3 ADD MSTORE POP JUMP JUMPDEST PUSH32 0x6F6E6C79206F776E65722063616E20646F207468697300000000000000000000 PUSH1 0x0 DUP3 ADD MSTORE POP JUMP JUMPDEST PUSH2 0xF93 DUP2 PUSH2 0xCD3 JUMP JUMPDEST DUP2 EQ PUSH2 0xF9E JUMPI PUSH1 0x0 DUP1 REVERT JUMPDEST POP JUMP INVALID LOG2 PUSH5 0x6970667358 0x22 SLT KECCAK256 0xD3 RETURNDATACOPY SDIV 0xF9 PUSH9 0x4613E24DD2CD61DFD1 0xA5 JUMPI STATICCALL EXTCODECOPY ADDRESS DUP1 0xCB 0xB9 JUMPI RETURNDATACOPY REVERT 0xE3 0xE2 0x23 PUSH32 0x3F685F64736F6C63430008070033000000000000000000000000000000000000 "
				},
				"gasEstimates": {
					"creation": {
						"codeDepositCost": "811000",
						"executionCost": "25110",
						"totalCost": "836110"
					},
					"external": {
						"addCharacter(address,string)": "infinite",
						"isCharacter(address)": "infinite",
						"removeCharacter(address)": "infinite",
						"resetCharacter(address,string)": "infinite"
					}
				},
				"methodIdentifiers": {
					"addCharacter(address,string)": "8ec856db",
					"isCharacter(address)": "d3aa4aab",
					"removeCharacter(address)": "d17ddc0f",
					"resetCharacter(address,string)": "7e496913"
				}
			},
			"storageLayout": {
				"storage": [
					{
						"astId": 9,
						"contract": "marriage/character.sol:Character",
						"label": "character",
						"offset": 0,
						"slot": "0",
						"type": "t_struct(PersonRole)195_storage"
					},
					{
						"astId": 12,
						"contract": "marriage/character.sol:Character",
						"label": "allCharacters",
						"offset": 0,
						"slot": "2",
						"type": "t_array(t_address)dyn_storage"
					},
					{
						"astId": 14,
						"contract": "marriage/character.sol:Character",
						"label": "owner",
						"offset": 0,
						"slot": "3",
						"type": "t_address"
					}
				],
				"types": {
					"t_address": {
						"encoding": "inplace",
						"label": "address",
						"numberOfBytes": "20"
					},
					"t_array(t_address)dyn_storage": {
						"base": "t_address",
						"encoding": "dynamic_array",
						"label": "address[]",
						"numberOfBytes": "32"
					},
					"t_bool": {
						"encoding": "inplace",
						"label": "bool",
						"numberOfBytes": "1"
					},
					"t_mapping(t_address,t_bool)": {
						"encoding": "mapping",
						"key": "t_address",
						"label": "mapping(address => bool)",
						"numberOfBytes": "32",
						"value": "t_bool"
					},
					"t_mapping(t_address,t_string_storage)": {
						"encoding": "mapping",
						"key": "t_address",
						"label": "mapping(address => string)",
						"numberOfBytes": "32",
						"value": "t_string_storage"
					},
					"t_string_storage": {
						"encoding": "bytes",
						"label": "string",
						"numberOfBytes": "32"
					},
					"t_struct(PersonRole)195_storage": {
						"encoding": "inplace",
						"label": "struct Role.PersonRole",
						"members": [
							{
								"astId": 190,
								"contract": "marriage/character.sol:Character",
								"label": "isExists",
								"offset": 0,
								"slot": "0",
								"type": "t_mapping(t_address,t_bool)"
							},
							{
								"astId": 194,
								"contract": "marriage/character.sol:Character",
								"label": "summary",
								"offset": 0,
								"slot": "1",
								"type": "t_mapping(t_address,t_string_storage)"
							}
						],
						"numberOfBytes": "64"
					}
				}
			},
			"userdoc": {
				"kind": "user",
				"methods": {},
				"version": 1
			}
		}
	}
}