{
	"anli/marriage/character.sol": {
		"Character": {
			"abi": [
				{
					"inputs": [],
					"stateMutability": "nonpayable",
					"type": "constructor"
				},
				{
					"inputs": [
						{
							"internalType": "address",
							"name": "_person",
							"type": "address"
						},
						{
							"internalType": "string",
							"name": "_summary",
							"type": "string"
						}
					],
					"name": "addCharacter",
					"outputs": [
						{
							"internalType": "bool",
							"name": "",
							"type": "bool"
						}
					],
					"stateMutability": "nonpayable",
					"type": "function"
				},
				{
					"inputs": [
						{
							"internalType": "address",
							"name": "_person",
							"type": "address"
						}
					],
					"name": "isCharacter",
					"outputs": [
						{
							"internalType": "bool",
							"name": "",
							"type": "bool"
						}
					],
					"stateMutability": "view",
					"type": "function"
				},
				{
					"inputs": [
						{
							"internalType": "address",
							"name": "_person",
							"type": "address"
						}
					],
					"name": "removeCharacter",
					"outputs": [
						{
							"internalType": "bool",
							"name": "",
							"type": "bool"
						}
					],
					"stateMutability": "nonpayable",
					"type": "function"
				},
				{
					"inputs": [
						{
							"internalType": "address",
							"name": "_person",
							"type": "address"
						},
						{
							"internalType": "string",
							"name": "_summary",
							"type": "string"
						}
					],
					"name": "resetCharacter",
					"outputs": [
						{
							"internalType": "bool",
							"name": "",
							"type": "bool"
						}
					],
					"stateMutability": "nonpayable",
					"type": "function"
				}
			],
			"devdoc": {
				"kind": "dev",
				"methods": {},
				"version": 1
			},
			"evm": {
				"assembly": "    /* \"anli/marriage/character.sol\":46:1739  contract Character {... */\n  mstore(0x40, 0x80)\n    /* \"anli/marriage/character.sol\":244:293  constructor() {... */\n  callvalue\n  dup1\n  iszero\n  tag_1\n  jumpi\n  0x00\n  dup1\n  revert\ntag_1:\n  pop\n    /* \"anli/marriage/character.sol\":276:286  msg.sender */\n  caller\n    /* \"anli/marriage/character.sol\":268:273  owner */\n  0x03\n  0x00\n    /* \"anli/marriage/character.sol\":268:286  owner = msg.sender */\n  0x0100\n  exp\n  dup2\n  sload\n  dup2\n  0xffffffffffffffffffffffffffffffffffffffff\n  mul\n  not\n  and\n  swap1\n  dup4\n  0xffffffffffffffffffffffffffffffffffffffff\n  and\n  mul\n  or\n  swap1\n  sstore\n  pop\n    /* \"anli/marriage/character.sol\":46:1739  contract Character {... */\n  dataSize(sub_0)\n  dup1\n  dataOffset(sub_0)\n  0x00\n  codecopy\n  0x00\n  return\nstop\n\nsub_0: assembly {\n        /* \"anli/marriage/character.sol\":46:1739  contract Character {... */\n      mstore(0x40, 0x80)\n      callvalue\n      dup1\n      iszero\n      tag_1\n      jumpi\n      0x00\n      dup1\n      revert\n    tag_1:\n      pop\n      jumpi(tag_2, lt(calldatasize, 0x04))\n      shr(0xe0, calldataload(0x00))\n      dup1\n      0x7e496913\n      eq\n      tag_3\n      jumpi\n      dup1\n      0x8ec856db\n      eq\n      tag_4\n      jumpi\n      dup1\n      0xd17ddc0f\n      eq\n      tag_5\n      jumpi\n      dup1\n      0xd3aa4aab\n      eq\n      tag_6\n      jumpi\n    tag_2:\n      0x00\n      dup1\n      revert\n        /* \"anli/marriage/character.sol\":1497:1732  function resetCharacter(address _person, string memory _summary) public onlyOwner returns (bool) {... */\n    tag_3:\n      tag_7\n      0x04\n      dup1\n      calldatasize\n      sub\n      dup2\n      add\n      swap1\n      tag_8\n      swap2\n      swap1\n      tag_9\n      jump\t// in\n    tag_8:\n      tag_10\n      jump\t// in\n    tag_7:\n      mload(0x40)\n      tag_11\n      swap2\n      swap1\n      tag_12\n      jump\t// in\n    tag_11:\n      mload(0x40)\n      dup1\n      swap2\n      sub\n      swap1\n      return\n        /* \"anli/marriage/character.sol\":536:793  function addCharacter(address _person, string memory _summary) public onlyOwner returns (bool) {... */\n    tag_4:\n      tag_13\n      0x04\n      dup1\n      calldatasize\n      sub\n      dup2\n      add\n      swap1\n      tag_14\n      swap2\n      swap1\n      tag_9\n      jump\t// in\n    tag_14:\n      tag_15\n      jump\t// in\n    tag_13:\n      mload(0x40)\n      tag_16\n      swap2\n      swap1\n      tag_12\n      jump\t// in\n    tag_16:\n      mload(0x40)\n      dup1\n      swap2\n      sub\n      swap1\n      return\n        /* \"anli/marriage/character.sol\":803:1487  function removeCharacter(address _person) public onlyOwner returns (bool) {... */\n    tag_5:\n      tag_17\n      0x04\n      dup1\n      calldatasize\n      sub\n      dup2\n      add\n      swap1\n      tag_18\n      swap2\n      swap1\n      tag_19\n      jump\t// in\n    tag_18:\n      tag_20\n      jump\t// in\n    tag_17:\n      mload(0x40)\n      tag_21\n      swap2\n      swap1\n      tag_12\n      jump\t// in\n    tag_21:\n      mload(0x40)\n      dup1\n      swap2\n      sub\n      swap1\n      return\n        /* \"anli/marriage/character.sol\":411:526  function isCharacter(address _person) public view returns (bool) {... */\n    tag_6:\n      tag_22\n      0x04\n      dup1\n      calldatasize\n      sub\n      dup2\n      add\n      swap1\n      tag_23\n      swap2\n      swap1\n      tag_19\n      jump\t// in\n    tag_23:\n      tag_24\n      jump\t// in\n    tag_22:\n      mload(0x40)\n      tag_25\n      swap2\n      swap1\n      tag_12\n      jump\t// in\n    tag_25:\n      mload(0x40)\n      dup1\n      swap2\n      sub\n      swap1\n      return\n        /* \"anli/marriage/character.sol\":1497:1732  function resetCharacter(address _person, string memory _summary) public onlyOwner returns (bool) {... */\n    tag_10:\n        /* \"anli/marriage/character.sol\":1588:1592  bool */\n      0x00\n        /* \"anli/marriage/character.sol\":356:361  owner */\n      0x03\n      0x00\n      swap1\n      sload\n      swap1\n      0x0100\n      exp\n      swap1\n      div\n      0xffffffffffffffffffffffffffffffffffffffff\n      and\n        /* \"anli/marriage/character.sol\":342:361  msg.sender == owner */\n      0xffffffffffffffffffffffffffffffffffffffff\n      and\n        /* \"anli/marriage/character.sol\":342:352  msg.sender */\n      caller\n        /* \"anli/marriage/character.sol\":342:361  msg.sender == owner */\n      0xffffffffffffffffffffffffffffffffffffffff\n      and\n      eq\n        /* \"anli/marriage/character.sol\":334:383  require(msg.sender == owner, \"only owner can do\") */\n      tag_27\n      jumpi\n      mload(0x40)\n      0x08c379a000000000000000000000000000000000000000000000000000000000\n      dup2\n      mstore\n      0x04\n      add\n      tag_28\n      swap1\n      tag_29\n      jump\t// in\n    tag_28:\n      mload(0x40)\n      dup1\n      swap2\n      sub\n      swap1\n      revert\n    tag_27:\n        /* \"anli/marriage/character.sol\":1604:1611  bool ok */\n      0x00\n        /* \"anli/marriage/character.sol\":1614:1653  characters.resetRole(_person, _summary) */\n      tag_31\n        /* \"anli/marriage/character.sol\":1635:1642  _person */\n      dup5\n        /* \"anli/marriage/character.sol\":1644:1652  _summary */\n      dup5\n        /* \"anli/marriage/character.sol\":1614:1624  characters */\n      0x00\n        /* \"anli/marriage/character.sol\":1614:1634  characters.resetRole */\n      tag_32\n      swap1\n        /* \"anli/marriage/character.sol\":1614:1653  characters.resetRole(_person, _summary) */\n      swap3\n      swap2\n      swap1\n      0xffffffff\n      and\n      jump\t// in\n    tag_31:\n        /* \"anli/marriage/character.sol\":1604:1653  bool ok = characters.resetRole(_person, _summary) */\n      swap1\n      pop\n        /* \"anli/marriage/character.sol\":1671:1673  ok */\n      dup1\n        /* \"anli/marriage/character.sol\":1663:1695  require(ok, \"reset role failed\") */\n      tag_33\n      jumpi\n      mload(0x40)\n      0x08c379a000000000000000000000000000000000000000000000000000000000\n      dup2\n      mstore\n      0x04\n      add\n      tag_34\n      swap1\n      tag_35\n      jump\t// in\n    tag_34:\n      mload(0x40)\n      dup1\n      swap2\n      sub\n      swap1\n      revert\n    tag_33:\n        /* \"anli/marriage/character.sol\":1721:1725  true */\n      0x01\n        /* \"anli/marriage/character.sol\":1714:1725  return true */\n      swap2\n      pop\n      pop\n        /* \"anli/marriage/character.sol\":1497:1732  function resetCharacter(address _person, string memory _summary) public onlyOwner returns (bool) {... */\n      swap3\n      swap2\n      pop\n      pop\n      jump\t// out\n        /* \"anli/marriage/character.sol\":536:793  function addCharacter(address _person, string memory _summary) public onlyOwner returns (bool) {... */\n    tag_15:\n        /* \"anli/marriage/character.sol\":625:629  bool */\n      0x00\n        /* \"anli/marriage/character.sol\":356:361  owner */\n      0x03\n      0x00\n      swap1\n      sload\n      swap1\n      0x0100\n      exp\n      swap1\n      div\n      0xffffffffffffffffffffffffffffffffffffffff\n      and\n        /* \"anli/marriage/character.sol\":342:361  msg.sender == owner */\n      0xffffffffffffffffffffffffffffffffffffffff\n      and\n        /* \"anli/marriage/character.sol\":342:352  msg.sender */\n      caller\n        /* \"anli/marriage/character.sol\":342:361  msg.sender == owner */\n      0xffffffffffffffffffffffffffffffffffffffff\n      and\n      eq\n        /* \"anli/marriage/character.sol\":334:383  require(msg.sender == owner, \"only owner can do\") */\n      tag_37\n      jumpi\n      mload(0x40)\n      0x08c379a000000000000000000000000000000000000000000000000000000000\n      dup2\n      mstore\n      0x04\n      add\n      tag_38\n      swap1\n      tag_29\n      jump\t// in\n    tag_38:\n      mload(0x40)\n      dup1\n      swap2\n      sub\n      swap1\n      revert\n    tag_37:\n        /* \"anli/marriage/character.sol\":641:648  bool ok */\n      0x00\n        /* \"anli/marriage/character.sol\":651:688  characters.addRole(_person, _summary) */\n      tag_40\n        /* \"anli/marriage/character.sol\":670:677  _person */\n      dup5\n        /* \"anli/marriage/character.sol\":679:687  _summary */\n      dup5\n        /* \"anli/marriage/character.sol\":651:661  characters */\n      0x00\n        /* \"anli/marriage/character.sol\":651:669  characters.addRole */\n      tag_41\n      swap1\n        /* \"anli/marriage/character.sol\":651:688  characters.addRole(_person, _summary) */\n      swap3\n      swap2\n      swap1\n      0xffffffff\n      and\n      jump\t// in\n    tag_40:\n        /* \"anli/marriage/character.sol\":641:688  bool ok = characters.addRole(_person, _summary) */\n      swap1\n      pop\n        /* \"anli/marriage/character.sol\":706:708  ok */\n      dup1\n        /* \"anli/marriage/character.sol\":698:728  require(ok, \"add role failed\") */\n      tag_42\n      jumpi\n      mload(0x40)\n      0x08c379a000000000000000000000000000000000000000000000000000000000\n      dup2\n      mstore\n      0x04\n      add\n      tag_43\n      swap1\n      tag_44\n      jump\t// in\n    tag_43:\n      mload(0x40)\n      dup1\n      swap2\n      sub\n      swap1\n      revert\n    tag_42:\n        /* \"anli/marriage/character.sol\":738:751  allCharacters */\n      0x02\n        /* \"anli/marriage/character.sol\":757:764  _person */\n      dup5\n        /* \"anli/marriage/character.sol\":738:765  allCharacters.push(_person) */\n      swap1\n      dup1\n      0x01\n      dup2\n      sload\n      add\n      dup1\n      dup3\n      sstore\n      dup1\n      swap2\n      pop\n      pop\n      0x01\n      swap1\n      sub\n      swap1\n      0x00\n      mstore\n      keccak256(0x00, 0x20)\n      add\n      0x00\n      swap1\n      swap2\n      swap1\n      swap2\n      swap1\n      swap2\n      0x0100\n      exp\n      dup2\n      sload\n      dup2\n      0xffffffffffffffffffffffffffffffffffffffff\n      mul\n      not\n      and\n      swap1\n      dup4\n      0xffffffffffffffffffffffffffffffffffffffff\n      and\n      mul\n      or\n      swap1\n      sstore\n      pop\n        /* \"anli/marriage/character.sol\":782:786  true */\n      0x01\n        /* \"anli/marriage/character.sol\":775:786  return true */\n      swap2\n      pop\n      pop\n        /* \"anli/marriage/character.sol\":536:793  function addCharacter(address _person, string memory _summary) public onlyOwner returns (bool) {... */\n      swap3\n      swap2\n      pop\n      pop\n      jump\t// out\n        /* \"anli/marriage/character.sol\":803:1487  function removeCharacter(address _person) public onlyOwner returns (bool) {... */\n    tag_20:\n        /* \"anli/marriage/character.sol\":871:875  bool */\n      0x00\n        /* \"anli/marriage/character.sol\":356:361  owner */\n      0x03\n      0x00\n      swap1\n      sload\n      swap1\n      0x0100\n      exp\n      swap1\n      div\n      0xffffffffffffffffffffffffffffffffffffffff\n      and\n        /* \"anli/marriage/character.sol\":342:361  msg.sender == owner */\n      0xffffffffffffffffffffffffffffffffffffffff\n      and\n        /* \"anli/marriage/character.sol\":342:352  msg.sender */\n      caller\n        /* \"anli/marriage/character.sol\":342:361  msg.sender == owner */\n      0xffffffffffffffffffffffffffffffffffffffff\n      and\n      eq\n        /* \"anli/marriage/character.sol\":334:383  require(msg.sender == owner, \"only owner can do\") */\n      tag_47\n      jumpi\n      mload(0x40)\n      0x08c379a000000000000000000000000000000000000000000000000000000000\n      dup2\n      mstore\n      0x04\n      add\n      tag_48\n      swap1\n      tag_29\n      jump\t// in\n    tag_48:\n      mload(0x40)\n      dup1\n      swap2\n      sub\n      swap1\n      revert\n    tag_47:\n        /* \"anli/marriage/character.sol\":887:894  bool ok */\n      0x00\n        /* \"anli/marriage/character.sol\":897:927  characters.removeRole(_person) */\n      tag_50\n        /* \"anli/marriage/character.sol\":919:926  _person */\n      dup4\n        /* \"anli/marriage/character.sol\":897:907  characters */\n      0x00\n        /* \"anli/marriage/character.sol\":897:918  characters.removeRole */\n      tag_51\n      swap1\n        /* \"anli/marriage/character.sol\":897:927  characters.removeRole(_person) */\n      swap2\n      swap1\n      0xffffffff\n      and\n      jump\t// in\n    tag_50:\n        /* \"anli/marriage/character.sol\":887:927  bool ok = characters.removeRole(_person) */\n      swap1\n      pop\n        /* \"anli/marriage/character.sol\":945:947  ok */\n      dup1\n        /* \"anli/marriage/character.sol\":937:970  require(ok, \"remove role failed\") */\n      tag_52\n      jumpi\n      mload(0x40)\n      0x08c379a000000000000000000000000000000000000000000000000000000000\n      dup2\n      mstore\n      0x04\n      add\n      tag_53\n      swap1\n      tag_54\n      jump\t// in\n    tag_53:\n      mload(0x40)\n      dup1\n      swap2\n      sub\n      swap1\n      revert\n    tag_52:\n        /* \"anli/marriage/character.sol\":1007:1020  uint256 index */\n      0x00\n        /* \"anli/marriage/character.sol\":1034:1178  for(; index < allCharacters.length; index ++) {... */\n    tag_55:\n        /* \"anli/marriage/character.sol\":1048:1061  allCharacters */\n      0x02\n        /* \"anli/marriage/character.sol\":1048:1068  allCharacters.length */\n      dup1\n      sload\n      swap1\n      pop\n        /* \"anli/marriage/character.sol\":1040:1045  index */\n      dup2\n        /* \"anli/marriage/character.sol\":1040:1068  index < allCharacters.length */\n      lt\n        /* \"anli/marriage/character.sol\":1034:1178  for(; index < allCharacters.length; index ++) {... */\n      iszero\n      tag_56\n      jumpi\n        /* \"anli/marriage/character.sol\":1108:1121  allCharacters */\n      0x02\n        /* \"anli/marriage/character.sol\":1122:1127  index */\n      dup2\n        /* \"anli/marriage/character.sol\":1108:1128  allCharacters[index] */\n      dup2\n      sload\n      dup2\n      lt\n      tag_58\n      jumpi\n      tag_59\n      tag_60\n      jump\t// in\n    tag_59:\n    tag_58:\n      swap1\n      0x00\n      mstore\n      keccak256(0x00, 0x20)\n      add\n      0x00\n      swap1\n      sload\n      swap1\n      0x0100\n      exp\n      swap1\n      div\n      0xffffffffffffffffffffffffffffffffffffffff\n      and\n        /* \"anli/marriage/character.sol\":1097:1128  _person == allCharacters[index] */\n      0xffffffffffffffffffffffffffffffffffffffff\n      and\n        /* \"anli/marriage/character.sol\":1097:1104  _person */\n      dup5\n        /* \"anli/marriage/character.sol\":1097:1128  _person == allCharacters[index] */\n      0xffffffffffffffffffffffffffffffffffffffff\n      and\n      eq\n        /* \"anli/marriage/character.sol\":1094:1168  if(_person == allCharacters[index]) {... */\n      iszero\n      tag_62\n      jumpi\n        /* \"anli/marriage/character.sol\":1148:1153  break */\n      jump(tag_56)\n        /* \"anli/marriage/character.sol\":1094:1168  if(_person == allCharacters[index]) {... */\n    tag_62:\n        /* \"anli/marriage/character.sol\":1070:1078  index ++ */\n      dup1\n      dup1\n      tag_63\n      swap1\n      tag_64\n      jump\t// in\n    tag_63:\n      swap2\n      pop\n      pop\n        /* \"anli/marriage/character.sol\":1034:1178  for(; index < allCharacters.length; index ++) {... */\n      jump(tag_55)\n    tag_56:\n        /* \"anli/marriage/character.sol\":1230:1231  1 */\n      0x01\n        /* \"anli/marriage/character.sol\":1207:1220  allCharacters */\n      0x02\n        /* \"anli/marriage/character.sol\":1207:1227  allCharacters.length */\n      dup1\n      sload\n      swap1\n      pop\n        /* \"anli/marriage/character.sol\":1207:1231  allCharacters.length - 1 */\n      tag_65\n      swap2\n      swap1\n      tag_66\n      jump\t// in\n    tag_65:\n        /* \"anli/marriage/character.sol\":1199:1204  index */\n      dup2\n        /* \"anli/marriage/character.sol\":1199:1231  index < allCharacters.length - 1 */\n      lt\n        /* \"anli/marriage/character.sol\":1196:1442  if(index < allCharacters.length - 1) {... */\n      iszero\n      tag_67\n      jumpi\n        /* \"anli/marriage/character.sol\":1270:1283  allCharacters */\n      0x02\n        /* \"anli/marriage/character.sol\":1307:1308  1 */\n      0x01\n        /* \"anli/marriage/character.sol\":1284:1297  allCharacters */\n      0x02\n        /* \"anli/marriage/character.sol\":1284:1304  allCharacters.length */\n      dup1\n      sload\n      swap1\n      pop\n        /* \"anli/marriage/character.sol\":1284:1308  allCharacters.length - 1 */\n      tag_68\n      swap2\n      swap1\n      tag_66\n      jump\t// in\n    tag_68:\n        /* \"anli/marriage/character.sol\":1270:1309  allCharacters[allCharacters.length - 1] */\n      dup2\n      sload\n      dup2\n      lt\n      tag_69\n      jumpi\n      tag_70\n      tag_60\n      jump\t// in\n    tag_70:\n    tag_69:\n      swap1\n      0x00\n      mstore\n      keccak256(0x00, 0x20)\n      add\n      0x00\n      swap1\n      sload\n      swap1\n      0x0100\n      exp\n      swap1\n      div\n      0xffffffffffffffffffffffffffffffffffffffff\n      and\n        /* \"anli/marriage/character.sol\":1247:1260  allCharacters */\n      0x02\n        /* \"anli/marriage/character.sol\":1261:1266  index */\n      dup3\n        /* \"anli/marriage/character.sol\":1247:1267  allCharacters[index] */\n      dup2\n      sload\n      dup2\n      lt\n      tag_72\n      jumpi\n      tag_73\n      tag_60\n      jump\t// in\n    tag_73:\n    tag_72:\n      swap1\n      0x00\n      mstore\n      keccak256(0x00, 0x20)\n      add\n      0x00\n        /* \"anli/marriage/character.sol\":1247:1309  allCharacters[index] = allCharacters[allCharacters.length - 1] */\n      0x0100\n      exp\n      dup2\n      sload\n      dup2\n      0xffffffffffffffffffffffffffffffffffffffff\n      mul\n      not\n      and\n      swap1\n      dup4\n      0xffffffffffffffffffffffffffffffffffffffff\n      and\n      mul\n      or\n      swap1\n      sstore\n      pop\n        /* \"anli/marriage/character.sol\":1323:1336  allCharacters */\n      0x02\n        /* \"anli/marriage/character.sol\":1323:1342  allCharacters.pop() */\n      dup1\n      sload\n      dup1\n      tag_75\n      jumpi\n      tag_76\n      tag_77\n      jump\t// in\n    tag_76:\n    tag_75:\n      0x01\n      swap1\n      sub\n      dup2\n      dup2\n      swap1\n      0x00\n      mstore\n      keccak256(0x00, 0x20)\n      add\n      exp(0x0100, 0x00)\n      dup2\n      sload\n      swap1\n      0xffffffffffffffffffffffffffffffffffffffff\n      mul\n      not\n      and\n      swap1\n      sstore\n      swap1\n      sstore\n        /* \"anli/marriage/character.sol\":1196:1442  if(index < allCharacters.length - 1) {... */\n      jump(tag_79)\n    tag_67:\n        /* \"anli/marriage/character.sol\":1395:1396  1 */\n      0x01\n        /* \"anli/marriage/character.sol\":1372:1385  allCharacters */\n      0x02\n        /* \"anli/marriage/character.sol\":1372:1392  allCharacters.length */\n      dup1\n      sload\n      swap1\n      pop\n        /* \"anli/marriage/character.sol\":1372:1396  allCharacters.length - 1 */\n      tag_80\n      swap2\n      swap1\n      tag_66\n      jump\t// in\n    tag_80:\n        /* \"anli/marriage/character.sol\":1363:1368  index */\n      dup2\n        /* \"anli/marriage/character.sol\":1363:1396  index == allCharacters.length - 1 */\n      eq\n        /* \"anli/marriage/character.sol\":1359:1442  if (index == allCharacters.length - 1) {... */\n      iszero\n      tag_81\n      jumpi\n        /* \"anli/marriage/character.sol\":1412:1425  allCharacters */\n      0x02\n        /* \"anli/marriage/character.sol\":1412:1431  allCharacters.pop() */\n      dup1\n      sload\n      dup1\n      tag_82\n      jumpi\n      tag_83\n      tag_77\n      jump\t// in\n    tag_83:\n    tag_82:\n      0x01\n      swap1\n      sub\n      dup2\n      dup2\n      swap1\n      0x00\n      mstore\n      keccak256(0x00, 0x20)\n      add\n      exp(0x0100, 0x00)\n      dup2\n      sload\n      swap1\n      0xffffffffffffffffffffffffffffffffffffffff\n      mul\n      not\n      and\n      swap1\n      sstore\n      swap1\n      sstore\n        /* \"anli/marriage/character.sol\":1359:1442  if (index == allCharacters.length - 1) {... */\n    tag_81:\n        /* \"anli/marriage/character.sol\":1196:1442  if(index < allCharacters.length - 1) {... */\n    tag_79:\n        /* \"anli/marriage/character.sol\":1476:1480  true */\n      0x01\n        /* \"anli/marriage/character.sol\":1469:1480  return true */\n      swap3\n      pop\n      pop\n      pop\n        /* \"anli/marriage/character.sol\":803:1487  function removeCharacter(address _person) public onlyOwner returns (bool) {... */\n      swap2\n      swap1\n      pop\n      jump\t// out\n        /* \"anli/marriage/character.sol\":411:526  function isCharacter(address _person) public view returns (bool) {... */\n    tag_24:\n        /* \"anli/marriage/character.sol\":470:474  bool */\n      0x00\n        /* \"anli/marriage/character.sol\":493:519  characters.isRole(_person) */\n      tag_86\n        /* \"anli/marriage/character.sol\":511:518  _person */\n      dup3\n        /* \"anli/marriage/character.sol\":493:503  characters */\n      0x00\n        /* \"anli/marriage/character.sol\":493:510  characters.isRole */\n      tag_87\n      swap1\n        /* \"anli/marriage/character.sol\":493:519  characters.isRole(_person) */\n      swap2\n      swap1\n      0xffffffff\n      and\n      jump\t// in\n    tag_86:\n        /* \"anli/marriage/character.sol\":486:519  return characters.isRole(_person) */\n      swap1\n      pop\n        /* \"anli/marriage/character.sol\":411:526  function isCharacter(address _person) public view returns (bool) {... */\n      swap2\n      swap1\n      pop\n      jump\t// out\n        /* \"anli/marriage/role.sol\":963:1220  function resetRole(PersonRole storage _role,  address _person, string memory _summary) internal returns(bool)  {... */\n    tag_32:\n        /* \"anli/marriage/role.sol\":1067:1071  bool */\n      0x00\n        /* \"anli/marriage/role.sol\":1088:1110  isRole(_role, _person) */\n      tag_89\n        /* \"anli/marriage/role.sol\":1095:1100  _role */\n      dup5\n        /* \"anli/marriage/role.sol\":1102:1109  _person */\n      dup5\n        /* \"anli/marriage/role.sol\":1088:1094  isRole */\n      tag_87\n        /* \"anli/marriage/role.sol\":1088:1110  isRole(_role, _person) */\n      jump\t// in\n    tag_89:\n        /* \"anli/marriage/role.sol\":1084:1149  if(!isRole(_role, _person)) {... */\n      tag_90\n      jumpi\n        /* \"anli/marriage/role.sol\":1133:1138  false */\n      0x00\n        /* \"anli/marriage/role.sol\":1126:1138  return false */\n      swap1\n      pop\n      jump(tag_88)\n        /* \"anli/marriage/role.sol\":1084:1149  if(!isRole(_role, _person)) {... */\n    tag_90:\n        /* \"anli/marriage/role.sol\":1184:1192  _summary */\n      dup2\n        /* \"anli/marriage/role.sol\":1158:1163  _role */\n      dup5\n        /* \"anli/marriage/role.sol\":1158:1172  _role.summarys */\n      0x01\n      add\n        /* \"anli/marriage/role.sol\":1158:1181  _role.summarys[_person] */\n      0x00\n        /* \"anli/marriage/role.sol\":1173:1180  _person */\n      dup6\n        /* \"anli/marriage/role.sol\":1158:1181  _role.summarys[_person] */\n      0xffffffffffffffffffffffffffffffffffffffff\n      and\n      0xffffffffffffffffffffffffffffffffffffffff\n      and\n      dup2\n      mstore\n      0x20\n      add\n      swap1\n      dup2\n      mstore\n      0x20\n      add\n      0x00\n      keccak256\n        /* \"anli/marriage/role.sol\":1158:1192  _role.summarys[_person] = _summary */\n      swap1\n      dup1\n      mload\n      swap1\n      0x20\n      add\n      swap1\n      tag_91\n      swap3\n      swap2\n      swap1\n      tag_92\n      jump\t// in\n    tag_91:\n      pop\n        /* \"anli/marriage/role.sol\":1209:1213  true */\n      0x01\n        /* \"anli/marriage/role.sol\":1202:1213  return true */\n      swap1\n      pop\n        /* \"anli/marriage/role.sol\":963:1220  function resetRole(PersonRole storage _role,  address _person, string memory _summary) internal returns(bool)  {... */\n    tag_88:\n      swap4\n      swap3\n      pop\n      pop\n      pop\n      jump\t// out\n        /* \"anli/marriage/role.sol\":380:673  function addRole(PersonRole storage _role,  address _person, string memory _summary) internal returns(bool) {... */\n    tag_41:\n        /* \"anli/marriage/role.sol\":482:486  bool */\n      0x00\n        /* \"anli/marriage/role.sol\":501:523  isRole(_role, _person) */\n      tag_94\n        /* \"anli/marriage/role.sol\":508:513  _role */\n      dup5\n        /* \"anli/marriage/role.sol\":515:522  _person */\n      dup5\n        /* \"anli/marriage/role.sol\":501:507  isRole */\n      tag_87\n        /* \"anli/marriage/role.sol\":501:523  isRole(_role, _person) */\n      jump\t// in\n    tag_94:\n        /* \"anli/marriage/role.sol\":498:562  if(isRole(_role, _person)) {... */\n      iszero\n      tag_95\n      jumpi\n        /* \"anli/marriage/role.sol\":546:551  false */\n      0x00\n        /* \"anli/marriage/role.sol\":539:551  return false */\n      swap1\n      pop\n      jump(tag_93)\n        /* \"anli/marriage/role.sol\":498:562  if(isRole(_role, _person)) {... */\n    tag_95:\n        /* \"anli/marriage/role.sol\":597:601  true */\n      0x01\n        /* \"anli/marriage/role.sol\":571:576  _role */\n      dup5\n        /* \"anli/marriage/role.sol\":571:585  _role.isExists */\n      0x00\n      add\n        /* \"anli/marriage/role.sol\":571:594  _role.isExists[_person] */\n      0x00\n        /* \"anli/marriage/role.sol\":586:593  _person */\n      dup6\n        /* \"anli/marriage/role.sol\":571:594  _role.isExists[_person] */\n      0xffffffffffffffffffffffffffffffffffffffff\n      and\n      0xffffffffffffffffffffffffffffffffffffffff\n      and\n      dup2\n      mstore\n      0x20\n      add\n      swap1\n      dup2\n      mstore\n      0x20\n      add\n      0x00\n      keccak256\n      0x00\n        /* \"anli/marriage/role.sol\":571:601  _role.isExists[_person] = true */\n      0x0100\n      exp\n      dup2\n      sload\n      dup2\n      0xff\n      mul\n      not\n      and\n      swap1\n      dup4\n      iszero\n      iszero\n      mul\n      or\n      swap1\n      sstore\n      pop\n        /* \"anli/marriage/role.sol\":637:645  _summary */\n      dup2\n        /* \"anli/marriage/role.sol\":611:616  _role */\n      dup5\n        /* \"anli/marriage/role.sol\":611:625  _role.summarys */\n      0x01\n      add\n        /* \"anli/marriage/role.sol\":611:634  _role.summarys[_person] */\n      0x00\n        /* \"anli/marriage/role.sol\":626:633  _person */\n      dup6\n        /* \"anli/marriage/role.sol\":611:634  _role.summarys[_person] */\n      0xffffffffffffffffffffffffffffffffffffffff\n      and\n      0xffffffffffffffffffffffffffffffffffffffff\n      and\n      dup2\n      mstore\n      0x20\n      add\n      swap1\n      dup2\n      mstore\n      0x20\n      add\n      0x00\n      keccak256\n        /* \"anli/marriage/role.sol\":611:645  _role.summarys[_person] = _summary */\n      swap1\n      dup1\n      mload\n      swap1\n      0x20\n      add\n      swap1\n      tag_96\n      swap3\n      swap2\n      swap1\n      tag_92\n      jump\t// in\n    tag_96:\n      pop\n        /* \"anli/marriage/role.sol\":662:666  true */\n      0x01\n        /* \"anli/marriage/role.sol\":655:666  return true */\n      swap1\n      pop\n        /* \"anli/marriage/role.sol\":380:673  function addRole(PersonRole storage _role,  address _person, string memory _summary) internal returns(bool) {... */\n    tag_93:\n      swap4\n      swap3\n      pop\n      pop\n      pop\n      jump\t// out\n        /* \"anli/marriage/role.sol\":683:953  function removeRole(PersonRole storage _role,  address _person) internal returns (bool) {... */\n    tag_51:\n        /* \"anli/marriage/role.sol\":765:769  bool */\n      0x00\n        /* \"anli/marriage/role.sol\":785:807  isRole(_role, _person) */\n      tag_98\n        /* \"anli/marriage/role.sol\":792:797  _role */\n      dup4\n        /* \"anli/marriage/role.sol\":799:806  _person */\n      dup4\n        /* \"anli/marriage/role.sol\":785:791  isRole */\n      tag_87\n        /* \"anli/marriage/role.sol\":785:807  isRole(_role, _person) */\n      jump\t// in\n    tag_98:\n        /* \"anli/marriage/role.sol\":781:846  if(!isRole(_role, _person)) {... */\n      tag_99\n      jumpi\n        /* \"anli/marriage/role.sol\":830:835  false */\n      0x00\n        /* \"anli/marriage/role.sol\":823:835  return false */\n      swap1\n      pop\n      jump(tag_97)\n        /* \"anli/marriage/role.sol\":781:846  if(!isRole(_role, _person)) {... */\n    tag_99:\n        /* \"anli/marriage/role.sol\":862:867  _role */\n      dup3\n        /* \"anli/marriage/role.sol\":862:876  _role.isExists */\n      0x00\n      add\n        /* \"anli/marriage/role.sol\":862:885  _role.isExists[_person] */\n      0x00\n        /* \"anli/marriage/role.sol\":877:884  _person */\n      dup4\n        /* \"anli/marriage/role.sol\":862:885  _role.isExists[_person] */\n      0xffffffffffffffffffffffffffffffffffffffff\n      and\n      0xffffffffffffffffffffffffffffffffffffffff\n      and\n      dup2\n      mstore\n      0x20\n      add\n      swap1\n      dup2\n      mstore\n      0x20\n      add\n      0x00\n      keccak256\n      0x00\n        /* \"anli/marriage/role.sol\":855:885  delete _role.isExists[_person] */\n      0x0100\n      exp\n      dup2\n      sload\n      swap1\n      0xff\n      mul\n      not\n      and\n      swap1\n      sstore\n        /* \"anli/marriage/role.sol\":902:907  _role */\n      dup3\n        /* \"anli/marriage/role.sol\":902:916  _role.summarys */\n      0x01\n      add\n        /* \"anli/marriage/role.sol\":902:925  _role.summarys[_person] */\n      0x00\n        /* \"anli/marriage/role.sol\":917:924  _person */\n      dup4\n        /* \"anli/marriage/role.sol\":902:925  _role.summarys[_person] */\n      0xffffffffffffffffffffffffffffffffffffffff\n      and\n      0xffffffffffffffffffffffffffffffffffffffff\n      and\n      dup2\n      mstore\n      0x20\n      add\n      swap1\n      dup2\n      mstore\n      0x20\n      add\n      0x00\n      keccak256\n      0x00\n        /* \"anli/marriage/role.sol\":895:925  delete _role.summarys[_person] */\n      tag_100\n      swap2\n      swap1\n      tag_101\n      jump\t// in\n    tag_100:\n        /* \"anli/marriage/role.sol\":942:946  true */\n      0x01\n        /* \"anli/marriage/role.sol\":935:946  return true */\n      swap1\n      pop\n        /* \"anli/marriage/role.sol\":683:953  function removeRole(PersonRole storage _role,  address _person) internal returns (bool) {... */\n    tag_97:\n      swap3\n      swap2\n      pop\n      pop\n      jump\t// out\n        /* \"anli/marriage/role.sol\":162:370  function isRole(PersonRole storage _role,  address _person) internal view returns (bool) {... */\n    tag_87:\n        /* \"anli/marriage/role.sol\":245:249  bool */\n      0x00\n        /* \"anli/marriage/role.sol\":283:284  0 */\n      dup1\n        /* \"anli/marriage/role.sol\":264:285  _person == address(0) */\n      0xffffffffffffffffffffffffffffffffffffffff\n      and\n        /* \"anli/marriage/role.sol\":264:271  _person */\n      dup3\n        /* \"anli/marriage/role.sol\":264:285  _person == address(0) */\n      0xffffffffffffffffffffffffffffffffffffffff\n      and\n      eq\n        /* \"anli/marriage/role.sol\":261:324  if(_person == address(0)) {... */\n      iszero\n      tag_103\n      jumpi\n        /* \"anli/marriage/role.sol\":308:313  false */\n      0x00\n        /* \"anli/marriage/role.sol\":301:313  return false */\n      swap1\n      pop\n      jump(tag_102)\n        /* \"anli/marriage/role.sol\":261:324  if(_person == address(0)) {... */\n    tag_103:\n        /* \"anli/marriage/role.sol\":340:345  _role */\n      dup3\n        /* \"anli/marriage/role.sol\":340:354  _role.isExists */\n      0x00\n      add\n        /* \"anli/marriage/role.sol\":340:363  _role.isExists[_person] */\n      0x00\n        /* \"anli/marriage/role.sol\":355:362  _person */\n      dup4\n        /* \"anli/marriage/role.sol\":340:363  _role.isExists[_person] */\n      0xffffffffffffffffffffffffffffffffffffffff\n      and\n      0xffffffffffffffffffffffffffffffffffffffff\n      and\n      dup2\n      mstore\n      0x20\n      add\n      swap1\n      dup2\n      mstore\n      0x20\n      add\n      0x00\n      keccak256\n      0x00\n      swap1\n      sload\n      swap1\n      0x0100\n      exp\n      swap1\n      div\n      0xff\n      and\n        /* \"anli/marriage/role.sol\":333:363  return _role.isExists[_person] */\n      swap1\n      pop\n        /* \"anli/marriage/role.sol\":162:370  function isRole(PersonRole storage _role,  address _person) internal view returns (bool) {... */\n    tag_102:\n      swap3\n      swap2\n      pop\n      pop\n      jump\t// out\n    tag_92:\n      dup3\n      dup1\n      sload\n      tag_104\n      swap1\n      tag_105\n      jump\t// in\n    tag_104:\n      swap1\n      0x00\n      mstore\n      keccak256(0x00, 0x20)\n      swap1\n      0x1f\n      add\n      0x20\n      swap1\n      div\n      dup2\n      add\n      swap3\n      dup3\n      tag_107\n      jumpi\n      0x00\n      dup6\n      sstore\n      jump(tag_106)\n    tag_107:\n      dup3\n      0x1f\n      lt\n      tag_108\n      jumpi\n      dup1\n      mload\n      not(0xff)\n      and\n      dup4\n      dup1\n      add\n      or\n      dup6\n      sstore\n      jump(tag_106)\n    tag_108:\n      dup3\n      dup1\n      add\n      0x01\n      add\n      dup6\n      sstore\n      dup3\n      iszero\n      tag_106\n      jumpi\n      swap2\n      dup3\n      add\n    tag_109:\n      dup3\n      dup2\n      gt\n      iszero\n      tag_110\n      jumpi\n      dup3\n      mload\n      dup3\n      sstore\n      swap2\n      0x20\n      add\n      swap2\n      swap1\n      0x01\n      add\n      swap1\n      jump(tag_109)\n    tag_110:\n    tag_106:\n      pop\n      swap1\n      pop\n      tag_111\n      swap2\n      swap1\n      tag_112\n      jump\t// in\n    tag_111:\n      pop\n      swap1\n      jump\t// out\n    tag_101:\n      pop\n      dup1\n      sload\n      tag_113\n      swap1\n      tag_105\n      jump\t// in\n    tag_113:\n      0x00\n      dup3\n      sstore\n      dup1\n      0x1f\n      lt\n      tag_115\n      jumpi\n      pop\n      jump(tag_114)\n    tag_115:\n      0x1f\n      add\n      0x20\n      swap1\n      div\n      swap1\n      0x00\n      mstore\n      keccak256(0x00, 0x20)\n      swap1\n      dup2\n      add\n      swap1\n      tag_116\n      swap2\n      swap1\n      tag_112\n      jump\t// in\n    tag_116:\n    tag_114:\n      pop\n      jump\t// out\n    tag_112:\n    tag_117:\n      dup1\n      dup3\n      gt\n      iszero\n      tag_118\n      jumpi\n      0x00\n      dup2\n      0x00\n      swap1\n      sstore\n      pop\n      0x01\n      add\n      jump(tag_117)\n    tag_118:\n      pop\n      swap1\n      jump\t// out\n        /* \"#utility.yul\":7:419   */\n    tag_120:\n        /* \"#utility.yul\":85:90   */\n      0x00\n        /* \"#utility.yul\":110:176   */\n      tag_122\n        /* \"#utility.yul\":126:175   */\n      tag_123\n        /* \"#utility.yul\":168:174   */\n      dup5\n        /* \"#utility.yul\":126:175   */\n      tag_124\n      jump\t// in\n    tag_123:\n        /* \"#utility.yul\":110:176   */\n      tag_125\n      jump\t// in\n    tag_122:\n        /* \"#utility.yul\":101:176   */\n      swap1\n      pop\n        /* \"#utility.yul\":199:205   */\n      dup3\n        /* \"#utility.yul\":192:197   */\n      dup2\n        /* \"#utility.yul\":185:206   */\n      mstore\n        /* \"#utility.yul\":237:241   */\n      0x20\n        /* \"#utility.yul\":230:235   */\n      dup2\n        /* \"#utility.yul\":226:242   */\n      add\n        /* \"#utility.yul\":275:278   */\n      dup5\n        /* \"#utility.yul\":266:272   */\n      dup5\n        /* \"#utility.yul\":261:264   */\n      dup5\n        /* \"#utility.yul\":257:273   */\n      add\n        /* \"#utility.yul\":254:279   */\n      gt\n        /* \"#utility.yul\":251:363   */\n      iszero\n      tag_126\n      jumpi\n        /* \"#utility.yul\":282:361   */\n      tag_127\n      tag_128\n      jump\t// in\n    tag_127:\n        /* \"#utility.yul\":251:363   */\n    tag_126:\n        /* \"#utility.yul\":372:413   */\n      tag_129\n        /* \"#utility.yul\":406:412   */\n      dup5\n        /* \"#utility.yul\":401:404   */\n      dup3\n        /* \"#utility.yul\":396:399   */\n      dup6\n        /* \"#utility.yul\":372:413   */\n      tag_130\n      jump\t// in\n    tag_129:\n        /* \"#utility.yul\":91:419   */\n      pop\n        /* \"#utility.yul\":7:419   */\n      swap4\n      swap3\n      pop\n      pop\n      pop\n      jump\t// out\n        /* \"#utility.yul\":425:564   */\n    tag_131:\n        /* \"#utility.yul\":471:476   */\n      0x00\n        /* \"#utility.yul\":509:515   */\n      dup2\n        /* \"#utility.yul\":496:516   */\n      calldataload\n        /* \"#utility.yul\":487:516   */\n      swap1\n      pop\n        /* \"#utility.yul\":525:558   */\n      tag_133\n        /* \"#utility.yul\":552:557   */\n      dup2\n        /* \"#utility.yul\":525:558   */\n      tag_134\n      jump\t// in\n    tag_133:\n        /* \"#utility.yul\":425:564   */\n      swap3\n      swap2\n      pop\n      pop\n      jump\t// out\n        /* \"#utility.yul\":584:924   */\n    tag_135:\n        /* \"#utility.yul\":640:645   */\n      0x00\n        /* \"#utility.yul\":689:692   */\n      dup3\n        /* \"#utility.yul\":682:686   */\n      0x1f\n        /* \"#utility.yul\":674:680   */\n      dup4\n        /* \"#utility.yul\":670:687   */\n      add\n        /* \"#utility.yul\":666:693   */\n      slt\n        /* \"#utility.yul\":656:778   */\n      tag_137\n      jumpi\n        /* \"#utility.yul\":697:776   */\n      tag_138\n      tag_139\n      jump\t// in\n    tag_138:\n        /* \"#utility.yul\":656:778   */\n    tag_137:\n        /* \"#utility.yul\":814:820   */\n      dup2\n        /* \"#utility.yul\":801:821   */\n      calldataload\n        /* \"#utility.yul\":839:918   */\n      tag_140\n        /* \"#utility.yul\":914:917   */\n      dup5\n        /* \"#utility.yul\":906:912   */\n      dup3\n        /* \"#utility.yul\":899:903   */\n      0x20\n        /* \"#utility.yul\":891:897   */\n      dup7\n        /* \"#utility.yul\":887:904   */\n      add\n        /* \"#utility.yul\":839:918   */\n      tag_120\n      jump\t// in\n    tag_140:\n        /* \"#utility.yul\":830:918   */\n      swap2\n      pop\n        /* \"#utility.yul\":646:924   */\n      pop\n        /* \"#utility.yul\":584:924   */\n      swap3\n      swap2\n      pop\n      pop\n      jump\t// out\n        /* \"#utility.yul\":930:1259   */\n    tag_19:\n        /* \"#utility.yul\":989:995   */\n      0x00\n        /* \"#utility.yul\":1038:1040   */\n      0x20\n        /* \"#utility.yul\":1026:1035   */\n      dup3\n        /* \"#utility.yul\":1017:1024   */\n      dup5\n        /* \"#utility.yul\":1013:1036   */\n      sub\n        /* \"#utility.yul\":1009:1041   */\n      slt\n        /* \"#utility.yul\":1006:1125   */\n      iszero\n      tag_142\n      jumpi\n        /* \"#utility.yul\":1044:1123   */\n      tag_143\n      tag_144\n      jump\t// in\n    tag_143:\n        /* \"#utility.yul\":1006:1125   */\n    tag_142:\n        /* \"#utility.yul\":1164:1165   */\n      0x00\n        /* \"#utility.yul\":1189:1242   */\n      tag_145\n        /* \"#utility.yul\":1234:1241   */\n      dup5\n        /* \"#utility.yul\":1225:1231   */\n      dup3\n        /* \"#utility.yul\":1214:1223   */\n      dup6\n        /* \"#utility.yul\":1210:1232   */\n      add\n        /* \"#utility.yul\":1189:1242   */\n      tag_131\n      jump\t// in\n    tag_145:\n        /* \"#utility.yul\":1179:1242   */\n      swap2\n      pop\n        /* \"#utility.yul\":1135:1252   */\n      pop\n        /* \"#utility.yul\":930:1259   */\n      swap3\n      swap2\n      pop\n      pop\n      jump\t// out\n        /* \"#utility.yul\":1265:1919   */\n    tag_9:\n        /* \"#utility.yul\":1343:1349   */\n      0x00\n        /* \"#utility.yul\":1351:1357   */\n      dup1\n        /* \"#utility.yul\":1400:1402   */\n      0x40\n        /* \"#utility.yul\":1388:1397   */\n      dup4\n        /* \"#utility.yul\":1379:1386   */\n      dup6\n        /* \"#utility.yul\":1375:1398   */\n      sub\n        /* \"#utility.yul\":1371:1403   */\n      slt\n        /* \"#utility.yul\":1368:1487   */\n      iszero\n      tag_147\n      jumpi\n        /* \"#utility.yul\":1406:1485   */\n      tag_148\n      tag_144\n      jump\t// in\n    tag_148:\n        /* \"#utility.yul\":1368:1487   */\n    tag_147:\n        /* \"#utility.yul\":1526:1527   */\n      0x00\n        /* \"#utility.yul\":1551:1604   */\n      tag_149\n        /* \"#utility.yul\":1596:1603   */\n      dup6\n        /* \"#utility.yul\":1587:1593   */\n      dup3\n        /* \"#utility.yul\":1576:1585   */\n      dup7\n        /* \"#utility.yul\":1572:1594   */\n      add\n        /* \"#utility.yul\":1551:1604   */\n      tag_131\n      jump\t// in\n    tag_149:\n        /* \"#utility.yul\":1541:1604   */\n      swap3\n      pop\n        /* \"#utility.yul\":1497:1614   */\n      pop\n        /* \"#utility.yul\":1681:1683   */\n      0x20\n        /* \"#utility.yul\":1670:1679   */\n      dup4\n        /* \"#utility.yul\":1666:1684   */\n      add\n        /* \"#utility.yul\":1653:1685   */\n      calldataload\n        /* \"#utility.yul\":1712:1730   */\n      0xffffffffffffffff\n        /* \"#utility.yul\":1704:1710   */\n      dup2\n        /* \"#utility.yul\":1701:1731   */\n      gt\n        /* \"#utility.yul\":1698:1815   */\n      iszero\n      tag_150\n      jumpi\n        /* \"#utility.yul\":1734:1813   */\n      tag_151\n      tag_152\n      jump\t// in\n    tag_151:\n        /* \"#utility.yul\":1698:1815   */\n    tag_150:\n        /* \"#utility.yul\":1839:1902   */\n      tag_153\n        /* \"#utility.yul\":1894:1901   */\n      dup6\n        /* \"#utility.yul\":1885:1891   */\n      dup3\n        /* \"#utility.yul\":1874:1883   */\n      dup7\n        /* \"#utility.yul\":1870:1892   */\n      add\n        /* \"#utility.yul\":1839:1902   */\n      tag_135\n      jump\t// in\n    tag_153:\n        /* \"#utility.yul\":1829:1902   */\n      swap2\n      pop\n        /* \"#utility.yul\":1624:1912   */\n      pop\n        /* \"#utility.yul\":1265:1919   */\n      swap3\n      pop\n      swap3\n      swap1\n      pop\n      jump\t// out\n        /* \"#utility.yul\":1925:2034   */\n    tag_154:\n        /* \"#utility.yul\":2006:2027   */\n      tag_156\n        /* \"#utility.yul\":2021:2026   */\n      dup2\n        /* \"#utility.yul\":2006:2027   */\n      tag_157\n      jump\t// in\n    tag_156:\n        /* \"#utility.yul\":2001:2004   */\n      dup3\n        /* \"#utility.yul\":1994:2028   */\n      mstore\n        /* \"#utility.yul\":1925:2034   */\n      pop\n      pop\n      jump\t// out\n        /* \"#utility.yul\":2040:2406   */\n    tag_158:\n        /* \"#utility.yul\":2182:2185   */\n      0x00\n        /* \"#utility.yul\":2203:2270   */\n      tag_160\n        /* \"#utility.yul\":2267:2269   */\n      0x0f\n        /* \"#utility.yul\":2262:2265   */\n      dup4\n        /* \"#utility.yul\":2203:2270   */\n      tag_161\n      jump\t// in\n    tag_160:\n        /* \"#utility.yul\":2196:2270   */\n      swap2\n      pop\n        /* \"#utility.yul\":2279:2372   */\n      tag_162\n        /* \"#utility.yul\":2368:2371   */\n      dup3\n        /* \"#utility.yul\":2279:2372   */\n      tag_163\n      jump\t// in\n    tag_162:\n        /* \"#utility.yul\":2397:2399   */\n      0x20\n        /* \"#utility.yul\":2392:2395   */\n      dup3\n        /* \"#utility.yul\":2388:2400   */\n      add\n        /* \"#utility.yul\":2381:2400   */\n      swap1\n      pop\n        /* \"#utility.yul\":2040:2406   */\n      swap2\n      swap1\n      pop\n      jump\t// out\n        /* \"#utility.yul\":2412:2778   */\n    tag_164:\n        /* \"#utility.yul\":2554:2557   */\n      0x00\n        /* \"#utility.yul\":2575:2642   */\n      tag_166\n        /* \"#utility.yul\":2639:2641   */\n      0x11\n        /* \"#utility.yul\":2634:2637   */\n      dup4\n        /* \"#utility.yul\":2575:2642   */\n      tag_161\n      jump\t// in\n    tag_166:\n        /* \"#utility.yul\":2568:2642   */\n      swap2\n      pop\n        /* \"#utility.yul\":2651:2744   */\n      tag_167\n        /* \"#utility.yul\":2740:2743   */\n      dup3\n        /* \"#utility.yul\":2651:2744   */\n      tag_168\n      jump\t// in\n    tag_167:\n        /* \"#utility.yul\":2769:2771   */\n      0x20\n        /* \"#utility.yul\":2764:2767   */\n      dup3\n        /* \"#utility.yul\":2760:2772   */\n      add\n        /* \"#utility.yul\":2753:2772   */\n      swap1\n      pop\n        /* \"#utility.yul\":2412:2778   */\n      swap2\n      swap1\n      pop\n      jump\t// out\n        /* \"#utility.yul\":2784:3150   */\n    tag_169:\n        /* \"#utility.yul\":2926:2929   */\n      0x00\n        /* \"#utility.yul\":2947:3014   */\n      tag_171\n        /* \"#utility.yul\":3011:3013   */\n      0x12\n        /* \"#utility.yul\":3006:3009   */\n      dup4\n        /* \"#utility.yul\":2947:3014   */\n      tag_161\n      jump\t// in\n    tag_171:\n        /* \"#utility.yul\":2940:3014   */\n      swap2\n      pop\n        /* \"#utility.yul\":3023:3116   */\n      tag_172\n        /* \"#utility.yul\":3112:3115   */\n      dup3\n        /* \"#utility.yul\":3023:3116   */\n      tag_173\n      jump\t// in\n    tag_172:\n        /* \"#utility.yul\":3141:3143   */\n      0x20\n        /* \"#utility.yul\":3136:3139   */\n      dup3\n        /* \"#utility.yul\":3132:3144   */\n      add\n        /* \"#utility.yul\":3125:3144   */\n      swap1\n      pop\n        /* \"#utility.yul\":2784:3150   */\n      swap2\n      swap1\n      pop\n      jump\t// out\n        /* \"#utility.yul\":3156:3522   */\n    tag_174:\n        /* \"#utility.yul\":3298:3301   */\n      0x00\n        /* \"#utility.yul\":3319:3386   */\n      tag_176\n        /* \"#utility.yul\":3383:3385   */\n      0x11\n        /* \"#utility.yul\":3378:3381   */\n      dup4\n        /* \"#utility.yul\":3319:3386   */\n      tag_161\n      jump\t// in\n    tag_176:\n        /* \"#utility.yul\":3312:3386   */\n      swap2\n      pop\n        /* \"#utility.yul\":3395:3488   */\n      tag_177\n        /* \"#utility.yul\":3484:3487   */\n      dup3\n        /* \"#utility.yul\":3395:3488   */\n      tag_178\n      jump\t// in\n    tag_177:\n        /* \"#utility.yul\":3513:3515   */\n      0x20\n        /* \"#utility.yul\":3508:3511   */\n      dup3\n        /* \"#utility.yul\":3504:3516   */\n      add\n        /* \"#utility.yul\":3497:3516   */\n      swap1\n      pop\n        /* \"#utility.yul\":3156:3522   */\n      swap2\n      swap1\n      pop\n      jump\t// out\n        /* \"#utility.yul\":3528:3738   */\n    tag_12:\n        /* \"#utility.yul\":3615:3619   */\n      0x00\n        /* \"#utility.yul\":3653:3655   */\n      0x20\n        /* \"#utility.yul\":3642:3651   */\n      dup3\n        /* \"#utility.yul\":3638:3656   */\n      add\n        /* \"#utility.yul\":3630:3656   */\n      swap1\n      pop\n        /* \"#utility.yul\":3666:3731   */\n      tag_180\n        /* \"#utility.yul\":3728:3729   */\n      0x00\n        /* \"#utility.yul\":3717:3726   */\n      dup4\n        /* \"#utility.yul\":3713:3730   */\n      add\n        /* \"#utility.yul\":3704:3710   */\n      dup5\n        /* \"#utility.yul\":3666:3731   */\n      tag_154\n      jump\t// in\n    tag_180:\n        /* \"#utility.yul\":3528:3738   */\n      swap3\n      swap2\n      pop\n      pop\n      jump\t// out\n        /* \"#utility.yul\":3744:4163   */\n    tag_44:\n        /* \"#utility.yul\":3910:3914   */\n      0x00\n        /* \"#utility.yul\":3948:3950   */\n      0x20\n        /* \"#utility.yul\":3937:3946   */\n      dup3\n        /* \"#utility.yul\":3933:3951   */\n      add\n        /* \"#utility.yul\":3925:3951   */\n      swap1\n      pop\n        /* \"#utility.yul\":3997:4006   */\n      dup2\n        /* \"#utility.yul\":3991:3995   */\n      dup2\n        /* \"#utility.yul\":3987:4007   */\n      sub\n        /* \"#utility.yul\":3983:3984   */\n      0x00\n        /* \"#utility.yul\":3972:3981   */\n      dup4\n        /* \"#utility.yul\":3968:3985   */\n      add\n        /* \"#utility.yul\":3961:4008   */\n      mstore\n        /* \"#utility.yul\":4025:4156   */\n      tag_182\n        /* \"#utility.yul\":4151:4155   */\n      dup2\n        /* \"#utility.yul\":4025:4156   */\n      tag_158\n      jump\t// in\n    tag_182:\n        /* \"#utility.yul\":4017:4156   */\n      swap1\n      pop\n        /* \"#utility.yul\":3744:4163   */\n      swap2\n      swap1\n      pop\n      jump\t// out\n        /* \"#utility.yul\":4169:4588   */\n    tag_29:\n        /* \"#utility.yul\":4335:4339   */\n      0x00\n        /* \"#utility.yul\":4373:4375   */\n      0x20\n        /* \"#utility.yul\":4362:4371   */\n      dup3\n        /* \"#utility.yul\":4358:4376   */\n      add\n        /* \"#utility.yul\":4350:4376   */\n      swap1\n      pop\n        /* \"#utility.yul\":4422:4431   */\n      dup2\n        /* \"#utility.yul\":4416:4420   */\n      dup2\n        /* \"#utility.yul\":4412:4432   */\n      sub\n        /* \"#utility.yul\":4408:4409   */\n      0x00\n        /* \"#utility.yul\":4397:4406   */\n      dup4\n        /* \"#utility.yul\":4393:4410   */\n      add\n        /* \"#utility.yul\":4386:4433   */\n      mstore\n        /* \"#utility.yul\":4450:4581   */\n      tag_184\n        /* \"#utility.yul\":4576:4580   */\n      dup2\n        /* \"#utility.yul\":4450:4581   */\n      tag_164\n      jump\t// in\n    tag_184:\n        /* \"#utility.yul\":4442:4581   */\n      swap1\n      pop\n        /* \"#utility.yul\":4169:4588   */\n      swap2\n      swap1\n      pop\n      jump\t// out\n        /* \"#utility.yul\":4594:5013   */\n    tag_54:\n        /* \"#utility.yul\":4760:4764   */\n      0x00\n        /* \"#utility.yul\":4798:4800   */\n      0x20\n        /* \"#utility.yul\":4787:4796   */\n      dup3\n        /* \"#utility.yul\":4783:4801   */\n      add\n        /* \"#utility.yul\":4775:4801   */\n      swap1\n      pop\n        /* \"#utility.yul\":4847:4856   */\n      dup2\n        /* \"#utility.yul\":4841:4845   */\n      dup2\n        /* \"#utility.yul\":4837:4857   */\n      sub\n        /* \"#utility.yul\":4833:4834   */\n      0x00\n        /* \"#utility.yul\":4822:4831   */\n      dup4\n        /* \"#utility.yul\":4818:4835   */\n      add\n        /* \"#utility.yul\":4811:4858   */\n      mstore\n        /* \"#utility.yul\":4875:5006   */\n      tag_186\n        /* \"#utility.yul\":5001:5005   */\n      dup2\n        /* \"#utility.yul\":4875:5006   */\n      tag_169\n      jump\t// in\n    tag_186:\n        /* \"#utility.yul\":4867:5006   */\n      swap1\n      pop\n        /* \"#utility.yul\":4594:5013   */\n      swap2\n      swap1\n      pop\n      jump\t// out\n        /* \"#utility.yul\":5019:5438   */\n    tag_35:\n        /* \"#utility.yul\":5185:5189   */\n      0x00\n        /* \"#utility.yul\":5223:5225   */\n      0x20\n        /* \"#utility.yul\":5212:5221   */\n      dup3\n        /* \"#utility.yul\":5208:5226   */\n      add\n        /* \"#utility.yul\":5200:5226   */\n      swap1\n      pop\n        /* \"#utility.yul\":5272:5281   */\n      dup2\n        /* \"#utility.yul\":5266:5270   */\n      dup2\n        /* \"#utility.yul\":5262:5282   */\n      sub\n        /* \"#utility.yul\":5258:5259   */\n      0x00\n        /* \"#utility.yul\":5247:5256   */\n      dup4\n        /* \"#utility.yul\":5243:5260   */\n      add\n        /* \"#utility.yul\":5236:5283   */\n      mstore\n        /* \"#utility.yul\":5300:5431   */\n      tag_188\n        /* \"#utility.yul\":5426:5430   */\n      dup2\n        /* \"#utility.yul\":5300:5431   */\n      tag_174\n      jump\t// in\n    tag_188:\n        /* \"#utility.yul\":5292:5431   */\n      swap1\n      pop\n        /* \"#utility.yul\":5019:5438   */\n      swap2\n      swap1\n      pop\n      jump\t// out\n        /* \"#utility.yul\":5444:5573   */\n    tag_125:\n        /* \"#utility.yul\":5478:5484   */\n      0x00\n        /* \"#utility.yul\":5505:5525   */\n      tag_190\n      tag_191\n      jump\t// in\n    tag_190:\n        /* \"#utility.yul\":5495:5525   */\n      swap1\n      pop\n        /* \"#utility.yul\":5534:5567   */\n      tag_192\n        /* \"#utility.yul\":5562:5566   */\n      dup3\n        /* \"#utility.yul\":5554:5560   */\n      dup3\n        /* \"#utility.yul\":5534:5567   */\n      tag_193\n      jump\t// in\n    tag_192:\n        /* \"#utility.yul\":5444:5573   */\n      swap2\n      swap1\n      pop\n      jump\t// out\n        /* \"#utility.yul\":5579:5654   */\n    tag_191:\n        /* \"#utility.yul\":5612:5618   */\n      0x00\n        /* \"#utility.yul\":5645:5647   */\n      0x40\n        /* \"#utility.yul\":5639:5648   */\n      mload\n        /* \"#utility.yul\":5629:5648   */\n      swap1\n      pop\n        /* \"#utility.yul\":5579:5654   */\n      swap1\n      jump\t// out\n        /* \"#utility.yul\":5660:5968   */\n    tag_124:\n        /* \"#utility.yul\":5722:5726   */\n      0x00\n        /* \"#utility.yul\":5812:5830   */\n      0xffffffffffffffff\n        /* \"#utility.yul\":5804:5810   */\n      dup3\n        /* \"#utility.yul\":5801:5831   */\n      gt\n        /* \"#utility.yul\":5798:5854   */\n      iszero\n      tag_196\n      jumpi\n        /* \"#utility.yul\":5834:5852   */\n      tag_197\n      tag_198\n      jump\t// in\n    tag_197:\n        /* \"#utility.yul\":5798:5854   */\n    tag_196:\n        /* \"#utility.yul\":5872:5901   */\n      tag_199\n        /* \"#utility.yul\":5894:5900   */\n      dup3\n        /* \"#utility.yul\":5872:5901   */\n      tag_200\n      jump\t// in\n    tag_199:\n        /* \"#utility.yul\":5864:5901   */\n      swap1\n      pop\n        /* \"#utility.yul\":5956:5960   */\n      0x20\n        /* \"#utility.yul\":5950:5954   */\n      dup2\n        /* \"#utility.yul\":5946:5961   */\n      add\n        /* \"#utility.yul\":5938:5961   */\n      swap1\n      pop\n        /* \"#utility.yul\":5660:5968   */\n      swap2\n      swap1\n      pop\n      jump\t// out\n        /* \"#utility.yul\":5974:6143   */\n    tag_161:\n        /* \"#utility.yul\":6058:6069   */\n      0x00\n        /* \"#utility.yul\":6092:6098   */\n      dup3\n        /* \"#utility.yul\":6087:6090   */\n      dup3\n        /* \"#utility.yul\":6080:6099   */\n      mstore\n        /* \"#utility.yul\":6132:6136   */\n      0x20\n        /* \"#utility.yul\":6127:6130   */\n      dup3\n        /* \"#utility.yul\":6123:6137   */\n      add\n        /* \"#utility.yul\":6108:6137   */\n      swap1\n      pop\n        /* \"#utility.yul\":5974:6143   */\n      swap3\n      swap2\n      pop\n      pop\n      jump\t// out\n        /* \"#utility.yul\":6149:6340   */\n    tag_66:\n        /* \"#utility.yul\":6189:6193   */\n      0x00\n        /* \"#utility.yul\":6209:6229   */\n      tag_203\n        /* \"#utility.yul\":6227:6228   */\n      dup3\n        /* \"#utility.yul\":6209:6229   */\n      tag_204\n      jump\t// in\n    tag_203:\n        /* \"#utility.yul\":6204:6229   */\n      swap2\n      pop\n        /* \"#utility.yul\":6243:6263   */\n      tag_205\n        /* \"#utility.yul\":6261:6262   */\n      dup4\n        /* \"#utility.yul\":6243:6263   */\n      tag_204\n      jump\t// in\n    tag_205:\n        /* \"#utility.yul\":6238:6263   */\n      swap3\n      pop\n        /* \"#utility.yul\":6282:6283   */\n      dup3\n        /* \"#utility.yul\":6279:6280   */\n      dup3\n        /* \"#utility.yul\":6276:6284   */\n      lt\n        /* \"#utility.yul\":6273:6307   */\n      iszero\n      tag_206\n      jumpi\n        /* \"#utility.yul\":6287:6305   */\n      tag_207\n      tag_208\n      jump\t// in\n    tag_207:\n        /* \"#utility.yul\":6273:6307   */\n    tag_206:\n        /* \"#utility.yul\":6332:6333   */\n      dup3\n        /* \"#utility.yul\":6329:6330   */\n      dup3\n        /* \"#utility.yul\":6325:6334   */\n      sub\n        /* \"#utility.yul\":6317:6334   */\n      swap1\n      pop\n        /* \"#utility.yul\":6149:6340   */\n      swap3\n      swap2\n      pop\n      pop\n      jump\t// out\n        /* \"#utility.yul\":6346:6442   */\n    tag_209:\n        /* \"#utility.yul\":6383:6390   */\n      0x00\n        /* \"#utility.yul\":6412:6436   */\n      tag_211\n        /* \"#utility.yul\":6430:6435   */\n      dup3\n        /* \"#utility.yul\":6412:6436   */\n      tag_212\n      jump\t// in\n    tag_211:\n        /* \"#utility.yul\":6401:6436   */\n      swap1\n      pop\n        /* \"#utility.yul\":6346:6442   */\n      swap2\n      swap1\n      pop\n      jump\t// out\n        /* \"#utility.yul\":6448:6538   */\n    tag_157:\n        /* \"#utility.yul\":6482:6489   */\n      0x00\n        /* \"#utility.yul\":6525:6530   */\n      dup2\n        /* \"#utility.yul\":6518:6531   */\n      iszero\n        /* \"#utility.yul\":6511:6532   */\n      iszero\n        /* \"#utility.yul\":6500:6532   */\n      swap1\n      pop\n        /* \"#utility.yul\":6448:6538   */\n      swap2\n      swap1\n      pop\n      jump\t// out\n        /* \"#utility.yul\":6544:6670   */\n    tag_212:\n        /* \"#utility.yul\":6581:6588   */\n      0x00\n        /* \"#utility.yul\":6621:6663   */\n      0xffffffffffffffffffffffffffffffffffffffff\n        /* \"#utility.yul\":6614:6619   */\n      dup3\n        /* \"#utility.yul\":6610:6664   */\n      and\n        /* \"#utility.yul\":6599:6664   */\n      swap1\n      pop\n        /* \"#utility.yul\":6544:6670   */\n      swap2\n      swap1\n      pop\n      jump\t// out\n        /* \"#utility.yul\":6676:6753   */\n    tag_204:\n        /* \"#utility.yul\":6713:6720   */\n      0x00\n        /* \"#utility.yul\":6742:6747   */\n      dup2\n        /* \"#utility.yul\":6731:6747   */\n      swap1\n      pop\n        /* \"#utility.yul\":6676:6753   */\n      swap2\n      swap1\n      pop\n      jump\t// out\n        /* \"#utility.yul\":6759:6913   */\n    tag_130:\n        /* \"#utility.yul\":6843:6849   */\n      dup3\n        /* \"#utility.yul\":6838:6841   */\n      dup2\n        /* \"#utility.yul\":6833:6836   */\n      dup4\n        /* \"#utility.yul\":6820:6850   */\n      calldatacopy\n        /* \"#utility.yul\":6905:6906   */\n      0x00\n        /* \"#utility.yul\":6896:6902   */\n      dup4\n        /* \"#utility.yul\":6891:6894   */\n      dup4\n        /* \"#utility.yul\":6887:6903   */\n      add\n        /* \"#utility.yul\":6880:6907   */\n      mstore\n        /* \"#utility.yul\":6759:6913   */\n      pop\n      pop\n      pop\n      jump\t// out\n        /* \"#utility.yul\":6919:7239   */\n    tag_105:\n        /* \"#utility.yul\":6963:6969   */\n      0x00\n        /* \"#utility.yul\":7000:7001   */\n      0x02\n        /* \"#utility.yul\":6994:6998   */\n      dup3\n        /* \"#utility.yul\":6990:7002   */\n      div\n        /* \"#utility.yul\":6980:7002   */\n      swap1\n      pop\n        /* \"#utility.yul\":7047:7048   */\n      0x01\n        /* \"#utility.yul\":7041:7045   */\n      dup3\n        /* \"#utility.yul\":7037:7049   */\n      and\n        /* \"#utility.yul\":7068:7086   */\n      dup1\n        /* \"#utility.yul\":7058:7139   */\n      tag_218\n      jumpi\n        /* \"#utility.yul\":7124:7128   */\n      0x7f\n        /* \"#utility.yul\":7116:7122   */\n      dup3\n        /* \"#utility.yul\":7112:7129   */\n      and\n        /* \"#utility.yul\":7102:7129   */\n      swap2\n      pop\n        /* \"#utility.yul\":7058:7139   */\n    tag_218:\n        /* \"#utility.yul\":7186:7188   */\n      0x20\n        /* \"#utility.yul\":7178:7184   */\n      dup3\n        /* \"#utility.yul\":7175:7189   */\n      lt\n        /* \"#utility.yul\":7155:7173   */\n      dup2\n        /* \"#utility.yul\":7152:7190   */\n      eq\n        /* \"#utility.yul\":7149:7233   */\n      iszero\n      tag_219\n      jumpi\n        /* \"#utility.yul\":7205:7223   */\n      tag_220\n      tag_221\n      jump\t// in\n    tag_220:\n        /* \"#utility.yul\":7149:7233   */\n    tag_219:\n        /* \"#utility.yul\":6970:7239   */\n      pop\n        /* \"#utility.yul\":6919:7239   */\n      swap2\n      swap1\n      pop\n      jump\t// out\n        /* \"#utility.yul\":7245:7526   */\n    tag_193:\n        /* \"#utility.yul\":7328:7355   */\n      tag_223\n        /* \"#utility.yul\":7350:7354   */\n      dup3\n        /* \"#utility.yul\":7328:7355   */\n      tag_200\n      jump\t// in\n    tag_223:\n        /* \"#utility.yul\":7320:7326   */\n      dup2\n        /* \"#utility.yul\":7316:7356   */\n      add\n        /* \"#utility.yul\":7458:7464   */\n      dup2\n        /* \"#utility.yul\":7446:7456   */\n      dup2\n        /* \"#utility.yul\":7443:7465   */\n      lt\n        /* \"#utility.yul\":7422:7440   */\n      0xffffffffffffffff\n        /* \"#utility.yul\":7410:7420   */\n      dup3\n        /* \"#utility.yul\":7407:7441   */\n      gt\n        /* \"#utility.yul\":7404:7466   */\n      or\n        /* \"#utility.yul\":7401:7489   */\n      iszero\n      tag_224\n      jumpi\n        /* \"#utility.yul\":7469:7487   */\n      tag_225\n      tag_198\n      jump\t// in\n    tag_225:\n        /* \"#utility.yul\":7401:7489   */\n    tag_224:\n        /* \"#utility.yul\":7509:7519   */\n      dup1\n        /* \"#utility.yul\":7505:7507   */\n      0x40\n        /* \"#utility.yul\":7498:7520   */\n      mstore\n        /* \"#utility.yul\":7288:7526   */\n      pop\n        /* \"#utility.yul\":7245:7526   */\n      pop\n      pop\n      jump\t// out\n        /* \"#utility.yul\":7532:7765   */\n    tag_64:\n        /* \"#utility.yul\":7571:7574   */\n      0x00\n        /* \"#utility.yul\":7594:7618   */\n      tag_227\n        /* \"#utility.yul\":7612:7617   */\n      dup3\n        /* \"#utility.yul\":7594:7618   */\n      tag_204\n      jump\t// in\n    tag_227:\n        /* \"#utility.yul\":7585:7618   */\n      swap2\n      pop\n        /* \"#utility.yul\":7640:7706   */\n      0xffffffffffffffffffffffffffffffffffffffffffffffffffffffffffffffff\n        /* \"#utility.yul\":7633:7638   */\n      dup3\n        /* \"#utility.yul\":7630:7707   */\n      eq\n        /* \"#utility.yul\":7627:7730   */\n      iszero\n      tag_228\n      jumpi\n        /* \"#utility.yul\":7710:7728   */\n      tag_229\n      tag_208\n      jump\t// in\n    tag_229:\n        /* \"#utility.yul\":7627:7730   */\n    tag_228:\n        /* \"#utility.yul\":7757:7758   */\n      0x01\n        /* \"#utility.yul\":7750:7755   */\n      dup3\n        /* \"#utility.yul\":7746:7759   */\n      add\n        /* \"#utility.yul\":7739:7759   */\n      swap1\n      pop\n        /* \"#utility.yul\":7532:7765   */\n      swap2\n      swap1\n      pop\n      jump\t// out\n        /* \"#utility.yul\":7771:7951   */\n    tag_208:\n        /* \"#utility.yul\":7819:7896   */\n      0x4e487b7100000000000000000000000000000000000000000000000000000000\n        /* \"#utility.yul\":7816:7817   */\n      0x00\n        /* \"#utility.yul\":7809:7897   */\n      mstore\n        /* \"#utility.yul\":7916:7920   */\n      0x11\n        /* \"#utility.yul\":7913:7914   */\n      0x04\n        /* \"#utility.yul\":7906:7921   */\n      mstore\n        /* \"#utility.yul\":7940:7944   */\n      0x24\n        /* \"#utility.yul\":7937:7938   */\n      0x00\n        /* \"#utility.yul\":7930:7945   */\n      revert\n        /* \"#utility.yul\":7957:8137   */\n    tag_221:\n        /* \"#utility.yul\":8005:8082   */\n      0x4e487b7100000000000000000000000000000000000000000000000000000000\n        /* \"#utility.yul\":8002:8003   */\n      0x00\n        /* \"#utility.yul\":7995:8083   */\n      mstore\n        /* \"#utility.yul\":8102:8106   */\n      0x22\n        /* \"#utility.yul\":8099:8100   */\n      0x04\n        /* \"#utility.yul\":8092:8107   */\n      mstore\n        /* \"#utility.yul\":8126:8130   */\n      0x24\n        /* \"#utility.yul\":8123:8124   */\n      0x00\n        /* \"#utility.yul\":8116:8131   */\n      revert\n        /* \"#utility.yul\":8143:8323   */\n    tag_77:\n        /* \"#utility.yul\":8191:8268   */\n      0x4e487b7100000000000000000000000000000000000000000000000000000000\n        /* \"#utility.yul\":8188:8189   */\n      0x00\n        /* \"#utility.yul\":8181:8269   */\n      mstore\n        /* \"#utility.yul\":8288:8292   */\n      0x31\n        /* \"#utility.yul\":8285:8286   */\n      0x04\n        /* \"#utility.yul\":8278:8293   */\n      mstore\n        /* \"#utility.yul\":8312:8316   */\n      0x24\n        /* \"#utility.yul\":8309:8310   */\n      0x00\n        /* \"#utility.yul\":8302:8317   */\n      revert\n        /* \"#utility.yul\":8329:8509   */\n    tag_60:\n        /* \"#utility.yul\":8377:8454   */\n      0x4e487b7100000000000000000000000000000000000000000000000000000000\n        /* \"#utility.yul\":8374:8375   */\n      0x00\n        /* \"#utility.yul\":8367:8455   */\n      mstore\n        /* \"#utility.yul\":8474:8478   */\n      0x32\n        /* \"#utility.yul\":8471:8472   */\n      0x04\n        /* \"#utility.yul\":8464:8479   */\n      mstore\n        /* \"#utility.yul\":8498:8502   */\n      0x24\n        /* \"#utility.yul\":8495:8496   */\n      0x00\n        /* \"#utility.yul\":8488:8503   */\n      revert\n        /* \"#utility.yul\":8515:8695   */\n    tag_198:\n        /* \"#utility.yul\":8563:8640   */\n      0x4e487b7100000000000000000000000000000000000000000000000000000000\n        /* \"#utility.yul\":8560:8561   */\n      0x00\n        /* \"#utility.yul\":8553:8641   */\n      mstore\n        /* \"#utility.yul\":8660:8664   */\n      0x41\n        /* \"#utility.yul\":8657:8658   */\n      0x04\n        /* \"#utility.yul\":8650:8665   */\n      mstore\n        /* \"#utility.yul\":8684:8688   */\n      0x24\n        /* \"#utility.yul\":8681:8682   */\n      0x00\n        /* \"#utility.yul\":8674:8689   */\n      revert\n        /* \"#utility.yul\":8701:8818   */\n    tag_139:\n        /* \"#utility.yul\":8810:8811   */\n      0x00\n        /* \"#utility.yul\":8807:8808   */\n      dup1\n        /* \"#utility.yul\":8800:8812   */\n      revert\n        /* \"#utility.yul\":8824:8941   */\n    tag_128:\n        /* \"#utility.yul\":8933:8934   */\n      0x00\n        /* \"#utility.yul\":8930:8931   */\n      dup1\n        /* \"#utility.yul\":8923:8935   */\n      revert\n        /* \"#utility.yul\":8947:9064   */\n    tag_152:\n        /* \"#utility.yul\":9056:9057   */\n      0x00\n        /* \"#utility.yul\":9053:9054   */\n      dup1\n        /* \"#utility.yul\":9046:9058   */\n      revert\n        /* \"#utility.yul\":9070:9187   */\n    tag_144:\n        /* \"#utility.yul\":9179:9180   */\n      0x00\n        /* \"#utility.yul\":9176:9177   */\n      dup1\n        /* \"#utility.yul\":9169:9181   */\n      revert\n        /* \"#utility.yul\":9193:9295   */\n    tag_200:\n        /* \"#utility.yul\":9234:9240   */\n      0x00\n        /* \"#utility.yul\":9285:9287   */\n      0x1f\n        /* \"#utility.yul\":9281:9288   */\n      not\n        /* \"#utility.yul\":9276:9278   */\n      0x1f\n        /* \"#utility.yul\":9269:9274   */\n      dup4\n        /* \"#utility.yul\":9265:9279   */\n      add\n        /* \"#utility.yul\":9261:9289   */\n      and\n        /* \"#utility.yul\":9251:9289   */\n      swap1\n      pop\n        /* \"#utility.yul\":9193:9295   */\n      swap2\n      swap1\n      pop\n      jump\t// out\n        /* \"#utility.yul\":9301:9466   */\n    tag_163:\n        /* \"#utility.yul\":9441:9458   */\n      0x61646420726f6c65206661696c65640000000000000000000000000000000000\n        /* \"#utility.yul\":9437:9438   */\n      0x00\n        /* \"#utility.yul\":9429:9435   */\n      dup3\n        /* \"#utility.yul\":9425:9439   */\n      add\n        /* \"#utility.yul\":9418:9459   */\n      mstore\n        /* \"#utility.yul\":9301:9466   */\n      pop\n      jump\t// out\n        /* \"#utility.yul\":9472:9639   */\n    tag_168:\n        /* \"#utility.yul\":9612:9631   */\n      0x6f6e6c79206f776e65722063616e20646f000000000000000000000000000000\n        /* \"#utility.yul\":9608:9609   */\n      0x00\n        /* \"#utility.yul\":9600:9606   */\n      dup3\n        /* \"#utility.yul\":9596:9610   */\n      add\n        /* \"#utility.yul\":9589:9632   */\n      mstore\n        /* \"#utility.yul\":9472:9639   */\n      pop\n      jump\t// out\n        /* \"#utility.yul\":9645:9813   */\n    tag_173:\n        /* \"#utility.yul\":9785:9805   */\n      0x72656d6f766520726f6c65206661696c65640000000000000000000000000000\n        /* \"#utility.yul\":9781:9782   */\n      0x00\n        /* \"#utility.yul\":9773:9779   */\n      dup3\n        /* \"#utility.yul\":9769:9783   */\n      add\n        /* \"#utility.yul\":9762:9806   */\n      mstore\n        /* \"#utility.yul\":9645:9813   */\n      pop\n      jump\t// out\n        /* \"#utility.yul\":9819:9986   */\n    tag_178:\n        /* \"#utility.yul\":9959:9978   */\n      0x726573657420726f6c65206661696c6564000000000000000000000000000000\n        /* \"#utility.yul\":9955:9956   */\n      0x00\n        /* \"#utility.yul\":9947:9953   */\n      dup3\n        /* \"#utility.yul\":9943:9957   */\n      add\n        /* \"#utility.yul\":9936:9979   */\n      mstore\n        /* \"#utility.yul\":9819:9986   */\n      pop\n      jump\t// out\n        /* \"#utility.yul\":9992:10114   */\n    tag_134:\n        /* \"#utility.yul\":10065:10089   */\n      tag_245\n        /* \"#utility.yul\":10083:10088   */\n      dup2\n        /* \"#utility.yul\":10065:10089   */\n      tag_209\n      jump\t// in\n    tag_245:\n        /* \"#utility.yul\":10058:10063   */\n      dup2\n        /* \"#utility.yul\":10055:10090   */\n      eq\n        /* \"#utility.yul\":10045:10108   */\n      tag_246\n      jumpi\n        /* \"#utility.yul\":10104:10105   */\n      0x00\n        /* \"#utility.yul\":10101:10102   */\n      dup1\n        /* \"#utility.yul\":10094:10106   */\n      revert\n        /* \"#utility.yul\":10045:10108   */\n    tag_246:\n        /* \"#utility.yul\":9992:10114   */\n      pop\n      jump\t// out\n\n    auxdata: 0xa2646970667358221220eebc2b50643af957f57abfe6d791778b8f2793d4c94b9fa1af1367282a2173db64736f6c63430008070033\n}\n",
				"bytecode": {
					"linkReferences": {},
					"object": "608060405234801561001057600080fd5b5033600360006101000a81548173ffffffffffffffffffffffffffffffffffffffff021916908373ffffffffffffffffffffffffffffffffffffffff160217905550610ff1806100616000396000f3fe608060405234801561001057600080fd5b506004361061004c5760003560e01c80637e496913146100515780638ec856db14610081578063d17ddc0f146100b1578063d3aa4aab146100e1575b600080fd5b61006b60048036038101906100669190610ac0565b610111565b6040516100789190610bb7565b60405180910390f35b61009b60048036038101906100969190610ac0565b610208565b6040516100a89190610bb7565b60405180910390f35b6100cb60048036038101906100c69190610a93565b610362565b6040516100d89190610bb7565b60405180910390f35b6100fb60048036038101906100f69190610a93565b610664565b6040516101089190610bb7565b60405180910390f35b6000600360009054906101000a900473ffffffffffffffffffffffffffffffffffffffff1673ffffffffffffffffffffffffffffffffffffffff163373ffffffffffffffffffffffffffffffffffffffff16146101a3576040517f08c379a000000000000000000000000000000000000000000000000000000000815260040161019a90610bf2565b60405180910390fd5b60006101bb848460006106819092919063ffffffff16565b9050806101fd576040517f08c379a00000000000000000000000000000000000000000000000000000000081526004016101f490610c32565b60405180910390fd5b600191505092915050565b6000600360009054906101000a900473ffffffffffffffffffffffffffffffffffffffff1673ffffffffffffffffffffffffffffffffffffffff163373ffffffffffffffffffffffffffffffffffffffff161461029a576040517f08c379a000000000000000000000000000000000000000000000000000000000815260040161029190610bf2565b60405180910390fd5b60006102b2848460006106fc9092919063ffffffff16565b9050806102f4576040517f08c379a00000000000000000000000000000000000000000000000000000000081526004016102eb90610bd2565b60405180910390fd5b6002849080600181540180825580915050600190039060005260206000200160009091909190916101000a81548173ffffffffffffffffffffffffffffffffffffffff021916908373ffffffffffffffffffffffffffffffffffffffff160217905550600191505092915050565b6000600360009054906101000a900473ffffffffffffffffffffffffffffffffffffffff1673ffffffffffffffffffffffffffffffffffffffff163373ffffffffffffffffffffffffffffffffffffffff16146103f4576040517f08c379a00000000000000000000000000000000000000000000000000000000081526004016103eb90610bf2565b60405180910390fd5b600061040a8360006107d290919063ffffffff16565b90508061044c576040517f08c379a000000000000000000000000000000000000000000000000000000000815260040161044390610c12565b60405180910390fd5b60005b6002805490508110156104e657600281815481106104705761046f610e7d565b5b9060005260206000200160009054906101000a900473ffffffffffffffffffffffffffffffffffffffff1673ffffffffffffffffffffffffffffffffffffffff168473ffffffffffffffffffffffffffffffffffffffff1614156104d3576104e6565b80806104de90610da7565b91505061044f565b60016002805490506104f89190610cb9565b8110156105f757600260016002805490506105139190610cb9565b8154811061052457610523610e7d565b5b9060005260206000200160009054906101000a900473ffffffffffffffffffffffffffffffffffffffff166002828154811061056357610562610e7d565b5b9060005260206000200160006101000a81548173ffffffffffffffffffffffffffffffffffffffff021916908373ffffffffffffffffffffffffffffffffffffffff16021790555060028054806105bd576105bc610e4e565b5b6001900381819060005260206000200160006101000a81549073ffffffffffffffffffffffffffffffffffffffff02191690559055610659565b60016002805490506106099190610cb9565b81141561065857600280548061062257610621610e4e565b5b6001900381819060005260206000200160006101000a81549073ffffffffffffffffffffffffffffffffffffffff021916905590555b5b600192505050919050565b600061067a82600061089490919063ffffffff16565b9050919050565b600061068d8484610894565b61069a57600090506106f5565b818460010160008573ffffffffffffffffffffffffffffffffffffffff1673ffffffffffffffffffffffffffffffffffffffff16815260200190815260200160002090805190602001906106ef92919061092b565b50600190505b9392505050565b60006107088484610894565b1561071657600090506107cb565b60018460000160008573ffffffffffffffffffffffffffffffffffffffff1673ffffffffffffffffffffffffffffffffffffffff16815260200190815260200160002060006101000a81548160ff021916908315150217905550818460010160008573ffffffffffffffffffffffffffffffffffffffff1673ffffffffffffffffffffffffffffffffffffffff16815260200190815260200160002090805190602001906107c592919061092b565b50600190505b9392505050565b60006107de8383610894565b6107eb576000905061088e565b8260000160008373ffffffffffffffffffffffffffffffffffffffff1673ffffffffffffffffffffffffffffffffffffffff16815260200190815260200160002060006101000a81549060ff02191690558260010160008373ffffffffffffffffffffffffffffffffffffffff1673ffffffffffffffffffffffffffffffffffffffff168152602001908152602001600020600061088991906109b1565b600190505b92915050565b60008073ffffffffffffffffffffffffffffffffffffffff168273ffffffffffffffffffffffffffffffffffffffff1614156108d35760009050610925565b8260000160008373ffffffffffffffffffffffffffffffffffffffff1673ffffffffffffffffffffffffffffffffffffffff16815260200190815260200160002060009054906101000a900460ff1690505b92915050565b82805461093790610d44565b90600052602060002090601f01602090048101928261095957600085556109a0565b82601f1061097257805160ff19168380011785556109a0565b828001600101855582156109a0579182015b8281111561099f578251825591602001919060010190610984565b5b5090506109ad91906109f1565b5090565b5080546109bd90610d44565b6000825580601f106109cf57506109ee565b601f0160209004906000526020600020908101906109ed91906109f1565b5b50565b5b80821115610a0a5760008160009055506001016109f2565b5090565b6000610a21610a1c84610c77565b610c52565b905082815260208101848484011115610a3d57610a3c610ee0565b5b610a48848285610d35565b509392505050565b600081359050610a5f81610fa4565b92915050565b600082601f830112610a7a57610a79610edb565b5b8135610a8a848260208601610a0e565b91505092915050565b600060208284031215610aa957610aa8610eea565b5b6000610ab784828501610a50565b91505092915050565b60008060408385031215610ad757610ad6610eea565b5b6000610ae585828601610a50565b925050602083013567ffffffffffffffff811115610b0657610b05610ee5565b5b610b1285828601610a65565b9150509250929050565b610b2581610cff565b82525050565b6000610b38600f83610ca8565b9150610b4382610f00565b602082019050919050565b6000610b5b601183610ca8565b9150610b6682610f29565b602082019050919050565b6000610b7e601283610ca8565b9150610b8982610f52565b602082019050919050565b6000610ba1601183610ca8565b9150610bac82610f7b565b602082019050919050565b6000602082019050610bcc6000830184610b1c565b92915050565b60006020820190508181036000830152610beb81610b2b565b9050919050565b60006020820190508181036000830152610c0b81610b4e565b9050919050565b60006020820190508181036000830152610c2b81610b71565b9050919050565b60006020820190508181036000830152610c4b81610b94565b9050919050565b6000610c5c610c6d565b9050610c688282610d76565b919050565b6000604051905090565b600067ffffffffffffffff821115610c9257610c91610eac565b5b610c9b82610eef565b9050602081019050919050565b600082825260208201905092915050565b6000610cc482610d2b565b9150610ccf83610d2b565b925082821015610ce257610ce1610df0565b5b828203905092915050565b6000610cf882610d0b565b9050919050565b60008115159050919050565b600073ffffffffffffffffffffffffffffffffffffffff82169050919050565b6000819050919050565b82818337600083830152505050565b60006002820490506001821680610d5c57607f821691505b60208210811415610d7057610d6f610e1f565b5b50919050565b610d7f82610eef565b810181811067ffffffffffffffff82111715610d9e57610d9d610eac565b5b80604052505050565b6000610db282610d2b565b91507fffffffffffffffffffffffffffffffffffffffffffffffffffffffffffffffff821415610de557610de4610df0565b5b600182019050919050565b7f4e487b7100000000000000000000000000000000000000000000000000000000600052601160045260246000fd5b7f4e487b7100000000000000000000000000000000000000000000000000000000600052602260045260246000fd5b7f4e487b7100000000000000000000000000000000000000000000000000000000600052603160045260246000fd5b7f4e487b7100000000000000000000000000000000000000000000000000000000600052603260045260246000fd5b7f4e487b7100000000000000000000000000000000000000000000000000000000600052604160045260246000fd5b600080fd5b600080fd5b600080fd5b600080fd5b6000601f19601f8301169050919050565b7f61646420726f6c65206661696c65640000000000000000000000000000000000600082015250565b7f6f6e6c79206f776e65722063616e20646f000000000000000000000000000000600082015250565b7f72656d6f766520726f6c65206661696c65640000000000000000000000000000600082015250565b7f726573657420726f6c65206661696c6564000000000000000000000000000000600082015250565b610fad81610ced565b8114610fb857600080fd5b5056fea2646970667358221220eebc2b50643af957f57abfe6d791778b8f2793d4c94b9fa1af1367282a2173db64736f6c63430008070033",
					"opcodes": "PUSH1 0x80 PUSH1 0x40 MSTORE CALLVALUE DUP1 ISZERO PUSH2 0x10 JUMPI PUSH1 0x0 DUP1 REVERT JUMPDEST POP CALLER PUSH1 0x3 PUSH1 0x0 PUSH2 0x100 EXP DUP2 SLOAD DUP2 PUSH20 0xFFFFFFFFFFFFFFFFFFFFFFFFFFFFFFFFFFFFFFFF MUL NOT AND SWAP1 DUP4 PUSH20 0xFFFFFFFFFFFFFFFFFFFFFFFFFFFFFFFFFFFFFFFF AND MUL OR SWAP1 SSTORE POP PUSH2 0xFF1 DUP1 PUSH2 0x61 PUSH1 0x0 CODECOPY PUSH1 0x0 RETURN INVALID PUSH1 0x80 PUSH1 0x40 MSTORE CALLVALUE DUP1 ISZERO PUSH2 0x10 JUMPI PUSH1 0x0 DUP1 REVERT JUMPDEST POP PUSH1 0x4 CALLDATASIZE LT PUSH2 0x4C JUMPI PUSH1 0x0 CALLDATALOAD PUSH1 0xE0 SHR DUP1 PUSH4 0x7E496913 EQ PUSH2 0x51 JUMPI DUP1 PUSH4 0x8EC856DB EQ PUSH2 0x81 JUMPI DUP1 PUSH4 0xD17DDC0F EQ PUSH2 0xB1 JUMPI DUP1 PUSH4 0xD3AA4AAB EQ PUSH2 0xE1 JUMPI JUMPDEST PUSH1 0x0 DUP1 REVERT JUMPDEST PUSH2 0x6B PUSH1 0x4 DUP1 CALLDATASIZE SUB DUP2 ADD SWAP1 PUSH2 0x66 SWAP2 SWAP1 PUSH2 0xAC0 JUMP JUMPDEST PUSH2 0x111 JUMP JUMPDEST PUSH1 0x40 MLOAD PUSH2 0x78 SWAP2 SWAP1 PUSH2 0xBB7 JUMP JUMPDEST PUSH1 0x40 MLOAD DUP1 SWAP2 SUB SWAP1 RETURN JUMPDEST PUSH2 0x9B PUSH1 0x4 DUP1 CALLDATASIZE SUB DUP2 ADD SWAP1 PUSH2 0x96 SWAP2 SWAP1 PUSH2 0xAC0 JUMP JUMPDEST PUSH2 0x208 JUMP JUMPDEST PUSH1 0x40 MLOAD PUSH2 0xA8 SWAP2 SWAP1 PUSH2 0xBB7 JUMP JUMPDEST PUSH1 0x40 MLOAD DUP1 SWAP2 SUB SWAP1 RETURN JUMPDEST PUSH2 0xCB PUSH1 0x4 DUP1 CALLDATASIZE SUB DUP2 ADD SWAP1 PUSH2 0xC6 SWAP2 SWAP1 PUSH2 0xA93 JUMP JUMPDEST PUSH2 0x362 JUMP JUMPDEST PUSH1 0x40 MLOAD PUSH2 0xD8 SWAP2 SWAP1 PUSH2 0xBB7 JUMP JUMPDEST PUSH1 0x40 MLOAD DUP1 SWAP2 SUB SWAP1 RETURN JUMPDEST PUSH2 0xFB PUSH1 0x4 DUP1 CALLDATASIZE SUB DUP2 ADD SWAP1 PUSH2 0xF6 SWAP2 SWAP1 PUSH2 0xA93 JUMP JUMPDEST PUSH2 0x664 JUMP JUMPDEST PUSH1 0x40 MLOAD PUSH2 0x108 SWAP2 SWAP1 PUSH2 0xBB7 JUMP JUMPDEST PUSH1 0x40 MLOAD DUP1 SWAP2 SUB SWAP1 RETURN JUMPDEST PUSH1 0x0 PUSH1 0x3 PUSH1 0x0 SWAP1 SLOAD SWAP1 PUSH2 0x100 EXP SWAP1 DIV PUSH20 0xFFFFFFFFFFFFFFFFFFFFFFFFFFFFFFFFFFFFFFFF AND PUSH20 0xFFFFFFFFFFFFFFFFFFFFFFFFFFFFFFFFFFFFFFFF AND CALLER PUSH20 0xFFFFFFFFFFFFFFFFFFFFFFFFFFFFFFFFFFFFFFFF AND EQ PUSH2 0x1A3 JUMPI PUSH1 0x40 MLOAD PUSH32 0x8C379A000000000000000000000000000000000000000000000000000000000 DUP2 MSTORE PUSH1 0x4 ADD PUSH2 0x19A SWAP1 PUSH2 0xBF2 JUMP JUMPDEST PUSH1 0x40 MLOAD DUP1 SWAP2 SUB SWAP1 REVERT JUMPDEST PUSH1 0x0 PUSH2 0x1BB DUP5 DUP5 PUSH1 0x0 PUSH2 0x681 SWAP1 SWAP3 SWAP2 SWAP1 PUSH4 0xFFFFFFFF AND JUMP JUMPDEST SWAP1 POP DUP1 PUSH2 0x1FD JUMPI PUSH1 0x40 MLOAD PUSH32 0x8C379A000000000000000000000000000000000000000000000000000000000 DUP2 MSTORE PUSH1 0x4 ADD PUSH2 0x1F4 SWAP1 PUSH2 0xC32 JUMP JUMPDEST PUSH1 0x40 MLOAD DUP1 SWAP2 SUB SWAP1 REVERT JUMPDEST PUSH1 0x1 SWAP2 POP POP SWAP3 SWAP2 POP POP JUMP JUMPDEST PUSH1 0x0 PUSH1 0x3 PUSH1 0x0 SWAP1 SLOAD SWAP1 PUSH2 0x100 EXP SWAP1 DIV PUSH20 0xFFFFFFFFFFFFFFFFFFFFFFFFFFFFFFFFFFFFFFFF AND PUSH20 0xFFFFFFFFFFFFFFFFFFFFFFFFFFFFFFFFFFFFFFFF AND CALLER PUSH20 0xFFFFFFFFFFFFFFFFFFFFFFFFFFFFFFFFFFFFFFFF AND EQ PUSH2 0x29A JUMPI PUSH1 0x40 MLOAD PUSH32 0x8C379A000000000000000000000000000000000000000000000000000000000 DUP2 MSTORE PUSH1 0x4 ADD PUSH2 0x291 SWAP1 PUSH2 0xBF2 JUMP JUMPDEST PUSH1 0x40 MLOAD DUP1 SWAP2 SUB SWAP1 REVERT JUMPDEST PUSH1 0x0 PUSH2 0x2B2 DUP5 DUP5 PUSH1 0x0 PUSH2 0x6FC SWAP1 SWAP3 SWAP2 SWAP1 PUSH4 0xFFFFFFFF AND JUMP JUMPDEST SWAP1 POP DUP1 PUSH2 0x2F4 JUMPI PUSH1 0x40 MLOAD PUSH32 0x8C379A000000000000000000000000000000000000000000000000000000000 DUP2 MSTORE PUSH1 0x4 ADD PUSH2 0x2EB SWAP1 PUSH2 0xBD2 JUMP JUMPDEST PUSH1 0x40 MLOAD DUP1 SWAP2 SUB SWAP1 REVERT JUMPDEST PUSH1 0x2 DUP5 SWAP1 DUP1 PUSH1 0x1 DUP2 SLOAD ADD DUP1 DUP3 SSTORE DUP1 SWAP2 POP POP PUSH1 0x1 SWAP1 SUB SWAP1 PUSH1 0x0 MSTORE PUSH1 0x20 PUSH1 0x0 KECCAK256 ADD PUSH1 0x0 SWAP1 SWAP2 SWAP1 SWAP2 SWAP1 SWAP2 PUSH2 0x100 EXP DUP2 SLOAD DUP2 PUSH20 0xFFFFFFFFFFFFFFFFFFFFFFFFFFFFFFFFFFFFFFFF MUL NOT AND SWAP1 DUP4 PUSH20 0xFFFFFFFFFFFFFFFFFFFFFFFFFFFFFFFFFFFFFFFF AND MUL OR SWAP1 SSTORE POP PUSH1 0x1 SWAP2 POP POP SWAP3 SWAP2 POP POP JUMP JUMPDEST PUSH1 0x0 PUSH1 0x3 PUSH1 0x0 SWAP1 SLOAD SWAP1 PUSH2 0x100 EXP SWAP1 DIV PUSH20 0xFFFFFFFFFFFFFFFFFFFFFFFFFFFFFFFFFFFFFFFF AND PUSH20 0xFFFFFFFFFFFFFFFFFFFFFFFFFFFFFFFFFFFFFFFF AND CALLER PUSH20 0xFFFFFFFFFFFFFFFFFFFFFFFFFFFFFFFFFFFFFFFF AND EQ PUSH2 0x3F4 JUMPI PUSH1 0x40 MLOAD PUSH32 0x8C379A000000000000000000000000000000000000000000000000000000000 DUP2 MSTORE PUSH1 0x4 ADD PUSH2 0x3EB SWAP1 PUSH2 0xBF2 JUMP JUMPDEST PUSH1 0x40 MLOAD DUP1 SWAP2 SUB SWAP1 REVERT JUMPDEST PUSH1 0x0 PUSH2 0x40A DUP4 PUSH1 0x0 PUSH2 0x7D2 SWAP1 SWAP2 SWAP1 PUSH4 0xFFFFFFFF AND JUMP JUMPDEST SWAP1 POP DUP1 PUSH2 0x44C JUMPI PUSH1 0x40 MLOAD PUSH32 0x8C379A000000000000000000000000000000000000000000000000000000000 DUP2 MSTORE PUSH1 0x4 ADD PUSH2 0x443 SWAP1 PUSH2 0xC12 JUMP JUMPDEST PUSH1 0x40 MLOAD DUP1 SWAP2 SUB SWAP1 REVERT JUMPDEST PUSH1 0x0 JUMPDEST PUSH1 0x2 DUP1 SLOAD SWAP1 POP DUP2 LT ISZERO PUSH2 0x4E6 JUMPI PUSH1 0x2 DUP2 DUP2 SLOAD DUP2 LT PUSH2 0x470 JUMPI PUSH2 0x46F PUSH2 0xE7D JUMP JUMPDEST JUMPDEST SWAP1 PUSH1 0x0 MSTORE PUSH1 0x20 PUSH1 0x0 KECCAK256 ADD PUSH1 0x0 SWAP1 SLOAD SWAP1 PUSH2 0x100 EXP SWAP1 DIV PUSH20 0xFFFFFFFFFFFFFFFFFFFFFFFFFFFFFFFFFFFFFFFF AND PUSH20 0xFFFFFFFFFFFFFFFFFFFFFFFFFFFFFFFFFFFFFFFF AND DUP5 PUSH20 0xFFFFFFFFFFFFFFFFFFFFFFFFFFFFFFFFFFFFFFFF AND EQ ISZERO PUSH2 0x4D3 JUMPI PUSH2 0x4E6 JUMP JUMPDEST DUP1 DUP1 PUSH2 0x4DE SWAP1 PUSH2 0xDA7 JUMP JUMPDEST SWAP2 POP POP PUSH2 0x44F JUMP JUMPDEST PUSH1 0x1 PUSH1 0x2 DUP1 SLOAD SWAP1 POP PUSH2 0x4F8 SWAP2 SWAP1 PUSH2 0xCB9 JUMP JUMPDEST DUP2 LT ISZERO PUSH2 0x5F7 JUMPI PUSH1 0x2 PUSH1 0x1 PUSH1 0x2 DUP1 SLOAD SWAP1 POP PUSH2 0x513 SWAP2 SWAP1 PUSH2 0xCB9 JUMP JUMPDEST DUP2 SLOAD DUP2 LT PUSH2 0x524 JUMPI PUSH2 0x523 PUSH2 0xE7D JUMP JUMPDEST JUMPDEST SWAP1 PUSH1 0x0 MSTORE PUSH1 0x20 PUSH1 0x0 KECCAK256 ADD PUSH1 0x0 SWAP1 SLOAD SWAP1 PUSH2 0x100 EXP SWAP1 DIV PUSH20 0xFFFFFFFFFFFFFFFFFFFFFFFFFFFFFFFFFFFFFFFF AND PUSH1 0x2 DUP3 DUP2 SLOAD DUP2 LT PUSH2 0x563 JUMPI PUSH2 0x562 PUSH2 0xE7D JUMP JUMPDEST JUMPDEST SWAP1 PUSH1 0x0 MSTORE PUSH1 0x20 PUSH1 0x0 KECCAK256 ADD PUSH1 0x0 PUSH2 0x100 EXP DUP2 SLOAD DUP2 PUSH20 0xFFFFFFFFFFFFFFFFFFFFFFFFFFFFFFFFFFFFFFFF MUL NOT AND SWAP1 DUP4 PUSH20 0xFFFFFFFFFFFFFFFFFFFFFFFFFFFFFFFFFFFFFFFF AND MUL OR SWAP1 SSTORE POP PUSH1 0x2 DUP1 SLOAD DUP1 PUSH2 0x5BD JUMPI PUSH2 0x5BC PUSH2 0xE4E JUMP JUMPDEST JUMPDEST PUSH1 0x1 SWAP1 SUB DUP2 DUP2 SWAP1 PUSH1 0x0 MSTORE PUSH1 0x20 PUSH1 0x0 KECCAK256 ADD PUSH1 0x0 PUSH2 0x100 EXP DUP2 SLOAD SWAP1 PUSH20 0xFFFFFFFFFFFFFFFFFFFFFFFFFFFFFFFFFFFFFFFF MUL NOT AND SWAP1 SSTORE SWAP1 SSTORE PUSH2 0x659 JUMP JUMPDEST PUSH1 0x1 PUSH1 0x2 DUP1 SLOAD SWAP1 POP PUSH2 0x609 SWAP2 SWAP1 PUSH2 0xCB9 JUMP JUMPDEST DUP2 EQ ISZERO PUSH2 0x658 JUMPI PUSH1 0x2 DUP1 SLOAD DUP1 PUSH2 0x622 JUMPI PUSH2 0x621 PUSH2 0xE4E JUMP JUMPDEST JUMPDEST PUSH1 0x1 SWAP1 SUB DUP2 DUP2 SWAP1 PUSH1 0x0 MSTORE PUSH1 0x20 PUSH1 0x0 KECCAK256 ADD PUSH1 0x0 PUSH2 0x100 EXP DUP2 SLOAD SWAP1 PUSH20 0xFFFFFFFFFFFFFFFFFFFFFFFFFFFFFFFFFFFFFFFF MUL NOT AND SWAP1 SSTORE SWAP1 SSTORE JUMPDEST JUMPDEST PUSH1 0x1 SWAP3 POP POP POP SWAP2 SWAP1 POP JUMP JUMPDEST PUSH1 0x0 PUSH2 0x67A DUP3 PUSH1 0x0 PUSH2 0x894 SWAP1 SWAP2 SWAP1 PUSH4 0xFFFFFFFF AND JUMP JUMPDEST SWAP1 POP SWAP2 SWAP1 POP JUMP JUMPDEST PUSH1 0x0 PUSH2 0x68D DUP5 DUP5 PUSH2 0x894 JUMP JUMPDEST PUSH2 0x69A JUMPI PUSH1 0x0 SWAP1 POP PUSH2 0x6F5 JUMP JUMPDEST DUP2 DUP5 PUSH1 0x1 ADD PUSH1 0x0 DUP6 PUSH20 0xFFFFFFFFFFFFFFFFFFFFFFFFFFFFFFFFFFFFFFFF AND PUSH20 0xFFFFFFFFFFFFFFFFFFFFFFFFFFFFFFFFFFFFFFFF AND DUP2 MSTORE PUSH1 0x20 ADD SWAP1 DUP2 MSTORE PUSH1 0x20 ADD PUSH1 0x0 KECCAK256 SWAP1 DUP1 MLOAD SWAP1 PUSH1 0x20 ADD SWAP1 PUSH2 0x6EF SWAP3 SWAP2 SWAP1 PUSH2 0x92B JUMP JUMPDEST POP PUSH1 0x1 SWAP1 POP JUMPDEST SWAP4 SWAP3 POP POP POP JUMP JUMPDEST PUSH1 0x0 PUSH2 0x708 DUP5 DUP5 PUSH2 0x894 JUMP JUMPDEST ISZERO PUSH2 0x716 JUMPI PUSH1 0x0 SWAP1 POP PUSH2 0x7CB JUMP JUMPDEST PUSH1 0x1 DUP5 PUSH1 0x0 ADD PUSH1 0x0 DUP6 PUSH20 0xFFFFFFFFFFFFFFFFFFFFFFFFFFFFFFFFFFFFFFFF AND PUSH20 0xFFFFFFFFFFFFFFFFFFFFFFFFFFFFFFFFFFFFFFFF AND DUP2 MSTORE PUSH1 0x20 ADD SWAP1 DUP2 MSTORE PUSH1 0x20 ADD PUSH1 0x0 KECCAK256 PUSH1 0x0 PUSH2 0x100 EXP DUP2 SLOAD DUP2 PUSH1 0xFF MUL NOT AND SWAP1 DUP4 ISZERO ISZERO MUL OR SWAP1 SSTORE POP DUP2 DUP5 PUSH1 0x1 ADD PUSH1 0x0 DUP6 PUSH20 0xFFFFFFFFFFFFFFFFFFFFFFFFFFFFFFFFFFFFFFFF AND PUSH20 0xFFFFFFFFFFFFFFFFFFFFFFFFFFFFFFFFFFFFFFFF AND DUP2 MSTORE PUSH1 0x20 ADD SWAP1 DUP2 MSTORE PUSH1 0x20 ADD PUSH1 0x0 KECCAK256 SWAP1 DUP1 MLOAD SWAP1 PUSH1 0x20 ADD SWAP1 PUSH2 0x7C5 SWAP3 SWAP2 SWAP1 PUSH2 0x92B JUMP JUMPDEST POP PUSH1 0x1 SWAP1 POP JUMPDEST SWAP4 SWAP3 POP POP POP JUMP JUMPDEST PUSH1 0x0 PUSH2 0x7DE DUP4 DUP4 PUSH2 0x894 JUMP JUMPDEST PUSH2 0x7EB JUMPI PUSH1 0x0 SWAP1 POP PUSH2 0x88E JUMP JUMPDEST DUP3 PUSH1 0x0 ADD PUSH1 0x0 DUP4 PUSH20 0xFFFFFFFFFFFFFFFFFFFFFFFFFFFFFFFFFFFFFFFF AND PUSH20 0xFFFFFFFFFFFFFFFFFFFFFFFFFFFFFFFFFFFFFFFF AND DUP2 MSTORE PUSH1 0x20 ADD SWAP1 DUP2 MSTORE PUSH1 0x20 ADD PUSH1 0x0 KECCAK256 PUSH1 0x0 PUSH2 0x100 EXP DUP2 SLOAD SWAP1 PUSH1 0xFF MUL NOT AND SWAP1 SSTORE DUP3 PUSH1 0x1 ADD PUSH1 0x0 DUP4 PUSH20 0xFFFFFFFFFFFFFFFFFFFFFFFFFFFFFFFFFFFFFFFF AND PUSH20 0xFFFFFFFFFFFFFFFFFFFFFFFFFFFFFFFFFFFFFFFF AND DUP2 MSTORE PUSH1 0x20 ADD SWAP1 DUP2 MSTORE PUSH1 0x20 ADD PUSH1 0x0 KECCAK256 PUSH1 0x0 PUSH2 0x889 SWAP2 SWAP1 PUSH2 0x9B1 JUMP JUMPDEST PUSH1 0x1 SWAP1 POP JUMPDEST SWAP3 SWAP2 POP POP JUMP JUMPDEST PUSH1 0x0 DUP1 PUSH20 0xFFFFFFFFFFFFFFFFFFFFFFFFFFFFFFFFFFFFFFFF AND DUP3 PUSH20 0xFFFFFFFFFFFFFFFFFFFFFFFFFFFFFFFFFFFFFFFF AND EQ ISZERO PUSH2 0x8D3 JUMPI PUSH1 0x0 SWAP1 POP PUSH2 0x925 JUMP JUMPDEST DUP3 PUSH1 0x0 ADD PUSH1 0x0 DUP4 PUSH20 0xFFFFFFFFFFFFFFFFFFFFFFFFFFFFFFFFFFFFFFFF AND PUSH20 0xFFFFFFFFFFFFFFFFFFFFFFFFFFFFFFFFFFFFFFFF AND DUP2 MSTORE PUSH1 0x20 ADD SWAP1 DUP2 MSTORE PUSH1 0x20 ADD PUSH1 0x0 KECCAK256 PUSH1 0x0 SWAP1 SLOAD SWAP1 PUSH2 0x100 EXP SWAP1 DIV PUSH1 0xFF AND SWAP1 POP JUMPDEST SWAP3 SWAP2 POP POP JUMP JUMPDEST DUP3 DUP1 SLOAD PUSH2 0x937 SWAP1 PUSH2 0xD44 JUMP JUMPDEST SWAP1 PUSH1 0x0 MSTORE PUSH1 0x20 PUSH1 0x0 KECCAK256 SWAP1 PUSH1 0x1F ADD PUSH1 0x20 SWAP1 DIV DUP2 ADD SWAP3 DUP3 PUSH2 0x959 JUMPI PUSH1 0x0 DUP6 SSTORE PUSH2 0x9A0 JUMP JUMPDEST DUP3 PUSH1 0x1F LT PUSH2 0x972 JUMPI DUP1 MLOAD PUSH1 0xFF NOT AND DUP4 DUP1 ADD OR DUP6 SSTORE PUSH2 0x9A0 JUMP JUMPDEST DUP3 DUP1 ADD PUSH1 0x1 ADD DUP6 SSTORE DUP3 ISZERO PUSH2 0x9A0 JUMPI SWAP2 DUP3 ADD JUMPDEST DUP3 DUP2 GT ISZERO PUSH2 0x99F JUMPI DUP3 MLOAD DUP3 SSTORE SWAP2 PUSH1 0x20 ADD SWAP2 SWAP1 PUSH1 0x1 ADD SWAP1 PUSH2 0x984 JUMP JUMPDEST JUMPDEST POP SWAP1 POP PUSH2 0x9AD SWAP2 SWAP1 PUSH2 0x9F1 JUMP JUMPDEST POP SWAP1 JUMP JUMPDEST POP DUP1 SLOAD PUSH2 0x9BD SWAP1 PUSH2 0xD44 JUMP JUMPDEST PUSH1 0x0 DUP3 SSTORE DUP1 PUSH1 0x1F LT PUSH2 0x9CF JUMPI POP PUSH2 0x9EE JUMP JUMPDEST PUSH1 0x1F ADD PUSH1 0x20 SWAP1 DIV SWAP1 PUSH1 0x0 MSTORE PUSH1 0x20 PUSH1 0x0 KECCAK256 SWAP1 DUP2 ADD SWAP1 PUSH2 0x9ED SWAP2 SWAP1 PUSH2 0x9F1 JUMP JUMPDEST JUMPDEST POP JUMP JUMPDEST JUMPDEST DUP1 DUP3 GT ISZERO PUSH2 0xA0A JUMPI PUSH1 0x0 DUP2 PUSH1 0x0 SWAP1 SSTORE POP PUSH1 0x1 ADD PUSH2 0x9F2 JUMP JUMPDEST POP SWAP1 JUMP JUMPDEST PUSH1 0x0 PUSH2 0xA21 PUSH2 0xA1C DUP5 PUSH2 0xC77 JUMP JUMPDEST PUSH2 0xC52 JUMP JUMPDEST SWAP1 POP DUP3 DUP2 MSTORE PUSH1 0x20 DUP2 ADD DUP5 DUP5 DUP5 ADD GT ISZERO PUSH2 0xA3D JUMPI PUSH2 0xA3C PUSH2 0xEE0 JUMP JUMPDEST JUMPDEST PUSH2 0xA48 DUP5 DUP3 DUP6 PUSH2 0xD35 JUMP JUMPDEST POP SWAP4 SWAP3 POP POP POP JUMP JUMPDEST PUSH1 0x0 DUP2 CALLDATALOAD SWAP1 POP PUSH2 0xA5F DUP2 PUSH2 0xFA4 JUMP JUMPDEST SWAP3 SWAP2 POP POP JUMP JUMPDEST PUSH1 0x0 DUP3 PUSH1 0x1F DUP4 ADD SLT PUSH2 0xA7A JUMPI PUSH2 0xA79 PUSH2 0xEDB JUMP JUMPDEST JUMPDEST DUP2 CALLDATALOAD PUSH2 0xA8A DUP5 DUP3 PUSH1 0x20 DUP7 ADD PUSH2 0xA0E JUMP JUMPDEST SWAP2 POP POP SWAP3 SWAP2 POP POP JUMP JUMPDEST PUSH1 0x0 PUSH1 0x20 DUP3 DUP5 SUB SLT ISZERO PUSH2 0xAA9 JUMPI PUSH2 0xAA8 PUSH2 0xEEA JUMP JUMPDEST JUMPDEST PUSH1 0x0 PUSH2 0xAB7 DUP5 DUP3 DUP6 ADD PUSH2 0xA50 JUMP JUMPDEST SWAP2 POP POP SWAP3 SWAP2 POP POP JUMP JUMPDEST PUSH1 0x0 DUP1 PUSH1 0x40 DUP4 DUP6 SUB SLT ISZERO PUSH2 0xAD7 JUMPI PUSH2 0xAD6 PUSH2 0xEEA JUMP JUMPDEST JUMPDEST PUSH1 0x0 PUSH2 0xAE5 DUP6 DUP3 DUP7 ADD PUSH2 0xA50 JUMP JUMPDEST SWAP3 POP POP PUSH1 0x20 DUP4 ADD CALLDATALOAD PUSH8 0xFFFFFFFFFFFFFFFF DUP2 GT ISZERO PUSH2 0xB06 JUMPI PUSH2 0xB05 PUSH2 0xEE5 JUMP JUMPDEST JUMPDEST PUSH2 0xB12 DUP6 DUP3 DUP7 ADD PUSH2 0xA65 JUMP JUMPDEST SWAP2 POP POP SWAP3 POP SWAP3 SWAP1 POP JUMP JUMPDEST PUSH2 0xB25 DUP2 PUSH2 0xCFF JUMP JUMPDEST DUP3 MSTORE POP POP JUMP JUMPDEST PUSH1 0x0 PUSH2 0xB38 PUSH1 0xF DUP4 PUSH2 0xCA8 JUMP JUMPDEST SWAP2 POP PUSH2 0xB43 DUP3 PUSH2 0xF00 JUMP JUMPDEST PUSH1 0x20 DUP3 ADD SWAP1 POP SWAP2 SWAP1 POP JUMP JUMPDEST PUSH1 0x0 PUSH2 0xB5B PUSH1 0x11 DUP4 PUSH2 0xCA8 JUMP JUMPDEST SWAP2 POP PUSH2 0xB66 DUP3 PUSH2 0xF29 JUMP JUMPDEST PUSH1 0x20 DUP3 ADD SWAP1 POP SWAP2 SWAP1 POP JUMP JUMPDEST PUSH1 0x0 PUSH2 0xB7E PUSH1 0x12 DUP4 PUSH2 0xCA8 JUMP JUMPDEST SWAP2 POP PUSH2 0xB89 DUP3 PUSH2 0xF52 JUMP JUMPDEST PUSH1 0x20 DUP3 ADD SWAP1 POP SWAP2 SWAP1 POP JUMP JUMPDEST PUSH1 0x0 PUSH2 0xBA1 PUSH1 0x11 DUP4 PUSH2 0xCA8 JUMP JUMPDEST SWAP2 POP PUSH2 0xBAC DUP3 PUSH2 0xF7B JUMP JUMPDEST PUSH1 0x20 DUP3 ADD SWAP1 POP SWAP2 SWAP1 POP JUMP JUMPDEST PUSH1 0x0 PUSH1 0x20 DUP3 ADD SWAP1 POP PUSH2 0xBCC PUSH1 0x0 DUP4 ADD DUP5 PUSH2 0xB1C JUMP JUMPDEST SWAP3 SWAP2 POP POP JUMP JUMPDEST PUSH1 0x0 PUSH1 0x20 DUP3 ADD SWAP1 POP DUP2 DUP2 SUB PUSH1 0x0 DUP4 ADD MSTORE PUSH2 0xBEB DUP2 PUSH2 0xB2B JUMP JUMPDEST SWAP1 POP SWAP2 SWAP1 POP JUMP JUMPDEST PUSH1 0x0 PUSH1 0x20 DUP3 ADD SWAP1 POP DUP2 DUP2 SUB PUSH1 0x0 DUP4 ADD MSTORE PUSH2 0xC0B DUP2 PUSH2 0xB4E JUMP JUMPDEST SWAP1 POP SWAP2 SWAP1 POP JUMP JUMPDEST PUSH1 0x0 PUSH1 0x20 DUP3 ADD SWAP1 POP DUP2 DUP2 SUB PUSH1 0x0 DUP4 ADD MSTORE PUSH2 0xC2B DUP2 PUSH2 0xB71 JUMP JUMPDEST SWAP1 POP SWAP2 SWAP1 POP JUMP JUMPDEST PUSH1 0x0 PUSH1 0x20 DUP3 ADD SWAP1 POP DUP2 DUP2 SUB PUSH1 0x0 DUP4 ADD MSTORE PUSH2 0xC4B DUP2 PUSH2 0xB94 JUMP JUMPDEST SWAP1 POP SWAP2 SWAP1 POP JUMP JUMPDEST PUSH1 0x0 PUSH2 0xC5C PUSH2 0xC6D JUMP JUMPDEST SWAP1 POP PUSH2 0xC68 DUP3 DUP3 PUSH2 0xD76 JUMP JUMPDEST SWAP2 SWAP1 POP JUMP JUMPDEST PUSH1 0x0 PUSH1 0x40 MLOAD SWAP1 POP SWAP1 JUMP JUMPDEST PUSH1 0x0 PUSH8 0xFFFFFFFFFFFFFFFF DUP3 GT ISZERO PUSH2 0xC92 JUMPI PUSH2 0xC91 PUSH2 0xEAC JUMP JUMPDEST JUMPDEST PUSH2 0xC9B DUP3 PUSH2 0xEEF JUMP JUMPDEST SWAP1 POP PUSH1 0x20 DUP2 ADD SWAP1 POP SWAP2 SWAP1 POP JUMP JUMPDEST PUSH1 0x0 DUP3 DUP3 MSTORE PUSH1 0x20 DUP3 ADD SWAP1 POP SWAP3 SWAP2 POP POP JUMP JUMPDEST PUSH1 0x0 PUSH2 0xCC4 DUP3 PUSH2 0xD2B JUMP JUMPDEST SWAP2 POP PUSH2 0xCCF DUP4 PUSH2 0xD2B JUMP JUMPDEST SWAP3 POP DUP3 DUP3 LT ISZERO PUSH2 0xCE2 JUMPI PUSH2 0xCE1 PUSH2 0xDF0 JUMP JUMPDEST JUMPDEST DUP3 DUP3 SUB SWAP1 POP SWAP3 SWAP2 POP POP JUMP JUMPDEST PUSH1 0x0 PUSH2 0xCF8 DUP3 PUSH2 0xD0B JUMP JUMPDEST SWAP1 POP SWAP2 SWAP1 POP JUMP JUMPDEST PUSH1 0x0 DUP2 ISZERO ISZERO SWAP1 POP SWAP2 SWAP1 POP JUMP JUMPDEST PUSH1 0x0 PUSH20 0xFFFFFFFFFFFFFFFFFFFFFFFFFFFFFFFFFFFFFFFF DUP3 AND SWAP1 POP SWAP2 SWAP1 POP JUMP JUMPDEST PUSH1 0x0 DUP2 SWAP1 POP SWAP2 SWAP1 POP JUMP JUMPDEST DUP3 DUP2 DUP4 CALLDATACOPY PUSH1 0x0 DUP4 DUP4 ADD MSTORE POP POP POP JUMP JUMPDEST PUSH1 0x0 PUSH1 0x2 DUP3 DIV SWAP1 POP PUSH1 0x1 DUP3 AND DUP1 PUSH2 0xD5C JUMPI PUSH1 0x7F DUP3 AND SWAP2 POP JUMPDEST PUSH1 0x20 DUP3 LT DUP2 EQ ISZERO PUSH2 0xD70 JUMPI PUSH2 0xD6F PUSH2 0xE1F JUMP JUMPDEST JUMPDEST POP SWAP2 SWAP1 POP JUMP JUMPDEST PUSH2 0xD7F DUP3 PUSH2 0xEEF JUMP JUMPDEST DUP2 ADD DUP2 DUP2 LT PUSH8 0xFFFFFFFFFFFFFFFF DUP3 GT OR ISZERO PUSH2 0xD9E JUMPI PUSH2 0xD9D PUSH2 0xEAC JUMP JUMPDEST JUMPDEST DUP1 PUSH1 0x40 MSTORE POP POP POP JUMP JUMPDEST PUSH1 0x0 PUSH2 0xDB2 DUP3 PUSH2 0xD2B JUMP JUMPDEST SWAP2 POP PUSH32 0xFFFFFFFFFFFFFFFFFFFFFFFFFFFFFFFFFFFFFFFFFFFFFFFFFFFFFFFFFFFFFFFF DUP3 EQ ISZERO PUSH2 0xDE5 JUMPI PUSH2 0xDE4 PUSH2 0xDF0 JUMP JUMPDEST JUMPDEST PUSH1 0x1 DUP3 ADD SWAP1 POP SWAP2 SWAP1 POP JUMP JUMPDEST PUSH32 0x4E487B7100000000000000000000000000000000000000000000000000000000 PUSH1 0x0 MSTORE PUSH1 0x11 PUSH1 0x4 MSTORE PUSH1 0x24 PUSH1 0x0 REVERT JUMPDEST PUSH32 0x4E487B7100000000000000000000000000000000000000000000000000000000 PUSH1 0x0 MSTORE PUSH1 0x22 PUSH1 0x4 MSTORE PUSH1 0x24 PUSH1 0x0 REVERT JUMPDEST PUSH32 0x4E487B7100000000000000000000000000000000000000000000000000000000 PUSH1 0x0 MSTORE PUSH1 0x31 PUSH1 0x4 MSTORE PUSH1 0x24 PUSH1 0x0 REVERT JUMPDEST PUSH32 0x4E487B7100000000000000000000000000000000000000000000000000000000 PUSH1 0x0 MSTORE PUSH1 0x32 PUSH1 0x4 MSTORE PUSH1 0x24 PUSH1 0x0 REVERT JUMPDEST PUSH32 0x4E487B7100000000000000000000000000000000000000000000000000000000 PUSH1 0x0 MSTORE PUSH1 0x41 PUSH1 0x4 MSTORE PUSH1 0x24 PUSH1 0x0 REVERT JUMPDEST PUSH1 0x0 DUP1 REVERT JUMPDEST PUSH1 0x0 DUP1 REVERT JUMPDEST PUSH1 0x0 DUP1 REVERT JUMPDEST PUSH1 0x0 DUP1 REVERT JUMPDEST PUSH1 0x0 PUSH1 0x1F NOT PUSH1 0x1F DUP4 ADD AND SWAP1 POP SWAP2 SWAP1 POP JUMP JUMPDEST PUSH32 0x61646420726F6C65206661696C65640000000000000000000000000000000000 PUSH1 0x0 DUP3 ADD MSTORE POP JUMP JUMPDEST PUSH32 0x6F6E6C79206F776E65722063616E20646F000000000000000000000000000000 PUSH1 0x0 DUP3 ADD MSTORE POP JUMP JUMPDEST PUSH32 0x72656D6F766520726F6C65206661696C65640000000000000000000000000000 PUSH1 0x0 DUP3 ADD MSTORE POP JUMP JUMPDEST PUSH32 0x726573657420726F6C65206661696C6564000000000000000000000000000000 PUSH1 0x0 DUP3 ADD MSTORE POP JUMP JUMPDEST PUSH2 0xFAD DUP2 PUSH2 0xCED JUMP JUMPDEST DUP2 EQ PUSH2 0xFB8 JUMPI PUSH1 0x0 DUP1 REVERT JUMPDEST POP JUMP INVALID LOG2 PUSH5 0x6970667358 0x22 SLT KECCAK256 0xEE 0xBC 0x2B POP PUSH5 0x3AF957F57A 0xBF 0xE6 0xD7 SWAP2 PUSH24 0x8B8F2793D4C94B9FA1AF1367282A2173DB64736F6C634300 ADDMOD SMOD STOP CALLER "
				},
				"gasEstimates": {
					"creation": {
						"codeDepositCost": "816200",
						"executionCost": "25117",
						"totalCost": "841317"
					},
					"external": {
						"addCharacter(address,string)": "infinite",
						"isCharacter(address)": "infinite",
						"removeCharacter(address)": "infinite",
						"resetCharacter(address,string)": "infinite"
					}
				},
				"methodIdentifiers": {
					"addCharacter(address,string)": "8ec856db",
					"isCharacter(address)": "d3aa4aab",
					"removeCharacter(address)": "d17ddc0f",
					"resetCharacter(address,string)": "7e496913"
				}
			},
			"storageLayout": {
				"storage": [
					{
						"astId": 9,
						"contract": "anli/marriage/character.sol:Character",
						"label": "characters",
						"offset": 0,
						"slot": "0",
						"type": "t_struct(PersonRole)202_storage"
					},
					{
						"astId": 12,
						"contract": "anli/marriage/character.sol:Character",
						"label": "allCharacters",
						"offset": 0,
						"slot": "2",
						"type": "t_array(t_address)dyn_storage"
					},
					{
						"astId": 14,
						"contract": "anli/marriage/character.sol:Character",
						"label": "owner",
						"offset": 0,
						"slot": "3",
						"type": "t_address"
					}
				],
				"types": {
					"t_address": {
						"encoding": "inplace",
						"label": "address",
						"numberOfBytes": "20"
					},
					"t_array(t_address)dyn_storage": {
						"base": "t_address",
						"encoding": "dynamic_array",
						"label": "address[]",
						"numberOfBytes": "32"
					},
					"t_bool": {
						"encoding": "inplace",
						"label": "bool",
						"numberOfBytes": "1"
					},
					"t_mapping(t_address,t_bool)": {
						"encoding": "mapping",
						"key": "t_address",
						"label": "mapping(address => bool)",
						"numberOfBytes": "32",
						"value": "t_bool"
					},
					"t_mapping(t_address,t_string_storage)": {
						"encoding": "mapping",
						"key": "t_address",
						"label": "mapping(address => string)",
						"numberOfBytes": "32",
						"value": "t_string_storage"
					},
					"t_string_storage": {
						"encoding": "bytes",
						"label": "string",
						"numberOfBytes": "32"
					},
					"t_struct(PersonRole)202_storage": {
						"encoding": "inplace",
						"label": "struct Role.PersonRole",
						"members": [
							{
								"astId": 197,
								"contract": "anli/marriage/character.sol:Character",
								"label": "isExists",
								"offset": 0,
								"slot": "0",
								"type": "t_mapping(t_address,t_bool)"
							},
							{
								"astId": 201,
								"contract": "anli/marriage/character.sol:Character",
								"label": "summarys",
								"offset": 0,
								"slot": "1",
								"type": "t_mapping(t_address,t_string_storage)"
							}
						],
						"numberOfBytes": "64"
					}
				}
			},
			"userdoc": {
				"kind": "user",
				"methods": {},
				"version": 1
			}
		}
	}
}