{
	"anli/marriage/evidence.sol": {
		"MarriageEvidence": {
			"abi": [
				{
					"inputs": [
						{
							"internalType": "string",
							"name": "_evi",
							"type": "string"
						},
						{
							"internalType": "address",
							"name": "_a",
							"type": "address"
						},
						{
							"internalType": "address",
							"name": "_b",
							"type": "address"
						}
					],
					"stateMutability": "nonpayable",
					"type": "constructor"
				},
				{
					"anonymous": false,
					"inputs": [
						{
							"indexed": false,
							"internalType": "string",
							"name": "_evi",
							"type": "string"
						},
						{
							"indexed": false,
							"internalType": "address",
							"name": "_sender",
							"type": "address"
						}
					],
					"name": "AddRepeatSignaturesEvidence",
					"type": "event"
				},
				{
					"anonymous": false,
					"inputs": [
						{
							"indexed": false,
							"internalType": "string",
							"name": "_evi",
							"type": "string"
						},
						{
							"indexed": false,
							"internalType": "address",
							"name": "_sender",
							"type": "address"
						}
					],
					"name": "AddSignaturesEvidence",
					"type": "event"
				},
				{
					"anonymous": false,
					"inputs": [
						{
							"indexed": false,
							"internalType": "string",
							"name": "_evi",
							"type": "string"
						},
						{
							"indexed": false,
							"internalType": "address",
							"name": "_sender",
							"type": "address"
						},
						{
							"indexed": false,
							"internalType": "address",
							"name": "_a",
							"type": "address"
						},
						{
							"indexed": false,
							"internalType": "address",
							"name": "_b",
							"type": "address"
						}
					],
					"name": "NewMarriageEvidence",
					"type": "event"
				},
				{
					"inputs": [],
					"name": "getEvidence",
					"outputs": [
						{
							"internalType": "string",
							"name": "",
							"type": "string"
						},
						{
							"internalType": "address[]",
							"name": "",
							"type": "address[]"
						},
						{
							"internalType": "address[]",
							"name": "",
							"type": "address[]"
						}
					],
					"stateMutability": "view",
					"type": "function"
				},
				{
					"inputs": [],
					"name": "isAllSigned",
					"outputs": [
						{
							"internalType": "bool",
							"name": "",
							"type": "bool"
						},
						{
							"internalType": "string",
							"name": "",
							"type": "string"
						}
					],
					"stateMutability": "view",
					"type": "function"
				},
				{
					"inputs": [],
					"name": "sign",
					"outputs": [
						{
							"internalType": "bool",
							"name": "",
							"type": "bool"
						}
					],
					"stateMutability": "nonpayable",
					"type": "function"
				},
				{
					"inputs": [
						{
							"internalType": "address",
							"name": "_signer",
							"type": "address"
						}
					],
					"name": "verify",
					"outputs": [
						{
							"internalType": "bool",
							"name": "",
							"type": "bool"
						}
					],
					"stateMutability": "view",
					"type": "function"
				}
			],
			"devdoc": {
				"kind": "dev",
				"methods": {},
				"version": 1
			},
			"evm": {
				"assembly": "    /* \"anli/marriage/evidence.sol\":283:2803  contract MarriageEvidence is IEvdence {... */\n  mstore(0x40, 0x80)\n    /* \"anli/marriage/evidence.sol\":728:1244  constructor(string memory _evi, address _a, address _b) {... */\n  callvalue\n  dup1\n  iszero\n  tag_1\n  jumpi\n  0x00\n  dup1\n  revert\ntag_1:\n  pop\n  mload(0x40)\n  sub(codesize, bytecodeSize)\n  dup1\n  bytecodeSize\n  dup4\n  codecopy\n  dup2\n  dup2\n  add\n  0x40\n  mstore\n  dup2\n  add\n  swap1\n  tag_2\n  swap2\n  swap1\n  tag_3\n  jump\t// in\ntag_2:\n    /* \"anli/marriage/evidence.sol\":816:818  _a */\n  dup2\n    /* \"anli/marriage/evidence.sol\":802:818  address(0) != _a */\n  0xffffffffffffffffffffffffffffffffffffffff\n  and\n    /* \"anli/marriage/evidence.sol\":810:811  0 */\n  0x00\n    /* \"anli/marriage/evidence.sol\":802:818  address(0) != _a */\n  0xffffffffffffffffffffffffffffffffffffffff\n  and\n  eq\n  iszero\n    /* \"anli/marriage/evidence.sol\":794:846  require(address(0) != _a, \"_a is a invalid address\") */\n  tag_6\n  jumpi\n  mload(0x40)\n  0x08c379a000000000000000000000000000000000000000000000000000000000\n  dup2\n  mstore\n  0x04\n  add\n  tag_7\n  swap1\n  tag_8\n  jump\t// in\ntag_7:\n  mload(0x40)\n  dup1\n  swap2\n  sub\n  swap1\n  revert\ntag_6:\n    /* \"anli/marriage/evidence.sol\":878:880  _b */\n  dup1\n    /* \"anli/marriage/evidence.sol\":864:880  address(0) != _b */\n  0xffffffffffffffffffffffffffffffffffffffff\n  and\n    /* \"anli/marriage/evidence.sol\":872:873  0 */\n  0x00\n    /* \"anli/marriage/evidence.sol\":864:880  address(0) != _b */\n  0xffffffffffffffffffffffffffffffffffffffff\n  and\n  eq\n  iszero\n    /* \"anli/marriage/evidence.sol\":856:908  require(address(0) != _b, \"_b is a invalid address\") */\n  tag_9\n  jumpi\n  mload(0x40)\n  0x08c379a000000000000000000000000000000000000000000000000000000000\n  dup2\n  mstore\n  0x04\n  add\n  tag_10\n  swap1\n  tag_11\n  jump\t// in\ntag_10:\n  mload(0x40)\n  dup1\n  swap2\n  sub\n  swap1\n  revert\ntag_9:\n    /* \"anli/marriage/evidence.sol\":932:941  tx.origin */\n  origin\n    /* \"anli/marriage/evidence.sol\":926:941  _a != tx.origin */\n  0xffffffffffffffffffffffffffffffffffffffff\n  and\n    /* \"anli/marriage/evidence.sol\":926:928  _a */\n  dup3\n    /* \"anli/marriage/evidence.sol\":926:941  _a != tx.origin */\n  0xffffffffffffffffffffffffffffffffffffffff\n  and\n  eq\n  iszero\n    /* \"anli/marriage/evidence.sol\":918:965  require(_a != tx.origin, \"_a can not verifier\") */\n  tag_12\n  jumpi\n  mload(0x40)\n  0x08c379a000000000000000000000000000000000000000000000000000000000\n  dup2\n  mstore\n  0x04\n  add\n  tag_13\n  swap1\n  tag_14\n  jump\t// in\ntag_13:\n  mload(0x40)\n  dup1\n  swap2\n  sub\n  swap1\n  revert\ntag_12:\n    /* \"anli/marriage/evidence.sol\":989:998  tx.origin */\n  origin\n    /* \"anli/marriage/evidence.sol\":983:998  _b != tx.origin */\n  0xffffffffffffffffffffffffffffffffffffffff\n  and\n    /* \"anli/marriage/evidence.sol\":983:985  _b */\n  dup2\n    /* \"anli/marriage/evidence.sol\":983:998  _b != tx.origin */\n  0xffffffffffffffffffffffffffffffffffffffff\n  and\n  eq\n  iszero\n    /* \"anli/marriage/evidence.sol\":975:1022  require(_b != tx.origin, \"_b can not verifier\") */\n  tag_15\n  jumpi\n  mload(0x40)\n  0x08c379a000000000000000000000000000000000000000000000000000000000\n  dup2\n  mstore\n  0x04\n  add\n  tag_16\n  swap1\n  tag_17\n  jump\t// in\ntag_16:\n  mload(0x40)\n  dup1\n  swap2\n  sub\n  swap1\n  revert\ntag_15:\n    /* \"anli/marriage/evidence.sol\":1032:1043  needSigners */\n  0x01\n    /* \"anli/marriage/evidence.sol\":1049:1058  tx.origin */\n  origin\n    /* \"anli/marriage/evidence.sol\":1032:1059  needSigners.push(tx.origin) */\n  swap1\n  dup1\n  0x01\n  dup2\n  sload\n  add\n  dup1\n  dup3\n  sstore\n  dup1\n  swap2\n  pop\n  pop\n  0x01\n  swap1\n  sub\n  swap1\n  0x00\n  mstore\n  keccak256(0x00, 0x20)\n  add\n  0x00\n  swap1\n  swap2\n  swap1\n  swap2\n  swap1\n  swap2\n  0x0100\n  exp\n  dup2\n  sload\n  dup2\n  0xffffffffffffffffffffffffffffffffffffffff\n  mul\n  not\n  and\n  swap1\n  dup4\n  0xffffffffffffffffffffffffffffffffffffffff\n  and\n  mul\n  or\n  swap1\n  sstore\n  pop\n    /* \"anli/marriage/evidence.sol\":1069:1080  needSigners */\n  0x01\n    /* \"anli/marriage/evidence.sol\":1086:1088  _a */\n  dup3\n    /* \"anli/marriage/evidence.sol\":1069:1089  needSigners.push(_a) */\n  swap1\n  dup1\n  0x01\n  dup2\n  sload\n  add\n  dup1\n  dup3\n  sstore\n  dup1\n  swap2\n  pop\n  pop\n  0x01\n  swap1\n  sub\n  swap1\n  0x00\n  mstore\n  keccak256(0x00, 0x20)\n  add\n  0x00\n  swap1\n  swap2\n  swap1\n  swap2\n  swap1\n  swap2\n  0x0100\n  exp\n  dup2\n  sload\n  dup2\n  0xffffffffffffffffffffffffffffffffffffffff\n  mul\n  not\n  and\n  swap1\n  dup4\n  0xffffffffffffffffffffffffffffffffffffffff\n  and\n  mul\n  or\n  swap1\n  sstore\n  pop\n    /* \"anli/marriage/evidence.sol\":1099:1110  needSigners */\n  0x01\n    /* \"anli/marriage/evidence.sol\":1116:1118  _b */\n  dup2\n    /* \"anli/marriage/evidence.sol\":1099:1119  needSigners.push(_b) */\n  swap1\n  dup1\n  0x01\n  dup2\n  sload\n  add\n  dup1\n  dup3\n  sstore\n  dup1\n  swap2\n  pop\n  pop\n  0x01\n  swap1\n  sub\n  swap1\n  0x00\n  mstore\n  keccak256(0x00, 0x20)\n  add\n  0x00\n  swap1\n  swap2\n  swap1\n  swap2\n  swap1\n  swap2\n  0x0100\n  exp\n  dup2\n  sload\n  dup2\n  0xffffffffffffffffffffffffffffffffffffffff\n  mul\n  not\n  and\n  swap1\n  dup4\n  0xffffffffffffffffffffffffffffffffffffffff\n  and\n  mul\n  or\n  swap1\n  sstore\n  pop\n    /* \"anli/marriage/evidence.sol\":1129:1136  signers */\n  0x02\n    /* \"anli/marriage/evidence.sol\":1142:1151  tx.origin */\n  origin\n    /* \"anli/marriage/evidence.sol\":1129:1152  signers.push(tx.origin) */\n  swap1\n  dup1\n  0x01\n  dup2\n  sload\n  add\n  dup1\n  dup3\n  sstore\n  dup1\n  swap2\n  pop\n  pop\n  0x01\n  swap1\n  sub\n  swap1\n  0x00\n  mstore\n  keccak256(0x00, 0x20)\n  add\n  0x00\n  swap1\n  swap2\n  swap1\n  swap2\n  swap1\n  swap2\n  0x0100\n  exp\n  dup2\n  sload\n  dup2\n  0xffffffffffffffffffffffffffffffffffffffff\n  mul\n  not\n  and\n  swap1\n  dup4\n  0xffffffffffffffffffffffffffffffffffffffff\n  and\n  mul\n  or\n  swap1\n  sstore\n  pop\n    /* \"anli/marriage/evidence.sol\":1173:1177  _evi */\n  dup3\n    /* \"anli/marriage/evidence.sol\":1162:1170  evidence */\n  0x00\n    /* \"anli/marriage/evidence.sol\":1162:1177  evidence = _evi */\n  swap1\n  dup1\n  mload\n  swap1\n  0x20\n  add\n  swap1\n  tag_22\n  swap3\n  swap2\n  swap1\n  tag_23\n  jump\t// in\ntag_22:\n  pop\n    /* \"anli/marriage/evidence.sol\":1193:1237  NewMarriageEvidence(_evi, tx.origin, _a, _b) */\n  0x4c843084a6226eb2c3a056100c5d939cfe9708077c523e44f5a542711587ddbe\n    /* \"anli/marriage/evidence.sol\":1213:1217  _evi */\n  dup4\n    /* \"anli/marriage/evidence.sol\":1219:1228  tx.origin */\n  origin\n    /* \"anli/marriage/evidence.sol\":1230:1232  _a */\n  dup5\n    /* \"anli/marriage/evidence.sol\":1234:1236  _b */\n  dup5\n    /* \"anli/marriage/evidence.sol\":1193:1237  NewMarriageEvidence(_evi, tx.origin, _a, _b) */\n  mload(0x40)\n  tag_24\n  swap5\n  swap4\n  swap3\n  swap2\n  swap1\n  tag_25\n  jump\t// in\ntag_24:\n  mload(0x40)\n  dup1\n  swap2\n  sub\n  swap1\n  log1\n    /* \"anli/marriage/evidence.sol\":728:1244  constructor(string memory _evi, address _a, address _b) {... */\n  pop\n  pop\n  pop\n    /* \"anli/marriage/evidence.sol\":283:2803  contract MarriageEvidence is IEvdence {... */\n  jump(tag_26)\ntag_23:\n  dup3\n  dup1\n  sload\n  tag_27\n  swap1\n  tag_28\n  jump\t// in\ntag_27:\n  swap1\n  0x00\n  mstore\n  keccak256(0x00, 0x20)\n  swap1\n  0x1f\n  add\n  0x20\n  swap1\n  div\n  dup2\n  add\n  swap3\n  dup3\n  tag_30\n  jumpi\n  0x00\n  dup6\n  sstore\n  jump(tag_29)\ntag_30:\n  dup3\n  0x1f\n  lt\n  tag_31\n  jumpi\n  dup1\n  mload\n  not(0xff)\n  and\n  dup4\n  dup1\n  add\n  or\n  dup6\n  sstore\n  jump(tag_29)\ntag_31:\n  dup3\n  dup1\n  add\n  0x01\n  add\n  dup6\n  sstore\n  dup3\n  iszero\n  tag_29\n  jumpi\n  swap2\n  dup3\n  add\ntag_32:\n  dup3\n  dup2\n  gt\n  iszero\n  tag_33\n  jumpi\n  dup3\n  mload\n  dup3\n  sstore\n  swap2\n  0x20\n  add\n  swap2\n  swap1\n  0x01\n  add\n  swap1\n  jump(tag_32)\ntag_33:\ntag_29:\n  pop\n  swap1\n  pop\n  tag_34\n  swap2\n  swap1\n  tag_35\n  jump\t// in\ntag_34:\n  pop\n  swap1\n  jump\t// out\ntag_35:\ntag_36:\n  dup1\n  dup3\n  gt\n  iszero\n  tag_37\n  jumpi\n  0x00\n  dup2\n  0x00\n  swap1\n  sstore\n  pop\n  0x01\n  add\n  jump(tag_36)\ntag_37:\n  pop\n  swap1\n  jump\t// out\n    /* \"#utility.yul\":7:428   */\ntag_39:\n    /* \"#utility.yul\":96:101   */\n  0x00\n    /* \"#utility.yul\":121:187   */\n  tag_41\n    /* \"#utility.yul\":137:186   */\n  tag_42\n    /* \"#utility.yul\":179:185   */\n  dup5\n    /* \"#utility.yul\":137:186   */\n  tag_43\n  jump\t// in\ntag_42:\n    /* \"#utility.yul\":121:187   */\n  tag_44\n  jump\t// in\ntag_41:\n    /* \"#utility.yul\":112:187   */\n  swap1\n  pop\n    /* \"#utility.yul\":210:216   */\n  dup3\n    /* \"#utility.yul\":203:208   */\n  dup2\n    /* \"#utility.yul\":196:217   */\n  mstore\n    /* \"#utility.yul\":248:252   */\n  0x20\n    /* \"#utility.yul\":241:246   */\n  dup2\n    /* \"#utility.yul\":237:253   */\n  add\n    /* \"#utility.yul\":286:289   */\n  dup5\n    /* \"#utility.yul\":277:283   */\n  dup5\n    /* \"#utility.yul\":272:275   */\n  dup5\n    /* \"#utility.yul\":268:284   */\n  add\n    /* \"#utility.yul\":265:290   */\n  gt\n    /* \"#utility.yul\":262:374   */\n  iszero\n  tag_45\n  jumpi\n    /* \"#utility.yul\":293:372   */\n  tag_46\n  tag_47\n  jump\t// in\ntag_46:\n    /* \"#utility.yul\":262:374   */\ntag_45:\n    /* \"#utility.yul\":383:422   */\n  tag_48\n    /* \"#utility.yul\":415:421   */\n  dup5\n    /* \"#utility.yul\":410:413   */\n  dup3\n    /* \"#utility.yul\":405:408   */\n  dup6\n    /* \"#utility.yul\":383:422   */\n  tag_49\n  jump\t// in\ntag_48:\n    /* \"#utility.yul\":102:428   */\n  pop\n    /* \"#utility.yul\":7:428   */\n  swap4\n  swap3\n  pop\n  pop\n  pop\n  jump\t// out\n    /* \"#utility.yul\":434:577   */\ntag_50:\n    /* \"#utility.yul\":491:496   */\n  0x00\n    /* \"#utility.yul\":522:528   */\n  dup2\n    /* \"#utility.yul\":516:529   */\n  mload\n    /* \"#utility.yul\":507:529   */\n  swap1\n  pop\n    /* \"#utility.yul\":538:571   */\n  tag_52\n    /* \"#utility.yul\":565:570   */\n  dup2\n    /* \"#utility.yul\":538:571   */\n  tag_53\n  jump\t// in\ntag_52:\n    /* \"#utility.yul\":434:577   */\n  swap3\n  swap2\n  pop\n  pop\n  jump\t// out\n    /* \"#utility.yul\":597:952   */\ntag_54:\n    /* \"#utility.yul\":664:669   */\n  0x00\n    /* \"#utility.yul\":713:716   */\n  dup3\n    /* \"#utility.yul\":706:710   */\n  0x1f\n    /* \"#utility.yul\":698:704   */\n  dup4\n    /* \"#utility.yul\":694:711   */\n  add\n    /* \"#utility.yul\":690:717   */\n  slt\n    /* \"#utility.yul\":680:802   */\n  tag_56\n  jumpi\n    /* \"#utility.yul\":721:800   */\n  tag_57\n  tag_58\n  jump\t// in\ntag_57:\n    /* \"#utility.yul\":680:802   */\ntag_56:\n    /* \"#utility.yul\":831:837   */\n  dup2\n    /* \"#utility.yul\":825:838   */\n  mload\n    /* \"#utility.yul\":856:946   */\n  tag_59\n    /* \"#utility.yul\":942:945   */\n  dup5\n    /* \"#utility.yul\":934:940   */\n  dup3\n    /* \"#utility.yul\":927:931   */\n  0x20\n    /* \"#utility.yul\":919:925   */\n  dup7\n    /* \"#utility.yul\":915:932   */\n  add\n    /* \"#utility.yul\":856:946   */\n  tag_39\n  jump\t// in\ntag_59:\n    /* \"#utility.yul\":847:946   */\n  swap2\n  pop\n    /* \"#utility.yul\":670:952   */\n  pop\n    /* \"#utility.yul\":597:952   */\n  swap3\n  swap2\n  pop\n  pop\n  jump\t// out\n    /* \"#utility.yul\":958:1794   */\ntag_3:\n    /* \"#utility.yul\":1056:1062   */\n  0x00\n    /* \"#utility.yul\":1064:1070   */\n  dup1\n    /* \"#utility.yul\":1072:1078   */\n  0x00\n    /* \"#utility.yul\":1121:1123   */\n  0x60\n    /* \"#utility.yul\":1109:1118   */\n  dup5\n    /* \"#utility.yul\":1100:1107   */\n  dup7\n    /* \"#utility.yul\":1096:1119   */\n  sub\n    /* \"#utility.yul\":1092:1124   */\n  slt\n    /* \"#utility.yul\":1089:1208   */\n  iszero\n  tag_61\n  jumpi\n    /* \"#utility.yul\":1127:1206   */\n  tag_62\n  tag_63\n  jump\t// in\ntag_62:\n    /* \"#utility.yul\":1089:1208   */\ntag_61:\n    /* \"#utility.yul\":1268:1269   */\n  0x00\n    /* \"#utility.yul\":1257:1266   */\n  dup5\n    /* \"#utility.yul\":1253:1270   */\n  add\n    /* \"#utility.yul\":1247:1271   */\n  mload\n    /* \"#utility.yul\":1298:1316   */\n  0xffffffffffffffff\n    /* \"#utility.yul\":1290:1296   */\n  dup2\n    /* \"#utility.yul\":1287:1317   */\n  gt\n    /* \"#utility.yul\":1284:1401   */\n  iszero\n  tag_64\n  jumpi\n    /* \"#utility.yul\":1320:1399   */\n  tag_65\n  tag_66\n  jump\t// in\ntag_65:\n    /* \"#utility.yul\":1284:1401   */\ntag_64:\n    /* \"#utility.yul\":1425:1499   */\n  tag_67\n    /* \"#utility.yul\":1491:1498   */\n  dup7\n    /* \"#utility.yul\":1482:1488   */\n  dup3\n    /* \"#utility.yul\":1471:1480   */\n  dup8\n    /* \"#utility.yul\":1467:1489   */\n  add\n    /* \"#utility.yul\":1425:1499   */\n  tag_54\n  jump\t// in\ntag_67:\n    /* \"#utility.yul\":1415:1499   */\n  swap4\n  pop\n    /* \"#utility.yul\":1218:1509   */\n  pop\n    /* \"#utility.yul\":1548:1550   */\n  0x20\n    /* \"#utility.yul\":1574:1638   */\n  tag_68\n    /* \"#utility.yul\":1630:1637   */\n  dup7\n    /* \"#utility.yul\":1621:1627   */\n  dup3\n    /* \"#utility.yul\":1610:1619   */\n  dup8\n    /* \"#utility.yul\":1606:1628   */\n  add\n    /* \"#utility.yul\":1574:1638   */\n  tag_50\n  jump\t// in\ntag_68:\n    /* \"#utility.yul\":1564:1638   */\n  swap3\n  pop\n    /* \"#utility.yul\":1519:1648   */\n  pop\n    /* \"#utility.yul\":1687:1689   */\n  0x40\n    /* \"#utility.yul\":1713:1777   */\n  tag_69\n    /* \"#utility.yul\":1769:1776   */\n  dup7\n    /* \"#utility.yul\":1760:1766   */\n  dup3\n    /* \"#utility.yul\":1749:1758   */\n  dup8\n    /* \"#utility.yul\":1745:1767   */\n  add\n    /* \"#utility.yul\":1713:1777   */\n  tag_50\n  jump\t// in\ntag_69:\n    /* \"#utility.yul\":1703:1777   */\n  swap2\n  pop\n    /* \"#utility.yul\":1658:1787   */\n  pop\n    /* \"#utility.yul\":958:1794   */\n  swap3\n  pop\n  swap3\n  pop\n  swap3\n  jump\t// out\n    /* \"#utility.yul\":1800:1918   */\ntag_70:\n    /* \"#utility.yul\":1887:1911   */\n  tag_72\n    /* \"#utility.yul\":1905:1910   */\n  dup2\n    /* \"#utility.yul\":1887:1911   */\n  tag_73\n  jump\t// in\ntag_72:\n    /* \"#utility.yul\":1882:1885   */\n  dup3\n    /* \"#utility.yul\":1875:1912   */\n  mstore\n    /* \"#utility.yul\":1800:1918   */\n  pop\n  pop\n  jump\t// out\n    /* \"#utility.yul\":1924:2288   */\ntag_74:\n    /* \"#utility.yul\":2012:2015   */\n  0x00\n    /* \"#utility.yul\":2040:2079   */\n  tag_76\n    /* \"#utility.yul\":2073:2078   */\n  dup3\n    /* \"#utility.yul\":2040:2079   */\n  tag_77\n  jump\t// in\ntag_76:\n    /* \"#utility.yul\":2095:2166   */\n  tag_78\n    /* \"#utility.yul\":2159:2165   */\n  dup2\n    /* \"#utility.yul\":2154:2157   */\n  dup6\n    /* \"#utility.yul\":2095:2166   */\n  tag_79\n  jump\t// in\ntag_78:\n    /* \"#utility.yul\":2088:2166   */\n  swap4\n  pop\n    /* \"#utility.yul\":2175:2227   */\n  tag_80\n    /* \"#utility.yul\":2220:2226   */\n  dup2\n    /* \"#utility.yul\":2215:2218   */\n  dup6\n    /* \"#utility.yul\":2208:2212   */\n  0x20\n    /* \"#utility.yul\":2201:2206   */\n  dup7\n    /* \"#utility.yul\":2197:2213   */\n  add\n    /* \"#utility.yul\":2175:2227   */\n  tag_49\n  jump\t// in\ntag_80:\n    /* \"#utility.yul\":2252:2281   */\n  tag_81\n    /* \"#utility.yul\":2274:2280   */\n  dup2\n    /* \"#utility.yul\":2252:2281   */\n  tag_82\n  jump\t// in\ntag_81:\n    /* \"#utility.yul\":2247:2250   */\n  dup5\n    /* \"#utility.yul\":2243:2282   */\n  add\n    /* \"#utility.yul\":2236:2282   */\n  swap2\n  pop\n    /* \"#utility.yul\":2016:2288   */\n  pop\n    /* \"#utility.yul\":1924:2288   */\n  swap3\n  swap2\n  pop\n  pop\n  jump\t// out\n    /* \"#utility.yul\":2294:2660   */\ntag_83:\n    /* \"#utility.yul\":2436:2439   */\n  0x00\n    /* \"#utility.yul\":2457:2524   */\n  tag_85\n    /* \"#utility.yul\":2521:2523   */\n  0x17\n    /* \"#utility.yul\":2516:2519   */\n  dup4\n    /* \"#utility.yul\":2457:2524   */\n  tag_79\n  jump\t// in\ntag_85:\n    /* \"#utility.yul\":2450:2524   */\n  swap2\n  pop\n    /* \"#utility.yul\":2533:2626   */\n  tag_86\n    /* \"#utility.yul\":2622:2625   */\n  dup3\n    /* \"#utility.yul\":2533:2626   */\n  tag_87\n  jump\t// in\ntag_86:\n    /* \"#utility.yul\":2651:2653   */\n  0x20\n    /* \"#utility.yul\":2646:2649   */\n  dup3\n    /* \"#utility.yul\":2642:2654   */\n  add\n    /* \"#utility.yul\":2635:2654   */\n  swap1\n  pop\n    /* \"#utility.yul\":2294:2660   */\n  swap2\n  swap1\n  pop\n  jump\t// out\n    /* \"#utility.yul\":2666:3032   */\ntag_88:\n    /* \"#utility.yul\":2808:2811   */\n  0x00\n    /* \"#utility.yul\":2829:2896   */\n  tag_90\n    /* \"#utility.yul\":2893:2895   */\n  0x13\n    /* \"#utility.yul\":2888:2891   */\n  dup4\n    /* \"#utility.yul\":2829:2896   */\n  tag_79\n  jump\t// in\ntag_90:\n    /* \"#utility.yul\":2822:2896   */\n  swap2\n  pop\n    /* \"#utility.yul\":2905:2998   */\n  tag_91\n    /* \"#utility.yul\":2994:2997   */\n  dup3\n    /* \"#utility.yul\":2905:2998   */\n  tag_92\n  jump\t// in\ntag_91:\n    /* \"#utility.yul\":3023:3025   */\n  0x20\n    /* \"#utility.yul\":3018:3021   */\n  dup3\n    /* \"#utility.yul\":3014:3026   */\n  add\n    /* \"#utility.yul\":3007:3026   */\n  swap1\n  pop\n    /* \"#utility.yul\":2666:3032   */\n  swap2\n  swap1\n  pop\n  jump\t// out\n    /* \"#utility.yul\":3038:3404   */\ntag_93:\n    /* \"#utility.yul\":3180:3183   */\n  0x00\n    /* \"#utility.yul\":3201:3268   */\n  tag_95\n    /* \"#utility.yul\":3265:3267   */\n  0x13\n    /* \"#utility.yul\":3260:3263   */\n  dup4\n    /* \"#utility.yul\":3201:3268   */\n  tag_79\n  jump\t// in\ntag_95:\n    /* \"#utility.yul\":3194:3268   */\n  swap2\n  pop\n    /* \"#utility.yul\":3277:3370   */\n  tag_96\n    /* \"#utility.yul\":3366:3369   */\n  dup3\n    /* \"#utility.yul\":3277:3370   */\n  tag_97\n  jump\t// in\ntag_96:\n    /* \"#utility.yul\":3395:3397   */\n  0x20\n    /* \"#utility.yul\":3390:3393   */\n  dup3\n    /* \"#utility.yul\":3386:3398   */\n  add\n    /* \"#utility.yul\":3379:3398   */\n  swap1\n  pop\n    /* \"#utility.yul\":3038:3404   */\n  swap2\n  swap1\n  pop\n  jump\t// out\n    /* \"#utility.yul\":3410:3776   */\ntag_98:\n    /* \"#utility.yul\":3552:3555   */\n  0x00\n    /* \"#utility.yul\":3573:3640   */\n  tag_100\n    /* \"#utility.yul\":3637:3639   */\n  0x17\n    /* \"#utility.yul\":3632:3635   */\n  dup4\n    /* \"#utility.yul\":3573:3640   */\n  tag_79\n  jump\t// in\ntag_100:\n    /* \"#utility.yul\":3566:3640   */\n  swap2\n  pop\n    /* \"#utility.yul\":3649:3742   */\n  tag_101\n    /* \"#utility.yul\":3738:3741   */\n  dup3\n    /* \"#utility.yul\":3649:3742   */\n  tag_102\n  jump\t// in\ntag_101:\n    /* \"#utility.yul\":3767:3769   */\n  0x20\n    /* \"#utility.yul\":3762:3765   */\n  dup3\n    /* \"#utility.yul\":3758:3770   */\n  add\n    /* \"#utility.yul\":3751:3770   */\n  swap1\n  pop\n    /* \"#utility.yul\":3410:3776   */\n  swap2\n  swap1\n  pop\n  jump\t// out\n    /* \"#utility.yul\":3782:4426   */\ntag_25:\n    /* \"#utility.yul\":3979:3983   */\n  0x00\n    /* \"#utility.yul\":4017:4020   */\n  0x80\n    /* \"#utility.yul\":4006:4015   */\n  dup3\n    /* \"#utility.yul\":4002:4021   */\n  add\n    /* \"#utility.yul\":3994:4021   */\n  swap1\n  pop\n    /* \"#utility.yul\":4067:4076   */\n  dup2\n    /* \"#utility.yul\":4061:4065   */\n  dup2\n    /* \"#utility.yul\":4057:4077   */\n  sub\n    /* \"#utility.yul\":4053:4054   */\n  0x00\n    /* \"#utility.yul\":4042:4051   */\n  dup4\n    /* \"#utility.yul\":4038:4055   */\n  add\n    /* \"#utility.yul\":4031:4078   */\n  mstore\n    /* \"#utility.yul\":4095:4173   */\n  tag_104\n    /* \"#utility.yul\":4168:4172   */\n  dup2\n    /* \"#utility.yul\":4159:4165   */\n  dup8\n    /* \"#utility.yul\":4095:4173   */\n  tag_74\n  jump\t// in\ntag_104:\n    /* \"#utility.yul\":4087:4173   */\n  swap1\n  pop\n    /* \"#utility.yul\":4183:4255   */\n  tag_105\n    /* \"#utility.yul\":4251:4253   */\n  0x20\n    /* \"#utility.yul\":4240:4249   */\n  dup4\n    /* \"#utility.yul\":4236:4254   */\n  add\n    /* \"#utility.yul\":4227:4233   */\n  dup7\n    /* \"#utility.yul\":4183:4255   */\n  tag_70\n  jump\t// in\ntag_105:\n    /* \"#utility.yul\":4265:4337   */\n  tag_106\n    /* \"#utility.yul\":4333:4335   */\n  0x40\n    /* \"#utility.yul\":4322:4331   */\n  dup4\n    /* \"#utility.yul\":4318:4336   */\n  add\n    /* \"#utility.yul\":4309:4315   */\n  dup6\n    /* \"#utility.yul\":4265:4337   */\n  tag_70\n  jump\t// in\ntag_106:\n    /* \"#utility.yul\":4347:4419   */\n  tag_107\n    /* \"#utility.yul\":4415:4417   */\n  0x60\n    /* \"#utility.yul\":4404:4413   */\n  dup4\n    /* \"#utility.yul\":4400:4418   */\n  add\n    /* \"#utility.yul\":4391:4397   */\n  dup5\n    /* \"#utility.yul\":4347:4419   */\n  tag_70\n  jump\t// in\ntag_107:\n    /* \"#utility.yul\":3782:4426   */\n  swap6\n  swap5\n  pop\n  pop\n  pop\n  pop\n  pop\n  jump\t// out\n    /* \"#utility.yul\":4432:4851   */\ntag_11:\n    /* \"#utility.yul\":4598:4602   */\n  0x00\n    /* \"#utility.yul\":4636:4638   */\n  0x20\n    /* \"#utility.yul\":4625:4634   */\n  dup3\n    /* \"#utility.yul\":4621:4639   */\n  add\n    /* \"#utility.yul\":4613:4639   */\n  swap1\n  pop\n    /* \"#utility.yul\":4685:4694   */\n  dup2\n    /* \"#utility.yul\":4679:4683   */\n  dup2\n    /* \"#utility.yul\":4675:4695   */\n  sub\n    /* \"#utility.yul\":4671:4672   */\n  0x00\n    /* \"#utility.yul\":4660:4669   */\n  dup4\n    /* \"#utility.yul\":4656:4673   */\n  add\n    /* \"#utility.yul\":4649:4696   */\n  mstore\n    /* \"#utility.yul\":4713:4844   */\n  tag_109\n    /* \"#utility.yul\":4839:4843   */\n  dup2\n    /* \"#utility.yul\":4713:4844   */\n  tag_83\n  jump\t// in\ntag_109:\n    /* \"#utility.yul\":4705:4844   */\n  swap1\n  pop\n    /* \"#utility.yul\":4432:4851   */\n  swap2\n  swap1\n  pop\n  jump\t// out\n    /* \"#utility.yul\":4857:5276   */\ntag_17:\n    /* \"#utility.yul\":5023:5027   */\n  0x00\n    /* \"#utility.yul\":5061:5063   */\n  0x20\n    /* \"#utility.yul\":5050:5059   */\n  dup3\n    /* \"#utility.yul\":5046:5064   */\n  add\n    /* \"#utility.yul\":5038:5064   */\n  swap1\n  pop\n    /* \"#utility.yul\":5110:5119   */\n  dup2\n    /* \"#utility.yul\":5104:5108   */\n  dup2\n    /* \"#utility.yul\":5100:5120   */\n  sub\n    /* \"#utility.yul\":5096:5097   */\n  0x00\n    /* \"#utility.yul\":5085:5094   */\n  dup4\n    /* \"#utility.yul\":5081:5098   */\n  add\n    /* \"#utility.yul\":5074:5121   */\n  mstore\n    /* \"#utility.yul\":5138:5269   */\n  tag_111\n    /* \"#utility.yul\":5264:5268   */\n  dup2\n    /* \"#utility.yul\":5138:5269   */\n  tag_88\n  jump\t// in\ntag_111:\n    /* \"#utility.yul\":5130:5269   */\n  swap1\n  pop\n    /* \"#utility.yul\":4857:5276   */\n  swap2\n  swap1\n  pop\n  jump\t// out\n    /* \"#utility.yul\":5282:5701   */\ntag_14:\n    /* \"#utility.yul\":5448:5452   */\n  0x00\n    /* \"#utility.yul\":5486:5488   */\n  0x20\n    /* \"#utility.yul\":5475:5484   */\n  dup3\n    /* \"#utility.yul\":5471:5489   */\n  add\n    /* \"#utility.yul\":5463:5489   */\n  swap1\n  pop\n    /* \"#utility.yul\":5535:5544   */\n  dup2\n    /* \"#utility.yul\":5529:5533   */\n  dup2\n    /* \"#utility.yul\":5525:5545   */\n  sub\n    /* \"#utility.yul\":5521:5522   */\n  0x00\n    /* \"#utility.yul\":5510:5519   */\n  dup4\n    /* \"#utility.yul\":5506:5523   */\n  add\n    /* \"#utility.yul\":5499:5546   */\n  mstore\n    /* \"#utility.yul\":5563:5694   */\n  tag_113\n    /* \"#utility.yul\":5689:5693   */\n  dup2\n    /* \"#utility.yul\":5563:5694   */\n  tag_93\n  jump\t// in\ntag_113:\n    /* \"#utility.yul\":5555:5694   */\n  swap1\n  pop\n    /* \"#utility.yul\":5282:5701   */\n  swap2\n  swap1\n  pop\n  jump\t// out\n    /* \"#utility.yul\":5707:6126   */\ntag_8:\n    /* \"#utility.yul\":5873:5877   */\n  0x00\n    /* \"#utility.yul\":5911:5913   */\n  0x20\n    /* \"#utility.yul\":5900:5909   */\n  dup3\n    /* \"#utility.yul\":5896:5914   */\n  add\n    /* \"#utility.yul\":5888:5914   */\n  swap1\n  pop\n    /* \"#utility.yul\":5960:5969   */\n  dup2\n    /* \"#utility.yul\":5954:5958   */\n  dup2\n    /* \"#utility.yul\":5950:5970   */\n  sub\n    /* \"#utility.yul\":5946:5947   */\n  0x00\n    /* \"#utility.yul\":5935:5944   */\n  dup4\n    /* \"#utility.yul\":5931:5948   */\n  add\n    /* \"#utility.yul\":5924:5971   */\n  mstore\n    /* \"#utility.yul\":5988:6119   */\n  tag_115\n    /* \"#utility.yul\":6114:6118   */\n  dup2\n    /* \"#utility.yul\":5988:6119   */\n  tag_98\n  jump\t// in\ntag_115:\n    /* \"#utility.yul\":5980:6119   */\n  swap1\n  pop\n    /* \"#utility.yul\":5707:6126   */\n  swap2\n  swap1\n  pop\n  jump\t// out\n    /* \"#utility.yul\":6132:6261   */\ntag_44:\n    /* \"#utility.yul\":6166:6172   */\n  0x00\n    /* \"#utility.yul\":6193:6213   */\n  tag_117\n  tag_118\n  jump\t// in\ntag_117:\n    /* \"#utility.yul\":6183:6213   */\n  swap1\n  pop\n    /* \"#utility.yul\":6222:6255   */\n  tag_119\n    /* \"#utility.yul\":6250:6254   */\n  dup3\n    /* \"#utility.yul\":6242:6248   */\n  dup3\n    /* \"#utility.yul\":6222:6255   */\n  tag_120\n  jump\t// in\ntag_119:\n    /* \"#utility.yul\":6132:6261   */\n  swap2\n  swap1\n  pop\n  jump\t// out\n    /* \"#utility.yul\":6267:6342   */\ntag_118:\n    /* \"#utility.yul\":6300:6306   */\n  0x00\n    /* \"#utility.yul\":6333:6335   */\n  0x40\n    /* \"#utility.yul\":6327:6336   */\n  mload\n    /* \"#utility.yul\":6317:6336   */\n  swap1\n  pop\n    /* \"#utility.yul\":6267:6342   */\n  swap1\n  jump\t// out\n    /* \"#utility.yul\":6348:6656   */\ntag_43:\n    /* \"#utility.yul\":6410:6414   */\n  0x00\n    /* \"#utility.yul\":6500:6518   */\n  0xffffffffffffffff\n    /* \"#utility.yul\":6492:6498   */\n  dup3\n    /* \"#utility.yul\":6489:6519   */\n  gt\n    /* \"#utility.yul\":6486:6542   */\n  iszero\n  tag_123\n  jumpi\n    /* \"#utility.yul\":6522:6540   */\n  tag_124\n  tag_125\n  jump\t// in\ntag_124:\n    /* \"#utility.yul\":6486:6542   */\ntag_123:\n    /* \"#utility.yul\":6560:6589   */\n  tag_126\n    /* \"#utility.yul\":6582:6588   */\n  dup3\n    /* \"#utility.yul\":6560:6589   */\n  tag_82\n  jump\t// in\ntag_126:\n    /* \"#utility.yul\":6552:6589   */\n  swap1\n  pop\n    /* \"#utility.yul\":6644:6648   */\n  0x20\n    /* \"#utility.yul\":6638:6642   */\n  dup2\n    /* \"#utility.yul\":6634:6649   */\n  add\n    /* \"#utility.yul\":6626:6649   */\n  swap1\n  pop\n    /* \"#utility.yul\":6348:6656   */\n  swap2\n  swap1\n  pop\n  jump\t// out\n    /* \"#utility.yul\":6662:6761   */\ntag_77:\n    /* \"#utility.yul\":6714:6720   */\n  0x00\n    /* \"#utility.yul\":6748:6753   */\n  dup2\n    /* \"#utility.yul\":6742:6754   */\n  mload\n    /* \"#utility.yul\":6732:6754   */\n  swap1\n  pop\n    /* \"#utility.yul\":6662:6761   */\n  swap2\n  swap1\n  pop\n  jump\t// out\n    /* \"#utility.yul\":6767:6936   */\ntag_79:\n    /* \"#utility.yul\":6851:6862   */\n  0x00\n    /* \"#utility.yul\":6885:6891   */\n  dup3\n    /* \"#utility.yul\":6880:6883   */\n  dup3\n    /* \"#utility.yul\":6873:6892   */\n  mstore\n    /* \"#utility.yul\":6925:6929   */\n  0x20\n    /* \"#utility.yul\":6920:6923   */\n  dup3\n    /* \"#utility.yul\":6916:6930   */\n  add\n    /* \"#utility.yul\":6901:6930   */\n  swap1\n  pop\n    /* \"#utility.yul\":6767:6936   */\n  swap3\n  swap2\n  pop\n  pop\n  jump\t// out\n    /* \"#utility.yul\":6942:7038   */\ntag_73:\n    /* \"#utility.yul\":6979:6986   */\n  0x00\n    /* \"#utility.yul\":7008:7032   */\n  tag_130\n    /* \"#utility.yul\":7026:7031   */\n  dup3\n    /* \"#utility.yul\":7008:7032   */\n  tag_131\n  jump\t// in\ntag_130:\n    /* \"#utility.yul\":6997:7032   */\n  swap1\n  pop\n    /* \"#utility.yul\":6942:7038   */\n  swap2\n  swap1\n  pop\n  jump\t// out\n    /* \"#utility.yul\":7044:7170   */\ntag_131:\n    /* \"#utility.yul\":7081:7088   */\n  0x00\n    /* \"#utility.yul\":7121:7163   */\n  0xffffffffffffffffffffffffffffffffffffffff\n    /* \"#utility.yul\":7114:7119   */\n  dup3\n    /* \"#utility.yul\":7110:7164   */\n  and\n    /* \"#utility.yul\":7099:7164   */\n  swap1\n  pop\n    /* \"#utility.yul\":7044:7170   */\n  swap2\n  swap1\n  pop\n  jump\t// out\n    /* \"#utility.yul\":7176:7483   */\ntag_49:\n    /* \"#utility.yul\":7244:7245   */\n  0x00\n    /* \"#utility.yul\":7254:7367   */\ntag_134:\n    /* \"#utility.yul\":7268:7274   */\n  dup4\n    /* \"#utility.yul\":7265:7266   */\n  dup2\n    /* \"#utility.yul\":7262:7275   */\n  lt\n    /* \"#utility.yul\":7254:7367   */\n  iszero\n  tag_136\n  jumpi\n    /* \"#utility.yul\":7353:7354   */\n  dup1\n    /* \"#utility.yul\":7348:7351   */\n  dup3\n    /* \"#utility.yul\":7344:7355   */\n  add\n    /* \"#utility.yul\":7338:7356   */\n  mload\n    /* \"#utility.yul\":7334:7335   */\n  dup2\n    /* \"#utility.yul\":7329:7332   */\n  dup5\n    /* \"#utility.yul\":7325:7336   */\n  add\n    /* \"#utility.yul\":7318:7357   */\n  mstore\n    /* \"#utility.yul\":7290:7292   */\n  0x20\n    /* \"#utility.yul\":7287:7288   */\n  dup2\n    /* \"#utility.yul\":7283:7293   */\n  add\n    /* \"#utility.yul\":7278:7293   */\n  swap1\n  pop\n    /* \"#utility.yul\":7254:7367   */\n  jump(tag_134)\ntag_136:\n    /* \"#utility.yul\":7385:7391   */\n  dup4\n    /* \"#utility.yul\":7382:7383   */\n  dup2\n    /* \"#utility.yul\":7379:7392   */\n  gt\n    /* \"#utility.yul\":7376:7477   */\n  iszero\n  tag_137\n  jumpi\n    /* \"#utility.yul\":7465:7466   */\n  0x00\n    /* \"#utility.yul\":7456:7462   */\n  dup5\n    /* \"#utility.yul\":7451:7454   */\n  dup5\n    /* \"#utility.yul\":7447:7463   */\n  add\n    /* \"#utility.yul\":7440:7467   */\n  mstore\n    /* \"#utility.yul\":7376:7477   */\ntag_137:\n    /* \"#utility.yul\":7225:7483   */\n  pop\n    /* \"#utility.yul\":7176:7483   */\n  pop\n  pop\n  pop\n  jump\t// out\n    /* \"#utility.yul\":7489:7809   */\ntag_28:\n    /* \"#utility.yul\":7533:7539   */\n  0x00\n    /* \"#utility.yul\":7570:7571   */\n  0x02\n    /* \"#utility.yul\":7564:7568   */\n  dup3\n    /* \"#utility.yul\":7560:7572   */\n  div\n    /* \"#utility.yul\":7550:7572   */\n  swap1\n  pop\n    /* \"#utility.yul\":7617:7618   */\n  0x01\n    /* \"#utility.yul\":7611:7615   */\n  dup3\n    /* \"#utility.yul\":7607:7619   */\n  and\n    /* \"#utility.yul\":7638:7656   */\n  dup1\n    /* \"#utility.yul\":7628:7709   */\n  tag_139\n  jumpi\n    /* \"#utility.yul\":7694:7698   */\n  0x7f\n    /* \"#utility.yul\":7686:7692   */\n  dup3\n    /* \"#utility.yul\":7682:7699   */\n  and\n    /* \"#utility.yul\":7672:7699   */\n  swap2\n  pop\n    /* \"#utility.yul\":7628:7709   */\ntag_139:\n    /* \"#utility.yul\":7756:7758   */\n  0x20\n    /* \"#utility.yul\":7748:7754   */\n  dup3\n    /* \"#utility.yul\":7745:7759   */\n  lt\n    /* \"#utility.yul\":7725:7743   */\n  dup2\n    /* \"#utility.yul\":7722:7760   */\n  eq\n    /* \"#utility.yul\":7719:7803   */\n  iszero\n  tag_140\n  jumpi\n    /* \"#utility.yul\":7775:7793   */\n  tag_141\n  tag_142\n  jump\t// in\ntag_141:\n    /* \"#utility.yul\":7719:7803   */\ntag_140:\n    /* \"#utility.yul\":7540:7809   */\n  pop\n    /* \"#utility.yul\":7489:7809   */\n  swap2\n  swap1\n  pop\n  jump\t// out\n    /* \"#utility.yul\":7815:8096   */\ntag_120:\n    /* \"#utility.yul\":7898:7925   */\n  tag_144\n    /* \"#utility.yul\":7920:7924   */\n  dup3\n    /* \"#utility.yul\":7898:7925   */\n  tag_82\n  jump\t// in\ntag_144:\n    /* \"#utility.yul\":7890:7896   */\n  dup2\n    /* \"#utility.yul\":7886:7926   */\n  add\n    /* \"#utility.yul\":8028:8034   */\n  dup2\n    /* \"#utility.yul\":8016:8026   */\n  dup2\n    /* \"#utility.yul\":8013:8035   */\n  lt\n    /* \"#utility.yul\":7992:8010   */\n  0xffffffffffffffff\n    /* \"#utility.yul\":7980:7990   */\n  dup3\n    /* \"#utility.yul\":7977:8011   */\n  gt\n    /* \"#utility.yul\":7974:8036   */\n  or\n    /* \"#utility.yul\":7971:8059   */\n  iszero\n  tag_145\n  jumpi\n    /* \"#utility.yul\":8039:8057   */\n  tag_146\n  tag_125\n  jump\t// in\ntag_146:\n    /* \"#utility.yul\":7971:8059   */\ntag_145:\n    /* \"#utility.yul\":8079:8089   */\n  dup1\n    /* \"#utility.yul\":8075:8077   */\n  0x40\n    /* \"#utility.yul\":8068:8090   */\n  mstore\n    /* \"#utility.yul\":7858:8096   */\n  pop\n    /* \"#utility.yul\":7815:8096   */\n  pop\n  pop\n  jump\t// out\n    /* \"#utility.yul\":8102:8282   */\ntag_142:\n    /* \"#utility.yul\":8150:8227   */\n  0x4e487b7100000000000000000000000000000000000000000000000000000000\n    /* \"#utility.yul\":8147:8148   */\n  0x00\n    /* \"#utility.yul\":8140:8228   */\n  mstore\n    /* \"#utility.yul\":8247:8251   */\n  0x22\n    /* \"#utility.yul\":8244:8245   */\n  0x04\n    /* \"#utility.yul\":8237:8252   */\n  mstore\n    /* \"#utility.yul\":8271:8275   */\n  0x24\n    /* \"#utility.yul\":8268:8269   */\n  0x00\n    /* \"#utility.yul\":8261:8276   */\n  revert\n    /* \"#utility.yul\":8288:8468   */\ntag_125:\n    /* \"#utility.yul\":8336:8413   */\n  0x4e487b7100000000000000000000000000000000000000000000000000000000\n    /* \"#utility.yul\":8333:8334   */\n  0x00\n    /* \"#utility.yul\":8326:8414   */\n  mstore\n    /* \"#utility.yul\":8433:8437   */\n  0x41\n    /* \"#utility.yul\":8430:8431   */\n  0x04\n    /* \"#utility.yul\":8423:8438   */\n  mstore\n    /* \"#utility.yul\":8457:8461   */\n  0x24\n    /* \"#utility.yul\":8454:8455   */\n  0x00\n    /* \"#utility.yul\":8447:8462   */\n  revert\n    /* \"#utility.yul\":8474:8591   */\ntag_58:\n    /* \"#utility.yul\":8583:8584   */\n  0x00\n    /* \"#utility.yul\":8580:8581   */\n  dup1\n    /* \"#utility.yul\":8573:8585   */\n  revert\n    /* \"#utility.yul\":8597:8714   */\ntag_47:\n    /* \"#utility.yul\":8706:8707   */\n  0x00\n    /* \"#utility.yul\":8703:8704   */\n  dup1\n    /* \"#utility.yul\":8696:8708   */\n  revert\n    /* \"#utility.yul\":8720:8837   */\ntag_66:\n    /* \"#utility.yul\":8829:8830   */\n  0x00\n    /* \"#utility.yul\":8826:8827   */\n  dup1\n    /* \"#utility.yul\":8819:8831   */\n  revert\n    /* \"#utility.yul\":8843:8960   */\ntag_63:\n    /* \"#utility.yul\":8952:8953   */\n  0x00\n    /* \"#utility.yul\":8949:8950   */\n  dup1\n    /* \"#utility.yul\":8942:8954   */\n  revert\n    /* \"#utility.yul\":8966:9068   */\ntag_82:\n    /* \"#utility.yul\":9007:9013   */\n  0x00\n    /* \"#utility.yul\":9058:9060   */\n  0x1f\n    /* \"#utility.yul\":9054:9061   */\n  not\n    /* \"#utility.yul\":9049:9051   */\n  0x1f\n    /* \"#utility.yul\":9042:9047   */\n  dup4\n    /* \"#utility.yul\":9038:9052   */\n  add\n    /* \"#utility.yul\":9034:9062   */\n  and\n    /* \"#utility.yul\":9024:9062   */\n  swap1\n  pop\n    /* \"#utility.yul\":8966:9068   */\n  swap2\n  swap1\n  pop\n  jump\t// out\n    /* \"#utility.yul\":9074:9247   */\ntag_87:\n    /* \"#utility.yul\":9214:9239   */\n  0x5f62206973206120696e76616c69642061646472657373000000000000000000\n    /* \"#utility.yul\":9210:9211   */\n  0x00\n    /* \"#utility.yul\":9202:9208   */\n  dup3\n    /* \"#utility.yul\":9198:9212   */\n  add\n    /* \"#utility.yul\":9191:9240   */\n  mstore\n    /* \"#utility.yul\":9074:9247   */\n  pop\n  jump\t// out\n    /* \"#utility.yul\":9253:9422   */\ntag_92:\n    /* \"#utility.yul\":9393:9414   */\n  0x5f622063616e206e6f7420766572696669657200000000000000000000000000\n    /* \"#utility.yul\":9389:9390   */\n  0x00\n    /* \"#utility.yul\":9381:9387   */\n  dup3\n    /* \"#utility.yul\":9377:9391   */\n  add\n    /* \"#utility.yul\":9370:9415   */\n  mstore\n    /* \"#utility.yul\":9253:9422   */\n  pop\n  jump\t// out\n    /* \"#utility.yul\":9428:9597   */\ntag_97:\n    /* \"#utility.yul\":9568:9589   */\n  0x5f612063616e206e6f7420766572696669657200000000000000000000000000\n    /* \"#utility.yul\":9564:9565   */\n  0x00\n    /* \"#utility.yul\":9556:9562   */\n  dup3\n    /* \"#utility.yul\":9552:9566   */\n  add\n    /* \"#utility.yul\":9545:9590   */\n  mstore\n    /* \"#utility.yul\":9428:9597   */\n  pop\n  jump\t// out\n    /* \"#utility.yul\":9603:9776   */\ntag_102:\n    /* \"#utility.yul\":9743:9768   */\n  0x5f61206973206120696e76616c69642061646472657373000000000000000000\n    /* \"#utility.yul\":9739:9740   */\n  0x00\n    /* \"#utility.yul\":9731:9737   */\n  dup3\n    /* \"#utility.yul\":9727:9741   */\n  add\n    /* \"#utility.yul\":9720:9769   */\n  mstore\n    /* \"#utility.yul\":9603:9776   */\n  pop\n  jump\t// out\n    /* \"#utility.yul\":9782:9904   */\ntag_53:\n    /* \"#utility.yul\":9855:9879   */\n  tag_159\n    /* \"#utility.yul\":9873:9878   */\n  dup2\n    /* \"#utility.yul\":9855:9879   */\n  tag_73\n  jump\t// in\ntag_159:\n    /* \"#utility.yul\":9848:9853   */\n  dup2\n    /* \"#utility.yul\":9845:9880   */\n  eq\n    /* \"#utility.yul\":9835:9898   */\n  tag_160\n  jumpi\n    /* \"#utility.yul\":9894:9895   */\n  0x00\n    /* \"#utility.yul\":9891:9892   */\n  dup1\n    /* \"#utility.yul\":9884:9896   */\n  revert\n    /* \"#utility.yul\":9835:9898   */\ntag_160:\n    /* \"#utility.yul\":9782:9904   */\n  pop\n  jump\t// out\n    /* \"anli/marriage/evidence.sol\":283:2803  contract MarriageEvidence is IEvdence {... */\ntag_26:\n  dataSize(sub_0)\n  dup1\n  dataOffset(sub_0)\n  0x00\n  codecopy\n  0x00\n  return\nstop\n\nsub_0: assembly {\n        /* \"anli/marriage/evidence.sol\":283:2803  contract MarriageEvidence is IEvdence {... */\n      mstore(0x40, 0x80)\n      callvalue\n      dup1\n      iszero\n      tag_1\n      jumpi\n      0x00\n      dup1\n      revert\n    tag_1:\n      pop\n      jumpi(tag_2, lt(calldatasize, 0x04))\n      shr(0xe0, calldataload(0x00))\n      dup1\n      0x2ca15122\n      eq\n      tag_3\n      jumpi\n      dup1\n      0x3c68af3e\n      eq\n      tag_4\n      jumpi\n      dup1\n      0x596f21f8\n      eq\n      tag_5\n      jumpi\n      dup1\n      0x63a9c3d7\n      eq\n      tag_6\n      jumpi\n    tag_2:\n      0x00\n      dup1\n      revert\n        /* \"anli/marriage/evidence.sol\":1462:1826  function sign() override external  returns(bool) {... */\n    tag_3:\n      tag_7\n      tag_8\n      jump\t// in\n    tag_7:\n      mload(0x40)\n      tag_9\n      swap2\n      swap1\n      tag_10\n      jump\t// in\n    tag_9:\n      mload(0x40)\n      dup1\n      swap2\n      sub\n      swap1\n      return\n        /* \"anli/marriage/evidence.sol\":2505:2791  function isAllSigned() public view returns (bool, string memory) {... */\n    tag_4:\n      tag_11\n      tag_12\n      jump\t// in\n    tag_11:\n      mload(0x40)\n      tag_13\n      swap3\n      swap2\n      swap1\n      tag_14\n      jump\t// in\n    tag_13:\n      mload(0x40)\n      dup1\n      swap2\n      sub\n      swap1\n      return\n        /* \"anli/marriage/evidence.sol\":1268:1439  function getEvidence() override external view returns (string memory, address[] memory, address[] memory) {... */\n    tag_5:\n      tag_15\n      tag_16\n      jump\t// in\n    tag_15:\n      mload(0x40)\n      tag_17\n      swap4\n      swap3\n      swap2\n      swap1\n      tag_18\n      jump\t// in\n    tag_17:\n      mload(0x40)\n      dup1\n      swap2\n      sub\n      swap1\n      return\n        /* \"anli/marriage/evidence.sol\":1836:1947  function verify(address _signer) override external view returns (bool) {... */\n    tag_6:\n      tag_19\n      0x04\n      dup1\n      calldatasize\n      sub\n      dup2\n      add\n      swap1\n      tag_20\n      swap2\n      swap1\n      tag_21\n      jump\t// in\n    tag_20:\n      tag_22\n      jump\t// in\n    tag_19:\n      mload(0x40)\n      tag_23\n      swap2\n      swap1\n      tag_10\n      jump\t// in\n    tag_23:\n      mload(0x40)\n      dup1\n      swap2\n      sub\n      swap1\n      return\n        /* \"anli/marriage/evidence.sol\":1462:1826  function sign() override external  returns(bool) {... */\n    tag_8:\n        /* \"anli/marriage/evidence.sol\":1505:1509  bool */\n      0x00\n        /* \"anli/marriage/evidence.sol\":1529:1547  _verify(tx.origin) */\n      tag_25\n        /* \"anli/marriage/evidence.sol\":1537:1546  tx.origin */\n      origin\n        /* \"anli/marriage/evidence.sol\":1529:1536  _verify */\n      tag_26\n        /* \"anli/marriage/evidence.sol\":1529:1547  _verify(tx.origin) */\n      jump\t// in\n    tag_25:\n        /* \"anli/marriage/evidence.sol\":1521:1572  require(_verify(tx.origin), \"_signer is not valid\") */\n      tag_27\n      jumpi\n      mload(0x40)\n      0x08c379a000000000000000000000000000000000000000000000000000000000\n      dup2\n      mstore\n      0x04\n      add\n      tag_28\n      swap1\n      tag_29\n      jump\t// in\n    tag_28:\n      mload(0x40)\n      dup1\n      swap2\n      sub\n      swap1\n      revert\n    tag_27:\n        /* \"anli/marriage/evidence.sol\":1585:1604  isSigned(tx.origin) */\n      tag_30\n        /* \"anli/marriage/evidence.sol\":1594:1603  tx.origin */\n      origin\n        /* \"anli/marriage/evidence.sol\":1585:1593  isSigned */\n      tag_31\n        /* \"anli/marriage/evidence.sol\":1585:1604  isSigned(tx.origin) */\n      jump\t// in\n    tag_30:\n        /* \"anli/marriage/evidence.sol\":1582:1709  if(isSigned(tx.origin)) {... */\n      iszero\n      tag_32\n      jumpi\n        /* \"anli/marriage/evidence.sol\":1625:1673  AddRepeatSignaturesEvidence(evidence, tx.origin) */\n      0x57bb3fead2451e6a3a5680e94e3dba9642a2ea6e850811bf18feccc94c5968a9\n        /* \"anli/marriage/evidence.sol\":1653:1661  evidence */\n      0x00\n        /* \"anli/marriage/evidence.sol\":1663:1672  tx.origin */\n      origin\n        /* \"anli/marriage/evidence.sol\":1625:1673  AddRepeatSignaturesEvidence(evidence, tx.origin) */\n      mload(0x40)\n      tag_33\n      swap3\n      swap2\n      swap1\n      tag_34\n      jump\t// in\n    tag_33:\n      mload(0x40)\n      dup1\n      swap2\n      sub\n      swap1\n      log1\n        /* \"anli/marriage/evidence.sol\":1694:1698  true */\n      0x01\n        /* \"anli/marriage/evidence.sol\":1687:1698  return true */\n      swap1\n      pop\n      jump(tag_24)\n        /* \"anli/marriage/evidence.sol\":1582:1709  if(isSigned(tx.origin)) {... */\n    tag_32:\n        /* \"anli/marriage/evidence.sol\":1718:1725  signers */\n      0x02\n        /* \"anli/marriage/evidence.sol\":1731:1740  tx.origin */\n      origin\n        /* \"anli/marriage/evidence.sol\":1718:1741  signers.push(tx.origin) */\n      swap1\n      dup1\n      0x01\n      dup2\n      sload\n      add\n      dup1\n      dup3\n      sstore\n      dup1\n      swap2\n      pop\n      pop\n      0x01\n      swap1\n      sub\n      swap1\n      0x00\n      mstore\n      keccak256(0x00, 0x20)\n      add\n      0x00\n      swap1\n      swap2\n      swap1\n      swap2\n      swap1\n      swap2\n      0x0100\n      exp\n      dup2\n      sload\n      dup2\n      0xffffffffffffffffffffffffffffffffffffffff\n      mul\n      not\n      and\n      swap1\n      dup4\n      0xffffffffffffffffffffffffffffffffffffffff\n      and\n      mul\n      or\n      swap1\n      sstore\n      pop\n        /* \"anli/marriage/evidence.sol\":1756:1798  AddSignaturesEvidence(evidence, tx.origin) */\n      0xb05e84f77f10ca9cd0a42f11422685a81fb7997e8c2500733527f8c2ee56ab29\n        /* \"anli/marriage/evidence.sol\":1778:1786  evidence */\n      0x00\n        /* \"anli/marriage/evidence.sol\":1788:1797  tx.origin */\n      origin\n        /* \"anli/marriage/evidence.sol\":1756:1798  AddSignaturesEvidence(evidence, tx.origin) */\n      mload(0x40)\n      tag_36\n      swap3\n      swap2\n      swap1\n      tag_34\n      jump\t// in\n    tag_36:\n      mload(0x40)\n      dup1\n      swap2\n      sub\n      swap1\n      log1\n        /* \"anli/marriage/evidence.sol\":1815:1819  true */\n      0x01\n        /* \"anli/marriage/evidence.sol\":1808:1819  return true */\n      swap1\n      pop\n        /* \"anli/marriage/evidence.sol\":1462:1826  function sign() override external  returns(bool) {... */\n    tag_24:\n      swap1\n      jump\t// out\n        /* \"anli/marriage/evidence.sol\":2505:2791  function isAllSigned() public view returns (bool, string memory) {... */\n    tag_12:\n        /* \"anli/marriage/evidence.sol\":2549:2553  bool */\n      0x00\n        /* \"anli/marriage/evidence.sol\":2555:2568  string memory */\n      0x60\n        /* \"anli/marriage/evidence.sol\":2593:2602  uint256 i */\n      0x00\n        /* \"anli/marriage/evidence.sol\":2589:2743  for(uint256 i = 0; i < needSigners.length; i ++) {... */\n    tag_38:\n        /* \"anli/marriage/evidence.sol\":2612:2623  needSigners */\n      0x01\n        /* \"anli/marriage/evidence.sol\":2612:2630  needSigners.length */\n      dup1\n      sload\n      swap1\n      pop\n        /* \"anli/marriage/evidence.sol\":2608:2609  i */\n      dup2\n        /* \"anli/marriage/evidence.sol\":2608:2630  i < needSigners.length */\n      lt\n        /* \"anli/marriage/evidence.sol\":2589:2743  for(uint256 i = 0; i < needSigners.length; i ++) {... */\n      iszero\n      tag_39\n      jumpi\n        /* \"anli/marriage/evidence.sol\":2656:2680  isSigned(needSigners[i]) */\n      tag_41\n        /* \"anli/marriage/evidence.sol\":2665:2676  needSigners */\n      0x01\n        /* \"anli/marriage/evidence.sol\":2677:2678  i */\n      dup3\n        /* \"anli/marriage/evidence.sol\":2665:2679  needSigners[i] */\n      dup2\n      sload\n      dup2\n      lt\n      tag_42\n      jumpi\n      tag_43\n      tag_44\n      jump\t// in\n    tag_43:\n    tag_42:\n      swap1\n      0x00\n      mstore\n      keccak256(0x00, 0x20)\n      add\n      0x00\n      swap1\n      sload\n      swap1\n      0x0100\n      exp\n      swap1\n      div\n      0xffffffffffffffffffffffffffffffffffffffff\n      and\n        /* \"anli/marriage/evidence.sol\":2656:2664  isSigned */\n      tag_31\n        /* \"anli/marriage/evidence.sol\":2656:2680  isSigned(needSigners[i]) */\n      jump\t// in\n    tag_41:\n        /* \"anli/marriage/evidence.sol\":2652:2733  if(!isSigned(needSigners[i])) {... */\n      tag_46\n      jumpi\n        /* \"anli/marriage/evidence.sol\":2708:2713  false */\n      0x00\n        /* \"anli/marriage/evidence.sol\":2700:2718  return (false, \"\") */\n      mload(0x40)\n      dup1\n      0x20\n      add\n      0x40\n      mstore\n      dup1\n      0x00\n      dup2\n      mstore\n      pop\n      swap3\n      pop\n      swap3\n      pop\n      pop\n      jump(tag_37)\n        /* \"anli/marriage/evidence.sol\":2652:2733  if(!isSigned(needSigners[i])) {... */\n    tag_46:\n        /* \"anli/marriage/evidence.sol\":2632:2636  i ++ */\n      dup1\n      dup1\n      tag_47\n      swap1\n      tag_48\n      jump\t// in\n    tag_47:\n      swap2\n      pop\n      pop\n        /* \"anli/marriage/evidence.sol\":2589:2743  for(uint256 i = 0; i < needSigners.length; i ++) {... */\n      jump(tag_38)\n    tag_39:\n      pop\n        /* \"anli/marriage/evidence.sol\":2769:2773  true */\n      0x01\n        /* \"anli/marriage/evidence.sol\":2775:2783  evidence */\n      0x00\n        /* \"anli/marriage/evidence.sol\":2761:2784  return (true, evidence) */\n      dup1\n      dup1\n      sload\n      tag_49\n      swap1\n      tag_50\n      jump\t// in\n    tag_49:\n      dup1\n      0x1f\n      add\n      0x20\n      dup1\n      swap2\n      div\n      mul\n      0x20\n      add\n      mload(0x40)\n      swap1\n      dup2\n      add\n      0x40\n      mstore\n      dup1\n      swap3\n      swap2\n      swap1\n      dup2\n      dup2\n      mstore\n      0x20\n      add\n      dup3\n      dup1\n      sload\n      tag_51\n      swap1\n      tag_50\n      jump\t// in\n    tag_51:\n      dup1\n      iszero\n      tag_52\n      jumpi\n      dup1\n      0x1f\n      lt\n      tag_53\n      jumpi\n      0x0100\n      dup1\n      dup4\n      sload\n      div\n      mul\n      dup4\n      mstore\n      swap2\n      0x20\n      add\n      swap2\n      jump(tag_52)\n    tag_53:\n      dup3\n      add\n      swap2\n      swap1\n      0x00\n      mstore\n      keccak256(0x00, 0x20)\n      swap1\n    tag_54:\n      dup2\n      sload\n      dup2\n      mstore\n      swap1\n      0x01\n      add\n      swap1\n      0x20\n      add\n      dup1\n      dup4\n      gt\n      tag_54\n      jumpi\n      dup3\n      swap1\n      sub\n      0x1f\n      and\n      dup3\n      add\n      swap2\n    tag_52:\n      pop\n      pop\n      pop\n      pop\n      pop\n      swap1\n      pop\n      swap2\n      pop\n      swap2\n      pop\n        /* \"anli/marriage/evidence.sol\":2505:2791  function isAllSigned() public view returns (bool, string memory) {... */\n    tag_37:\n      swap1\n      swap2\n      jump\t// out\n        /* \"anli/marriage/evidence.sol\":1268:1439  function getEvidence() override external view returns (string memory, address[] memory, address[] memory) {... */\n    tag_16:\n        /* \"anli/marriage/evidence.sol\":1323:1336  string memory */\n      0x60\n        /* \"anli/marriage/evidence.sol\":1338:1354  address[] memory */\n      dup1\n        /* \"anli/marriage/evidence.sol\":1356:1372  address[] memory */\n      0x60\n        /* \"anli/marriage/evidence.sol\":1401:1409  evidence */\n      0x00\n        /* \"anli/marriage/evidence.sol\":1411:1422  needSigners */\n      0x01\n        /* \"anli/marriage/evidence.sol\":1424:1431  signers */\n      0x02\n        /* \"anli/marriage/evidence.sol\":1393:1432  return (evidence, needSigners, signers) */\n      dup3\n      dup1\n      sload\n      tag_56\n      swap1\n      tag_50\n      jump\t// in\n    tag_56:\n      dup1\n      0x1f\n      add\n      0x20\n      dup1\n      swap2\n      div\n      mul\n      0x20\n      add\n      mload(0x40)\n      swap1\n      dup2\n      add\n      0x40\n      mstore\n      dup1\n      swap3\n      swap2\n      swap1\n      dup2\n      dup2\n      mstore\n      0x20\n      add\n      dup3\n      dup1\n      sload\n      tag_57\n      swap1\n      tag_50\n      jump\t// in\n    tag_57:\n      dup1\n      iszero\n      tag_58\n      jumpi\n      dup1\n      0x1f\n      lt\n      tag_59\n      jumpi\n      0x0100\n      dup1\n      dup4\n      sload\n      div\n      mul\n      dup4\n      mstore\n      swap2\n      0x20\n      add\n      swap2\n      jump(tag_58)\n    tag_59:\n      dup3\n      add\n      swap2\n      swap1\n      0x00\n      mstore\n      keccak256(0x00, 0x20)\n      swap1\n    tag_60:\n      dup2\n      sload\n      dup2\n      mstore\n      swap1\n      0x01\n      add\n      swap1\n      0x20\n      add\n      dup1\n      dup4\n      gt\n      tag_60\n      jumpi\n      dup3\n      swap1\n      sub\n      0x1f\n      and\n      dup3\n      add\n      swap2\n    tag_58:\n      pop\n      pop\n      pop\n      pop\n      pop\n      swap3\n      pop\n      dup2\n      dup1\n      sload\n      dup1\n      0x20\n      mul\n      0x20\n      add\n      mload(0x40)\n      swap1\n      dup2\n      add\n      0x40\n      mstore\n      dup1\n      swap3\n      swap2\n      swap1\n      dup2\n      dup2\n      mstore\n      0x20\n      add\n      dup3\n      dup1\n      sload\n      dup1\n      iszero\n      tag_61\n      jumpi\n      0x20\n      mul\n      dup3\n      add\n      swap2\n      swap1\n      0x00\n      mstore\n      keccak256(0x00, 0x20)\n      swap1\n    tag_62:\n      dup2\n      0x00\n      swap1\n      sload\n      swap1\n      0x0100\n      exp\n      swap1\n      div\n      0xffffffffffffffffffffffffffffffffffffffff\n      and\n      0xffffffffffffffffffffffffffffffffffffffff\n      and\n      dup2\n      mstore\n      0x20\n      add\n      swap1\n      0x01\n      add\n      swap1\n      dup1\n      dup4\n      gt\n      tag_62\n      jumpi\n    tag_61:\n      pop\n      pop\n      pop\n      pop\n      pop\n      swap2\n      pop\n      dup1\n      dup1\n      sload\n      dup1\n      0x20\n      mul\n      0x20\n      add\n      mload(0x40)\n      swap1\n      dup2\n      add\n      0x40\n      mstore\n      dup1\n      swap3\n      swap2\n      swap1\n      dup2\n      dup2\n      mstore\n      0x20\n      add\n      dup3\n      dup1\n      sload\n      dup1\n      iszero\n      tag_63\n      jumpi\n      0x20\n      mul\n      dup3\n      add\n      swap2\n      swap1\n      0x00\n      mstore\n      keccak256(0x00, 0x20)\n      swap1\n    tag_64:\n      dup2\n      0x00\n      swap1\n      sload\n      swap1\n      0x0100\n      exp\n      swap1\n      div\n      0xffffffffffffffffffffffffffffffffffffffff\n      and\n      0xffffffffffffffffffffffffffffffffffffffff\n      and\n      dup2\n      mstore\n      0x20\n      add\n      swap1\n      0x01\n      add\n      swap1\n      dup1\n      dup4\n      gt\n      tag_64\n      jumpi\n    tag_63:\n      pop\n      pop\n      pop\n      pop\n      pop\n      swap1\n      pop\n      swap3\n      pop\n      swap3\n      pop\n      swap3\n      pop\n        /* \"anli/marriage/evidence.sol\":1268:1439  function getEvidence() override external view returns (string memory, address[] memory, address[] memory) {... */\n      swap1\n      swap2\n      swap3\n      jump\t// out\n        /* \"anli/marriage/evidence.sol\":1836:1947  function verify(address _signer) override external view returns (bool) {... */\n    tag_22:\n        /* \"anli/marriage/evidence.sol\":1901:1905  bool */\n      0x00\n        /* \"anli/marriage/evidence.sol\":1924:1940  _verify(_signer) */\n      tag_66\n        /* \"anli/marriage/evidence.sol\":1932:1939  _signer */\n      dup3\n        /* \"anli/marriage/evidence.sol\":1924:1931  _verify */\n      tag_26\n        /* \"anli/marriage/evidence.sol\":1924:1940  _verify(_signer) */\n      jump\t// in\n    tag_66:\n        /* \"anli/marriage/evidence.sol\":1917:1940  return _verify(_signer) */\n      swap1\n      pop\n        /* \"anli/marriage/evidence.sol\":1836:1947  function verify(address _signer) override external view returns (bool) {... */\n      swap2\n      swap1\n      pop\n      jump\t// out\n        /* \"anli/marriage/evidence.sol\":1952:2210  function _verify(address _signer) internal view returns (bool) {... */\n    tag_26:\n        /* \"anli/marriage/evidence.sol\":2009:2013  bool */\n      0x00\n        /* \"anli/marriage/evidence.sol\":2029:2038  uint256 i */\n      dup1\n        /* \"anli/marriage/evidence.sol\":2041:2042  0 */\n      0x00\n        /* \"anli/marriage/evidence.sol\":2029:2042  uint256 i = 0 */\n      swap1\n      pop\n        /* \"anli/marriage/evidence.sol\":2025:2173  for(uint256 i = 0; i < needSigners.length; i ++) {... */\n    tag_68:\n        /* \"anli/marriage/evidence.sol\":2048:2059  needSigners */\n      0x01\n        /* \"anli/marriage/evidence.sol\":2048:2066  needSigners.length */\n      dup1\n      sload\n      swap1\n      pop\n        /* \"anli/marriage/evidence.sol\":2044:2045  i */\n      dup2\n        /* \"anli/marriage/evidence.sol\":2044:2066  i < needSigners.length */\n      lt\n        /* \"anli/marriage/evidence.sol\":2025:2173  for(uint256 i = 0; i < needSigners.length; i ++) {... */\n      iszero\n      tag_69\n      jumpi\n        /* \"anli/marriage/evidence.sol\":2110:2117  _signer */\n      dup3\n        /* \"anli/marriage/evidence.sol\":2092:2117  needSigners[i] == _signer */\n      0xffffffffffffffffffffffffffffffffffffffff\n      and\n        /* \"anli/marriage/evidence.sol\":2092:2103  needSigners */\n      0x01\n        /* \"anli/marriage/evidence.sol\":2104:2105  i */\n      dup3\n        /* \"anli/marriage/evidence.sol\":2092:2106  needSigners[i] */\n      dup2\n      sload\n      dup2\n      lt\n      tag_71\n      jumpi\n      tag_72\n      tag_44\n      jump\t// in\n    tag_72:\n    tag_71:\n      swap1\n      0x00\n      mstore\n      keccak256(0x00, 0x20)\n      add\n      0x00\n      swap1\n      sload\n      swap1\n      0x0100\n      exp\n      swap1\n      div\n      0xffffffffffffffffffffffffffffffffffffffff\n      and\n        /* \"anli/marriage/evidence.sol\":2092:2117  needSigners[i] == _signer */\n      0xffffffffffffffffffffffffffffffffffffffff\n      and\n      eq\n        /* \"anli/marriage/evidence.sol\":2088:2163  if (needSigners[i] == _signer) {... */\n      iszero\n      tag_74\n      jumpi\n        /* \"anli/marriage/evidence.sol\":2144:2148  true */\n      0x01\n        /* \"anli/marriage/evidence.sol\":2137:2148  return true */\n      swap2\n      pop\n      pop\n      jump(tag_67)\n        /* \"anli/marriage/evidence.sol\":2088:2163  if (needSigners[i] == _signer) {... */\n    tag_74:\n        /* \"anli/marriage/evidence.sol\":2068:2072  i ++ */\n      dup1\n      dup1\n      tag_75\n      swap1\n      tag_48\n      jump\t// in\n    tag_75:\n      swap2\n      pop\n      pop\n        /* \"anli/marriage/evidence.sol\":2025:2173  for(uint256 i = 0; i < needSigners.length; i ++) {... */\n      jump(tag_68)\n    tag_69:\n      pop\n        /* \"anli/marriage/evidence.sol\":2198:2203  false */\n      0x00\n        /* \"anli/marriage/evidence.sol\":2191:2203  return false */\n      swap1\n      pop\n        /* \"anli/marriage/evidence.sol\":1952:2210  function _verify(address _signer) internal view returns (bool) {... */\n    tag_67:\n      swap2\n      swap1\n      pop\n      jump\t// out\n        /* \"anli/marriage/evidence.sol\":2244:2495  function isSigned(address _signer) internal view returns (bool) {... */\n    tag_31:\n        /* \"anli/marriage/evidence.sol\":2302:2306  bool */\n      0x00\n        /* \"anli/marriage/evidence.sol\":2322:2331  uint256 i */\n      dup1\n        /* \"anli/marriage/evidence.sol\":2334:2335  0 */\n      0x00\n        /* \"anli/marriage/evidence.sol\":2322:2335  uint256 i = 0 */\n      swap1\n      pop\n        /* \"anli/marriage/evidence.sol\":2318:2458  for(uint256 i = 0; i < signers.length; i ++) {... */\n    tag_77:\n        /* \"anli/marriage/evidence.sol\":2341:2348  signers */\n      0x02\n        /* \"anli/marriage/evidence.sol\":2341:2355  signers.length */\n      dup1\n      sload\n      swap1\n      pop\n        /* \"anli/marriage/evidence.sol\":2337:2338  i */\n      dup2\n        /* \"anli/marriage/evidence.sol\":2337:2355  i < signers.length */\n      lt\n        /* \"anli/marriage/evidence.sol\":2318:2458  for(uint256 i = 0; i < signers.length; i ++) {... */\n      iszero\n      tag_78\n      jumpi\n        /* \"anli/marriage/evidence.sol\":2395:2402  _signer */\n      dup3\n        /* \"anli/marriage/evidence.sol\":2381:2402  signers[i] == _signer */\n      0xffffffffffffffffffffffffffffffffffffffff\n      and\n        /* \"anli/marriage/evidence.sol\":2381:2388  signers */\n      0x02\n        /* \"anli/marriage/evidence.sol\":2389:2390  i */\n      dup3\n        /* \"anli/marriage/evidence.sol\":2381:2391  signers[i] */\n      dup2\n      sload\n      dup2\n      lt\n      tag_80\n      jumpi\n      tag_81\n      tag_44\n      jump\t// in\n    tag_81:\n    tag_80:\n      swap1\n      0x00\n      mstore\n      keccak256(0x00, 0x20)\n      add\n      0x00\n      swap1\n      sload\n      swap1\n      0x0100\n      exp\n      swap1\n      div\n      0xffffffffffffffffffffffffffffffffffffffff\n      and\n        /* \"anli/marriage/evidence.sol\":2381:2402  signers[i] == _signer */\n      0xffffffffffffffffffffffffffffffffffffffff\n      and\n      eq\n        /* \"anli/marriage/evidence.sol\":2377:2448  if (signers[i] == _signer) {... */\n      iszero\n      tag_83\n      jumpi\n        /* \"anli/marriage/evidence.sol\":2429:2433  true */\n      0x01\n        /* \"anli/marriage/evidence.sol\":2422:2433  return true */\n      swap2\n      pop\n      pop\n      jump(tag_76)\n        /* \"anli/marriage/evidence.sol\":2377:2448  if (signers[i] == _signer) {... */\n    tag_83:\n        /* \"anli/marriage/evidence.sol\":2357:2361  i ++ */\n      dup1\n      dup1\n      tag_84\n      swap1\n      tag_48\n      jump\t// in\n    tag_84:\n      swap2\n      pop\n      pop\n        /* \"anli/marriage/evidence.sol\":2318:2458  for(uint256 i = 0; i < signers.length; i ++) {... */\n      jump(tag_77)\n    tag_78:\n      pop\n        /* \"anli/marriage/evidence.sol\":2483:2488  false */\n      0x00\n        /* \"anli/marriage/evidence.sol\":2476:2488  return false */\n      swap1\n      pop\n        /* \"anli/marriage/evidence.sol\":2244:2495  function isSigned(address _signer) internal view returns (bool) {... */\n    tag_76:\n      swap2\n      swap1\n      pop\n      jump\t// out\n        /* \"#utility.yul\":7:146   */\n    tag_86:\n        /* \"#utility.yul\":53:58   */\n      0x00\n        /* \"#utility.yul\":91:97   */\n      dup2\n        /* \"#utility.yul\":78:98   */\n      calldataload\n        /* \"#utility.yul\":69:98   */\n      swap1\n      pop\n        /* \"#utility.yul\":107:140   */\n      tag_88\n        /* \"#utility.yul\":134:139   */\n      dup2\n        /* \"#utility.yul\":107:140   */\n      tag_89\n      jump\t// in\n    tag_88:\n        /* \"#utility.yul\":7:146   */\n      swap3\n      swap2\n      pop\n      pop\n      jump\t// out\n        /* \"#utility.yul\":152:481   */\n    tag_21:\n        /* \"#utility.yul\":211:217   */\n      0x00\n        /* \"#utility.yul\":260:262   */\n      0x20\n        /* \"#utility.yul\":248:257   */\n      dup3\n        /* \"#utility.yul\":239:246   */\n      dup5\n        /* \"#utility.yul\":235:258   */\n      sub\n        /* \"#utility.yul\":231:263   */\n      slt\n        /* \"#utility.yul\":228:347   */\n      iszero\n      tag_91\n      jumpi\n        /* \"#utility.yul\":266:345   */\n      tag_92\n      tag_93\n      jump\t// in\n    tag_92:\n        /* \"#utility.yul\":228:347   */\n    tag_91:\n        /* \"#utility.yul\":386:387   */\n      0x00\n        /* \"#utility.yul\":411:464   */\n      tag_94\n        /* \"#utility.yul\":456:463   */\n      dup5\n        /* \"#utility.yul\":447:453   */\n      dup3\n        /* \"#utility.yul\":436:445   */\n      dup6\n        /* \"#utility.yul\":432:454   */\n      add\n        /* \"#utility.yul\":411:464   */\n      tag_86\n      jump\t// in\n    tag_94:\n        /* \"#utility.yul\":401:464   */\n      swap2\n      pop\n        /* \"#utility.yul\":357:474   */\n      pop\n        /* \"#utility.yul\":152:481   */\n      swap3\n      swap2\n      pop\n      pop\n      jump\t// out\n        /* \"#utility.yul\":487:666   */\n    tag_95:\n        /* \"#utility.yul\":556:566   */\n      0x00\n        /* \"#utility.yul\":577:623   */\n      tag_97\n        /* \"#utility.yul\":619:622   */\n      dup4\n        /* \"#utility.yul\":611:617   */\n      dup4\n        /* \"#utility.yul\":577:623   */\n      tag_98\n      jump\t// in\n    tag_97:\n        /* \"#utility.yul\":655:659   */\n      0x20\n        /* \"#utility.yul\":650:653   */\n      dup4\n        /* \"#utility.yul\":646:660   */\n      add\n        /* \"#utility.yul\":632:660   */\n      swap1\n      pop\n        /* \"#utility.yul\":487:666   */\n      swap3\n      swap2\n      pop\n      pop\n      jump\t// out\n        /* \"#utility.yul\":672:780   */\n    tag_98:\n        /* \"#utility.yul\":749:773   */\n      tag_100\n        /* \"#utility.yul\":767:772   */\n      dup2\n        /* \"#utility.yul\":749:773   */\n      tag_101\n      jump\t// in\n    tag_100:\n        /* \"#utility.yul\":744:747   */\n      dup3\n        /* \"#utility.yul\":737:774   */\n      mstore\n        /* \"#utility.yul\":672:780   */\n      pop\n      pop\n      jump\t// out\n        /* \"#utility.yul\":786:904   */\n    tag_102:\n        /* \"#utility.yul\":873:897   */\n      tag_104\n        /* \"#utility.yul\":891:896   */\n      dup2\n        /* \"#utility.yul\":873:897   */\n      tag_101\n      jump\t// in\n    tag_104:\n        /* \"#utility.yul\":868:871   */\n      dup3\n        /* \"#utility.yul\":861:898   */\n      mstore\n        /* \"#utility.yul\":786:904   */\n      pop\n      pop\n      jump\t// out\n        /* \"#utility.yul\":940:1672   */\n    tag_105:\n        /* \"#utility.yul\":1059:1062   */\n      0x00\n        /* \"#utility.yul\":1088:1142   */\n      tag_107\n        /* \"#utility.yul\":1136:1141   */\n      dup3\n        /* \"#utility.yul\":1088:1142   */\n      tag_108\n      jump\t// in\n    tag_107:\n        /* \"#utility.yul\":1158:1244   */\n      tag_109\n        /* \"#utility.yul\":1237:1243   */\n      dup2\n        /* \"#utility.yul\":1232:1235   */\n      dup6\n        /* \"#utility.yul\":1158:1244   */\n      tag_110\n      jump\t// in\n    tag_109:\n        /* \"#utility.yul\":1151:1244   */\n      swap4\n      pop\n        /* \"#utility.yul\":1268:1324   */\n      tag_111\n        /* \"#utility.yul\":1318:1323   */\n      dup4\n        /* \"#utility.yul\":1268:1324   */\n      tag_112\n      jump\t// in\n    tag_111:\n        /* \"#utility.yul\":1347:1354   */\n      dup1\n        /* \"#utility.yul\":1378:1379   */\n      0x00\n        /* \"#utility.yul\":1363:1647   */\n    tag_113:\n        /* \"#utility.yul\":1388:1394   */\n      dup4\n        /* \"#utility.yul\":1385:1386   */\n      dup2\n        /* \"#utility.yul\":1382:1395   */\n      lt\n        /* \"#utility.yul\":1363:1647   */\n      iszero\n      tag_115\n      jumpi\n        /* \"#utility.yul\":1464:1470   */\n      dup2\n        /* \"#utility.yul\":1458:1471   */\n      mload\n        /* \"#utility.yul\":1491:1554   */\n      tag_116\n        /* \"#utility.yul\":1550:1553   */\n      dup9\n        /* \"#utility.yul\":1535:1548   */\n      dup3\n        /* \"#utility.yul\":1491:1554   */\n      tag_95\n      jump\t// in\n    tag_116:\n        /* \"#utility.yul\":1484:1554   */\n      swap8\n      pop\n        /* \"#utility.yul\":1577:1637   */\n      tag_117\n        /* \"#utility.yul\":1630:1636   */\n      dup4\n        /* \"#utility.yul\":1577:1637   */\n      tag_118\n      jump\t// in\n    tag_117:\n        /* \"#utility.yul\":1567:1637   */\n      swap3\n      pop\n        /* \"#utility.yul\":1423:1647   */\n      pop\n        /* \"#utility.yul\":1410:1411   */\n      0x01\n        /* \"#utility.yul\":1407:1408   */\n      dup2\n        /* \"#utility.yul\":1403:1412   */\n      add\n        /* \"#utility.yul\":1398:1412   */\n      swap1\n      pop\n        /* \"#utility.yul\":1363:1647   */\n      jump(tag_113)\n    tag_115:\n        /* \"#utility.yul\":1367:1381   */\n      pop\n        /* \"#utility.yul\":1663:1666   */\n      dup6\n        /* \"#utility.yul\":1656:1666   */\n      swap4\n      pop\n        /* \"#utility.yul\":1064:1672   */\n      pop\n      pop\n      pop\n        /* \"#utility.yul\":940:1672   */\n      swap3\n      swap2\n      pop\n      pop\n      jump\t// out\n        /* \"#utility.yul\":1678:1787   */\n    tag_119:\n        /* \"#utility.yul\":1759:1780   */\n      tag_121\n        /* \"#utility.yul\":1774:1779   */\n      dup2\n        /* \"#utility.yul\":1759:1780   */\n      tag_122\n      jump\t// in\n    tag_121:\n        /* \"#utility.yul\":1754:1757   */\n      dup3\n        /* \"#utility.yul\":1747:1781   */\n      mstore\n        /* \"#utility.yul\":1678:1787   */\n      pop\n      pop\n      jump\t// out\n        /* \"#utility.yul\":1793:2157   */\n    tag_123:\n        /* \"#utility.yul\":1881:1884   */\n      0x00\n        /* \"#utility.yul\":1909:1948   */\n      tag_125\n        /* \"#utility.yul\":1942:1947   */\n      dup3\n        /* \"#utility.yul\":1909:1948   */\n      tag_126\n      jump\t// in\n    tag_125:\n        /* \"#utility.yul\":1964:2035   */\n      tag_127\n        /* \"#utility.yul\":2028:2034   */\n      dup2\n        /* \"#utility.yul\":2023:2026   */\n      dup6\n        /* \"#utility.yul\":1964:2035   */\n      tag_128\n      jump\t// in\n    tag_127:\n        /* \"#utility.yul\":1957:2035   */\n      swap4\n      pop\n        /* \"#utility.yul\":2044:2096   */\n      tag_129\n        /* \"#utility.yul\":2089:2095   */\n      dup2\n        /* \"#utility.yul\":2084:2087   */\n      dup6\n        /* \"#utility.yul\":2077:2081   */\n      0x20\n        /* \"#utility.yul\":2070:2075   */\n      dup7\n        /* \"#utility.yul\":2066:2082   */\n      add\n        /* \"#utility.yul\":2044:2096   */\n      tag_130\n      jump\t// in\n    tag_129:\n        /* \"#utility.yul\":2121:2150   */\n      tag_131\n        /* \"#utility.yul\":2143:2149   */\n      dup2\n        /* \"#utility.yul\":2121:2150   */\n      tag_132\n      jump\t// in\n    tag_131:\n        /* \"#utility.yul\":2116:2119   */\n      dup5\n        /* \"#utility.yul\":2112:2151   */\n      add\n        /* \"#utility.yul\":2105:2151   */\n      swap2\n      pop\n        /* \"#utility.yul\":1885:2157   */\n      pop\n        /* \"#utility.yul\":1793:2157   */\n      swap3\n      swap2\n      pop\n      pop\n      jump\t// out\n        /* \"#utility.yul\":2187:2989   */\n    tag_133:\n        /* \"#utility.yul\":2272:2275   */\n      0x00\n        /* \"#utility.yul\":2309:2314   */\n      dup2\n        /* \"#utility.yul\":2303:2315   */\n      sload\n        /* \"#utility.yul\":2338:2374   */\n      tag_135\n        /* \"#utility.yul\":2364:2373   */\n      dup2\n        /* \"#utility.yul\":2338:2374   */\n      tag_50\n      jump\t// in\n    tag_135:\n        /* \"#utility.yul\":2390:2461   */\n      tag_136\n        /* \"#utility.yul\":2454:2460   */\n      dup2\n        /* \"#utility.yul\":2449:2452   */\n      dup7\n        /* \"#utility.yul\":2390:2461   */\n      tag_128\n      jump\t// in\n    tag_136:\n        /* \"#utility.yul\":2383:2461   */\n      swap5\n      pop\n        /* \"#utility.yul\":2492:2493   */\n      0x01\n        /* \"#utility.yul\":2481:2490   */\n      dup3\n        /* \"#utility.yul\":2477:2494   */\n      and\n        /* \"#utility.yul\":2508:2509   */\n      0x00\n        /* \"#utility.yul\":2503:2638   */\n      dup2\n      eq\n      tag_138\n      jumpi\n        /* \"#utility.yul\":2652:2653   */\n      0x01\n        /* \"#utility.yul\":2647:2983   */\n      dup2\n      eq\n      tag_139\n      jumpi\n        /* \"#utility.yul\":2470:2983   */\n      jump(tag_137)\n        /* \"#utility.yul\":2503:2638   */\n    tag_138:\n        /* \"#utility.yul\":2587:2591   */\n      0xff\n        /* \"#utility.yul\":2583:2592   */\n      not\n        /* \"#utility.yul\":2572:2581   */\n      dup4\n        /* \"#utility.yul\":2568:2593   */\n      and\n        /* \"#utility.yul\":2563:2566   */\n      dup7\n        /* \"#utility.yul\":2556:2594   */\n      mstore\n        /* \"#utility.yul\":2623:2627   */\n      0x20\n        /* \"#utility.yul\":2618:2621   */\n      dup7\n        /* \"#utility.yul\":2614:2628   */\n      add\n        /* \"#utility.yul\":2607:2628   */\n      swap4\n      pop\n        /* \"#utility.yul\":2503:2638   */\n      jump(tag_137)\n        /* \"#utility.yul\":2647:2983   */\n    tag_139:\n        /* \"#utility.yul\":2714:2752   */\n      tag_140\n        /* \"#utility.yul\":2746:2751   */\n      dup6\n        /* \"#utility.yul\":2714:2752   */\n      tag_141\n      jump\t// in\n    tag_140:\n        /* \"#utility.yul\":2774:2775   */\n      0x00\n        /* \"#utility.yul\":2788:2942   */\n    tag_142:\n        /* \"#utility.yul\":2802:2808   */\n      dup4\n        /* \"#utility.yul\":2799:2800   */\n      dup2\n        /* \"#utility.yul\":2796:2809   */\n      lt\n        /* \"#utility.yul\":2788:2942   */\n      iszero\n      tag_144\n      jumpi\n        /* \"#utility.yul\":2876:2883   */\n      dup2\n        /* \"#utility.yul\":2870:2884   */\n      sload\n        /* \"#utility.yul\":2866:2867   */\n      dup2\n        /* \"#utility.yul\":2861:2864   */\n      dup10\n        /* \"#utility.yul\":2857:2868   */\n      add\n        /* \"#utility.yul\":2850:2885   */\n      mstore\n        /* \"#utility.yul\":2926:2927   */\n      0x01\n        /* \"#utility.yul\":2917:2924   */\n      dup3\n        /* \"#utility.yul\":2913:2928   */\n      add\n        /* \"#utility.yul\":2902:2928   */\n      swap2\n      pop\n        /* \"#utility.yul\":2824:2828   */\n      0x20\n        /* \"#utility.yul\":2821:2822   */\n      dup2\n        /* \"#utility.yul\":2817:2829   */\n      add\n        /* \"#utility.yul\":2812:2829   */\n      swap1\n      pop\n        /* \"#utility.yul\":2788:2942   */\n      jump(tag_142)\n    tag_144:\n        /* \"#utility.yul\":2971:2972   */\n      dup1\n        /* \"#utility.yul\":2966:2969   */\n      dup9\n        /* \"#utility.yul\":2962:2973   */\n      add\n        /* \"#utility.yul\":2955:2973   */\n      swap6\n      pop\n        /* \"#utility.yul\":2654:2983   */\n      pop\n      pop\n        /* \"#utility.yul\":2470:2983   */\n    tag_137:\n      pop\n        /* \"#utility.yul\":2276:2989   */\n      pop\n      pop\n        /* \"#utility.yul\":2187:2989   */\n      swap3\n      swap2\n      pop\n      pop\n      jump\t// out\n        /* \"#utility.yul\":2995:3361   */\n    tag_145:\n        /* \"#utility.yul\":3137:3140   */\n      0x00\n        /* \"#utility.yul\":3158:3225   */\n      tag_147\n        /* \"#utility.yul\":3222:3224   */\n      0x14\n        /* \"#utility.yul\":3217:3220   */\n      dup4\n        /* \"#utility.yul\":3158:3225   */\n      tag_128\n      jump\t// in\n    tag_147:\n        /* \"#utility.yul\":3151:3225   */\n      swap2\n      pop\n        /* \"#utility.yul\":3234:3327   */\n      tag_148\n        /* \"#utility.yul\":3323:3326   */\n      dup3\n        /* \"#utility.yul\":3234:3327   */\n      tag_149\n      jump\t// in\n    tag_148:\n        /* \"#utility.yul\":3352:3354   */\n      0x20\n        /* \"#utility.yul\":3347:3350   */\n      dup3\n        /* \"#utility.yul\":3343:3355   */\n      add\n        /* \"#utility.yul\":3336:3355   */\n      swap1\n      pop\n        /* \"#utility.yul\":2995:3361   */\n      swap2\n      swap1\n      pop\n      jump\t// out\n        /* \"#utility.yul\":3367:3577   */\n    tag_10:\n        /* \"#utility.yul\":3454:3458   */\n      0x00\n        /* \"#utility.yul\":3492:3494   */\n      0x20\n        /* \"#utility.yul\":3481:3490   */\n      dup3\n        /* \"#utility.yul\":3477:3495   */\n      add\n        /* \"#utility.yul\":3469:3495   */\n      swap1\n      pop\n        /* \"#utility.yul\":3505:3570   */\n      tag_151\n        /* \"#utility.yul\":3567:3568   */\n      0x00\n        /* \"#utility.yul\":3556:3565   */\n      dup4\n        /* \"#utility.yul\":3552:3569   */\n      add\n        /* \"#utility.yul\":3543:3549   */\n      dup5\n        /* \"#utility.yul\":3505:3570   */\n      tag_119\n      jump\t// in\n    tag_151:\n        /* \"#utility.yul\":3367:3577   */\n      swap3\n      swap2\n      pop\n      pop\n      jump\t// out\n        /* \"#utility.yul\":3583:3994   */\n    tag_14:\n        /* \"#utility.yul\":3718:3722   */\n      0x00\n        /* \"#utility.yul\":3756:3758   */\n      0x40\n        /* \"#utility.yul\":3745:3754   */\n      dup3\n        /* \"#utility.yul\":3741:3759   */\n      add\n        /* \"#utility.yul\":3733:3759   */\n      swap1\n      pop\n        /* \"#utility.yul\":3769:3834   */\n      tag_153\n        /* \"#utility.yul\":3831:3832   */\n      0x00\n        /* \"#utility.yul\":3820:3829   */\n      dup4\n        /* \"#utility.yul\":3816:3833   */\n      add\n        /* \"#utility.yul\":3807:3813   */\n      dup6\n        /* \"#utility.yul\":3769:3834   */\n      tag_119\n      jump\t// in\n    tag_153:\n        /* \"#utility.yul\":3881:3890   */\n      dup2\n        /* \"#utility.yul\":3875:3879   */\n      dup2\n        /* \"#utility.yul\":3871:3891   */\n      sub\n        /* \"#utility.yul\":3866:3868   */\n      0x20\n        /* \"#utility.yul\":3855:3864   */\n      dup4\n        /* \"#utility.yul\":3851:3869   */\n      add\n        /* \"#utility.yul\":3844:3892   */\n      mstore\n        /* \"#utility.yul\":3909:3987   */\n      tag_154\n        /* \"#utility.yul\":3982:3986   */\n      dup2\n        /* \"#utility.yul\":3973:3979   */\n      dup5\n        /* \"#utility.yul\":3909:3987   */\n      tag_123\n      jump\t// in\n    tag_154:\n        /* \"#utility.yul\":3901:3987   */\n      swap1\n      pop\n        /* \"#utility.yul\":3583:3994   */\n      swap4\n      swap3\n      pop\n      pop\n      pop\n      jump\t// out\n        /* \"#utility.yul\":4000:4835   */\n    tag_18:\n        /* \"#utility.yul\":4269:4273   */\n      0x00\n        /* \"#utility.yul\":4307:4309   */\n      0x60\n        /* \"#utility.yul\":4296:4305   */\n      dup3\n        /* \"#utility.yul\":4292:4310   */\n      add\n        /* \"#utility.yul\":4284:4310   */\n      swap1\n      pop\n        /* \"#utility.yul\":4356:4365   */\n      dup2\n        /* \"#utility.yul\":4350:4354   */\n      dup2\n        /* \"#utility.yul\":4346:4366   */\n      sub\n        /* \"#utility.yul\":4342:4343   */\n      0x00\n        /* \"#utility.yul\":4331:4340   */\n      dup4\n        /* \"#utility.yul\":4327:4344   */\n      add\n        /* \"#utility.yul\":4320:4367   */\n      mstore\n        /* \"#utility.yul\":4384:4462   */\n      tag_156\n        /* \"#utility.yul\":4457:4461   */\n      dup2\n        /* \"#utility.yul\":4448:4454   */\n      dup7\n        /* \"#utility.yul\":4384:4462   */\n      tag_123\n      jump\t// in\n    tag_156:\n        /* \"#utility.yul\":4376:4462   */\n      swap1\n      pop\n        /* \"#utility.yul\":4509:4518   */\n      dup2\n        /* \"#utility.yul\":4503:4507   */\n      dup2\n        /* \"#utility.yul\":4499:4519   */\n      sub\n        /* \"#utility.yul\":4494:4496   */\n      0x20\n        /* \"#utility.yul\":4483:4492   */\n      dup4\n        /* \"#utility.yul\":4479:4497   */\n      add\n        /* \"#utility.yul\":4472:4520   */\n      mstore\n        /* \"#utility.yul\":4537:4645   */\n      tag_157\n        /* \"#utility.yul\":4640:4644   */\n      dup2\n        /* \"#utility.yul\":4631:4637   */\n      dup6\n        /* \"#utility.yul\":4537:4645   */\n      tag_105\n      jump\t// in\n    tag_157:\n        /* \"#utility.yul\":4529:4645   */\n      swap1\n      pop\n        /* \"#utility.yul\":4692:4701   */\n      dup2\n        /* \"#utility.yul\":4686:4690   */\n      dup2\n        /* \"#utility.yul\":4682:4702   */\n      sub\n        /* \"#utility.yul\":4677:4679   */\n      0x40\n        /* \"#utility.yul\":4666:4675   */\n      dup4\n        /* \"#utility.yul\":4662:4680   */\n      add\n        /* \"#utility.yul\":4655:4703   */\n      mstore\n        /* \"#utility.yul\":4720:4828   */\n      tag_158\n        /* \"#utility.yul\":4823:4827   */\n      dup2\n        /* \"#utility.yul\":4814:4820   */\n      dup5\n        /* \"#utility.yul\":4720:4828   */\n      tag_105\n      jump\t// in\n    tag_158:\n        /* \"#utility.yul\":4712:4828   */\n      swap1\n      pop\n        /* \"#utility.yul\":4000:4835   */\n      swap5\n      swap4\n      pop\n      pop\n      pop\n      pop\n      jump\t// out\n        /* \"#utility.yul\":4841:5258   */\n    tag_34:\n        /* \"#utility.yul\":4979:4983   */\n      0x00\n        /* \"#utility.yul\":5017:5019   */\n      0x40\n        /* \"#utility.yul\":5006:5015   */\n      dup3\n        /* \"#utility.yul\":5002:5020   */\n      add\n        /* \"#utility.yul\":4994:5020   */\n      swap1\n      pop\n        /* \"#utility.yul\":5066:5075   */\n      dup2\n        /* \"#utility.yul\":5060:5064   */\n      dup2\n        /* \"#utility.yul\":5056:5076   */\n      sub\n        /* \"#utility.yul\":5052:5053   */\n      0x00\n        /* \"#utility.yul\":5041:5050   */\n      dup4\n        /* \"#utility.yul\":5037:5054   */\n      add\n        /* \"#utility.yul\":5030:5077   */\n      mstore\n        /* \"#utility.yul\":5094:5169   */\n      tag_160\n        /* \"#utility.yul\":5164:5168   */\n      dup2\n        /* \"#utility.yul\":5155:5161   */\n      dup6\n        /* \"#utility.yul\":5094:5169   */\n      tag_133\n      jump\t// in\n    tag_160:\n        /* \"#utility.yul\":5086:5169   */\n      swap1\n      pop\n        /* \"#utility.yul\":5179:5251   */\n      tag_161\n        /* \"#utility.yul\":5247:5249   */\n      0x20\n        /* \"#utility.yul\":5236:5245   */\n      dup4\n        /* \"#utility.yul\":5232:5250   */\n      add\n        /* \"#utility.yul\":5223:5229   */\n      dup5\n        /* \"#utility.yul\":5179:5251   */\n      tag_102\n      jump\t// in\n    tag_161:\n        /* \"#utility.yul\":4841:5258   */\n      swap4\n      swap3\n      pop\n      pop\n      pop\n      jump\t// out\n        /* \"#utility.yul\":5264:5683   */\n    tag_29:\n        /* \"#utility.yul\":5430:5434   */\n      0x00\n        /* \"#utility.yul\":5468:5470   */\n      0x20\n        /* \"#utility.yul\":5457:5466   */\n      dup3\n        /* \"#utility.yul\":5453:5471   */\n      add\n        /* \"#utility.yul\":5445:5471   */\n      swap1\n      pop\n        /* \"#utility.yul\":5517:5526   */\n      dup2\n        /* \"#utility.yul\":5511:5515   */\n      dup2\n        /* \"#utility.yul\":5507:5527   */\n      sub\n        /* \"#utility.yul\":5503:5504   */\n      0x00\n        /* \"#utility.yul\":5492:5501   */\n      dup4\n        /* \"#utility.yul\":5488:5505   */\n      add\n        /* \"#utility.yul\":5481:5528   */\n      mstore\n        /* \"#utility.yul\":5545:5676   */\n      tag_163\n        /* \"#utility.yul\":5671:5675   */\n      dup2\n        /* \"#utility.yul\":5545:5676   */\n      tag_145\n      jump\t// in\n    tag_163:\n        /* \"#utility.yul\":5537:5676   */\n      swap1\n      pop\n        /* \"#utility.yul\":5264:5683   */\n      swap2\n      swap1\n      pop\n      jump\t// out\n        /* \"#utility.yul\":5770:5902   */\n    tag_112:\n        /* \"#utility.yul\":5837:5841   */\n      0x00\n        /* \"#utility.yul\":5860:5863   */\n      dup2\n        /* \"#utility.yul\":5852:5863   */\n      swap1\n      pop\n        /* \"#utility.yul\":5890:5894   */\n      0x20\n        /* \"#utility.yul\":5885:5888   */\n      dup3\n        /* \"#utility.yul\":5881:5895   */\n      add\n        /* \"#utility.yul\":5873:5895   */\n      swap1\n      pop\n        /* \"#utility.yul\":5770:5902   */\n      swap2\n      swap1\n      pop\n      jump\t// out\n        /* \"#utility.yul\":5908:6049   */\n    tag_141:\n        /* \"#utility.yul\":5957:5961   */\n      0x00\n        /* \"#utility.yul\":5980:5983   */\n      dup2\n        /* \"#utility.yul\":5972:5983   */\n      swap1\n      pop\n        /* \"#utility.yul\":6003:6006   */\n      dup2\n        /* \"#utility.yul\":6000:6001   */\n      0x00\n        /* \"#utility.yul\":5993:6007   */\n      mstore\n        /* \"#utility.yul\":6037:6041   */\n      0x20\n        /* \"#utility.yul\":6034:6035   */\n      0x00\n        /* \"#utility.yul\":6024:6042   */\n      keccak256\n        /* \"#utility.yul\":6016:6042   */\n      swap1\n      pop\n        /* \"#utility.yul\":5908:6049   */\n      swap2\n      swap1\n      pop\n      jump\t// out\n        /* \"#utility.yul\":6055:6169   */\n    tag_108:\n        /* \"#utility.yul\":6122:6128   */\n      0x00\n        /* \"#utility.yul\":6156:6161   */\n      dup2\n        /* \"#utility.yul\":6150:6162   */\n      mload\n        /* \"#utility.yul\":6140:6162   */\n      swap1\n      pop\n        /* \"#utility.yul\":6055:6169   */\n      swap2\n      swap1\n      pop\n      jump\t// out\n        /* \"#utility.yul\":6175:6274   */\n    tag_126:\n        /* \"#utility.yul\":6227:6233   */\n      0x00\n        /* \"#utility.yul\":6261:6266   */\n      dup2\n        /* \"#utility.yul\":6255:6267   */\n      mload\n        /* \"#utility.yul\":6245:6267   */\n      swap1\n      pop\n        /* \"#utility.yul\":6175:6274   */\n      swap2\n      swap1\n      pop\n      jump\t// out\n        /* \"#utility.yul\":6280:6393   */\n    tag_118:\n        /* \"#utility.yul\":6350:6354   */\n      0x00\n        /* \"#utility.yul\":6382:6386   */\n      0x20\n        /* \"#utility.yul\":6377:6380   */\n      dup3\n        /* \"#utility.yul\":6373:6387   */\n      add\n        /* \"#utility.yul\":6365:6387   */\n      swap1\n      pop\n        /* \"#utility.yul\":6280:6393   */\n      swap2\n      swap1\n      pop\n      jump\t// out\n        /* \"#utility.yul\":6399:6583   */\n    tag_110:\n        /* \"#utility.yul\":6498:6509   */\n      0x00\n        /* \"#utility.yul\":6532:6538   */\n      dup3\n        /* \"#utility.yul\":6527:6530   */\n      dup3\n        /* \"#utility.yul\":6520:6539   */\n      mstore\n        /* \"#utility.yul\":6572:6576   */\n      0x20\n        /* \"#utility.yul\":6567:6570   */\n      dup3\n        /* \"#utility.yul\":6563:6577   */\n      add\n        /* \"#utility.yul\":6548:6577   */\n      swap1\n      pop\n        /* \"#utility.yul\":6399:6583   */\n      swap3\n      swap2\n      pop\n      pop\n      jump\t// out\n        /* \"#utility.yul\":6589:6758   */\n    tag_128:\n        /* \"#utility.yul\":6673:6684   */\n      0x00\n        /* \"#utility.yul\":6707:6713   */\n      dup3\n        /* \"#utility.yul\":6702:6705   */\n      dup3\n        /* \"#utility.yul\":6695:6714   */\n      mstore\n        /* \"#utility.yul\":6747:6751   */\n      0x20\n        /* \"#utility.yul\":6742:6745   */\n      dup3\n        /* \"#utility.yul\":6738:6752   */\n      add\n        /* \"#utility.yul\":6723:6752   */\n      swap1\n      pop\n        /* \"#utility.yul\":6589:6758   */\n      swap3\n      swap2\n      pop\n      pop\n      jump\t// out\n        /* \"#utility.yul\":6764:6860   */\n    tag_101:\n        /* \"#utility.yul\":6801:6808   */\n      0x00\n        /* \"#utility.yul\":6830:6854   */\n      tag_174\n        /* \"#utility.yul\":6848:6853   */\n      dup3\n        /* \"#utility.yul\":6830:6854   */\n      tag_175\n      jump\t// in\n    tag_174:\n        /* \"#utility.yul\":6819:6854   */\n      swap1\n      pop\n        /* \"#utility.yul\":6764:6860   */\n      swap2\n      swap1\n      pop\n      jump\t// out\n        /* \"#utility.yul\":6866:6956   */\n    tag_122:\n        /* \"#utility.yul\":6900:6907   */\n      0x00\n        /* \"#utility.yul\":6943:6948   */\n      dup2\n        /* \"#utility.yul\":6936:6949   */\n      iszero\n        /* \"#utility.yul\":6929:6950   */\n      iszero\n        /* \"#utility.yul\":6918:6950   */\n      swap1\n      pop\n        /* \"#utility.yul\":6866:6956   */\n      swap2\n      swap1\n      pop\n      jump\t// out\n        /* \"#utility.yul\":6962:7088   */\n    tag_175:\n        /* \"#utility.yul\":6999:7006   */\n      0x00\n        /* \"#utility.yul\":7039:7081   */\n      0xffffffffffffffffffffffffffffffffffffffff\n        /* \"#utility.yul\":7032:7037   */\n      dup3\n        /* \"#utility.yul\":7028:7082   */\n      and\n        /* \"#utility.yul\":7017:7082   */\n      swap1\n      pop\n        /* \"#utility.yul\":6962:7088   */\n      swap2\n      swap1\n      pop\n      jump\t// out\n        /* \"#utility.yul\":7094:7171   */\n    tag_178:\n        /* \"#utility.yul\":7131:7138   */\n      0x00\n        /* \"#utility.yul\":7160:7165   */\n      dup2\n        /* \"#utility.yul\":7149:7165   */\n      swap1\n      pop\n        /* \"#utility.yul\":7094:7171   */\n      swap2\n      swap1\n      pop\n      jump\t// out\n        /* \"#utility.yul\":7177:7484   */\n    tag_130:\n        /* \"#utility.yul\":7245:7246   */\n      0x00\n        /* \"#utility.yul\":7255:7368   */\n    tag_181:\n        /* \"#utility.yul\":7269:7275   */\n      dup4\n        /* \"#utility.yul\":7266:7267   */\n      dup2\n        /* \"#utility.yul\":7263:7276   */\n      lt\n        /* \"#utility.yul\":7255:7368   */\n      iszero\n      tag_183\n      jumpi\n        /* \"#utility.yul\":7354:7355   */\n      dup1\n        /* \"#utility.yul\":7349:7352   */\n      dup3\n        /* \"#utility.yul\":7345:7356   */\n      add\n        /* \"#utility.yul\":7339:7357   */\n      mload\n        /* \"#utility.yul\":7335:7336   */\n      dup2\n        /* \"#utility.yul\":7330:7333   */\n      dup5\n        /* \"#utility.yul\":7326:7337   */\n      add\n        /* \"#utility.yul\":7319:7358   */\n      mstore\n        /* \"#utility.yul\":7291:7293   */\n      0x20\n        /* \"#utility.yul\":7288:7289   */\n      dup2\n        /* \"#utility.yul\":7284:7294   */\n      add\n        /* \"#utility.yul\":7279:7294   */\n      swap1\n      pop\n        /* \"#utility.yul\":7255:7368   */\n      jump(tag_181)\n    tag_183:\n        /* \"#utility.yul\":7386:7392   */\n      dup4\n        /* \"#utility.yul\":7383:7384   */\n      dup2\n        /* \"#utility.yul\":7380:7393   */\n      gt\n        /* \"#utility.yul\":7377:7478   */\n      iszero\n      tag_184\n      jumpi\n        /* \"#utility.yul\":7466:7467   */\n      0x00\n        /* \"#utility.yul\":7457:7463   */\n      dup5\n        /* \"#utility.yul\":7452:7455   */\n      dup5\n        /* \"#utility.yul\":7448:7464   */\n      add\n        /* \"#utility.yul\":7441:7468   */\n      mstore\n        /* \"#utility.yul\":7377:7478   */\n    tag_184:\n        /* \"#utility.yul\":7226:7484   */\n      pop\n        /* \"#utility.yul\":7177:7484   */\n      pop\n      pop\n      pop\n      jump\t// out\n        /* \"#utility.yul\":7490:7810   */\n    tag_50:\n        /* \"#utility.yul\":7534:7540   */\n      0x00\n        /* \"#utility.yul\":7571:7572   */\n      0x02\n        /* \"#utility.yul\":7565:7569   */\n      dup3\n        /* \"#utility.yul\":7561:7573   */\n      div\n        /* \"#utility.yul\":7551:7573   */\n      swap1\n      pop\n        /* \"#utility.yul\":7618:7619   */\n      0x01\n        /* \"#utility.yul\":7612:7616   */\n      dup3\n        /* \"#utility.yul\":7608:7620   */\n      and\n        /* \"#utility.yul\":7639:7657   */\n      dup1\n        /* \"#utility.yul\":7629:7710   */\n      tag_186\n      jumpi\n        /* \"#utility.yul\":7695:7699   */\n      0x7f\n        /* \"#utility.yul\":7687:7693   */\n      dup3\n        /* \"#utility.yul\":7683:7700   */\n      and\n        /* \"#utility.yul\":7673:7700   */\n      swap2\n      pop\n        /* \"#utility.yul\":7629:7710   */\n    tag_186:\n        /* \"#utility.yul\":7757:7759   */\n      0x20\n        /* \"#utility.yul\":7749:7755   */\n      dup3\n        /* \"#utility.yul\":7746:7760   */\n      lt\n        /* \"#utility.yul\":7726:7744   */\n      dup2\n        /* \"#utility.yul\":7723:7761   */\n      eq\n        /* \"#utility.yul\":7720:7804   */\n      iszero\n      tag_187\n      jumpi\n        /* \"#utility.yul\":7776:7794   */\n      tag_188\n      tag_189\n      jump\t// in\n    tag_188:\n        /* \"#utility.yul\":7720:7804   */\n    tag_187:\n        /* \"#utility.yul\":7541:7810   */\n      pop\n        /* \"#utility.yul\":7490:7810   */\n      swap2\n      swap1\n      pop\n      jump\t// out\n        /* \"#utility.yul\":7816:8049   */\n    tag_48:\n        /* \"#utility.yul\":7855:7858   */\n      0x00\n        /* \"#utility.yul\":7878:7902   */\n      tag_191\n        /* \"#utility.yul\":7896:7901   */\n      dup3\n        /* \"#utility.yul\":7878:7902   */\n      tag_178\n      jump\t// in\n    tag_191:\n        /* \"#utility.yul\":7869:7902   */\n      swap2\n      pop\n        /* \"#utility.yul\":7924:7990   */\n      0xffffffffffffffffffffffffffffffffffffffffffffffffffffffffffffffff\n        /* \"#utility.yul\":7917:7922   */\n      dup3\n        /* \"#utility.yul\":7914:7991   */\n      eq\n        /* \"#utility.yul\":7911:8014   */\n      iszero\n      tag_192\n      jumpi\n        /* \"#utility.yul\":7994:8012   */\n      tag_193\n      tag_194\n      jump\t// in\n    tag_193:\n        /* \"#utility.yul\":7911:8014   */\n    tag_192:\n        /* \"#utility.yul\":8041:8042   */\n      0x01\n        /* \"#utility.yul\":8034:8039   */\n      dup3\n        /* \"#utility.yul\":8030:8043   */\n      add\n        /* \"#utility.yul\":8023:8043   */\n      swap1\n      pop\n        /* \"#utility.yul\":7816:8049   */\n      swap2\n      swap1\n      pop\n      jump\t// out\n        /* \"#utility.yul\":8055:8235   */\n    tag_194:\n        /* \"#utility.yul\":8103:8180   */\n      0x4e487b7100000000000000000000000000000000000000000000000000000000\n        /* \"#utility.yul\":8100:8101   */\n      0x00\n        /* \"#utility.yul\":8093:8181   */\n      mstore\n        /* \"#utility.yul\":8200:8204   */\n      0x11\n        /* \"#utility.yul\":8197:8198   */\n      0x04\n        /* \"#utility.yul\":8190:8205   */\n      mstore\n        /* \"#utility.yul\":8224:8228   */\n      0x24\n        /* \"#utility.yul\":8221:8222   */\n      0x00\n        /* \"#utility.yul\":8214:8229   */\n      revert\n        /* \"#utility.yul\":8241:8421   */\n    tag_189:\n        /* \"#utility.yul\":8289:8366   */\n      0x4e487b7100000000000000000000000000000000000000000000000000000000\n        /* \"#utility.yul\":8286:8287   */\n      0x00\n        /* \"#utility.yul\":8279:8367   */\n      mstore\n        /* \"#utility.yul\":8386:8390   */\n      0x22\n        /* \"#utility.yul\":8383:8384   */\n      0x04\n        /* \"#utility.yul\":8376:8391   */\n      mstore\n        /* \"#utility.yul\":8410:8414   */\n      0x24\n        /* \"#utility.yul\":8407:8408   */\n      0x00\n        /* \"#utility.yul\":8400:8415   */\n      revert\n        /* \"#utility.yul\":8427:8607   */\n    tag_44:\n        /* \"#utility.yul\":8475:8552   */\n      0x4e487b7100000000000000000000000000000000000000000000000000000000\n        /* \"#utility.yul\":8472:8473   */\n      0x00\n        /* \"#utility.yul\":8465:8553   */\n      mstore\n        /* \"#utility.yul\":8572:8576   */\n      0x32\n        /* \"#utility.yul\":8569:8570   */\n      0x04\n        /* \"#utility.yul\":8562:8577   */\n      mstore\n        /* \"#utility.yul\":8596:8600   */\n      0x24\n        /* \"#utility.yul\":8593:8594   */\n      0x00\n        /* \"#utility.yul\":8586:8601   */\n      revert\n        /* \"#utility.yul\":8736:8853   */\n    tag_93:\n        /* \"#utility.yul\":8845:8846   */\n      0x00\n        /* \"#utility.yul\":8842:8843   */\n      dup1\n        /* \"#utility.yul\":8835:8847   */\n      revert\n        /* \"#utility.yul\":8859:8961   */\n    tag_132:\n        /* \"#utility.yul\":8900:8906   */\n      0x00\n        /* \"#utility.yul\":8951:8953   */\n      0x1f\n        /* \"#utility.yul\":8947:8954   */\n      not\n        /* \"#utility.yul\":8942:8944   */\n      0x1f\n        /* \"#utility.yul\":8935:8940   */\n      dup4\n        /* \"#utility.yul\":8931:8945   */\n      add\n        /* \"#utility.yul\":8927:8955   */\n      and\n        /* \"#utility.yul\":8917:8955   */\n      swap1\n      pop\n        /* \"#utility.yul\":8859:8961   */\n      swap2\n      swap1\n      pop\n      jump\t// out\n        /* \"#utility.yul\":8967:9137   */\n    tag_149:\n        /* \"#utility.yul\":9107:9129   */\n      0x5f7369676e6572206973206e6f742076616c6964000000000000000000000000\n        /* \"#utility.yul\":9103:9104   */\n      0x00\n        /* \"#utility.yul\":9095:9101   */\n      dup3\n        /* \"#utility.yul\":9091:9105   */\n      add\n        /* \"#utility.yul\":9084:9130   */\n      mstore\n        /* \"#utility.yul\":8967:9137   */\n      pop\n      jump\t// out\n        /* \"#utility.yul\":9143:9265   */\n    tag_89:\n        /* \"#utility.yul\":9216:9240   */\n      tag_204\n        /* \"#utility.yul\":9234:9239   */\n      dup2\n        /* \"#utility.yul\":9216:9240   */\n      tag_101\n      jump\t// in\n    tag_204:\n        /* \"#utility.yul\":9209:9214   */\n      dup2\n        /* \"#utility.yul\":9206:9241   */\n      eq\n        /* \"#utility.yul\":9196:9259   */\n      tag_205\n      jumpi\n        /* \"#utility.yul\":9255:9256   */\n      0x00\n        /* \"#utility.yul\":9252:9253   */\n      dup1\n        /* \"#utility.yul\":9245:9257   */\n      revert\n        /* \"#utility.yul\":9196:9259   */\n    tag_205:\n        /* \"#utility.yul\":9143:9265   */\n      pop\n      jump\t// out\n\n    auxdata: 0xa2646970667358221220b149590ee8ea9a85d74004d0d557d14d338c3069926627308a727f62c8f3b6bc64736f6c63430008070033\n}\n",
				"bytecode": {
					"linkReferences": {},
					"object": "60806040523480156200001157600080fd5b50604051620015a3380380620015a3833981810160405281019062000037919062000533565b8173ffffffffffffffffffffffffffffffffffffffff16600073ffffffffffffffffffffffffffffffffffffffff161415620000aa576040517f08c379a0000000000000000000000000000000000000000000000000000000008152600401620000a19062000756565b60405180910390fd5b8073ffffffffffffffffffffffffffffffffffffffff16600073ffffffffffffffffffffffffffffffffffffffff1614156200011d576040517f08c379a00000000000000000000000000000000000000000000000000000000081526004016200011490620006f0565b60405180910390fd5b3273ffffffffffffffffffffffffffffffffffffffff168273ffffffffffffffffffffffffffffffffffffffff1614156200018f576040517f08c379a0000000000000000000000000000000000000000000000000000000008152600401620001869062000734565b60405180910390fd5b3273ffffffffffffffffffffffffffffffffffffffff168173ffffffffffffffffffffffffffffffffffffffff16141562000201576040517f08c379a0000000000000000000000000000000000000000000000000000000008152600401620001f89062000712565b60405180910390fd5b6001329080600181540180825580915050600190039060005260206000200160009091909190916101000a81548173ffffffffffffffffffffffffffffffffffffffff021916908373ffffffffffffffffffffffffffffffffffffffff1602179055506001829080600181540180825580915050600190039060005260206000200160009091909190916101000a81548173ffffffffffffffffffffffffffffffffffffffff021916908373ffffffffffffffffffffffffffffffffffffffff1602179055506001819080600181540180825580915050600190039060005260206000200160009091909190916101000a81548173ffffffffffffffffffffffffffffffffffffffff021916908373ffffffffffffffffffffffffffffffffffffffff1602179055506002329080600181540180825580915050600190039060005260206000200160009091909190916101000a81548173ffffffffffffffffffffffffffffffffffffffff021916908373ffffffffffffffffffffffffffffffffffffffff1602179055508260009080519060200190620003a5929190620003ee565b507f4c843084a6226eb2c3a056100c5d939cfe9708077c523e44f5a542711587ddbe83328484604051620003dd94939291906200069c565b60405180910390a150505062000a0a565b828054620003fc906200085d565b90600052602060002090601f0160209004810192826200042057600085556200046c565b82601f106200043b57805160ff19168380011785556200046c565b828001600101855582156200046c579182015b828111156200046b5782518255916020019190600101906200044e565b5b5090506200047b91906200047f565b5090565b5b808211156200049a57600081600090555060010162000480565b5090565b6000620004b5620004af84620007a1565b62000778565b905082815260208101848484011115620004d457620004d36200092c565b5b620004e184828562000827565b509392505050565b600081519050620004fa81620009f0565b92915050565b600082601f83011262000518576200051762000927565b5b81516200052a8482602086016200049e565b91505092915050565b6000806000606084860312156200054f576200054e62000936565b5b600084015167ffffffffffffffff81111562000570576200056f62000931565b5b6200057e8682870162000500565b93505060206200059186828701620004e9565b9250506040620005a486828701620004e9565b9150509250925092565b620005b981620007f3565b82525050565b6000620005cc82620007d7565b620005d88185620007e2565b9350620005ea81856020860162000827565b620005f5816200093b565b840191505092915050565b60006200060f601783620007e2565b91506200061c826200094c565b602082019050919050565b600062000636601383620007e2565b9150620006438262000975565b602082019050919050565b60006200065d601383620007e2565b91506200066a826200099e565b602082019050919050565b600062000684601783620007e2565b91506200069182620009c7565b602082019050919050565b60006080820190508181036000830152620006b88187620005bf565b9050620006c96020830186620005ae565b620006d86040830185620005ae565b620006e76060830184620005ae565b95945050505050565b600060208201905081810360008301526200070b8162000600565b9050919050565b600060208201905081810360008301526200072d8162000627565b9050919050565b600060208201905081810360008301526200074f816200064e565b9050919050565b60006020820190508181036000830152620007718162000675565b9050919050565b60006200078462000797565b905062000792828262000893565b919050565b6000604051905090565b600067ffffffffffffffff821115620007bf57620007be620008f8565b5b620007ca826200093b565b9050602081019050919050565b600081519050919050565b600082825260208201905092915050565b6000620008008262000807565b9050919050565b600073ffffffffffffffffffffffffffffffffffffffff82169050919050565b60005b83811015620008475780820151818401526020810190506200082a565b8381111562000857576000848401525b50505050565b600060028204905060018216806200087657607f821691505b602082108114156200088d576200088c620008c9565b5b50919050565b6200089e826200093b565b810181811067ffffffffffffffff82111715620008c057620008bf620008f8565b5b80604052505050565b7f4e487b7100000000000000000000000000000000000000000000000000000000600052602260045260246000fd5b7f4e487b7100000000000000000000000000000000000000000000000000000000600052604160045260246000fd5b600080fd5b600080fd5b600080fd5b600080fd5b6000601f19601f8301169050919050565b7f5f62206973206120696e76616c69642061646472657373000000000000000000600082015250565b7f5f622063616e206e6f7420766572696669657200000000000000000000000000600082015250565b7f5f612063616e206e6f7420766572696669657200000000000000000000000000600082015250565b7f5f61206973206120696e76616c69642061646472657373000000000000000000600082015250565b620009fb81620007f3565b811462000a0757600080fd5b50565b610b898062000a1a6000396000f3fe608060405234801561001057600080fd5b506004361061004c5760003560e01c80632ca15122146100515780633c68af3e1461006f578063596f21f81461008e57806363a9c3d7146100ae575b600080fd5b6100596100de565b6040516100669190610829565b60405180910390f35b61007761021e565b604051610085929190610844565b60405180910390f35b610096610346565b6040516100a593929190610874565b60405180910390f35b6100c860048036038101906100c3919061067d565b6104f8565b6040516100d59190610829565b60405180910390f35b60006100e93261050a565b610128576040517f08c379a000000000000000000000000000000000000000000000000000000000815260040161011f906108f0565b60405180910390fd5b610131326105b9565b15610179577f57bb3fead2451e6a3a5680e94e3dba9642a2ea6e850811bf18feccc94c5968a96000326040516101689291906108c0565b60405180910390a16001905061021b565b6002329080600181540180825580915050600190039060005260206000200160009091909190916101000a81548173ffffffffffffffffffffffffffffffffffffffff021916908373ffffffffffffffffffffffffffffffffffffffff1602179055507fb05e84f77f10ca9cd0a42f11422685a81fb7997e8c2500733527f8c2ee56ab2960003260405161020e9291906108c0565b60405180910390a1600190505b90565b6000606060005b6001805490508110156102ac576102796001828154811061024957610248610ace565b5b9060005260206000200160009054906101000a900473ffffffffffffffffffffffffffffffffffffffff166105b9565b610299576000604051806020016040528060008152509250925050610342565b80806102a490610a27565b915050610225565b50600160008080546102bd906109f5565b80601f01602080910402602001604051908101604052809291908181526020018280546102e9906109f5565b80156103365780601f1061030b57610100808354040283529160200191610336565b820191906000526020600020905b81548152906001019060200180831161031957829003601f168201915b50505050509050915091505b9091565b606080606060006001600282805461035d906109f5565b80601f0160208091040260200160405190810160405280929190818152602001828054610389906109f5565b80156103d65780601f106103ab576101008083540402835291602001916103d6565b820191906000526020600020905b8154815290600101906020018083116103b957829003601f168201915b505050505092508180548060200260200160405190810160405280929190818152602001828054801561045e57602002820191906000526020600020905b8160009054906101000a900473ffffffffffffffffffffffffffffffffffffffff1673ffffffffffffffffffffffffffffffffffffffff1681526020019060010190808311610414575b50505050509150808054806020026020016040519081016040528092919081815260200182805480156104e657602002820191906000526020600020905b8160009054906101000a900473ffffffffffffffffffffffffffffffffffffffff1673ffffffffffffffffffffffffffffffffffffffff168152602001906001019080831161049c575b50505050509050925092509250909192565b60006105038261050a565b9050919050565b600080600090505b6001805490508110156105ae578273ffffffffffffffffffffffffffffffffffffffff166001828154811061054a57610549610ace565b5b9060005260206000200160009054906101000a900473ffffffffffffffffffffffffffffffffffffffff1673ffffffffffffffffffffffffffffffffffffffff16141561059b5760019150506105b4565b80806105a690610a27565b915050610512565b50600090505b919050565b600080600090505b60028054905081101561065d578273ffffffffffffffffffffffffffffffffffffffff16600282815481106105f9576105f8610ace565b5b9060005260206000200160009054906101000a900473ffffffffffffffffffffffffffffffffffffffff1673ffffffffffffffffffffffffffffffffffffffff16141561064a576001915050610663565b808061065590610a27565b9150506105c1565b50600090505b919050565b60008135905061067781610b3c565b92915050565b60006020828403121561069357610692610afd565b5b60006106a184828501610668565b91505092915050565b60006106b683836106c2565b60208301905092915050565b6106cb8161097a565b82525050565b6106da8161097a565b82525050565b60006106eb82610935565b6106f58185610958565b935061070083610910565b8060005b8381101561073157815161071888826106aa565b97506107238361094b565b925050600181019050610704565b5085935050505092915050565b6107478161098c565b82525050565b600061075882610940565b6107628185610969565b93506107728185602086016109c2565b61077b81610b02565b840191505092915050565b60008154610793816109f5565b61079d8186610969565b945060018216600081146107b857600181146107ca576107fd565b60ff19831686526020860193506107fd565b6107d385610920565b60005b838110156107f5578154818901526001820191506020810190506107d6565b808801955050505b50505092915050565b6000610813601483610969565b915061081e82610b13565b602082019050919050565b600060208201905061083e600083018461073e565b92915050565b6000604082019050610859600083018561073e565b818103602083015261086b818461074d565b90509392505050565b6000606082019050818103600083015261088e818661074d565b905081810360208301526108a281856106e0565b905081810360408301526108b681846106e0565b9050949350505050565b600060408201905081810360008301526108da8185610786565b90506108e960208301846106d1565b9392505050565b6000602082019050818103600083015261090981610806565b9050919050565b6000819050602082019050919050565b60008190508160005260206000209050919050565b600081519050919050565b600081519050919050565b6000602082019050919050565b600082825260208201905092915050565b600082825260208201905092915050565b600061098582610998565b9050919050565b60008115159050919050565b600073ffffffffffffffffffffffffffffffffffffffff82169050919050565b6000819050919050565b60005b838110156109e05780820151818401526020810190506109c5565b838111156109ef576000848401525b50505050565b60006002820490506001821680610a0d57607f821691505b60208210811415610a2157610a20610a9f565b5b50919050565b6000610a32826109b8565b91507fffffffffffffffffffffffffffffffffffffffffffffffffffffffffffffffff821415610a6557610a64610a70565b5b600182019050919050565b7f4e487b7100000000000000000000000000000000000000000000000000000000600052601160045260246000fd5b7f4e487b7100000000000000000000000000000000000000000000000000000000600052602260045260246000fd5b7f4e487b7100000000000000000000000000000000000000000000000000000000600052603260045260246000fd5b600080fd5b6000601f19601f8301169050919050565b7f5f7369676e6572206973206e6f742076616c6964000000000000000000000000600082015250565b610b458161097a565b8114610b5057600080fd5b5056fea2646970667358221220b149590ee8ea9a85d74004d0d557d14d338c3069926627308a727f62c8f3b6bc64736f6c63430008070033",
					"opcodes": "PUSH1 0x80 PUSH1 0x40 MSTORE CALLVALUE DUP1 ISZERO PUSH3 0x11 JUMPI PUSH1 0x0 DUP1 REVERT JUMPDEST POP PUSH1 0x40 MLOAD PUSH3 0x15A3 CODESIZE SUB DUP1 PUSH3 0x15A3 DUP4 CODECOPY DUP2 DUP2 ADD PUSH1 0x40 MSTORE DUP2 ADD SWAP1 PUSH3 0x37 SWAP2 SWAP1 PUSH3 0x533 JUMP JUMPDEST DUP2 PUSH20 0xFFFFFFFFFFFFFFFFFFFFFFFFFFFFFFFFFFFFFFFF AND PUSH1 0x0 PUSH20 0xFFFFFFFFFFFFFFFFFFFFFFFFFFFFFFFFFFFFFFFF AND EQ ISZERO PUSH3 0xAA JUMPI PUSH1 0x40 MLOAD PUSH32 0x8C379A000000000000000000000000000000000000000000000000000000000 DUP2 MSTORE PUSH1 0x4 ADD PUSH3 0xA1 SWAP1 PUSH3 0x756 JUMP JUMPDEST PUSH1 0x40 MLOAD DUP1 SWAP2 SUB SWAP1 REVERT JUMPDEST DUP1 PUSH20 0xFFFFFFFFFFFFFFFFFFFFFFFFFFFFFFFFFFFFFFFF AND PUSH1 0x0 PUSH20 0xFFFFFFFFFFFFFFFFFFFFFFFFFFFFFFFFFFFFFFFF AND EQ ISZERO PUSH3 0x11D JUMPI PUSH1 0x40 MLOAD PUSH32 0x8C379A000000000000000000000000000000000000000000000000000000000 DUP2 MSTORE PUSH1 0x4 ADD PUSH3 0x114 SWAP1 PUSH3 0x6F0 JUMP JUMPDEST PUSH1 0x40 MLOAD DUP1 SWAP2 SUB SWAP1 REVERT JUMPDEST ORIGIN PUSH20 0xFFFFFFFFFFFFFFFFFFFFFFFFFFFFFFFFFFFFFFFF AND DUP3 PUSH20 0xFFFFFFFFFFFFFFFFFFFFFFFFFFFFFFFFFFFFFFFF AND EQ ISZERO PUSH3 0x18F JUMPI PUSH1 0x40 MLOAD PUSH32 0x8C379A000000000000000000000000000000000000000000000000000000000 DUP2 MSTORE PUSH1 0x4 ADD PUSH3 0x186 SWAP1 PUSH3 0x734 JUMP JUMPDEST PUSH1 0x40 MLOAD DUP1 SWAP2 SUB SWAP1 REVERT JUMPDEST ORIGIN PUSH20 0xFFFFFFFFFFFFFFFFFFFFFFFFFFFFFFFFFFFFFFFF AND DUP2 PUSH20 0xFFFFFFFFFFFFFFFFFFFFFFFFFFFFFFFFFFFFFFFF AND EQ ISZERO PUSH3 0x201 JUMPI PUSH1 0x40 MLOAD PUSH32 0x8C379A000000000000000000000000000000000000000000000000000000000 DUP2 MSTORE PUSH1 0x4 ADD PUSH3 0x1F8 SWAP1 PUSH3 0x712 JUMP JUMPDEST PUSH1 0x40 MLOAD DUP1 SWAP2 SUB SWAP1 REVERT JUMPDEST PUSH1 0x1 ORIGIN SWAP1 DUP1 PUSH1 0x1 DUP2 SLOAD ADD DUP1 DUP3 SSTORE DUP1 SWAP2 POP POP PUSH1 0x1 SWAP1 SUB SWAP1 PUSH1 0x0 MSTORE PUSH1 0x20 PUSH1 0x0 KECCAK256 ADD PUSH1 0x0 SWAP1 SWAP2 SWAP1 SWAP2 SWAP1 SWAP2 PUSH2 0x100 EXP DUP2 SLOAD DUP2 PUSH20 0xFFFFFFFFFFFFFFFFFFFFFFFFFFFFFFFFFFFFFFFF MUL NOT AND SWAP1 DUP4 PUSH20 0xFFFFFFFFFFFFFFFFFFFFFFFFFFFFFFFFFFFFFFFF AND MUL OR SWAP1 SSTORE POP PUSH1 0x1 DUP3 SWAP1 DUP1 PUSH1 0x1 DUP2 SLOAD ADD DUP1 DUP3 SSTORE DUP1 SWAP2 POP POP PUSH1 0x1 SWAP1 SUB SWAP1 PUSH1 0x0 MSTORE PUSH1 0x20 PUSH1 0x0 KECCAK256 ADD PUSH1 0x0 SWAP1 SWAP2 SWAP1 SWAP2 SWAP1 SWAP2 PUSH2 0x100 EXP DUP2 SLOAD DUP2 PUSH20 0xFFFFFFFFFFFFFFFFFFFFFFFFFFFFFFFFFFFFFFFF MUL NOT AND SWAP1 DUP4 PUSH20 0xFFFFFFFFFFFFFFFFFFFFFFFFFFFFFFFFFFFFFFFF AND MUL OR SWAP1 SSTORE POP PUSH1 0x1 DUP2 SWAP1 DUP1 PUSH1 0x1 DUP2 SLOAD ADD DUP1 DUP3 SSTORE DUP1 SWAP2 POP POP PUSH1 0x1 SWAP1 SUB SWAP1 PUSH1 0x0 MSTORE PUSH1 0x20 PUSH1 0x0 KECCAK256 ADD PUSH1 0x0 SWAP1 SWAP2 SWAP1 SWAP2 SWAP1 SWAP2 PUSH2 0x100 EXP DUP2 SLOAD DUP2 PUSH20 0xFFFFFFFFFFFFFFFFFFFFFFFFFFFFFFFFFFFFFFFF MUL NOT AND SWAP1 DUP4 PUSH20 0xFFFFFFFFFFFFFFFFFFFFFFFFFFFFFFFFFFFFFFFF AND MUL OR SWAP1 SSTORE POP PUSH1 0x2 ORIGIN SWAP1 DUP1 PUSH1 0x1 DUP2 SLOAD ADD DUP1 DUP3 SSTORE DUP1 SWAP2 POP POP PUSH1 0x1 SWAP1 SUB SWAP1 PUSH1 0x0 MSTORE PUSH1 0x20 PUSH1 0x0 KECCAK256 ADD PUSH1 0x0 SWAP1 SWAP2 SWAP1 SWAP2 SWAP1 SWAP2 PUSH2 0x100 EXP DUP2 SLOAD DUP2 PUSH20 0xFFFFFFFFFFFFFFFFFFFFFFFFFFFFFFFFFFFFFFFF MUL NOT AND SWAP1 DUP4 PUSH20 0xFFFFFFFFFFFFFFFFFFFFFFFFFFFFFFFFFFFFFFFF AND MUL OR SWAP1 SSTORE POP DUP3 PUSH1 0x0 SWAP1 DUP1 MLOAD SWAP1 PUSH1 0x20 ADD SWAP1 PUSH3 0x3A5 SWAP3 SWAP2 SWAP1 PUSH3 0x3EE JUMP JUMPDEST POP PUSH32 0x4C843084A6226EB2C3A056100C5D939CFE9708077C523E44F5A542711587DDBE DUP4 ORIGIN DUP5 DUP5 PUSH1 0x40 MLOAD PUSH3 0x3DD SWAP5 SWAP4 SWAP3 SWAP2 SWAP1 PUSH3 0x69C JUMP JUMPDEST PUSH1 0x40 MLOAD DUP1 SWAP2 SUB SWAP1 LOG1 POP POP POP PUSH3 0xA0A JUMP JUMPDEST DUP3 DUP1 SLOAD PUSH3 0x3FC SWAP1 PUSH3 0x85D JUMP JUMPDEST SWAP1 PUSH1 0x0 MSTORE PUSH1 0x20 PUSH1 0x0 KECCAK256 SWAP1 PUSH1 0x1F ADD PUSH1 0x20 SWAP1 DIV DUP2 ADD SWAP3 DUP3 PUSH3 0x420 JUMPI PUSH1 0x0 DUP6 SSTORE PUSH3 0x46C JUMP JUMPDEST DUP3 PUSH1 0x1F LT PUSH3 0x43B JUMPI DUP1 MLOAD PUSH1 0xFF NOT AND DUP4 DUP1 ADD OR DUP6 SSTORE PUSH3 0x46C JUMP JUMPDEST DUP3 DUP1 ADD PUSH1 0x1 ADD DUP6 SSTORE DUP3 ISZERO PUSH3 0x46C JUMPI SWAP2 DUP3 ADD JUMPDEST DUP3 DUP2 GT ISZERO PUSH3 0x46B JUMPI DUP3 MLOAD DUP3 SSTORE SWAP2 PUSH1 0x20 ADD SWAP2 SWAP1 PUSH1 0x1 ADD SWAP1 PUSH3 0x44E JUMP JUMPDEST JUMPDEST POP SWAP1 POP PUSH3 0x47B SWAP2 SWAP1 PUSH3 0x47F JUMP JUMPDEST POP SWAP1 JUMP JUMPDEST JUMPDEST DUP1 DUP3 GT ISZERO PUSH3 0x49A JUMPI PUSH1 0x0 DUP2 PUSH1 0x0 SWAP1 SSTORE POP PUSH1 0x1 ADD PUSH3 0x480 JUMP JUMPDEST POP SWAP1 JUMP JUMPDEST PUSH1 0x0 PUSH3 0x4B5 PUSH3 0x4AF DUP5 PUSH3 0x7A1 JUMP JUMPDEST PUSH3 0x778 JUMP JUMPDEST SWAP1 POP DUP3 DUP2 MSTORE PUSH1 0x20 DUP2 ADD DUP5 DUP5 DUP5 ADD GT ISZERO PUSH3 0x4D4 JUMPI PUSH3 0x4D3 PUSH3 0x92C JUMP JUMPDEST JUMPDEST PUSH3 0x4E1 DUP5 DUP3 DUP6 PUSH3 0x827 JUMP JUMPDEST POP SWAP4 SWAP3 POP POP POP JUMP JUMPDEST PUSH1 0x0 DUP2 MLOAD SWAP1 POP PUSH3 0x4FA DUP2 PUSH3 0x9F0 JUMP JUMPDEST SWAP3 SWAP2 POP POP JUMP JUMPDEST PUSH1 0x0 DUP3 PUSH1 0x1F DUP4 ADD SLT PUSH3 0x518 JUMPI PUSH3 0x517 PUSH3 0x927 JUMP JUMPDEST JUMPDEST DUP2 MLOAD PUSH3 0x52A DUP5 DUP3 PUSH1 0x20 DUP7 ADD PUSH3 0x49E JUMP JUMPDEST SWAP2 POP POP SWAP3 SWAP2 POP POP JUMP JUMPDEST PUSH1 0x0 DUP1 PUSH1 0x0 PUSH1 0x60 DUP5 DUP7 SUB SLT ISZERO PUSH3 0x54F JUMPI PUSH3 0x54E PUSH3 0x936 JUMP JUMPDEST JUMPDEST PUSH1 0x0 DUP5 ADD MLOAD PUSH8 0xFFFFFFFFFFFFFFFF DUP2 GT ISZERO PUSH3 0x570 JUMPI PUSH3 0x56F PUSH3 0x931 JUMP JUMPDEST JUMPDEST PUSH3 0x57E DUP7 DUP3 DUP8 ADD PUSH3 0x500 JUMP JUMPDEST SWAP4 POP POP PUSH1 0x20 PUSH3 0x591 DUP7 DUP3 DUP8 ADD PUSH3 0x4E9 JUMP JUMPDEST SWAP3 POP POP PUSH1 0x40 PUSH3 0x5A4 DUP7 DUP3 DUP8 ADD PUSH3 0x4E9 JUMP JUMPDEST SWAP2 POP POP SWAP3 POP SWAP3 POP SWAP3 JUMP JUMPDEST PUSH3 0x5B9 DUP2 PUSH3 0x7F3 JUMP JUMPDEST DUP3 MSTORE POP POP JUMP JUMPDEST PUSH1 0x0 PUSH3 0x5CC DUP3 PUSH3 0x7D7 JUMP JUMPDEST PUSH3 0x5D8 DUP2 DUP6 PUSH3 0x7E2 JUMP JUMPDEST SWAP4 POP PUSH3 0x5EA DUP2 DUP6 PUSH1 0x20 DUP7 ADD PUSH3 0x827 JUMP JUMPDEST PUSH3 0x5F5 DUP2 PUSH3 0x93B JUMP JUMPDEST DUP5 ADD SWAP2 POP POP SWAP3 SWAP2 POP POP JUMP JUMPDEST PUSH1 0x0 PUSH3 0x60F PUSH1 0x17 DUP4 PUSH3 0x7E2 JUMP JUMPDEST SWAP2 POP PUSH3 0x61C DUP3 PUSH3 0x94C JUMP JUMPDEST PUSH1 0x20 DUP3 ADD SWAP1 POP SWAP2 SWAP1 POP JUMP JUMPDEST PUSH1 0x0 PUSH3 0x636 PUSH1 0x13 DUP4 PUSH3 0x7E2 JUMP JUMPDEST SWAP2 POP PUSH3 0x643 DUP3 PUSH3 0x975 JUMP JUMPDEST PUSH1 0x20 DUP3 ADD SWAP1 POP SWAP2 SWAP1 POP JUMP JUMPDEST PUSH1 0x0 PUSH3 0x65D PUSH1 0x13 DUP4 PUSH3 0x7E2 JUMP JUMPDEST SWAP2 POP PUSH3 0x66A DUP3 PUSH3 0x99E JUMP JUMPDEST PUSH1 0x20 DUP3 ADD SWAP1 POP SWAP2 SWAP1 POP JUMP JUMPDEST PUSH1 0x0 PUSH3 0x684 PUSH1 0x17 DUP4 PUSH3 0x7E2 JUMP JUMPDEST SWAP2 POP PUSH3 0x691 DUP3 PUSH3 0x9C7 JUMP JUMPDEST PUSH1 0x20 DUP3 ADD SWAP1 POP SWAP2 SWAP1 POP JUMP JUMPDEST PUSH1 0x0 PUSH1 0x80 DUP3 ADD SWAP1 POP DUP2 DUP2 SUB PUSH1 0x0 DUP4 ADD MSTORE PUSH3 0x6B8 DUP2 DUP8 PUSH3 0x5BF JUMP JUMPDEST SWAP1 POP PUSH3 0x6C9 PUSH1 0x20 DUP4 ADD DUP7 PUSH3 0x5AE JUMP JUMPDEST PUSH3 0x6D8 PUSH1 0x40 DUP4 ADD DUP6 PUSH3 0x5AE JUMP JUMPDEST PUSH3 0x6E7 PUSH1 0x60 DUP4 ADD DUP5 PUSH3 0x5AE JUMP JUMPDEST SWAP6 SWAP5 POP POP POP POP POP JUMP JUMPDEST PUSH1 0x0 PUSH1 0x20 DUP3 ADD SWAP1 POP DUP2 DUP2 SUB PUSH1 0x0 DUP4 ADD MSTORE PUSH3 0x70B DUP2 PUSH3 0x600 JUMP JUMPDEST SWAP1 POP SWAP2 SWAP1 POP JUMP JUMPDEST PUSH1 0x0 PUSH1 0x20 DUP3 ADD SWAP1 POP DUP2 DUP2 SUB PUSH1 0x0 DUP4 ADD MSTORE PUSH3 0x72D DUP2 PUSH3 0x627 JUMP JUMPDEST SWAP1 POP SWAP2 SWAP1 POP JUMP JUMPDEST PUSH1 0x0 PUSH1 0x20 DUP3 ADD SWAP1 POP DUP2 DUP2 SUB PUSH1 0x0 DUP4 ADD MSTORE PUSH3 0x74F DUP2 PUSH3 0x64E JUMP JUMPDEST SWAP1 POP SWAP2 SWAP1 POP JUMP JUMPDEST PUSH1 0x0 PUSH1 0x20 DUP3 ADD SWAP1 POP DUP2 DUP2 SUB PUSH1 0x0 DUP4 ADD MSTORE PUSH3 0x771 DUP2 PUSH3 0x675 JUMP JUMPDEST SWAP1 POP SWAP2 SWAP1 POP JUMP JUMPDEST PUSH1 0x0 PUSH3 0x784 PUSH3 0x797 JUMP JUMPDEST SWAP1 POP PUSH3 0x792 DUP3 DUP3 PUSH3 0x893 JUMP JUMPDEST SWAP2 SWAP1 POP JUMP JUMPDEST PUSH1 0x0 PUSH1 0x40 MLOAD SWAP1 POP SWAP1 JUMP JUMPDEST PUSH1 0x0 PUSH8 0xFFFFFFFFFFFFFFFF DUP3 GT ISZERO PUSH3 0x7BF JUMPI PUSH3 0x7BE PUSH3 0x8F8 JUMP JUMPDEST JUMPDEST PUSH3 0x7CA DUP3 PUSH3 0x93B JUMP JUMPDEST SWAP1 POP PUSH1 0x20 DUP2 ADD SWAP1 POP SWAP2 SWAP1 POP JUMP JUMPDEST PUSH1 0x0 DUP2 MLOAD SWAP1 POP SWAP2 SWAP1 POP JUMP JUMPDEST PUSH1 0x0 DUP3 DUP3 MSTORE PUSH1 0x20 DUP3 ADD SWAP1 POP SWAP3 SWAP2 POP POP JUMP JUMPDEST PUSH1 0x0 PUSH3 0x800 DUP3 PUSH3 0x807 JUMP JUMPDEST SWAP1 POP SWAP2 SWAP1 POP JUMP JUMPDEST PUSH1 0x0 PUSH20 0xFFFFFFFFFFFFFFFFFFFFFFFFFFFFFFFFFFFFFFFF DUP3 AND SWAP1 POP SWAP2 SWAP1 POP JUMP JUMPDEST PUSH1 0x0 JUMPDEST DUP4 DUP2 LT ISZERO PUSH3 0x847 JUMPI DUP1 DUP3 ADD MLOAD DUP2 DUP5 ADD MSTORE PUSH1 0x20 DUP2 ADD SWAP1 POP PUSH3 0x82A JUMP JUMPDEST DUP4 DUP2 GT ISZERO PUSH3 0x857 JUMPI PUSH1 0x0 DUP5 DUP5 ADD MSTORE JUMPDEST POP POP POP POP JUMP JUMPDEST PUSH1 0x0 PUSH1 0x2 DUP3 DIV SWAP1 POP PUSH1 0x1 DUP3 AND DUP1 PUSH3 0x876 JUMPI PUSH1 0x7F DUP3 AND SWAP2 POP JUMPDEST PUSH1 0x20 DUP3 LT DUP2 EQ ISZERO PUSH3 0x88D JUMPI PUSH3 0x88C PUSH3 0x8C9 JUMP JUMPDEST JUMPDEST POP SWAP2 SWAP1 POP JUMP JUMPDEST PUSH3 0x89E DUP3 PUSH3 0x93B JUMP JUMPDEST DUP2 ADD DUP2 DUP2 LT PUSH8 0xFFFFFFFFFFFFFFFF DUP3 GT OR ISZERO PUSH3 0x8C0 JUMPI PUSH3 0x8BF PUSH3 0x8F8 JUMP JUMPDEST JUMPDEST DUP1 PUSH1 0x40 MSTORE POP POP POP JUMP JUMPDEST PUSH32 0x4E487B7100000000000000000000000000000000000000000000000000000000 PUSH1 0x0 MSTORE PUSH1 0x22 PUSH1 0x4 MSTORE PUSH1 0x24 PUSH1 0x0 REVERT JUMPDEST PUSH32 0x4E487B7100000000000000000000000000000000000000000000000000000000 PUSH1 0x0 MSTORE PUSH1 0x41 PUSH1 0x4 MSTORE PUSH1 0x24 PUSH1 0x0 REVERT JUMPDEST PUSH1 0x0 DUP1 REVERT JUMPDEST PUSH1 0x0 DUP1 REVERT JUMPDEST PUSH1 0x0 DUP1 REVERT JUMPDEST PUSH1 0x0 DUP1 REVERT JUMPDEST PUSH1 0x0 PUSH1 0x1F NOT PUSH1 0x1F DUP4 ADD AND SWAP1 POP SWAP2 SWAP1 POP JUMP JUMPDEST PUSH32 0x5F62206973206120696E76616C69642061646472657373000000000000000000 PUSH1 0x0 DUP3 ADD MSTORE POP JUMP JUMPDEST PUSH32 0x5F622063616E206E6F7420766572696669657200000000000000000000000000 PUSH1 0x0 DUP3 ADD MSTORE POP JUMP JUMPDEST PUSH32 0x5F612063616E206E6F7420766572696669657200000000000000000000000000 PUSH1 0x0 DUP3 ADD MSTORE POP JUMP JUMPDEST PUSH32 0x5F61206973206120696E76616C69642061646472657373000000000000000000 PUSH1 0x0 DUP3 ADD MSTORE POP JUMP JUMPDEST PUSH3 0x9FB DUP2 PUSH3 0x7F3 JUMP JUMPDEST DUP2 EQ PUSH3 0xA07 JUMPI PUSH1 0x0 DUP1 REVERT JUMPDEST POP JUMP JUMPDEST PUSH2 0xB89 DUP1 PUSH3 0xA1A PUSH1 0x0 CODECOPY PUSH1 0x0 RETURN INVALID PUSH1 0x80 PUSH1 0x40 MSTORE CALLVALUE DUP1 ISZERO PUSH2 0x10 JUMPI PUSH1 0x0 DUP1 REVERT JUMPDEST POP PUSH1 0x4 CALLDATASIZE LT PUSH2 0x4C JUMPI PUSH1 0x0 CALLDATALOAD PUSH1 0xE0 SHR DUP1 PUSH4 0x2CA15122 EQ PUSH2 0x51 JUMPI DUP1 PUSH4 0x3C68AF3E EQ PUSH2 0x6F JUMPI DUP1 PUSH4 0x596F21F8 EQ PUSH2 0x8E JUMPI DUP1 PUSH4 0x63A9C3D7 EQ PUSH2 0xAE JUMPI JUMPDEST PUSH1 0x0 DUP1 REVERT JUMPDEST PUSH2 0x59 PUSH2 0xDE JUMP JUMPDEST PUSH1 0x40 MLOAD PUSH2 0x66 SWAP2 SWAP1 PUSH2 0x829 JUMP JUMPDEST PUSH1 0x40 MLOAD DUP1 SWAP2 SUB SWAP1 RETURN JUMPDEST PUSH2 0x77 PUSH2 0x21E JUMP JUMPDEST PUSH1 0x40 MLOAD PUSH2 0x85 SWAP3 SWAP2 SWAP1 PUSH2 0x844 JUMP JUMPDEST PUSH1 0x40 MLOAD DUP1 SWAP2 SUB SWAP1 RETURN JUMPDEST PUSH2 0x96 PUSH2 0x346 JUMP JUMPDEST PUSH1 0x40 MLOAD PUSH2 0xA5 SWAP4 SWAP3 SWAP2 SWAP1 PUSH2 0x874 JUMP JUMPDEST PUSH1 0x40 MLOAD DUP1 SWAP2 SUB SWAP1 RETURN JUMPDEST PUSH2 0xC8 PUSH1 0x4 DUP1 CALLDATASIZE SUB DUP2 ADD SWAP1 PUSH2 0xC3 SWAP2 SWAP1 PUSH2 0x67D JUMP JUMPDEST PUSH2 0x4F8 JUMP JUMPDEST PUSH1 0x40 MLOAD PUSH2 0xD5 SWAP2 SWAP1 PUSH2 0x829 JUMP JUMPDEST PUSH1 0x40 MLOAD DUP1 SWAP2 SUB SWAP1 RETURN JUMPDEST PUSH1 0x0 PUSH2 0xE9 ORIGIN PUSH2 0x50A JUMP JUMPDEST PUSH2 0x128 JUMPI PUSH1 0x40 MLOAD PUSH32 0x8C379A000000000000000000000000000000000000000000000000000000000 DUP2 MSTORE PUSH1 0x4 ADD PUSH2 0x11F SWAP1 PUSH2 0x8F0 JUMP JUMPDEST PUSH1 0x40 MLOAD DUP1 SWAP2 SUB SWAP1 REVERT JUMPDEST PUSH2 0x131 ORIGIN PUSH2 0x5B9 JUMP JUMPDEST ISZERO PUSH2 0x179 JUMPI PUSH32 0x57BB3FEAD2451E6A3A5680E94E3DBA9642A2EA6E850811BF18FECCC94C5968A9 PUSH1 0x0 ORIGIN PUSH1 0x40 MLOAD PUSH2 0x168 SWAP3 SWAP2 SWAP1 PUSH2 0x8C0 JUMP JUMPDEST PUSH1 0x40 MLOAD DUP1 SWAP2 SUB SWAP1 LOG1 PUSH1 0x1 SWAP1 POP PUSH2 0x21B JUMP JUMPDEST PUSH1 0x2 ORIGIN SWAP1 DUP1 PUSH1 0x1 DUP2 SLOAD ADD DUP1 DUP3 SSTORE DUP1 SWAP2 POP POP PUSH1 0x1 SWAP1 SUB SWAP1 PUSH1 0x0 MSTORE PUSH1 0x20 PUSH1 0x0 KECCAK256 ADD PUSH1 0x0 SWAP1 SWAP2 SWAP1 SWAP2 SWAP1 SWAP2 PUSH2 0x100 EXP DUP2 SLOAD DUP2 PUSH20 0xFFFFFFFFFFFFFFFFFFFFFFFFFFFFFFFFFFFFFFFF MUL NOT AND SWAP1 DUP4 PUSH20 0xFFFFFFFFFFFFFFFFFFFFFFFFFFFFFFFFFFFFFFFF AND MUL OR SWAP1 SSTORE POP PUSH32 0xB05E84F77F10CA9CD0A42F11422685A81FB7997E8C2500733527F8C2EE56AB29 PUSH1 0x0 ORIGIN PUSH1 0x40 MLOAD PUSH2 0x20E SWAP3 SWAP2 SWAP1 PUSH2 0x8C0 JUMP JUMPDEST PUSH1 0x40 MLOAD DUP1 SWAP2 SUB SWAP1 LOG1 PUSH1 0x1 SWAP1 POP JUMPDEST SWAP1 JUMP JUMPDEST PUSH1 0x0 PUSH1 0x60 PUSH1 0x0 JUMPDEST PUSH1 0x1 DUP1 SLOAD SWAP1 POP DUP2 LT ISZERO PUSH2 0x2AC JUMPI PUSH2 0x279 PUSH1 0x1 DUP3 DUP2 SLOAD DUP2 LT PUSH2 0x249 JUMPI PUSH2 0x248 PUSH2 0xACE JUMP JUMPDEST JUMPDEST SWAP1 PUSH1 0x0 MSTORE PUSH1 0x20 PUSH1 0x0 KECCAK256 ADD PUSH1 0x0 SWAP1 SLOAD SWAP1 PUSH2 0x100 EXP SWAP1 DIV PUSH20 0xFFFFFFFFFFFFFFFFFFFFFFFFFFFFFFFFFFFFFFFF AND PUSH2 0x5B9 JUMP JUMPDEST PUSH2 0x299 JUMPI PUSH1 0x0 PUSH1 0x40 MLOAD DUP1 PUSH1 0x20 ADD PUSH1 0x40 MSTORE DUP1 PUSH1 0x0 DUP2 MSTORE POP SWAP3 POP SWAP3 POP POP PUSH2 0x342 JUMP JUMPDEST DUP1 DUP1 PUSH2 0x2A4 SWAP1 PUSH2 0xA27 JUMP JUMPDEST SWAP2 POP POP PUSH2 0x225 JUMP JUMPDEST POP PUSH1 0x1 PUSH1 0x0 DUP1 DUP1 SLOAD PUSH2 0x2BD SWAP1 PUSH2 0x9F5 JUMP JUMPDEST DUP1 PUSH1 0x1F ADD PUSH1 0x20 DUP1 SWAP2 DIV MUL PUSH1 0x20 ADD PUSH1 0x40 MLOAD SWAP1 DUP2 ADD PUSH1 0x40 MSTORE DUP1 SWAP3 SWAP2 SWAP1 DUP2 DUP2 MSTORE PUSH1 0x20 ADD DUP3 DUP1 SLOAD PUSH2 0x2E9 SWAP1 PUSH2 0x9F5 JUMP JUMPDEST DUP1 ISZERO PUSH2 0x336 JUMPI DUP1 PUSH1 0x1F LT PUSH2 0x30B JUMPI PUSH2 0x100 DUP1 DUP4 SLOAD DIV MUL DUP4 MSTORE SWAP2 PUSH1 0x20 ADD SWAP2 PUSH2 0x336 JUMP JUMPDEST DUP3 ADD SWAP2 SWAP1 PUSH1 0x0 MSTORE PUSH1 0x20 PUSH1 0x0 KECCAK256 SWAP1 JUMPDEST DUP2 SLOAD DUP2 MSTORE SWAP1 PUSH1 0x1 ADD SWAP1 PUSH1 0x20 ADD DUP1 DUP4 GT PUSH2 0x319 JUMPI DUP3 SWAP1 SUB PUSH1 0x1F AND DUP3 ADD SWAP2 JUMPDEST POP POP POP POP POP SWAP1 POP SWAP2 POP SWAP2 POP JUMPDEST SWAP1 SWAP2 JUMP JUMPDEST PUSH1 0x60 DUP1 PUSH1 0x60 PUSH1 0x0 PUSH1 0x1 PUSH1 0x2 DUP3 DUP1 SLOAD PUSH2 0x35D SWAP1 PUSH2 0x9F5 JUMP JUMPDEST DUP1 PUSH1 0x1F ADD PUSH1 0x20 DUP1 SWAP2 DIV MUL PUSH1 0x20 ADD PUSH1 0x40 MLOAD SWAP1 DUP2 ADD PUSH1 0x40 MSTORE DUP1 SWAP3 SWAP2 SWAP1 DUP2 DUP2 MSTORE PUSH1 0x20 ADD DUP3 DUP1 SLOAD PUSH2 0x389 SWAP1 PUSH2 0x9F5 JUMP JUMPDEST DUP1 ISZERO PUSH2 0x3D6 JUMPI DUP1 PUSH1 0x1F LT PUSH2 0x3AB JUMPI PUSH2 0x100 DUP1 DUP4 SLOAD DIV MUL DUP4 MSTORE SWAP2 PUSH1 0x20 ADD SWAP2 PUSH2 0x3D6 JUMP JUMPDEST DUP3 ADD SWAP2 SWAP1 PUSH1 0x0 MSTORE PUSH1 0x20 PUSH1 0x0 KECCAK256 SWAP1 JUMPDEST DUP2 SLOAD DUP2 MSTORE SWAP1 PUSH1 0x1 ADD SWAP1 PUSH1 0x20 ADD DUP1 DUP4 GT PUSH2 0x3B9 JUMPI DUP3 SWAP1 SUB PUSH1 0x1F AND DUP3 ADD SWAP2 JUMPDEST POP POP POP POP POP SWAP3 POP DUP2 DUP1 SLOAD DUP1 PUSH1 0x20 MUL PUSH1 0x20 ADD PUSH1 0x40 MLOAD SWAP1 DUP2 ADD PUSH1 0x40 MSTORE DUP1 SWAP3 SWAP2 SWAP1 DUP2 DUP2 MSTORE PUSH1 0x20 ADD DUP3 DUP1 SLOAD DUP1 ISZERO PUSH2 0x45E JUMPI PUSH1 0x20 MUL DUP3 ADD SWAP2 SWAP1 PUSH1 0x0 MSTORE PUSH1 0x20 PUSH1 0x0 KECCAK256 SWAP1 JUMPDEST DUP2 PUSH1 0x0 SWAP1 SLOAD SWAP1 PUSH2 0x100 EXP SWAP1 DIV PUSH20 0xFFFFFFFFFFFFFFFFFFFFFFFFFFFFFFFFFFFFFFFF AND PUSH20 0xFFFFFFFFFFFFFFFFFFFFFFFFFFFFFFFFFFFFFFFF AND DUP2 MSTORE PUSH1 0x20 ADD SWAP1 PUSH1 0x1 ADD SWAP1 DUP1 DUP4 GT PUSH2 0x414 JUMPI JUMPDEST POP POP POP POP POP SWAP2 POP DUP1 DUP1 SLOAD DUP1 PUSH1 0x20 MUL PUSH1 0x20 ADD PUSH1 0x40 MLOAD SWAP1 DUP2 ADD PUSH1 0x40 MSTORE DUP1 SWAP3 SWAP2 SWAP1 DUP2 DUP2 MSTORE PUSH1 0x20 ADD DUP3 DUP1 SLOAD DUP1 ISZERO PUSH2 0x4E6 JUMPI PUSH1 0x20 MUL DUP3 ADD SWAP2 SWAP1 PUSH1 0x0 MSTORE PUSH1 0x20 PUSH1 0x0 KECCAK256 SWAP1 JUMPDEST DUP2 PUSH1 0x0 SWAP1 SLOAD SWAP1 PUSH2 0x100 EXP SWAP1 DIV PUSH20 0xFFFFFFFFFFFFFFFFFFFFFFFFFFFFFFFFFFFFFFFF AND PUSH20 0xFFFFFFFFFFFFFFFFFFFFFFFFFFFFFFFFFFFFFFFF AND DUP2 MSTORE PUSH1 0x20 ADD SWAP1 PUSH1 0x1 ADD SWAP1 DUP1 DUP4 GT PUSH2 0x49C JUMPI JUMPDEST POP POP POP POP POP SWAP1 POP SWAP3 POP SWAP3 POP SWAP3 POP SWAP1 SWAP2 SWAP3 JUMP JUMPDEST PUSH1 0x0 PUSH2 0x503 DUP3 PUSH2 0x50A JUMP JUMPDEST SWAP1 POP SWAP2 SWAP1 POP JUMP JUMPDEST PUSH1 0x0 DUP1 PUSH1 0x0 SWAP1 POP JUMPDEST PUSH1 0x1 DUP1 SLOAD SWAP1 POP DUP2 LT ISZERO PUSH2 0x5AE JUMPI DUP3 PUSH20 0xFFFFFFFFFFFFFFFFFFFFFFFFFFFFFFFFFFFFFFFF AND PUSH1 0x1 DUP3 DUP2 SLOAD DUP2 LT PUSH2 0x54A JUMPI PUSH2 0x549 PUSH2 0xACE JUMP JUMPDEST JUMPDEST SWAP1 PUSH1 0x0 MSTORE PUSH1 0x20 PUSH1 0x0 KECCAK256 ADD PUSH1 0x0 SWAP1 SLOAD SWAP1 PUSH2 0x100 EXP SWAP1 DIV PUSH20 0xFFFFFFFFFFFFFFFFFFFFFFFFFFFFFFFFFFFFFFFF AND PUSH20 0xFFFFFFFFFFFFFFFFFFFFFFFFFFFFFFFFFFFFFFFF AND EQ ISZERO PUSH2 0x59B JUMPI PUSH1 0x1 SWAP2 POP POP PUSH2 0x5B4 JUMP JUMPDEST DUP1 DUP1 PUSH2 0x5A6 SWAP1 PUSH2 0xA27 JUMP JUMPDEST SWAP2 POP POP PUSH2 0x512 JUMP JUMPDEST POP PUSH1 0x0 SWAP1 POP JUMPDEST SWAP2 SWAP1 POP JUMP JUMPDEST PUSH1 0x0 DUP1 PUSH1 0x0 SWAP1 POP JUMPDEST PUSH1 0x2 DUP1 SLOAD SWAP1 POP DUP2 LT ISZERO PUSH2 0x65D JUMPI DUP3 PUSH20 0xFFFFFFFFFFFFFFFFFFFFFFFFFFFFFFFFFFFFFFFF AND PUSH1 0x2 DUP3 DUP2 SLOAD DUP2 LT PUSH2 0x5F9 JUMPI PUSH2 0x5F8 PUSH2 0xACE JUMP JUMPDEST JUMPDEST SWAP1 PUSH1 0x0 MSTORE PUSH1 0x20 PUSH1 0x0 KECCAK256 ADD PUSH1 0x0 SWAP1 SLOAD SWAP1 PUSH2 0x100 EXP SWAP1 DIV PUSH20 0xFFFFFFFFFFFFFFFFFFFFFFFFFFFFFFFFFFFFFFFF AND PUSH20 0xFFFFFFFFFFFFFFFFFFFFFFFFFFFFFFFFFFFFFFFF AND EQ ISZERO PUSH2 0x64A JUMPI PUSH1 0x1 SWAP2 POP POP PUSH2 0x663 JUMP JUMPDEST DUP1 DUP1 PUSH2 0x655 SWAP1 PUSH2 0xA27 JUMP JUMPDEST SWAP2 POP POP PUSH2 0x5C1 JUMP JUMPDEST POP PUSH1 0x0 SWAP1 POP JUMPDEST SWAP2 SWAP1 POP JUMP JUMPDEST PUSH1 0x0 DUP2 CALLDATALOAD SWAP1 POP PUSH2 0x677 DUP2 PUSH2 0xB3C JUMP JUMPDEST SWAP3 SWAP2 POP POP JUMP JUMPDEST PUSH1 0x0 PUSH1 0x20 DUP3 DUP5 SUB SLT ISZERO PUSH2 0x693 JUMPI PUSH2 0x692 PUSH2 0xAFD JUMP JUMPDEST JUMPDEST PUSH1 0x0 PUSH2 0x6A1 DUP5 DUP3 DUP6 ADD PUSH2 0x668 JUMP JUMPDEST SWAP2 POP POP SWAP3 SWAP2 POP POP JUMP JUMPDEST PUSH1 0x0 PUSH2 0x6B6 DUP4 DUP4 PUSH2 0x6C2 JUMP JUMPDEST PUSH1 0x20 DUP4 ADD SWAP1 POP SWAP3 SWAP2 POP POP JUMP JUMPDEST PUSH2 0x6CB DUP2 PUSH2 0x97A JUMP JUMPDEST DUP3 MSTORE POP POP JUMP JUMPDEST PUSH2 0x6DA DUP2 PUSH2 0x97A JUMP JUMPDEST DUP3 MSTORE POP POP JUMP JUMPDEST PUSH1 0x0 PUSH2 0x6EB DUP3 PUSH2 0x935 JUMP JUMPDEST PUSH2 0x6F5 DUP2 DUP6 PUSH2 0x958 JUMP JUMPDEST SWAP4 POP PUSH2 0x700 DUP4 PUSH2 0x910 JUMP JUMPDEST DUP1 PUSH1 0x0 JUMPDEST DUP4 DUP2 LT ISZERO PUSH2 0x731 JUMPI DUP2 MLOAD PUSH2 0x718 DUP9 DUP3 PUSH2 0x6AA JUMP JUMPDEST SWAP8 POP PUSH2 0x723 DUP4 PUSH2 0x94B JUMP JUMPDEST SWAP3 POP POP PUSH1 0x1 DUP2 ADD SWAP1 POP PUSH2 0x704 JUMP JUMPDEST POP DUP6 SWAP4 POP POP POP POP SWAP3 SWAP2 POP POP JUMP JUMPDEST PUSH2 0x747 DUP2 PUSH2 0x98C JUMP JUMPDEST DUP3 MSTORE POP POP JUMP JUMPDEST PUSH1 0x0 PUSH2 0x758 DUP3 PUSH2 0x940 JUMP JUMPDEST PUSH2 0x762 DUP2 DUP6 PUSH2 0x969 JUMP JUMPDEST SWAP4 POP PUSH2 0x772 DUP2 DUP6 PUSH1 0x20 DUP7 ADD PUSH2 0x9C2 JUMP JUMPDEST PUSH2 0x77B DUP2 PUSH2 0xB02 JUMP JUMPDEST DUP5 ADD SWAP2 POP POP SWAP3 SWAP2 POP POP JUMP JUMPDEST PUSH1 0x0 DUP2 SLOAD PUSH2 0x793 DUP2 PUSH2 0x9F5 JUMP JUMPDEST PUSH2 0x79D DUP2 DUP7 PUSH2 0x969 JUMP JUMPDEST SWAP5 POP PUSH1 0x1 DUP3 AND PUSH1 0x0 DUP2 EQ PUSH2 0x7B8 JUMPI PUSH1 0x1 DUP2 EQ PUSH2 0x7CA JUMPI PUSH2 0x7FD JUMP JUMPDEST PUSH1 0xFF NOT DUP4 AND DUP7 MSTORE PUSH1 0x20 DUP7 ADD SWAP4 POP PUSH2 0x7FD JUMP JUMPDEST PUSH2 0x7D3 DUP6 PUSH2 0x920 JUMP JUMPDEST PUSH1 0x0 JUMPDEST DUP4 DUP2 LT ISZERO PUSH2 0x7F5 JUMPI DUP2 SLOAD DUP2 DUP10 ADD MSTORE PUSH1 0x1 DUP3 ADD SWAP2 POP PUSH1 0x20 DUP2 ADD SWAP1 POP PUSH2 0x7D6 JUMP JUMPDEST DUP1 DUP9 ADD SWAP6 POP POP POP JUMPDEST POP POP POP SWAP3 SWAP2 POP POP JUMP JUMPDEST PUSH1 0x0 PUSH2 0x813 PUSH1 0x14 DUP4 PUSH2 0x969 JUMP JUMPDEST SWAP2 POP PUSH2 0x81E DUP3 PUSH2 0xB13 JUMP JUMPDEST PUSH1 0x20 DUP3 ADD SWAP1 POP SWAP2 SWAP1 POP JUMP JUMPDEST PUSH1 0x0 PUSH1 0x20 DUP3 ADD SWAP1 POP PUSH2 0x83E PUSH1 0x0 DUP4 ADD DUP5 PUSH2 0x73E JUMP JUMPDEST SWAP3 SWAP2 POP POP JUMP JUMPDEST PUSH1 0x0 PUSH1 0x40 DUP3 ADD SWAP1 POP PUSH2 0x859 PUSH1 0x0 DUP4 ADD DUP6 PUSH2 0x73E JUMP JUMPDEST DUP2 DUP2 SUB PUSH1 0x20 DUP4 ADD MSTORE PUSH2 0x86B DUP2 DUP5 PUSH2 0x74D JUMP JUMPDEST SWAP1 POP SWAP4 SWAP3 POP POP POP JUMP JUMPDEST PUSH1 0x0 PUSH1 0x60 DUP3 ADD SWAP1 POP DUP2 DUP2 SUB PUSH1 0x0 DUP4 ADD MSTORE PUSH2 0x88E DUP2 DUP7 PUSH2 0x74D JUMP JUMPDEST SWAP1 POP DUP2 DUP2 SUB PUSH1 0x20 DUP4 ADD MSTORE PUSH2 0x8A2 DUP2 DUP6 PUSH2 0x6E0 JUMP JUMPDEST SWAP1 POP DUP2 DUP2 SUB PUSH1 0x40 DUP4 ADD MSTORE PUSH2 0x8B6 DUP2 DUP5 PUSH2 0x6E0 JUMP JUMPDEST SWAP1 POP SWAP5 SWAP4 POP POP POP POP JUMP JUMPDEST PUSH1 0x0 PUSH1 0x40 DUP3 ADD SWAP1 POP DUP2 DUP2 SUB PUSH1 0x0 DUP4 ADD MSTORE PUSH2 0x8DA DUP2 DUP6 PUSH2 0x786 JUMP JUMPDEST SWAP1 POP PUSH2 0x8E9 PUSH1 0x20 DUP4 ADD DUP5 PUSH2 0x6D1 JUMP JUMPDEST SWAP4 SWAP3 POP POP POP JUMP JUMPDEST PUSH1 0x0 PUSH1 0x20 DUP3 ADD SWAP1 POP DUP2 DUP2 SUB PUSH1 0x0 DUP4 ADD MSTORE PUSH2 0x909 DUP2 PUSH2 0x806 JUMP JUMPDEST SWAP1 POP SWAP2 SWAP1 POP JUMP JUMPDEST PUSH1 0x0 DUP2 SWAP1 POP PUSH1 0x20 DUP3 ADD SWAP1 POP SWAP2 SWAP1 POP JUMP JUMPDEST PUSH1 0x0 DUP2 SWAP1 POP DUP2 PUSH1 0x0 MSTORE PUSH1 0x20 PUSH1 0x0 KECCAK256 SWAP1 POP SWAP2 SWAP1 POP JUMP JUMPDEST PUSH1 0x0 DUP2 MLOAD SWAP1 POP SWAP2 SWAP1 POP JUMP JUMPDEST PUSH1 0x0 DUP2 MLOAD SWAP1 POP SWAP2 SWAP1 POP JUMP JUMPDEST PUSH1 0x0 PUSH1 0x20 DUP3 ADD SWAP1 POP SWAP2 SWAP1 POP JUMP JUMPDEST PUSH1 0x0 DUP3 DUP3 MSTORE PUSH1 0x20 DUP3 ADD SWAP1 POP SWAP3 SWAP2 POP POP JUMP JUMPDEST PUSH1 0x0 DUP3 DUP3 MSTORE PUSH1 0x20 DUP3 ADD SWAP1 POP SWAP3 SWAP2 POP POP JUMP JUMPDEST PUSH1 0x0 PUSH2 0x985 DUP3 PUSH2 0x998 JUMP JUMPDEST SWAP1 POP SWAP2 SWAP1 POP JUMP JUMPDEST PUSH1 0x0 DUP2 ISZERO ISZERO SWAP1 POP SWAP2 SWAP1 POP JUMP JUMPDEST PUSH1 0x0 PUSH20 0xFFFFFFFFFFFFFFFFFFFFFFFFFFFFFFFFFFFFFFFF DUP3 AND SWAP1 POP SWAP2 SWAP1 POP JUMP JUMPDEST PUSH1 0x0 DUP2 SWAP1 POP SWAP2 SWAP1 POP JUMP JUMPDEST PUSH1 0x0 JUMPDEST DUP4 DUP2 LT ISZERO PUSH2 0x9E0 JUMPI DUP1 DUP3 ADD MLOAD DUP2 DUP5 ADD MSTORE PUSH1 0x20 DUP2 ADD SWAP1 POP PUSH2 0x9C5 JUMP JUMPDEST DUP4 DUP2 GT ISZERO PUSH2 0x9EF JUMPI PUSH1 0x0 DUP5 DUP5 ADD MSTORE JUMPDEST POP POP POP POP JUMP JUMPDEST PUSH1 0x0 PUSH1 0x2 DUP3 DIV SWAP1 POP PUSH1 0x1 DUP3 AND DUP1 PUSH2 0xA0D JUMPI PUSH1 0x7F DUP3 AND SWAP2 POP JUMPDEST PUSH1 0x20 DUP3 LT DUP2 EQ ISZERO PUSH2 0xA21 JUMPI PUSH2 0xA20 PUSH2 0xA9F JUMP JUMPDEST JUMPDEST POP SWAP2 SWAP1 POP JUMP JUMPDEST PUSH1 0x0 PUSH2 0xA32 DUP3 PUSH2 0x9B8 JUMP JUMPDEST SWAP2 POP PUSH32 0xFFFFFFFFFFFFFFFFFFFFFFFFFFFFFFFFFFFFFFFFFFFFFFFFFFFFFFFFFFFFFFFF DUP3 EQ ISZERO PUSH2 0xA65 JUMPI PUSH2 0xA64 PUSH2 0xA70 JUMP JUMPDEST JUMPDEST PUSH1 0x1 DUP3 ADD SWAP1 POP SWAP2 SWAP1 POP JUMP JUMPDEST PUSH32 0x4E487B7100000000000000000000000000000000000000000000000000000000 PUSH1 0x0 MSTORE PUSH1 0x11 PUSH1 0x4 MSTORE PUSH1 0x24 PUSH1 0x0 REVERT JUMPDEST PUSH32 0x4E487B7100000000000000000000000000000000000000000000000000000000 PUSH1 0x0 MSTORE PUSH1 0x22 PUSH1 0x4 MSTORE PUSH1 0x24 PUSH1 0x0 REVERT JUMPDEST PUSH32 0x4E487B7100000000000000000000000000000000000000000000000000000000 PUSH1 0x0 MSTORE PUSH1 0x32 PUSH1 0x4 MSTORE PUSH1 0x24 PUSH1 0x0 REVERT JUMPDEST PUSH1 0x0 DUP1 REVERT JUMPDEST PUSH1 0x0 PUSH1 0x1F NOT PUSH1 0x1F DUP4 ADD AND SWAP1 POP SWAP2 SWAP1 POP JUMP JUMPDEST PUSH32 0x5F7369676E6572206973206E6F742076616C6964000000000000000000000000 PUSH1 0x0 DUP3 ADD MSTORE POP JUMP JUMPDEST PUSH2 0xB45 DUP2 PUSH2 0x97A JUMP JUMPDEST DUP2 EQ PUSH2 0xB50 JUMPI PUSH1 0x0 DUP1 REVERT JUMPDEST POP JUMP INVALID LOG2 PUSH5 0x6970667358 0x22 SLT KECCAK256 0xB1 0x49 MSIZE 0xE 0xE8 0xEA SWAP11 DUP6 0xD7 BLOCKHASH DIV 0xD0 0xD5 JUMPI 0xD1 0x4D CALLER DUP13 ADDRESS PUSH10 0x926627308A727F62C8F3 0xB6 0xBC PUSH5 0x736F6C6343 STOP ADDMOD SMOD STOP CALLER "
				},
				"gasEstimates": {
					"creation": {
						"codeDepositCost": "590600",
						"executionCost": "infinite",
						"totalCost": "infinite"
					},
					"external": {
						"getEvidence()": "infinite",
						"isAllSigned()": "infinite",
						"sign()": "infinite",
						"verify(address)": "infinite"
					},
					"internal": {
						"_verify(address)": "infinite",
						"isSigned(address)": "infinite"
					}
				},
				"methodIdentifiers": {
					"getEvidence()": "596f21f8",
					"isAllSigned()": "3c68af3e",
					"sign()": "2ca15122",
					"verify(address)": "63a9c3d7"
				}
			},
			"storageLayout": {
				"storage": [
					{
						"astId": 29,
						"contract": "anli/marriage/evidence.sol:MarriageEvidence",
						"label": "evidence",
						"offset": 0,
						"slot": "0",
						"type": "t_string_storage"
					},
					{
						"astId": 32,
						"contract": "anli/marriage/evidence.sol:MarriageEvidence",
						"label": "needSigners",
						"offset": 0,
						"slot": "1",
						"type": "t_array(t_address)dyn_storage"
					},
					{
						"astId": 35,
						"contract": "anli/marriage/evidence.sol:MarriageEvidence",
						"label": "signers",
						"offset": 0,
						"slot": "2",
						"type": "t_array(t_address)dyn_storage"
					}
				],
				"types": {
					"t_address": {
						"encoding": "inplace",
						"label": "address",
						"numberOfBytes": "20"
					},
					"t_array(t_address)dyn_storage": {
						"base": "t_address",
						"encoding": "dynamic_array",
						"label": "address[]",
						"numberOfBytes": "32"
					},
					"t_string_storage": {
						"encoding": "bytes",
						"label": "string",
						"numberOfBytes": "32"
					}
				}
			},
			"userdoc": {
				"kind": "user",
				"methods": {},
				"version": 1
			}
		}
	}
}