{
	"anli/evidence/factory.sol": {
		"EvidenceFactory": {
			"abi": [
				{
					"inputs": [
						{
							"internalType": "address[]",
							"name": "_signers",
							"type": "address[]"
						}
					],
					"stateMutability": "nonpayable",
					"type": "constructor"
				},
				{
					"anonymous": false,
					"inputs": [
						{
							"indexed": false,
							"internalType": "string",
							"name": "_evi",
							"type": "string"
						},
						{
							"indexed": false,
							"internalType": "address",
							"name": "_sender",
							"type": "address"
						},
						{
							"indexed": false,
							"internalType": "address",
							"name": "_eviAddr",
							"type": "address"
						}
					],
					"name": "NewEvidence",
					"type": "event"
				},
				{
					"inputs": [
						{
							"internalType": "string",
							"name": "_key",
							"type": "string"
						}
					],
					"name": "getEvidence",
					"outputs": [
						{
							"internalType": "string",
							"name": "",
							"type": "string"
						},
						{
							"internalType": "address[]",
							"name": "",
							"type": "address[]"
						},
						{
							"internalType": "address[]",
							"name": "",
							"type": "address[]"
						}
					],
					"stateMutability": "view",
					"type": "function"
				},
				{
					"inputs": [
						{
							"internalType": "uint256",
							"name": "_index",
							"type": "uint256"
						}
					],
					"name": "getSigner",
					"outputs": [
						{
							"internalType": "address",
							"name": "",
							"type": "address"
						}
					],
					"stateMutability": "view",
					"type": "function"
				},
				{
					"inputs": [],
					"name": "getSignersSize",
					"outputs": [
						{
							"internalType": "uint256",
							"name": "",
							"type": "uint256"
						}
					],
					"stateMutability": "view",
					"type": "function"
				},
				{
					"inputs": [
						{
							"internalType": "string",
							"name": "_key",
							"type": "string"
						}
					],
					"name": "isAllSigned",
					"outputs": [
						{
							"internalType": "bool",
							"name": "",
							"type": "bool"
						},
						{
							"internalType": "string",
							"name": "",
							"type": "string"
						}
					],
					"stateMutability": "view",
					"type": "function"
				},
				{
					"inputs": [
						{
							"internalType": "string",
							"name": "_evi",
							"type": "string"
						},
						{
							"internalType": "string",
							"name": "_key",
							"type": "string"
						}
					],
					"name": "newEvidence",
					"outputs": [
						{
							"internalType": "address",
							"name": "",
							"type": "address"
						}
					],
					"stateMutability": "nonpayable",
					"type": "function"
				},
				{
					"inputs": [
						{
							"internalType": "string",
							"name": "_key",
							"type": "string"
						}
					],
					"name": "sign",
					"outputs": [
						{
							"internalType": "bool",
							"name": "",
							"type": "bool"
						}
					],
					"stateMutability": "nonpayable",
					"type": "function"
				},
				{
					"inputs": [
						{
							"internalType": "address",
							"name": "_signer",
							"type": "address"
						}
					],
					"name": "verify",
					"outputs": [
						{
							"internalType": "bool",
							"name": "",
							"type": "bool"
						}
					],
					"stateMutability": "view",
					"type": "function"
				}
			],
			"devdoc": {
				"kind": "dev",
				"methods": {},
				"version": 1
			},
			"evm": {
				"assembly": "    /* \"anli/evidence/factory.sol\":50:1878  contract EvidenceFactory is IEvdence {... */\n  mstore(0x40, 0x80)\n    /* \"anli/evidence/factory.sol\":242:392  constructor(address[] memory _signers) {... */\n  callvalue\n  dup1\n  iszero\n  tag_1\n  jumpi\n  0x00\n  dup1\n  revert\ntag_1:\n  pop\n  mload(0x40)\n  sub(codesize, bytecodeSize)\n  dup1\n  bytecodeSize\n  dup4\n  codecopy\n  dup2\n  dup2\n  add\n  0x40\n  mstore\n  dup2\n  add\n  swap1\n  tag_2\n  swap2\n  swap1\n  tag_3\n  jump\t// in\ntag_2:\n    /* \"anli/evidence/factory.sol\":295:304  uint256 i */\n  0x00\n    /* \"anli/evidence/factory.sol\":291:386  for(uint256 i =0 ;i < _signers.length; i ++) {... */\ntag_6:\n    /* \"anli/evidence/factory.sol\":313:321  _signers */\n  dup2\n    /* \"anli/evidence/factory.sol\":313:328  _signers.length */\n  mload\n    /* \"anli/evidence/factory.sol\":309:310  i */\n  dup2\n    /* \"anli/evidence/factory.sol\":309:328  i < _signers.length */\n  lt\n    /* \"anli/evidence/factory.sol\":291:386  for(uint256 i =0 ;i < _signers.length; i ++) {... */\n  iszero\n  tag_7\n  jumpi\n    /* \"anli/evidence/factory.sol\":350:357  signers */\n  0x00\n    /* \"anli/evidence/factory.sol\":363:371  _signers */\n  dup3\n    /* \"anli/evidence/factory.sol\":372:373  i */\n  dup3\n    /* \"anli/evidence/factory.sol\":363:374  _signers[i] */\n  dup2\n  mload\n  dup2\n  lt\n  tag_9\n  jumpi\n  tag_10\n  tag_11\n  jump\t// in\ntag_10:\ntag_9:\n  0x20\n  mul\n  0x20\n  add\n  add\n  mload\n    /* \"anli/evidence/factory.sol\":350:375  signers.push(_signers[i]) */\n  swap1\n  dup1\n  0x01\n  dup2\n  sload\n  add\n  dup1\n  dup3\n  sstore\n  dup1\n  swap2\n  pop\n  pop\n  0x01\n  swap1\n  sub\n  swap1\n  0x00\n  mstore\n  keccak256(0x00, 0x20)\n  add\n  0x00\n  swap1\n  swap2\n  swap1\n  swap2\n  swap1\n  swap2\n  0x0100\n  exp\n  dup2\n  sload\n  dup2\n  0xffffffffffffffffffffffffffffffffffffffff\n  mul\n  not\n  and\n  swap1\n  dup4\n  0xffffffffffffffffffffffffffffffffffffffff\n  and\n  mul\n  or\n  swap1\n  sstore\n  pop\n    /* \"anli/evidence/factory.sol\":330:334  i ++ */\n  dup1\n  dup1\n  tag_13\n  swap1\n  tag_14\n  jump\t// in\ntag_13:\n  swap2\n  pop\n  pop\n    /* \"anli/evidence/factory.sol\":291:386  for(uint256 i =0 ;i < _signers.length; i ++) {... */\n  jump(tag_6)\ntag_7:\n  pop\n    /* \"anli/evidence/factory.sol\":242:392  constructor(address[] memory _signers) {... */\n  pop\n    /* \"anli/evidence/factory.sol\":50:1878  contract EvidenceFactory is IEvdence {... */\n  jump(tag_15)\n    /* \"#utility.yul\":24:768   */\ntag_17:\n    /* \"#utility.yul\":131:136   */\n  0x00\n    /* \"#utility.yul\":156:237   */\n  tag_19\n    /* \"#utility.yul\":172:236   */\n  tag_20\n    /* \"#utility.yul\":229:235   */\n  dup5\n    /* \"#utility.yul\":172:236   */\n  tag_21\n  jump\t// in\ntag_20:\n    /* \"#utility.yul\":156:237   */\n  tag_22\n  jump\t// in\ntag_19:\n    /* \"#utility.yul\":147:237   */\n  swap1\n  pop\n    /* \"#utility.yul\":257:262   */\n  dup1\n    /* \"#utility.yul\":286:292   */\n  dup4\n    /* \"#utility.yul\":279:284   */\n  dup3\n    /* \"#utility.yul\":272:293   */\n  mstore\n    /* \"#utility.yul\":320:324   */\n  0x20\n    /* \"#utility.yul\":313:318   */\n  dup3\n    /* \"#utility.yul\":309:325   */\n  add\n    /* \"#utility.yul\":302:325   */\n  swap1\n  pop\n    /* \"#utility.yul\":346:352   */\n  dup3\n    /* \"#utility.yul\":396:399   */\n  dup6\n    /* \"#utility.yul\":388:392   */\n  0x20\n    /* \"#utility.yul\":380:386   */\n  dup7\n    /* \"#utility.yul\":376:393   */\n  mul\n    /* \"#utility.yul\":371:374   */\n  dup3\n    /* \"#utility.yul\":367:394   */\n  add\n    /* \"#utility.yul\":364:400   */\n  gt\n    /* \"#utility.yul\":361:504   */\n  iszero\n  tag_23\n  jumpi\n    /* \"#utility.yul\":415:494   */\n  tag_24\n  tag_25\n  jump\t// in\ntag_24:\n    /* \"#utility.yul\":361:504   */\ntag_23:\n    /* \"#utility.yul\":528:529   */\n  0x00\n    /* \"#utility.yul\":513:762   */\ntag_26:\n    /* \"#utility.yul\":538:544   */\n  dup6\n    /* \"#utility.yul\":535:536   */\n  dup2\n    /* \"#utility.yul\":532:545   */\n  lt\n    /* \"#utility.yul\":513:762   */\n  iszero\n  tag_28\n  jumpi\n    /* \"#utility.yul\":606:609   */\n  dup2\n    /* \"#utility.yul\":635:683   */\n  tag_29\n    /* \"#utility.yul\":679:682   */\n  dup9\n    /* \"#utility.yul\":667:677   */\n  dup3\n    /* \"#utility.yul\":635:683   */\n  tag_30\n  jump\t// in\ntag_29:\n    /* \"#utility.yul\":630:633   */\n  dup5\n    /* \"#utility.yul\":623:684   */\n  mstore\n    /* \"#utility.yul\":713:717   */\n  0x20\n    /* \"#utility.yul\":708:711   */\n  dup5\n    /* \"#utility.yul\":704:718   */\n  add\n    /* \"#utility.yul\":697:718   */\n  swap4\n  pop\n    /* \"#utility.yul\":747:751   */\n  0x20\n    /* \"#utility.yul\":742:745   */\n  dup4\n    /* \"#utility.yul\":738:752   */\n  add\n    /* \"#utility.yul\":731:752   */\n  swap3\n  pop\n    /* \"#utility.yul\":573:762   */\n  pop\n    /* \"#utility.yul\":560:561   */\n  0x01\n    /* \"#utility.yul\":557:558   */\n  dup2\n    /* \"#utility.yul\":553:562   */\n  add\n    /* \"#utility.yul\":548:562   */\n  swap1\n  pop\n    /* \"#utility.yul\":513:762   */\n  jump(tag_26)\ntag_28:\n    /* \"#utility.yul\":517:531   */\n  pop\n    /* \"#utility.yul\":137:768   */\n  pop\n  pop\n    /* \"#utility.yul\":24:768   */\n  swap4\n  swap3\n  pop\n  pop\n  pop\n  jump\t// out\n    /* \"#utility.yul\":774:917   */\ntag_30:\n    /* \"#utility.yul\":831:836   */\n  0x00\n    /* \"#utility.yul\":862:868   */\n  dup2\n    /* \"#utility.yul\":856:869   */\n  mload\n    /* \"#utility.yul\":847:869   */\n  swap1\n  pop\n    /* \"#utility.yul\":878:911   */\n  tag_32\n    /* \"#utility.yul\":905:910   */\n  dup2\n    /* \"#utility.yul\":878:911   */\n  tag_33\n  jump\t// in\ntag_32:\n    /* \"#utility.yul\":774:917   */\n  swap3\n  swap2\n  pop\n  pop\n  jump\t// out\n    /* \"#utility.yul\":940:1325   */\ntag_34:\n    /* \"#utility.yul\":1022:1027   */\n  0x00\n    /* \"#utility.yul\":1071:1074   */\n  dup3\n    /* \"#utility.yul\":1064:1068   */\n  0x1f\n    /* \"#utility.yul\":1056:1062   */\n  dup4\n    /* \"#utility.yul\":1052:1069   */\n  add\n    /* \"#utility.yul\":1048:1075   */\n  slt\n    /* \"#utility.yul\":1038:1160   */\n  tag_36\n  jumpi\n    /* \"#utility.yul\":1079:1158   */\n  tag_37\n  tag_38\n  jump\t// in\ntag_37:\n    /* \"#utility.yul\":1038:1160   */\ntag_36:\n    /* \"#utility.yul\":1189:1195   */\n  dup2\n    /* \"#utility.yul\":1183:1196   */\n  mload\n    /* \"#utility.yul\":1214:1319   */\n  tag_39\n    /* \"#utility.yul\":1315:1318   */\n  dup5\n    /* \"#utility.yul\":1307:1313   */\n  dup3\n    /* \"#utility.yul\":1300:1304   */\n  0x20\n    /* \"#utility.yul\":1292:1298   */\n  dup7\n    /* \"#utility.yul\":1288:1305   */\n  add\n    /* \"#utility.yul\":1214:1319   */\n  tag_17\n  jump\t// in\ntag_39:\n    /* \"#utility.yul\":1205:1319   */\n  swap2\n  pop\n    /* \"#utility.yul\":1028:1325   */\n  pop\n    /* \"#utility.yul\":940:1325   */\n  swap3\n  swap2\n  pop\n  pop\n  jump\t// out\n    /* \"#utility.yul\":1331:1885   */\ntag_3:\n    /* \"#utility.yul\":1426:1432   */\n  0x00\n    /* \"#utility.yul\":1475:1477   */\n  0x20\n    /* \"#utility.yul\":1463:1472   */\n  dup3\n    /* \"#utility.yul\":1454:1461   */\n  dup5\n    /* \"#utility.yul\":1450:1473   */\n  sub\n    /* \"#utility.yul\":1446:1478   */\n  slt\n    /* \"#utility.yul\":1443:1562   */\n  iszero\n  tag_41\n  jumpi\n    /* \"#utility.yul\":1481:1560   */\n  tag_42\n  tag_43\n  jump\t// in\ntag_42:\n    /* \"#utility.yul\":1443:1562   */\ntag_41:\n    /* \"#utility.yul\":1622:1623   */\n  0x00\n    /* \"#utility.yul\":1611:1620   */\n  dup3\n    /* \"#utility.yul\":1607:1624   */\n  add\n    /* \"#utility.yul\":1601:1625   */\n  mload\n    /* \"#utility.yul\":1652:1670   */\n  0xffffffffffffffff\n    /* \"#utility.yul\":1644:1650   */\n  dup2\n    /* \"#utility.yul\":1641:1671   */\n  gt\n    /* \"#utility.yul\":1638:1755   */\n  iszero\n  tag_44\n  jumpi\n    /* \"#utility.yul\":1674:1753   */\n  tag_45\n  tag_46\n  jump\t// in\ntag_45:\n    /* \"#utility.yul\":1638:1755   */\ntag_44:\n    /* \"#utility.yul\":1779:1868   */\n  tag_47\n    /* \"#utility.yul\":1860:1867   */\n  dup5\n    /* \"#utility.yul\":1851:1857   */\n  dup3\n    /* \"#utility.yul\":1840:1849   */\n  dup6\n    /* \"#utility.yul\":1836:1858   */\n  add\n    /* \"#utility.yul\":1779:1868   */\n  tag_34\n  jump\t// in\ntag_47:\n    /* \"#utility.yul\":1769:1868   */\n  swap2\n  pop\n    /* \"#utility.yul\":1572:1878   */\n  pop\n    /* \"#utility.yul\":1331:1885   */\n  swap3\n  swap2\n  pop\n  pop\n  jump\t// out\n    /* \"#utility.yul\":1891:2020   */\ntag_22:\n    /* \"#utility.yul\":1925:1931   */\n  0x00\n    /* \"#utility.yul\":1952:1972   */\n  tag_49\n  tag_50\n  jump\t// in\ntag_49:\n    /* \"#utility.yul\":1942:1972   */\n  swap1\n  pop\n    /* \"#utility.yul\":1981:2014   */\n  tag_51\n    /* \"#utility.yul\":2009:2013   */\n  dup3\n    /* \"#utility.yul\":2001:2007   */\n  dup3\n    /* \"#utility.yul\":1981:2014   */\n  tag_52\n  jump\t// in\ntag_51:\n    /* \"#utility.yul\":1891:2020   */\n  swap2\n  swap1\n  pop\n  jump\t// out\n    /* \"#utility.yul\":2026:2101   */\ntag_50:\n    /* \"#utility.yul\":2059:2065   */\n  0x00\n    /* \"#utility.yul\":2092:2094   */\n  0x40\n    /* \"#utility.yul\":2086:2095   */\n  mload\n    /* \"#utility.yul\":2076:2095   */\n  swap1\n  pop\n    /* \"#utility.yul\":2026:2101   */\n  swap1\n  jump\t// out\n    /* \"#utility.yul\":2107:2418   */\ntag_21:\n    /* \"#utility.yul\":2184:2188   */\n  0x00\n    /* \"#utility.yul\":2274:2292   */\n  0xffffffffffffffff\n    /* \"#utility.yul\":2266:2272   */\n  dup3\n    /* \"#utility.yul\":2263:2293   */\n  gt\n    /* \"#utility.yul\":2260:2316   */\n  iszero\n  tag_55\n  jumpi\n    /* \"#utility.yul\":2296:2314   */\n  tag_56\n  tag_57\n  jump\t// in\ntag_56:\n    /* \"#utility.yul\":2260:2316   */\ntag_55:\n    /* \"#utility.yul\":2346:2350   */\n  0x20\n    /* \"#utility.yul\":2338:2344   */\n  dup3\n    /* \"#utility.yul\":2334:2351   */\n  mul\n    /* \"#utility.yul\":2326:2351   */\n  swap1\n  pop\n    /* \"#utility.yul\":2406:2410   */\n  0x20\n    /* \"#utility.yul\":2400:2404   */\n  dup2\n    /* \"#utility.yul\":2396:2411   */\n  add\n    /* \"#utility.yul\":2388:2411   */\n  swap1\n  pop\n    /* \"#utility.yul\":2107:2418   */\n  swap2\n  swap1\n  pop\n  jump\t// out\n    /* \"#utility.yul\":2424:2520   */\ntag_58:\n    /* \"#utility.yul\":2461:2468   */\n  0x00\n    /* \"#utility.yul\":2490:2514   */\n  tag_60\n    /* \"#utility.yul\":2508:2513   */\n  dup3\n    /* \"#utility.yul\":2490:2514   */\n  tag_61\n  jump\t// in\ntag_60:\n    /* \"#utility.yul\":2479:2514   */\n  swap1\n  pop\n    /* \"#utility.yul\":2424:2520   */\n  swap2\n  swap1\n  pop\n  jump\t// out\n    /* \"#utility.yul\":2526:2652   */\ntag_61:\n    /* \"#utility.yul\":2563:2570   */\n  0x00\n    /* \"#utility.yul\":2603:2645   */\n  0xffffffffffffffffffffffffffffffffffffffff\n    /* \"#utility.yul\":2596:2601   */\n  dup3\n    /* \"#utility.yul\":2592:2646   */\n  and\n    /* \"#utility.yul\":2581:2646   */\n  swap1\n  pop\n    /* \"#utility.yul\":2526:2652   */\n  swap2\n  swap1\n  pop\n  jump\t// out\n    /* \"#utility.yul\":2658:2735   */\ntag_63:\n    /* \"#utility.yul\":2695:2702   */\n  0x00\n    /* \"#utility.yul\":2724:2729   */\n  dup2\n    /* \"#utility.yul\":2713:2729   */\n  swap1\n  pop\n    /* \"#utility.yul\":2658:2735   */\n  swap2\n  swap1\n  pop\n  jump\t// out\n    /* \"#utility.yul\":2741:3022   */\ntag_52:\n    /* \"#utility.yul\":2824:2851   */\n  tag_66\n    /* \"#utility.yul\":2846:2850   */\n  dup3\n    /* \"#utility.yul\":2824:2851   */\n  tag_67\n  jump\t// in\ntag_66:\n    /* \"#utility.yul\":2816:2822   */\n  dup2\n    /* \"#utility.yul\":2812:2852   */\n  add\n    /* \"#utility.yul\":2954:2960   */\n  dup2\n    /* \"#utility.yul\":2942:2952   */\n  dup2\n    /* \"#utility.yul\":2939:2961   */\n  lt\n    /* \"#utility.yul\":2918:2936   */\n  0xffffffffffffffff\n    /* \"#utility.yul\":2906:2916   */\n  dup3\n    /* \"#utility.yul\":2903:2937   */\n  gt\n    /* \"#utility.yul\":2900:2962   */\n  or\n    /* \"#utility.yul\":2897:2985   */\n  iszero\n  tag_68\n  jumpi\n    /* \"#utility.yul\":2965:2983   */\n  tag_69\n  tag_57\n  jump\t// in\ntag_69:\n    /* \"#utility.yul\":2897:2985   */\ntag_68:\n    /* \"#utility.yul\":3005:3015   */\n  dup1\n    /* \"#utility.yul\":3001:3003   */\n  0x40\n    /* \"#utility.yul\":2994:3016   */\n  mstore\n    /* \"#utility.yul\":2784:3022   */\n  pop\n    /* \"#utility.yul\":2741:3022   */\n  pop\n  pop\n  jump\t// out\n    /* \"#utility.yul\":3028:3261   */\ntag_14:\n    /* \"#utility.yul\":3067:3070   */\n  0x00\n    /* \"#utility.yul\":3090:3114   */\n  tag_71\n    /* \"#utility.yul\":3108:3113   */\n  dup3\n    /* \"#utility.yul\":3090:3114   */\n  tag_63\n  jump\t// in\ntag_71:\n    /* \"#utility.yul\":3081:3114   */\n  swap2\n  pop\n    /* \"#utility.yul\":3136:3202   */\n  0xffffffffffffffffffffffffffffffffffffffffffffffffffffffffffffffff\n    /* \"#utility.yul\":3129:3134   */\n  dup3\n    /* \"#utility.yul\":3126:3203   */\n  eq\n    /* \"#utility.yul\":3123:3226   */\n  iszero\n  tag_72\n  jumpi\n    /* \"#utility.yul\":3206:3224   */\n  tag_73\n  tag_74\n  jump\t// in\ntag_73:\n    /* \"#utility.yul\":3123:3226   */\ntag_72:\n    /* \"#utility.yul\":3253:3254   */\n  0x01\n    /* \"#utility.yul\":3246:3251   */\n  dup3\n    /* \"#utility.yul\":3242:3255   */\n  add\n    /* \"#utility.yul\":3235:3255   */\n  swap1\n  pop\n    /* \"#utility.yul\":3028:3261   */\n  swap2\n  swap1\n  pop\n  jump\t// out\n    /* \"#utility.yul\":3267:3447   */\ntag_74:\n    /* \"#utility.yul\":3315:3392   */\n  0x4e487b7100000000000000000000000000000000000000000000000000000000\n    /* \"#utility.yul\":3312:3313   */\n  0x00\n    /* \"#utility.yul\":3305:3393   */\n  mstore\n    /* \"#utility.yul\":3412:3416   */\n  0x11\n    /* \"#utility.yul\":3409:3410   */\n  0x04\n    /* \"#utility.yul\":3402:3417   */\n  mstore\n    /* \"#utility.yul\":3436:3440   */\n  0x24\n    /* \"#utility.yul\":3433:3434   */\n  0x00\n    /* \"#utility.yul\":3426:3441   */\n  revert\n    /* \"#utility.yul\":3453:3633   */\ntag_11:\n    /* \"#utility.yul\":3501:3578   */\n  0x4e487b7100000000000000000000000000000000000000000000000000000000\n    /* \"#utility.yul\":3498:3499   */\n  0x00\n    /* \"#utility.yul\":3491:3579   */\n  mstore\n    /* \"#utility.yul\":3598:3602   */\n  0x32\n    /* \"#utility.yul\":3595:3596   */\n  0x04\n    /* \"#utility.yul\":3588:3603   */\n  mstore\n    /* \"#utility.yul\":3622:3626   */\n  0x24\n    /* \"#utility.yul\":3619:3620   */\n  0x00\n    /* \"#utility.yul\":3612:3627   */\n  revert\n    /* \"#utility.yul\":3639:3819   */\ntag_57:\n    /* \"#utility.yul\":3687:3764   */\n  0x4e487b7100000000000000000000000000000000000000000000000000000000\n    /* \"#utility.yul\":3684:3685   */\n  0x00\n    /* \"#utility.yul\":3677:3765   */\n  mstore\n    /* \"#utility.yul\":3784:3788   */\n  0x41\n    /* \"#utility.yul\":3781:3782   */\n  0x04\n    /* \"#utility.yul\":3774:3789   */\n  mstore\n    /* \"#utility.yul\":3808:3812   */\n  0x24\n    /* \"#utility.yul\":3805:3806   */\n  0x00\n    /* \"#utility.yul\":3798:3813   */\n  revert\n    /* \"#utility.yul\":3825:3942   */\ntag_38:\n    /* \"#utility.yul\":3934:3935   */\n  0x00\n    /* \"#utility.yul\":3931:3932   */\n  dup1\n    /* \"#utility.yul\":3924:3936   */\n  revert\n    /* \"#utility.yul\":3948:4065   */\ntag_25:\n    /* \"#utility.yul\":4057:4058   */\n  0x00\n    /* \"#utility.yul\":4054:4055   */\n  dup1\n    /* \"#utility.yul\":4047:4059   */\n  revert\n    /* \"#utility.yul\":4071:4188   */\ntag_46:\n    /* \"#utility.yul\":4180:4181   */\n  0x00\n    /* \"#utility.yul\":4177:4178   */\n  dup1\n    /* \"#utility.yul\":4170:4182   */\n  revert\n    /* \"#utility.yul\":4194:4311   */\ntag_43:\n    /* \"#utility.yul\":4303:4304   */\n  0x00\n    /* \"#utility.yul\":4300:4301   */\n  dup1\n    /* \"#utility.yul\":4293:4305   */\n  revert\n    /* \"#utility.yul\":4317:4419   */\ntag_67:\n    /* \"#utility.yul\":4358:4364   */\n  0x00\n    /* \"#utility.yul\":4409:4411   */\n  0x1f\n    /* \"#utility.yul\":4405:4412   */\n  not\n    /* \"#utility.yul\":4400:4402   */\n  0x1f\n    /* \"#utility.yul\":4393:4398   */\n  dup4\n    /* \"#utility.yul\":4389:4403   */\n  add\n    /* \"#utility.yul\":4385:4413   */\n  and\n    /* \"#utility.yul\":4375:4413   */\n  swap1\n  pop\n    /* \"#utility.yul\":4317:4419   */\n  swap2\n  swap1\n  pop\n  jump\t// out\n    /* \"#utility.yul\":4425:4547   */\ntag_33:\n    /* \"#utility.yul\":4498:4522   */\n  tag_84\n    /* \"#utility.yul\":4516:4521   */\n  dup2\n    /* \"#utility.yul\":4498:4522   */\n  tag_58\n  jump\t// in\ntag_84:\n    /* \"#utility.yul\":4491:4496   */\n  dup2\n    /* \"#utility.yul\":4488:4523   */\n  eq\n    /* \"#utility.yul\":4478:4541   */\n  tag_85\n  jumpi\n    /* \"#utility.yul\":4537:4538   */\n  0x00\n    /* \"#utility.yul\":4534:4535   */\n  dup1\n    /* \"#utility.yul\":4527:4539   */\n  revert\n    /* \"#utility.yul\":4478:4541   */\ntag_85:\n    /* \"#utility.yul\":4425:4547   */\n  pop\n  jump\t// out\n    /* \"anli/evidence/factory.sol\":50:1878  contract EvidenceFactory is IEvdence {... */\ntag_15:\n  dataSize(sub_0)\n  dup1\n  dataOffset(sub_0)\n  0x00\n  codecopy\n  0x00\n  return\nstop\n\nsub_0: assembly {\n        /* \"anli/evidence/factory.sol\":50:1878  contract EvidenceFactory is IEvdence {... */\n      mstore(0x40, 0x80)\n      callvalue\n      dup1\n      iszero\n      tag_1\n      jumpi\n      0x00\n      dup1\n      revert\n    tag_1:\n      pop\n      jumpi(tag_2, lt(calldatasize, 0x04))\n      shr(0xe0, calldataload(0x00))\n      dup1\n      0x63a9c3d7\n      gt\n      tag_10\n      jumpi\n      dup1\n      0x63a9c3d7\n      eq\n      tag_6\n      jumpi\n      dup1\n      0x79d6348d\n      eq\n      tag_7\n      jumpi\n      dup1\n      0xb16c6ee7\n      eq\n      tag_8\n      jumpi\n      dup1\n      0xfa69efbd\n      eq\n      tag_9\n      jumpi\n      jump(tag_2)\n    tag_10:\n      dup1\n      0x0ba3b728\n      eq\n      tag_3\n      jumpi\n      dup1\n      0x3ffefe4e\n      eq\n      tag_4\n      jumpi\n      dup1\n      0x5efabfb8\n      eq\n      tag_5\n      jumpi\n    tag_2:\n      0x00\n      dup1\n      revert\n        /* \"anli/evidence/factory.sol\":1697:1871  function isAllSigned(string memory _key) public view returns (bool, string memory) {... */\n    tag_3:\n      tag_11\n      0x04\n      dup1\n      calldatasize\n      sub\n      dup2\n      add\n      swap1\n      tag_12\n      swap2\n      swap1\n      tag_13\n      jump\t// in\n    tag_12:\n      tag_14\n      jump\t// in\n    tag_11:\n      mload(0x40)\n      tag_15\n      swap3\n      swap2\n      swap1\n      tag_16\n      jump\t// in\n    tag_15:\n      mload(0x40)\n      dup1\n      swap2\n      sub\n      swap1\n      return\n        /* \"anli/evidence/factory.sol\":665:879  function getSigner(uint256 _index) override external view returns(address) {... */\n    tag_4:\n      tag_17\n      0x04\n      dup1\n      calldatasize\n      sub\n      dup2\n      add\n      swap1\n      tag_18\n      swap2\n      swap1\n      tag_19\n      jump\t// in\n    tag_18:\n      tag_20\n      jump\t// in\n    tag_17:\n      mload(0x40)\n      tag_21\n      swap2\n      swap1\n      tag_22\n      jump\t// in\n    tag_21:\n      mload(0x40)\n      dup1\n      swap2\n      sub\n      swap1\n      return\n        /* \"anli/evidence/factory.sol\":999:1323  function newEvidence(string memory _evi, string memory _key) public returns (address) {... */\n    tag_5:\n      tag_23\n      0x04\n      dup1\n      calldatasize\n      sub\n      dup2\n      add\n      swap1\n      tag_24\n      swap2\n      swap1\n      tag_25\n      jump\t// in\n    tag_24:\n      tag_26\n      jump\t// in\n    tag_23:\n      mload(0x40)\n      tag_27\n      swap2\n      swap1\n      tag_22\n      jump\t// in\n    tag_27:\n      mload(0x40)\n      dup1\n      swap2\n      sub\n      swap1\n      return\n        /* \"anli/evidence/factory.sol\":402:660  function verify(address _signer) override external view returns (bool) {... */\n    tag_6:\n      tag_28\n      0x04\n      dup1\n      calldatasize\n      sub\n      dup2\n      add\n      swap1\n      tag_29\n      swap2\n      swap1\n      tag_30\n      jump\t// in\n    tag_29:\n      tag_31\n      jump\t// in\n    tag_28:\n      mload(0x40)\n      tag_32\n      swap2\n      swap1\n      tag_33\n      jump\t// in\n    tag_32:\n      mload(0x40)\n      dup1\n      swap2\n      sub\n      swap1\n      return\n        /* \"anli/evidence/factory.sol\":1547:1687  function sign(string memory _key) public returns (bool) {... */\n    tag_7:\n      tag_34\n      0x04\n      dup1\n      calldatasize\n      sub\n      dup2\n      add\n      swap1\n      tag_35\n      swap2\n      swap1\n      tag_13\n      jump\t// in\n    tag_35:\n      tag_36\n      jump\t// in\n    tag_34:\n      mload(0x40)\n      tag_37\n      swap2\n      swap1\n      tag_33\n      jump\t// in\n    tag_37:\n      mload(0x40)\n      dup1\n      swap2\n      sub\n      swap1\n      return\n        /* \"anli/evidence/factory.sol\":1333:1537  function getEvidence(string memory _key) public view returns (string memory, address[] memory, address[] memory) {... */\n    tag_8:\n      tag_38\n      0x04\n      dup1\n      calldatasize\n      sub\n      dup2\n      add\n      swap1\n      tag_39\n      swap2\n      swap1\n      tag_13\n      jump\t// in\n    tag_39:\n      tag_40\n      jump\t// in\n    tag_38:\n      mload(0x40)\n      tag_41\n      swap4\n      swap3\n      swap2\n      swap1\n      tag_42\n      jump\t// in\n    tag_41:\n      mload(0x40)\n      dup1\n      swap2\n      sub\n      swap1\n      return\n        /* \"anli/evidence/factory.sol\":884:989  function getSignersSize() override external view returns (uint256) {... */\n    tag_9:\n      tag_43\n      tag_44\n      jump\t// in\n    tag_43:\n      mload(0x40)\n      tag_45\n      swap2\n      swap1\n      tag_46\n      jump\t// in\n    tag_45:\n      mload(0x40)\n      dup1\n      swap2\n      sub\n      swap1\n      return\n        /* \"anli/evidence/factory.sol\":1697:1871  function isAllSigned(string memory _key) public view returns (bool, string memory) {... */\n    tag_14:\n        /* \"anli/evidence/factory.sol\":1759:1763  bool */\n      0x00\n        /* \"anli/evidence/factory.sol\":1765:1778  string memory */\n      0x60\n        /* \"anli/evidence/factory.sol\":1790:1802  address addr */\n      0x00\n        /* \"anli/evidence/factory.sol\":1805:1813  evi_keys */\n      0x01\n        /* \"anli/evidence/factory.sol\":1814:1818  _key */\n      dup5\n        /* \"anli/evidence/factory.sol\":1805:1819  evi_keys[_key] */\n      mload(0x40)\n      tag_48\n      swap2\n      swap1\n      tag_49\n      jump\t// in\n    tag_48:\n      swap1\n      dup2\n      mstore\n      0x20\n      add\n      mload(0x40)\n      dup1\n      swap2\n      sub\n      swap1\n      keccak256\n      0x00\n      swap1\n      sload\n      swap1\n      0x0100\n      exp\n      swap1\n      div\n      0xffffffffffffffffffffffffffffffffffffffff\n      and\n        /* \"anli/evidence/factory.sol\":1790:1819  address addr = evi_keys[_key] */\n      swap1\n      pop\n        /* \"anli/evidence/factory.sol\":1845:1849  addr */\n      dup1\n        /* \"anli/evidence/factory.sol\":1836:1862  Evidence(addr).isAllSigned */\n      0xffffffffffffffffffffffffffffffffffffffff\n      and\n      0x3c68af3e\n        /* \"anli/evidence/factory.sol\":1836:1864  Evidence(addr).isAllSigned() */\n      mload(0x40)\n      dup2\n      0xffffffff\n      and\n      0xe0\n      shl\n      dup2\n      mstore\n      0x04\n      add\n      0x00\n      mload(0x40)\n      dup1\n      dup4\n      sub\n      dup2\n      dup7\n      dup1\n      extcodesize\n      iszero\n      dup1\n      iszero\n      tag_50\n      jumpi\n      0x00\n      dup1\n      revert\n    tag_50:\n      pop\n      gas\n      staticcall\n      iszero\n      dup1\n      iszero\n      tag_52\n      jumpi\n      returndatasize\n      0x00\n      dup1\n      returndatacopy\n      revert(0x00, returndatasize)\n    tag_52:\n      pop\n      pop\n      pop\n      pop\n      mload(0x40)\n      returndatasize\n      0x00\n      dup3\n      returndatacopy\n      returndatasize\n      not(0x1f)\n      0x1f\n      dup3\n      add\n      and\n      dup3\n      add\n      dup1\n      0x40\n      mstore\n      pop\n      dup2\n      add\n      swap1\n      tag_53\n      swap2\n      swap1\n      tag_54\n      jump\t// in\n    tag_53:\n        /* \"anli/evidence/factory.sol\":1829:1864  return Evidence(addr).isAllSigned() */\n      swap3\n      pop\n      swap3\n      pop\n      pop\n        /* \"anli/evidence/factory.sol\":1697:1871  function isAllSigned(string memory _key) public view returns (bool, string memory) {... */\n      swap2\n      pop\n      swap2\n      jump\t// out\n        /* \"anli/evidence/factory.sol\":665:879  function getSigner(uint256 _index) override external view returns(address) {... */\n    tag_20:\n        /* \"anli/evidence/factory.sol\":731:738  address */\n      0x00\n        /* \"anli/evidence/factory.sol\":762:769  signers */\n      dup1\n        /* \"anli/evidence/factory.sol\":762:776  signers.length */\n      dup1\n      sload\n      swap1\n      pop\n        /* \"anli/evidence/factory.sol\":753:759  _index */\n      dup3\n        /* \"anli/evidence/factory.sol\":753:776  _index < signers.length */\n      lt\n        /* \"anli/evidence/factory.sol\":750:873  if(_index < signers.length) {... */\n      iszero\n      tag_56\n      jumpi\n        /* \"anli/evidence/factory.sol\":799:806  signers */\n      0x00\n        /* \"anli/evidence/factory.sol\":807:813  _index */\n      dup3\n        /* \"anli/evidence/factory.sol\":799:814  signers[_index] */\n      dup2\n      sload\n      dup2\n      lt\n      tag_57\n      jumpi\n      tag_58\n      tag_59\n      jump\t// in\n    tag_58:\n    tag_57:\n      swap1\n      0x00\n      mstore\n      keccak256(0x00, 0x20)\n      add\n      0x00\n      swap1\n      sload\n      swap1\n      0x0100\n      exp\n      swap1\n      div\n      0xffffffffffffffffffffffffffffffffffffffff\n      and\n        /* \"anli/evidence/factory.sol\":792:814  return signers[_index] */\n      swap1\n      pop\n      jump(tag_55)\n        /* \"anli/evidence/factory.sol\":750:873  if(_index < signers.length) {... */\n    tag_56:\n        /* \"anli/evidence/factory.sol\":860:861  0 */\n      0x00\n        /* \"anli/evidence/factory.sol\":845:862  return address(0) */\n      swap1\n      pop\n        /* \"anli/evidence/factory.sol\":665:879  function getSigner(uint256 _index) override external view returns(address) {... */\n    tag_55:\n      swap2\n      swap1\n      pop\n      jump\t// out\n        /* \"anli/evidence/factory.sol\":999:1323  function newEvidence(string memory _evi, string memory _key) public returns (address) {... */\n    tag_26:\n        /* \"anli/evidence/factory.sol\":1076:1083  address */\n      0x00\n        /* \"anli/evidence/factory.sol\":1095:1112  Evidence evidence */\n      dup1\n        /* \"anli/evidence/factory.sol\":1128:1132  _evi */\n      dup4\n        /* \"anli/evidence/factory.sol\":1142:1146  this */\n      address\n        /* \"anli/evidence/factory.sol\":1115:1148  new Evidence(_evi, address(this)) */\n      mload(0x40)\n      tag_63\n      swap1\n      tag_64\n      jump\t// in\n    tag_63:\n      tag_65\n      swap3\n      swap2\n      swap1\n      tag_66\n      jump\t// in\n    tag_65:\n      mload(0x40)\n      dup1\n      swap2\n      sub\n      swap1\n      0x00\n      create\n      dup1\n      iszero\n      dup1\n      iszero\n      tag_67\n      jumpi\n      returndatasize\n      0x00\n      dup1\n      returndatacopy\n      revert(0x00, returndatasize)\n    tag_67:\n      pop\n        /* \"anli/evidence/factory.sol\":1095:1148  Evidence evidence = new Evidence(_evi, address(this)) */\n      swap1\n      pop\n        /* \"anli/evidence/factory.sol\":1192:1200  evidence */\n      dup1\n        /* \"anli/evidence/factory.sol\":1167:1175  evi_keys */\n      0x01\n        /* \"anli/evidence/factory.sol\":1176:1180  _key */\n      dup5\n        /* \"anli/evidence/factory.sol\":1167:1181  evi_keys[_key] */\n      mload(0x40)\n      tag_68\n      swap2\n      swap1\n      tag_49\n      jump\t// in\n    tag_68:\n      swap1\n      dup2\n      mstore\n      0x20\n      add\n      mload(0x40)\n      dup1\n      swap2\n      sub\n      swap1\n      keccak256\n      0x00\n        /* \"anli/evidence/factory.sol\":1167:1201  evi_keys[_key] = address(evidence) */\n      0x0100\n      exp\n      dup2\n      sload\n      dup2\n      0xffffffffffffffffffffffffffffffffffffffff\n      mul\n      not\n      and\n      swap1\n      dup4\n      0xffffffffffffffffffffffffffffffffffffffff\n      and\n      mul\n      or\n      swap1\n      sstore\n      pop\n        /* \"anli/evidence/factory.sol\":1225:1273  NewEvidence(_evi, msg.sender, address(evidence)) */\n      0x54d01f8b44d2bd89acf3407c61452d8d0bb80b60810e6959285c5a944038a676\n        /* \"anli/evidence/factory.sol\":1237:1241  _evi */\n      dup5\n        /* \"anli/evidence/factory.sol\":1243:1253  msg.sender */\n      caller\n        /* \"anli/evidence/factory.sol\":1263:1271  evidence */\n      dup4\n        /* \"anli/evidence/factory.sol\":1225:1273  NewEvidence(_evi, msg.sender, address(evidence)) */\n      mload(0x40)\n      tag_69\n      swap4\n      swap3\n      swap2\n      swap1\n      tag_70\n      jump\t// in\n    tag_69:\n      mload(0x40)\n      dup1\n      swap2\n      sub\n      swap1\n      log1\n        /* \"anli/evidence/factory.sol\":1307:1315  evidence */\n      dup1\n        /* \"anli/evidence/factory.sol\":1292:1316  return address(evidence) */\n      swap2\n      pop\n      pop\n        /* \"anli/evidence/factory.sol\":999:1323  function newEvidence(string memory _evi, string memory _key) public returns (address) {... */\n      swap3\n      swap2\n      pop\n      pop\n      jump\t// out\n        /* \"anli/evidence/factory.sol\":402:660  function verify(address _signer) override external view returns (bool) {... */\n    tag_31:\n        /* \"anli/evidence/factory.sol\":467:471  bool */\n      0x00\n        /* \"anli/evidence/factory.sol\":487:496  uint256 i */\n      dup1\n        /* \"anli/evidence/factory.sol\":499:500  0 */\n      0x00\n        /* \"anli/evidence/factory.sol\":487:500  uint256 i = 0 */\n      swap1\n      pop\n        /* \"anli/evidence/factory.sol\":483:623  for(uint256 i = 0; i < signers.length; i ++) {... */\n    tag_72:\n        /* \"anli/evidence/factory.sol\":506:513  signers */\n      0x00\n        /* \"anli/evidence/factory.sol\":506:520  signers.length */\n      dup1\n      sload\n      swap1\n      pop\n        /* \"anli/evidence/factory.sol\":502:503  i */\n      dup2\n        /* \"anli/evidence/factory.sol\":502:520  i < signers.length */\n      lt\n        /* \"anli/evidence/factory.sol\":483:623  for(uint256 i = 0; i < signers.length; i ++) {... */\n      iszero\n      tag_73\n      jumpi\n        /* \"anli/evidence/factory.sol\":560:567  _signer */\n      dup3\n        /* \"anli/evidence/factory.sol\":546:567  signers[i] == _signer */\n      0xffffffffffffffffffffffffffffffffffffffff\n      and\n        /* \"anli/evidence/factory.sol\":546:553  signers */\n      0x00\n        /* \"anli/evidence/factory.sol\":554:555  i */\n      dup3\n        /* \"anli/evidence/factory.sol\":546:556  signers[i] */\n      dup2\n      sload\n      dup2\n      lt\n      tag_75\n      jumpi\n      tag_76\n      tag_59\n      jump\t// in\n    tag_76:\n    tag_75:\n      swap1\n      0x00\n      mstore\n      keccak256(0x00, 0x20)\n      add\n      0x00\n      swap1\n      sload\n      swap1\n      0x0100\n      exp\n      swap1\n      div\n      0xffffffffffffffffffffffffffffffffffffffff\n      and\n        /* \"anli/evidence/factory.sol\":546:567  signers[i] == _signer */\n      0xffffffffffffffffffffffffffffffffffffffff\n      and\n      eq\n        /* \"anli/evidence/factory.sol\":542:613  if (signers[i] == _signer) {... */\n      iszero\n      tag_78\n      jumpi\n        /* \"anli/evidence/factory.sol\":594:598  true */\n      0x01\n        /* \"anli/evidence/factory.sol\":587:598  return true */\n      swap2\n      pop\n      pop\n      jump(tag_71)\n        /* \"anli/evidence/factory.sol\":542:613  if (signers[i] == _signer) {... */\n    tag_78:\n        /* \"anli/evidence/factory.sol\":522:526  i ++ */\n      dup1\n      dup1\n      tag_79\n      swap1\n      tag_80\n      jump\t// in\n    tag_79:\n      swap2\n      pop\n      pop\n        /* \"anli/evidence/factory.sol\":483:623  for(uint256 i = 0; i < signers.length; i ++) {... */\n      jump(tag_72)\n    tag_73:\n      pop\n        /* \"anli/evidence/factory.sol\":648:653  false */\n      0x00\n        /* \"anli/evidence/factory.sol\":641:653  return false */\n      swap1\n      pop\n        /* \"anli/evidence/factory.sol\":402:660  function verify(address _signer) override external view returns (bool) {... */\n    tag_71:\n      swap2\n      swap1\n      pop\n      jump\t// out\n        /* \"anli/evidence/factory.sol\":1547:1687  function sign(string memory _key) public returns (bool) {... */\n    tag_36:\n        /* \"anli/evidence/factory.sol\":1597:1601  bool */\n      0x00\n        /* \"anli/evidence/factory.sol\":1613:1625  address addr */\n      dup1\n        /* \"anli/evidence/factory.sol\":1628:1636  evi_keys */\n      0x01\n        /* \"anli/evidence/factory.sol\":1637:1641  _key */\n      dup4\n        /* \"anli/evidence/factory.sol\":1628:1642  evi_keys[_key] */\n      mload(0x40)\n      tag_82\n      swap2\n      swap1\n      tag_49\n      jump\t// in\n    tag_82:\n      swap1\n      dup2\n      mstore\n      0x20\n      add\n      mload(0x40)\n      dup1\n      swap2\n      sub\n      swap1\n      keccak256\n      0x00\n      swap1\n      sload\n      swap1\n      0x0100\n      exp\n      swap1\n      div\n      0xffffffffffffffffffffffffffffffffffffffff\n      and\n        /* \"anli/evidence/factory.sol\":1613:1642  address addr = evi_keys[_key] */\n      swap1\n      pop\n        /* \"anli/evidence/factory.sol\":1668:1672  addr */\n      dup1\n        /* \"anli/evidence/factory.sol\":1659:1678  Evidence(addr).sign */\n      0xffffffffffffffffffffffffffffffffffffffff\n      and\n      0x2ca15122\n        /* \"anli/evidence/factory.sol\":1659:1680  Evidence(addr).sign() */\n      mload(0x40)\n      dup2\n      0xffffffff\n      and\n      0xe0\n      shl\n      dup2\n      mstore\n      0x04\n      add\n      0x20\n      mload(0x40)\n      dup1\n      dup4\n      sub\n      dup2\n      0x00\n      dup8\n      dup1\n      extcodesize\n      iszero\n      dup1\n      iszero\n      tag_83\n      jumpi\n      0x00\n      dup1\n      revert\n    tag_83:\n      pop\n      gas\n      call\n      iszero\n      dup1\n      iszero\n      tag_85\n      jumpi\n      returndatasize\n      0x00\n      dup1\n      returndatacopy\n      revert(0x00, returndatasize)\n    tag_85:\n      pop\n      pop\n      pop\n      pop\n      mload(0x40)\n      returndatasize\n      not(0x1f)\n      0x1f\n      dup3\n      add\n      and\n      dup3\n      add\n      dup1\n      0x40\n      mstore\n      pop\n      dup2\n      add\n      swap1\n      tag_86\n      swap2\n      swap1\n      tag_87\n      jump\t// in\n    tag_86:\n        /* \"anli/evidence/factory.sol\":1652:1680  return Evidence(addr).sign() */\n      swap2\n      pop\n      pop\n        /* \"anli/evidence/factory.sol\":1547:1687  function sign(string memory _key) public returns (bool) {... */\n      swap2\n      swap1\n      pop\n      jump\t// out\n        /* \"anli/evidence/factory.sol\":1333:1537  function getEvidence(string memory _key) public view returns (string memory, address[] memory, address[] memory) {... */\n    tag_40:\n        /* \"anli/evidence/factory.sol\":1395:1408  string memory */\n      0x60\n        /* \"anli/evidence/factory.sol\":1410:1426  address[] memory */\n      dup1\n        /* \"anli/evidence/factory.sol\":1428:1444  address[] memory */\n      0x60\n        /* \"anli/evidence/factory.sol\":1456:1468  address addr */\n      0x00\n        /* \"anli/evidence/factory.sol\":1471:1479  evi_keys */\n      0x01\n        /* \"anli/evidence/factory.sol\":1480:1484  _key */\n      dup6\n        /* \"anli/evidence/factory.sol\":1471:1485  evi_keys[_key] */\n      mload(0x40)\n      tag_89\n      swap2\n      swap1\n      tag_49\n      jump\t// in\n    tag_89:\n      swap1\n      dup2\n      mstore\n      0x20\n      add\n      mload(0x40)\n      dup1\n      swap2\n      sub\n      swap1\n      keccak256\n      0x00\n      swap1\n      sload\n      swap1\n      0x0100\n      exp\n      swap1\n      div\n      0xffffffffffffffffffffffffffffffffffffffff\n      and\n        /* \"anli/evidence/factory.sol\":1456:1485  address addr = evi_keys[_key] */\n      swap1\n      pop\n        /* \"anli/evidence/factory.sol\":1511:1515  addr */\n      dup1\n        /* \"anli/evidence/factory.sol\":1502:1528  Evidence(addr).getEvidence */\n      0xffffffffffffffffffffffffffffffffffffffff\n      and\n      0x596f21f8\n        /* \"anli/evidence/factory.sol\":1502:1530  Evidence(addr).getEvidence() */\n      mload(0x40)\n      dup2\n      0xffffffff\n      and\n      0xe0\n      shl\n      dup2\n      mstore\n      0x04\n      add\n      0x00\n      mload(0x40)\n      dup1\n      dup4\n      sub\n      dup2\n      dup7\n      dup1\n      extcodesize\n      iszero\n      dup1\n      iszero\n      tag_90\n      jumpi\n      0x00\n      dup1\n      revert\n    tag_90:\n      pop\n      gas\n      staticcall\n      iszero\n      dup1\n      iszero\n      tag_92\n      jumpi\n      returndatasize\n      0x00\n      dup1\n      returndatacopy\n      revert(0x00, returndatasize)\n    tag_92:\n      pop\n      pop\n      pop\n      pop\n      mload(0x40)\n      returndatasize\n      0x00\n      dup3\n      returndatacopy\n      returndatasize\n      not(0x1f)\n      0x1f\n      dup3\n      add\n      and\n      dup3\n      add\n      dup1\n      0x40\n      mstore\n      pop\n      dup2\n      add\n      swap1\n      tag_93\n      swap2\n      swap1\n      tag_94\n      jump\t// in\n    tag_93:\n        /* \"anli/evidence/factory.sol\":1495:1530  return Evidence(addr).getEvidence() */\n      swap4\n      pop\n      swap4\n      pop\n      swap4\n      pop\n      pop\n        /* \"anli/evidence/factory.sol\":1333:1537  function getEvidence(string memory _key) public view returns (string memory, address[] memory, address[] memory) {... */\n      swap2\n      swap4\n      swap1\n      swap3\n      pop\n      jump\t// out\n        /* \"anli/evidence/factory.sol\":884:989  function getSignersSize() override external view returns (uint256) {... */\n    tag_44:\n        /* \"anli/evidence/factory.sol\":942:949  uint256 */\n      0x00\n        /* \"anli/evidence/factory.sol\":968:975  signers */\n      dup1\n        /* \"anli/evidence/factory.sol\":968:982  signers.length */\n      dup1\n      sload\n      swap1\n      pop\n        /* \"anli/evidence/factory.sol\":961:982  return signers.length */\n      swap1\n      pop\n        /* \"anli/evidence/factory.sol\":884:989  function getSignersSize() override external view returns (uint256) {... */\n      swap1\n      jump\t// out\n    tag_64:\n      dataSize(sub_0)\n      dup1\n      dataOffset(sub_0)\n      dup4\n      codecopy\n      add\n      swap1\n      jump\t// out\n        /* \"#utility.yul\":24:768   */\n    tag_97:\n        /* \"#utility.yul\":131:136   */\n      0x00\n        /* \"#utility.yul\":156:237   */\n      tag_99\n        /* \"#utility.yul\":172:236   */\n      tag_100\n        /* \"#utility.yul\":229:235   */\n      dup5\n        /* \"#utility.yul\":172:236   */\n      tag_101\n      jump\t// in\n    tag_100:\n        /* \"#utility.yul\":156:237   */\n      tag_102\n      jump\t// in\n    tag_99:\n        /* \"#utility.yul\":147:237   */\n      swap1\n      pop\n        /* \"#utility.yul\":257:262   */\n      dup1\n        /* \"#utility.yul\":286:292   */\n      dup4\n        /* \"#utility.yul\":279:284   */\n      dup3\n        /* \"#utility.yul\":272:293   */\n      mstore\n        /* \"#utility.yul\":320:324   */\n      0x20\n        /* \"#utility.yul\":313:318   */\n      dup3\n        /* \"#utility.yul\":309:325   */\n      add\n        /* \"#utility.yul\":302:325   */\n      swap1\n      pop\n        /* \"#utility.yul\":346:352   */\n      dup3\n        /* \"#utility.yul\":396:399   */\n      dup6\n        /* \"#utility.yul\":388:392   */\n      0x20\n        /* \"#utility.yul\":380:386   */\n      dup7\n        /* \"#utility.yul\":376:393   */\n      mul\n        /* \"#utility.yul\":371:374   */\n      dup3\n        /* \"#utility.yul\":367:394   */\n      add\n        /* \"#utility.yul\":364:400   */\n      gt\n        /* \"#utility.yul\":361:504   */\n      iszero\n      tag_103\n      jumpi\n        /* \"#utility.yul\":415:494   */\n      tag_104\n      tag_105\n      jump\t// in\n    tag_104:\n        /* \"#utility.yul\":361:504   */\n    tag_103:\n        /* \"#utility.yul\":528:529   */\n      0x00\n        /* \"#utility.yul\":513:762   */\n    tag_106:\n        /* \"#utility.yul\":538:544   */\n      dup6\n        /* \"#utility.yul\":535:536   */\n      dup2\n        /* \"#utility.yul\":532:545   */\n      lt\n        /* \"#utility.yul\":513:762   */\n      iszero\n      tag_108\n      jumpi\n        /* \"#utility.yul\":606:609   */\n      dup2\n        /* \"#utility.yul\":635:683   */\n      tag_109\n        /* \"#utility.yul\":679:682   */\n      dup9\n        /* \"#utility.yul\":667:677   */\n      dup3\n        /* \"#utility.yul\":635:683   */\n      tag_110\n      jump\t// in\n    tag_109:\n        /* \"#utility.yul\":630:633   */\n      dup5\n        /* \"#utility.yul\":623:684   */\n      mstore\n        /* \"#utility.yul\":713:717   */\n      0x20\n        /* \"#utility.yul\":708:711   */\n      dup5\n        /* \"#utility.yul\":704:718   */\n      add\n        /* \"#utility.yul\":697:718   */\n      swap4\n      pop\n        /* \"#utility.yul\":747:751   */\n      0x20\n        /* \"#utility.yul\":742:745   */\n      dup4\n        /* \"#utility.yul\":738:752   */\n      add\n        /* \"#utility.yul\":731:752   */\n      swap3\n      pop\n        /* \"#utility.yul\":573:762   */\n      pop\n        /* \"#utility.yul\":560:561   */\n      0x01\n        /* \"#utility.yul\":557:558   */\n      dup2\n        /* \"#utility.yul\":553:562   */\n      add\n        /* \"#utility.yul\":548:562   */\n      swap1\n      pop\n        /* \"#utility.yul\":513:762   */\n      jump(tag_106)\n    tag_108:\n        /* \"#utility.yul\":517:531   */\n      pop\n        /* \"#utility.yul\":137:768   */\n      pop\n      pop\n        /* \"#utility.yul\":24:768   */\n      swap4\n      swap3\n      pop\n      pop\n      pop\n      jump\t// out\n        /* \"#utility.yul\":774:1186   */\n    tag_111:\n        /* \"#utility.yul\":852:857   */\n      0x00\n        /* \"#utility.yul\":877:943   */\n      tag_113\n        /* \"#utility.yul\":893:942   */\n      tag_114\n        /* \"#utility.yul\":935:941   */\n      dup5\n        /* \"#utility.yul\":893:942   */\n      tag_115\n      jump\t// in\n    tag_114:\n        /* \"#utility.yul\":877:943   */\n      tag_102\n      jump\t// in\n    tag_113:\n        /* \"#utility.yul\":868:943   */\n      swap1\n      pop\n        /* \"#utility.yul\":966:972   */\n      dup3\n        /* \"#utility.yul\":959:964   */\n      dup2\n        /* \"#utility.yul\":952:973   */\n      mstore\n        /* \"#utility.yul\":1004:1008   */\n      0x20\n        /* \"#utility.yul\":997:1002   */\n      dup2\n        /* \"#utility.yul\":993:1009   */\n      add\n        /* \"#utility.yul\":1042:1045   */\n      dup5\n        /* \"#utility.yul\":1033:1039   */\n      dup5\n        /* \"#utility.yul\":1028:1031   */\n      dup5\n        /* \"#utility.yul\":1024:1040   */\n      add\n        /* \"#utility.yul\":1021:1046   */\n      gt\n        /* \"#utility.yul\":1018:1130   */\n      iszero\n      tag_116\n      jumpi\n        /* \"#utility.yul\":1049:1128   */\n      tag_117\n      tag_118\n      jump\t// in\n    tag_117:\n        /* \"#utility.yul\":1018:1130   */\n    tag_116:\n        /* \"#utility.yul\":1139:1180   */\n      tag_119\n        /* \"#utility.yul\":1173:1179   */\n      dup5\n        /* \"#utility.yul\":1168:1171   */\n      dup3\n        /* \"#utility.yul\":1163:1166   */\n      dup6\n        /* \"#utility.yul\":1139:1180   */\n      tag_120\n      jump\t// in\n    tag_119:\n        /* \"#utility.yul\":858:1186   */\n      pop\n        /* \"#utility.yul\":774:1186   */\n      swap4\n      swap3\n      pop\n      pop\n      pop\n      jump\t// out\n        /* \"#utility.yul\":1192:1613   */\n    tag_121:\n        /* \"#utility.yul\":1281:1286   */\n      0x00\n        /* \"#utility.yul\":1306:1372   */\n      tag_123\n        /* \"#utility.yul\":1322:1371   */\n      tag_124\n        /* \"#utility.yul\":1364:1370   */\n      dup5\n        /* \"#utility.yul\":1322:1371   */\n      tag_115\n      jump\t// in\n    tag_124:\n        /* \"#utility.yul\":1306:1372   */\n      tag_102\n      jump\t// in\n    tag_123:\n        /* \"#utility.yul\":1297:1372   */\n      swap1\n      pop\n        /* \"#utility.yul\":1395:1401   */\n      dup3\n        /* \"#utility.yul\":1388:1393   */\n      dup2\n        /* \"#utility.yul\":1381:1402   */\n      mstore\n        /* \"#utility.yul\":1433:1437   */\n      0x20\n        /* \"#utility.yul\":1426:1431   */\n      dup2\n        /* \"#utility.yul\":1422:1438   */\n      add\n        /* \"#utility.yul\":1471:1474   */\n      dup5\n        /* \"#utility.yul\":1462:1468   */\n      dup5\n        /* \"#utility.yul\":1457:1460   */\n      dup5\n        /* \"#utility.yul\":1453:1469   */\n      add\n        /* \"#utility.yul\":1450:1475   */\n      gt\n        /* \"#utility.yul\":1447:1559   */\n      iszero\n      tag_125\n      jumpi\n        /* \"#utility.yul\":1478:1557   */\n      tag_126\n      tag_118\n      jump\t// in\n    tag_126:\n        /* \"#utility.yul\":1447:1559   */\n    tag_125:\n        /* \"#utility.yul\":1568:1607   */\n      tag_127\n        /* \"#utility.yul\":1600:1606   */\n      dup5\n        /* \"#utility.yul\":1595:1598   */\n      dup3\n        /* \"#utility.yul\":1590:1593   */\n      dup6\n        /* \"#utility.yul\":1568:1607   */\n      tag_128\n      jump\t// in\n    tag_127:\n        /* \"#utility.yul\":1287:1613   */\n      pop\n        /* \"#utility.yul\":1192:1613   */\n      swap4\n      swap3\n      pop\n      pop\n      pop\n      jump\t// out\n        /* \"#utility.yul\":1619:1758   */\n    tag_129:\n        /* \"#utility.yul\":1665:1670   */\n      0x00\n        /* \"#utility.yul\":1703:1709   */\n      dup2\n        /* \"#utility.yul\":1690:1710   */\n      calldataload\n        /* \"#utility.yul\":1681:1710   */\n      swap1\n      pop\n        /* \"#utility.yul\":1719:1752   */\n      tag_131\n        /* \"#utility.yul\":1746:1751   */\n      dup2\n        /* \"#utility.yul\":1719:1752   */\n      tag_132\n      jump\t// in\n    tag_131:\n        /* \"#utility.yul\":1619:1758   */\n      swap3\n      swap2\n      pop\n      pop\n      jump\t// out\n        /* \"#utility.yul\":1764:1907   */\n    tag_110:\n        /* \"#utility.yul\":1821:1826   */\n      0x00\n        /* \"#utility.yul\":1852:1858   */\n      dup2\n        /* \"#utility.yul\":1846:1859   */\n      mload\n        /* \"#utility.yul\":1837:1859   */\n      swap1\n      pop\n        /* \"#utility.yul\":1868:1901   */\n      tag_134\n        /* \"#utility.yul\":1895:1900   */\n      dup2\n        /* \"#utility.yul\":1868:1901   */\n      tag_132\n      jump\t// in\n    tag_134:\n        /* \"#utility.yul\":1764:1907   */\n      swap3\n      swap2\n      pop\n      pop\n      jump\t// out\n        /* \"#utility.yul\":1930:2315   */\n    tag_135:\n        /* \"#utility.yul\":2012:2017   */\n      0x00\n        /* \"#utility.yul\":2061:2064   */\n      dup3\n        /* \"#utility.yul\":2054:2058   */\n      0x1f\n        /* \"#utility.yul\":2046:2052   */\n      dup4\n        /* \"#utility.yul\":2042:2059   */\n      add\n        /* \"#utility.yul\":2038:2065   */\n      slt\n        /* \"#utility.yul\":2028:2150   */\n      tag_137\n      jumpi\n        /* \"#utility.yul\":2069:2148   */\n      tag_138\n      tag_139\n      jump\t// in\n    tag_138:\n        /* \"#utility.yul\":2028:2150   */\n    tag_137:\n        /* \"#utility.yul\":2179:2185   */\n      dup2\n        /* \"#utility.yul\":2173:2186   */\n      mload\n        /* \"#utility.yul\":2204:2309   */\n      tag_140\n        /* \"#utility.yul\":2305:2308   */\n      dup5\n        /* \"#utility.yul\":2297:2303   */\n      dup3\n        /* \"#utility.yul\":2290:2294   */\n      0x20\n        /* \"#utility.yul\":2282:2288   */\n      dup7\n        /* \"#utility.yul\":2278:2295   */\n      add\n        /* \"#utility.yul\":2204:2309   */\n      tag_97\n      jump\t// in\n    tag_140:\n        /* \"#utility.yul\":2195:2309   */\n      swap2\n      pop\n        /* \"#utility.yul\":2018:2315   */\n      pop\n        /* \"#utility.yul\":1930:2315   */\n      swap3\n      swap2\n      pop\n      pop\n      jump\t// out\n        /* \"#utility.yul\":2321:2458   */\n    tag_141:\n        /* \"#utility.yul\":2375:2380   */\n      0x00\n        /* \"#utility.yul\":2406:2412   */\n      dup2\n        /* \"#utility.yul\":2400:2413   */\n      mload\n        /* \"#utility.yul\":2391:2413   */\n      swap1\n      pop\n        /* \"#utility.yul\":2422:2452   */\n      tag_143\n        /* \"#utility.yul\":2446:2451   */\n      dup2\n        /* \"#utility.yul\":2422:2452   */\n      tag_144\n      jump\t// in\n    tag_143:\n        /* \"#utility.yul\":2321:2458   */\n      swap3\n      swap2\n      pop\n      pop\n      jump\t// out\n        /* \"#utility.yul\":2478:2818   */\n    tag_145:\n        /* \"#utility.yul\":2534:2539   */\n      0x00\n        /* \"#utility.yul\":2583:2586   */\n      dup3\n        /* \"#utility.yul\":2576:2580   */\n      0x1f\n        /* \"#utility.yul\":2568:2574   */\n      dup4\n        /* \"#utility.yul\":2564:2581   */\n      add\n        /* \"#utility.yul\":2560:2587   */\n      slt\n        /* \"#utility.yul\":2550:2672   */\n      tag_147\n      jumpi\n        /* \"#utility.yul\":2591:2670   */\n      tag_148\n      tag_139\n      jump\t// in\n    tag_148:\n        /* \"#utility.yul\":2550:2672   */\n    tag_147:\n        /* \"#utility.yul\":2708:2714   */\n      dup2\n        /* \"#utility.yul\":2695:2715   */\n      calldataload\n        /* \"#utility.yul\":2733:2812   */\n      tag_149\n        /* \"#utility.yul\":2808:2811   */\n      dup5\n        /* \"#utility.yul\":2800:2806   */\n      dup3\n        /* \"#utility.yul\":2793:2797   */\n      0x20\n        /* \"#utility.yul\":2785:2791   */\n      dup7\n        /* \"#utility.yul\":2781:2798   */\n      add\n        /* \"#utility.yul\":2733:2812   */\n      tag_111\n      jump\t// in\n    tag_149:\n        /* \"#utility.yul\":2724:2812   */\n      swap2\n      pop\n        /* \"#utility.yul\":2540:2818   */\n      pop\n        /* \"#utility.yul\":2478:2818   */\n      swap3\n      swap2\n      pop\n      pop\n      jump\t// out\n        /* \"#utility.yul\":2838:3193   */\n    tag_150:\n        /* \"#utility.yul\":2905:2910   */\n      0x00\n        /* \"#utility.yul\":2954:2957   */\n      dup3\n        /* \"#utility.yul\":2947:2951   */\n      0x1f\n        /* \"#utility.yul\":2939:2945   */\n      dup4\n        /* \"#utility.yul\":2935:2952   */\n      add\n        /* \"#utility.yul\":2931:2958   */\n      slt\n        /* \"#utility.yul\":2921:3043   */\n      tag_152\n      jumpi\n        /* \"#utility.yul\":2962:3041   */\n      tag_153\n      tag_139\n      jump\t// in\n    tag_153:\n        /* \"#utility.yul\":2921:3043   */\n    tag_152:\n        /* \"#utility.yul\":3072:3078   */\n      dup2\n        /* \"#utility.yul\":3066:3079   */\n      mload\n        /* \"#utility.yul\":3097:3187   */\n      tag_154\n        /* \"#utility.yul\":3183:3186   */\n      dup5\n        /* \"#utility.yul\":3175:3181   */\n      dup3\n        /* \"#utility.yul\":3168:3172   */\n      0x20\n        /* \"#utility.yul\":3160:3166   */\n      dup7\n        /* \"#utility.yul\":3156:3173   */\n      add\n        /* \"#utility.yul\":3097:3187   */\n      tag_121\n      jump\t// in\n    tag_154:\n        /* \"#utility.yul\":3088:3187   */\n      swap2\n      pop\n        /* \"#utility.yul\":2911:3193   */\n      pop\n        /* \"#utility.yul\":2838:3193   */\n      swap3\n      swap2\n      pop\n      pop\n      jump\t// out\n        /* \"#utility.yul\":3199:3338   */\n    tag_155:\n        /* \"#utility.yul\":3245:3250   */\n      0x00\n        /* \"#utility.yul\":3283:3289   */\n      dup2\n        /* \"#utility.yul\":3270:3290   */\n      calldataload\n        /* \"#utility.yul\":3261:3290   */\n      swap1\n      pop\n        /* \"#utility.yul\":3299:3332   */\n      tag_157\n        /* \"#utility.yul\":3326:3331   */\n      dup2\n        /* \"#utility.yul\":3299:3332   */\n      tag_158\n      jump\t// in\n    tag_157:\n        /* \"#utility.yul\":3199:3338   */\n      swap3\n      swap2\n      pop\n      pop\n      jump\t// out\n        /* \"#utility.yul\":3344:3673   */\n    tag_30:\n        /* \"#utility.yul\":3403:3409   */\n      0x00\n        /* \"#utility.yul\":3452:3454   */\n      0x20\n        /* \"#utility.yul\":3440:3449   */\n      dup3\n        /* \"#utility.yul\":3431:3438   */\n      dup5\n        /* \"#utility.yul\":3427:3450   */\n      sub\n        /* \"#utility.yul\":3423:3455   */\n      slt\n        /* \"#utility.yul\":3420:3539   */\n      iszero\n      tag_160\n      jumpi\n        /* \"#utility.yul\":3458:3537   */\n      tag_161\n      tag_162\n      jump\t// in\n    tag_161:\n        /* \"#utility.yul\":3420:3539   */\n    tag_160:\n        /* \"#utility.yul\":3578:3579   */\n      0x00\n        /* \"#utility.yul\":3603:3656   */\n      tag_163\n        /* \"#utility.yul\":3648:3655   */\n      dup5\n        /* \"#utility.yul\":3639:3645   */\n      dup3\n        /* \"#utility.yul\":3628:3637   */\n      dup6\n        /* \"#utility.yul\":3624:3646   */\n      add\n        /* \"#utility.yul\":3603:3656   */\n      tag_129\n      jump\t// in\n    tag_163:\n        /* \"#utility.yul\":3593:3656   */\n      swap2\n      pop\n        /* \"#utility.yul\":3549:3666   */\n      pop\n        /* \"#utility.yul\":3344:3673   */\n      swap3\n      swap2\n      pop\n      pop\n      jump\t// out\n        /* \"#utility.yul\":3679:4024   */\n    tag_87:\n        /* \"#utility.yul\":3746:3752   */\n      0x00\n        /* \"#utility.yul\":3795:3797   */\n      0x20\n        /* \"#utility.yul\":3783:3792   */\n      dup3\n        /* \"#utility.yul\":3774:3781   */\n      dup5\n        /* \"#utility.yul\":3770:3793   */\n      sub\n        /* \"#utility.yul\":3766:3798   */\n      slt\n        /* \"#utility.yul\":3763:3882   */\n      iszero\n      tag_165\n      jumpi\n        /* \"#utility.yul\":3801:3880   */\n      tag_166\n      tag_162\n      jump\t// in\n    tag_166:\n        /* \"#utility.yul\":3763:3882   */\n    tag_165:\n        /* \"#utility.yul\":3921:3922   */\n      0x00\n        /* \"#utility.yul\":3946:4007   */\n      tag_167\n        /* \"#utility.yul\":3999:4006   */\n      dup5\n        /* \"#utility.yul\":3990:3996   */\n      dup3\n        /* \"#utility.yul\":3979:3988   */\n      dup6\n        /* \"#utility.yul\":3975:3997   */\n      add\n        /* \"#utility.yul\":3946:4007   */\n      tag_141\n      jump\t// in\n    tag_167:\n        /* \"#utility.yul\":3936:4007   */\n      swap2\n      pop\n        /* \"#utility.yul\":3892:4017   */\n      pop\n        /* \"#utility.yul\":3679:4024   */\n      swap3\n      swap2\n      pop\n      pop\n      jump\t// out\n        /* \"#utility.yul\":4030:4704   */\n    tag_54:\n        /* \"#utility.yul\":4116:4122   */\n      0x00\n        /* \"#utility.yul\":4124:4130   */\n      dup1\n        /* \"#utility.yul\":4173:4175   */\n      0x40\n        /* \"#utility.yul\":4161:4170   */\n      dup4\n        /* \"#utility.yul\":4152:4159   */\n      dup6\n        /* \"#utility.yul\":4148:4171   */\n      sub\n        /* \"#utility.yul\":4144:4176   */\n      slt\n        /* \"#utility.yul\":4141:4260   */\n      iszero\n      tag_169\n      jumpi\n        /* \"#utility.yul\":4179:4258   */\n      tag_170\n      tag_162\n      jump\t// in\n    tag_170:\n        /* \"#utility.yul\":4141:4260   */\n    tag_169:\n        /* \"#utility.yul\":4299:4300   */\n      0x00\n        /* \"#utility.yul\":4324:4385   */\n      tag_171\n        /* \"#utility.yul\":4377:4384   */\n      dup6\n        /* \"#utility.yul\":4368:4374   */\n      dup3\n        /* \"#utility.yul\":4357:4366   */\n      dup7\n        /* \"#utility.yul\":4353:4375   */\n      add\n        /* \"#utility.yul\":4324:4385   */\n      tag_141\n      jump\t// in\n    tag_171:\n        /* \"#utility.yul\":4314:4385   */\n      swap3\n      pop\n        /* \"#utility.yul\":4270:4395   */\n      pop\n        /* \"#utility.yul\":4455:4457   */\n      0x20\n        /* \"#utility.yul\":4444:4453   */\n      dup4\n        /* \"#utility.yul\":4440:4458   */\n      add\n        /* \"#utility.yul\":4434:4459   */\n      mload\n        /* \"#utility.yul\":4486:4504   */\n      0xffffffffffffffff\n        /* \"#utility.yul\":4478:4484   */\n      dup2\n        /* \"#utility.yul\":4475:4505   */\n      gt\n        /* \"#utility.yul\":4472:4589   */\n      iszero\n      tag_172\n      jumpi\n        /* \"#utility.yul\":4508:4587   */\n      tag_173\n      tag_174\n      jump\t// in\n    tag_173:\n        /* \"#utility.yul\":4472:4589   */\n    tag_172:\n        /* \"#utility.yul\":4613:4687   */\n      tag_175\n        /* \"#utility.yul\":4679:4686   */\n      dup6\n        /* \"#utility.yul\":4670:4676   */\n      dup3\n        /* \"#utility.yul\":4659:4668   */\n      dup7\n        /* \"#utility.yul\":4655:4677   */\n      add\n        /* \"#utility.yul\":4613:4687   */\n      tag_150\n      jump\t// in\n    tag_175:\n        /* \"#utility.yul\":4603:4687   */\n      swap2\n      pop\n        /* \"#utility.yul\":4405:4697   */\n      pop\n        /* \"#utility.yul\":4030:4704   */\n      swap3\n      pop\n      swap3\n      swap1\n      pop\n      jump\t// out\n        /* \"#utility.yul\":4710:5219   */\n    tag_13:\n        /* \"#utility.yul\":4779:4785   */\n      0x00\n        /* \"#utility.yul\":4828:4830   */\n      0x20\n        /* \"#utility.yul\":4816:4825   */\n      dup3\n        /* \"#utility.yul\":4807:4814   */\n      dup5\n        /* \"#utility.yul\":4803:4826   */\n      sub\n        /* \"#utility.yul\":4799:4831   */\n      slt\n        /* \"#utility.yul\":4796:4915   */\n      iszero\n      tag_177\n      jumpi\n        /* \"#utility.yul\":4834:4913   */\n      tag_178\n      tag_162\n      jump\t// in\n    tag_178:\n        /* \"#utility.yul\":4796:4915   */\n    tag_177:\n        /* \"#utility.yul\":4982:4983   */\n      0x00\n        /* \"#utility.yul\":4971:4980   */\n      dup3\n        /* \"#utility.yul\":4967:4984   */\n      add\n        /* \"#utility.yul\":4954:4985   */\n      calldataload\n        /* \"#utility.yul\":5012:5030   */\n      0xffffffffffffffff\n        /* \"#utility.yul\":5004:5010   */\n      dup2\n        /* \"#utility.yul\":5001:5031   */\n      gt\n        /* \"#utility.yul\":4998:5115   */\n      iszero\n      tag_179\n      jumpi\n        /* \"#utility.yul\":5034:5113   */\n      tag_180\n      tag_174\n      jump\t// in\n    tag_180:\n        /* \"#utility.yul\":4998:5115   */\n    tag_179:\n        /* \"#utility.yul\":5139:5202   */\n      tag_181\n        /* \"#utility.yul\":5194:5201   */\n      dup5\n        /* \"#utility.yul\":5185:5191   */\n      dup3\n        /* \"#utility.yul\":5174:5183   */\n      dup6\n        /* \"#utility.yul\":5170:5192   */\n      add\n        /* \"#utility.yul\":5139:5202   */\n      tag_145\n      jump\t// in\n    tag_181:\n        /* \"#utility.yul\":5129:5202   */\n      swap2\n      pop\n        /* \"#utility.yul\":4925:5212   */\n      pop\n        /* \"#utility.yul\":4710:5219   */\n      swap3\n      swap2\n      pop\n      pop\n      jump\t// out\n        /* \"#utility.yul\":5225:6467   */\n    tag_94:\n        /* \"#utility.yul\":5373:5379   */\n      0x00\n        /* \"#utility.yul\":5381:5387   */\n      dup1\n        /* \"#utility.yul\":5389:5395   */\n      0x00\n        /* \"#utility.yul\":5438:5440   */\n      0x60\n        /* \"#utility.yul\":5426:5435   */\n      dup5\n        /* \"#utility.yul\":5417:5424   */\n      dup7\n        /* \"#utility.yul\":5413:5436   */\n      sub\n        /* \"#utility.yul\":5409:5441   */\n      slt\n        /* \"#utility.yul\":5406:5525   */\n      iszero\n      tag_183\n      jumpi\n        /* \"#utility.yul\":5444:5523   */\n      tag_184\n      tag_162\n      jump\t// in\n    tag_184:\n        /* \"#utility.yul\":5406:5525   */\n    tag_183:\n        /* \"#utility.yul\":5585:5586   */\n      0x00\n        /* \"#utility.yul\":5574:5583   */\n      dup5\n        /* \"#utility.yul\":5570:5587   */\n      add\n        /* \"#utility.yul\":5564:5588   */\n      mload\n        /* \"#utility.yul\":5615:5633   */\n      0xffffffffffffffff\n        /* \"#utility.yul\":5607:5613   */\n      dup2\n        /* \"#utility.yul\":5604:5634   */\n      gt\n        /* \"#utility.yul\":5601:5718   */\n      iszero\n      tag_185\n      jumpi\n        /* \"#utility.yul\":5637:5716   */\n      tag_186\n      tag_174\n      jump\t// in\n    tag_186:\n        /* \"#utility.yul\":5601:5718   */\n    tag_185:\n        /* \"#utility.yul\":5742:5816   */\n      tag_187\n        /* \"#utility.yul\":5808:5815   */\n      dup7\n        /* \"#utility.yul\":5799:5805   */\n      dup3\n        /* \"#utility.yul\":5788:5797   */\n      dup8\n        /* \"#utility.yul\":5784:5806   */\n      add\n        /* \"#utility.yul\":5742:5816   */\n      tag_150\n      jump\t// in\n    tag_187:\n        /* \"#utility.yul\":5732:5816   */\n      swap4\n      pop\n        /* \"#utility.yul\":5535:5826   */\n      pop\n        /* \"#utility.yul\":5886:5888   */\n      0x20\n        /* \"#utility.yul\":5875:5884   */\n      dup5\n        /* \"#utility.yul\":5871:5889   */\n      add\n        /* \"#utility.yul\":5865:5890   */\n      mload\n        /* \"#utility.yul\":5917:5935   */\n      0xffffffffffffffff\n        /* \"#utility.yul\":5909:5915   */\n      dup2\n        /* \"#utility.yul\":5906:5936   */\n      gt\n        /* \"#utility.yul\":5903:6020   */\n      iszero\n      tag_188\n      jumpi\n        /* \"#utility.yul\":5939:6018   */\n      tag_189\n      tag_174\n      jump\t// in\n    tag_189:\n        /* \"#utility.yul\":5903:6020   */\n    tag_188:\n        /* \"#utility.yul\":6044:6133   */\n      tag_190\n        /* \"#utility.yul\":6125:6132   */\n      dup7\n        /* \"#utility.yul\":6116:6122   */\n      dup3\n        /* \"#utility.yul\":6105:6114   */\n      dup8\n        /* \"#utility.yul\":6101:6123   */\n      add\n        /* \"#utility.yul\":6044:6133   */\n      tag_135\n      jump\t// in\n    tag_190:\n        /* \"#utility.yul\":6034:6133   */\n      swap3\n      pop\n        /* \"#utility.yul\":5836:6143   */\n      pop\n        /* \"#utility.yul\":6203:6205   */\n      0x40\n        /* \"#utility.yul\":6192:6201   */\n      dup5\n        /* \"#utility.yul\":6188:6206   */\n      add\n        /* \"#utility.yul\":6182:6207   */\n      mload\n        /* \"#utility.yul\":6234:6252   */\n      0xffffffffffffffff\n        /* \"#utility.yul\":6226:6232   */\n      dup2\n        /* \"#utility.yul\":6223:6253   */\n      gt\n        /* \"#utility.yul\":6220:6337   */\n      iszero\n      tag_191\n      jumpi\n        /* \"#utility.yul\":6256:6335   */\n      tag_192\n      tag_174\n      jump\t// in\n    tag_192:\n        /* \"#utility.yul\":6220:6337   */\n    tag_191:\n        /* \"#utility.yul\":6361:6450   */\n      tag_193\n        /* \"#utility.yul\":6442:6449   */\n      dup7\n        /* \"#utility.yul\":6433:6439   */\n      dup3\n        /* \"#utility.yul\":6422:6431   */\n      dup8\n        /* \"#utility.yul\":6418:6440   */\n      add\n        /* \"#utility.yul\":6361:6450   */\n      tag_135\n      jump\t// in\n    tag_193:\n        /* \"#utility.yul\":6351:6450   */\n      swap2\n      pop\n        /* \"#utility.yul\":6153:6460   */\n      pop\n        /* \"#utility.yul\":5225:6467   */\n      swap3\n      pop\n      swap3\n      pop\n      swap3\n      jump\t// out\n        /* \"#utility.yul\":6473:7307   */\n    tag_25:\n        /* \"#utility.yul\":6561:6567   */\n      0x00\n        /* \"#utility.yul\":6569:6575   */\n      dup1\n        /* \"#utility.yul\":6618:6620   */\n      0x40\n        /* \"#utility.yul\":6606:6615   */\n      dup4\n        /* \"#utility.yul\":6597:6604   */\n      dup6\n        /* \"#utility.yul\":6593:6616   */\n      sub\n        /* \"#utility.yul\":6589:6621   */\n      slt\n        /* \"#utility.yul\":6586:6705   */\n      iszero\n      tag_195\n      jumpi\n        /* \"#utility.yul\":6624:6703   */\n      tag_196\n      tag_162\n      jump\t// in\n    tag_196:\n        /* \"#utility.yul\":6586:6705   */\n    tag_195:\n        /* \"#utility.yul\":6772:6773   */\n      0x00\n        /* \"#utility.yul\":6761:6770   */\n      dup4\n        /* \"#utility.yul\":6757:6774   */\n      add\n        /* \"#utility.yul\":6744:6775   */\n      calldataload\n        /* \"#utility.yul\":6802:6820   */\n      0xffffffffffffffff\n        /* \"#utility.yul\":6794:6800   */\n      dup2\n        /* \"#utility.yul\":6791:6821   */\n      gt\n        /* \"#utility.yul\":6788:6905   */\n      iszero\n      tag_197\n      jumpi\n        /* \"#utility.yul\":6824:6903   */\n      tag_198\n      tag_174\n      jump\t// in\n    tag_198:\n        /* \"#utility.yul\":6788:6905   */\n    tag_197:\n        /* \"#utility.yul\":6929:6992   */\n      tag_199\n        /* \"#utility.yul\":6984:6991   */\n      dup6\n        /* \"#utility.yul\":6975:6981   */\n      dup3\n        /* \"#utility.yul\":6964:6973   */\n      dup7\n        /* \"#utility.yul\":6960:6982   */\n      add\n        /* \"#utility.yul\":6929:6992   */\n      tag_145\n      jump\t// in\n    tag_199:\n        /* \"#utility.yul\":6919:6992   */\n      swap3\n      pop\n        /* \"#utility.yul\":6715:7002   */\n      pop\n        /* \"#utility.yul\":7069:7071   */\n      0x20\n        /* \"#utility.yul\":7058:7067   */\n      dup4\n        /* \"#utility.yul\":7054:7072   */\n      add\n        /* \"#utility.yul\":7041:7073   */\n      calldataload\n        /* \"#utility.yul\":7100:7118   */\n      0xffffffffffffffff\n        /* \"#utility.yul\":7092:7098   */\n      dup2\n        /* \"#utility.yul\":7089:7119   */\n      gt\n        /* \"#utility.yul\":7086:7203   */\n      iszero\n      tag_200\n      jumpi\n        /* \"#utility.yul\":7122:7201   */\n      tag_201\n      tag_174\n      jump\t// in\n    tag_201:\n        /* \"#utility.yul\":7086:7203   */\n    tag_200:\n        /* \"#utility.yul\":7227:7290   */\n      tag_202\n        /* \"#utility.yul\":7282:7289   */\n      dup6\n        /* \"#utility.yul\":7273:7279   */\n      dup3\n        /* \"#utility.yul\":7262:7271   */\n      dup7\n        /* \"#utility.yul\":7258:7280   */\n      add\n        /* \"#utility.yul\":7227:7290   */\n      tag_145\n      jump\t// in\n    tag_202:\n        /* \"#utility.yul\":7217:7290   */\n      swap2\n      pop\n        /* \"#utility.yul\":7012:7300   */\n      pop\n        /* \"#utility.yul\":6473:7307   */\n      swap3\n      pop\n      swap3\n      swap1\n      pop\n      jump\t// out\n        /* \"#utility.yul\":7313:7642   */\n    tag_19:\n        /* \"#utility.yul\":7372:7378   */\n      0x00\n        /* \"#utility.yul\":7421:7423   */\n      0x20\n        /* \"#utility.yul\":7409:7418   */\n      dup3\n        /* \"#utility.yul\":7400:7407   */\n      dup5\n        /* \"#utility.yul\":7396:7419   */\n      sub\n        /* \"#utility.yul\":7392:7424   */\n      slt\n        /* \"#utility.yul\":7389:7508   */\n      iszero\n      tag_204\n      jumpi\n        /* \"#utility.yul\":7427:7506   */\n      tag_205\n      tag_162\n      jump\t// in\n    tag_205:\n        /* \"#utility.yul\":7389:7508   */\n    tag_204:\n        /* \"#utility.yul\":7547:7548   */\n      0x00\n        /* \"#utility.yul\":7572:7625   */\n      tag_206\n        /* \"#utility.yul\":7617:7624   */\n      dup5\n        /* \"#utility.yul\":7608:7614   */\n      dup3\n        /* \"#utility.yul\":7597:7606   */\n      dup6\n        /* \"#utility.yul\":7593:7615   */\n      add\n        /* \"#utility.yul\":7572:7625   */\n      tag_155\n      jump\t// in\n    tag_206:\n        /* \"#utility.yul\":7562:7625   */\n      swap2\n      pop\n        /* \"#utility.yul\":7518:7635   */\n      pop\n        /* \"#utility.yul\":7313:7642   */\n      swap3\n      swap2\n      pop\n      pop\n      jump\t// out\n        /* \"#utility.yul\":7648:7827   */\n    tag_207:\n        /* \"#utility.yul\":7717:7727   */\n      0x00\n        /* \"#utility.yul\":7738:7784   */\n      tag_209\n        /* \"#utility.yul\":7780:7783   */\n      dup4\n        /* \"#utility.yul\":7772:7778   */\n      dup4\n        /* \"#utility.yul\":7738:7784   */\n      tag_210\n      jump\t// in\n    tag_209:\n        /* \"#utility.yul\":7816:7820   */\n      0x20\n        /* \"#utility.yul\":7811:7814   */\n      dup4\n        /* \"#utility.yul\":7807:7821   */\n      add\n        /* \"#utility.yul\":7793:7821   */\n      swap1\n      pop\n        /* \"#utility.yul\":7648:7827   */\n      swap3\n      swap2\n      pop\n      pop\n      jump\t// out\n        /* \"#utility.yul\":7833:7941   */\n    tag_210:\n        /* \"#utility.yul\":7910:7934   */\n      tag_212\n        /* \"#utility.yul\":7928:7933   */\n      dup2\n        /* \"#utility.yul\":7910:7934   */\n      tag_213\n      jump\t// in\n    tag_212:\n        /* \"#utility.yul\":7905:7908   */\n      dup3\n        /* \"#utility.yul\":7898:7935   */\n      mstore\n        /* \"#utility.yul\":7833:7941   */\n      pop\n      pop\n      jump\t// out\n        /* \"#utility.yul\":7947:8065   */\n    tag_214:\n        /* \"#utility.yul\":8034:8058   */\n      tag_216\n        /* \"#utility.yul\":8052:8057   */\n      dup2\n        /* \"#utility.yul\":8034:8058   */\n      tag_213\n      jump\t// in\n    tag_216:\n        /* \"#utility.yul\":8029:8032   */\n      dup3\n        /* \"#utility.yul\":8022:8059   */\n      mstore\n        /* \"#utility.yul\":7947:8065   */\n      pop\n      pop\n      jump\t// out\n        /* \"#utility.yul\":8101:8833   */\n    tag_217:\n        /* \"#utility.yul\":8220:8223   */\n      0x00\n        /* \"#utility.yul\":8249:8303   */\n      tag_219\n        /* \"#utility.yul\":8297:8302   */\n      dup3\n        /* \"#utility.yul\":8249:8303   */\n      tag_220\n      jump\t// in\n    tag_219:\n        /* \"#utility.yul\":8319:8405   */\n      tag_221\n        /* \"#utility.yul\":8398:8404   */\n      dup2\n        /* \"#utility.yul\":8393:8396   */\n      dup6\n        /* \"#utility.yul\":8319:8405   */\n      tag_222\n      jump\t// in\n    tag_221:\n        /* \"#utility.yul\":8312:8405   */\n      swap4\n      pop\n        /* \"#utility.yul\":8429:8485   */\n      tag_223\n        /* \"#utility.yul\":8479:8484   */\n      dup4\n        /* \"#utility.yul\":8429:8485   */\n      tag_224\n      jump\t// in\n    tag_223:\n        /* \"#utility.yul\":8508:8515   */\n      dup1\n        /* \"#utility.yul\":8539:8540   */\n      0x00\n        /* \"#utility.yul\":8524:8808   */\n    tag_225:\n        /* \"#utility.yul\":8549:8555   */\n      dup4\n        /* \"#utility.yul\":8546:8547   */\n      dup2\n        /* \"#utility.yul\":8543:8556   */\n      lt\n        /* \"#utility.yul\":8524:8808   */\n      iszero\n      tag_227\n      jumpi\n        /* \"#utility.yul\":8625:8631   */\n      dup2\n        /* \"#utility.yul\":8619:8632   */\n      mload\n        /* \"#utility.yul\":8652:8715   */\n      tag_228\n        /* \"#utility.yul\":8711:8714   */\n      dup9\n        /* \"#utility.yul\":8696:8709   */\n      dup3\n        /* \"#utility.yul\":8652:8715   */\n      tag_207\n      jump\t// in\n    tag_228:\n        /* \"#utility.yul\":8645:8715   */\n      swap8\n      pop\n        /* \"#utility.yul\":8738:8798   */\n      tag_229\n        /* \"#utility.yul\":8791:8797   */\n      dup4\n        /* \"#utility.yul\":8738:8798   */\n      tag_230\n      jump\t// in\n    tag_229:\n        /* \"#utility.yul\":8728:8798   */\n      swap3\n      pop\n        /* \"#utility.yul\":8584:8808   */\n      pop\n        /* \"#utility.yul\":8571:8572   */\n      0x01\n        /* \"#utility.yul\":8568:8569   */\n      dup2\n        /* \"#utility.yul\":8564:8573   */\n      add\n        /* \"#utility.yul\":8559:8573   */\n      swap1\n      pop\n        /* \"#utility.yul\":8524:8808   */\n      jump(tag_225)\n    tag_227:\n        /* \"#utility.yul\":8528:8542   */\n      pop\n        /* \"#utility.yul\":8824:8827   */\n      dup6\n        /* \"#utility.yul\":8817:8827   */\n      swap4\n      pop\n        /* \"#utility.yul\":8225:8833   */\n      pop\n      pop\n      pop\n        /* \"#utility.yul\":8101:8833   */\n      swap3\n      swap2\n      pop\n      pop\n      jump\t// out\n        /* \"#utility.yul\":8839:8948   */\n    tag_231:\n        /* \"#utility.yul\":8920:8941   */\n      tag_233\n        /* \"#utility.yul\":8935:8940   */\n      dup2\n        /* \"#utility.yul\":8920:8941   */\n      tag_234\n      jump\t// in\n    tag_233:\n        /* \"#utility.yul\":8915:8918   */\n      dup3\n        /* \"#utility.yul\":8908:8942   */\n      mstore\n        /* \"#utility.yul\":8839:8948   */\n      pop\n      pop\n      jump\t// out\n        /* \"#utility.yul\":8954:9318   */\n    tag_235:\n        /* \"#utility.yul\":9042:9045   */\n      0x00\n        /* \"#utility.yul\":9070:9109   */\n      tag_237\n        /* \"#utility.yul\":9103:9108   */\n      dup3\n        /* \"#utility.yul\":9070:9109   */\n      tag_238\n      jump\t// in\n    tag_237:\n        /* \"#utility.yul\":9125:9196   */\n      tag_239\n        /* \"#utility.yul\":9189:9195   */\n      dup2\n        /* \"#utility.yul\":9184:9187   */\n      dup6\n        /* \"#utility.yul\":9125:9196   */\n      tag_240\n      jump\t// in\n    tag_239:\n        /* \"#utility.yul\":9118:9196   */\n      swap4\n      pop\n        /* \"#utility.yul\":9205:9257   */\n      tag_241\n        /* \"#utility.yul\":9250:9256   */\n      dup2\n        /* \"#utility.yul\":9245:9248   */\n      dup6\n        /* \"#utility.yul\":9238:9242   */\n      0x20\n        /* \"#utility.yul\":9231:9236   */\n      dup7\n        /* \"#utility.yul\":9227:9243   */\n      add\n        /* \"#utility.yul\":9205:9257   */\n      tag_128\n      jump\t// in\n    tag_241:\n        /* \"#utility.yul\":9282:9311   */\n      tag_242\n        /* \"#utility.yul\":9304:9310   */\n      dup2\n        /* \"#utility.yul\":9282:9311   */\n      tag_243\n      jump\t// in\n    tag_242:\n        /* \"#utility.yul\":9277:9280   */\n      dup5\n        /* \"#utility.yul\":9273:9312   */\n      add\n        /* \"#utility.yul\":9266:9312   */\n      swap2\n      pop\n        /* \"#utility.yul\":9046:9318   */\n      pop\n        /* \"#utility.yul\":8954:9318   */\n      swap3\n      swap2\n      pop\n      pop\n      jump\t// out\n        /* \"#utility.yul\":9324:9701   */\n    tag_244:\n        /* \"#utility.yul\":9430:9433   */\n      0x00\n        /* \"#utility.yul\":9458:9497   */\n      tag_246\n        /* \"#utility.yul\":9491:9496   */\n      dup3\n        /* \"#utility.yul\":9458:9497   */\n      tag_238\n      jump\t// in\n    tag_246:\n        /* \"#utility.yul\":9513:9602   */\n      tag_247\n        /* \"#utility.yul\":9595:9601   */\n      dup2\n        /* \"#utility.yul\":9590:9593   */\n      dup6\n        /* \"#utility.yul\":9513:9602   */\n      tag_248\n      jump\t// in\n    tag_247:\n        /* \"#utility.yul\":9506:9602   */\n      swap4\n      pop\n        /* \"#utility.yul\":9611:9663   */\n      tag_249\n        /* \"#utility.yul\":9656:9662   */\n      dup2\n        /* \"#utility.yul\":9651:9654   */\n      dup6\n        /* \"#utility.yul\":9644:9648   */\n      0x20\n        /* \"#utility.yul\":9637:9642   */\n      dup7\n        /* \"#utility.yul\":9633:9649   */\n      add\n        /* \"#utility.yul\":9611:9663   */\n      tag_128\n      jump\t// in\n    tag_249:\n        /* \"#utility.yul\":9688:9694   */\n      dup1\n        /* \"#utility.yul\":9683:9686   */\n      dup5\n        /* \"#utility.yul\":9679:9695   */\n      add\n        /* \"#utility.yul\":9672:9695   */\n      swap2\n      pop\n        /* \"#utility.yul\":9434:9701   */\n      pop\n        /* \"#utility.yul\":9324:9701   */\n      swap3\n      swap2\n      pop\n      pop\n      jump\t// out\n        /* \"#utility.yul\":9707:9825   */\n    tag_250:\n        /* \"#utility.yul\":9794:9818   */\n      tag_252\n        /* \"#utility.yul\":9812:9817   */\n      dup2\n        /* \"#utility.yul\":9794:9818   */\n      tag_253\n      jump\t// in\n    tag_252:\n        /* \"#utility.yul\":9789:9792   */\n      dup3\n        /* \"#utility.yul\":9782:9819   */\n      mstore\n        /* \"#utility.yul\":9707:9825   */\n      pop\n      pop\n      jump\t// out\n        /* \"#utility.yul\":9831:10106   */\n    tag_49:\n        /* \"#utility.yul\":9963:9966   */\n      0x00\n        /* \"#utility.yul\":9985:10080   */\n      tag_255\n        /* \"#utility.yul\":10076:10079   */\n      dup3\n        /* \"#utility.yul\":10067:10073   */\n      dup5\n        /* \"#utility.yul\":9985:10080   */\n      tag_244\n      jump\t// in\n    tag_255:\n        /* \"#utility.yul\":9978:10080   */\n      swap2\n      pop\n        /* \"#utility.yul\":10097:10100   */\n      dup2\n        /* \"#utility.yul\":10090:10100   */\n      swap1\n      pop\n        /* \"#utility.yul\":9831:10106   */\n      swap3\n      swap2\n      pop\n      pop\n      jump\t// out\n        /* \"#utility.yul\":10112:10334   */\n    tag_22:\n        /* \"#utility.yul\":10205:10209   */\n      0x00\n        /* \"#utility.yul\":10243:10245   */\n      0x20\n        /* \"#utility.yul\":10232:10241   */\n      dup3\n        /* \"#utility.yul\":10228:10246   */\n      add\n        /* \"#utility.yul\":10220:10246   */\n      swap1\n      pop\n        /* \"#utility.yul\":10256:10327   */\n      tag_257\n        /* \"#utility.yul\":10324:10325   */\n      0x00\n        /* \"#utility.yul\":10313:10322   */\n      dup4\n        /* \"#utility.yul\":10309:10326   */\n      add\n        /* \"#utility.yul\":10300:10306   */\n      dup5\n        /* \"#utility.yul\":10256:10327   */\n      tag_214\n      jump\t// in\n    tag_257:\n        /* \"#utility.yul\":10112:10334   */\n      swap3\n      swap2\n      pop\n      pop\n      jump\t// out\n        /* \"#utility.yul\":10340:10550   */\n    tag_33:\n        /* \"#utility.yul\":10427:10431   */\n      0x00\n        /* \"#utility.yul\":10465:10467   */\n      0x20\n        /* \"#utility.yul\":10454:10463   */\n      dup3\n        /* \"#utility.yul\":10450:10468   */\n      add\n        /* \"#utility.yul\":10442:10468   */\n      swap1\n      pop\n        /* \"#utility.yul\":10478:10543   */\n      tag_259\n        /* \"#utility.yul\":10540:10541   */\n      0x00\n        /* \"#utility.yul\":10529:10538   */\n      dup4\n        /* \"#utility.yul\":10525:10542   */\n      add\n        /* \"#utility.yul\":10516:10522   */\n      dup5\n        /* \"#utility.yul\":10478:10543   */\n      tag_231\n      jump\t// in\n    tag_259:\n        /* \"#utility.yul\":10340:10550   */\n      swap3\n      swap2\n      pop\n      pop\n      jump\t// out\n        /* \"#utility.yul\":10556:10967   */\n    tag_16:\n        /* \"#utility.yul\":10691:10695   */\n      0x00\n        /* \"#utility.yul\":10729:10731   */\n      0x40\n        /* \"#utility.yul\":10718:10727   */\n      dup3\n        /* \"#utility.yul\":10714:10732   */\n      add\n        /* \"#utility.yul\":10706:10732   */\n      swap1\n      pop\n        /* \"#utility.yul\":10742:10807   */\n      tag_261\n        /* \"#utility.yul\":10804:10805   */\n      0x00\n        /* \"#utility.yul\":10793:10802   */\n      dup4\n        /* \"#utility.yul\":10789:10806   */\n      add\n        /* \"#utility.yul\":10780:10786   */\n      dup6\n        /* \"#utility.yul\":10742:10807   */\n      tag_231\n      jump\t// in\n    tag_261:\n        /* \"#utility.yul\":10854:10863   */\n      dup2\n        /* \"#utility.yul\":10848:10852   */\n      dup2\n        /* \"#utility.yul\":10844:10864   */\n      sub\n        /* \"#utility.yul\":10839:10841   */\n      0x20\n        /* \"#utility.yul\":10828:10837   */\n      dup4\n        /* \"#utility.yul\":10824:10842   */\n      add\n        /* \"#utility.yul\":10817:10865   */\n      mstore\n        /* \"#utility.yul\":10882:10960   */\n      tag_262\n        /* \"#utility.yul\":10955:10959   */\n      dup2\n        /* \"#utility.yul\":10946:10952   */\n      dup5\n        /* \"#utility.yul\":10882:10960   */\n      tag_235\n      jump\t// in\n    tag_262:\n        /* \"#utility.yul\":10874:10960   */\n      swap1\n      pop\n        /* \"#utility.yul\":10556:10967   */\n      swap4\n      swap3\n      pop\n      pop\n      pop\n      jump\t// out\n        /* \"#utility.yul\":10973:11396   */\n    tag_66:\n        /* \"#utility.yul\":11114:11118   */\n      0x00\n        /* \"#utility.yul\":11152:11154   */\n      0x40\n        /* \"#utility.yul\":11141:11150   */\n      dup3\n        /* \"#utility.yul\":11137:11155   */\n      add\n        /* \"#utility.yul\":11129:11155   */\n      swap1\n      pop\n        /* \"#utility.yul\":11201:11210   */\n      dup2\n        /* \"#utility.yul\":11195:11199   */\n      dup2\n        /* \"#utility.yul\":11191:11211   */\n      sub\n        /* \"#utility.yul\":11187:11188   */\n      0x00\n        /* \"#utility.yul\":11176:11185   */\n      dup4\n        /* \"#utility.yul\":11172:11189   */\n      add\n        /* \"#utility.yul\":11165:11212   */\n      mstore\n        /* \"#utility.yul\":11229:11307   */\n      tag_264\n        /* \"#utility.yul\":11302:11306   */\n      dup2\n        /* \"#utility.yul\":11293:11299   */\n      dup6\n        /* \"#utility.yul\":11229:11307   */\n      tag_235\n      jump\t// in\n    tag_264:\n        /* \"#utility.yul\":11221:11307   */\n      swap1\n      pop\n        /* \"#utility.yul\":11317:11389   */\n      tag_265\n        /* \"#utility.yul\":11385:11387   */\n      0x20\n        /* \"#utility.yul\":11374:11383   */\n      dup4\n        /* \"#utility.yul\":11370:11388   */\n      add\n        /* \"#utility.yul\":11361:11367   */\n      dup5\n        /* \"#utility.yul\":11317:11389   */\n      tag_214\n      jump\t// in\n    tag_265:\n        /* \"#utility.yul\":10973:11396   */\n      swap4\n      swap3\n      pop\n      pop\n      pop\n      jump\t// out\n        /* \"#utility.yul\":11402:11935   */\n    tag_70:\n        /* \"#utility.yul\":11571:11575   */\n      0x00\n        /* \"#utility.yul\":11609:11611   */\n      0x60\n        /* \"#utility.yul\":11598:11607   */\n      dup3\n        /* \"#utility.yul\":11594:11612   */\n      add\n        /* \"#utility.yul\":11586:11612   */\n      swap1\n      pop\n        /* \"#utility.yul\":11658:11667   */\n      dup2\n        /* \"#utility.yul\":11652:11656   */\n      dup2\n        /* \"#utility.yul\":11648:11668   */\n      sub\n        /* \"#utility.yul\":11644:11645   */\n      0x00\n        /* \"#utility.yul\":11633:11642   */\n      dup4\n        /* \"#utility.yul\":11629:11646   */\n      add\n        /* \"#utility.yul\":11622:11669   */\n      mstore\n        /* \"#utility.yul\":11686:11764   */\n      tag_267\n        /* \"#utility.yul\":11759:11763   */\n      dup2\n        /* \"#utility.yul\":11750:11756   */\n      dup7\n        /* \"#utility.yul\":11686:11764   */\n      tag_235\n      jump\t// in\n    tag_267:\n        /* \"#utility.yul\":11678:11764   */\n      swap1\n      pop\n        /* \"#utility.yul\":11774:11846   */\n      tag_268\n        /* \"#utility.yul\":11842:11844   */\n      0x20\n        /* \"#utility.yul\":11831:11840   */\n      dup4\n        /* \"#utility.yul\":11827:11845   */\n      add\n        /* \"#utility.yul\":11818:11824   */\n      dup6\n        /* \"#utility.yul\":11774:11846   */\n      tag_214\n      jump\t// in\n    tag_268:\n        /* \"#utility.yul\":11856:11928   */\n      tag_269\n        /* \"#utility.yul\":11924:11926   */\n      0x40\n        /* \"#utility.yul\":11913:11922   */\n      dup4\n        /* \"#utility.yul\":11909:11927   */\n      add\n        /* \"#utility.yul\":11900:11906   */\n      dup5\n        /* \"#utility.yul\":11856:11928   */\n      tag_214\n      jump\t// in\n    tag_269:\n        /* \"#utility.yul\":11402:11935   */\n      swap5\n      swap4\n      pop\n      pop\n      pop\n      pop\n      jump\t// out\n        /* \"#utility.yul\":11941:12776   */\n    tag_42:\n        /* \"#utility.yul\":12210:12214   */\n      0x00\n        /* \"#utility.yul\":12248:12250   */\n      0x60\n        /* \"#utility.yul\":12237:12246   */\n      dup3\n        /* \"#utility.yul\":12233:12251   */\n      add\n        /* \"#utility.yul\":12225:12251   */\n      swap1\n      pop\n        /* \"#utility.yul\":12297:12306   */\n      dup2\n        /* \"#utility.yul\":12291:12295   */\n      dup2\n        /* \"#utility.yul\":12287:12307   */\n      sub\n        /* \"#utility.yul\":12283:12284   */\n      0x00\n        /* \"#utility.yul\":12272:12281   */\n      dup4\n        /* \"#utility.yul\":12268:12285   */\n      add\n        /* \"#utility.yul\":12261:12308   */\n      mstore\n        /* \"#utility.yul\":12325:12403   */\n      tag_271\n        /* \"#utility.yul\":12398:12402   */\n      dup2\n        /* \"#utility.yul\":12389:12395   */\n      dup7\n        /* \"#utility.yul\":12325:12403   */\n      tag_235\n      jump\t// in\n    tag_271:\n        /* \"#utility.yul\":12317:12403   */\n      swap1\n      pop\n        /* \"#utility.yul\":12450:12459   */\n      dup2\n        /* \"#utility.yul\":12444:12448   */\n      dup2\n        /* \"#utility.yul\":12440:12460   */\n      sub\n        /* \"#utility.yul\":12435:12437   */\n      0x20\n        /* \"#utility.yul\":12424:12433   */\n      dup4\n        /* \"#utility.yul\":12420:12438   */\n      add\n        /* \"#utility.yul\":12413:12461   */\n      mstore\n        /* \"#utility.yul\":12478:12586   */\n      tag_272\n        /* \"#utility.yul\":12581:12585   */\n      dup2\n        /* \"#utility.yul\":12572:12578   */\n      dup6\n        /* \"#utility.yul\":12478:12586   */\n      tag_217\n      jump\t// in\n    tag_272:\n        /* \"#utility.yul\":12470:12586   */\n      swap1\n      pop\n        /* \"#utility.yul\":12633:12642   */\n      dup2\n        /* \"#utility.yul\":12627:12631   */\n      dup2\n        /* \"#utility.yul\":12623:12643   */\n      sub\n        /* \"#utility.yul\":12618:12620   */\n      0x40\n        /* \"#utility.yul\":12607:12616   */\n      dup4\n        /* \"#utility.yul\":12603:12621   */\n      add\n        /* \"#utility.yul\":12596:12644   */\n      mstore\n        /* \"#utility.yul\":12661:12769   */\n      tag_273\n        /* \"#utility.yul\":12764:12768   */\n      dup2\n        /* \"#utility.yul\":12755:12761   */\n      dup5\n        /* \"#utility.yul\":12661:12769   */\n      tag_217\n      jump\t// in\n    tag_273:\n        /* \"#utility.yul\":12653:12769   */\n      swap1\n      pop\n        /* \"#utility.yul\":11941:12776   */\n      swap5\n      swap4\n      pop\n      pop\n      pop\n      pop\n      jump\t// out\n        /* \"#utility.yul\":12782:13004   */\n    tag_46:\n        /* \"#utility.yul\":12875:12879   */\n      0x00\n        /* \"#utility.yul\":12913:12915   */\n      0x20\n        /* \"#utility.yul\":12902:12911   */\n      dup3\n        /* \"#utility.yul\":12898:12916   */\n      add\n        /* \"#utility.yul\":12890:12916   */\n      swap1\n      pop\n        /* \"#utility.yul\":12926:12997   */\n      tag_275\n        /* \"#utility.yul\":12994:12995   */\n      0x00\n        /* \"#utility.yul\":12983:12992   */\n      dup4\n        /* \"#utility.yul\":12979:12996   */\n      add\n        /* \"#utility.yul\":12970:12976   */\n      dup5\n        /* \"#utility.yul\":12926:12997   */\n      tag_250\n      jump\t// in\n    tag_275:\n        /* \"#utility.yul\":12782:13004   */\n      swap3\n      swap2\n      pop\n      pop\n      jump\t// out\n        /* \"#utility.yul\":13010:13139   */\n    tag_102:\n        /* \"#utility.yul\":13044:13050   */\n      0x00\n        /* \"#utility.yul\":13071:13091   */\n      tag_277\n      tag_278\n      jump\t// in\n    tag_277:\n        /* \"#utility.yul\":13061:13091   */\n      swap1\n      pop\n        /* \"#utility.yul\":13100:13133   */\n      tag_279\n        /* \"#utility.yul\":13128:13132   */\n      dup3\n        /* \"#utility.yul\":13120:13126   */\n      dup3\n        /* \"#utility.yul\":13100:13133   */\n      tag_280\n      jump\t// in\n    tag_279:\n        /* \"#utility.yul\":13010:13139   */\n      swap2\n      swap1\n      pop\n      jump\t// out\n        /* \"#utility.yul\":13145:13220   */\n    tag_278:\n        /* \"#utility.yul\":13178:13184   */\n      0x00\n        /* \"#utility.yul\":13211:13213   */\n      0x40\n        /* \"#utility.yul\":13205:13214   */\n      mload\n        /* \"#utility.yul\":13195:13214   */\n      swap1\n      pop\n        /* \"#utility.yul\":13145:13220   */\n      swap1\n      jump\t// out\n        /* \"#utility.yul\":13226:13537   */\n    tag_101:\n        /* \"#utility.yul\":13303:13307   */\n      0x00\n        /* \"#utility.yul\":13393:13411   */\n      0xffffffffffffffff\n        /* \"#utility.yul\":13385:13391   */\n      dup3\n        /* \"#utility.yul\":13382:13412   */\n      gt\n        /* \"#utility.yul\":13379:13435   */\n      iszero\n      tag_283\n      jumpi\n        /* \"#utility.yul\":13415:13433   */\n      tag_284\n      tag_285\n      jump\t// in\n    tag_284:\n        /* \"#utility.yul\":13379:13435   */\n    tag_283:\n        /* \"#utility.yul\":13465:13469   */\n      0x20\n        /* \"#utility.yul\":13457:13463   */\n      dup3\n        /* \"#utility.yul\":13453:13470   */\n      mul\n        /* \"#utility.yul\":13445:13470   */\n      swap1\n      pop\n        /* \"#utility.yul\":13525:13529   */\n      0x20\n        /* \"#utility.yul\":13519:13523   */\n      dup2\n        /* \"#utility.yul\":13515:13530   */\n      add\n        /* \"#utility.yul\":13507:13530   */\n      swap1\n      pop\n        /* \"#utility.yul\":13226:13537   */\n      swap2\n      swap1\n      pop\n      jump\t// out\n        /* \"#utility.yul\":13543:13851   */\n    tag_115:\n        /* \"#utility.yul\":13605:13609   */\n      0x00\n        /* \"#utility.yul\":13695:13713   */\n      0xffffffffffffffff\n        /* \"#utility.yul\":13687:13693   */\n      dup3\n        /* \"#utility.yul\":13684:13714   */\n      gt\n        /* \"#utility.yul\":13681:13737   */\n      iszero\n      tag_287\n      jumpi\n        /* \"#utility.yul\":13717:13735   */\n      tag_288\n      tag_285\n      jump\t// in\n    tag_288:\n        /* \"#utility.yul\":13681:13737   */\n    tag_287:\n        /* \"#utility.yul\":13755:13784   */\n      tag_289\n        /* \"#utility.yul\":13777:13783   */\n      dup3\n        /* \"#utility.yul\":13755:13784   */\n      tag_243\n      jump\t// in\n    tag_289:\n        /* \"#utility.yul\":13747:13784   */\n      swap1\n      pop\n        /* \"#utility.yul\":13839:13843   */\n      0x20\n        /* \"#utility.yul\":13833:13837   */\n      dup2\n        /* \"#utility.yul\":13829:13844   */\n      add\n        /* \"#utility.yul\":13821:13844   */\n      swap1\n      pop\n        /* \"#utility.yul\":13543:13851   */\n      swap2\n      swap1\n      pop\n      jump\t// out\n        /* \"#utility.yul\":13857:13989   */\n    tag_224:\n        /* \"#utility.yul\":13924:13928   */\n      0x00\n        /* \"#utility.yul\":13947:13950   */\n      dup2\n        /* \"#utility.yul\":13939:13950   */\n      swap1\n      pop\n        /* \"#utility.yul\":13977:13981   */\n      0x20\n        /* \"#utility.yul\":13972:13975   */\n      dup3\n        /* \"#utility.yul\":13968:13982   */\n      add\n        /* \"#utility.yul\":13960:13982   */\n      swap1\n      pop\n        /* \"#utility.yul\":13857:13989   */\n      swap2\n      swap1\n      pop\n      jump\t// out\n        /* \"#utility.yul\":13995:14109   */\n    tag_220:\n        /* \"#utility.yul\":14062:14068   */\n      0x00\n        /* \"#utility.yul\":14096:14101   */\n      dup2\n        /* \"#utility.yul\":14090:14102   */\n      mload\n        /* \"#utility.yul\":14080:14102   */\n      swap1\n      pop\n        /* \"#utility.yul\":13995:14109   */\n      swap2\n      swap1\n      pop\n      jump\t// out\n        /* \"#utility.yul\":14115:14214   */\n    tag_238:\n        /* \"#utility.yul\":14167:14173   */\n      0x00\n        /* \"#utility.yul\":14201:14206   */\n      dup2\n        /* \"#utility.yul\":14195:14207   */\n      mload\n        /* \"#utility.yul\":14185:14207   */\n      swap1\n      pop\n        /* \"#utility.yul\":14115:14214   */\n      swap2\n      swap1\n      pop\n      jump\t// out\n        /* \"#utility.yul\":14220:14333   */\n    tag_230:\n        /* \"#utility.yul\":14290:14294   */\n      0x00\n        /* \"#utility.yul\":14322:14326   */\n      0x20\n        /* \"#utility.yul\":14317:14320   */\n      dup3\n        /* \"#utility.yul\":14313:14327   */\n      add\n        /* \"#utility.yul\":14305:14327   */\n      swap1\n      pop\n        /* \"#utility.yul\":14220:14333   */\n      swap2\n      swap1\n      pop\n      jump\t// out\n        /* \"#utility.yul\":14339:14523   */\n    tag_222:\n        /* \"#utility.yul\":14438:14449   */\n      0x00\n        /* \"#utility.yul\":14472:14478   */\n      dup3\n        /* \"#utility.yul\":14467:14470   */\n      dup3\n        /* \"#utility.yul\":14460:14479   */\n      mstore\n        /* \"#utility.yul\":14512:14516   */\n      0x20\n        /* \"#utility.yul\":14507:14510   */\n      dup3\n        /* \"#utility.yul\":14503:14517   */\n      add\n        /* \"#utility.yul\":14488:14517   */\n      swap1\n      pop\n        /* \"#utility.yul\":14339:14523   */\n      swap3\n      swap2\n      pop\n      pop\n      jump\t// out\n        /* \"#utility.yul\":14529:14698   */\n    tag_240:\n        /* \"#utility.yul\":14613:14624   */\n      0x00\n        /* \"#utility.yul\":14647:14653   */\n      dup3\n        /* \"#utility.yul\":14642:14645   */\n      dup3\n        /* \"#utility.yul\":14635:14654   */\n      mstore\n        /* \"#utility.yul\":14687:14691   */\n      0x20\n        /* \"#utility.yul\":14682:14685   */\n      dup3\n        /* \"#utility.yul\":14678:14692   */\n      add\n        /* \"#utility.yul\":14663:14692   */\n      swap1\n      pop\n        /* \"#utility.yul\":14529:14698   */\n      swap3\n      swap2\n      pop\n      pop\n      jump\t// out\n        /* \"#utility.yul\":14704:14852   */\n    tag_248:\n        /* \"#utility.yul\":14806:14817   */\n      0x00\n        /* \"#utility.yul\":14843:14846   */\n      dup2\n        /* \"#utility.yul\":14828:14846   */\n      swap1\n      pop\n        /* \"#utility.yul\":14704:14852   */\n      swap3\n      swap2\n      pop\n      pop\n      jump\t// out\n        /* \"#utility.yul\":14858:14954   */\n    tag_213:\n        /* \"#utility.yul\":14895:14902   */\n      0x00\n        /* \"#utility.yul\":14924:14948   */\n      tag_298\n        /* \"#utility.yul\":14942:14947   */\n      dup3\n        /* \"#utility.yul\":14924:14948   */\n      tag_299\n      jump\t// in\n    tag_298:\n        /* \"#utility.yul\":14913:14948   */\n      swap1\n      pop\n        /* \"#utility.yul\":14858:14954   */\n      swap2\n      swap1\n      pop\n      jump\t// out\n        /* \"#utility.yul\":14960:15050   */\n    tag_234:\n        /* \"#utility.yul\":14994:15001   */\n      0x00\n        /* \"#utility.yul\":15037:15042   */\n      dup2\n        /* \"#utility.yul\":15030:15043   */\n      iszero\n        /* \"#utility.yul\":15023:15044   */\n      iszero\n        /* \"#utility.yul\":15012:15044   */\n      swap1\n      pop\n        /* \"#utility.yul\":14960:15050   */\n      swap2\n      swap1\n      pop\n      jump\t// out\n        /* \"#utility.yul\":15056:15182   */\n    tag_299:\n        /* \"#utility.yul\":15093:15100   */\n      0x00\n        /* \"#utility.yul\":15133:15175   */\n      0xffffffffffffffffffffffffffffffffffffffff\n        /* \"#utility.yul\":15126:15131   */\n      dup3\n        /* \"#utility.yul\":15122:15176   */\n      and\n        /* \"#utility.yul\":15111:15176   */\n      swap1\n      pop\n        /* \"#utility.yul\":15056:15182   */\n      swap2\n      swap1\n      pop\n      jump\t// out\n        /* \"#utility.yul\":15188:15265   */\n    tag_253:\n        /* \"#utility.yul\":15225:15232   */\n      0x00\n        /* \"#utility.yul\":15254:15259   */\n      dup2\n        /* \"#utility.yul\":15243:15259   */\n      swap1\n      pop\n        /* \"#utility.yul\":15188:15265   */\n      swap2\n      swap1\n      pop\n      jump\t// out\n        /* \"#utility.yul\":15271:15425   */\n    tag_120:\n        /* \"#utility.yul\":15355:15361   */\n      dup3\n        /* \"#utility.yul\":15350:15353   */\n      dup2\n        /* \"#utility.yul\":15345:15348   */\n      dup4\n        /* \"#utility.yul\":15332:15362   */\n      calldatacopy\n        /* \"#utility.yul\":15417:15418   */\n      0x00\n        /* \"#utility.yul\":15408:15414   */\n      dup4\n        /* \"#utility.yul\":15403:15406   */\n      dup4\n        /* \"#utility.yul\":15399:15415   */\n      add\n        /* \"#utility.yul\":15392:15419   */\n      mstore\n        /* \"#utility.yul\":15271:15425   */\n      pop\n      pop\n      pop\n      jump\t// out\n        /* \"#utility.yul\":15431:15738   */\n    tag_128:\n        /* \"#utility.yul\":15499:15500   */\n      0x00\n        /* \"#utility.yul\":15509:15622   */\n    tag_305:\n        /* \"#utility.yul\":15523:15529   */\n      dup4\n        /* \"#utility.yul\":15520:15521   */\n      dup2\n        /* \"#utility.yul\":15517:15530   */\n      lt\n        /* \"#utility.yul\":15509:15622   */\n      iszero\n      tag_307\n      jumpi\n        /* \"#utility.yul\":15608:15609   */\n      dup1\n        /* \"#utility.yul\":15603:15606   */\n      dup3\n        /* \"#utility.yul\":15599:15610   */\n      add\n        /* \"#utility.yul\":15593:15611   */\n      mload\n        /* \"#utility.yul\":15589:15590   */\n      dup2\n        /* \"#utility.yul\":15584:15587   */\n      dup5\n        /* \"#utility.yul\":15580:15591   */\n      add\n        /* \"#utility.yul\":15573:15612   */\n      mstore\n        /* \"#utility.yul\":15545:15547   */\n      0x20\n        /* \"#utility.yul\":15542:15543   */\n      dup2\n        /* \"#utility.yul\":15538:15548   */\n      add\n        /* \"#utility.yul\":15533:15548   */\n      swap1\n      pop\n        /* \"#utility.yul\":15509:15622   */\n      jump(tag_305)\n    tag_307:\n        /* \"#utility.yul\":15640:15646   */\n      dup4\n        /* \"#utility.yul\":15637:15638   */\n      dup2\n        /* \"#utility.yul\":15634:15647   */\n      gt\n        /* \"#utility.yul\":15631:15732   */\n      iszero\n      tag_308\n      jumpi\n        /* \"#utility.yul\":15720:15721   */\n      0x00\n        /* \"#utility.yul\":15711:15717   */\n      dup5\n        /* \"#utility.yul\":15706:15709   */\n      dup5\n        /* \"#utility.yul\":15702:15718   */\n      add\n        /* \"#utility.yul\":15695:15722   */\n      mstore\n        /* \"#utility.yul\":15631:15732   */\n    tag_308:\n        /* \"#utility.yul\":15480:15738   */\n      pop\n        /* \"#utility.yul\":15431:15738   */\n      pop\n      pop\n      pop\n      jump\t// out\n        /* \"#utility.yul\":15744:16025   */\n    tag_280:\n        /* \"#utility.yul\":15827:15854   */\n      tag_310\n        /* \"#utility.yul\":15849:15853   */\n      dup3\n        /* \"#utility.yul\":15827:15854   */\n      tag_243\n      jump\t// in\n    tag_310:\n        /* \"#utility.yul\":15819:15825   */\n      dup2\n        /* \"#utility.yul\":15815:15855   */\n      add\n        /* \"#utility.yul\":15957:15963   */\n      dup2\n        /* \"#utility.yul\":15945:15955   */\n      dup2\n        /* \"#utility.yul\":15942:15964   */\n      lt\n        /* \"#utility.yul\":15921:15939   */\n      0xffffffffffffffff\n        /* \"#utility.yul\":15909:15919   */\n      dup3\n        /* \"#utility.yul\":15906:15940   */\n      gt\n        /* \"#utility.yul\":15903:15965   */\n      or\n        /* \"#utility.yul\":15900:15988   */\n      iszero\n      tag_311\n      jumpi\n        /* \"#utility.yul\":15968:15986   */\n      tag_312\n      tag_285\n      jump\t// in\n    tag_312:\n        /* \"#utility.yul\":15900:15988   */\n    tag_311:\n        /* \"#utility.yul\":16008:16018   */\n      dup1\n        /* \"#utility.yul\":16004:16006   */\n      0x40\n        /* \"#utility.yul\":15997:16019   */\n      mstore\n        /* \"#utility.yul\":15787:16025   */\n      pop\n        /* \"#utility.yul\":15744:16025   */\n      pop\n      pop\n      jump\t// out\n        /* \"#utility.yul\":16031:16264   */\n    tag_80:\n        /* \"#utility.yul\":16070:16073   */\n      0x00\n        /* \"#utility.yul\":16093:16117   */\n      tag_314\n        /* \"#utility.yul\":16111:16116   */\n      dup3\n        /* \"#utility.yul\":16093:16117   */\n      tag_253\n      jump\t// in\n    tag_314:\n        /* \"#utility.yul\":16084:16117   */\n      swap2\n      pop\n        /* \"#utility.yul\":16139:16205   */\n      0xffffffffffffffffffffffffffffffffffffffffffffffffffffffffffffffff\n        /* \"#utility.yul\":16132:16137   */\n      dup3\n        /* \"#utility.yul\":16129:16206   */\n      eq\n        /* \"#utility.yul\":16126:16229   */\n      iszero\n      tag_315\n      jumpi\n        /* \"#utility.yul\":16209:16227   */\n      tag_316\n      tag_317\n      jump\t// in\n    tag_316:\n        /* \"#utility.yul\":16126:16229   */\n    tag_315:\n        /* \"#utility.yul\":16256:16257   */\n      0x01\n        /* \"#utility.yul\":16249:16254   */\n      dup3\n        /* \"#utility.yul\":16245:16258   */\n      add\n        /* \"#utility.yul\":16238:16258   */\n      swap1\n      pop\n        /* \"#utility.yul\":16031:16264   */\n      swap2\n      swap1\n      pop\n      jump\t// out\n        /* \"#utility.yul\":16270:16450   */\n    tag_317:\n        /* \"#utility.yul\":16318:16395   */\n      0x4e487b7100000000000000000000000000000000000000000000000000000000\n        /* \"#utility.yul\":16315:16316   */\n      0x00\n        /* \"#utility.yul\":16308:16396   */\n      mstore\n        /* \"#utility.yul\":16415:16419   */\n      0x11\n        /* \"#utility.yul\":16412:16413   */\n      0x04\n        /* \"#utility.yul\":16405:16420   */\n      mstore\n        /* \"#utility.yul\":16439:16443   */\n      0x24\n        /* \"#utility.yul\":16436:16437   */\n      0x00\n        /* \"#utility.yul\":16429:16444   */\n      revert\n        /* \"#utility.yul\":16456:16636   */\n    tag_59:\n        /* \"#utility.yul\":16504:16581   */\n      0x4e487b7100000000000000000000000000000000000000000000000000000000\n        /* \"#utility.yul\":16501:16502   */\n      0x00\n        /* \"#utility.yul\":16494:16582   */\n      mstore\n        /* \"#utility.yul\":16601:16605   */\n      0x32\n        /* \"#utility.yul\":16598:16599   */\n      0x04\n        /* \"#utility.yul\":16591:16606   */\n      mstore\n        /* \"#utility.yul\":16625:16629   */\n      0x24\n        /* \"#utility.yul\":16622:16623   */\n      0x00\n        /* \"#utility.yul\":16615:16630   */\n      revert\n        /* \"#utility.yul\":16642:16822   */\n    tag_285:\n        /* \"#utility.yul\":16690:16767   */\n      0x4e487b7100000000000000000000000000000000000000000000000000000000\n        /* \"#utility.yul\":16687:16688   */\n      0x00\n        /* \"#utility.yul\":16680:16768   */\n      mstore\n        /* \"#utility.yul\":16787:16791   */\n      0x41\n        /* \"#utility.yul\":16784:16785   */\n      0x04\n        /* \"#utility.yul\":16777:16792   */\n      mstore\n        /* \"#utility.yul\":16811:16815   */\n      0x24\n        /* \"#utility.yul\":16808:16809   */\n      0x00\n        /* \"#utility.yul\":16801:16816   */\n      revert\n        /* \"#utility.yul\":16828:16945   */\n    tag_139:\n        /* \"#utility.yul\":16937:16938   */\n      0x00\n        /* \"#utility.yul\":16934:16935   */\n      dup1\n        /* \"#utility.yul\":16927:16939   */\n      revert\n        /* \"#utility.yul\":16951:17068   */\n    tag_105:\n        /* \"#utility.yul\":17060:17061   */\n      0x00\n        /* \"#utility.yul\":17057:17058   */\n      dup1\n        /* \"#utility.yul\":17050:17062   */\n      revert\n        /* \"#utility.yul\":17074:17191   */\n    tag_118:\n        /* \"#utility.yul\":17183:17184   */\n      0x00\n        /* \"#utility.yul\":17180:17181   */\n      dup1\n        /* \"#utility.yul\":17173:17185   */\n      revert\n        /* \"#utility.yul\":17197:17314   */\n    tag_174:\n        /* \"#utility.yul\":17306:17307   */\n      0x00\n        /* \"#utility.yul\":17303:17304   */\n      dup1\n        /* \"#utility.yul\":17296:17308   */\n      revert\n        /* \"#utility.yul\":17320:17437   */\n    tag_162:\n        /* \"#utility.yul\":17429:17430   */\n      0x00\n        /* \"#utility.yul\":17426:17427   */\n      dup1\n        /* \"#utility.yul\":17419:17431   */\n      revert\n        /* \"#utility.yul\":17443:17545   */\n    tag_243:\n        /* \"#utility.yul\":17484:17490   */\n      0x00\n        /* \"#utility.yul\":17535:17537   */\n      0x1f\n        /* \"#utility.yul\":17531:17538   */\n      not\n        /* \"#utility.yul\":17526:17528   */\n      0x1f\n        /* \"#utility.yul\":17519:17524   */\n      dup4\n        /* \"#utility.yul\":17515:17529   */\n      add\n        /* \"#utility.yul\":17511:17539   */\n      and\n        /* \"#utility.yul\":17501:17539   */\n      swap1\n      pop\n        /* \"#utility.yul\":17443:17545   */\n      swap2\n      swap1\n      pop\n      jump\t// out\n        /* \"#utility.yul\":17551:17673   */\n    tag_132:\n        /* \"#utility.yul\":17624:17648   */\n      tag_328\n        /* \"#utility.yul\":17642:17647   */\n      dup2\n        /* \"#utility.yul\":17624:17648   */\n      tag_213\n      jump\t// in\n    tag_328:\n        /* \"#utility.yul\":17617:17622   */\n      dup2\n        /* \"#utility.yul\":17614:17649   */\n      eq\n        /* \"#utility.yul\":17604:17667   */\n      tag_329\n      jumpi\n        /* \"#utility.yul\":17663:17664   */\n      0x00\n        /* \"#utility.yul\":17660:17661   */\n      dup1\n        /* \"#utility.yul\":17653:17665   */\n      revert\n        /* \"#utility.yul\":17604:17667   */\n    tag_329:\n        /* \"#utility.yul\":17551:17673   */\n      pop\n      jump\t// out\n        /* \"#utility.yul\":17679:17795   */\n    tag_144:\n        /* \"#utility.yul\":17749:17770   */\n      tag_331\n        /* \"#utility.yul\":17764:17769   */\n      dup2\n        /* \"#utility.yul\":17749:17770   */\n      tag_234\n      jump\t// in\n    tag_331:\n        /* \"#utility.yul\":17742:17747   */\n      dup2\n        /* \"#utility.yul\":17739:17771   */\n      eq\n        /* \"#utility.yul\":17729:17789   */\n      tag_332\n      jumpi\n        /* \"#utility.yul\":17785:17786   */\n      0x00\n        /* \"#utility.yul\":17782:17783   */\n      dup1\n        /* \"#utility.yul\":17775:17787   */\n      revert\n        /* \"#utility.yul\":17729:17789   */\n    tag_332:\n        /* \"#utility.yul\":17679:17795   */\n      pop\n      jump\t// out\n        /* \"#utility.yul\":17801:17923   */\n    tag_158:\n        /* \"#utility.yul\":17874:17898   */\n      tag_334\n        /* \"#utility.yul\":17892:17897   */\n      dup2\n        /* \"#utility.yul\":17874:17898   */\n      tag_253\n      jump\t// in\n    tag_334:\n        /* \"#utility.yul\":17867:17872   */\n      dup2\n        /* \"#utility.yul\":17864:17899   */\n      eq\n        /* \"#utility.yul\":17854:17917   */\n      tag_335\n      jumpi\n        /* \"#utility.yul\":17913:17914   */\n      0x00\n        /* \"#utility.yul\":17910:17911   */\n      dup1\n        /* \"#utility.yul\":17903:17915   */\n      revert\n        /* \"#utility.yul\":17854:17917   */\n    tag_335:\n        /* \"#utility.yul\":17801:17923   */\n      pop\n      jump\t// out\n    stop\n\n    sub_0: assembly {\n            /* \"anli/evidence/evidence.sol\":270:2519  contract Evidence {... */\n          mstore(0x40, 0x80)\n            /* \"anli/evidence/evidence.sol\":784:1057  constructor(string memory _evi, address _factory) {... */\n          callvalue\n          dup1\n          iszero\n          tag_1\n          jumpi\n          0x00\n          dup1\n          revert\n        tag_1:\n          pop\n          mload(0x40)\n          sub(codesize, bytecodeSize)\n          dup1\n          bytecodeSize\n          dup4\n          codecopy\n          dup2\n          dup2\n          add\n          0x40\n          mstore\n          dup2\n          add\n          swap1\n          tag_2\n          swap2\n          swap1\n          tag_3\n          jump\t// in\n        tag_2:\n            /* \"anli/evidence/evidence.sol\":858:866  _factory */\n          dup1\n            /* \"anli/evidence/evidence.sol\":844:855  factoryAddr */\n          0x02\n          0x00\n            /* \"anli/evidence/evidence.sol\":844:866  factoryAddr = _factory */\n          0x0100\n          exp\n          dup2\n          sload\n          dup2\n          0xffffffffffffffffffffffffffffffffffffffff\n          mul\n          not\n          and\n          swap1\n          dup4\n          0xffffffffffffffffffffffffffffffffffffffff\n          and\n          mul\n          or\n          swap1\n          sstore\n          pop\n            /* \"anli/evidence/evidence.sol\":884:905  callVerify(tx.origin) */\n          tag_6\n            /* \"anli/evidence/evidence.sol\":895:904  tx.origin */\n          origin\n            /* \"anli/evidence/evidence.sol\":884:894  callVerify */\n          shl(0x20, tag_7)\n            /* \"anli/evidence/evidence.sol\":884:905  callVerify(tx.origin) */\n          0x20\n          shr\n          jump\t// in\n        tag_6:\n            /* \"anli/evidence/evidence.sol\":876:930  require(callVerify(tx.origin), \"_signer is not valid\") */\n          tag_8\n          jumpi\n          mload(0x40)\n          0x08c379a000000000000000000000000000000000000000000000000000000000\n          dup2\n          mstore\n          0x04\n          add\n          tag_9\n          swap1\n          tag_10\n          jump\t// in\n        tag_9:\n          mload(0x40)\n          dup1\n          swap2\n          sub\n          swap1\n          revert\n        tag_8:\n            /* \"anli/evidence/evidence.sol\":951:955  _evi */\n          dup2\n            /* \"anli/evidence/evidence.sol\":940:948  evidence */\n          0x00\n            /* \"anli/evidence/evidence.sol\":940:955  evidence = _evi */\n          swap1\n          dup1\n          mload\n          swap1\n          0x20\n          add\n          swap1\n          tag_11\n          swap3\n          swap2\n          swap1\n          tag_12\n          jump\t// in\n        tag_11:\n          pop\n            /* \"anli/evidence/evidence.sol\":965:972  signers */\n          0x01\n            /* \"anli/evidence/evidence.sol\":978:987  tx.origin */\n          origin\n            /* \"anli/evidence/evidence.sol\":965:988  signers.push(tx.origin) */\n          swap1\n          dup1\n          0x01\n          dup2\n          sload\n          add\n          dup1\n          dup3\n          sstore\n          dup1\n          swap2\n          pop\n          pop\n          0x01\n          swap1\n          sub\n          swap1\n          0x00\n          mstore\n          keccak256(0x00, 0x20)\n          add\n          0x00\n          swap1\n          swap2\n          swap1\n          swap2\n          swap1\n          swap2\n          0x0100\n          exp\n          dup2\n          sload\n          dup2\n          0xffffffffffffffffffffffffffffffffffffffff\n          mul\n          not\n          and\n          swap1\n          dup4\n          0xffffffffffffffffffffffffffffffffffffffff\n          and\n          mul\n          or\n          swap1\n          sstore\n          pop\n            /* \"anli/evidence/evidence.sol\":1012:1050  NewSignaturesEvidence(_evi, tx.origin) */\n          0xa34d8f872132d193d2e62e18648026516cd6a9d599cb2f07eda0fd5ab16f1627\n            /* \"anli/evidence/evidence.sol\":1034:1038  _evi */\n          dup3\n            /* \"anli/evidence/evidence.sol\":1040:1049  tx.origin */\n          origin\n            /* \"anli/evidence/evidence.sol\":1012:1050  NewSignaturesEvidence(_evi, tx.origin) */\n          mload(0x40)\n          tag_14\n          swap3\n          swap2\n          swap1\n          tag_15\n          jump\t// in\n        tag_14:\n          mload(0x40)\n          dup1\n          swap2\n          sub\n          swap1\n          log1\n            /* \"anli/evidence/evidence.sol\":784:1057  constructor(string memory _evi, address _factory) {... */\n          pop\n          pop\n            /* \"anli/evidence/evidence.sol\":270:2519  contract Evidence {... */\n          jump(tag_16)\n            /* \"anli/evidence/evidence.sol\":637:762  function callVerify(address _signer) public view returns (bool) {... */\n        tag_7:\n            /* \"anli/evidence/evidence.sol\":695:699  bool */\n          0x00\n            /* \"anli/evidence/evidence.sol\":727:738  factoryAddr */\n          0x02\n          0x00\n          swap1\n          sload\n          swap1\n          0x0100\n          exp\n          swap1\n          div\n          0xffffffffffffffffffffffffffffffffffffffff\n          and\n            /* \"anli/evidence/evidence.sol\":718:746  IEvdence(factoryAddr).verify */\n          0xffffffffffffffffffffffffffffffffffffffff\n          and\n          0x63a9c3d7\n            /* \"anli/evidence/evidence.sol\":747:754  _signer */\n          dup4\n            /* \"anli/evidence/evidence.sol\":718:755  IEvdence(factoryAddr).verify(_signer) */\n          mload(0x40)\n          dup3\n          0xffffffff\n          and\n          0xe0\n          shl\n          dup2\n          mstore\n          0x04\n          add\n          tag_18\n          swap2\n          swap1\n          tag_19\n          jump\t// in\n        tag_18:\n          0x20\n          mload(0x40)\n          dup1\n          dup4\n          sub\n          dup2\n          dup7\n          dup1\n          extcodesize\n          iszero\n          dup1\n          iszero\n          tag_20\n          jumpi\n          0x00\n          dup1\n          revert\n        tag_20:\n          pop\n          gas\n          staticcall\n          iszero\n          dup1\n          iszero\n          tag_22\n          jumpi\n          returndatasize\n          0x00\n          dup1\n          returndatacopy\n          revert(0x00, returndatasize)\n        tag_22:\n          pop\n          pop\n          pop\n          pop\n          mload(0x40)\n          returndatasize\n          not(0x1f)\n          0x1f\n          dup3\n          add\n          and\n          dup3\n          add\n          dup1\n          0x40\n          mstore\n          pop\n          dup2\n          add\n          swap1\n          tag_23\n          swap2\n          swap1\n          tag_24\n          jump\t// in\n        tag_23:\n            /* \"anli/evidence/evidence.sol\":711:755  return IEvdence(factoryAddr).verify(_signer) */\n          swap1\n          pop\n            /* \"anli/evidence/evidence.sol\":637:762  function callVerify(address _signer) public view returns (bool) {... */\n          swap2\n          swap1\n          pop\n          jump\t// out\n            /* \"anli/evidence/evidence.sol\":270:2519  contract Evidence {... */\n        tag_12:\n          dup3\n          dup1\n          sload\n          tag_25\n          swap1\n          tag_26\n          jump\t// in\n        tag_25:\n          swap1\n          0x00\n          mstore\n          keccak256(0x00, 0x20)\n          swap1\n          0x1f\n          add\n          0x20\n          swap1\n          div\n          dup2\n          add\n          swap3\n          dup3\n          tag_28\n          jumpi\n          0x00\n          dup6\n          sstore\n          jump(tag_27)\n        tag_28:\n          dup3\n          0x1f\n          lt\n          tag_29\n          jumpi\n          dup1\n          mload\n          not(0xff)\n          and\n          dup4\n          dup1\n          add\n          or\n          dup6\n          sstore\n          jump(tag_27)\n        tag_29:\n          dup3\n          dup1\n          add\n          0x01\n          add\n          dup6\n          sstore\n          dup3\n          iszero\n          tag_27\n          jumpi\n          swap2\n          dup3\n          add\n        tag_30:\n          dup3\n          dup2\n          gt\n          iszero\n          tag_31\n          jumpi\n          dup3\n          mload\n          dup3\n          sstore\n          swap2\n          0x20\n          add\n          swap2\n          swap1\n          0x01\n          add\n          swap1\n          jump(tag_30)\n        tag_31:\n        tag_27:\n          pop\n          swap1\n          pop\n          tag_32\n          swap2\n          swap1\n          tag_33\n          jump\t// in\n        tag_32:\n          pop\n          swap1\n          jump\t// out\n        tag_33:\n        tag_34:\n          dup1\n          dup3\n          gt\n          iszero\n          tag_35\n          jumpi\n          0x00\n          dup2\n          0x00\n          swap1\n          sstore\n          pop\n          0x01\n          add\n          jump(tag_34)\n        tag_35:\n          pop\n          swap1\n          jump\t// out\n            /* \"#utility.yul\":7:428   */\n        tag_37:\n            /* \"#utility.yul\":96:101   */\n          0x00\n            /* \"#utility.yul\":121:187   */\n          tag_39\n            /* \"#utility.yul\":137:186   */\n          tag_40\n            /* \"#utility.yul\":179:185   */\n          dup5\n            /* \"#utility.yul\":137:186   */\n          tag_41\n          jump\t// in\n        tag_40:\n            /* \"#utility.yul\":121:187   */\n          tag_42\n          jump\t// in\n        tag_39:\n            /* \"#utility.yul\":112:187   */\n          swap1\n          pop\n            /* \"#utility.yul\":210:216   */\n          dup3\n            /* \"#utility.yul\":203:208   */\n          dup2\n            /* \"#utility.yul\":196:217   */\n          mstore\n            /* \"#utility.yul\":248:252   */\n          0x20\n            /* \"#utility.yul\":241:246   */\n          dup2\n            /* \"#utility.yul\":237:253   */\n          add\n            /* \"#utility.yul\":286:289   */\n          dup5\n            /* \"#utility.yul\":277:283   */\n          dup5\n            /* \"#utility.yul\":272:275   */\n          dup5\n            /* \"#utility.yul\":268:284   */\n          add\n            /* \"#utility.yul\":265:290   */\n          gt\n            /* \"#utility.yul\":262:374   */\n          iszero\n          tag_43\n          jumpi\n            /* \"#utility.yul\":293:372   */\n          tag_44\n          tag_45\n          jump\t// in\n        tag_44:\n            /* \"#utility.yul\":262:374   */\n        tag_43:\n            /* \"#utility.yul\":383:422   */\n          tag_46\n            /* \"#utility.yul\":415:421   */\n          dup5\n            /* \"#utility.yul\":410:413   */\n          dup3\n            /* \"#utility.yul\":405:408   */\n          dup6\n            /* \"#utility.yul\":383:422   */\n          tag_47\n          jump\t// in\n        tag_46:\n            /* \"#utility.yul\":102:428   */\n          pop\n            /* \"#utility.yul\":7:428   */\n          swap4\n          swap3\n          pop\n          pop\n          pop\n          jump\t// out\n            /* \"#utility.yul\":434:577   */\n        tag_48:\n            /* \"#utility.yul\":491:496   */\n          0x00\n            /* \"#utility.yul\":522:528   */\n          dup2\n            /* \"#utility.yul\":516:529   */\n          mload\n            /* \"#utility.yul\":507:529   */\n          swap1\n          pop\n            /* \"#utility.yul\":538:571   */\n          tag_50\n            /* \"#utility.yul\":565:570   */\n          dup2\n            /* \"#utility.yul\":538:571   */\n          tag_51\n          jump\t// in\n        tag_50:\n            /* \"#utility.yul\":434:577   */\n          swap3\n          swap2\n          pop\n          pop\n          jump\t// out\n            /* \"#utility.yul\":583:720   */\n        tag_52:\n            /* \"#utility.yul\":637:642   */\n          0x00\n            /* \"#utility.yul\":668:674   */\n          dup2\n            /* \"#utility.yul\":662:675   */\n          mload\n            /* \"#utility.yul\":653:675   */\n          swap1\n          pop\n            /* \"#utility.yul\":684:714   */\n          tag_54\n            /* \"#utility.yul\":708:713   */\n          dup2\n            /* \"#utility.yul\":684:714   */\n          tag_55\n          jump\t// in\n        tag_54:\n            /* \"#utility.yul\":583:720   */\n          swap3\n          swap2\n          pop\n          pop\n          jump\t// out\n            /* \"#utility.yul\":740:1095   */\n        tag_56:\n            /* \"#utility.yul\":807:812   */\n          0x00\n            /* \"#utility.yul\":856:859   */\n          dup3\n            /* \"#utility.yul\":849:853   */\n          0x1f\n            /* \"#utility.yul\":841:847   */\n          dup4\n            /* \"#utility.yul\":837:854   */\n          add\n            /* \"#utility.yul\":833:860   */\n          slt\n            /* \"#utility.yul\":823:945   */\n          tag_58\n          jumpi\n            /* \"#utility.yul\":864:943   */\n          tag_59\n          tag_60\n          jump\t// in\n        tag_59:\n            /* \"#utility.yul\":823:945   */\n        tag_58:\n            /* \"#utility.yul\":974:980   */\n          dup2\n            /* \"#utility.yul\":968:981   */\n          mload\n            /* \"#utility.yul\":999:1089   */\n          tag_61\n            /* \"#utility.yul\":1085:1088   */\n          dup5\n            /* \"#utility.yul\":1077:1083   */\n          dup3\n            /* \"#utility.yul\":1070:1074   */\n          0x20\n            /* \"#utility.yul\":1062:1068   */\n          dup7\n            /* \"#utility.yul\":1058:1075   */\n          add\n            /* \"#utility.yul\":999:1089   */\n          tag_37\n          jump\t// in\n        tag_61:\n            /* \"#utility.yul\":990:1089   */\n          swap2\n          pop\n            /* \"#utility.yul\":813:1095   */\n          pop\n            /* \"#utility.yul\":740:1095   */\n          swap3\n          swap2\n          pop\n          pop\n          jump\t// out\n            /* \"#utility.yul\":1101:1446   */\n        tag_24:\n            /* \"#utility.yul\":1168:1174   */\n          0x00\n            /* \"#utility.yul\":1217:1219   */\n          0x20\n            /* \"#utility.yul\":1205:1214   */\n          dup3\n            /* \"#utility.yul\":1196:1203   */\n          dup5\n            /* \"#utility.yul\":1192:1215   */\n          sub\n            /* \"#utility.yul\":1188:1220   */\n          slt\n            /* \"#utility.yul\":1185:1304   */\n          iszero\n          tag_63\n          jumpi\n            /* \"#utility.yul\":1223:1302   */\n          tag_64\n          tag_65\n          jump\t// in\n        tag_64:\n            /* \"#utility.yul\":1185:1304   */\n        tag_63:\n            /* \"#utility.yul\":1343:1344   */\n          0x00\n            /* \"#utility.yul\":1368:1429   */\n          tag_66\n            /* \"#utility.yul\":1421:1428   */\n          dup5\n            /* \"#utility.yul\":1412:1418   */\n          dup3\n            /* \"#utility.yul\":1401:1410   */\n          dup6\n            /* \"#utility.yul\":1397:1419   */\n          add\n            /* \"#utility.yul\":1368:1429   */\n          tag_52\n          jump\t// in\n        tag_66:\n            /* \"#utility.yul\":1358:1429   */\n          swap2\n          pop\n            /* \"#utility.yul\":1314:1439   */\n          pop\n            /* \"#utility.yul\":1101:1446   */\n          swap3\n          swap2\n          pop\n          pop\n          jump\t// out\n            /* \"#utility.yul\":1452:2132   */\n        tag_3:\n            /* \"#utility.yul\":1541:1547   */\n          0x00\n            /* \"#utility.yul\":1549:1555   */\n          dup1\n            /* \"#utility.yul\":1598:1600   */\n          0x40\n            /* \"#utility.yul\":1586:1595   */\n          dup4\n            /* \"#utility.yul\":1577:1584   */\n          dup6\n            /* \"#utility.yul\":1573:1596   */\n          sub\n            /* \"#utility.yul\":1569:1601   */\n          slt\n            /* \"#utility.yul\":1566:1685   */\n          iszero\n          tag_68\n          jumpi\n            /* \"#utility.yul\":1604:1683   */\n          tag_69\n          tag_65\n          jump\t// in\n        tag_69:\n            /* \"#utility.yul\":1566:1685   */\n        tag_68:\n            /* \"#utility.yul\":1745:1746   */\n          0x00\n            /* \"#utility.yul\":1734:1743   */\n          dup4\n            /* \"#utility.yul\":1730:1747   */\n          add\n            /* \"#utility.yul\":1724:1748   */\n          mload\n            /* \"#utility.yul\":1775:1793   */\n          0xffffffffffffffff\n            /* \"#utility.yul\":1767:1773   */\n          dup2\n            /* \"#utility.yul\":1764:1794   */\n          gt\n            /* \"#utility.yul\":1761:1878   */\n          iszero\n          tag_70\n          jumpi\n            /* \"#utility.yul\":1797:1876   */\n          tag_71\n          tag_72\n          jump\t// in\n        tag_71:\n            /* \"#utility.yul\":1761:1878   */\n        tag_70:\n            /* \"#utility.yul\":1902:1976   */\n          tag_73\n            /* \"#utility.yul\":1968:1975   */\n          dup6\n            /* \"#utility.yul\":1959:1965   */\n          dup3\n            /* \"#utility.yul\":1948:1957   */\n          dup7\n            /* \"#utility.yul\":1944:1966   */\n          add\n            /* \"#utility.yul\":1902:1976   */\n          tag_56\n          jump\t// in\n        tag_73:\n            /* \"#utility.yul\":1892:1976   */\n          swap3\n          pop\n            /* \"#utility.yul\":1695:1986   */\n          pop\n            /* \"#utility.yul\":2025:2027   */\n          0x20\n            /* \"#utility.yul\":2051:2115   */\n          tag_74\n            /* \"#utility.yul\":2107:2114   */\n          dup6\n            /* \"#utility.yul\":2098:2104   */\n          dup3\n            /* \"#utility.yul\":2087:2096   */\n          dup7\n            /* \"#utility.yul\":2083:2105   */\n          add\n            /* \"#utility.yul\":2051:2115   */\n          tag_48\n          jump\t// in\n        tag_74:\n            /* \"#utility.yul\":2041:2115   */\n          swap2\n          pop\n            /* \"#utility.yul\":1996:2125   */\n          pop\n            /* \"#utility.yul\":1452:2132   */\n          swap3\n          pop\n          swap3\n          swap1\n          pop\n          jump\t// out\n            /* \"#utility.yul\":2138:2256   */\n        tag_75:\n            /* \"#utility.yul\":2225:2249   */\n          tag_77\n            /* \"#utility.yul\":2243:2248   */\n          dup2\n            /* \"#utility.yul\":2225:2249   */\n          tag_78\n          jump\t// in\n        tag_77:\n            /* \"#utility.yul\":2220:2223   */\n          dup3\n            /* \"#utility.yul\":2213:2250   */\n          mstore\n            /* \"#utility.yul\":2138:2256   */\n          pop\n          pop\n          jump\t// out\n            /* \"#utility.yul\":2262:2626   */\n        tag_79:\n            /* \"#utility.yul\":2350:2353   */\n          0x00\n            /* \"#utility.yul\":2378:2417   */\n          tag_81\n            /* \"#utility.yul\":2411:2416   */\n          dup3\n            /* \"#utility.yul\":2378:2417   */\n          tag_82\n          jump\t// in\n        tag_81:\n            /* \"#utility.yul\":2433:2504   */\n          tag_83\n            /* \"#utility.yul\":2497:2503   */\n          dup2\n            /* \"#utility.yul\":2492:2495   */\n          dup6\n            /* \"#utility.yul\":2433:2504   */\n          tag_84\n          jump\t// in\n        tag_83:\n            /* \"#utility.yul\":2426:2504   */\n          swap4\n          pop\n            /* \"#utility.yul\":2513:2565   */\n          tag_85\n            /* \"#utility.yul\":2558:2564   */\n          dup2\n            /* \"#utility.yul\":2553:2556   */\n          dup6\n            /* \"#utility.yul\":2546:2550   */\n          0x20\n            /* \"#utility.yul\":2539:2544   */\n          dup7\n            /* \"#utility.yul\":2535:2551   */\n          add\n            /* \"#utility.yul\":2513:2565   */\n          tag_47\n          jump\t// in\n        tag_85:\n            /* \"#utility.yul\":2590:2619   */\n          tag_86\n            /* \"#utility.yul\":2612:2618   */\n          dup2\n            /* \"#utility.yul\":2590:2619   */\n          tag_87\n          jump\t// in\n        tag_86:\n            /* \"#utility.yul\":2585:2588   */\n          dup5\n            /* \"#utility.yul\":2581:2620   */\n          add\n            /* \"#utility.yul\":2574:2620   */\n          swap2\n          pop\n            /* \"#utility.yul\":2354:2626   */\n          pop\n            /* \"#utility.yul\":2262:2626   */\n          swap3\n          swap2\n          pop\n          pop\n          jump\t// out\n            /* \"#utility.yul\":2632:2998   */\n        tag_88:\n            /* \"#utility.yul\":2774:2777   */\n          0x00\n            /* \"#utility.yul\":2795:2862   */\n          tag_90\n            /* \"#utility.yul\":2859:2861   */\n          0x14\n            /* \"#utility.yul\":2854:2857   */\n          dup4\n            /* \"#utility.yul\":2795:2862   */\n          tag_84\n          jump\t// in\n        tag_90:\n            /* \"#utility.yul\":2788:2862   */\n          swap2\n          pop\n            /* \"#utility.yul\":2871:2964   */\n          tag_91\n            /* \"#utility.yul\":2960:2963   */\n          dup3\n            /* \"#utility.yul\":2871:2964   */\n          tag_92\n          jump\t// in\n        tag_91:\n            /* \"#utility.yul\":2989:2991   */\n          0x20\n            /* \"#utility.yul\":2984:2987   */\n          dup3\n            /* \"#utility.yul\":2980:2992   */\n          add\n            /* \"#utility.yul\":2973:2992   */\n          swap1\n          pop\n            /* \"#utility.yul\":2632:2998   */\n          swap2\n          swap1\n          pop\n          jump\t// out\n            /* \"#utility.yul\":3004:3226   */\n        tag_19:\n            /* \"#utility.yul\":3097:3101   */\n          0x00\n            /* \"#utility.yul\":3135:3137   */\n          0x20\n            /* \"#utility.yul\":3124:3133   */\n          dup3\n            /* \"#utility.yul\":3120:3138   */\n          add\n            /* \"#utility.yul\":3112:3138   */\n          swap1\n          pop\n            /* \"#utility.yul\":3148:3219   */\n          tag_94\n            /* \"#utility.yul\":3216:3217   */\n          0x00\n            /* \"#utility.yul\":3205:3214   */\n          dup4\n            /* \"#utility.yul\":3201:3218   */\n          add\n            /* \"#utility.yul\":3192:3198   */\n          dup5\n            /* \"#utility.yul\":3148:3219   */\n          tag_75\n          jump\t// in\n        tag_94:\n            /* \"#utility.yul\":3004:3226   */\n          swap3\n          swap2\n          pop\n          pop\n          jump\t// out\n            /* \"#utility.yul\":3232:3655   */\n        tag_15:\n            /* \"#utility.yul\":3373:3377   */\n          0x00\n            /* \"#utility.yul\":3411:3413   */\n          0x40\n            /* \"#utility.yul\":3400:3409   */\n          dup3\n            /* \"#utility.yul\":3396:3414   */\n          add\n            /* \"#utility.yul\":3388:3414   */\n          swap1\n          pop\n            /* \"#utility.yul\":3460:3469   */\n          dup2\n            /* \"#utility.yul\":3454:3458   */\n          dup2\n            /* \"#utility.yul\":3450:3470   */\n          sub\n            /* \"#utility.yul\":3446:3447   */\n          0x00\n            /* \"#utility.yul\":3435:3444   */\n          dup4\n            /* \"#utility.yul\":3431:3448   */\n          add\n            /* \"#utility.yul\":3424:3471   */\n          mstore\n            /* \"#utility.yul\":3488:3566   */\n          tag_96\n            /* \"#utility.yul\":3561:3565   */\n          dup2\n            /* \"#utility.yul\":3552:3558   */\n          dup6\n            /* \"#utility.yul\":3488:3566   */\n          tag_79\n          jump\t// in\n        tag_96:\n            /* \"#utility.yul\":3480:3566   */\n          swap1\n          pop\n            /* \"#utility.yul\":3576:3648   */\n          tag_97\n            /* \"#utility.yul\":3644:3646   */\n          0x20\n            /* \"#utility.yul\":3633:3642   */\n          dup4\n            /* \"#utility.yul\":3629:3647   */\n          add\n            /* \"#utility.yul\":3620:3626   */\n          dup5\n            /* \"#utility.yul\":3576:3648   */\n          tag_75\n          jump\t// in\n        tag_97:\n            /* \"#utility.yul\":3232:3655   */\n          swap4\n          swap3\n          pop\n          pop\n          pop\n          jump\t// out\n            /* \"#utility.yul\":3661:4080   */\n        tag_10:\n            /* \"#utility.yul\":3827:3831   */\n          0x00\n            /* \"#utility.yul\":3865:3867   */\n          0x20\n            /* \"#utility.yul\":3854:3863   */\n          dup3\n            /* \"#utility.yul\":3850:3868   */\n          add\n            /* \"#utility.yul\":3842:3868   */\n          swap1\n          pop\n            /* \"#utility.yul\":3914:3923   */\n          dup2\n            /* \"#utility.yul\":3908:3912   */\n          dup2\n            /* \"#utility.yul\":3904:3924   */\n          sub\n            /* \"#utility.yul\":3900:3901   */\n          0x00\n            /* \"#utility.yul\":3889:3898   */\n          dup4\n            /* \"#utility.yul\":3885:3902   */\n          add\n            /* \"#utility.yul\":3878:3925   */\n          mstore\n            /* \"#utility.yul\":3942:4073   */\n          tag_99\n            /* \"#utility.yul\":4068:4072   */\n          dup2\n            /* \"#utility.yul\":3942:4073   */\n          tag_88\n          jump\t// in\n        tag_99:\n            /* \"#utility.yul\":3934:4073   */\n          swap1\n          pop\n            /* \"#utility.yul\":3661:4080   */\n          swap2\n          swap1\n          pop\n          jump\t// out\n            /* \"#utility.yul\":4086:4215   */\n        tag_42:\n            /* \"#utility.yul\":4120:4126   */\n          0x00\n            /* \"#utility.yul\":4147:4167   */\n          tag_101\n          tag_102\n          jump\t// in\n        tag_101:\n            /* \"#utility.yul\":4137:4167   */\n          swap1\n          pop\n            /* \"#utility.yul\":4176:4209   */\n          tag_103\n            /* \"#utility.yul\":4204:4208   */\n          dup3\n            /* \"#utility.yul\":4196:4202   */\n          dup3\n            /* \"#utility.yul\":4176:4209   */\n          tag_104\n          jump\t// in\n        tag_103:\n            /* \"#utility.yul\":4086:4215   */\n          swap2\n          swap1\n          pop\n          jump\t// out\n            /* \"#utility.yul\":4221:4296   */\n        tag_102:\n            /* \"#utility.yul\":4254:4260   */\n          0x00\n            /* \"#utility.yul\":4287:4289   */\n          0x40\n            /* \"#utility.yul\":4281:4290   */\n          mload\n            /* \"#utility.yul\":4271:4290   */\n          swap1\n          pop\n            /* \"#utility.yul\":4221:4296   */\n          swap1\n          jump\t// out\n            /* \"#utility.yul\":4302:4610   */\n        tag_41:\n            /* \"#utility.yul\":4364:4368   */\n          0x00\n            /* \"#utility.yul\":4454:4472   */\n          0xffffffffffffffff\n            /* \"#utility.yul\":4446:4452   */\n          dup3\n            /* \"#utility.yul\":4443:4473   */\n          gt\n            /* \"#utility.yul\":4440:4496   */\n          iszero\n          tag_107\n          jumpi\n            /* \"#utility.yul\":4476:4494   */\n          tag_108\n          tag_109\n          jump\t// in\n        tag_108:\n            /* \"#utility.yul\":4440:4496   */\n        tag_107:\n            /* \"#utility.yul\":4514:4543   */\n          tag_110\n            /* \"#utility.yul\":4536:4542   */\n          dup3\n            /* \"#utility.yul\":4514:4543   */\n          tag_87\n          jump\t// in\n        tag_110:\n            /* \"#utility.yul\":4506:4543   */\n          swap1\n          pop\n            /* \"#utility.yul\":4598:4602   */\n          0x20\n            /* \"#utility.yul\":4592:4596   */\n          dup2\n            /* \"#utility.yul\":4588:4603   */\n          add\n            /* \"#utility.yul\":4580:4603   */\n          swap1\n          pop\n            /* \"#utility.yul\":4302:4610   */\n          swap2\n          swap1\n          pop\n          jump\t// out\n            /* \"#utility.yul\":4616:4715   */\n        tag_82:\n            /* \"#utility.yul\":4668:4674   */\n          0x00\n            /* \"#utility.yul\":4702:4707   */\n          dup2\n            /* \"#utility.yul\":4696:4708   */\n          mload\n            /* \"#utility.yul\":4686:4708   */\n          swap1\n          pop\n            /* \"#utility.yul\":4616:4715   */\n          swap2\n          swap1\n          pop\n          jump\t// out\n            /* \"#utility.yul\":4721:4890   */\n        tag_84:\n            /* \"#utility.yul\":4805:4816   */\n          0x00\n            /* \"#utility.yul\":4839:4845   */\n          dup3\n            /* \"#utility.yul\":4834:4837   */\n          dup3\n            /* \"#utility.yul\":4827:4846   */\n          mstore\n            /* \"#utility.yul\":4879:4883   */\n          0x20\n            /* \"#utility.yul\":4874:4877   */\n          dup3\n            /* \"#utility.yul\":4870:4884   */\n          add\n            /* \"#utility.yul\":4855:4884   */\n          swap1\n          pop\n            /* \"#utility.yul\":4721:4890   */\n          swap3\n          swap2\n          pop\n          pop\n          jump\t// out\n            /* \"#utility.yul\":4896:4992   */\n        tag_78:\n            /* \"#utility.yul\":4933:4940   */\n          0x00\n            /* \"#utility.yul\":4962:4986   */\n          tag_114\n            /* \"#utility.yul\":4980:4985   */\n          dup3\n            /* \"#utility.yul\":4962:4986   */\n          tag_115\n          jump\t// in\n        tag_114:\n            /* \"#utility.yul\":4951:4986   */\n          swap1\n          pop\n            /* \"#utility.yul\":4896:4992   */\n          swap2\n          swap1\n          pop\n          jump\t// out\n            /* \"#utility.yul\":4998:5088   */\n        tag_116:\n            /* \"#utility.yul\":5032:5039   */\n          0x00\n            /* \"#utility.yul\":5075:5080   */\n          dup2\n            /* \"#utility.yul\":5068:5081   */\n          iszero\n            /* \"#utility.yul\":5061:5082   */\n          iszero\n            /* \"#utility.yul\":5050:5082   */\n          swap1\n          pop\n            /* \"#utility.yul\":4998:5088   */\n          swap2\n          swap1\n          pop\n          jump\t// out\n            /* \"#utility.yul\":5094:5220   */\n        tag_115:\n            /* \"#utility.yul\":5131:5138   */\n          0x00\n            /* \"#utility.yul\":5171:5213   */\n          0xffffffffffffffffffffffffffffffffffffffff\n            /* \"#utility.yul\":5164:5169   */\n          dup3\n            /* \"#utility.yul\":5160:5214   */\n          and\n            /* \"#utility.yul\":5149:5214   */\n          swap1\n          pop\n            /* \"#utility.yul\":5094:5220   */\n          swap2\n          swap1\n          pop\n          jump\t// out\n            /* \"#utility.yul\":5226:5533   */\n        tag_47:\n            /* \"#utility.yul\":5294:5295   */\n          0x00\n            /* \"#utility.yul\":5304:5417   */\n        tag_120:\n            /* \"#utility.yul\":5318:5324   */\n          dup4\n            /* \"#utility.yul\":5315:5316   */\n          dup2\n            /* \"#utility.yul\":5312:5325   */\n          lt\n            /* \"#utility.yul\":5304:5417   */\n          iszero\n          tag_122\n          jumpi\n            /* \"#utility.yul\":5403:5404   */\n          dup1\n            /* \"#utility.yul\":5398:5401   */\n          dup3\n            /* \"#utility.yul\":5394:5405   */\n          add\n            /* \"#utility.yul\":5388:5406   */\n          mload\n            /* \"#utility.yul\":5384:5385   */\n          dup2\n            /* \"#utility.yul\":5379:5382   */\n          dup5\n            /* \"#utility.yul\":5375:5386   */\n          add\n            /* \"#utility.yul\":5368:5407   */\n          mstore\n            /* \"#utility.yul\":5340:5342   */\n          0x20\n            /* \"#utility.yul\":5337:5338   */\n          dup2\n            /* \"#utility.yul\":5333:5343   */\n          add\n            /* \"#utility.yul\":5328:5343   */\n          swap1\n          pop\n            /* \"#utility.yul\":5304:5417   */\n          jump(tag_120)\n        tag_122:\n            /* \"#utility.yul\":5435:5441   */\n          dup4\n            /* \"#utility.yul\":5432:5433   */\n          dup2\n            /* \"#utility.yul\":5429:5442   */\n          gt\n            /* \"#utility.yul\":5426:5527   */\n          iszero\n          tag_123\n          jumpi\n            /* \"#utility.yul\":5515:5516   */\n          0x00\n            /* \"#utility.yul\":5506:5512   */\n          dup5\n            /* \"#utility.yul\":5501:5504   */\n          dup5\n            /* \"#utility.yul\":5497:5513   */\n          add\n            /* \"#utility.yul\":5490:5517   */\n          mstore\n            /* \"#utility.yul\":5426:5527   */\n        tag_123:\n            /* \"#utility.yul\":5275:5533   */\n          pop\n            /* \"#utility.yul\":5226:5533   */\n          pop\n          pop\n          pop\n          jump\t// out\n            /* \"#utility.yul\":5539:5859   */\n        tag_26:\n            /* \"#utility.yul\":5583:5589   */\n          0x00\n            /* \"#utility.yul\":5620:5621   */\n          0x02\n            /* \"#utility.yul\":5614:5618   */\n          dup3\n            /* \"#utility.yul\":5610:5622   */\n          div\n            /* \"#utility.yul\":5600:5622   */\n          swap1\n          pop\n            /* \"#utility.yul\":5667:5668   */\n          0x01\n            /* \"#utility.yul\":5661:5665   */\n          dup3\n            /* \"#utility.yul\":5657:5669   */\n          and\n            /* \"#utility.yul\":5688:5706   */\n          dup1\n            /* \"#utility.yul\":5678:5759   */\n          tag_125\n          jumpi\n            /* \"#utility.yul\":5744:5748   */\n          0x7f\n            /* \"#utility.yul\":5736:5742   */\n          dup3\n            /* \"#utility.yul\":5732:5749   */\n          and\n            /* \"#utility.yul\":5722:5749   */\n          swap2\n          pop\n            /* \"#utility.yul\":5678:5759   */\n        tag_125:\n            /* \"#utility.yul\":5806:5808   */\n          0x20\n            /* \"#utility.yul\":5798:5804   */\n          dup3\n            /* \"#utility.yul\":5795:5809   */\n          lt\n            /* \"#utility.yul\":5775:5793   */\n          dup2\n            /* \"#utility.yul\":5772:5810   */\n          eq\n            /* \"#utility.yul\":5769:5853   */\n          iszero\n          tag_126\n          jumpi\n            /* \"#utility.yul\":5825:5843   */\n          tag_127\n          tag_128\n          jump\t// in\n        tag_127:\n            /* \"#utility.yul\":5769:5853   */\n        tag_126:\n            /* \"#utility.yul\":5590:5859   */\n          pop\n            /* \"#utility.yul\":5539:5859   */\n          swap2\n          swap1\n          pop\n          jump\t// out\n            /* \"#utility.yul\":5865:6146   */\n        tag_104:\n            /* \"#utility.yul\":5948:5975   */\n          tag_130\n            /* \"#utility.yul\":5970:5974   */\n          dup3\n            /* \"#utility.yul\":5948:5975   */\n          tag_87\n          jump\t// in\n        tag_130:\n            /* \"#utility.yul\":5940:5946   */\n          dup2\n            /* \"#utility.yul\":5936:5976   */\n          add\n            /* \"#utility.yul\":6078:6084   */\n          dup2\n            /* \"#utility.yul\":6066:6076   */\n          dup2\n            /* \"#utility.yul\":6063:6085   */\n          lt\n            /* \"#utility.yul\":6042:6060   */\n          0xffffffffffffffff\n            /* \"#utility.yul\":6030:6040   */\n          dup3\n            /* \"#utility.yul\":6027:6061   */\n          gt\n            /* \"#utility.yul\":6024:6086   */\n          or\n            /* \"#utility.yul\":6021:6109   */\n          iszero\n          tag_131\n          jumpi\n            /* \"#utility.yul\":6089:6107   */\n          tag_132\n          tag_109\n          jump\t// in\n        tag_132:\n            /* \"#utility.yul\":6021:6109   */\n        tag_131:\n            /* \"#utility.yul\":6129:6139   */\n          dup1\n            /* \"#utility.yul\":6125:6127   */\n          0x40\n            /* \"#utility.yul\":6118:6140   */\n          mstore\n            /* \"#utility.yul\":5908:6146   */\n          pop\n            /* \"#utility.yul\":5865:6146   */\n          pop\n          pop\n          jump\t// out\n            /* \"#utility.yul\":6152:6332   */\n        tag_128:\n            /* \"#utility.yul\":6200:6277   */\n          0x4e487b7100000000000000000000000000000000000000000000000000000000\n            /* \"#utility.yul\":6197:6198   */\n          0x00\n            /* \"#utility.yul\":6190:6278   */\n          mstore\n            /* \"#utility.yul\":6297:6301   */\n          0x22\n            /* \"#utility.yul\":6294:6295   */\n          0x04\n            /* \"#utility.yul\":6287:6302   */\n          mstore\n            /* \"#utility.yul\":6321:6325   */\n          0x24\n            /* \"#utility.yul\":6318:6319   */\n          0x00\n            /* \"#utility.yul\":6311:6326   */\n          revert\n            /* \"#utility.yul\":6338:6518   */\n        tag_109:\n            /* \"#utility.yul\":6386:6463   */\n          0x4e487b7100000000000000000000000000000000000000000000000000000000\n            /* \"#utility.yul\":6383:6384   */\n          0x00\n            /* \"#utility.yul\":6376:6464   */\n          mstore\n            /* \"#utility.yul\":6483:6487   */\n          0x41\n            /* \"#utility.yul\":6480:6481   */\n          0x04\n            /* \"#utility.yul\":6473:6488   */\n          mstore\n            /* \"#utility.yul\":6507:6511   */\n          0x24\n            /* \"#utility.yul\":6504:6505   */\n          0x00\n            /* \"#utility.yul\":6497:6512   */\n          revert\n            /* \"#utility.yul\":6524:6641   */\n        tag_60:\n            /* \"#utility.yul\":6633:6634   */\n          0x00\n            /* \"#utility.yul\":6630:6631   */\n          dup1\n            /* \"#utility.yul\":6623:6635   */\n          revert\n            /* \"#utility.yul\":6647:6764   */\n        tag_45:\n            /* \"#utility.yul\":6756:6757   */\n          0x00\n            /* \"#utility.yul\":6753:6754   */\n          dup1\n            /* \"#utility.yul\":6746:6758   */\n          revert\n            /* \"#utility.yul\":6770:6887   */\n        tag_72:\n            /* \"#utility.yul\":6879:6880   */\n          0x00\n            /* \"#utility.yul\":6876:6877   */\n          dup1\n            /* \"#utility.yul\":6869:6881   */\n          revert\n            /* \"#utility.yul\":6893:7010   */\n        tag_65:\n            /* \"#utility.yul\":7002:7003   */\n          0x00\n            /* \"#utility.yul\":6999:7000   */\n          dup1\n            /* \"#utility.yul\":6992:7004   */\n          revert\n            /* \"#utility.yul\":7016:7118   */\n        tag_87:\n            /* \"#utility.yul\":7057:7063   */\n          0x00\n            /* \"#utility.yul\":7108:7110   */\n          0x1f\n            /* \"#utility.yul\":7104:7111   */\n          not\n            /* \"#utility.yul\":7099:7101   */\n          0x1f\n            /* \"#utility.yul\":7092:7097   */\n          dup4\n            /* \"#utility.yul\":7088:7102   */\n          add\n            /* \"#utility.yul\":7084:7112   */\n          and\n            /* \"#utility.yul\":7074:7112   */\n          swap1\n          pop\n            /* \"#utility.yul\":7016:7118   */\n          swap2\n          swap1\n          pop\n          jump\t// out\n            /* \"#utility.yul\":7124:7294   */\n        tag_92:\n            /* \"#utility.yul\":7264:7286   */\n          0x5f7369676e6572206973206e6f742076616c6964000000000000000000000000\n            /* \"#utility.yul\":7260:7261   */\n          0x00\n            /* \"#utility.yul\":7252:7258   */\n          dup3\n            /* \"#utility.yul\":7248:7262   */\n          add\n            /* \"#utility.yul\":7241:7287   */\n          mstore\n            /* \"#utility.yul\":7124:7294   */\n          pop\n          jump\t// out\n            /* \"#utility.yul\":7300:7422   */\n        tag_51:\n            /* \"#utility.yul\":7373:7397   */\n          tag_142\n            /* \"#utility.yul\":7391:7396   */\n          dup2\n            /* \"#utility.yul\":7373:7397   */\n          tag_78\n          jump\t// in\n        tag_142:\n            /* \"#utility.yul\":7366:7371   */\n          dup2\n            /* \"#utility.yul\":7363:7398   */\n          eq\n            /* \"#utility.yul\":7353:7416   */\n          tag_143\n          jumpi\n            /* \"#utility.yul\":7412:7413   */\n          0x00\n            /* \"#utility.yul\":7409:7410   */\n          dup1\n            /* \"#utility.yul\":7402:7414   */\n          revert\n            /* \"#utility.yul\":7353:7416   */\n        tag_143:\n            /* \"#utility.yul\":7300:7422   */\n          pop\n          jump\t// out\n            /* \"#utility.yul\":7428:7544   */\n        tag_55:\n            /* \"#utility.yul\":7498:7519   */\n          tag_145\n            /* \"#utility.yul\":7513:7518   */\n          dup2\n            /* \"#utility.yul\":7498:7519   */\n          tag_116\n          jump\t// in\n        tag_145:\n            /* \"#utility.yul\":7491:7496   */\n          dup2\n            /* \"#utility.yul\":7488:7520   */\n          eq\n            /* \"#utility.yul\":7478:7538   */\n          tag_146\n          jumpi\n            /* \"#utility.yul\":7534:7535   */\n          0x00\n            /* \"#utility.yul\":7531:7532   */\n          dup1\n            /* \"#utility.yul\":7524:7536   */\n          revert\n            /* \"#utility.yul\":7478:7538   */\n        tag_146:\n            /* \"#utility.yul\":7428:7544   */\n          pop\n          jump\t// out\n            /* \"anli/evidence/evidence.sol\":270:2519  contract Evidence {... */\n        tag_16:\n          dataSize(sub_0)\n          dup1\n          dataOffset(sub_0)\n          0x00\n          codecopy\n          0x00\n          return\n        stop\n\n        sub_0: assembly {\n                /* \"anli/evidence/evidence.sol\":270:2519  contract Evidence {... */\n              mstore(0x40, 0x80)\n              callvalue\n              dup1\n              iszero\n              tag_1\n              jumpi\n              0x00\n              dup1\n              revert\n            tag_1:\n              pop\n              jumpi(tag_2, lt(calldatasize, 0x04))\n              shr(0xe0, calldataload(0x00))\n              dup1\n              0x2ca15122\n              eq\n              tag_3\n              jumpi\n              dup1\n              0x3c68af3e\n              eq\n              tag_4\n              jumpi\n              dup1\n              0x50ca0928\n              eq\n              tag_5\n              jumpi\n              dup1\n              0x596f21f8\n              eq\n              tag_6\n              jumpi\n              dup1\n              0x963671be\n              eq\n              tag_7\n              jumpi\n            tag_2:\n              0x00\n              dup1\n              revert\n                /* \"anli/evidence/evidence.sol\":1507:1864  function sign() public returns (bool)  {... */\n            tag_3:\n              tag_8\n              tag_9\n              jump\t// in\n            tag_8:\n              mload(0x40)\n              tag_10\n              swap2\n              swap1\n              tag_11\n              jump\t// in\n            tag_10:\n              mload(0x40)\n              dup1\n              swap2\n              sub\n              swap1\n              return\n                /* \"anli/evidence/evidence.sol\":2159:2507  function isAllSigned() public view returns (bool, string memory) {... */\n            tag_4:\n              tag_12\n              tag_13\n              jump\t// in\n            tag_12:\n              mload(0x40)\n              tag_14\n              swap3\n              swap2\n              swap1\n              tag_15\n              jump\t// in\n            tag_14:\n              mload(0x40)\n              dup1\n              swap2\n              sub\n              swap1\n              return\n                /* \"anli/evidence/evidence.sol\":637:762  function callVerify(address _signer) public view returns (bool) {... */\n            tag_5:\n              tag_16\n              0x04\n              dup1\n              calldatasize\n              sub\n              dup2\n              add\n              swap1\n              tag_17\n              swap2\n              swap1\n              tag_18\n              jump\t// in\n            tag_17:\n              tag_19\n              jump\t// in\n            tag_16:\n              mload(0x40)\n              tag_20\n              swap2\n              swap1\n              tag_11\n              jump\t// in\n            tag_20:\n              mload(0x40)\n              dup1\n              swap2\n              sub\n              swap1\n              return\n                /* \"anli/evidence/evidence.sol\":1081:1484  function getEvidence() public view returns (string memory, address[] memory, address[] memory) {... */\n            tag_6:\n              tag_21\n              tag_22\n              jump\t// in\n            tag_21:\n              mload(0x40)\n              tag_23\n              swap4\n              swap3\n              swap2\n              swap1\n              tag_24\n              jump\t// in\n            tag_23:\n              mload(0x40)\n              dup1\n              swap2\n              sub\n              swap1\n              return\n                /* \"anli/evidence/evidence.sol\":380:406  address public factoryAddr */\n            tag_7:\n              tag_25\n              tag_26\n              jump\t// in\n            tag_25:\n              mload(0x40)\n              tag_27\n              swap2\n              swap1\n              tag_28\n              jump\t// in\n            tag_27:\n              mload(0x40)\n              dup1\n              swap2\n              sub\n              swap1\n              return\n                /* \"anli/evidence/evidence.sol\":1507:1864  function sign() public returns (bool)  {... */\n            tag_9:\n                /* \"anli/evidence/evidence.sol\":1539:1543  bool */\n              0x00\n                /* \"anli/evidence/evidence.sol\":1564:1585  callVerify(tx.origin) */\n              tag_30\n                /* \"anli/evidence/evidence.sol\":1575:1584  tx.origin */\n              origin\n                /* \"anli/evidence/evidence.sol\":1564:1574  callVerify */\n              tag_19\n                /* \"anli/evidence/evidence.sol\":1564:1585  callVerify(tx.origin) */\n              jump\t// in\n            tag_30:\n                /* \"anli/evidence/evidence.sol\":1556:1610  require(callVerify(tx.origin), \"_signer is not valid\") */\n              tag_31\n              jumpi\n              mload(0x40)\n              0x08c379a000000000000000000000000000000000000000000000000000000000\n              dup2\n              mstore\n              0x04\n              add\n              tag_32\n              swap1\n              tag_33\n              jump\t// in\n            tag_32:\n              mload(0x40)\n              dup1\n              swap2\n              sub\n              swap1\n              revert\n            tag_31:\n                /* \"anli/evidence/evidence.sol\":1623:1642  isSigned(tx.origin) */\n              tag_34\n                /* \"anli/evidence/evidence.sol\":1632:1641  tx.origin */\n              origin\n                /* \"anli/evidence/evidence.sol\":1623:1631  isSigned */\n              tag_35\n                /* \"anli/evidence/evidence.sol\":1623:1642  isSigned(tx.origin) */\n              jump\t// in\n            tag_34:\n                /* \"anli/evidence/evidence.sol\":1620:1747  if(isSigned(tx.origin)) {... */\n              iszero\n              tag_36\n              jumpi\n                /* \"anli/evidence/evidence.sol\":1663:1711  AddRepeatSignaturesEvidence(evidence, tx.origin) */\n              0x57bb3fead2451e6a3a5680e94e3dba9642a2ea6e850811bf18feccc94c5968a9\n                /* \"anli/evidence/evidence.sol\":1691:1699  evidence */\n              0x00\n                /* \"anli/evidence/evidence.sol\":1701:1710  tx.origin */\n              origin\n                /* \"anli/evidence/evidence.sol\":1663:1711  AddRepeatSignaturesEvidence(evidence, tx.origin) */\n              mload(0x40)\n              tag_37\n              swap3\n              swap2\n              swap1\n              tag_38\n              jump\t// in\n            tag_37:\n              mload(0x40)\n              dup1\n              swap2\n              sub\n              swap1\n              log1\n                /* \"anli/evidence/evidence.sol\":1732:1736  true */\n              0x01\n                /* \"anli/evidence/evidence.sol\":1725:1736  return true */\n              swap1\n              pop\n              jump(tag_29)\n                /* \"anli/evidence/evidence.sol\":1620:1747  if(isSigned(tx.origin)) {... */\n            tag_36:\n                /* \"anli/evidence/evidence.sol\":1756:1763  signers */\n              0x01\n                /* \"anli/evidence/evidence.sol\":1769:1778  tx.origin */\n              origin\n                /* \"anli/evidence/evidence.sol\":1756:1779  signers.push(tx.origin) */\n              swap1\n              dup1\n              0x01\n              dup2\n              sload\n              add\n              dup1\n              dup3\n              sstore\n              dup1\n              swap2\n              pop\n              pop\n              0x01\n              swap1\n              sub\n              swap1\n              0x00\n              mstore\n              keccak256(0x00, 0x20)\n              add\n              0x00\n              swap1\n              swap2\n              swap1\n              swap2\n              swap1\n              swap2\n              0x0100\n              exp\n              dup2\n              sload\n              dup2\n              0xffffffffffffffffffffffffffffffffffffffff\n              mul\n              not\n              and\n              swap1\n              dup4\n              0xffffffffffffffffffffffffffffffffffffffff\n              and\n              mul\n              or\n              swap1\n              sstore\n              pop\n                /* \"anli/evidence/evidence.sol\":1794:1836  AddSignaturesEvidence(evidence, tx.origin) */\n              0xb05e84f77f10ca9cd0a42f11422685a81fb7997e8c2500733527f8c2ee56ab29\n                /* \"anli/evidence/evidence.sol\":1816:1824  evidence */\n              0x00\n                /* \"anli/evidence/evidence.sol\":1826:1835  tx.origin */\n              origin\n                /* \"anli/evidence/evidence.sol\":1794:1836  AddSignaturesEvidence(evidence, tx.origin) */\n              mload(0x40)\n              tag_40\n              swap3\n              swap2\n              swap1\n              tag_38\n              jump\t// in\n            tag_40:\n              mload(0x40)\n              dup1\n              swap2\n              sub\n              swap1\n              log1\n                /* \"anli/evidence/evidence.sol\":1853:1857  true */\n              0x01\n                /* \"anli/evidence/evidence.sol\":1846:1857  return true */\n              swap1\n              pop\n                /* \"anli/evidence/evidence.sol\":1507:1864  function sign() public returns (bool)  {... */\n            tag_29:\n              swap1\n              jump\t// out\n                /* \"anli/evidence/evidence.sol\":2159:2507  function isAllSigned() public view returns (bool, string memory) {... */\n            tag_13:\n                /* \"anli/evidence/evidence.sol\":2203:2207  bool */\n              0x00\n                /* \"anli/evidence/evidence.sol\":2209:2222  string memory */\n              0x60\n                /* \"anli/evidence/evidence.sol\":2234:2247  uint256 iSize */\n              0x00\n                /* \"anli/evidence/evidence.sol\":2259:2270  factoryAddr */\n              0x02\n              0x00\n              swap1\n              sload\n              swap1\n              0x0100\n              exp\n              swap1\n              div\n              0xffffffffffffffffffffffffffffffffffffffff\n              and\n                /* \"anli/evidence/evidence.sol\":2250:2286  IEvdence(factoryAddr).getSignersSize */\n              0xffffffffffffffffffffffffffffffffffffffff\n              and\n              0xfa69efbd\n                /* \"anli/evidence/evidence.sol\":2250:2288  IEvdence(factoryAddr).getSignersSize() */\n              mload(0x40)\n              dup2\n              0xffffffff\n              and\n              0xe0\n              shl\n              dup2\n              mstore\n              0x04\n              add\n              0x20\n              mload(0x40)\n              dup1\n              dup4\n              sub\n              dup2\n              dup7\n              dup1\n              extcodesize\n              iszero\n              dup1\n              iszero\n              tag_42\n              jumpi\n              0x00\n              dup1\n              revert\n            tag_42:\n              pop\n              gas\n              staticcall\n              iszero\n              dup1\n              iszero\n              tag_44\n              jumpi\n              returndatasize\n              0x00\n              dup1\n              returndatacopy\n              revert(0x00, returndatasize)\n            tag_44:\n              pop\n              pop\n              pop\n              pop\n              mload(0x40)\n              returndatasize\n              not(0x1f)\n              0x1f\n              dup3\n              add\n              and\n              dup3\n              add\n              dup1\n              0x40\n              mstore\n              pop\n              dup2\n              add\n              swap1\n              tag_45\n              swap2\n              swap1\n              tag_46\n              jump\t// in\n            tag_45:\n                /* \"anli/evidence/evidence.sol\":2234:2288  uint256 iSize = IEvdence(factoryAddr).getSignersSize() */\n              swap1\n              pop\n                /* \"anli/evidence/evidence.sol\":2302:2311  uint256 i */\n              0x00\n                /* \"anli/evidence/evidence.sol\":2298:2459  for(uint256 i = 0; i < iSize; i ++) {... */\n            tag_47:\n                /* \"anli/evidence/evidence.sol\":2321:2326  iSize */\n              dup2\n                /* \"anli/evidence/evidence.sol\":2317:2318  i */\n              dup2\n                /* \"anli/evidence/evidence.sol\":2317:2326  i < iSize */\n              lt\n                /* \"anli/evidence/evidence.sol\":2298:2459  for(uint256 i = 0; i < iSize; i ++) {... */\n              iszero\n              tag_48\n              jumpi\n                /* \"anli/evidence/evidence.sol\":2352:2396  isSigned(IEvdence(factoryAddr).getSigner(i)) */\n              tag_50\n                /* \"anli/evidence/evidence.sol\":2370:2381  factoryAddr */\n              0x02\n              0x00\n              swap1\n              sload\n              swap1\n              0x0100\n              exp\n              swap1\n              div\n              0xffffffffffffffffffffffffffffffffffffffff\n              and\n                /* \"anli/evidence/evidence.sol\":2361:2392  IEvdence(factoryAddr).getSigner */\n              0xffffffffffffffffffffffffffffffffffffffff\n              and\n              0x3ffefe4e\n                /* \"anli/evidence/evidence.sol\":2393:2394  i */\n              dup4\n                /* \"anli/evidence/evidence.sol\":2361:2395  IEvdence(factoryAddr).getSigner(i) */\n              mload(0x40)\n              dup3\n              0xffffffff\n              and\n              0xe0\n              shl\n              dup2\n              mstore\n              0x04\n              add\n              tag_51\n              swap2\n              swap1\n              tag_52\n              jump\t// in\n            tag_51:\n              0x20\n              mload(0x40)\n              dup1\n              dup4\n              sub\n              dup2\n              dup7\n              dup1\n              extcodesize\n              iszero\n              dup1\n              iszero\n              tag_53\n              jumpi\n              0x00\n              dup1\n              revert\n            tag_53:\n              pop\n              gas\n              staticcall\n              iszero\n              dup1\n              iszero\n              tag_55\n              jumpi\n              returndatasize\n              0x00\n              dup1\n              returndatacopy\n              revert(0x00, returndatasize)\n            tag_55:\n              pop\n              pop\n              pop\n              pop\n              mload(0x40)\n              returndatasize\n              not(0x1f)\n              0x1f\n              dup3\n              add\n              and\n              dup3\n              add\n              dup1\n              0x40\n              mstore\n              pop\n              dup2\n              add\n              swap1\n              tag_56\n              swap2\n              swap1\n              tag_57\n              jump\t// in\n            tag_56:\n                /* \"anli/evidence/evidence.sol\":2352:2360  isSigned */\n              tag_35\n                /* \"anli/evidence/evidence.sol\":2352:2396  isSigned(IEvdence(factoryAddr).getSigner(i)) */\n              jump\t// in\n            tag_50:\n                /* \"anli/evidence/evidence.sol\":2348:2449  if(!isSigned(IEvdence(factoryAddr).getSigner(i))) {... */\n              tag_58\n              jumpi\n                /* \"anli/evidence/evidence.sol\":2424:2429  false */\n              0x00\n                /* \"anli/evidence/evidence.sol\":2416:2434  return (false, \"\") */\n              mload(0x40)\n              dup1\n              0x20\n              add\n              0x40\n              mstore\n              dup1\n              0x00\n              dup2\n              mstore\n              pop\n              swap4\n              pop\n              swap4\n              pop\n              pop\n              pop\n              jump(tag_41)\n                /* \"anli/evidence/evidence.sol\":2348:2449  if(!isSigned(IEvdence(factoryAddr).getSigner(i))) {... */\n            tag_58:\n                /* \"anli/evidence/evidence.sol\":2328:2332  i ++ */\n              dup1\n              dup1\n              tag_59\n              swap1\n              tag_60\n              jump\t// in\n            tag_59:\n              swap2\n              pop\n              pop\n                /* \"anli/evidence/evidence.sol\":2298:2459  for(uint256 i = 0; i < iSize; i ++) {... */\n              jump(tag_47)\n            tag_48:\n              pop\n                /* \"anli/evidence/evidence.sol\":2485:2489  true */\n              0x01\n                /* \"anli/evidence/evidence.sol\":2491:2499  evidence */\n              0x00\n                /* \"anli/evidence/evidence.sol\":2477:2500  return (true, evidence) */\n              dup1\n              dup1\n              sload\n              tag_61\n              swap1\n              tag_62\n              jump\t// in\n            tag_61:\n              dup1\n              0x1f\n              add\n              0x20\n              dup1\n              swap2\n              div\n              mul\n              0x20\n              add\n              mload(0x40)\n              swap1\n              dup2\n              add\n              0x40\n              mstore\n              dup1\n              swap3\n              swap2\n              swap1\n              dup2\n              dup2\n              mstore\n              0x20\n              add\n              dup3\n              dup1\n              sload\n              tag_63\n              swap1\n              tag_62\n              jump\t// in\n            tag_63:\n              dup1\n              iszero\n              tag_64\n              jumpi\n              dup1\n              0x1f\n              lt\n              tag_65\n              jumpi\n              0x0100\n              dup1\n              dup4\n              sload\n              div\n              mul\n              dup4\n              mstore\n              swap2\n              0x20\n              add\n              swap2\n              jump(tag_64)\n            tag_65:\n              dup3\n              add\n              swap2\n              swap1\n              0x00\n              mstore\n              keccak256(0x00, 0x20)\n              swap1\n            tag_66:\n              dup2\n              sload\n              dup2\n              mstore\n              swap1\n              0x01\n              add\n              swap1\n              0x20\n              add\n              dup1\n              dup4\n              gt\n              tag_66\n              jumpi\n              dup3\n              swap1\n              sub\n              0x1f\n              and\n              dup3\n              add\n              swap2\n            tag_64:\n              pop\n              pop\n              pop\n              pop\n              pop\n              swap1\n              pop\n              swap3\n              pop\n              swap3\n              pop\n              pop\n                /* \"anli/evidence/evidence.sol\":2159:2507  function isAllSigned() public view returns (bool, string memory) {... */\n            tag_41:\n              swap1\n              swap2\n              jump\t// out\n                /* \"anli/evidence/evidence.sol\":637:762  function callVerify(address _signer) public view returns (bool) {... */\n            tag_19:\n                /* \"anli/evidence/evidence.sol\":695:699  bool */\n              0x00\n                /* \"anli/evidence/evidence.sol\":727:738  factoryAddr */\n              0x02\n              0x00\n              swap1\n              sload\n              swap1\n              0x0100\n              exp\n              swap1\n              div\n              0xffffffffffffffffffffffffffffffffffffffff\n              and\n                /* \"anli/evidence/evidence.sol\":718:746  IEvdence(factoryAddr).verify */\n              0xffffffffffffffffffffffffffffffffffffffff\n              and\n              0x63a9c3d7\n                /* \"anli/evidence/evidence.sol\":747:754  _signer */\n              dup4\n                /* \"anli/evidence/evidence.sol\":718:755  IEvdence(factoryAddr).verify(_signer) */\n              mload(0x40)\n              dup3\n              0xffffffff\n              and\n              0xe0\n              shl\n              dup2\n              mstore\n              0x04\n              add\n              tag_68\n              swap2\n              swap1\n              tag_28\n              jump\t// in\n            tag_68:\n              0x20\n              mload(0x40)\n              dup1\n              dup4\n              sub\n              dup2\n              dup7\n              dup1\n              extcodesize\n              iszero\n              dup1\n              iszero\n              tag_69\n              jumpi\n              0x00\n              dup1\n              revert\n            tag_69:\n              pop\n              gas\n              staticcall\n              iszero\n              dup1\n              iszero\n              tag_71\n              jumpi\n              returndatasize\n              0x00\n              dup1\n              returndatacopy\n              revert(0x00, returndatasize)\n            tag_71:\n              pop\n              pop\n              pop\n              pop\n              mload(0x40)\n              returndatasize\n              not(0x1f)\n              0x1f\n              dup3\n              add\n              and\n              dup3\n              add\n              dup1\n              0x40\n              mstore\n              pop\n              dup2\n              add\n              swap1\n              tag_72\n              swap2\n              swap1\n              tag_73\n              jump\t// in\n            tag_72:\n                /* \"anli/evidence/evidence.sol\":711:755  return IEvdence(factoryAddr).verify(_signer) */\n              swap1\n              pop\n                /* \"anli/evidence/evidence.sol\":637:762  function callVerify(address _signer) public view returns (bool) {... */\n              swap2\n              swap1\n              pop\n              jump\t// out\n                /* \"anli/evidence/evidence.sol\":1081:1484  function getEvidence() public view returns (string memory, address[] memory, address[] memory) {... */\n            tag_22:\n                /* \"anli/evidence/evidence.sol\":1125:1138  string memory */\n              0x60\n                /* \"anli/evidence/evidence.sol\":1140:1156  address[] memory */\n              dup1\n                /* \"anli/evidence/evidence.sol\":1158:1174  address[] memory */\n              0x60\n                /* \"anli/evidence/evidence.sol\":1186:1199  uint256 iSize */\n              0x00\n                /* \"anli/evidence/evidence.sol\":1211:1222  factoryAddr */\n              0x02\n              0x00\n              swap1\n              sload\n              swap1\n              0x0100\n              exp\n              swap1\n              div\n              0xffffffffffffffffffffffffffffffffffffffff\n              and\n                /* \"anli/evidence/evidence.sol\":1202:1238  IEvdence(factoryAddr).getSignersSize */\n              0xffffffffffffffffffffffffffffffffffffffff\n              and\n              0xfa69efbd\n                /* \"anli/evidence/evidence.sol\":1202:1240  IEvdence(factoryAddr).getSignersSize() */\n              mload(0x40)\n              dup2\n              0xffffffff\n              and\n              0xe0\n              shl\n              dup2\n              mstore\n              0x04\n              add\n              0x20\n              mload(0x40)\n              dup1\n              dup4\n              sub\n              dup2\n              dup7\n              dup1\n              extcodesize\n              iszero\n              dup1\n              iszero\n              tag_75\n              jumpi\n              0x00\n              dup1\n              revert\n            tag_75:\n              pop\n              gas\n              staticcall\n              iszero\n              dup1\n              iszero\n              tag_77\n              jumpi\n              returndatasize\n              0x00\n              dup1\n              returndatacopy\n              revert(0x00, returndatasize)\n            tag_77:\n              pop\n              pop\n              pop\n              pop\n              mload(0x40)\n              returndatasize\n              not(0x1f)\n              0x1f\n              dup3\n              add\n              and\n              dup3\n              add\n              dup1\n              0x40\n              mstore\n              pop\n              dup2\n              add\n              swap1\n              tag_78\n              swap2\n              swap1\n              tag_46\n              jump\t// in\n            tag_78:\n                /* \"anli/evidence/evidence.sol\":1186:1240  uint256 iSize = IEvdence(factoryAddr).getSignersSize() */\n              swap1\n              pop\n                /* \"anli/evidence/evidence.sol\":1250:1277  address[] memory signerList */\n              0x00\n                /* \"anli/evidence/evidence.sol\":1294:1299  iSize */\n              dup2\n                /* \"anli/evidence/evidence.sol\":1280:1300  new address[](iSize) */\n              0xffffffffffffffff\n              dup2\n              gt\n              iszero\n              tag_79\n              jumpi\n              tag_80\n              tag_81\n              jump\t// in\n            tag_80:\n            tag_79:\n              mload(0x40)\n              swap1\n              dup1\n              dup3\n              mstore\n              dup1\n              0x20\n              mul\n              0x20\n              add\n              dup3\n              add\n              0x40\n              mstore\n              dup1\n              iszero\n              tag_82\n              jumpi\n              dup2\n              0x20\n              add\n              0x20\n              dup3\n              mul\n              dup1\n              calldatasize\n              dup4\n              calldatacopy\n              dup1\n              dup3\n              add\n              swap2\n              pop\n              pop\n              swap1\n              pop\n            tag_82:\n              pop\n                /* \"anli/evidence/evidence.sol\":1250:1300  address[] memory signerList = new address[](iSize) */\n              swap1\n              pop\n                /* \"anli/evidence/evidence.sol\":1314:1323  uint256 i */\n              0x00\n                /* \"anli/evidence/evidence.sol\":1310:1421  for(uint256 i = 0; i < iSize; i ++) {... */\n            tag_83:\n                /* \"anli/evidence/evidence.sol\":1333:1338  iSize */\n              dup3\n                /* \"anli/evidence/evidence.sol\":1329:1330  i */\n              dup2\n                /* \"anli/evidence/evidence.sol\":1329:1338  i < iSize */\n              lt\n                /* \"anli/evidence/evidence.sol\":1310:1421  for(uint256 i = 0; i < iSize; i ++) {... */\n              iszero\n              tag_84\n              jumpi\n                /* \"anli/evidence/evidence.sol\":1385:1396  factoryAddr */\n              0x02\n              0x00\n              swap1\n              sload\n              swap1\n              0x0100\n              exp\n              swap1\n              div\n              0xffffffffffffffffffffffffffffffffffffffff\n              and\n                /* \"anli/evidence/evidence.sol\":1376:1407  IEvdence(factoryAddr).getSigner */\n              0xffffffffffffffffffffffffffffffffffffffff\n              and\n              0x3ffefe4e\n                /* \"anli/evidence/evidence.sol\":1408:1409  i */\n              dup3\n                /* \"anli/evidence/evidence.sol\":1376:1410  IEvdence(factoryAddr).getSigner(i) */\n              mload(0x40)\n              dup3\n              0xffffffff\n              and\n              0xe0\n              shl\n              dup2\n              mstore\n              0x04\n              add\n              tag_86\n              swap2\n              swap1\n              tag_52\n              jump\t// in\n            tag_86:\n              0x20\n              mload(0x40)\n              dup1\n              dup4\n              sub\n              dup2\n              dup7\n              dup1\n              extcodesize\n              iszero\n              dup1\n              iszero\n              tag_87\n              jumpi\n              0x00\n              dup1\n              revert\n            tag_87:\n              pop\n              gas\n              staticcall\n              iszero\n              dup1\n              iszero\n              tag_89\n              jumpi\n              returndatasize\n              0x00\n              dup1\n              returndatacopy\n              revert(0x00, returndatasize)\n            tag_89:\n              pop\n              pop\n              pop\n              pop\n              mload(0x40)\n              returndatasize\n              not(0x1f)\n              0x1f\n              dup3\n              add\n              and\n              dup3\n              add\n              dup1\n              0x40\n              mstore\n              pop\n              dup2\n              add\n              swap1\n              tag_90\n              swap2\n              swap1\n              tag_57\n              jump\t// in\n            tag_90:\n                /* \"anli/evidence/evidence.sol\":1360:1370  signerList */\n              dup3\n                /* \"anli/evidence/evidence.sol\":1371:1372  i */\n              dup3\n                /* \"anli/evidence/evidence.sol\":1360:1373  signerList[i] */\n              dup2\n              mload\n              dup2\n              lt\n              tag_91\n              jumpi\n              tag_92\n              tag_93\n              jump\t// in\n            tag_92:\n            tag_91:\n              0x20\n              mul\n              0x20\n              add\n              add\n                /* \"anli/evidence/evidence.sol\":1360:1410  signerList[i] = IEvdence(factoryAddr).getSigner(i) */\n              swap1\n              0xffffffffffffffffffffffffffffffffffffffff\n              and\n              swap1\n              dup2\n              0xffffffffffffffffffffffffffffffffffffffff\n              and\n              dup2\n              mstore\n              pop\n              pop\n                /* \"anli/evidence/evidence.sol\":1340:1344  i ++ */\n              dup1\n              dup1\n              tag_94\n              swap1\n              tag_60\n              jump\t// in\n            tag_94:\n              swap2\n              pop\n              pop\n                /* \"anli/evidence/evidence.sol\":1310:1421  for(uint256 i = 0; i < iSize; i ++) {... */\n              jump(tag_83)\n            tag_84:\n              pop\n                /* \"anli/evidence/evidence.sol\":1447:1455  evidence */\n              0x00\n                /* \"anli/evidence/evidence.sol\":1457:1467  signerList */\n              dup2\n                /* \"anli/evidence/evidence.sol\":1469:1476  signers */\n              0x01\n                /* \"anli/evidence/evidence.sol\":1439:1477  return (evidence, signerList, signers) */\n              dup3\n              dup1\n              sload\n              tag_95\n              swap1\n              tag_62\n              jump\t// in\n            tag_95:\n              dup1\n              0x1f\n              add\n              0x20\n              dup1\n              swap2\n              div\n              mul\n              0x20\n              add\n              mload(0x40)\n              swap1\n              dup2\n              add\n              0x40\n              mstore\n              dup1\n              swap3\n              swap2\n              swap1\n              dup2\n              dup2\n              mstore\n              0x20\n              add\n              dup3\n              dup1\n              sload\n              tag_96\n              swap1\n              tag_62\n              jump\t// in\n            tag_96:\n              dup1\n              iszero\n              tag_97\n              jumpi\n              dup1\n              0x1f\n              lt\n              tag_98\n              jumpi\n              0x0100\n              dup1\n              dup4\n              sload\n              div\n              mul\n              dup4\n              mstore\n              swap2\n              0x20\n              add\n              swap2\n              jump(tag_97)\n            tag_98:\n              dup3\n              add\n              swap2\n              swap1\n              0x00\n              mstore\n              keccak256(0x00, 0x20)\n              swap1\n            tag_99:\n              dup2\n              sload\n              dup2\n              mstore\n              swap1\n              0x01\n              add\n              swap1\n              0x20\n              add\n              dup1\n              dup4\n              gt\n              tag_99\n              jumpi\n              dup3\n              swap1\n              sub\n              0x1f\n              and\n              dup3\n              add\n              swap2\n            tag_97:\n              pop\n              pop\n              pop\n              pop\n              pop\n              swap3\n              pop\n              dup1\n              dup1\n              sload\n              dup1\n              0x20\n              mul\n              0x20\n              add\n              mload(0x40)\n              swap1\n              dup2\n              add\n              0x40\n              mstore\n              dup1\n              swap3\n              swap2\n              swap1\n              dup2\n              dup2\n              mstore\n              0x20\n              add\n              dup3\n              dup1\n              sload\n              dup1\n              iszero\n              tag_100\n              jumpi\n              0x20\n              mul\n              dup3\n              add\n              swap2\n              swap1\n              0x00\n              mstore\n              keccak256(0x00, 0x20)\n              swap1\n            tag_101:\n              dup2\n              0x00\n              swap1\n              sload\n              swap1\n              0x0100\n              exp\n              swap1\n              div\n              0xffffffffffffffffffffffffffffffffffffffff\n              and\n              0xffffffffffffffffffffffffffffffffffffffff\n              and\n              dup2\n              mstore\n              0x20\n              add\n              swap1\n              0x01\n              add\n              swap1\n              dup1\n              dup4\n              gt\n              tag_101\n              jumpi\n            tag_100:\n              pop\n              pop\n              pop\n              pop\n              pop\n              swap1\n              pop\n              swap5\n              pop\n              swap5\n              pop\n              swap5\n              pop\n              pop\n              pop\n                /* \"anli/evidence/evidence.sol\":1081:1484  function getEvidence() public view returns (string memory, address[] memory, address[] memory) {... */\n              swap1\n              swap2\n              swap3\n              jump\t// out\n                /* \"anli/evidence/evidence.sol\":380:406  address public factoryAddr */\n            tag_26:\n              0x02\n              0x00\n              swap1\n              sload\n              swap1\n              0x0100\n              exp\n              swap1\n              div\n              0xffffffffffffffffffffffffffffffffffffffff\n              and\n              dup2\n              jump\t// out\n                /* \"anli/evidence/evidence.sol\":1898:2149  function isSigned(address _signer) internal view returns (bool) {... */\n            tag_35:\n                /* \"anli/evidence/evidence.sol\":1956:1960  bool */\n              0x00\n                /* \"anli/evidence/evidence.sol\":1976:1985  uint256 i */\n              dup1\n                /* \"anli/evidence/evidence.sol\":1988:1989  0 */\n              0x00\n                /* \"anli/evidence/evidence.sol\":1976:1989  uint256 i = 0 */\n              swap1\n              pop\n                /* \"anli/evidence/evidence.sol\":1972:2112  for(uint256 i = 0; i < signers.length; i ++) {... */\n            tag_103:\n                /* \"anli/evidence/evidence.sol\":1995:2002  signers */\n              0x01\n                /* \"anli/evidence/evidence.sol\":1995:2009  signers.length */\n              dup1\n              sload\n              swap1\n              pop\n                /* \"anli/evidence/evidence.sol\":1991:1992  i */\n              dup2\n                /* \"anli/evidence/evidence.sol\":1991:2009  i < signers.length */\n              lt\n                /* \"anli/evidence/evidence.sol\":1972:2112  for(uint256 i = 0; i < signers.length; i ++) {... */\n              iszero\n              tag_104\n              jumpi\n                /* \"anli/evidence/evidence.sol\":2049:2056  _signer */\n              dup3\n                /* \"anli/evidence/evidence.sol\":2035:2056  signers[i] == _signer */\n              0xffffffffffffffffffffffffffffffffffffffff\n              and\n                /* \"anli/evidence/evidence.sol\":2035:2042  signers */\n              0x01\n                /* \"anli/evidence/evidence.sol\":2043:2044  i */\n              dup3\n                /* \"anli/evidence/evidence.sol\":2035:2045  signers[i] */\n              dup2\n              sload\n              dup2\n              lt\n              tag_106\n              jumpi\n              tag_107\n              tag_93\n              jump\t// in\n            tag_107:\n            tag_106:\n              swap1\n              0x00\n              mstore\n              keccak256(0x00, 0x20)\n              add\n              0x00\n              swap1\n              sload\n              swap1\n              0x0100\n              exp\n              swap1\n              div\n              0xffffffffffffffffffffffffffffffffffffffff\n              and\n                /* \"anli/evidence/evidence.sol\":2035:2056  signers[i] == _signer */\n              0xffffffffffffffffffffffffffffffffffffffff\n              and\n              eq\n                /* \"anli/evidence/evidence.sol\":2031:2102  if (signers[i] == _signer) {... */\n              iszero\n              tag_109\n              jumpi\n                /* \"anli/evidence/evidence.sol\":2083:2087  true */\n              0x01\n                /* \"anli/evidence/evidence.sol\":2076:2087  return true */\n              swap2\n              pop\n              pop\n              jump(tag_102)\n                /* \"anli/evidence/evidence.sol\":2031:2102  if (signers[i] == _signer) {... */\n            tag_109:\n                /* \"anli/evidence/evidence.sol\":2011:2015  i ++ */\n              dup1\n              dup1\n              tag_110\n              swap1\n              tag_60\n              jump\t// in\n            tag_110:\n              swap2\n              pop\n              pop\n                /* \"anli/evidence/evidence.sol\":1972:2112  for(uint256 i = 0; i < signers.length; i ++) {... */\n              jump(tag_103)\n            tag_104:\n              pop\n                /* \"anli/evidence/evidence.sol\":2137:2142  false */\n              0x00\n                /* \"anli/evidence/evidence.sol\":2130:2142  return false */\n              swap1\n              pop\n                /* \"anli/evidence/evidence.sol\":1898:2149  function isSigned(address _signer) internal view returns (bool) {... */\n            tag_102:\n              swap2\n              swap1\n              pop\n              jump\t// out\n                /* \"#utility.yul\":7:146   */\n            tag_112:\n                /* \"#utility.yul\":53:58   */\n              0x00\n                /* \"#utility.yul\":91:97   */\n              dup2\n                /* \"#utility.yul\":78:98   */\n              calldataload\n                /* \"#utility.yul\":69:98   */\n              swap1\n              pop\n                /* \"#utility.yul\":107:140   */\n              tag_114\n                /* \"#utility.yul\":134:139   */\n              dup2\n                /* \"#utility.yul\":107:140   */\n              tag_115\n              jump\t// in\n            tag_114:\n                /* \"#utility.yul\":7:146   */\n              swap3\n              swap2\n              pop\n              pop\n              jump\t// out\n                /* \"#utility.yul\":152:295   */\n            tag_116:\n                /* \"#utility.yul\":209:214   */\n              0x00\n                /* \"#utility.yul\":240:246   */\n              dup2\n                /* \"#utility.yul\":234:247   */\n              mload\n                /* \"#utility.yul\":225:247   */\n              swap1\n              pop\n                /* \"#utility.yul\":256:289   */\n              tag_118\n                /* \"#utility.yul\":283:288   */\n              dup2\n                /* \"#utility.yul\":256:289   */\n              tag_115\n              jump\t// in\n            tag_118:\n                /* \"#utility.yul\":152:295   */\n              swap3\n              swap2\n              pop\n              pop\n              jump\t// out\n                /* \"#utility.yul\":301:438   */\n            tag_119:\n                /* \"#utility.yul\":355:360   */\n              0x00\n                /* \"#utility.yul\":386:392   */\n              dup2\n                /* \"#utility.yul\":380:393   */\n              mload\n                /* \"#utility.yul\":371:393   */\n              swap1\n              pop\n                /* \"#utility.yul\":402:432   */\n              tag_121\n                /* \"#utility.yul\":426:431   */\n              dup2\n                /* \"#utility.yul\":402:432   */\n              tag_122\n              jump\t// in\n            tag_121:\n                /* \"#utility.yul\":301:438   */\n              swap3\n              swap2\n              pop\n              pop\n              jump\t// out\n                /* \"#utility.yul\":444:587   */\n            tag_123:\n                /* \"#utility.yul\":501:506   */\n              0x00\n                /* \"#utility.yul\":532:538   */\n              dup2\n                /* \"#utility.yul\":526:539   */\n              mload\n                /* \"#utility.yul\":517:539   */\n              swap1\n              pop\n                /* \"#utility.yul\":548:581   */\n              tag_125\n                /* \"#utility.yul\":575:580   */\n              dup2\n                /* \"#utility.yul\":548:581   */\n              tag_126\n              jump\t// in\n            tag_125:\n                /* \"#utility.yul\":444:587   */\n              swap3\n              swap2\n              pop\n              pop\n              jump\t// out\n                /* \"#utility.yul\":593:922   */\n            tag_18:\n                /* \"#utility.yul\":652:658   */\n              0x00\n                /* \"#utility.yul\":701:703   */\n              0x20\n                /* \"#utility.yul\":689:698   */\n              dup3\n                /* \"#utility.yul\":680:687   */\n              dup5\n                /* \"#utility.yul\":676:699   */\n              sub\n                /* \"#utility.yul\":672:704   */\n              slt\n                /* \"#utility.yul\":669:788   */\n              iszero\n              tag_128\n              jumpi\n                /* \"#utility.yul\":707:786   */\n              tag_129\n              tag_130\n              jump\t// in\n            tag_129:\n                /* \"#utility.yul\":669:788   */\n            tag_128:\n                /* \"#utility.yul\":827:828   */\n              0x00\n                /* \"#utility.yul\":852:905   */\n              tag_131\n                /* \"#utility.yul\":897:904   */\n              dup5\n                /* \"#utility.yul\":888:894   */\n              dup3\n                /* \"#utility.yul\":877:886   */\n              dup6\n                /* \"#utility.yul\":873:895   */\n              add\n                /* \"#utility.yul\":852:905   */\n              tag_112\n              jump\t// in\n            tag_131:\n                /* \"#utility.yul\":842:905   */\n              swap2\n              pop\n                /* \"#utility.yul\":798:915   */\n              pop\n                /* \"#utility.yul\":593:922   */\n              swap3\n              swap2\n              pop\n              pop\n              jump\t// out\n                /* \"#utility.yul\":928:1279   */\n            tag_57:\n                /* \"#utility.yul\":998:1004   */\n              0x00\n                /* \"#utility.yul\":1047:1049   */\n              0x20\n                /* \"#utility.yul\":1035:1044   */\n              dup3\n                /* \"#utility.yul\":1026:1033   */\n              dup5\n                /* \"#utility.yul\":1022:1045   */\n              sub\n                /* \"#utility.yul\":1018:1050   */\n              slt\n                /* \"#utility.yul\":1015:1134   */\n              iszero\n              tag_133\n              jumpi\n                /* \"#utility.yul\":1053:1132   */\n              tag_134\n              tag_130\n              jump\t// in\n            tag_134:\n                /* \"#utility.yul\":1015:1134   */\n            tag_133:\n                /* \"#utility.yul\":1173:1174   */\n              0x00\n                /* \"#utility.yul\":1198:1262   */\n              tag_135\n                /* \"#utility.yul\":1254:1261   */\n              dup5\n                /* \"#utility.yul\":1245:1251   */\n              dup3\n                /* \"#utility.yul\":1234:1243   */\n              dup6\n                /* \"#utility.yul\":1230:1252   */\n              add\n                /* \"#utility.yul\":1198:1262   */\n              tag_116\n              jump\t// in\n            tag_135:\n                /* \"#utility.yul\":1188:1262   */\n              swap2\n              pop\n                /* \"#utility.yul\":1144:1272   */\n              pop\n                /* \"#utility.yul\":928:1279   */\n              swap3\n              swap2\n              pop\n              pop\n              jump\t// out\n                /* \"#utility.yul\":1285:1630   */\n            tag_73:\n                /* \"#utility.yul\":1352:1358   */\n              0x00\n                /* \"#utility.yul\":1401:1403   */\n              0x20\n                /* \"#utility.yul\":1389:1398   */\n              dup3\n                /* \"#utility.yul\":1380:1387   */\n              dup5\n                /* \"#utility.yul\":1376:1399   */\n              sub\n                /* \"#utility.yul\":1372:1404   */\n              slt\n                /* \"#utility.yul\":1369:1488   */\n              iszero\n              tag_137\n              jumpi\n                /* \"#utility.yul\":1407:1486   */\n              tag_138\n              tag_130\n              jump\t// in\n            tag_138:\n                /* \"#utility.yul\":1369:1488   */\n            tag_137:\n                /* \"#utility.yul\":1527:1528   */\n              0x00\n                /* \"#utility.yul\":1552:1613   */\n              tag_139\n                /* \"#utility.yul\":1605:1612   */\n              dup5\n                /* \"#utility.yul\":1596:1602   */\n              dup3\n                /* \"#utility.yul\":1585:1594   */\n              dup6\n                /* \"#utility.yul\":1581:1603   */\n              add\n                /* \"#utility.yul\":1552:1613   */\n              tag_119\n              jump\t// in\n            tag_139:\n                /* \"#utility.yul\":1542:1613   */\n              swap2\n              pop\n                /* \"#utility.yul\":1498:1623   */\n              pop\n                /* \"#utility.yul\":1285:1630   */\n              swap3\n              swap2\n              pop\n              pop\n              jump\t// out\n                /* \"#utility.yul\":1636:1987   */\n            tag_46:\n                /* \"#utility.yul\":1706:1712   */\n              0x00\n                /* \"#utility.yul\":1755:1757   */\n              0x20\n                /* \"#utility.yul\":1743:1752   */\n              dup3\n                /* \"#utility.yul\":1734:1741   */\n              dup5\n                /* \"#utility.yul\":1730:1753   */\n              sub\n                /* \"#utility.yul\":1726:1758   */\n              slt\n                /* \"#utility.yul\":1723:1842   */\n              iszero\n              tag_141\n              jumpi\n                /* \"#utility.yul\":1761:1840   */\n              tag_142\n              tag_130\n              jump\t// in\n            tag_142:\n                /* \"#utility.yul\":1723:1842   */\n            tag_141:\n                /* \"#utility.yul\":1881:1882   */\n              0x00\n                /* \"#utility.yul\":1906:1970   */\n              tag_143\n                /* \"#utility.yul\":1962:1969   */\n              dup5\n                /* \"#utility.yul\":1953:1959   */\n              dup3\n                /* \"#utility.yul\":1942:1951   */\n              dup6\n                /* \"#utility.yul\":1938:1960   */\n              add\n                /* \"#utility.yul\":1906:1970   */\n              tag_123\n              jump\t// in\n            tag_143:\n                /* \"#utility.yul\":1896:1970   */\n              swap2\n              pop\n                /* \"#utility.yul\":1852:1980   */\n              pop\n                /* \"#utility.yul\":1636:1987   */\n              swap3\n              swap2\n              pop\n              pop\n              jump\t// out\n                /* \"#utility.yul\":1993:2172   */\n            tag_144:\n                /* \"#utility.yul\":2062:2072   */\n              0x00\n                /* \"#utility.yul\":2083:2129   */\n              tag_146\n                /* \"#utility.yul\":2125:2128   */\n              dup4\n                /* \"#utility.yul\":2117:2123   */\n              dup4\n                /* \"#utility.yul\":2083:2129   */\n              tag_147\n              jump\t// in\n            tag_146:\n                /* \"#utility.yul\":2161:2165   */\n              0x20\n                /* \"#utility.yul\":2156:2159   */\n              dup4\n                /* \"#utility.yul\":2152:2166   */\n              add\n                /* \"#utility.yul\":2138:2166   */\n              swap1\n              pop\n                /* \"#utility.yul\":1993:2172   */\n              swap3\n              swap2\n              pop\n              pop\n              jump\t// out\n                /* \"#utility.yul\":2178:2286   */\n            tag_147:\n                /* \"#utility.yul\":2255:2279   */\n              tag_149\n                /* \"#utility.yul\":2273:2278   */\n              dup2\n                /* \"#utility.yul\":2255:2279   */\n              tag_150\n              jump\t// in\n            tag_149:\n                /* \"#utility.yul\":2250:2253   */\n              dup3\n                /* \"#utility.yul\":2243:2280   */\n              mstore\n                /* \"#utility.yul\":2178:2286   */\n              pop\n              pop\n              jump\t// out\n                /* \"#utility.yul\":2292:2410   */\n            tag_151:\n                /* \"#utility.yul\":2379:2403   */\n              tag_153\n                /* \"#utility.yul\":2397:2402   */\n              dup2\n                /* \"#utility.yul\":2379:2403   */\n              tag_150\n              jump\t// in\n            tag_153:\n                /* \"#utility.yul\":2374:2377   */\n              dup3\n                /* \"#utility.yul\":2367:2404   */\n              mstore\n                /* \"#utility.yul\":2292:2410   */\n              pop\n              pop\n              jump\t// out\n                /* \"#utility.yul\":2446:3178   */\n            tag_154:\n                /* \"#utility.yul\":2565:2568   */\n              0x00\n                /* \"#utility.yul\":2594:2648   */\n              tag_156\n                /* \"#utility.yul\":2642:2647   */\n              dup3\n                /* \"#utility.yul\":2594:2648   */\n              tag_157\n              jump\t// in\n            tag_156:\n                /* \"#utility.yul\":2664:2750   */\n              tag_158\n                /* \"#utility.yul\":2743:2749   */\n              dup2\n                /* \"#utility.yul\":2738:2741   */\n              dup6\n                /* \"#utility.yul\":2664:2750   */\n              tag_159\n              jump\t// in\n            tag_158:\n                /* \"#utility.yul\":2657:2750   */\n              swap4\n              pop\n                /* \"#utility.yul\":2774:2830   */\n              tag_160\n                /* \"#utility.yul\":2824:2829   */\n              dup4\n                /* \"#utility.yul\":2774:2830   */\n              tag_161\n              jump\t// in\n            tag_160:\n                /* \"#utility.yul\":2853:2860   */\n              dup1\n                /* \"#utility.yul\":2884:2885   */\n              0x00\n                /* \"#utility.yul\":2869:3153   */\n            tag_162:\n                /* \"#utility.yul\":2894:2900   */\n              dup4\n                /* \"#utility.yul\":2891:2892   */\n              dup2\n                /* \"#utility.yul\":2888:2901   */\n              lt\n                /* \"#utility.yul\":2869:3153   */\n              iszero\n              tag_164\n              jumpi\n                /* \"#utility.yul\":2970:2976   */\n              dup2\n                /* \"#utility.yul\":2964:2977   */\n              mload\n                /* \"#utility.yul\":2997:3060   */\n              tag_165\n                /* \"#utility.yul\":3056:3059   */\n              dup9\n                /* \"#utility.yul\":3041:3054   */\n              dup3\n                /* \"#utility.yul\":2997:3060   */\n              tag_144\n              jump\t// in\n            tag_165:\n                /* \"#utility.yul\":2990:3060   */\n              swap8\n              pop\n                /* \"#utility.yul\":3083:3143   */\n              tag_166\n                /* \"#utility.yul\":3136:3142   */\n              dup4\n                /* \"#utility.yul\":3083:3143   */\n              tag_167\n              jump\t// in\n            tag_166:\n                /* \"#utility.yul\":3073:3143   */\n              swap3\n              pop\n                /* \"#utility.yul\":2929:3153   */\n              pop\n                /* \"#utility.yul\":2916:2917   */\n              0x01\n                /* \"#utility.yul\":2913:2914   */\n              dup2\n                /* \"#utility.yul\":2909:2918   */\n              add\n                /* \"#utility.yul\":2904:2918   */\n              swap1\n              pop\n                /* \"#utility.yul\":2869:3153   */\n              jump(tag_162)\n            tag_164:\n                /* \"#utility.yul\":2873:2887   */\n              pop\n                /* \"#utility.yul\":3169:3172   */\n              dup6\n                /* \"#utility.yul\":3162:3172   */\n              swap4\n              pop\n                /* \"#utility.yul\":2570:3178   */\n              pop\n              pop\n              pop\n                /* \"#utility.yul\":2446:3178   */\n              swap3\n              swap2\n              pop\n              pop\n              jump\t// out\n                /* \"#utility.yul\":3184:3293   */\n            tag_168:\n                /* \"#utility.yul\":3265:3286   */\n              tag_170\n                /* \"#utility.yul\":3280:3285   */\n              dup2\n                /* \"#utility.yul\":3265:3286   */\n              tag_171\n              jump\t// in\n            tag_170:\n                /* \"#utility.yul\":3260:3263   */\n              dup3\n                /* \"#utility.yul\":3253:3287   */\n              mstore\n                /* \"#utility.yul\":3184:3293   */\n              pop\n              pop\n              jump\t// out\n                /* \"#utility.yul\":3299:3663   */\n            tag_172:\n                /* \"#utility.yul\":3387:3390   */\n              0x00\n                /* \"#utility.yul\":3415:3454   */\n              tag_174\n                /* \"#utility.yul\":3448:3453   */\n              dup3\n                /* \"#utility.yul\":3415:3454   */\n              tag_175\n              jump\t// in\n            tag_174:\n                /* \"#utility.yul\":3470:3541   */\n              tag_176\n                /* \"#utility.yul\":3534:3540   */\n              dup2\n                /* \"#utility.yul\":3529:3532   */\n              dup6\n                /* \"#utility.yul\":3470:3541   */\n              tag_177\n              jump\t// in\n            tag_176:\n                /* \"#utility.yul\":3463:3541   */\n              swap4\n              pop\n                /* \"#utility.yul\":3550:3602   */\n              tag_178\n                /* \"#utility.yul\":3595:3601   */\n              dup2\n                /* \"#utility.yul\":3590:3593   */\n              dup6\n                /* \"#utility.yul\":3583:3587   */\n              0x20\n                /* \"#utility.yul\":3576:3581   */\n              dup7\n                /* \"#utility.yul\":3572:3588   */\n              add\n                /* \"#utility.yul\":3550:3602   */\n              tag_179\n              jump\t// in\n            tag_178:\n                /* \"#utility.yul\":3627:3656   */\n              tag_180\n                /* \"#utility.yul\":3649:3655   */\n              dup2\n                /* \"#utility.yul\":3627:3656   */\n              tag_181\n              jump\t// in\n            tag_180:\n                /* \"#utility.yul\":3622:3625   */\n              dup5\n                /* \"#utility.yul\":3618:3657   */\n              add\n                /* \"#utility.yul\":3611:3657   */\n              swap2\n              pop\n                /* \"#utility.yul\":3391:3663   */\n              pop\n                /* \"#utility.yul\":3299:3663   */\n              swap3\n              swap2\n              pop\n              pop\n              jump\t// out\n                /* \"#utility.yul\":3693:4495   */\n            tag_182:\n                /* \"#utility.yul\":3778:3781   */\n              0x00\n                /* \"#utility.yul\":3815:3820   */\n              dup2\n                /* \"#utility.yul\":3809:3821   */\n              sload\n                /* \"#utility.yul\":3844:3880   */\n              tag_184\n                /* \"#utility.yul\":3870:3879   */\n              dup2\n                /* \"#utility.yul\":3844:3880   */\n              tag_62\n              jump\t// in\n            tag_184:\n                /* \"#utility.yul\":3896:3967   */\n              tag_185\n                /* \"#utility.yul\":3960:3966   */\n              dup2\n                /* \"#utility.yul\":3955:3958   */\n              dup7\n                /* \"#utility.yul\":3896:3967   */\n              tag_177\n              jump\t// in\n            tag_185:\n                /* \"#utility.yul\":3889:3967   */\n              swap5\n              pop\n                /* \"#utility.yul\":3998:3999   */\n              0x01\n                /* \"#utility.yul\":3987:3996   */\n              dup3\n                /* \"#utility.yul\":3983:4000   */\n              and\n                /* \"#utility.yul\":4014:4015   */\n              0x00\n                /* \"#utility.yul\":4009:4144   */\n              dup2\n              eq\n              tag_187\n              jumpi\n                /* \"#utility.yul\":4158:4159   */\n              0x01\n                /* \"#utility.yul\":4153:4489   */\n              dup2\n              eq\n              tag_188\n              jumpi\n                /* \"#utility.yul\":3976:4489   */\n              jump(tag_186)\n                /* \"#utility.yul\":4009:4144   */\n            tag_187:\n                /* \"#utility.yul\":4093:4097   */\n              0xff\n                /* \"#utility.yul\":4089:4098   */\n              not\n                /* \"#utility.yul\":4078:4087   */\n              dup4\n                /* \"#utility.yul\":4074:4099   */\n              and\n                /* \"#utility.yul\":4069:4072   */\n              dup7\n                /* \"#utility.yul\":4062:4100   */\n              mstore\n                /* \"#utility.yul\":4129:4133   */\n              0x20\n                /* \"#utility.yul\":4124:4127   */\n              dup7\n                /* \"#utility.yul\":4120:4134   */\n              add\n                /* \"#utility.yul\":4113:4134   */\n              swap4\n              pop\n                /* \"#utility.yul\":4009:4144   */\n              jump(tag_186)\n                /* \"#utility.yul\":4153:4489   */\n            tag_188:\n                /* \"#utility.yul\":4220:4258   */\n              tag_189\n                /* \"#utility.yul\":4252:4257   */\n              dup6\n                /* \"#utility.yul\":4220:4258   */\n              tag_190\n              jump\t// in\n            tag_189:\n                /* \"#utility.yul\":4280:4281   */\n              0x00\n                /* \"#utility.yul\":4294:4448   */\n            tag_191:\n                /* \"#utility.yul\":4308:4314   */\n              dup4\n                /* \"#utility.yul\":4305:4306   */\n              dup2\n                /* \"#utility.yul\":4302:4315   */\n              lt\n                /* \"#utility.yul\":4294:4448   */\n              iszero\n              tag_193\n              jumpi\n                /* \"#utility.yul\":4382:4389   */\n              dup2\n                /* \"#utility.yul\":4376:4390   */\n              sload\n                /* \"#utility.yul\":4372:4373   */\n              dup2\n                /* \"#utility.yul\":4367:4370   */\n              dup10\n                /* \"#utility.yul\":4363:4374   */\n              add\n                /* \"#utility.yul\":4356:4391   */\n              mstore\n                /* \"#utility.yul\":4432:4433   */\n              0x01\n                /* \"#utility.yul\":4423:4430   */\n              dup3\n                /* \"#utility.yul\":4419:4434   */\n              add\n                /* \"#utility.yul\":4408:4434   */\n              swap2\n              pop\n                /* \"#utility.yul\":4330:4334   */\n              0x20\n                /* \"#utility.yul\":4327:4328   */\n              dup2\n                /* \"#utility.yul\":4323:4335   */\n              add\n                /* \"#utility.yul\":4318:4335   */\n              swap1\n              pop\n                /* \"#utility.yul\":4294:4448   */\n              jump(tag_191)\n            tag_193:\n                /* \"#utility.yul\":4477:4478   */\n              dup1\n                /* \"#utility.yul\":4472:4475   */\n              dup9\n                /* \"#utility.yul\":4468:4479   */\n              add\n                /* \"#utility.yul\":4461:4479   */\n              swap6\n              pop\n                /* \"#utility.yul\":4160:4489   */\n              pop\n              pop\n                /* \"#utility.yul\":3976:4489   */\n            tag_186:\n              pop\n                /* \"#utility.yul\":3782:4495   */\n              pop\n              pop\n                /* \"#utility.yul\":3693:4495   */\n              swap3\n              swap2\n              pop\n              pop\n              jump\t// out\n                /* \"#utility.yul\":4501:4867   */\n            tag_194:\n                /* \"#utility.yul\":4643:4646   */\n              0x00\n                /* \"#utility.yul\":4664:4731   */\n              tag_196\n                /* \"#utility.yul\":4728:4730   */\n              0x14\n                /* \"#utility.yul\":4723:4726   */\n              dup4\n                /* \"#utility.yul\":4664:4731   */\n              tag_177\n              jump\t// in\n            tag_196:\n                /* \"#utility.yul\":4657:4731   */\n              swap2\n              pop\n                /* \"#utility.yul\":4740:4833   */\n              tag_197\n                /* \"#utility.yul\":4829:4832   */\n              dup3\n                /* \"#utility.yul\":4740:4833   */\n              tag_198\n              jump\t// in\n            tag_197:\n                /* \"#utility.yul\":4858:4860   */\n              0x20\n                /* \"#utility.yul\":4853:4856   */\n              dup3\n                /* \"#utility.yul\":4849:4861   */\n              add\n                /* \"#utility.yul\":4842:4861   */\n              swap1\n              pop\n                /* \"#utility.yul\":4501:4867   */\n              swap2\n              swap1\n              pop\n              jump\t// out\n                /* \"#utility.yul\":4873:4991   */\n            tag_199:\n                /* \"#utility.yul\":4960:4984   */\n              tag_201\n                /* \"#utility.yul\":4978:4983   */\n              dup2\n                /* \"#utility.yul\":4960:4984   */\n              tag_202\n              jump\t// in\n            tag_201:\n                /* \"#utility.yul\":4955:4958   */\n              dup3\n                /* \"#utility.yul\":4948:4985   */\n              mstore\n                /* \"#utility.yul\":4873:4991   */\n              pop\n              pop\n              jump\t// out\n                /* \"#utility.yul\":4997:5219   */\n            tag_28:\n                /* \"#utility.yul\":5090:5094   */\n              0x00\n                /* \"#utility.yul\":5128:5130   */\n              0x20\n                /* \"#utility.yul\":5117:5126   */\n              dup3\n                /* \"#utility.yul\":5113:5131   */\n              add\n                /* \"#utility.yul\":5105:5131   */\n              swap1\n              pop\n                /* \"#utility.yul\":5141:5212   */\n              tag_204\n                /* \"#utility.yul\":5209:5210   */\n              0x00\n                /* \"#utility.yul\":5198:5207   */\n              dup4\n                /* \"#utility.yul\":5194:5211   */\n              add\n                /* \"#utility.yul\":5185:5191   */\n              dup5\n                /* \"#utility.yul\":5141:5212   */\n              tag_151\n              jump\t// in\n            tag_204:\n                /* \"#utility.yul\":4997:5219   */\n              swap3\n              swap2\n              pop\n              pop\n              jump\t// out\n                /* \"#utility.yul\":5225:5435   */\n            tag_11:\n                /* \"#utility.yul\":5312:5316   */\n              0x00\n                /* \"#utility.yul\":5350:5352   */\n              0x20\n                /* \"#utility.yul\":5339:5348   */\n              dup3\n                /* \"#utility.yul\":5335:5353   */\n              add\n                /* \"#utility.yul\":5327:5353   */\n              swap1\n              pop\n                /* \"#utility.yul\":5363:5428   */\n              tag_206\n                /* \"#utility.yul\":5425:5426   */\n              0x00\n                /* \"#utility.yul\":5414:5423   */\n              dup4\n                /* \"#utility.yul\":5410:5427   */\n              add\n                /* \"#utility.yul\":5401:5407   */\n              dup5\n                /* \"#utility.yul\":5363:5428   */\n              tag_168\n              jump\t// in\n            tag_206:\n                /* \"#utility.yul\":5225:5435   */\n              swap3\n              swap2\n              pop\n              pop\n              jump\t// out\n                /* \"#utility.yul\":5441:5852   */\n            tag_15:\n                /* \"#utility.yul\":5576:5580   */\n              0x00\n                /* \"#utility.yul\":5614:5616   */\n              0x40\n                /* \"#utility.yul\":5603:5612   */\n              dup3\n                /* \"#utility.yul\":5599:5617   */\n              add\n                /* \"#utility.yul\":5591:5617   */\n              swap1\n              pop\n                /* \"#utility.yul\":5627:5692   */\n              tag_208\n                /* \"#utility.yul\":5689:5690   */\n              0x00\n                /* \"#utility.yul\":5678:5687   */\n              dup4\n                /* \"#utility.yul\":5674:5691   */\n              add\n                /* \"#utility.yul\":5665:5671   */\n              dup6\n                /* \"#utility.yul\":5627:5692   */\n              tag_168\n              jump\t// in\n            tag_208:\n                /* \"#utility.yul\":5739:5748   */\n              dup2\n                /* \"#utility.yul\":5733:5737   */\n              dup2\n                /* \"#utility.yul\":5729:5749   */\n              sub\n                /* \"#utility.yul\":5724:5726   */\n              0x20\n                /* \"#utility.yul\":5713:5722   */\n              dup4\n                /* \"#utility.yul\":5709:5727   */\n              add\n                /* \"#utility.yul\":5702:5750   */\n              mstore\n                /* \"#utility.yul\":5767:5845   */\n              tag_209\n                /* \"#utility.yul\":5840:5844   */\n              dup2\n                /* \"#utility.yul\":5831:5837   */\n              dup5\n                /* \"#utility.yul\":5767:5845   */\n              tag_172\n              jump\t// in\n            tag_209:\n                /* \"#utility.yul\":5759:5845   */\n              swap1\n              pop\n                /* \"#utility.yul\":5441:5852   */\n              swap4\n              swap3\n              pop\n              pop\n              pop\n              jump\t// out\n                /* \"#utility.yul\":5858:6693   */\n            tag_24:\n                /* \"#utility.yul\":6127:6131   */\n              0x00\n                /* \"#utility.yul\":6165:6167   */\n              0x60\n                /* \"#utility.yul\":6154:6163   */\n              dup3\n                /* \"#utility.yul\":6150:6168   */\n              add\n                /* \"#utility.yul\":6142:6168   */\n              swap1\n              pop\n                /* \"#utility.yul\":6214:6223   */\n              dup2\n                /* \"#utility.yul\":6208:6212   */\n              dup2\n                /* \"#utility.yul\":6204:6224   */\n              sub\n                /* \"#utility.yul\":6200:6201   */\n              0x00\n                /* \"#utility.yul\":6189:6198   */\n              dup4\n                /* \"#utility.yul\":6185:6202   */\n              add\n                /* \"#utility.yul\":6178:6225   */\n              mstore\n                /* \"#utility.yul\":6242:6320   */\n              tag_211\n                /* \"#utility.yul\":6315:6319   */\n              dup2\n                /* \"#utility.yul\":6306:6312   */\n              dup7\n                /* \"#utility.yul\":6242:6320   */\n              tag_172\n              jump\t// in\n            tag_211:\n                /* \"#utility.yul\":6234:6320   */\n              swap1\n              pop\n                /* \"#utility.yul\":6367:6376   */\n              dup2\n                /* \"#utility.yul\":6361:6365   */\n              dup2\n                /* \"#utility.yul\":6357:6377   */\n              sub\n                /* \"#utility.yul\":6352:6354   */\n              0x20\n                /* \"#utility.yul\":6341:6350   */\n              dup4\n                /* \"#utility.yul\":6337:6355   */\n              add\n                /* \"#utility.yul\":6330:6378   */\n              mstore\n                /* \"#utility.yul\":6395:6503   */\n              tag_212\n                /* \"#utility.yul\":6498:6502   */\n              dup2\n                /* \"#utility.yul\":6489:6495   */\n              dup6\n                /* \"#utility.yul\":6395:6503   */\n              tag_154\n              jump\t// in\n            tag_212:\n                /* \"#utility.yul\":6387:6503   */\n              swap1\n              pop\n                /* \"#utility.yul\":6550:6559   */\n              dup2\n                /* \"#utility.yul\":6544:6548   */\n              dup2\n                /* \"#utility.yul\":6540:6560   */\n              sub\n                /* \"#utility.yul\":6535:6537   */\n              0x40\n                /* \"#utility.yul\":6524:6533   */\n              dup4\n                /* \"#utility.yul\":6520:6538   */\n              add\n                /* \"#utility.yul\":6513:6561   */\n              mstore\n                /* \"#utility.yul\":6578:6686   */\n              tag_213\n                /* \"#utility.yul\":6681:6685   */\n              dup2\n                /* \"#utility.yul\":6672:6678   */\n              dup5\n                /* \"#utility.yul\":6578:6686   */\n              tag_154\n              jump\t// in\n            tag_213:\n                /* \"#utility.yul\":6570:6686   */\n              swap1\n              pop\n                /* \"#utility.yul\":5858:6693   */\n              swap5\n              swap4\n              pop\n              pop\n              pop\n              pop\n              jump\t// out\n                /* \"#utility.yul\":6699:7116   */\n            tag_38:\n                /* \"#utility.yul\":6837:6841   */\n              0x00\n                /* \"#utility.yul\":6875:6877   */\n              0x40\n                /* \"#utility.yul\":6864:6873   */\n              dup3\n                /* \"#utility.yul\":6860:6878   */\n              add\n                /* \"#utility.yul\":6852:6878   */\n              swap1\n              pop\n                /* \"#utility.yul\":6924:6933   */\n              dup2\n                /* \"#utility.yul\":6918:6922   */\n              dup2\n                /* \"#utility.yul\":6914:6934   */\n              sub\n                /* \"#utility.yul\":6910:6911   */\n              0x00\n                /* \"#utility.yul\":6899:6908   */\n              dup4\n                /* \"#utility.yul\":6895:6912   */\n              add\n                /* \"#utility.yul\":6888:6935   */\n              mstore\n                /* \"#utility.yul\":6952:7027   */\n              tag_215\n                /* \"#utility.yul\":7022:7026   */\n              dup2\n                /* \"#utility.yul\":7013:7019   */\n              dup6\n                /* \"#utility.yul\":6952:7027   */\n              tag_182\n              jump\t// in\n            tag_215:\n                /* \"#utility.yul\":6944:7027   */\n              swap1\n              pop\n                /* \"#utility.yul\":7037:7109   */\n              tag_216\n                /* \"#utility.yul\":7105:7107   */\n              0x20\n                /* \"#utility.yul\":7094:7103   */\n              dup4\n                /* \"#utility.yul\":7090:7108   */\n              add\n                /* \"#utility.yul\":7081:7087   */\n              dup5\n                /* \"#utility.yul\":7037:7109   */\n              tag_151\n              jump\t// in\n            tag_216:\n                /* \"#utility.yul\":6699:7116   */\n              swap4\n              swap3\n              pop\n              pop\n              pop\n              jump\t// out\n                /* \"#utility.yul\":7122:7541   */\n            tag_33:\n                /* \"#utility.yul\":7288:7292   */\n              0x00\n                /* \"#utility.yul\":7326:7328   */\n              0x20\n                /* \"#utility.yul\":7315:7324   */\n              dup3\n                /* \"#utility.yul\":7311:7329   */\n              add\n                /* \"#utility.yul\":7303:7329   */\n              swap1\n              pop\n                /* \"#utility.yul\":7375:7384   */\n              dup2\n                /* \"#utility.yul\":7369:7373   */\n              dup2\n                /* \"#utility.yul\":7365:7385   */\n              sub\n                /* \"#utility.yul\":7361:7362   */\n              0x00\n                /* \"#utility.yul\":7350:7359   */\n              dup4\n                /* \"#utility.yul\":7346:7363   */\n              add\n                /* \"#utility.yul\":7339:7386   */\n              mstore\n                /* \"#utility.yul\":7403:7534   */\n              tag_218\n                /* \"#utility.yul\":7529:7533   */\n              dup2\n                /* \"#utility.yul\":7403:7534   */\n              tag_194\n              jump\t// in\n            tag_218:\n                /* \"#utility.yul\":7395:7534   */\n              swap1\n              pop\n                /* \"#utility.yul\":7122:7541   */\n              swap2\n              swap1\n              pop\n              jump\t// out\n                /* \"#utility.yul\":7547:7769   */\n            tag_52:\n                /* \"#utility.yul\":7640:7644   */\n              0x00\n                /* \"#utility.yul\":7678:7680   */\n              0x20\n                /* \"#utility.yul\":7667:7676   */\n              dup3\n                /* \"#utility.yul\":7663:7681   */\n              add\n                /* \"#utility.yul\":7655:7681   */\n              swap1\n              pop\n                /* \"#utility.yul\":7691:7762   */\n              tag_220\n                /* \"#utility.yul\":7759:7760   */\n              0x00\n                /* \"#utility.yul\":7748:7757   */\n              dup4\n                /* \"#utility.yul\":7744:7761   */\n              add\n                /* \"#utility.yul\":7735:7741   */\n              dup5\n                /* \"#utility.yul\":7691:7762   */\n              tag_199\n              jump\t// in\n            tag_220:\n                /* \"#utility.yul\":7547:7769   */\n              swap3\n              swap2\n              pop\n              pop\n              jump\t// out\n                /* \"#utility.yul\":7856:7988   */\n            tag_161:\n                /* \"#utility.yul\":7923:7927   */\n              0x00\n                /* \"#utility.yul\":7946:7949   */\n              dup2\n                /* \"#utility.yul\":7938:7949   */\n              swap1\n              pop\n                /* \"#utility.yul\":7976:7980   */\n              0x20\n                /* \"#utility.yul\":7971:7974   */\n              dup3\n                /* \"#utility.yul\":7967:7981   */\n              add\n                /* \"#utility.yul\":7959:7981   */\n              swap1\n              pop\n                /* \"#utility.yul\":7856:7988   */\n              swap2\n              swap1\n              pop\n              jump\t// out\n                /* \"#utility.yul\":7994:8135   */\n            tag_190:\n                /* \"#utility.yul\":8043:8047   */\n              0x00\n                /* \"#utility.yul\":8066:8069   */\n              dup2\n                /* \"#utility.yul\":8058:8069   */\n              swap1\n              pop\n                /* \"#utility.yul\":8089:8092   */\n              dup2\n                /* \"#utility.yul\":8086:8087   */\n              0x00\n                /* \"#utility.yul\":8079:8093   */\n              mstore\n                /* \"#utility.yul\":8123:8127   */\n              0x20\n                /* \"#utility.yul\":8120:8121   */\n              0x00\n                /* \"#utility.yul\":8110:8128   */\n              keccak256\n                /* \"#utility.yul\":8102:8128   */\n              swap1\n              pop\n                /* \"#utility.yul\":7994:8135   */\n              swap2\n              swap1\n              pop\n              jump\t// out\n                /* \"#utility.yul\":8141:8255   */\n            tag_157:\n                /* \"#utility.yul\":8208:8214   */\n              0x00\n                /* \"#utility.yul\":8242:8247   */\n              dup2\n                /* \"#utility.yul\":8236:8248   */\n              mload\n                /* \"#utility.yul\":8226:8248   */\n              swap1\n              pop\n                /* \"#utility.yul\":8141:8255   */\n              swap2\n              swap1\n              pop\n              jump\t// out\n                /* \"#utility.yul\":8261:8360   */\n            tag_175:\n                /* \"#utility.yul\":8313:8319   */\n              0x00\n                /* \"#utility.yul\":8347:8352   */\n              dup2\n                /* \"#utility.yul\":8341:8353   */\n              mload\n                /* \"#utility.yul\":8331:8353   */\n              swap1\n              pop\n                /* \"#utility.yul\":8261:8360   */\n              swap2\n              swap1\n              pop\n              jump\t// out\n                /* \"#utility.yul\":8366:8479   */\n            tag_167:\n                /* \"#utility.yul\":8436:8440   */\n              0x00\n                /* \"#utility.yul\":8468:8472   */\n              0x20\n                /* \"#utility.yul\":8463:8466   */\n              dup3\n                /* \"#utility.yul\":8459:8473   */\n              add\n                /* \"#utility.yul\":8451:8473   */\n              swap1\n              pop\n                /* \"#utility.yul\":8366:8479   */\n              swap2\n              swap1\n              pop\n              jump\t// out\n                /* \"#utility.yul\":8485:8669   */\n            tag_159:\n                /* \"#utility.yul\":8584:8595   */\n              0x00\n                /* \"#utility.yul\":8618:8624   */\n              dup3\n                /* \"#utility.yul\":8613:8616   */\n              dup3\n                /* \"#utility.yul\":8606:8625   */\n              mstore\n                /* \"#utility.yul\":8658:8662   */\n              0x20\n                /* \"#utility.yul\":8653:8656   */\n              dup3\n                /* \"#utility.yul\":8649:8663   */\n              add\n                /* \"#utility.yul\":8634:8663   */\n              swap1\n              pop\n                /* \"#utility.yul\":8485:8669   */\n              swap3\n              swap2\n              pop\n              pop\n              jump\t// out\n                /* \"#utility.yul\":8675:8844   */\n            tag_177:\n                /* \"#utility.yul\":8759:8770   */\n              0x00\n                /* \"#utility.yul\":8793:8799   */\n              dup3\n                /* \"#utility.yul\":8788:8791   */\n              dup3\n                /* \"#utility.yul\":8781:8800   */\n              mstore\n                /* \"#utility.yul\":8833:8837   */\n              0x20\n                /* \"#utility.yul\":8828:8831   */\n              dup3\n                /* \"#utility.yul\":8824:8838   */\n              add\n                /* \"#utility.yul\":8809:8838   */\n              swap1\n              pop\n                /* \"#utility.yul\":8675:8844   */\n              swap3\n              swap2\n              pop\n              pop\n              jump\t// out\n                /* \"#utility.yul\":8850:8946   */\n            tag_150:\n                /* \"#utility.yul\":8887:8894   */\n              0x00\n                /* \"#utility.yul\":8916:8940   */\n              tag_231\n                /* \"#utility.yul\":8934:8939   */\n              dup3\n                /* \"#utility.yul\":8916:8940   */\n              tag_232\n              jump\t// in\n            tag_231:\n                /* \"#utility.yul\":8905:8940   */\n              swap1\n              pop\n                /* \"#utility.yul\":8850:8946   */\n              swap2\n              swap1\n              pop\n              jump\t// out\n                /* \"#utility.yul\":8952:9042   */\n            tag_171:\n                /* \"#utility.yul\":8986:8993   */\n              0x00\n                /* \"#utility.yul\":9029:9034   */\n              dup2\n                /* \"#utility.yul\":9022:9035   */\n              iszero\n                /* \"#utility.yul\":9015:9036   */\n              iszero\n                /* \"#utility.yul\":9004:9036   */\n              swap1\n              pop\n                /* \"#utility.yul\":8952:9042   */\n              swap2\n              swap1\n              pop\n              jump\t// out\n                /* \"#utility.yul\":9048:9174   */\n            tag_232:\n                /* \"#utility.yul\":9085:9092   */\n              0x00\n                /* \"#utility.yul\":9125:9167   */\n              0xffffffffffffffffffffffffffffffffffffffff\n                /* \"#utility.yul\":9118:9123   */\n              dup3\n                /* \"#utility.yul\":9114:9168   */\n              and\n                /* \"#utility.yul\":9103:9168   */\n              swap1\n              pop\n                /* \"#utility.yul\":9048:9174   */\n              swap2\n              swap1\n              pop\n              jump\t// out\n                /* \"#utility.yul\":9180:9257   */\n            tag_202:\n                /* \"#utility.yul\":9217:9224   */\n              0x00\n                /* \"#utility.yul\":9246:9251   */\n              dup2\n                /* \"#utility.yul\":9235:9251   */\n              swap1\n              pop\n                /* \"#utility.yul\":9180:9257   */\n              swap2\n              swap1\n              pop\n              jump\t// out\n                /* \"#utility.yul\":9263:9570   */\n            tag_179:\n                /* \"#utility.yul\":9331:9332   */\n              0x00\n                /* \"#utility.yul\":9341:9454   */\n            tag_237:\n                /* \"#utility.yul\":9355:9361   */\n              dup4\n                /* \"#utility.yul\":9352:9353   */\n              dup2\n                /* \"#utility.yul\":9349:9362   */\n              lt\n                /* \"#utility.yul\":9341:9454   */\n              iszero\n              tag_239\n              jumpi\n                /* \"#utility.yul\":9440:9441   */\n              dup1\n                /* \"#utility.yul\":9435:9438   */\n              dup3\n                /* \"#utility.yul\":9431:9442   */\n              add\n                /* \"#utility.yul\":9425:9443   */\n              mload\n                /* \"#utility.yul\":9421:9422   */\n              dup2\n                /* \"#utility.yul\":9416:9419   */\n              dup5\n                /* \"#utility.yul\":9412:9423   */\n              add\n                /* \"#utility.yul\":9405:9444   */\n              mstore\n                /* \"#utility.yul\":9377:9379   */\n              0x20\n                /* \"#utility.yul\":9374:9375   */\n              dup2\n                /* \"#utility.yul\":9370:9380   */\n              add\n                /* \"#utility.yul\":9365:9380   */\n              swap1\n              pop\n                /* \"#utility.yul\":9341:9454   */\n              jump(tag_237)\n            tag_239:\n                /* \"#utility.yul\":9472:9478   */\n              dup4\n                /* \"#utility.yul\":9469:9470   */\n              dup2\n                /* \"#utility.yul\":9466:9479   */\n              gt\n                /* \"#utility.yul\":9463:9564   */\n              iszero\n              tag_240\n              jumpi\n                /* \"#utility.yul\":9552:9553   */\n              0x00\n                /* \"#utility.yul\":9543:9549   */\n              dup5\n                /* \"#utility.yul\":9538:9541   */\n              dup5\n                /* \"#utility.yul\":9534:9550   */\n              add\n                /* \"#utility.yul\":9527:9554   */\n              mstore\n                /* \"#utility.yul\":9463:9564   */\n            tag_240:\n                /* \"#utility.yul\":9312:9570   */\n              pop\n                /* \"#utility.yul\":9263:9570   */\n              pop\n              pop\n              pop\n              jump\t// out\n                /* \"#utility.yul\":9576:9896   */\n            tag_62:\n                /* \"#utility.yul\":9620:9626   */\n              0x00\n                /* \"#utility.yul\":9657:9658   */\n              0x02\n                /* \"#utility.yul\":9651:9655   */\n              dup3\n                /* \"#utility.yul\":9647:9659   */\n              div\n                /* \"#utility.yul\":9637:9659   */\n              swap1\n              pop\n                /* \"#utility.yul\":9704:9705   */\n              0x01\n                /* \"#utility.yul\":9698:9702   */\n              dup3\n                /* \"#utility.yul\":9694:9706   */\n              and\n                /* \"#utility.yul\":9725:9743   */\n              dup1\n                /* \"#utility.yul\":9715:9796   */\n              tag_242\n              jumpi\n                /* \"#utility.yul\":9781:9785   */\n              0x7f\n                /* \"#utility.yul\":9773:9779   */\n              dup3\n                /* \"#utility.yul\":9769:9786   */\n              and\n                /* \"#utility.yul\":9759:9786   */\n              swap2\n              pop\n                /* \"#utility.yul\":9715:9796   */\n            tag_242:\n                /* \"#utility.yul\":9843:9845   */\n              0x20\n                /* \"#utility.yul\":9835:9841   */\n              dup3\n                /* \"#utility.yul\":9832:9846   */\n              lt\n                /* \"#utility.yul\":9812:9830   */\n              dup2\n                /* \"#utility.yul\":9809:9847   */\n              eq\n                /* \"#utility.yul\":9806:9890   */\n              iszero\n              tag_243\n              jumpi\n                /* \"#utility.yul\":9862:9880   */\n              tag_244\n              tag_245\n              jump\t// in\n            tag_244:\n                /* \"#utility.yul\":9806:9890   */\n            tag_243:\n                /* \"#utility.yul\":9627:9896   */\n              pop\n                /* \"#utility.yul\":9576:9896   */\n              swap2\n              swap1\n              pop\n              jump\t// out\n                /* \"#utility.yul\":9902:10135   */\n            tag_60:\n                /* \"#utility.yul\":9941:9944   */\n              0x00\n                /* \"#utility.yul\":9964:9988   */\n              tag_247\n                /* \"#utility.yul\":9982:9987   */\n              dup3\n                /* \"#utility.yul\":9964:9988   */\n              tag_202\n              jump\t// in\n            tag_247:\n                /* \"#utility.yul\":9955:9988   */\n              swap2\n              pop\n                /* \"#utility.yul\":10010:10076   */\n              0xffffffffffffffffffffffffffffffffffffffffffffffffffffffffffffffff\n                /* \"#utility.yul\":10003:10008   */\n              dup3\n                /* \"#utility.yul\":10000:10077   */\n              eq\n                /* \"#utility.yul\":9997:10100   */\n              iszero\n              tag_248\n              jumpi\n                /* \"#utility.yul\":10080:10098   */\n              tag_249\n              tag_250\n              jump\t// in\n            tag_249:\n                /* \"#utility.yul\":9997:10100   */\n            tag_248:\n                /* \"#utility.yul\":10127:10128   */\n              0x01\n                /* \"#utility.yul\":10120:10125   */\n              dup3\n                /* \"#utility.yul\":10116:10129   */\n              add\n                /* \"#utility.yul\":10109:10129   */\n              swap1\n              pop\n                /* \"#utility.yul\":9902:10135   */\n              swap2\n              swap1\n              pop\n              jump\t// out\n                /* \"#utility.yul\":10141:10321   */\n            tag_250:\n                /* \"#utility.yul\":10189:10266   */\n              0x4e487b7100000000000000000000000000000000000000000000000000000000\n                /* \"#utility.yul\":10186:10187   */\n              0x00\n                /* \"#utility.yul\":10179:10267   */\n              mstore\n                /* \"#utility.yul\":10286:10290   */\n              0x11\n                /* \"#utility.yul\":10283:10284   */\n              0x04\n                /* \"#utility.yul\":10276:10291   */\n              mstore\n                /* \"#utility.yul\":10310:10314   */\n              0x24\n                /* \"#utility.yul\":10307:10308   */\n              0x00\n                /* \"#utility.yul\":10300:10315   */\n              revert\n                /* \"#utility.yul\":10327:10507   */\n            tag_245:\n                /* \"#utility.yul\":10375:10452   */\n              0x4e487b7100000000000000000000000000000000000000000000000000000000\n                /* \"#utility.yul\":10372:10373   */\n              0x00\n                /* \"#utility.yul\":10365:10453   */\n              mstore\n                /* \"#utility.yul\":10472:10476   */\n              0x22\n                /* \"#utility.yul\":10469:10470   */\n              0x04\n                /* \"#utility.yul\":10462:10477   */\n              mstore\n                /* \"#utility.yul\":10496:10500   */\n              0x24\n                /* \"#utility.yul\":10493:10494   */\n              0x00\n                /* \"#utility.yul\":10486:10501   */\n              revert\n                /* \"#utility.yul\":10513:10693   */\n            tag_93:\n                /* \"#utility.yul\":10561:10638   */\n              0x4e487b7100000000000000000000000000000000000000000000000000000000\n                /* \"#utility.yul\":10558:10559   */\n              0x00\n                /* \"#utility.yul\":10551:10639   */\n              mstore\n                /* \"#utility.yul\":10658:10662   */\n              0x32\n                /* \"#utility.yul\":10655:10656   */\n              0x04\n                /* \"#utility.yul\":10648:10663   */\n              mstore\n                /* \"#utility.yul\":10682:10686   */\n              0x24\n                /* \"#utility.yul\":10679:10680   */\n              0x00\n                /* \"#utility.yul\":10672:10687   */\n              revert\n                /* \"#utility.yul\":10699:10879   */\n            tag_81:\n                /* \"#utility.yul\":10747:10824   */\n              0x4e487b7100000000000000000000000000000000000000000000000000000000\n                /* \"#utility.yul\":10744:10745   */\n              0x00\n                /* \"#utility.yul\":10737:10825   */\n              mstore\n                /* \"#utility.yul\":10844:10848   */\n              0x41\n                /* \"#utility.yul\":10841:10842   */\n              0x04\n                /* \"#utility.yul\":10834:10849   */\n              mstore\n                /* \"#utility.yul\":10868:10872   */\n              0x24\n                /* \"#utility.yul\":10865:10866   */\n              0x00\n                /* \"#utility.yul\":10858:10873   */\n              revert\n                /* \"#utility.yul\":11008:11125   */\n            tag_130:\n                /* \"#utility.yul\":11117:11118   */\n              0x00\n                /* \"#utility.yul\":11114:11115   */\n              dup1\n                /* \"#utility.yul\":11107:11119   */\n              revert\n                /* \"#utility.yul\":11131:11233   */\n            tag_181:\n                /* \"#utility.yul\":11172:11178   */\n              0x00\n                /* \"#utility.yul\":11223:11225   */\n              0x1f\n                /* \"#utility.yul\":11219:11226   */\n              not\n                /* \"#utility.yul\":11214:11216   */\n              0x1f\n                /* \"#utility.yul\":11207:11212   */\n              dup4\n                /* \"#utility.yul\":11203:11217   */\n              add\n                /* \"#utility.yul\":11199:11227   */\n              and\n                /* \"#utility.yul\":11189:11227   */\n              swap1\n              pop\n                /* \"#utility.yul\":11131:11233   */\n              swap2\n              swap1\n              pop\n              jump\t// out\n                /* \"#utility.yul\":11239:11409   */\n            tag_198:\n                /* \"#utility.yul\":11379:11401   */\n              0x5f7369676e6572206973206e6f742076616c6964000000000000000000000000\n                /* \"#utility.yul\":11375:11376   */\n              0x00\n                /* \"#utility.yul\":11367:11373   */\n              dup3\n                /* \"#utility.yul\":11363:11377   */\n              add\n                /* \"#utility.yul\":11356:11402   */\n              mstore\n                /* \"#utility.yul\":11239:11409   */\n              pop\n              jump\t// out\n                /* \"#utility.yul\":11415:11537   */\n            tag_115:\n                /* \"#utility.yul\":11488:11512   */\n              tag_261\n                /* \"#utility.yul\":11506:11511   */\n              dup2\n                /* \"#utility.yul\":11488:11512   */\n              tag_150\n              jump\t// in\n            tag_261:\n                /* \"#utility.yul\":11481:11486   */\n              dup2\n                /* \"#utility.yul\":11478:11513   */\n              eq\n                /* \"#utility.yul\":11468:11531   */\n              tag_262\n              jumpi\n                /* \"#utility.yul\":11527:11528   */\n              0x00\n                /* \"#utility.yul\":11524:11525   */\n              dup1\n                /* \"#utility.yul\":11517:11529   */\n              revert\n                /* \"#utility.yul\":11468:11531   */\n            tag_262:\n                /* \"#utility.yul\":11415:11537   */\n              pop\n              jump\t// out\n                /* \"#utility.yul\":11543:11659   */\n            tag_122:\n                /* \"#utility.yul\":11613:11634   */\n              tag_264\n                /* \"#utility.yul\":11628:11633   */\n              dup2\n                /* \"#utility.yul\":11613:11634   */\n              tag_171\n              jump\t// in\n            tag_264:\n                /* \"#utility.yul\":11606:11611   */\n              dup2\n                /* \"#utility.yul\":11603:11635   */\n              eq\n                /* \"#utility.yul\":11593:11653   */\n              tag_265\n              jumpi\n                /* \"#utility.yul\":11649:11650   */\n              0x00\n                /* \"#utility.yul\":11646:11647   */\n              dup1\n                /* \"#utility.yul\":11639:11651   */\n              revert\n                /* \"#utility.yul\":11593:11653   */\n            tag_265:\n                /* \"#utility.yul\":11543:11659   */\n              pop\n              jump\t// out\n                /* \"#utility.yul\":11665:11787   */\n            tag_126:\n                /* \"#utility.yul\":11738:11762   */\n              tag_267\n                /* \"#utility.yul\":11756:11761   */\n              dup2\n                /* \"#utility.yul\":11738:11762   */\n              tag_202\n              jump\t// in\n            tag_267:\n                /* \"#utility.yul\":11731:11736   */\n              dup2\n                /* \"#utility.yul\":11728:11763   */\n              eq\n                /* \"#utility.yul\":11718:11781   */\n              tag_268\n              jumpi\n                /* \"#utility.yul\":11777:11778   */\n              0x00\n                /* \"#utility.yul\":11774:11775   */\n              dup1\n                /* \"#utility.yul\":11767:11779   */\n              revert\n                /* \"#utility.yul\":11718:11781   */\n            tag_268:\n                /* \"#utility.yul\":11665:11787   */\n              pop\n              jump\t// out\n\n            auxdata: 0xa2646970667358221220324377a7270ea86a9ef0375b9cb21d887b262c6ce6d1944f18e3140ec09f10ec64736f6c63430008070033\n        }\n    }\n\n    auxdata: 0xa264697066735822122090b4de7a1e30181ab3973e8fc7aef4a78769420a6b030f95eba4c444d4430e6264736f6c63430008070033\n}\n",
				"bytecode": {
					"linkReferences": {},
					"object": "60806040523480156200001157600080fd5b5060405162002c3738038062002c378339818101604052810190620000379190620001a7565b60005b8151811015620000da5760008282815181106200005c576200005b62000341565b5b60200260200101519080600181540180825580915050600190039060005260206000200160009091909190916101000a81548173ffffffffffffffffffffffffffffffffffffffff021916908373ffffffffffffffffffffffffffffffffffffffff1602179055508080620000d190620002c4565b9150506200003a565b5050620003de565b6000620000f9620000f38462000221565b620001f8565b905080838252602082019050828560208602820111156200011f576200011e620003a4565b5b60005b858110156200015357816200013888826200015d565b84526020840193506020830192505060018101905062000122565b5050509392505050565b6000815190506200016e81620003c4565b92915050565b600082601f8301126200018c576200018b6200039f565b5b81516200019e848260208601620000e2565b91505092915050565b600060208284031215620001c057620001bf620003ae565b5b600082015167ffffffffffffffff811115620001e157620001e0620003a9565b5b620001ef8482850162000174565b91505092915050565b60006200020462000217565b90506200021282826200028e565b919050565b6000604051905090565b600067ffffffffffffffff8211156200023f576200023e62000370565b5b602082029050602081019050919050565b60006200025d8262000264565b9050919050565b600073ffffffffffffffffffffffffffffffffffffffff82169050919050565b6000819050919050565b6200029982620003b3565b810181811067ffffffffffffffff82111715620002bb57620002ba62000370565b5b80604052505050565b6000620002d18262000284565b91507fffffffffffffffffffffffffffffffffffffffffffffffffffffffffffffffff82141562000307576200030662000312565b5b600182019050919050565b7f4e487b7100000000000000000000000000000000000000000000000000000000600052601160045260246000fd5b7f4e487b7100000000000000000000000000000000000000000000000000000000600052603260045260246000fd5b7f4e487b7100000000000000000000000000000000000000000000000000000000600052604160045260246000fd5b600080fd5b600080fd5b600080fd5b600080fd5b6000601f19601f8301169050919050565b620003cf8162000250565b8114620003db57600080fd5b50565b61284980620003ee6000396000f3fe60806040523480156200001157600080fd5b5060043610620000885760003560e01c806363a9c3d7116200006357806363a9c3d7146200013057806379d6348d1462000166578063b16c6ee7146200019c578063fa69efbd14620001d45762000088565b80630ba3b728146200008d5780633ffefe4e14620000c45780635efabfb814620000fa575b600080fd5b620000ab6004803603810190620000a591906200096c565b620001f6565b604051620000bb92919062000cc0565b60405180910390f35b620000e26004803603810190620000dc919062000afb565b620002d0565b604051620000f1919062000c86565b60405180910390f35b62000118600480360381019062000112919062000a76565b62000333565b60405162000127919062000c86565b60405180910390f35b6200014e6004803603810190620001489190620008a2565b62000419565b6040516200015d919062000ca3565b60405180910390f35b6200018460048036038101906200017e91906200096c565b620004d1565b60405162000193919062000ca3565b60405180910390f35b620001ba6004803603810190620001b491906200096c565b620005a3565b604051620001cb9392919062000d6c565b60405180910390f35b620001de62000682565b604051620001ed919062000dbe565b60405180910390f35b6000606060006001846040516200020e919062000c6d565b908152602001604051809103902060009054906101000a900473ffffffffffffffffffffffffffffffffffffffff1690508073ffffffffffffffffffffffffffffffffffffffff16633c68af3e6040518163ffffffff1660e01b815260040160006040518083038186803b1580156200028657600080fd5b505afa1580156200029b573d6000803e3d6000fd5b505050506040513d6000823e3d601f19601f82011682018060405250810190620002c6919062000906565b9250925050915091565b60008080549050821015620003295760008281548110620002f657620002f56200100b565b5b9060005260206000200160009054906101000a900473ffffffffffffffffffffffffffffffffffffffff1690506200032e565b600090505b919050565b600080833060405162000346906200068e565b6200035392919062000cf4565b604051809103906000f08015801562000370573d6000803e3d6000fd5b5090508060018460405162000386919062000c6d565b908152602001604051809103902060006101000a81548173ffffffffffffffffffffffffffffffffffffffff021916908373ffffffffffffffffffffffffffffffffffffffff1602179055507f54d01f8b44d2bd89acf3407c61452d8d0bb80b60810e6959285c5a944038a676843383604051620004079392919062000d28565b60405180910390a18091505092915050565b600080600090505b600080549050811015620004c6578273ffffffffffffffffffffffffffffffffffffffff16600082815481106200045d576200045c6200100b565b5b9060005260206000200160009054906101000a900473ffffffffffffffffffffffffffffffffffffffff1673ffffffffffffffffffffffffffffffffffffffff161415620004b0576001915050620004cc565b8080620004bd9062000f8e565b91505062000421565b50600090505b919050565b600080600183604051620004e6919062000c6d565b908152602001604051809103902060009054906101000a900473ffffffffffffffffffffffffffffffffffffffff1690508073ffffffffffffffffffffffffffffffffffffffff16632ca151226040518163ffffffff1660e01b8152600401602060405180830381600087803b1580156200056057600080fd5b505af115801562000575573d6000803e3d6000fd5b505050506040513d601f19601f820116820180604052508101906200059b9190620008d4565b915050919050565b60608060606000600185604051620005bc919062000c6d565b908152602001604051809103902060009054906101000a900473ffffffffffffffffffffffffffffffffffffffff1690508073ffffffffffffffffffffffffffffffffffffffff1663596f21f86040518163ffffffff1660e01b815260040160006040518083038186803b1580156200063457600080fd5b505afa15801562000649573d6000803e3d6000fd5b505050506040513d6000823e3d601f19601f82011682018060405250810190620006749190620009bd565b935093509350509193909250565b60008080549050905090565b61173280620010e283390190565b6000620006b3620006ad8462000e04565b62000ddb565b90508083825260208201905082856020860282011115620006d957620006d86200106e565b5b60005b858110156200070d5781620006f28882620007c4565b845260208401935060208301925050600181019050620006dc565b5050509392505050565b60006200072e620007288462000e33565b62000ddb565b9050828152602081018484840111156200074d576200074c62001073565b5b6200075a84828562000f13565b509392505050565b600062000779620007738462000e33565b62000ddb565b90508281526020810184848401111562000798576200079762001073565b5b620007a584828562000f22565b509392505050565b600081359050620007be8162001093565b92915050565b600081519050620007d58162001093565b92915050565b600082601f830112620007f357620007f262001069565b5b8151620008058482602086016200069c565b91505092915050565b6000815190506200081f81620010ad565b92915050565b600082601f8301126200083d576200083c62001069565b5b81356200084f84826020860162000717565b91505092915050565b600082601f83011262000870576200086f62001069565b5b81516200088284826020860162000762565b91505092915050565b6000813590506200089c81620010c7565b92915050565b600060208284031215620008bb57620008ba6200107d565b5b6000620008cb84828501620007ad565b91505092915050565b600060208284031215620008ed57620008ec6200107d565b5b6000620008fd848285016200080e565b91505092915050565b6000806040838503121562000920576200091f6200107d565b5b600062000930858286016200080e565b925050602083015167ffffffffffffffff81111562000954576200095362001078565b5b620009628582860162000858565b9150509250929050565b6000602082840312156200098557620009846200107d565b5b600082013567ffffffffffffffff811115620009a657620009a562001078565b5b620009b48482850162000825565b91505092915050565b600080600060608486031215620009d957620009d86200107d565b5b600084015167ffffffffffffffff811115620009fa57620009f962001078565b5b62000a088682870162000858565b935050602084015167ffffffffffffffff81111562000a2c5762000a2b62001078565b5b62000a3a86828701620007db565b925050604084015167ffffffffffffffff81111562000a5e5762000a5d62001078565b5b62000a6c86828701620007db565b9150509250925092565b6000806040838503121562000a905762000a8f6200107d565b5b600083013567ffffffffffffffff81111562000ab15762000ab062001078565b5b62000abf8582860162000825565b925050602083013567ffffffffffffffff81111562000ae35762000ae262001078565b5b62000af18582860162000825565b9150509250929050565b60006020828403121562000b145762000b136200107d565b5b600062000b24848285016200088b565b91505092915050565b600062000b3b838362000b47565b60208301905092915050565b62000b528162000ec9565b82525050565b62000b638162000ec9565b82525050565b600062000b768262000e79565b62000b82818562000e9c565b935062000b8f8362000e69565b8060005b8381101562000bc657815162000baa888262000b2d565b975062000bb78362000e8f565b92505060018101905062000b93565b5085935050505092915050565b62000bde8162000edd565b82525050565b600062000bf18262000e84565b62000bfd818562000ead565b935062000c0f81856020860162000f22565b62000c1a8162001082565b840191505092915050565b600062000c328262000e84565b62000c3e818562000ebe565b935062000c5081856020860162000f22565b80840191505092915050565b62000c678162000f09565b82525050565b600062000c7b828462000c25565b915081905092915050565b600060208201905062000c9d600083018462000b58565b92915050565b600060208201905062000cba600083018462000bd3565b92915050565b600060408201905062000cd7600083018562000bd3565b818103602083015262000ceb818462000be4565b90509392505050565b6000604082019050818103600083015262000d10818562000be4565b905062000d21602083018462000b58565b9392505050565b6000606082019050818103600083015262000d44818662000be4565b905062000d55602083018562000b58565b62000d64604083018462000b58565b949350505050565b6000606082019050818103600083015262000d88818662000be4565b9050818103602083015262000d9e818562000b69565b9050818103604083015262000db4818462000b69565b9050949350505050565b600060208201905062000dd5600083018462000c5c565b92915050565b600062000de762000dfa565b905062000df5828262000f58565b919050565b6000604051905090565b600067ffffffffffffffff82111562000e225762000e216200103a565b5b602082029050602081019050919050565b600067ffffffffffffffff82111562000e515762000e506200103a565b5b62000e5c8262001082565b9050602081019050919050565b6000819050602082019050919050565b600081519050919050565b600081519050919050565b6000602082019050919050565b600082825260208201905092915050565b600082825260208201905092915050565b600081905092915050565b600062000ed68262000ee9565b9050919050565b60008115159050919050565b600073ffffffffffffffffffffffffffffffffffffffff82169050919050565b6000819050919050565b82818337600083830152505050565b60005b8381101562000f4257808201518184015260208101905062000f25565b8381111562000f52576000848401525b50505050565b62000f638262001082565b810181811067ffffffffffffffff8211171562000f855762000f846200103a565b5b80604052505050565b600062000f9b8262000f09565b91507fffffffffffffffffffffffffffffffffffffffffffffffffffffffffffffffff82141562000fd15762000fd062000fdc565b5b600182019050919050565b7f4e487b7100000000000000000000000000000000000000000000000000000000600052601160045260246000fd5b7f4e487b7100000000000000000000000000000000000000000000000000000000600052603260045260246000fd5b7f4e487b7100000000000000000000000000000000000000000000000000000000600052604160045260246000fd5b600080fd5b600080fd5b600080fd5b600080fd5b600080fd5b6000601f19601f8301169050919050565b6200109e8162000ec9565b8114620010aa57600080fd5b50565b620010b88162000edd565b8114620010c457600080fd5b50565b620010d28162000f09565b8114620010de57600080fd5b5056fe60806040523480156200001157600080fd5b5060405162001732380380620017328339818101604052810190620000379190620003d2565b80600260006101000a81548173ffffffffffffffffffffffffffffffffffffffff021916908373ffffffffffffffffffffffffffffffffffffffff16021790555062000089326200018a60201b60201c565b620000cb576040517f08c379a0000000000000000000000000000000000000000000000000000000008152600401620000c29062000502565b60405180910390fd5b8160009080519060200190620000e392919062000244565b506001329080600181540180825580915050600190039060005260206000200160009091909190916101000a81548173ffffffffffffffffffffffffffffffffffffffff021916908373ffffffffffffffffffffffffffffffffffffffff1602179055507fa34d8f872132d193d2e62e18648026516cd6a9d599cb2f07eda0fd5ab16f162782326040516200017a929190620004ce565b60405180910390a1505062000761565b6000600260009054906101000a900473ffffffffffffffffffffffffffffffffffffffff1673ffffffffffffffffffffffffffffffffffffffff166363a9c3d7836040518263ffffffff1660e01b8152600401620001e99190620004b1565b60206040518083038186803b1580156200020257600080fd5b505afa15801562000217573d6000803e3d6000fd5b505050506040513d601f19601f820116820180604052508101906200023d9190620003a0565b9050919050565b828054620002529062000615565b90600052602060002090601f016020900481019282620002765760008555620002c2565b82601f106200029157805160ff1916838001178555620002c2565b82800160010185558215620002c2579182015b82811115620002c1578251825591602001919060010190620002a4565b5b509050620002d19190620002d5565b5090565b5b80821115620002f0576000816000905550600101620002d6565b5090565b60006200030b62000305846200054d565b62000524565b9050828152602081018484840111156200032a5762000329620006e4565b5b62000337848285620005df565b509392505050565b60008151905062000350816200072d565b92915050565b600081519050620003678162000747565b92915050565b600082601f830112620003855762000384620006df565b5b815162000397848260208601620002f4565b91505092915050565b600060208284031215620003b957620003b8620006ee565b5b6000620003c98482850162000356565b91505092915050565b60008060408385031215620003ec57620003eb620006ee565b5b600083015167ffffffffffffffff8111156200040d576200040c620006e9565b5b6200041b858286016200036d565b92505060206200042e858286016200033f565b9150509250929050565b62000443816200059f565b82525050565b6000620004568262000583565b6200046281856200058e565b935062000474818560208601620005df565b6200047f81620006f3565b840191505092915050565b6000620004996014836200058e565b9150620004a68262000704565b602082019050919050565b6000602082019050620004c8600083018462000438565b92915050565b60006040820190508181036000830152620004ea818562000449565b9050620004fb602083018462000438565b9392505050565b600060208201905081810360008301526200051d816200048a565b9050919050565b60006200053062000543565b90506200053e82826200064b565b919050565b6000604051905090565b600067ffffffffffffffff8211156200056b576200056a620006b0565b5b6200057682620006f3565b9050602081019050919050565b600081519050919050565b600082825260208201905092915050565b6000620005ac82620005bf565b9050919050565b60008115159050919050565b600073ffffffffffffffffffffffffffffffffffffffff82169050919050565b60005b83811015620005ff578082015181840152602081019050620005e2565b838111156200060f576000848401525b50505050565b600060028204905060018216806200062e57607f821691505b6020821081141562000645576200064462000681565b5b50919050565b6200065682620006f3565b810181811067ffffffffffffffff82111715620006785762000677620006b0565b5b80604052505050565b7f4e487b7100000000000000000000000000000000000000000000000000000000600052602260045260246000fd5b7f4e487b7100000000000000000000000000000000000000000000000000000000600052604160045260246000fd5b600080fd5b600080fd5b600080fd5b600080fd5b6000601f19601f8301169050919050565b7f5f7369676e6572206973206e6f742076616c6964000000000000000000000000600082015250565b62000738816200059f565b81146200074457600080fd5b50565b6200075281620005b3565b81146200075e57600080fd5b50565b610fc180620007716000396000f3fe608060405234801561001057600080fd5b50600436106100575760003560e01c80632ca151221461005c5780633c68af3e1461007a57806350ca092814610099578063596f21f8146100c9578063963671be146100e9575b600080fd5b610064610107565b6040516100719190610be9565b60405180910390f35b610082610247565b604051610090929190610c04565b60405180910390f35b6100b360048036038101906100ae919061098c565b61047c565b6040516100c09190610be9565b60405180910390f35b6100d1610530565b6040516100e093929190610c34565b60405180910390f35b6100f1610863565b6040516100fe9190610bce565b60405180910390f35b60006101123261047c565b610151576040517f08c379a000000000000000000000000000000000000000000000000000000000815260040161014890610cb0565b60405180910390fd5b61015a32610889565b156101a2577f57bb3fead2451e6a3a5680e94e3dba9642a2ea6e850811bf18feccc94c5968a9600032604051610191929190610c80565b60405180910390a160019050610244565b6001329080600181540180825580915050600190039060005260206000200160009091909190916101000a81548173ffffffffffffffffffffffffffffffffffffffff021916908373ffffffffffffffffffffffffffffffffffffffff1602179055507fb05e84f77f10ca9cd0a42f11422685a81fb7997e8c2500733527f8c2ee56ab29600032604051610237929190610c80565b60405180910390a1600190505b90565b600060606000600260009054906101000a900473ffffffffffffffffffffffffffffffffffffffff1673ffffffffffffffffffffffffffffffffffffffff1663fa69efbd6040518163ffffffff1660e01b815260040160206040518083038186803b1580156102b557600080fd5b505afa1580156102c9573d6000803e3d6000fd5b505050506040513d601f19601f820116820180604052508101906102ed9190610a13565b905060005b818110156103e1576103ad600260009054906101000a900473ffffffffffffffffffffffffffffffffffffffff1673ffffffffffffffffffffffffffffffffffffffff16633ffefe4e836040518263ffffffff1660e01b81526004016103589190610cd0565b60206040518083038186803b15801561037057600080fd5b505afa158015610384573d6000803e3d6000fd5b505050506040513d601f19601f820116820180604052508101906103a891906109b9565b610889565b6103ce57600060405180602001604052806000815250935093505050610478565b80806103d990610e02565b9150506102f2565b50600160008080546103f290610dd0565b80601f016020809104026020016040519081016040528092919081815260200182805461041e90610dd0565b801561046b5780601f106104405761010080835404028352916020019161046b565b820191906000526020600020905b81548152906001019060200180831161044e57829003601f168201915b5050505050905092509250505b9091565b6000600260009054906101000a900473ffffffffffffffffffffffffffffffffffffffff1673ffffffffffffffffffffffffffffffffffffffff166363a9c3d7836040518263ffffffff1660e01b81526004016104d99190610bce565b60206040518083038186803b1580156104f157600080fd5b505afa158015610505573d6000803e3d6000fd5b505050506040513d601f19601f8201168201806040525081019061052991906109e6565b9050919050565b60608060606000600260009054906101000a900473ffffffffffffffffffffffffffffffffffffffff1673ffffffffffffffffffffffffffffffffffffffff1663fa69efbd6040518163ffffffff1660e01b815260040160206040518083038186803b15801561059f57600080fd5b505afa1580156105b3573d6000803e3d6000fd5b505050506040513d601f19601f820116820180604052508101906105d79190610a13565b905060008167ffffffffffffffff8111156105f5576105f4610ed8565b5b6040519080825280602002602001820160405280156106235781602001602082028036833780820191505090505b50905060005b8281101561073c57600260009054906101000a900473ffffffffffffffffffffffffffffffffffffffff1673ffffffffffffffffffffffffffffffffffffffff16633ffefe4e826040518263ffffffff1660e01b815260040161068c9190610cd0565b60206040518083038186803b1580156106a457600080fd5b505afa1580156106b8573d6000803e3d6000fd5b505050506040513d601f19601f820116820180604052508101906106dc91906109b9565b8282815181106106ef576106ee610ea9565b5b602002602001019073ffffffffffffffffffffffffffffffffffffffff16908173ffffffffffffffffffffffffffffffffffffffff1681525050808061073490610e02565b915050610629565b50600081600182805461074e90610dd0565b80601f016020809104026020016040519081016040528092919081815260200182805461077a90610dd0565b80156107c75780601f1061079c576101008083540402835291602001916107c7565b820191906000526020600020905b8154815290600101906020018083116107aa57829003601f168201915b505050505092508080548060200260200160405190810160405280929190818152602001828054801561084f57602002820191906000526020600020905b8160009054906101000a900473ffffffffffffffffffffffffffffffffffffffff1673ffffffffffffffffffffffffffffffffffffffff1681526020019060010190808311610805575b505050505090509450945094505050909192565b600260009054906101000a900473ffffffffffffffffffffffffffffffffffffffff1681565b600080600090505b60018054905081101561092d578273ffffffffffffffffffffffffffffffffffffffff16600182815481106108c9576108c8610ea9565b5b9060005260206000200160009054906101000a900473ffffffffffffffffffffffffffffffffffffffff1673ffffffffffffffffffffffffffffffffffffffff16141561091a576001915050610933565b808061092590610e02565b915050610891565b50600090505b919050565b60008135905061094781610f46565b92915050565b60008151905061095c81610f46565b92915050565b60008151905061097181610f5d565b92915050565b60008151905061098681610f74565b92915050565b6000602082840312156109a2576109a1610f07565b5b60006109b084828501610938565b91505092915050565b6000602082840312156109cf576109ce610f07565b5b60006109dd8482850161094d565b91505092915050565b6000602082840312156109fc576109fb610f07565b5b6000610a0a84828501610962565b91505092915050565b600060208284031215610a2957610a28610f07565b5b6000610a3784828501610977565b91505092915050565b6000610a4c8383610a58565b60208301905092915050565b610a6181610d55565b82525050565b610a7081610d55565b82525050565b6000610a8182610d10565b610a8b8185610d33565b9350610a9683610ceb565b8060005b83811015610ac7578151610aae8882610a40565b9750610ab983610d26565b925050600181019050610a9a565b5085935050505092915050565b610add81610d67565b82525050565b6000610aee82610d1b565b610af88185610d44565b9350610b08818560208601610d9d565b610b1181610f0c565b840191505092915050565b60008154610b2981610dd0565b610b338186610d44565b94506001821660008114610b4e5760018114610b6057610b93565b60ff1983168652602086019350610b93565b610b6985610cfb565b60005b83811015610b8b57815481890152600182019150602081019050610b6c565b808801955050505b50505092915050565b6000610ba9601483610d44565b9150610bb482610f1d565b602082019050919050565b610bc881610d93565b82525050565b6000602082019050610be36000830184610a67565b92915050565b6000602082019050610bfe6000830184610ad4565b92915050565b6000604082019050610c196000830185610ad4565b8181036020830152610c2b8184610ae3565b90509392505050565b60006060820190508181036000830152610c4e8186610ae3565b90508181036020830152610c628185610a76565b90508181036040830152610c768184610a76565b9050949350505050565b60006040820190508181036000830152610c9a8185610b1c565b9050610ca96020830184610a67565b9392505050565b60006020820190508181036000830152610cc981610b9c565b9050919050565b6000602082019050610ce56000830184610bbf565b92915050565b6000819050602082019050919050565b60008190508160005260206000209050919050565b600081519050919050565b600081519050919050565b6000602082019050919050565b600082825260208201905092915050565b600082825260208201905092915050565b6000610d6082610d73565b9050919050565b60008115159050919050565b600073ffffffffffffffffffffffffffffffffffffffff82169050919050565b6000819050919050565b60005b83811015610dbb578082015181840152602081019050610da0565b83811115610dca576000848401525b50505050565b60006002820490506001821680610de857607f821691505b60208210811415610dfc57610dfb610e7a565b5b50919050565b6000610e0d82610d93565b91507fffffffffffffffffffffffffffffffffffffffffffffffffffffffffffffffff821415610e4057610e3f610e4b565b5b600182019050919050565b7f4e487b7100000000000000000000000000000000000000000000000000000000600052601160045260246000fd5b7f4e487b7100000000000000000000000000000000000000000000000000000000600052602260045260246000fd5b7f4e487b7100000000000000000000000000000000000000000000000000000000600052603260045260246000fd5b7f4e487b7100000000000000000000000000000000000000000000000000000000600052604160045260246000fd5b600080fd5b6000601f19601f8301169050919050565b7f5f7369676e6572206973206e6f742076616c6964000000000000000000000000600082015250565b610f4f81610d55565b8114610f5a57600080fd5b50565b610f6681610d67565b8114610f7157600080fd5b50565b610f7d81610d93565b8114610f8857600080fd5b5056fea2646970667358221220324377a7270ea86a9ef0375b9cb21d887b262c6ce6d1944f18e3140ec09f10ec64736f6c63430008070033a264697066735822122090b4de7a1e30181ab3973e8fc7aef4a78769420a6b030f95eba4c444d4430e6264736f6c63430008070033",
					"opcodes": "PUSH1 0x80 PUSH1 0x40 MSTORE CALLVALUE DUP1 ISZERO PUSH3 0x11 JUMPI PUSH1 0x0 DUP1 REVERT JUMPDEST POP PUSH1 0x40 MLOAD PUSH3 0x2C37 CODESIZE SUB DUP1 PUSH3 0x2C37 DUP4 CODECOPY DUP2 DUP2 ADD PUSH1 0x40 MSTORE DUP2 ADD SWAP1 PUSH3 0x37 SWAP2 SWAP1 PUSH3 0x1A7 JUMP JUMPDEST PUSH1 0x0 JUMPDEST DUP2 MLOAD DUP2 LT ISZERO PUSH3 0xDA JUMPI PUSH1 0x0 DUP3 DUP3 DUP2 MLOAD DUP2 LT PUSH3 0x5C JUMPI PUSH3 0x5B PUSH3 0x341 JUMP JUMPDEST JUMPDEST PUSH1 0x20 MUL PUSH1 0x20 ADD ADD MLOAD SWAP1 DUP1 PUSH1 0x1 DUP2 SLOAD ADD DUP1 DUP3 SSTORE DUP1 SWAP2 POP POP PUSH1 0x1 SWAP1 SUB SWAP1 PUSH1 0x0 MSTORE PUSH1 0x20 PUSH1 0x0 KECCAK256 ADD PUSH1 0x0 SWAP1 SWAP2 SWAP1 SWAP2 SWAP1 SWAP2 PUSH2 0x100 EXP DUP2 SLOAD DUP2 PUSH20 0xFFFFFFFFFFFFFFFFFFFFFFFFFFFFFFFFFFFFFFFF MUL NOT AND SWAP1 DUP4 PUSH20 0xFFFFFFFFFFFFFFFFFFFFFFFFFFFFFFFFFFFFFFFF AND MUL OR SWAP1 SSTORE POP DUP1 DUP1 PUSH3 0xD1 SWAP1 PUSH3 0x2C4 JUMP JUMPDEST SWAP2 POP POP PUSH3 0x3A JUMP JUMPDEST POP POP PUSH3 0x3DE JUMP JUMPDEST PUSH1 0x0 PUSH3 0xF9 PUSH3 0xF3 DUP5 PUSH3 0x221 JUMP JUMPDEST PUSH3 0x1F8 JUMP JUMPDEST SWAP1 POP DUP1 DUP4 DUP3 MSTORE PUSH1 0x20 DUP3 ADD SWAP1 POP DUP3 DUP6 PUSH1 0x20 DUP7 MUL DUP3 ADD GT ISZERO PUSH3 0x11F JUMPI PUSH3 0x11E PUSH3 0x3A4 JUMP JUMPDEST JUMPDEST PUSH1 0x0 JUMPDEST DUP6 DUP2 LT ISZERO PUSH3 0x153 JUMPI DUP2 PUSH3 0x138 DUP9 DUP3 PUSH3 0x15D JUMP JUMPDEST DUP5 MSTORE PUSH1 0x20 DUP5 ADD SWAP4 POP PUSH1 0x20 DUP4 ADD SWAP3 POP POP PUSH1 0x1 DUP2 ADD SWAP1 POP PUSH3 0x122 JUMP JUMPDEST POP POP POP SWAP4 SWAP3 POP POP POP JUMP JUMPDEST PUSH1 0x0 DUP2 MLOAD SWAP1 POP PUSH3 0x16E DUP2 PUSH3 0x3C4 JUMP JUMPDEST SWAP3 SWAP2 POP POP JUMP JUMPDEST PUSH1 0x0 DUP3 PUSH1 0x1F DUP4 ADD SLT PUSH3 0x18C JUMPI PUSH3 0x18B PUSH3 0x39F JUMP JUMPDEST JUMPDEST DUP2 MLOAD PUSH3 0x19E DUP5 DUP3 PUSH1 0x20 DUP7 ADD PUSH3 0xE2 JUMP JUMPDEST SWAP2 POP POP SWAP3 SWAP2 POP POP JUMP JUMPDEST PUSH1 0x0 PUSH1 0x20 DUP3 DUP5 SUB SLT ISZERO PUSH3 0x1C0 JUMPI PUSH3 0x1BF PUSH3 0x3AE JUMP JUMPDEST JUMPDEST PUSH1 0x0 DUP3 ADD MLOAD PUSH8 0xFFFFFFFFFFFFFFFF DUP2 GT ISZERO PUSH3 0x1E1 JUMPI PUSH3 0x1E0 PUSH3 0x3A9 JUMP JUMPDEST JUMPDEST PUSH3 0x1EF DUP5 DUP3 DUP6 ADD PUSH3 0x174 JUMP JUMPDEST SWAP2 POP POP SWAP3 SWAP2 POP POP JUMP JUMPDEST PUSH1 0x0 PUSH3 0x204 PUSH3 0x217 JUMP JUMPDEST SWAP1 POP PUSH3 0x212 DUP3 DUP3 PUSH3 0x28E JUMP JUMPDEST SWAP2 SWAP1 POP JUMP JUMPDEST PUSH1 0x0 PUSH1 0x40 MLOAD SWAP1 POP SWAP1 JUMP JUMPDEST PUSH1 0x0 PUSH8 0xFFFFFFFFFFFFFFFF DUP3 GT ISZERO PUSH3 0x23F JUMPI PUSH3 0x23E PUSH3 0x370 JUMP JUMPDEST JUMPDEST PUSH1 0x20 DUP3 MUL SWAP1 POP PUSH1 0x20 DUP2 ADD SWAP1 POP SWAP2 SWAP1 POP JUMP JUMPDEST PUSH1 0x0 PUSH3 0x25D DUP3 PUSH3 0x264 JUMP JUMPDEST SWAP1 POP SWAP2 SWAP1 POP JUMP JUMPDEST PUSH1 0x0 PUSH20 0xFFFFFFFFFFFFFFFFFFFFFFFFFFFFFFFFFFFFFFFF DUP3 AND SWAP1 POP SWAP2 SWAP1 POP JUMP JUMPDEST PUSH1 0x0 DUP2 SWAP1 POP SWAP2 SWAP1 POP JUMP JUMPDEST PUSH3 0x299 DUP3 PUSH3 0x3B3 JUMP JUMPDEST DUP2 ADD DUP2 DUP2 LT PUSH8 0xFFFFFFFFFFFFFFFF DUP3 GT OR ISZERO PUSH3 0x2BB JUMPI PUSH3 0x2BA PUSH3 0x370 JUMP JUMPDEST JUMPDEST DUP1 PUSH1 0x40 MSTORE POP POP POP JUMP JUMPDEST PUSH1 0x0 PUSH3 0x2D1 DUP3 PUSH3 0x284 JUMP JUMPDEST SWAP2 POP PUSH32 0xFFFFFFFFFFFFFFFFFFFFFFFFFFFFFFFFFFFFFFFFFFFFFFFFFFFFFFFFFFFFFFFF DUP3 EQ ISZERO PUSH3 0x307 JUMPI PUSH3 0x306 PUSH3 0x312 JUMP JUMPDEST JUMPDEST PUSH1 0x1 DUP3 ADD SWAP1 POP SWAP2 SWAP1 POP JUMP JUMPDEST PUSH32 0x4E487B7100000000000000000000000000000000000000000000000000000000 PUSH1 0x0 MSTORE PUSH1 0x11 PUSH1 0x4 MSTORE PUSH1 0x24 PUSH1 0x0 REVERT JUMPDEST PUSH32 0x4E487B7100000000000000000000000000000000000000000000000000000000 PUSH1 0x0 MSTORE PUSH1 0x32 PUSH1 0x4 MSTORE PUSH1 0x24 PUSH1 0x0 REVERT JUMPDEST PUSH32 0x4E487B7100000000000000000000000000000000000000000000000000000000 PUSH1 0x0 MSTORE PUSH1 0x41 PUSH1 0x4 MSTORE PUSH1 0x24 PUSH1 0x0 REVERT JUMPDEST PUSH1 0x0 DUP1 REVERT JUMPDEST PUSH1 0x0 DUP1 REVERT JUMPDEST PUSH1 0x0 DUP1 REVERT JUMPDEST PUSH1 0x0 DUP1 REVERT JUMPDEST PUSH1 0x0 PUSH1 0x1F NOT PUSH1 0x1F DUP4 ADD AND SWAP1 POP SWAP2 SWAP1 POP JUMP JUMPDEST PUSH3 0x3CF DUP2 PUSH3 0x250 JUMP JUMPDEST DUP2 EQ PUSH3 0x3DB JUMPI PUSH1 0x0 DUP1 REVERT JUMPDEST POP JUMP JUMPDEST PUSH2 0x2849 DUP1 PUSH3 0x3EE PUSH1 0x0 CODECOPY PUSH1 0x0 RETURN INVALID PUSH1 0x80 PUSH1 0x40 MSTORE CALLVALUE DUP1 ISZERO PUSH3 0x11 JUMPI PUSH1 0x0 DUP1 REVERT JUMPDEST POP PUSH1 0x4 CALLDATASIZE LT PUSH3 0x88 JUMPI PUSH1 0x0 CALLDATALOAD PUSH1 0xE0 SHR DUP1 PUSH4 0x63A9C3D7 GT PUSH3 0x63 JUMPI DUP1 PUSH4 0x63A9C3D7 EQ PUSH3 0x130 JUMPI DUP1 PUSH4 0x79D6348D EQ PUSH3 0x166 JUMPI DUP1 PUSH4 0xB16C6EE7 EQ PUSH3 0x19C JUMPI DUP1 PUSH4 0xFA69EFBD EQ PUSH3 0x1D4 JUMPI PUSH3 0x88 JUMP JUMPDEST DUP1 PUSH4 0xBA3B728 EQ PUSH3 0x8D JUMPI DUP1 PUSH4 0x3FFEFE4E EQ PUSH3 0xC4 JUMPI DUP1 PUSH4 0x5EFABFB8 EQ PUSH3 0xFA JUMPI JUMPDEST PUSH1 0x0 DUP1 REVERT JUMPDEST PUSH3 0xAB PUSH1 0x4 DUP1 CALLDATASIZE SUB DUP2 ADD SWAP1 PUSH3 0xA5 SWAP2 SWAP1 PUSH3 0x96C JUMP JUMPDEST PUSH3 0x1F6 JUMP JUMPDEST PUSH1 0x40 MLOAD PUSH3 0xBB SWAP3 SWAP2 SWAP1 PUSH3 0xCC0 JUMP JUMPDEST PUSH1 0x40 MLOAD DUP1 SWAP2 SUB SWAP1 RETURN JUMPDEST PUSH3 0xE2 PUSH1 0x4 DUP1 CALLDATASIZE SUB DUP2 ADD SWAP1 PUSH3 0xDC SWAP2 SWAP1 PUSH3 0xAFB JUMP JUMPDEST PUSH3 0x2D0 JUMP JUMPDEST PUSH1 0x40 MLOAD PUSH3 0xF1 SWAP2 SWAP1 PUSH3 0xC86 JUMP JUMPDEST PUSH1 0x40 MLOAD DUP1 SWAP2 SUB SWAP1 RETURN JUMPDEST PUSH3 0x118 PUSH1 0x4 DUP1 CALLDATASIZE SUB DUP2 ADD SWAP1 PUSH3 0x112 SWAP2 SWAP1 PUSH3 0xA76 JUMP JUMPDEST PUSH3 0x333 JUMP JUMPDEST PUSH1 0x40 MLOAD PUSH3 0x127 SWAP2 SWAP1 PUSH3 0xC86 JUMP JUMPDEST PUSH1 0x40 MLOAD DUP1 SWAP2 SUB SWAP1 RETURN JUMPDEST PUSH3 0x14E PUSH1 0x4 DUP1 CALLDATASIZE SUB DUP2 ADD SWAP1 PUSH3 0x148 SWAP2 SWAP1 PUSH3 0x8A2 JUMP JUMPDEST PUSH3 0x419 JUMP JUMPDEST PUSH1 0x40 MLOAD PUSH3 0x15D SWAP2 SWAP1 PUSH3 0xCA3 JUMP JUMPDEST PUSH1 0x40 MLOAD DUP1 SWAP2 SUB SWAP1 RETURN JUMPDEST PUSH3 0x184 PUSH1 0x4 DUP1 CALLDATASIZE SUB DUP2 ADD SWAP1 PUSH3 0x17E SWAP2 SWAP1 PUSH3 0x96C JUMP JUMPDEST PUSH3 0x4D1 JUMP JUMPDEST PUSH1 0x40 MLOAD PUSH3 0x193 SWAP2 SWAP1 PUSH3 0xCA3 JUMP JUMPDEST PUSH1 0x40 MLOAD DUP1 SWAP2 SUB SWAP1 RETURN JUMPDEST PUSH3 0x1BA PUSH1 0x4 DUP1 CALLDATASIZE SUB DUP2 ADD SWAP1 PUSH3 0x1B4 SWAP2 SWAP1 PUSH3 0x96C JUMP JUMPDEST PUSH3 0x5A3 JUMP JUMPDEST PUSH1 0x40 MLOAD PUSH3 0x1CB SWAP4 SWAP3 SWAP2 SWAP1 PUSH3 0xD6C JUMP JUMPDEST PUSH1 0x40 MLOAD DUP1 SWAP2 SUB SWAP1 RETURN JUMPDEST PUSH3 0x1DE PUSH3 0x682 JUMP JUMPDEST PUSH1 0x40 MLOAD PUSH3 0x1ED SWAP2 SWAP1 PUSH3 0xDBE JUMP JUMPDEST PUSH1 0x40 MLOAD DUP1 SWAP2 SUB SWAP1 RETURN JUMPDEST PUSH1 0x0 PUSH1 0x60 PUSH1 0x0 PUSH1 0x1 DUP5 PUSH1 0x40 MLOAD PUSH3 0x20E SWAP2 SWAP1 PUSH3 0xC6D JUMP JUMPDEST SWAP1 DUP2 MSTORE PUSH1 0x20 ADD PUSH1 0x40 MLOAD DUP1 SWAP2 SUB SWAP1 KECCAK256 PUSH1 0x0 SWAP1 SLOAD SWAP1 PUSH2 0x100 EXP SWAP1 DIV PUSH20 0xFFFFFFFFFFFFFFFFFFFFFFFFFFFFFFFFFFFFFFFF AND SWAP1 POP DUP1 PUSH20 0xFFFFFFFFFFFFFFFFFFFFFFFFFFFFFFFFFFFFFFFF AND PUSH4 0x3C68AF3E PUSH1 0x40 MLOAD DUP2 PUSH4 0xFFFFFFFF AND PUSH1 0xE0 SHL DUP2 MSTORE PUSH1 0x4 ADD PUSH1 0x0 PUSH1 0x40 MLOAD DUP1 DUP4 SUB DUP2 DUP7 DUP1 EXTCODESIZE ISZERO DUP1 ISZERO PUSH3 0x286 JUMPI PUSH1 0x0 DUP1 REVERT JUMPDEST POP GAS STATICCALL ISZERO DUP1 ISZERO PUSH3 0x29B JUMPI RETURNDATASIZE PUSH1 0x0 DUP1 RETURNDATACOPY RETURNDATASIZE PUSH1 0x0 REVERT JUMPDEST POP POP POP POP PUSH1 0x40 MLOAD RETURNDATASIZE PUSH1 0x0 DUP3 RETURNDATACOPY RETURNDATASIZE PUSH1 0x1F NOT PUSH1 0x1F DUP3 ADD AND DUP3 ADD DUP1 PUSH1 0x40 MSTORE POP DUP2 ADD SWAP1 PUSH3 0x2C6 SWAP2 SWAP1 PUSH3 0x906 JUMP JUMPDEST SWAP3 POP SWAP3 POP POP SWAP2 POP SWAP2 JUMP JUMPDEST PUSH1 0x0 DUP1 DUP1 SLOAD SWAP1 POP DUP3 LT ISZERO PUSH3 0x329 JUMPI PUSH1 0x0 DUP3 DUP2 SLOAD DUP2 LT PUSH3 0x2F6 JUMPI PUSH3 0x2F5 PUSH3 0x100B JUMP JUMPDEST JUMPDEST SWAP1 PUSH1 0x0 MSTORE PUSH1 0x20 PUSH1 0x0 KECCAK256 ADD PUSH1 0x0 SWAP1 SLOAD SWAP1 PUSH2 0x100 EXP SWAP1 DIV PUSH20 0xFFFFFFFFFFFFFFFFFFFFFFFFFFFFFFFFFFFFFFFF AND SWAP1 POP PUSH3 0x32E JUMP JUMPDEST PUSH1 0x0 SWAP1 POP JUMPDEST SWAP2 SWAP1 POP JUMP JUMPDEST PUSH1 0x0 DUP1 DUP4 ADDRESS PUSH1 0x40 MLOAD PUSH3 0x346 SWAP1 PUSH3 0x68E JUMP JUMPDEST PUSH3 0x353 SWAP3 SWAP2 SWAP1 PUSH3 0xCF4 JUMP JUMPDEST PUSH1 0x40 MLOAD DUP1 SWAP2 SUB SWAP1 PUSH1 0x0 CREATE DUP1 ISZERO DUP1 ISZERO PUSH3 0x370 JUMPI RETURNDATASIZE PUSH1 0x0 DUP1 RETURNDATACOPY RETURNDATASIZE PUSH1 0x0 REVERT JUMPDEST POP SWAP1 POP DUP1 PUSH1 0x1 DUP5 PUSH1 0x40 MLOAD PUSH3 0x386 SWAP2 SWAP1 PUSH3 0xC6D JUMP JUMPDEST SWAP1 DUP2 MSTORE PUSH1 0x20 ADD PUSH1 0x40 MLOAD DUP1 SWAP2 SUB SWAP1 KECCAK256 PUSH1 0x0 PUSH2 0x100 EXP DUP2 SLOAD DUP2 PUSH20 0xFFFFFFFFFFFFFFFFFFFFFFFFFFFFFFFFFFFFFFFF MUL NOT AND SWAP1 DUP4 PUSH20 0xFFFFFFFFFFFFFFFFFFFFFFFFFFFFFFFFFFFFFFFF AND MUL OR SWAP1 SSTORE POP PUSH32 0x54D01F8B44D2BD89ACF3407C61452D8D0BB80B60810E6959285C5A944038A676 DUP5 CALLER DUP4 PUSH1 0x40 MLOAD PUSH3 0x407 SWAP4 SWAP3 SWAP2 SWAP1 PUSH3 0xD28 JUMP JUMPDEST PUSH1 0x40 MLOAD DUP1 SWAP2 SUB SWAP1 LOG1 DUP1 SWAP2 POP POP SWAP3 SWAP2 POP POP JUMP JUMPDEST PUSH1 0x0 DUP1 PUSH1 0x0 SWAP1 POP JUMPDEST PUSH1 0x0 DUP1 SLOAD SWAP1 POP DUP2 LT ISZERO PUSH3 0x4C6 JUMPI DUP3 PUSH20 0xFFFFFFFFFFFFFFFFFFFFFFFFFFFFFFFFFFFFFFFF AND PUSH1 0x0 DUP3 DUP2 SLOAD DUP2 LT PUSH3 0x45D JUMPI PUSH3 0x45C PUSH3 0x100B JUMP JUMPDEST JUMPDEST SWAP1 PUSH1 0x0 MSTORE PUSH1 0x20 PUSH1 0x0 KECCAK256 ADD PUSH1 0x0 SWAP1 SLOAD SWAP1 PUSH2 0x100 EXP SWAP1 DIV PUSH20 0xFFFFFFFFFFFFFFFFFFFFFFFFFFFFFFFFFFFFFFFF AND PUSH20 0xFFFFFFFFFFFFFFFFFFFFFFFFFFFFFFFFFFFFFFFF AND EQ ISZERO PUSH3 0x4B0 JUMPI PUSH1 0x1 SWAP2 POP POP PUSH3 0x4CC JUMP JUMPDEST DUP1 DUP1 PUSH3 0x4BD SWAP1 PUSH3 0xF8E JUMP JUMPDEST SWAP2 POP POP PUSH3 0x421 JUMP JUMPDEST POP PUSH1 0x0 SWAP1 POP JUMPDEST SWAP2 SWAP1 POP JUMP JUMPDEST PUSH1 0x0 DUP1 PUSH1 0x1 DUP4 PUSH1 0x40 MLOAD PUSH3 0x4E6 SWAP2 SWAP1 PUSH3 0xC6D JUMP JUMPDEST SWAP1 DUP2 MSTORE PUSH1 0x20 ADD PUSH1 0x40 MLOAD DUP1 SWAP2 SUB SWAP1 KECCAK256 PUSH1 0x0 SWAP1 SLOAD SWAP1 PUSH2 0x100 EXP SWAP1 DIV PUSH20 0xFFFFFFFFFFFFFFFFFFFFFFFFFFFFFFFFFFFFFFFF AND SWAP1 POP DUP1 PUSH20 0xFFFFFFFFFFFFFFFFFFFFFFFFFFFFFFFFFFFFFFFF AND PUSH4 0x2CA15122 PUSH1 0x40 MLOAD DUP2 PUSH4 0xFFFFFFFF AND PUSH1 0xE0 SHL DUP2 MSTORE PUSH1 0x4 ADD PUSH1 0x20 PUSH1 0x40 MLOAD DUP1 DUP4 SUB DUP2 PUSH1 0x0 DUP8 DUP1 EXTCODESIZE ISZERO DUP1 ISZERO PUSH3 0x560 JUMPI PUSH1 0x0 DUP1 REVERT JUMPDEST POP GAS CALL ISZERO DUP1 ISZERO PUSH3 0x575 JUMPI RETURNDATASIZE PUSH1 0x0 DUP1 RETURNDATACOPY RETURNDATASIZE PUSH1 0x0 REVERT JUMPDEST POP POP POP POP PUSH1 0x40 MLOAD RETURNDATASIZE PUSH1 0x1F NOT PUSH1 0x1F DUP3 ADD AND DUP3 ADD DUP1 PUSH1 0x40 MSTORE POP DUP2 ADD SWAP1 PUSH3 0x59B SWAP2 SWAP1 PUSH3 0x8D4 JUMP JUMPDEST SWAP2 POP POP SWAP2 SWAP1 POP JUMP JUMPDEST PUSH1 0x60 DUP1 PUSH1 0x60 PUSH1 0x0 PUSH1 0x1 DUP6 PUSH1 0x40 MLOAD PUSH3 0x5BC SWAP2 SWAP1 PUSH3 0xC6D JUMP JUMPDEST SWAP1 DUP2 MSTORE PUSH1 0x20 ADD PUSH1 0x40 MLOAD DUP1 SWAP2 SUB SWAP1 KECCAK256 PUSH1 0x0 SWAP1 SLOAD SWAP1 PUSH2 0x100 EXP SWAP1 DIV PUSH20 0xFFFFFFFFFFFFFFFFFFFFFFFFFFFFFFFFFFFFFFFF AND SWAP1 POP DUP1 PUSH20 0xFFFFFFFFFFFFFFFFFFFFFFFFFFFFFFFFFFFFFFFF AND PUSH4 0x596F21F8 PUSH1 0x40 MLOAD DUP2 PUSH4 0xFFFFFFFF AND PUSH1 0xE0 SHL DUP2 MSTORE PUSH1 0x4 ADD PUSH1 0x0 PUSH1 0x40 MLOAD DUP1 DUP4 SUB DUP2 DUP7 DUP1 EXTCODESIZE ISZERO DUP1 ISZERO PUSH3 0x634 JUMPI PUSH1 0x0 DUP1 REVERT JUMPDEST POP GAS STATICCALL ISZERO DUP1 ISZERO PUSH3 0x649 JUMPI RETURNDATASIZE PUSH1 0x0 DUP1 RETURNDATACOPY RETURNDATASIZE PUSH1 0x0 REVERT JUMPDEST POP POP POP POP PUSH1 0x40 MLOAD RETURNDATASIZE PUSH1 0x0 DUP3 RETURNDATACOPY RETURNDATASIZE PUSH1 0x1F NOT PUSH1 0x1F DUP3 ADD AND DUP3 ADD DUP1 PUSH1 0x40 MSTORE POP DUP2 ADD SWAP1 PUSH3 0x674 SWAP2 SWAP1 PUSH3 0x9BD JUMP JUMPDEST SWAP4 POP SWAP4 POP SWAP4 POP POP SWAP2 SWAP4 SWAP1 SWAP3 POP JUMP JUMPDEST PUSH1 0x0 DUP1 DUP1 SLOAD SWAP1 POP SWAP1 POP SWAP1 JUMP JUMPDEST PUSH2 0x1732 DUP1 PUSH3 0x10E2 DUP4 CODECOPY ADD SWAP1 JUMP JUMPDEST PUSH1 0x0 PUSH3 0x6B3 PUSH3 0x6AD DUP5 PUSH3 0xE04 JUMP JUMPDEST PUSH3 0xDDB JUMP JUMPDEST SWAP1 POP DUP1 DUP4 DUP3 MSTORE PUSH1 0x20 DUP3 ADD SWAP1 POP DUP3 DUP6 PUSH1 0x20 DUP7 MUL DUP3 ADD GT ISZERO PUSH3 0x6D9 JUMPI PUSH3 0x6D8 PUSH3 0x106E JUMP JUMPDEST JUMPDEST PUSH1 0x0 JUMPDEST DUP6 DUP2 LT ISZERO PUSH3 0x70D JUMPI DUP2 PUSH3 0x6F2 DUP9 DUP3 PUSH3 0x7C4 JUMP JUMPDEST DUP5 MSTORE PUSH1 0x20 DUP5 ADD SWAP4 POP PUSH1 0x20 DUP4 ADD SWAP3 POP POP PUSH1 0x1 DUP2 ADD SWAP1 POP PUSH3 0x6DC JUMP JUMPDEST POP POP POP SWAP4 SWAP3 POP POP POP JUMP JUMPDEST PUSH1 0x0 PUSH3 0x72E PUSH3 0x728 DUP5 PUSH3 0xE33 JUMP JUMPDEST PUSH3 0xDDB JUMP JUMPDEST SWAP1 POP DUP3 DUP2 MSTORE PUSH1 0x20 DUP2 ADD DUP5 DUP5 DUP5 ADD GT ISZERO PUSH3 0x74D JUMPI PUSH3 0x74C PUSH3 0x1073 JUMP JUMPDEST JUMPDEST PUSH3 0x75A DUP5 DUP3 DUP6 PUSH3 0xF13 JUMP JUMPDEST POP SWAP4 SWAP3 POP POP POP JUMP JUMPDEST PUSH1 0x0 PUSH3 0x779 PUSH3 0x773 DUP5 PUSH3 0xE33 JUMP JUMPDEST PUSH3 0xDDB JUMP JUMPDEST SWAP1 POP DUP3 DUP2 MSTORE PUSH1 0x20 DUP2 ADD DUP5 DUP5 DUP5 ADD GT ISZERO PUSH3 0x798 JUMPI PUSH3 0x797 PUSH3 0x1073 JUMP JUMPDEST JUMPDEST PUSH3 0x7A5 DUP5 DUP3 DUP6 PUSH3 0xF22 JUMP JUMPDEST POP SWAP4 SWAP3 POP POP POP JUMP JUMPDEST PUSH1 0x0 DUP2 CALLDATALOAD SWAP1 POP PUSH3 0x7BE DUP2 PUSH3 0x1093 JUMP JUMPDEST SWAP3 SWAP2 POP POP JUMP JUMPDEST PUSH1 0x0 DUP2 MLOAD SWAP1 POP PUSH3 0x7D5 DUP2 PUSH3 0x1093 JUMP JUMPDEST SWAP3 SWAP2 POP POP JUMP JUMPDEST PUSH1 0x0 DUP3 PUSH1 0x1F DUP4 ADD SLT PUSH3 0x7F3 JUMPI PUSH3 0x7F2 PUSH3 0x1069 JUMP JUMPDEST JUMPDEST DUP2 MLOAD PUSH3 0x805 DUP5 DUP3 PUSH1 0x20 DUP7 ADD PUSH3 0x69C JUMP JUMPDEST SWAP2 POP POP SWAP3 SWAP2 POP POP JUMP JUMPDEST PUSH1 0x0 DUP2 MLOAD SWAP1 POP PUSH3 0x81F DUP2 PUSH3 0x10AD JUMP JUMPDEST SWAP3 SWAP2 POP POP JUMP JUMPDEST PUSH1 0x0 DUP3 PUSH1 0x1F DUP4 ADD SLT PUSH3 0x83D JUMPI PUSH3 0x83C PUSH3 0x1069 JUMP JUMPDEST JUMPDEST DUP2 CALLDATALOAD PUSH3 0x84F DUP5 DUP3 PUSH1 0x20 DUP7 ADD PUSH3 0x717 JUMP JUMPDEST SWAP2 POP POP SWAP3 SWAP2 POP POP JUMP JUMPDEST PUSH1 0x0 DUP3 PUSH1 0x1F DUP4 ADD SLT PUSH3 0x870 JUMPI PUSH3 0x86F PUSH3 0x1069 JUMP JUMPDEST JUMPDEST DUP2 MLOAD PUSH3 0x882 DUP5 DUP3 PUSH1 0x20 DUP7 ADD PUSH3 0x762 JUMP JUMPDEST SWAP2 POP POP SWAP3 SWAP2 POP POP JUMP JUMPDEST PUSH1 0x0 DUP2 CALLDATALOAD SWAP1 POP PUSH3 0x89C DUP2 PUSH3 0x10C7 JUMP JUMPDEST SWAP3 SWAP2 POP POP JUMP JUMPDEST PUSH1 0x0 PUSH1 0x20 DUP3 DUP5 SUB SLT ISZERO PUSH3 0x8BB JUMPI PUSH3 0x8BA PUSH3 0x107D JUMP JUMPDEST JUMPDEST PUSH1 0x0 PUSH3 0x8CB DUP5 DUP3 DUP6 ADD PUSH3 0x7AD JUMP JUMPDEST SWAP2 POP POP SWAP3 SWAP2 POP POP JUMP JUMPDEST PUSH1 0x0 PUSH1 0x20 DUP3 DUP5 SUB SLT ISZERO PUSH3 0x8ED JUMPI PUSH3 0x8EC PUSH3 0x107D JUMP JUMPDEST JUMPDEST PUSH1 0x0 PUSH3 0x8FD DUP5 DUP3 DUP6 ADD PUSH3 0x80E JUMP JUMPDEST SWAP2 POP POP SWAP3 SWAP2 POP POP JUMP JUMPDEST PUSH1 0x0 DUP1 PUSH1 0x40 DUP4 DUP6 SUB SLT ISZERO PUSH3 0x920 JUMPI PUSH3 0x91F PUSH3 0x107D JUMP JUMPDEST JUMPDEST PUSH1 0x0 PUSH3 0x930 DUP6 DUP3 DUP7 ADD PUSH3 0x80E JUMP JUMPDEST SWAP3 POP POP PUSH1 0x20 DUP4 ADD MLOAD PUSH8 0xFFFFFFFFFFFFFFFF DUP2 GT ISZERO PUSH3 0x954 JUMPI PUSH3 0x953 PUSH3 0x1078 JUMP JUMPDEST JUMPDEST PUSH3 0x962 DUP6 DUP3 DUP7 ADD PUSH3 0x858 JUMP JUMPDEST SWAP2 POP POP SWAP3 POP SWAP3 SWAP1 POP JUMP JUMPDEST PUSH1 0x0 PUSH1 0x20 DUP3 DUP5 SUB SLT ISZERO PUSH3 0x985 JUMPI PUSH3 0x984 PUSH3 0x107D JUMP JUMPDEST JUMPDEST PUSH1 0x0 DUP3 ADD CALLDATALOAD PUSH8 0xFFFFFFFFFFFFFFFF DUP2 GT ISZERO PUSH3 0x9A6 JUMPI PUSH3 0x9A5 PUSH3 0x1078 JUMP JUMPDEST JUMPDEST PUSH3 0x9B4 DUP5 DUP3 DUP6 ADD PUSH3 0x825 JUMP JUMPDEST SWAP2 POP POP SWAP3 SWAP2 POP POP JUMP JUMPDEST PUSH1 0x0 DUP1 PUSH1 0x0 PUSH1 0x60 DUP5 DUP7 SUB SLT ISZERO PUSH3 0x9D9 JUMPI PUSH3 0x9D8 PUSH3 0x107D JUMP JUMPDEST JUMPDEST PUSH1 0x0 DUP5 ADD MLOAD PUSH8 0xFFFFFFFFFFFFFFFF DUP2 GT ISZERO PUSH3 0x9FA JUMPI PUSH3 0x9F9 PUSH3 0x1078 JUMP JUMPDEST JUMPDEST PUSH3 0xA08 DUP7 DUP3 DUP8 ADD PUSH3 0x858 JUMP JUMPDEST SWAP4 POP POP PUSH1 0x20 DUP5 ADD MLOAD PUSH8 0xFFFFFFFFFFFFFFFF DUP2 GT ISZERO PUSH3 0xA2C JUMPI PUSH3 0xA2B PUSH3 0x1078 JUMP JUMPDEST JUMPDEST PUSH3 0xA3A DUP7 DUP3 DUP8 ADD PUSH3 0x7DB JUMP JUMPDEST SWAP3 POP POP PUSH1 0x40 DUP5 ADD MLOAD PUSH8 0xFFFFFFFFFFFFFFFF DUP2 GT ISZERO PUSH3 0xA5E JUMPI PUSH3 0xA5D PUSH3 0x1078 JUMP JUMPDEST JUMPDEST PUSH3 0xA6C DUP7 DUP3 DUP8 ADD PUSH3 0x7DB JUMP JUMPDEST SWAP2 POP POP SWAP3 POP SWAP3 POP SWAP3 JUMP JUMPDEST PUSH1 0x0 DUP1 PUSH1 0x40 DUP4 DUP6 SUB SLT ISZERO PUSH3 0xA90 JUMPI PUSH3 0xA8F PUSH3 0x107D JUMP JUMPDEST JUMPDEST PUSH1 0x0 DUP4 ADD CALLDATALOAD PUSH8 0xFFFFFFFFFFFFFFFF DUP2 GT ISZERO PUSH3 0xAB1 JUMPI PUSH3 0xAB0 PUSH3 0x1078 JUMP JUMPDEST JUMPDEST PUSH3 0xABF DUP6 DUP3 DUP7 ADD PUSH3 0x825 JUMP JUMPDEST SWAP3 POP POP PUSH1 0x20 DUP4 ADD CALLDATALOAD PUSH8 0xFFFFFFFFFFFFFFFF DUP2 GT ISZERO PUSH3 0xAE3 JUMPI PUSH3 0xAE2 PUSH3 0x1078 JUMP JUMPDEST JUMPDEST PUSH3 0xAF1 DUP6 DUP3 DUP7 ADD PUSH3 0x825 JUMP JUMPDEST SWAP2 POP POP SWAP3 POP SWAP3 SWAP1 POP JUMP JUMPDEST PUSH1 0x0 PUSH1 0x20 DUP3 DUP5 SUB SLT ISZERO PUSH3 0xB14 JUMPI PUSH3 0xB13 PUSH3 0x107D JUMP JUMPDEST JUMPDEST PUSH1 0x0 PUSH3 0xB24 DUP5 DUP3 DUP6 ADD PUSH3 0x88B JUMP JUMPDEST SWAP2 POP POP SWAP3 SWAP2 POP POP JUMP JUMPDEST PUSH1 0x0 PUSH3 0xB3B DUP4 DUP4 PUSH3 0xB47 JUMP JUMPDEST PUSH1 0x20 DUP4 ADD SWAP1 POP SWAP3 SWAP2 POP POP JUMP JUMPDEST PUSH3 0xB52 DUP2 PUSH3 0xEC9 JUMP JUMPDEST DUP3 MSTORE POP POP JUMP JUMPDEST PUSH3 0xB63 DUP2 PUSH3 0xEC9 JUMP JUMPDEST DUP3 MSTORE POP POP JUMP JUMPDEST PUSH1 0x0 PUSH3 0xB76 DUP3 PUSH3 0xE79 JUMP JUMPDEST PUSH3 0xB82 DUP2 DUP6 PUSH3 0xE9C JUMP JUMPDEST SWAP4 POP PUSH3 0xB8F DUP4 PUSH3 0xE69 JUMP JUMPDEST DUP1 PUSH1 0x0 JUMPDEST DUP4 DUP2 LT ISZERO PUSH3 0xBC6 JUMPI DUP2 MLOAD PUSH3 0xBAA DUP9 DUP3 PUSH3 0xB2D JUMP JUMPDEST SWAP8 POP PUSH3 0xBB7 DUP4 PUSH3 0xE8F JUMP JUMPDEST SWAP3 POP POP PUSH1 0x1 DUP2 ADD SWAP1 POP PUSH3 0xB93 JUMP JUMPDEST POP DUP6 SWAP4 POP POP POP POP SWAP3 SWAP2 POP POP JUMP JUMPDEST PUSH3 0xBDE DUP2 PUSH3 0xEDD JUMP JUMPDEST DUP3 MSTORE POP POP JUMP JUMPDEST PUSH1 0x0 PUSH3 0xBF1 DUP3 PUSH3 0xE84 JUMP JUMPDEST PUSH3 0xBFD DUP2 DUP6 PUSH3 0xEAD JUMP JUMPDEST SWAP4 POP PUSH3 0xC0F DUP2 DUP6 PUSH1 0x20 DUP7 ADD PUSH3 0xF22 JUMP JUMPDEST PUSH3 0xC1A DUP2 PUSH3 0x1082 JUMP JUMPDEST DUP5 ADD SWAP2 POP POP SWAP3 SWAP2 POP POP JUMP JUMPDEST PUSH1 0x0 PUSH3 0xC32 DUP3 PUSH3 0xE84 JUMP JUMPDEST PUSH3 0xC3E DUP2 DUP6 PUSH3 0xEBE JUMP JUMPDEST SWAP4 POP PUSH3 0xC50 DUP2 DUP6 PUSH1 0x20 DUP7 ADD PUSH3 0xF22 JUMP JUMPDEST DUP1 DUP5 ADD SWAP2 POP POP SWAP3 SWAP2 POP POP JUMP JUMPDEST PUSH3 0xC67 DUP2 PUSH3 0xF09 JUMP JUMPDEST DUP3 MSTORE POP POP JUMP JUMPDEST PUSH1 0x0 PUSH3 0xC7B DUP3 DUP5 PUSH3 0xC25 JUMP JUMPDEST SWAP2 POP DUP2 SWAP1 POP SWAP3 SWAP2 POP POP JUMP JUMPDEST PUSH1 0x0 PUSH1 0x20 DUP3 ADD SWAP1 POP PUSH3 0xC9D PUSH1 0x0 DUP4 ADD DUP5 PUSH3 0xB58 JUMP JUMPDEST SWAP3 SWAP2 POP POP JUMP JUMPDEST PUSH1 0x0 PUSH1 0x20 DUP3 ADD SWAP1 POP PUSH3 0xCBA PUSH1 0x0 DUP4 ADD DUP5 PUSH3 0xBD3 JUMP JUMPDEST SWAP3 SWAP2 POP POP JUMP JUMPDEST PUSH1 0x0 PUSH1 0x40 DUP3 ADD SWAP1 POP PUSH3 0xCD7 PUSH1 0x0 DUP4 ADD DUP6 PUSH3 0xBD3 JUMP JUMPDEST DUP2 DUP2 SUB PUSH1 0x20 DUP4 ADD MSTORE PUSH3 0xCEB DUP2 DUP5 PUSH3 0xBE4 JUMP JUMPDEST SWAP1 POP SWAP4 SWAP3 POP POP POP JUMP JUMPDEST PUSH1 0x0 PUSH1 0x40 DUP3 ADD SWAP1 POP DUP2 DUP2 SUB PUSH1 0x0 DUP4 ADD MSTORE PUSH3 0xD10 DUP2 DUP6 PUSH3 0xBE4 JUMP JUMPDEST SWAP1 POP PUSH3 0xD21 PUSH1 0x20 DUP4 ADD DUP5 PUSH3 0xB58 JUMP JUMPDEST SWAP4 SWAP3 POP POP POP JUMP JUMPDEST PUSH1 0x0 PUSH1 0x60 DUP3 ADD SWAP1 POP DUP2 DUP2 SUB PUSH1 0x0 DUP4 ADD MSTORE PUSH3 0xD44 DUP2 DUP7 PUSH3 0xBE4 JUMP JUMPDEST SWAP1 POP PUSH3 0xD55 PUSH1 0x20 DUP4 ADD DUP6 PUSH3 0xB58 JUMP JUMPDEST PUSH3 0xD64 PUSH1 0x40 DUP4 ADD DUP5 PUSH3 0xB58 JUMP JUMPDEST SWAP5 SWAP4 POP POP POP POP JUMP JUMPDEST PUSH1 0x0 PUSH1 0x60 DUP3 ADD SWAP1 POP DUP2 DUP2 SUB PUSH1 0x0 DUP4 ADD MSTORE PUSH3 0xD88 DUP2 DUP7 PUSH3 0xBE4 JUMP JUMPDEST SWAP1 POP DUP2 DUP2 SUB PUSH1 0x20 DUP4 ADD MSTORE PUSH3 0xD9E DUP2 DUP6 PUSH3 0xB69 JUMP JUMPDEST SWAP1 POP DUP2 DUP2 SUB PUSH1 0x40 DUP4 ADD MSTORE PUSH3 0xDB4 DUP2 DUP5 PUSH3 0xB69 JUMP JUMPDEST SWAP1 POP SWAP5 SWAP4 POP POP POP POP JUMP JUMPDEST PUSH1 0x0 PUSH1 0x20 DUP3 ADD SWAP1 POP PUSH3 0xDD5 PUSH1 0x0 DUP4 ADD DUP5 PUSH3 0xC5C JUMP JUMPDEST SWAP3 SWAP2 POP POP JUMP JUMPDEST PUSH1 0x0 PUSH3 0xDE7 PUSH3 0xDFA JUMP JUMPDEST SWAP1 POP PUSH3 0xDF5 DUP3 DUP3 PUSH3 0xF58 JUMP JUMPDEST SWAP2 SWAP1 POP JUMP JUMPDEST PUSH1 0x0 PUSH1 0x40 MLOAD SWAP1 POP SWAP1 JUMP JUMPDEST PUSH1 0x0 PUSH8 0xFFFFFFFFFFFFFFFF DUP3 GT ISZERO PUSH3 0xE22 JUMPI PUSH3 0xE21 PUSH3 0x103A JUMP JUMPDEST JUMPDEST PUSH1 0x20 DUP3 MUL SWAP1 POP PUSH1 0x20 DUP2 ADD SWAP1 POP SWAP2 SWAP1 POP JUMP JUMPDEST PUSH1 0x0 PUSH8 0xFFFFFFFFFFFFFFFF DUP3 GT ISZERO PUSH3 0xE51 JUMPI PUSH3 0xE50 PUSH3 0x103A JUMP JUMPDEST JUMPDEST PUSH3 0xE5C DUP3 PUSH3 0x1082 JUMP JUMPDEST SWAP1 POP PUSH1 0x20 DUP2 ADD SWAP1 POP SWAP2 SWAP1 POP JUMP JUMPDEST PUSH1 0x0 DUP2 SWAP1 POP PUSH1 0x20 DUP3 ADD SWAP1 POP SWAP2 SWAP1 POP JUMP JUMPDEST PUSH1 0x0 DUP2 MLOAD SWAP1 POP SWAP2 SWAP1 POP JUMP JUMPDEST PUSH1 0x0 DUP2 MLOAD SWAP1 POP SWAP2 SWAP1 POP JUMP JUMPDEST PUSH1 0x0 PUSH1 0x20 DUP3 ADD SWAP1 POP SWAP2 SWAP1 POP JUMP JUMPDEST PUSH1 0x0 DUP3 DUP3 MSTORE PUSH1 0x20 DUP3 ADD SWAP1 POP SWAP3 SWAP2 POP POP JUMP JUMPDEST PUSH1 0x0 DUP3 DUP3 MSTORE PUSH1 0x20 DUP3 ADD SWAP1 POP SWAP3 SWAP2 POP POP JUMP JUMPDEST PUSH1 0x0 DUP2 SWAP1 POP SWAP3 SWAP2 POP POP JUMP JUMPDEST PUSH1 0x0 PUSH3 0xED6 DUP3 PUSH3 0xEE9 JUMP JUMPDEST SWAP1 POP SWAP2 SWAP1 POP JUMP JUMPDEST PUSH1 0x0 DUP2 ISZERO ISZERO SWAP1 POP SWAP2 SWAP1 POP JUMP JUMPDEST PUSH1 0x0 PUSH20 0xFFFFFFFFFFFFFFFFFFFFFFFFFFFFFFFFFFFFFFFF DUP3 AND SWAP1 POP SWAP2 SWAP1 POP JUMP JUMPDEST PUSH1 0x0 DUP2 SWAP1 POP SWAP2 SWAP1 POP JUMP JUMPDEST DUP3 DUP2 DUP4 CALLDATACOPY PUSH1 0x0 DUP4 DUP4 ADD MSTORE POP POP POP JUMP JUMPDEST PUSH1 0x0 JUMPDEST DUP4 DUP2 LT ISZERO PUSH3 0xF42 JUMPI DUP1 DUP3 ADD MLOAD DUP2 DUP5 ADD MSTORE PUSH1 0x20 DUP2 ADD SWAP1 POP PUSH3 0xF25 JUMP JUMPDEST DUP4 DUP2 GT ISZERO PUSH3 0xF52 JUMPI PUSH1 0x0 DUP5 DUP5 ADD MSTORE JUMPDEST POP POP POP POP JUMP JUMPDEST PUSH3 0xF63 DUP3 PUSH3 0x1082 JUMP JUMPDEST DUP2 ADD DUP2 DUP2 LT PUSH8 0xFFFFFFFFFFFFFFFF DUP3 GT OR ISZERO PUSH3 0xF85 JUMPI PUSH3 0xF84 PUSH3 0x103A JUMP JUMPDEST JUMPDEST DUP1 PUSH1 0x40 MSTORE POP POP POP JUMP JUMPDEST PUSH1 0x0 PUSH3 0xF9B DUP3 PUSH3 0xF09 JUMP JUMPDEST SWAP2 POP PUSH32 0xFFFFFFFFFFFFFFFFFFFFFFFFFFFFFFFFFFFFFFFFFFFFFFFFFFFFFFFFFFFFFFFF DUP3 EQ ISZERO PUSH3 0xFD1 JUMPI PUSH3 0xFD0 PUSH3 0xFDC JUMP JUMPDEST JUMPDEST PUSH1 0x1 DUP3 ADD SWAP1 POP SWAP2 SWAP1 POP JUMP JUMPDEST PUSH32 0x4E487B7100000000000000000000000000000000000000000000000000000000 PUSH1 0x0 MSTORE PUSH1 0x11 PUSH1 0x4 MSTORE PUSH1 0x24 PUSH1 0x0 REVERT JUMPDEST PUSH32 0x4E487B7100000000000000000000000000000000000000000000000000000000 PUSH1 0x0 MSTORE PUSH1 0x32 PUSH1 0x4 MSTORE PUSH1 0x24 PUSH1 0x0 REVERT JUMPDEST PUSH32 0x4E487B7100000000000000000000000000000000000000000000000000000000 PUSH1 0x0 MSTORE PUSH1 0x41 PUSH1 0x4 MSTORE PUSH1 0x24 PUSH1 0x0 REVERT JUMPDEST PUSH1 0x0 DUP1 REVERT JUMPDEST PUSH1 0x0 DUP1 REVERT JUMPDEST PUSH1 0x0 DUP1 REVERT JUMPDEST PUSH1 0x0 DUP1 REVERT JUMPDEST PUSH1 0x0 DUP1 REVERT JUMPDEST PUSH1 0x0 PUSH1 0x1F NOT PUSH1 0x1F DUP4 ADD AND SWAP1 POP SWAP2 SWAP1 POP JUMP JUMPDEST PUSH3 0x109E DUP2 PUSH3 0xEC9 JUMP JUMPDEST DUP2 EQ PUSH3 0x10AA JUMPI PUSH1 0x0 DUP1 REVERT JUMPDEST POP JUMP JUMPDEST PUSH3 0x10B8 DUP2 PUSH3 0xEDD JUMP JUMPDEST DUP2 EQ PUSH3 0x10C4 JUMPI PUSH1 0x0 DUP1 REVERT JUMPDEST POP JUMP JUMPDEST PUSH3 0x10D2 DUP2 PUSH3 0xF09 JUMP JUMPDEST DUP2 EQ PUSH3 0x10DE JUMPI PUSH1 0x0 DUP1 REVERT JUMPDEST POP JUMP INVALID PUSH1 0x80 PUSH1 0x40 MSTORE CALLVALUE DUP1 ISZERO PUSH3 0x11 JUMPI PUSH1 0x0 DUP1 REVERT JUMPDEST POP PUSH1 0x40 MLOAD PUSH3 0x1732 CODESIZE SUB DUP1 PUSH3 0x1732 DUP4 CODECOPY DUP2 DUP2 ADD PUSH1 0x40 MSTORE DUP2 ADD SWAP1 PUSH3 0x37 SWAP2 SWAP1 PUSH3 0x3D2 JUMP JUMPDEST DUP1 PUSH1 0x2 PUSH1 0x0 PUSH2 0x100 EXP DUP2 SLOAD DUP2 PUSH20 0xFFFFFFFFFFFFFFFFFFFFFFFFFFFFFFFFFFFFFFFF MUL NOT AND SWAP1 DUP4 PUSH20 0xFFFFFFFFFFFFFFFFFFFFFFFFFFFFFFFFFFFFFFFF AND MUL OR SWAP1 SSTORE POP PUSH3 0x89 ORIGIN PUSH3 0x18A PUSH1 0x20 SHL PUSH1 0x20 SHR JUMP JUMPDEST PUSH3 0xCB JUMPI PUSH1 0x40 MLOAD PUSH32 0x8C379A000000000000000000000000000000000000000000000000000000000 DUP2 MSTORE PUSH1 0x4 ADD PUSH3 0xC2 SWAP1 PUSH3 0x502 JUMP JUMPDEST PUSH1 0x40 MLOAD DUP1 SWAP2 SUB SWAP1 REVERT JUMPDEST DUP2 PUSH1 0x0 SWAP1 DUP1 MLOAD SWAP1 PUSH1 0x20 ADD SWAP1 PUSH3 0xE3 SWAP3 SWAP2 SWAP1 PUSH3 0x244 JUMP JUMPDEST POP PUSH1 0x1 ORIGIN SWAP1 DUP1 PUSH1 0x1 DUP2 SLOAD ADD DUP1 DUP3 SSTORE DUP1 SWAP2 POP POP PUSH1 0x1 SWAP1 SUB SWAP1 PUSH1 0x0 MSTORE PUSH1 0x20 PUSH1 0x0 KECCAK256 ADD PUSH1 0x0 SWAP1 SWAP2 SWAP1 SWAP2 SWAP1 SWAP2 PUSH2 0x100 EXP DUP2 SLOAD DUP2 PUSH20 0xFFFFFFFFFFFFFFFFFFFFFFFFFFFFFFFFFFFFFFFF MUL NOT AND SWAP1 DUP4 PUSH20 0xFFFFFFFFFFFFFFFFFFFFFFFFFFFFFFFFFFFFFFFF AND MUL OR SWAP1 SSTORE POP PUSH32 0xA34D8F872132D193D2E62E18648026516CD6A9D599CB2F07EDA0FD5AB16F1627 DUP3 ORIGIN PUSH1 0x40 MLOAD PUSH3 0x17A SWAP3 SWAP2 SWAP1 PUSH3 0x4CE JUMP JUMPDEST PUSH1 0x40 MLOAD DUP1 SWAP2 SUB SWAP1 LOG1 POP POP PUSH3 0x761 JUMP JUMPDEST PUSH1 0x0 PUSH1 0x2 PUSH1 0x0 SWAP1 SLOAD SWAP1 PUSH2 0x100 EXP SWAP1 DIV PUSH20 0xFFFFFFFFFFFFFFFFFFFFFFFFFFFFFFFFFFFFFFFF AND PUSH20 0xFFFFFFFFFFFFFFFFFFFFFFFFFFFFFFFFFFFFFFFF AND PUSH4 0x63A9C3D7 DUP4 PUSH1 0x40 MLOAD DUP3 PUSH4 0xFFFFFFFF AND PUSH1 0xE0 SHL DUP2 MSTORE PUSH1 0x4 ADD PUSH3 0x1E9 SWAP2 SWAP1 PUSH3 0x4B1 JUMP JUMPDEST PUSH1 0x20 PUSH1 0x40 MLOAD DUP1 DUP4 SUB DUP2 DUP7 DUP1 EXTCODESIZE ISZERO DUP1 ISZERO PUSH3 0x202 JUMPI PUSH1 0x0 DUP1 REVERT JUMPDEST POP GAS STATICCALL ISZERO DUP1 ISZERO PUSH3 0x217 JUMPI RETURNDATASIZE PUSH1 0x0 DUP1 RETURNDATACOPY RETURNDATASIZE PUSH1 0x0 REVERT JUMPDEST POP POP POP POP PUSH1 0x40 MLOAD RETURNDATASIZE PUSH1 0x1F NOT PUSH1 0x1F DUP3 ADD AND DUP3 ADD DUP1 PUSH1 0x40 MSTORE POP DUP2 ADD SWAP1 PUSH3 0x23D SWAP2 SWAP1 PUSH3 0x3A0 JUMP JUMPDEST SWAP1 POP SWAP2 SWAP1 POP JUMP JUMPDEST DUP3 DUP1 SLOAD PUSH3 0x252 SWAP1 PUSH3 0x615 JUMP JUMPDEST SWAP1 PUSH1 0x0 MSTORE PUSH1 0x20 PUSH1 0x0 KECCAK256 SWAP1 PUSH1 0x1F ADD PUSH1 0x20 SWAP1 DIV DUP2 ADD SWAP3 DUP3 PUSH3 0x276 JUMPI PUSH1 0x0 DUP6 SSTORE PUSH3 0x2C2 JUMP JUMPDEST DUP3 PUSH1 0x1F LT PUSH3 0x291 JUMPI DUP1 MLOAD PUSH1 0xFF NOT AND DUP4 DUP1 ADD OR DUP6 SSTORE PUSH3 0x2C2 JUMP JUMPDEST DUP3 DUP1 ADD PUSH1 0x1 ADD DUP6 SSTORE DUP3 ISZERO PUSH3 0x2C2 JUMPI SWAP2 DUP3 ADD JUMPDEST DUP3 DUP2 GT ISZERO PUSH3 0x2C1 JUMPI DUP3 MLOAD DUP3 SSTORE SWAP2 PUSH1 0x20 ADD SWAP2 SWAP1 PUSH1 0x1 ADD SWAP1 PUSH3 0x2A4 JUMP JUMPDEST JUMPDEST POP SWAP1 POP PUSH3 0x2D1 SWAP2 SWAP1 PUSH3 0x2D5 JUMP JUMPDEST POP SWAP1 JUMP JUMPDEST JUMPDEST DUP1 DUP3 GT ISZERO PUSH3 0x2F0 JUMPI PUSH1 0x0 DUP2 PUSH1 0x0 SWAP1 SSTORE POP PUSH1 0x1 ADD PUSH3 0x2D6 JUMP JUMPDEST POP SWAP1 JUMP JUMPDEST PUSH1 0x0 PUSH3 0x30B PUSH3 0x305 DUP5 PUSH3 0x54D JUMP JUMPDEST PUSH3 0x524 JUMP JUMPDEST SWAP1 POP DUP3 DUP2 MSTORE PUSH1 0x20 DUP2 ADD DUP5 DUP5 DUP5 ADD GT ISZERO PUSH3 0x32A JUMPI PUSH3 0x329 PUSH3 0x6E4 JUMP JUMPDEST JUMPDEST PUSH3 0x337 DUP5 DUP3 DUP6 PUSH3 0x5DF JUMP JUMPDEST POP SWAP4 SWAP3 POP POP POP JUMP JUMPDEST PUSH1 0x0 DUP2 MLOAD SWAP1 POP PUSH3 0x350 DUP2 PUSH3 0x72D JUMP JUMPDEST SWAP3 SWAP2 POP POP JUMP JUMPDEST PUSH1 0x0 DUP2 MLOAD SWAP1 POP PUSH3 0x367 DUP2 PUSH3 0x747 JUMP JUMPDEST SWAP3 SWAP2 POP POP JUMP JUMPDEST PUSH1 0x0 DUP3 PUSH1 0x1F DUP4 ADD SLT PUSH3 0x385 JUMPI PUSH3 0x384 PUSH3 0x6DF JUMP JUMPDEST JUMPDEST DUP2 MLOAD PUSH3 0x397 DUP5 DUP3 PUSH1 0x20 DUP7 ADD PUSH3 0x2F4 JUMP JUMPDEST SWAP2 POP POP SWAP3 SWAP2 POP POP JUMP JUMPDEST PUSH1 0x0 PUSH1 0x20 DUP3 DUP5 SUB SLT ISZERO PUSH3 0x3B9 JUMPI PUSH3 0x3B8 PUSH3 0x6EE JUMP JUMPDEST JUMPDEST PUSH1 0x0 PUSH3 0x3C9 DUP5 DUP3 DUP6 ADD PUSH3 0x356 JUMP JUMPDEST SWAP2 POP POP SWAP3 SWAP2 POP POP JUMP JUMPDEST PUSH1 0x0 DUP1 PUSH1 0x40 DUP4 DUP6 SUB SLT ISZERO PUSH3 0x3EC JUMPI PUSH3 0x3EB PUSH3 0x6EE JUMP JUMPDEST JUMPDEST PUSH1 0x0 DUP4 ADD MLOAD PUSH8 0xFFFFFFFFFFFFFFFF DUP2 GT ISZERO PUSH3 0x40D JUMPI PUSH3 0x40C PUSH3 0x6E9 JUMP JUMPDEST JUMPDEST PUSH3 0x41B DUP6 DUP3 DUP7 ADD PUSH3 0x36D JUMP JUMPDEST SWAP3 POP POP PUSH1 0x20 PUSH3 0x42E DUP6 DUP3 DUP7 ADD PUSH3 0x33F JUMP JUMPDEST SWAP2 POP POP SWAP3 POP SWAP3 SWAP1 POP JUMP JUMPDEST PUSH3 0x443 DUP2 PUSH3 0x59F JUMP JUMPDEST DUP3 MSTORE POP POP JUMP JUMPDEST PUSH1 0x0 PUSH3 0x456 DUP3 PUSH3 0x583 JUMP JUMPDEST PUSH3 0x462 DUP2 DUP6 PUSH3 0x58E JUMP JUMPDEST SWAP4 POP PUSH3 0x474 DUP2 DUP6 PUSH1 0x20 DUP7 ADD PUSH3 0x5DF JUMP JUMPDEST PUSH3 0x47F DUP2 PUSH3 0x6F3 JUMP JUMPDEST DUP5 ADD SWAP2 POP POP SWAP3 SWAP2 POP POP JUMP JUMPDEST PUSH1 0x0 PUSH3 0x499 PUSH1 0x14 DUP4 PUSH3 0x58E JUMP JUMPDEST SWAP2 POP PUSH3 0x4A6 DUP3 PUSH3 0x704 JUMP JUMPDEST PUSH1 0x20 DUP3 ADD SWAP1 POP SWAP2 SWAP1 POP JUMP JUMPDEST PUSH1 0x0 PUSH1 0x20 DUP3 ADD SWAP1 POP PUSH3 0x4C8 PUSH1 0x0 DUP4 ADD DUP5 PUSH3 0x438 JUMP JUMPDEST SWAP3 SWAP2 POP POP JUMP JUMPDEST PUSH1 0x0 PUSH1 0x40 DUP3 ADD SWAP1 POP DUP2 DUP2 SUB PUSH1 0x0 DUP4 ADD MSTORE PUSH3 0x4EA DUP2 DUP6 PUSH3 0x449 JUMP JUMPDEST SWAP1 POP PUSH3 0x4FB PUSH1 0x20 DUP4 ADD DUP5 PUSH3 0x438 JUMP JUMPDEST SWAP4 SWAP3 POP POP POP JUMP JUMPDEST PUSH1 0x0 PUSH1 0x20 DUP3 ADD SWAP1 POP DUP2 DUP2 SUB PUSH1 0x0 DUP4 ADD MSTORE PUSH3 0x51D DUP2 PUSH3 0x48A JUMP JUMPDEST SWAP1 POP SWAP2 SWAP1 POP JUMP JUMPDEST PUSH1 0x0 PUSH3 0x530 PUSH3 0x543 JUMP JUMPDEST SWAP1 POP PUSH3 0x53E DUP3 DUP3 PUSH3 0x64B JUMP JUMPDEST SWAP2 SWAP1 POP JUMP JUMPDEST PUSH1 0x0 PUSH1 0x40 MLOAD SWAP1 POP SWAP1 JUMP JUMPDEST PUSH1 0x0 PUSH8 0xFFFFFFFFFFFFFFFF DUP3 GT ISZERO PUSH3 0x56B JUMPI PUSH3 0x56A PUSH3 0x6B0 JUMP JUMPDEST JUMPDEST PUSH3 0x576 DUP3 PUSH3 0x6F3 JUMP JUMPDEST SWAP1 POP PUSH1 0x20 DUP2 ADD SWAP1 POP SWAP2 SWAP1 POP JUMP JUMPDEST PUSH1 0x0 DUP2 MLOAD SWAP1 POP SWAP2 SWAP1 POP JUMP JUMPDEST PUSH1 0x0 DUP3 DUP3 MSTORE PUSH1 0x20 DUP3 ADD SWAP1 POP SWAP3 SWAP2 POP POP JUMP JUMPDEST PUSH1 0x0 PUSH3 0x5AC DUP3 PUSH3 0x5BF JUMP JUMPDEST SWAP1 POP SWAP2 SWAP1 POP JUMP JUMPDEST PUSH1 0x0 DUP2 ISZERO ISZERO SWAP1 POP SWAP2 SWAP1 POP JUMP JUMPDEST PUSH1 0x0 PUSH20 0xFFFFFFFFFFFFFFFFFFFFFFFFFFFFFFFFFFFFFFFF DUP3 AND SWAP1 POP SWAP2 SWAP1 POP JUMP JUMPDEST PUSH1 0x0 JUMPDEST DUP4 DUP2 LT ISZERO PUSH3 0x5FF JUMPI DUP1 DUP3 ADD MLOAD DUP2 DUP5 ADD MSTORE PUSH1 0x20 DUP2 ADD SWAP1 POP PUSH3 0x5E2 JUMP JUMPDEST DUP4 DUP2 GT ISZERO PUSH3 0x60F JUMPI PUSH1 0x0 DUP5 DUP5 ADD MSTORE JUMPDEST POP POP POP POP JUMP JUMPDEST PUSH1 0x0 PUSH1 0x2 DUP3 DIV SWAP1 POP PUSH1 0x1 DUP3 AND DUP1 PUSH3 0x62E JUMPI PUSH1 0x7F DUP3 AND SWAP2 POP JUMPDEST PUSH1 0x20 DUP3 LT DUP2 EQ ISZERO PUSH3 0x645 JUMPI PUSH3 0x644 PUSH3 0x681 JUMP JUMPDEST JUMPDEST POP SWAP2 SWAP1 POP JUMP JUMPDEST PUSH3 0x656 DUP3 PUSH3 0x6F3 JUMP JUMPDEST DUP2 ADD DUP2 DUP2 LT PUSH8 0xFFFFFFFFFFFFFFFF DUP3 GT OR ISZERO PUSH3 0x678 JUMPI PUSH3 0x677 PUSH3 0x6B0 JUMP JUMPDEST JUMPDEST DUP1 PUSH1 0x40 MSTORE POP POP POP JUMP JUMPDEST PUSH32 0x4E487B7100000000000000000000000000000000000000000000000000000000 PUSH1 0x0 MSTORE PUSH1 0x22 PUSH1 0x4 MSTORE PUSH1 0x24 PUSH1 0x0 REVERT JUMPDEST PUSH32 0x4E487B7100000000000000000000000000000000000000000000000000000000 PUSH1 0x0 MSTORE PUSH1 0x41 PUSH1 0x4 MSTORE PUSH1 0x24 PUSH1 0x0 REVERT JUMPDEST PUSH1 0x0 DUP1 REVERT JUMPDEST PUSH1 0x0 DUP1 REVERT JUMPDEST PUSH1 0x0 DUP1 REVERT JUMPDEST PUSH1 0x0 DUP1 REVERT JUMPDEST PUSH1 0x0 PUSH1 0x1F NOT PUSH1 0x1F DUP4 ADD AND SWAP1 POP SWAP2 SWAP1 POP JUMP JUMPDEST PUSH32 0x5F7369676E6572206973206E6F742076616C6964000000000000000000000000 PUSH1 0x0 DUP3 ADD MSTORE POP JUMP JUMPDEST PUSH3 0x738 DUP2 PUSH3 0x59F JUMP JUMPDEST DUP2 EQ PUSH3 0x744 JUMPI PUSH1 0x0 DUP1 REVERT JUMPDEST POP JUMP JUMPDEST PUSH3 0x752 DUP2 PUSH3 0x5B3 JUMP JUMPDEST DUP2 EQ PUSH3 0x75E JUMPI PUSH1 0x0 DUP1 REVERT JUMPDEST POP JUMP JUMPDEST PUSH2 0xFC1 DUP1 PUSH3 0x771 PUSH1 0x0 CODECOPY PUSH1 0x0 RETURN INVALID PUSH1 0x80 PUSH1 0x40 MSTORE CALLVALUE DUP1 ISZERO PUSH2 0x10 JUMPI PUSH1 0x0 DUP1 REVERT JUMPDEST POP PUSH1 0x4 CALLDATASIZE LT PUSH2 0x57 JUMPI PUSH1 0x0 CALLDATALOAD PUSH1 0xE0 SHR DUP1 PUSH4 0x2CA15122 EQ PUSH2 0x5C JUMPI DUP1 PUSH4 0x3C68AF3E EQ PUSH2 0x7A JUMPI DUP1 PUSH4 0x50CA0928 EQ PUSH2 0x99 JUMPI DUP1 PUSH4 0x596F21F8 EQ PUSH2 0xC9 JUMPI DUP1 PUSH4 0x963671BE EQ PUSH2 0xE9 JUMPI JUMPDEST PUSH1 0x0 DUP1 REVERT JUMPDEST PUSH2 0x64 PUSH2 0x107 JUMP JUMPDEST PUSH1 0x40 MLOAD PUSH2 0x71 SWAP2 SWAP1 PUSH2 0xBE9 JUMP JUMPDEST PUSH1 0x40 MLOAD DUP1 SWAP2 SUB SWAP1 RETURN JUMPDEST PUSH2 0x82 PUSH2 0x247 JUMP JUMPDEST PUSH1 0x40 MLOAD PUSH2 0x90 SWAP3 SWAP2 SWAP1 PUSH2 0xC04 JUMP JUMPDEST PUSH1 0x40 MLOAD DUP1 SWAP2 SUB SWAP1 RETURN JUMPDEST PUSH2 0xB3 PUSH1 0x4 DUP1 CALLDATASIZE SUB DUP2 ADD SWAP1 PUSH2 0xAE SWAP2 SWAP1 PUSH2 0x98C JUMP JUMPDEST PUSH2 0x47C JUMP JUMPDEST PUSH1 0x40 MLOAD PUSH2 0xC0 SWAP2 SWAP1 PUSH2 0xBE9 JUMP JUMPDEST PUSH1 0x40 MLOAD DUP1 SWAP2 SUB SWAP1 RETURN JUMPDEST PUSH2 0xD1 PUSH2 0x530 JUMP JUMPDEST PUSH1 0x40 MLOAD PUSH2 0xE0 SWAP4 SWAP3 SWAP2 SWAP1 PUSH2 0xC34 JUMP JUMPDEST PUSH1 0x40 MLOAD DUP1 SWAP2 SUB SWAP1 RETURN JUMPDEST PUSH2 0xF1 PUSH2 0x863 JUMP JUMPDEST PUSH1 0x40 MLOAD PUSH2 0xFE SWAP2 SWAP1 PUSH2 0xBCE JUMP JUMPDEST PUSH1 0x40 MLOAD DUP1 SWAP2 SUB SWAP1 RETURN JUMPDEST PUSH1 0x0 PUSH2 0x112 ORIGIN PUSH2 0x47C JUMP JUMPDEST PUSH2 0x151 JUMPI PUSH1 0x40 MLOAD PUSH32 0x8C379A000000000000000000000000000000000000000000000000000000000 DUP2 MSTORE PUSH1 0x4 ADD PUSH2 0x148 SWAP1 PUSH2 0xCB0 JUMP JUMPDEST PUSH1 0x40 MLOAD DUP1 SWAP2 SUB SWAP1 REVERT JUMPDEST PUSH2 0x15A ORIGIN PUSH2 0x889 JUMP JUMPDEST ISZERO PUSH2 0x1A2 JUMPI PUSH32 0x57BB3FEAD2451E6A3A5680E94E3DBA9642A2EA6E850811BF18FECCC94C5968A9 PUSH1 0x0 ORIGIN PUSH1 0x40 MLOAD PUSH2 0x191 SWAP3 SWAP2 SWAP1 PUSH2 0xC80 JUMP JUMPDEST PUSH1 0x40 MLOAD DUP1 SWAP2 SUB SWAP1 LOG1 PUSH1 0x1 SWAP1 POP PUSH2 0x244 JUMP JUMPDEST PUSH1 0x1 ORIGIN SWAP1 DUP1 PUSH1 0x1 DUP2 SLOAD ADD DUP1 DUP3 SSTORE DUP1 SWAP2 POP POP PUSH1 0x1 SWAP1 SUB SWAP1 PUSH1 0x0 MSTORE PUSH1 0x20 PUSH1 0x0 KECCAK256 ADD PUSH1 0x0 SWAP1 SWAP2 SWAP1 SWAP2 SWAP1 SWAP2 PUSH2 0x100 EXP DUP2 SLOAD DUP2 PUSH20 0xFFFFFFFFFFFFFFFFFFFFFFFFFFFFFFFFFFFFFFFF MUL NOT AND SWAP1 DUP4 PUSH20 0xFFFFFFFFFFFFFFFFFFFFFFFFFFFFFFFFFFFFFFFF AND MUL OR SWAP1 SSTORE POP PUSH32 0xB05E84F77F10CA9CD0A42F11422685A81FB7997E8C2500733527F8C2EE56AB29 PUSH1 0x0 ORIGIN PUSH1 0x40 MLOAD PUSH2 0x237 SWAP3 SWAP2 SWAP1 PUSH2 0xC80 JUMP JUMPDEST PUSH1 0x40 MLOAD DUP1 SWAP2 SUB SWAP1 LOG1 PUSH1 0x1 SWAP1 POP JUMPDEST SWAP1 JUMP JUMPDEST PUSH1 0x0 PUSH1 0x60 PUSH1 0x0 PUSH1 0x2 PUSH1 0x0 SWAP1 SLOAD SWAP1 PUSH2 0x100 EXP SWAP1 DIV PUSH20 0xFFFFFFFFFFFFFFFFFFFFFFFFFFFFFFFFFFFFFFFF AND PUSH20 0xFFFFFFFFFFFFFFFFFFFFFFFFFFFFFFFFFFFFFFFF AND PUSH4 0xFA69EFBD PUSH1 0x40 MLOAD DUP2 PUSH4 0xFFFFFFFF AND PUSH1 0xE0 SHL DUP2 MSTORE PUSH1 0x4 ADD PUSH1 0x20 PUSH1 0x40 MLOAD DUP1 DUP4 SUB DUP2 DUP7 DUP1 EXTCODESIZE ISZERO DUP1 ISZERO PUSH2 0x2B5 JUMPI PUSH1 0x0 DUP1 REVERT JUMPDEST POP GAS STATICCALL ISZERO DUP1 ISZERO PUSH2 0x2C9 JUMPI RETURNDATASIZE PUSH1 0x0 DUP1 RETURNDATACOPY RETURNDATASIZE PUSH1 0x0 REVERT JUMPDEST POP POP POP POP PUSH1 0x40 MLOAD RETURNDATASIZE PUSH1 0x1F NOT PUSH1 0x1F DUP3 ADD AND DUP3 ADD DUP1 PUSH1 0x40 MSTORE POP DUP2 ADD SWAP1 PUSH2 0x2ED SWAP2 SWAP1 PUSH2 0xA13 JUMP JUMPDEST SWAP1 POP PUSH1 0x0 JUMPDEST DUP2 DUP2 LT ISZERO PUSH2 0x3E1 JUMPI PUSH2 0x3AD PUSH1 0x2 PUSH1 0x0 SWAP1 SLOAD SWAP1 PUSH2 0x100 EXP SWAP1 DIV PUSH20 0xFFFFFFFFFFFFFFFFFFFFFFFFFFFFFFFFFFFFFFFF AND PUSH20 0xFFFFFFFFFFFFFFFFFFFFFFFFFFFFFFFFFFFFFFFF AND PUSH4 0x3FFEFE4E DUP4 PUSH1 0x40 MLOAD DUP3 PUSH4 0xFFFFFFFF AND PUSH1 0xE0 SHL DUP2 MSTORE PUSH1 0x4 ADD PUSH2 0x358 SWAP2 SWAP1 PUSH2 0xCD0 JUMP JUMPDEST PUSH1 0x20 PUSH1 0x40 MLOAD DUP1 DUP4 SUB DUP2 DUP7 DUP1 EXTCODESIZE ISZERO DUP1 ISZERO PUSH2 0x370 JUMPI PUSH1 0x0 DUP1 REVERT JUMPDEST POP GAS STATICCALL ISZERO DUP1 ISZERO PUSH2 0x384 JUMPI RETURNDATASIZE PUSH1 0x0 DUP1 RETURNDATACOPY RETURNDATASIZE PUSH1 0x0 REVERT JUMPDEST POP POP POP POP PUSH1 0x40 MLOAD RETURNDATASIZE PUSH1 0x1F NOT PUSH1 0x1F DUP3 ADD AND DUP3 ADD DUP1 PUSH1 0x40 MSTORE POP DUP2 ADD SWAP1 PUSH2 0x3A8 SWAP2 SWAP1 PUSH2 0x9B9 JUMP JUMPDEST PUSH2 0x889 JUMP JUMPDEST PUSH2 0x3CE JUMPI PUSH1 0x0 PUSH1 0x40 MLOAD DUP1 PUSH1 0x20 ADD PUSH1 0x40 MSTORE DUP1 PUSH1 0x0 DUP2 MSTORE POP SWAP4 POP SWAP4 POP POP POP PUSH2 0x478 JUMP JUMPDEST DUP1 DUP1 PUSH2 0x3D9 SWAP1 PUSH2 0xE02 JUMP JUMPDEST SWAP2 POP POP PUSH2 0x2F2 JUMP JUMPDEST POP PUSH1 0x1 PUSH1 0x0 DUP1 DUP1 SLOAD PUSH2 0x3F2 SWAP1 PUSH2 0xDD0 JUMP JUMPDEST DUP1 PUSH1 0x1F ADD PUSH1 0x20 DUP1 SWAP2 DIV MUL PUSH1 0x20 ADD PUSH1 0x40 MLOAD SWAP1 DUP2 ADD PUSH1 0x40 MSTORE DUP1 SWAP3 SWAP2 SWAP1 DUP2 DUP2 MSTORE PUSH1 0x20 ADD DUP3 DUP1 SLOAD PUSH2 0x41E SWAP1 PUSH2 0xDD0 JUMP JUMPDEST DUP1 ISZERO PUSH2 0x46B JUMPI DUP1 PUSH1 0x1F LT PUSH2 0x440 JUMPI PUSH2 0x100 DUP1 DUP4 SLOAD DIV MUL DUP4 MSTORE SWAP2 PUSH1 0x20 ADD SWAP2 PUSH2 0x46B JUMP JUMPDEST DUP3 ADD SWAP2 SWAP1 PUSH1 0x0 MSTORE PUSH1 0x20 PUSH1 0x0 KECCAK256 SWAP1 JUMPDEST DUP2 SLOAD DUP2 MSTORE SWAP1 PUSH1 0x1 ADD SWAP1 PUSH1 0x20 ADD DUP1 DUP4 GT PUSH2 0x44E JUMPI DUP3 SWAP1 SUB PUSH1 0x1F AND DUP3 ADD SWAP2 JUMPDEST POP POP POP POP POP SWAP1 POP SWAP3 POP SWAP3 POP POP JUMPDEST SWAP1 SWAP2 JUMP JUMPDEST PUSH1 0x0 PUSH1 0x2 PUSH1 0x0 SWAP1 SLOAD SWAP1 PUSH2 0x100 EXP SWAP1 DIV PUSH20 0xFFFFFFFFFFFFFFFFFFFFFFFFFFFFFFFFFFFFFFFF AND PUSH20 0xFFFFFFFFFFFFFFFFFFFFFFFFFFFFFFFFFFFFFFFF AND PUSH4 0x63A9C3D7 DUP4 PUSH1 0x40 MLOAD DUP3 PUSH4 0xFFFFFFFF AND PUSH1 0xE0 SHL DUP2 MSTORE PUSH1 0x4 ADD PUSH2 0x4D9 SWAP2 SWAP1 PUSH2 0xBCE JUMP JUMPDEST PUSH1 0x20 PUSH1 0x40 MLOAD DUP1 DUP4 SUB DUP2 DUP7 DUP1 EXTCODESIZE ISZERO DUP1 ISZERO PUSH2 0x4F1 JUMPI PUSH1 0x0 DUP1 REVERT JUMPDEST POP GAS STATICCALL ISZERO DUP1 ISZERO PUSH2 0x505 JUMPI RETURNDATASIZE PUSH1 0x0 DUP1 RETURNDATACOPY RETURNDATASIZE PUSH1 0x0 REVERT JUMPDEST POP POP POP POP PUSH1 0x40 MLOAD RETURNDATASIZE PUSH1 0x1F NOT PUSH1 0x1F DUP3 ADD AND DUP3 ADD DUP1 PUSH1 0x40 MSTORE POP DUP2 ADD SWAP1 PUSH2 0x529 SWAP2 SWAP1 PUSH2 0x9E6 JUMP JUMPDEST SWAP1 POP SWAP2 SWAP1 POP JUMP JUMPDEST PUSH1 0x60 DUP1 PUSH1 0x60 PUSH1 0x0 PUSH1 0x2 PUSH1 0x0 SWAP1 SLOAD SWAP1 PUSH2 0x100 EXP SWAP1 DIV PUSH20 0xFFFFFFFFFFFFFFFFFFFFFFFFFFFFFFFFFFFFFFFF AND PUSH20 0xFFFFFFFFFFFFFFFFFFFFFFFFFFFFFFFFFFFFFFFF AND PUSH4 0xFA69EFBD PUSH1 0x40 MLOAD DUP2 PUSH4 0xFFFFFFFF AND PUSH1 0xE0 SHL DUP2 MSTORE PUSH1 0x4 ADD PUSH1 0x20 PUSH1 0x40 MLOAD DUP1 DUP4 SUB DUP2 DUP7 DUP1 EXTCODESIZE ISZERO DUP1 ISZERO PUSH2 0x59F JUMPI PUSH1 0x0 DUP1 REVERT JUMPDEST POP GAS STATICCALL ISZERO DUP1 ISZERO PUSH2 0x5B3 JUMPI RETURNDATASIZE PUSH1 0x0 DUP1 RETURNDATACOPY RETURNDATASIZE PUSH1 0x0 REVERT JUMPDEST POP POP POP POP PUSH1 0x40 MLOAD RETURNDATASIZE PUSH1 0x1F NOT PUSH1 0x1F DUP3 ADD AND DUP3 ADD DUP1 PUSH1 0x40 MSTORE POP DUP2 ADD SWAP1 PUSH2 0x5D7 SWAP2 SWAP1 PUSH2 0xA13 JUMP JUMPDEST SWAP1 POP PUSH1 0x0 DUP2 PUSH8 0xFFFFFFFFFFFFFFFF DUP2 GT ISZERO PUSH2 0x5F5 JUMPI PUSH2 0x5F4 PUSH2 0xED8 JUMP JUMPDEST JUMPDEST PUSH1 0x40 MLOAD SWAP1 DUP1 DUP3 MSTORE DUP1 PUSH1 0x20 MUL PUSH1 0x20 ADD DUP3 ADD PUSH1 0x40 MSTORE DUP1 ISZERO PUSH2 0x623 JUMPI DUP2 PUSH1 0x20 ADD PUSH1 0x20 DUP3 MUL DUP1 CALLDATASIZE DUP4 CALLDATACOPY DUP1 DUP3 ADD SWAP2 POP POP SWAP1 POP JUMPDEST POP SWAP1 POP PUSH1 0x0 JUMPDEST DUP3 DUP2 LT ISZERO PUSH2 0x73C JUMPI PUSH1 0x2 PUSH1 0x0 SWAP1 SLOAD SWAP1 PUSH2 0x100 EXP SWAP1 DIV PUSH20 0xFFFFFFFFFFFFFFFFFFFFFFFFFFFFFFFFFFFFFFFF AND PUSH20 0xFFFFFFFFFFFFFFFFFFFFFFFFFFFFFFFFFFFFFFFF AND PUSH4 0x3FFEFE4E DUP3 PUSH1 0x40 MLOAD DUP3 PUSH4 0xFFFFFFFF AND PUSH1 0xE0 SHL DUP2 MSTORE PUSH1 0x4 ADD PUSH2 0x68C SWAP2 SWAP1 PUSH2 0xCD0 JUMP JUMPDEST PUSH1 0x20 PUSH1 0x40 MLOAD DUP1 DUP4 SUB DUP2 DUP7 DUP1 EXTCODESIZE ISZERO DUP1 ISZERO PUSH2 0x6A4 JUMPI PUSH1 0x0 DUP1 REVERT JUMPDEST POP GAS STATICCALL ISZERO DUP1 ISZERO PUSH2 0x6B8 JUMPI RETURNDATASIZE PUSH1 0x0 DUP1 RETURNDATACOPY RETURNDATASIZE PUSH1 0x0 REVERT JUMPDEST POP POP POP POP PUSH1 0x40 MLOAD RETURNDATASIZE PUSH1 0x1F NOT PUSH1 0x1F DUP3 ADD AND DUP3 ADD DUP1 PUSH1 0x40 MSTORE POP DUP2 ADD SWAP1 PUSH2 0x6DC SWAP2 SWAP1 PUSH2 0x9B9 JUMP JUMPDEST DUP3 DUP3 DUP2 MLOAD DUP2 LT PUSH2 0x6EF JUMPI PUSH2 0x6EE PUSH2 0xEA9 JUMP JUMPDEST JUMPDEST PUSH1 0x20 MUL PUSH1 0x20 ADD ADD SWAP1 PUSH20 0xFFFFFFFFFFFFFFFFFFFFFFFFFFFFFFFFFFFFFFFF AND SWAP1 DUP2 PUSH20 0xFFFFFFFFFFFFFFFFFFFFFFFFFFFFFFFFFFFFFFFF AND DUP2 MSTORE POP POP DUP1 DUP1 PUSH2 0x734 SWAP1 PUSH2 0xE02 JUMP JUMPDEST SWAP2 POP POP PUSH2 0x629 JUMP JUMPDEST POP PUSH1 0x0 DUP2 PUSH1 0x1 DUP3 DUP1 SLOAD PUSH2 0x74E SWAP1 PUSH2 0xDD0 JUMP JUMPDEST DUP1 PUSH1 0x1F ADD PUSH1 0x20 DUP1 SWAP2 DIV MUL PUSH1 0x20 ADD PUSH1 0x40 MLOAD SWAP1 DUP2 ADD PUSH1 0x40 MSTORE DUP1 SWAP3 SWAP2 SWAP1 DUP2 DUP2 MSTORE PUSH1 0x20 ADD DUP3 DUP1 SLOAD PUSH2 0x77A SWAP1 PUSH2 0xDD0 JUMP JUMPDEST DUP1 ISZERO PUSH2 0x7C7 JUMPI DUP1 PUSH1 0x1F LT PUSH2 0x79C JUMPI PUSH2 0x100 DUP1 DUP4 SLOAD DIV MUL DUP4 MSTORE SWAP2 PUSH1 0x20 ADD SWAP2 PUSH2 0x7C7 JUMP JUMPDEST DUP3 ADD SWAP2 SWAP1 PUSH1 0x0 MSTORE PUSH1 0x20 PUSH1 0x0 KECCAK256 SWAP1 JUMPDEST DUP2 SLOAD DUP2 MSTORE SWAP1 PUSH1 0x1 ADD SWAP1 PUSH1 0x20 ADD DUP1 DUP4 GT PUSH2 0x7AA JUMPI DUP3 SWAP1 SUB PUSH1 0x1F AND DUP3 ADD SWAP2 JUMPDEST POP POP POP POP POP SWAP3 POP DUP1 DUP1 SLOAD DUP1 PUSH1 0x20 MUL PUSH1 0x20 ADD PUSH1 0x40 MLOAD SWAP1 DUP2 ADD PUSH1 0x40 MSTORE DUP1 SWAP3 SWAP2 SWAP1 DUP2 DUP2 MSTORE PUSH1 0x20 ADD DUP3 DUP1 SLOAD DUP1 ISZERO PUSH2 0x84F JUMPI PUSH1 0x20 MUL DUP3 ADD SWAP2 SWAP1 PUSH1 0x0 MSTORE PUSH1 0x20 PUSH1 0x0 KECCAK256 SWAP1 JUMPDEST DUP2 PUSH1 0x0 SWAP1 SLOAD SWAP1 PUSH2 0x100 EXP SWAP1 DIV PUSH20 0xFFFFFFFFFFFFFFFFFFFFFFFFFFFFFFFFFFFFFFFF AND PUSH20 0xFFFFFFFFFFFFFFFFFFFFFFFFFFFFFFFFFFFFFFFF AND DUP2 MSTORE PUSH1 0x20 ADD SWAP1 PUSH1 0x1 ADD SWAP1 DUP1 DUP4 GT PUSH2 0x805 JUMPI JUMPDEST POP POP POP POP POP SWAP1 POP SWAP5 POP SWAP5 POP SWAP5 POP POP POP SWAP1 SWAP2 SWAP3 JUMP JUMPDEST PUSH1 0x2 PUSH1 0x0 SWAP1 SLOAD SWAP1 PUSH2 0x100 EXP SWAP1 DIV PUSH20 0xFFFFFFFFFFFFFFFFFFFFFFFFFFFFFFFFFFFFFFFF AND DUP2 JUMP JUMPDEST PUSH1 0x0 DUP1 PUSH1 0x0 SWAP1 POP JUMPDEST PUSH1 0x1 DUP1 SLOAD SWAP1 POP DUP2 LT ISZERO PUSH2 0x92D JUMPI DUP3 PUSH20 0xFFFFFFFFFFFFFFFFFFFFFFFFFFFFFFFFFFFFFFFF AND PUSH1 0x1 DUP3 DUP2 SLOAD DUP2 LT PUSH2 0x8C9 JUMPI PUSH2 0x8C8 PUSH2 0xEA9 JUMP JUMPDEST JUMPDEST SWAP1 PUSH1 0x0 MSTORE PUSH1 0x20 PUSH1 0x0 KECCAK256 ADD PUSH1 0x0 SWAP1 SLOAD SWAP1 PUSH2 0x100 EXP SWAP1 DIV PUSH20 0xFFFFFFFFFFFFFFFFFFFFFFFFFFFFFFFFFFFFFFFF AND PUSH20 0xFFFFFFFFFFFFFFFFFFFFFFFFFFFFFFFFFFFFFFFF AND EQ ISZERO PUSH2 0x91A JUMPI PUSH1 0x1 SWAP2 POP POP PUSH2 0x933 JUMP JUMPDEST DUP1 DUP1 PUSH2 0x925 SWAP1 PUSH2 0xE02 JUMP JUMPDEST SWAP2 POP POP PUSH2 0x891 JUMP JUMPDEST POP PUSH1 0x0 SWAP1 POP JUMPDEST SWAP2 SWAP1 POP JUMP JUMPDEST PUSH1 0x0 DUP2 CALLDATALOAD SWAP1 POP PUSH2 0x947 DUP2 PUSH2 0xF46 JUMP JUMPDEST SWAP3 SWAP2 POP POP JUMP JUMPDEST PUSH1 0x0 DUP2 MLOAD SWAP1 POP PUSH2 0x95C DUP2 PUSH2 0xF46 JUMP JUMPDEST SWAP3 SWAP2 POP POP JUMP JUMPDEST PUSH1 0x0 DUP2 MLOAD SWAP1 POP PUSH2 0x971 DUP2 PUSH2 0xF5D JUMP JUMPDEST SWAP3 SWAP2 POP POP JUMP JUMPDEST PUSH1 0x0 DUP2 MLOAD SWAP1 POP PUSH2 0x986 DUP2 PUSH2 0xF74 JUMP JUMPDEST SWAP3 SWAP2 POP POP JUMP JUMPDEST PUSH1 0x0 PUSH1 0x20 DUP3 DUP5 SUB SLT ISZERO PUSH2 0x9A2 JUMPI PUSH2 0x9A1 PUSH2 0xF07 JUMP JUMPDEST JUMPDEST PUSH1 0x0 PUSH2 0x9B0 DUP5 DUP3 DUP6 ADD PUSH2 0x938 JUMP JUMPDEST SWAP2 POP POP SWAP3 SWAP2 POP POP JUMP JUMPDEST PUSH1 0x0 PUSH1 0x20 DUP3 DUP5 SUB SLT ISZERO PUSH2 0x9CF JUMPI PUSH2 0x9CE PUSH2 0xF07 JUMP JUMPDEST JUMPDEST PUSH1 0x0 PUSH2 0x9DD DUP5 DUP3 DUP6 ADD PUSH2 0x94D JUMP JUMPDEST SWAP2 POP POP SWAP3 SWAP2 POP POP JUMP JUMPDEST PUSH1 0x0 PUSH1 0x20 DUP3 DUP5 SUB SLT ISZERO PUSH2 0x9FC JUMPI PUSH2 0x9FB PUSH2 0xF07 JUMP JUMPDEST JUMPDEST PUSH1 0x0 PUSH2 0xA0A DUP5 DUP3 DUP6 ADD PUSH2 0x962 JUMP JUMPDEST SWAP2 POP POP SWAP3 SWAP2 POP POP JUMP JUMPDEST PUSH1 0x0 PUSH1 0x20 DUP3 DUP5 SUB SLT ISZERO PUSH2 0xA29 JUMPI PUSH2 0xA28 PUSH2 0xF07 JUMP JUMPDEST JUMPDEST PUSH1 0x0 PUSH2 0xA37 DUP5 DUP3 DUP6 ADD PUSH2 0x977 JUMP JUMPDEST SWAP2 POP POP SWAP3 SWAP2 POP POP JUMP JUMPDEST PUSH1 0x0 PUSH2 0xA4C DUP4 DUP4 PUSH2 0xA58 JUMP JUMPDEST PUSH1 0x20 DUP4 ADD SWAP1 POP SWAP3 SWAP2 POP POP JUMP JUMPDEST PUSH2 0xA61 DUP2 PUSH2 0xD55 JUMP JUMPDEST DUP3 MSTORE POP POP JUMP JUMPDEST PUSH2 0xA70 DUP2 PUSH2 0xD55 JUMP JUMPDEST DUP3 MSTORE POP POP JUMP JUMPDEST PUSH1 0x0 PUSH2 0xA81 DUP3 PUSH2 0xD10 JUMP JUMPDEST PUSH2 0xA8B DUP2 DUP6 PUSH2 0xD33 JUMP JUMPDEST SWAP4 POP PUSH2 0xA96 DUP4 PUSH2 0xCEB JUMP JUMPDEST DUP1 PUSH1 0x0 JUMPDEST DUP4 DUP2 LT ISZERO PUSH2 0xAC7 JUMPI DUP2 MLOAD PUSH2 0xAAE DUP9 DUP3 PUSH2 0xA40 JUMP JUMPDEST SWAP8 POP PUSH2 0xAB9 DUP4 PUSH2 0xD26 JUMP JUMPDEST SWAP3 POP POP PUSH1 0x1 DUP2 ADD SWAP1 POP PUSH2 0xA9A JUMP JUMPDEST POP DUP6 SWAP4 POP POP POP POP SWAP3 SWAP2 POP POP JUMP JUMPDEST PUSH2 0xADD DUP2 PUSH2 0xD67 JUMP JUMPDEST DUP3 MSTORE POP POP JUMP JUMPDEST PUSH1 0x0 PUSH2 0xAEE DUP3 PUSH2 0xD1B JUMP JUMPDEST PUSH2 0xAF8 DUP2 DUP6 PUSH2 0xD44 JUMP JUMPDEST SWAP4 POP PUSH2 0xB08 DUP2 DUP6 PUSH1 0x20 DUP7 ADD PUSH2 0xD9D JUMP JUMPDEST PUSH2 0xB11 DUP2 PUSH2 0xF0C JUMP JUMPDEST DUP5 ADD SWAP2 POP POP SWAP3 SWAP2 POP POP JUMP JUMPDEST PUSH1 0x0 DUP2 SLOAD PUSH2 0xB29 DUP2 PUSH2 0xDD0 JUMP JUMPDEST PUSH2 0xB33 DUP2 DUP7 PUSH2 0xD44 JUMP JUMPDEST SWAP5 POP PUSH1 0x1 DUP3 AND PUSH1 0x0 DUP2 EQ PUSH2 0xB4E JUMPI PUSH1 0x1 DUP2 EQ PUSH2 0xB60 JUMPI PUSH2 0xB93 JUMP JUMPDEST PUSH1 0xFF NOT DUP4 AND DUP7 MSTORE PUSH1 0x20 DUP7 ADD SWAP4 POP PUSH2 0xB93 JUMP JUMPDEST PUSH2 0xB69 DUP6 PUSH2 0xCFB JUMP JUMPDEST PUSH1 0x0 JUMPDEST DUP4 DUP2 LT ISZERO PUSH2 0xB8B JUMPI DUP2 SLOAD DUP2 DUP10 ADD MSTORE PUSH1 0x1 DUP3 ADD SWAP2 POP PUSH1 0x20 DUP2 ADD SWAP1 POP PUSH2 0xB6C JUMP JUMPDEST DUP1 DUP9 ADD SWAP6 POP POP POP JUMPDEST POP POP POP SWAP3 SWAP2 POP POP JUMP JUMPDEST PUSH1 0x0 PUSH2 0xBA9 PUSH1 0x14 DUP4 PUSH2 0xD44 JUMP JUMPDEST SWAP2 POP PUSH2 0xBB4 DUP3 PUSH2 0xF1D JUMP JUMPDEST PUSH1 0x20 DUP3 ADD SWAP1 POP SWAP2 SWAP1 POP JUMP JUMPDEST PUSH2 0xBC8 DUP2 PUSH2 0xD93 JUMP JUMPDEST DUP3 MSTORE POP POP JUMP JUMPDEST PUSH1 0x0 PUSH1 0x20 DUP3 ADD SWAP1 POP PUSH2 0xBE3 PUSH1 0x0 DUP4 ADD DUP5 PUSH2 0xA67 JUMP JUMPDEST SWAP3 SWAP2 POP POP JUMP JUMPDEST PUSH1 0x0 PUSH1 0x20 DUP3 ADD SWAP1 POP PUSH2 0xBFE PUSH1 0x0 DUP4 ADD DUP5 PUSH2 0xAD4 JUMP JUMPDEST SWAP3 SWAP2 POP POP JUMP JUMPDEST PUSH1 0x0 PUSH1 0x40 DUP3 ADD SWAP1 POP PUSH2 0xC19 PUSH1 0x0 DUP4 ADD DUP6 PUSH2 0xAD4 JUMP JUMPDEST DUP2 DUP2 SUB PUSH1 0x20 DUP4 ADD MSTORE PUSH2 0xC2B DUP2 DUP5 PUSH2 0xAE3 JUMP JUMPDEST SWAP1 POP SWAP4 SWAP3 POP POP POP JUMP JUMPDEST PUSH1 0x0 PUSH1 0x60 DUP3 ADD SWAP1 POP DUP2 DUP2 SUB PUSH1 0x0 DUP4 ADD MSTORE PUSH2 0xC4E DUP2 DUP7 PUSH2 0xAE3 JUMP JUMPDEST SWAP1 POP DUP2 DUP2 SUB PUSH1 0x20 DUP4 ADD MSTORE PUSH2 0xC62 DUP2 DUP6 PUSH2 0xA76 JUMP JUMPDEST SWAP1 POP DUP2 DUP2 SUB PUSH1 0x40 DUP4 ADD MSTORE PUSH2 0xC76 DUP2 DUP5 PUSH2 0xA76 JUMP JUMPDEST SWAP1 POP SWAP5 SWAP4 POP POP POP POP JUMP JUMPDEST PUSH1 0x0 PUSH1 0x40 DUP3 ADD SWAP1 POP DUP2 DUP2 SUB PUSH1 0x0 DUP4 ADD MSTORE PUSH2 0xC9A DUP2 DUP6 PUSH2 0xB1C JUMP JUMPDEST SWAP1 POP PUSH2 0xCA9 PUSH1 0x20 DUP4 ADD DUP5 PUSH2 0xA67 JUMP JUMPDEST SWAP4 SWAP3 POP POP POP JUMP JUMPDEST PUSH1 0x0 PUSH1 0x20 DUP3 ADD SWAP1 POP DUP2 DUP2 SUB PUSH1 0x0 DUP4 ADD MSTORE PUSH2 0xCC9 DUP2 PUSH2 0xB9C JUMP JUMPDEST SWAP1 POP SWAP2 SWAP1 POP JUMP JUMPDEST PUSH1 0x0 PUSH1 0x20 DUP3 ADD SWAP1 POP PUSH2 0xCE5 PUSH1 0x0 DUP4 ADD DUP5 PUSH2 0xBBF JUMP JUMPDEST SWAP3 SWAP2 POP POP JUMP JUMPDEST PUSH1 0x0 DUP2 SWAP1 POP PUSH1 0x20 DUP3 ADD SWAP1 POP SWAP2 SWAP1 POP JUMP JUMPDEST PUSH1 0x0 DUP2 SWAP1 POP DUP2 PUSH1 0x0 MSTORE PUSH1 0x20 PUSH1 0x0 KECCAK256 SWAP1 POP SWAP2 SWAP1 POP JUMP JUMPDEST PUSH1 0x0 DUP2 MLOAD SWAP1 POP SWAP2 SWAP1 POP JUMP JUMPDEST PUSH1 0x0 DUP2 MLOAD SWAP1 POP SWAP2 SWAP1 POP JUMP JUMPDEST PUSH1 0x0 PUSH1 0x20 DUP3 ADD SWAP1 POP SWAP2 SWAP1 POP JUMP JUMPDEST PUSH1 0x0 DUP3 DUP3 MSTORE PUSH1 0x20 DUP3 ADD SWAP1 POP SWAP3 SWAP2 POP POP JUMP JUMPDEST PUSH1 0x0 DUP3 DUP3 MSTORE PUSH1 0x20 DUP3 ADD SWAP1 POP SWAP3 SWAP2 POP POP JUMP JUMPDEST PUSH1 0x0 PUSH2 0xD60 DUP3 PUSH2 0xD73 JUMP JUMPDEST SWAP1 POP SWAP2 SWAP1 POP JUMP JUMPDEST PUSH1 0x0 DUP2 ISZERO ISZERO SWAP1 POP SWAP2 SWAP1 POP JUMP JUMPDEST PUSH1 0x0 PUSH20 0xFFFFFFFFFFFFFFFFFFFFFFFFFFFFFFFFFFFFFFFF DUP3 AND SWAP1 POP SWAP2 SWAP1 POP JUMP JUMPDEST PUSH1 0x0 DUP2 SWAP1 POP SWAP2 SWAP1 POP JUMP JUMPDEST PUSH1 0x0 JUMPDEST DUP4 DUP2 LT ISZERO PUSH2 0xDBB JUMPI DUP1 DUP3 ADD MLOAD DUP2 DUP5 ADD MSTORE PUSH1 0x20 DUP2 ADD SWAP1 POP PUSH2 0xDA0 JUMP JUMPDEST DUP4 DUP2 GT ISZERO PUSH2 0xDCA JUMPI PUSH1 0x0 DUP5 DUP5 ADD MSTORE JUMPDEST POP POP POP POP JUMP JUMPDEST PUSH1 0x0 PUSH1 0x2 DUP3 DIV SWAP1 POP PUSH1 0x1 DUP3 AND DUP1 PUSH2 0xDE8 JUMPI PUSH1 0x7F DUP3 AND SWAP2 POP JUMPDEST PUSH1 0x20 DUP3 LT DUP2 EQ ISZERO PUSH2 0xDFC JUMPI PUSH2 0xDFB PUSH2 0xE7A JUMP JUMPDEST JUMPDEST POP SWAP2 SWAP1 POP JUMP JUMPDEST PUSH1 0x0 PUSH2 0xE0D DUP3 PUSH2 0xD93 JUMP JUMPDEST SWAP2 POP PUSH32 0xFFFFFFFFFFFFFFFFFFFFFFFFFFFFFFFFFFFFFFFFFFFFFFFFFFFFFFFFFFFFFFFF DUP3 EQ ISZERO PUSH2 0xE40 JUMPI PUSH2 0xE3F PUSH2 0xE4B JUMP JUMPDEST JUMPDEST PUSH1 0x1 DUP3 ADD SWAP1 POP SWAP2 SWAP1 POP JUMP JUMPDEST PUSH32 0x4E487B7100000000000000000000000000000000000000000000000000000000 PUSH1 0x0 MSTORE PUSH1 0x11 PUSH1 0x4 MSTORE PUSH1 0x24 PUSH1 0x0 REVERT JUMPDEST PUSH32 0x4E487B7100000000000000000000000000000000000000000000000000000000 PUSH1 0x0 MSTORE PUSH1 0x22 PUSH1 0x4 MSTORE PUSH1 0x24 PUSH1 0x0 REVERT JUMPDEST PUSH32 0x4E487B7100000000000000000000000000000000000000000000000000000000 PUSH1 0x0 MSTORE PUSH1 0x32 PUSH1 0x4 MSTORE PUSH1 0x24 PUSH1 0x0 REVERT JUMPDEST PUSH32 0x4E487B7100000000000000000000000000000000000000000000000000000000 PUSH1 0x0 MSTORE PUSH1 0x41 PUSH1 0x4 MSTORE PUSH1 0x24 PUSH1 0x0 REVERT JUMPDEST PUSH1 0x0 DUP1 REVERT JUMPDEST PUSH1 0x0 PUSH1 0x1F NOT PUSH1 0x1F DUP4 ADD AND SWAP1 POP SWAP2 SWAP1 POP JUMP JUMPDEST PUSH32 0x5F7369676E6572206973206E6F742076616C6964000000000000000000000000 PUSH1 0x0 DUP3 ADD MSTORE POP JUMP JUMPDEST PUSH2 0xF4F DUP2 PUSH2 0xD55 JUMP JUMPDEST DUP2 EQ PUSH2 0xF5A JUMPI PUSH1 0x0 DUP1 REVERT JUMPDEST POP JUMP JUMPDEST PUSH2 0xF66 DUP2 PUSH2 0xD67 JUMP JUMPDEST DUP2 EQ PUSH2 0xF71 JUMPI PUSH1 0x0 DUP1 REVERT JUMPDEST POP JUMP JUMPDEST PUSH2 0xF7D DUP2 PUSH2 0xD93 JUMP JUMPDEST DUP2 EQ PUSH2 0xF88 JUMPI PUSH1 0x0 DUP1 REVERT JUMPDEST POP JUMP INVALID LOG2 PUSH5 0x6970667358 0x22 SLT KECCAK256 ORIGIN NUMBER PUSH24 0xA7270EA86A9EF0375B9CB21D887B262C6CE6D1944F18E314 0xE 0xC0 SWAP16 LT 0xEC PUSH5 0x736F6C6343 STOP ADDMOD SMOD STOP CALLER LOG2 PUSH5 0x6970667358 0x22 SLT KECCAK256 SWAP1 0xB4 0xDE PUSH27 0x1E30181AB3973E8FC7AEF4A78769420A6B030F95EBA4C444D4430E PUSH3 0x64736F PUSH13 0x63430008070033000000000000 "
				},
				"gasEstimates": {
					"creation": {
						"codeDepositCost": "2062600",
						"executionCost": "infinite",
						"totalCost": "infinite"
					},
					"external": {
						"getEvidence(string)": "infinite",
						"getSigner(uint256)": "7135",
						"getSignersSize()": "2511",
						"isAllSigned(string)": "infinite",
						"newEvidence(string,string)": "infinite",
						"sign(string)": "infinite",
						"verify(address)": "infinite"
					}
				},
				"methodIdentifiers": {
					"getEvidence(string)": "b16c6ee7",
					"getSigner(uint256)": "3ffefe4e",
					"getSignersSize()": "fa69efbd",
					"isAllSigned(string)": "0ba3b728",
					"newEvidence(string,string)": "5efabfb8",
					"sign(string)": "79d6348d",
					"verify(address)": "63a9c3d7"
				}
			},
			"storageLayout": {
				"storage": [
					{
						"astId": 288,
						"contract": "anli/evidence/factory.sol:EvidenceFactory",
						"label": "signers",
						"offset": 0,
						"slot": "0",
						"type": "t_array(t_address)dyn_storage"
					},
					{
						"astId": 292,
						"contract": "anli/evidence/factory.sol:EvidenceFactory",
						"label": "evi_keys",
						"offset": 0,
						"slot": "1",
						"type": "t_mapping(t_string_memory_ptr,t_address)"
					}
				],
				"types": {
					"t_address": {
						"encoding": "inplace",
						"label": "address",
						"numberOfBytes": "20"
					},
					"t_array(t_address)dyn_storage": {
						"base": "t_address",
						"encoding": "dynamic_array",
						"label": "address[]",
						"numberOfBytes": "32"
					},
					"t_mapping(t_string_memory_ptr,t_address)": {
						"encoding": "mapping",
						"key": "t_string_memory_ptr",
						"label": "mapping(string => address)",
						"numberOfBytes": "32",
						"value": "t_address"
					},
					"t_string_memory_ptr": {
						"encoding": "bytes",
						"label": "string",
						"numberOfBytes": "32"
					}
				}
			},
			"userdoc": {
				"kind": "user",
				"methods": {},
				"version": 1
			}
		}
	}
}