{
	"evidence/evidence.sol": {
		"Evidence": {
			"abi": [
				{
					"inputs": [
						{
							"internalType": "string",
							"name": "_evi",
							"type": "string"
						},
						{
							"internalType": "address",
							"name": "_factory",
							"type": "address"
						}
					],
					"stateMutability": "nonpayable",
					"type": "constructor"
				},
				{
					"inputs": [
						{
							"internalType": "address",
							"name": "_signer",
							"type": "address"
						}
					],
					"name": "callVerify",
					"outputs": [
						{
							"internalType": "bool",
							"name": "",
							"type": "bool"
						}
					],
					"stateMutability": "view",
					"type": "function"
				},
				{
					"inputs": [],
					"name": "factoryAddr",
					"outputs": [
						{
							"internalType": "address",
							"name": "",
							"type": "address"
						}
					],
					"stateMutability": "view",
					"type": "function"
				}
			],
			"devdoc": {
				"kind": "dev",
				"methods": {},
				"version": 1
			},
			"evm": {
				"assembly": "    /* \"evidence/evidence.sol\":279:790  contract Evidence {\r... */\n  mstore(0x40, 0x80)\n    /* \"evidence/evidence.sol\":597:785  constructor(string memory _evi,address _factory){\r... */\n  callvalue\n  dup1\n  iszero\n  tag_1\n  jumpi\n  0x00\n  dup1\n  revert\ntag_1:\n  pop\n  mload(0x40)\n  sub(codesize, bytecodeSize)\n  dup1\n  bytecodeSize\n  dup4\n  codecopy\n  dup2\n  dup2\n  add\n  0x40\n  mstore\n  dup2\n  add\n  swap1\n  tag_2\n  swap2\n  swap1\n  tag_3\n  jump\t// in\ntag_2:\n    /* \"evidence/evidence.sol\":670:678  _factory */\n  dup1\n    /* \"evidence/evidence.sol\":656:667  factoryAddr */\n  0x02\n  0x00\n    /* \"evidence/evidence.sol\":656:678  factoryAddr = _factory */\n  0x0100\n  exp\n  dup2\n  sload\n  dup2\n  0xffffffffffffffffffffffffffffffffffffffff\n  mul\n  not\n  and\n  swap1\n  dup4\n  0xffffffffffffffffffffffffffffffffffffffff\n  and\n  mul\n  or\n  swap1\n  sstore\n  pop\n    /* \"evidence/evidence.sol\":697:718  callVerify(tx.origin) */\n  tag_6\n    /* \"evidence/evidence.sol\":708:717  tx.origin */\n  origin\n    /* \"evidence/evidence.sol\":697:707  callVerify */\n  shl(0x20, tag_7)\n    /* \"evidence/evidence.sol\":697:718  callVerify(tx.origin) */\n  0x20\n  shr\n  jump\t// in\ntag_6:\n    /* \"evidence/evidence.sol\":689:742  require(callVerify(tx.origin),\"_signer is not valid\") */\n  tag_8\n  jumpi\n  mload(0x40)\n  0x08c379a000000000000000000000000000000000000000000000000000000000\n  dup2\n  mstore\n  0x04\n  add\n  tag_9\n  swap1\n  tag_10\n  jump\t// in\ntag_9:\n  mload(0x40)\n  dup1\n  swap2\n  sub\n  swap1\n  revert\ntag_8:\n    /* \"evidence/evidence.sol\":763:767  _evi */\n  dup2\n    /* \"evidence/evidence.sol\":753:761  evidence */\n  0x00\n    /* \"evidence/evidence.sol\":753:767  evidence= _evi */\n  swap1\n  dup1\n  mload\n  swap1\n  0x20\n  add\n  swap1\n  tag_11\n  swap3\n  swap2\n  swap1\n  tag_12\n  jump\t// in\ntag_11:\n  pop\n    /* \"evidence/evidence.sol\":597:785  constructor(string memory _evi,address _factory){\r... */\n  pop\n  pop\n    /* \"evidence/evidence.sol\":279:790  contract Evidence {\r... */\n  jump(tag_13)\n    /* \"evidence/evidence.sol\":447:572  function callVerify(address _signer) public view returns(bool){\r... */\ntag_7:\n    /* \"evidence/evidence.sol\":504:508  bool */\n  0x00\n    /* \"evidence/evidence.sol\":536:547  factoryAddr */\n  0x02\n  0x00\n  swap1\n  sload\n  swap1\n  0x0100\n  exp\n  swap1\n  div\n  0xffffffffffffffffffffffffffffffffffffffff\n  and\n    /* \"evidence/evidence.sol\":527:555  IEvdence(factoryAddr).verify */\n  0xffffffffffffffffffffffffffffffffffffffff\n  and\n  0x63a9c3d7\n    /* \"evidence/evidence.sol\":556:563  _signer */\n  dup4\n    /* \"evidence/evidence.sol\":527:564  IEvdence(factoryAddr).verify(_signer) */\n  mload(0x40)\n  dup3\n  0xffffffff\n  and\n  0xe0\n  shl\n  dup2\n  mstore\n  0x04\n  add\n  tag_15\n  swap2\n  swap1\n  tag_16\n  jump\t// in\ntag_15:\n  0x20\n  mload(0x40)\n  dup1\n  dup4\n  sub\n  dup2\n  dup7\n  dup1\n  extcodesize\n  iszero\n  dup1\n  iszero\n  tag_17\n  jumpi\n  0x00\n  dup1\n  revert\ntag_17:\n  pop\n  gas\n  staticcall\n  iszero\n  dup1\n  iszero\n  tag_19\n  jumpi\n  returndatasize\n  0x00\n  dup1\n  returndatacopy\n  revert(0x00, returndatasize)\ntag_19:\n  pop\n  pop\n  pop\n  pop\n  mload(0x40)\n  returndatasize\n  not(0x1f)\n  0x1f\n  dup3\n  add\n  and\n  dup3\n  add\n  dup1\n  0x40\n  mstore\n  pop\n  dup2\n  add\n  swap1\n  tag_20\n  swap2\n  swap1\n  tag_21\n  jump\t// in\ntag_20:\n    /* \"evidence/evidence.sol\":520:564  return IEvdence(factoryAddr).verify(_signer) */\n  swap1\n  pop\n    /* \"evidence/evidence.sol\":447:572  function callVerify(address _signer) public view returns(bool){\r... */\n  swap2\n  swap1\n  pop\n  jump\t// out\n    /* \"evidence/evidence.sol\":279:790  contract Evidence {\r... */\ntag_12:\n  dup3\n  dup1\n  sload\n  tag_22\n  swap1\n  tag_23\n  jump\t// in\ntag_22:\n  swap1\n  0x00\n  mstore\n  keccak256(0x00, 0x20)\n  swap1\n  0x1f\n  add\n  0x20\n  swap1\n  div\n  dup2\n  add\n  swap3\n  dup3\n  tag_25\n  jumpi\n  0x00\n  dup6\n  sstore\n  jump(tag_24)\ntag_25:\n  dup3\n  0x1f\n  lt\n  tag_26\n  jumpi\n  dup1\n  mload\n  not(0xff)\n  and\n  dup4\n  dup1\n  add\n  or\n  dup6\n  sstore\n  jump(tag_24)\ntag_26:\n  dup3\n  dup1\n  add\n  0x01\n  add\n  dup6\n  sstore\n  dup3\n  iszero\n  tag_24\n  jumpi\n  swap2\n  dup3\n  add\ntag_27:\n  dup3\n  dup2\n  gt\n  iszero\n  tag_28\n  jumpi\n  dup3\n  mload\n  dup3\n  sstore\n  swap2\n  0x20\n  add\n  swap2\n  swap1\n  0x01\n  add\n  swap1\n  jump(tag_27)\ntag_28:\ntag_24:\n  pop\n  swap1\n  pop\n  tag_29\n  swap2\n  swap1\n  tag_30\n  jump\t// in\ntag_29:\n  pop\n  swap1\n  jump\t// out\ntag_30:\ntag_31:\n  dup1\n  dup3\n  gt\n  iszero\n  tag_32\n  jumpi\n  0x00\n  dup2\n  0x00\n  swap1\n  sstore\n  pop\n  0x01\n  add\n  jump(tag_31)\ntag_32:\n  pop\n  swap1\n  jump\t// out\n    /* \"#utility.yul\":7:428   */\ntag_34:\n    /* \"#utility.yul\":96:101   */\n  0x00\n    /* \"#utility.yul\":121:187   */\n  tag_36\n    /* \"#utility.yul\":137:186   */\n  tag_37\n    /* \"#utility.yul\":179:185   */\n  dup5\n    /* \"#utility.yul\":137:186   */\n  tag_38\n  jump\t// in\ntag_37:\n    /* \"#utility.yul\":121:187   */\n  tag_39\n  jump\t// in\ntag_36:\n    /* \"#utility.yul\":112:187   */\n  swap1\n  pop\n    /* \"#utility.yul\":210:216   */\n  dup3\n    /* \"#utility.yul\":203:208   */\n  dup2\n    /* \"#utility.yul\":196:217   */\n  mstore\n    /* \"#utility.yul\":248:252   */\n  0x20\n    /* \"#utility.yul\":241:246   */\n  dup2\n    /* \"#utility.yul\":237:253   */\n  add\n    /* \"#utility.yul\":286:289   */\n  dup5\n    /* \"#utility.yul\":277:283   */\n  dup5\n    /* \"#utility.yul\":272:275   */\n  dup5\n    /* \"#utility.yul\":268:284   */\n  add\n    /* \"#utility.yul\":265:290   */\n  gt\n    /* \"#utility.yul\":262:374   */\n  iszero\n  tag_40\n  jumpi\n    /* \"#utility.yul\":293:372   */\n  tag_41\n  tag_42\n  jump\t// in\ntag_41:\n    /* \"#utility.yul\":262:374   */\ntag_40:\n    /* \"#utility.yul\":383:422   */\n  tag_43\n    /* \"#utility.yul\":415:421   */\n  dup5\n    /* \"#utility.yul\":410:413   */\n  dup3\n    /* \"#utility.yul\":405:408   */\n  dup6\n    /* \"#utility.yul\":383:422   */\n  tag_44\n  jump\t// in\ntag_43:\n    /* \"#utility.yul\":102:428   */\n  pop\n    /* \"#utility.yul\":7:428   */\n  swap4\n  swap3\n  pop\n  pop\n  pop\n  jump\t// out\n    /* \"#utility.yul\":434:577   */\ntag_45:\n    /* \"#utility.yul\":491:496   */\n  0x00\n    /* \"#utility.yul\":522:528   */\n  dup2\n    /* \"#utility.yul\":516:529   */\n  mload\n    /* \"#utility.yul\":507:529   */\n  swap1\n  pop\n    /* \"#utility.yul\":538:571   */\n  tag_47\n    /* \"#utility.yul\":565:570   */\n  dup2\n    /* \"#utility.yul\":538:571   */\n  tag_48\n  jump\t// in\ntag_47:\n    /* \"#utility.yul\":434:577   */\n  swap3\n  swap2\n  pop\n  pop\n  jump\t// out\n    /* \"#utility.yul\":583:720   */\ntag_49:\n    /* \"#utility.yul\":637:642   */\n  0x00\n    /* \"#utility.yul\":668:674   */\n  dup2\n    /* \"#utility.yul\":662:675   */\n  mload\n    /* \"#utility.yul\":653:675   */\n  swap1\n  pop\n    /* \"#utility.yul\":684:714   */\n  tag_51\n    /* \"#utility.yul\":708:713   */\n  dup2\n    /* \"#utility.yul\":684:714   */\n  tag_52\n  jump\t// in\ntag_51:\n    /* \"#utility.yul\":583:720   */\n  swap3\n  swap2\n  pop\n  pop\n  jump\t// out\n    /* \"#utility.yul\":740:1095   */\ntag_53:\n    /* \"#utility.yul\":807:812   */\n  0x00\n    /* \"#utility.yul\":856:859   */\n  dup3\n    /* \"#utility.yul\":849:853   */\n  0x1f\n    /* \"#utility.yul\":841:847   */\n  dup4\n    /* \"#utility.yul\":837:854   */\n  add\n    /* \"#utility.yul\":833:860   */\n  slt\n    /* \"#utility.yul\":823:945   */\n  tag_55\n  jumpi\n    /* \"#utility.yul\":864:943   */\n  tag_56\n  tag_57\n  jump\t// in\ntag_56:\n    /* \"#utility.yul\":823:945   */\ntag_55:\n    /* \"#utility.yul\":974:980   */\n  dup2\n    /* \"#utility.yul\":968:981   */\n  mload\n    /* \"#utility.yul\":999:1089   */\n  tag_58\n    /* \"#utility.yul\":1085:1088   */\n  dup5\n    /* \"#utility.yul\":1077:1083   */\n  dup3\n    /* \"#utility.yul\":1070:1074   */\n  0x20\n    /* \"#utility.yul\":1062:1068   */\n  dup7\n    /* \"#utility.yul\":1058:1075   */\n  add\n    /* \"#utility.yul\":999:1089   */\n  tag_34\n  jump\t// in\ntag_58:\n    /* \"#utility.yul\":990:1089   */\n  swap2\n  pop\n    /* \"#utility.yul\":813:1095   */\n  pop\n    /* \"#utility.yul\":740:1095   */\n  swap3\n  swap2\n  pop\n  pop\n  jump\t// out\n    /* \"#utility.yul\":1101:1446   */\ntag_21:\n    /* \"#utility.yul\":1168:1174   */\n  0x00\n    /* \"#utility.yul\":1217:1219   */\n  0x20\n    /* \"#utility.yul\":1205:1214   */\n  dup3\n    /* \"#utility.yul\":1196:1203   */\n  dup5\n    /* \"#utility.yul\":1192:1215   */\n  sub\n    /* \"#utility.yul\":1188:1220   */\n  slt\n    /* \"#utility.yul\":1185:1304   */\n  iszero\n  tag_60\n  jumpi\n    /* \"#utility.yul\":1223:1302   */\n  tag_61\n  tag_62\n  jump\t// in\ntag_61:\n    /* \"#utility.yul\":1185:1304   */\ntag_60:\n    /* \"#utility.yul\":1343:1344   */\n  0x00\n    /* \"#utility.yul\":1368:1429   */\n  tag_63\n    /* \"#utility.yul\":1421:1428   */\n  dup5\n    /* \"#utility.yul\":1412:1418   */\n  dup3\n    /* \"#utility.yul\":1401:1410   */\n  dup6\n    /* \"#utility.yul\":1397:1419   */\n  add\n    /* \"#utility.yul\":1368:1429   */\n  tag_49\n  jump\t// in\ntag_63:\n    /* \"#utility.yul\":1358:1429   */\n  swap2\n  pop\n    /* \"#utility.yul\":1314:1439   */\n  pop\n    /* \"#utility.yul\":1101:1446   */\n  swap3\n  swap2\n  pop\n  pop\n  jump\t// out\n    /* \"#utility.yul\":1452:2132   */\ntag_3:\n    /* \"#utility.yul\":1541:1547   */\n  0x00\n    /* \"#utility.yul\":1549:1555   */\n  dup1\n    /* \"#utility.yul\":1598:1600   */\n  0x40\n    /* \"#utility.yul\":1586:1595   */\n  dup4\n    /* \"#utility.yul\":1577:1584   */\n  dup6\n    /* \"#utility.yul\":1573:1596   */\n  sub\n    /* \"#utility.yul\":1569:1601   */\n  slt\n    /* \"#utility.yul\":1566:1685   */\n  iszero\n  tag_65\n  jumpi\n    /* \"#utility.yul\":1604:1683   */\n  tag_66\n  tag_62\n  jump\t// in\ntag_66:\n    /* \"#utility.yul\":1566:1685   */\ntag_65:\n    /* \"#utility.yul\":1745:1746   */\n  0x00\n    /* \"#utility.yul\":1734:1743   */\n  dup4\n    /* \"#utility.yul\":1730:1747   */\n  add\n    /* \"#utility.yul\":1724:1748   */\n  mload\n    /* \"#utility.yul\":1775:1793   */\n  0xffffffffffffffff\n    /* \"#utility.yul\":1767:1773   */\n  dup2\n    /* \"#utility.yul\":1764:1794   */\n  gt\n    /* \"#utility.yul\":1761:1878   */\n  iszero\n  tag_67\n  jumpi\n    /* \"#utility.yul\":1797:1876   */\n  tag_68\n  tag_69\n  jump\t// in\ntag_68:\n    /* \"#utility.yul\":1761:1878   */\ntag_67:\n    /* \"#utility.yul\":1902:1976   */\n  tag_70\n    /* \"#utility.yul\":1968:1975   */\n  dup6\n    /* \"#utility.yul\":1959:1965   */\n  dup3\n    /* \"#utility.yul\":1948:1957   */\n  dup7\n    /* \"#utility.yul\":1944:1966   */\n  add\n    /* \"#utility.yul\":1902:1976   */\n  tag_53\n  jump\t// in\ntag_70:\n    /* \"#utility.yul\":1892:1976   */\n  swap3\n  pop\n    /* \"#utility.yul\":1695:1986   */\n  pop\n    /* \"#utility.yul\":2025:2027   */\n  0x20\n    /* \"#utility.yul\":2051:2115   */\n  tag_71\n    /* \"#utility.yul\":2107:2114   */\n  dup6\n    /* \"#utility.yul\":2098:2104   */\n  dup3\n    /* \"#utility.yul\":2087:2096   */\n  dup7\n    /* \"#utility.yul\":2083:2105   */\n  add\n    /* \"#utility.yul\":2051:2115   */\n  tag_45\n  jump\t// in\ntag_71:\n    /* \"#utility.yul\":2041:2115   */\n  swap2\n  pop\n    /* \"#utility.yul\":1996:2125   */\n  pop\n    /* \"#utility.yul\":1452:2132   */\n  swap3\n  pop\n  swap3\n  swap1\n  pop\n  jump\t// out\n    /* \"#utility.yul\":2138:2256   */\ntag_72:\n    /* \"#utility.yul\":2225:2249   */\n  tag_74\n    /* \"#utility.yul\":2243:2248   */\n  dup2\n    /* \"#utility.yul\":2225:2249   */\n  tag_75\n  jump\t// in\ntag_74:\n    /* \"#utility.yul\":2220:2223   */\n  dup3\n    /* \"#utility.yul\":2213:2250   */\n  mstore\n    /* \"#utility.yul\":2138:2256   */\n  pop\n  pop\n  jump\t// out\n    /* \"#utility.yul\":2262:2628   */\ntag_76:\n    /* \"#utility.yul\":2404:2407   */\n  0x00\n    /* \"#utility.yul\":2425:2492   */\n  tag_78\n    /* \"#utility.yul\":2489:2491   */\n  0x14\n    /* \"#utility.yul\":2484:2487   */\n  dup4\n    /* \"#utility.yul\":2425:2492   */\n  tag_79\n  jump\t// in\ntag_78:\n    /* \"#utility.yul\":2418:2492   */\n  swap2\n  pop\n    /* \"#utility.yul\":2501:2594   */\n  tag_80\n    /* \"#utility.yul\":2590:2593   */\n  dup3\n    /* \"#utility.yul\":2501:2594   */\n  tag_81\n  jump\t// in\ntag_80:\n    /* \"#utility.yul\":2619:2621   */\n  0x20\n    /* \"#utility.yul\":2614:2617   */\n  dup3\n    /* \"#utility.yul\":2610:2622   */\n  add\n    /* \"#utility.yul\":2603:2622   */\n  swap1\n  pop\n    /* \"#utility.yul\":2262:2628   */\n  swap2\n  swap1\n  pop\n  jump\t// out\n    /* \"#utility.yul\":2634:2856   */\ntag_16:\n    /* \"#utility.yul\":2727:2731   */\n  0x00\n    /* \"#utility.yul\":2765:2767   */\n  0x20\n    /* \"#utility.yul\":2754:2763   */\n  dup3\n    /* \"#utility.yul\":2750:2768   */\n  add\n    /* \"#utility.yul\":2742:2768   */\n  swap1\n  pop\n    /* \"#utility.yul\":2778:2849   */\n  tag_83\n    /* \"#utility.yul\":2846:2847   */\n  0x00\n    /* \"#utility.yul\":2835:2844   */\n  dup4\n    /* \"#utility.yul\":2831:2848   */\n  add\n    /* \"#utility.yul\":2822:2828   */\n  dup5\n    /* \"#utility.yul\":2778:2849   */\n  tag_72\n  jump\t// in\ntag_83:\n    /* \"#utility.yul\":2634:2856   */\n  swap3\n  swap2\n  pop\n  pop\n  jump\t// out\n    /* \"#utility.yul\":2862:3281   */\ntag_10:\n    /* \"#utility.yul\":3028:3032   */\n  0x00\n    /* \"#utility.yul\":3066:3068   */\n  0x20\n    /* \"#utility.yul\":3055:3064   */\n  dup3\n    /* \"#utility.yul\":3051:3069   */\n  add\n    /* \"#utility.yul\":3043:3069   */\n  swap1\n  pop\n    /* \"#utility.yul\":3115:3124   */\n  dup2\n    /* \"#utility.yul\":3109:3113   */\n  dup2\n    /* \"#utility.yul\":3105:3125   */\n  sub\n    /* \"#utility.yul\":3101:3102   */\n  0x00\n    /* \"#utility.yul\":3090:3099   */\n  dup4\n    /* \"#utility.yul\":3086:3103   */\n  add\n    /* \"#utility.yul\":3079:3126   */\n  mstore\n    /* \"#utility.yul\":3143:3274   */\n  tag_85\n    /* \"#utility.yul\":3269:3273   */\n  dup2\n    /* \"#utility.yul\":3143:3274   */\n  tag_76\n  jump\t// in\ntag_85:\n    /* \"#utility.yul\":3135:3274   */\n  swap1\n  pop\n    /* \"#utility.yul\":2862:3281   */\n  swap2\n  swap1\n  pop\n  jump\t// out\n    /* \"#utility.yul\":3287:3416   */\ntag_39:\n    /* \"#utility.yul\":3321:3327   */\n  0x00\n    /* \"#utility.yul\":3348:3368   */\n  tag_87\n  tag_88\n  jump\t// in\ntag_87:\n    /* \"#utility.yul\":3338:3368   */\n  swap1\n  pop\n    /* \"#utility.yul\":3377:3410   */\n  tag_89\n    /* \"#utility.yul\":3405:3409   */\n  dup3\n    /* \"#utility.yul\":3397:3403   */\n  dup3\n    /* \"#utility.yul\":3377:3410   */\n  tag_90\n  jump\t// in\ntag_89:\n    /* \"#utility.yul\":3287:3416   */\n  swap2\n  swap1\n  pop\n  jump\t// out\n    /* \"#utility.yul\":3422:3497   */\ntag_88:\n    /* \"#utility.yul\":3455:3461   */\n  0x00\n    /* \"#utility.yul\":3488:3490   */\n  0x40\n    /* \"#utility.yul\":3482:3491   */\n  mload\n    /* \"#utility.yul\":3472:3491   */\n  swap1\n  pop\n    /* \"#utility.yul\":3422:3497   */\n  swap1\n  jump\t// out\n    /* \"#utility.yul\":3503:3811   */\ntag_38:\n    /* \"#utility.yul\":3565:3569   */\n  0x00\n    /* \"#utility.yul\":3655:3673   */\n  0xffffffffffffffff\n    /* \"#utility.yul\":3647:3653   */\n  dup3\n    /* \"#utility.yul\":3644:3674   */\n  gt\n    /* \"#utility.yul\":3641:3697   */\n  iszero\n  tag_93\n  jumpi\n    /* \"#utility.yul\":3677:3695   */\n  tag_94\n  tag_95\n  jump\t// in\ntag_94:\n    /* \"#utility.yul\":3641:3697   */\ntag_93:\n    /* \"#utility.yul\":3715:3744   */\n  tag_96\n    /* \"#utility.yul\":3737:3743   */\n  dup3\n    /* \"#utility.yul\":3715:3744   */\n  tag_97\n  jump\t// in\ntag_96:\n    /* \"#utility.yul\":3707:3744   */\n  swap1\n  pop\n    /* \"#utility.yul\":3799:3803   */\n  0x20\n    /* \"#utility.yul\":3793:3797   */\n  dup2\n    /* \"#utility.yul\":3789:3804   */\n  add\n    /* \"#utility.yul\":3781:3804   */\n  swap1\n  pop\n    /* \"#utility.yul\":3503:3811   */\n  swap2\n  swap1\n  pop\n  jump\t// out\n    /* \"#utility.yul\":3817:3986   */\ntag_79:\n    /* \"#utility.yul\":3901:3912   */\n  0x00\n    /* \"#utility.yul\":3935:3941   */\n  dup3\n    /* \"#utility.yul\":3930:3933   */\n  dup3\n    /* \"#utility.yul\":3923:3942   */\n  mstore\n    /* \"#utility.yul\":3975:3979   */\n  0x20\n    /* \"#utility.yul\":3970:3973   */\n  dup3\n    /* \"#utility.yul\":3966:3980   */\n  add\n    /* \"#utility.yul\":3951:3980   */\n  swap1\n  pop\n    /* \"#utility.yul\":3817:3986   */\n  swap3\n  swap2\n  pop\n  pop\n  jump\t// out\n    /* \"#utility.yul\":3992:4088   */\ntag_75:\n    /* \"#utility.yul\":4029:4036   */\n  0x00\n    /* \"#utility.yul\":4058:4082   */\n  tag_100\n    /* \"#utility.yul\":4076:4081   */\n  dup3\n    /* \"#utility.yul\":4058:4082   */\n  tag_101\n  jump\t// in\ntag_100:\n    /* \"#utility.yul\":4047:4082   */\n  swap1\n  pop\n    /* \"#utility.yul\":3992:4088   */\n  swap2\n  swap1\n  pop\n  jump\t// out\n    /* \"#utility.yul\":4094:4184   */\ntag_102:\n    /* \"#utility.yul\":4128:4135   */\n  0x00\n    /* \"#utility.yul\":4171:4176   */\n  dup2\n    /* \"#utility.yul\":4164:4177   */\n  iszero\n    /* \"#utility.yul\":4157:4178   */\n  iszero\n    /* \"#utility.yul\":4146:4178   */\n  swap1\n  pop\n    /* \"#utility.yul\":4094:4184   */\n  swap2\n  swap1\n  pop\n  jump\t// out\n    /* \"#utility.yul\":4190:4316   */\ntag_101:\n    /* \"#utility.yul\":4227:4234   */\n  0x00\n    /* \"#utility.yul\":4267:4309   */\n  0xffffffffffffffffffffffffffffffffffffffff\n    /* \"#utility.yul\":4260:4265   */\n  dup3\n    /* \"#utility.yul\":4256:4310   */\n  and\n    /* \"#utility.yul\":4245:4310   */\n  swap1\n  pop\n    /* \"#utility.yul\":4190:4316   */\n  swap2\n  swap1\n  pop\n  jump\t// out\n    /* \"#utility.yul\":4322:4629   */\ntag_44:\n    /* \"#utility.yul\":4390:4391   */\n  0x00\n    /* \"#utility.yul\":4400:4513   */\ntag_106:\n    /* \"#utility.yul\":4414:4420   */\n  dup4\n    /* \"#utility.yul\":4411:4412   */\n  dup2\n    /* \"#utility.yul\":4408:4421   */\n  lt\n    /* \"#utility.yul\":4400:4513   */\n  iszero\n  tag_108\n  jumpi\n    /* \"#utility.yul\":4499:4500   */\n  dup1\n    /* \"#utility.yul\":4494:4497   */\n  dup3\n    /* \"#utility.yul\":4490:4501   */\n  add\n    /* \"#utility.yul\":4484:4502   */\n  mload\n    /* \"#utility.yul\":4480:4481   */\n  dup2\n    /* \"#utility.yul\":4475:4478   */\n  dup5\n    /* \"#utility.yul\":4471:4482   */\n  add\n    /* \"#utility.yul\":4464:4503   */\n  mstore\n    /* \"#utility.yul\":4436:4438   */\n  0x20\n    /* \"#utility.yul\":4433:4434   */\n  dup2\n    /* \"#utility.yul\":4429:4439   */\n  add\n    /* \"#utility.yul\":4424:4439   */\n  swap1\n  pop\n    /* \"#utility.yul\":4400:4513   */\n  jump(tag_106)\ntag_108:\n    /* \"#utility.yul\":4531:4537   */\n  dup4\n    /* \"#utility.yul\":4528:4529   */\n  dup2\n    /* \"#utility.yul\":4525:4538   */\n  gt\n    /* \"#utility.yul\":4522:4623   */\n  iszero\n  tag_109\n  jumpi\n    /* \"#utility.yul\":4611:4612   */\n  0x00\n    /* \"#utility.yul\":4602:4608   */\n  dup5\n    /* \"#utility.yul\":4597:4600   */\n  dup5\n    /* \"#utility.yul\":4593:4609   */\n  add\n    /* \"#utility.yul\":4586:4613   */\n  mstore\n    /* \"#utility.yul\":4522:4623   */\ntag_109:\n    /* \"#utility.yul\":4371:4629   */\n  pop\n    /* \"#utility.yul\":4322:4629   */\n  pop\n  pop\n  pop\n  jump\t// out\n    /* \"#utility.yul\":4635:4955   */\ntag_23:\n    /* \"#utility.yul\":4679:4685   */\n  0x00\n    /* \"#utility.yul\":4716:4717   */\n  0x02\n    /* \"#utility.yul\":4710:4714   */\n  dup3\n    /* \"#utility.yul\":4706:4718   */\n  div\n    /* \"#utility.yul\":4696:4718   */\n  swap1\n  pop\n    /* \"#utility.yul\":4763:4764   */\n  0x01\n    /* \"#utility.yul\":4757:4761   */\n  dup3\n    /* \"#utility.yul\":4753:4765   */\n  and\n    /* \"#utility.yul\":4784:4802   */\n  dup1\n    /* \"#utility.yul\":4774:4855   */\n  tag_111\n  jumpi\n    /* \"#utility.yul\":4840:4844   */\n  0x7f\n    /* \"#utility.yul\":4832:4838   */\n  dup3\n    /* \"#utility.yul\":4828:4845   */\n  and\n    /* \"#utility.yul\":4818:4845   */\n  swap2\n  pop\n    /* \"#utility.yul\":4774:4855   */\ntag_111:\n    /* \"#utility.yul\":4902:4904   */\n  0x20\n    /* \"#utility.yul\":4894:4900   */\n  dup3\n    /* \"#utility.yul\":4891:4905   */\n  lt\n    /* \"#utility.yul\":4871:4889   */\n  dup2\n    /* \"#utility.yul\":4868:4906   */\n  eq\n    /* \"#utility.yul\":4865:4949   */\n  iszero\n  tag_112\n  jumpi\n    /* \"#utility.yul\":4921:4939   */\n  tag_113\n  tag_114\n  jump\t// in\ntag_113:\n    /* \"#utility.yul\":4865:4949   */\ntag_112:\n    /* \"#utility.yul\":4686:4955   */\n  pop\n    /* \"#utility.yul\":4635:4955   */\n  swap2\n  swap1\n  pop\n  jump\t// out\n    /* \"#utility.yul\":4961:5242   */\ntag_90:\n    /* \"#utility.yul\":5044:5071   */\n  tag_116\n    /* \"#utility.yul\":5066:5070   */\n  dup3\n    /* \"#utility.yul\":5044:5071   */\n  tag_97\n  jump\t// in\ntag_116:\n    /* \"#utility.yul\":5036:5042   */\n  dup2\n    /* \"#utility.yul\":5032:5072   */\n  add\n    /* \"#utility.yul\":5174:5180   */\n  dup2\n    /* \"#utility.yul\":5162:5172   */\n  dup2\n    /* \"#utility.yul\":5159:5181   */\n  lt\n    /* \"#utility.yul\":5138:5156   */\n  0xffffffffffffffff\n    /* \"#utility.yul\":5126:5136   */\n  dup3\n    /* \"#utility.yul\":5123:5157   */\n  gt\n    /* \"#utility.yul\":5120:5182   */\n  or\n    /* \"#utility.yul\":5117:5205   */\n  iszero\n  tag_117\n  jumpi\n    /* \"#utility.yul\":5185:5203   */\n  tag_118\n  tag_95\n  jump\t// in\ntag_118:\n    /* \"#utility.yul\":5117:5205   */\ntag_117:\n    /* \"#utility.yul\":5225:5235   */\n  dup1\n    /* \"#utility.yul\":5221:5223   */\n  0x40\n    /* \"#utility.yul\":5214:5236   */\n  mstore\n    /* \"#utility.yul\":5004:5242   */\n  pop\n    /* \"#utility.yul\":4961:5242   */\n  pop\n  pop\n  jump\t// out\n    /* \"#utility.yul\":5248:5428   */\ntag_114:\n    /* \"#utility.yul\":5296:5373   */\n  0x4e487b7100000000000000000000000000000000000000000000000000000000\n    /* \"#utility.yul\":5293:5294   */\n  0x00\n    /* \"#utility.yul\":5286:5374   */\n  mstore\n    /* \"#utility.yul\":5393:5397   */\n  0x22\n    /* \"#utility.yul\":5390:5391   */\n  0x04\n    /* \"#utility.yul\":5383:5398   */\n  mstore\n    /* \"#utility.yul\":5417:5421   */\n  0x24\n    /* \"#utility.yul\":5414:5415   */\n  0x00\n    /* \"#utility.yul\":5407:5422   */\n  revert\n    /* \"#utility.yul\":5434:5614   */\ntag_95:\n    /* \"#utility.yul\":5482:5559   */\n  0x4e487b7100000000000000000000000000000000000000000000000000000000\n    /* \"#utility.yul\":5479:5480   */\n  0x00\n    /* \"#utility.yul\":5472:5560   */\n  mstore\n    /* \"#utility.yul\":5579:5583   */\n  0x41\n    /* \"#utility.yul\":5576:5577   */\n  0x04\n    /* \"#utility.yul\":5569:5584   */\n  mstore\n    /* \"#utility.yul\":5603:5607   */\n  0x24\n    /* \"#utility.yul\":5600:5601   */\n  0x00\n    /* \"#utility.yul\":5593:5608   */\n  revert\n    /* \"#utility.yul\":5620:5737   */\ntag_57:\n    /* \"#utility.yul\":5729:5730   */\n  0x00\n    /* \"#utility.yul\":5726:5727   */\n  dup1\n    /* \"#utility.yul\":5719:5731   */\n  revert\n    /* \"#utility.yul\":5743:5860   */\ntag_42:\n    /* \"#utility.yul\":5852:5853   */\n  0x00\n    /* \"#utility.yul\":5849:5850   */\n  dup1\n    /* \"#utility.yul\":5842:5854   */\n  revert\n    /* \"#utility.yul\":5866:5983   */\ntag_69:\n    /* \"#utility.yul\":5975:5976   */\n  0x00\n    /* \"#utility.yul\":5972:5973   */\n  dup1\n    /* \"#utility.yul\":5965:5977   */\n  revert\n    /* \"#utility.yul\":5989:6106   */\ntag_62:\n    /* \"#utility.yul\":6098:6099   */\n  0x00\n    /* \"#utility.yul\":6095:6096   */\n  dup1\n    /* \"#utility.yul\":6088:6100   */\n  revert\n    /* \"#utility.yul\":6112:6214   */\ntag_97:\n    /* \"#utility.yul\":6153:6159   */\n  0x00\n    /* \"#utility.yul\":6204:6206   */\n  0x1f\n    /* \"#utility.yul\":6200:6207   */\n  not\n    /* \"#utility.yul\":6195:6197   */\n  0x1f\n    /* \"#utility.yul\":6188:6193   */\n  dup4\n    /* \"#utility.yul\":6184:6198   */\n  add\n    /* \"#utility.yul\":6180:6208   */\n  and\n    /* \"#utility.yul\":6170:6208   */\n  swap1\n  pop\n    /* \"#utility.yul\":6112:6214   */\n  swap2\n  swap1\n  pop\n  jump\t// out\n    /* \"#utility.yul\":6220:6390   */\ntag_81:\n    /* \"#utility.yul\":6360:6382   */\n  0x5f7369676e6572206973206e6f742076616c6964000000000000000000000000\n    /* \"#utility.yul\":6356:6357   */\n  0x00\n    /* \"#utility.yul\":6348:6354   */\n  dup3\n    /* \"#utility.yul\":6344:6358   */\n  add\n    /* \"#utility.yul\":6337:6383   */\n  mstore\n    /* \"#utility.yul\":6220:6390   */\n  pop\n  jump\t// out\n    /* \"#utility.yul\":6396:6518   */\ntag_48:\n    /* \"#utility.yul\":6469:6493   */\n  tag_128\n    /* \"#utility.yul\":6487:6492   */\n  dup2\n    /* \"#utility.yul\":6469:6493   */\n  tag_75\n  jump\t// in\ntag_128:\n    /* \"#utility.yul\":6462:6467   */\n  dup2\n    /* \"#utility.yul\":6459:6494   */\n  eq\n    /* \"#utility.yul\":6449:6512   */\n  tag_129\n  jumpi\n    /* \"#utility.yul\":6508:6509   */\n  0x00\n    /* \"#utility.yul\":6505:6506   */\n  dup1\n    /* \"#utility.yul\":6498:6510   */\n  revert\n    /* \"#utility.yul\":6449:6512   */\ntag_129:\n    /* \"#utility.yul\":6396:6518   */\n  pop\n  jump\t// out\n    /* \"#utility.yul\":6524:6640   */\ntag_52:\n    /* \"#utility.yul\":6594:6615   */\n  tag_131\n    /* \"#utility.yul\":6609:6614   */\n  dup2\n    /* \"#utility.yul\":6594:6615   */\n  tag_102\n  jump\t// in\ntag_131:\n    /* \"#utility.yul\":6587:6592   */\n  dup2\n    /* \"#utility.yul\":6584:6616   */\n  eq\n    /* \"#utility.yul\":6574:6634   */\n  tag_132\n  jumpi\n    /* \"#utility.yul\":6630:6631   */\n  0x00\n    /* \"#utility.yul\":6627:6628   */\n  dup1\n    /* \"#utility.yul\":6620:6632   */\n  revert\n    /* \"#utility.yul\":6574:6634   */\ntag_132:\n    /* \"#utility.yul\":6524:6640   */\n  pop\n  jump\t// out\n    /* \"evidence/evidence.sol\":279:790  contract Evidence {\r... */\ntag_13:\n  dataSize(sub_0)\n  dup1\n  dataOffset(sub_0)\n  0x00\n  codecopy\n  0x00\n  return\nstop\n\nsub_0: assembly {\n        /* \"evidence/evidence.sol\":279:790  contract Evidence {\r... */\n      mstore(0x40, 0x80)\n      callvalue\n      dup1\n      iszero\n      tag_1\n      jumpi\n      0x00\n      dup1\n      revert\n    tag_1:\n      pop\n      jumpi(tag_2, lt(calldatasize, 0x04))\n      shr(0xe0, calldataload(0x00))\n      dup1\n      0x50ca0928\n      eq\n      tag_3\n      jumpi\n      dup1\n      0x963671be\n      eq\n      tag_4\n      jumpi\n    tag_2:\n      0x00\n      dup1\n      revert\n        /* \"evidence/evidence.sol\":447:572  function callVerify(address _signer) public view returns(bool){\r... */\n    tag_3:\n      tag_5\n      0x04\n      dup1\n      calldatasize\n      sub\n      dup2\n      add\n      swap1\n      tag_6\n      swap2\n      swap1\n      tag_7\n      jump\t// in\n    tag_6:\n      tag_8\n      jump\t// in\n    tag_5:\n      mload(0x40)\n      tag_9\n      swap2\n      swap1\n      tag_10\n      jump\t// in\n    tag_9:\n      mload(0x40)\n      dup1\n      swap2\n      sub\n      swap1\n      return\n        /* \"evidence/evidence.sol\":390:416  address public factoryAddr */\n    tag_4:\n      tag_11\n      tag_12\n      jump\t// in\n    tag_11:\n      mload(0x40)\n      tag_13\n      swap2\n      swap1\n      tag_14\n      jump\t// in\n    tag_13:\n      mload(0x40)\n      dup1\n      swap2\n      sub\n      swap1\n      return\n        /* \"evidence/evidence.sol\":447:572  function callVerify(address _signer) public view returns(bool){\r... */\n    tag_8:\n        /* \"evidence/evidence.sol\":504:508  bool */\n      0x00\n        /* \"evidence/evidence.sol\":536:547  factoryAddr */\n      0x02\n      0x00\n      swap1\n      sload\n      swap1\n      0x0100\n      exp\n      swap1\n      div\n      0xffffffffffffffffffffffffffffffffffffffff\n      and\n        /* \"evidence/evidence.sol\":527:555  IEvdence(factoryAddr).verify */\n      0xffffffffffffffffffffffffffffffffffffffff\n      and\n      0x63a9c3d7\n        /* \"evidence/evidence.sol\":556:563  _signer */\n      dup4\n        /* \"evidence/evidence.sol\":527:564  IEvdence(factoryAddr).verify(_signer) */\n      mload(0x40)\n      dup3\n      0xffffffff\n      and\n      0xe0\n      shl\n      dup2\n      mstore\n      0x04\n      add\n      tag_16\n      swap2\n      swap1\n      tag_14\n      jump\t// in\n    tag_16:\n      0x20\n      mload(0x40)\n      dup1\n      dup4\n      sub\n      dup2\n      dup7\n      dup1\n      extcodesize\n      iszero\n      dup1\n      iszero\n      tag_17\n      jumpi\n      0x00\n      dup1\n      revert\n    tag_17:\n      pop\n      gas\n      staticcall\n      iszero\n      dup1\n      iszero\n      tag_19\n      jumpi\n      returndatasize\n      0x00\n      dup1\n      returndatacopy\n      revert(0x00, returndatasize)\n    tag_19:\n      pop\n      pop\n      pop\n      pop\n      mload(0x40)\n      returndatasize\n      not(0x1f)\n      0x1f\n      dup3\n      add\n      and\n      dup3\n      add\n      dup1\n      0x40\n      mstore\n      pop\n      dup2\n      add\n      swap1\n      tag_20\n      swap2\n      swap1\n      tag_21\n      jump\t// in\n    tag_20:\n        /* \"evidence/evidence.sol\":520:564  return IEvdence(factoryAddr).verify(_signer) */\n      swap1\n      pop\n        /* \"evidence/evidence.sol\":447:572  function callVerify(address _signer) public view returns(bool){\r... */\n      swap2\n      swap1\n      pop\n      jump\t// out\n        /* \"evidence/evidence.sol\":390:416  address public factoryAddr */\n    tag_12:\n      0x02\n      0x00\n      swap1\n      sload\n      swap1\n      0x0100\n      exp\n      swap1\n      div\n      0xffffffffffffffffffffffffffffffffffffffff\n      and\n      dup2\n      jump\t// out\n        /* \"#utility.yul\":7:146   */\n    tag_23:\n        /* \"#utility.yul\":53:58   */\n      0x00\n        /* \"#utility.yul\":91:97   */\n      dup2\n        /* \"#utility.yul\":78:98   */\n      calldataload\n        /* \"#utility.yul\":69:98   */\n      swap1\n      pop\n        /* \"#utility.yul\":107:140   */\n      tag_25\n        /* \"#utility.yul\":134:139   */\n      dup2\n        /* \"#utility.yul\":107:140   */\n      tag_26\n      jump\t// in\n    tag_25:\n        /* \"#utility.yul\":7:146   */\n      swap3\n      swap2\n      pop\n      pop\n      jump\t// out\n        /* \"#utility.yul\":152:289   */\n    tag_27:\n        /* \"#utility.yul\":206:211   */\n      0x00\n        /* \"#utility.yul\":237:243   */\n      dup2\n        /* \"#utility.yul\":231:244   */\n      mload\n        /* \"#utility.yul\":222:244   */\n      swap1\n      pop\n        /* \"#utility.yul\":253:283   */\n      tag_29\n        /* \"#utility.yul\":277:282   */\n      dup2\n        /* \"#utility.yul\":253:283   */\n      tag_30\n      jump\t// in\n    tag_29:\n        /* \"#utility.yul\":152:289   */\n      swap3\n      swap2\n      pop\n      pop\n      jump\t// out\n        /* \"#utility.yul\":295:624   */\n    tag_7:\n        /* \"#utility.yul\":354:360   */\n      0x00\n        /* \"#utility.yul\":403:405   */\n      0x20\n        /* \"#utility.yul\":391:400   */\n      dup3\n        /* \"#utility.yul\":382:389   */\n      dup5\n        /* \"#utility.yul\":378:401   */\n      sub\n        /* \"#utility.yul\":374:406   */\n      slt\n        /* \"#utility.yul\":371:490   */\n      iszero\n      tag_32\n      jumpi\n        /* \"#utility.yul\":409:488   */\n      tag_33\n      tag_34\n      jump\t// in\n    tag_33:\n        /* \"#utility.yul\":371:490   */\n    tag_32:\n        /* \"#utility.yul\":529:530   */\n      0x00\n        /* \"#utility.yul\":554:607   */\n      tag_35\n        /* \"#utility.yul\":599:606   */\n      dup5\n        /* \"#utility.yul\":590:596   */\n      dup3\n        /* \"#utility.yul\":579:588   */\n      dup6\n        /* \"#utility.yul\":575:597   */\n      add\n        /* \"#utility.yul\":554:607   */\n      tag_23\n      jump\t// in\n    tag_35:\n        /* \"#utility.yul\":544:607   */\n      swap2\n      pop\n        /* \"#utility.yul\":500:617   */\n      pop\n        /* \"#utility.yul\":295:624   */\n      swap3\n      swap2\n      pop\n      pop\n      jump\t// out\n        /* \"#utility.yul\":630:975   */\n    tag_21:\n        /* \"#utility.yul\":697:703   */\n      0x00\n        /* \"#utility.yul\":746:748   */\n      0x20\n        /* \"#utility.yul\":734:743   */\n      dup3\n        /* \"#utility.yul\":725:732   */\n      dup5\n        /* \"#utility.yul\":721:744   */\n      sub\n        /* \"#utility.yul\":717:749   */\n      slt\n        /* \"#utility.yul\":714:833   */\n      iszero\n      tag_37\n      jumpi\n        /* \"#utility.yul\":752:831   */\n      tag_38\n      tag_34\n      jump\t// in\n    tag_38:\n        /* \"#utility.yul\":714:833   */\n    tag_37:\n        /* \"#utility.yul\":872:873   */\n      0x00\n        /* \"#utility.yul\":897:958   */\n      tag_39\n        /* \"#utility.yul\":950:957   */\n      dup5\n        /* \"#utility.yul\":941:947   */\n      dup3\n        /* \"#utility.yul\":930:939   */\n      dup6\n        /* \"#utility.yul\":926:948   */\n      add\n        /* \"#utility.yul\":897:958   */\n      tag_27\n      jump\t// in\n    tag_39:\n        /* \"#utility.yul\":887:958   */\n      swap2\n      pop\n        /* \"#utility.yul\":843:968   */\n      pop\n        /* \"#utility.yul\":630:975   */\n      swap3\n      swap2\n      pop\n      pop\n      jump\t// out\n        /* \"#utility.yul\":981:1099   */\n    tag_40:\n        /* \"#utility.yul\":1068:1092   */\n      tag_42\n        /* \"#utility.yul\":1086:1091   */\n      dup2\n        /* \"#utility.yul\":1068:1092   */\n      tag_43\n      jump\t// in\n    tag_42:\n        /* \"#utility.yul\":1063:1066   */\n      dup3\n        /* \"#utility.yul\":1056:1093   */\n      mstore\n        /* \"#utility.yul\":981:1099   */\n      pop\n      pop\n      jump\t// out\n        /* \"#utility.yul\":1105:1214   */\n    tag_44:\n        /* \"#utility.yul\":1186:1207   */\n      tag_46\n        /* \"#utility.yul\":1201:1206   */\n      dup2\n        /* \"#utility.yul\":1186:1207   */\n      tag_47\n      jump\t// in\n    tag_46:\n        /* \"#utility.yul\":1181:1184   */\n      dup3\n        /* \"#utility.yul\":1174:1208   */\n      mstore\n        /* \"#utility.yul\":1105:1214   */\n      pop\n      pop\n      jump\t// out\n        /* \"#utility.yul\":1220:1442   */\n    tag_14:\n        /* \"#utility.yul\":1313:1317   */\n      0x00\n        /* \"#utility.yul\":1351:1353   */\n      0x20\n        /* \"#utility.yul\":1340:1349   */\n      dup3\n        /* \"#utility.yul\":1336:1354   */\n      add\n        /* \"#utility.yul\":1328:1354   */\n      swap1\n      pop\n        /* \"#utility.yul\":1364:1435   */\n      tag_49\n        /* \"#utility.yul\":1432:1433   */\n      0x00\n        /* \"#utility.yul\":1421:1430   */\n      dup4\n        /* \"#utility.yul\":1417:1434   */\n      add\n        /* \"#utility.yul\":1408:1414   */\n      dup5\n        /* \"#utility.yul\":1364:1435   */\n      tag_40\n      jump\t// in\n    tag_49:\n        /* \"#utility.yul\":1220:1442   */\n      swap3\n      swap2\n      pop\n      pop\n      jump\t// out\n        /* \"#utility.yul\":1448:1658   */\n    tag_10:\n        /* \"#utility.yul\":1535:1539   */\n      0x00\n        /* \"#utility.yul\":1573:1575   */\n      0x20\n        /* \"#utility.yul\":1562:1571   */\n      dup3\n        /* \"#utility.yul\":1558:1576   */\n      add\n        /* \"#utility.yul\":1550:1576   */\n      swap1\n      pop\n        /* \"#utility.yul\":1586:1651   */\n      tag_51\n        /* \"#utility.yul\":1648:1649   */\n      0x00\n        /* \"#utility.yul\":1637:1646   */\n      dup4\n        /* \"#utility.yul\":1633:1650   */\n      add\n        /* \"#utility.yul\":1624:1630   */\n      dup5\n        /* \"#utility.yul\":1586:1651   */\n      tag_44\n      jump\t// in\n    tag_51:\n        /* \"#utility.yul\":1448:1658   */\n      swap3\n      swap2\n      pop\n      pop\n      jump\t// out\n        /* \"#utility.yul\":1745:1841   */\n    tag_43:\n        /* \"#utility.yul\":1782:1789   */\n      0x00\n        /* \"#utility.yul\":1811:1835   */\n      tag_55\n        /* \"#utility.yul\":1829:1834   */\n      dup3\n        /* \"#utility.yul\":1811:1835   */\n      tag_56\n      jump\t// in\n    tag_55:\n        /* \"#utility.yul\":1800:1835   */\n      swap1\n      pop\n        /* \"#utility.yul\":1745:1841   */\n      swap2\n      swap1\n      pop\n      jump\t// out\n        /* \"#utility.yul\":1847:1937   */\n    tag_47:\n        /* \"#utility.yul\":1881:1888   */\n      0x00\n        /* \"#utility.yul\":1924:1929   */\n      dup2\n        /* \"#utility.yul\":1917:1930   */\n      iszero\n        /* \"#utility.yul\":1910:1931   */\n      iszero\n        /* \"#utility.yul\":1899:1931   */\n      swap1\n      pop\n        /* \"#utility.yul\":1847:1937   */\n      swap2\n      swap1\n      pop\n      jump\t// out\n        /* \"#utility.yul\":1943:2069   */\n    tag_56:\n        /* \"#utility.yul\":1980:1987   */\n      0x00\n        /* \"#utility.yul\":2020:2062   */\n      0xffffffffffffffffffffffffffffffffffffffff\n        /* \"#utility.yul\":2013:2018   */\n      dup3\n        /* \"#utility.yul\":2009:2063   */\n      and\n        /* \"#utility.yul\":1998:2063   */\n      swap1\n      pop\n        /* \"#utility.yul\":1943:2069   */\n      swap2\n      swap1\n      pop\n      jump\t// out\n        /* \"#utility.yul\":2198:2315   */\n    tag_34:\n        /* \"#utility.yul\":2307:2308   */\n      0x00\n        /* \"#utility.yul\":2304:2305   */\n      dup1\n        /* \"#utility.yul\":2297:2309   */\n      revert\n        /* \"#utility.yul\":2321:2443   */\n    tag_26:\n        /* \"#utility.yul\":2394:2418   */\n      tag_63\n        /* \"#utility.yul\":2412:2417   */\n      dup2\n        /* \"#utility.yul\":2394:2418   */\n      tag_43\n      jump\t// in\n    tag_63:\n        /* \"#utility.yul\":2387:2392   */\n      dup2\n        /* \"#utility.yul\":2384:2419   */\n      eq\n        /* \"#utility.yul\":2374:2437   */\n      tag_64\n      jumpi\n        /* \"#utility.yul\":2433:2434   */\n      0x00\n        /* \"#utility.yul\":2430:2431   */\n      dup1\n        /* \"#utility.yul\":2423:2435   */\n      revert\n        /* \"#utility.yul\":2374:2437   */\n    tag_64:\n        /* \"#utility.yul\":2321:2443   */\n      pop\n      jump\t// out\n        /* \"#utility.yul\":2449:2565   */\n    tag_30:\n        /* \"#utility.yul\":2519:2540   */\n      tag_66\n        /* \"#utility.yul\":2534:2539   */\n      dup2\n        /* \"#utility.yul\":2519:2540   */\n      tag_47\n      jump\t// in\n    tag_66:\n        /* \"#utility.yul\":2512:2517   */\n      dup2\n        /* \"#utility.yul\":2509:2541   */\n      eq\n        /* \"#utility.yul\":2499:2559   */\n      tag_67\n      jumpi\n        /* \"#utility.yul\":2555:2556   */\n      0x00\n        /* \"#utility.yul\":2552:2553   */\n      dup1\n        /* \"#utility.yul\":2545:2557   */\n      revert\n        /* \"#utility.yul\":2499:2559   */\n    tag_67:\n        /* \"#utility.yul\":2449:2565   */\n      pop\n      jump\t// out\n\n    auxdata: 0xa2646970667358221220027471a82aae5009754b2d956b14cba31b372c698b0d3584866dcf654833a1e064736f6c63430008070033\n}\n",
				"bytecode": {
					"linkReferences": {},
					"object": "60806040523480156200001157600080fd5b506040516200093538038062000935833981810160405281019062000037919062000334565b80600260006101000a81548173ffffffffffffffffffffffffffffffffffffffff021916908373ffffffffffffffffffffffffffffffffffffffff1602179055506200008932620000ec60201b60201c565b620000cb576040517f08c379a0000000000000000000000000000000000000000000000000000000008152600401620000c290620003ef565b60405180910390fd5b8160009080519060200190620000e3929190620001a6565b50505062000643565b6000600260009054906101000a900473ffffffffffffffffffffffffffffffffffffffff1673ffffffffffffffffffffffffffffffffffffffff166363a9c3d7836040518263ffffffff1660e01b81526004016200014b9190620003d2565b60206040518083038186803b1580156200016457600080fd5b505afa15801562000179573d6000803e3d6000fd5b505050506040513d601f19601f820116820180604052508101906200019f919062000302565b9050919050565b828054620001b490620004f7565b90600052602060002090601f016020900481019282620001d8576000855562000224565b82601f10620001f357805160ff191683800117855562000224565b8280016001018555821562000224579182015b828111156200022357825182559160200191906001019062000206565b5b50905062000233919062000237565b5090565b5b808211156200025257600081600090555060010162000238565b5090565b60006200026d62000267846200043a565b62000411565b9050828152602081018484840111156200028c576200028b620005c6565b5b62000299848285620004c1565b509392505050565b600081519050620002b2816200060f565b92915050565b600081519050620002c98162000629565b92915050565b600082601f830112620002e757620002e6620005c1565b5b8151620002f984826020860162000256565b91505092915050565b6000602082840312156200031b576200031a620005d0565b5b60006200032b84828501620002b8565b91505092915050565b600080604083850312156200034e576200034d620005d0565b5b600083015167ffffffffffffffff8111156200036f576200036e620005cb565b5b6200037d85828601620002cf565b92505060206200039085828601620002a1565b9150509250929050565b620003a58162000481565b82525050565b6000620003ba60148362000470565b9150620003c782620005e6565b602082019050919050565b6000602082019050620003e960008301846200039a565b92915050565b600060208201905081810360008301526200040a81620003ab565b9050919050565b60006200041d62000430565b90506200042b82826200052d565b919050565b6000604051905090565b600067ffffffffffffffff82111562000458576200045762000592565b5b6200046382620005d5565b9050602081019050919050565b600082825260208201905092915050565b60006200048e82620004a1565b9050919050565b60008115159050919050565b600073ffffffffffffffffffffffffffffffffffffffff82169050919050565b60005b83811015620004e1578082015181840152602081019050620004c4565b83811115620004f1576000848401525b50505050565b600060028204905060018216806200051057607f821691505b6020821081141562000527576200052662000563565b5b50919050565b6200053882620005d5565b810181811067ffffffffffffffff821117156200055a576200055962000592565b5b80604052505050565b7f4e487b7100000000000000000000000000000000000000000000000000000000600052602260045260246000fd5b7f4e487b7100000000000000000000000000000000000000000000000000000000600052604160045260246000fd5b600080fd5b600080fd5b600080fd5b600080fd5b6000601f19601f8301169050919050565b7f5f7369676e6572206973206e6f742076616c6964000000000000000000000000600082015250565b6200061a8162000481565b81146200062657600080fd5b50565b620006348162000495565b81146200064057600080fd5b50565b6102e280620006536000396000f3fe608060405234801561001057600080fd5b50600436106100365760003560e01c806350ca09281461003b578063963671be1461006b575b600080fd5b6100556004803603810190610050919061018d565b610089565b6040516100629190610220565b60405180910390f35b61007361013d565b6040516100809190610205565b60405180910390f35b6000600260009054906101000a900473ffffffffffffffffffffffffffffffffffffffff1673ffffffffffffffffffffffffffffffffffffffff166363a9c3d7836040518263ffffffff1660e01b81526004016100e69190610205565b60206040518083038186803b1580156100fe57600080fd5b505afa158015610112573d6000803e3d6000fd5b505050506040513d601f19601f8201168201806040525081019061013691906101ba565b9050919050565b600260009054906101000a900473ffffffffffffffffffffffffffffffffffffffff1681565b6000813590506101728161027e565b92915050565b60008151905061018781610295565b92915050565b6000602082840312156101a3576101a2610279565b5b60006101b184828501610163565b91505092915050565b6000602082840312156101d0576101cf610279565b5b60006101de84828501610178565b91505092915050565b6101f08161023b565b82525050565b6101ff8161024d565b82525050565b600060208201905061021a60008301846101e7565b92915050565b600060208201905061023560008301846101f6565b92915050565b600061024682610259565b9050919050565b60008115159050919050565b600073ffffffffffffffffffffffffffffffffffffffff82169050919050565b600080fd5b6102878161023b565b811461029257600080fd5b50565b61029e8161024d565b81146102a957600080fd5b5056fea2646970667358221220027471a82aae5009754b2d956b14cba31b372c698b0d3584866dcf654833a1e064736f6c63430008070033",
					"opcodes": "PUSH1 0x80 PUSH1 0x40 MSTORE CALLVALUE DUP1 ISZERO PUSH3 0x11 JUMPI PUSH1 0x0 DUP1 REVERT JUMPDEST POP PUSH1 0x40 MLOAD PUSH3 0x935 CODESIZE SUB DUP1 PUSH3 0x935 DUP4 CODECOPY DUP2 DUP2 ADD PUSH1 0x40 MSTORE DUP2 ADD SWAP1 PUSH3 0x37 SWAP2 SWAP1 PUSH3 0x334 JUMP JUMPDEST DUP1 PUSH1 0x2 PUSH1 0x0 PUSH2 0x100 EXP DUP2 SLOAD DUP2 PUSH20 0xFFFFFFFFFFFFFFFFFFFFFFFFFFFFFFFFFFFFFFFF MUL NOT AND SWAP1 DUP4 PUSH20 0xFFFFFFFFFFFFFFFFFFFFFFFFFFFFFFFFFFFFFFFF AND MUL OR SWAP1 SSTORE POP PUSH3 0x89 ORIGIN PUSH3 0xEC PUSH1 0x20 SHL PUSH1 0x20 SHR JUMP JUMPDEST PUSH3 0xCB JUMPI PUSH1 0x40 MLOAD PUSH32 0x8C379A000000000000000000000000000000000000000000000000000000000 DUP2 MSTORE PUSH1 0x4 ADD PUSH3 0xC2 SWAP1 PUSH3 0x3EF JUMP JUMPDEST PUSH1 0x40 MLOAD DUP1 SWAP2 SUB SWAP1 REVERT JUMPDEST DUP2 PUSH1 0x0 SWAP1 DUP1 MLOAD SWAP1 PUSH1 0x20 ADD SWAP1 PUSH3 0xE3 SWAP3 SWAP2 SWAP1 PUSH3 0x1A6 JUMP JUMPDEST POP POP POP PUSH3 0x643 JUMP JUMPDEST PUSH1 0x0 PUSH1 0x2 PUSH1 0x0 SWAP1 SLOAD SWAP1 PUSH2 0x100 EXP SWAP1 DIV PUSH20 0xFFFFFFFFFFFFFFFFFFFFFFFFFFFFFFFFFFFFFFFF AND PUSH20 0xFFFFFFFFFFFFFFFFFFFFFFFFFFFFFFFFFFFFFFFF AND PUSH4 0x63A9C3D7 DUP4 PUSH1 0x40 MLOAD DUP3 PUSH4 0xFFFFFFFF AND PUSH1 0xE0 SHL DUP2 MSTORE PUSH1 0x4 ADD PUSH3 0x14B SWAP2 SWAP1 PUSH3 0x3D2 JUMP JUMPDEST PUSH1 0x20 PUSH1 0x40 MLOAD DUP1 DUP4 SUB DUP2 DUP7 DUP1 EXTCODESIZE ISZERO DUP1 ISZERO PUSH3 0x164 JUMPI PUSH1 0x0 DUP1 REVERT JUMPDEST POP GAS STATICCALL ISZERO DUP1 ISZERO PUSH3 0x179 JUMPI RETURNDATASIZE PUSH1 0x0 DUP1 RETURNDATACOPY RETURNDATASIZE PUSH1 0x0 REVERT JUMPDEST POP POP POP POP PUSH1 0x40 MLOAD RETURNDATASIZE PUSH1 0x1F NOT PUSH1 0x1F DUP3 ADD AND DUP3 ADD DUP1 PUSH1 0x40 MSTORE POP DUP2 ADD SWAP1 PUSH3 0x19F SWAP2 SWAP1 PUSH3 0x302 JUMP JUMPDEST SWAP1 POP SWAP2 SWAP1 POP JUMP JUMPDEST DUP3 DUP1 SLOAD PUSH3 0x1B4 SWAP1 PUSH3 0x4F7 JUMP JUMPDEST SWAP1 PUSH1 0x0 MSTORE PUSH1 0x20 PUSH1 0x0 KECCAK256 SWAP1 PUSH1 0x1F ADD PUSH1 0x20 SWAP1 DIV DUP2 ADD SWAP3 DUP3 PUSH3 0x1D8 JUMPI PUSH1 0x0 DUP6 SSTORE PUSH3 0x224 JUMP JUMPDEST DUP3 PUSH1 0x1F LT PUSH3 0x1F3 JUMPI DUP1 MLOAD PUSH1 0xFF NOT AND DUP4 DUP1 ADD OR DUP6 SSTORE PUSH3 0x224 JUMP JUMPDEST DUP3 DUP1 ADD PUSH1 0x1 ADD DUP6 SSTORE DUP3 ISZERO PUSH3 0x224 JUMPI SWAP2 DUP3 ADD JUMPDEST DUP3 DUP2 GT ISZERO PUSH3 0x223 JUMPI DUP3 MLOAD DUP3 SSTORE SWAP2 PUSH1 0x20 ADD SWAP2 SWAP1 PUSH1 0x1 ADD SWAP1 PUSH3 0x206 JUMP JUMPDEST JUMPDEST POP SWAP1 POP PUSH3 0x233 SWAP2 SWAP1 PUSH3 0x237 JUMP JUMPDEST POP SWAP1 JUMP JUMPDEST JUMPDEST DUP1 DUP3 GT ISZERO PUSH3 0x252 JUMPI PUSH1 0x0 DUP2 PUSH1 0x0 SWAP1 SSTORE POP PUSH1 0x1 ADD PUSH3 0x238 JUMP JUMPDEST POP SWAP1 JUMP JUMPDEST PUSH1 0x0 PUSH3 0x26D PUSH3 0x267 DUP5 PUSH3 0x43A JUMP JUMPDEST PUSH3 0x411 JUMP JUMPDEST SWAP1 POP DUP3 DUP2 MSTORE PUSH1 0x20 DUP2 ADD DUP5 DUP5 DUP5 ADD GT ISZERO PUSH3 0x28C JUMPI PUSH3 0x28B PUSH3 0x5C6 JUMP JUMPDEST JUMPDEST PUSH3 0x299 DUP5 DUP3 DUP6 PUSH3 0x4C1 JUMP JUMPDEST POP SWAP4 SWAP3 POP POP POP JUMP JUMPDEST PUSH1 0x0 DUP2 MLOAD SWAP1 POP PUSH3 0x2B2 DUP2 PUSH3 0x60F JUMP JUMPDEST SWAP3 SWAP2 POP POP JUMP JUMPDEST PUSH1 0x0 DUP2 MLOAD SWAP1 POP PUSH3 0x2C9 DUP2 PUSH3 0x629 JUMP JUMPDEST SWAP3 SWAP2 POP POP JUMP JUMPDEST PUSH1 0x0 DUP3 PUSH1 0x1F DUP4 ADD SLT PUSH3 0x2E7 JUMPI PUSH3 0x2E6 PUSH3 0x5C1 JUMP JUMPDEST JUMPDEST DUP2 MLOAD PUSH3 0x2F9 DUP5 DUP3 PUSH1 0x20 DUP7 ADD PUSH3 0x256 JUMP JUMPDEST SWAP2 POP POP SWAP3 SWAP2 POP POP JUMP JUMPDEST PUSH1 0x0 PUSH1 0x20 DUP3 DUP5 SUB SLT ISZERO PUSH3 0x31B JUMPI PUSH3 0x31A PUSH3 0x5D0 JUMP JUMPDEST JUMPDEST PUSH1 0x0 PUSH3 0x32B DUP5 DUP3 DUP6 ADD PUSH3 0x2B8 JUMP JUMPDEST SWAP2 POP POP SWAP3 SWAP2 POP POP JUMP JUMPDEST PUSH1 0x0 DUP1 PUSH1 0x40 DUP4 DUP6 SUB SLT ISZERO PUSH3 0x34E JUMPI PUSH3 0x34D PUSH3 0x5D0 JUMP JUMPDEST JUMPDEST PUSH1 0x0 DUP4 ADD MLOAD PUSH8 0xFFFFFFFFFFFFFFFF DUP2 GT ISZERO PUSH3 0x36F JUMPI PUSH3 0x36E PUSH3 0x5CB JUMP JUMPDEST JUMPDEST PUSH3 0x37D DUP6 DUP3 DUP7 ADD PUSH3 0x2CF JUMP JUMPDEST SWAP3 POP POP PUSH1 0x20 PUSH3 0x390 DUP6 DUP3 DUP7 ADD PUSH3 0x2A1 JUMP JUMPDEST SWAP2 POP POP SWAP3 POP SWAP3 SWAP1 POP JUMP JUMPDEST PUSH3 0x3A5 DUP2 PUSH3 0x481 JUMP JUMPDEST DUP3 MSTORE POP POP JUMP JUMPDEST PUSH1 0x0 PUSH3 0x3BA PUSH1 0x14 DUP4 PUSH3 0x470 JUMP JUMPDEST SWAP2 POP PUSH3 0x3C7 DUP3 PUSH3 0x5E6 JUMP JUMPDEST PUSH1 0x20 DUP3 ADD SWAP1 POP SWAP2 SWAP1 POP JUMP JUMPDEST PUSH1 0x0 PUSH1 0x20 DUP3 ADD SWAP1 POP PUSH3 0x3E9 PUSH1 0x0 DUP4 ADD DUP5 PUSH3 0x39A JUMP JUMPDEST SWAP3 SWAP2 POP POP JUMP JUMPDEST PUSH1 0x0 PUSH1 0x20 DUP3 ADD SWAP1 POP DUP2 DUP2 SUB PUSH1 0x0 DUP4 ADD MSTORE PUSH3 0x40A DUP2 PUSH3 0x3AB JUMP JUMPDEST SWAP1 POP SWAP2 SWAP1 POP JUMP JUMPDEST PUSH1 0x0 PUSH3 0x41D PUSH3 0x430 JUMP JUMPDEST SWAP1 POP PUSH3 0x42B DUP3 DUP3 PUSH3 0x52D JUMP JUMPDEST SWAP2 SWAP1 POP JUMP JUMPDEST PUSH1 0x0 PUSH1 0x40 MLOAD SWAP1 POP SWAP1 JUMP JUMPDEST PUSH1 0x0 PUSH8 0xFFFFFFFFFFFFFFFF DUP3 GT ISZERO PUSH3 0x458 JUMPI PUSH3 0x457 PUSH3 0x592 JUMP JUMPDEST JUMPDEST PUSH3 0x463 DUP3 PUSH3 0x5D5 JUMP JUMPDEST SWAP1 POP PUSH1 0x20 DUP2 ADD SWAP1 POP SWAP2 SWAP1 POP JUMP JUMPDEST PUSH1 0x0 DUP3 DUP3 MSTORE PUSH1 0x20 DUP3 ADD SWAP1 POP SWAP3 SWAP2 POP POP JUMP JUMPDEST PUSH1 0x0 PUSH3 0x48E DUP3 PUSH3 0x4A1 JUMP JUMPDEST SWAP1 POP SWAP2 SWAP1 POP JUMP JUMPDEST PUSH1 0x0 DUP2 ISZERO ISZERO SWAP1 POP SWAP2 SWAP1 POP JUMP JUMPDEST PUSH1 0x0 PUSH20 0xFFFFFFFFFFFFFFFFFFFFFFFFFFFFFFFFFFFFFFFF DUP3 AND SWAP1 POP SWAP2 SWAP1 POP JUMP JUMPDEST PUSH1 0x0 JUMPDEST DUP4 DUP2 LT ISZERO PUSH3 0x4E1 JUMPI DUP1 DUP3 ADD MLOAD DUP2 DUP5 ADD MSTORE PUSH1 0x20 DUP2 ADD SWAP1 POP PUSH3 0x4C4 JUMP JUMPDEST DUP4 DUP2 GT ISZERO PUSH3 0x4F1 JUMPI PUSH1 0x0 DUP5 DUP5 ADD MSTORE JUMPDEST POP POP POP POP JUMP JUMPDEST PUSH1 0x0 PUSH1 0x2 DUP3 DIV SWAP1 POP PUSH1 0x1 DUP3 AND DUP1 PUSH3 0x510 JUMPI PUSH1 0x7F DUP3 AND SWAP2 POP JUMPDEST PUSH1 0x20 DUP3 LT DUP2 EQ ISZERO PUSH3 0x527 JUMPI PUSH3 0x526 PUSH3 0x563 JUMP JUMPDEST JUMPDEST POP SWAP2 SWAP1 POP JUMP JUMPDEST PUSH3 0x538 DUP3 PUSH3 0x5D5 JUMP JUMPDEST DUP2 ADD DUP2 DUP2 LT PUSH8 0xFFFFFFFFFFFFFFFF DUP3 GT OR ISZERO PUSH3 0x55A JUMPI PUSH3 0x559 PUSH3 0x592 JUMP JUMPDEST JUMPDEST DUP1 PUSH1 0x40 MSTORE POP POP POP JUMP JUMPDEST PUSH32 0x4E487B7100000000000000000000000000000000000000000000000000000000 PUSH1 0x0 MSTORE PUSH1 0x22 PUSH1 0x4 MSTORE PUSH1 0x24 PUSH1 0x0 REVERT JUMPDEST PUSH32 0x4E487B7100000000000000000000000000000000000000000000000000000000 PUSH1 0x0 MSTORE PUSH1 0x41 PUSH1 0x4 MSTORE PUSH1 0x24 PUSH1 0x0 REVERT JUMPDEST PUSH1 0x0 DUP1 REVERT JUMPDEST PUSH1 0x0 DUP1 REVERT JUMPDEST PUSH1 0x0 DUP1 REVERT JUMPDEST PUSH1 0x0 DUP1 REVERT JUMPDEST PUSH1 0x0 PUSH1 0x1F NOT PUSH1 0x1F DUP4 ADD AND SWAP1 POP SWAP2 SWAP1 POP JUMP JUMPDEST PUSH32 0x5F7369676E6572206973206E6F742076616C6964000000000000000000000000 PUSH1 0x0 DUP3 ADD MSTORE POP JUMP JUMPDEST PUSH3 0x61A DUP2 PUSH3 0x481 JUMP JUMPDEST DUP2 EQ PUSH3 0x626 JUMPI PUSH1 0x0 DUP1 REVERT JUMPDEST POP JUMP JUMPDEST PUSH3 0x634 DUP2 PUSH3 0x495 JUMP JUMPDEST DUP2 EQ PUSH3 0x640 JUMPI PUSH1 0x0 DUP1 REVERT JUMPDEST POP JUMP JUMPDEST PUSH2 0x2E2 DUP1 PUSH3 0x653 PUSH1 0x0 CODECOPY PUSH1 0x0 RETURN INVALID PUSH1 0x80 PUSH1 0x40 MSTORE CALLVALUE DUP1 ISZERO PUSH2 0x10 JUMPI PUSH1 0x0 DUP1 REVERT JUMPDEST POP PUSH1 0x4 CALLDATASIZE LT PUSH2 0x36 JUMPI PUSH1 0x0 CALLDATALOAD PUSH1 0xE0 SHR DUP1 PUSH4 0x50CA0928 EQ PUSH2 0x3B JUMPI DUP1 PUSH4 0x963671BE EQ PUSH2 0x6B JUMPI JUMPDEST PUSH1 0x0 DUP1 REVERT JUMPDEST PUSH2 0x55 PUSH1 0x4 DUP1 CALLDATASIZE SUB DUP2 ADD SWAP1 PUSH2 0x50 SWAP2 SWAP1 PUSH2 0x18D JUMP JUMPDEST PUSH2 0x89 JUMP JUMPDEST PUSH1 0x40 MLOAD PUSH2 0x62 SWAP2 SWAP1 PUSH2 0x220 JUMP JUMPDEST PUSH1 0x40 MLOAD DUP1 SWAP2 SUB SWAP1 RETURN JUMPDEST PUSH2 0x73 PUSH2 0x13D JUMP JUMPDEST PUSH1 0x40 MLOAD PUSH2 0x80 SWAP2 SWAP1 PUSH2 0x205 JUMP JUMPDEST PUSH1 0x40 MLOAD DUP1 SWAP2 SUB SWAP1 RETURN JUMPDEST PUSH1 0x0 PUSH1 0x2 PUSH1 0x0 SWAP1 SLOAD SWAP1 PUSH2 0x100 EXP SWAP1 DIV PUSH20 0xFFFFFFFFFFFFFFFFFFFFFFFFFFFFFFFFFFFFFFFF AND PUSH20 0xFFFFFFFFFFFFFFFFFFFFFFFFFFFFFFFFFFFFFFFF AND PUSH4 0x63A9C3D7 DUP4 PUSH1 0x40 MLOAD DUP3 PUSH4 0xFFFFFFFF AND PUSH1 0xE0 SHL DUP2 MSTORE PUSH1 0x4 ADD PUSH2 0xE6 SWAP2 SWAP1 PUSH2 0x205 JUMP JUMPDEST PUSH1 0x20 PUSH1 0x40 MLOAD DUP1 DUP4 SUB DUP2 DUP7 DUP1 EXTCODESIZE ISZERO DUP1 ISZERO PUSH2 0xFE JUMPI PUSH1 0x0 DUP1 REVERT JUMPDEST POP GAS STATICCALL ISZERO DUP1 ISZERO PUSH2 0x112 JUMPI RETURNDATASIZE PUSH1 0x0 DUP1 RETURNDATACOPY RETURNDATASIZE PUSH1 0x0 REVERT JUMPDEST POP POP POP POP PUSH1 0x40 MLOAD RETURNDATASIZE PUSH1 0x1F NOT PUSH1 0x1F DUP3 ADD AND DUP3 ADD DUP1 PUSH1 0x40 MSTORE POP DUP2 ADD SWAP1 PUSH2 0x136 SWAP2 SWAP1 PUSH2 0x1BA JUMP JUMPDEST SWAP1 POP SWAP2 SWAP1 POP JUMP JUMPDEST PUSH1 0x2 PUSH1 0x0 SWAP1 SLOAD SWAP1 PUSH2 0x100 EXP SWAP1 DIV PUSH20 0xFFFFFFFFFFFFFFFFFFFFFFFFFFFFFFFFFFFFFFFF AND DUP2 JUMP JUMPDEST PUSH1 0x0 DUP2 CALLDATALOAD SWAP1 POP PUSH2 0x172 DUP2 PUSH2 0x27E JUMP JUMPDEST SWAP3 SWAP2 POP POP JUMP JUMPDEST PUSH1 0x0 DUP2 MLOAD SWAP1 POP PUSH2 0x187 DUP2 PUSH2 0x295 JUMP JUMPDEST SWAP3 SWAP2 POP POP JUMP JUMPDEST PUSH1 0x0 PUSH1 0x20 DUP3 DUP5 SUB SLT ISZERO PUSH2 0x1A3 JUMPI PUSH2 0x1A2 PUSH2 0x279 JUMP JUMPDEST JUMPDEST PUSH1 0x0 PUSH2 0x1B1 DUP5 DUP3 DUP6 ADD PUSH2 0x163 JUMP JUMPDEST SWAP2 POP POP SWAP3 SWAP2 POP POP JUMP JUMPDEST PUSH1 0x0 PUSH1 0x20 DUP3 DUP5 SUB SLT ISZERO PUSH2 0x1D0 JUMPI PUSH2 0x1CF PUSH2 0x279 JUMP JUMPDEST JUMPDEST PUSH1 0x0 PUSH2 0x1DE DUP5 DUP3 DUP6 ADD PUSH2 0x178 JUMP JUMPDEST SWAP2 POP POP SWAP3 SWAP2 POP POP JUMP JUMPDEST PUSH2 0x1F0 DUP2 PUSH2 0x23B JUMP JUMPDEST DUP3 MSTORE POP POP JUMP JUMPDEST PUSH2 0x1FF DUP2 PUSH2 0x24D JUMP JUMPDEST DUP3 MSTORE POP POP JUMP JUMPDEST PUSH1 0x0 PUSH1 0x20 DUP3 ADD SWAP1 POP PUSH2 0x21A PUSH1 0x0 DUP4 ADD DUP5 PUSH2 0x1E7 JUMP JUMPDEST SWAP3 SWAP2 POP POP JUMP JUMPDEST PUSH1 0x0 PUSH1 0x20 DUP3 ADD SWAP1 POP PUSH2 0x235 PUSH1 0x0 DUP4 ADD DUP5 PUSH2 0x1F6 JUMP JUMPDEST SWAP3 SWAP2 POP POP JUMP JUMPDEST PUSH1 0x0 PUSH2 0x246 DUP3 PUSH2 0x259 JUMP JUMPDEST SWAP1 POP SWAP2 SWAP1 POP JUMP JUMPDEST PUSH1 0x0 DUP2 ISZERO ISZERO SWAP1 POP SWAP2 SWAP1 POP JUMP JUMPDEST PUSH1 0x0 PUSH20 0xFFFFFFFFFFFFFFFFFFFFFFFFFFFFFFFFFFFFFFFF DUP3 AND SWAP1 POP SWAP2 SWAP1 POP JUMP JUMPDEST PUSH1 0x0 DUP1 REVERT JUMPDEST PUSH2 0x287 DUP2 PUSH2 0x23B JUMP JUMPDEST DUP2 EQ PUSH2 0x292 JUMPI PUSH1 0x0 DUP1 REVERT JUMPDEST POP JUMP JUMPDEST PUSH2 0x29E DUP2 PUSH2 0x24D JUMP JUMPDEST DUP2 EQ PUSH2 0x2A9 JUMPI PUSH1 0x0 DUP1 REVERT JUMPDEST POP JUMP INVALID LOG2 PUSH5 0x6970667358 0x22 SLT KECCAK256 MUL PUSH21 0x71A82AAE5009754B2D956B14CBA31B372C698B0D35 DUP5 DUP7 PUSH14 0xCF654833A1E064736F6C63430008 SMOD STOP CALLER "
				},
				"gasEstimates": {
					"creation": {
						"codeDepositCost": "147600",
						"executionCost": "infinite",
						"totalCost": "infinite"
					},
					"external": {
						"callVerify(address)": "infinite",
						"factoryAddr()": "2514"
					}
				},
				"methodIdentifiers": {
					"callVerify(address)": "50ca0928",
					"factoryAddr()": "963671be"
				}
			},
			"storageLayout": {
				"storage": [
					{
						"astId": 23,
						"contract": "evidence/evidence.sol:Evidence",
						"label": "evidence",
						"offset": 0,
						"slot": "0",
						"type": "t_string_storage"
					},
					{
						"astId": 26,
						"contract": "evidence/evidence.sol:Evidence",
						"label": "signers",
						"offset": 0,
						"slot": "1",
						"type": "t_array(t_address)dyn_storage"
					},
					{
						"astId": 28,
						"contract": "evidence/evidence.sol:Evidence",
						"label": "factoryAddr",
						"offset": 0,
						"slot": "2",
						"type": "t_address"
					}
				],
				"types": {
					"t_address": {
						"encoding": "inplace",
						"label": "address",
						"numberOfBytes": "20"
					},
					"t_array(t_address)dyn_storage": {
						"base": "t_address",
						"encoding": "dynamic_array",
						"label": "address[]",
						"numberOfBytes": "32"
					},
					"t_string_storage": {
						"encoding": "bytes",
						"label": "string",
						"numberOfBytes": "32"
					}
				}
			},
			"userdoc": {
				"kind": "user",
				"methods": {},
				"version": 1
			}
		}
	}
}