{
	"evidence/evidence.sol": {
		"Evidence": {
			"abi": [
				{
					"inputs": [
						{
							"internalType": "string",
							"name": "_evi",
							"type": "string"
						},
						{
							"internalType": "address",
							"name": "_factory",
							"type": "address"
						}
					],
					"stateMutability": "nonpayable",
					"type": "constructor"
				},
				{
					"anonymous": false,
					"inputs": [
						{
							"indexed": false,
							"internalType": "string",
							"name": "_evi",
							"type": "string"
						},
						{
							"indexed": false,
							"internalType": "address",
							"name": "_sender",
							"type": "address"
						}
					],
					"name": "NewSignaturesEvidence",
					"type": "event"
				},
				{
					"inputs": [
						{
							"internalType": "address",
							"name": "_signer",
							"type": "address"
						}
					],
					"name": "callVerify",
					"outputs": [
						{
							"internalType": "bool",
							"name": "",
							"type": "bool"
						}
					],
					"stateMutability": "view",
					"type": "function"
				},
				{
					"inputs": [],
					"name": "factoryAddr",
					"outputs": [
						{
							"internalType": "address",
							"name": "",
							"type": "address"
						}
					],
					"stateMutability": "view",
					"type": "function"
				},
				{
					"inputs": [],
					"name": "getEvidence",
					"outputs": [
						{
							"internalType": "string",
							"name": "",
							"type": "string"
						},
						{
							"internalType": "address[]",
							"name": "",
							"type": "address[]"
						},
						{
							"internalType": "address[]",
							"name": "",
							"type": "address[]"
						}
					],
					"stateMutability": "view",
					"type": "function"
				},
				{
					"inputs": [],
					"name": "sign",
					"outputs": [
						{
							"internalType": "bool",
							"name": "",
							"type": "bool"
						}
					],
					"stateMutability": "nonpayable",
					"type": "function"
				}
			],
			"devdoc": {
				"kind": "dev",
				"methods": {},
				"version": 1
			},
			"evm": {
				"assembly": "    /* \"evidence/evidence.sol\":279:1771  contract Evidence {\r... */\n  mstore(0x40, 0x80)\n    /* \"evidence/evidence.sol\":680:947  constructor(string memory _evi,address _factory){\r... */\n  callvalue\n  dup1\n  iszero\n  tag_1\n  jumpi\n  0x00\n  dup1\n  revert\ntag_1:\n  pop\n  mload(0x40)\n  sub(codesize, bytecodeSize)\n  dup1\n  bytecodeSize\n  dup4\n  codecopy\n  dup2\n  dup2\n  add\n  0x40\n  mstore\n  dup2\n  add\n  swap1\n  tag_2\n  swap2\n  swap1\n  tag_3\n  jump\t// in\ntag_2:\n    /* \"evidence/evidence.sol\":753:761  _factory */\n  dup1\n    /* \"evidence/evidence.sol\":739:750  factoryAddr */\n  0x02\n  0x00\n    /* \"evidence/evidence.sol\":739:761  factoryAddr = _factory */\n  0x0100\n  exp\n  dup2\n  sload\n  dup2\n  0xffffffffffffffffffffffffffffffffffffffff\n  mul\n  not\n  and\n  swap1\n  dup4\n  0xffffffffffffffffffffffffffffffffffffffff\n  and\n  mul\n  or\n  swap1\n  sstore\n  pop\n    /* \"evidence/evidence.sol\":780:801  callVerify(tx.origin) */\n  tag_6\n    /* \"evidence/evidence.sol\":791:800  tx.origin */\n  origin\n    /* \"evidence/evidence.sol\":780:790  callVerify */\n  shl(0x20, tag_7)\n    /* \"evidence/evidence.sol\":780:801  callVerify(tx.origin) */\n  0x20\n  shr\n  jump\t// in\ntag_6:\n    /* \"evidence/evidence.sol\":772:825  require(callVerify(tx.origin),\"_signer is not valid\") */\n  tag_8\n  jumpi\n  mload(0x40)\n  0x08c379a000000000000000000000000000000000000000000000000000000000\n  dup2\n  mstore\n  0x04\n  add\n  tag_9\n  swap1\n  tag_10\n  jump\t// in\ntag_9:\n  mload(0x40)\n  dup1\n  swap2\n  sub\n  swap1\n  revert\ntag_8:\n    /* \"evidence/evidence.sol\":846:850  _evi */\n  dup2\n    /* \"evidence/evidence.sol\":836:844  evidence */\n  0x00\n    /* \"evidence/evidence.sol\":836:850  evidence= _evi */\n  swap1\n  dup1\n  mload\n  swap1\n  0x20\n  add\n  swap1\n  tag_11\n  swap3\n  swap2\n  swap1\n  tag_12\n  jump\t// in\ntag_11:\n  pop\n    /* \"evidence/evidence.sol\":861:868  signers */\n  0x01\n    /* \"evidence/evidence.sol\":874:883  tx.origin */\n  origin\n    /* \"evidence/evidence.sol\":861:884  signers.push(tx.origin) */\n  swap1\n  dup1\n  0x01\n  dup2\n  sload\n  add\n  dup1\n  dup3\n  sstore\n  dup1\n  swap2\n  pop\n  pop\n  0x01\n  swap1\n  sub\n  swap1\n  0x00\n  mstore\n  keccak256(0x00, 0x20)\n  add\n  0x00\n  swap1\n  swap2\n  swap1\n  swap2\n  swap1\n  swap2\n  0x0100\n  exp\n  dup2\n  sload\n  dup2\n  0xffffffffffffffffffffffffffffffffffffffff\n  mul\n  not\n  and\n  swap1\n  dup4\n  0xffffffffffffffffffffffffffffffffffffffff\n  and\n  mul\n  or\n  swap1\n  sstore\n  pop\n    /* \"evidence/evidence.sol\":902:939  NewSignaturesEvidence(_evi,tx.origin) */\n  0xa34d8f872132d193d2e62e18648026516cd6a9d599cb2f07eda0fd5ab16f1627\n    /* \"evidence/evidence.sol\":924:928  _evi */\n  dup3\n    /* \"evidence/evidence.sol\":929:938  tx.origin */\n  origin\n    /* \"evidence/evidence.sol\":902:939  NewSignaturesEvidence(_evi,tx.origin) */\n  mload(0x40)\n  tag_14\n  swap3\n  swap2\n  swap1\n  tag_15\n  jump\t// in\ntag_14:\n  mload(0x40)\n  dup1\n  swap2\n  sub\n  swap1\n  log1\n    /* \"evidence/evidence.sol\":680:947  constructor(string memory _evi,address _factory){\r... */\n  pop\n  pop\n    /* \"evidence/evidence.sol\":279:1771  contract Evidence {\r... */\n  jump(tag_16)\n    /* \"evidence/evidence.sol\":530:655  function callVerify(address _signer) public view returns(bool){\r... */\ntag_7:\n    /* \"evidence/evidence.sol\":587:591  bool */\n  0x00\n    /* \"evidence/evidence.sol\":619:630  factoryAddr */\n  0x02\n  0x00\n  swap1\n  sload\n  swap1\n  0x0100\n  exp\n  swap1\n  div\n  0xffffffffffffffffffffffffffffffffffffffff\n  and\n    /* \"evidence/evidence.sol\":610:638  IEvdence(factoryAddr).verify */\n  0xffffffffffffffffffffffffffffffffffffffff\n  and\n  0x63a9c3d7\n    /* \"evidence/evidence.sol\":639:646  _signer */\n  dup4\n    /* \"evidence/evidence.sol\":610:647  IEvdence(factoryAddr).verify(_signer) */\n  mload(0x40)\n  dup3\n  0xffffffff\n  and\n  0xe0\n  shl\n  dup2\n  mstore\n  0x04\n  add\n  tag_18\n  swap2\n  swap1\n  tag_19\n  jump\t// in\ntag_18:\n  0x20\n  mload(0x40)\n  dup1\n  dup4\n  sub\n  dup2\n  dup7\n  dup1\n  extcodesize\n  iszero\n  dup1\n  iszero\n  tag_20\n  jumpi\n  0x00\n  dup1\n  revert\ntag_20:\n  pop\n  gas\n  staticcall\n  iszero\n  dup1\n  iszero\n  tag_22\n  jumpi\n  returndatasize\n  0x00\n  dup1\n  returndatacopy\n  revert(0x00, returndatasize)\ntag_22:\n  pop\n  pop\n  pop\n  pop\n  mload(0x40)\n  returndatasize\n  not(0x1f)\n  0x1f\n  dup3\n  add\n  and\n  dup3\n  add\n  dup1\n  0x40\n  mstore\n  pop\n  dup2\n  add\n  swap1\n  tag_23\n  swap2\n  swap1\n  tag_24\n  jump\t// in\ntag_23:\n    /* \"evidence/evidence.sol\":603:647  return IEvdence(factoryAddr).verify(_signer) */\n  swap1\n  pop\n    /* \"evidence/evidence.sol\":530:655  function callVerify(address _signer) public view returns(bool){\r... */\n  swap2\n  swap1\n  pop\n  jump\t// out\n    /* \"evidence/evidence.sol\":279:1771  contract Evidence {\r... */\ntag_12:\n  dup3\n  dup1\n  sload\n  tag_25\n  swap1\n  tag_26\n  jump\t// in\ntag_25:\n  swap1\n  0x00\n  mstore\n  keccak256(0x00, 0x20)\n  swap1\n  0x1f\n  add\n  0x20\n  swap1\n  div\n  dup2\n  add\n  swap3\n  dup3\n  tag_28\n  jumpi\n  0x00\n  dup6\n  sstore\n  jump(tag_27)\ntag_28:\n  dup3\n  0x1f\n  lt\n  tag_29\n  jumpi\n  dup1\n  mload\n  not(0xff)\n  and\n  dup4\n  dup1\n  add\n  or\n  dup6\n  sstore\n  jump(tag_27)\ntag_29:\n  dup3\n  dup1\n  add\n  0x01\n  add\n  dup6\n  sstore\n  dup3\n  iszero\n  tag_27\n  jumpi\n  swap2\n  dup3\n  add\ntag_30:\n  dup3\n  dup2\n  gt\n  iszero\n  tag_31\n  jumpi\n  dup3\n  mload\n  dup3\n  sstore\n  swap2\n  0x20\n  add\n  swap2\n  swap1\n  0x01\n  add\n  swap1\n  jump(tag_30)\ntag_31:\ntag_27:\n  pop\n  swap1\n  pop\n  tag_32\n  swap2\n  swap1\n  tag_33\n  jump\t// in\ntag_32:\n  pop\n  swap1\n  jump\t// out\ntag_33:\ntag_34:\n  dup1\n  dup3\n  gt\n  iszero\n  tag_35\n  jumpi\n  0x00\n  dup2\n  0x00\n  swap1\n  sstore\n  pop\n  0x01\n  add\n  jump(tag_34)\ntag_35:\n  pop\n  swap1\n  jump\t// out\n    /* \"#utility.yul\":7:428   */\ntag_37:\n    /* \"#utility.yul\":96:101   */\n  0x00\n    /* \"#utility.yul\":121:187   */\n  tag_39\n    /* \"#utility.yul\":137:186   */\n  tag_40\n    /* \"#utility.yul\":179:185   */\n  dup5\n    /* \"#utility.yul\":137:186   */\n  tag_41\n  jump\t// in\ntag_40:\n    /* \"#utility.yul\":121:187   */\n  tag_42\n  jump\t// in\ntag_39:\n    /* \"#utility.yul\":112:187   */\n  swap1\n  pop\n    /* \"#utility.yul\":210:216   */\n  dup3\n    /* \"#utility.yul\":203:208   */\n  dup2\n    /* \"#utility.yul\":196:217   */\n  mstore\n    /* \"#utility.yul\":248:252   */\n  0x20\n    /* \"#utility.yul\":241:246   */\n  dup2\n    /* \"#utility.yul\":237:253   */\n  add\n    /* \"#utility.yul\":286:289   */\n  dup5\n    /* \"#utility.yul\":277:283   */\n  dup5\n    /* \"#utility.yul\":272:275   */\n  dup5\n    /* \"#utility.yul\":268:284   */\n  add\n    /* \"#utility.yul\":265:290   */\n  gt\n    /* \"#utility.yul\":262:374   */\n  iszero\n  tag_43\n  jumpi\n    /* \"#utility.yul\":293:372   */\n  tag_44\n  tag_45\n  jump\t// in\ntag_44:\n    /* \"#utility.yul\":262:374   */\ntag_43:\n    /* \"#utility.yul\":383:422   */\n  tag_46\n    /* \"#utility.yul\":415:421   */\n  dup5\n    /* \"#utility.yul\":410:413   */\n  dup3\n    /* \"#utility.yul\":405:408   */\n  dup6\n    /* \"#utility.yul\":383:422   */\n  tag_47\n  jump\t// in\ntag_46:\n    /* \"#utility.yul\":102:428   */\n  pop\n    /* \"#utility.yul\":7:428   */\n  swap4\n  swap3\n  pop\n  pop\n  pop\n  jump\t// out\n    /* \"#utility.yul\":434:577   */\ntag_48:\n    /* \"#utility.yul\":491:496   */\n  0x00\n    /* \"#utility.yul\":522:528   */\n  dup2\n    /* \"#utility.yul\":516:529   */\n  mload\n    /* \"#utility.yul\":507:529   */\n  swap1\n  pop\n    /* \"#utility.yul\":538:571   */\n  tag_50\n    /* \"#utility.yul\":565:570   */\n  dup2\n    /* \"#utility.yul\":538:571   */\n  tag_51\n  jump\t// in\ntag_50:\n    /* \"#utility.yul\":434:577   */\n  swap3\n  swap2\n  pop\n  pop\n  jump\t// out\n    /* \"#utility.yul\":583:720   */\ntag_52:\n    /* \"#utility.yul\":637:642   */\n  0x00\n    /* \"#utility.yul\":668:674   */\n  dup2\n    /* \"#utility.yul\":662:675   */\n  mload\n    /* \"#utility.yul\":653:675   */\n  swap1\n  pop\n    /* \"#utility.yul\":684:714   */\n  tag_54\n    /* \"#utility.yul\":708:713   */\n  dup2\n    /* \"#utility.yul\":684:714   */\n  tag_55\n  jump\t// in\ntag_54:\n    /* \"#utility.yul\":583:720   */\n  swap3\n  swap2\n  pop\n  pop\n  jump\t// out\n    /* \"#utility.yul\":740:1095   */\ntag_56:\n    /* \"#utility.yul\":807:812   */\n  0x00\n    /* \"#utility.yul\":856:859   */\n  dup3\n    /* \"#utility.yul\":849:853   */\n  0x1f\n    /* \"#utility.yul\":841:847   */\n  dup4\n    /* \"#utility.yul\":837:854   */\n  add\n    /* \"#utility.yul\":833:860   */\n  slt\n    /* \"#utility.yul\":823:945   */\n  tag_58\n  jumpi\n    /* \"#utility.yul\":864:943   */\n  tag_59\n  tag_60\n  jump\t// in\ntag_59:\n    /* \"#utility.yul\":823:945   */\ntag_58:\n    /* \"#utility.yul\":974:980   */\n  dup2\n    /* \"#utility.yul\":968:981   */\n  mload\n    /* \"#utility.yul\":999:1089   */\n  tag_61\n    /* \"#utility.yul\":1085:1088   */\n  dup5\n    /* \"#utility.yul\":1077:1083   */\n  dup3\n    /* \"#utility.yul\":1070:1074   */\n  0x20\n    /* \"#utility.yul\":1062:1068   */\n  dup7\n    /* \"#utility.yul\":1058:1075   */\n  add\n    /* \"#utility.yul\":999:1089   */\n  tag_37\n  jump\t// in\ntag_61:\n    /* \"#utility.yul\":990:1089   */\n  swap2\n  pop\n    /* \"#utility.yul\":813:1095   */\n  pop\n    /* \"#utility.yul\":740:1095   */\n  swap3\n  swap2\n  pop\n  pop\n  jump\t// out\n    /* \"#utility.yul\":1101:1446   */\ntag_24:\n    /* \"#utility.yul\":1168:1174   */\n  0x00\n    /* \"#utility.yul\":1217:1219   */\n  0x20\n    /* \"#utility.yul\":1205:1214   */\n  dup3\n    /* \"#utility.yul\":1196:1203   */\n  dup5\n    /* \"#utility.yul\":1192:1215   */\n  sub\n    /* \"#utility.yul\":1188:1220   */\n  slt\n    /* \"#utility.yul\":1185:1304   */\n  iszero\n  tag_63\n  jumpi\n    /* \"#utility.yul\":1223:1302   */\n  tag_64\n  tag_65\n  jump\t// in\ntag_64:\n    /* \"#utility.yul\":1185:1304   */\ntag_63:\n    /* \"#utility.yul\":1343:1344   */\n  0x00\n    /* \"#utility.yul\":1368:1429   */\n  tag_66\n    /* \"#utility.yul\":1421:1428   */\n  dup5\n    /* \"#utility.yul\":1412:1418   */\n  dup3\n    /* \"#utility.yul\":1401:1410   */\n  dup6\n    /* \"#utility.yul\":1397:1419   */\n  add\n    /* \"#utility.yul\":1368:1429   */\n  tag_52\n  jump\t// in\ntag_66:\n    /* \"#utility.yul\":1358:1429   */\n  swap2\n  pop\n    /* \"#utility.yul\":1314:1439   */\n  pop\n    /* \"#utility.yul\":1101:1446   */\n  swap3\n  swap2\n  pop\n  pop\n  jump\t// out\n    /* \"#utility.yul\":1452:2132   */\ntag_3:\n    /* \"#utility.yul\":1541:1547   */\n  0x00\n    /* \"#utility.yul\":1549:1555   */\n  dup1\n    /* \"#utility.yul\":1598:1600   */\n  0x40\n    /* \"#utility.yul\":1586:1595   */\n  dup4\n    /* \"#utility.yul\":1577:1584   */\n  dup6\n    /* \"#utility.yul\":1573:1596   */\n  sub\n    /* \"#utility.yul\":1569:1601   */\n  slt\n    /* \"#utility.yul\":1566:1685   */\n  iszero\n  tag_68\n  jumpi\n    /* \"#utility.yul\":1604:1683   */\n  tag_69\n  tag_65\n  jump\t// in\ntag_69:\n    /* \"#utility.yul\":1566:1685   */\ntag_68:\n    /* \"#utility.yul\":1745:1746   */\n  0x00\n    /* \"#utility.yul\":1734:1743   */\n  dup4\n    /* \"#utility.yul\":1730:1747   */\n  add\n    /* \"#utility.yul\":1724:1748   */\n  mload\n    /* \"#utility.yul\":1775:1793   */\n  0xffffffffffffffff\n    /* \"#utility.yul\":1767:1773   */\n  dup2\n    /* \"#utility.yul\":1764:1794   */\n  gt\n    /* \"#utility.yul\":1761:1878   */\n  iszero\n  tag_70\n  jumpi\n    /* \"#utility.yul\":1797:1876   */\n  tag_71\n  tag_72\n  jump\t// in\ntag_71:\n    /* \"#utility.yul\":1761:1878   */\ntag_70:\n    /* \"#utility.yul\":1902:1976   */\n  tag_73\n    /* \"#utility.yul\":1968:1975   */\n  dup6\n    /* \"#utility.yul\":1959:1965   */\n  dup3\n    /* \"#utility.yul\":1948:1957   */\n  dup7\n    /* \"#utility.yul\":1944:1966   */\n  add\n    /* \"#utility.yul\":1902:1976   */\n  tag_56\n  jump\t// in\ntag_73:\n    /* \"#utility.yul\":1892:1976   */\n  swap3\n  pop\n    /* \"#utility.yul\":1695:1986   */\n  pop\n    /* \"#utility.yul\":2025:2027   */\n  0x20\n    /* \"#utility.yul\":2051:2115   */\n  tag_74\n    /* \"#utility.yul\":2107:2114   */\n  dup6\n    /* \"#utility.yul\":2098:2104   */\n  dup3\n    /* \"#utility.yul\":2087:2096   */\n  dup7\n    /* \"#utility.yul\":2083:2105   */\n  add\n    /* \"#utility.yul\":2051:2115   */\n  tag_48\n  jump\t// in\ntag_74:\n    /* \"#utility.yul\":2041:2115   */\n  swap2\n  pop\n    /* \"#utility.yul\":1996:2125   */\n  pop\n    /* \"#utility.yul\":1452:2132   */\n  swap3\n  pop\n  swap3\n  swap1\n  pop\n  jump\t// out\n    /* \"#utility.yul\":2138:2256   */\ntag_75:\n    /* \"#utility.yul\":2225:2249   */\n  tag_77\n    /* \"#utility.yul\":2243:2248   */\n  dup2\n    /* \"#utility.yul\":2225:2249   */\n  tag_78\n  jump\t// in\ntag_77:\n    /* \"#utility.yul\":2220:2223   */\n  dup3\n    /* \"#utility.yul\":2213:2250   */\n  mstore\n    /* \"#utility.yul\":2138:2256   */\n  pop\n  pop\n  jump\t// out\n    /* \"#utility.yul\":2262:2626   */\ntag_79:\n    /* \"#utility.yul\":2350:2353   */\n  0x00\n    /* \"#utility.yul\":2378:2417   */\n  tag_81\n    /* \"#utility.yul\":2411:2416   */\n  dup3\n    /* \"#utility.yul\":2378:2417   */\n  tag_82\n  jump\t// in\ntag_81:\n    /* \"#utility.yul\":2433:2504   */\n  tag_83\n    /* \"#utility.yul\":2497:2503   */\n  dup2\n    /* \"#utility.yul\":2492:2495   */\n  dup6\n    /* \"#utility.yul\":2433:2504   */\n  tag_84\n  jump\t// in\ntag_83:\n    /* \"#utility.yul\":2426:2504   */\n  swap4\n  pop\n    /* \"#utility.yul\":2513:2565   */\n  tag_85\n    /* \"#utility.yul\":2558:2564   */\n  dup2\n    /* \"#utility.yul\":2553:2556   */\n  dup6\n    /* \"#utility.yul\":2546:2550   */\n  0x20\n    /* \"#utility.yul\":2539:2544   */\n  dup7\n    /* \"#utility.yul\":2535:2551   */\n  add\n    /* \"#utility.yul\":2513:2565   */\n  tag_47\n  jump\t// in\ntag_85:\n    /* \"#utility.yul\":2590:2619   */\n  tag_86\n    /* \"#utility.yul\":2612:2618   */\n  dup2\n    /* \"#utility.yul\":2590:2619   */\n  tag_87\n  jump\t// in\ntag_86:\n    /* \"#utility.yul\":2585:2588   */\n  dup5\n    /* \"#utility.yul\":2581:2620   */\n  add\n    /* \"#utility.yul\":2574:2620   */\n  swap2\n  pop\n    /* \"#utility.yul\":2354:2626   */\n  pop\n    /* \"#utility.yul\":2262:2626   */\n  swap3\n  swap2\n  pop\n  pop\n  jump\t// out\n    /* \"#utility.yul\":2632:2998   */\ntag_88:\n    /* \"#utility.yul\":2774:2777   */\n  0x00\n    /* \"#utility.yul\":2795:2862   */\n  tag_90\n    /* \"#utility.yul\":2859:2861   */\n  0x14\n    /* \"#utility.yul\":2854:2857   */\n  dup4\n    /* \"#utility.yul\":2795:2862   */\n  tag_84\n  jump\t// in\ntag_90:\n    /* \"#utility.yul\":2788:2862   */\n  swap2\n  pop\n    /* \"#utility.yul\":2871:2964   */\n  tag_91\n    /* \"#utility.yul\":2960:2963   */\n  dup3\n    /* \"#utility.yul\":2871:2964   */\n  tag_92\n  jump\t// in\ntag_91:\n    /* \"#utility.yul\":2989:2991   */\n  0x20\n    /* \"#utility.yul\":2984:2987   */\n  dup3\n    /* \"#utility.yul\":2980:2992   */\n  add\n    /* \"#utility.yul\":2973:2992   */\n  swap1\n  pop\n    /* \"#utility.yul\":2632:2998   */\n  swap2\n  swap1\n  pop\n  jump\t// out\n    /* \"#utility.yul\":3004:3226   */\ntag_19:\n    /* \"#utility.yul\":3097:3101   */\n  0x00\n    /* \"#utility.yul\":3135:3137   */\n  0x20\n    /* \"#utility.yul\":3124:3133   */\n  dup3\n    /* \"#utility.yul\":3120:3138   */\n  add\n    /* \"#utility.yul\":3112:3138   */\n  swap1\n  pop\n    /* \"#utility.yul\":3148:3219   */\n  tag_94\n    /* \"#utility.yul\":3216:3217   */\n  0x00\n    /* \"#utility.yul\":3205:3214   */\n  dup4\n    /* \"#utility.yul\":3201:3218   */\n  add\n    /* \"#utility.yul\":3192:3198   */\n  dup5\n    /* \"#utility.yul\":3148:3219   */\n  tag_75\n  jump\t// in\ntag_94:\n    /* \"#utility.yul\":3004:3226   */\n  swap3\n  swap2\n  pop\n  pop\n  jump\t// out\n    /* \"#utility.yul\":3232:3655   */\ntag_15:\n    /* \"#utility.yul\":3373:3377   */\n  0x00\n    /* \"#utility.yul\":3411:3413   */\n  0x40\n    /* \"#utility.yul\":3400:3409   */\n  dup3\n    /* \"#utility.yul\":3396:3414   */\n  add\n    /* \"#utility.yul\":3388:3414   */\n  swap1\n  pop\n    /* \"#utility.yul\":3460:3469   */\n  dup2\n    /* \"#utility.yul\":3454:3458   */\n  dup2\n    /* \"#utility.yul\":3450:3470   */\n  sub\n    /* \"#utility.yul\":3446:3447   */\n  0x00\n    /* \"#utility.yul\":3435:3444   */\n  dup4\n    /* \"#utility.yul\":3431:3448   */\n  add\n    /* \"#utility.yul\":3424:3471   */\n  mstore\n    /* \"#utility.yul\":3488:3566   */\n  tag_96\n    /* \"#utility.yul\":3561:3565   */\n  dup2\n    /* \"#utility.yul\":3552:3558   */\n  dup6\n    /* \"#utility.yul\":3488:3566   */\n  tag_79\n  jump\t// in\ntag_96:\n    /* \"#utility.yul\":3480:3566   */\n  swap1\n  pop\n    /* \"#utility.yul\":3576:3648   */\n  tag_97\n    /* \"#utility.yul\":3644:3646   */\n  0x20\n    /* \"#utility.yul\":3633:3642   */\n  dup4\n    /* \"#utility.yul\":3629:3647   */\n  add\n    /* \"#utility.yul\":3620:3626   */\n  dup5\n    /* \"#utility.yul\":3576:3648   */\n  tag_75\n  jump\t// in\ntag_97:\n    /* \"#utility.yul\":3232:3655   */\n  swap4\n  swap3\n  pop\n  pop\n  pop\n  jump\t// out\n    /* \"#utility.yul\":3661:4080   */\ntag_10:\n    /* \"#utility.yul\":3827:3831   */\n  0x00\n    /* \"#utility.yul\":3865:3867   */\n  0x20\n    /* \"#utility.yul\":3854:3863   */\n  dup3\n    /* \"#utility.yul\":3850:3868   */\n  add\n    /* \"#utility.yul\":3842:3868   */\n  swap1\n  pop\n    /* \"#utility.yul\":3914:3923   */\n  dup2\n    /* \"#utility.yul\":3908:3912   */\n  dup2\n    /* \"#utility.yul\":3904:3924   */\n  sub\n    /* \"#utility.yul\":3900:3901   */\n  0x00\n    /* \"#utility.yul\":3889:3898   */\n  dup4\n    /* \"#utility.yul\":3885:3902   */\n  add\n    /* \"#utility.yul\":3878:3925   */\n  mstore\n    /* \"#utility.yul\":3942:4073   */\n  tag_99\n    /* \"#utility.yul\":4068:4072   */\n  dup2\n    /* \"#utility.yul\":3942:4073   */\n  tag_88\n  jump\t// in\ntag_99:\n    /* \"#utility.yul\":3934:4073   */\n  swap1\n  pop\n    /* \"#utility.yul\":3661:4080   */\n  swap2\n  swap1\n  pop\n  jump\t// out\n    /* \"#utility.yul\":4086:4215   */\ntag_42:\n    /* \"#utility.yul\":4120:4126   */\n  0x00\n    /* \"#utility.yul\":4147:4167   */\n  tag_101\n  tag_102\n  jump\t// in\ntag_101:\n    /* \"#utility.yul\":4137:4167   */\n  swap1\n  pop\n    /* \"#utility.yul\":4176:4209   */\n  tag_103\n    /* \"#utility.yul\":4204:4208   */\n  dup3\n    /* \"#utility.yul\":4196:4202   */\n  dup3\n    /* \"#utility.yul\":4176:4209   */\n  tag_104\n  jump\t// in\ntag_103:\n    /* \"#utility.yul\":4086:4215   */\n  swap2\n  swap1\n  pop\n  jump\t// out\n    /* \"#utility.yul\":4221:4296   */\ntag_102:\n    /* \"#utility.yul\":4254:4260   */\n  0x00\n    /* \"#utility.yul\":4287:4289   */\n  0x40\n    /* \"#utility.yul\":4281:4290   */\n  mload\n    /* \"#utility.yul\":4271:4290   */\n  swap1\n  pop\n    /* \"#utility.yul\":4221:4296   */\n  swap1\n  jump\t// out\n    /* \"#utility.yul\":4302:4610   */\ntag_41:\n    /* \"#utility.yul\":4364:4368   */\n  0x00\n    /* \"#utility.yul\":4454:4472   */\n  0xffffffffffffffff\n    /* \"#utility.yul\":4446:4452   */\n  dup3\n    /* \"#utility.yul\":4443:4473   */\n  gt\n    /* \"#utility.yul\":4440:4496   */\n  iszero\n  tag_107\n  jumpi\n    /* \"#utility.yul\":4476:4494   */\n  tag_108\n  tag_109\n  jump\t// in\ntag_108:\n    /* \"#utility.yul\":4440:4496   */\ntag_107:\n    /* \"#utility.yul\":4514:4543   */\n  tag_110\n    /* \"#utility.yul\":4536:4542   */\n  dup3\n    /* \"#utility.yul\":4514:4543   */\n  tag_87\n  jump\t// in\ntag_110:\n    /* \"#utility.yul\":4506:4543   */\n  swap1\n  pop\n    /* \"#utility.yul\":4598:4602   */\n  0x20\n    /* \"#utility.yul\":4592:4596   */\n  dup2\n    /* \"#utility.yul\":4588:4603   */\n  add\n    /* \"#utility.yul\":4580:4603   */\n  swap1\n  pop\n    /* \"#utility.yul\":4302:4610   */\n  swap2\n  swap1\n  pop\n  jump\t// out\n    /* \"#utility.yul\":4616:4715   */\ntag_82:\n    /* \"#utility.yul\":4668:4674   */\n  0x00\n    /* \"#utility.yul\":4702:4707   */\n  dup2\n    /* \"#utility.yul\":4696:4708   */\n  mload\n    /* \"#utility.yul\":4686:4708   */\n  swap1\n  pop\n    /* \"#utility.yul\":4616:4715   */\n  swap2\n  swap1\n  pop\n  jump\t// out\n    /* \"#utility.yul\":4721:4890   */\ntag_84:\n    /* \"#utility.yul\":4805:4816   */\n  0x00\n    /* \"#utility.yul\":4839:4845   */\n  dup3\n    /* \"#utility.yul\":4834:4837   */\n  dup3\n    /* \"#utility.yul\":4827:4846   */\n  mstore\n    /* \"#utility.yul\":4879:4883   */\n  0x20\n    /* \"#utility.yul\":4874:4877   */\n  dup3\n    /* \"#utility.yul\":4870:4884   */\n  add\n    /* \"#utility.yul\":4855:4884   */\n  swap1\n  pop\n    /* \"#utility.yul\":4721:4890   */\n  swap3\n  swap2\n  pop\n  pop\n  jump\t// out\n    /* \"#utility.yul\":4896:4992   */\ntag_78:\n    /* \"#utility.yul\":4933:4940   */\n  0x00\n    /* \"#utility.yul\":4962:4986   */\n  tag_114\n    /* \"#utility.yul\":4980:4985   */\n  dup3\n    /* \"#utility.yul\":4962:4986   */\n  tag_115\n  jump\t// in\ntag_114:\n    /* \"#utility.yul\":4951:4986   */\n  swap1\n  pop\n    /* \"#utility.yul\":4896:4992   */\n  swap2\n  swap1\n  pop\n  jump\t// out\n    /* \"#utility.yul\":4998:5088   */\ntag_116:\n    /* \"#utility.yul\":5032:5039   */\n  0x00\n    /* \"#utility.yul\":5075:5080   */\n  dup2\n    /* \"#utility.yul\":5068:5081   */\n  iszero\n    /* \"#utility.yul\":5061:5082   */\n  iszero\n    /* \"#utility.yul\":5050:5082   */\n  swap1\n  pop\n    /* \"#utility.yul\":4998:5088   */\n  swap2\n  swap1\n  pop\n  jump\t// out\n    /* \"#utility.yul\":5094:5220   */\ntag_115:\n    /* \"#utility.yul\":5131:5138   */\n  0x00\n    /* \"#utility.yul\":5171:5213   */\n  0xffffffffffffffffffffffffffffffffffffffff\n    /* \"#utility.yul\":5164:5169   */\n  dup3\n    /* \"#utility.yul\":5160:5214   */\n  and\n    /* \"#utility.yul\":5149:5214   */\n  swap1\n  pop\n    /* \"#utility.yul\":5094:5220   */\n  swap2\n  swap1\n  pop\n  jump\t// out\n    /* \"#utility.yul\":5226:5533   */\ntag_47:\n    /* \"#utility.yul\":5294:5295   */\n  0x00\n    /* \"#utility.yul\":5304:5417   */\ntag_120:\n    /* \"#utility.yul\":5318:5324   */\n  dup4\n    /* \"#utility.yul\":5315:5316   */\n  dup2\n    /* \"#utility.yul\":5312:5325   */\n  lt\n    /* \"#utility.yul\":5304:5417   */\n  iszero\n  tag_122\n  jumpi\n    /* \"#utility.yul\":5403:5404   */\n  dup1\n    /* \"#utility.yul\":5398:5401   */\n  dup3\n    /* \"#utility.yul\":5394:5405   */\n  add\n    /* \"#utility.yul\":5388:5406   */\n  mload\n    /* \"#utility.yul\":5384:5385   */\n  dup2\n    /* \"#utility.yul\":5379:5382   */\n  dup5\n    /* \"#utility.yul\":5375:5386   */\n  add\n    /* \"#utility.yul\":5368:5407   */\n  mstore\n    /* \"#utility.yul\":5340:5342   */\n  0x20\n    /* \"#utility.yul\":5337:5338   */\n  dup2\n    /* \"#utility.yul\":5333:5343   */\n  add\n    /* \"#utility.yul\":5328:5343   */\n  swap1\n  pop\n    /* \"#utility.yul\":5304:5417   */\n  jump(tag_120)\ntag_122:\n    /* \"#utility.yul\":5435:5441   */\n  dup4\n    /* \"#utility.yul\":5432:5433   */\n  dup2\n    /* \"#utility.yul\":5429:5442   */\n  gt\n    /* \"#utility.yul\":5426:5527   */\n  iszero\n  tag_123\n  jumpi\n    /* \"#utility.yul\":5515:5516   */\n  0x00\n    /* \"#utility.yul\":5506:5512   */\n  dup5\n    /* \"#utility.yul\":5501:5504   */\n  dup5\n    /* \"#utility.yul\":5497:5513   */\n  add\n    /* \"#utility.yul\":5490:5517   */\n  mstore\n    /* \"#utility.yul\":5426:5527   */\ntag_123:\n    /* \"#utility.yul\":5275:5533   */\n  pop\n    /* \"#utility.yul\":5226:5533   */\n  pop\n  pop\n  pop\n  jump\t// out\n    /* \"#utility.yul\":5539:5859   */\ntag_26:\n    /* \"#utility.yul\":5583:5589   */\n  0x00\n    /* \"#utility.yul\":5620:5621   */\n  0x02\n    /* \"#utility.yul\":5614:5618   */\n  dup3\n    /* \"#utility.yul\":5610:5622   */\n  div\n    /* \"#utility.yul\":5600:5622   */\n  swap1\n  pop\n    /* \"#utility.yul\":5667:5668   */\n  0x01\n    /* \"#utility.yul\":5661:5665   */\n  dup3\n    /* \"#utility.yul\":5657:5669   */\n  and\n    /* \"#utility.yul\":5688:5706   */\n  dup1\n    /* \"#utility.yul\":5678:5759   */\n  tag_125\n  jumpi\n    /* \"#utility.yul\":5744:5748   */\n  0x7f\n    /* \"#utility.yul\":5736:5742   */\n  dup3\n    /* \"#utility.yul\":5732:5749   */\n  and\n    /* \"#utility.yul\":5722:5749   */\n  swap2\n  pop\n    /* \"#utility.yul\":5678:5759   */\ntag_125:\n    /* \"#utility.yul\":5806:5808   */\n  0x20\n    /* \"#utility.yul\":5798:5804   */\n  dup3\n    /* \"#utility.yul\":5795:5809   */\n  lt\n    /* \"#utility.yul\":5775:5793   */\n  dup2\n    /* \"#utility.yul\":5772:5810   */\n  eq\n    /* \"#utility.yul\":5769:5853   */\n  iszero\n  tag_126\n  jumpi\n    /* \"#utility.yul\":5825:5843   */\n  tag_127\n  tag_128\n  jump\t// in\ntag_127:\n    /* \"#utility.yul\":5769:5853   */\ntag_126:\n    /* \"#utility.yul\":5590:5859   */\n  pop\n    /* \"#utility.yul\":5539:5859   */\n  swap2\n  swap1\n  pop\n  jump\t// out\n    /* \"#utility.yul\":5865:6146   */\ntag_104:\n    /* \"#utility.yul\":5948:5975   */\n  tag_130\n    /* \"#utility.yul\":5970:5974   */\n  dup3\n    /* \"#utility.yul\":5948:5975   */\n  tag_87\n  jump\t// in\ntag_130:\n    /* \"#utility.yul\":5940:5946   */\n  dup2\n    /* \"#utility.yul\":5936:5976   */\n  add\n    /* \"#utility.yul\":6078:6084   */\n  dup2\n    /* \"#utility.yul\":6066:6076   */\n  dup2\n    /* \"#utility.yul\":6063:6085   */\n  lt\n    /* \"#utility.yul\":6042:6060   */\n  0xffffffffffffffff\n    /* \"#utility.yul\":6030:6040   */\n  dup3\n    /* \"#utility.yul\":6027:6061   */\n  gt\n    /* \"#utility.yul\":6024:6086   */\n  or\n    /* \"#utility.yul\":6021:6109   */\n  iszero\n  tag_131\n  jumpi\n    /* \"#utility.yul\":6089:6107   */\n  tag_132\n  tag_109\n  jump\t// in\ntag_132:\n    /* \"#utility.yul\":6021:6109   */\ntag_131:\n    /* \"#utility.yul\":6129:6139   */\n  dup1\n    /* \"#utility.yul\":6125:6127   */\n  0x40\n    /* \"#utility.yul\":6118:6140   */\n  mstore\n    /* \"#utility.yul\":5908:6146   */\n  pop\n    /* \"#utility.yul\":5865:6146   */\n  pop\n  pop\n  jump\t// out\n    /* \"#utility.yul\":6152:6332   */\ntag_128:\n    /* \"#utility.yul\":6200:6277   */\n  0x4e487b7100000000000000000000000000000000000000000000000000000000\n    /* \"#utility.yul\":6197:6198   */\n  0x00\n    /* \"#utility.yul\":6190:6278   */\n  mstore\n    /* \"#utility.yul\":6297:6301   */\n  0x22\n    /* \"#utility.yul\":6294:6295   */\n  0x04\n    /* \"#utility.yul\":6287:6302   */\n  mstore\n    /* \"#utility.yul\":6321:6325   */\n  0x24\n    /* \"#utility.yul\":6318:6319   */\n  0x00\n    /* \"#utility.yul\":6311:6326   */\n  revert\n    /* \"#utility.yul\":6338:6518   */\ntag_109:\n    /* \"#utility.yul\":6386:6463   */\n  0x4e487b7100000000000000000000000000000000000000000000000000000000\n    /* \"#utility.yul\":6383:6384   */\n  0x00\n    /* \"#utility.yul\":6376:6464   */\n  mstore\n    /* \"#utility.yul\":6483:6487   */\n  0x41\n    /* \"#utility.yul\":6480:6481   */\n  0x04\n    /* \"#utility.yul\":6473:6488   */\n  mstore\n    /* \"#utility.yul\":6507:6511   */\n  0x24\n    /* \"#utility.yul\":6504:6505   */\n  0x00\n    /* \"#utility.yul\":6497:6512   */\n  revert\n    /* \"#utility.yul\":6524:6641   */\ntag_60:\n    /* \"#utility.yul\":6633:6634   */\n  0x00\n    /* \"#utility.yul\":6630:6631   */\n  dup1\n    /* \"#utility.yul\":6623:6635   */\n  revert\n    /* \"#utility.yul\":6647:6764   */\ntag_45:\n    /* \"#utility.yul\":6756:6757   */\n  0x00\n    /* \"#utility.yul\":6753:6754   */\n  dup1\n    /* \"#utility.yul\":6746:6758   */\n  revert\n    /* \"#utility.yul\":6770:6887   */\ntag_72:\n    /* \"#utility.yul\":6879:6880   */\n  0x00\n    /* \"#utility.yul\":6876:6877   */\n  dup1\n    /* \"#utility.yul\":6869:6881   */\n  revert\n    /* \"#utility.yul\":6893:7010   */\ntag_65:\n    /* \"#utility.yul\":7002:7003   */\n  0x00\n    /* \"#utility.yul\":6999:7000   */\n  dup1\n    /* \"#utility.yul\":6992:7004   */\n  revert\n    /* \"#utility.yul\":7016:7118   */\ntag_87:\n    /* \"#utility.yul\":7057:7063   */\n  0x00\n    /* \"#utility.yul\":7108:7110   */\n  0x1f\n    /* \"#utility.yul\":7104:7111   */\n  not\n    /* \"#utility.yul\":7099:7101   */\n  0x1f\n    /* \"#utility.yul\":7092:7097   */\n  dup4\n    /* \"#utility.yul\":7088:7102   */\n  add\n    /* \"#utility.yul\":7084:7112   */\n  and\n    /* \"#utility.yul\":7074:7112   */\n  swap1\n  pop\n    /* \"#utility.yul\":7016:7118   */\n  swap2\n  swap1\n  pop\n  jump\t// out\n    /* \"#utility.yul\":7124:7294   */\ntag_92:\n    /* \"#utility.yul\":7264:7286   */\n  0x5f7369676e6572206973206e6f742076616c6964000000000000000000000000\n    /* \"#utility.yul\":7260:7261   */\n  0x00\n    /* \"#utility.yul\":7252:7258   */\n  dup3\n    /* \"#utility.yul\":7248:7262   */\n  add\n    /* \"#utility.yul\":7241:7287   */\n  mstore\n    /* \"#utility.yul\":7124:7294   */\n  pop\n  jump\t// out\n    /* \"#utility.yul\":7300:7422   */\ntag_51:\n    /* \"#utility.yul\":7373:7397   */\n  tag_142\n    /* \"#utility.yul\":7391:7396   */\n  dup2\n    /* \"#utility.yul\":7373:7397   */\n  tag_78\n  jump\t// in\ntag_142:\n    /* \"#utility.yul\":7366:7371   */\n  dup2\n    /* \"#utility.yul\":7363:7398   */\n  eq\n    /* \"#utility.yul\":7353:7416   */\n  tag_143\n  jumpi\n    /* \"#utility.yul\":7412:7413   */\n  0x00\n    /* \"#utility.yul\":7409:7410   */\n  dup1\n    /* \"#utility.yul\":7402:7414   */\n  revert\n    /* \"#utility.yul\":7353:7416   */\ntag_143:\n    /* \"#utility.yul\":7300:7422   */\n  pop\n  jump\t// out\n    /* \"#utility.yul\":7428:7544   */\ntag_55:\n    /* \"#utility.yul\":7498:7519   */\n  tag_145\n    /* \"#utility.yul\":7513:7518   */\n  dup2\n    /* \"#utility.yul\":7498:7519   */\n  tag_116\n  jump\t// in\ntag_145:\n    /* \"#utility.yul\":7491:7496   */\n  dup2\n    /* \"#utility.yul\":7488:7520   */\n  eq\n    /* \"#utility.yul\":7478:7538   */\n  tag_146\n  jumpi\n    /* \"#utility.yul\":7534:7535   */\n  0x00\n    /* \"#utility.yul\":7531:7532   */\n  dup1\n    /* \"#utility.yul\":7524:7536   */\n  revert\n    /* \"#utility.yul\":7478:7538   */\ntag_146:\n    /* \"#utility.yul\":7428:7544   */\n  pop\n  jump\t// out\n    /* \"evidence/evidence.sol\":279:1771  contract Evidence {\r... */\ntag_16:\n  dataSize(sub_0)\n  dup1\n  dataOffset(sub_0)\n  0x00\n  codecopy\n  0x00\n  return\nstop\n\nsub_0: assembly {\n        /* \"evidence/evidence.sol\":279:1771  contract Evidence {\r... */\n      mstore(0x40, 0x80)\n      callvalue\n      dup1\n      iszero\n      tag_1\n      jumpi\n      0x00\n      dup1\n      revert\n    tag_1:\n      pop\n      jumpi(tag_2, lt(calldatasize, 0x04))\n      shr(0xe0, calldataload(0x00))\n      dup1\n      0x2ca15122\n      eq\n      tag_3\n      jumpi\n      dup1\n      0x50ca0928\n      eq\n      tag_4\n      jumpi\n      dup1\n      0x596f21f8\n      eq\n      tag_5\n      jumpi\n      dup1\n      0x963671be\n      eq\n      tag_6\n      jumpi\n    tag_2:\n      0x00\n      dup1\n      revert\n        /* \"evidence/evidence.sol\":1374:1492  function sign() public returns(bool){\r... */\n    tag_3:\n      tag_7\n      tag_8\n      jump\t// in\n    tag_7:\n      mload(0x40)\n      tag_9\n      swap2\n      swap1\n      tag_10\n      jump\t// in\n    tag_9:\n      mload(0x40)\n      dup1\n      swap2\n      sub\n      swap1\n      return\n        /* \"evidence/evidence.sol\":530:655  function callVerify(address _signer) public view returns(bool){\r... */\n    tag_4:\n      tag_11\n      0x04\n      dup1\n      calldatasize\n      sub\n      dup2\n      add\n      swap1\n      tag_12\n      swap2\n      swap1\n      tag_13\n      jump\t// in\n    tag_12:\n      tag_14\n      jump\t// in\n    tag_11:\n      mload(0x40)\n      tag_15\n      swap2\n      swap1\n      tag_10\n      jump\t// in\n    tag_15:\n      mload(0x40)\n      dup1\n      swap2\n      sub\n      swap1\n      return\n        /* \"evidence/evidence.sol\":969:1356  function getEvidence() public view returns(string memory,address[] memory,address[] memory){\r... */\n    tag_5:\n      tag_16\n      tag_17\n      jump\t// in\n    tag_16:\n      mload(0x40)\n      tag_18\n      swap4\n      swap3\n      swap2\n      swap1\n      tag_19\n      jump\t// in\n    tag_18:\n      mload(0x40)\n      dup1\n      swap2\n      sub\n      swap1\n      return\n        /* \"evidence/evidence.sol\":390:416  address public factoryAddr */\n    tag_6:\n      tag_20\n      tag_21\n      jump\t// in\n    tag_20:\n      mload(0x40)\n      tag_22\n      swap2\n      swap1\n      tag_23\n      jump\t// in\n    tag_22:\n      mload(0x40)\n      dup1\n      swap2\n      sub\n      swap1\n      return\n        /* \"evidence/evidence.sol\":1374:1492  function sign() public returns(bool){\r... */\n    tag_8:\n        /* \"evidence/evidence.sol\":1405:1409  bool */\n      0x00\n        /* \"evidence/evidence.sol\":1429:1450  callVerify(tx.origin) */\n      tag_25\n        /* \"evidence/evidence.sol\":1440:1449  tx.origin */\n      origin\n        /* \"evidence/evidence.sol\":1429:1439  callVerify */\n      tag_14\n        /* \"evidence/evidence.sol\":1429:1450  callVerify(tx.origin) */\n      jump\t// in\n    tag_25:\n        /* \"evidence/evidence.sol\":1421:1474  require(callVerify(tx.origin),\"_signer is not valid\") */\n      tag_26\n      jumpi\n      mload(0x40)\n      0x08c379a000000000000000000000000000000000000000000000000000000000\n      dup2\n      mstore\n      0x04\n      add\n      tag_27\n      swap1\n      tag_28\n      jump\t// in\n    tag_27:\n      mload(0x40)\n      dup1\n      swap2\n      sub\n      swap1\n      revert\n    tag_26:\n        /* \"evidence/evidence.sol\":1374:1492  function sign() public returns(bool){\r... */\n      swap1\n      jump\t// out\n        /* \"evidence/evidence.sol\":530:655  function callVerify(address _signer) public view returns(bool){\r... */\n    tag_14:\n        /* \"evidence/evidence.sol\":587:591  bool */\n      0x00\n        /* \"evidence/evidence.sol\":619:630  factoryAddr */\n      0x02\n      0x00\n      swap1\n      sload\n      swap1\n      0x0100\n      exp\n      swap1\n      div\n      0xffffffffffffffffffffffffffffffffffffffff\n      and\n        /* \"evidence/evidence.sol\":610:638  IEvdence(factoryAddr).verify */\n      0xffffffffffffffffffffffffffffffffffffffff\n      and\n      0x63a9c3d7\n        /* \"evidence/evidence.sol\":639:646  _signer */\n      dup4\n        /* \"evidence/evidence.sol\":610:647  IEvdence(factoryAddr).verify(_signer) */\n      mload(0x40)\n      dup3\n      0xffffffff\n      and\n      0xe0\n      shl\n      dup2\n      mstore\n      0x04\n      add\n      tag_30\n      swap2\n      swap1\n      tag_23\n      jump\t// in\n    tag_30:\n      0x20\n      mload(0x40)\n      dup1\n      dup4\n      sub\n      dup2\n      dup7\n      dup1\n      extcodesize\n      iszero\n      dup1\n      iszero\n      tag_31\n      jumpi\n      0x00\n      dup1\n      revert\n    tag_31:\n      pop\n      gas\n      staticcall\n      iszero\n      dup1\n      iszero\n      tag_33\n      jumpi\n      returndatasize\n      0x00\n      dup1\n      returndatacopy\n      revert(0x00, returndatasize)\n    tag_33:\n      pop\n      pop\n      pop\n      pop\n      mload(0x40)\n      returndatasize\n      not(0x1f)\n      0x1f\n      dup3\n      add\n      and\n      dup3\n      add\n      dup1\n      0x40\n      mstore\n      pop\n      dup2\n      add\n      swap1\n      tag_34\n      swap2\n      swap1\n      tag_35\n      jump\t// in\n    tag_34:\n        /* \"evidence/evidence.sol\":603:647  return IEvdence(factoryAddr).verify(_signer) */\n      swap1\n      pop\n        /* \"evidence/evidence.sol\":530:655  function callVerify(address _signer) public view returns(bool){\r... */\n      swap2\n      swap1\n      pop\n      jump\t// out\n        /* \"evidence/evidence.sol\":969:1356  function getEvidence() public view returns(string memory,address[] memory,address[] memory){\r... */\n    tag_17:\n        /* \"evidence/evidence.sol\":1012:1025  string memory */\n      0x60\n        /* \"evidence/evidence.sol\":1026:1042  address[] memory */\n      dup1\n        /* \"evidence/evidence.sol\":1043:1059  address[] memory */\n      0x60\n        /* \"evidence/evidence.sol\":1071:1084  uint256 iSize */\n      0x00\n        /* \"evidence/evidence.sol\":1096:1107  factoryAddr */\n      0x02\n      0x00\n      swap1\n      sload\n      swap1\n      0x0100\n      exp\n      swap1\n      div\n      0xffffffffffffffffffffffffffffffffffffffff\n      and\n        /* \"evidence/evidence.sol\":1087:1123  IEvdence(factoryAddr).getSignersSize */\n      0xffffffffffffffffffffffffffffffffffffffff\n      and\n      0xfa69efbd\n        /* \"evidence/evidence.sol\":1087:1125  IEvdence(factoryAddr).getSignersSize() */\n      mload(0x40)\n      dup2\n      0xffffffff\n      and\n      0xe0\n      shl\n      dup2\n      mstore\n      0x04\n      add\n      0x20\n      mload(0x40)\n      dup1\n      dup4\n      sub\n      dup2\n      dup7\n      dup1\n      extcodesize\n      iszero\n      dup1\n      iszero\n      tag_37\n      jumpi\n      0x00\n      dup1\n      revert\n    tag_37:\n      pop\n      gas\n      staticcall\n      iszero\n      dup1\n      iszero\n      tag_39\n      jumpi\n      returndatasize\n      0x00\n      dup1\n      returndatacopy\n      revert(0x00, returndatasize)\n    tag_39:\n      pop\n      pop\n      pop\n      pop\n      mload(0x40)\n      returndatasize\n      not(0x1f)\n      0x1f\n      dup3\n      add\n      and\n      dup3\n      add\n      dup1\n      0x40\n      mstore\n      pop\n      dup2\n      add\n      swap1\n      tag_40\n      swap2\n      swap1\n      tag_41\n      jump\t// in\n    tag_40:\n        /* \"evidence/evidence.sol\":1071:1125  uint256 iSize = IEvdence(factoryAddr).getSignersSize() */\n      swap1\n      pop\n        /* \"evidence/evidence.sol\":1136:1163  address[] memory signerList */\n      0x00\n        /* \"evidence/evidence.sol\":1180:1185  iSize */\n      dup2\n        /* \"evidence/evidence.sol\":1166:1186  new address[](iSize) */\n      0xffffffffffffffff\n      dup2\n      gt\n      iszero\n      tag_42\n      jumpi\n      tag_43\n      tag_44\n      jump\t// in\n    tag_43:\n    tag_42:\n      mload(0x40)\n      swap1\n      dup1\n      dup3\n      mstore\n      dup1\n      0x20\n      mul\n      0x20\n      add\n      dup3\n      add\n      0x40\n      mstore\n      dup1\n      iszero\n      tag_45\n      jumpi\n      dup2\n      0x20\n      add\n      0x20\n      dup3\n      mul\n      dup1\n      calldatasize\n      dup4\n      calldatacopy\n      dup1\n      dup3\n      add\n      swap2\n      pop\n      pop\n      swap1\n      pop\n    tag_45:\n      pop\n        /* \"evidence/evidence.sol\":1136:1186  address[] memory signerList = new address[](iSize) */\n      swap1\n      pop\n        /* \"evidence/evidence.sol\":1201:1208  uint8 i */\n      0x00\n        /* \"evidence/evidence.sol\":1197:1301  for(uint8 i =0;i<iSize;i++){\r... */\n    tag_46:\n        /* \"evidence/evidence.sol\":1214:1219  iSize */\n      dup3\n        /* \"evidence/evidence.sol\":1212:1213  i */\n      dup2\n        /* \"evidence/evidence.sol\":1212:1219  i<iSize */\n      0xff\n      and\n      lt\n        /* \"evidence/evidence.sol\":1197:1301  for(uint8 i =0;i<iSize;i++){\r... */\n      iszero\n      tag_47\n      jumpi\n        /* \"evidence/evidence.sol\":1264:1275  factoryAddr */\n      0x02\n      0x00\n      swap1\n      sload\n      swap1\n      0x0100\n      exp\n      swap1\n      div\n      0xffffffffffffffffffffffffffffffffffffffff\n      and\n        /* \"evidence/evidence.sol\":1255:1286  IEvdence(factoryAddr).getSigner */\n      0xffffffffffffffffffffffffffffffffffffffff\n      and\n      0x3ffefe4e\n        /* \"evidence/evidence.sol\":1287:1288  i */\n      dup3\n        /* \"evidence/evidence.sol\":1255:1289  IEvdence(factoryAddr).getSigner(i) */\n      mload(0x40)\n      dup3\n      0xffffffff\n      and\n      0xe0\n      shl\n      dup2\n      mstore\n      0x04\n      add\n      tag_49\n      swap2\n      swap1\n      tag_50\n      jump\t// in\n    tag_49:\n      0x20\n      mload(0x40)\n      dup1\n      dup4\n      sub\n      dup2\n      dup7\n      dup1\n      extcodesize\n      iszero\n      dup1\n      iszero\n      tag_51\n      jumpi\n      0x00\n      dup1\n      revert\n    tag_51:\n      pop\n      gas\n      staticcall\n      iszero\n      dup1\n      iszero\n      tag_53\n      jumpi\n      returndatasize\n      0x00\n      dup1\n      returndatacopy\n      revert(0x00, returndatasize)\n    tag_53:\n      pop\n      pop\n      pop\n      pop\n      mload(0x40)\n      returndatasize\n      not(0x1f)\n      0x1f\n      dup3\n      add\n      and\n      dup3\n      add\n      dup1\n      0x40\n      mstore\n      pop\n      dup2\n      add\n      swap1\n      tag_54\n      swap2\n      swap1\n      tag_55\n      jump\t// in\n    tag_54:\n        /* \"evidence/evidence.sol\":1239:1249  signerList */\n      dup3\n        /* \"evidence/evidence.sol\":1250:1251  i */\n      dup3\n        /* \"evidence/evidence.sol\":1239:1252  signerList[i] */\n      0xff\n      and\n      dup2\n      mload\n      dup2\n      lt\n      tag_56\n      jumpi\n      tag_57\n      tag_58\n      jump\t// in\n    tag_57:\n    tag_56:\n      0x20\n      mul\n      0x20\n      add\n      add\n        /* \"evidence/evidence.sol\":1239:1289  signerList[i] = IEvdence(factoryAddr).getSigner(i) */\n      swap1\n      0xffffffffffffffffffffffffffffffffffffffff\n      and\n      swap1\n      dup2\n      0xffffffffffffffffffffffffffffffffffffffff\n      and\n      dup2\n      mstore\n      pop\n      pop\n        /* \"evidence/evidence.sol\":1220:1223  i++ */\n      dup1\n      dup1\n      tag_59\n      swap1\n      tag_60\n      jump\t// in\n    tag_59:\n      swap2\n      pop\n      pop\n        /* \"evidence/evidence.sol\":1197:1301  for(uint8 i =0;i<iSize;i++){\r... */\n      jump(tag_46)\n    tag_47:\n      pop\n        /* \"evidence/evidence.sol\":1318:1326  evidence */\n      0x00\n        /* \"evidence/evidence.sol\":1327:1337  signerList */\n      dup2\n        /* \"evidence/evidence.sol\":1338:1345  signers */\n      0x01\n        /* \"evidence/evidence.sol\":1311:1346  return(evidence,signerList,signers) */\n      dup3\n      dup1\n      sload\n      tag_61\n      swap1\n      tag_62\n      jump\t// in\n    tag_61:\n      dup1\n      0x1f\n      add\n      0x20\n      dup1\n      swap2\n      div\n      mul\n      0x20\n      add\n      mload(0x40)\n      swap1\n      dup2\n      add\n      0x40\n      mstore\n      dup1\n      swap3\n      swap2\n      swap1\n      dup2\n      dup2\n      mstore\n      0x20\n      add\n      dup3\n      dup1\n      sload\n      tag_63\n      swap1\n      tag_62\n      jump\t// in\n    tag_63:\n      dup1\n      iszero\n      tag_64\n      jumpi\n      dup1\n      0x1f\n      lt\n      tag_65\n      jumpi\n      0x0100\n      dup1\n      dup4\n      sload\n      div\n      mul\n      dup4\n      mstore\n      swap2\n      0x20\n      add\n      swap2\n      jump(tag_64)\n    tag_65:\n      dup3\n      add\n      swap2\n      swap1\n      0x00\n      mstore\n      keccak256(0x00, 0x20)\n      swap1\n    tag_66:\n      dup2\n      sload\n      dup2\n      mstore\n      swap1\n      0x01\n      add\n      swap1\n      0x20\n      add\n      dup1\n      dup4\n      gt\n      tag_66\n      jumpi\n      dup3\n      swap1\n      sub\n      0x1f\n      and\n      dup3\n      add\n      swap2\n    tag_64:\n      pop\n      pop\n      pop\n      pop\n      pop\n      swap3\n      pop\n      dup1\n      dup1\n      sload\n      dup1\n      0x20\n      mul\n      0x20\n      add\n      mload(0x40)\n      swap1\n      dup2\n      add\n      0x40\n      mstore\n      dup1\n      swap3\n      swap2\n      swap1\n      dup2\n      dup2\n      mstore\n      0x20\n      add\n      dup3\n      dup1\n      sload\n      dup1\n      iszero\n      tag_67\n      jumpi\n      0x20\n      mul\n      dup3\n      add\n      swap2\n      swap1\n      0x00\n      mstore\n      keccak256(0x00, 0x20)\n      swap1\n    tag_68:\n      dup2\n      0x00\n      swap1\n      sload\n      swap1\n      0x0100\n      exp\n      swap1\n      div\n      0xffffffffffffffffffffffffffffffffffffffff\n      and\n      0xffffffffffffffffffffffffffffffffffffffff\n      and\n      dup2\n      mstore\n      0x20\n      add\n      swap1\n      0x01\n      add\n      swap1\n      dup1\n      dup4\n      gt\n      tag_68\n      jumpi\n    tag_67:\n      pop\n      pop\n      pop\n      pop\n      pop\n      swap1\n      pop\n      swap5\n      pop\n      swap5\n      pop\n      swap5\n      pop\n      pop\n      pop\n        /* \"evidence/evidence.sol\":969:1356  function getEvidence() public view returns(string memory,address[] memory,address[] memory){\r... */\n      swap1\n      swap2\n      swap3\n      jump\t// out\n        /* \"evidence/evidence.sol\":390:416  address public factoryAddr */\n    tag_21:\n      0x02\n      0x00\n      swap1\n      sload\n      swap1\n      0x0100\n      exp\n      swap1\n      div\n      0xffffffffffffffffffffffffffffffffffffffff\n      and\n      dup2\n      jump\t// out\n        /* \"#utility.yul\":7:146   */\n    tag_70:\n        /* \"#utility.yul\":53:58   */\n      0x00\n        /* \"#utility.yul\":91:97   */\n      dup2\n        /* \"#utility.yul\":78:98   */\n      calldataload\n        /* \"#utility.yul\":69:98   */\n      swap1\n      pop\n        /* \"#utility.yul\":107:140   */\n      tag_72\n        /* \"#utility.yul\":134:139   */\n      dup2\n        /* \"#utility.yul\":107:140   */\n      tag_73\n      jump\t// in\n    tag_72:\n        /* \"#utility.yul\":7:146   */\n      swap3\n      swap2\n      pop\n      pop\n      jump\t// out\n        /* \"#utility.yul\":152:295   */\n    tag_74:\n        /* \"#utility.yul\":209:214   */\n      0x00\n        /* \"#utility.yul\":240:246   */\n      dup2\n        /* \"#utility.yul\":234:247   */\n      mload\n        /* \"#utility.yul\":225:247   */\n      swap1\n      pop\n        /* \"#utility.yul\":256:289   */\n      tag_76\n        /* \"#utility.yul\":283:288   */\n      dup2\n        /* \"#utility.yul\":256:289   */\n      tag_73\n      jump\t// in\n    tag_76:\n        /* \"#utility.yul\":152:295   */\n      swap3\n      swap2\n      pop\n      pop\n      jump\t// out\n        /* \"#utility.yul\":301:438   */\n    tag_77:\n        /* \"#utility.yul\":355:360   */\n      0x00\n        /* \"#utility.yul\":386:392   */\n      dup2\n        /* \"#utility.yul\":380:393   */\n      mload\n        /* \"#utility.yul\":371:393   */\n      swap1\n      pop\n        /* \"#utility.yul\":402:432   */\n      tag_79\n        /* \"#utility.yul\":426:431   */\n      dup2\n        /* \"#utility.yul\":402:432   */\n      tag_80\n      jump\t// in\n    tag_79:\n        /* \"#utility.yul\":301:438   */\n      swap3\n      swap2\n      pop\n      pop\n      jump\t// out\n        /* \"#utility.yul\":444:587   */\n    tag_81:\n        /* \"#utility.yul\":501:506   */\n      0x00\n        /* \"#utility.yul\":532:538   */\n      dup2\n        /* \"#utility.yul\":526:539   */\n      mload\n        /* \"#utility.yul\":517:539   */\n      swap1\n      pop\n        /* \"#utility.yul\":548:581   */\n      tag_83\n        /* \"#utility.yul\":575:580   */\n      dup2\n        /* \"#utility.yul\":548:581   */\n      tag_84\n      jump\t// in\n    tag_83:\n        /* \"#utility.yul\":444:587   */\n      swap3\n      swap2\n      pop\n      pop\n      jump\t// out\n        /* \"#utility.yul\":593:922   */\n    tag_13:\n        /* \"#utility.yul\":652:658   */\n      0x00\n        /* \"#utility.yul\":701:703   */\n      0x20\n        /* \"#utility.yul\":689:698   */\n      dup3\n        /* \"#utility.yul\":680:687   */\n      dup5\n        /* \"#utility.yul\":676:699   */\n      sub\n        /* \"#utility.yul\":672:704   */\n      slt\n        /* \"#utility.yul\":669:788   */\n      iszero\n      tag_86\n      jumpi\n        /* \"#utility.yul\":707:786   */\n      tag_87\n      tag_88\n      jump\t// in\n    tag_87:\n        /* \"#utility.yul\":669:788   */\n    tag_86:\n        /* \"#utility.yul\":827:828   */\n      0x00\n        /* \"#utility.yul\":852:905   */\n      tag_89\n        /* \"#utility.yul\":897:904   */\n      dup5\n        /* \"#utility.yul\":888:894   */\n      dup3\n        /* \"#utility.yul\":877:886   */\n      dup6\n        /* \"#utility.yul\":873:895   */\n      add\n        /* \"#utility.yul\":852:905   */\n      tag_70\n      jump\t// in\n    tag_89:\n        /* \"#utility.yul\":842:905   */\n      swap2\n      pop\n        /* \"#utility.yul\":798:915   */\n      pop\n        /* \"#utility.yul\":593:922   */\n      swap3\n      swap2\n      pop\n      pop\n      jump\t// out\n        /* \"#utility.yul\":928:1279   */\n    tag_55:\n        /* \"#utility.yul\":998:1004   */\n      0x00\n        /* \"#utility.yul\":1047:1049   */\n      0x20\n        /* \"#utility.yul\":1035:1044   */\n      dup3\n        /* \"#utility.yul\":1026:1033   */\n      dup5\n        /* \"#utility.yul\":1022:1045   */\n      sub\n        /* \"#utility.yul\":1018:1050   */\n      slt\n        /* \"#utility.yul\":1015:1134   */\n      iszero\n      tag_91\n      jumpi\n        /* \"#utility.yul\":1053:1132   */\n      tag_92\n      tag_88\n      jump\t// in\n    tag_92:\n        /* \"#utility.yul\":1015:1134   */\n    tag_91:\n        /* \"#utility.yul\":1173:1174   */\n      0x00\n        /* \"#utility.yul\":1198:1262   */\n      tag_93\n        /* \"#utility.yul\":1254:1261   */\n      dup5\n        /* \"#utility.yul\":1245:1251   */\n      dup3\n        /* \"#utility.yul\":1234:1243   */\n      dup6\n        /* \"#utility.yul\":1230:1252   */\n      add\n        /* \"#utility.yul\":1198:1262   */\n      tag_74\n      jump\t// in\n    tag_93:\n        /* \"#utility.yul\":1188:1262   */\n      swap2\n      pop\n        /* \"#utility.yul\":1144:1272   */\n      pop\n        /* \"#utility.yul\":928:1279   */\n      swap3\n      swap2\n      pop\n      pop\n      jump\t// out\n        /* \"#utility.yul\":1285:1630   */\n    tag_35:\n        /* \"#utility.yul\":1352:1358   */\n      0x00\n        /* \"#utility.yul\":1401:1403   */\n      0x20\n        /* \"#utility.yul\":1389:1398   */\n      dup3\n        /* \"#utility.yul\":1380:1387   */\n      dup5\n        /* \"#utility.yul\":1376:1399   */\n      sub\n        /* \"#utility.yul\":1372:1404   */\n      slt\n        /* \"#utility.yul\":1369:1488   */\n      iszero\n      tag_95\n      jumpi\n        /* \"#utility.yul\":1407:1486   */\n      tag_96\n      tag_88\n      jump\t// in\n    tag_96:\n        /* \"#utility.yul\":1369:1488   */\n    tag_95:\n        /* \"#utility.yul\":1527:1528   */\n      0x00\n        /* \"#utility.yul\":1552:1613   */\n      tag_97\n        /* \"#utility.yul\":1605:1612   */\n      dup5\n        /* \"#utility.yul\":1596:1602   */\n      dup3\n        /* \"#utility.yul\":1585:1594   */\n      dup6\n        /* \"#utility.yul\":1581:1603   */\n      add\n        /* \"#utility.yul\":1552:1613   */\n      tag_77\n      jump\t// in\n    tag_97:\n        /* \"#utility.yul\":1542:1613   */\n      swap2\n      pop\n        /* \"#utility.yul\":1498:1623   */\n      pop\n        /* \"#utility.yul\":1285:1630   */\n      swap3\n      swap2\n      pop\n      pop\n      jump\t// out\n        /* \"#utility.yul\":1636:1987   */\n    tag_41:\n        /* \"#utility.yul\":1706:1712   */\n      0x00\n        /* \"#utility.yul\":1755:1757   */\n      0x20\n        /* \"#utility.yul\":1743:1752   */\n      dup3\n        /* \"#utility.yul\":1734:1741   */\n      dup5\n        /* \"#utility.yul\":1730:1753   */\n      sub\n        /* \"#utility.yul\":1726:1758   */\n      slt\n        /* \"#utility.yul\":1723:1842   */\n      iszero\n      tag_99\n      jumpi\n        /* \"#utility.yul\":1761:1840   */\n      tag_100\n      tag_88\n      jump\t// in\n    tag_100:\n        /* \"#utility.yul\":1723:1842   */\n    tag_99:\n        /* \"#utility.yul\":1881:1882   */\n      0x00\n        /* \"#utility.yul\":1906:1970   */\n      tag_101\n        /* \"#utility.yul\":1962:1969   */\n      dup5\n        /* \"#utility.yul\":1953:1959   */\n      dup3\n        /* \"#utility.yul\":1942:1951   */\n      dup6\n        /* \"#utility.yul\":1938:1960   */\n      add\n        /* \"#utility.yul\":1906:1970   */\n      tag_81\n      jump\t// in\n    tag_101:\n        /* \"#utility.yul\":1896:1970   */\n      swap2\n      pop\n        /* \"#utility.yul\":1852:1980   */\n      pop\n        /* \"#utility.yul\":1636:1987   */\n      swap3\n      swap2\n      pop\n      pop\n      jump\t// out\n        /* \"#utility.yul\":1993:2172   */\n    tag_102:\n        /* \"#utility.yul\":2062:2072   */\n      0x00\n        /* \"#utility.yul\":2083:2129   */\n      tag_104\n        /* \"#utility.yul\":2125:2128   */\n      dup4\n        /* \"#utility.yul\":2117:2123   */\n      dup4\n        /* \"#utility.yul\":2083:2129   */\n      tag_105\n      jump\t// in\n    tag_104:\n        /* \"#utility.yul\":2161:2165   */\n      0x20\n        /* \"#utility.yul\":2156:2159   */\n      dup4\n        /* \"#utility.yul\":2152:2166   */\n      add\n        /* \"#utility.yul\":2138:2166   */\n      swap1\n      pop\n        /* \"#utility.yul\":1993:2172   */\n      swap3\n      swap2\n      pop\n      pop\n      jump\t// out\n        /* \"#utility.yul\":2178:2286   */\n    tag_105:\n        /* \"#utility.yul\":2255:2279   */\n      tag_107\n        /* \"#utility.yul\":2273:2278   */\n      dup2\n        /* \"#utility.yul\":2255:2279   */\n      tag_108\n      jump\t// in\n    tag_107:\n        /* \"#utility.yul\":2250:2253   */\n      dup3\n        /* \"#utility.yul\":2243:2280   */\n      mstore\n        /* \"#utility.yul\":2178:2286   */\n      pop\n      pop\n      jump\t// out\n        /* \"#utility.yul\":2292:2410   */\n    tag_109:\n        /* \"#utility.yul\":2379:2403   */\n      tag_111\n        /* \"#utility.yul\":2397:2402   */\n      dup2\n        /* \"#utility.yul\":2379:2403   */\n      tag_108\n      jump\t// in\n    tag_111:\n        /* \"#utility.yul\":2374:2377   */\n      dup3\n        /* \"#utility.yul\":2367:2404   */\n      mstore\n        /* \"#utility.yul\":2292:2410   */\n      pop\n      pop\n      jump\t// out\n        /* \"#utility.yul\":2446:3178   */\n    tag_112:\n        /* \"#utility.yul\":2565:2568   */\n      0x00\n        /* \"#utility.yul\":2594:2648   */\n      tag_114\n        /* \"#utility.yul\":2642:2647   */\n      dup3\n        /* \"#utility.yul\":2594:2648   */\n      tag_115\n      jump\t// in\n    tag_114:\n        /* \"#utility.yul\":2664:2750   */\n      tag_116\n        /* \"#utility.yul\":2743:2749   */\n      dup2\n        /* \"#utility.yul\":2738:2741   */\n      dup6\n        /* \"#utility.yul\":2664:2750   */\n      tag_117\n      jump\t// in\n    tag_116:\n        /* \"#utility.yul\":2657:2750   */\n      swap4\n      pop\n        /* \"#utility.yul\":2774:2830   */\n      tag_118\n        /* \"#utility.yul\":2824:2829   */\n      dup4\n        /* \"#utility.yul\":2774:2830   */\n      tag_119\n      jump\t// in\n    tag_118:\n        /* \"#utility.yul\":2853:2860   */\n      dup1\n        /* \"#utility.yul\":2884:2885   */\n      0x00\n        /* \"#utility.yul\":2869:3153   */\n    tag_120:\n        /* \"#utility.yul\":2894:2900   */\n      dup4\n        /* \"#utility.yul\":2891:2892   */\n      dup2\n        /* \"#utility.yul\":2888:2901   */\n      lt\n        /* \"#utility.yul\":2869:3153   */\n      iszero\n      tag_122\n      jumpi\n        /* \"#utility.yul\":2970:2976   */\n      dup2\n        /* \"#utility.yul\":2964:2977   */\n      mload\n        /* \"#utility.yul\":2997:3060   */\n      tag_123\n        /* \"#utility.yul\":3056:3059   */\n      dup9\n        /* \"#utility.yul\":3041:3054   */\n      dup3\n        /* \"#utility.yul\":2997:3060   */\n      tag_102\n      jump\t// in\n    tag_123:\n        /* \"#utility.yul\":2990:3060   */\n      swap8\n      pop\n        /* \"#utility.yul\":3083:3143   */\n      tag_124\n        /* \"#utility.yul\":3136:3142   */\n      dup4\n        /* \"#utility.yul\":3083:3143   */\n      tag_125\n      jump\t// in\n    tag_124:\n        /* \"#utility.yul\":3073:3143   */\n      swap3\n      pop\n        /* \"#utility.yul\":2929:3153   */\n      pop\n        /* \"#utility.yul\":2916:2917   */\n      0x01\n        /* \"#utility.yul\":2913:2914   */\n      dup2\n        /* \"#utility.yul\":2909:2918   */\n      add\n        /* \"#utility.yul\":2904:2918   */\n      swap1\n      pop\n        /* \"#utility.yul\":2869:3153   */\n      jump(tag_120)\n    tag_122:\n        /* \"#utility.yul\":2873:2887   */\n      pop\n        /* \"#utility.yul\":3169:3172   */\n      dup6\n        /* \"#utility.yul\":3162:3172   */\n      swap4\n      pop\n        /* \"#utility.yul\":2570:3178   */\n      pop\n      pop\n      pop\n        /* \"#utility.yul\":2446:3178   */\n      swap3\n      swap2\n      pop\n      pop\n      jump\t// out\n        /* \"#utility.yul\":3184:3293   */\n    tag_126:\n        /* \"#utility.yul\":3265:3286   */\n      tag_128\n        /* \"#utility.yul\":3280:3285   */\n      dup2\n        /* \"#utility.yul\":3265:3286   */\n      tag_129\n      jump\t// in\n    tag_128:\n        /* \"#utility.yul\":3260:3263   */\n      dup3\n        /* \"#utility.yul\":3253:3287   */\n      mstore\n        /* \"#utility.yul\":3184:3293   */\n      pop\n      pop\n      jump\t// out\n        /* \"#utility.yul\":3299:3663   */\n    tag_130:\n        /* \"#utility.yul\":3387:3390   */\n      0x00\n        /* \"#utility.yul\":3415:3454   */\n      tag_132\n        /* \"#utility.yul\":3448:3453   */\n      dup3\n        /* \"#utility.yul\":3415:3454   */\n      tag_133\n      jump\t// in\n    tag_132:\n        /* \"#utility.yul\":3470:3541   */\n      tag_134\n        /* \"#utility.yul\":3534:3540   */\n      dup2\n        /* \"#utility.yul\":3529:3532   */\n      dup6\n        /* \"#utility.yul\":3470:3541   */\n      tag_135\n      jump\t// in\n    tag_134:\n        /* \"#utility.yul\":3463:3541   */\n      swap4\n      pop\n        /* \"#utility.yul\":3550:3602   */\n      tag_136\n        /* \"#utility.yul\":3595:3601   */\n      dup2\n        /* \"#utility.yul\":3590:3593   */\n      dup6\n        /* \"#utility.yul\":3583:3587   */\n      0x20\n        /* \"#utility.yul\":3576:3581   */\n      dup7\n        /* \"#utility.yul\":3572:3588   */\n      add\n        /* \"#utility.yul\":3550:3602   */\n      tag_137\n      jump\t// in\n    tag_136:\n        /* \"#utility.yul\":3627:3656   */\n      tag_138\n        /* \"#utility.yul\":3649:3655   */\n      dup2\n        /* \"#utility.yul\":3627:3656   */\n      tag_139\n      jump\t// in\n    tag_138:\n        /* \"#utility.yul\":3622:3625   */\n      dup5\n        /* \"#utility.yul\":3618:3657   */\n      add\n        /* \"#utility.yul\":3611:3657   */\n      swap2\n      pop\n        /* \"#utility.yul\":3391:3663   */\n      pop\n        /* \"#utility.yul\":3299:3663   */\n      swap3\n      swap2\n      pop\n      pop\n      jump\t// out\n        /* \"#utility.yul\":3669:4035   */\n    tag_140:\n        /* \"#utility.yul\":3811:3814   */\n      0x00\n        /* \"#utility.yul\":3832:3899   */\n      tag_142\n        /* \"#utility.yul\":3896:3898   */\n      0x14\n        /* \"#utility.yul\":3891:3894   */\n      dup4\n        /* \"#utility.yul\":3832:3899   */\n      tag_135\n      jump\t// in\n    tag_142:\n        /* \"#utility.yul\":3825:3899   */\n      swap2\n      pop\n        /* \"#utility.yul\":3908:4001   */\n      tag_143\n        /* \"#utility.yul\":3997:4000   */\n      dup3\n        /* \"#utility.yul\":3908:4001   */\n      tag_144\n      jump\t// in\n    tag_143:\n        /* \"#utility.yul\":4026:4028   */\n      0x20\n        /* \"#utility.yul\":4021:4024   */\n      dup3\n        /* \"#utility.yul\":4017:4029   */\n      add\n        /* \"#utility.yul\":4010:4029   */\n      swap1\n      pop\n        /* \"#utility.yul\":3669:4035   */\n      swap2\n      swap1\n      pop\n      jump\t// out\n        /* \"#utility.yul\":4041:4168   */\n    tag_145:\n        /* \"#utility.yul\":4126:4161   */\n      tag_147\n        /* \"#utility.yul\":4155:4160   */\n      dup2\n        /* \"#utility.yul\":4126:4161   */\n      tag_148\n      jump\t// in\n    tag_147:\n        /* \"#utility.yul\":4121:4124   */\n      dup3\n        /* \"#utility.yul\":4114:4162   */\n      mstore\n        /* \"#utility.yul\":4041:4168   */\n      pop\n      pop\n      jump\t// out\n        /* \"#utility.yul\":4174:4396   */\n    tag_23:\n        /* \"#utility.yul\":4267:4271   */\n      0x00\n        /* \"#utility.yul\":4305:4307   */\n      0x20\n        /* \"#utility.yul\":4294:4303   */\n      dup3\n        /* \"#utility.yul\":4290:4308   */\n      add\n        /* \"#utility.yul\":4282:4308   */\n      swap1\n      pop\n        /* \"#utility.yul\":4318:4389   */\n      tag_150\n        /* \"#utility.yul\":4386:4387   */\n      0x00\n        /* \"#utility.yul\":4375:4384   */\n      dup4\n        /* \"#utility.yul\":4371:4388   */\n      add\n        /* \"#utility.yul\":4362:4368   */\n      dup5\n        /* \"#utility.yul\":4318:4389   */\n      tag_109\n      jump\t// in\n    tag_150:\n        /* \"#utility.yul\":4174:4396   */\n      swap3\n      swap2\n      pop\n      pop\n      jump\t// out\n        /* \"#utility.yul\":4402:4612   */\n    tag_10:\n        /* \"#utility.yul\":4489:4493   */\n      0x00\n        /* \"#utility.yul\":4527:4529   */\n      0x20\n        /* \"#utility.yul\":4516:4525   */\n      dup3\n        /* \"#utility.yul\":4512:4530   */\n      add\n        /* \"#utility.yul\":4504:4530   */\n      swap1\n      pop\n        /* \"#utility.yul\":4540:4605   */\n      tag_152\n        /* \"#utility.yul\":4602:4603   */\n      0x00\n        /* \"#utility.yul\":4591:4600   */\n      dup4\n        /* \"#utility.yul\":4587:4604   */\n      add\n        /* \"#utility.yul\":4578:4584   */\n      dup5\n        /* \"#utility.yul\":4540:4605   */\n      tag_126\n      jump\t// in\n    tag_152:\n        /* \"#utility.yul\":4402:4612   */\n      swap3\n      swap2\n      pop\n      pop\n      jump\t// out\n        /* \"#utility.yul\":4618:5453   */\n    tag_19:\n        /* \"#utility.yul\":4887:4891   */\n      0x00\n        /* \"#utility.yul\":4925:4927   */\n      0x60\n        /* \"#utility.yul\":4914:4923   */\n      dup3\n        /* \"#utility.yul\":4910:4928   */\n      add\n        /* \"#utility.yul\":4902:4928   */\n      swap1\n      pop\n        /* \"#utility.yul\":4974:4983   */\n      dup2\n        /* \"#utility.yul\":4968:4972   */\n      dup2\n        /* \"#utility.yul\":4964:4984   */\n      sub\n        /* \"#utility.yul\":4960:4961   */\n      0x00\n        /* \"#utility.yul\":4949:4958   */\n      dup4\n        /* \"#utility.yul\":4945:4962   */\n      add\n        /* \"#utility.yul\":4938:4985   */\n      mstore\n        /* \"#utility.yul\":5002:5080   */\n      tag_154\n        /* \"#utility.yul\":5075:5079   */\n      dup2\n        /* \"#utility.yul\":5066:5072   */\n      dup7\n        /* \"#utility.yul\":5002:5080   */\n      tag_130\n      jump\t// in\n    tag_154:\n        /* \"#utility.yul\":4994:5080   */\n      swap1\n      pop\n        /* \"#utility.yul\":5127:5136   */\n      dup2\n        /* \"#utility.yul\":5121:5125   */\n      dup2\n        /* \"#utility.yul\":5117:5137   */\n      sub\n        /* \"#utility.yul\":5112:5114   */\n      0x20\n        /* \"#utility.yul\":5101:5110   */\n      dup4\n        /* \"#utility.yul\":5097:5115   */\n      add\n        /* \"#utility.yul\":5090:5138   */\n      mstore\n        /* \"#utility.yul\":5155:5263   */\n      tag_155\n        /* \"#utility.yul\":5258:5262   */\n      dup2\n        /* \"#utility.yul\":5249:5255   */\n      dup6\n        /* \"#utility.yul\":5155:5263   */\n      tag_112\n      jump\t// in\n    tag_155:\n        /* \"#utility.yul\":5147:5263   */\n      swap1\n      pop\n        /* \"#utility.yul\":5310:5319   */\n      dup2\n        /* \"#utility.yul\":5304:5308   */\n      dup2\n        /* \"#utility.yul\":5300:5320   */\n      sub\n        /* \"#utility.yul\":5295:5297   */\n      0x40\n        /* \"#utility.yul\":5284:5293   */\n      dup4\n        /* \"#utility.yul\":5280:5298   */\n      add\n        /* \"#utility.yul\":5273:5321   */\n      mstore\n        /* \"#utility.yul\":5338:5446   */\n      tag_156\n        /* \"#utility.yul\":5441:5445   */\n      dup2\n        /* \"#utility.yul\":5432:5438   */\n      dup5\n        /* \"#utility.yul\":5338:5446   */\n      tag_112\n      jump\t// in\n    tag_156:\n        /* \"#utility.yul\":5330:5446   */\n      swap1\n      pop\n        /* \"#utility.yul\":4618:5453   */\n      swap5\n      swap4\n      pop\n      pop\n      pop\n      pop\n      jump\t// out\n        /* \"#utility.yul\":5459:5878   */\n    tag_28:\n        /* \"#utility.yul\":5625:5629   */\n      0x00\n        /* \"#utility.yul\":5663:5665   */\n      0x20\n        /* \"#utility.yul\":5652:5661   */\n      dup3\n        /* \"#utility.yul\":5648:5666   */\n      add\n        /* \"#utility.yul\":5640:5666   */\n      swap1\n      pop\n        /* \"#utility.yul\":5712:5721   */\n      dup2\n        /* \"#utility.yul\":5706:5710   */\n      dup2\n        /* \"#utility.yul\":5702:5722   */\n      sub\n        /* \"#utility.yul\":5698:5699   */\n      0x00\n        /* \"#utility.yul\":5687:5696   */\n      dup4\n        /* \"#utility.yul\":5683:5700   */\n      add\n        /* \"#utility.yul\":5676:5723   */\n      mstore\n        /* \"#utility.yul\":5740:5871   */\n      tag_158\n        /* \"#utility.yul\":5866:5870   */\n      dup2\n        /* \"#utility.yul\":5740:5871   */\n      tag_140\n      jump\t// in\n    tag_158:\n        /* \"#utility.yul\":5732:5871   */\n      swap1\n      pop\n        /* \"#utility.yul\":5459:5878   */\n      swap2\n      swap1\n      pop\n      jump\t// out\n        /* \"#utility.yul\":5884:6102   */\n    tag_50:\n        /* \"#utility.yul\":5975:5979   */\n      0x00\n        /* \"#utility.yul\":6013:6015   */\n      0x20\n        /* \"#utility.yul\":6002:6011   */\n      dup3\n        /* \"#utility.yul\":5998:6016   */\n      add\n        /* \"#utility.yul\":5990:6016   */\n      swap1\n      pop\n        /* \"#utility.yul\":6026:6095   */\n      tag_160\n        /* \"#utility.yul\":6092:6093   */\n      0x00\n        /* \"#utility.yul\":6081:6090   */\n      dup4\n        /* \"#utility.yul\":6077:6094   */\n      add\n        /* \"#utility.yul\":6068:6074   */\n      dup5\n        /* \"#utility.yul\":6026:6095   */\n      tag_145\n      jump\t// in\n    tag_160:\n        /* \"#utility.yul\":5884:6102   */\n      swap3\n      swap2\n      pop\n      pop\n      jump\t// out\n        /* \"#utility.yul\":6189:6321   */\n    tag_119:\n        /* \"#utility.yul\":6256:6260   */\n      0x00\n        /* \"#utility.yul\":6279:6282   */\n      dup2\n        /* \"#utility.yul\":6271:6282   */\n      swap1\n      pop\n        /* \"#utility.yul\":6309:6313   */\n      0x20\n        /* \"#utility.yul\":6304:6307   */\n      dup3\n        /* \"#utility.yul\":6300:6314   */\n      add\n        /* \"#utility.yul\":6292:6314   */\n      swap1\n      pop\n        /* \"#utility.yul\":6189:6321   */\n      swap2\n      swap1\n      pop\n      jump\t// out\n        /* \"#utility.yul\":6327:6441   */\n    tag_115:\n        /* \"#utility.yul\":6394:6400   */\n      0x00\n        /* \"#utility.yul\":6428:6433   */\n      dup2\n        /* \"#utility.yul\":6422:6434   */\n      mload\n        /* \"#utility.yul\":6412:6434   */\n      swap1\n      pop\n        /* \"#utility.yul\":6327:6441   */\n      swap2\n      swap1\n      pop\n      jump\t// out\n        /* \"#utility.yul\":6447:6546   */\n    tag_133:\n        /* \"#utility.yul\":6499:6505   */\n      0x00\n        /* \"#utility.yul\":6533:6538   */\n      dup2\n        /* \"#utility.yul\":6527:6539   */\n      mload\n        /* \"#utility.yul\":6517:6539   */\n      swap1\n      pop\n        /* \"#utility.yul\":6447:6546   */\n      swap2\n      swap1\n      pop\n      jump\t// out\n        /* \"#utility.yul\":6552:6665   */\n    tag_125:\n        /* \"#utility.yul\":6622:6626   */\n      0x00\n        /* \"#utility.yul\":6654:6658   */\n      0x20\n        /* \"#utility.yul\":6649:6652   */\n      dup3\n        /* \"#utility.yul\":6645:6659   */\n      add\n        /* \"#utility.yul\":6637:6659   */\n      swap1\n      pop\n        /* \"#utility.yul\":6552:6665   */\n      swap2\n      swap1\n      pop\n      jump\t// out\n        /* \"#utility.yul\":6671:6855   */\n    tag_117:\n        /* \"#utility.yul\":6770:6781   */\n      0x00\n        /* \"#utility.yul\":6804:6810   */\n      dup3\n        /* \"#utility.yul\":6799:6802   */\n      dup3\n        /* \"#utility.yul\":6792:6811   */\n      mstore\n        /* \"#utility.yul\":6844:6848   */\n      0x20\n        /* \"#utility.yul\":6839:6842   */\n      dup3\n        /* \"#utility.yul\":6835:6849   */\n      add\n        /* \"#utility.yul\":6820:6849   */\n      swap1\n      pop\n        /* \"#utility.yul\":6671:6855   */\n      swap3\n      swap2\n      pop\n      pop\n      jump\t// out\n        /* \"#utility.yul\":6861:7030   */\n    tag_135:\n        /* \"#utility.yul\":6945:6956   */\n      0x00\n        /* \"#utility.yul\":6979:6985   */\n      dup3\n        /* \"#utility.yul\":6974:6977   */\n      dup3\n        /* \"#utility.yul\":6967:6986   */\n      mstore\n        /* \"#utility.yul\":7019:7023   */\n      0x20\n        /* \"#utility.yul\":7014:7017   */\n      dup3\n        /* \"#utility.yul\":7010:7024   */\n      add\n        /* \"#utility.yul\":6995:7024   */\n      swap1\n      pop\n        /* \"#utility.yul\":6861:7030   */\n      swap3\n      swap2\n      pop\n      pop\n      jump\t// out\n        /* \"#utility.yul\":7036:7132   */\n    tag_108:\n        /* \"#utility.yul\":7073:7080   */\n      0x00\n        /* \"#utility.yul\":7102:7126   */\n      tag_170\n        /* \"#utility.yul\":7120:7125   */\n      dup3\n        /* \"#utility.yul\":7102:7126   */\n      tag_171\n      jump\t// in\n    tag_170:\n        /* \"#utility.yul\":7091:7126   */\n      swap1\n      pop\n        /* \"#utility.yul\":7036:7132   */\n      swap2\n      swap1\n      pop\n      jump\t// out\n        /* \"#utility.yul\":7138:7228   */\n    tag_129:\n        /* \"#utility.yul\":7172:7179   */\n      0x00\n        /* \"#utility.yul\":7215:7220   */\n      dup2\n        /* \"#utility.yul\":7208:7221   */\n      iszero\n        /* \"#utility.yul\":7201:7222   */\n      iszero\n        /* \"#utility.yul\":7190:7222   */\n      swap1\n      pop\n        /* \"#utility.yul\":7138:7228   */\n      swap2\n      swap1\n      pop\n      jump\t// out\n        /* \"#utility.yul\":7234:7360   */\n    tag_171:\n        /* \"#utility.yul\":7271:7278   */\n      0x00\n        /* \"#utility.yul\":7311:7353   */\n      0xffffffffffffffffffffffffffffffffffffffff\n        /* \"#utility.yul\":7304:7309   */\n      dup3\n        /* \"#utility.yul\":7300:7354   */\n      and\n        /* \"#utility.yul\":7289:7354   */\n      swap1\n      pop\n        /* \"#utility.yul\":7234:7360   */\n      swap2\n      swap1\n      pop\n      jump\t// out\n        /* \"#utility.yul\":7366:7443   */\n    tag_174:\n        /* \"#utility.yul\":7403:7410   */\n      0x00\n        /* \"#utility.yul\":7432:7437   */\n      dup2\n        /* \"#utility.yul\":7421:7437   */\n      swap1\n      pop\n        /* \"#utility.yul\":7366:7443   */\n      swap2\n      swap1\n      pop\n      jump\t// out\n        /* \"#utility.yul\":7449:7535   */\n    tag_176:\n        /* \"#utility.yul\":7484:7491   */\n      0x00\n        /* \"#utility.yul\":7524:7528   */\n      0xff\n        /* \"#utility.yul\":7517:7522   */\n      dup3\n        /* \"#utility.yul\":7513:7529   */\n      and\n        /* \"#utility.yul\":7502:7529   */\n      swap1\n      pop\n        /* \"#utility.yul\":7449:7535   */\n      swap2\n      swap1\n      pop\n      jump\t// out\n        /* \"#utility.yul\":7541:7650   */\n    tag_148:\n        /* \"#utility.yul\":7589:7598   */\n      0x00\n        /* \"#utility.yul\":7622:7644   */\n      tag_179\n        /* \"#utility.yul\":7638:7643   */\n      dup3\n        /* \"#utility.yul\":7622:7644   */\n      tag_176\n      jump\t// in\n    tag_179:\n        /* \"#utility.yul\":7609:7644   */\n      swap1\n      pop\n        /* \"#utility.yul\":7541:7650   */\n      swap2\n      swap1\n      pop\n      jump\t// out\n        /* \"#utility.yul\":7656:7963   */\n    tag_137:\n        /* \"#utility.yul\":7724:7725   */\n      0x00\n        /* \"#utility.yul\":7734:7847   */\n    tag_181:\n        /* \"#utility.yul\":7748:7754   */\n      dup4\n        /* \"#utility.yul\":7745:7746   */\n      dup2\n        /* \"#utility.yul\":7742:7755   */\n      lt\n        /* \"#utility.yul\":7734:7847   */\n      iszero\n      tag_183\n      jumpi\n        /* \"#utility.yul\":7833:7834   */\n      dup1\n        /* \"#utility.yul\":7828:7831   */\n      dup3\n        /* \"#utility.yul\":7824:7835   */\n      add\n        /* \"#utility.yul\":7818:7836   */\n      mload\n        /* \"#utility.yul\":7814:7815   */\n      dup2\n        /* \"#utility.yul\":7809:7812   */\n      dup5\n        /* \"#utility.yul\":7805:7816   */\n      add\n        /* \"#utility.yul\":7798:7837   */\n      mstore\n        /* \"#utility.yul\":7770:7772   */\n      0x20\n        /* \"#utility.yul\":7767:7768   */\n      dup2\n        /* \"#utility.yul\":7763:7773   */\n      add\n        /* \"#utility.yul\":7758:7773   */\n      swap1\n      pop\n        /* \"#utility.yul\":7734:7847   */\n      jump(tag_181)\n    tag_183:\n        /* \"#utility.yul\":7865:7871   */\n      dup4\n        /* \"#utility.yul\":7862:7863   */\n      dup2\n        /* \"#utility.yul\":7859:7872   */\n      gt\n        /* \"#utility.yul\":7856:7957   */\n      iszero\n      tag_184\n      jumpi\n        /* \"#utility.yul\":7945:7946   */\n      0x00\n        /* \"#utility.yul\":7936:7942   */\n      dup5\n        /* \"#utility.yul\":7931:7934   */\n      dup5\n        /* \"#utility.yul\":7927:7943   */\n      add\n        /* \"#utility.yul\":7920:7947   */\n      mstore\n        /* \"#utility.yul\":7856:7957   */\n    tag_184:\n        /* \"#utility.yul\":7705:7963   */\n      pop\n        /* \"#utility.yul\":7656:7963   */\n      pop\n      pop\n      pop\n      jump\t// out\n        /* \"#utility.yul\":7969:8289   */\n    tag_62:\n        /* \"#utility.yul\":8013:8019   */\n      0x00\n        /* \"#utility.yul\":8050:8051   */\n      0x02\n        /* \"#utility.yul\":8044:8048   */\n      dup3\n        /* \"#utility.yul\":8040:8052   */\n      div\n        /* \"#utility.yul\":8030:8052   */\n      swap1\n      pop\n        /* \"#utility.yul\":8097:8098   */\n      0x01\n        /* \"#utility.yul\":8091:8095   */\n      dup3\n        /* \"#utility.yul\":8087:8099   */\n      and\n        /* \"#utility.yul\":8118:8136   */\n      dup1\n        /* \"#utility.yul\":8108:8189   */\n      tag_186\n      jumpi\n        /* \"#utility.yul\":8174:8178   */\n      0x7f\n        /* \"#utility.yul\":8166:8172   */\n      dup3\n        /* \"#utility.yul\":8162:8179   */\n      and\n        /* \"#utility.yul\":8152:8179   */\n      swap2\n      pop\n        /* \"#utility.yul\":8108:8189   */\n    tag_186:\n        /* \"#utility.yul\":8236:8238   */\n      0x20\n        /* \"#utility.yul\":8228:8234   */\n      dup3\n        /* \"#utility.yul\":8225:8239   */\n      lt\n        /* \"#utility.yul\":8205:8223   */\n      dup2\n        /* \"#utility.yul\":8202:8240   */\n      eq\n        /* \"#utility.yul\":8199:8283   */\n      iszero\n      tag_187\n      jumpi\n        /* \"#utility.yul\":8255:8273   */\n      tag_188\n      tag_189\n      jump\t// in\n    tag_188:\n        /* \"#utility.yul\":8199:8283   */\n    tag_187:\n        /* \"#utility.yul\":8020:8289   */\n      pop\n        /* \"#utility.yul\":7969:8289   */\n      swap2\n      swap1\n      pop\n      jump\t// out\n        /* \"#utility.yul\":8295:8462   */\n    tag_60:\n        /* \"#utility.yul\":8332:8335   */\n      0x00\n        /* \"#utility.yul\":8355:8377   */\n      tag_191\n        /* \"#utility.yul\":8371:8376   */\n      dup3\n        /* \"#utility.yul\":8355:8377   */\n      tag_176\n      jump\t// in\n    tag_191:\n        /* \"#utility.yul\":8346:8377   */\n      swap2\n      pop\n        /* \"#utility.yul\":8399:8403   */\n      0xff\n        /* \"#utility.yul\":8392:8397   */\n      dup3\n        /* \"#utility.yul\":8389:8404   */\n      eq\n        /* \"#utility.yul\":8386:8427   */\n      iszero\n      tag_192\n      jumpi\n        /* \"#utility.yul\":8407:8425   */\n      tag_193\n      tag_194\n      jump\t// in\n    tag_193:\n        /* \"#utility.yul\":8386:8427   */\n    tag_192:\n        /* \"#utility.yul\":8454:8455   */\n      0x01\n        /* \"#utility.yul\":8447:8452   */\n      dup3\n        /* \"#utility.yul\":8443:8456   */\n      add\n        /* \"#utility.yul\":8436:8456   */\n      swap1\n      pop\n        /* \"#utility.yul\":8295:8462   */\n      swap2\n      swap1\n      pop\n      jump\t// out\n        /* \"#utility.yul\":8468:8648   */\n    tag_194:\n        /* \"#utility.yul\":8516:8593   */\n      0x4e487b7100000000000000000000000000000000000000000000000000000000\n        /* \"#utility.yul\":8513:8514   */\n      0x00\n        /* \"#utility.yul\":8506:8594   */\n      mstore\n        /* \"#utility.yul\":8613:8617   */\n      0x11\n        /* \"#utility.yul\":8610:8611   */\n      0x04\n        /* \"#utility.yul\":8603:8618   */\n      mstore\n        /* \"#utility.yul\":8637:8641   */\n      0x24\n        /* \"#utility.yul\":8634:8635   */\n      0x00\n        /* \"#utility.yul\":8627:8642   */\n      revert\n        /* \"#utility.yul\":8654:8834   */\n    tag_189:\n        /* \"#utility.yul\":8702:8779   */\n      0x4e487b7100000000000000000000000000000000000000000000000000000000\n        /* \"#utility.yul\":8699:8700   */\n      0x00\n        /* \"#utility.yul\":8692:8780   */\n      mstore\n        /* \"#utility.yul\":8799:8803   */\n      0x22\n        /* \"#utility.yul\":8796:8797   */\n      0x04\n        /* \"#utility.yul\":8789:8804   */\n      mstore\n        /* \"#utility.yul\":8823:8827   */\n      0x24\n        /* \"#utility.yul\":8820:8821   */\n      0x00\n        /* \"#utility.yul\":8813:8828   */\n      revert\n        /* \"#utility.yul\":8840:9020   */\n    tag_58:\n        /* \"#utility.yul\":8888:8965   */\n      0x4e487b7100000000000000000000000000000000000000000000000000000000\n        /* \"#utility.yul\":8885:8886   */\n      0x00\n        /* \"#utility.yul\":8878:8966   */\n      mstore\n        /* \"#utility.yul\":8985:8989   */\n      0x32\n        /* \"#utility.yul\":8982:8983   */\n      0x04\n        /* \"#utility.yul\":8975:8990   */\n      mstore\n        /* \"#utility.yul\":9009:9013   */\n      0x24\n        /* \"#utility.yul\":9006:9007   */\n      0x00\n        /* \"#utility.yul\":8999:9014   */\n      revert\n        /* \"#utility.yul\":9026:9206   */\n    tag_44:\n        /* \"#utility.yul\":9074:9151   */\n      0x4e487b7100000000000000000000000000000000000000000000000000000000\n        /* \"#utility.yul\":9071:9072   */\n      0x00\n        /* \"#utility.yul\":9064:9152   */\n      mstore\n        /* \"#utility.yul\":9171:9175   */\n      0x41\n        /* \"#utility.yul\":9168:9169   */\n      0x04\n        /* \"#utility.yul\":9161:9176   */\n      mstore\n        /* \"#utility.yul\":9195:9199   */\n      0x24\n        /* \"#utility.yul\":9192:9193   */\n      0x00\n        /* \"#utility.yul\":9185:9200   */\n      revert\n        /* \"#utility.yul\":9335:9452   */\n    tag_88:\n        /* \"#utility.yul\":9444:9445   */\n      0x00\n        /* \"#utility.yul\":9441:9442   */\n      dup1\n        /* \"#utility.yul\":9434:9446   */\n      revert\n        /* \"#utility.yul\":9458:9560   */\n    tag_139:\n        /* \"#utility.yul\":9499:9505   */\n      0x00\n        /* \"#utility.yul\":9550:9552   */\n      0x1f\n        /* \"#utility.yul\":9546:9553   */\n      not\n        /* \"#utility.yul\":9541:9543   */\n      0x1f\n        /* \"#utility.yul\":9534:9539   */\n      dup4\n        /* \"#utility.yul\":9530:9544   */\n      add\n        /* \"#utility.yul\":9526:9554   */\n      and\n        /* \"#utility.yul\":9516:9554   */\n      swap1\n      pop\n        /* \"#utility.yul\":9458:9560   */\n      swap2\n      swap1\n      pop\n      jump\t// out\n        /* \"#utility.yul\":9566:9736   */\n    tag_144:\n        /* \"#utility.yul\":9706:9728   */\n      0x5f7369676e6572206973206e6f742076616c6964000000000000000000000000\n        /* \"#utility.yul\":9702:9703   */\n      0x00\n        /* \"#utility.yul\":9694:9700   */\n      dup3\n        /* \"#utility.yul\":9690:9704   */\n      add\n        /* \"#utility.yul\":9683:9729   */\n      mstore\n        /* \"#utility.yul\":9566:9736   */\n      pop\n      jump\t// out\n        /* \"#utility.yul\":9742:9864   */\n    tag_73:\n        /* \"#utility.yul\":9815:9839   */\n      tag_205\n        /* \"#utility.yul\":9833:9838   */\n      dup2\n        /* \"#utility.yul\":9815:9839   */\n      tag_108\n      jump\t// in\n    tag_205:\n        /* \"#utility.yul\":9808:9813   */\n      dup2\n        /* \"#utility.yul\":9805:9840   */\n      eq\n        /* \"#utility.yul\":9795:9858   */\n      tag_206\n      jumpi\n        /* \"#utility.yul\":9854:9855   */\n      0x00\n        /* \"#utility.yul\":9851:9852   */\n      dup1\n        /* \"#utility.yul\":9844:9856   */\n      revert\n        /* \"#utility.yul\":9795:9858   */\n    tag_206:\n        /* \"#utility.yul\":9742:9864   */\n      pop\n      jump\t// out\n        /* \"#utility.yul\":9870:9986   */\n    tag_80:\n        /* \"#utility.yul\":9940:9961   */\n      tag_208\n        /* \"#utility.yul\":9955:9960   */\n      dup2\n        /* \"#utility.yul\":9940:9961   */\n      tag_129\n      jump\t// in\n    tag_208:\n        /* \"#utility.yul\":9933:9938   */\n      dup2\n        /* \"#utility.yul\":9930:9962   */\n      eq\n        /* \"#utility.yul\":9920:9980   */\n      tag_209\n      jumpi\n        /* \"#utility.yul\":9976:9977   */\n      0x00\n        /* \"#utility.yul\":9973:9974   */\n      dup1\n        /* \"#utility.yul\":9966:9978   */\n      revert\n        /* \"#utility.yul\":9920:9980   */\n    tag_209:\n        /* \"#utility.yul\":9870:9986   */\n      pop\n      jump\t// out\n        /* \"#utility.yul\":9992:10114   */\n    tag_84:\n        /* \"#utility.yul\":10065:10089   */\n      tag_211\n        /* \"#utility.yul\":10083:10088   */\n      dup2\n        /* \"#utility.yul\":10065:10089   */\n      tag_174\n      jump\t// in\n    tag_211:\n        /* \"#utility.yul\":10058:10063   */\n      dup2\n        /* \"#utility.yul\":10055:10090   */\n      eq\n        /* \"#utility.yul\":10045:10108   */\n      tag_212\n      jumpi\n        /* \"#utility.yul\":10104:10105   */\n      0x00\n        /* \"#utility.yul\":10101:10102   */\n      dup1\n        /* \"#utility.yul\":10094:10106   */\n      revert\n        /* \"#utility.yul\":10045:10108   */\n    tag_212:\n        /* \"#utility.yul\":9992:10114   */\n      pop\n      jump\t// out\n\n    auxdata: 0xa26469706673582212203308b87b0e651ac8d9459ae37a146cf14e366aa6cecad5a0d587481eaeaffedf64736f6c63430008070033\n}\n",
				"bytecode": {
					"linkReferences": {},
					"object": "60806040523480156200001157600080fd5b5060405162001242380380620012428339818101604052810190620000379190620003d2565b80600260006101000a81548173ffffffffffffffffffffffffffffffffffffffff021916908373ffffffffffffffffffffffffffffffffffffffff16021790555062000089326200018a60201b60201c565b620000cb576040517f08c379a0000000000000000000000000000000000000000000000000000000008152600401620000c29062000502565b60405180910390fd5b8160009080519060200190620000e392919062000244565b506001329080600181540180825580915050600190039060005260206000200160009091909190916101000a81548173ffffffffffffffffffffffffffffffffffffffff021916908373ffffffffffffffffffffffffffffffffffffffff1602179055507fa34d8f872132d193d2e62e18648026516cd6a9d599cb2f07eda0fd5ab16f162782326040516200017a929190620004ce565b60405180910390a1505062000761565b6000600260009054906101000a900473ffffffffffffffffffffffffffffffffffffffff1673ffffffffffffffffffffffffffffffffffffffff166363a9c3d7836040518263ffffffff1660e01b8152600401620001e99190620004b1565b60206040518083038186803b1580156200020257600080fd5b505afa15801562000217573d6000803e3d6000fd5b505050506040513d601f19601f820116820180604052508101906200023d9190620003a0565b9050919050565b828054620002529062000615565b90600052602060002090601f016020900481019282620002765760008555620002c2565b82601f106200029157805160ff1916838001178555620002c2565b82800160010185558215620002c2579182015b82811115620002c1578251825591602001919060010190620002a4565b5b509050620002d19190620002d5565b5090565b5b80821115620002f0576000816000905550600101620002d6565b5090565b60006200030b62000305846200054d565b62000524565b9050828152602081018484840111156200032a5762000329620006e4565b5b62000337848285620005df565b509392505050565b60008151905062000350816200072d565b92915050565b600081519050620003678162000747565b92915050565b600082601f830112620003855762000384620006df565b5b815162000397848260208601620002f4565b91505092915050565b600060208284031215620003b957620003b8620006ee565b5b6000620003c98482850162000356565b91505092915050565b60008060408385031215620003ec57620003eb620006ee565b5b600083015167ffffffffffffffff8111156200040d576200040c620006e9565b5b6200041b858286016200036d565b92505060206200042e858286016200033f565b9150509250929050565b62000443816200059f565b82525050565b6000620004568262000583565b6200046281856200058e565b935062000474818560208601620005df565b6200047f81620006f3565b840191505092915050565b6000620004996014836200058e565b9150620004a68262000704565b602082019050919050565b6000602082019050620004c8600083018462000438565b92915050565b60006040820190508181036000830152620004ea818562000449565b9050620004fb602083018462000438565b9392505050565b600060208201905081810360008301526200051d816200048a565b9050919050565b60006200053062000543565b90506200053e82826200064b565b919050565b6000604051905090565b600067ffffffffffffffff8211156200056b576200056a620006b0565b5b6200057682620006f3565b9050602081019050919050565b600081519050919050565b600082825260208201905092915050565b6000620005ac82620005bf565b9050919050565b60008115159050919050565b600073ffffffffffffffffffffffffffffffffffffffff82169050919050565b60005b83811015620005ff578082015181840152602081019050620005e2565b838111156200060f576000848401525b50505050565b600060028204905060018216806200062e57607f821691505b6020821081141562000645576200064462000681565b5b50919050565b6200065682620006f3565b810181811067ffffffffffffffff82111715620006785762000677620006b0565b5b80604052505050565b7f4e487b7100000000000000000000000000000000000000000000000000000000600052602260045260246000fd5b7f4e487b7100000000000000000000000000000000000000000000000000000000600052604160045260246000fd5b600080fd5b600080fd5b600080fd5b600080fd5b6000601f19601f8301169050919050565b7f5f7369676e6572206973206e6f742076616c6964000000000000000000000000600082015250565b62000738816200059f565b81146200074457600080fd5b50565b6200075281620005b3565b81146200075e57600080fd5b50565b610ad180620007716000396000f3fe608060405234801561001057600080fd5b506004361061004c5760003560e01c80632ca151221461005157806350ca09281461006f578063596f21f81461009f578063963671be146100bf575b600080fd5b6100596100dd565b604051610066919061076e565b60405180910390f35b61008960048036038101906100849190610591565b61012a565b604051610096919061076e565b60405180910390f35b6100a76101de565b6040516100b693929190610789565b60405180910390f35b6100c7610517565b6040516100d49190610753565b60405180910390f35b60006100e83261012a565b610127576040517f08c379a000000000000000000000000000000000000000000000000000000000815260040161011e906107d5565b60405180910390fd5b90565b6000600260009054906101000a900473ffffffffffffffffffffffffffffffffffffffff1673ffffffffffffffffffffffffffffffffffffffff166363a9c3d7836040518263ffffffff1660e01b81526004016101879190610753565b60206040518083038186803b15801561019f57600080fd5b505afa1580156101b3573d6000803e3d6000fd5b505050506040513d601f19601f820116820180604052508101906101d791906105eb565b9050919050565b60608060606000600260009054906101000a900473ffffffffffffffffffffffffffffffffffffffff1673ffffffffffffffffffffffffffffffffffffffff1663fa69efbd6040518163ffffffff1660e01b815260040160206040518083038186803b15801561024d57600080fd5b505afa158015610261573d6000803e3d6000fd5b505050506040513d601f19601f820116820180604052508101906102859190610618565b905060008167ffffffffffffffff8111156102a3576102a26109e8565b5b6040519080825280602002602001820160405280156102d15781602001602082028036833780820191505090505b50905060005b828160ff1610156103f057600260009054906101000a900473ffffffffffffffffffffffffffffffffffffffff1673ffffffffffffffffffffffffffffffffffffffff16633ffefe4e826040518263ffffffff1660e01b815260040161033d91906107f5565b60206040518083038186803b15801561035557600080fd5b505afa158015610369573d6000803e3d6000fd5b505050506040513d601f19601f8201168201806040525081019061038d91906105be565b828260ff16815181106103a3576103a26109b9565b5b602002602001019073ffffffffffffffffffffffffffffffffffffffff16908173ffffffffffffffffffffffffffffffffffffffff168152505080806103e890610931565b9150506102d7565b506000816001828054610402906108ff565b80601f016020809104026020016040519081016040528092919081815260200182805461042e906108ff565b801561047b5780601f106104505761010080835404028352916020019161047b565b820191906000526020600020905b81548152906001019060200180831161045e57829003601f168201915b505050505092508080548060200260200160405190810160405280929190818152602001828054801561050357602002820191906000526020600020905b8160009054906101000a900473ffffffffffffffffffffffffffffffffffffffff1673ffffffffffffffffffffffffffffffffffffffff16815260200190600101908083116104b9575b505050505090509450945094505050909192565b600260009054906101000a900473ffffffffffffffffffffffffffffffffffffffff1681565b60008135905061054c81610a56565b92915050565b60008151905061056181610a56565b92915050565b60008151905061057681610a6d565b92915050565b60008151905061058b81610a84565b92915050565b6000602082840312156105a7576105a6610a17565b5b60006105b58482850161053d565b91505092915050565b6000602082840312156105d4576105d3610a17565b5b60006105e284828501610552565b91505092915050565b60006020828403121561060157610600610a17565b5b600061060f84828501610567565b91505092915050565b60006020828403121561062e5761062d610a17565b5b600061063c8482850161057c565b91505092915050565b6000610651838361065d565b60208301905092915050565b61066681610865565b82525050565b61067581610865565b82525050565b600061068682610820565b6106908185610843565b935061069b83610810565b8060005b838110156106cc5781516106b38882610645565b97506106be83610836565b92505060018101905061069f565b5085935050505092915050565b6106e281610877565b82525050565b60006106f38261082b565b6106fd8185610854565b935061070d8185602086016108cc565b61071681610a1c565b840191505092915050565b600061072e601483610854565b915061073982610a2d565b602082019050919050565b61074d816108ba565b82525050565b6000602082019050610768600083018461066c565b92915050565b600060208201905061078360008301846106d9565b92915050565b600060608201905081810360008301526107a381866106e8565b905081810360208301526107b7818561067b565b905081810360408301526107cb818461067b565b9050949350505050565b600060208201905081810360008301526107ee81610721565b9050919050565b600060208201905061080a6000830184610744565b92915050565b6000819050602082019050919050565b600081519050919050565b600081519050919050565b6000602082019050919050565b600082825260208201905092915050565b600082825260208201905092915050565b600061087082610883565b9050919050565b60008115159050919050565b600073ffffffffffffffffffffffffffffffffffffffff82169050919050565b6000819050919050565b600060ff82169050919050565b60006108c5826108ad565b9050919050565b60005b838110156108ea5780820151818401526020810190506108cf565b838111156108f9576000848401525b50505050565b6000600282049050600182168061091757607f821691505b6020821081141561092b5761092a61098a565b5b50919050565b600061093c826108ad565b915060ff8214156109505761094f61095b565b5b600182019050919050565b7f4e487b7100000000000000000000000000000000000000000000000000000000600052601160045260246000fd5b7f4e487b7100000000000000000000000000000000000000000000000000000000600052602260045260246000fd5b7f4e487b7100000000000000000000000000000000000000000000000000000000600052603260045260246000fd5b7f4e487b7100000000000000000000000000000000000000000000000000000000600052604160045260246000fd5b600080fd5b6000601f19601f8301169050919050565b7f5f7369676e6572206973206e6f742076616c6964000000000000000000000000600082015250565b610a5f81610865565b8114610a6a57600080fd5b50565b610a7681610877565b8114610a8157600080fd5b50565b610a8d816108a3565b8114610a9857600080fd5b5056fea26469706673582212203308b87b0e651ac8d9459ae37a146cf14e366aa6cecad5a0d587481eaeaffedf64736f6c63430008070033",
					"opcodes": "PUSH1 0x80 PUSH1 0x40 MSTORE CALLVALUE DUP1 ISZERO PUSH3 0x11 JUMPI PUSH1 0x0 DUP1 REVERT JUMPDEST POP PUSH1 0x40 MLOAD PUSH3 0x1242 CODESIZE SUB DUP1 PUSH3 0x1242 DUP4 CODECOPY DUP2 DUP2 ADD PUSH1 0x40 MSTORE DUP2 ADD SWAP1 PUSH3 0x37 SWAP2 SWAP1 PUSH3 0x3D2 JUMP JUMPDEST DUP1 PUSH1 0x2 PUSH1 0x0 PUSH2 0x100 EXP DUP2 SLOAD DUP2 PUSH20 0xFFFFFFFFFFFFFFFFFFFFFFFFFFFFFFFFFFFFFFFF MUL NOT AND SWAP1 DUP4 PUSH20 0xFFFFFFFFFFFFFFFFFFFFFFFFFFFFFFFFFFFFFFFF AND MUL OR SWAP1 SSTORE POP PUSH3 0x89 ORIGIN PUSH3 0x18A PUSH1 0x20 SHL PUSH1 0x20 SHR JUMP JUMPDEST PUSH3 0xCB JUMPI PUSH1 0x40 MLOAD PUSH32 0x8C379A000000000000000000000000000000000000000000000000000000000 DUP2 MSTORE PUSH1 0x4 ADD PUSH3 0xC2 SWAP1 PUSH3 0x502 JUMP JUMPDEST PUSH1 0x40 MLOAD DUP1 SWAP2 SUB SWAP1 REVERT JUMPDEST DUP2 PUSH1 0x0 SWAP1 DUP1 MLOAD SWAP1 PUSH1 0x20 ADD SWAP1 PUSH3 0xE3 SWAP3 SWAP2 SWAP1 PUSH3 0x244 JUMP JUMPDEST POP PUSH1 0x1 ORIGIN SWAP1 DUP1 PUSH1 0x1 DUP2 SLOAD ADD DUP1 DUP3 SSTORE DUP1 SWAP2 POP POP PUSH1 0x1 SWAP1 SUB SWAP1 PUSH1 0x0 MSTORE PUSH1 0x20 PUSH1 0x0 KECCAK256 ADD PUSH1 0x0 SWAP1 SWAP2 SWAP1 SWAP2 SWAP1 SWAP2 PUSH2 0x100 EXP DUP2 SLOAD DUP2 PUSH20 0xFFFFFFFFFFFFFFFFFFFFFFFFFFFFFFFFFFFFFFFF MUL NOT AND SWAP1 DUP4 PUSH20 0xFFFFFFFFFFFFFFFFFFFFFFFFFFFFFFFFFFFFFFFF AND MUL OR SWAP1 SSTORE POP PUSH32 0xA34D8F872132D193D2E62E18648026516CD6A9D599CB2F07EDA0FD5AB16F1627 DUP3 ORIGIN PUSH1 0x40 MLOAD PUSH3 0x17A SWAP3 SWAP2 SWAP1 PUSH3 0x4CE JUMP JUMPDEST PUSH1 0x40 MLOAD DUP1 SWAP2 SUB SWAP1 LOG1 POP POP PUSH3 0x761 JUMP JUMPDEST PUSH1 0x0 PUSH1 0x2 PUSH1 0x0 SWAP1 SLOAD SWAP1 PUSH2 0x100 EXP SWAP1 DIV PUSH20 0xFFFFFFFFFFFFFFFFFFFFFFFFFFFFFFFFFFFFFFFF AND PUSH20 0xFFFFFFFFFFFFFFFFFFFFFFFFFFFFFFFFFFFFFFFF AND PUSH4 0x63A9C3D7 DUP4 PUSH1 0x40 MLOAD DUP3 PUSH4 0xFFFFFFFF AND PUSH1 0xE0 SHL DUP2 MSTORE PUSH1 0x4 ADD PUSH3 0x1E9 SWAP2 SWAP1 PUSH3 0x4B1 JUMP JUMPDEST PUSH1 0x20 PUSH1 0x40 MLOAD DUP1 DUP4 SUB DUP2 DUP7 DUP1 EXTCODESIZE ISZERO DUP1 ISZERO PUSH3 0x202 JUMPI PUSH1 0x0 DUP1 REVERT JUMPDEST POP GAS STATICCALL ISZERO DUP1 ISZERO PUSH3 0x217 JUMPI RETURNDATASIZE PUSH1 0x0 DUP1 RETURNDATACOPY RETURNDATASIZE PUSH1 0x0 REVERT JUMPDEST POP POP POP POP PUSH1 0x40 MLOAD RETURNDATASIZE PUSH1 0x1F NOT PUSH1 0x1F DUP3 ADD AND DUP3 ADD DUP1 PUSH1 0x40 MSTORE POP DUP2 ADD SWAP1 PUSH3 0x23D SWAP2 SWAP1 PUSH3 0x3A0 JUMP JUMPDEST SWAP1 POP SWAP2 SWAP1 POP JUMP JUMPDEST DUP3 DUP1 SLOAD PUSH3 0x252 SWAP1 PUSH3 0x615 JUMP JUMPDEST SWAP1 PUSH1 0x0 MSTORE PUSH1 0x20 PUSH1 0x0 KECCAK256 SWAP1 PUSH1 0x1F ADD PUSH1 0x20 SWAP1 DIV DUP2 ADD SWAP3 DUP3 PUSH3 0x276 JUMPI PUSH1 0x0 DUP6 SSTORE PUSH3 0x2C2 JUMP JUMPDEST DUP3 PUSH1 0x1F LT PUSH3 0x291 JUMPI DUP1 MLOAD PUSH1 0xFF NOT AND DUP4 DUP1 ADD OR DUP6 SSTORE PUSH3 0x2C2 JUMP JUMPDEST DUP3 DUP1 ADD PUSH1 0x1 ADD DUP6 SSTORE DUP3 ISZERO PUSH3 0x2C2 JUMPI SWAP2 DUP3 ADD JUMPDEST DUP3 DUP2 GT ISZERO PUSH3 0x2C1 JUMPI DUP3 MLOAD DUP3 SSTORE SWAP2 PUSH1 0x20 ADD SWAP2 SWAP1 PUSH1 0x1 ADD SWAP1 PUSH3 0x2A4 JUMP JUMPDEST JUMPDEST POP SWAP1 POP PUSH3 0x2D1 SWAP2 SWAP1 PUSH3 0x2D5 JUMP JUMPDEST POP SWAP1 JUMP JUMPDEST JUMPDEST DUP1 DUP3 GT ISZERO PUSH3 0x2F0 JUMPI PUSH1 0x0 DUP2 PUSH1 0x0 SWAP1 SSTORE POP PUSH1 0x1 ADD PUSH3 0x2D6 JUMP JUMPDEST POP SWAP1 JUMP JUMPDEST PUSH1 0x0 PUSH3 0x30B PUSH3 0x305 DUP5 PUSH3 0x54D JUMP JUMPDEST PUSH3 0x524 JUMP JUMPDEST SWAP1 POP DUP3 DUP2 MSTORE PUSH1 0x20 DUP2 ADD DUP5 DUP5 DUP5 ADD GT ISZERO PUSH3 0x32A JUMPI PUSH3 0x329 PUSH3 0x6E4 JUMP JUMPDEST JUMPDEST PUSH3 0x337 DUP5 DUP3 DUP6 PUSH3 0x5DF JUMP JUMPDEST POP SWAP4 SWAP3 POP POP POP JUMP JUMPDEST PUSH1 0x0 DUP2 MLOAD SWAP1 POP PUSH3 0x350 DUP2 PUSH3 0x72D JUMP JUMPDEST SWAP3 SWAP2 POP POP JUMP JUMPDEST PUSH1 0x0 DUP2 MLOAD SWAP1 POP PUSH3 0x367 DUP2 PUSH3 0x747 JUMP JUMPDEST SWAP3 SWAP2 POP POP JUMP JUMPDEST PUSH1 0x0 DUP3 PUSH1 0x1F DUP4 ADD SLT PUSH3 0x385 JUMPI PUSH3 0x384 PUSH3 0x6DF JUMP JUMPDEST JUMPDEST DUP2 MLOAD PUSH3 0x397 DUP5 DUP3 PUSH1 0x20 DUP7 ADD PUSH3 0x2F4 JUMP JUMPDEST SWAP2 POP POP SWAP3 SWAP2 POP POP JUMP JUMPDEST PUSH1 0x0 PUSH1 0x20 DUP3 DUP5 SUB SLT ISZERO PUSH3 0x3B9 JUMPI PUSH3 0x3B8 PUSH3 0x6EE JUMP JUMPDEST JUMPDEST PUSH1 0x0 PUSH3 0x3C9 DUP5 DUP3 DUP6 ADD PUSH3 0x356 JUMP JUMPDEST SWAP2 POP POP SWAP3 SWAP2 POP POP JUMP JUMPDEST PUSH1 0x0 DUP1 PUSH1 0x40 DUP4 DUP6 SUB SLT ISZERO PUSH3 0x3EC JUMPI PUSH3 0x3EB PUSH3 0x6EE JUMP JUMPDEST JUMPDEST PUSH1 0x0 DUP4 ADD MLOAD PUSH8 0xFFFFFFFFFFFFFFFF DUP2 GT ISZERO PUSH3 0x40D JUMPI PUSH3 0x40C PUSH3 0x6E9 JUMP JUMPDEST JUMPDEST PUSH3 0x41B DUP6 DUP3 DUP7 ADD PUSH3 0x36D JUMP JUMPDEST SWAP3 POP POP PUSH1 0x20 PUSH3 0x42E DUP6 DUP3 DUP7 ADD PUSH3 0x33F JUMP JUMPDEST SWAP2 POP POP SWAP3 POP SWAP3 SWAP1 POP JUMP JUMPDEST PUSH3 0x443 DUP2 PUSH3 0x59F JUMP JUMPDEST DUP3 MSTORE POP POP JUMP JUMPDEST PUSH1 0x0 PUSH3 0x456 DUP3 PUSH3 0x583 JUMP JUMPDEST PUSH3 0x462 DUP2 DUP6 PUSH3 0x58E JUMP JUMPDEST SWAP4 POP PUSH3 0x474 DUP2 DUP6 PUSH1 0x20 DUP7 ADD PUSH3 0x5DF JUMP JUMPDEST PUSH3 0x47F DUP2 PUSH3 0x6F3 JUMP JUMPDEST DUP5 ADD SWAP2 POP POP SWAP3 SWAP2 POP POP JUMP JUMPDEST PUSH1 0x0 PUSH3 0x499 PUSH1 0x14 DUP4 PUSH3 0x58E JUMP JUMPDEST SWAP2 POP PUSH3 0x4A6 DUP3 PUSH3 0x704 JUMP JUMPDEST PUSH1 0x20 DUP3 ADD SWAP1 POP SWAP2 SWAP1 POP JUMP JUMPDEST PUSH1 0x0 PUSH1 0x20 DUP3 ADD SWAP1 POP PUSH3 0x4C8 PUSH1 0x0 DUP4 ADD DUP5 PUSH3 0x438 JUMP JUMPDEST SWAP3 SWAP2 POP POP JUMP JUMPDEST PUSH1 0x0 PUSH1 0x40 DUP3 ADD SWAP1 POP DUP2 DUP2 SUB PUSH1 0x0 DUP4 ADD MSTORE PUSH3 0x4EA DUP2 DUP6 PUSH3 0x449 JUMP JUMPDEST SWAP1 POP PUSH3 0x4FB PUSH1 0x20 DUP4 ADD DUP5 PUSH3 0x438 JUMP JUMPDEST SWAP4 SWAP3 POP POP POP JUMP JUMPDEST PUSH1 0x0 PUSH1 0x20 DUP3 ADD SWAP1 POP DUP2 DUP2 SUB PUSH1 0x0 DUP4 ADD MSTORE PUSH3 0x51D DUP2 PUSH3 0x48A JUMP JUMPDEST SWAP1 POP SWAP2 SWAP1 POP JUMP JUMPDEST PUSH1 0x0 PUSH3 0x530 PUSH3 0x543 JUMP JUMPDEST SWAP1 POP PUSH3 0x53E DUP3 DUP3 PUSH3 0x64B JUMP JUMPDEST SWAP2 SWAP1 POP JUMP JUMPDEST PUSH1 0x0 PUSH1 0x40 MLOAD SWAP1 POP SWAP1 JUMP JUMPDEST PUSH1 0x0 PUSH8 0xFFFFFFFFFFFFFFFF DUP3 GT ISZERO PUSH3 0x56B JUMPI PUSH3 0x56A PUSH3 0x6B0 JUMP JUMPDEST JUMPDEST PUSH3 0x576 DUP3 PUSH3 0x6F3 JUMP JUMPDEST SWAP1 POP PUSH1 0x20 DUP2 ADD SWAP1 POP SWAP2 SWAP1 POP JUMP JUMPDEST PUSH1 0x0 DUP2 MLOAD SWAP1 POP SWAP2 SWAP1 POP JUMP JUMPDEST PUSH1 0x0 DUP3 DUP3 MSTORE PUSH1 0x20 DUP3 ADD SWAP1 POP SWAP3 SWAP2 POP POP JUMP JUMPDEST PUSH1 0x0 PUSH3 0x5AC DUP3 PUSH3 0x5BF JUMP JUMPDEST SWAP1 POP SWAP2 SWAP1 POP JUMP JUMPDEST PUSH1 0x0 DUP2 ISZERO ISZERO SWAP1 POP SWAP2 SWAP1 POP JUMP JUMPDEST PUSH1 0x0 PUSH20 0xFFFFFFFFFFFFFFFFFFFFFFFFFFFFFFFFFFFFFFFF DUP3 AND SWAP1 POP SWAP2 SWAP1 POP JUMP JUMPDEST PUSH1 0x0 JUMPDEST DUP4 DUP2 LT ISZERO PUSH3 0x5FF JUMPI DUP1 DUP3 ADD MLOAD DUP2 DUP5 ADD MSTORE PUSH1 0x20 DUP2 ADD SWAP1 POP PUSH3 0x5E2 JUMP JUMPDEST DUP4 DUP2 GT ISZERO PUSH3 0x60F JUMPI PUSH1 0x0 DUP5 DUP5 ADD MSTORE JUMPDEST POP POP POP POP JUMP JUMPDEST PUSH1 0x0 PUSH1 0x2 DUP3 DIV SWAP1 POP PUSH1 0x1 DUP3 AND DUP1 PUSH3 0x62E JUMPI PUSH1 0x7F DUP3 AND SWAP2 POP JUMPDEST PUSH1 0x20 DUP3 LT DUP2 EQ ISZERO PUSH3 0x645 JUMPI PUSH3 0x644 PUSH3 0x681 JUMP JUMPDEST JUMPDEST POP SWAP2 SWAP1 POP JUMP JUMPDEST PUSH3 0x656 DUP3 PUSH3 0x6F3 JUMP JUMPDEST DUP2 ADD DUP2 DUP2 LT PUSH8 0xFFFFFFFFFFFFFFFF DUP3 GT OR ISZERO PUSH3 0x678 JUMPI PUSH3 0x677 PUSH3 0x6B0 JUMP JUMPDEST JUMPDEST DUP1 PUSH1 0x40 MSTORE POP POP POP JUMP JUMPDEST PUSH32 0x4E487B7100000000000000000000000000000000000000000000000000000000 PUSH1 0x0 MSTORE PUSH1 0x22 PUSH1 0x4 MSTORE PUSH1 0x24 PUSH1 0x0 REVERT JUMPDEST PUSH32 0x4E487B7100000000000000000000000000000000000000000000000000000000 PUSH1 0x0 MSTORE PUSH1 0x41 PUSH1 0x4 MSTORE PUSH1 0x24 PUSH1 0x0 REVERT JUMPDEST PUSH1 0x0 DUP1 REVERT JUMPDEST PUSH1 0x0 DUP1 REVERT JUMPDEST PUSH1 0x0 DUP1 REVERT JUMPDEST PUSH1 0x0 DUP1 REVERT JUMPDEST PUSH1 0x0 PUSH1 0x1F NOT PUSH1 0x1F DUP4 ADD AND SWAP1 POP SWAP2 SWAP1 POP JUMP JUMPDEST PUSH32 0x5F7369676E6572206973206E6F742076616C6964000000000000000000000000 PUSH1 0x0 DUP3 ADD MSTORE POP JUMP JUMPDEST PUSH3 0x738 DUP2 PUSH3 0x59F JUMP JUMPDEST DUP2 EQ PUSH3 0x744 JUMPI PUSH1 0x0 DUP1 REVERT JUMPDEST POP JUMP JUMPDEST PUSH3 0x752 DUP2 PUSH3 0x5B3 JUMP JUMPDEST DUP2 EQ PUSH3 0x75E JUMPI PUSH1 0x0 DUP1 REVERT JUMPDEST POP JUMP JUMPDEST PUSH2 0xAD1 DUP1 PUSH3 0x771 PUSH1 0x0 CODECOPY PUSH1 0x0 RETURN INVALID PUSH1 0x80 PUSH1 0x40 MSTORE CALLVALUE DUP1 ISZERO PUSH2 0x10 JUMPI PUSH1 0x0 DUP1 REVERT JUMPDEST POP PUSH1 0x4 CALLDATASIZE LT PUSH2 0x4C JUMPI PUSH1 0x0 CALLDATALOAD PUSH1 0xE0 SHR DUP1 PUSH4 0x2CA15122 EQ PUSH2 0x51 JUMPI DUP1 PUSH4 0x50CA0928 EQ PUSH2 0x6F JUMPI DUP1 PUSH4 0x596F21F8 EQ PUSH2 0x9F JUMPI DUP1 PUSH4 0x963671BE EQ PUSH2 0xBF JUMPI JUMPDEST PUSH1 0x0 DUP1 REVERT JUMPDEST PUSH2 0x59 PUSH2 0xDD JUMP JUMPDEST PUSH1 0x40 MLOAD PUSH2 0x66 SWAP2 SWAP1 PUSH2 0x76E JUMP JUMPDEST PUSH1 0x40 MLOAD DUP1 SWAP2 SUB SWAP1 RETURN JUMPDEST PUSH2 0x89 PUSH1 0x4 DUP1 CALLDATASIZE SUB DUP2 ADD SWAP1 PUSH2 0x84 SWAP2 SWAP1 PUSH2 0x591 JUMP JUMPDEST PUSH2 0x12A JUMP JUMPDEST PUSH1 0x40 MLOAD PUSH2 0x96 SWAP2 SWAP1 PUSH2 0x76E JUMP JUMPDEST PUSH1 0x40 MLOAD DUP1 SWAP2 SUB SWAP1 RETURN JUMPDEST PUSH2 0xA7 PUSH2 0x1DE JUMP JUMPDEST PUSH1 0x40 MLOAD PUSH2 0xB6 SWAP4 SWAP3 SWAP2 SWAP1 PUSH2 0x789 JUMP JUMPDEST PUSH1 0x40 MLOAD DUP1 SWAP2 SUB SWAP1 RETURN JUMPDEST PUSH2 0xC7 PUSH2 0x517 JUMP JUMPDEST PUSH1 0x40 MLOAD PUSH2 0xD4 SWAP2 SWAP1 PUSH2 0x753 JUMP JUMPDEST PUSH1 0x40 MLOAD DUP1 SWAP2 SUB SWAP1 RETURN JUMPDEST PUSH1 0x0 PUSH2 0xE8 ORIGIN PUSH2 0x12A JUMP JUMPDEST PUSH2 0x127 JUMPI PUSH1 0x40 MLOAD PUSH32 0x8C379A000000000000000000000000000000000000000000000000000000000 DUP2 MSTORE PUSH1 0x4 ADD PUSH2 0x11E SWAP1 PUSH2 0x7D5 JUMP JUMPDEST PUSH1 0x40 MLOAD DUP1 SWAP2 SUB SWAP1 REVERT JUMPDEST SWAP1 JUMP JUMPDEST PUSH1 0x0 PUSH1 0x2 PUSH1 0x0 SWAP1 SLOAD SWAP1 PUSH2 0x100 EXP SWAP1 DIV PUSH20 0xFFFFFFFFFFFFFFFFFFFFFFFFFFFFFFFFFFFFFFFF AND PUSH20 0xFFFFFFFFFFFFFFFFFFFFFFFFFFFFFFFFFFFFFFFF AND PUSH4 0x63A9C3D7 DUP4 PUSH1 0x40 MLOAD DUP3 PUSH4 0xFFFFFFFF AND PUSH1 0xE0 SHL DUP2 MSTORE PUSH1 0x4 ADD PUSH2 0x187 SWAP2 SWAP1 PUSH2 0x753 JUMP JUMPDEST PUSH1 0x20 PUSH1 0x40 MLOAD DUP1 DUP4 SUB DUP2 DUP7 DUP1 EXTCODESIZE ISZERO DUP1 ISZERO PUSH2 0x19F JUMPI PUSH1 0x0 DUP1 REVERT JUMPDEST POP GAS STATICCALL ISZERO DUP1 ISZERO PUSH2 0x1B3 JUMPI RETURNDATASIZE PUSH1 0x0 DUP1 RETURNDATACOPY RETURNDATASIZE PUSH1 0x0 REVERT JUMPDEST POP POP POP POP PUSH1 0x40 MLOAD RETURNDATASIZE PUSH1 0x1F NOT PUSH1 0x1F DUP3 ADD AND DUP3 ADD DUP1 PUSH1 0x40 MSTORE POP DUP2 ADD SWAP1 PUSH2 0x1D7 SWAP2 SWAP1 PUSH2 0x5EB JUMP JUMPDEST SWAP1 POP SWAP2 SWAP1 POP JUMP JUMPDEST PUSH1 0x60 DUP1 PUSH1 0x60 PUSH1 0x0 PUSH1 0x2 PUSH1 0x0 SWAP1 SLOAD SWAP1 PUSH2 0x100 EXP SWAP1 DIV PUSH20 0xFFFFFFFFFFFFFFFFFFFFFFFFFFFFFFFFFFFFFFFF AND PUSH20 0xFFFFFFFFFFFFFFFFFFFFFFFFFFFFFFFFFFFFFFFF AND PUSH4 0xFA69EFBD PUSH1 0x40 MLOAD DUP2 PUSH4 0xFFFFFFFF AND PUSH1 0xE0 SHL DUP2 MSTORE PUSH1 0x4 ADD PUSH1 0x20 PUSH1 0x40 MLOAD DUP1 DUP4 SUB DUP2 DUP7 DUP1 EXTCODESIZE ISZERO DUP1 ISZERO PUSH2 0x24D JUMPI PUSH1 0x0 DUP1 REVERT JUMPDEST POP GAS STATICCALL ISZERO DUP1 ISZERO PUSH2 0x261 JUMPI RETURNDATASIZE PUSH1 0x0 DUP1 RETURNDATACOPY RETURNDATASIZE PUSH1 0x0 REVERT JUMPDEST POP POP POP POP PUSH1 0x40 MLOAD RETURNDATASIZE PUSH1 0x1F NOT PUSH1 0x1F DUP3 ADD AND DUP3 ADD DUP1 PUSH1 0x40 MSTORE POP DUP2 ADD SWAP1 PUSH2 0x285 SWAP2 SWAP1 PUSH2 0x618 JUMP JUMPDEST SWAP1 POP PUSH1 0x0 DUP2 PUSH8 0xFFFFFFFFFFFFFFFF DUP2 GT ISZERO PUSH2 0x2A3 JUMPI PUSH2 0x2A2 PUSH2 0x9E8 JUMP JUMPDEST JUMPDEST PUSH1 0x40 MLOAD SWAP1 DUP1 DUP3 MSTORE DUP1 PUSH1 0x20 MUL PUSH1 0x20 ADD DUP3 ADD PUSH1 0x40 MSTORE DUP1 ISZERO PUSH2 0x2D1 JUMPI DUP2 PUSH1 0x20 ADD PUSH1 0x20 DUP3 MUL DUP1 CALLDATASIZE DUP4 CALLDATACOPY DUP1 DUP3 ADD SWAP2 POP POP SWAP1 POP JUMPDEST POP SWAP1 POP PUSH1 0x0 JUMPDEST DUP3 DUP2 PUSH1 0xFF AND LT ISZERO PUSH2 0x3F0 JUMPI PUSH1 0x2 PUSH1 0x0 SWAP1 SLOAD SWAP1 PUSH2 0x100 EXP SWAP1 DIV PUSH20 0xFFFFFFFFFFFFFFFFFFFFFFFFFFFFFFFFFFFFFFFF AND PUSH20 0xFFFFFFFFFFFFFFFFFFFFFFFFFFFFFFFFFFFFFFFF AND PUSH4 0x3FFEFE4E DUP3 PUSH1 0x40 MLOAD DUP3 PUSH4 0xFFFFFFFF AND PUSH1 0xE0 SHL DUP2 MSTORE PUSH1 0x4 ADD PUSH2 0x33D SWAP2 SWAP1 PUSH2 0x7F5 JUMP JUMPDEST PUSH1 0x20 PUSH1 0x40 MLOAD DUP1 DUP4 SUB DUP2 DUP7 DUP1 EXTCODESIZE ISZERO DUP1 ISZERO PUSH2 0x355 JUMPI PUSH1 0x0 DUP1 REVERT JUMPDEST POP GAS STATICCALL ISZERO DUP1 ISZERO PUSH2 0x369 JUMPI RETURNDATASIZE PUSH1 0x0 DUP1 RETURNDATACOPY RETURNDATASIZE PUSH1 0x0 REVERT JUMPDEST POP POP POP POP PUSH1 0x40 MLOAD RETURNDATASIZE PUSH1 0x1F NOT PUSH1 0x1F DUP3 ADD AND DUP3 ADD DUP1 PUSH1 0x40 MSTORE POP DUP2 ADD SWAP1 PUSH2 0x38D SWAP2 SWAP1 PUSH2 0x5BE JUMP JUMPDEST DUP3 DUP3 PUSH1 0xFF AND DUP2 MLOAD DUP2 LT PUSH2 0x3A3 JUMPI PUSH2 0x3A2 PUSH2 0x9B9 JUMP JUMPDEST JUMPDEST PUSH1 0x20 MUL PUSH1 0x20 ADD ADD SWAP1 PUSH20 0xFFFFFFFFFFFFFFFFFFFFFFFFFFFFFFFFFFFFFFFF AND SWAP1 DUP2 PUSH20 0xFFFFFFFFFFFFFFFFFFFFFFFFFFFFFFFFFFFFFFFF AND DUP2 MSTORE POP POP DUP1 DUP1 PUSH2 0x3E8 SWAP1 PUSH2 0x931 JUMP JUMPDEST SWAP2 POP POP PUSH2 0x2D7 JUMP JUMPDEST POP PUSH1 0x0 DUP2 PUSH1 0x1 DUP3 DUP1 SLOAD PUSH2 0x402 SWAP1 PUSH2 0x8FF JUMP JUMPDEST DUP1 PUSH1 0x1F ADD PUSH1 0x20 DUP1 SWAP2 DIV MUL PUSH1 0x20 ADD PUSH1 0x40 MLOAD SWAP1 DUP2 ADD PUSH1 0x40 MSTORE DUP1 SWAP3 SWAP2 SWAP1 DUP2 DUP2 MSTORE PUSH1 0x20 ADD DUP3 DUP1 SLOAD PUSH2 0x42E SWAP1 PUSH2 0x8FF JUMP JUMPDEST DUP1 ISZERO PUSH2 0x47B JUMPI DUP1 PUSH1 0x1F LT PUSH2 0x450 JUMPI PUSH2 0x100 DUP1 DUP4 SLOAD DIV MUL DUP4 MSTORE SWAP2 PUSH1 0x20 ADD SWAP2 PUSH2 0x47B JUMP JUMPDEST DUP3 ADD SWAP2 SWAP1 PUSH1 0x0 MSTORE PUSH1 0x20 PUSH1 0x0 KECCAK256 SWAP1 JUMPDEST DUP2 SLOAD DUP2 MSTORE SWAP1 PUSH1 0x1 ADD SWAP1 PUSH1 0x20 ADD DUP1 DUP4 GT PUSH2 0x45E JUMPI DUP3 SWAP1 SUB PUSH1 0x1F AND DUP3 ADD SWAP2 JUMPDEST POP POP POP POP POP SWAP3 POP DUP1 DUP1 SLOAD DUP1 PUSH1 0x20 MUL PUSH1 0x20 ADD PUSH1 0x40 MLOAD SWAP1 DUP2 ADD PUSH1 0x40 MSTORE DUP1 SWAP3 SWAP2 SWAP1 DUP2 DUP2 MSTORE PUSH1 0x20 ADD DUP3 DUP1 SLOAD DUP1 ISZERO PUSH2 0x503 JUMPI PUSH1 0x20 MUL DUP3 ADD SWAP2 SWAP1 PUSH1 0x0 MSTORE PUSH1 0x20 PUSH1 0x0 KECCAK256 SWAP1 JUMPDEST DUP2 PUSH1 0x0 SWAP1 SLOAD SWAP1 PUSH2 0x100 EXP SWAP1 DIV PUSH20 0xFFFFFFFFFFFFFFFFFFFFFFFFFFFFFFFFFFFFFFFF AND PUSH20 0xFFFFFFFFFFFFFFFFFFFFFFFFFFFFFFFFFFFFFFFF AND DUP2 MSTORE PUSH1 0x20 ADD SWAP1 PUSH1 0x1 ADD SWAP1 DUP1 DUP4 GT PUSH2 0x4B9 JUMPI JUMPDEST POP POP POP POP POP SWAP1 POP SWAP5 POP SWAP5 POP SWAP5 POP POP POP SWAP1 SWAP2 SWAP3 JUMP JUMPDEST PUSH1 0x2 PUSH1 0x0 SWAP1 SLOAD SWAP1 PUSH2 0x100 EXP SWAP1 DIV PUSH20 0xFFFFFFFFFFFFFFFFFFFFFFFFFFFFFFFFFFFFFFFF AND DUP2 JUMP JUMPDEST PUSH1 0x0 DUP2 CALLDATALOAD SWAP1 POP PUSH2 0x54C DUP2 PUSH2 0xA56 JUMP JUMPDEST SWAP3 SWAP2 POP POP JUMP JUMPDEST PUSH1 0x0 DUP2 MLOAD SWAP1 POP PUSH2 0x561 DUP2 PUSH2 0xA56 JUMP JUMPDEST SWAP3 SWAP2 POP POP JUMP JUMPDEST PUSH1 0x0 DUP2 MLOAD SWAP1 POP PUSH2 0x576 DUP2 PUSH2 0xA6D JUMP JUMPDEST SWAP3 SWAP2 POP POP JUMP JUMPDEST PUSH1 0x0 DUP2 MLOAD SWAP1 POP PUSH2 0x58B DUP2 PUSH2 0xA84 JUMP JUMPDEST SWAP3 SWAP2 POP POP JUMP JUMPDEST PUSH1 0x0 PUSH1 0x20 DUP3 DUP5 SUB SLT ISZERO PUSH2 0x5A7 JUMPI PUSH2 0x5A6 PUSH2 0xA17 JUMP JUMPDEST JUMPDEST PUSH1 0x0 PUSH2 0x5B5 DUP5 DUP3 DUP6 ADD PUSH2 0x53D JUMP JUMPDEST SWAP2 POP POP SWAP3 SWAP2 POP POP JUMP JUMPDEST PUSH1 0x0 PUSH1 0x20 DUP3 DUP5 SUB SLT ISZERO PUSH2 0x5D4 JUMPI PUSH2 0x5D3 PUSH2 0xA17 JUMP JUMPDEST JUMPDEST PUSH1 0x0 PUSH2 0x5E2 DUP5 DUP3 DUP6 ADD PUSH2 0x552 JUMP JUMPDEST SWAP2 POP POP SWAP3 SWAP2 POP POP JUMP JUMPDEST PUSH1 0x0 PUSH1 0x20 DUP3 DUP5 SUB SLT ISZERO PUSH2 0x601 JUMPI PUSH2 0x600 PUSH2 0xA17 JUMP JUMPDEST JUMPDEST PUSH1 0x0 PUSH2 0x60F DUP5 DUP3 DUP6 ADD PUSH2 0x567 JUMP JUMPDEST SWAP2 POP POP SWAP3 SWAP2 POP POP JUMP JUMPDEST PUSH1 0x0 PUSH1 0x20 DUP3 DUP5 SUB SLT ISZERO PUSH2 0x62E JUMPI PUSH2 0x62D PUSH2 0xA17 JUMP JUMPDEST JUMPDEST PUSH1 0x0 PUSH2 0x63C DUP5 DUP3 DUP6 ADD PUSH2 0x57C JUMP JUMPDEST SWAP2 POP POP SWAP3 SWAP2 POP POP JUMP JUMPDEST PUSH1 0x0 PUSH2 0x651 DUP4 DUP4 PUSH2 0x65D JUMP JUMPDEST PUSH1 0x20 DUP4 ADD SWAP1 POP SWAP3 SWAP2 POP POP JUMP JUMPDEST PUSH2 0x666 DUP2 PUSH2 0x865 JUMP JUMPDEST DUP3 MSTORE POP POP JUMP JUMPDEST PUSH2 0x675 DUP2 PUSH2 0x865 JUMP JUMPDEST DUP3 MSTORE POP POP JUMP JUMPDEST PUSH1 0x0 PUSH2 0x686 DUP3 PUSH2 0x820 JUMP JUMPDEST PUSH2 0x690 DUP2 DUP6 PUSH2 0x843 JUMP JUMPDEST SWAP4 POP PUSH2 0x69B DUP4 PUSH2 0x810 JUMP JUMPDEST DUP1 PUSH1 0x0 JUMPDEST DUP4 DUP2 LT ISZERO PUSH2 0x6CC JUMPI DUP2 MLOAD PUSH2 0x6B3 DUP9 DUP3 PUSH2 0x645 JUMP JUMPDEST SWAP8 POP PUSH2 0x6BE DUP4 PUSH2 0x836 JUMP JUMPDEST SWAP3 POP POP PUSH1 0x1 DUP2 ADD SWAP1 POP PUSH2 0x69F JUMP JUMPDEST POP DUP6 SWAP4 POP POP POP POP SWAP3 SWAP2 POP POP JUMP JUMPDEST PUSH2 0x6E2 DUP2 PUSH2 0x877 JUMP JUMPDEST DUP3 MSTORE POP POP JUMP JUMPDEST PUSH1 0x0 PUSH2 0x6F3 DUP3 PUSH2 0x82B JUMP JUMPDEST PUSH2 0x6FD DUP2 DUP6 PUSH2 0x854 JUMP JUMPDEST SWAP4 POP PUSH2 0x70D DUP2 DUP6 PUSH1 0x20 DUP7 ADD PUSH2 0x8CC JUMP JUMPDEST PUSH2 0x716 DUP2 PUSH2 0xA1C JUMP JUMPDEST DUP5 ADD SWAP2 POP POP SWAP3 SWAP2 POP POP JUMP JUMPDEST PUSH1 0x0 PUSH2 0x72E PUSH1 0x14 DUP4 PUSH2 0x854 JUMP JUMPDEST SWAP2 POP PUSH2 0x739 DUP3 PUSH2 0xA2D JUMP JUMPDEST PUSH1 0x20 DUP3 ADD SWAP1 POP SWAP2 SWAP1 POP JUMP JUMPDEST PUSH2 0x74D DUP2 PUSH2 0x8BA JUMP JUMPDEST DUP3 MSTORE POP POP JUMP JUMPDEST PUSH1 0x0 PUSH1 0x20 DUP3 ADD SWAP1 POP PUSH2 0x768 PUSH1 0x0 DUP4 ADD DUP5 PUSH2 0x66C JUMP JUMPDEST SWAP3 SWAP2 POP POP JUMP JUMPDEST PUSH1 0x0 PUSH1 0x20 DUP3 ADD SWAP1 POP PUSH2 0x783 PUSH1 0x0 DUP4 ADD DUP5 PUSH2 0x6D9 JUMP JUMPDEST SWAP3 SWAP2 POP POP JUMP JUMPDEST PUSH1 0x0 PUSH1 0x60 DUP3 ADD SWAP1 POP DUP2 DUP2 SUB PUSH1 0x0 DUP4 ADD MSTORE PUSH2 0x7A3 DUP2 DUP7 PUSH2 0x6E8 JUMP JUMPDEST SWAP1 POP DUP2 DUP2 SUB PUSH1 0x20 DUP4 ADD MSTORE PUSH2 0x7B7 DUP2 DUP6 PUSH2 0x67B JUMP JUMPDEST SWAP1 POP DUP2 DUP2 SUB PUSH1 0x40 DUP4 ADD MSTORE PUSH2 0x7CB DUP2 DUP5 PUSH2 0x67B JUMP JUMPDEST SWAP1 POP SWAP5 SWAP4 POP POP POP POP JUMP JUMPDEST PUSH1 0x0 PUSH1 0x20 DUP3 ADD SWAP1 POP DUP2 DUP2 SUB PUSH1 0x0 DUP4 ADD MSTORE PUSH2 0x7EE DUP2 PUSH2 0x721 JUMP JUMPDEST SWAP1 POP SWAP2 SWAP1 POP JUMP JUMPDEST PUSH1 0x0 PUSH1 0x20 DUP3 ADD SWAP1 POP PUSH2 0x80A PUSH1 0x0 DUP4 ADD DUP5 PUSH2 0x744 JUMP JUMPDEST SWAP3 SWAP2 POP POP JUMP JUMPDEST PUSH1 0x0 DUP2 SWAP1 POP PUSH1 0x20 DUP3 ADD SWAP1 POP SWAP2 SWAP1 POP JUMP JUMPDEST PUSH1 0x0 DUP2 MLOAD SWAP1 POP SWAP2 SWAP1 POP JUMP JUMPDEST PUSH1 0x0 DUP2 MLOAD SWAP1 POP SWAP2 SWAP1 POP JUMP JUMPDEST PUSH1 0x0 PUSH1 0x20 DUP3 ADD SWAP1 POP SWAP2 SWAP1 POP JUMP JUMPDEST PUSH1 0x0 DUP3 DUP3 MSTORE PUSH1 0x20 DUP3 ADD SWAP1 POP SWAP3 SWAP2 POP POP JUMP JUMPDEST PUSH1 0x0 DUP3 DUP3 MSTORE PUSH1 0x20 DUP3 ADD SWAP1 POP SWAP3 SWAP2 POP POP JUMP JUMPDEST PUSH1 0x0 PUSH2 0x870 DUP3 PUSH2 0x883 JUMP JUMPDEST SWAP1 POP SWAP2 SWAP1 POP JUMP JUMPDEST PUSH1 0x0 DUP2 ISZERO ISZERO SWAP1 POP SWAP2 SWAP1 POP JUMP JUMPDEST PUSH1 0x0 PUSH20 0xFFFFFFFFFFFFFFFFFFFFFFFFFFFFFFFFFFFFFFFF DUP3 AND SWAP1 POP SWAP2 SWAP1 POP JUMP JUMPDEST PUSH1 0x0 DUP2 SWAP1 POP SWAP2 SWAP1 POP JUMP JUMPDEST PUSH1 0x0 PUSH1 0xFF DUP3 AND SWAP1 POP SWAP2 SWAP1 POP JUMP JUMPDEST PUSH1 0x0 PUSH2 0x8C5 DUP3 PUSH2 0x8AD JUMP JUMPDEST SWAP1 POP SWAP2 SWAP1 POP JUMP JUMPDEST PUSH1 0x0 JUMPDEST DUP4 DUP2 LT ISZERO PUSH2 0x8EA JUMPI DUP1 DUP3 ADD MLOAD DUP2 DUP5 ADD MSTORE PUSH1 0x20 DUP2 ADD SWAP1 POP PUSH2 0x8CF JUMP JUMPDEST DUP4 DUP2 GT ISZERO PUSH2 0x8F9 JUMPI PUSH1 0x0 DUP5 DUP5 ADD MSTORE JUMPDEST POP POP POP POP JUMP JUMPDEST PUSH1 0x0 PUSH1 0x2 DUP3 DIV SWAP1 POP PUSH1 0x1 DUP3 AND DUP1 PUSH2 0x917 JUMPI PUSH1 0x7F DUP3 AND SWAP2 POP JUMPDEST PUSH1 0x20 DUP3 LT DUP2 EQ ISZERO PUSH2 0x92B JUMPI PUSH2 0x92A PUSH2 0x98A JUMP JUMPDEST JUMPDEST POP SWAP2 SWAP1 POP JUMP JUMPDEST PUSH1 0x0 PUSH2 0x93C DUP3 PUSH2 0x8AD JUMP JUMPDEST SWAP2 POP PUSH1 0xFF DUP3 EQ ISZERO PUSH2 0x950 JUMPI PUSH2 0x94F PUSH2 0x95B JUMP JUMPDEST JUMPDEST PUSH1 0x1 DUP3 ADD SWAP1 POP SWAP2 SWAP1 POP JUMP JUMPDEST PUSH32 0x4E487B7100000000000000000000000000000000000000000000000000000000 PUSH1 0x0 MSTORE PUSH1 0x11 PUSH1 0x4 MSTORE PUSH1 0x24 PUSH1 0x0 REVERT JUMPDEST PUSH32 0x4E487B7100000000000000000000000000000000000000000000000000000000 PUSH1 0x0 MSTORE PUSH1 0x22 PUSH1 0x4 MSTORE PUSH1 0x24 PUSH1 0x0 REVERT JUMPDEST PUSH32 0x4E487B7100000000000000000000000000000000000000000000000000000000 PUSH1 0x0 MSTORE PUSH1 0x32 PUSH1 0x4 MSTORE PUSH1 0x24 PUSH1 0x0 REVERT JUMPDEST PUSH32 0x4E487B7100000000000000000000000000000000000000000000000000000000 PUSH1 0x0 MSTORE PUSH1 0x41 PUSH1 0x4 MSTORE PUSH1 0x24 PUSH1 0x0 REVERT JUMPDEST PUSH1 0x0 DUP1 REVERT JUMPDEST PUSH1 0x0 PUSH1 0x1F NOT PUSH1 0x1F DUP4 ADD AND SWAP1 POP SWAP2 SWAP1 POP JUMP JUMPDEST PUSH32 0x5F7369676E6572206973206E6F742076616C6964000000000000000000000000 PUSH1 0x0 DUP3 ADD MSTORE POP JUMP JUMPDEST PUSH2 0xA5F DUP2 PUSH2 0x865 JUMP JUMPDEST DUP2 EQ PUSH2 0xA6A JUMPI PUSH1 0x0 DUP1 REVERT JUMPDEST POP JUMP JUMPDEST PUSH2 0xA76 DUP2 PUSH2 0x877 JUMP JUMPDEST DUP2 EQ PUSH2 0xA81 JUMPI PUSH1 0x0 DUP1 REVERT JUMPDEST POP JUMP JUMPDEST PUSH2 0xA8D DUP2 PUSH2 0x8A3 JUMP JUMPDEST DUP2 EQ PUSH2 0xA98 JUMPI PUSH1 0x0 DUP1 REVERT JUMPDEST POP JUMP INVALID LOG2 PUSH5 0x6970667358 0x22 SLT KECCAK256 CALLER ADDMOD 0xB8 PUSH28 0xE651AC8D9459AE37A146CF14E366AA6CECAD5A0D587481EAEAFFEDF PUSH5 0x736F6C6343 STOP ADDMOD SMOD STOP CALLER "
				},
				"gasEstimates": {
					"creation": {
						"codeDepositCost": "553800",
						"executionCost": "infinite",
						"totalCost": "infinite"
					},
					"external": {
						"callVerify(address)": "infinite",
						"factoryAddr()": "2558",
						"getEvidence()": "infinite",
						"sign()": "infinite"
					},
					"internal": {
						"isSigned(address)": "infinite"
					}
				},
				"methodIdentifiers": {
					"callVerify(address)": "50ca0928",
					"factoryAddr()": "963671be",
					"getEvidence()": "596f21f8",
					"sign()": "2ca15122"
				}
			},
			"storageLayout": {
				"storage": [
					{
						"astId": 23,
						"contract": "evidence/evidence.sol:Evidence",
						"label": "evidence",
						"offset": 0,
						"slot": "0",
						"type": "t_string_storage"
					},
					{
						"astId": 26,
						"contract": "evidence/evidence.sol:Evidence",
						"label": "signers",
						"offset": 0,
						"slot": "1",
						"type": "t_array(t_address)dyn_storage"
					},
					{
						"astId": 28,
						"contract": "evidence/evidence.sol:Evidence",
						"label": "factoryAddr",
						"offset": 0,
						"slot": "2",
						"type": "t_address"
					}
				],
				"types": {
					"t_address": {
						"encoding": "inplace",
						"label": "address",
						"numberOfBytes": "20"
					},
					"t_array(t_address)dyn_storage": {
						"base": "t_address",
						"encoding": "dynamic_array",
						"label": "address[]",
						"numberOfBytes": "32"
					},
					"t_string_storage": {
						"encoding": "bytes",
						"label": "string",
						"numberOfBytes": "32"
					}
				}
			},
			"userdoc": {
				"kind": "user",
				"methods": {},
				"version": 1
			}
		}
	}
}