{
	"evidence/evidence.sol": {
		"Evidence": {
			"abi": [
				{
					"inputs": [
						{
							"internalType": "string",
							"name": "_evi",
							"type": "string"
						},
						{
							"internalType": "address",
							"name": "_factory",
							"type": "address"
						}
					],
					"stateMutability": "nonpayable",
					"type": "constructor"
				},
				{
					"anonymous": false,
					"inputs": [
						{
							"indexed": false,
							"internalType": "string",
							"name": "_evi",
							"type": "string"
						},
						{
							"indexed": false,
							"internalType": "address",
							"name": "_sender",
							"type": "address"
						}
					],
					"name": "NewSignaturesEvidence",
					"type": "event"
				},
				{
					"inputs": [
						{
							"internalType": "address",
							"name": "_signer",
							"type": "address"
						}
					],
					"name": "callVerify",
					"outputs": [
						{
							"internalType": "bool",
							"name": "",
							"type": "bool"
						}
					],
					"stateMutability": "view",
					"type": "function"
				},
				{
					"inputs": [],
					"name": "factoryAddr",
					"outputs": [
						{
							"internalType": "address",
							"name": "",
							"type": "address"
						}
					],
					"stateMutability": "view",
					"type": "function"
				}
			],
			"devdoc": {
				"kind": "dev",
				"methods": {},
				"version": 1
			},
			"evm": {
				"assembly": "    /* \"evidence/evidence.sol\":279:966  contract Evidence {\r... */\n  mstore(0x40, 0x80)\n    /* \"evidence/evidence.sol\":680:947  constructor(string memory _evi,address _factory){\r... */\n  callvalue\n  dup1\n  iszero\n  tag_1\n  jumpi\n  0x00\n  dup1\n  revert\ntag_1:\n  pop\n  mload(0x40)\n  sub(codesize, bytecodeSize)\n  dup1\n  bytecodeSize\n  dup4\n  codecopy\n  dup2\n  dup2\n  add\n  0x40\n  mstore\n  dup2\n  add\n  swap1\n  tag_2\n  swap2\n  swap1\n  tag_3\n  jump\t// in\ntag_2:\n    /* \"evidence/evidence.sol\":753:761  _factory */\n  dup1\n    /* \"evidence/evidence.sol\":739:750  factoryAddr */\n  0x02\n  0x00\n    /* \"evidence/evidence.sol\":739:761  factoryAddr = _factory */\n  0x0100\n  exp\n  dup2\n  sload\n  dup2\n  0xffffffffffffffffffffffffffffffffffffffff\n  mul\n  not\n  and\n  swap1\n  dup4\n  0xffffffffffffffffffffffffffffffffffffffff\n  and\n  mul\n  or\n  swap1\n  sstore\n  pop\n    /* \"evidence/evidence.sol\":780:801  callVerify(tx.origin) */\n  tag_6\n    /* \"evidence/evidence.sol\":791:800  tx.origin */\n  origin\n    /* \"evidence/evidence.sol\":780:790  callVerify */\n  shl(0x20, tag_7)\n    /* \"evidence/evidence.sol\":780:801  callVerify(tx.origin) */\n  0x20\n  shr\n  jump\t// in\ntag_6:\n    /* \"evidence/evidence.sol\":772:825  require(callVerify(tx.origin),\"_signer is not valid\") */\n  tag_8\n  jumpi\n  mload(0x40)\n  0x08c379a000000000000000000000000000000000000000000000000000000000\n  dup2\n  mstore\n  0x04\n  add\n  tag_9\n  swap1\n  tag_10\n  jump\t// in\ntag_9:\n  mload(0x40)\n  dup1\n  swap2\n  sub\n  swap1\n  revert\ntag_8:\n    /* \"evidence/evidence.sol\":846:850  _evi */\n  dup2\n    /* \"evidence/evidence.sol\":836:844  evidence */\n  0x00\n    /* \"evidence/evidence.sol\":836:850  evidence= _evi */\n  swap1\n  dup1\n  mload\n  swap1\n  0x20\n  add\n  swap1\n  tag_11\n  swap3\n  swap2\n  swap1\n  tag_12\n  jump\t// in\ntag_11:\n  pop\n    /* \"evidence/evidence.sol\":861:868  signers */\n  0x01\n    /* \"evidence/evidence.sol\":874:883  tx.origin */\n  origin\n    /* \"evidence/evidence.sol\":861:884  signers.push(tx.origin) */\n  swap1\n  dup1\n  0x01\n  dup2\n  sload\n  add\n  dup1\n  dup3\n  sstore\n  dup1\n  swap2\n  pop\n  pop\n  0x01\n  swap1\n  sub\n  swap1\n  0x00\n  mstore\n  keccak256(0x00, 0x20)\n  add\n  0x00\n  swap1\n  swap2\n  swap1\n  swap2\n  swap1\n  swap2\n  0x0100\n  exp\n  dup2\n  sload\n  dup2\n  0xffffffffffffffffffffffffffffffffffffffff\n  mul\n  not\n  and\n  swap1\n  dup4\n  0xffffffffffffffffffffffffffffffffffffffff\n  and\n  mul\n  or\n  swap1\n  sstore\n  pop\n    /* \"evidence/evidence.sol\":902:939  NewSignaturesEvidence(_evi,tx.origin) */\n  0xa34d8f872132d193d2e62e18648026516cd6a9d599cb2f07eda0fd5ab16f1627\n    /* \"evidence/evidence.sol\":924:928  _evi */\n  dup3\n    /* \"evidence/evidence.sol\":929:938  tx.origin */\n  origin\n    /* \"evidence/evidence.sol\":902:939  NewSignaturesEvidence(_evi,tx.origin) */\n  mload(0x40)\n  tag_14\n  swap3\n  swap2\n  swap1\n  tag_15\n  jump\t// in\ntag_14:\n  mload(0x40)\n  dup1\n  swap2\n  sub\n  swap1\n  log1\n    /* \"evidence/evidence.sol\":680:947  constructor(string memory _evi,address _factory){\r... */\n  pop\n  pop\n    /* \"evidence/evidence.sol\":279:966  contract Evidence {\r... */\n  jump(tag_16)\n    /* \"evidence/evidence.sol\":530:655  function callVerify(address _signer) public view returns(bool){\r... */\ntag_7:\n    /* \"evidence/evidence.sol\":587:591  bool */\n  0x00\n    /* \"evidence/evidence.sol\":619:630  factoryAddr */\n  0x02\n  0x00\n  swap1\n  sload\n  swap1\n  0x0100\n  exp\n  swap1\n  div\n  0xffffffffffffffffffffffffffffffffffffffff\n  and\n    /* \"evidence/evidence.sol\":610:638  IEvdence(factoryAddr).verify */\n  0xffffffffffffffffffffffffffffffffffffffff\n  and\n  0x63a9c3d7\n    /* \"evidence/evidence.sol\":639:646  _signer */\n  dup4\n    /* \"evidence/evidence.sol\":610:647  IEvdence(factoryAddr).verify(_signer) */\n  mload(0x40)\n  dup3\n  0xffffffff\n  and\n  0xe0\n  shl\n  dup2\n  mstore\n  0x04\n  add\n  tag_18\n  swap2\n  swap1\n  tag_19\n  jump\t// in\ntag_18:\n  0x20\n  mload(0x40)\n  dup1\n  dup4\n  sub\n  dup2\n  dup7\n  dup1\n  extcodesize\n  iszero\n  dup1\n  iszero\n  tag_20\n  jumpi\n  0x00\n  dup1\n  revert\ntag_20:\n  pop\n  gas\n  staticcall\n  iszero\n  dup1\n  iszero\n  tag_22\n  jumpi\n  returndatasize\n  0x00\n  dup1\n  returndatacopy\n  revert(0x00, returndatasize)\ntag_22:\n  pop\n  pop\n  pop\n  pop\n  mload(0x40)\n  returndatasize\n  not(0x1f)\n  0x1f\n  dup3\n  add\n  and\n  dup3\n  add\n  dup1\n  0x40\n  mstore\n  pop\n  dup2\n  add\n  swap1\n  tag_23\n  swap2\n  swap1\n  tag_24\n  jump\t// in\ntag_23:\n    /* \"evidence/evidence.sol\":603:647  return IEvdence(factoryAddr).verify(_signer) */\n  swap1\n  pop\n    /* \"evidence/evidence.sol\":530:655  function callVerify(address _signer) public view returns(bool){\r... */\n  swap2\n  swap1\n  pop\n  jump\t// out\n    /* \"evidence/evidence.sol\":279:966  contract Evidence {\r... */\ntag_12:\n  dup3\n  dup1\n  sload\n  tag_25\n  swap1\n  tag_26\n  jump\t// in\ntag_25:\n  swap1\n  0x00\n  mstore\n  keccak256(0x00, 0x20)\n  swap1\n  0x1f\n  add\n  0x20\n  swap1\n  div\n  dup2\n  add\n  swap3\n  dup3\n  tag_28\n  jumpi\n  0x00\n  dup6\n  sstore\n  jump(tag_27)\ntag_28:\n  dup3\n  0x1f\n  lt\n  tag_29\n  jumpi\n  dup1\n  mload\n  not(0xff)\n  and\n  dup4\n  dup1\n  add\n  or\n  dup6\n  sstore\n  jump(tag_27)\ntag_29:\n  dup3\n  dup1\n  add\n  0x01\n  add\n  dup6\n  sstore\n  dup3\n  iszero\n  tag_27\n  jumpi\n  swap2\n  dup3\n  add\ntag_30:\n  dup3\n  dup2\n  gt\n  iszero\n  tag_31\n  jumpi\n  dup3\n  mload\n  dup3\n  sstore\n  swap2\n  0x20\n  add\n  swap2\n  swap1\n  0x01\n  add\n  swap1\n  jump(tag_30)\ntag_31:\ntag_27:\n  pop\n  swap1\n  pop\n  tag_32\n  swap2\n  swap1\n  tag_33\n  jump\t// in\ntag_32:\n  pop\n  swap1\n  jump\t// out\ntag_33:\ntag_34:\n  dup1\n  dup3\n  gt\n  iszero\n  tag_35\n  jumpi\n  0x00\n  dup2\n  0x00\n  swap1\n  sstore\n  pop\n  0x01\n  add\n  jump(tag_34)\ntag_35:\n  pop\n  swap1\n  jump\t// out\n    /* \"#utility.yul\":7:428   */\ntag_37:\n    /* \"#utility.yul\":96:101   */\n  0x00\n    /* \"#utility.yul\":121:187   */\n  tag_39\n    /* \"#utility.yul\":137:186   */\n  tag_40\n    /* \"#utility.yul\":179:185   */\n  dup5\n    /* \"#utility.yul\":137:186   */\n  tag_41\n  jump\t// in\ntag_40:\n    /* \"#utility.yul\":121:187   */\n  tag_42\n  jump\t// in\ntag_39:\n    /* \"#utility.yul\":112:187   */\n  swap1\n  pop\n    /* \"#utility.yul\":210:216   */\n  dup3\n    /* \"#utility.yul\":203:208   */\n  dup2\n    /* \"#utility.yul\":196:217   */\n  mstore\n    /* \"#utility.yul\":248:252   */\n  0x20\n    /* \"#utility.yul\":241:246   */\n  dup2\n    /* \"#utility.yul\":237:253   */\n  add\n    /* \"#utility.yul\":286:289   */\n  dup5\n    /* \"#utility.yul\":277:283   */\n  dup5\n    /* \"#utility.yul\":272:275   */\n  dup5\n    /* \"#utility.yul\":268:284   */\n  add\n    /* \"#utility.yul\":265:290   */\n  gt\n    /* \"#utility.yul\":262:374   */\n  iszero\n  tag_43\n  jumpi\n    /* \"#utility.yul\":293:372   */\n  tag_44\n  tag_45\n  jump\t// in\ntag_44:\n    /* \"#utility.yul\":262:374   */\ntag_43:\n    /* \"#utility.yul\":383:422   */\n  tag_46\n    /* \"#utility.yul\":415:421   */\n  dup5\n    /* \"#utility.yul\":410:413   */\n  dup3\n    /* \"#utility.yul\":405:408   */\n  dup6\n    /* \"#utility.yul\":383:422   */\n  tag_47\n  jump\t// in\ntag_46:\n    /* \"#utility.yul\":102:428   */\n  pop\n    /* \"#utility.yul\":7:428   */\n  swap4\n  swap3\n  pop\n  pop\n  pop\n  jump\t// out\n    /* \"#utility.yul\":434:577   */\ntag_48:\n    /* \"#utility.yul\":491:496   */\n  0x00\n    /* \"#utility.yul\":522:528   */\n  dup2\n    /* \"#utility.yul\":516:529   */\n  mload\n    /* \"#utility.yul\":507:529   */\n  swap1\n  pop\n    /* \"#utility.yul\":538:571   */\n  tag_50\n    /* \"#utility.yul\":565:570   */\n  dup2\n    /* \"#utility.yul\":538:571   */\n  tag_51\n  jump\t// in\ntag_50:\n    /* \"#utility.yul\":434:577   */\n  swap3\n  swap2\n  pop\n  pop\n  jump\t// out\n    /* \"#utility.yul\":583:720   */\ntag_52:\n    /* \"#utility.yul\":637:642   */\n  0x00\n    /* \"#utility.yul\":668:674   */\n  dup2\n    /* \"#utility.yul\":662:675   */\n  mload\n    /* \"#utility.yul\":653:675   */\n  swap1\n  pop\n    /* \"#utility.yul\":684:714   */\n  tag_54\n    /* \"#utility.yul\":708:713   */\n  dup2\n    /* \"#utility.yul\":684:714   */\n  tag_55\n  jump\t// in\ntag_54:\n    /* \"#utility.yul\":583:720   */\n  swap3\n  swap2\n  pop\n  pop\n  jump\t// out\n    /* \"#utility.yul\":740:1095   */\ntag_56:\n    /* \"#utility.yul\":807:812   */\n  0x00\n    /* \"#utility.yul\":856:859   */\n  dup3\n    /* \"#utility.yul\":849:853   */\n  0x1f\n    /* \"#utility.yul\":841:847   */\n  dup4\n    /* \"#utility.yul\":837:854   */\n  add\n    /* \"#utility.yul\":833:860   */\n  slt\n    /* \"#utility.yul\":823:945   */\n  tag_58\n  jumpi\n    /* \"#utility.yul\":864:943   */\n  tag_59\n  tag_60\n  jump\t// in\ntag_59:\n    /* \"#utility.yul\":823:945   */\ntag_58:\n    /* \"#utility.yul\":974:980   */\n  dup2\n    /* \"#utility.yul\":968:981   */\n  mload\n    /* \"#utility.yul\":999:1089   */\n  tag_61\n    /* \"#utility.yul\":1085:1088   */\n  dup5\n    /* \"#utility.yul\":1077:1083   */\n  dup3\n    /* \"#utility.yul\":1070:1074   */\n  0x20\n    /* \"#utility.yul\":1062:1068   */\n  dup7\n    /* \"#utility.yul\":1058:1075   */\n  add\n    /* \"#utility.yul\":999:1089   */\n  tag_37\n  jump\t// in\ntag_61:\n    /* \"#utility.yul\":990:1089   */\n  swap2\n  pop\n    /* \"#utility.yul\":813:1095   */\n  pop\n    /* \"#utility.yul\":740:1095   */\n  swap3\n  swap2\n  pop\n  pop\n  jump\t// out\n    /* \"#utility.yul\":1101:1446   */\ntag_24:\n    /* \"#utility.yul\":1168:1174   */\n  0x00\n    /* \"#utility.yul\":1217:1219   */\n  0x20\n    /* \"#utility.yul\":1205:1214   */\n  dup3\n    /* \"#utility.yul\":1196:1203   */\n  dup5\n    /* \"#utility.yul\":1192:1215   */\n  sub\n    /* \"#utility.yul\":1188:1220   */\n  slt\n    /* \"#utility.yul\":1185:1304   */\n  iszero\n  tag_63\n  jumpi\n    /* \"#utility.yul\":1223:1302   */\n  tag_64\n  tag_65\n  jump\t// in\ntag_64:\n    /* \"#utility.yul\":1185:1304   */\ntag_63:\n    /* \"#utility.yul\":1343:1344   */\n  0x00\n    /* \"#utility.yul\":1368:1429   */\n  tag_66\n    /* \"#utility.yul\":1421:1428   */\n  dup5\n    /* \"#utility.yul\":1412:1418   */\n  dup3\n    /* \"#utility.yul\":1401:1410   */\n  dup6\n    /* \"#utility.yul\":1397:1419   */\n  add\n    /* \"#utility.yul\":1368:1429   */\n  tag_52\n  jump\t// in\ntag_66:\n    /* \"#utility.yul\":1358:1429   */\n  swap2\n  pop\n    /* \"#utility.yul\":1314:1439   */\n  pop\n    /* \"#utility.yul\":1101:1446   */\n  swap3\n  swap2\n  pop\n  pop\n  jump\t// out\n    /* \"#utility.yul\":1452:2132   */\ntag_3:\n    /* \"#utility.yul\":1541:1547   */\n  0x00\n    /* \"#utility.yul\":1549:1555   */\n  dup1\n    /* \"#utility.yul\":1598:1600   */\n  0x40\n    /* \"#utility.yul\":1586:1595   */\n  dup4\n    /* \"#utility.yul\":1577:1584   */\n  dup6\n    /* \"#utility.yul\":1573:1596   */\n  sub\n    /* \"#utility.yul\":1569:1601   */\n  slt\n    /* \"#utility.yul\":1566:1685   */\n  iszero\n  tag_68\n  jumpi\n    /* \"#utility.yul\":1604:1683   */\n  tag_69\n  tag_65\n  jump\t// in\ntag_69:\n    /* \"#utility.yul\":1566:1685   */\ntag_68:\n    /* \"#utility.yul\":1745:1746   */\n  0x00\n    /* \"#utility.yul\":1734:1743   */\n  dup4\n    /* \"#utility.yul\":1730:1747   */\n  add\n    /* \"#utility.yul\":1724:1748   */\n  mload\n    /* \"#utility.yul\":1775:1793   */\n  0xffffffffffffffff\n    /* \"#utility.yul\":1767:1773   */\n  dup2\n    /* \"#utility.yul\":1764:1794   */\n  gt\n    /* \"#utility.yul\":1761:1878   */\n  iszero\n  tag_70\n  jumpi\n    /* \"#utility.yul\":1797:1876   */\n  tag_71\n  tag_72\n  jump\t// in\ntag_71:\n    /* \"#utility.yul\":1761:1878   */\ntag_70:\n    /* \"#utility.yul\":1902:1976   */\n  tag_73\n    /* \"#utility.yul\":1968:1975   */\n  dup6\n    /* \"#utility.yul\":1959:1965   */\n  dup3\n    /* \"#utility.yul\":1948:1957   */\n  dup7\n    /* \"#utility.yul\":1944:1966   */\n  add\n    /* \"#utility.yul\":1902:1976   */\n  tag_56\n  jump\t// in\ntag_73:\n    /* \"#utility.yul\":1892:1976   */\n  swap3\n  pop\n    /* \"#utility.yul\":1695:1986   */\n  pop\n    /* \"#utility.yul\":2025:2027   */\n  0x20\n    /* \"#utility.yul\":2051:2115   */\n  tag_74\n    /* \"#utility.yul\":2107:2114   */\n  dup6\n    /* \"#utility.yul\":2098:2104   */\n  dup3\n    /* \"#utility.yul\":2087:2096   */\n  dup7\n    /* \"#utility.yul\":2083:2105   */\n  add\n    /* \"#utility.yul\":2051:2115   */\n  tag_48\n  jump\t// in\ntag_74:\n    /* \"#utility.yul\":2041:2115   */\n  swap2\n  pop\n    /* \"#utility.yul\":1996:2125   */\n  pop\n    /* \"#utility.yul\":1452:2132   */\n  swap3\n  pop\n  swap3\n  swap1\n  pop\n  jump\t// out\n    /* \"#utility.yul\":2138:2256   */\ntag_75:\n    /* \"#utility.yul\":2225:2249   */\n  tag_77\n    /* \"#utility.yul\":2243:2248   */\n  dup2\n    /* \"#utility.yul\":2225:2249   */\n  tag_78\n  jump\t// in\ntag_77:\n    /* \"#utility.yul\":2220:2223   */\n  dup3\n    /* \"#utility.yul\":2213:2250   */\n  mstore\n    /* \"#utility.yul\":2138:2256   */\n  pop\n  pop\n  jump\t// out\n    /* \"#utility.yul\":2262:2626   */\ntag_79:\n    /* \"#utility.yul\":2350:2353   */\n  0x00\n    /* \"#utility.yul\":2378:2417   */\n  tag_81\n    /* \"#utility.yul\":2411:2416   */\n  dup3\n    /* \"#utility.yul\":2378:2417   */\n  tag_82\n  jump\t// in\ntag_81:\n    /* \"#utility.yul\":2433:2504   */\n  tag_83\n    /* \"#utility.yul\":2497:2503   */\n  dup2\n    /* \"#utility.yul\":2492:2495   */\n  dup6\n    /* \"#utility.yul\":2433:2504   */\n  tag_84\n  jump\t// in\ntag_83:\n    /* \"#utility.yul\":2426:2504   */\n  swap4\n  pop\n    /* \"#utility.yul\":2513:2565   */\n  tag_85\n    /* \"#utility.yul\":2558:2564   */\n  dup2\n    /* \"#utility.yul\":2553:2556   */\n  dup6\n    /* \"#utility.yul\":2546:2550   */\n  0x20\n    /* \"#utility.yul\":2539:2544   */\n  dup7\n    /* \"#utility.yul\":2535:2551   */\n  add\n    /* \"#utility.yul\":2513:2565   */\n  tag_47\n  jump\t// in\ntag_85:\n    /* \"#utility.yul\":2590:2619   */\n  tag_86\n    /* \"#utility.yul\":2612:2618   */\n  dup2\n    /* \"#utility.yul\":2590:2619   */\n  tag_87\n  jump\t// in\ntag_86:\n    /* \"#utility.yul\":2585:2588   */\n  dup5\n    /* \"#utility.yul\":2581:2620   */\n  add\n    /* \"#utility.yul\":2574:2620   */\n  swap2\n  pop\n    /* \"#utility.yul\":2354:2626   */\n  pop\n    /* \"#utility.yul\":2262:2626   */\n  swap3\n  swap2\n  pop\n  pop\n  jump\t// out\n    /* \"#utility.yul\":2632:2998   */\ntag_88:\n    /* \"#utility.yul\":2774:2777   */\n  0x00\n    /* \"#utility.yul\":2795:2862   */\n  tag_90\n    /* \"#utility.yul\":2859:2861   */\n  0x14\n    /* \"#utility.yul\":2854:2857   */\n  dup4\n    /* \"#utility.yul\":2795:2862   */\n  tag_84\n  jump\t// in\ntag_90:\n    /* \"#utility.yul\":2788:2862   */\n  swap2\n  pop\n    /* \"#utility.yul\":2871:2964   */\n  tag_91\n    /* \"#utility.yul\":2960:2963   */\n  dup3\n    /* \"#utility.yul\":2871:2964   */\n  tag_92\n  jump\t// in\ntag_91:\n    /* \"#utility.yul\":2989:2991   */\n  0x20\n    /* \"#utility.yul\":2984:2987   */\n  dup3\n    /* \"#utility.yul\":2980:2992   */\n  add\n    /* \"#utility.yul\":2973:2992   */\n  swap1\n  pop\n    /* \"#utility.yul\":2632:2998   */\n  swap2\n  swap1\n  pop\n  jump\t// out\n    /* \"#utility.yul\":3004:3226   */\ntag_19:\n    /* \"#utility.yul\":3097:3101   */\n  0x00\n    /* \"#utility.yul\":3135:3137   */\n  0x20\n    /* \"#utility.yul\":3124:3133   */\n  dup3\n    /* \"#utility.yul\":3120:3138   */\n  add\n    /* \"#utility.yul\":3112:3138   */\n  swap1\n  pop\n    /* \"#utility.yul\":3148:3219   */\n  tag_94\n    /* \"#utility.yul\":3216:3217   */\n  0x00\n    /* \"#utility.yul\":3205:3214   */\n  dup4\n    /* \"#utility.yul\":3201:3218   */\n  add\n    /* \"#utility.yul\":3192:3198   */\n  dup5\n    /* \"#utility.yul\":3148:3219   */\n  tag_75\n  jump\t// in\ntag_94:\n    /* \"#utility.yul\":3004:3226   */\n  swap3\n  swap2\n  pop\n  pop\n  jump\t// out\n    /* \"#utility.yul\":3232:3655   */\ntag_15:\n    /* \"#utility.yul\":3373:3377   */\n  0x00\n    /* \"#utility.yul\":3411:3413   */\n  0x40\n    /* \"#utility.yul\":3400:3409   */\n  dup3\n    /* \"#utility.yul\":3396:3414   */\n  add\n    /* \"#utility.yul\":3388:3414   */\n  swap1\n  pop\n    /* \"#utility.yul\":3460:3469   */\n  dup2\n    /* \"#utility.yul\":3454:3458   */\n  dup2\n    /* \"#utility.yul\":3450:3470   */\n  sub\n    /* \"#utility.yul\":3446:3447   */\n  0x00\n    /* \"#utility.yul\":3435:3444   */\n  dup4\n    /* \"#utility.yul\":3431:3448   */\n  add\n    /* \"#utility.yul\":3424:3471   */\n  mstore\n    /* \"#utility.yul\":3488:3566   */\n  tag_96\n    /* \"#utility.yul\":3561:3565   */\n  dup2\n    /* \"#utility.yul\":3552:3558   */\n  dup6\n    /* \"#utility.yul\":3488:3566   */\n  tag_79\n  jump\t// in\ntag_96:\n    /* \"#utility.yul\":3480:3566   */\n  swap1\n  pop\n    /* \"#utility.yul\":3576:3648   */\n  tag_97\n    /* \"#utility.yul\":3644:3646   */\n  0x20\n    /* \"#utility.yul\":3633:3642   */\n  dup4\n    /* \"#utility.yul\":3629:3647   */\n  add\n    /* \"#utility.yul\":3620:3626   */\n  dup5\n    /* \"#utility.yul\":3576:3648   */\n  tag_75\n  jump\t// in\ntag_97:\n    /* \"#utility.yul\":3232:3655   */\n  swap4\n  swap3\n  pop\n  pop\n  pop\n  jump\t// out\n    /* \"#utility.yul\":3661:4080   */\ntag_10:\n    /* \"#utility.yul\":3827:3831   */\n  0x00\n    /* \"#utility.yul\":3865:3867   */\n  0x20\n    /* \"#utility.yul\":3854:3863   */\n  dup3\n    /* \"#utility.yul\":3850:3868   */\n  add\n    /* \"#utility.yul\":3842:3868   */\n  swap1\n  pop\n    /* \"#utility.yul\":3914:3923   */\n  dup2\n    /* \"#utility.yul\":3908:3912   */\n  dup2\n    /* \"#utility.yul\":3904:3924   */\n  sub\n    /* \"#utility.yul\":3900:3901   */\n  0x00\n    /* \"#utility.yul\":3889:3898   */\n  dup4\n    /* \"#utility.yul\":3885:3902   */\n  add\n    /* \"#utility.yul\":3878:3925   */\n  mstore\n    /* \"#utility.yul\":3942:4073   */\n  tag_99\n    /* \"#utility.yul\":4068:4072   */\n  dup2\n    /* \"#utility.yul\":3942:4073   */\n  tag_88\n  jump\t// in\ntag_99:\n    /* \"#utility.yul\":3934:4073   */\n  swap1\n  pop\n    /* \"#utility.yul\":3661:4080   */\n  swap2\n  swap1\n  pop\n  jump\t// out\n    /* \"#utility.yul\":4086:4215   */\ntag_42:\n    /* \"#utility.yul\":4120:4126   */\n  0x00\n    /* \"#utility.yul\":4147:4167   */\n  tag_101\n  tag_102\n  jump\t// in\ntag_101:\n    /* \"#utility.yul\":4137:4167   */\n  swap1\n  pop\n    /* \"#utility.yul\":4176:4209   */\n  tag_103\n    /* \"#utility.yul\":4204:4208   */\n  dup3\n    /* \"#utility.yul\":4196:4202   */\n  dup3\n    /* \"#utility.yul\":4176:4209   */\n  tag_104\n  jump\t// in\ntag_103:\n    /* \"#utility.yul\":4086:4215   */\n  swap2\n  swap1\n  pop\n  jump\t// out\n    /* \"#utility.yul\":4221:4296   */\ntag_102:\n    /* \"#utility.yul\":4254:4260   */\n  0x00\n    /* \"#utility.yul\":4287:4289   */\n  0x40\n    /* \"#utility.yul\":4281:4290   */\n  mload\n    /* \"#utility.yul\":4271:4290   */\n  swap1\n  pop\n    /* \"#utility.yul\":4221:4296   */\n  swap1\n  jump\t// out\n    /* \"#utility.yul\":4302:4610   */\ntag_41:\n    /* \"#utility.yul\":4364:4368   */\n  0x00\n    /* \"#utility.yul\":4454:4472   */\n  0xffffffffffffffff\n    /* \"#utility.yul\":4446:4452   */\n  dup3\n    /* \"#utility.yul\":4443:4473   */\n  gt\n    /* \"#utility.yul\":4440:4496   */\n  iszero\n  tag_107\n  jumpi\n    /* \"#utility.yul\":4476:4494   */\n  tag_108\n  tag_109\n  jump\t// in\ntag_108:\n    /* \"#utility.yul\":4440:4496   */\ntag_107:\n    /* \"#utility.yul\":4514:4543   */\n  tag_110\n    /* \"#utility.yul\":4536:4542   */\n  dup3\n    /* \"#utility.yul\":4514:4543   */\n  tag_87\n  jump\t// in\ntag_110:\n    /* \"#utility.yul\":4506:4543   */\n  swap1\n  pop\n    /* \"#utility.yul\":4598:4602   */\n  0x20\n    /* \"#utility.yul\":4592:4596   */\n  dup2\n    /* \"#utility.yul\":4588:4603   */\n  add\n    /* \"#utility.yul\":4580:4603   */\n  swap1\n  pop\n    /* \"#utility.yul\":4302:4610   */\n  swap2\n  swap1\n  pop\n  jump\t// out\n    /* \"#utility.yul\":4616:4715   */\ntag_82:\n    /* \"#utility.yul\":4668:4674   */\n  0x00\n    /* \"#utility.yul\":4702:4707   */\n  dup2\n    /* \"#utility.yul\":4696:4708   */\n  mload\n    /* \"#utility.yul\":4686:4708   */\n  swap1\n  pop\n    /* \"#utility.yul\":4616:4715   */\n  swap2\n  swap1\n  pop\n  jump\t// out\n    /* \"#utility.yul\":4721:4890   */\ntag_84:\n    /* \"#utility.yul\":4805:4816   */\n  0x00\n    /* \"#utility.yul\":4839:4845   */\n  dup3\n    /* \"#utility.yul\":4834:4837   */\n  dup3\n    /* \"#utility.yul\":4827:4846   */\n  mstore\n    /* \"#utility.yul\":4879:4883   */\n  0x20\n    /* \"#utility.yul\":4874:4877   */\n  dup3\n    /* \"#utility.yul\":4870:4884   */\n  add\n    /* \"#utility.yul\":4855:4884   */\n  swap1\n  pop\n    /* \"#utility.yul\":4721:4890   */\n  swap3\n  swap2\n  pop\n  pop\n  jump\t// out\n    /* \"#utility.yul\":4896:4992   */\ntag_78:\n    /* \"#utility.yul\":4933:4940   */\n  0x00\n    /* \"#utility.yul\":4962:4986   */\n  tag_114\n    /* \"#utility.yul\":4980:4985   */\n  dup3\n    /* \"#utility.yul\":4962:4986   */\n  tag_115\n  jump\t// in\ntag_114:\n    /* \"#utility.yul\":4951:4986   */\n  swap1\n  pop\n    /* \"#utility.yul\":4896:4992   */\n  swap2\n  swap1\n  pop\n  jump\t// out\n    /* \"#utility.yul\":4998:5088   */\ntag_116:\n    /* \"#utility.yul\":5032:5039   */\n  0x00\n    /* \"#utility.yul\":5075:5080   */\n  dup2\n    /* \"#utility.yul\":5068:5081   */\n  iszero\n    /* \"#utility.yul\":5061:5082   */\n  iszero\n    /* \"#utility.yul\":5050:5082   */\n  swap1\n  pop\n    /* \"#utility.yul\":4998:5088   */\n  swap2\n  swap1\n  pop\n  jump\t// out\n    /* \"#utility.yul\":5094:5220   */\ntag_115:\n    /* \"#utility.yul\":5131:5138   */\n  0x00\n    /* \"#utility.yul\":5171:5213   */\n  0xffffffffffffffffffffffffffffffffffffffff\n    /* \"#utility.yul\":5164:5169   */\n  dup3\n    /* \"#utility.yul\":5160:5214   */\n  and\n    /* \"#utility.yul\":5149:5214   */\n  swap1\n  pop\n    /* \"#utility.yul\":5094:5220   */\n  swap2\n  swap1\n  pop\n  jump\t// out\n    /* \"#utility.yul\":5226:5533   */\ntag_47:\n    /* \"#utility.yul\":5294:5295   */\n  0x00\n    /* \"#utility.yul\":5304:5417   */\ntag_120:\n    /* \"#utility.yul\":5318:5324   */\n  dup4\n    /* \"#utility.yul\":5315:5316   */\n  dup2\n    /* \"#utility.yul\":5312:5325   */\n  lt\n    /* \"#utility.yul\":5304:5417   */\n  iszero\n  tag_122\n  jumpi\n    /* \"#utility.yul\":5403:5404   */\n  dup1\n    /* \"#utility.yul\":5398:5401   */\n  dup3\n    /* \"#utility.yul\":5394:5405   */\n  add\n    /* \"#utility.yul\":5388:5406   */\n  mload\n    /* \"#utility.yul\":5384:5385   */\n  dup2\n    /* \"#utility.yul\":5379:5382   */\n  dup5\n    /* \"#utility.yul\":5375:5386   */\n  add\n    /* \"#utility.yul\":5368:5407   */\n  mstore\n    /* \"#utility.yul\":5340:5342   */\n  0x20\n    /* \"#utility.yul\":5337:5338   */\n  dup2\n    /* \"#utility.yul\":5333:5343   */\n  add\n    /* \"#utility.yul\":5328:5343   */\n  swap1\n  pop\n    /* \"#utility.yul\":5304:5417   */\n  jump(tag_120)\ntag_122:\n    /* \"#utility.yul\":5435:5441   */\n  dup4\n    /* \"#utility.yul\":5432:5433   */\n  dup2\n    /* \"#utility.yul\":5429:5442   */\n  gt\n    /* \"#utility.yul\":5426:5527   */\n  iszero\n  tag_123\n  jumpi\n    /* \"#utility.yul\":5515:5516   */\n  0x00\n    /* \"#utility.yul\":5506:5512   */\n  dup5\n    /* \"#utility.yul\":5501:5504   */\n  dup5\n    /* \"#utility.yul\":5497:5513   */\n  add\n    /* \"#utility.yul\":5490:5517   */\n  mstore\n    /* \"#utility.yul\":5426:5527   */\ntag_123:\n    /* \"#utility.yul\":5275:5533   */\n  pop\n    /* \"#utility.yul\":5226:5533   */\n  pop\n  pop\n  pop\n  jump\t// out\n    /* \"#utility.yul\":5539:5859   */\ntag_26:\n    /* \"#utility.yul\":5583:5589   */\n  0x00\n    /* \"#utility.yul\":5620:5621   */\n  0x02\n    /* \"#utility.yul\":5614:5618   */\n  dup3\n    /* \"#utility.yul\":5610:5622   */\n  div\n    /* \"#utility.yul\":5600:5622   */\n  swap1\n  pop\n    /* \"#utility.yul\":5667:5668   */\n  0x01\n    /* \"#utility.yul\":5661:5665   */\n  dup3\n    /* \"#utility.yul\":5657:5669   */\n  and\n    /* \"#utility.yul\":5688:5706   */\n  dup1\n    /* \"#utility.yul\":5678:5759   */\n  tag_125\n  jumpi\n    /* \"#utility.yul\":5744:5748   */\n  0x7f\n    /* \"#utility.yul\":5736:5742   */\n  dup3\n    /* \"#utility.yul\":5732:5749   */\n  and\n    /* \"#utility.yul\":5722:5749   */\n  swap2\n  pop\n    /* \"#utility.yul\":5678:5759   */\ntag_125:\n    /* \"#utility.yul\":5806:5808   */\n  0x20\n    /* \"#utility.yul\":5798:5804   */\n  dup3\n    /* \"#utility.yul\":5795:5809   */\n  lt\n    /* \"#utility.yul\":5775:5793   */\n  dup2\n    /* \"#utility.yul\":5772:5810   */\n  eq\n    /* \"#utility.yul\":5769:5853   */\n  iszero\n  tag_126\n  jumpi\n    /* \"#utility.yul\":5825:5843   */\n  tag_127\n  tag_128\n  jump\t// in\ntag_127:\n    /* \"#utility.yul\":5769:5853   */\ntag_126:\n    /* \"#utility.yul\":5590:5859   */\n  pop\n    /* \"#utility.yul\":5539:5859   */\n  swap2\n  swap1\n  pop\n  jump\t// out\n    /* \"#utility.yul\":5865:6146   */\ntag_104:\n    /* \"#utility.yul\":5948:5975   */\n  tag_130\n    /* \"#utility.yul\":5970:5974   */\n  dup3\n    /* \"#utility.yul\":5948:5975   */\n  tag_87\n  jump\t// in\ntag_130:\n    /* \"#utility.yul\":5940:5946   */\n  dup2\n    /* \"#utility.yul\":5936:5976   */\n  add\n    /* \"#utility.yul\":6078:6084   */\n  dup2\n    /* \"#utility.yul\":6066:6076   */\n  dup2\n    /* \"#utility.yul\":6063:6085   */\n  lt\n    /* \"#utility.yul\":6042:6060   */\n  0xffffffffffffffff\n    /* \"#utility.yul\":6030:6040   */\n  dup3\n    /* \"#utility.yul\":6027:6061   */\n  gt\n    /* \"#utility.yul\":6024:6086   */\n  or\n    /* \"#utility.yul\":6021:6109   */\n  iszero\n  tag_131\n  jumpi\n    /* \"#utility.yul\":6089:6107   */\n  tag_132\n  tag_109\n  jump\t// in\ntag_132:\n    /* \"#utility.yul\":6021:6109   */\ntag_131:\n    /* \"#utility.yul\":6129:6139   */\n  dup1\n    /* \"#utility.yul\":6125:6127   */\n  0x40\n    /* \"#utility.yul\":6118:6140   */\n  mstore\n    /* \"#utility.yul\":5908:6146   */\n  pop\n    /* \"#utility.yul\":5865:6146   */\n  pop\n  pop\n  jump\t// out\n    /* \"#utility.yul\":6152:6332   */\ntag_128:\n    /* \"#utility.yul\":6200:6277   */\n  0x4e487b7100000000000000000000000000000000000000000000000000000000\n    /* \"#utility.yul\":6197:6198   */\n  0x00\n    /* \"#utility.yul\":6190:6278   */\n  mstore\n    /* \"#utility.yul\":6297:6301   */\n  0x22\n    /* \"#utility.yul\":6294:6295   */\n  0x04\n    /* \"#utility.yul\":6287:6302   */\n  mstore\n    /* \"#utility.yul\":6321:6325   */\n  0x24\n    /* \"#utility.yul\":6318:6319   */\n  0x00\n    /* \"#utility.yul\":6311:6326   */\n  revert\n    /* \"#utility.yul\":6338:6518   */\ntag_109:\n    /* \"#utility.yul\":6386:6463   */\n  0x4e487b7100000000000000000000000000000000000000000000000000000000\n    /* \"#utility.yul\":6383:6384   */\n  0x00\n    /* \"#utility.yul\":6376:6464   */\n  mstore\n    /* \"#utility.yul\":6483:6487   */\n  0x41\n    /* \"#utility.yul\":6480:6481   */\n  0x04\n    /* \"#utility.yul\":6473:6488   */\n  mstore\n    /* \"#utility.yul\":6507:6511   */\n  0x24\n    /* \"#utility.yul\":6504:6505   */\n  0x00\n    /* \"#utility.yul\":6497:6512   */\n  revert\n    /* \"#utility.yul\":6524:6641   */\ntag_60:\n    /* \"#utility.yul\":6633:6634   */\n  0x00\n    /* \"#utility.yul\":6630:6631   */\n  dup1\n    /* \"#utility.yul\":6623:6635   */\n  revert\n    /* \"#utility.yul\":6647:6764   */\ntag_45:\n    /* \"#utility.yul\":6756:6757   */\n  0x00\n    /* \"#utility.yul\":6753:6754   */\n  dup1\n    /* \"#utility.yul\":6746:6758   */\n  revert\n    /* \"#utility.yul\":6770:6887   */\ntag_72:\n    /* \"#utility.yul\":6879:6880   */\n  0x00\n    /* \"#utility.yul\":6876:6877   */\n  dup1\n    /* \"#utility.yul\":6869:6881   */\n  revert\n    /* \"#utility.yul\":6893:7010   */\ntag_65:\n    /* \"#utility.yul\":7002:7003   */\n  0x00\n    /* \"#utility.yul\":6999:7000   */\n  dup1\n    /* \"#utility.yul\":6992:7004   */\n  revert\n    /* \"#utility.yul\":7016:7118   */\ntag_87:\n    /* \"#utility.yul\":7057:7063   */\n  0x00\n    /* \"#utility.yul\":7108:7110   */\n  0x1f\n    /* \"#utility.yul\":7104:7111   */\n  not\n    /* \"#utility.yul\":7099:7101   */\n  0x1f\n    /* \"#utility.yul\":7092:7097   */\n  dup4\n    /* \"#utility.yul\":7088:7102   */\n  add\n    /* \"#utility.yul\":7084:7112   */\n  and\n    /* \"#utility.yul\":7074:7112   */\n  swap1\n  pop\n    /* \"#utility.yul\":7016:7118   */\n  swap2\n  swap1\n  pop\n  jump\t// out\n    /* \"#utility.yul\":7124:7294   */\ntag_92:\n    /* \"#utility.yul\":7264:7286   */\n  0x5f7369676e6572206973206e6f742076616c6964000000000000000000000000\n    /* \"#utility.yul\":7260:7261   */\n  0x00\n    /* \"#utility.yul\":7252:7258   */\n  dup3\n    /* \"#utility.yul\":7248:7262   */\n  add\n    /* \"#utility.yul\":7241:7287   */\n  mstore\n    /* \"#utility.yul\":7124:7294   */\n  pop\n  jump\t// out\n    /* \"#utility.yul\":7300:7422   */\ntag_51:\n    /* \"#utility.yul\":7373:7397   */\n  tag_142\n    /* \"#utility.yul\":7391:7396   */\n  dup2\n    /* \"#utility.yul\":7373:7397   */\n  tag_78\n  jump\t// in\ntag_142:\n    /* \"#utility.yul\":7366:7371   */\n  dup2\n    /* \"#utility.yul\":7363:7398   */\n  eq\n    /* \"#utility.yul\":7353:7416   */\n  tag_143\n  jumpi\n    /* \"#utility.yul\":7412:7413   */\n  0x00\n    /* \"#utility.yul\":7409:7410   */\n  dup1\n    /* \"#utility.yul\":7402:7414   */\n  revert\n    /* \"#utility.yul\":7353:7416   */\ntag_143:\n    /* \"#utility.yul\":7300:7422   */\n  pop\n  jump\t// out\n    /* \"#utility.yul\":7428:7544   */\ntag_55:\n    /* \"#utility.yul\":7498:7519   */\n  tag_145\n    /* \"#utility.yul\":7513:7518   */\n  dup2\n    /* \"#utility.yul\":7498:7519   */\n  tag_116\n  jump\t// in\ntag_145:\n    /* \"#utility.yul\":7491:7496   */\n  dup2\n    /* \"#utility.yul\":7488:7520   */\n  eq\n    /* \"#utility.yul\":7478:7538   */\n  tag_146\n  jumpi\n    /* \"#utility.yul\":7534:7535   */\n  0x00\n    /* \"#utility.yul\":7531:7532   */\n  dup1\n    /* \"#utility.yul\":7524:7536   */\n  revert\n    /* \"#utility.yul\":7478:7538   */\ntag_146:\n    /* \"#utility.yul\":7428:7544   */\n  pop\n  jump\t// out\n    /* \"evidence/evidence.sol\":279:966  contract Evidence {\r... */\ntag_16:\n  dataSize(sub_0)\n  dup1\n  dataOffset(sub_0)\n  0x00\n  codecopy\n  0x00\n  return\nstop\n\nsub_0: assembly {\n        /* \"evidence/evidence.sol\":279:966  contract Evidence {\r... */\n      mstore(0x40, 0x80)\n      callvalue\n      dup1\n      iszero\n      tag_1\n      jumpi\n      0x00\n      dup1\n      revert\n    tag_1:\n      pop\n      jumpi(tag_2, lt(calldatasize, 0x04))\n      shr(0xe0, calldataload(0x00))\n      dup1\n      0x50ca0928\n      eq\n      tag_3\n      jumpi\n      dup1\n      0x963671be\n      eq\n      tag_4\n      jumpi\n    tag_2:\n      0x00\n      dup1\n      revert\n        /* \"evidence/evidence.sol\":530:655  function callVerify(address _signer) public view returns(bool){\r... */\n    tag_3:\n      tag_5\n      0x04\n      dup1\n      calldatasize\n      sub\n      dup2\n      add\n      swap1\n      tag_6\n      swap2\n      swap1\n      tag_7\n      jump\t// in\n    tag_6:\n      tag_8\n      jump\t// in\n    tag_5:\n      mload(0x40)\n      tag_9\n      swap2\n      swap1\n      tag_10\n      jump\t// in\n    tag_9:\n      mload(0x40)\n      dup1\n      swap2\n      sub\n      swap1\n      return\n        /* \"evidence/evidence.sol\":390:416  address public factoryAddr */\n    tag_4:\n      tag_11\n      tag_12\n      jump\t// in\n    tag_11:\n      mload(0x40)\n      tag_13\n      swap2\n      swap1\n      tag_14\n      jump\t// in\n    tag_13:\n      mload(0x40)\n      dup1\n      swap2\n      sub\n      swap1\n      return\n        /* \"evidence/evidence.sol\":530:655  function callVerify(address _signer) public view returns(bool){\r... */\n    tag_8:\n        /* \"evidence/evidence.sol\":587:591  bool */\n      0x00\n        /* \"evidence/evidence.sol\":619:630  factoryAddr */\n      0x02\n      0x00\n      swap1\n      sload\n      swap1\n      0x0100\n      exp\n      swap1\n      div\n      0xffffffffffffffffffffffffffffffffffffffff\n      and\n        /* \"evidence/evidence.sol\":610:638  IEvdence(factoryAddr).verify */\n      0xffffffffffffffffffffffffffffffffffffffff\n      and\n      0x63a9c3d7\n        /* \"evidence/evidence.sol\":639:646  _signer */\n      dup4\n        /* \"evidence/evidence.sol\":610:647  IEvdence(factoryAddr).verify(_signer) */\n      mload(0x40)\n      dup3\n      0xffffffff\n      and\n      0xe0\n      shl\n      dup2\n      mstore\n      0x04\n      add\n      tag_16\n      swap2\n      swap1\n      tag_14\n      jump\t// in\n    tag_16:\n      0x20\n      mload(0x40)\n      dup1\n      dup4\n      sub\n      dup2\n      dup7\n      dup1\n      extcodesize\n      iszero\n      dup1\n      iszero\n      tag_17\n      jumpi\n      0x00\n      dup1\n      revert\n    tag_17:\n      pop\n      gas\n      staticcall\n      iszero\n      dup1\n      iszero\n      tag_19\n      jumpi\n      returndatasize\n      0x00\n      dup1\n      returndatacopy\n      revert(0x00, returndatasize)\n    tag_19:\n      pop\n      pop\n      pop\n      pop\n      mload(0x40)\n      returndatasize\n      not(0x1f)\n      0x1f\n      dup3\n      add\n      and\n      dup3\n      add\n      dup1\n      0x40\n      mstore\n      pop\n      dup2\n      add\n      swap1\n      tag_20\n      swap2\n      swap1\n      tag_21\n      jump\t// in\n    tag_20:\n        /* \"evidence/evidence.sol\":603:647  return IEvdence(factoryAddr).verify(_signer) */\n      swap1\n      pop\n        /* \"evidence/evidence.sol\":530:655  function callVerify(address _signer) public view returns(bool){\r... */\n      swap2\n      swap1\n      pop\n      jump\t// out\n        /* \"evidence/evidence.sol\":390:416  address public factoryAddr */\n    tag_12:\n      0x02\n      0x00\n      swap1\n      sload\n      swap1\n      0x0100\n      exp\n      swap1\n      div\n      0xffffffffffffffffffffffffffffffffffffffff\n      and\n      dup2\n      jump\t// out\n        /* \"#utility.yul\":7:146   */\n    tag_23:\n        /* \"#utility.yul\":53:58   */\n      0x00\n        /* \"#utility.yul\":91:97   */\n      dup2\n        /* \"#utility.yul\":78:98   */\n      calldataload\n        /* \"#utility.yul\":69:98   */\n      swap1\n      pop\n        /* \"#utility.yul\":107:140   */\n      tag_25\n        /* \"#utility.yul\":134:139   */\n      dup2\n        /* \"#utility.yul\":107:140   */\n      tag_26\n      jump\t// in\n    tag_25:\n        /* \"#utility.yul\":7:146   */\n      swap3\n      swap2\n      pop\n      pop\n      jump\t// out\n        /* \"#utility.yul\":152:289   */\n    tag_27:\n        /* \"#utility.yul\":206:211   */\n      0x00\n        /* \"#utility.yul\":237:243   */\n      dup2\n        /* \"#utility.yul\":231:244   */\n      mload\n        /* \"#utility.yul\":222:244   */\n      swap1\n      pop\n        /* \"#utility.yul\":253:283   */\n      tag_29\n        /* \"#utility.yul\":277:282   */\n      dup2\n        /* \"#utility.yul\":253:283   */\n      tag_30\n      jump\t// in\n    tag_29:\n        /* \"#utility.yul\":152:289   */\n      swap3\n      swap2\n      pop\n      pop\n      jump\t// out\n        /* \"#utility.yul\":295:624   */\n    tag_7:\n        /* \"#utility.yul\":354:360   */\n      0x00\n        /* \"#utility.yul\":403:405   */\n      0x20\n        /* \"#utility.yul\":391:400   */\n      dup3\n        /* \"#utility.yul\":382:389   */\n      dup5\n        /* \"#utility.yul\":378:401   */\n      sub\n        /* \"#utility.yul\":374:406   */\n      slt\n        /* \"#utility.yul\":371:490   */\n      iszero\n      tag_32\n      jumpi\n        /* \"#utility.yul\":409:488   */\n      tag_33\n      tag_34\n      jump\t// in\n    tag_33:\n        /* \"#utility.yul\":371:490   */\n    tag_32:\n        /* \"#utility.yul\":529:530   */\n      0x00\n        /* \"#utility.yul\":554:607   */\n      tag_35\n        /* \"#utility.yul\":599:606   */\n      dup5\n        /* \"#utility.yul\":590:596   */\n      dup3\n        /* \"#utility.yul\":579:588   */\n      dup6\n        /* \"#utility.yul\":575:597   */\n      add\n        /* \"#utility.yul\":554:607   */\n      tag_23\n      jump\t// in\n    tag_35:\n        /* \"#utility.yul\":544:607   */\n      swap2\n      pop\n        /* \"#utility.yul\":500:617   */\n      pop\n        /* \"#utility.yul\":295:624   */\n      swap3\n      swap2\n      pop\n      pop\n      jump\t// out\n        /* \"#utility.yul\":630:975   */\n    tag_21:\n        /* \"#utility.yul\":697:703   */\n      0x00\n        /* \"#utility.yul\":746:748   */\n      0x20\n        /* \"#utility.yul\":734:743   */\n      dup3\n        /* \"#utility.yul\":725:732   */\n      dup5\n        /* \"#utility.yul\":721:744   */\n      sub\n        /* \"#utility.yul\":717:749   */\n      slt\n        /* \"#utility.yul\":714:833   */\n      iszero\n      tag_37\n      jumpi\n        /* \"#utility.yul\":752:831   */\n      tag_38\n      tag_34\n      jump\t// in\n    tag_38:\n        /* \"#utility.yul\":714:833   */\n    tag_37:\n        /* \"#utility.yul\":872:873   */\n      0x00\n        /* \"#utility.yul\":897:958   */\n      tag_39\n        /* \"#utility.yul\":950:957   */\n      dup5\n        /* \"#utility.yul\":941:947   */\n      dup3\n        /* \"#utility.yul\":930:939   */\n      dup6\n        /* \"#utility.yul\":926:948   */\n      add\n        /* \"#utility.yul\":897:958   */\n      tag_27\n      jump\t// in\n    tag_39:\n        /* \"#utility.yul\":887:958   */\n      swap2\n      pop\n        /* \"#utility.yul\":843:968   */\n      pop\n        /* \"#utility.yul\":630:975   */\n      swap3\n      swap2\n      pop\n      pop\n      jump\t// out\n        /* \"#utility.yul\":981:1099   */\n    tag_40:\n        /* \"#utility.yul\":1068:1092   */\n      tag_42\n        /* \"#utility.yul\":1086:1091   */\n      dup2\n        /* \"#utility.yul\":1068:1092   */\n      tag_43\n      jump\t// in\n    tag_42:\n        /* \"#utility.yul\":1063:1066   */\n      dup3\n        /* \"#utility.yul\":1056:1093   */\n      mstore\n        /* \"#utility.yul\":981:1099   */\n      pop\n      pop\n      jump\t// out\n        /* \"#utility.yul\":1105:1214   */\n    tag_44:\n        /* \"#utility.yul\":1186:1207   */\n      tag_46\n        /* \"#utility.yul\":1201:1206   */\n      dup2\n        /* \"#utility.yul\":1186:1207   */\n      tag_47\n      jump\t// in\n    tag_46:\n        /* \"#utility.yul\":1181:1184   */\n      dup3\n        /* \"#utility.yul\":1174:1208   */\n      mstore\n        /* \"#utility.yul\":1105:1214   */\n      pop\n      pop\n      jump\t// out\n        /* \"#utility.yul\":1220:1442   */\n    tag_14:\n        /* \"#utility.yul\":1313:1317   */\n      0x00\n        /* \"#utility.yul\":1351:1353   */\n      0x20\n        /* \"#utility.yul\":1340:1349   */\n      dup3\n        /* \"#utility.yul\":1336:1354   */\n      add\n        /* \"#utility.yul\":1328:1354   */\n      swap1\n      pop\n        /* \"#utility.yul\":1364:1435   */\n      tag_49\n        /* \"#utility.yul\":1432:1433   */\n      0x00\n        /* \"#utility.yul\":1421:1430   */\n      dup4\n        /* \"#utility.yul\":1417:1434   */\n      add\n        /* \"#utility.yul\":1408:1414   */\n      dup5\n        /* \"#utility.yul\":1364:1435   */\n      tag_40\n      jump\t// in\n    tag_49:\n        /* \"#utility.yul\":1220:1442   */\n      swap3\n      swap2\n      pop\n      pop\n      jump\t// out\n        /* \"#utility.yul\":1448:1658   */\n    tag_10:\n        /* \"#utility.yul\":1535:1539   */\n      0x00\n        /* \"#utility.yul\":1573:1575   */\n      0x20\n        /* \"#utility.yul\":1562:1571   */\n      dup3\n        /* \"#utility.yul\":1558:1576   */\n      add\n        /* \"#utility.yul\":1550:1576   */\n      swap1\n      pop\n        /* \"#utility.yul\":1586:1651   */\n      tag_51\n        /* \"#utility.yul\":1648:1649   */\n      0x00\n        /* \"#utility.yul\":1637:1646   */\n      dup4\n        /* \"#utility.yul\":1633:1650   */\n      add\n        /* \"#utility.yul\":1624:1630   */\n      dup5\n        /* \"#utility.yul\":1586:1651   */\n      tag_44\n      jump\t// in\n    tag_51:\n        /* \"#utility.yul\":1448:1658   */\n      swap3\n      swap2\n      pop\n      pop\n      jump\t// out\n        /* \"#utility.yul\":1745:1841   */\n    tag_43:\n        /* \"#utility.yul\":1782:1789   */\n      0x00\n        /* \"#utility.yul\":1811:1835   */\n      tag_55\n        /* \"#utility.yul\":1829:1834   */\n      dup3\n        /* \"#utility.yul\":1811:1835   */\n      tag_56\n      jump\t// in\n    tag_55:\n        /* \"#utility.yul\":1800:1835   */\n      swap1\n      pop\n        /* \"#utility.yul\":1745:1841   */\n      swap2\n      swap1\n      pop\n      jump\t// out\n        /* \"#utility.yul\":1847:1937   */\n    tag_47:\n        /* \"#utility.yul\":1881:1888   */\n      0x00\n        /* \"#utility.yul\":1924:1929   */\n      dup2\n        /* \"#utility.yul\":1917:1930   */\n      iszero\n        /* \"#utility.yul\":1910:1931   */\n      iszero\n        /* \"#utility.yul\":1899:1931   */\n      swap1\n      pop\n        /* \"#utility.yul\":1847:1937   */\n      swap2\n      swap1\n      pop\n      jump\t// out\n        /* \"#utility.yul\":1943:2069   */\n    tag_56:\n        /* \"#utility.yul\":1980:1987   */\n      0x00\n        /* \"#utility.yul\":2020:2062   */\n      0xffffffffffffffffffffffffffffffffffffffff\n        /* \"#utility.yul\":2013:2018   */\n      dup3\n        /* \"#utility.yul\":2009:2063   */\n      and\n        /* \"#utility.yul\":1998:2063   */\n      swap1\n      pop\n        /* \"#utility.yul\":1943:2069   */\n      swap2\n      swap1\n      pop\n      jump\t// out\n        /* \"#utility.yul\":2198:2315   */\n    tag_34:\n        /* \"#utility.yul\":2307:2308   */\n      0x00\n        /* \"#utility.yul\":2304:2305   */\n      dup1\n        /* \"#utility.yul\":2297:2309   */\n      revert\n        /* \"#utility.yul\":2321:2443   */\n    tag_26:\n        /* \"#utility.yul\":2394:2418   */\n      tag_63\n        /* \"#utility.yul\":2412:2417   */\n      dup2\n        /* \"#utility.yul\":2394:2418   */\n      tag_43\n      jump\t// in\n    tag_63:\n        /* \"#utility.yul\":2387:2392   */\n      dup2\n        /* \"#utility.yul\":2384:2419   */\n      eq\n        /* \"#utility.yul\":2374:2437   */\n      tag_64\n      jumpi\n        /* \"#utility.yul\":2433:2434   */\n      0x00\n        /* \"#utility.yul\":2430:2431   */\n      dup1\n        /* \"#utility.yul\":2423:2435   */\n      revert\n        /* \"#utility.yul\":2374:2437   */\n    tag_64:\n        /* \"#utility.yul\":2321:2443   */\n      pop\n      jump\t// out\n        /* \"#utility.yul\":2449:2565   */\n    tag_30:\n        /* \"#utility.yul\":2519:2540   */\n      tag_66\n        /* \"#utility.yul\":2534:2539   */\n      dup2\n        /* \"#utility.yul\":2519:2540   */\n      tag_47\n      jump\t// in\n    tag_66:\n        /* \"#utility.yul\":2512:2517   */\n      dup2\n        /* \"#utility.yul\":2509:2541   */\n      eq\n        /* \"#utility.yul\":2499:2559   */\n      tag_67\n      jumpi\n        /* \"#utility.yul\":2555:2556   */\n      0x00\n        /* \"#utility.yul\":2552:2553   */\n      dup1\n        /* \"#utility.yul\":2545:2557   */\n      revert\n        /* \"#utility.yul\":2499:2559   */\n    tag_67:\n        /* \"#utility.yul\":2449:2565   */\n      pop\n      jump\t// out\n\n    auxdata: 0xa2646970667358221220e4cdae8c9bfdae78cb77adaf68a103c87647bf735a1d4b05c1c1ee91a3d8e49664736f6c63430008070033\n}\n",
				"bytecode": {
					"linkReferences": {},
					"object": "60806040523480156200001157600080fd5b5060405162000a5338038062000a538339818101604052810190620000379190620003d2565b80600260006101000a81548173ffffffffffffffffffffffffffffffffffffffff021916908373ffffffffffffffffffffffffffffffffffffffff16021790555062000089326200018a60201b60201c565b620000cb576040517f08c379a0000000000000000000000000000000000000000000000000000000008152600401620000c29062000502565b60405180910390fd5b8160009080519060200190620000e392919062000244565b506001329080600181540180825580915050600190039060005260206000200160009091909190916101000a81548173ffffffffffffffffffffffffffffffffffffffff021916908373ffffffffffffffffffffffffffffffffffffffff1602179055507fa34d8f872132d193d2e62e18648026516cd6a9d599cb2f07eda0fd5ab16f162782326040516200017a929190620004ce565b60405180910390a1505062000761565b6000600260009054906101000a900473ffffffffffffffffffffffffffffffffffffffff1673ffffffffffffffffffffffffffffffffffffffff166363a9c3d7836040518263ffffffff1660e01b8152600401620001e99190620004b1565b60206040518083038186803b1580156200020257600080fd5b505afa15801562000217573d6000803e3d6000fd5b505050506040513d601f19601f820116820180604052508101906200023d9190620003a0565b9050919050565b828054620002529062000615565b90600052602060002090601f016020900481019282620002765760008555620002c2565b82601f106200029157805160ff1916838001178555620002c2565b82800160010185558215620002c2579182015b82811115620002c1578251825591602001919060010190620002a4565b5b509050620002d19190620002d5565b5090565b5b80821115620002f0576000816000905550600101620002d6565b5090565b60006200030b62000305846200054d565b62000524565b9050828152602081018484840111156200032a5762000329620006e4565b5b62000337848285620005df565b509392505050565b60008151905062000350816200072d565b92915050565b600081519050620003678162000747565b92915050565b600082601f830112620003855762000384620006df565b5b815162000397848260208601620002f4565b91505092915050565b600060208284031215620003b957620003b8620006ee565b5b6000620003c98482850162000356565b91505092915050565b60008060408385031215620003ec57620003eb620006ee565b5b600083015167ffffffffffffffff8111156200040d576200040c620006e9565b5b6200041b858286016200036d565b92505060206200042e858286016200033f565b9150509250929050565b62000443816200059f565b82525050565b6000620004568262000583565b6200046281856200058e565b935062000474818560208601620005df565b6200047f81620006f3565b840191505092915050565b6000620004996014836200058e565b9150620004a68262000704565b602082019050919050565b6000602082019050620004c8600083018462000438565b92915050565b60006040820190508181036000830152620004ea818562000449565b9050620004fb602083018462000438565b9392505050565b600060208201905081810360008301526200051d816200048a565b9050919050565b60006200053062000543565b90506200053e82826200064b565b919050565b6000604051905090565b600067ffffffffffffffff8211156200056b576200056a620006b0565b5b6200057682620006f3565b9050602081019050919050565b600081519050919050565b600082825260208201905092915050565b6000620005ac82620005bf565b9050919050565b60008115159050919050565b600073ffffffffffffffffffffffffffffffffffffffff82169050919050565b60005b83811015620005ff578082015181840152602081019050620005e2565b838111156200060f576000848401525b50505050565b600060028204905060018216806200062e57607f821691505b6020821081141562000645576200064462000681565b5b50919050565b6200065682620006f3565b810181811067ffffffffffffffff82111715620006785762000677620006b0565b5b80604052505050565b7f4e487b7100000000000000000000000000000000000000000000000000000000600052602260045260246000fd5b7f4e487b7100000000000000000000000000000000000000000000000000000000600052604160045260246000fd5b600080fd5b600080fd5b600080fd5b600080fd5b6000601f19601f8301169050919050565b7f5f7369676e6572206973206e6f742076616c6964000000000000000000000000600082015250565b62000738816200059f565b81146200074457600080fd5b50565b6200075281620005b3565b81146200075e57600080fd5b50565b6102e280620007716000396000f3fe608060405234801561001057600080fd5b50600436106100365760003560e01c806350ca09281461003b578063963671be1461006b575b600080fd5b6100556004803603810190610050919061018d565b610089565b6040516100629190610220565b60405180910390f35b61007361013d565b6040516100809190610205565b60405180910390f35b6000600260009054906101000a900473ffffffffffffffffffffffffffffffffffffffff1673ffffffffffffffffffffffffffffffffffffffff166363a9c3d7836040518263ffffffff1660e01b81526004016100e69190610205565b60206040518083038186803b1580156100fe57600080fd5b505afa158015610112573d6000803e3d6000fd5b505050506040513d601f19601f8201168201806040525081019061013691906101ba565b9050919050565b600260009054906101000a900473ffffffffffffffffffffffffffffffffffffffff1681565b6000813590506101728161027e565b92915050565b60008151905061018781610295565b92915050565b6000602082840312156101a3576101a2610279565b5b60006101b184828501610163565b91505092915050565b6000602082840312156101d0576101cf610279565b5b60006101de84828501610178565b91505092915050565b6101f08161023b565b82525050565b6101ff8161024d565b82525050565b600060208201905061021a60008301846101e7565b92915050565b600060208201905061023560008301846101f6565b92915050565b600061024682610259565b9050919050565b60008115159050919050565b600073ffffffffffffffffffffffffffffffffffffffff82169050919050565b600080fd5b6102878161023b565b811461029257600080fd5b50565b61029e8161024d565b81146102a957600080fd5b5056fea2646970667358221220e4cdae8c9bfdae78cb77adaf68a103c87647bf735a1d4b05c1c1ee91a3d8e49664736f6c63430008070033",
					"opcodes": "PUSH1 0x80 PUSH1 0x40 MSTORE CALLVALUE DUP1 ISZERO PUSH3 0x11 JUMPI PUSH1 0x0 DUP1 REVERT JUMPDEST POP PUSH1 0x40 MLOAD PUSH3 0xA53 CODESIZE SUB DUP1 PUSH3 0xA53 DUP4 CODECOPY DUP2 DUP2 ADD PUSH1 0x40 MSTORE DUP2 ADD SWAP1 PUSH3 0x37 SWAP2 SWAP1 PUSH3 0x3D2 JUMP JUMPDEST DUP1 PUSH1 0x2 PUSH1 0x0 PUSH2 0x100 EXP DUP2 SLOAD DUP2 PUSH20 0xFFFFFFFFFFFFFFFFFFFFFFFFFFFFFFFFFFFFFFFF MUL NOT AND SWAP1 DUP4 PUSH20 0xFFFFFFFFFFFFFFFFFFFFFFFFFFFFFFFFFFFFFFFF AND MUL OR SWAP1 SSTORE POP PUSH3 0x89 ORIGIN PUSH3 0x18A PUSH1 0x20 SHL PUSH1 0x20 SHR JUMP JUMPDEST PUSH3 0xCB JUMPI PUSH1 0x40 MLOAD PUSH32 0x8C379A000000000000000000000000000000000000000000000000000000000 DUP2 MSTORE PUSH1 0x4 ADD PUSH3 0xC2 SWAP1 PUSH3 0x502 JUMP JUMPDEST PUSH1 0x40 MLOAD DUP1 SWAP2 SUB SWAP1 REVERT JUMPDEST DUP2 PUSH1 0x0 SWAP1 DUP1 MLOAD SWAP1 PUSH1 0x20 ADD SWAP1 PUSH3 0xE3 SWAP3 SWAP2 SWAP1 PUSH3 0x244 JUMP JUMPDEST POP PUSH1 0x1 ORIGIN SWAP1 DUP1 PUSH1 0x1 DUP2 SLOAD ADD DUP1 DUP3 SSTORE DUP1 SWAP2 POP POP PUSH1 0x1 SWAP1 SUB SWAP1 PUSH1 0x0 MSTORE PUSH1 0x20 PUSH1 0x0 KECCAK256 ADD PUSH1 0x0 SWAP1 SWAP2 SWAP1 SWAP2 SWAP1 SWAP2 PUSH2 0x100 EXP DUP2 SLOAD DUP2 PUSH20 0xFFFFFFFFFFFFFFFFFFFFFFFFFFFFFFFFFFFFFFFF MUL NOT AND SWAP1 DUP4 PUSH20 0xFFFFFFFFFFFFFFFFFFFFFFFFFFFFFFFFFFFFFFFF AND MUL OR SWAP1 SSTORE POP PUSH32 0xA34D8F872132D193D2E62E18648026516CD6A9D599CB2F07EDA0FD5AB16F1627 DUP3 ORIGIN PUSH1 0x40 MLOAD PUSH3 0x17A SWAP3 SWAP2 SWAP1 PUSH3 0x4CE JUMP JUMPDEST PUSH1 0x40 MLOAD DUP1 SWAP2 SUB SWAP1 LOG1 POP POP PUSH3 0x761 JUMP JUMPDEST PUSH1 0x0 PUSH1 0x2 PUSH1 0x0 SWAP1 SLOAD SWAP1 PUSH2 0x100 EXP SWAP1 DIV PUSH20 0xFFFFFFFFFFFFFFFFFFFFFFFFFFFFFFFFFFFFFFFF AND PUSH20 0xFFFFFFFFFFFFFFFFFFFFFFFFFFFFFFFFFFFFFFFF AND PUSH4 0x63A9C3D7 DUP4 PUSH1 0x40 MLOAD DUP3 PUSH4 0xFFFFFFFF AND PUSH1 0xE0 SHL DUP2 MSTORE PUSH1 0x4 ADD PUSH3 0x1E9 SWAP2 SWAP1 PUSH3 0x4B1 JUMP JUMPDEST PUSH1 0x20 PUSH1 0x40 MLOAD DUP1 DUP4 SUB DUP2 DUP7 DUP1 EXTCODESIZE ISZERO DUP1 ISZERO PUSH3 0x202 JUMPI PUSH1 0x0 DUP1 REVERT JUMPDEST POP GAS STATICCALL ISZERO DUP1 ISZERO PUSH3 0x217 JUMPI RETURNDATASIZE PUSH1 0x0 DUP1 RETURNDATACOPY RETURNDATASIZE PUSH1 0x0 REVERT JUMPDEST POP POP POP POP PUSH1 0x40 MLOAD RETURNDATASIZE PUSH1 0x1F NOT PUSH1 0x1F DUP3 ADD AND DUP3 ADD DUP1 PUSH1 0x40 MSTORE POP DUP2 ADD SWAP1 PUSH3 0x23D SWAP2 SWAP1 PUSH3 0x3A0 JUMP JUMPDEST SWAP1 POP SWAP2 SWAP1 POP JUMP JUMPDEST DUP3 DUP1 SLOAD PUSH3 0x252 SWAP1 PUSH3 0x615 JUMP JUMPDEST SWAP1 PUSH1 0x0 MSTORE PUSH1 0x20 PUSH1 0x0 KECCAK256 SWAP1 PUSH1 0x1F ADD PUSH1 0x20 SWAP1 DIV DUP2 ADD SWAP3 DUP3 PUSH3 0x276 JUMPI PUSH1 0x0 DUP6 SSTORE PUSH3 0x2C2 JUMP JUMPDEST DUP3 PUSH1 0x1F LT PUSH3 0x291 JUMPI DUP1 MLOAD PUSH1 0xFF NOT AND DUP4 DUP1 ADD OR DUP6 SSTORE PUSH3 0x2C2 JUMP JUMPDEST DUP3 DUP1 ADD PUSH1 0x1 ADD DUP6 SSTORE DUP3 ISZERO PUSH3 0x2C2 JUMPI SWAP2 DUP3 ADD JUMPDEST DUP3 DUP2 GT ISZERO PUSH3 0x2C1 JUMPI DUP3 MLOAD DUP3 SSTORE SWAP2 PUSH1 0x20 ADD SWAP2 SWAP1 PUSH1 0x1 ADD SWAP1 PUSH3 0x2A4 JUMP JUMPDEST JUMPDEST POP SWAP1 POP PUSH3 0x2D1 SWAP2 SWAP1 PUSH3 0x2D5 JUMP JUMPDEST POP SWAP1 JUMP JUMPDEST JUMPDEST DUP1 DUP3 GT ISZERO PUSH3 0x2F0 JUMPI PUSH1 0x0 DUP2 PUSH1 0x0 SWAP1 SSTORE POP PUSH1 0x1 ADD PUSH3 0x2D6 JUMP JUMPDEST POP SWAP1 JUMP JUMPDEST PUSH1 0x0 PUSH3 0x30B PUSH3 0x305 DUP5 PUSH3 0x54D JUMP JUMPDEST PUSH3 0x524 JUMP JUMPDEST SWAP1 POP DUP3 DUP2 MSTORE PUSH1 0x20 DUP2 ADD DUP5 DUP5 DUP5 ADD GT ISZERO PUSH3 0x32A JUMPI PUSH3 0x329 PUSH3 0x6E4 JUMP JUMPDEST JUMPDEST PUSH3 0x337 DUP5 DUP3 DUP6 PUSH3 0x5DF JUMP JUMPDEST POP SWAP4 SWAP3 POP POP POP JUMP JUMPDEST PUSH1 0x0 DUP2 MLOAD SWAP1 POP PUSH3 0x350 DUP2 PUSH3 0x72D JUMP JUMPDEST SWAP3 SWAP2 POP POP JUMP JUMPDEST PUSH1 0x0 DUP2 MLOAD SWAP1 POP PUSH3 0x367 DUP2 PUSH3 0x747 JUMP JUMPDEST SWAP3 SWAP2 POP POP JUMP JUMPDEST PUSH1 0x0 DUP3 PUSH1 0x1F DUP4 ADD SLT PUSH3 0x385 JUMPI PUSH3 0x384 PUSH3 0x6DF JUMP JUMPDEST JUMPDEST DUP2 MLOAD PUSH3 0x397 DUP5 DUP3 PUSH1 0x20 DUP7 ADD PUSH3 0x2F4 JUMP JUMPDEST SWAP2 POP POP SWAP3 SWAP2 POP POP JUMP JUMPDEST PUSH1 0x0 PUSH1 0x20 DUP3 DUP5 SUB SLT ISZERO PUSH3 0x3B9 JUMPI PUSH3 0x3B8 PUSH3 0x6EE JUMP JUMPDEST JUMPDEST PUSH1 0x0 PUSH3 0x3C9 DUP5 DUP3 DUP6 ADD PUSH3 0x356 JUMP JUMPDEST SWAP2 POP POP SWAP3 SWAP2 POP POP JUMP JUMPDEST PUSH1 0x0 DUP1 PUSH1 0x40 DUP4 DUP6 SUB SLT ISZERO PUSH3 0x3EC JUMPI PUSH3 0x3EB PUSH3 0x6EE JUMP JUMPDEST JUMPDEST PUSH1 0x0 DUP4 ADD MLOAD PUSH8 0xFFFFFFFFFFFFFFFF DUP2 GT ISZERO PUSH3 0x40D JUMPI PUSH3 0x40C PUSH3 0x6E9 JUMP JUMPDEST JUMPDEST PUSH3 0x41B DUP6 DUP3 DUP7 ADD PUSH3 0x36D JUMP JUMPDEST SWAP3 POP POP PUSH1 0x20 PUSH3 0x42E DUP6 DUP3 DUP7 ADD PUSH3 0x33F JUMP JUMPDEST SWAP2 POP POP SWAP3 POP SWAP3 SWAP1 POP JUMP JUMPDEST PUSH3 0x443 DUP2 PUSH3 0x59F JUMP JUMPDEST DUP3 MSTORE POP POP JUMP JUMPDEST PUSH1 0x0 PUSH3 0x456 DUP3 PUSH3 0x583 JUMP JUMPDEST PUSH3 0x462 DUP2 DUP6 PUSH3 0x58E JUMP JUMPDEST SWAP4 POP PUSH3 0x474 DUP2 DUP6 PUSH1 0x20 DUP7 ADD PUSH3 0x5DF JUMP JUMPDEST PUSH3 0x47F DUP2 PUSH3 0x6F3 JUMP JUMPDEST DUP5 ADD SWAP2 POP POP SWAP3 SWAP2 POP POP JUMP JUMPDEST PUSH1 0x0 PUSH3 0x499 PUSH1 0x14 DUP4 PUSH3 0x58E JUMP JUMPDEST SWAP2 POP PUSH3 0x4A6 DUP3 PUSH3 0x704 JUMP JUMPDEST PUSH1 0x20 DUP3 ADD SWAP1 POP SWAP2 SWAP1 POP JUMP JUMPDEST PUSH1 0x0 PUSH1 0x20 DUP3 ADD SWAP1 POP PUSH3 0x4C8 PUSH1 0x0 DUP4 ADD DUP5 PUSH3 0x438 JUMP JUMPDEST SWAP3 SWAP2 POP POP JUMP JUMPDEST PUSH1 0x0 PUSH1 0x40 DUP3 ADD SWAP1 POP DUP2 DUP2 SUB PUSH1 0x0 DUP4 ADD MSTORE PUSH3 0x4EA DUP2 DUP6 PUSH3 0x449 JUMP JUMPDEST SWAP1 POP PUSH3 0x4FB PUSH1 0x20 DUP4 ADD DUP5 PUSH3 0x438 JUMP JUMPDEST SWAP4 SWAP3 POP POP POP JUMP JUMPDEST PUSH1 0x0 PUSH1 0x20 DUP3 ADD SWAP1 POP DUP2 DUP2 SUB PUSH1 0x0 DUP4 ADD MSTORE PUSH3 0x51D DUP2 PUSH3 0x48A JUMP JUMPDEST SWAP1 POP SWAP2 SWAP1 POP JUMP JUMPDEST PUSH1 0x0 PUSH3 0x530 PUSH3 0x543 JUMP JUMPDEST SWAP1 POP PUSH3 0x53E DUP3 DUP3 PUSH3 0x64B JUMP JUMPDEST SWAP2 SWAP1 POP JUMP JUMPDEST PUSH1 0x0 PUSH1 0x40 MLOAD SWAP1 POP SWAP1 JUMP JUMPDEST PUSH1 0x0 PUSH8 0xFFFFFFFFFFFFFFFF DUP3 GT ISZERO PUSH3 0x56B JUMPI PUSH3 0x56A PUSH3 0x6B0 JUMP JUMPDEST JUMPDEST PUSH3 0x576 DUP3 PUSH3 0x6F3 JUMP JUMPDEST SWAP1 POP PUSH1 0x20 DUP2 ADD SWAP1 POP SWAP2 SWAP1 POP JUMP JUMPDEST PUSH1 0x0 DUP2 MLOAD SWAP1 POP SWAP2 SWAP1 POP JUMP JUMPDEST PUSH1 0x0 DUP3 DUP3 MSTORE PUSH1 0x20 DUP3 ADD SWAP1 POP SWAP3 SWAP2 POP POP JUMP JUMPDEST PUSH1 0x0 PUSH3 0x5AC DUP3 PUSH3 0x5BF JUMP JUMPDEST SWAP1 POP SWAP2 SWAP1 POP JUMP JUMPDEST PUSH1 0x0 DUP2 ISZERO ISZERO SWAP1 POP SWAP2 SWAP1 POP JUMP JUMPDEST PUSH1 0x0 PUSH20 0xFFFFFFFFFFFFFFFFFFFFFFFFFFFFFFFFFFFFFFFF DUP3 AND SWAP1 POP SWAP2 SWAP1 POP JUMP JUMPDEST PUSH1 0x0 JUMPDEST DUP4 DUP2 LT ISZERO PUSH3 0x5FF JUMPI DUP1 DUP3 ADD MLOAD DUP2 DUP5 ADD MSTORE PUSH1 0x20 DUP2 ADD SWAP1 POP PUSH3 0x5E2 JUMP JUMPDEST DUP4 DUP2 GT ISZERO PUSH3 0x60F JUMPI PUSH1 0x0 DUP5 DUP5 ADD MSTORE JUMPDEST POP POP POP POP JUMP JUMPDEST PUSH1 0x0 PUSH1 0x2 DUP3 DIV SWAP1 POP PUSH1 0x1 DUP3 AND DUP1 PUSH3 0x62E JUMPI PUSH1 0x7F DUP3 AND SWAP2 POP JUMPDEST PUSH1 0x20 DUP3 LT DUP2 EQ ISZERO PUSH3 0x645 JUMPI PUSH3 0x644 PUSH3 0x681 JUMP JUMPDEST JUMPDEST POP SWAP2 SWAP1 POP JUMP JUMPDEST PUSH3 0x656 DUP3 PUSH3 0x6F3 JUMP JUMPDEST DUP2 ADD DUP2 DUP2 LT PUSH8 0xFFFFFFFFFFFFFFFF DUP3 GT OR ISZERO PUSH3 0x678 JUMPI PUSH3 0x677 PUSH3 0x6B0 JUMP JUMPDEST JUMPDEST DUP1 PUSH1 0x40 MSTORE POP POP POP JUMP JUMPDEST PUSH32 0x4E487B7100000000000000000000000000000000000000000000000000000000 PUSH1 0x0 MSTORE PUSH1 0x22 PUSH1 0x4 MSTORE PUSH1 0x24 PUSH1 0x0 REVERT JUMPDEST PUSH32 0x4E487B7100000000000000000000000000000000000000000000000000000000 PUSH1 0x0 MSTORE PUSH1 0x41 PUSH1 0x4 MSTORE PUSH1 0x24 PUSH1 0x0 REVERT JUMPDEST PUSH1 0x0 DUP1 REVERT JUMPDEST PUSH1 0x0 DUP1 REVERT JUMPDEST PUSH1 0x0 DUP1 REVERT JUMPDEST PUSH1 0x0 DUP1 REVERT JUMPDEST PUSH1 0x0 PUSH1 0x1F NOT PUSH1 0x1F DUP4 ADD AND SWAP1 POP SWAP2 SWAP1 POP JUMP JUMPDEST PUSH32 0x5F7369676E6572206973206E6F742076616C6964000000000000000000000000 PUSH1 0x0 DUP3 ADD MSTORE POP JUMP JUMPDEST PUSH3 0x738 DUP2 PUSH3 0x59F JUMP JUMPDEST DUP2 EQ PUSH3 0x744 JUMPI PUSH1 0x0 DUP1 REVERT JUMPDEST POP JUMP JUMPDEST PUSH3 0x752 DUP2 PUSH3 0x5B3 JUMP JUMPDEST DUP2 EQ PUSH3 0x75E JUMPI PUSH1 0x0 DUP1 REVERT JUMPDEST POP JUMP JUMPDEST PUSH2 0x2E2 DUP1 PUSH3 0x771 PUSH1 0x0 CODECOPY PUSH1 0x0 RETURN INVALID PUSH1 0x80 PUSH1 0x40 MSTORE CALLVALUE DUP1 ISZERO PUSH2 0x10 JUMPI PUSH1 0x0 DUP1 REVERT JUMPDEST POP PUSH1 0x4 CALLDATASIZE LT PUSH2 0x36 JUMPI PUSH1 0x0 CALLDATALOAD PUSH1 0xE0 SHR DUP1 PUSH4 0x50CA0928 EQ PUSH2 0x3B JUMPI DUP1 PUSH4 0x963671BE EQ PUSH2 0x6B JUMPI JUMPDEST PUSH1 0x0 DUP1 REVERT JUMPDEST PUSH2 0x55 PUSH1 0x4 DUP1 CALLDATASIZE SUB DUP2 ADD SWAP1 PUSH2 0x50 SWAP2 SWAP1 PUSH2 0x18D JUMP JUMPDEST PUSH2 0x89 JUMP JUMPDEST PUSH1 0x40 MLOAD PUSH2 0x62 SWAP2 SWAP1 PUSH2 0x220 JUMP JUMPDEST PUSH1 0x40 MLOAD DUP1 SWAP2 SUB SWAP1 RETURN JUMPDEST PUSH2 0x73 PUSH2 0x13D JUMP JUMPDEST PUSH1 0x40 MLOAD PUSH2 0x80 SWAP2 SWAP1 PUSH2 0x205 JUMP JUMPDEST PUSH1 0x40 MLOAD DUP1 SWAP2 SUB SWAP1 RETURN JUMPDEST PUSH1 0x0 PUSH1 0x2 PUSH1 0x0 SWAP1 SLOAD SWAP1 PUSH2 0x100 EXP SWAP1 DIV PUSH20 0xFFFFFFFFFFFFFFFFFFFFFFFFFFFFFFFFFFFFFFFF AND PUSH20 0xFFFFFFFFFFFFFFFFFFFFFFFFFFFFFFFFFFFFFFFF AND PUSH4 0x63A9C3D7 DUP4 PUSH1 0x40 MLOAD DUP3 PUSH4 0xFFFFFFFF AND PUSH1 0xE0 SHL DUP2 MSTORE PUSH1 0x4 ADD PUSH2 0xE6 SWAP2 SWAP1 PUSH2 0x205 JUMP JUMPDEST PUSH1 0x20 PUSH1 0x40 MLOAD DUP1 DUP4 SUB DUP2 DUP7 DUP1 EXTCODESIZE ISZERO DUP1 ISZERO PUSH2 0xFE JUMPI PUSH1 0x0 DUP1 REVERT JUMPDEST POP GAS STATICCALL ISZERO DUP1 ISZERO PUSH2 0x112 JUMPI RETURNDATASIZE PUSH1 0x0 DUP1 RETURNDATACOPY RETURNDATASIZE PUSH1 0x0 REVERT JUMPDEST POP POP POP POP PUSH1 0x40 MLOAD RETURNDATASIZE PUSH1 0x1F NOT PUSH1 0x1F DUP3 ADD AND DUP3 ADD DUP1 PUSH1 0x40 MSTORE POP DUP2 ADD SWAP1 PUSH2 0x136 SWAP2 SWAP1 PUSH2 0x1BA JUMP JUMPDEST SWAP1 POP SWAP2 SWAP1 POP JUMP JUMPDEST PUSH1 0x2 PUSH1 0x0 SWAP1 SLOAD SWAP1 PUSH2 0x100 EXP SWAP1 DIV PUSH20 0xFFFFFFFFFFFFFFFFFFFFFFFFFFFFFFFFFFFFFFFF AND DUP2 JUMP JUMPDEST PUSH1 0x0 DUP2 CALLDATALOAD SWAP1 POP PUSH2 0x172 DUP2 PUSH2 0x27E JUMP JUMPDEST SWAP3 SWAP2 POP POP JUMP JUMPDEST PUSH1 0x0 DUP2 MLOAD SWAP1 POP PUSH2 0x187 DUP2 PUSH2 0x295 JUMP JUMPDEST SWAP3 SWAP2 POP POP JUMP JUMPDEST PUSH1 0x0 PUSH1 0x20 DUP3 DUP5 SUB SLT ISZERO PUSH2 0x1A3 JUMPI PUSH2 0x1A2 PUSH2 0x279 JUMP JUMPDEST JUMPDEST PUSH1 0x0 PUSH2 0x1B1 DUP5 DUP3 DUP6 ADD PUSH2 0x163 JUMP JUMPDEST SWAP2 POP POP SWAP3 SWAP2 POP POP JUMP JUMPDEST PUSH1 0x0 PUSH1 0x20 DUP3 DUP5 SUB SLT ISZERO PUSH2 0x1D0 JUMPI PUSH2 0x1CF PUSH2 0x279 JUMP JUMPDEST JUMPDEST PUSH1 0x0 PUSH2 0x1DE DUP5 DUP3 DUP6 ADD PUSH2 0x178 JUMP JUMPDEST SWAP2 POP POP SWAP3 SWAP2 POP POP JUMP JUMPDEST PUSH2 0x1F0 DUP2 PUSH2 0x23B JUMP JUMPDEST DUP3 MSTORE POP POP JUMP JUMPDEST PUSH2 0x1FF DUP2 PUSH2 0x24D JUMP JUMPDEST DUP3 MSTORE POP POP JUMP JUMPDEST PUSH1 0x0 PUSH1 0x20 DUP3 ADD SWAP1 POP PUSH2 0x21A PUSH1 0x0 DUP4 ADD DUP5 PUSH2 0x1E7 JUMP JUMPDEST SWAP3 SWAP2 POP POP JUMP JUMPDEST PUSH1 0x0 PUSH1 0x20 DUP3 ADD SWAP1 POP PUSH2 0x235 PUSH1 0x0 DUP4 ADD DUP5 PUSH2 0x1F6 JUMP JUMPDEST SWAP3 SWAP2 POP POP JUMP JUMPDEST PUSH1 0x0 PUSH2 0x246 DUP3 PUSH2 0x259 JUMP JUMPDEST SWAP1 POP SWAP2 SWAP1 POP JUMP JUMPDEST PUSH1 0x0 DUP2 ISZERO ISZERO SWAP1 POP SWAP2 SWAP1 POP JUMP JUMPDEST PUSH1 0x0 PUSH20 0xFFFFFFFFFFFFFFFFFFFFFFFFFFFFFFFFFFFFFFFF DUP3 AND SWAP1 POP SWAP2 SWAP1 POP JUMP JUMPDEST PUSH1 0x0 DUP1 REVERT JUMPDEST PUSH2 0x287 DUP2 PUSH2 0x23B JUMP JUMPDEST DUP2 EQ PUSH2 0x292 JUMPI PUSH1 0x0 DUP1 REVERT JUMPDEST POP JUMP JUMPDEST PUSH2 0x29E DUP2 PUSH2 0x24D JUMP JUMPDEST DUP2 EQ PUSH2 0x2A9 JUMPI PUSH1 0x0 DUP1 REVERT JUMPDEST POP JUMP INVALID LOG2 PUSH5 0x6970667358 0x22 SLT KECCAK256 0xE4 0xCD 0xAE DUP13 SWAP12 REVERT 0xAE PUSH25 0xCB77ADAF68A103C87647BF735A1D4B05C1C1EE91A3D8E49664 PUSH20 0x6F6C634300080700330000000000000000000000 "
				},
				"gasEstimates": {
					"creation": {
						"codeDepositCost": "147600",
						"executionCost": "infinite",
						"totalCost": "infinite"
					},
					"external": {
						"callVerify(address)": "infinite",
						"factoryAddr()": "2514"
					}
				},
				"methodIdentifiers": {
					"callVerify(address)": "50ca0928",
					"factoryAddr()": "963671be"
				}
			},
			"storageLayout": {
				"storage": [
					{
						"astId": 23,
						"contract": "evidence/evidence.sol:Evidence",
						"label": "evidence",
						"offset": 0,
						"slot": "0",
						"type": "t_string_storage"
					},
					{
						"astId": 26,
						"contract": "evidence/evidence.sol:Evidence",
						"label": "signers",
						"offset": 0,
						"slot": "1",
						"type": "t_array(t_address)dyn_storage"
					},
					{
						"astId": 28,
						"contract": "evidence/evidence.sol:Evidence",
						"label": "factoryAddr",
						"offset": 0,
						"slot": "2",
						"type": "t_address"
					}
				],
				"types": {
					"t_address": {
						"encoding": "inplace",
						"label": "address",
						"numberOfBytes": "20"
					},
					"t_array(t_address)dyn_storage": {
						"base": "t_address",
						"encoding": "dynamic_array",
						"label": "address[]",
						"numberOfBytes": "32"
					},
					"t_string_storage": {
						"encoding": "bytes",
						"label": "string",
						"numberOfBytes": "32"
					}
				}
			},
			"userdoc": {
				"kind": "user",
				"methods": {},
				"version": 1
			}
		}
	}
}