{
	"evidence/evidence.sol": {
		"Evidence": {
			"abi": [
				{
					"inputs": [
						{
							"internalType": "string",
							"name": "_evi",
							"type": "string"
						},
						{
							"internalType": "address",
							"name": "_factory",
							"type": "address"
						}
					],
					"stateMutability": "nonpayable",
					"type": "constructor"
				},
				{
					"anonymous": false,
					"inputs": [
						{
							"indexed": false,
							"internalType": "string",
							"name": "_evi",
							"type": "string"
						},
						{
							"indexed": false,
							"internalType": "address",
							"name": "_sender",
							"type": "address"
						}
					],
					"name": "AddRepeatSignaturesEvidence",
					"type": "event"
				},
				{
					"anonymous": false,
					"inputs": [
						{
							"indexed": false,
							"internalType": "string",
							"name": "_evi",
							"type": "string"
						},
						{
							"indexed": false,
							"internalType": "address",
							"name": "_sender",
							"type": "address"
						}
					],
					"name": "AddSignaturesEvidence",
					"type": "event"
				},
				{
					"anonymous": false,
					"inputs": [
						{
							"indexed": false,
							"internalType": "string",
							"name": "_evi",
							"type": "string"
						},
						{
							"indexed": false,
							"internalType": "address",
							"name": "_sender",
							"type": "address"
						}
					],
					"name": "NewSignaturesEvidence",
					"type": "event"
				},
				{
					"inputs": [
						{
							"internalType": "address",
							"name": "_signer",
							"type": "address"
						}
					],
					"name": "callVerify",
					"outputs": [
						{
							"internalType": "bool",
							"name": "",
							"type": "bool"
						}
					],
					"stateMutability": "view",
					"type": "function"
				},
				{
					"inputs": [],
					"name": "factoryAddr",
					"outputs": [
						{
							"internalType": "address",
							"name": "",
							"type": "address"
						}
					],
					"stateMutability": "view",
					"type": "function"
				},
				{
					"inputs": [],
					"name": "getEvidence",
					"outputs": [
						{
							"internalType": "string",
							"name": "",
							"type": "string"
						},
						{
							"internalType": "address[]",
							"name": "",
							"type": "address[]"
						},
						{
							"internalType": "address[]",
							"name": "",
							"type": "address[]"
						}
					],
					"stateMutability": "view",
					"type": "function"
				},
				{
					"inputs": [],
					"name": "isAllSigned",
					"outputs": [
						{
							"internalType": "bool",
							"name": "",
							"type": "bool"
						},
						{
							"internalType": "string",
							"name": "",
							"type": "string"
						}
					],
					"stateMutability": "view",
					"type": "function"
				},
				{
					"inputs": [],
					"name": "sign",
					"outputs": [
						{
							"internalType": "bool",
							"name": "",
							"type": "bool"
						}
					],
					"stateMutability": "nonpayable",
					"type": "function"
				}
			],
			"devdoc": {
				"kind": "dev",
				"methods": {},
				"version": 1
			},
			"evm": {
				"assembly": "    /* \"evidence/evidence.sol\":279:2443  contract Evidence {\r... */\n  mstore(0x40, 0x80)\n    /* \"evidence/evidence.sol\":812:1079  constructor(string memory _evi,address _factory){\r... */\n  callvalue\n  dup1\n  iszero\n  tag_1\n  jumpi\n  0x00\n  dup1\n  revert\ntag_1:\n  pop\n  mload(0x40)\n  sub(codesize, bytecodeSize)\n  dup1\n  bytecodeSize\n  dup4\n  codecopy\n  dup2\n  dup2\n  add\n  0x40\n  mstore\n  dup2\n  add\n  swap1\n  tag_2\n  swap2\n  swap1\n  tag_3\n  jump\t// in\ntag_2:\n    /* \"evidence/evidence.sol\":885:893  _factory */\n  dup1\n    /* \"evidence/evidence.sol\":871:882  factoryAddr */\n  0x02\n  0x00\n    /* \"evidence/evidence.sol\":871:893  factoryAddr = _factory */\n  0x0100\n  exp\n  dup2\n  sload\n  dup2\n  0xffffffffffffffffffffffffffffffffffffffff\n  mul\n  not\n  and\n  swap1\n  dup4\n  0xffffffffffffffffffffffffffffffffffffffff\n  and\n  mul\n  or\n  swap1\n  sstore\n  pop\n    /* \"evidence/evidence.sol\":912:933  callVerify(tx.origin) */\n  tag_6\n    /* \"evidence/evidence.sol\":923:932  tx.origin */\n  origin\n    /* \"evidence/evidence.sol\":912:922  callVerify */\n  shl(0x20, tag_7)\n    /* \"evidence/evidence.sol\":912:933  callVerify(tx.origin) */\n  0x20\n  shr\n  jump\t// in\ntag_6:\n    /* \"evidence/evidence.sol\":904:957  require(callVerify(tx.origin),\"_signer is not valid\") */\n  tag_8\n  jumpi\n  mload(0x40)\n  0x08c379a000000000000000000000000000000000000000000000000000000000\n  dup2\n  mstore\n  0x04\n  add\n  tag_9\n  swap1\n  tag_10\n  jump\t// in\ntag_9:\n  mload(0x40)\n  dup1\n  swap2\n  sub\n  swap1\n  revert\ntag_8:\n    /* \"evidence/evidence.sol\":978:982  _evi */\n  dup2\n    /* \"evidence/evidence.sol\":968:976  evidence */\n  0x00\n    /* \"evidence/evidence.sol\":968:982  evidence= _evi */\n  swap1\n  dup1\n  mload\n  swap1\n  0x20\n  add\n  swap1\n  tag_11\n  swap3\n  swap2\n  swap1\n  tag_12\n  jump\t// in\ntag_11:\n  pop\n    /* \"evidence/evidence.sol\":993:1000  signers */\n  0x01\n    /* \"evidence/evidence.sol\":1006:1015  tx.origin */\n  origin\n    /* \"evidence/evidence.sol\":993:1016  signers.push(tx.origin) */\n  swap1\n  dup1\n  0x01\n  dup2\n  sload\n  add\n  dup1\n  dup3\n  sstore\n  dup1\n  swap2\n  pop\n  pop\n  0x01\n  swap1\n  sub\n  swap1\n  0x00\n  mstore\n  keccak256(0x00, 0x20)\n  add\n  0x00\n  swap1\n  swap2\n  swap1\n  swap2\n  swap1\n  swap2\n  0x0100\n  exp\n  dup2\n  sload\n  dup2\n  0xffffffffffffffffffffffffffffffffffffffff\n  mul\n  not\n  and\n  swap1\n  dup4\n  0xffffffffffffffffffffffffffffffffffffffff\n  and\n  mul\n  or\n  swap1\n  sstore\n  pop\n    /* \"evidence/evidence.sol\":1034:1071  NewSignaturesEvidence(_evi,tx.origin) */\n  0xa34d8f872132d193d2e62e18648026516cd6a9d599cb2f07eda0fd5ab16f1627\n    /* \"evidence/evidence.sol\":1056:1060  _evi */\n  dup3\n    /* \"evidence/evidence.sol\":1061:1070  tx.origin */\n  origin\n    /* \"evidence/evidence.sol\":1034:1071  NewSignaturesEvidence(_evi,tx.origin) */\n  mload(0x40)\n  tag_14\n  swap3\n  swap2\n  swap1\n  tag_15\n  jump\t// in\ntag_14:\n  mload(0x40)\n  dup1\n  swap2\n  sub\n  swap1\n  log1\n    /* \"evidence/evidence.sol\":812:1079  constructor(string memory _evi,address _factory){\r... */\n  pop\n  pop\n    /* \"evidence/evidence.sol\":279:2443  contract Evidence {\r... */\n  jump(tag_16)\n    /* \"evidence/evidence.sol\":662:787  function callVerify(address _signer) public view returns(bool){\r... */\ntag_7:\n    /* \"evidence/evidence.sol\":719:723  bool */\n  0x00\n    /* \"evidence/evidence.sol\":751:762  factoryAddr */\n  0x02\n  0x00\n  swap1\n  sload\n  swap1\n  0x0100\n  exp\n  swap1\n  div\n  0xffffffffffffffffffffffffffffffffffffffff\n  and\n    /* \"evidence/evidence.sol\":742:770  IEvdence(factoryAddr).verify */\n  0xffffffffffffffffffffffffffffffffffffffff\n  and\n  0x63a9c3d7\n    /* \"evidence/evidence.sol\":771:778  _signer */\n  dup4\n    /* \"evidence/evidence.sol\":742:779  IEvdence(factoryAddr).verify(_signer) */\n  mload(0x40)\n  dup3\n  0xffffffff\n  and\n  0xe0\n  shl\n  dup2\n  mstore\n  0x04\n  add\n  tag_18\n  swap2\n  swap1\n  tag_19\n  jump\t// in\ntag_18:\n  0x20\n  mload(0x40)\n  dup1\n  dup4\n  sub\n  dup2\n  dup7\n  dup1\n  extcodesize\n  iszero\n  dup1\n  iszero\n  tag_20\n  jumpi\n  0x00\n  dup1\n  revert\ntag_20:\n  pop\n  gas\n  staticcall\n  iszero\n  dup1\n  iszero\n  tag_22\n  jumpi\n  returndatasize\n  0x00\n  dup1\n  returndatacopy\n  revert(0x00, returndatasize)\ntag_22:\n  pop\n  pop\n  pop\n  pop\n  mload(0x40)\n  returndatasize\n  not(0x1f)\n  0x1f\n  dup3\n  add\n  and\n  dup3\n  add\n  dup1\n  0x40\n  mstore\n  pop\n  dup2\n  add\n  swap1\n  tag_23\n  swap2\n  swap1\n  tag_24\n  jump\t// in\ntag_23:\n    /* \"evidence/evidence.sol\":735:779  return IEvdence(factoryAddr).verify(_signer) */\n  swap1\n  pop\n    /* \"evidence/evidence.sol\":662:787  function callVerify(address _signer) public view returns(bool){\r... */\n  swap2\n  swap1\n  pop\n  jump\t// out\n    /* \"evidence/evidence.sol\":279:2443  contract Evidence {\r... */\ntag_12:\n  dup3\n  dup1\n  sload\n  tag_25\n  swap1\n  tag_26\n  jump\t// in\ntag_25:\n  swap1\n  0x00\n  mstore\n  keccak256(0x00, 0x20)\n  swap1\n  0x1f\n  add\n  0x20\n  swap1\n  div\n  dup2\n  add\n  swap3\n  dup3\n  tag_28\n  jumpi\n  0x00\n  dup6\n  sstore\n  jump(tag_27)\ntag_28:\n  dup3\n  0x1f\n  lt\n  tag_29\n  jumpi\n  dup1\n  mload\n  not(0xff)\n  and\n  dup4\n  dup1\n  add\n  or\n  dup6\n  sstore\n  jump(tag_27)\ntag_29:\n  dup3\n  dup1\n  add\n  0x01\n  add\n  dup6\n  sstore\n  dup3\n  iszero\n  tag_27\n  jumpi\n  swap2\n  dup3\n  add\ntag_30:\n  dup3\n  dup2\n  gt\n  iszero\n  tag_31\n  jumpi\n  dup3\n  mload\n  dup3\n  sstore\n  swap2\n  0x20\n  add\n  swap2\n  swap1\n  0x01\n  add\n  swap1\n  jump(tag_30)\ntag_31:\ntag_27:\n  pop\n  swap1\n  pop\n  tag_32\n  swap2\n  swap1\n  tag_33\n  jump\t// in\ntag_32:\n  pop\n  swap1\n  jump\t// out\ntag_33:\ntag_34:\n  dup1\n  dup3\n  gt\n  iszero\n  tag_35\n  jumpi\n  0x00\n  dup2\n  0x00\n  swap1\n  sstore\n  pop\n  0x01\n  add\n  jump(tag_34)\ntag_35:\n  pop\n  swap1\n  jump\t// out\n    /* \"#utility.yul\":7:428   */\ntag_37:\n    /* \"#utility.yul\":96:101   */\n  0x00\n    /* \"#utility.yul\":121:187   */\n  tag_39\n    /* \"#utility.yul\":137:186   */\n  tag_40\n    /* \"#utility.yul\":179:185   */\n  dup5\n    /* \"#utility.yul\":137:186   */\n  tag_41\n  jump\t// in\ntag_40:\n    /* \"#utility.yul\":121:187   */\n  tag_42\n  jump\t// in\ntag_39:\n    /* \"#utility.yul\":112:187   */\n  swap1\n  pop\n    /* \"#utility.yul\":210:216   */\n  dup3\n    /* \"#utility.yul\":203:208   */\n  dup2\n    /* \"#utility.yul\":196:217   */\n  mstore\n    /* \"#utility.yul\":248:252   */\n  0x20\n    /* \"#utility.yul\":241:246   */\n  dup2\n    /* \"#utility.yul\":237:253   */\n  add\n    /* \"#utility.yul\":286:289   */\n  dup5\n    /* \"#utility.yul\":277:283   */\n  dup5\n    /* \"#utility.yul\":272:275   */\n  dup5\n    /* \"#utility.yul\":268:284   */\n  add\n    /* \"#utility.yul\":265:290   */\n  gt\n    /* \"#utility.yul\":262:374   */\n  iszero\n  tag_43\n  jumpi\n    /* \"#utility.yul\":293:372   */\n  tag_44\n  tag_45\n  jump\t// in\ntag_44:\n    /* \"#utility.yul\":262:374   */\ntag_43:\n    /* \"#utility.yul\":383:422   */\n  tag_46\n    /* \"#utility.yul\":415:421   */\n  dup5\n    /* \"#utility.yul\":410:413   */\n  dup3\n    /* \"#utility.yul\":405:408   */\n  dup6\n    /* \"#utility.yul\":383:422   */\n  tag_47\n  jump\t// in\ntag_46:\n    /* \"#utility.yul\":102:428   */\n  pop\n    /* \"#utility.yul\":7:428   */\n  swap4\n  swap3\n  pop\n  pop\n  pop\n  jump\t// out\n    /* \"#utility.yul\":434:577   */\ntag_48:\n    /* \"#utility.yul\":491:496   */\n  0x00\n    /* \"#utility.yul\":522:528   */\n  dup2\n    /* \"#utility.yul\":516:529   */\n  mload\n    /* \"#utility.yul\":507:529   */\n  swap1\n  pop\n    /* \"#utility.yul\":538:571   */\n  tag_50\n    /* \"#utility.yul\":565:570   */\n  dup2\n    /* \"#utility.yul\":538:571   */\n  tag_51\n  jump\t// in\ntag_50:\n    /* \"#utility.yul\":434:577   */\n  swap3\n  swap2\n  pop\n  pop\n  jump\t// out\n    /* \"#utility.yul\":583:720   */\ntag_52:\n    /* \"#utility.yul\":637:642   */\n  0x00\n    /* \"#utility.yul\":668:674   */\n  dup2\n    /* \"#utility.yul\":662:675   */\n  mload\n    /* \"#utility.yul\":653:675   */\n  swap1\n  pop\n    /* \"#utility.yul\":684:714   */\n  tag_54\n    /* \"#utility.yul\":708:713   */\n  dup2\n    /* \"#utility.yul\":684:714   */\n  tag_55\n  jump\t// in\ntag_54:\n    /* \"#utility.yul\":583:720   */\n  swap3\n  swap2\n  pop\n  pop\n  jump\t// out\n    /* \"#utility.yul\":740:1095   */\ntag_56:\n    /* \"#utility.yul\":807:812   */\n  0x00\n    /* \"#utility.yul\":856:859   */\n  dup3\n    /* \"#utility.yul\":849:853   */\n  0x1f\n    /* \"#utility.yul\":841:847   */\n  dup4\n    /* \"#utility.yul\":837:854   */\n  add\n    /* \"#utility.yul\":833:860   */\n  slt\n    /* \"#utility.yul\":823:945   */\n  tag_58\n  jumpi\n    /* \"#utility.yul\":864:943   */\n  tag_59\n  tag_60\n  jump\t// in\ntag_59:\n    /* \"#utility.yul\":823:945   */\ntag_58:\n    /* \"#utility.yul\":974:980   */\n  dup2\n    /* \"#utility.yul\":968:981   */\n  mload\n    /* \"#utility.yul\":999:1089   */\n  tag_61\n    /* \"#utility.yul\":1085:1088   */\n  dup5\n    /* \"#utility.yul\":1077:1083   */\n  dup3\n    /* \"#utility.yul\":1070:1074   */\n  0x20\n    /* \"#utility.yul\":1062:1068   */\n  dup7\n    /* \"#utility.yul\":1058:1075   */\n  add\n    /* \"#utility.yul\":999:1089   */\n  tag_37\n  jump\t// in\ntag_61:\n    /* \"#utility.yul\":990:1089   */\n  swap2\n  pop\n    /* \"#utility.yul\":813:1095   */\n  pop\n    /* \"#utility.yul\":740:1095   */\n  swap3\n  swap2\n  pop\n  pop\n  jump\t// out\n    /* \"#utility.yul\":1101:1446   */\ntag_24:\n    /* \"#utility.yul\":1168:1174   */\n  0x00\n    /* \"#utility.yul\":1217:1219   */\n  0x20\n    /* \"#utility.yul\":1205:1214   */\n  dup3\n    /* \"#utility.yul\":1196:1203   */\n  dup5\n    /* \"#utility.yul\":1192:1215   */\n  sub\n    /* \"#utility.yul\":1188:1220   */\n  slt\n    /* \"#utility.yul\":1185:1304   */\n  iszero\n  tag_63\n  jumpi\n    /* \"#utility.yul\":1223:1302   */\n  tag_64\n  tag_65\n  jump\t// in\ntag_64:\n    /* \"#utility.yul\":1185:1304   */\ntag_63:\n    /* \"#utility.yul\":1343:1344   */\n  0x00\n    /* \"#utility.yul\":1368:1429   */\n  tag_66\n    /* \"#utility.yul\":1421:1428   */\n  dup5\n    /* \"#utility.yul\":1412:1418   */\n  dup3\n    /* \"#utility.yul\":1401:1410   */\n  dup6\n    /* \"#utility.yul\":1397:1419   */\n  add\n    /* \"#utility.yul\":1368:1429   */\n  tag_52\n  jump\t// in\ntag_66:\n    /* \"#utility.yul\":1358:1429   */\n  swap2\n  pop\n    /* \"#utility.yul\":1314:1439   */\n  pop\n    /* \"#utility.yul\":1101:1446   */\n  swap3\n  swap2\n  pop\n  pop\n  jump\t// out\n    /* \"#utility.yul\":1452:2132   */\ntag_3:\n    /* \"#utility.yul\":1541:1547   */\n  0x00\n    /* \"#utility.yul\":1549:1555   */\n  dup1\n    /* \"#utility.yul\":1598:1600   */\n  0x40\n    /* \"#utility.yul\":1586:1595   */\n  dup4\n    /* \"#utility.yul\":1577:1584   */\n  dup6\n    /* \"#utility.yul\":1573:1596   */\n  sub\n    /* \"#utility.yul\":1569:1601   */\n  slt\n    /* \"#utility.yul\":1566:1685   */\n  iszero\n  tag_68\n  jumpi\n    /* \"#utility.yul\":1604:1683   */\n  tag_69\n  tag_65\n  jump\t// in\ntag_69:\n    /* \"#utility.yul\":1566:1685   */\ntag_68:\n    /* \"#utility.yul\":1745:1746   */\n  0x00\n    /* \"#utility.yul\":1734:1743   */\n  dup4\n    /* \"#utility.yul\":1730:1747   */\n  add\n    /* \"#utility.yul\":1724:1748   */\n  mload\n    /* \"#utility.yul\":1775:1793   */\n  0xffffffffffffffff\n    /* \"#utility.yul\":1767:1773   */\n  dup2\n    /* \"#utility.yul\":1764:1794   */\n  gt\n    /* \"#utility.yul\":1761:1878   */\n  iszero\n  tag_70\n  jumpi\n    /* \"#utility.yul\":1797:1876   */\n  tag_71\n  tag_72\n  jump\t// in\ntag_71:\n    /* \"#utility.yul\":1761:1878   */\ntag_70:\n    /* \"#utility.yul\":1902:1976   */\n  tag_73\n    /* \"#utility.yul\":1968:1975   */\n  dup6\n    /* \"#utility.yul\":1959:1965   */\n  dup3\n    /* \"#utility.yul\":1948:1957   */\n  dup7\n    /* \"#utility.yul\":1944:1966   */\n  add\n    /* \"#utility.yul\":1902:1976   */\n  tag_56\n  jump\t// in\ntag_73:\n    /* \"#utility.yul\":1892:1976   */\n  swap3\n  pop\n    /* \"#utility.yul\":1695:1986   */\n  pop\n    /* \"#utility.yul\":2025:2027   */\n  0x20\n    /* \"#utility.yul\":2051:2115   */\n  tag_74\n    /* \"#utility.yul\":2107:2114   */\n  dup6\n    /* \"#utility.yul\":2098:2104   */\n  dup3\n    /* \"#utility.yul\":2087:2096   */\n  dup7\n    /* \"#utility.yul\":2083:2105   */\n  add\n    /* \"#utility.yul\":2051:2115   */\n  tag_48\n  jump\t// in\ntag_74:\n    /* \"#utility.yul\":2041:2115   */\n  swap2\n  pop\n    /* \"#utility.yul\":1996:2125   */\n  pop\n    /* \"#utility.yul\":1452:2132   */\n  swap3\n  pop\n  swap3\n  swap1\n  pop\n  jump\t// out\n    /* \"#utility.yul\":2138:2256   */\ntag_75:\n    /* \"#utility.yul\":2225:2249   */\n  tag_77\n    /* \"#utility.yul\":2243:2248   */\n  dup2\n    /* \"#utility.yul\":2225:2249   */\n  tag_78\n  jump\t// in\ntag_77:\n    /* \"#utility.yul\":2220:2223   */\n  dup3\n    /* \"#utility.yul\":2213:2250   */\n  mstore\n    /* \"#utility.yul\":2138:2256   */\n  pop\n  pop\n  jump\t// out\n    /* \"#utility.yul\":2262:2626   */\ntag_79:\n    /* \"#utility.yul\":2350:2353   */\n  0x00\n    /* \"#utility.yul\":2378:2417   */\n  tag_81\n    /* \"#utility.yul\":2411:2416   */\n  dup3\n    /* \"#utility.yul\":2378:2417   */\n  tag_82\n  jump\t// in\ntag_81:\n    /* \"#utility.yul\":2433:2504   */\n  tag_83\n    /* \"#utility.yul\":2497:2503   */\n  dup2\n    /* \"#utility.yul\":2492:2495   */\n  dup6\n    /* \"#utility.yul\":2433:2504   */\n  tag_84\n  jump\t// in\ntag_83:\n    /* \"#utility.yul\":2426:2504   */\n  swap4\n  pop\n    /* \"#utility.yul\":2513:2565   */\n  tag_85\n    /* \"#utility.yul\":2558:2564   */\n  dup2\n    /* \"#utility.yul\":2553:2556   */\n  dup6\n    /* \"#utility.yul\":2546:2550   */\n  0x20\n    /* \"#utility.yul\":2539:2544   */\n  dup7\n    /* \"#utility.yul\":2535:2551   */\n  add\n    /* \"#utility.yul\":2513:2565   */\n  tag_47\n  jump\t// in\ntag_85:\n    /* \"#utility.yul\":2590:2619   */\n  tag_86\n    /* \"#utility.yul\":2612:2618   */\n  dup2\n    /* \"#utility.yul\":2590:2619   */\n  tag_87\n  jump\t// in\ntag_86:\n    /* \"#utility.yul\":2585:2588   */\n  dup5\n    /* \"#utility.yul\":2581:2620   */\n  add\n    /* \"#utility.yul\":2574:2620   */\n  swap2\n  pop\n    /* \"#utility.yul\":2354:2626   */\n  pop\n    /* \"#utility.yul\":2262:2626   */\n  swap3\n  swap2\n  pop\n  pop\n  jump\t// out\n    /* \"#utility.yul\":2632:2998   */\ntag_88:\n    /* \"#utility.yul\":2774:2777   */\n  0x00\n    /* \"#utility.yul\":2795:2862   */\n  tag_90\n    /* \"#utility.yul\":2859:2861   */\n  0x14\n    /* \"#utility.yul\":2854:2857   */\n  dup4\n    /* \"#utility.yul\":2795:2862   */\n  tag_84\n  jump\t// in\ntag_90:\n    /* \"#utility.yul\":2788:2862   */\n  swap2\n  pop\n    /* \"#utility.yul\":2871:2964   */\n  tag_91\n    /* \"#utility.yul\":2960:2963   */\n  dup3\n    /* \"#utility.yul\":2871:2964   */\n  tag_92\n  jump\t// in\ntag_91:\n    /* \"#utility.yul\":2989:2991   */\n  0x20\n    /* \"#utility.yul\":2984:2987   */\n  dup3\n    /* \"#utility.yul\":2980:2992   */\n  add\n    /* \"#utility.yul\":2973:2992   */\n  swap1\n  pop\n    /* \"#utility.yul\":2632:2998   */\n  swap2\n  swap1\n  pop\n  jump\t// out\n    /* \"#utility.yul\":3004:3226   */\ntag_19:\n    /* \"#utility.yul\":3097:3101   */\n  0x00\n    /* \"#utility.yul\":3135:3137   */\n  0x20\n    /* \"#utility.yul\":3124:3133   */\n  dup3\n    /* \"#utility.yul\":3120:3138   */\n  add\n    /* \"#utility.yul\":3112:3138   */\n  swap1\n  pop\n    /* \"#utility.yul\":3148:3219   */\n  tag_94\n    /* \"#utility.yul\":3216:3217   */\n  0x00\n    /* \"#utility.yul\":3205:3214   */\n  dup4\n    /* \"#utility.yul\":3201:3218   */\n  add\n    /* \"#utility.yul\":3192:3198   */\n  dup5\n    /* \"#utility.yul\":3148:3219   */\n  tag_75\n  jump\t// in\ntag_94:\n    /* \"#utility.yul\":3004:3226   */\n  swap3\n  swap2\n  pop\n  pop\n  jump\t// out\n    /* \"#utility.yul\":3232:3655   */\ntag_15:\n    /* \"#utility.yul\":3373:3377   */\n  0x00\n    /* \"#utility.yul\":3411:3413   */\n  0x40\n    /* \"#utility.yul\":3400:3409   */\n  dup3\n    /* \"#utility.yul\":3396:3414   */\n  add\n    /* \"#utility.yul\":3388:3414   */\n  swap1\n  pop\n    /* \"#utility.yul\":3460:3469   */\n  dup2\n    /* \"#utility.yul\":3454:3458   */\n  dup2\n    /* \"#utility.yul\":3450:3470   */\n  sub\n    /* \"#utility.yul\":3446:3447   */\n  0x00\n    /* \"#utility.yul\":3435:3444   */\n  dup4\n    /* \"#utility.yul\":3431:3448   */\n  add\n    /* \"#utility.yul\":3424:3471   */\n  mstore\n    /* \"#utility.yul\":3488:3566   */\n  tag_96\n    /* \"#utility.yul\":3561:3565   */\n  dup2\n    /* \"#utility.yul\":3552:3558   */\n  dup6\n    /* \"#utility.yul\":3488:3566   */\n  tag_79\n  jump\t// in\ntag_96:\n    /* \"#utility.yul\":3480:3566   */\n  swap1\n  pop\n    /* \"#utility.yul\":3576:3648   */\n  tag_97\n    /* \"#utility.yul\":3644:3646   */\n  0x20\n    /* \"#utility.yul\":3633:3642   */\n  dup4\n    /* \"#utility.yul\":3629:3647   */\n  add\n    /* \"#utility.yul\":3620:3626   */\n  dup5\n    /* \"#utility.yul\":3576:3648   */\n  tag_75\n  jump\t// in\ntag_97:\n    /* \"#utility.yul\":3232:3655   */\n  swap4\n  swap3\n  pop\n  pop\n  pop\n  jump\t// out\n    /* \"#utility.yul\":3661:4080   */\ntag_10:\n    /* \"#utility.yul\":3827:3831   */\n  0x00\n    /* \"#utility.yul\":3865:3867   */\n  0x20\n    /* \"#utility.yul\":3854:3863   */\n  dup3\n    /* \"#utility.yul\":3850:3868   */\n  add\n    /* \"#utility.yul\":3842:3868   */\n  swap1\n  pop\n    /* \"#utility.yul\":3914:3923   */\n  dup2\n    /* \"#utility.yul\":3908:3912   */\n  dup2\n    /* \"#utility.yul\":3904:3924   */\n  sub\n    /* \"#utility.yul\":3900:3901   */\n  0x00\n    /* \"#utility.yul\":3889:3898   */\n  dup4\n    /* \"#utility.yul\":3885:3902   */\n  add\n    /* \"#utility.yul\":3878:3925   */\n  mstore\n    /* \"#utility.yul\":3942:4073   */\n  tag_99\n    /* \"#utility.yul\":4068:4072   */\n  dup2\n    /* \"#utility.yul\":3942:4073   */\n  tag_88\n  jump\t// in\ntag_99:\n    /* \"#utility.yul\":3934:4073   */\n  swap1\n  pop\n    /* \"#utility.yul\":3661:4080   */\n  swap2\n  swap1\n  pop\n  jump\t// out\n    /* \"#utility.yul\":4086:4215   */\ntag_42:\n    /* \"#utility.yul\":4120:4126   */\n  0x00\n    /* \"#utility.yul\":4147:4167   */\n  tag_101\n  tag_102\n  jump\t// in\ntag_101:\n    /* \"#utility.yul\":4137:4167   */\n  swap1\n  pop\n    /* \"#utility.yul\":4176:4209   */\n  tag_103\n    /* \"#utility.yul\":4204:4208   */\n  dup3\n    /* \"#utility.yul\":4196:4202   */\n  dup3\n    /* \"#utility.yul\":4176:4209   */\n  tag_104\n  jump\t// in\ntag_103:\n    /* \"#utility.yul\":4086:4215   */\n  swap2\n  swap1\n  pop\n  jump\t// out\n    /* \"#utility.yul\":4221:4296   */\ntag_102:\n    /* \"#utility.yul\":4254:4260   */\n  0x00\n    /* \"#utility.yul\":4287:4289   */\n  0x40\n    /* \"#utility.yul\":4281:4290   */\n  mload\n    /* \"#utility.yul\":4271:4290   */\n  swap1\n  pop\n    /* \"#utility.yul\":4221:4296   */\n  swap1\n  jump\t// out\n    /* \"#utility.yul\":4302:4610   */\ntag_41:\n    /* \"#utility.yul\":4364:4368   */\n  0x00\n    /* \"#utility.yul\":4454:4472   */\n  0xffffffffffffffff\n    /* \"#utility.yul\":4446:4452   */\n  dup3\n    /* \"#utility.yul\":4443:4473   */\n  gt\n    /* \"#utility.yul\":4440:4496   */\n  iszero\n  tag_107\n  jumpi\n    /* \"#utility.yul\":4476:4494   */\n  tag_108\n  tag_109\n  jump\t// in\ntag_108:\n    /* \"#utility.yul\":4440:4496   */\ntag_107:\n    /* \"#utility.yul\":4514:4543   */\n  tag_110\n    /* \"#utility.yul\":4536:4542   */\n  dup3\n    /* \"#utility.yul\":4514:4543   */\n  tag_87\n  jump\t// in\ntag_110:\n    /* \"#utility.yul\":4506:4543   */\n  swap1\n  pop\n    /* \"#utility.yul\":4598:4602   */\n  0x20\n    /* \"#utility.yul\":4592:4596   */\n  dup2\n    /* \"#utility.yul\":4588:4603   */\n  add\n    /* \"#utility.yul\":4580:4603   */\n  swap1\n  pop\n    /* \"#utility.yul\":4302:4610   */\n  swap2\n  swap1\n  pop\n  jump\t// out\n    /* \"#utility.yul\":4616:4715   */\ntag_82:\n    /* \"#utility.yul\":4668:4674   */\n  0x00\n    /* \"#utility.yul\":4702:4707   */\n  dup2\n    /* \"#utility.yul\":4696:4708   */\n  mload\n    /* \"#utility.yul\":4686:4708   */\n  swap1\n  pop\n    /* \"#utility.yul\":4616:4715   */\n  swap2\n  swap1\n  pop\n  jump\t// out\n    /* \"#utility.yul\":4721:4890   */\ntag_84:\n    /* \"#utility.yul\":4805:4816   */\n  0x00\n    /* \"#utility.yul\":4839:4845   */\n  dup3\n    /* \"#utility.yul\":4834:4837   */\n  dup3\n    /* \"#utility.yul\":4827:4846   */\n  mstore\n    /* \"#utility.yul\":4879:4883   */\n  0x20\n    /* \"#utility.yul\":4874:4877   */\n  dup3\n    /* \"#utility.yul\":4870:4884   */\n  add\n    /* \"#utility.yul\":4855:4884   */\n  swap1\n  pop\n    /* \"#utility.yul\":4721:4890   */\n  swap3\n  swap2\n  pop\n  pop\n  jump\t// out\n    /* \"#utility.yul\":4896:4992   */\ntag_78:\n    /* \"#utility.yul\":4933:4940   */\n  0x00\n    /* \"#utility.yul\":4962:4986   */\n  tag_114\n    /* \"#utility.yul\":4980:4985   */\n  dup3\n    /* \"#utility.yul\":4962:4986   */\n  tag_115\n  jump\t// in\ntag_114:\n    /* \"#utility.yul\":4951:4986   */\n  swap1\n  pop\n    /* \"#utility.yul\":4896:4992   */\n  swap2\n  swap1\n  pop\n  jump\t// out\n    /* \"#utility.yul\":4998:5088   */\ntag_116:\n    /* \"#utility.yul\":5032:5039   */\n  0x00\n    /* \"#utility.yul\":5075:5080   */\n  dup2\n    /* \"#utility.yul\":5068:5081   */\n  iszero\n    /* \"#utility.yul\":5061:5082   */\n  iszero\n    /* \"#utility.yul\":5050:5082   */\n  swap1\n  pop\n    /* \"#utility.yul\":4998:5088   */\n  swap2\n  swap1\n  pop\n  jump\t// out\n    /* \"#utility.yul\":5094:5220   */\ntag_115:\n    /* \"#utility.yul\":5131:5138   */\n  0x00\n    /* \"#utility.yul\":5171:5213   */\n  0xffffffffffffffffffffffffffffffffffffffff\n    /* \"#utility.yul\":5164:5169   */\n  dup3\n    /* \"#utility.yul\":5160:5214   */\n  and\n    /* \"#utility.yul\":5149:5214   */\n  swap1\n  pop\n    /* \"#utility.yul\":5094:5220   */\n  swap2\n  swap1\n  pop\n  jump\t// out\n    /* \"#utility.yul\":5226:5533   */\ntag_47:\n    /* \"#utility.yul\":5294:5295   */\n  0x00\n    /* \"#utility.yul\":5304:5417   */\ntag_120:\n    /* \"#utility.yul\":5318:5324   */\n  dup4\n    /* \"#utility.yul\":5315:5316   */\n  dup2\n    /* \"#utility.yul\":5312:5325   */\n  lt\n    /* \"#utility.yul\":5304:5417   */\n  iszero\n  tag_122\n  jumpi\n    /* \"#utility.yul\":5403:5404   */\n  dup1\n    /* \"#utility.yul\":5398:5401   */\n  dup3\n    /* \"#utility.yul\":5394:5405   */\n  add\n    /* \"#utility.yul\":5388:5406   */\n  mload\n    /* \"#utility.yul\":5384:5385   */\n  dup2\n    /* \"#utility.yul\":5379:5382   */\n  dup5\n    /* \"#utility.yul\":5375:5386   */\n  add\n    /* \"#utility.yul\":5368:5407   */\n  mstore\n    /* \"#utility.yul\":5340:5342   */\n  0x20\n    /* \"#utility.yul\":5337:5338   */\n  dup2\n    /* \"#utility.yul\":5333:5343   */\n  add\n    /* \"#utility.yul\":5328:5343   */\n  swap1\n  pop\n    /* \"#utility.yul\":5304:5417   */\n  jump(tag_120)\ntag_122:\n    /* \"#utility.yul\":5435:5441   */\n  dup4\n    /* \"#utility.yul\":5432:5433   */\n  dup2\n    /* \"#utility.yul\":5429:5442   */\n  gt\n    /* \"#utility.yul\":5426:5527   */\n  iszero\n  tag_123\n  jumpi\n    /* \"#utility.yul\":5515:5516   */\n  0x00\n    /* \"#utility.yul\":5506:5512   */\n  dup5\n    /* \"#utility.yul\":5501:5504   */\n  dup5\n    /* \"#utility.yul\":5497:5513   */\n  add\n    /* \"#utility.yul\":5490:5517   */\n  mstore\n    /* \"#utility.yul\":5426:5527   */\ntag_123:\n    /* \"#utility.yul\":5275:5533   */\n  pop\n    /* \"#utility.yul\":5226:5533   */\n  pop\n  pop\n  pop\n  jump\t// out\n    /* \"#utility.yul\":5539:5859   */\ntag_26:\n    /* \"#utility.yul\":5583:5589   */\n  0x00\n    /* \"#utility.yul\":5620:5621   */\n  0x02\n    /* \"#utility.yul\":5614:5618   */\n  dup3\n    /* \"#utility.yul\":5610:5622   */\n  div\n    /* \"#utility.yul\":5600:5622   */\n  swap1\n  pop\n    /* \"#utility.yul\":5667:5668   */\n  0x01\n    /* \"#utility.yul\":5661:5665   */\n  dup3\n    /* \"#utility.yul\":5657:5669   */\n  and\n    /* \"#utility.yul\":5688:5706   */\n  dup1\n    /* \"#utility.yul\":5678:5759   */\n  tag_125\n  jumpi\n    /* \"#utility.yul\":5744:5748   */\n  0x7f\n    /* \"#utility.yul\":5736:5742   */\n  dup3\n    /* \"#utility.yul\":5732:5749   */\n  and\n    /* \"#utility.yul\":5722:5749   */\n  swap2\n  pop\n    /* \"#utility.yul\":5678:5759   */\ntag_125:\n    /* \"#utility.yul\":5806:5808   */\n  0x20\n    /* \"#utility.yul\":5798:5804   */\n  dup3\n    /* \"#utility.yul\":5795:5809   */\n  lt\n    /* \"#utility.yul\":5775:5793   */\n  dup2\n    /* \"#utility.yul\":5772:5810   */\n  eq\n    /* \"#utility.yul\":5769:5853   */\n  iszero\n  tag_126\n  jumpi\n    /* \"#utility.yul\":5825:5843   */\n  tag_127\n  tag_128\n  jump\t// in\ntag_127:\n    /* \"#utility.yul\":5769:5853   */\ntag_126:\n    /* \"#utility.yul\":5590:5859   */\n  pop\n    /* \"#utility.yul\":5539:5859   */\n  swap2\n  swap1\n  pop\n  jump\t// out\n    /* \"#utility.yul\":5865:6146   */\ntag_104:\n    /* \"#utility.yul\":5948:5975   */\n  tag_130\n    /* \"#utility.yul\":5970:5974   */\n  dup3\n    /* \"#utility.yul\":5948:5975   */\n  tag_87\n  jump\t// in\ntag_130:\n    /* \"#utility.yul\":5940:5946   */\n  dup2\n    /* \"#utility.yul\":5936:5976   */\n  add\n    /* \"#utility.yul\":6078:6084   */\n  dup2\n    /* \"#utility.yul\":6066:6076   */\n  dup2\n    /* \"#utility.yul\":6063:6085   */\n  lt\n    /* \"#utility.yul\":6042:6060   */\n  0xffffffffffffffff\n    /* \"#utility.yul\":6030:6040   */\n  dup3\n    /* \"#utility.yul\":6027:6061   */\n  gt\n    /* \"#utility.yul\":6024:6086   */\n  or\n    /* \"#utility.yul\":6021:6109   */\n  iszero\n  tag_131\n  jumpi\n    /* \"#utility.yul\":6089:6107   */\n  tag_132\n  tag_109\n  jump\t// in\ntag_132:\n    /* \"#utility.yul\":6021:6109   */\ntag_131:\n    /* \"#utility.yul\":6129:6139   */\n  dup1\n    /* \"#utility.yul\":6125:6127   */\n  0x40\n    /* \"#utility.yul\":6118:6140   */\n  mstore\n    /* \"#utility.yul\":5908:6146   */\n  pop\n    /* \"#utility.yul\":5865:6146   */\n  pop\n  pop\n  jump\t// out\n    /* \"#utility.yul\":6152:6332   */\ntag_128:\n    /* \"#utility.yul\":6200:6277   */\n  0x4e487b7100000000000000000000000000000000000000000000000000000000\n    /* \"#utility.yul\":6197:6198   */\n  0x00\n    /* \"#utility.yul\":6190:6278   */\n  mstore\n    /* \"#utility.yul\":6297:6301   */\n  0x22\n    /* \"#utility.yul\":6294:6295   */\n  0x04\n    /* \"#utility.yul\":6287:6302   */\n  mstore\n    /* \"#utility.yul\":6321:6325   */\n  0x24\n    /* \"#utility.yul\":6318:6319   */\n  0x00\n    /* \"#utility.yul\":6311:6326   */\n  revert\n    /* \"#utility.yul\":6338:6518   */\ntag_109:\n    /* \"#utility.yul\":6386:6463   */\n  0x4e487b7100000000000000000000000000000000000000000000000000000000\n    /* \"#utility.yul\":6383:6384   */\n  0x00\n    /* \"#utility.yul\":6376:6464   */\n  mstore\n    /* \"#utility.yul\":6483:6487   */\n  0x41\n    /* \"#utility.yul\":6480:6481   */\n  0x04\n    /* \"#utility.yul\":6473:6488   */\n  mstore\n    /* \"#utility.yul\":6507:6511   */\n  0x24\n    /* \"#utility.yul\":6504:6505   */\n  0x00\n    /* \"#utility.yul\":6497:6512   */\n  revert\n    /* \"#utility.yul\":6524:6641   */\ntag_60:\n    /* \"#utility.yul\":6633:6634   */\n  0x00\n    /* \"#utility.yul\":6630:6631   */\n  dup1\n    /* \"#utility.yul\":6623:6635   */\n  revert\n    /* \"#utility.yul\":6647:6764   */\ntag_45:\n    /* \"#utility.yul\":6756:6757   */\n  0x00\n    /* \"#utility.yul\":6753:6754   */\n  dup1\n    /* \"#utility.yul\":6746:6758   */\n  revert\n    /* \"#utility.yul\":6770:6887   */\ntag_72:\n    /* \"#utility.yul\":6879:6880   */\n  0x00\n    /* \"#utility.yul\":6876:6877   */\n  dup1\n    /* \"#utility.yul\":6869:6881   */\n  revert\n    /* \"#utility.yul\":6893:7010   */\ntag_65:\n    /* \"#utility.yul\":7002:7003   */\n  0x00\n    /* \"#utility.yul\":6999:7000   */\n  dup1\n    /* \"#utility.yul\":6992:7004   */\n  revert\n    /* \"#utility.yul\":7016:7118   */\ntag_87:\n    /* \"#utility.yul\":7057:7063   */\n  0x00\n    /* \"#utility.yul\":7108:7110   */\n  0x1f\n    /* \"#utility.yul\":7104:7111   */\n  not\n    /* \"#utility.yul\":7099:7101   */\n  0x1f\n    /* \"#utility.yul\":7092:7097   */\n  dup4\n    /* \"#utility.yul\":7088:7102   */\n  add\n    /* \"#utility.yul\":7084:7112   */\n  and\n    /* \"#utility.yul\":7074:7112   */\n  swap1\n  pop\n    /* \"#utility.yul\":7016:7118   */\n  swap2\n  swap1\n  pop\n  jump\t// out\n    /* \"#utility.yul\":7124:7294   */\ntag_92:\n    /* \"#utility.yul\":7264:7286   */\n  0x5f7369676e6572206973206e6f742076616c6964000000000000000000000000\n    /* \"#utility.yul\":7260:7261   */\n  0x00\n    /* \"#utility.yul\":7252:7258   */\n  dup3\n    /* \"#utility.yul\":7248:7262   */\n  add\n    /* \"#utility.yul\":7241:7287   */\n  mstore\n    /* \"#utility.yul\":7124:7294   */\n  pop\n  jump\t// out\n    /* \"#utility.yul\":7300:7422   */\ntag_51:\n    /* \"#utility.yul\":7373:7397   */\n  tag_142\n    /* \"#utility.yul\":7391:7396   */\n  dup2\n    /* \"#utility.yul\":7373:7397   */\n  tag_78\n  jump\t// in\ntag_142:\n    /* \"#utility.yul\":7366:7371   */\n  dup2\n    /* \"#utility.yul\":7363:7398   */\n  eq\n    /* \"#utility.yul\":7353:7416   */\n  tag_143\n  jumpi\n    /* \"#utility.yul\":7412:7413   */\n  0x00\n    /* \"#utility.yul\":7409:7410   */\n  dup1\n    /* \"#utility.yul\":7402:7414   */\n  revert\n    /* \"#utility.yul\":7353:7416   */\ntag_143:\n    /* \"#utility.yul\":7300:7422   */\n  pop\n  jump\t// out\n    /* \"#utility.yul\":7428:7544   */\ntag_55:\n    /* \"#utility.yul\":7498:7519   */\n  tag_145\n    /* \"#utility.yul\":7513:7518   */\n  dup2\n    /* \"#utility.yul\":7498:7519   */\n  tag_116\n  jump\t// in\ntag_145:\n    /* \"#utility.yul\":7491:7496   */\n  dup2\n    /* \"#utility.yul\":7488:7520   */\n  eq\n    /* \"#utility.yul\":7478:7538   */\n  tag_146\n  jumpi\n    /* \"#utility.yul\":7534:7535   */\n  0x00\n    /* \"#utility.yul\":7531:7532   */\n  dup1\n    /* \"#utility.yul\":7524:7536   */\n  revert\n    /* \"#utility.yul\":7478:7538   */\ntag_146:\n    /* \"#utility.yul\":7428:7544   */\n  pop\n  jump\t// out\n    /* \"evidence/evidence.sol\":279:2443  contract Evidence {\r... */\ntag_16:\n  dataSize(sub_0)\n  dup1\n  dataOffset(sub_0)\n  0x00\n  codecopy\n  0x00\n  return\nstop\n\nsub_0: assembly {\n        /* \"evidence/evidence.sol\":279:2443  contract Evidence {\r... */\n      mstore(0x40, 0x80)\n      callvalue\n      dup1\n      iszero\n      tag_1\n      jumpi\n      0x00\n      dup1\n      revert\n    tag_1:\n      pop\n      jumpi(tag_2, lt(calldatasize, 0x04))\n      shr(0xe0, calldataload(0x00))\n      dup1\n      0x2ca15122\n      eq\n      tag_3\n      jumpi\n      dup1\n      0x3c68af3e\n      eq\n      tag_4\n      jumpi\n      dup1\n      0x50ca0928\n      eq\n      tag_5\n      jumpi\n      dup1\n      0x596f21f8\n      eq\n      tag_6\n      jumpi\n      dup1\n      0x963671be\n      eq\n      tag_7\n      jumpi\n    tag_2:\n      0x00\n      dup1\n      revert\n        /* \"evidence/evidence.sol\":1506:1865  function sign() public returns(bool){\r... */\n    tag_3:\n      tag_8\n      tag_9\n      jump\t// in\n    tag_8:\n      mload(0x40)\n      tag_10\n      swap2\n      swap1\n      tag_11\n      jump\t// in\n    tag_10:\n      mload(0x40)\n      dup1\n      swap2\n      sub\n      swap1\n      return\n        /* \"evidence/evidence.sol\":2145:2436  function isAllSigned() public view returns (bool,string memory){\r... */\n    tag_4:\n      tag_12\n      tag_13\n      jump\t// in\n    tag_12:\n      mload(0x40)\n      tag_14\n      swap3\n      swap2\n      swap1\n      tag_15\n      jump\t// in\n    tag_14:\n      mload(0x40)\n      dup1\n      swap2\n      sub\n      swap1\n      return\n        /* \"evidence/evidence.sol\":662:787  function callVerify(address _signer) public view returns(bool){\r... */\n    tag_5:\n      tag_16\n      0x04\n      dup1\n      calldatasize\n      sub\n      dup2\n      add\n      swap1\n      tag_17\n      swap2\n      swap1\n      tag_18\n      jump\t// in\n    tag_17:\n      tag_19\n      jump\t// in\n    tag_16:\n      mload(0x40)\n      tag_20\n      swap2\n      swap1\n      tag_11\n      jump\t// in\n    tag_20:\n      mload(0x40)\n      dup1\n      swap2\n      sub\n      swap1\n      return\n        /* \"evidence/evidence.sol\":1101:1488  function getEvidence() public view returns(string memory,address[] memory,address[] memory){\r... */\n    tag_6:\n      tag_21\n      tag_22\n      jump\t// in\n    tag_21:\n      mload(0x40)\n      tag_23\n      swap4\n      swap3\n      swap2\n      swap1\n      tag_24\n      jump\t// in\n    tag_23:\n      mload(0x40)\n      dup1\n      swap2\n      sub\n      swap1\n      return\n        /* \"evidence/evidence.sol\":390:416  address public factoryAddr */\n    tag_7:\n      tag_25\n      tag_26\n      jump\t// in\n    tag_25:\n      mload(0x40)\n      tag_27\n      swap2\n      swap1\n      tag_28\n      jump\t// in\n    tag_27:\n      mload(0x40)\n      dup1\n      swap2\n      sub\n      swap1\n      return\n        /* \"evidence/evidence.sol\":1506:1865  function sign() public returns(bool){\r... */\n    tag_9:\n        /* \"evidence/evidence.sol\":1537:1541  bool */\n      0x00\n        /* \"evidence/evidence.sol\":1561:1582  callVerify(tx.origin) */\n      tag_30\n        /* \"evidence/evidence.sol\":1572:1581  tx.origin */\n      origin\n        /* \"evidence/evidence.sol\":1561:1571  callVerify */\n      tag_19\n        /* \"evidence/evidence.sol\":1561:1582  callVerify(tx.origin) */\n      jump\t// in\n    tag_30:\n        /* \"evidence/evidence.sol\":1553:1606  require(callVerify(tx.origin),\"_signer is not valid\") */\n      tag_31\n      jumpi\n      mload(0x40)\n      0x08c379a000000000000000000000000000000000000000000000000000000000\n      dup2\n      mstore\n      0x04\n      add\n      tag_32\n      swap1\n      tag_33\n      jump\t// in\n    tag_32:\n      mload(0x40)\n      dup1\n      swap2\n      sub\n      swap1\n      revert\n    tag_31:\n        /* \"evidence/evidence.sol\":1620:1639  isSigned(tx.origin) */\n      tag_34\n        /* \"evidence/evidence.sol\":1629:1638  tx.origin */\n      origin\n        /* \"evidence/evidence.sol\":1620:1628  isSigned */\n      tag_35\n        /* \"evidence/evidence.sol\":1620:1639  isSigned(tx.origin) */\n      jump\t// in\n    tag_34:\n        /* \"evidence/evidence.sol\":1617:1745  if(isSigned(tx.origin)){\r... */\n      iszero\n      tag_36\n      jumpi\n        /* \"evidence/evidence.sol\":1660:1707  AddRepeatSignaturesEvidence(evidence,tx.origin) */\n      0x57bb3fead2451e6a3a5680e94e3dba9642a2ea6e850811bf18feccc94c5968a9\n        /* \"evidence/evidence.sol\":1688:1696  evidence */\n      0x00\n        /* \"evidence/evidence.sol\":1697:1706  tx.origin */\n      origin\n        /* \"evidence/evidence.sol\":1660:1707  AddRepeatSignaturesEvidence(evidence,tx.origin) */\n      mload(0x40)\n      tag_37\n      swap3\n      swap2\n      swap1\n      tag_38\n      jump\t// in\n    tag_37:\n      mload(0x40)\n      dup1\n      swap2\n      sub\n      swap1\n      log1\n        /* \"evidence/evidence.sol\":1729:1733  true */\n      0x01\n        /* \"evidence/evidence.sol\":1722:1733  return true */\n      swap1\n      pop\n      jump(tag_29)\n        /* \"evidence/evidence.sol\":1617:1745  if(isSigned(tx.origin)){\r... */\n    tag_36:\n        /* \"evidence/evidence.sol\":1755:1762  signers */\n      0x01\n        /* \"evidence/evidence.sol\":1768:1777  tx.origin */\n      origin\n        /* \"evidence/evidence.sol\":1755:1778  signers.push(tx.origin) */\n      swap1\n      dup1\n      0x01\n      dup2\n      sload\n      add\n      dup1\n      dup3\n      sstore\n      dup1\n      swap2\n      pop\n      pop\n      0x01\n      swap1\n      sub\n      swap1\n      0x00\n      mstore\n      keccak256(0x00, 0x20)\n      add\n      0x00\n      swap1\n      swap2\n      swap1\n      swap2\n      swap1\n      swap2\n      0x0100\n      exp\n      dup2\n      sload\n      dup2\n      0xffffffffffffffffffffffffffffffffffffffff\n      mul\n      not\n      and\n      swap1\n      dup4\n      0xffffffffffffffffffffffffffffffffffffffff\n      and\n      mul\n      or\n      swap1\n      sstore\n      pop\n        /* \"evidence/evidence.sol\":1794:1835  AddSignaturesEvidence(evidence,tx.origin) */\n      0xb05e84f77f10ca9cd0a42f11422685a81fb7997e8c2500733527f8c2ee56ab29\n        /* \"evidence/evidence.sol\":1816:1824  evidence */\n      0x00\n        /* \"evidence/evidence.sol\":1825:1834  tx.origin */\n      origin\n        /* \"evidence/evidence.sol\":1794:1835  AddSignaturesEvidence(evidence,tx.origin) */\n      mload(0x40)\n      tag_40\n      swap3\n      swap2\n      swap1\n      tag_38\n      jump\t// in\n    tag_40:\n      mload(0x40)\n      dup1\n      swap2\n      sub\n      swap1\n      log1\n        /* \"evidence/evidence.sol\":1853:1857  true */\n      0x01\n        /* \"evidence/evidence.sol\":1846:1857  return true */\n      swap1\n      pop\n        /* \"evidence/evidence.sol\":1506:1865  function sign() public returns(bool){\r... */\n    tag_29:\n      swap1\n      jump\t// out\n        /* \"evidence/evidence.sol\":2145:2436  function isAllSigned() public view returns (bool,string memory){\r... */\n    tag_13:\n        /* \"evidence/evidence.sol\":2189:2193  bool */\n      0x00\n        /* \"evidence/evidence.sol\":2194:2207  string memory */\n      0x60\n        /* \"evidence/evidence.sol\":2219:2232  uint256 iSize */\n      0x00\n        /* \"evidence/evidence.sol\":2244:2255  factoryAddr */\n      0x02\n      0x00\n      swap1\n      sload\n      swap1\n      0x0100\n      exp\n      swap1\n      div\n      0xffffffffffffffffffffffffffffffffffffffff\n      and\n        /* \"evidence/evidence.sol\":2235:2271  IEvdence(factoryAddr).getSignersSize */\n      0xffffffffffffffffffffffffffffffffffffffff\n      and\n      0xfa69efbd\n        /* \"evidence/evidence.sol\":2235:2273  IEvdence(factoryAddr).getSignersSize() */\n      mload(0x40)\n      dup2\n      0xffffffff\n      and\n      0xe0\n      shl\n      dup2\n      mstore\n      0x04\n      add\n      0x20\n      mload(0x40)\n      dup1\n      dup4\n      sub\n      dup2\n      dup7\n      dup1\n      extcodesize\n      iszero\n      dup1\n      iszero\n      tag_42\n      jumpi\n      0x00\n      dup1\n      revert\n    tag_42:\n      pop\n      gas\n      staticcall\n      iszero\n      dup1\n      iszero\n      tag_44\n      jumpi\n      returndatasize\n      0x00\n      dup1\n      returndatacopy\n      revert(0x00, returndatasize)\n    tag_44:\n      pop\n      pop\n      pop\n      pop\n      mload(0x40)\n      returndatasize\n      not(0x1f)\n      0x1f\n      dup3\n      add\n      and\n      dup3\n      add\n      dup1\n      0x40\n      mstore\n      pop\n      dup2\n      add\n      swap1\n      tag_45\n      swap2\n      swap1\n      tag_46\n      jump\t// in\n    tag_45:\n        /* \"evidence/evidence.sol\":2219:2273  uint256 iSize = IEvdence(factoryAddr).getSignersSize() */\n      swap1\n      pop\n        /* \"evidence/evidence.sol\":2288:2297  uint256 i */\n      0x00\n        /* \"evidence/evidence.sol\":2284:2425  for(uint256 i = 0;i < iSize; i++){\r... */\n    tag_47:\n        /* \"evidence/evidence.sol\":2306:2311  iSize */\n      dup2\n        /* \"evidence/evidence.sol\":2302:2303  i */\n      dup2\n        /* \"evidence/evidence.sol\":2302:2311  i < iSize */\n      lt\n        /* \"evidence/evidence.sol\":2284:2425  for(uint256 i = 0;i < iSize; i++){\r... */\n      iszero\n      tag_48\n      jumpi\n        /* \"evidence/evidence.sol\":2335:2379  isSigned(IEvdence(factoryAddr).getSigner(i)) */\n      tag_50\n        /* \"evidence/evidence.sol\":2353:2364  factoryAddr */\n      0x02\n      0x00\n      swap1\n      sload\n      swap1\n      0x0100\n      exp\n      swap1\n      div\n      0xffffffffffffffffffffffffffffffffffffffff\n      and\n        /* \"evidence/evidence.sol\":2344:2375  IEvdence(factoryAddr).getSigner */\n      0xffffffffffffffffffffffffffffffffffffffff\n      and\n      0x3ffefe4e\n        /* \"evidence/evidence.sol\":2376:2377  i */\n      dup4\n        /* \"evidence/evidence.sol\":2344:2378  IEvdence(factoryAddr).getSigner(i) */\n      mload(0x40)\n      dup3\n      0xffffffff\n      and\n      0xe0\n      shl\n      dup2\n      mstore\n      0x04\n      add\n      tag_51\n      swap2\n      swap1\n      tag_52\n      jump\t// in\n    tag_51:\n      0x20\n      mload(0x40)\n      dup1\n      dup4\n      sub\n      dup2\n      dup7\n      dup1\n      extcodesize\n      iszero\n      dup1\n      iszero\n      tag_53\n      jumpi\n      0x00\n      dup1\n      revert\n    tag_53:\n      pop\n      gas\n      staticcall\n      iszero\n      dup1\n      iszero\n      tag_55\n      jumpi\n      returndatasize\n      0x00\n      dup1\n      returndatacopy\n      revert(0x00, returndatasize)\n    tag_55:\n      pop\n      pop\n      pop\n      pop\n      mload(0x40)\n      returndatasize\n      not(0x1f)\n      0x1f\n      dup3\n      add\n      and\n      dup3\n      add\n      dup1\n      0x40\n      mstore\n      pop\n      dup2\n      add\n      swap1\n      tag_56\n      swap2\n      swap1\n      tag_57\n      jump\t// in\n    tag_56:\n        /* \"evidence/evidence.sol\":2335:2343  isSigned */\n      tag_35\n        /* \"evidence/evidence.sol\":2335:2379  isSigned(IEvdence(factoryAddr).getSigner(i)) */\n      jump\t// in\n    tag_50:\n        /* \"evidence/evidence.sol\":2332:2414  if(isSigned(IEvdence(factoryAddr).getSigner(i))){\r... */\n      pop\n        /* \"evidence/evidence.sol\":2313:2316  i++ */\n      dup1\n      dup1\n      tag_59\n      swap1\n      tag_60\n      jump\t// in\n    tag_59:\n      swap2\n      pop\n      pop\n        /* \"evidence/evidence.sol\":2284:2425  for(uint256 i = 0;i < iSize; i++){\r... */\n      jump(tag_47)\n    tag_48:\n      pop\n        /* \"evidence/evidence.sol\":2208:2436  {\r... */\n      pop\n        /* \"evidence/evidence.sol\":2145:2436  function isAllSigned() public view returns (bool,string memory){\r... */\n      swap1\n      swap2\n      jump\t// out\n        /* \"evidence/evidence.sol\":662:787  function callVerify(address _signer) public view returns(bool){\r... */\n    tag_19:\n        /* \"evidence/evidence.sol\":719:723  bool */\n      0x00\n        /* \"evidence/evidence.sol\":751:762  factoryAddr */\n      0x02\n      0x00\n      swap1\n      sload\n      swap1\n      0x0100\n      exp\n      swap1\n      div\n      0xffffffffffffffffffffffffffffffffffffffff\n      and\n        /* \"evidence/evidence.sol\":742:770  IEvdence(factoryAddr).verify */\n      0xffffffffffffffffffffffffffffffffffffffff\n      and\n      0x63a9c3d7\n        /* \"evidence/evidence.sol\":771:778  _signer */\n      dup4\n        /* \"evidence/evidence.sol\":742:779  IEvdence(factoryAddr).verify(_signer) */\n      mload(0x40)\n      dup3\n      0xffffffff\n      and\n      0xe0\n      shl\n      dup2\n      mstore\n      0x04\n      add\n      tag_62\n      swap2\n      swap1\n      tag_28\n      jump\t// in\n    tag_62:\n      0x20\n      mload(0x40)\n      dup1\n      dup4\n      sub\n      dup2\n      dup7\n      dup1\n      extcodesize\n      iszero\n      dup1\n      iszero\n      tag_63\n      jumpi\n      0x00\n      dup1\n      revert\n    tag_63:\n      pop\n      gas\n      staticcall\n      iszero\n      dup1\n      iszero\n      tag_65\n      jumpi\n      returndatasize\n      0x00\n      dup1\n      returndatacopy\n      revert(0x00, returndatasize)\n    tag_65:\n      pop\n      pop\n      pop\n      pop\n      mload(0x40)\n      returndatasize\n      not(0x1f)\n      0x1f\n      dup3\n      add\n      and\n      dup3\n      add\n      dup1\n      0x40\n      mstore\n      pop\n      dup2\n      add\n      swap1\n      tag_66\n      swap2\n      swap1\n      tag_67\n      jump\t// in\n    tag_66:\n        /* \"evidence/evidence.sol\":735:779  return IEvdence(factoryAddr).verify(_signer) */\n      swap1\n      pop\n        /* \"evidence/evidence.sol\":662:787  function callVerify(address _signer) public view returns(bool){\r... */\n      swap2\n      swap1\n      pop\n      jump\t// out\n        /* \"evidence/evidence.sol\":1101:1488  function getEvidence() public view returns(string memory,address[] memory,address[] memory){\r... */\n    tag_22:\n        /* \"evidence/evidence.sol\":1144:1157  string memory */\n      0x60\n        /* \"evidence/evidence.sol\":1158:1174  address[] memory */\n      dup1\n        /* \"evidence/evidence.sol\":1175:1191  address[] memory */\n      0x60\n        /* \"evidence/evidence.sol\":1203:1216  uint256 iSize */\n      0x00\n        /* \"evidence/evidence.sol\":1228:1239  factoryAddr */\n      0x02\n      0x00\n      swap1\n      sload\n      swap1\n      0x0100\n      exp\n      swap1\n      div\n      0xffffffffffffffffffffffffffffffffffffffff\n      and\n        /* \"evidence/evidence.sol\":1219:1255  IEvdence(factoryAddr).getSignersSize */\n      0xffffffffffffffffffffffffffffffffffffffff\n      and\n      0xfa69efbd\n        /* \"evidence/evidence.sol\":1219:1257  IEvdence(factoryAddr).getSignersSize() */\n      mload(0x40)\n      dup2\n      0xffffffff\n      and\n      0xe0\n      shl\n      dup2\n      mstore\n      0x04\n      add\n      0x20\n      mload(0x40)\n      dup1\n      dup4\n      sub\n      dup2\n      dup7\n      dup1\n      extcodesize\n      iszero\n      dup1\n      iszero\n      tag_69\n      jumpi\n      0x00\n      dup1\n      revert\n    tag_69:\n      pop\n      gas\n      staticcall\n      iszero\n      dup1\n      iszero\n      tag_71\n      jumpi\n      returndatasize\n      0x00\n      dup1\n      returndatacopy\n      revert(0x00, returndatasize)\n    tag_71:\n      pop\n      pop\n      pop\n      pop\n      mload(0x40)\n      returndatasize\n      not(0x1f)\n      0x1f\n      dup3\n      add\n      and\n      dup3\n      add\n      dup1\n      0x40\n      mstore\n      pop\n      dup2\n      add\n      swap1\n      tag_72\n      swap2\n      swap1\n      tag_46\n      jump\t// in\n    tag_72:\n        /* \"evidence/evidence.sol\":1203:1257  uint256 iSize = IEvdence(factoryAddr).getSignersSize() */\n      swap1\n      pop\n        /* \"evidence/evidence.sol\":1268:1295  address[] memory signerList */\n      0x00\n        /* \"evidence/evidence.sol\":1312:1317  iSize */\n      dup2\n        /* \"evidence/evidence.sol\":1298:1318  new address[](iSize) */\n      0xffffffffffffffff\n      dup2\n      gt\n      iszero\n      tag_73\n      jumpi\n      tag_74\n      tag_75\n      jump\t// in\n    tag_74:\n    tag_73:\n      mload(0x40)\n      swap1\n      dup1\n      dup3\n      mstore\n      dup1\n      0x20\n      mul\n      0x20\n      add\n      dup3\n      add\n      0x40\n      mstore\n      dup1\n      iszero\n      tag_76\n      jumpi\n      dup2\n      0x20\n      add\n      0x20\n      dup3\n      mul\n      dup1\n      calldatasize\n      dup4\n      calldatacopy\n      dup1\n      dup3\n      add\n      swap2\n      pop\n      pop\n      swap1\n      pop\n    tag_76:\n      pop\n        /* \"evidence/evidence.sol\":1268:1318  address[] memory signerList = new address[](iSize) */\n      swap1\n      pop\n        /* \"evidence/evidence.sol\":1333:1340  uint8 i */\n      0x00\n        /* \"evidence/evidence.sol\":1329:1433  for(uint8 i =0;i<iSize;i++){\r... */\n    tag_77:\n        /* \"evidence/evidence.sol\":1346:1351  iSize */\n      dup3\n        /* \"evidence/evidence.sol\":1344:1345  i */\n      dup2\n        /* \"evidence/evidence.sol\":1344:1351  i<iSize */\n      0xff\n      and\n      lt\n        /* \"evidence/evidence.sol\":1329:1433  for(uint8 i =0;i<iSize;i++){\r... */\n      iszero\n      tag_78\n      jumpi\n        /* \"evidence/evidence.sol\":1396:1407  factoryAddr */\n      0x02\n      0x00\n      swap1\n      sload\n      swap1\n      0x0100\n      exp\n      swap1\n      div\n      0xffffffffffffffffffffffffffffffffffffffff\n      and\n        /* \"evidence/evidence.sol\":1387:1418  IEvdence(factoryAddr).getSigner */\n      0xffffffffffffffffffffffffffffffffffffffff\n      and\n      0x3ffefe4e\n        /* \"evidence/evidence.sol\":1419:1420  i */\n      dup3\n        /* \"evidence/evidence.sol\":1387:1421  IEvdence(factoryAddr).getSigner(i) */\n      mload(0x40)\n      dup3\n      0xffffffff\n      and\n      0xe0\n      shl\n      dup2\n      mstore\n      0x04\n      add\n      tag_80\n      swap2\n      swap1\n      tag_81\n      jump\t// in\n    tag_80:\n      0x20\n      mload(0x40)\n      dup1\n      dup4\n      sub\n      dup2\n      dup7\n      dup1\n      extcodesize\n      iszero\n      dup1\n      iszero\n      tag_82\n      jumpi\n      0x00\n      dup1\n      revert\n    tag_82:\n      pop\n      gas\n      staticcall\n      iszero\n      dup1\n      iszero\n      tag_84\n      jumpi\n      returndatasize\n      0x00\n      dup1\n      returndatacopy\n      revert(0x00, returndatasize)\n    tag_84:\n      pop\n      pop\n      pop\n      pop\n      mload(0x40)\n      returndatasize\n      not(0x1f)\n      0x1f\n      dup3\n      add\n      and\n      dup3\n      add\n      dup1\n      0x40\n      mstore\n      pop\n      dup2\n      add\n      swap1\n      tag_85\n      swap2\n      swap1\n      tag_57\n      jump\t// in\n    tag_85:\n        /* \"evidence/evidence.sol\":1371:1381  signerList */\n      dup3\n        /* \"evidence/evidence.sol\":1382:1383  i */\n      dup3\n        /* \"evidence/evidence.sol\":1371:1384  signerList[i] */\n      0xff\n      and\n      dup2\n      mload\n      dup2\n      lt\n      tag_86\n      jumpi\n      tag_87\n      tag_88\n      jump\t// in\n    tag_87:\n    tag_86:\n      0x20\n      mul\n      0x20\n      add\n      add\n        /* \"evidence/evidence.sol\":1371:1421  signerList[i] = IEvdence(factoryAddr).getSigner(i) */\n      swap1\n      0xffffffffffffffffffffffffffffffffffffffff\n      and\n      swap1\n      dup2\n      0xffffffffffffffffffffffffffffffffffffffff\n      and\n      dup2\n      mstore\n      pop\n      pop\n        /* \"evidence/evidence.sol\":1352:1355  i++ */\n      dup1\n      dup1\n      tag_89\n      swap1\n      tag_90\n      jump\t// in\n    tag_89:\n      swap2\n      pop\n      pop\n        /* \"evidence/evidence.sol\":1329:1433  for(uint8 i =0;i<iSize;i++){\r... */\n      jump(tag_77)\n    tag_78:\n      pop\n        /* \"evidence/evidence.sol\":1450:1458  evidence */\n      0x00\n        /* \"evidence/evidence.sol\":1459:1469  signerList */\n      dup2\n        /* \"evidence/evidence.sol\":1470:1477  signers */\n      0x01\n        /* \"evidence/evidence.sol\":1443:1478  return(evidence,signerList,signers) */\n      dup3\n      dup1\n      sload\n      tag_91\n      swap1\n      tag_92\n      jump\t// in\n    tag_91:\n      dup1\n      0x1f\n      add\n      0x20\n      dup1\n      swap2\n      div\n      mul\n      0x20\n      add\n      mload(0x40)\n      swap1\n      dup2\n      add\n      0x40\n      mstore\n      dup1\n      swap3\n      swap2\n      swap1\n      dup2\n      dup2\n      mstore\n      0x20\n      add\n      dup3\n      dup1\n      sload\n      tag_93\n      swap1\n      tag_92\n      jump\t// in\n    tag_93:\n      dup1\n      iszero\n      tag_94\n      jumpi\n      dup1\n      0x1f\n      lt\n      tag_95\n      jumpi\n      0x0100\n      dup1\n      dup4\n      sload\n      div\n      mul\n      dup4\n      mstore\n      swap2\n      0x20\n      add\n      swap2\n      jump(tag_94)\n    tag_95:\n      dup3\n      add\n      swap2\n      swap1\n      0x00\n      mstore\n      keccak256(0x00, 0x20)\n      swap1\n    tag_96:\n      dup2\n      sload\n      dup2\n      mstore\n      swap1\n      0x01\n      add\n      swap1\n      0x20\n      add\n      dup1\n      dup4\n      gt\n      tag_96\n      jumpi\n      dup3\n      swap1\n      sub\n      0x1f\n      and\n      dup3\n      add\n      swap2\n    tag_94:\n      pop\n      pop\n      pop\n      pop\n      pop\n      swap3\n      pop\n      dup1\n      dup1\n      sload\n      dup1\n      0x20\n      mul\n      0x20\n      add\n      mload(0x40)\n      swap1\n      dup2\n      add\n      0x40\n      mstore\n      dup1\n      swap3\n      swap2\n      swap1\n      dup2\n      dup2\n      mstore\n      0x20\n      add\n      dup3\n      dup1\n      sload\n      dup1\n      iszero\n      tag_97\n      jumpi\n      0x20\n      mul\n      dup3\n      add\n      swap2\n      swap1\n      0x00\n      mstore\n      keccak256(0x00, 0x20)\n      swap1\n    tag_98:\n      dup2\n      0x00\n      swap1\n      sload\n      swap1\n      0x0100\n      exp\n      swap1\n      div\n      0xffffffffffffffffffffffffffffffffffffffff\n      and\n      0xffffffffffffffffffffffffffffffffffffffff\n      and\n      dup2\n      mstore\n      0x20\n      add\n      swap1\n      0x01\n      add\n      swap1\n      dup1\n      dup4\n      gt\n      tag_98\n      jumpi\n    tag_97:\n      pop\n      pop\n      pop\n      pop\n      pop\n      swap1\n      pop\n      swap5\n      pop\n      swap5\n      pop\n      swap5\n      pop\n      pop\n      pop\n        /* \"evidence/evidence.sol\":1101:1488  function getEvidence() public view returns(string memory,address[] memory,address[] memory){\r... */\n      swap1\n      swap2\n      swap3\n      jump\t// out\n        /* \"evidence/evidence.sol\":390:416  address public factoryAddr */\n    tag_26:\n      0x02\n      0x00\n      swap1\n      sload\n      swap1\n      0x0100\n      exp\n      swap1\n      div\n      0xffffffffffffffffffffffffffffffffffffffff\n      and\n      dup2\n      jump\t// out\n        /* \"evidence/evidence.sol\":1894:2136  function isSigned(address _signer) internal view returns(bool){\r... */\n    tag_35:\n        /* \"evidence/evidence.sol\":1951:1955  bool */\n      0x00\n        /* \"evidence/evidence.sol\":1971:1980  uint256 i */\n      dup1\n        /* \"evidence/evidence.sol\":1983:1984  0 */\n      0x00\n        /* \"evidence/evidence.sol\":1971:1984  uint256 i = 0 */\n      swap1\n      pop\n        /* \"evidence/evidence.sol\":1967:2104  for(uint256 i = 0;i<signers.length;i++){\r... */\n    tag_100:\n        /* \"evidence/evidence.sol\":1987:1994  signers */\n      0x01\n        /* \"evidence/evidence.sol\":1987:2001  signers.length */\n      dup1\n      sload\n      swap1\n      pop\n        /* \"evidence/evidence.sol\":1985:1986  i */\n      dup2\n        /* \"evidence/evidence.sol\":1985:2001  i<signers.length */\n      lt\n        /* \"evidence/evidence.sol\":1967:2104  for(uint256 i = 0;i<signers.length;i++){\r... */\n      iszero\n      tag_101\n      jumpi\n        /* \"evidence/evidence.sol\":2039:2046  _signer */\n      dup3\n        /* \"evidence/evidence.sol\":2025:2046  signers[i] == _signer */\n      0xffffffffffffffffffffffffffffffffffffffff\n      and\n        /* \"evidence/evidence.sol\":2025:2032  signers */\n      0x01\n        /* \"evidence/evidence.sol\":2033:2034  i */\n      dup3\n        /* \"evidence/evidence.sol\":2025:2035  signers[i] */\n      dup2\n      sload\n      dup2\n      lt\n      tag_103\n      jumpi\n      tag_104\n      tag_88\n      jump\t// in\n    tag_104:\n    tag_103:\n      swap1\n      0x00\n      mstore\n      keccak256(0x00, 0x20)\n      add\n      0x00\n      swap1\n      sload\n      swap1\n      0x0100\n      exp\n      swap1\n      div\n      0xffffffffffffffffffffffffffffffffffffffff\n      and\n        /* \"evidence/evidence.sol\":2025:2046  signers[i] == _signer */\n      0xffffffffffffffffffffffffffffffffffffffff\n      and\n      eq\n        /* \"evidence/evidence.sol\":2021:2093  if (signers[i] == _signer){\r... */\n      iszero\n      tag_106\n      jumpi\n        /* \"evidence/evidence.sol\":2073:2077  true */\n      0x01\n        /* \"evidence/evidence.sol\":2066:2077  return true */\n      swap2\n      pop\n      pop\n      jump(tag_99)\n        /* \"evidence/evidence.sol\":2021:2093  if (signers[i] == _signer){\r... */\n    tag_106:\n        /* \"evidence/evidence.sol\":2002:2005  i++ */\n      dup1\n      dup1\n      tag_107\n      swap1\n      tag_60\n      jump\t// in\n    tag_107:\n      swap2\n      pop\n      pop\n        /* \"evidence/evidence.sol\":1967:2104  for(uint256 i = 0;i<signers.length;i++){\r... */\n      jump(tag_100)\n    tag_101:\n      pop\n        /* \"evidence/evidence.sol\":2121:2126  false */\n      0x00\n        /* \"evidence/evidence.sol\":2114:2126  return false */\n      swap1\n      pop\n        /* \"evidence/evidence.sol\":1894:2136  function isSigned(address _signer) internal view returns(bool){\r... */\n    tag_99:\n      swap2\n      swap1\n      pop\n      jump\t// out\n        /* \"#utility.yul\":7:146   */\n    tag_109:\n        /* \"#utility.yul\":53:58   */\n      0x00\n        /* \"#utility.yul\":91:97   */\n      dup2\n        /* \"#utility.yul\":78:98   */\n      calldataload\n        /* \"#utility.yul\":69:98   */\n      swap1\n      pop\n        /* \"#utility.yul\":107:140   */\n      tag_111\n        /* \"#utility.yul\":134:139   */\n      dup2\n        /* \"#utility.yul\":107:140   */\n      tag_112\n      jump\t// in\n    tag_111:\n        /* \"#utility.yul\":7:146   */\n      swap3\n      swap2\n      pop\n      pop\n      jump\t// out\n        /* \"#utility.yul\":152:295   */\n    tag_113:\n        /* \"#utility.yul\":209:214   */\n      0x00\n        /* \"#utility.yul\":240:246   */\n      dup2\n        /* \"#utility.yul\":234:247   */\n      mload\n        /* \"#utility.yul\":225:247   */\n      swap1\n      pop\n        /* \"#utility.yul\":256:289   */\n      tag_115\n        /* \"#utility.yul\":283:288   */\n      dup2\n        /* \"#utility.yul\":256:289   */\n      tag_112\n      jump\t// in\n    tag_115:\n        /* \"#utility.yul\":152:295   */\n      swap3\n      swap2\n      pop\n      pop\n      jump\t// out\n        /* \"#utility.yul\":301:438   */\n    tag_116:\n        /* \"#utility.yul\":355:360   */\n      0x00\n        /* \"#utility.yul\":386:392   */\n      dup2\n        /* \"#utility.yul\":380:393   */\n      mload\n        /* \"#utility.yul\":371:393   */\n      swap1\n      pop\n        /* \"#utility.yul\":402:432   */\n      tag_118\n        /* \"#utility.yul\":426:431   */\n      dup2\n        /* \"#utility.yul\":402:432   */\n      tag_119\n      jump\t// in\n    tag_118:\n        /* \"#utility.yul\":301:438   */\n      swap3\n      swap2\n      pop\n      pop\n      jump\t// out\n        /* \"#utility.yul\":444:587   */\n    tag_120:\n        /* \"#utility.yul\":501:506   */\n      0x00\n        /* \"#utility.yul\":532:538   */\n      dup2\n        /* \"#utility.yul\":526:539   */\n      mload\n        /* \"#utility.yul\":517:539   */\n      swap1\n      pop\n        /* \"#utility.yul\":548:581   */\n      tag_122\n        /* \"#utility.yul\":575:580   */\n      dup2\n        /* \"#utility.yul\":548:581   */\n      tag_123\n      jump\t// in\n    tag_122:\n        /* \"#utility.yul\":444:587   */\n      swap3\n      swap2\n      pop\n      pop\n      jump\t// out\n        /* \"#utility.yul\":593:922   */\n    tag_18:\n        /* \"#utility.yul\":652:658   */\n      0x00\n        /* \"#utility.yul\":701:703   */\n      0x20\n        /* \"#utility.yul\":689:698   */\n      dup3\n        /* \"#utility.yul\":680:687   */\n      dup5\n        /* \"#utility.yul\":676:699   */\n      sub\n        /* \"#utility.yul\":672:704   */\n      slt\n        /* \"#utility.yul\":669:788   */\n      iszero\n      tag_125\n      jumpi\n        /* \"#utility.yul\":707:786   */\n      tag_126\n      tag_127\n      jump\t// in\n    tag_126:\n        /* \"#utility.yul\":669:788   */\n    tag_125:\n        /* \"#utility.yul\":827:828   */\n      0x00\n        /* \"#utility.yul\":852:905   */\n      tag_128\n        /* \"#utility.yul\":897:904   */\n      dup5\n        /* \"#utility.yul\":888:894   */\n      dup3\n        /* \"#utility.yul\":877:886   */\n      dup6\n        /* \"#utility.yul\":873:895   */\n      add\n        /* \"#utility.yul\":852:905   */\n      tag_109\n      jump\t// in\n    tag_128:\n        /* \"#utility.yul\":842:905   */\n      swap2\n      pop\n        /* \"#utility.yul\":798:915   */\n      pop\n        /* \"#utility.yul\":593:922   */\n      swap3\n      swap2\n      pop\n      pop\n      jump\t// out\n        /* \"#utility.yul\":928:1279   */\n    tag_57:\n        /* \"#utility.yul\":998:1004   */\n      0x00\n        /* \"#utility.yul\":1047:1049   */\n      0x20\n        /* \"#utility.yul\":1035:1044   */\n      dup3\n        /* \"#utility.yul\":1026:1033   */\n      dup5\n        /* \"#utility.yul\":1022:1045   */\n      sub\n        /* \"#utility.yul\":1018:1050   */\n      slt\n        /* \"#utility.yul\":1015:1134   */\n      iszero\n      tag_130\n      jumpi\n        /* \"#utility.yul\":1053:1132   */\n      tag_131\n      tag_127\n      jump\t// in\n    tag_131:\n        /* \"#utility.yul\":1015:1134   */\n    tag_130:\n        /* \"#utility.yul\":1173:1174   */\n      0x00\n        /* \"#utility.yul\":1198:1262   */\n      tag_132\n        /* \"#utility.yul\":1254:1261   */\n      dup5\n        /* \"#utility.yul\":1245:1251   */\n      dup3\n        /* \"#utility.yul\":1234:1243   */\n      dup6\n        /* \"#utility.yul\":1230:1252   */\n      add\n        /* \"#utility.yul\":1198:1262   */\n      tag_113\n      jump\t// in\n    tag_132:\n        /* \"#utility.yul\":1188:1262   */\n      swap2\n      pop\n        /* \"#utility.yul\":1144:1272   */\n      pop\n        /* \"#utility.yul\":928:1279   */\n      swap3\n      swap2\n      pop\n      pop\n      jump\t// out\n        /* \"#utility.yul\":1285:1630   */\n    tag_67:\n        /* \"#utility.yul\":1352:1358   */\n      0x00\n        /* \"#utility.yul\":1401:1403   */\n      0x20\n        /* \"#utility.yul\":1389:1398   */\n      dup3\n        /* \"#utility.yul\":1380:1387   */\n      dup5\n        /* \"#utility.yul\":1376:1399   */\n      sub\n        /* \"#utility.yul\":1372:1404   */\n      slt\n        /* \"#utility.yul\":1369:1488   */\n      iszero\n      tag_134\n      jumpi\n        /* \"#utility.yul\":1407:1486   */\n      tag_135\n      tag_127\n      jump\t// in\n    tag_135:\n        /* \"#utility.yul\":1369:1488   */\n    tag_134:\n        /* \"#utility.yul\":1527:1528   */\n      0x00\n        /* \"#utility.yul\":1552:1613   */\n      tag_136\n        /* \"#utility.yul\":1605:1612   */\n      dup5\n        /* \"#utility.yul\":1596:1602   */\n      dup3\n        /* \"#utility.yul\":1585:1594   */\n      dup6\n        /* \"#utility.yul\":1581:1603   */\n      add\n        /* \"#utility.yul\":1552:1613   */\n      tag_116\n      jump\t// in\n    tag_136:\n        /* \"#utility.yul\":1542:1613   */\n      swap2\n      pop\n        /* \"#utility.yul\":1498:1623   */\n      pop\n        /* \"#utility.yul\":1285:1630   */\n      swap3\n      swap2\n      pop\n      pop\n      jump\t// out\n        /* \"#utility.yul\":1636:1987   */\n    tag_46:\n        /* \"#utility.yul\":1706:1712   */\n      0x00\n        /* \"#utility.yul\":1755:1757   */\n      0x20\n        /* \"#utility.yul\":1743:1752   */\n      dup3\n        /* \"#utility.yul\":1734:1741   */\n      dup5\n        /* \"#utility.yul\":1730:1753   */\n      sub\n        /* \"#utility.yul\":1726:1758   */\n      slt\n        /* \"#utility.yul\":1723:1842   */\n      iszero\n      tag_138\n      jumpi\n        /* \"#utility.yul\":1761:1840   */\n      tag_139\n      tag_127\n      jump\t// in\n    tag_139:\n        /* \"#utility.yul\":1723:1842   */\n    tag_138:\n        /* \"#utility.yul\":1881:1882   */\n      0x00\n        /* \"#utility.yul\":1906:1970   */\n      tag_140\n        /* \"#utility.yul\":1962:1969   */\n      dup5\n        /* \"#utility.yul\":1953:1959   */\n      dup3\n        /* \"#utility.yul\":1942:1951   */\n      dup6\n        /* \"#utility.yul\":1938:1960   */\n      add\n        /* \"#utility.yul\":1906:1970   */\n      tag_120\n      jump\t// in\n    tag_140:\n        /* \"#utility.yul\":1896:1970   */\n      swap2\n      pop\n        /* \"#utility.yul\":1852:1980   */\n      pop\n        /* \"#utility.yul\":1636:1987   */\n      swap3\n      swap2\n      pop\n      pop\n      jump\t// out\n        /* \"#utility.yul\":1993:2172   */\n    tag_141:\n        /* \"#utility.yul\":2062:2072   */\n      0x00\n        /* \"#utility.yul\":2083:2129   */\n      tag_143\n        /* \"#utility.yul\":2125:2128   */\n      dup4\n        /* \"#utility.yul\":2117:2123   */\n      dup4\n        /* \"#utility.yul\":2083:2129   */\n      tag_144\n      jump\t// in\n    tag_143:\n        /* \"#utility.yul\":2161:2165   */\n      0x20\n        /* \"#utility.yul\":2156:2159   */\n      dup4\n        /* \"#utility.yul\":2152:2166   */\n      add\n        /* \"#utility.yul\":2138:2166   */\n      swap1\n      pop\n        /* \"#utility.yul\":1993:2172   */\n      swap3\n      swap2\n      pop\n      pop\n      jump\t// out\n        /* \"#utility.yul\":2178:2286   */\n    tag_144:\n        /* \"#utility.yul\":2255:2279   */\n      tag_146\n        /* \"#utility.yul\":2273:2278   */\n      dup2\n        /* \"#utility.yul\":2255:2279   */\n      tag_147\n      jump\t// in\n    tag_146:\n        /* \"#utility.yul\":2250:2253   */\n      dup3\n        /* \"#utility.yul\":2243:2280   */\n      mstore\n        /* \"#utility.yul\":2178:2286   */\n      pop\n      pop\n      jump\t// out\n        /* \"#utility.yul\":2292:2410   */\n    tag_148:\n        /* \"#utility.yul\":2379:2403   */\n      tag_150\n        /* \"#utility.yul\":2397:2402   */\n      dup2\n        /* \"#utility.yul\":2379:2403   */\n      tag_147\n      jump\t// in\n    tag_150:\n        /* \"#utility.yul\":2374:2377   */\n      dup3\n        /* \"#utility.yul\":2367:2404   */\n      mstore\n        /* \"#utility.yul\":2292:2410   */\n      pop\n      pop\n      jump\t// out\n        /* \"#utility.yul\":2446:3178   */\n    tag_151:\n        /* \"#utility.yul\":2565:2568   */\n      0x00\n        /* \"#utility.yul\":2594:2648   */\n      tag_153\n        /* \"#utility.yul\":2642:2647   */\n      dup3\n        /* \"#utility.yul\":2594:2648   */\n      tag_154\n      jump\t// in\n    tag_153:\n        /* \"#utility.yul\":2664:2750   */\n      tag_155\n        /* \"#utility.yul\":2743:2749   */\n      dup2\n        /* \"#utility.yul\":2738:2741   */\n      dup6\n        /* \"#utility.yul\":2664:2750   */\n      tag_156\n      jump\t// in\n    tag_155:\n        /* \"#utility.yul\":2657:2750   */\n      swap4\n      pop\n        /* \"#utility.yul\":2774:2830   */\n      tag_157\n        /* \"#utility.yul\":2824:2829   */\n      dup4\n        /* \"#utility.yul\":2774:2830   */\n      tag_158\n      jump\t// in\n    tag_157:\n        /* \"#utility.yul\":2853:2860   */\n      dup1\n        /* \"#utility.yul\":2884:2885   */\n      0x00\n        /* \"#utility.yul\":2869:3153   */\n    tag_159:\n        /* \"#utility.yul\":2894:2900   */\n      dup4\n        /* \"#utility.yul\":2891:2892   */\n      dup2\n        /* \"#utility.yul\":2888:2901   */\n      lt\n        /* \"#utility.yul\":2869:3153   */\n      iszero\n      tag_161\n      jumpi\n        /* \"#utility.yul\":2970:2976   */\n      dup2\n        /* \"#utility.yul\":2964:2977   */\n      mload\n        /* \"#utility.yul\":2997:3060   */\n      tag_162\n        /* \"#utility.yul\":3056:3059   */\n      dup9\n        /* \"#utility.yul\":3041:3054   */\n      dup3\n        /* \"#utility.yul\":2997:3060   */\n      tag_141\n      jump\t// in\n    tag_162:\n        /* \"#utility.yul\":2990:3060   */\n      swap8\n      pop\n        /* \"#utility.yul\":3083:3143   */\n      tag_163\n        /* \"#utility.yul\":3136:3142   */\n      dup4\n        /* \"#utility.yul\":3083:3143   */\n      tag_164\n      jump\t// in\n    tag_163:\n        /* \"#utility.yul\":3073:3143   */\n      swap3\n      pop\n        /* \"#utility.yul\":2929:3153   */\n      pop\n        /* \"#utility.yul\":2916:2917   */\n      0x01\n        /* \"#utility.yul\":2913:2914   */\n      dup2\n        /* \"#utility.yul\":2909:2918   */\n      add\n        /* \"#utility.yul\":2904:2918   */\n      swap1\n      pop\n        /* \"#utility.yul\":2869:3153   */\n      jump(tag_159)\n    tag_161:\n        /* \"#utility.yul\":2873:2887   */\n      pop\n        /* \"#utility.yul\":3169:3172   */\n      dup6\n        /* \"#utility.yul\":3162:3172   */\n      swap4\n      pop\n        /* \"#utility.yul\":2570:3178   */\n      pop\n      pop\n      pop\n        /* \"#utility.yul\":2446:3178   */\n      swap3\n      swap2\n      pop\n      pop\n      jump\t// out\n        /* \"#utility.yul\":3184:3293   */\n    tag_165:\n        /* \"#utility.yul\":3265:3286   */\n      tag_167\n        /* \"#utility.yul\":3280:3285   */\n      dup2\n        /* \"#utility.yul\":3265:3286   */\n      tag_168\n      jump\t// in\n    tag_167:\n        /* \"#utility.yul\":3260:3263   */\n      dup3\n        /* \"#utility.yul\":3253:3287   */\n      mstore\n        /* \"#utility.yul\":3184:3293   */\n      pop\n      pop\n      jump\t// out\n        /* \"#utility.yul\":3299:3663   */\n    tag_169:\n        /* \"#utility.yul\":3387:3390   */\n      0x00\n        /* \"#utility.yul\":3415:3454   */\n      tag_171\n        /* \"#utility.yul\":3448:3453   */\n      dup3\n        /* \"#utility.yul\":3415:3454   */\n      tag_172\n      jump\t// in\n    tag_171:\n        /* \"#utility.yul\":3470:3541   */\n      tag_173\n        /* \"#utility.yul\":3534:3540   */\n      dup2\n        /* \"#utility.yul\":3529:3532   */\n      dup6\n        /* \"#utility.yul\":3470:3541   */\n      tag_174\n      jump\t// in\n    tag_173:\n        /* \"#utility.yul\":3463:3541   */\n      swap4\n      pop\n        /* \"#utility.yul\":3550:3602   */\n      tag_175\n        /* \"#utility.yul\":3595:3601   */\n      dup2\n        /* \"#utility.yul\":3590:3593   */\n      dup6\n        /* \"#utility.yul\":3583:3587   */\n      0x20\n        /* \"#utility.yul\":3576:3581   */\n      dup7\n        /* \"#utility.yul\":3572:3588   */\n      add\n        /* \"#utility.yul\":3550:3602   */\n      tag_176\n      jump\t// in\n    tag_175:\n        /* \"#utility.yul\":3627:3656   */\n      tag_177\n        /* \"#utility.yul\":3649:3655   */\n      dup2\n        /* \"#utility.yul\":3627:3656   */\n      tag_178\n      jump\t// in\n    tag_177:\n        /* \"#utility.yul\":3622:3625   */\n      dup5\n        /* \"#utility.yul\":3618:3657   */\n      add\n        /* \"#utility.yul\":3611:3657   */\n      swap2\n      pop\n        /* \"#utility.yul\":3391:3663   */\n      pop\n        /* \"#utility.yul\":3299:3663   */\n      swap3\n      swap2\n      pop\n      pop\n      jump\t// out\n        /* \"#utility.yul\":3693:4495   */\n    tag_179:\n        /* \"#utility.yul\":3778:3781   */\n      0x00\n        /* \"#utility.yul\":3815:3820   */\n      dup2\n        /* \"#utility.yul\":3809:3821   */\n      sload\n        /* \"#utility.yul\":3844:3880   */\n      tag_181\n        /* \"#utility.yul\":3870:3879   */\n      dup2\n        /* \"#utility.yul\":3844:3880   */\n      tag_92\n      jump\t// in\n    tag_181:\n        /* \"#utility.yul\":3896:3967   */\n      tag_182\n        /* \"#utility.yul\":3960:3966   */\n      dup2\n        /* \"#utility.yul\":3955:3958   */\n      dup7\n        /* \"#utility.yul\":3896:3967   */\n      tag_174\n      jump\t// in\n    tag_182:\n        /* \"#utility.yul\":3889:3967   */\n      swap5\n      pop\n        /* \"#utility.yul\":3998:3999   */\n      0x01\n        /* \"#utility.yul\":3987:3996   */\n      dup3\n        /* \"#utility.yul\":3983:4000   */\n      and\n        /* \"#utility.yul\":4014:4015   */\n      0x00\n        /* \"#utility.yul\":4009:4144   */\n      dup2\n      eq\n      tag_184\n      jumpi\n        /* \"#utility.yul\":4158:4159   */\n      0x01\n        /* \"#utility.yul\":4153:4489   */\n      dup2\n      eq\n      tag_185\n      jumpi\n        /* \"#utility.yul\":3976:4489   */\n      jump(tag_183)\n        /* \"#utility.yul\":4009:4144   */\n    tag_184:\n        /* \"#utility.yul\":4093:4097   */\n      0xff\n        /* \"#utility.yul\":4089:4098   */\n      not\n        /* \"#utility.yul\":4078:4087   */\n      dup4\n        /* \"#utility.yul\":4074:4099   */\n      and\n        /* \"#utility.yul\":4069:4072   */\n      dup7\n        /* \"#utility.yul\":4062:4100   */\n      mstore\n        /* \"#utility.yul\":4129:4133   */\n      0x20\n        /* \"#utility.yul\":4124:4127   */\n      dup7\n        /* \"#utility.yul\":4120:4134   */\n      add\n        /* \"#utility.yul\":4113:4134   */\n      swap4\n      pop\n        /* \"#utility.yul\":4009:4144   */\n      jump(tag_183)\n        /* \"#utility.yul\":4153:4489   */\n    tag_185:\n        /* \"#utility.yul\":4220:4258   */\n      tag_186\n        /* \"#utility.yul\":4252:4257   */\n      dup6\n        /* \"#utility.yul\":4220:4258   */\n      tag_187\n      jump\t// in\n    tag_186:\n        /* \"#utility.yul\":4280:4281   */\n      0x00\n        /* \"#utility.yul\":4294:4448   */\n    tag_188:\n        /* \"#utility.yul\":4308:4314   */\n      dup4\n        /* \"#utility.yul\":4305:4306   */\n      dup2\n        /* \"#utility.yul\":4302:4315   */\n      lt\n        /* \"#utility.yul\":4294:4448   */\n      iszero\n      tag_190\n      jumpi\n        /* \"#utility.yul\":4382:4389   */\n      dup2\n        /* \"#utility.yul\":4376:4390   */\n      sload\n        /* \"#utility.yul\":4372:4373   */\n      dup2\n        /* \"#utility.yul\":4367:4370   */\n      dup10\n        /* \"#utility.yul\":4363:4374   */\n      add\n        /* \"#utility.yul\":4356:4391   */\n      mstore\n        /* \"#utility.yul\":4432:4433   */\n      0x01\n        /* \"#utility.yul\":4423:4430   */\n      dup3\n        /* \"#utility.yul\":4419:4434   */\n      add\n        /* \"#utility.yul\":4408:4434   */\n      swap2\n      pop\n        /* \"#utility.yul\":4330:4334   */\n      0x20\n        /* \"#utility.yul\":4327:4328   */\n      dup2\n        /* \"#utility.yul\":4323:4335   */\n      add\n        /* \"#utility.yul\":4318:4335   */\n      swap1\n      pop\n        /* \"#utility.yul\":4294:4448   */\n      jump(tag_188)\n    tag_190:\n        /* \"#utility.yul\":4477:4478   */\n      dup1\n        /* \"#utility.yul\":4472:4475   */\n      dup9\n        /* \"#utility.yul\":4468:4479   */\n      add\n        /* \"#utility.yul\":4461:4479   */\n      swap6\n      pop\n        /* \"#utility.yul\":4160:4489   */\n      pop\n      pop\n        /* \"#utility.yul\":3976:4489   */\n    tag_183:\n      pop\n        /* \"#utility.yul\":3782:4495   */\n      pop\n      pop\n        /* \"#utility.yul\":3693:4495   */\n      swap3\n      swap2\n      pop\n      pop\n      jump\t// out\n        /* \"#utility.yul\":4501:4867   */\n    tag_191:\n        /* \"#utility.yul\":4643:4646   */\n      0x00\n        /* \"#utility.yul\":4664:4731   */\n      tag_193\n        /* \"#utility.yul\":4728:4730   */\n      0x14\n        /* \"#utility.yul\":4723:4726   */\n      dup4\n        /* \"#utility.yul\":4664:4731   */\n      tag_174\n      jump\t// in\n    tag_193:\n        /* \"#utility.yul\":4657:4731   */\n      swap2\n      pop\n        /* \"#utility.yul\":4740:4833   */\n      tag_194\n        /* \"#utility.yul\":4829:4832   */\n      dup3\n        /* \"#utility.yul\":4740:4833   */\n      tag_195\n      jump\t// in\n    tag_194:\n        /* \"#utility.yul\":4858:4860   */\n      0x20\n        /* \"#utility.yul\":4853:4856   */\n      dup3\n        /* \"#utility.yul\":4849:4861   */\n      add\n        /* \"#utility.yul\":4842:4861   */\n      swap1\n      pop\n        /* \"#utility.yul\":4501:4867   */\n      swap2\n      swap1\n      pop\n      jump\t// out\n        /* \"#utility.yul\":4873:4991   */\n    tag_196:\n        /* \"#utility.yul\":4960:4984   */\n      tag_198\n        /* \"#utility.yul\":4978:4983   */\n      dup2\n        /* \"#utility.yul\":4960:4984   */\n      tag_199\n      jump\t// in\n    tag_198:\n        /* \"#utility.yul\":4955:4958   */\n      dup3\n        /* \"#utility.yul\":4948:4985   */\n      mstore\n        /* \"#utility.yul\":4873:4991   */\n      pop\n      pop\n      jump\t// out\n        /* \"#utility.yul\":4997:5124   */\n    tag_200:\n        /* \"#utility.yul\":5082:5117   */\n      tag_202\n        /* \"#utility.yul\":5111:5116   */\n      dup2\n        /* \"#utility.yul\":5082:5117   */\n      tag_203\n      jump\t// in\n    tag_202:\n        /* \"#utility.yul\":5077:5080   */\n      dup3\n        /* \"#utility.yul\":5070:5118   */\n      mstore\n        /* \"#utility.yul\":4997:5124   */\n      pop\n      pop\n      jump\t// out\n        /* \"#utility.yul\":5130:5352   */\n    tag_28:\n        /* \"#utility.yul\":5223:5227   */\n      0x00\n        /* \"#utility.yul\":5261:5263   */\n      0x20\n        /* \"#utility.yul\":5250:5259   */\n      dup3\n        /* \"#utility.yul\":5246:5264   */\n      add\n        /* \"#utility.yul\":5238:5264   */\n      swap1\n      pop\n        /* \"#utility.yul\":5274:5345   */\n      tag_205\n        /* \"#utility.yul\":5342:5343   */\n      0x00\n        /* \"#utility.yul\":5331:5340   */\n      dup4\n        /* \"#utility.yul\":5327:5344   */\n      add\n        /* \"#utility.yul\":5318:5324   */\n      dup5\n        /* \"#utility.yul\":5274:5345   */\n      tag_148\n      jump\t// in\n    tag_205:\n        /* \"#utility.yul\":5130:5352   */\n      swap3\n      swap2\n      pop\n      pop\n      jump\t// out\n        /* \"#utility.yul\":5358:5568   */\n    tag_11:\n        /* \"#utility.yul\":5445:5449   */\n      0x00\n        /* \"#utility.yul\":5483:5485   */\n      0x20\n        /* \"#utility.yul\":5472:5481   */\n      dup3\n        /* \"#utility.yul\":5468:5486   */\n      add\n        /* \"#utility.yul\":5460:5486   */\n      swap1\n      pop\n        /* \"#utility.yul\":5496:5561   */\n      tag_207\n        /* \"#utility.yul\":5558:5559   */\n      0x00\n        /* \"#utility.yul\":5547:5556   */\n      dup4\n        /* \"#utility.yul\":5543:5560   */\n      add\n        /* \"#utility.yul\":5534:5540   */\n      dup5\n        /* \"#utility.yul\":5496:5561   */\n      tag_165\n      jump\t// in\n    tag_207:\n        /* \"#utility.yul\":5358:5568   */\n      swap3\n      swap2\n      pop\n      pop\n      jump\t// out\n        /* \"#utility.yul\":5574:5985   */\n    tag_15:\n        /* \"#utility.yul\":5709:5713   */\n      0x00\n        /* \"#utility.yul\":5747:5749   */\n      0x40\n        /* \"#utility.yul\":5736:5745   */\n      dup3\n        /* \"#utility.yul\":5732:5750   */\n      add\n        /* \"#utility.yul\":5724:5750   */\n      swap1\n      pop\n        /* \"#utility.yul\":5760:5825   */\n      tag_209\n        /* \"#utility.yul\":5822:5823   */\n      0x00\n        /* \"#utility.yul\":5811:5820   */\n      dup4\n        /* \"#utility.yul\":5807:5824   */\n      add\n        /* \"#utility.yul\":5798:5804   */\n      dup6\n        /* \"#utility.yul\":5760:5825   */\n      tag_165\n      jump\t// in\n    tag_209:\n        /* \"#utility.yul\":5872:5881   */\n      dup2\n        /* \"#utility.yul\":5866:5870   */\n      dup2\n        /* \"#utility.yul\":5862:5882   */\n      sub\n        /* \"#utility.yul\":5857:5859   */\n      0x20\n        /* \"#utility.yul\":5846:5855   */\n      dup4\n        /* \"#utility.yul\":5842:5860   */\n      add\n        /* \"#utility.yul\":5835:5883   */\n      mstore\n        /* \"#utility.yul\":5900:5978   */\n      tag_210\n        /* \"#utility.yul\":5973:5977   */\n      dup2\n        /* \"#utility.yul\":5964:5970   */\n      dup5\n        /* \"#utility.yul\":5900:5978   */\n      tag_169\n      jump\t// in\n    tag_210:\n        /* \"#utility.yul\":5892:5978   */\n      swap1\n      pop\n        /* \"#utility.yul\":5574:5985   */\n      swap4\n      swap3\n      pop\n      pop\n      pop\n      jump\t// out\n        /* \"#utility.yul\":5991:6826   */\n    tag_24:\n        /* \"#utility.yul\":6260:6264   */\n      0x00\n        /* \"#utility.yul\":6298:6300   */\n      0x60\n        /* \"#utility.yul\":6287:6296   */\n      dup3\n        /* \"#utility.yul\":6283:6301   */\n      add\n        /* \"#utility.yul\":6275:6301   */\n      swap1\n      pop\n        /* \"#utility.yul\":6347:6356   */\n      dup2\n        /* \"#utility.yul\":6341:6345   */\n      dup2\n        /* \"#utility.yul\":6337:6357   */\n      sub\n        /* \"#utility.yul\":6333:6334   */\n      0x00\n        /* \"#utility.yul\":6322:6331   */\n      dup4\n        /* \"#utility.yul\":6318:6335   */\n      add\n        /* \"#utility.yul\":6311:6358   */\n      mstore\n        /* \"#utility.yul\":6375:6453   */\n      tag_212\n        /* \"#utility.yul\":6448:6452   */\n      dup2\n        /* \"#utility.yul\":6439:6445   */\n      dup7\n        /* \"#utility.yul\":6375:6453   */\n      tag_169\n      jump\t// in\n    tag_212:\n        /* \"#utility.yul\":6367:6453   */\n      swap1\n      pop\n        /* \"#utility.yul\":6500:6509   */\n      dup2\n        /* \"#utility.yul\":6494:6498   */\n      dup2\n        /* \"#utility.yul\":6490:6510   */\n      sub\n        /* \"#utility.yul\":6485:6487   */\n      0x20\n        /* \"#utility.yul\":6474:6483   */\n      dup4\n        /* \"#utility.yul\":6470:6488   */\n      add\n        /* \"#utility.yul\":6463:6511   */\n      mstore\n        /* \"#utility.yul\":6528:6636   */\n      tag_213\n        /* \"#utility.yul\":6631:6635   */\n      dup2\n        /* \"#utility.yul\":6622:6628   */\n      dup6\n        /* \"#utility.yul\":6528:6636   */\n      tag_151\n      jump\t// in\n    tag_213:\n        /* \"#utility.yul\":6520:6636   */\n      swap1\n      pop\n        /* \"#utility.yul\":6683:6692   */\n      dup2\n        /* \"#utility.yul\":6677:6681   */\n      dup2\n        /* \"#utility.yul\":6673:6693   */\n      sub\n        /* \"#utility.yul\":6668:6670   */\n      0x40\n        /* \"#utility.yul\":6657:6666   */\n      dup4\n        /* \"#utility.yul\":6653:6671   */\n      add\n        /* \"#utility.yul\":6646:6694   */\n      mstore\n        /* \"#utility.yul\":6711:6819   */\n      tag_214\n        /* \"#utility.yul\":6814:6818   */\n      dup2\n        /* \"#utility.yul\":6805:6811   */\n      dup5\n        /* \"#utility.yul\":6711:6819   */\n      tag_151\n      jump\t// in\n    tag_214:\n        /* \"#utility.yul\":6703:6819   */\n      swap1\n      pop\n        /* \"#utility.yul\":5991:6826   */\n      swap5\n      swap4\n      pop\n      pop\n      pop\n      pop\n      jump\t// out\n        /* \"#utility.yul\":6832:7249   */\n    tag_38:\n        /* \"#utility.yul\":6970:6974   */\n      0x00\n        /* \"#utility.yul\":7008:7010   */\n      0x40\n        /* \"#utility.yul\":6997:7006   */\n      dup3\n        /* \"#utility.yul\":6993:7011   */\n      add\n        /* \"#utility.yul\":6985:7011   */\n      swap1\n      pop\n        /* \"#utility.yul\":7057:7066   */\n      dup2\n        /* \"#utility.yul\":7051:7055   */\n      dup2\n        /* \"#utility.yul\":7047:7067   */\n      sub\n        /* \"#utility.yul\":7043:7044   */\n      0x00\n        /* \"#utility.yul\":7032:7041   */\n      dup4\n        /* \"#utility.yul\":7028:7045   */\n      add\n        /* \"#utility.yul\":7021:7068   */\n      mstore\n        /* \"#utility.yul\":7085:7160   */\n      tag_216\n        /* \"#utility.yul\":7155:7159   */\n      dup2\n        /* \"#utility.yul\":7146:7152   */\n      dup6\n        /* \"#utility.yul\":7085:7160   */\n      tag_179\n      jump\t// in\n    tag_216:\n        /* \"#utility.yul\":7077:7160   */\n      swap1\n      pop\n        /* \"#utility.yul\":7170:7242   */\n      tag_217\n        /* \"#utility.yul\":7238:7240   */\n      0x20\n        /* \"#utility.yul\":7227:7236   */\n      dup4\n        /* \"#utility.yul\":7223:7241   */\n      add\n        /* \"#utility.yul\":7214:7220   */\n      dup5\n        /* \"#utility.yul\":7170:7242   */\n      tag_148\n      jump\t// in\n    tag_217:\n        /* \"#utility.yul\":6832:7249   */\n      swap4\n      swap3\n      pop\n      pop\n      pop\n      jump\t// out\n        /* \"#utility.yul\":7255:7674   */\n    tag_33:\n        /* \"#utility.yul\":7421:7425   */\n      0x00\n        /* \"#utility.yul\":7459:7461   */\n      0x20\n        /* \"#utility.yul\":7448:7457   */\n      dup3\n        /* \"#utility.yul\":7444:7462   */\n      add\n        /* \"#utility.yul\":7436:7462   */\n      swap1\n      pop\n        /* \"#utility.yul\":7508:7517   */\n      dup2\n        /* \"#utility.yul\":7502:7506   */\n      dup2\n        /* \"#utility.yul\":7498:7518   */\n      sub\n        /* \"#utility.yul\":7494:7495   */\n      0x00\n        /* \"#utility.yul\":7483:7492   */\n      dup4\n        /* \"#utility.yul\":7479:7496   */\n      add\n        /* \"#utility.yul\":7472:7519   */\n      mstore\n        /* \"#utility.yul\":7536:7667   */\n      tag_219\n        /* \"#utility.yul\":7662:7666   */\n      dup2\n        /* \"#utility.yul\":7536:7667   */\n      tag_191\n      jump\t// in\n    tag_219:\n        /* \"#utility.yul\":7528:7667   */\n      swap1\n      pop\n        /* \"#utility.yul\":7255:7674   */\n      swap2\n      swap1\n      pop\n      jump\t// out\n        /* \"#utility.yul\":7680:7902   */\n    tag_52:\n        /* \"#utility.yul\":7773:7777   */\n      0x00\n        /* \"#utility.yul\":7811:7813   */\n      0x20\n        /* \"#utility.yul\":7800:7809   */\n      dup3\n        /* \"#utility.yul\":7796:7814   */\n      add\n        /* \"#utility.yul\":7788:7814   */\n      swap1\n      pop\n        /* \"#utility.yul\":7824:7895   */\n      tag_221\n        /* \"#utility.yul\":7892:7893   */\n      0x00\n        /* \"#utility.yul\":7881:7890   */\n      dup4\n        /* \"#utility.yul\":7877:7894   */\n      add\n        /* \"#utility.yul\":7868:7874   */\n      dup5\n        /* \"#utility.yul\":7824:7895   */\n      tag_196\n      jump\t// in\n    tag_221:\n        /* \"#utility.yul\":7680:7902   */\n      swap3\n      swap2\n      pop\n      pop\n      jump\t// out\n        /* \"#utility.yul\":7908:8126   */\n    tag_81:\n        /* \"#utility.yul\":7999:8003   */\n      0x00\n        /* \"#utility.yul\":8037:8039   */\n      0x20\n        /* \"#utility.yul\":8026:8035   */\n      dup3\n        /* \"#utility.yul\":8022:8040   */\n      add\n        /* \"#utility.yul\":8014:8040   */\n      swap1\n      pop\n        /* \"#utility.yul\":8050:8119   */\n      tag_223\n        /* \"#utility.yul\":8116:8117   */\n      0x00\n        /* \"#utility.yul\":8105:8114   */\n      dup4\n        /* \"#utility.yul\":8101:8118   */\n      add\n        /* \"#utility.yul\":8092:8098   */\n      dup5\n        /* \"#utility.yul\":8050:8119   */\n      tag_200\n      jump\t// in\n    tag_223:\n        /* \"#utility.yul\":7908:8126   */\n      swap3\n      swap2\n      pop\n      pop\n      jump\t// out\n        /* \"#utility.yul\":8213:8345   */\n    tag_158:\n        /* \"#utility.yul\":8280:8284   */\n      0x00\n        /* \"#utility.yul\":8303:8306   */\n      dup2\n        /* \"#utility.yul\":8295:8306   */\n      swap1\n      pop\n        /* \"#utility.yul\":8333:8337   */\n      0x20\n        /* \"#utility.yul\":8328:8331   */\n      dup3\n        /* \"#utility.yul\":8324:8338   */\n      add\n        /* \"#utility.yul\":8316:8338   */\n      swap1\n      pop\n        /* \"#utility.yul\":8213:8345   */\n      swap2\n      swap1\n      pop\n      jump\t// out\n        /* \"#utility.yul\":8351:8492   */\n    tag_187:\n        /* \"#utility.yul\":8400:8404   */\n      0x00\n        /* \"#utility.yul\":8423:8426   */\n      dup2\n        /* \"#utility.yul\":8415:8426   */\n      swap1\n      pop\n        /* \"#utility.yul\":8446:8449   */\n      dup2\n        /* \"#utility.yul\":8443:8444   */\n      0x00\n        /* \"#utility.yul\":8436:8450   */\n      mstore\n        /* \"#utility.yul\":8480:8484   */\n      0x20\n        /* \"#utility.yul\":8477:8478   */\n      0x00\n        /* \"#utility.yul\":8467:8485   */\n      keccak256\n        /* \"#utility.yul\":8459:8485   */\n      swap1\n      pop\n        /* \"#utility.yul\":8351:8492   */\n      swap2\n      swap1\n      pop\n      jump\t// out\n        /* \"#utility.yul\":8498:8612   */\n    tag_154:\n        /* \"#utility.yul\":8565:8571   */\n      0x00\n        /* \"#utility.yul\":8599:8604   */\n      dup2\n        /* \"#utility.yul\":8593:8605   */\n      mload\n        /* \"#utility.yul\":8583:8605   */\n      swap1\n      pop\n        /* \"#utility.yul\":8498:8612   */\n      swap2\n      swap1\n      pop\n      jump\t// out\n        /* \"#utility.yul\":8618:8717   */\n    tag_172:\n        /* \"#utility.yul\":8670:8676   */\n      0x00\n        /* \"#utility.yul\":8704:8709   */\n      dup2\n        /* \"#utility.yul\":8698:8710   */\n      mload\n        /* \"#utility.yul\":8688:8710   */\n      swap1\n      pop\n        /* \"#utility.yul\":8618:8717   */\n      swap2\n      swap1\n      pop\n      jump\t// out\n        /* \"#utility.yul\":8723:8836   */\n    tag_164:\n        /* \"#utility.yul\":8793:8797   */\n      0x00\n        /* \"#utility.yul\":8825:8829   */\n      0x20\n        /* \"#utility.yul\":8820:8823   */\n      dup3\n        /* \"#utility.yul\":8816:8830   */\n      add\n        /* \"#utility.yul\":8808:8830   */\n      swap1\n      pop\n        /* \"#utility.yul\":8723:8836   */\n      swap2\n      swap1\n      pop\n      jump\t// out\n        /* \"#utility.yul\":8842:9026   */\n    tag_156:\n        /* \"#utility.yul\":8941:8952   */\n      0x00\n        /* \"#utility.yul\":8975:8981   */\n      dup3\n        /* \"#utility.yul\":8970:8973   */\n      dup3\n        /* \"#utility.yul\":8963:8982   */\n      mstore\n        /* \"#utility.yul\":9015:9019   */\n      0x20\n        /* \"#utility.yul\":9010:9013   */\n      dup3\n        /* \"#utility.yul\":9006:9020   */\n      add\n        /* \"#utility.yul\":8991:9020   */\n      swap1\n      pop\n        /* \"#utility.yul\":8842:9026   */\n      swap3\n      swap2\n      pop\n      pop\n      jump\t// out\n        /* \"#utility.yul\":9032:9201   */\n    tag_174:\n        /* \"#utility.yul\":9116:9127   */\n      0x00\n        /* \"#utility.yul\":9150:9156   */\n      dup3\n        /* \"#utility.yul\":9145:9148   */\n      dup3\n        /* \"#utility.yul\":9138:9157   */\n      mstore\n        /* \"#utility.yul\":9190:9194   */\n      0x20\n        /* \"#utility.yul\":9185:9188   */\n      dup3\n        /* \"#utility.yul\":9181:9195   */\n      add\n        /* \"#utility.yul\":9166:9195   */\n      swap1\n      pop\n        /* \"#utility.yul\":9032:9201   */\n      swap3\n      swap2\n      pop\n      pop\n      jump\t// out\n        /* \"#utility.yul\":9207:9303   */\n    tag_147:\n        /* \"#utility.yul\":9244:9251   */\n      0x00\n        /* \"#utility.yul\":9273:9297   */\n      tag_234\n        /* \"#utility.yul\":9291:9296   */\n      dup3\n        /* \"#utility.yul\":9273:9297   */\n      tag_235\n      jump\t// in\n    tag_234:\n        /* \"#utility.yul\":9262:9297   */\n      swap1\n      pop\n        /* \"#utility.yul\":9207:9303   */\n      swap2\n      swap1\n      pop\n      jump\t// out\n        /* \"#utility.yul\":9309:9399   */\n    tag_168:\n        /* \"#utility.yul\":9343:9350   */\n      0x00\n        /* \"#utility.yul\":9386:9391   */\n      dup2\n        /* \"#utility.yul\":9379:9392   */\n      iszero\n        /* \"#utility.yul\":9372:9393   */\n      iszero\n        /* \"#utility.yul\":9361:9393   */\n      swap1\n      pop\n        /* \"#utility.yul\":9309:9399   */\n      swap2\n      swap1\n      pop\n      jump\t// out\n        /* \"#utility.yul\":9405:9531   */\n    tag_235:\n        /* \"#utility.yul\":9442:9449   */\n      0x00\n        /* \"#utility.yul\":9482:9524   */\n      0xffffffffffffffffffffffffffffffffffffffff\n        /* \"#utility.yul\":9475:9480   */\n      dup3\n        /* \"#utility.yul\":9471:9525   */\n      and\n        /* \"#utility.yul\":9460:9525   */\n      swap1\n      pop\n        /* \"#utility.yul\":9405:9531   */\n      swap2\n      swap1\n      pop\n      jump\t// out\n        /* \"#utility.yul\":9537:9614   */\n    tag_199:\n        /* \"#utility.yul\":9574:9581   */\n      0x00\n        /* \"#utility.yul\":9603:9608   */\n      dup2\n        /* \"#utility.yul\":9592:9608   */\n      swap1\n      pop\n        /* \"#utility.yul\":9537:9614   */\n      swap2\n      swap1\n      pop\n      jump\t// out\n        /* \"#utility.yul\":9620:9706   */\n    tag_239:\n        /* \"#utility.yul\":9655:9662   */\n      0x00\n        /* \"#utility.yul\":9695:9699   */\n      0xff\n        /* \"#utility.yul\":9688:9693   */\n      dup3\n        /* \"#utility.yul\":9684:9700   */\n      and\n        /* \"#utility.yul\":9673:9700   */\n      swap1\n      pop\n        /* \"#utility.yul\":9620:9706   */\n      swap2\n      swap1\n      pop\n      jump\t// out\n        /* \"#utility.yul\":9712:9821   */\n    tag_203:\n        /* \"#utility.yul\":9760:9769   */\n      0x00\n        /* \"#utility.yul\":9793:9815   */\n      tag_242\n        /* \"#utility.yul\":9809:9814   */\n      dup3\n        /* \"#utility.yul\":9793:9815   */\n      tag_239\n      jump\t// in\n    tag_242:\n        /* \"#utility.yul\":9780:9815   */\n      swap1\n      pop\n        /* \"#utility.yul\":9712:9821   */\n      swap2\n      swap1\n      pop\n      jump\t// out\n        /* \"#utility.yul\":9827:10134   */\n    tag_176:\n        /* \"#utility.yul\":9895:9896   */\n      0x00\n        /* \"#utility.yul\":9905:10018   */\n    tag_244:\n        /* \"#utility.yul\":9919:9925   */\n      dup4\n        /* \"#utility.yul\":9916:9917   */\n      dup2\n        /* \"#utility.yul\":9913:9926   */\n      lt\n        /* \"#utility.yul\":9905:10018   */\n      iszero\n      tag_246\n      jumpi\n        /* \"#utility.yul\":10004:10005   */\n      dup1\n        /* \"#utility.yul\":9999:10002   */\n      dup3\n        /* \"#utility.yul\":9995:10006   */\n      add\n        /* \"#utility.yul\":9989:10007   */\n      mload\n        /* \"#utility.yul\":9985:9986   */\n      dup2\n        /* \"#utility.yul\":9980:9983   */\n      dup5\n        /* \"#utility.yul\":9976:9987   */\n      add\n        /* \"#utility.yul\":9969:10008   */\n      mstore\n        /* \"#utility.yul\":9941:9943   */\n      0x20\n        /* \"#utility.yul\":9938:9939   */\n      dup2\n        /* \"#utility.yul\":9934:9944   */\n      add\n        /* \"#utility.yul\":9929:9944   */\n      swap1\n      pop\n        /* \"#utility.yul\":9905:10018   */\n      jump(tag_244)\n    tag_246:\n        /* \"#utility.yul\":10036:10042   */\n      dup4\n        /* \"#utility.yul\":10033:10034   */\n      dup2\n        /* \"#utility.yul\":10030:10043   */\n      gt\n        /* \"#utility.yul\":10027:10128   */\n      iszero\n      tag_247\n      jumpi\n        /* \"#utility.yul\":10116:10117   */\n      0x00\n        /* \"#utility.yul\":10107:10113   */\n      dup5\n        /* \"#utility.yul\":10102:10105   */\n      dup5\n        /* \"#utility.yul\":10098:10114   */\n      add\n        /* \"#utility.yul\":10091:10118   */\n      mstore\n        /* \"#utility.yul\":10027:10128   */\n    tag_247:\n        /* \"#utility.yul\":9876:10134   */\n      pop\n        /* \"#utility.yul\":9827:10134   */\n      pop\n      pop\n      pop\n      jump\t// out\n        /* \"#utility.yul\":10140:10460   */\n    tag_92:\n        /* \"#utility.yul\":10184:10190   */\n      0x00\n        /* \"#utility.yul\":10221:10222   */\n      0x02\n        /* \"#utility.yul\":10215:10219   */\n      dup3\n        /* \"#utility.yul\":10211:10223   */\n      div\n        /* \"#utility.yul\":10201:10223   */\n      swap1\n      pop\n        /* \"#utility.yul\":10268:10269   */\n      0x01\n        /* \"#utility.yul\":10262:10266   */\n      dup3\n        /* \"#utility.yul\":10258:10270   */\n      and\n        /* \"#utility.yul\":10289:10307   */\n      dup1\n        /* \"#utility.yul\":10279:10360   */\n      tag_249\n      jumpi\n        /* \"#utility.yul\":10345:10349   */\n      0x7f\n        /* \"#utility.yul\":10337:10343   */\n      dup3\n        /* \"#utility.yul\":10333:10350   */\n      and\n        /* \"#utility.yul\":10323:10350   */\n      swap2\n      pop\n        /* \"#utility.yul\":10279:10360   */\n    tag_249:\n        /* \"#utility.yul\":10407:10409   */\n      0x20\n        /* \"#utility.yul\":10399:10405   */\n      dup3\n        /* \"#utility.yul\":10396:10410   */\n      lt\n        /* \"#utility.yul\":10376:10394   */\n      dup2\n        /* \"#utility.yul\":10373:10411   */\n      eq\n        /* \"#utility.yul\":10370:10454   */\n      iszero\n      tag_250\n      jumpi\n        /* \"#utility.yul\":10426:10444   */\n      tag_251\n      tag_252\n      jump\t// in\n    tag_251:\n        /* \"#utility.yul\":10370:10454   */\n    tag_250:\n        /* \"#utility.yul\":10191:10460   */\n      pop\n        /* \"#utility.yul\":10140:10460   */\n      swap2\n      swap1\n      pop\n      jump\t// out\n        /* \"#utility.yul\":10466:10699   */\n    tag_60:\n        /* \"#utility.yul\":10505:10508   */\n      0x00\n        /* \"#utility.yul\":10528:10552   */\n      tag_254\n        /* \"#utility.yul\":10546:10551   */\n      dup3\n        /* \"#utility.yul\":10528:10552   */\n      tag_199\n      jump\t// in\n    tag_254:\n        /* \"#utility.yul\":10519:10552   */\n      swap2\n      pop\n        /* \"#utility.yul\":10574:10640   */\n      0xffffffffffffffffffffffffffffffffffffffffffffffffffffffffffffffff\n        /* \"#utility.yul\":10567:10572   */\n      dup3\n        /* \"#utility.yul\":10564:10641   */\n      eq\n        /* \"#utility.yul\":10561:10664   */\n      iszero\n      tag_255\n      jumpi\n        /* \"#utility.yul\":10644:10662   */\n      tag_256\n      tag_257\n      jump\t// in\n    tag_256:\n        /* \"#utility.yul\":10561:10664   */\n    tag_255:\n        /* \"#utility.yul\":10691:10692   */\n      0x01\n        /* \"#utility.yul\":10684:10689   */\n      dup3\n        /* \"#utility.yul\":10680:10693   */\n      add\n        /* \"#utility.yul\":10673:10693   */\n      swap1\n      pop\n        /* \"#utility.yul\":10466:10699   */\n      swap2\n      swap1\n      pop\n      jump\t// out\n        /* \"#utility.yul\":10705:10872   */\n    tag_90:\n        /* \"#utility.yul\":10742:10745   */\n      0x00\n        /* \"#utility.yul\":10765:10787   */\n      tag_259\n        /* \"#utility.yul\":10781:10786   */\n      dup3\n        /* \"#utility.yul\":10765:10787   */\n      tag_239\n      jump\t// in\n    tag_259:\n        /* \"#utility.yul\":10756:10787   */\n      swap2\n      pop\n        /* \"#utility.yul\":10809:10813   */\n      0xff\n        /* \"#utility.yul\":10802:10807   */\n      dup3\n        /* \"#utility.yul\":10799:10814   */\n      eq\n        /* \"#utility.yul\":10796:10837   */\n      iszero\n      tag_260\n      jumpi\n        /* \"#utility.yul\":10817:10835   */\n      tag_261\n      tag_257\n      jump\t// in\n    tag_261:\n        /* \"#utility.yul\":10796:10837   */\n    tag_260:\n        /* \"#utility.yul\":10864:10865   */\n      0x01\n        /* \"#utility.yul\":10857:10862   */\n      dup3\n        /* \"#utility.yul\":10853:10866   */\n      add\n        /* \"#utility.yul\":10846:10866   */\n      swap1\n      pop\n        /* \"#utility.yul\":10705:10872   */\n      swap2\n      swap1\n      pop\n      jump\t// out\n        /* \"#utility.yul\":10878:11058   */\n    tag_257:\n        /* \"#utility.yul\":10926:11003   */\n      0x4e487b7100000000000000000000000000000000000000000000000000000000\n        /* \"#utility.yul\":10923:10924   */\n      0x00\n        /* \"#utility.yul\":10916:11004   */\n      mstore\n        /* \"#utility.yul\":11023:11027   */\n      0x11\n        /* \"#utility.yul\":11020:11021   */\n      0x04\n        /* \"#utility.yul\":11013:11028   */\n      mstore\n        /* \"#utility.yul\":11047:11051   */\n      0x24\n        /* \"#utility.yul\":11044:11045   */\n      0x00\n        /* \"#utility.yul\":11037:11052   */\n      revert\n        /* \"#utility.yul\":11064:11244   */\n    tag_252:\n        /* \"#utility.yul\":11112:11189   */\n      0x4e487b7100000000000000000000000000000000000000000000000000000000\n        /* \"#utility.yul\":11109:11110   */\n      0x00\n        /* \"#utility.yul\":11102:11190   */\n      mstore\n        /* \"#utility.yul\":11209:11213   */\n      0x22\n        /* \"#utility.yul\":11206:11207   */\n      0x04\n        /* \"#utility.yul\":11199:11214   */\n      mstore\n        /* \"#utility.yul\":11233:11237   */\n      0x24\n        /* \"#utility.yul\":11230:11231   */\n      0x00\n        /* \"#utility.yul\":11223:11238   */\n      revert\n        /* \"#utility.yul\":11250:11430   */\n    tag_88:\n        /* \"#utility.yul\":11298:11375   */\n      0x4e487b7100000000000000000000000000000000000000000000000000000000\n        /* \"#utility.yul\":11295:11296   */\n      0x00\n        /* \"#utility.yul\":11288:11376   */\n      mstore\n        /* \"#utility.yul\":11395:11399   */\n      0x32\n        /* \"#utility.yul\":11392:11393   */\n      0x04\n        /* \"#utility.yul\":11385:11400   */\n      mstore\n        /* \"#utility.yul\":11419:11423   */\n      0x24\n        /* \"#utility.yul\":11416:11417   */\n      0x00\n        /* \"#utility.yul\":11409:11424   */\n      revert\n        /* \"#utility.yul\":11436:11616   */\n    tag_75:\n        /* \"#utility.yul\":11484:11561   */\n      0x4e487b7100000000000000000000000000000000000000000000000000000000\n        /* \"#utility.yul\":11481:11482   */\n      0x00\n        /* \"#utility.yul\":11474:11562   */\n      mstore\n        /* \"#utility.yul\":11581:11585   */\n      0x41\n        /* \"#utility.yul\":11578:11579   */\n      0x04\n        /* \"#utility.yul\":11571:11586   */\n      mstore\n        /* \"#utility.yul\":11605:11609   */\n      0x24\n        /* \"#utility.yul\":11602:11603   */\n      0x00\n        /* \"#utility.yul\":11595:11610   */\n      revert\n        /* \"#utility.yul\":11745:11862   */\n    tag_127:\n        /* \"#utility.yul\":11854:11855   */\n      0x00\n        /* \"#utility.yul\":11851:11852   */\n      dup1\n        /* \"#utility.yul\":11844:11856   */\n      revert\n        /* \"#utility.yul\":11868:11970   */\n    tag_178:\n        /* \"#utility.yul\":11909:11915   */\n      0x00\n        /* \"#utility.yul\":11960:11962   */\n      0x1f\n        /* \"#utility.yul\":11956:11963   */\n      not\n        /* \"#utility.yul\":11951:11953   */\n      0x1f\n        /* \"#utility.yul\":11944:11949   */\n      dup4\n        /* \"#utility.yul\":11940:11954   */\n      add\n        /* \"#utility.yul\":11936:11964   */\n      and\n        /* \"#utility.yul\":11926:11964   */\n      swap1\n      pop\n        /* \"#utility.yul\":11868:11970   */\n      swap2\n      swap1\n      pop\n      jump\t// out\n        /* \"#utility.yul\":11976:12146   */\n    tag_195:\n        /* \"#utility.yul\":12116:12138   */\n      0x5f7369676e6572206973206e6f742076616c6964000000000000000000000000\n        /* \"#utility.yul\":12112:12113   */\n      0x00\n        /* \"#utility.yul\":12104:12110   */\n      dup3\n        /* \"#utility.yul\":12100:12114   */\n      add\n        /* \"#utility.yul\":12093:12139   */\n      mstore\n        /* \"#utility.yul\":11976:12146   */\n      pop\n      jump\t// out\n        /* \"#utility.yul\":12152:12274   */\n    tag_112:\n        /* \"#utility.yul\":12225:12249   */\n      tag_272\n        /* \"#utility.yul\":12243:12248   */\n      dup2\n        /* \"#utility.yul\":12225:12249   */\n      tag_147\n      jump\t// in\n    tag_272:\n        /* \"#utility.yul\":12218:12223   */\n      dup2\n        /* \"#utility.yul\":12215:12250   */\n      eq\n        /* \"#utility.yul\":12205:12268   */\n      tag_273\n      jumpi\n        /* \"#utility.yul\":12264:12265   */\n      0x00\n        /* \"#utility.yul\":12261:12262   */\n      dup1\n        /* \"#utility.yul\":12254:12266   */\n      revert\n        /* \"#utility.yul\":12205:12268   */\n    tag_273:\n        /* \"#utility.yul\":12152:12274   */\n      pop\n      jump\t// out\n        /* \"#utility.yul\":12280:12396   */\n    tag_119:\n        /* \"#utility.yul\":12350:12371   */\n      tag_275\n        /* \"#utility.yul\":12365:12370   */\n      dup2\n        /* \"#utility.yul\":12350:12371   */\n      tag_168\n      jump\t// in\n    tag_275:\n        /* \"#utility.yul\":12343:12348   */\n      dup2\n        /* \"#utility.yul\":12340:12372   */\n      eq\n        /* \"#utility.yul\":12330:12390   */\n      tag_276\n      jumpi\n        /* \"#utility.yul\":12386:12387   */\n      0x00\n        /* \"#utility.yul\":12383:12384   */\n      dup1\n        /* \"#utility.yul\":12376:12388   */\n      revert\n        /* \"#utility.yul\":12330:12390   */\n    tag_276:\n        /* \"#utility.yul\":12280:12396   */\n      pop\n      jump\t// out\n        /* \"#utility.yul\":12402:12524   */\n    tag_123:\n        /* \"#utility.yul\":12475:12499   */\n      tag_278\n        /* \"#utility.yul\":12493:12498   */\n      dup2\n        /* \"#utility.yul\":12475:12499   */\n      tag_199\n      jump\t// in\n    tag_278:\n        /* \"#utility.yul\":12468:12473   */\n      dup2\n        /* \"#utility.yul\":12465:12500   */\n      eq\n        /* \"#utility.yul\":12455:12518   */\n      tag_279\n      jumpi\n        /* \"#utility.yul\":12514:12515   */\n      0x00\n        /* \"#utility.yul\":12511:12512   */\n      dup1\n        /* \"#utility.yul\":12504:12516   */\n      revert\n        /* \"#utility.yul\":12455:12518   */\n    tag_279:\n        /* \"#utility.yul\":12402:12524   */\n      pop\n      jump\t// out\n\n    auxdata: 0xa2646970667358221220c7630e80a906837868e4e3abc766435ad8d5c10a5ccdbb16f85394625b641aad64736f6c63430008070033\n}\n",
				"bytecode": {
					"linkReferences": {},
					"object": "60806040523480156200001157600080fd5b50604051620016f6380380620016f68339818101604052810190620000379190620003d2565b80600260006101000a81548173ffffffffffffffffffffffffffffffffffffffff021916908373ffffffffffffffffffffffffffffffffffffffff16021790555062000089326200018a60201b60201c565b620000cb576040517f08c379a0000000000000000000000000000000000000000000000000000000008152600401620000c29062000502565b60405180910390fd5b8160009080519060200190620000e392919062000244565b506001329080600181540180825580915050600190039060005260206000200160009091909190916101000a81548173ffffffffffffffffffffffffffffffffffffffff021916908373ffffffffffffffffffffffffffffffffffffffff1602179055507fa34d8f872132d193d2e62e18648026516cd6a9d599cb2f07eda0fd5ab16f162782326040516200017a929190620004ce565b60405180910390a1505062000761565b6000600260009054906101000a900473ffffffffffffffffffffffffffffffffffffffff1673ffffffffffffffffffffffffffffffffffffffff166363a9c3d7836040518263ffffffff1660e01b8152600401620001e99190620004b1565b60206040518083038186803b1580156200020257600080fd5b505afa15801562000217573d6000803e3d6000fd5b505050506040513d601f19601f820116820180604052508101906200023d9190620003a0565b9050919050565b828054620002529062000615565b90600052602060002090601f016020900481019282620002765760008555620002c2565b82601f106200029157805160ff1916838001178555620002c2565b82800160010185558215620002c2579182015b82811115620002c1578251825591602001919060010190620002a4565b5b509050620002d19190620002d5565b5090565b5b80821115620002f0576000816000905550600101620002d6565b5090565b60006200030b62000305846200054d565b62000524565b9050828152602081018484840111156200032a5762000329620006e4565b5b62000337848285620005df565b509392505050565b60008151905062000350816200072d565b92915050565b600081519050620003678162000747565b92915050565b600082601f830112620003855762000384620006df565b5b815162000397848260208601620002f4565b91505092915050565b600060208284031215620003b957620003b8620006ee565b5b6000620003c98482850162000356565b91505092915050565b60008060408385031215620003ec57620003eb620006ee565b5b600083015167ffffffffffffffff8111156200040d576200040c620006e9565b5b6200041b858286016200036d565b92505060206200042e858286016200033f565b9150509250929050565b62000443816200059f565b82525050565b6000620004568262000583565b6200046281856200058e565b935062000474818560208601620005df565b6200047f81620006f3565b840191505092915050565b6000620004996014836200058e565b9150620004a68262000704565b602082019050919050565b6000602082019050620004c8600083018462000438565b92915050565b60006040820190508181036000830152620004ea818562000449565b9050620004fb602083018462000438565b9392505050565b600060208201905081810360008301526200051d816200048a565b9050919050565b60006200053062000543565b90506200053e82826200064b565b919050565b6000604051905090565b600067ffffffffffffffff8211156200056b576200056a620006b0565b5b6200057682620006f3565b9050602081019050919050565b600081519050919050565b600082825260208201905092915050565b6000620005ac82620005bf565b9050919050565b60008115159050919050565b600073ffffffffffffffffffffffffffffffffffffffff82169050919050565b60005b83811015620005ff578082015181840152602081019050620005e2565b838111156200060f576000848401525b50505050565b600060028204905060018216806200062e57607f821691505b6020821081141562000645576200064462000681565b5b50919050565b6200065682620006f3565b810181811067ffffffffffffffff82111715620006785762000677620006b0565b5b80604052505050565b7f4e487b7100000000000000000000000000000000000000000000000000000000600052602260045260246000fd5b7f4e487b7100000000000000000000000000000000000000000000000000000000600052604160045260246000fd5b600080fd5b600080fd5b600080fd5b600080fd5b6000601f19601f8301169050919050565b7f5f7369676e6572206973206e6f742076616c6964000000000000000000000000600082015250565b62000738816200059f565b81146200074457600080fd5b50565b6200075281620005b3565b81146200075e57600080fd5b50565b610f8580620007716000396000f3fe608060405234801561001057600080fd5b50600436106100575760003560e01c80632ca151221461005c5780633c68af3e1461007a57806350ca092814610099578063596f21f8146100c9578063963671be146100e9575b600080fd5b610064610107565b6040516100719190610b49565b60405180910390f35b610082610247565b604051610090929190610b64565b60405180910390f35b6100b360048036038101906100ae91906108dd565b6103c7565b6040516100c09190610b49565b60405180910390f35b6100d161047b565b6040516100e093929190610b94565b60405180910390f35b6100f16107b4565b6040516100fe9190610b2e565b60405180910390f35b6000610112326103c7565b610151576040517f08c379a000000000000000000000000000000000000000000000000000000000815260040161014890610c10565b60405180910390fd5b61015a326107da565b156101a2577f57bb3fead2451e6a3a5680e94e3dba9642a2ea6e850811bf18feccc94c5968a9600032604051610191929190610be0565b60405180910390a160019050610244565b6001329080600181540180825580915050600190039060005260206000200160009091909190916101000a81548173ffffffffffffffffffffffffffffffffffffffff021916908373ffffffffffffffffffffffffffffffffffffffff1602179055507fb05e84f77f10ca9cd0a42f11422685a81fb7997e8c2500733527f8c2ee56ab29600032604051610237929190610be0565b60405180910390a1600190505b90565b600060606000600260009054906101000a900473ffffffffffffffffffffffffffffffffffffffff1673ffffffffffffffffffffffffffffffffffffffff1663fa69efbd6040518163ffffffff1660e01b815260040160206040518083038186803b1580156102b557600080fd5b505afa1580156102c9573d6000803e3d6000fd5b505050506040513d601f19601f820116820180604052508101906102ed9190610964565b905060005b818110156103c1576103ad600260009054906101000a900473ffffffffffffffffffffffffffffffffffffffff1673ffffffffffffffffffffffffffffffffffffffff16633ffefe4e836040518263ffffffff1660e01b81526004016103589190610c30565b60206040518083038186803b15801561037057600080fd5b505afa158015610384573d6000803e3d6000fd5b505050506040513d601f19601f820116820180604052508101906103a8919061090a565b6107da565b5080806103b990610d9c565b9150506102f2565b50509091565b6000600260009054906101000a900473ffffffffffffffffffffffffffffffffffffffff1673ffffffffffffffffffffffffffffffffffffffff166363a9c3d7836040518263ffffffff1660e01b81526004016104249190610b2e565b60206040518083038186803b15801561043c57600080fd5b505afa158015610450573d6000803e3d6000fd5b505050506040513d601f19601f820116820180604052508101906104749190610937565b9050919050565b60608060606000600260009054906101000a900473ffffffffffffffffffffffffffffffffffffffff1673ffffffffffffffffffffffffffffffffffffffff1663fa69efbd6040518163ffffffff1660e01b815260040160206040518083038186803b1580156104ea57600080fd5b505afa1580156104fe573d6000803e3d6000fd5b505050506040513d601f19601f820116820180604052508101906105229190610964565b905060008167ffffffffffffffff8111156105405761053f610e9c565b5b60405190808252806020026020018201604052801561056e5781602001602082028036833780820191505090505b50905060005b828160ff16101561068d57600260009054906101000a900473ffffffffffffffffffffffffffffffffffffffff1673ffffffffffffffffffffffffffffffffffffffff16633ffefe4e826040518263ffffffff1660e01b81526004016105da9190610c4b565b60206040518083038186803b1580156105f257600080fd5b505afa158015610606573d6000803e3d6000fd5b505050506040513d601f19601f8201168201806040525081019061062a919061090a565b828260ff16815181106106405761063f610e6d565b5b602002602001019073ffffffffffffffffffffffffffffffffffffffff16908173ffffffffffffffffffffffffffffffffffffffff1681525050808061068590610de5565b915050610574565b50600081600182805461069f90610d6a565b80601f01602080910402602001604051908101604052809291908181526020018280546106cb90610d6a565b80156107185780601f106106ed57610100808354040283529160200191610718565b820191906000526020600020905b8154815290600101906020018083116106fb57829003601f168201915b50505050509250808054806020026020016040519081016040528092919081815260200182805480156107a057602002820191906000526020600020905b8160009054906101000a900473ffffffffffffffffffffffffffffffffffffffff1673ffffffffffffffffffffffffffffffffffffffff1681526020019060010190808311610756575b505050505090509450945094505050909192565b600260009054906101000a900473ffffffffffffffffffffffffffffffffffffffff1681565b600080600090505b60018054905081101561087e578273ffffffffffffffffffffffffffffffffffffffff166001828154811061081a57610819610e6d565b5b9060005260206000200160009054906101000a900473ffffffffffffffffffffffffffffffffffffffff1673ffffffffffffffffffffffffffffffffffffffff16141561086b576001915050610884565b808061087690610d9c565b9150506107e2565b50600090505b919050565b60008135905061089881610f0a565b92915050565b6000815190506108ad81610f0a565b92915050565b6000815190506108c281610f21565b92915050565b6000815190506108d781610f38565b92915050565b6000602082840312156108f3576108f2610ecb565b5b600061090184828501610889565b91505092915050565b6000602082840312156109205761091f610ecb565b5b600061092e8482850161089e565b91505092915050565b60006020828403121561094d5761094c610ecb565b5b600061095b848285016108b3565b91505092915050565b60006020828403121561097a57610979610ecb565b5b6000610988848285016108c8565b91505092915050565b600061099d83836109a9565b60208301905092915050565b6109b281610cd0565b82525050565b6109c181610cd0565b82525050565b60006109d282610c8b565b6109dc8185610cae565b93506109e783610c66565b8060005b83811015610a185781516109ff8882610991565b9750610a0a83610ca1565b9250506001810190506109eb565b5085935050505092915050565b610a2e81610ce2565b82525050565b6000610a3f82610c96565b610a498185610cbf565b9350610a59818560208601610d37565b610a6281610ed0565b840191505092915050565b60008154610a7a81610d6a565b610a848186610cbf565b94506001821660008114610a9f5760018114610ab157610ae4565b60ff1983168652602086019350610ae4565b610aba85610c76565b60005b83811015610adc57815481890152600182019150602081019050610abd565b808801955050505b50505092915050565b6000610afa601483610cbf565b9150610b0582610ee1565b602082019050919050565b610b1981610d0e565b82525050565b610b2881610d25565b82525050565b6000602082019050610b4360008301846109b8565b92915050565b6000602082019050610b5e6000830184610a25565b92915050565b6000604082019050610b796000830185610a25565b8181036020830152610b8b8184610a34565b90509392505050565b60006060820190508181036000830152610bae8186610a34565b90508181036020830152610bc281856109c7565b90508181036040830152610bd681846109c7565b9050949350505050565b60006040820190508181036000830152610bfa8185610a6d565b9050610c0960208301846109b8565b9392505050565b60006020820190508181036000830152610c2981610aed565b9050919050565b6000602082019050610c456000830184610b10565b92915050565b6000602082019050610c606000830184610b1f565b92915050565b6000819050602082019050919050565b60008190508160005260206000209050919050565b600081519050919050565b600081519050919050565b6000602082019050919050565b600082825260208201905092915050565b600082825260208201905092915050565b6000610cdb82610cee565b9050919050565b60008115159050919050565b600073ffffffffffffffffffffffffffffffffffffffff82169050919050565b6000819050919050565b600060ff82169050919050565b6000610d3082610d18565b9050919050565b60005b83811015610d55578082015181840152602081019050610d3a565b83811115610d64576000848401525b50505050565b60006002820490506001821680610d8257607f821691505b60208210811415610d9657610d95610e3e565b5b50919050565b6000610da782610d0e565b91507fffffffffffffffffffffffffffffffffffffffffffffffffffffffffffffffff821415610dda57610dd9610e0f565b5b600182019050919050565b6000610df082610d18565b915060ff821415610e0457610e03610e0f565b5b600182019050919050565b7f4e487b7100000000000000000000000000000000000000000000000000000000600052601160045260246000fd5b7f4e487b7100000000000000000000000000000000000000000000000000000000600052602260045260246000fd5b7f4e487b7100000000000000000000000000000000000000000000000000000000600052603260045260246000fd5b7f4e487b7100000000000000000000000000000000000000000000000000000000600052604160045260246000fd5b600080fd5b6000601f19601f8301169050919050565b7f5f7369676e6572206973206e6f742076616c6964000000000000000000000000600082015250565b610f1381610cd0565b8114610f1e57600080fd5b50565b610f2a81610ce2565b8114610f3557600080fd5b50565b610f4181610d0e565b8114610f4c57600080fd5b5056fea2646970667358221220c7630e80a906837868e4e3abc766435ad8d5c10a5ccdbb16f85394625b641aad64736f6c63430008070033",
					"opcodes": "PUSH1 0x80 PUSH1 0x40 MSTORE CALLVALUE DUP1 ISZERO PUSH3 0x11 JUMPI PUSH1 0x0 DUP1 REVERT JUMPDEST POP PUSH1 0x40 MLOAD PUSH3 0x16F6 CODESIZE SUB DUP1 PUSH3 0x16F6 DUP4 CODECOPY DUP2 DUP2 ADD PUSH1 0x40 MSTORE DUP2 ADD SWAP1 PUSH3 0x37 SWAP2 SWAP1 PUSH3 0x3D2 JUMP JUMPDEST DUP1 PUSH1 0x2 PUSH1 0x0 PUSH2 0x100 EXP DUP2 SLOAD DUP2 PUSH20 0xFFFFFFFFFFFFFFFFFFFFFFFFFFFFFFFFFFFFFFFF MUL NOT AND SWAP1 DUP4 PUSH20 0xFFFFFFFFFFFFFFFFFFFFFFFFFFFFFFFFFFFFFFFF AND MUL OR SWAP1 SSTORE POP PUSH3 0x89 ORIGIN PUSH3 0x18A PUSH1 0x20 SHL PUSH1 0x20 SHR JUMP JUMPDEST PUSH3 0xCB JUMPI PUSH1 0x40 MLOAD PUSH32 0x8C379A000000000000000000000000000000000000000000000000000000000 DUP2 MSTORE PUSH1 0x4 ADD PUSH3 0xC2 SWAP1 PUSH3 0x502 JUMP JUMPDEST PUSH1 0x40 MLOAD DUP1 SWAP2 SUB SWAP1 REVERT JUMPDEST DUP2 PUSH1 0x0 SWAP1 DUP1 MLOAD SWAP1 PUSH1 0x20 ADD SWAP1 PUSH3 0xE3 SWAP3 SWAP2 SWAP1 PUSH3 0x244 JUMP JUMPDEST POP PUSH1 0x1 ORIGIN SWAP1 DUP1 PUSH1 0x1 DUP2 SLOAD ADD DUP1 DUP3 SSTORE DUP1 SWAP2 POP POP PUSH1 0x1 SWAP1 SUB SWAP1 PUSH1 0x0 MSTORE PUSH1 0x20 PUSH1 0x0 KECCAK256 ADD PUSH1 0x0 SWAP1 SWAP2 SWAP1 SWAP2 SWAP1 SWAP2 PUSH2 0x100 EXP DUP2 SLOAD DUP2 PUSH20 0xFFFFFFFFFFFFFFFFFFFFFFFFFFFFFFFFFFFFFFFF MUL NOT AND SWAP1 DUP4 PUSH20 0xFFFFFFFFFFFFFFFFFFFFFFFFFFFFFFFFFFFFFFFF AND MUL OR SWAP1 SSTORE POP PUSH32 0xA34D8F872132D193D2E62E18648026516CD6A9D599CB2F07EDA0FD5AB16F1627 DUP3 ORIGIN PUSH1 0x40 MLOAD PUSH3 0x17A SWAP3 SWAP2 SWAP1 PUSH3 0x4CE JUMP JUMPDEST PUSH1 0x40 MLOAD DUP1 SWAP2 SUB SWAP1 LOG1 POP POP PUSH3 0x761 JUMP JUMPDEST PUSH1 0x0 PUSH1 0x2 PUSH1 0x0 SWAP1 SLOAD SWAP1 PUSH2 0x100 EXP SWAP1 DIV PUSH20 0xFFFFFFFFFFFFFFFFFFFFFFFFFFFFFFFFFFFFFFFF AND PUSH20 0xFFFFFFFFFFFFFFFFFFFFFFFFFFFFFFFFFFFFFFFF AND PUSH4 0x63A9C3D7 DUP4 PUSH1 0x40 MLOAD DUP3 PUSH4 0xFFFFFFFF AND PUSH1 0xE0 SHL DUP2 MSTORE PUSH1 0x4 ADD PUSH3 0x1E9 SWAP2 SWAP1 PUSH3 0x4B1 JUMP JUMPDEST PUSH1 0x20 PUSH1 0x40 MLOAD DUP1 DUP4 SUB DUP2 DUP7 DUP1 EXTCODESIZE ISZERO DUP1 ISZERO PUSH3 0x202 JUMPI PUSH1 0x0 DUP1 REVERT JUMPDEST POP GAS STATICCALL ISZERO DUP1 ISZERO PUSH3 0x217 JUMPI RETURNDATASIZE PUSH1 0x0 DUP1 RETURNDATACOPY RETURNDATASIZE PUSH1 0x0 REVERT JUMPDEST POP POP POP POP PUSH1 0x40 MLOAD RETURNDATASIZE PUSH1 0x1F NOT PUSH1 0x1F DUP3 ADD AND DUP3 ADD DUP1 PUSH1 0x40 MSTORE POP DUP2 ADD SWAP1 PUSH3 0x23D SWAP2 SWAP1 PUSH3 0x3A0 JUMP JUMPDEST SWAP1 POP SWAP2 SWAP1 POP JUMP JUMPDEST DUP3 DUP1 SLOAD PUSH3 0x252 SWAP1 PUSH3 0x615 JUMP JUMPDEST SWAP1 PUSH1 0x0 MSTORE PUSH1 0x20 PUSH1 0x0 KECCAK256 SWAP1 PUSH1 0x1F ADD PUSH1 0x20 SWAP1 DIV DUP2 ADD SWAP3 DUP3 PUSH3 0x276 JUMPI PUSH1 0x0 DUP6 SSTORE PUSH3 0x2C2 JUMP JUMPDEST DUP3 PUSH1 0x1F LT PUSH3 0x291 JUMPI DUP1 MLOAD PUSH1 0xFF NOT AND DUP4 DUP1 ADD OR DUP6 SSTORE PUSH3 0x2C2 JUMP JUMPDEST DUP3 DUP1 ADD PUSH1 0x1 ADD DUP6 SSTORE DUP3 ISZERO PUSH3 0x2C2 JUMPI SWAP2 DUP3 ADD JUMPDEST DUP3 DUP2 GT ISZERO PUSH3 0x2C1 JUMPI DUP3 MLOAD DUP3 SSTORE SWAP2 PUSH1 0x20 ADD SWAP2 SWAP1 PUSH1 0x1 ADD SWAP1 PUSH3 0x2A4 JUMP JUMPDEST JUMPDEST POP SWAP1 POP PUSH3 0x2D1 SWAP2 SWAP1 PUSH3 0x2D5 JUMP JUMPDEST POP SWAP1 JUMP JUMPDEST JUMPDEST DUP1 DUP3 GT ISZERO PUSH3 0x2F0 JUMPI PUSH1 0x0 DUP2 PUSH1 0x0 SWAP1 SSTORE POP PUSH1 0x1 ADD PUSH3 0x2D6 JUMP JUMPDEST POP SWAP1 JUMP JUMPDEST PUSH1 0x0 PUSH3 0x30B PUSH3 0x305 DUP5 PUSH3 0x54D JUMP JUMPDEST PUSH3 0x524 JUMP JUMPDEST SWAP1 POP DUP3 DUP2 MSTORE PUSH1 0x20 DUP2 ADD DUP5 DUP5 DUP5 ADD GT ISZERO PUSH3 0x32A JUMPI PUSH3 0x329 PUSH3 0x6E4 JUMP JUMPDEST JUMPDEST PUSH3 0x337 DUP5 DUP3 DUP6 PUSH3 0x5DF JUMP JUMPDEST POP SWAP4 SWAP3 POP POP POP JUMP JUMPDEST PUSH1 0x0 DUP2 MLOAD SWAP1 POP PUSH3 0x350 DUP2 PUSH3 0x72D JUMP JUMPDEST SWAP3 SWAP2 POP POP JUMP JUMPDEST PUSH1 0x0 DUP2 MLOAD SWAP1 POP PUSH3 0x367 DUP2 PUSH3 0x747 JUMP JUMPDEST SWAP3 SWAP2 POP POP JUMP JUMPDEST PUSH1 0x0 DUP3 PUSH1 0x1F DUP4 ADD SLT PUSH3 0x385 JUMPI PUSH3 0x384 PUSH3 0x6DF JUMP JUMPDEST JUMPDEST DUP2 MLOAD PUSH3 0x397 DUP5 DUP3 PUSH1 0x20 DUP7 ADD PUSH3 0x2F4 JUMP JUMPDEST SWAP2 POP POP SWAP3 SWAP2 POP POP JUMP JUMPDEST PUSH1 0x0 PUSH1 0x20 DUP3 DUP5 SUB SLT ISZERO PUSH3 0x3B9 JUMPI PUSH3 0x3B8 PUSH3 0x6EE JUMP JUMPDEST JUMPDEST PUSH1 0x0 PUSH3 0x3C9 DUP5 DUP3 DUP6 ADD PUSH3 0x356 JUMP JUMPDEST SWAP2 POP POP SWAP3 SWAP2 POP POP JUMP JUMPDEST PUSH1 0x0 DUP1 PUSH1 0x40 DUP4 DUP6 SUB SLT ISZERO PUSH3 0x3EC JUMPI PUSH3 0x3EB PUSH3 0x6EE JUMP JUMPDEST JUMPDEST PUSH1 0x0 DUP4 ADD MLOAD PUSH8 0xFFFFFFFFFFFFFFFF DUP2 GT ISZERO PUSH3 0x40D JUMPI PUSH3 0x40C PUSH3 0x6E9 JUMP JUMPDEST JUMPDEST PUSH3 0x41B DUP6 DUP3 DUP7 ADD PUSH3 0x36D JUMP JUMPDEST SWAP3 POP POP PUSH1 0x20 PUSH3 0x42E DUP6 DUP3 DUP7 ADD PUSH3 0x33F JUMP JUMPDEST SWAP2 POP POP SWAP3 POP SWAP3 SWAP1 POP JUMP JUMPDEST PUSH3 0x443 DUP2 PUSH3 0x59F JUMP JUMPDEST DUP3 MSTORE POP POP JUMP JUMPDEST PUSH1 0x0 PUSH3 0x456 DUP3 PUSH3 0x583 JUMP JUMPDEST PUSH3 0x462 DUP2 DUP6 PUSH3 0x58E JUMP JUMPDEST SWAP4 POP PUSH3 0x474 DUP2 DUP6 PUSH1 0x20 DUP7 ADD PUSH3 0x5DF JUMP JUMPDEST PUSH3 0x47F DUP2 PUSH3 0x6F3 JUMP JUMPDEST DUP5 ADD SWAP2 POP POP SWAP3 SWAP2 POP POP JUMP JUMPDEST PUSH1 0x0 PUSH3 0x499 PUSH1 0x14 DUP4 PUSH3 0x58E JUMP JUMPDEST SWAP2 POP PUSH3 0x4A6 DUP3 PUSH3 0x704 JUMP JUMPDEST PUSH1 0x20 DUP3 ADD SWAP1 POP SWAP2 SWAP1 POP JUMP JUMPDEST PUSH1 0x0 PUSH1 0x20 DUP3 ADD SWAP1 POP PUSH3 0x4C8 PUSH1 0x0 DUP4 ADD DUP5 PUSH3 0x438 JUMP JUMPDEST SWAP3 SWAP2 POP POP JUMP JUMPDEST PUSH1 0x0 PUSH1 0x40 DUP3 ADD SWAP1 POP DUP2 DUP2 SUB PUSH1 0x0 DUP4 ADD MSTORE PUSH3 0x4EA DUP2 DUP6 PUSH3 0x449 JUMP JUMPDEST SWAP1 POP PUSH3 0x4FB PUSH1 0x20 DUP4 ADD DUP5 PUSH3 0x438 JUMP JUMPDEST SWAP4 SWAP3 POP POP POP JUMP JUMPDEST PUSH1 0x0 PUSH1 0x20 DUP3 ADD SWAP1 POP DUP2 DUP2 SUB PUSH1 0x0 DUP4 ADD MSTORE PUSH3 0x51D DUP2 PUSH3 0x48A JUMP JUMPDEST SWAP1 POP SWAP2 SWAP1 POP JUMP JUMPDEST PUSH1 0x0 PUSH3 0x530 PUSH3 0x543 JUMP JUMPDEST SWAP1 POP PUSH3 0x53E DUP3 DUP3 PUSH3 0x64B JUMP JUMPDEST SWAP2 SWAP1 POP JUMP JUMPDEST PUSH1 0x0 PUSH1 0x40 MLOAD SWAP1 POP SWAP1 JUMP JUMPDEST PUSH1 0x0 PUSH8 0xFFFFFFFFFFFFFFFF DUP3 GT ISZERO PUSH3 0x56B JUMPI PUSH3 0x56A PUSH3 0x6B0 JUMP JUMPDEST JUMPDEST PUSH3 0x576 DUP3 PUSH3 0x6F3 JUMP JUMPDEST SWAP1 POP PUSH1 0x20 DUP2 ADD SWAP1 POP SWAP2 SWAP1 POP JUMP JUMPDEST PUSH1 0x0 DUP2 MLOAD SWAP1 POP SWAP2 SWAP1 POP JUMP JUMPDEST PUSH1 0x0 DUP3 DUP3 MSTORE PUSH1 0x20 DUP3 ADD SWAP1 POP SWAP3 SWAP2 POP POP JUMP JUMPDEST PUSH1 0x0 PUSH3 0x5AC DUP3 PUSH3 0x5BF JUMP JUMPDEST SWAP1 POP SWAP2 SWAP1 POP JUMP JUMPDEST PUSH1 0x0 DUP2 ISZERO ISZERO SWAP1 POP SWAP2 SWAP1 POP JUMP JUMPDEST PUSH1 0x0 PUSH20 0xFFFFFFFFFFFFFFFFFFFFFFFFFFFFFFFFFFFFFFFF DUP3 AND SWAP1 POP SWAP2 SWAP1 POP JUMP JUMPDEST PUSH1 0x0 JUMPDEST DUP4 DUP2 LT ISZERO PUSH3 0x5FF JUMPI DUP1 DUP3 ADD MLOAD DUP2 DUP5 ADD MSTORE PUSH1 0x20 DUP2 ADD SWAP1 POP PUSH3 0x5E2 JUMP JUMPDEST DUP4 DUP2 GT ISZERO PUSH3 0x60F JUMPI PUSH1 0x0 DUP5 DUP5 ADD MSTORE JUMPDEST POP POP POP POP JUMP JUMPDEST PUSH1 0x0 PUSH1 0x2 DUP3 DIV SWAP1 POP PUSH1 0x1 DUP3 AND DUP1 PUSH3 0x62E JUMPI PUSH1 0x7F DUP3 AND SWAP2 POP JUMPDEST PUSH1 0x20 DUP3 LT DUP2 EQ ISZERO PUSH3 0x645 JUMPI PUSH3 0x644 PUSH3 0x681 JUMP JUMPDEST JUMPDEST POP SWAP2 SWAP1 POP JUMP JUMPDEST PUSH3 0x656 DUP3 PUSH3 0x6F3 JUMP JUMPDEST DUP2 ADD DUP2 DUP2 LT PUSH8 0xFFFFFFFFFFFFFFFF DUP3 GT OR ISZERO PUSH3 0x678 JUMPI PUSH3 0x677 PUSH3 0x6B0 JUMP JUMPDEST JUMPDEST DUP1 PUSH1 0x40 MSTORE POP POP POP JUMP JUMPDEST PUSH32 0x4E487B7100000000000000000000000000000000000000000000000000000000 PUSH1 0x0 MSTORE PUSH1 0x22 PUSH1 0x4 MSTORE PUSH1 0x24 PUSH1 0x0 REVERT JUMPDEST PUSH32 0x4E487B7100000000000000000000000000000000000000000000000000000000 PUSH1 0x0 MSTORE PUSH1 0x41 PUSH1 0x4 MSTORE PUSH1 0x24 PUSH1 0x0 REVERT JUMPDEST PUSH1 0x0 DUP1 REVERT JUMPDEST PUSH1 0x0 DUP1 REVERT JUMPDEST PUSH1 0x0 DUP1 REVERT JUMPDEST PUSH1 0x0 DUP1 REVERT JUMPDEST PUSH1 0x0 PUSH1 0x1F NOT PUSH1 0x1F DUP4 ADD AND SWAP1 POP SWAP2 SWAP1 POP JUMP JUMPDEST PUSH32 0x5F7369676E6572206973206E6F742076616C6964000000000000000000000000 PUSH1 0x0 DUP3 ADD MSTORE POP JUMP JUMPDEST PUSH3 0x738 DUP2 PUSH3 0x59F JUMP JUMPDEST DUP2 EQ PUSH3 0x744 JUMPI PUSH1 0x0 DUP1 REVERT JUMPDEST POP JUMP JUMPDEST PUSH3 0x752 DUP2 PUSH3 0x5B3 JUMP JUMPDEST DUP2 EQ PUSH3 0x75E JUMPI PUSH1 0x0 DUP1 REVERT JUMPDEST POP JUMP JUMPDEST PUSH2 0xF85 DUP1 PUSH3 0x771 PUSH1 0x0 CODECOPY PUSH1 0x0 RETURN INVALID PUSH1 0x80 PUSH1 0x40 MSTORE CALLVALUE DUP1 ISZERO PUSH2 0x10 JUMPI PUSH1 0x0 DUP1 REVERT JUMPDEST POP PUSH1 0x4 CALLDATASIZE LT PUSH2 0x57 JUMPI PUSH1 0x0 CALLDATALOAD PUSH1 0xE0 SHR DUP1 PUSH4 0x2CA15122 EQ PUSH2 0x5C JUMPI DUP1 PUSH4 0x3C68AF3E EQ PUSH2 0x7A JUMPI DUP1 PUSH4 0x50CA0928 EQ PUSH2 0x99 JUMPI DUP1 PUSH4 0x596F21F8 EQ PUSH2 0xC9 JUMPI DUP1 PUSH4 0x963671BE EQ PUSH2 0xE9 JUMPI JUMPDEST PUSH1 0x0 DUP1 REVERT JUMPDEST PUSH2 0x64 PUSH2 0x107 JUMP JUMPDEST PUSH1 0x40 MLOAD PUSH2 0x71 SWAP2 SWAP1 PUSH2 0xB49 JUMP JUMPDEST PUSH1 0x40 MLOAD DUP1 SWAP2 SUB SWAP1 RETURN JUMPDEST PUSH2 0x82 PUSH2 0x247 JUMP JUMPDEST PUSH1 0x40 MLOAD PUSH2 0x90 SWAP3 SWAP2 SWAP1 PUSH2 0xB64 JUMP JUMPDEST PUSH1 0x40 MLOAD DUP1 SWAP2 SUB SWAP1 RETURN JUMPDEST PUSH2 0xB3 PUSH1 0x4 DUP1 CALLDATASIZE SUB DUP2 ADD SWAP1 PUSH2 0xAE SWAP2 SWAP1 PUSH2 0x8DD JUMP JUMPDEST PUSH2 0x3C7 JUMP JUMPDEST PUSH1 0x40 MLOAD PUSH2 0xC0 SWAP2 SWAP1 PUSH2 0xB49 JUMP JUMPDEST PUSH1 0x40 MLOAD DUP1 SWAP2 SUB SWAP1 RETURN JUMPDEST PUSH2 0xD1 PUSH2 0x47B JUMP JUMPDEST PUSH1 0x40 MLOAD PUSH2 0xE0 SWAP4 SWAP3 SWAP2 SWAP1 PUSH2 0xB94 JUMP JUMPDEST PUSH1 0x40 MLOAD DUP1 SWAP2 SUB SWAP1 RETURN JUMPDEST PUSH2 0xF1 PUSH2 0x7B4 JUMP JUMPDEST PUSH1 0x40 MLOAD PUSH2 0xFE SWAP2 SWAP1 PUSH2 0xB2E JUMP JUMPDEST PUSH1 0x40 MLOAD DUP1 SWAP2 SUB SWAP1 RETURN JUMPDEST PUSH1 0x0 PUSH2 0x112 ORIGIN PUSH2 0x3C7 JUMP JUMPDEST PUSH2 0x151 JUMPI PUSH1 0x40 MLOAD PUSH32 0x8C379A000000000000000000000000000000000000000000000000000000000 DUP2 MSTORE PUSH1 0x4 ADD PUSH2 0x148 SWAP1 PUSH2 0xC10 JUMP JUMPDEST PUSH1 0x40 MLOAD DUP1 SWAP2 SUB SWAP1 REVERT JUMPDEST PUSH2 0x15A ORIGIN PUSH2 0x7DA JUMP JUMPDEST ISZERO PUSH2 0x1A2 JUMPI PUSH32 0x57BB3FEAD2451E6A3A5680E94E3DBA9642A2EA6E850811BF18FECCC94C5968A9 PUSH1 0x0 ORIGIN PUSH1 0x40 MLOAD PUSH2 0x191 SWAP3 SWAP2 SWAP1 PUSH2 0xBE0 JUMP JUMPDEST PUSH1 0x40 MLOAD DUP1 SWAP2 SUB SWAP1 LOG1 PUSH1 0x1 SWAP1 POP PUSH2 0x244 JUMP JUMPDEST PUSH1 0x1 ORIGIN SWAP1 DUP1 PUSH1 0x1 DUP2 SLOAD ADD DUP1 DUP3 SSTORE DUP1 SWAP2 POP POP PUSH1 0x1 SWAP1 SUB SWAP1 PUSH1 0x0 MSTORE PUSH1 0x20 PUSH1 0x0 KECCAK256 ADD PUSH1 0x0 SWAP1 SWAP2 SWAP1 SWAP2 SWAP1 SWAP2 PUSH2 0x100 EXP DUP2 SLOAD DUP2 PUSH20 0xFFFFFFFFFFFFFFFFFFFFFFFFFFFFFFFFFFFFFFFF MUL NOT AND SWAP1 DUP4 PUSH20 0xFFFFFFFFFFFFFFFFFFFFFFFFFFFFFFFFFFFFFFFF AND MUL OR SWAP1 SSTORE POP PUSH32 0xB05E84F77F10CA9CD0A42F11422685A81FB7997E8C2500733527F8C2EE56AB29 PUSH1 0x0 ORIGIN PUSH1 0x40 MLOAD PUSH2 0x237 SWAP3 SWAP2 SWAP1 PUSH2 0xBE0 JUMP JUMPDEST PUSH1 0x40 MLOAD DUP1 SWAP2 SUB SWAP1 LOG1 PUSH1 0x1 SWAP1 POP JUMPDEST SWAP1 JUMP JUMPDEST PUSH1 0x0 PUSH1 0x60 PUSH1 0x0 PUSH1 0x2 PUSH1 0x0 SWAP1 SLOAD SWAP1 PUSH2 0x100 EXP SWAP1 DIV PUSH20 0xFFFFFFFFFFFFFFFFFFFFFFFFFFFFFFFFFFFFFFFF AND PUSH20 0xFFFFFFFFFFFFFFFFFFFFFFFFFFFFFFFFFFFFFFFF AND PUSH4 0xFA69EFBD PUSH1 0x40 MLOAD DUP2 PUSH4 0xFFFFFFFF AND PUSH1 0xE0 SHL DUP2 MSTORE PUSH1 0x4 ADD PUSH1 0x20 PUSH1 0x40 MLOAD DUP1 DUP4 SUB DUP2 DUP7 DUP1 EXTCODESIZE ISZERO DUP1 ISZERO PUSH2 0x2B5 JUMPI PUSH1 0x0 DUP1 REVERT JUMPDEST POP GAS STATICCALL ISZERO DUP1 ISZERO PUSH2 0x2C9 JUMPI RETURNDATASIZE PUSH1 0x0 DUP1 RETURNDATACOPY RETURNDATASIZE PUSH1 0x0 REVERT JUMPDEST POP POP POP POP PUSH1 0x40 MLOAD RETURNDATASIZE PUSH1 0x1F NOT PUSH1 0x1F DUP3 ADD AND DUP3 ADD DUP1 PUSH1 0x40 MSTORE POP DUP2 ADD SWAP1 PUSH2 0x2ED SWAP2 SWAP1 PUSH2 0x964 JUMP JUMPDEST SWAP1 POP PUSH1 0x0 JUMPDEST DUP2 DUP2 LT ISZERO PUSH2 0x3C1 JUMPI PUSH2 0x3AD PUSH1 0x2 PUSH1 0x0 SWAP1 SLOAD SWAP1 PUSH2 0x100 EXP SWAP1 DIV PUSH20 0xFFFFFFFFFFFFFFFFFFFFFFFFFFFFFFFFFFFFFFFF AND PUSH20 0xFFFFFFFFFFFFFFFFFFFFFFFFFFFFFFFFFFFFFFFF AND PUSH4 0x3FFEFE4E DUP4 PUSH1 0x40 MLOAD DUP3 PUSH4 0xFFFFFFFF AND PUSH1 0xE0 SHL DUP2 MSTORE PUSH1 0x4 ADD PUSH2 0x358 SWAP2 SWAP1 PUSH2 0xC30 JUMP JUMPDEST PUSH1 0x20 PUSH1 0x40 MLOAD DUP1 DUP4 SUB DUP2 DUP7 DUP1 EXTCODESIZE ISZERO DUP1 ISZERO PUSH2 0x370 JUMPI PUSH1 0x0 DUP1 REVERT JUMPDEST POP GAS STATICCALL ISZERO DUP1 ISZERO PUSH2 0x384 JUMPI RETURNDATASIZE PUSH1 0x0 DUP1 RETURNDATACOPY RETURNDATASIZE PUSH1 0x0 REVERT JUMPDEST POP POP POP POP PUSH1 0x40 MLOAD RETURNDATASIZE PUSH1 0x1F NOT PUSH1 0x1F DUP3 ADD AND DUP3 ADD DUP1 PUSH1 0x40 MSTORE POP DUP2 ADD SWAP1 PUSH2 0x3A8 SWAP2 SWAP1 PUSH2 0x90A JUMP JUMPDEST PUSH2 0x7DA JUMP JUMPDEST POP DUP1 DUP1 PUSH2 0x3B9 SWAP1 PUSH2 0xD9C JUMP JUMPDEST SWAP2 POP POP PUSH2 0x2F2 JUMP JUMPDEST POP POP SWAP1 SWAP2 JUMP JUMPDEST PUSH1 0x0 PUSH1 0x2 PUSH1 0x0 SWAP1 SLOAD SWAP1 PUSH2 0x100 EXP SWAP1 DIV PUSH20 0xFFFFFFFFFFFFFFFFFFFFFFFFFFFFFFFFFFFFFFFF AND PUSH20 0xFFFFFFFFFFFFFFFFFFFFFFFFFFFFFFFFFFFFFFFF AND PUSH4 0x63A9C3D7 DUP4 PUSH1 0x40 MLOAD DUP3 PUSH4 0xFFFFFFFF AND PUSH1 0xE0 SHL DUP2 MSTORE PUSH1 0x4 ADD PUSH2 0x424 SWAP2 SWAP1 PUSH2 0xB2E JUMP JUMPDEST PUSH1 0x20 PUSH1 0x40 MLOAD DUP1 DUP4 SUB DUP2 DUP7 DUP1 EXTCODESIZE ISZERO DUP1 ISZERO PUSH2 0x43C JUMPI PUSH1 0x0 DUP1 REVERT JUMPDEST POP GAS STATICCALL ISZERO DUP1 ISZERO PUSH2 0x450 JUMPI RETURNDATASIZE PUSH1 0x0 DUP1 RETURNDATACOPY RETURNDATASIZE PUSH1 0x0 REVERT JUMPDEST POP POP POP POP PUSH1 0x40 MLOAD RETURNDATASIZE PUSH1 0x1F NOT PUSH1 0x1F DUP3 ADD AND DUP3 ADD DUP1 PUSH1 0x40 MSTORE POP DUP2 ADD SWAP1 PUSH2 0x474 SWAP2 SWAP1 PUSH2 0x937 JUMP JUMPDEST SWAP1 POP SWAP2 SWAP1 POP JUMP JUMPDEST PUSH1 0x60 DUP1 PUSH1 0x60 PUSH1 0x0 PUSH1 0x2 PUSH1 0x0 SWAP1 SLOAD SWAP1 PUSH2 0x100 EXP SWAP1 DIV PUSH20 0xFFFFFFFFFFFFFFFFFFFFFFFFFFFFFFFFFFFFFFFF AND PUSH20 0xFFFFFFFFFFFFFFFFFFFFFFFFFFFFFFFFFFFFFFFF AND PUSH4 0xFA69EFBD PUSH1 0x40 MLOAD DUP2 PUSH4 0xFFFFFFFF AND PUSH1 0xE0 SHL DUP2 MSTORE PUSH1 0x4 ADD PUSH1 0x20 PUSH1 0x40 MLOAD DUP1 DUP4 SUB DUP2 DUP7 DUP1 EXTCODESIZE ISZERO DUP1 ISZERO PUSH2 0x4EA JUMPI PUSH1 0x0 DUP1 REVERT JUMPDEST POP GAS STATICCALL ISZERO DUP1 ISZERO PUSH2 0x4FE JUMPI RETURNDATASIZE PUSH1 0x0 DUP1 RETURNDATACOPY RETURNDATASIZE PUSH1 0x0 REVERT JUMPDEST POP POP POP POP PUSH1 0x40 MLOAD RETURNDATASIZE PUSH1 0x1F NOT PUSH1 0x1F DUP3 ADD AND DUP3 ADD DUP1 PUSH1 0x40 MSTORE POP DUP2 ADD SWAP1 PUSH2 0x522 SWAP2 SWAP1 PUSH2 0x964 JUMP JUMPDEST SWAP1 POP PUSH1 0x0 DUP2 PUSH8 0xFFFFFFFFFFFFFFFF DUP2 GT ISZERO PUSH2 0x540 JUMPI PUSH2 0x53F PUSH2 0xE9C JUMP JUMPDEST JUMPDEST PUSH1 0x40 MLOAD SWAP1 DUP1 DUP3 MSTORE DUP1 PUSH1 0x20 MUL PUSH1 0x20 ADD DUP3 ADD PUSH1 0x40 MSTORE DUP1 ISZERO PUSH2 0x56E JUMPI DUP2 PUSH1 0x20 ADD PUSH1 0x20 DUP3 MUL DUP1 CALLDATASIZE DUP4 CALLDATACOPY DUP1 DUP3 ADD SWAP2 POP POP SWAP1 POP JUMPDEST POP SWAP1 POP PUSH1 0x0 JUMPDEST DUP3 DUP2 PUSH1 0xFF AND LT ISZERO PUSH2 0x68D JUMPI PUSH1 0x2 PUSH1 0x0 SWAP1 SLOAD SWAP1 PUSH2 0x100 EXP SWAP1 DIV PUSH20 0xFFFFFFFFFFFFFFFFFFFFFFFFFFFFFFFFFFFFFFFF AND PUSH20 0xFFFFFFFFFFFFFFFFFFFFFFFFFFFFFFFFFFFFFFFF AND PUSH4 0x3FFEFE4E DUP3 PUSH1 0x40 MLOAD DUP3 PUSH4 0xFFFFFFFF AND PUSH1 0xE0 SHL DUP2 MSTORE PUSH1 0x4 ADD PUSH2 0x5DA SWAP2 SWAP1 PUSH2 0xC4B JUMP JUMPDEST PUSH1 0x20 PUSH1 0x40 MLOAD DUP1 DUP4 SUB DUP2 DUP7 DUP1 EXTCODESIZE ISZERO DUP1 ISZERO PUSH2 0x5F2 JUMPI PUSH1 0x0 DUP1 REVERT JUMPDEST POP GAS STATICCALL ISZERO DUP1 ISZERO PUSH2 0x606 JUMPI RETURNDATASIZE PUSH1 0x0 DUP1 RETURNDATACOPY RETURNDATASIZE PUSH1 0x0 REVERT JUMPDEST POP POP POP POP PUSH1 0x40 MLOAD RETURNDATASIZE PUSH1 0x1F NOT PUSH1 0x1F DUP3 ADD AND DUP3 ADD DUP1 PUSH1 0x40 MSTORE POP DUP2 ADD SWAP1 PUSH2 0x62A SWAP2 SWAP1 PUSH2 0x90A JUMP JUMPDEST DUP3 DUP3 PUSH1 0xFF AND DUP2 MLOAD DUP2 LT PUSH2 0x640 JUMPI PUSH2 0x63F PUSH2 0xE6D JUMP JUMPDEST JUMPDEST PUSH1 0x20 MUL PUSH1 0x20 ADD ADD SWAP1 PUSH20 0xFFFFFFFFFFFFFFFFFFFFFFFFFFFFFFFFFFFFFFFF AND SWAP1 DUP2 PUSH20 0xFFFFFFFFFFFFFFFFFFFFFFFFFFFFFFFFFFFFFFFF AND DUP2 MSTORE POP POP DUP1 DUP1 PUSH2 0x685 SWAP1 PUSH2 0xDE5 JUMP JUMPDEST SWAP2 POP POP PUSH2 0x574 JUMP JUMPDEST POP PUSH1 0x0 DUP2 PUSH1 0x1 DUP3 DUP1 SLOAD PUSH2 0x69F SWAP1 PUSH2 0xD6A JUMP JUMPDEST DUP1 PUSH1 0x1F ADD PUSH1 0x20 DUP1 SWAP2 DIV MUL PUSH1 0x20 ADD PUSH1 0x40 MLOAD SWAP1 DUP2 ADD PUSH1 0x40 MSTORE DUP1 SWAP3 SWAP2 SWAP1 DUP2 DUP2 MSTORE PUSH1 0x20 ADD DUP3 DUP1 SLOAD PUSH2 0x6CB SWAP1 PUSH2 0xD6A JUMP JUMPDEST DUP1 ISZERO PUSH2 0x718 JUMPI DUP1 PUSH1 0x1F LT PUSH2 0x6ED JUMPI PUSH2 0x100 DUP1 DUP4 SLOAD DIV MUL DUP4 MSTORE SWAP2 PUSH1 0x20 ADD SWAP2 PUSH2 0x718 JUMP JUMPDEST DUP3 ADD SWAP2 SWAP1 PUSH1 0x0 MSTORE PUSH1 0x20 PUSH1 0x0 KECCAK256 SWAP1 JUMPDEST DUP2 SLOAD DUP2 MSTORE SWAP1 PUSH1 0x1 ADD SWAP1 PUSH1 0x20 ADD DUP1 DUP4 GT PUSH2 0x6FB JUMPI DUP3 SWAP1 SUB PUSH1 0x1F AND DUP3 ADD SWAP2 JUMPDEST POP POP POP POP POP SWAP3 POP DUP1 DUP1 SLOAD DUP1 PUSH1 0x20 MUL PUSH1 0x20 ADD PUSH1 0x40 MLOAD SWAP1 DUP2 ADD PUSH1 0x40 MSTORE DUP1 SWAP3 SWAP2 SWAP1 DUP2 DUP2 MSTORE PUSH1 0x20 ADD DUP3 DUP1 SLOAD DUP1 ISZERO PUSH2 0x7A0 JUMPI PUSH1 0x20 MUL DUP3 ADD SWAP2 SWAP1 PUSH1 0x0 MSTORE PUSH1 0x20 PUSH1 0x0 KECCAK256 SWAP1 JUMPDEST DUP2 PUSH1 0x0 SWAP1 SLOAD SWAP1 PUSH2 0x100 EXP SWAP1 DIV PUSH20 0xFFFFFFFFFFFFFFFFFFFFFFFFFFFFFFFFFFFFFFFF AND PUSH20 0xFFFFFFFFFFFFFFFFFFFFFFFFFFFFFFFFFFFFFFFF AND DUP2 MSTORE PUSH1 0x20 ADD SWAP1 PUSH1 0x1 ADD SWAP1 DUP1 DUP4 GT PUSH2 0x756 JUMPI JUMPDEST POP POP POP POP POP SWAP1 POP SWAP5 POP SWAP5 POP SWAP5 POP POP POP SWAP1 SWAP2 SWAP3 JUMP JUMPDEST PUSH1 0x2 PUSH1 0x0 SWAP1 SLOAD SWAP1 PUSH2 0x100 EXP SWAP1 DIV PUSH20 0xFFFFFFFFFFFFFFFFFFFFFFFFFFFFFFFFFFFFFFFF AND DUP2 JUMP JUMPDEST PUSH1 0x0 DUP1 PUSH1 0x0 SWAP1 POP JUMPDEST PUSH1 0x1 DUP1 SLOAD SWAP1 POP DUP2 LT ISZERO PUSH2 0x87E JUMPI DUP3 PUSH20 0xFFFFFFFFFFFFFFFFFFFFFFFFFFFFFFFFFFFFFFFF AND PUSH1 0x1 DUP3 DUP2 SLOAD DUP2 LT PUSH2 0x81A JUMPI PUSH2 0x819 PUSH2 0xE6D JUMP JUMPDEST JUMPDEST SWAP1 PUSH1 0x0 MSTORE PUSH1 0x20 PUSH1 0x0 KECCAK256 ADD PUSH1 0x0 SWAP1 SLOAD SWAP1 PUSH2 0x100 EXP SWAP1 DIV PUSH20 0xFFFFFFFFFFFFFFFFFFFFFFFFFFFFFFFFFFFFFFFF AND PUSH20 0xFFFFFFFFFFFFFFFFFFFFFFFFFFFFFFFFFFFFFFFF AND EQ ISZERO PUSH2 0x86B JUMPI PUSH1 0x1 SWAP2 POP POP PUSH2 0x884 JUMP JUMPDEST DUP1 DUP1 PUSH2 0x876 SWAP1 PUSH2 0xD9C JUMP JUMPDEST SWAP2 POP POP PUSH2 0x7E2 JUMP JUMPDEST POP PUSH1 0x0 SWAP1 POP JUMPDEST SWAP2 SWAP1 POP JUMP JUMPDEST PUSH1 0x0 DUP2 CALLDATALOAD SWAP1 POP PUSH2 0x898 DUP2 PUSH2 0xF0A JUMP JUMPDEST SWAP3 SWAP2 POP POP JUMP JUMPDEST PUSH1 0x0 DUP2 MLOAD SWAP1 POP PUSH2 0x8AD DUP2 PUSH2 0xF0A JUMP JUMPDEST SWAP3 SWAP2 POP POP JUMP JUMPDEST PUSH1 0x0 DUP2 MLOAD SWAP1 POP PUSH2 0x8C2 DUP2 PUSH2 0xF21 JUMP JUMPDEST SWAP3 SWAP2 POP POP JUMP JUMPDEST PUSH1 0x0 DUP2 MLOAD SWAP1 POP PUSH2 0x8D7 DUP2 PUSH2 0xF38 JUMP JUMPDEST SWAP3 SWAP2 POP POP JUMP JUMPDEST PUSH1 0x0 PUSH1 0x20 DUP3 DUP5 SUB SLT ISZERO PUSH2 0x8F3 JUMPI PUSH2 0x8F2 PUSH2 0xECB JUMP JUMPDEST JUMPDEST PUSH1 0x0 PUSH2 0x901 DUP5 DUP3 DUP6 ADD PUSH2 0x889 JUMP JUMPDEST SWAP2 POP POP SWAP3 SWAP2 POP POP JUMP JUMPDEST PUSH1 0x0 PUSH1 0x20 DUP3 DUP5 SUB SLT ISZERO PUSH2 0x920 JUMPI PUSH2 0x91F PUSH2 0xECB JUMP JUMPDEST JUMPDEST PUSH1 0x0 PUSH2 0x92E DUP5 DUP3 DUP6 ADD PUSH2 0x89E JUMP JUMPDEST SWAP2 POP POP SWAP3 SWAP2 POP POP JUMP JUMPDEST PUSH1 0x0 PUSH1 0x20 DUP3 DUP5 SUB SLT ISZERO PUSH2 0x94D JUMPI PUSH2 0x94C PUSH2 0xECB JUMP JUMPDEST JUMPDEST PUSH1 0x0 PUSH2 0x95B DUP5 DUP3 DUP6 ADD PUSH2 0x8B3 JUMP JUMPDEST SWAP2 POP POP SWAP3 SWAP2 POP POP JUMP JUMPDEST PUSH1 0x0 PUSH1 0x20 DUP3 DUP5 SUB SLT ISZERO PUSH2 0x97A JUMPI PUSH2 0x979 PUSH2 0xECB JUMP JUMPDEST JUMPDEST PUSH1 0x0 PUSH2 0x988 DUP5 DUP3 DUP6 ADD PUSH2 0x8C8 JUMP JUMPDEST SWAP2 POP POP SWAP3 SWAP2 POP POP JUMP JUMPDEST PUSH1 0x0 PUSH2 0x99D DUP4 DUP4 PUSH2 0x9A9 JUMP JUMPDEST PUSH1 0x20 DUP4 ADD SWAP1 POP SWAP3 SWAP2 POP POP JUMP JUMPDEST PUSH2 0x9B2 DUP2 PUSH2 0xCD0 JUMP JUMPDEST DUP3 MSTORE POP POP JUMP JUMPDEST PUSH2 0x9C1 DUP2 PUSH2 0xCD0 JUMP JUMPDEST DUP3 MSTORE POP POP JUMP JUMPDEST PUSH1 0x0 PUSH2 0x9D2 DUP3 PUSH2 0xC8B JUMP JUMPDEST PUSH2 0x9DC DUP2 DUP6 PUSH2 0xCAE JUMP JUMPDEST SWAP4 POP PUSH2 0x9E7 DUP4 PUSH2 0xC66 JUMP JUMPDEST DUP1 PUSH1 0x0 JUMPDEST DUP4 DUP2 LT ISZERO PUSH2 0xA18 JUMPI DUP2 MLOAD PUSH2 0x9FF DUP9 DUP3 PUSH2 0x991 JUMP JUMPDEST SWAP8 POP PUSH2 0xA0A DUP4 PUSH2 0xCA1 JUMP JUMPDEST SWAP3 POP POP PUSH1 0x1 DUP2 ADD SWAP1 POP PUSH2 0x9EB JUMP JUMPDEST POP DUP6 SWAP4 POP POP POP POP SWAP3 SWAP2 POP POP JUMP JUMPDEST PUSH2 0xA2E DUP2 PUSH2 0xCE2 JUMP JUMPDEST DUP3 MSTORE POP POP JUMP JUMPDEST PUSH1 0x0 PUSH2 0xA3F DUP3 PUSH2 0xC96 JUMP JUMPDEST PUSH2 0xA49 DUP2 DUP6 PUSH2 0xCBF JUMP JUMPDEST SWAP4 POP PUSH2 0xA59 DUP2 DUP6 PUSH1 0x20 DUP7 ADD PUSH2 0xD37 JUMP JUMPDEST PUSH2 0xA62 DUP2 PUSH2 0xED0 JUMP JUMPDEST DUP5 ADD SWAP2 POP POP SWAP3 SWAP2 POP POP JUMP JUMPDEST PUSH1 0x0 DUP2 SLOAD PUSH2 0xA7A DUP2 PUSH2 0xD6A JUMP JUMPDEST PUSH2 0xA84 DUP2 DUP7 PUSH2 0xCBF JUMP JUMPDEST SWAP5 POP PUSH1 0x1 DUP3 AND PUSH1 0x0 DUP2 EQ PUSH2 0xA9F JUMPI PUSH1 0x1 DUP2 EQ PUSH2 0xAB1 JUMPI PUSH2 0xAE4 JUMP JUMPDEST PUSH1 0xFF NOT DUP4 AND DUP7 MSTORE PUSH1 0x20 DUP7 ADD SWAP4 POP PUSH2 0xAE4 JUMP JUMPDEST PUSH2 0xABA DUP6 PUSH2 0xC76 JUMP JUMPDEST PUSH1 0x0 JUMPDEST DUP4 DUP2 LT ISZERO PUSH2 0xADC JUMPI DUP2 SLOAD DUP2 DUP10 ADD MSTORE PUSH1 0x1 DUP3 ADD SWAP2 POP PUSH1 0x20 DUP2 ADD SWAP1 POP PUSH2 0xABD JUMP JUMPDEST DUP1 DUP9 ADD SWAP6 POP POP POP JUMPDEST POP POP POP SWAP3 SWAP2 POP POP JUMP JUMPDEST PUSH1 0x0 PUSH2 0xAFA PUSH1 0x14 DUP4 PUSH2 0xCBF JUMP JUMPDEST SWAP2 POP PUSH2 0xB05 DUP3 PUSH2 0xEE1 JUMP JUMPDEST PUSH1 0x20 DUP3 ADD SWAP1 POP SWAP2 SWAP1 POP JUMP JUMPDEST PUSH2 0xB19 DUP2 PUSH2 0xD0E JUMP JUMPDEST DUP3 MSTORE POP POP JUMP JUMPDEST PUSH2 0xB28 DUP2 PUSH2 0xD25 JUMP JUMPDEST DUP3 MSTORE POP POP JUMP JUMPDEST PUSH1 0x0 PUSH1 0x20 DUP3 ADD SWAP1 POP PUSH2 0xB43 PUSH1 0x0 DUP4 ADD DUP5 PUSH2 0x9B8 JUMP JUMPDEST SWAP3 SWAP2 POP POP JUMP JUMPDEST PUSH1 0x0 PUSH1 0x20 DUP3 ADD SWAP1 POP PUSH2 0xB5E PUSH1 0x0 DUP4 ADD DUP5 PUSH2 0xA25 JUMP JUMPDEST SWAP3 SWAP2 POP POP JUMP JUMPDEST PUSH1 0x0 PUSH1 0x40 DUP3 ADD SWAP1 POP PUSH2 0xB79 PUSH1 0x0 DUP4 ADD DUP6 PUSH2 0xA25 JUMP JUMPDEST DUP2 DUP2 SUB PUSH1 0x20 DUP4 ADD MSTORE PUSH2 0xB8B DUP2 DUP5 PUSH2 0xA34 JUMP JUMPDEST SWAP1 POP SWAP4 SWAP3 POP POP POP JUMP JUMPDEST PUSH1 0x0 PUSH1 0x60 DUP3 ADD SWAP1 POP DUP2 DUP2 SUB PUSH1 0x0 DUP4 ADD MSTORE PUSH2 0xBAE DUP2 DUP7 PUSH2 0xA34 JUMP JUMPDEST SWAP1 POP DUP2 DUP2 SUB PUSH1 0x20 DUP4 ADD MSTORE PUSH2 0xBC2 DUP2 DUP6 PUSH2 0x9C7 JUMP JUMPDEST SWAP1 POP DUP2 DUP2 SUB PUSH1 0x40 DUP4 ADD MSTORE PUSH2 0xBD6 DUP2 DUP5 PUSH2 0x9C7 JUMP JUMPDEST SWAP1 POP SWAP5 SWAP4 POP POP POP POP JUMP JUMPDEST PUSH1 0x0 PUSH1 0x40 DUP3 ADD SWAP1 POP DUP2 DUP2 SUB PUSH1 0x0 DUP4 ADD MSTORE PUSH2 0xBFA DUP2 DUP6 PUSH2 0xA6D JUMP JUMPDEST SWAP1 POP PUSH2 0xC09 PUSH1 0x20 DUP4 ADD DUP5 PUSH2 0x9B8 JUMP JUMPDEST SWAP4 SWAP3 POP POP POP JUMP JUMPDEST PUSH1 0x0 PUSH1 0x20 DUP3 ADD SWAP1 POP DUP2 DUP2 SUB PUSH1 0x0 DUP4 ADD MSTORE PUSH2 0xC29 DUP2 PUSH2 0xAED JUMP JUMPDEST SWAP1 POP SWAP2 SWAP1 POP JUMP JUMPDEST PUSH1 0x0 PUSH1 0x20 DUP3 ADD SWAP1 POP PUSH2 0xC45 PUSH1 0x0 DUP4 ADD DUP5 PUSH2 0xB10 JUMP JUMPDEST SWAP3 SWAP2 POP POP JUMP JUMPDEST PUSH1 0x0 PUSH1 0x20 DUP3 ADD SWAP1 POP PUSH2 0xC60 PUSH1 0x0 DUP4 ADD DUP5 PUSH2 0xB1F JUMP JUMPDEST SWAP3 SWAP2 POP POP JUMP JUMPDEST PUSH1 0x0 DUP2 SWAP1 POP PUSH1 0x20 DUP3 ADD SWAP1 POP SWAP2 SWAP1 POP JUMP JUMPDEST PUSH1 0x0 DUP2 SWAP1 POP DUP2 PUSH1 0x0 MSTORE PUSH1 0x20 PUSH1 0x0 KECCAK256 SWAP1 POP SWAP2 SWAP1 POP JUMP JUMPDEST PUSH1 0x0 DUP2 MLOAD SWAP1 POP SWAP2 SWAP1 POP JUMP JUMPDEST PUSH1 0x0 DUP2 MLOAD SWAP1 POP SWAP2 SWAP1 POP JUMP JUMPDEST PUSH1 0x0 PUSH1 0x20 DUP3 ADD SWAP1 POP SWAP2 SWAP1 POP JUMP JUMPDEST PUSH1 0x0 DUP3 DUP3 MSTORE PUSH1 0x20 DUP3 ADD SWAP1 POP SWAP3 SWAP2 POP POP JUMP JUMPDEST PUSH1 0x0 DUP3 DUP3 MSTORE PUSH1 0x20 DUP3 ADD SWAP1 POP SWAP3 SWAP2 POP POP JUMP JUMPDEST PUSH1 0x0 PUSH2 0xCDB DUP3 PUSH2 0xCEE JUMP JUMPDEST SWAP1 POP SWAP2 SWAP1 POP JUMP JUMPDEST PUSH1 0x0 DUP2 ISZERO ISZERO SWAP1 POP SWAP2 SWAP1 POP JUMP JUMPDEST PUSH1 0x0 PUSH20 0xFFFFFFFFFFFFFFFFFFFFFFFFFFFFFFFFFFFFFFFF DUP3 AND SWAP1 POP SWAP2 SWAP1 POP JUMP JUMPDEST PUSH1 0x0 DUP2 SWAP1 POP SWAP2 SWAP1 POP JUMP JUMPDEST PUSH1 0x0 PUSH1 0xFF DUP3 AND SWAP1 POP SWAP2 SWAP1 POP JUMP JUMPDEST PUSH1 0x0 PUSH2 0xD30 DUP3 PUSH2 0xD18 JUMP JUMPDEST SWAP1 POP SWAP2 SWAP1 POP JUMP JUMPDEST PUSH1 0x0 JUMPDEST DUP4 DUP2 LT ISZERO PUSH2 0xD55 JUMPI DUP1 DUP3 ADD MLOAD DUP2 DUP5 ADD MSTORE PUSH1 0x20 DUP2 ADD SWAP1 POP PUSH2 0xD3A JUMP JUMPDEST DUP4 DUP2 GT ISZERO PUSH2 0xD64 JUMPI PUSH1 0x0 DUP5 DUP5 ADD MSTORE JUMPDEST POP POP POP POP JUMP JUMPDEST PUSH1 0x0 PUSH1 0x2 DUP3 DIV SWAP1 POP PUSH1 0x1 DUP3 AND DUP1 PUSH2 0xD82 JUMPI PUSH1 0x7F DUP3 AND SWAP2 POP JUMPDEST PUSH1 0x20 DUP3 LT DUP2 EQ ISZERO PUSH2 0xD96 JUMPI PUSH2 0xD95 PUSH2 0xE3E JUMP JUMPDEST JUMPDEST POP SWAP2 SWAP1 POP JUMP JUMPDEST PUSH1 0x0 PUSH2 0xDA7 DUP3 PUSH2 0xD0E JUMP JUMPDEST SWAP2 POP PUSH32 0xFFFFFFFFFFFFFFFFFFFFFFFFFFFFFFFFFFFFFFFFFFFFFFFFFFFFFFFFFFFFFFFF DUP3 EQ ISZERO PUSH2 0xDDA JUMPI PUSH2 0xDD9 PUSH2 0xE0F JUMP JUMPDEST JUMPDEST PUSH1 0x1 DUP3 ADD SWAP1 POP SWAP2 SWAP1 POP JUMP JUMPDEST PUSH1 0x0 PUSH2 0xDF0 DUP3 PUSH2 0xD18 JUMP JUMPDEST SWAP2 POP PUSH1 0xFF DUP3 EQ ISZERO PUSH2 0xE04 JUMPI PUSH2 0xE03 PUSH2 0xE0F JUMP JUMPDEST JUMPDEST PUSH1 0x1 DUP3 ADD SWAP1 POP SWAP2 SWAP1 POP JUMP JUMPDEST PUSH32 0x4E487B7100000000000000000000000000000000000000000000000000000000 PUSH1 0x0 MSTORE PUSH1 0x11 PUSH1 0x4 MSTORE PUSH1 0x24 PUSH1 0x0 REVERT JUMPDEST PUSH32 0x4E487B7100000000000000000000000000000000000000000000000000000000 PUSH1 0x0 MSTORE PUSH1 0x22 PUSH1 0x4 MSTORE PUSH1 0x24 PUSH1 0x0 REVERT JUMPDEST PUSH32 0x4E487B7100000000000000000000000000000000000000000000000000000000 PUSH1 0x0 MSTORE PUSH1 0x32 PUSH1 0x4 MSTORE PUSH1 0x24 PUSH1 0x0 REVERT JUMPDEST PUSH32 0x4E487B7100000000000000000000000000000000000000000000000000000000 PUSH1 0x0 MSTORE PUSH1 0x41 PUSH1 0x4 MSTORE PUSH1 0x24 PUSH1 0x0 REVERT JUMPDEST PUSH1 0x0 DUP1 REVERT JUMPDEST PUSH1 0x0 PUSH1 0x1F NOT PUSH1 0x1F DUP4 ADD AND SWAP1 POP SWAP2 SWAP1 POP JUMP JUMPDEST PUSH32 0x5F7369676E6572206973206E6F742076616C6964000000000000000000000000 PUSH1 0x0 DUP3 ADD MSTORE POP JUMP JUMPDEST PUSH2 0xF13 DUP2 PUSH2 0xCD0 JUMP JUMPDEST DUP2 EQ PUSH2 0xF1E JUMPI PUSH1 0x0 DUP1 REVERT JUMPDEST POP JUMP JUMPDEST PUSH2 0xF2A DUP2 PUSH2 0xCE2 JUMP JUMPDEST DUP2 EQ PUSH2 0xF35 JUMPI PUSH1 0x0 DUP1 REVERT JUMPDEST POP JUMP JUMPDEST PUSH2 0xF41 DUP2 PUSH2 0xD0E JUMP JUMPDEST DUP2 EQ PUSH2 0xF4C JUMPI PUSH1 0x0 DUP1 REVERT JUMPDEST POP JUMP INVALID LOG2 PUSH5 0x6970667358 0x22 SLT KECCAK256 0xC7 PUSH4 0xE80A906 DUP4 PUSH25 0x68E4E3ABC766435AD8D5C10A5CCDBB16F85394625B641AAD64 PUSH20 0x6F6C634300080700330000000000000000000000 "
				},
				"gasEstimates": {
					"creation": {
						"codeDepositCost": "794600",
						"executionCost": "infinite",
						"totalCost": "infinite"
					},
					"external": {
						"callVerify(address)": "infinite",
						"factoryAddr()": "2580",
						"getEvidence()": "infinite",
						"isAllSigned()": "infinite",
						"sign()": "infinite"
					},
					"internal": {
						"isSigned(address)": "infinite"
					}
				},
				"methodIdentifiers": {
					"callVerify(address)": "50ca0928",
					"factoryAddr()": "963671be",
					"getEvidence()": "596f21f8",
					"isAllSigned()": "3c68af3e",
					"sign()": "2ca15122"
				}
			},
			"storageLayout": {
				"storage": [
					{
						"astId": 23,
						"contract": "evidence/evidence.sol:Evidence",
						"label": "evidence",
						"offset": 0,
						"slot": "0",
						"type": "t_string_storage"
					},
					{
						"astId": 26,
						"contract": "evidence/evidence.sol:Evidence",
						"label": "signers",
						"offset": 0,
						"slot": "1",
						"type": "t_array(t_address)dyn_storage"
					},
					{
						"astId": 28,
						"contract": "evidence/evidence.sol:Evidence",
						"label": "factoryAddr",
						"offset": 0,
						"slot": "2",
						"type": "t_address"
					}
				],
				"types": {
					"t_address": {
						"encoding": "inplace",
						"label": "address",
						"numberOfBytes": "20"
					},
					"t_array(t_address)dyn_storage": {
						"base": "t_address",
						"encoding": "dynamic_array",
						"label": "address[]",
						"numberOfBytes": "32"
					},
					"t_string_storage": {
						"encoding": "bytes",
						"label": "string",
						"numberOfBytes": "32"
					}
				}
			},
			"userdoc": {
				"kind": "user",
				"methods": {},
				"version": 1
			}
		}
	}
}