{
	"evidence/evidence.sol": {
		"Evidence": {
			"abi": [
				{
					"inputs": [
						{
							"internalType": "string",
							"name": "_evi",
							"type": "string"
						},
						{
							"internalType": "address",
							"name": "_factory",
							"type": "address"
						}
					],
					"stateMutability": "nonpayable",
					"type": "constructor"
				},
				{
					"inputs": [
						{
							"internalType": "address",
							"name": "_signer",
							"type": "address"
						}
					],
					"name": "callVerify",
					"outputs": [
						{
							"internalType": "bool",
							"name": "",
							"type": "bool"
						}
					],
					"stateMutability": "view",
					"type": "function"
				},
				{
					"inputs": [],
					"name": "factoryAddr",
					"outputs": [
						{
							"internalType": "address",
							"name": "",
							"type": "address"
						}
					],
					"stateMutability": "view",
					"type": "function"
				}
			],
			"devdoc": {
				"kind": "dev",
				"methods": {},
				"version": 1
			},
			"evm": {
				"assembly": "    /* \"evidence/evidence.sol\":279:736  contract Evidence {\r... */\n  mstore(0x40, 0x80)\n    /* \"evidence/evidence.sol\":597:731  constructor(string memory _evi,address _factory){\r... */\n  callvalue\n  dup1\n  iszero\n  tag_1\n  jumpi\n  0x00\n  dup1\n  revert\ntag_1:\n  pop\n  mload(0x40)\n  sub(codesize, bytecodeSize)\n  dup1\n  bytecodeSize\n  dup4\n  codecopy\n  dup2\n  dup2\n  add\n  0x40\n  mstore\n  dup2\n  add\n  swap1\n  tag_2\n  swap2\n  swap1\n  tag_3\n  jump\t// in\ntag_2:\n    /* \"evidence/evidence.sol\":670:678  _factory */\n  dup1\n    /* \"evidence/evidence.sol\":656:667  factoryAddr */\n  0x02\n  0x00\n    /* \"evidence/evidence.sol\":656:678  factoryAddr = _factory */\n  0x0100\n  exp\n  dup2\n  sload\n  dup2\n  0xffffffffffffffffffffffffffffffffffffffff\n  mul\n  not\n  and\n  swap1\n  dup4\n  0xffffffffffffffffffffffffffffffffffffffff\n  and\n  mul\n  or\n  swap1\n  sstore\n  pop\n    /* \"evidence/evidence.sol\":697:718  callVerify(tx.origin) */\n  tag_6\n    /* \"evidence/evidence.sol\":708:717  tx.origin */\n  origin\n    /* \"evidence/evidence.sol\":697:707  callVerify */\n  shl(0x20, tag_7)\n    /* \"evidence/evidence.sol\":697:718  callVerify(tx.origin) */\n  0x20\n  shr\n  jump\t// in\ntag_6:\n    /* \"evidence/evidence.sol\":689:723  require(callVerify(tx.origin),\"_\") */\n  tag_8\n  jumpi\n  mload(0x40)\n  0x08c379a000000000000000000000000000000000000000000000000000000000\n  dup2\n  mstore\n  0x04\n  add\n  tag_9\n  swap1\n  tag_10\n  jump\t// in\ntag_9:\n  mload(0x40)\n  dup1\n  swap2\n  sub\n  swap1\n  revert\ntag_8:\n    /* \"evidence/evidence.sol\":597:731  constructor(string memory _evi,address _factory){\r... */\n  pop\n  pop\n    /* \"evidence/evidence.sol\":279:736  contract Evidence {\r... */\n  jump(tag_11)\n    /* \"evidence/evidence.sol\":447:572  function callVerify(address _signer) public view returns(bool){\r... */\ntag_7:\n    /* \"evidence/evidence.sol\":504:508  bool */\n  0x00\n    /* \"evidence/evidence.sol\":536:547  factoryAddr */\n  0x02\n  0x00\n  swap1\n  sload\n  swap1\n  0x0100\n  exp\n  swap1\n  div\n  0xffffffffffffffffffffffffffffffffffffffff\n  and\n    /* \"evidence/evidence.sol\":527:555  IEvdence(factoryAddr).verify */\n  0xffffffffffffffffffffffffffffffffffffffff\n  and\n  0x63a9c3d7\n    /* \"evidence/evidence.sol\":556:563  _signer */\n  dup4\n    /* \"evidence/evidence.sol\":527:564  IEvdence(factoryAddr).verify(_signer) */\n  mload(0x40)\n  dup3\n  0xffffffff\n  and\n  0xe0\n  shl\n  dup2\n  mstore\n  0x04\n  add\n  tag_13\n  swap2\n  swap1\n  tag_14\n  jump\t// in\ntag_13:\n  0x20\n  mload(0x40)\n  dup1\n  dup4\n  sub\n  dup2\n  dup7\n  dup1\n  extcodesize\n  iszero\n  dup1\n  iszero\n  tag_15\n  jumpi\n  0x00\n  dup1\n  revert\ntag_15:\n  pop\n  gas\n  staticcall\n  iszero\n  dup1\n  iszero\n  tag_17\n  jumpi\n  returndatasize\n  0x00\n  dup1\n  returndatacopy\n  revert(0x00, returndatasize)\ntag_17:\n  pop\n  pop\n  pop\n  pop\n  mload(0x40)\n  returndatasize\n  not(0x1f)\n  0x1f\n  dup3\n  add\n  and\n  dup3\n  add\n  dup1\n  0x40\n  mstore\n  pop\n  dup2\n  add\n  swap1\n  tag_18\n  swap2\n  swap1\n  tag_19\n  jump\t// in\ntag_18:\n    /* \"evidence/evidence.sol\":520:564  return IEvdence(factoryAddr).verify(_signer) */\n  swap1\n  pop\n    /* \"evidence/evidence.sol\":447:572  function callVerify(address _signer) public view returns(bool){\r... */\n  swap2\n  swap1\n  pop\n  jump\t// out\n    /* \"#utility.yul\":7:428   */\ntag_21:\n    /* \"#utility.yul\":96:101   */\n  0x00\n    /* \"#utility.yul\":121:187   */\n  tag_23\n    /* \"#utility.yul\":137:186   */\n  tag_24\n    /* \"#utility.yul\":179:185   */\n  dup5\n    /* \"#utility.yul\":137:186   */\n  tag_25\n  jump\t// in\ntag_24:\n    /* \"#utility.yul\":121:187   */\n  tag_26\n  jump\t// in\ntag_23:\n    /* \"#utility.yul\":112:187   */\n  swap1\n  pop\n    /* \"#utility.yul\":210:216   */\n  dup3\n    /* \"#utility.yul\":203:208   */\n  dup2\n    /* \"#utility.yul\":196:217   */\n  mstore\n    /* \"#utility.yul\":248:252   */\n  0x20\n    /* \"#utility.yul\":241:246   */\n  dup2\n    /* \"#utility.yul\":237:253   */\n  add\n    /* \"#utility.yul\":286:289   */\n  dup5\n    /* \"#utility.yul\":277:283   */\n  dup5\n    /* \"#utility.yul\":272:275   */\n  dup5\n    /* \"#utility.yul\":268:284   */\n  add\n    /* \"#utility.yul\":265:290   */\n  gt\n    /* \"#utility.yul\":262:374   */\n  iszero\n  tag_27\n  jumpi\n    /* \"#utility.yul\":293:372   */\n  tag_28\n  tag_29\n  jump\t// in\ntag_28:\n    /* \"#utility.yul\":262:374   */\ntag_27:\n    /* \"#utility.yul\":383:422   */\n  tag_30\n    /* \"#utility.yul\":415:421   */\n  dup5\n    /* \"#utility.yul\":410:413   */\n  dup3\n    /* \"#utility.yul\":405:408   */\n  dup6\n    /* \"#utility.yul\":383:422   */\n  tag_31\n  jump\t// in\ntag_30:\n    /* \"#utility.yul\":102:428   */\n  pop\n    /* \"#utility.yul\":7:428   */\n  swap4\n  swap3\n  pop\n  pop\n  pop\n  jump\t// out\n    /* \"#utility.yul\":434:577   */\ntag_32:\n    /* \"#utility.yul\":491:496   */\n  0x00\n    /* \"#utility.yul\":522:528   */\n  dup2\n    /* \"#utility.yul\":516:529   */\n  mload\n    /* \"#utility.yul\":507:529   */\n  swap1\n  pop\n    /* \"#utility.yul\":538:571   */\n  tag_34\n    /* \"#utility.yul\":565:570   */\n  dup2\n    /* \"#utility.yul\":538:571   */\n  tag_35\n  jump\t// in\ntag_34:\n    /* \"#utility.yul\":434:577   */\n  swap3\n  swap2\n  pop\n  pop\n  jump\t// out\n    /* \"#utility.yul\":583:720   */\ntag_36:\n    /* \"#utility.yul\":637:642   */\n  0x00\n    /* \"#utility.yul\":668:674   */\n  dup2\n    /* \"#utility.yul\":662:675   */\n  mload\n    /* \"#utility.yul\":653:675   */\n  swap1\n  pop\n    /* \"#utility.yul\":684:714   */\n  tag_38\n    /* \"#utility.yul\":708:713   */\n  dup2\n    /* \"#utility.yul\":684:714   */\n  tag_39\n  jump\t// in\ntag_38:\n    /* \"#utility.yul\":583:720   */\n  swap3\n  swap2\n  pop\n  pop\n  jump\t// out\n    /* \"#utility.yul\":740:1095   */\ntag_40:\n    /* \"#utility.yul\":807:812   */\n  0x00\n    /* \"#utility.yul\":856:859   */\n  dup3\n    /* \"#utility.yul\":849:853   */\n  0x1f\n    /* \"#utility.yul\":841:847   */\n  dup4\n    /* \"#utility.yul\":837:854   */\n  add\n    /* \"#utility.yul\":833:860   */\n  slt\n    /* \"#utility.yul\":823:945   */\n  tag_42\n  jumpi\n    /* \"#utility.yul\":864:943   */\n  tag_43\n  tag_44\n  jump\t// in\ntag_43:\n    /* \"#utility.yul\":823:945   */\ntag_42:\n    /* \"#utility.yul\":974:980   */\n  dup2\n    /* \"#utility.yul\":968:981   */\n  mload\n    /* \"#utility.yul\":999:1089   */\n  tag_45\n    /* \"#utility.yul\":1085:1088   */\n  dup5\n    /* \"#utility.yul\":1077:1083   */\n  dup3\n    /* \"#utility.yul\":1070:1074   */\n  0x20\n    /* \"#utility.yul\":1062:1068   */\n  dup7\n    /* \"#utility.yul\":1058:1075   */\n  add\n    /* \"#utility.yul\":999:1089   */\n  tag_21\n  jump\t// in\ntag_45:\n    /* \"#utility.yul\":990:1089   */\n  swap2\n  pop\n    /* \"#utility.yul\":813:1095   */\n  pop\n    /* \"#utility.yul\":740:1095   */\n  swap3\n  swap2\n  pop\n  pop\n  jump\t// out\n    /* \"#utility.yul\":1101:1446   */\ntag_19:\n    /* \"#utility.yul\":1168:1174   */\n  0x00\n    /* \"#utility.yul\":1217:1219   */\n  0x20\n    /* \"#utility.yul\":1205:1214   */\n  dup3\n    /* \"#utility.yul\":1196:1203   */\n  dup5\n    /* \"#utility.yul\":1192:1215   */\n  sub\n    /* \"#utility.yul\":1188:1220   */\n  slt\n    /* \"#utility.yul\":1185:1304   */\n  iszero\n  tag_47\n  jumpi\n    /* \"#utility.yul\":1223:1302   */\n  tag_48\n  tag_49\n  jump\t// in\ntag_48:\n    /* \"#utility.yul\":1185:1304   */\ntag_47:\n    /* \"#utility.yul\":1343:1344   */\n  0x00\n    /* \"#utility.yul\":1368:1429   */\n  tag_50\n    /* \"#utility.yul\":1421:1428   */\n  dup5\n    /* \"#utility.yul\":1412:1418   */\n  dup3\n    /* \"#utility.yul\":1401:1410   */\n  dup6\n    /* \"#utility.yul\":1397:1419   */\n  add\n    /* \"#utility.yul\":1368:1429   */\n  tag_36\n  jump\t// in\ntag_50:\n    /* \"#utility.yul\":1358:1429   */\n  swap2\n  pop\n    /* \"#utility.yul\":1314:1439   */\n  pop\n    /* \"#utility.yul\":1101:1446   */\n  swap3\n  swap2\n  pop\n  pop\n  jump\t// out\n    /* \"#utility.yul\":1452:2132   */\ntag_3:\n    /* \"#utility.yul\":1541:1547   */\n  0x00\n    /* \"#utility.yul\":1549:1555   */\n  dup1\n    /* \"#utility.yul\":1598:1600   */\n  0x40\n    /* \"#utility.yul\":1586:1595   */\n  dup4\n    /* \"#utility.yul\":1577:1584   */\n  dup6\n    /* \"#utility.yul\":1573:1596   */\n  sub\n    /* \"#utility.yul\":1569:1601   */\n  slt\n    /* \"#utility.yul\":1566:1685   */\n  iszero\n  tag_52\n  jumpi\n    /* \"#utility.yul\":1604:1683   */\n  tag_53\n  tag_49\n  jump\t// in\ntag_53:\n    /* \"#utility.yul\":1566:1685   */\ntag_52:\n    /* \"#utility.yul\":1745:1746   */\n  0x00\n    /* \"#utility.yul\":1734:1743   */\n  dup4\n    /* \"#utility.yul\":1730:1747   */\n  add\n    /* \"#utility.yul\":1724:1748   */\n  mload\n    /* \"#utility.yul\":1775:1793   */\n  0xffffffffffffffff\n    /* \"#utility.yul\":1767:1773   */\n  dup2\n    /* \"#utility.yul\":1764:1794   */\n  gt\n    /* \"#utility.yul\":1761:1878   */\n  iszero\n  tag_54\n  jumpi\n    /* \"#utility.yul\":1797:1876   */\n  tag_55\n  tag_56\n  jump\t// in\ntag_55:\n    /* \"#utility.yul\":1761:1878   */\ntag_54:\n    /* \"#utility.yul\":1902:1976   */\n  tag_57\n    /* \"#utility.yul\":1968:1975   */\n  dup6\n    /* \"#utility.yul\":1959:1965   */\n  dup3\n    /* \"#utility.yul\":1948:1957   */\n  dup7\n    /* \"#utility.yul\":1944:1966   */\n  add\n    /* \"#utility.yul\":1902:1976   */\n  tag_40\n  jump\t// in\ntag_57:\n    /* \"#utility.yul\":1892:1976   */\n  swap3\n  pop\n    /* \"#utility.yul\":1695:1986   */\n  pop\n    /* \"#utility.yul\":2025:2027   */\n  0x20\n    /* \"#utility.yul\":2051:2115   */\n  tag_58\n    /* \"#utility.yul\":2107:2114   */\n  dup6\n    /* \"#utility.yul\":2098:2104   */\n  dup3\n    /* \"#utility.yul\":2087:2096   */\n  dup7\n    /* \"#utility.yul\":2083:2105   */\n  add\n    /* \"#utility.yul\":2051:2115   */\n  tag_32\n  jump\t// in\ntag_58:\n    /* \"#utility.yul\":2041:2115   */\n  swap2\n  pop\n    /* \"#utility.yul\":1996:2125   */\n  pop\n    /* \"#utility.yul\":1452:2132   */\n  swap3\n  pop\n  swap3\n  swap1\n  pop\n  jump\t// out\n    /* \"#utility.yul\":2138:2256   */\ntag_59:\n    /* \"#utility.yul\":2225:2249   */\n  tag_61\n    /* \"#utility.yul\":2243:2248   */\n  dup2\n    /* \"#utility.yul\":2225:2249   */\n  tag_62\n  jump\t// in\ntag_61:\n    /* \"#utility.yul\":2220:2223   */\n  dup3\n    /* \"#utility.yul\":2213:2250   */\n  mstore\n    /* \"#utility.yul\":2138:2256   */\n  pop\n  pop\n  jump\t// out\n    /* \"#utility.yul\":2262:2627   */\ntag_63:\n    /* \"#utility.yul\":2404:2407   */\n  0x00\n    /* \"#utility.yul\":2425:2491   */\n  tag_65\n    /* \"#utility.yul\":2489:2490   */\n  0x01\n    /* \"#utility.yul\":2484:2487   */\n  dup4\n    /* \"#utility.yul\":2425:2491   */\n  tag_66\n  jump\t// in\ntag_65:\n    /* \"#utility.yul\":2418:2491   */\n  swap2\n  pop\n    /* \"#utility.yul\":2500:2593   */\n  tag_67\n    /* \"#utility.yul\":2589:2592   */\n  dup3\n    /* \"#utility.yul\":2500:2593   */\n  tag_68\n  jump\t// in\ntag_67:\n    /* \"#utility.yul\":2618:2620   */\n  0x20\n    /* \"#utility.yul\":2613:2616   */\n  dup3\n    /* \"#utility.yul\":2609:2621   */\n  add\n    /* \"#utility.yul\":2602:2621   */\n  swap1\n  pop\n    /* \"#utility.yul\":2262:2627   */\n  swap2\n  swap1\n  pop\n  jump\t// out\n    /* \"#utility.yul\":2633:2855   */\ntag_14:\n    /* \"#utility.yul\":2726:2730   */\n  0x00\n    /* \"#utility.yul\":2764:2766   */\n  0x20\n    /* \"#utility.yul\":2753:2762   */\n  dup3\n    /* \"#utility.yul\":2749:2767   */\n  add\n    /* \"#utility.yul\":2741:2767   */\n  swap1\n  pop\n    /* \"#utility.yul\":2777:2848   */\n  tag_70\n    /* \"#utility.yul\":2845:2846   */\n  0x00\n    /* \"#utility.yul\":2834:2843   */\n  dup4\n    /* \"#utility.yul\":2830:2847   */\n  add\n    /* \"#utility.yul\":2821:2827   */\n  dup5\n    /* \"#utility.yul\":2777:2848   */\n  tag_59\n  jump\t// in\ntag_70:\n    /* \"#utility.yul\":2633:2855   */\n  swap3\n  swap2\n  pop\n  pop\n  jump\t// out\n    /* \"#utility.yul\":2861:3280   */\ntag_10:\n    /* \"#utility.yul\":3027:3031   */\n  0x00\n    /* \"#utility.yul\":3065:3067   */\n  0x20\n    /* \"#utility.yul\":3054:3063   */\n  dup3\n    /* \"#utility.yul\":3050:3068   */\n  add\n    /* \"#utility.yul\":3042:3068   */\n  swap1\n  pop\n    /* \"#utility.yul\":3114:3123   */\n  dup2\n    /* \"#utility.yul\":3108:3112   */\n  dup2\n    /* \"#utility.yul\":3104:3124   */\n  sub\n    /* \"#utility.yul\":3100:3101   */\n  0x00\n    /* \"#utility.yul\":3089:3098   */\n  dup4\n    /* \"#utility.yul\":3085:3102   */\n  add\n    /* \"#utility.yul\":3078:3125   */\n  mstore\n    /* \"#utility.yul\":3142:3273   */\n  tag_72\n    /* \"#utility.yul\":3268:3272   */\n  dup2\n    /* \"#utility.yul\":3142:3273   */\n  tag_63\n  jump\t// in\ntag_72:\n    /* \"#utility.yul\":3134:3273   */\n  swap1\n  pop\n    /* \"#utility.yul\":2861:3280   */\n  swap2\n  swap1\n  pop\n  jump\t// out\n    /* \"#utility.yul\":3286:3415   */\ntag_26:\n    /* \"#utility.yul\":3320:3326   */\n  0x00\n    /* \"#utility.yul\":3347:3367   */\n  tag_74\n  tag_75\n  jump\t// in\ntag_74:\n    /* \"#utility.yul\":3337:3367   */\n  swap1\n  pop\n    /* \"#utility.yul\":3376:3409   */\n  tag_76\n    /* \"#utility.yul\":3404:3408   */\n  dup3\n    /* \"#utility.yul\":3396:3402   */\n  dup3\n    /* \"#utility.yul\":3376:3409   */\n  tag_77\n  jump\t// in\ntag_76:\n    /* \"#utility.yul\":3286:3415   */\n  swap2\n  swap1\n  pop\n  jump\t// out\n    /* \"#utility.yul\":3421:3496   */\ntag_75:\n    /* \"#utility.yul\":3454:3460   */\n  0x00\n    /* \"#utility.yul\":3487:3489   */\n  0x40\n    /* \"#utility.yul\":3481:3490   */\n  mload\n    /* \"#utility.yul\":3471:3490   */\n  swap1\n  pop\n    /* \"#utility.yul\":3421:3496   */\n  swap1\n  jump\t// out\n    /* \"#utility.yul\":3502:3810   */\ntag_25:\n    /* \"#utility.yul\":3564:3568   */\n  0x00\n    /* \"#utility.yul\":3654:3672   */\n  0xffffffffffffffff\n    /* \"#utility.yul\":3646:3652   */\n  dup3\n    /* \"#utility.yul\":3643:3673   */\n  gt\n    /* \"#utility.yul\":3640:3696   */\n  iszero\n  tag_80\n  jumpi\n    /* \"#utility.yul\":3676:3694   */\n  tag_81\n  tag_82\n  jump\t// in\ntag_81:\n    /* \"#utility.yul\":3640:3696   */\ntag_80:\n    /* \"#utility.yul\":3714:3743   */\n  tag_83\n    /* \"#utility.yul\":3736:3742   */\n  dup3\n    /* \"#utility.yul\":3714:3743   */\n  tag_84\n  jump\t// in\ntag_83:\n    /* \"#utility.yul\":3706:3743   */\n  swap1\n  pop\n    /* \"#utility.yul\":3798:3802   */\n  0x20\n    /* \"#utility.yul\":3792:3796   */\n  dup2\n    /* \"#utility.yul\":3788:3803   */\n  add\n    /* \"#utility.yul\":3780:3803   */\n  swap1\n  pop\n    /* \"#utility.yul\":3502:3810   */\n  swap2\n  swap1\n  pop\n  jump\t// out\n    /* \"#utility.yul\":3816:3985   */\ntag_66:\n    /* \"#utility.yul\":3900:3911   */\n  0x00\n    /* \"#utility.yul\":3934:3940   */\n  dup3\n    /* \"#utility.yul\":3929:3932   */\n  dup3\n    /* \"#utility.yul\":3922:3941   */\n  mstore\n    /* \"#utility.yul\":3974:3978   */\n  0x20\n    /* \"#utility.yul\":3969:3972   */\n  dup3\n    /* \"#utility.yul\":3965:3979   */\n  add\n    /* \"#utility.yul\":3950:3979   */\n  swap1\n  pop\n    /* \"#utility.yul\":3816:3985   */\n  swap3\n  swap2\n  pop\n  pop\n  jump\t// out\n    /* \"#utility.yul\":3991:4087   */\ntag_62:\n    /* \"#utility.yul\":4028:4035   */\n  0x00\n    /* \"#utility.yul\":4057:4081   */\n  tag_87\n    /* \"#utility.yul\":4075:4080   */\n  dup3\n    /* \"#utility.yul\":4057:4081   */\n  tag_88\n  jump\t// in\ntag_87:\n    /* \"#utility.yul\":4046:4081   */\n  swap1\n  pop\n    /* \"#utility.yul\":3991:4087   */\n  swap2\n  swap1\n  pop\n  jump\t// out\n    /* \"#utility.yul\":4093:4183   */\ntag_89:\n    /* \"#utility.yul\":4127:4134   */\n  0x00\n    /* \"#utility.yul\":4170:4175   */\n  dup2\n    /* \"#utility.yul\":4163:4176   */\n  iszero\n    /* \"#utility.yul\":4156:4177   */\n  iszero\n    /* \"#utility.yul\":4145:4177   */\n  swap1\n  pop\n    /* \"#utility.yul\":4093:4183   */\n  swap2\n  swap1\n  pop\n  jump\t// out\n    /* \"#utility.yul\":4189:4315   */\ntag_88:\n    /* \"#utility.yul\":4226:4233   */\n  0x00\n    /* \"#utility.yul\":4266:4308   */\n  0xffffffffffffffffffffffffffffffffffffffff\n    /* \"#utility.yul\":4259:4264   */\n  dup3\n    /* \"#utility.yul\":4255:4309   */\n  and\n    /* \"#utility.yul\":4244:4309   */\n  swap1\n  pop\n    /* \"#utility.yul\":4189:4315   */\n  swap2\n  swap1\n  pop\n  jump\t// out\n    /* \"#utility.yul\":4321:4628   */\ntag_31:\n    /* \"#utility.yul\":4389:4390   */\n  0x00\n    /* \"#utility.yul\":4399:4512   */\ntag_93:\n    /* \"#utility.yul\":4413:4419   */\n  dup4\n    /* \"#utility.yul\":4410:4411   */\n  dup2\n    /* \"#utility.yul\":4407:4420   */\n  lt\n    /* \"#utility.yul\":4399:4512   */\n  iszero\n  tag_95\n  jumpi\n    /* \"#utility.yul\":4498:4499   */\n  dup1\n    /* \"#utility.yul\":4493:4496   */\n  dup3\n    /* \"#utility.yul\":4489:4500   */\n  add\n    /* \"#utility.yul\":4483:4501   */\n  mload\n    /* \"#utility.yul\":4479:4480   */\n  dup2\n    /* \"#utility.yul\":4474:4477   */\n  dup5\n    /* \"#utility.yul\":4470:4481   */\n  add\n    /* \"#utility.yul\":4463:4502   */\n  mstore\n    /* \"#utility.yul\":4435:4437   */\n  0x20\n    /* \"#utility.yul\":4432:4433   */\n  dup2\n    /* \"#utility.yul\":4428:4438   */\n  add\n    /* \"#utility.yul\":4423:4438   */\n  swap1\n  pop\n    /* \"#utility.yul\":4399:4512   */\n  jump(tag_93)\ntag_95:\n    /* \"#utility.yul\":4530:4536   */\n  dup4\n    /* \"#utility.yul\":4527:4528   */\n  dup2\n    /* \"#utility.yul\":4524:4537   */\n  gt\n    /* \"#utility.yul\":4521:4622   */\n  iszero\n  tag_96\n  jumpi\n    /* \"#utility.yul\":4610:4611   */\n  0x00\n    /* \"#utility.yul\":4601:4607   */\n  dup5\n    /* \"#utility.yul\":4596:4599   */\n  dup5\n    /* \"#utility.yul\":4592:4608   */\n  add\n    /* \"#utility.yul\":4585:4612   */\n  mstore\n    /* \"#utility.yul\":4521:4622   */\ntag_96:\n    /* \"#utility.yul\":4370:4628   */\n  pop\n    /* \"#utility.yul\":4321:4628   */\n  pop\n  pop\n  pop\n  jump\t// out\n    /* \"#utility.yul\":4634:4915   */\ntag_77:\n    /* \"#utility.yul\":4717:4744   */\n  tag_98\n    /* \"#utility.yul\":4739:4743   */\n  dup3\n    /* \"#utility.yul\":4717:4744   */\n  tag_84\n  jump\t// in\ntag_98:\n    /* \"#utility.yul\":4709:4715   */\n  dup2\n    /* \"#utility.yul\":4705:4745   */\n  add\n    /* \"#utility.yul\":4847:4853   */\n  dup2\n    /* \"#utility.yul\":4835:4845   */\n  dup2\n    /* \"#utility.yul\":4832:4854   */\n  lt\n    /* \"#utility.yul\":4811:4829   */\n  0xffffffffffffffff\n    /* \"#utility.yul\":4799:4809   */\n  dup3\n    /* \"#utility.yul\":4796:4830   */\n  gt\n    /* \"#utility.yul\":4793:4855   */\n  or\n    /* \"#utility.yul\":4790:4878   */\n  iszero\n  tag_99\n  jumpi\n    /* \"#utility.yul\":4858:4876   */\n  tag_100\n  tag_82\n  jump\t// in\ntag_100:\n    /* \"#utility.yul\":4790:4878   */\ntag_99:\n    /* \"#utility.yul\":4898:4908   */\n  dup1\n    /* \"#utility.yul\":4894:4896   */\n  0x40\n    /* \"#utility.yul\":4887:4909   */\n  mstore\n    /* \"#utility.yul\":4677:4915   */\n  pop\n    /* \"#utility.yul\":4634:4915   */\n  pop\n  pop\n  jump\t// out\n    /* \"#utility.yul\":4921:5101   */\ntag_82:\n    /* \"#utility.yul\":4969:5046   */\n  0x4e487b7100000000000000000000000000000000000000000000000000000000\n    /* \"#utility.yul\":4966:4967   */\n  0x00\n    /* \"#utility.yul\":4959:5047   */\n  mstore\n    /* \"#utility.yul\":5066:5070   */\n  0x41\n    /* \"#utility.yul\":5063:5064   */\n  0x04\n    /* \"#utility.yul\":5056:5071   */\n  mstore\n    /* \"#utility.yul\":5090:5094   */\n  0x24\n    /* \"#utility.yul\":5087:5088   */\n  0x00\n    /* \"#utility.yul\":5080:5095   */\n  revert\n    /* \"#utility.yul\":5107:5224   */\ntag_44:\n    /* \"#utility.yul\":5216:5217   */\n  0x00\n    /* \"#utility.yul\":5213:5214   */\n  dup1\n    /* \"#utility.yul\":5206:5218   */\n  revert\n    /* \"#utility.yul\":5230:5347   */\ntag_29:\n    /* \"#utility.yul\":5339:5340   */\n  0x00\n    /* \"#utility.yul\":5336:5337   */\n  dup1\n    /* \"#utility.yul\":5329:5341   */\n  revert\n    /* \"#utility.yul\":5353:5470   */\ntag_56:\n    /* \"#utility.yul\":5462:5463   */\n  0x00\n    /* \"#utility.yul\":5459:5460   */\n  dup1\n    /* \"#utility.yul\":5452:5464   */\n  revert\n    /* \"#utility.yul\":5476:5593   */\ntag_49:\n    /* \"#utility.yul\":5585:5586   */\n  0x00\n    /* \"#utility.yul\":5582:5583   */\n  dup1\n    /* \"#utility.yul\":5575:5587   */\n  revert\n    /* \"#utility.yul\":5599:5701   */\ntag_84:\n    /* \"#utility.yul\":5640:5646   */\n  0x00\n    /* \"#utility.yul\":5691:5693   */\n  0x1f\n    /* \"#utility.yul\":5687:5694   */\n  not\n    /* \"#utility.yul\":5682:5684   */\n  0x1f\n    /* \"#utility.yul\":5675:5680   */\n  dup4\n    /* \"#utility.yul\":5671:5685   */\n  add\n    /* \"#utility.yul\":5667:5695   */\n  and\n    /* \"#utility.yul\":5657:5695   */\n  swap1\n  pop\n    /* \"#utility.yul\":5599:5701   */\n  swap2\n  swap1\n  pop\n  jump\t// out\n    /* \"#utility.yul\":5707:5858   */\ntag_68:\n    /* \"#utility.yul\":5847:5850   */\n  0x5f00000000000000000000000000000000000000000000000000000000000000\n    /* \"#utility.yul\":5843:5844   */\n  0x00\n    /* \"#utility.yul\":5835:5841   */\n  dup3\n    /* \"#utility.yul\":5831:5845   */\n  add\n    /* \"#utility.yul\":5824:5851   */\n  mstore\n    /* \"#utility.yul\":5707:5858   */\n  pop\n  jump\t// out\n    /* \"#utility.yul\":5864:5986   */\ntag_35:\n    /* \"#utility.yul\":5937:5961   */\n  tag_109\n    /* \"#utility.yul\":5955:5960   */\n  dup2\n    /* \"#utility.yul\":5937:5961   */\n  tag_62\n  jump\t// in\ntag_109:\n    /* \"#utility.yul\":5930:5935   */\n  dup2\n    /* \"#utility.yul\":5927:5962   */\n  eq\n    /* \"#utility.yul\":5917:5980   */\n  tag_110\n  jumpi\n    /* \"#utility.yul\":5976:5977   */\n  0x00\n    /* \"#utility.yul\":5973:5974   */\n  dup1\n    /* \"#utility.yul\":5966:5978   */\n  revert\n    /* \"#utility.yul\":5917:5980   */\ntag_110:\n    /* \"#utility.yul\":5864:5986   */\n  pop\n  jump\t// out\n    /* \"#utility.yul\":5992:6108   */\ntag_39:\n    /* \"#utility.yul\":6062:6083   */\n  tag_112\n    /* \"#utility.yul\":6077:6082   */\n  dup2\n    /* \"#utility.yul\":6062:6083   */\n  tag_89\n  jump\t// in\ntag_112:\n    /* \"#utility.yul\":6055:6060   */\n  dup2\n    /* \"#utility.yul\":6052:6084   */\n  eq\n    /* \"#utility.yul\":6042:6102   */\n  tag_113\n  jumpi\n    /* \"#utility.yul\":6098:6099   */\n  0x00\n    /* \"#utility.yul\":6095:6096   */\n  dup1\n    /* \"#utility.yul\":6088:6100   */\n  revert\n    /* \"#utility.yul\":6042:6102   */\ntag_113:\n    /* \"#utility.yul\":5992:6108   */\n  pop\n  jump\t// out\n    /* \"evidence/evidence.sol\":279:736  contract Evidence {\r... */\ntag_11:\n  dataSize(sub_0)\n  dup1\n  dataOffset(sub_0)\n  0x00\n  codecopy\n  0x00\n  return\nstop\n\nsub_0: assembly {\n        /* \"evidence/evidence.sol\":279:736  contract Evidence {\r... */\n      mstore(0x40, 0x80)\n      callvalue\n      dup1\n      iszero\n      tag_1\n      jumpi\n      0x00\n      dup1\n      revert\n    tag_1:\n      pop\n      jumpi(tag_2, lt(calldatasize, 0x04))\n      shr(0xe0, calldataload(0x00))\n      dup1\n      0x50ca0928\n      eq\n      tag_3\n      jumpi\n      dup1\n      0x963671be\n      eq\n      tag_4\n      jumpi\n    tag_2:\n      0x00\n      dup1\n      revert\n        /* \"evidence/evidence.sol\":447:572  function callVerify(address _signer) public view returns(bool){\r... */\n    tag_3:\n      tag_5\n      0x04\n      dup1\n      calldatasize\n      sub\n      dup2\n      add\n      swap1\n      tag_6\n      swap2\n      swap1\n      tag_7\n      jump\t// in\n    tag_6:\n      tag_8\n      jump\t// in\n    tag_5:\n      mload(0x40)\n      tag_9\n      swap2\n      swap1\n      tag_10\n      jump\t// in\n    tag_9:\n      mload(0x40)\n      dup1\n      swap2\n      sub\n      swap1\n      return\n        /* \"evidence/evidence.sol\":390:416  address public factoryAddr */\n    tag_4:\n      tag_11\n      tag_12\n      jump\t// in\n    tag_11:\n      mload(0x40)\n      tag_13\n      swap2\n      swap1\n      tag_14\n      jump\t// in\n    tag_13:\n      mload(0x40)\n      dup1\n      swap2\n      sub\n      swap1\n      return\n        /* \"evidence/evidence.sol\":447:572  function callVerify(address _signer) public view returns(bool){\r... */\n    tag_8:\n        /* \"evidence/evidence.sol\":504:508  bool */\n      0x00\n        /* \"evidence/evidence.sol\":536:547  factoryAddr */\n      0x02\n      0x00\n      swap1\n      sload\n      swap1\n      0x0100\n      exp\n      swap1\n      div\n      0xffffffffffffffffffffffffffffffffffffffff\n      and\n        /* \"evidence/evidence.sol\":527:555  IEvdence(factoryAddr).verify */\n      0xffffffffffffffffffffffffffffffffffffffff\n      and\n      0x63a9c3d7\n        /* \"evidence/evidence.sol\":556:563  _signer */\n      dup4\n        /* \"evidence/evidence.sol\":527:564  IEvdence(factoryAddr).verify(_signer) */\n      mload(0x40)\n      dup3\n      0xffffffff\n      and\n      0xe0\n      shl\n      dup2\n      mstore\n      0x04\n      add\n      tag_16\n      swap2\n      swap1\n      tag_14\n      jump\t// in\n    tag_16:\n      0x20\n      mload(0x40)\n      dup1\n      dup4\n      sub\n      dup2\n      dup7\n      dup1\n      extcodesize\n      iszero\n      dup1\n      iszero\n      tag_17\n      jumpi\n      0x00\n      dup1\n      revert\n    tag_17:\n      pop\n      gas\n      staticcall\n      iszero\n      dup1\n      iszero\n      tag_19\n      jumpi\n      returndatasize\n      0x00\n      dup1\n      returndatacopy\n      revert(0x00, returndatasize)\n    tag_19:\n      pop\n      pop\n      pop\n      pop\n      mload(0x40)\n      returndatasize\n      not(0x1f)\n      0x1f\n      dup3\n      add\n      and\n      dup3\n      add\n      dup1\n      0x40\n      mstore\n      pop\n      dup2\n      add\n      swap1\n      tag_20\n      swap2\n      swap1\n      tag_21\n      jump\t// in\n    tag_20:\n        /* \"evidence/evidence.sol\":520:564  return IEvdence(factoryAddr).verify(_signer) */\n      swap1\n      pop\n        /* \"evidence/evidence.sol\":447:572  function callVerify(address _signer) public view returns(bool){\r... */\n      swap2\n      swap1\n      pop\n      jump\t// out\n        /* \"evidence/evidence.sol\":390:416  address public factoryAddr */\n    tag_12:\n      0x02\n      0x00\n      swap1\n      sload\n      swap1\n      0x0100\n      exp\n      swap1\n      div\n      0xffffffffffffffffffffffffffffffffffffffff\n      and\n      dup2\n      jump\t// out\n        /* \"#utility.yul\":7:146   */\n    tag_23:\n        /* \"#utility.yul\":53:58   */\n      0x00\n        /* \"#utility.yul\":91:97   */\n      dup2\n        /* \"#utility.yul\":78:98   */\n      calldataload\n        /* \"#utility.yul\":69:98   */\n      swap1\n      pop\n        /* \"#utility.yul\":107:140   */\n      tag_25\n        /* \"#utility.yul\":134:139   */\n      dup2\n        /* \"#utility.yul\":107:140   */\n      tag_26\n      jump\t// in\n    tag_25:\n        /* \"#utility.yul\":7:146   */\n      swap3\n      swap2\n      pop\n      pop\n      jump\t// out\n        /* \"#utility.yul\":152:289   */\n    tag_27:\n        /* \"#utility.yul\":206:211   */\n      0x00\n        /* \"#utility.yul\":237:243   */\n      dup2\n        /* \"#utility.yul\":231:244   */\n      mload\n        /* \"#utility.yul\":222:244   */\n      swap1\n      pop\n        /* \"#utility.yul\":253:283   */\n      tag_29\n        /* \"#utility.yul\":277:282   */\n      dup2\n        /* \"#utility.yul\":253:283   */\n      tag_30\n      jump\t// in\n    tag_29:\n        /* \"#utility.yul\":152:289   */\n      swap3\n      swap2\n      pop\n      pop\n      jump\t// out\n        /* \"#utility.yul\":295:624   */\n    tag_7:\n        /* \"#utility.yul\":354:360   */\n      0x00\n        /* \"#utility.yul\":403:405   */\n      0x20\n        /* \"#utility.yul\":391:400   */\n      dup3\n        /* \"#utility.yul\":382:389   */\n      dup5\n        /* \"#utility.yul\":378:401   */\n      sub\n        /* \"#utility.yul\":374:406   */\n      slt\n        /* \"#utility.yul\":371:490   */\n      iszero\n      tag_32\n      jumpi\n        /* \"#utility.yul\":409:488   */\n      tag_33\n      tag_34\n      jump\t// in\n    tag_33:\n        /* \"#utility.yul\":371:490   */\n    tag_32:\n        /* \"#utility.yul\":529:530   */\n      0x00\n        /* \"#utility.yul\":554:607   */\n      tag_35\n        /* \"#utility.yul\":599:606   */\n      dup5\n        /* \"#utility.yul\":590:596   */\n      dup3\n        /* \"#utility.yul\":579:588   */\n      dup6\n        /* \"#utility.yul\":575:597   */\n      add\n        /* \"#utility.yul\":554:607   */\n      tag_23\n      jump\t// in\n    tag_35:\n        /* \"#utility.yul\":544:607   */\n      swap2\n      pop\n        /* \"#utility.yul\":500:617   */\n      pop\n        /* \"#utility.yul\":295:624   */\n      swap3\n      swap2\n      pop\n      pop\n      jump\t// out\n        /* \"#utility.yul\":630:975   */\n    tag_21:\n        /* \"#utility.yul\":697:703   */\n      0x00\n        /* \"#utility.yul\":746:748   */\n      0x20\n        /* \"#utility.yul\":734:743   */\n      dup3\n        /* \"#utility.yul\":725:732   */\n      dup5\n        /* \"#utility.yul\":721:744   */\n      sub\n        /* \"#utility.yul\":717:749   */\n      slt\n        /* \"#utility.yul\":714:833   */\n      iszero\n      tag_37\n      jumpi\n        /* \"#utility.yul\":752:831   */\n      tag_38\n      tag_34\n      jump\t// in\n    tag_38:\n        /* \"#utility.yul\":714:833   */\n    tag_37:\n        /* \"#utility.yul\":872:873   */\n      0x00\n        /* \"#utility.yul\":897:958   */\n      tag_39\n        /* \"#utility.yul\":950:957   */\n      dup5\n        /* \"#utility.yul\":941:947   */\n      dup3\n        /* \"#utility.yul\":930:939   */\n      dup6\n        /* \"#utility.yul\":926:948   */\n      add\n        /* \"#utility.yul\":897:958   */\n      tag_27\n      jump\t// in\n    tag_39:\n        /* \"#utility.yul\":887:958   */\n      swap2\n      pop\n        /* \"#utility.yul\":843:968   */\n      pop\n        /* \"#utility.yul\":630:975   */\n      swap3\n      swap2\n      pop\n      pop\n      jump\t// out\n        /* \"#utility.yul\":981:1099   */\n    tag_40:\n        /* \"#utility.yul\":1068:1092   */\n      tag_42\n        /* \"#utility.yul\":1086:1091   */\n      dup2\n        /* \"#utility.yul\":1068:1092   */\n      tag_43\n      jump\t// in\n    tag_42:\n        /* \"#utility.yul\":1063:1066   */\n      dup3\n        /* \"#utility.yul\":1056:1093   */\n      mstore\n        /* \"#utility.yul\":981:1099   */\n      pop\n      pop\n      jump\t// out\n        /* \"#utility.yul\":1105:1214   */\n    tag_44:\n        /* \"#utility.yul\":1186:1207   */\n      tag_46\n        /* \"#utility.yul\":1201:1206   */\n      dup2\n        /* \"#utility.yul\":1186:1207   */\n      tag_47\n      jump\t// in\n    tag_46:\n        /* \"#utility.yul\":1181:1184   */\n      dup3\n        /* \"#utility.yul\":1174:1208   */\n      mstore\n        /* \"#utility.yul\":1105:1214   */\n      pop\n      pop\n      jump\t// out\n        /* \"#utility.yul\":1220:1442   */\n    tag_14:\n        /* \"#utility.yul\":1313:1317   */\n      0x00\n        /* \"#utility.yul\":1351:1353   */\n      0x20\n        /* \"#utility.yul\":1340:1349   */\n      dup3\n        /* \"#utility.yul\":1336:1354   */\n      add\n        /* \"#utility.yul\":1328:1354   */\n      swap1\n      pop\n        /* \"#utility.yul\":1364:1435   */\n      tag_49\n        /* \"#utility.yul\":1432:1433   */\n      0x00\n        /* \"#utility.yul\":1421:1430   */\n      dup4\n        /* \"#utility.yul\":1417:1434   */\n      add\n        /* \"#utility.yul\":1408:1414   */\n      dup5\n        /* \"#utility.yul\":1364:1435   */\n      tag_40\n      jump\t// in\n    tag_49:\n        /* \"#utility.yul\":1220:1442   */\n      swap3\n      swap2\n      pop\n      pop\n      jump\t// out\n        /* \"#utility.yul\":1448:1658   */\n    tag_10:\n        /* \"#utility.yul\":1535:1539   */\n      0x00\n        /* \"#utility.yul\":1573:1575   */\n      0x20\n        /* \"#utility.yul\":1562:1571   */\n      dup3\n        /* \"#utility.yul\":1558:1576   */\n      add\n        /* \"#utility.yul\":1550:1576   */\n      swap1\n      pop\n        /* \"#utility.yul\":1586:1651   */\n      tag_51\n        /* \"#utility.yul\":1648:1649   */\n      0x00\n        /* \"#utility.yul\":1637:1646   */\n      dup4\n        /* \"#utility.yul\":1633:1650   */\n      add\n        /* \"#utility.yul\":1624:1630   */\n      dup5\n        /* \"#utility.yul\":1586:1651   */\n      tag_44\n      jump\t// in\n    tag_51:\n        /* \"#utility.yul\":1448:1658   */\n      swap3\n      swap2\n      pop\n      pop\n      jump\t// out\n        /* \"#utility.yul\":1745:1841   */\n    tag_43:\n        /* \"#utility.yul\":1782:1789   */\n      0x00\n        /* \"#utility.yul\":1811:1835   */\n      tag_55\n        /* \"#utility.yul\":1829:1834   */\n      dup3\n        /* \"#utility.yul\":1811:1835   */\n      tag_56\n      jump\t// in\n    tag_55:\n        /* \"#utility.yul\":1800:1835   */\n      swap1\n      pop\n        /* \"#utility.yul\":1745:1841   */\n      swap2\n      swap1\n      pop\n      jump\t// out\n        /* \"#utility.yul\":1847:1937   */\n    tag_47:\n        /* \"#utility.yul\":1881:1888   */\n      0x00\n        /* \"#utility.yul\":1924:1929   */\n      dup2\n        /* \"#utility.yul\":1917:1930   */\n      iszero\n        /* \"#utility.yul\":1910:1931   */\n      iszero\n        /* \"#utility.yul\":1899:1931   */\n      swap1\n      pop\n        /* \"#utility.yul\":1847:1937   */\n      swap2\n      swap1\n      pop\n      jump\t// out\n        /* \"#utility.yul\":1943:2069   */\n    tag_56:\n        /* \"#utility.yul\":1980:1987   */\n      0x00\n        /* \"#utility.yul\":2020:2062   */\n      0xffffffffffffffffffffffffffffffffffffffff\n        /* \"#utility.yul\":2013:2018   */\n      dup3\n        /* \"#utility.yul\":2009:2063   */\n      and\n        /* \"#utility.yul\":1998:2063   */\n      swap1\n      pop\n        /* \"#utility.yul\":1943:2069   */\n      swap2\n      swap1\n      pop\n      jump\t// out\n        /* \"#utility.yul\":2198:2315   */\n    tag_34:\n        /* \"#utility.yul\":2307:2308   */\n      0x00\n        /* \"#utility.yul\":2304:2305   */\n      dup1\n        /* \"#utility.yul\":2297:2309   */\n      revert\n        /* \"#utility.yul\":2321:2443   */\n    tag_26:\n        /* \"#utility.yul\":2394:2418   */\n      tag_63\n        /* \"#utility.yul\":2412:2417   */\n      dup2\n        /* \"#utility.yul\":2394:2418   */\n      tag_43\n      jump\t// in\n    tag_63:\n        /* \"#utility.yul\":2387:2392   */\n      dup2\n        /* \"#utility.yul\":2384:2419   */\n      eq\n        /* \"#utility.yul\":2374:2437   */\n      tag_64\n      jumpi\n        /* \"#utility.yul\":2433:2434   */\n      0x00\n        /* \"#utility.yul\":2430:2431   */\n      dup1\n        /* \"#utility.yul\":2423:2435   */\n      revert\n        /* \"#utility.yul\":2374:2437   */\n    tag_64:\n        /* \"#utility.yul\":2321:2443   */\n      pop\n      jump\t// out\n        /* \"#utility.yul\":2449:2565   */\n    tag_30:\n        /* \"#utility.yul\":2519:2540   */\n      tag_66\n        /* \"#utility.yul\":2534:2539   */\n      dup2\n        /* \"#utility.yul\":2519:2540   */\n      tag_47\n      jump\t// in\n    tag_66:\n        /* \"#utility.yul\":2512:2517   */\n      dup2\n        /* \"#utility.yul\":2509:2541   */\n      eq\n        /* \"#utility.yul\":2499:2559   */\n      tag_67\n      jumpi\n        /* \"#utility.yul\":2555:2556   */\n      0x00\n        /* \"#utility.yul\":2552:2553   */\n      dup1\n        /* \"#utility.yul\":2545:2557   */\n      revert\n        /* \"#utility.yul\":2499:2559   */\n    tag_67:\n        /* \"#utility.yul\":2449:2565   */\n      pop\n      jump\t// out\n\n    auxdata: 0xa2646970667358221220c3d2d7be656577e8f15cca905149a9034f076b9fb6835c78074c41aa957dbd4964736f6c63430008070033\n}\n",
				"bytecode": {
					"linkReferences": {},
					"object": "608060405234801561001057600080fd5b506040516107b13803806107b183398181016040528101906100329190610243565b80600260006101000a81548173ffffffffffffffffffffffffffffffffffffffff021916908373ffffffffffffffffffffffffffffffffffffffff160217905550610082326100c860201b60201c565b6100c1576040517f08c379a00000000000000000000000000000000000000000000000000000000081526004016100b8906102ec565b60405180910390fd5b50506104c0565b6000600260009054906101000a900473ffffffffffffffffffffffffffffffffffffffff1673ffffffffffffffffffffffffffffffffffffffff166363a9c3d7836040518263ffffffff1660e01b815260040161012591906102d1565b60206040518083038186803b15801561013d57600080fd5b505afa158015610151573d6000803e3d6000fd5b505050506040513d601f19601f820116820180604052508101906101759190610216565b9050919050565b600061018f61018a84610331565b61030c565b9050828152602081018484840111156101ab576101aa610449565b5b6101b68482856103b1565b509392505050565b6000815190506101cd81610492565b92915050565b6000815190506101e2816104a9565b92915050565b600082601f8301126101fd576101fc610444565b5b815161020d84826020860161017c565b91505092915050565b60006020828403121561022c5761022b610453565b5b600061023a848285016101d3565b91505092915050565b6000806040838503121561025a57610259610453565b5b600083015167ffffffffffffffff8111156102785761027761044e565b5b610284858286016101e8565b9250506020610295858286016101be565b9150509250929050565b6102a881610373565b82525050565b60006102bb600183610362565b91506102c682610469565b602082019050919050565b60006020820190506102e6600083018461029f565b92915050565b60006020820190508181036000830152610305816102ae565b9050919050565b6000610316610327565b905061032282826103e4565b919050565b6000604051905090565b600067ffffffffffffffff82111561034c5761034b610415565b5b61035582610458565b9050602081019050919050565b600082825260208201905092915050565b600061037e82610391565b9050919050565b60008115159050919050565b600073ffffffffffffffffffffffffffffffffffffffff82169050919050565b60005b838110156103cf5780820151818401526020810190506103b4565b838111156103de576000848401525b50505050565b6103ed82610458565b810181811067ffffffffffffffff8211171561040c5761040b610415565b5b80604052505050565b7f4e487b7100000000000000000000000000000000000000000000000000000000600052604160045260246000fd5b600080fd5b600080fd5b600080fd5b600080fd5b6000601f19601f8301169050919050565b7f5f00000000000000000000000000000000000000000000000000000000000000600082015250565b61049b81610373565b81146104a657600080fd5b50565b6104b281610385565b81146104bd57600080fd5b50565b6102e2806104cf6000396000f3fe608060405234801561001057600080fd5b50600436106100365760003560e01c806350ca09281461003b578063963671be1461006b575b600080fd5b6100556004803603810190610050919061018d565b610089565b6040516100629190610220565b60405180910390f35b61007361013d565b6040516100809190610205565b60405180910390f35b6000600260009054906101000a900473ffffffffffffffffffffffffffffffffffffffff1673ffffffffffffffffffffffffffffffffffffffff166363a9c3d7836040518263ffffffff1660e01b81526004016100e69190610205565b60206040518083038186803b1580156100fe57600080fd5b505afa158015610112573d6000803e3d6000fd5b505050506040513d601f19601f8201168201806040525081019061013691906101ba565b9050919050565b600260009054906101000a900473ffffffffffffffffffffffffffffffffffffffff1681565b6000813590506101728161027e565b92915050565b60008151905061018781610295565b92915050565b6000602082840312156101a3576101a2610279565b5b60006101b184828501610163565b91505092915050565b6000602082840312156101d0576101cf610279565b5b60006101de84828501610178565b91505092915050565b6101f08161023b565b82525050565b6101ff8161024d565b82525050565b600060208201905061021a60008301846101e7565b92915050565b600060208201905061023560008301846101f6565b92915050565b600061024682610259565b9050919050565b60008115159050919050565b600073ffffffffffffffffffffffffffffffffffffffff82169050919050565b600080fd5b6102878161023b565b811461029257600080fd5b50565b61029e8161024d565b81146102a957600080fd5b5056fea2646970667358221220c3d2d7be656577e8f15cca905149a9034f076b9fb6835c78074c41aa957dbd4964736f6c63430008070033",
					"opcodes": "PUSH1 0x80 PUSH1 0x40 MSTORE CALLVALUE DUP1 ISZERO PUSH2 0x10 JUMPI PUSH1 0x0 DUP1 REVERT JUMPDEST POP PUSH1 0x40 MLOAD PUSH2 0x7B1 CODESIZE SUB DUP1 PUSH2 0x7B1 DUP4 CODECOPY DUP2 DUP2 ADD PUSH1 0x40 MSTORE DUP2 ADD SWAP1 PUSH2 0x32 SWAP2 SWAP1 PUSH2 0x243 JUMP JUMPDEST DUP1 PUSH1 0x2 PUSH1 0x0 PUSH2 0x100 EXP DUP2 SLOAD DUP2 PUSH20 0xFFFFFFFFFFFFFFFFFFFFFFFFFFFFFFFFFFFFFFFF MUL NOT AND SWAP1 DUP4 PUSH20 0xFFFFFFFFFFFFFFFFFFFFFFFFFFFFFFFFFFFFFFFF AND MUL OR SWAP1 SSTORE POP PUSH2 0x82 ORIGIN PUSH2 0xC8 PUSH1 0x20 SHL PUSH1 0x20 SHR JUMP JUMPDEST PUSH2 0xC1 JUMPI PUSH1 0x40 MLOAD PUSH32 0x8C379A000000000000000000000000000000000000000000000000000000000 DUP2 MSTORE PUSH1 0x4 ADD PUSH2 0xB8 SWAP1 PUSH2 0x2EC JUMP JUMPDEST PUSH1 0x40 MLOAD DUP1 SWAP2 SUB SWAP1 REVERT JUMPDEST POP POP PUSH2 0x4C0 JUMP JUMPDEST PUSH1 0x0 PUSH1 0x2 PUSH1 0x0 SWAP1 SLOAD SWAP1 PUSH2 0x100 EXP SWAP1 DIV PUSH20 0xFFFFFFFFFFFFFFFFFFFFFFFFFFFFFFFFFFFFFFFF AND PUSH20 0xFFFFFFFFFFFFFFFFFFFFFFFFFFFFFFFFFFFFFFFF AND PUSH4 0x63A9C3D7 DUP4 PUSH1 0x40 MLOAD DUP3 PUSH4 0xFFFFFFFF AND PUSH1 0xE0 SHL DUP2 MSTORE PUSH1 0x4 ADD PUSH2 0x125 SWAP2 SWAP1 PUSH2 0x2D1 JUMP JUMPDEST PUSH1 0x20 PUSH1 0x40 MLOAD DUP1 DUP4 SUB DUP2 DUP7 DUP1 EXTCODESIZE ISZERO DUP1 ISZERO PUSH2 0x13D JUMPI PUSH1 0x0 DUP1 REVERT JUMPDEST POP GAS STATICCALL ISZERO DUP1 ISZERO PUSH2 0x151 JUMPI RETURNDATASIZE PUSH1 0x0 DUP1 RETURNDATACOPY RETURNDATASIZE PUSH1 0x0 REVERT JUMPDEST POP POP POP POP PUSH1 0x40 MLOAD RETURNDATASIZE PUSH1 0x1F NOT PUSH1 0x1F DUP3 ADD AND DUP3 ADD DUP1 PUSH1 0x40 MSTORE POP DUP2 ADD SWAP1 PUSH2 0x175 SWAP2 SWAP1 PUSH2 0x216 JUMP JUMPDEST SWAP1 POP SWAP2 SWAP1 POP JUMP JUMPDEST PUSH1 0x0 PUSH2 0x18F PUSH2 0x18A DUP5 PUSH2 0x331 JUMP JUMPDEST PUSH2 0x30C JUMP JUMPDEST SWAP1 POP DUP3 DUP2 MSTORE PUSH1 0x20 DUP2 ADD DUP5 DUP5 DUP5 ADD GT ISZERO PUSH2 0x1AB JUMPI PUSH2 0x1AA PUSH2 0x449 JUMP JUMPDEST JUMPDEST PUSH2 0x1B6 DUP5 DUP3 DUP6 PUSH2 0x3B1 JUMP JUMPDEST POP SWAP4 SWAP3 POP POP POP JUMP JUMPDEST PUSH1 0x0 DUP2 MLOAD SWAP1 POP PUSH2 0x1CD DUP2 PUSH2 0x492 JUMP JUMPDEST SWAP3 SWAP2 POP POP JUMP JUMPDEST PUSH1 0x0 DUP2 MLOAD SWAP1 POP PUSH2 0x1E2 DUP2 PUSH2 0x4A9 JUMP JUMPDEST SWAP3 SWAP2 POP POP JUMP JUMPDEST PUSH1 0x0 DUP3 PUSH1 0x1F DUP4 ADD SLT PUSH2 0x1FD JUMPI PUSH2 0x1FC PUSH2 0x444 JUMP JUMPDEST JUMPDEST DUP2 MLOAD PUSH2 0x20D DUP5 DUP3 PUSH1 0x20 DUP7 ADD PUSH2 0x17C JUMP JUMPDEST SWAP2 POP POP SWAP3 SWAP2 POP POP JUMP JUMPDEST PUSH1 0x0 PUSH1 0x20 DUP3 DUP5 SUB SLT ISZERO PUSH2 0x22C JUMPI PUSH2 0x22B PUSH2 0x453 JUMP JUMPDEST JUMPDEST PUSH1 0x0 PUSH2 0x23A DUP5 DUP3 DUP6 ADD PUSH2 0x1D3 JUMP JUMPDEST SWAP2 POP POP SWAP3 SWAP2 POP POP JUMP JUMPDEST PUSH1 0x0 DUP1 PUSH1 0x40 DUP4 DUP6 SUB SLT ISZERO PUSH2 0x25A JUMPI PUSH2 0x259 PUSH2 0x453 JUMP JUMPDEST JUMPDEST PUSH1 0x0 DUP4 ADD MLOAD PUSH8 0xFFFFFFFFFFFFFFFF DUP2 GT ISZERO PUSH2 0x278 JUMPI PUSH2 0x277 PUSH2 0x44E JUMP JUMPDEST JUMPDEST PUSH2 0x284 DUP6 DUP3 DUP7 ADD PUSH2 0x1E8 JUMP JUMPDEST SWAP3 POP POP PUSH1 0x20 PUSH2 0x295 DUP6 DUP3 DUP7 ADD PUSH2 0x1BE JUMP JUMPDEST SWAP2 POP POP SWAP3 POP SWAP3 SWAP1 POP JUMP JUMPDEST PUSH2 0x2A8 DUP2 PUSH2 0x373 JUMP JUMPDEST DUP3 MSTORE POP POP JUMP JUMPDEST PUSH1 0x0 PUSH2 0x2BB PUSH1 0x1 DUP4 PUSH2 0x362 JUMP JUMPDEST SWAP2 POP PUSH2 0x2C6 DUP3 PUSH2 0x469 JUMP JUMPDEST PUSH1 0x20 DUP3 ADD SWAP1 POP SWAP2 SWAP1 POP JUMP JUMPDEST PUSH1 0x0 PUSH1 0x20 DUP3 ADD SWAP1 POP PUSH2 0x2E6 PUSH1 0x0 DUP4 ADD DUP5 PUSH2 0x29F JUMP JUMPDEST SWAP3 SWAP2 POP POP JUMP JUMPDEST PUSH1 0x0 PUSH1 0x20 DUP3 ADD SWAP1 POP DUP2 DUP2 SUB PUSH1 0x0 DUP4 ADD MSTORE PUSH2 0x305 DUP2 PUSH2 0x2AE JUMP JUMPDEST SWAP1 POP SWAP2 SWAP1 POP JUMP JUMPDEST PUSH1 0x0 PUSH2 0x316 PUSH2 0x327 JUMP JUMPDEST SWAP1 POP PUSH2 0x322 DUP3 DUP3 PUSH2 0x3E4 JUMP JUMPDEST SWAP2 SWAP1 POP JUMP JUMPDEST PUSH1 0x0 PUSH1 0x40 MLOAD SWAP1 POP SWAP1 JUMP JUMPDEST PUSH1 0x0 PUSH8 0xFFFFFFFFFFFFFFFF DUP3 GT ISZERO PUSH2 0x34C JUMPI PUSH2 0x34B PUSH2 0x415 JUMP JUMPDEST JUMPDEST PUSH2 0x355 DUP3 PUSH2 0x458 JUMP JUMPDEST SWAP1 POP PUSH1 0x20 DUP2 ADD SWAP1 POP SWAP2 SWAP1 POP JUMP JUMPDEST PUSH1 0x0 DUP3 DUP3 MSTORE PUSH1 0x20 DUP3 ADD SWAP1 POP SWAP3 SWAP2 POP POP JUMP JUMPDEST PUSH1 0x0 PUSH2 0x37E DUP3 PUSH2 0x391 JUMP JUMPDEST SWAP1 POP SWAP2 SWAP1 POP JUMP JUMPDEST PUSH1 0x0 DUP2 ISZERO ISZERO SWAP1 POP SWAP2 SWAP1 POP JUMP JUMPDEST PUSH1 0x0 PUSH20 0xFFFFFFFFFFFFFFFFFFFFFFFFFFFFFFFFFFFFFFFF DUP3 AND SWAP1 POP SWAP2 SWAP1 POP JUMP JUMPDEST PUSH1 0x0 JUMPDEST DUP4 DUP2 LT ISZERO PUSH2 0x3CF JUMPI DUP1 DUP3 ADD MLOAD DUP2 DUP5 ADD MSTORE PUSH1 0x20 DUP2 ADD SWAP1 POP PUSH2 0x3B4 JUMP JUMPDEST DUP4 DUP2 GT ISZERO PUSH2 0x3DE JUMPI PUSH1 0x0 DUP5 DUP5 ADD MSTORE JUMPDEST POP POP POP POP JUMP JUMPDEST PUSH2 0x3ED DUP3 PUSH2 0x458 JUMP JUMPDEST DUP2 ADD DUP2 DUP2 LT PUSH8 0xFFFFFFFFFFFFFFFF DUP3 GT OR ISZERO PUSH2 0x40C JUMPI PUSH2 0x40B PUSH2 0x415 JUMP JUMPDEST JUMPDEST DUP1 PUSH1 0x40 MSTORE POP POP POP JUMP JUMPDEST PUSH32 0x4E487B7100000000000000000000000000000000000000000000000000000000 PUSH1 0x0 MSTORE PUSH1 0x41 PUSH1 0x4 MSTORE PUSH1 0x24 PUSH1 0x0 REVERT JUMPDEST PUSH1 0x0 DUP1 REVERT JUMPDEST PUSH1 0x0 DUP1 REVERT JUMPDEST PUSH1 0x0 DUP1 REVERT JUMPDEST PUSH1 0x0 DUP1 REVERT JUMPDEST PUSH1 0x0 PUSH1 0x1F NOT PUSH1 0x1F DUP4 ADD AND SWAP1 POP SWAP2 SWAP1 POP JUMP JUMPDEST PUSH32 0x5F00000000000000000000000000000000000000000000000000000000000000 PUSH1 0x0 DUP3 ADD MSTORE POP JUMP JUMPDEST PUSH2 0x49B DUP2 PUSH2 0x373 JUMP JUMPDEST DUP2 EQ PUSH2 0x4A6 JUMPI PUSH1 0x0 DUP1 REVERT JUMPDEST POP JUMP JUMPDEST PUSH2 0x4B2 DUP2 PUSH2 0x385 JUMP JUMPDEST DUP2 EQ PUSH2 0x4BD JUMPI PUSH1 0x0 DUP1 REVERT JUMPDEST POP JUMP JUMPDEST PUSH2 0x2E2 DUP1 PUSH2 0x4CF PUSH1 0x0 CODECOPY PUSH1 0x0 RETURN INVALID PUSH1 0x80 PUSH1 0x40 MSTORE CALLVALUE DUP1 ISZERO PUSH2 0x10 JUMPI PUSH1 0x0 DUP1 REVERT JUMPDEST POP PUSH1 0x4 CALLDATASIZE LT PUSH2 0x36 JUMPI PUSH1 0x0 CALLDATALOAD PUSH1 0xE0 SHR DUP1 PUSH4 0x50CA0928 EQ PUSH2 0x3B JUMPI DUP1 PUSH4 0x963671BE EQ PUSH2 0x6B JUMPI JUMPDEST PUSH1 0x0 DUP1 REVERT JUMPDEST PUSH2 0x55 PUSH1 0x4 DUP1 CALLDATASIZE SUB DUP2 ADD SWAP1 PUSH2 0x50 SWAP2 SWAP1 PUSH2 0x18D JUMP JUMPDEST PUSH2 0x89 JUMP JUMPDEST PUSH1 0x40 MLOAD PUSH2 0x62 SWAP2 SWAP1 PUSH2 0x220 JUMP JUMPDEST PUSH1 0x40 MLOAD DUP1 SWAP2 SUB SWAP1 RETURN JUMPDEST PUSH2 0x73 PUSH2 0x13D JUMP JUMPDEST PUSH1 0x40 MLOAD PUSH2 0x80 SWAP2 SWAP1 PUSH2 0x205 JUMP JUMPDEST PUSH1 0x40 MLOAD DUP1 SWAP2 SUB SWAP1 RETURN JUMPDEST PUSH1 0x0 PUSH1 0x2 PUSH1 0x0 SWAP1 SLOAD SWAP1 PUSH2 0x100 EXP SWAP1 DIV PUSH20 0xFFFFFFFFFFFFFFFFFFFFFFFFFFFFFFFFFFFFFFFF AND PUSH20 0xFFFFFFFFFFFFFFFFFFFFFFFFFFFFFFFFFFFFFFFF AND PUSH4 0x63A9C3D7 DUP4 PUSH1 0x40 MLOAD DUP3 PUSH4 0xFFFFFFFF AND PUSH1 0xE0 SHL DUP2 MSTORE PUSH1 0x4 ADD PUSH2 0xE6 SWAP2 SWAP1 PUSH2 0x205 JUMP JUMPDEST PUSH1 0x20 PUSH1 0x40 MLOAD DUP1 DUP4 SUB DUP2 DUP7 DUP1 EXTCODESIZE ISZERO DUP1 ISZERO PUSH2 0xFE JUMPI PUSH1 0x0 DUP1 REVERT JUMPDEST POP GAS STATICCALL ISZERO DUP1 ISZERO PUSH2 0x112 JUMPI RETURNDATASIZE PUSH1 0x0 DUP1 RETURNDATACOPY RETURNDATASIZE PUSH1 0x0 REVERT JUMPDEST POP POP POP POP PUSH1 0x40 MLOAD RETURNDATASIZE PUSH1 0x1F NOT PUSH1 0x1F DUP3 ADD AND DUP3 ADD DUP1 PUSH1 0x40 MSTORE POP DUP2 ADD SWAP1 PUSH2 0x136 SWAP2 SWAP1 PUSH2 0x1BA JUMP JUMPDEST SWAP1 POP SWAP2 SWAP1 POP JUMP JUMPDEST PUSH1 0x2 PUSH1 0x0 SWAP1 SLOAD SWAP1 PUSH2 0x100 EXP SWAP1 DIV PUSH20 0xFFFFFFFFFFFFFFFFFFFFFFFFFFFFFFFFFFFFFFFF AND DUP2 JUMP JUMPDEST PUSH1 0x0 DUP2 CALLDATALOAD SWAP1 POP PUSH2 0x172 DUP2 PUSH2 0x27E JUMP JUMPDEST SWAP3 SWAP2 POP POP JUMP JUMPDEST PUSH1 0x0 DUP2 MLOAD SWAP1 POP PUSH2 0x187 DUP2 PUSH2 0x295 JUMP JUMPDEST SWAP3 SWAP2 POP POP JUMP JUMPDEST PUSH1 0x0 PUSH1 0x20 DUP3 DUP5 SUB SLT ISZERO PUSH2 0x1A3 JUMPI PUSH2 0x1A2 PUSH2 0x279 JUMP JUMPDEST JUMPDEST PUSH1 0x0 PUSH2 0x1B1 DUP5 DUP3 DUP6 ADD PUSH2 0x163 JUMP JUMPDEST SWAP2 POP POP SWAP3 SWAP2 POP POP JUMP JUMPDEST PUSH1 0x0 PUSH1 0x20 DUP3 DUP5 SUB SLT ISZERO PUSH2 0x1D0 JUMPI PUSH2 0x1CF PUSH2 0x279 JUMP JUMPDEST JUMPDEST PUSH1 0x0 PUSH2 0x1DE DUP5 DUP3 DUP6 ADD PUSH2 0x178 JUMP JUMPDEST SWAP2 POP POP SWAP3 SWAP2 POP POP JUMP JUMPDEST PUSH2 0x1F0 DUP2 PUSH2 0x23B JUMP JUMPDEST DUP3 MSTORE POP POP JUMP JUMPDEST PUSH2 0x1FF DUP2 PUSH2 0x24D JUMP JUMPDEST DUP3 MSTORE POP POP JUMP JUMPDEST PUSH1 0x0 PUSH1 0x20 DUP3 ADD SWAP1 POP PUSH2 0x21A PUSH1 0x0 DUP4 ADD DUP5 PUSH2 0x1E7 JUMP JUMPDEST SWAP3 SWAP2 POP POP JUMP JUMPDEST PUSH1 0x0 PUSH1 0x20 DUP3 ADD SWAP1 POP PUSH2 0x235 PUSH1 0x0 DUP4 ADD DUP5 PUSH2 0x1F6 JUMP JUMPDEST SWAP3 SWAP2 POP POP JUMP JUMPDEST PUSH1 0x0 PUSH2 0x246 DUP3 PUSH2 0x259 JUMP JUMPDEST SWAP1 POP SWAP2 SWAP1 POP JUMP JUMPDEST PUSH1 0x0 DUP2 ISZERO ISZERO SWAP1 POP SWAP2 SWAP1 POP JUMP JUMPDEST PUSH1 0x0 PUSH20 0xFFFFFFFFFFFFFFFFFFFFFFFFFFFFFFFFFFFFFFFF DUP3 AND SWAP1 POP SWAP2 SWAP1 POP JUMP JUMPDEST PUSH1 0x0 DUP1 REVERT JUMPDEST PUSH2 0x287 DUP2 PUSH2 0x23B JUMP JUMPDEST DUP2 EQ PUSH2 0x292 JUMPI PUSH1 0x0 DUP1 REVERT JUMPDEST POP JUMP JUMPDEST PUSH2 0x29E DUP2 PUSH2 0x24D JUMP JUMPDEST DUP2 EQ PUSH2 0x2A9 JUMPI PUSH1 0x0 DUP1 REVERT JUMPDEST POP JUMP INVALID LOG2 PUSH5 0x6970667358 0x22 SLT KECCAK256 0xC3 0xD2 0xD7 0xBE PUSH6 0x6577E8F15CCA SWAP1 MLOAD 0x49 0xA9 SUB 0x4F SMOD PUSH12 0x9FB6835C78074C41AA957DBD 0x49 PUSH5 0x736F6C6343 STOP ADDMOD SMOD STOP CALLER "
				},
				"gasEstimates": {
					"creation": {
						"codeDepositCost": "147600",
						"executionCost": "infinite",
						"totalCost": "infinite"
					},
					"external": {
						"callVerify(address)": "infinite",
						"factoryAddr()": "2514"
					}
				},
				"methodIdentifiers": {
					"callVerify(address)": "50ca0928",
					"factoryAddr()": "963671be"
				}
			},
			"storageLayout": {
				"storage": [
					{
						"astId": 23,
						"contract": "evidence/evidence.sol:Evidence",
						"label": "evidence",
						"offset": 0,
						"slot": "0",
						"type": "t_string_storage"
					},
					{
						"astId": 26,
						"contract": "evidence/evidence.sol:Evidence",
						"label": "signers",
						"offset": 0,
						"slot": "1",
						"type": "t_array(t_address)dyn_storage"
					},
					{
						"astId": 28,
						"contract": "evidence/evidence.sol:Evidence",
						"label": "factoryAddr",
						"offset": 0,
						"slot": "2",
						"type": "t_address"
					}
				],
				"types": {
					"t_address": {
						"encoding": "inplace",
						"label": "address",
						"numberOfBytes": "20"
					},
					"t_array(t_address)dyn_storage": {
						"base": "t_address",
						"encoding": "dynamic_array",
						"label": "address[]",
						"numberOfBytes": "32"
					},
					"t_string_storage": {
						"encoding": "bytes",
						"label": "string",
						"numberOfBytes": "32"
					}
				}
			},
			"userdoc": {
				"kind": "user",
				"methods": {},
				"version": 1
			}
		}
	}
}