{
	"evidence/evidence.sol": {
		"Evidence": {
			"abi": [
				{
					"inputs": [
						{
							"internalType": "string",
							"name": "_evi",
							"type": "string"
						},
						{
							"internalType": "address",
							"name": "_factory",
							"type": "address"
						}
					],
					"stateMutability": "nonpayable",
					"type": "constructor"
				},
				{
					"inputs": [
						{
							"internalType": "address",
							"name": "_signer",
							"type": "address"
						}
					],
					"name": "callVerify",
					"outputs": [
						{
							"internalType": "bool",
							"name": "",
							"type": "bool"
						}
					],
					"stateMutability": "view",
					"type": "function"
				},
				{
					"inputs": [],
					"name": "factoryAddr",
					"outputs": [
						{
							"internalType": "address",
							"name": "",
							"type": "address"
						}
					],
					"stateMutability": "view",
					"type": "function"
				}
			],
			"devdoc": {
				"kind": "dev",
				"methods": {},
				"version": 1
			},
			"evm": {
				"assembly": "    /* \"evidence/evidence.sol\":279:732  contract Evidence {\r... */\n  mstore(0x40, 0x80)\n    /* \"evidence/evidence.sol\":597:727  constructor(string memory _evi,address _factory){\r... */\n  callvalue\n  dup1\n  iszero\n  tag_1\n  jumpi\n  0x00\n  dup1\n  revert\ntag_1:\n  pop\n  mload(0x40)\n  sub(codesize, bytecodeSize)\n  dup1\n  bytecodeSize\n  dup4\n  codecopy\n  dup2\n  dup2\n  add\n  0x40\n  mstore\n  dup2\n  add\n  swap1\n  tag_2\n  swap2\n  swap1\n  tag_3\n  jump\t// in\ntag_2:\n    /* \"evidence/evidence.sol\":670:678  _factory */\n  dup1\n    /* \"evidence/evidence.sol\":656:667  factoryAddr */\n  0x02\n  0x00\n    /* \"evidence/evidence.sol\":656:678  factoryAddr = _factory */\n  0x0100\n  exp\n  dup2\n  sload\n  dup2\n  0xffffffffffffffffffffffffffffffffffffffff\n  mul\n  not\n  and\n  swap1\n  dup4\n  0xffffffffffffffffffffffffffffffffffffffff\n  and\n  mul\n  or\n  swap1\n  sstore\n  pop\n    /* \"evidence/evidence.sol\":697:718  callVerify(tx.origin) */\n  tag_6\n    /* \"evidence/evidence.sol\":708:717  tx.origin */\n  origin\n    /* \"evidence/evidence.sol\":697:707  callVerify */\n  shl(0x20, tag_7)\n    /* \"evidence/evidence.sol\":697:718  callVerify(tx.origin) */\n  0x20\n  shr\n  jump\t// in\ntag_6:\n    /* \"evidence/evidence.sol\":689:719  require(callVerify(tx.origin)) */\n  tag_8\n  jumpi\n  0x00\n  dup1\n  revert\ntag_8:\n    /* \"evidence/evidence.sol\":597:727  constructor(string memory _evi,address _factory){\r... */\n  pop\n  pop\n    /* \"evidence/evidence.sol\":279:732  contract Evidence {\r... */\n  jump(tag_9)\n    /* \"evidence/evidence.sol\":447:572  function callVerify(address _signer) public view returns(bool){\r... */\ntag_7:\n    /* \"evidence/evidence.sol\":504:508  bool */\n  0x00\n    /* \"evidence/evidence.sol\":536:547  factoryAddr */\n  0x02\n  0x00\n  swap1\n  sload\n  swap1\n  0x0100\n  exp\n  swap1\n  div\n  0xffffffffffffffffffffffffffffffffffffffff\n  and\n    /* \"evidence/evidence.sol\":527:555  IEvdence(factoryAddr).verify */\n  0xffffffffffffffffffffffffffffffffffffffff\n  and\n  0x63a9c3d7\n    /* \"evidence/evidence.sol\":556:563  _signer */\n  dup4\n    /* \"evidence/evidence.sol\":527:564  IEvdence(factoryAddr).verify(_signer) */\n  mload(0x40)\n  dup3\n  0xffffffff\n  and\n  0xe0\n  shl\n  dup2\n  mstore\n  0x04\n  add\n  tag_11\n  swap2\n  swap1\n  tag_12\n  jump\t// in\ntag_11:\n  0x20\n  mload(0x40)\n  dup1\n  dup4\n  sub\n  dup2\n  dup7\n  dup1\n  extcodesize\n  iszero\n  dup1\n  iszero\n  tag_13\n  jumpi\n  0x00\n  dup1\n  revert\ntag_13:\n  pop\n  gas\n  staticcall\n  iszero\n  dup1\n  iszero\n  tag_15\n  jumpi\n  returndatasize\n  0x00\n  dup1\n  returndatacopy\n  revert(0x00, returndatasize)\ntag_15:\n  pop\n  pop\n  pop\n  pop\n  mload(0x40)\n  returndatasize\n  not(0x1f)\n  0x1f\n  dup3\n  add\n  and\n  dup3\n  add\n  dup1\n  0x40\n  mstore\n  pop\n  dup2\n  add\n  swap1\n  tag_16\n  swap2\n  swap1\n  tag_17\n  jump\t// in\ntag_16:\n    /* \"evidence/evidence.sol\":520:564  return IEvdence(factoryAddr).verify(_signer) */\n  swap1\n  pop\n    /* \"evidence/evidence.sol\":447:572  function callVerify(address _signer) public view returns(bool){\r... */\n  swap2\n  swap1\n  pop\n  jump\t// out\n    /* \"#utility.yul\":7:428   */\ntag_19:\n    /* \"#utility.yul\":96:101   */\n  0x00\n    /* \"#utility.yul\":121:187   */\n  tag_21\n    /* \"#utility.yul\":137:186   */\n  tag_22\n    /* \"#utility.yul\":179:185   */\n  dup5\n    /* \"#utility.yul\":137:186   */\n  tag_23\n  jump\t// in\ntag_22:\n    /* \"#utility.yul\":121:187   */\n  tag_24\n  jump\t// in\ntag_21:\n    /* \"#utility.yul\":112:187   */\n  swap1\n  pop\n    /* \"#utility.yul\":210:216   */\n  dup3\n    /* \"#utility.yul\":203:208   */\n  dup2\n    /* \"#utility.yul\":196:217   */\n  mstore\n    /* \"#utility.yul\":248:252   */\n  0x20\n    /* \"#utility.yul\":241:246   */\n  dup2\n    /* \"#utility.yul\":237:253   */\n  add\n    /* \"#utility.yul\":286:289   */\n  dup5\n    /* \"#utility.yul\":277:283   */\n  dup5\n    /* \"#utility.yul\":272:275   */\n  dup5\n    /* \"#utility.yul\":268:284   */\n  add\n    /* \"#utility.yul\":265:290   */\n  gt\n    /* \"#utility.yul\":262:374   */\n  iszero\n  tag_25\n  jumpi\n    /* \"#utility.yul\":293:372   */\n  tag_26\n  tag_27\n  jump\t// in\ntag_26:\n    /* \"#utility.yul\":262:374   */\ntag_25:\n    /* \"#utility.yul\":383:422   */\n  tag_28\n    /* \"#utility.yul\":415:421   */\n  dup5\n    /* \"#utility.yul\":410:413   */\n  dup3\n    /* \"#utility.yul\":405:408   */\n  dup6\n    /* \"#utility.yul\":383:422   */\n  tag_29\n  jump\t// in\ntag_28:\n    /* \"#utility.yul\":102:428   */\n  pop\n    /* \"#utility.yul\":7:428   */\n  swap4\n  swap3\n  pop\n  pop\n  pop\n  jump\t// out\n    /* \"#utility.yul\":434:577   */\ntag_30:\n    /* \"#utility.yul\":491:496   */\n  0x00\n    /* \"#utility.yul\":522:528   */\n  dup2\n    /* \"#utility.yul\":516:529   */\n  mload\n    /* \"#utility.yul\":507:529   */\n  swap1\n  pop\n    /* \"#utility.yul\":538:571   */\n  tag_32\n    /* \"#utility.yul\":565:570   */\n  dup2\n    /* \"#utility.yul\":538:571   */\n  tag_33\n  jump\t// in\ntag_32:\n    /* \"#utility.yul\":434:577   */\n  swap3\n  swap2\n  pop\n  pop\n  jump\t// out\n    /* \"#utility.yul\":583:720   */\ntag_34:\n    /* \"#utility.yul\":637:642   */\n  0x00\n    /* \"#utility.yul\":668:674   */\n  dup2\n    /* \"#utility.yul\":662:675   */\n  mload\n    /* \"#utility.yul\":653:675   */\n  swap1\n  pop\n    /* \"#utility.yul\":684:714   */\n  tag_36\n    /* \"#utility.yul\":708:713   */\n  dup2\n    /* \"#utility.yul\":684:714   */\n  tag_37\n  jump\t// in\ntag_36:\n    /* \"#utility.yul\":583:720   */\n  swap3\n  swap2\n  pop\n  pop\n  jump\t// out\n    /* \"#utility.yul\":740:1095   */\ntag_38:\n    /* \"#utility.yul\":807:812   */\n  0x00\n    /* \"#utility.yul\":856:859   */\n  dup3\n    /* \"#utility.yul\":849:853   */\n  0x1f\n    /* \"#utility.yul\":841:847   */\n  dup4\n    /* \"#utility.yul\":837:854   */\n  add\n    /* \"#utility.yul\":833:860   */\n  slt\n    /* \"#utility.yul\":823:945   */\n  tag_40\n  jumpi\n    /* \"#utility.yul\":864:943   */\n  tag_41\n  tag_42\n  jump\t// in\ntag_41:\n    /* \"#utility.yul\":823:945   */\ntag_40:\n    /* \"#utility.yul\":974:980   */\n  dup2\n    /* \"#utility.yul\":968:981   */\n  mload\n    /* \"#utility.yul\":999:1089   */\n  tag_43\n    /* \"#utility.yul\":1085:1088   */\n  dup5\n    /* \"#utility.yul\":1077:1083   */\n  dup3\n    /* \"#utility.yul\":1070:1074   */\n  0x20\n    /* \"#utility.yul\":1062:1068   */\n  dup7\n    /* \"#utility.yul\":1058:1075   */\n  add\n    /* \"#utility.yul\":999:1089   */\n  tag_19\n  jump\t// in\ntag_43:\n    /* \"#utility.yul\":990:1089   */\n  swap2\n  pop\n    /* \"#utility.yul\":813:1095   */\n  pop\n    /* \"#utility.yul\":740:1095   */\n  swap3\n  swap2\n  pop\n  pop\n  jump\t// out\n    /* \"#utility.yul\":1101:1446   */\ntag_17:\n    /* \"#utility.yul\":1168:1174   */\n  0x00\n    /* \"#utility.yul\":1217:1219   */\n  0x20\n    /* \"#utility.yul\":1205:1214   */\n  dup3\n    /* \"#utility.yul\":1196:1203   */\n  dup5\n    /* \"#utility.yul\":1192:1215   */\n  sub\n    /* \"#utility.yul\":1188:1220   */\n  slt\n    /* \"#utility.yul\":1185:1304   */\n  iszero\n  tag_45\n  jumpi\n    /* \"#utility.yul\":1223:1302   */\n  tag_46\n  tag_47\n  jump\t// in\ntag_46:\n    /* \"#utility.yul\":1185:1304   */\ntag_45:\n    /* \"#utility.yul\":1343:1344   */\n  0x00\n    /* \"#utility.yul\":1368:1429   */\n  tag_48\n    /* \"#utility.yul\":1421:1428   */\n  dup5\n    /* \"#utility.yul\":1412:1418   */\n  dup3\n    /* \"#utility.yul\":1401:1410   */\n  dup6\n    /* \"#utility.yul\":1397:1419   */\n  add\n    /* \"#utility.yul\":1368:1429   */\n  tag_34\n  jump\t// in\ntag_48:\n    /* \"#utility.yul\":1358:1429   */\n  swap2\n  pop\n    /* \"#utility.yul\":1314:1439   */\n  pop\n    /* \"#utility.yul\":1101:1446   */\n  swap3\n  swap2\n  pop\n  pop\n  jump\t// out\n    /* \"#utility.yul\":1452:2132   */\ntag_3:\n    /* \"#utility.yul\":1541:1547   */\n  0x00\n    /* \"#utility.yul\":1549:1555   */\n  dup1\n    /* \"#utility.yul\":1598:1600   */\n  0x40\n    /* \"#utility.yul\":1586:1595   */\n  dup4\n    /* \"#utility.yul\":1577:1584   */\n  dup6\n    /* \"#utility.yul\":1573:1596   */\n  sub\n    /* \"#utility.yul\":1569:1601   */\n  slt\n    /* \"#utility.yul\":1566:1685   */\n  iszero\n  tag_50\n  jumpi\n    /* \"#utility.yul\":1604:1683   */\n  tag_51\n  tag_47\n  jump\t// in\ntag_51:\n    /* \"#utility.yul\":1566:1685   */\ntag_50:\n    /* \"#utility.yul\":1745:1746   */\n  0x00\n    /* \"#utility.yul\":1734:1743   */\n  dup4\n    /* \"#utility.yul\":1730:1747   */\n  add\n    /* \"#utility.yul\":1724:1748   */\n  mload\n    /* \"#utility.yul\":1775:1793   */\n  0xffffffffffffffff\n    /* \"#utility.yul\":1767:1773   */\n  dup2\n    /* \"#utility.yul\":1764:1794   */\n  gt\n    /* \"#utility.yul\":1761:1878   */\n  iszero\n  tag_52\n  jumpi\n    /* \"#utility.yul\":1797:1876   */\n  tag_53\n  tag_54\n  jump\t// in\ntag_53:\n    /* \"#utility.yul\":1761:1878   */\ntag_52:\n    /* \"#utility.yul\":1902:1976   */\n  tag_55\n    /* \"#utility.yul\":1968:1975   */\n  dup6\n    /* \"#utility.yul\":1959:1965   */\n  dup3\n    /* \"#utility.yul\":1948:1957   */\n  dup7\n    /* \"#utility.yul\":1944:1966   */\n  add\n    /* \"#utility.yul\":1902:1976   */\n  tag_38\n  jump\t// in\ntag_55:\n    /* \"#utility.yul\":1892:1976   */\n  swap3\n  pop\n    /* \"#utility.yul\":1695:1986   */\n  pop\n    /* \"#utility.yul\":2025:2027   */\n  0x20\n    /* \"#utility.yul\":2051:2115   */\n  tag_56\n    /* \"#utility.yul\":2107:2114   */\n  dup6\n    /* \"#utility.yul\":2098:2104   */\n  dup3\n    /* \"#utility.yul\":2087:2096   */\n  dup7\n    /* \"#utility.yul\":2083:2105   */\n  add\n    /* \"#utility.yul\":2051:2115   */\n  tag_30\n  jump\t// in\ntag_56:\n    /* \"#utility.yul\":2041:2115   */\n  swap2\n  pop\n    /* \"#utility.yul\":1996:2125   */\n  pop\n    /* \"#utility.yul\":1452:2132   */\n  swap3\n  pop\n  swap3\n  swap1\n  pop\n  jump\t// out\n    /* \"#utility.yul\":2138:2256   */\ntag_57:\n    /* \"#utility.yul\":2225:2249   */\n  tag_59\n    /* \"#utility.yul\":2243:2248   */\n  dup2\n    /* \"#utility.yul\":2225:2249   */\n  tag_60\n  jump\t// in\ntag_59:\n    /* \"#utility.yul\":2220:2223   */\n  dup3\n    /* \"#utility.yul\":2213:2250   */\n  mstore\n    /* \"#utility.yul\":2138:2256   */\n  pop\n  pop\n  jump\t// out\n    /* \"#utility.yul\":2262:2484   */\ntag_12:\n    /* \"#utility.yul\":2355:2359   */\n  0x00\n    /* \"#utility.yul\":2393:2395   */\n  0x20\n    /* \"#utility.yul\":2382:2391   */\n  dup3\n    /* \"#utility.yul\":2378:2396   */\n  add\n    /* \"#utility.yul\":2370:2396   */\n  swap1\n  pop\n    /* \"#utility.yul\":2406:2477   */\n  tag_62\n    /* \"#utility.yul\":2474:2475   */\n  0x00\n    /* \"#utility.yul\":2463:2472   */\n  dup4\n    /* \"#utility.yul\":2459:2476   */\n  add\n    /* \"#utility.yul\":2450:2456   */\n  dup5\n    /* \"#utility.yul\":2406:2477   */\n  tag_57\n  jump\t// in\ntag_62:\n    /* \"#utility.yul\":2262:2484   */\n  swap3\n  swap2\n  pop\n  pop\n  jump\t// out\n    /* \"#utility.yul\":2490:2619   */\ntag_24:\n    /* \"#utility.yul\":2524:2530   */\n  0x00\n    /* \"#utility.yul\":2551:2571   */\n  tag_64\n  tag_65\n  jump\t// in\ntag_64:\n    /* \"#utility.yul\":2541:2571   */\n  swap1\n  pop\n    /* \"#utility.yul\":2580:2613   */\n  tag_66\n    /* \"#utility.yul\":2608:2612   */\n  dup3\n    /* \"#utility.yul\":2600:2606   */\n  dup3\n    /* \"#utility.yul\":2580:2613   */\n  tag_67\n  jump\t// in\ntag_66:\n    /* \"#utility.yul\":2490:2619   */\n  swap2\n  swap1\n  pop\n  jump\t// out\n    /* \"#utility.yul\":2625:2700   */\ntag_65:\n    /* \"#utility.yul\":2658:2664   */\n  0x00\n    /* \"#utility.yul\":2691:2693   */\n  0x40\n    /* \"#utility.yul\":2685:2694   */\n  mload\n    /* \"#utility.yul\":2675:2694   */\n  swap1\n  pop\n    /* \"#utility.yul\":2625:2700   */\n  swap1\n  jump\t// out\n    /* \"#utility.yul\":2706:3014   */\ntag_23:\n    /* \"#utility.yul\":2768:2772   */\n  0x00\n    /* \"#utility.yul\":2858:2876   */\n  0xffffffffffffffff\n    /* \"#utility.yul\":2850:2856   */\n  dup3\n    /* \"#utility.yul\":2847:2877   */\n  gt\n    /* \"#utility.yul\":2844:2900   */\n  iszero\n  tag_70\n  jumpi\n    /* \"#utility.yul\":2880:2898   */\n  tag_71\n  tag_72\n  jump\t// in\ntag_71:\n    /* \"#utility.yul\":2844:2900   */\ntag_70:\n    /* \"#utility.yul\":2918:2947   */\n  tag_73\n    /* \"#utility.yul\":2940:2946   */\n  dup3\n    /* \"#utility.yul\":2918:2947   */\n  tag_74\n  jump\t// in\ntag_73:\n    /* \"#utility.yul\":2910:2947   */\n  swap1\n  pop\n    /* \"#utility.yul\":3002:3006   */\n  0x20\n    /* \"#utility.yul\":2996:3000   */\n  dup2\n    /* \"#utility.yul\":2992:3007   */\n  add\n    /* \"#utility.yul\":2984:3007   */\n  swap1\n  pop\n    /* \"#utility.yul\":2706:3014   */\n  swap2\n  swap1\n  pop\n  jump\t// out\n    /* \"#utility.yul\":3020:3116   */\ntag_60:\n    /* \"#utility.yul\":3057:3064   */\n  0x00\n    /* \"#utility.yul\":3086:3110   */\n  tag_76\n    /* \"#utility.yul\":3104:3109   */\n  dup3\n    /* \"#utility.yul\":3086:3110   */\n  tag_77\n  jump\t// in\ntag_76:\n    /* \"#utility.yul\":3075:3110   */\n  swap1\n  pop\n    /* \"#utility.yul\":3020:3116   */\n  swap2\n  swap1\n  pop\n  jump\t// out\n    /* \"#utility.yul\":3122:3212   */\ntag_78:\n    /* \"#utility.yul\":3156:3163   */\n  0x00\n    /* \"#utility.yul\":3199:3204   */\n  dup2\n    /* \"#utility.yul\":3192:3205   */\n  iszero\n    /* \"#utility.yul\":3185:3206   */\n  iszero\n    /* \"#utility.yul\":3174:3206   */\n  swap1\n  pop\n    /* \"#utility.yul\":3122:3212   */\n  swap2\n  swap1\n  pop\n  jump\t// out\n    /* \"#utility.yul\":3218:3344   */\ntag_77:\n    /* \"#utility.yul\":3255:3262   */\n  0x00\n    /* \"#utility.yul\":3295:3337   */\n  0xffffffffffffffffffffffffffffffffffffffff\n    /* \"#utility.yul\":3288:3293   */\n  dup3\n    /* \"#utility.yul\":3284:3338   */\n  and\n    /* \"#utility.yul\":3273:3338   */\n  swap1\n  pop\n    /* \"#utility.yul\":3218:3344   */\n  swap2\n  swap1\n  pop\n  jump\t// out\n    /* \"#utility.yul\":3350:3657   */\ntag_29:\n    /* \"#utility.yul\":3418:3419   */\n  0x00\n    /* \"#utility.yul\":3428:3541   */\ntag_82:\n    /* \"#utility.yul\":3442:3448   */\n  dup4\n    /* \"#utility.yul\":3439:3440   */\n  dup2\n    /* \"#utility.yul\":3436:3449   */\n  lt\n    /* \"#utility.yul\":3428:3541   */\n  iszero\n  tag_84\n  jumpi\n    /* \"#utility.yul\":3527:3528   */\n  dup1\n    /* \"#utility.yul\":3522:3525   */\n  dup3\n    /* \"#utility.yul\":3518:3529   */\n  add\n    /* \"#utility.yul\":3512:3530   */\n  mload\n    /* \"#utility.yul\":3508:3509   */\n  dup2\n    /* \"#utility.yul\":3503:3506   */\n  dup5\n    /* \"#utility.yul\":3499:3510   */\n  add\n    /* \"#utility.yul\":3492:3531   */\n  mstore\n    /* \"#utility.yul\":3464:3466   */\n  0x20\n    /* \"#utility.yul\":3461:3462   */\n  dup2\n    /* \"#utility.yul\":3457:3467   */\n  add\n    /* \"#utility.yul\":3452:3467   */\n  swap1\n  pop\n    /* \"#utility.yul\":3428:3541   */\n  jump(tag_82)\ntag_84:\n    /* \"#utility.yul\":3559:3565   */\n  dup4\n    /* \"#utility.yul\":3556:3557   */\n  dup2\n    /* \"#utility.yul\":3553:3566   */\n  gt\n    /* \"#utility.yul\":3550:3651   */\n  iszero\n  tag_85\n  jumpi\n    /* \"#utility.yul\":3639:3640   */\n  0x00\n    /* \"#utility.yul\":3630:3636   */\n  dup5\n    /* \"#utility.yul\":3625:3628   */\n  dup5\n    /* \"#utility.yul\":3621:3637   */\n  add\n    /* \"#utility.yul\":3614:3641   */\n  mstore\n    /* \"#utility.yul\":3550:3651   */\ntag_85:\n    /* \"#utility.yul\":3399:3657   */\n  pop\n    /* \"#utility.yul\":3350:3657   */\n  pop\n  pop\n  pop\n  jump\t// out\n    /* \"#utility.yul\":3663:3944   */\ntag_67:\n    /* \"#utility.yul\":3746:3773   */\n  tag_87\n    /* \"#utility.yul\":3768:3772   */\n  dup3\n    /* \"#utility.yul\":3746:3773   */\n  tag_74\n  jump\t// in\ntag_87:\n    /* \"#utility.yul\":3738:3744   */\n  dup2\n    /* \"#utility.yul\":3734:3774   */\n  add\n    /* \"#utility.yul\":3876:3882   */\n  dup2\n    /* \"#utility.yul\":3864:3874   */\n  dup2\n    /* \"#utility.yul\":3861:3883   */\n  lt\n    /* \"#utility.yul\":3840:3858   */\n  0xffffffffffffffff\n    /* \"#utility.yul\":3828:3838   */\n  dup3\n    /* \"#utility.yul\":3825:3859   */\n  gt\n    /* \"#utility.yul\":3822:3884   */\n  or\n    /* \"#utility.yul\":3819:3907   */\n  iszero\n  tag_88\n  jumpi\n    /* \"#utility.yul\":3887:3905   */\n  tag_89\n  tag_72\n  jump\t// in\ntag_89:\n    /* \"#utility.yul\":3819:3907   */\ntag_88:\n    /* \"#utility.yul\":3927:3937   */\n  dup1\n    /* \"#utility.yul\":3923:3925   */\n  0x40\n    /* \"#utility.yul\":3916:3938   */\n  mstore\n    /* \"#utility.yul\":3706:3944   */\n  pop\n    /* \"#utility.yul\":3663:3944   */\n  pop\n  pop\n  jump\t// out\n    /* \"#utility.yul\":3950:4130   */\ntag_72:\n    /* \"#utility.yul\":3998:4075   */\n  0x4e487b7100000000000000000000000000000000000000000000000000000000\n    /* \"#utility.yul\":3995:3996   */\n  0x00\n    /* \"#utility.yul\":3988:4076   */\n  mstore\n    /* \"#utility.yul\":4095:4099   */\n  0x41\n    /* \"#utility.yul\":4092:4093   */\n  0x04\n    /* \"#utility.yul\":4085:4100   */\n  mstore\n    /* \"#utility.yul\":4119:4123   */\n  0x24\n    /* \"#utility.yul\":4116:4117   */\n  0x00\n    /* \"#utility.yul\":4109:4124   */\n  revert\n    /* \"#utility.yul\":4136:4253   */\ntag_42:\n    /* \"#utility.yul\":4245:4246   */\n  0x00\n    /* \"#utility.yul\":4242:4243   */\n  dup1\n    /* \"#utility.yul\":4235:4247   */\n  revert\n    /* \"#utility.yul\":4259:4376   */\ntag_27:\n    /* \"#utility.yul\":4368:4369   */\n  0x00\n    /* \"#utility.yul\":4365:4366   */\n  dup1\n    /* \"#utility.yul\":4358:4370   */\n  revert\n    /* \"#utility.yul\":4382:4499   */\ntag_54:\n    /* \"#utility.yul\":4491:4492   */\n  0x00\n    /* \"#utility.yul\":4488:4489   */\n  dup1\n    /* \"#utility.yul\":4481:4493   */\n  revert\n    /* \"#utility.yul\":4505:4622   */\ntag_47:\n    /* \"#utility.yul\":4614:4615   */\n  0x00\n    /* \"#utility.yul\":4611:4612   */\n  dup1\n    /* \"#utility.yul\":4604:4616   */\n  revert\n    /* \"#utility.yul\":4628:4730   */\ntag_74:\n    /* \"#utility.yul\":4669:4675   */\n  0x00\n    /* \"#utility.yul\":4720:4722   */\n  0x1f\n    /* \"#utility.yul\":4716:4723   */\n  not\n    /* \"#utility.yul\":4711:4713   */\n  0x1f\n    /* \"#utility.yul\":4704:4709   */\n  dup4\n    /* \"#utility.yul\":4700:4714   */\n  add\n    /* \"#utility.yul\":4696:4724   */\n  and\n    /* \"#utility.yul\":4686:4724   */\n  swap1\n  pop\n    /* \"#utility.yul\":4628:4730   */\n  swap2\n  swap1\n  pop\n  jump\t// out\n    /* \"#utility.yul\":4736:4858   */\ntag_33:\n    /* \"#utility.yul\":4809:4833   */\n  tag_97\n    /* \"#utility.yul\":4827:4832   */\n  dup2\n    /* \"#utility.yul\":4809:4833   */\n  tag_60\n  jump\t// in\ntag_97:\n    /* \"#utility.yul\":4802:4807   */\n  dup2\n    /* \"#utility.yul\":4799:4834   */\n  eq\n    /* \"#utility.yul\":4789:4852   */\n  tag_98\n  jumpi\n    /* \"#utility.yul\":4848:4849   */\n  0x00\n    /* \"#utility.yul\":4845:4846   */\n  dup1\n    /* \"#utility.yul\":4838:4850   */\n  revert\n    /* \"#utility.yul\":4789:4852   */\ntag_98:\n    /* \"#utility.yul\":4736:4858   */\n  pop\n  jump\t// out\n    /* \"#utility.yul\":4864:4980   */\ntag_37:\n    /* \"#utility.yul\":4934:4955   */\n  tag_100\n    /* \"#utility.yul\":4949:4954   */\n  dup2\n    /* \"#utility.yul\":4934:4955   */\n  tag_78\n  jump\t// in\ntag_100:\n    /* \"#utility.yul\":4927:4932   */\n  dup2\n    /* \"#utility.yul\":4924:4956   */\n  eq\n    /* \"#utility.yul\":4914:4974   */\n  tag_101\n  jumpi\n    /* \"#utility.yul\":4970:4971   */\n  0x00\n    /* \"#utility.yul\":4967:4968   */\n  dup1\n    /* \"#utility.yul\":4960:4972   */\n  revert\n    /* \"#utility.yul\":4914:4974   */\ntag_101:\n    /* \"#utility.yul\":4864:4980   */\n  pop\n  jump\t// out\n    /* \"evidence/evidence.sol\":279:732  contract Evidence {\r... */\ntag_9:\n  dataSize(sub_0)\n  dup1\n  dataOffset(sub_0)\n  0x00\n  codecopy\n  0x00\n  return\nstop\n\nsub_0: assembly {\n        /* \"evidence/evidence.sol\":279:732  contract Evidence {\r... */\n      mstore(0x40, 0x80)\n      callvalue\n      dup1\n      iszero\n      tag_1\n      jumpi\n      0x00\n      dup1\n      revert\n    tag_1:\n      pop\n      jumpi(tag_2, lt(calldatasize, 0x04))\n      shr(0xe0, calldataload(0x00))\n      dup1\n      0x50ca0928\n      eq\n      tag_3\n      jumpi\n      dup1\n      0x963671be\n      eq\n      tag_4\n      jumpi\n    tag_2:\n      0x00\n      dup1\n      revert\n        /* \"evidence/evidence.sol\":447:572  function callVerify(address _signer) public view returns(bool){\r... */\n    tag_3:\n      tag_5\n      0x04\n      dup1\n      calldatasize\n      sub\n      dup2\n      add\n      swap1\n      tag_6\n      swap2\n      swap1\n      tag_7\n      jump\t// in\n    tag_6:\n      tag_8\n      jump\t// in\n    tag_5:\n      mload(0x40)\n      tag_9\n      swap2\n      swap1\n      tag_10\n      jump\t// in\n    tag_9:\n      mload(0x40)\n      dup1\n      swap2\n      sub\n      swap1\n      return\n        /* \"evidence/evidence.sol\":390:416  address public factoryAddr */\n    tag_4:\n      tag_11\n      tag_12\n      jump\t// in\n    tag_11:\n      mload(0x40)\n      tag_13\n      swap2\n      swap1\n      tag_14\n      jump\t// in\n    tag_13:\n      mload(0x40)\n      dup1\n      swap2\n      sub\n      swap1\n      return\n        /* \"evidence/evidence.sol\":447:572  function callVerify(address _signer) public view returns(bool){\r... */\n    tag_8:\n        /* \"evidence/evidence.sol\":504:508  bool */\n      0x00\n        /* \"evidence/evidence.sol\":536:547  factoryAddr */\n      0x02\n      0x00\n      swap1\n      sload\n      swap1\n      0x0100\n      exp\n      swap1\n      div\n      0xffffffffffffffffffffffffffffffffffffffff\n      and\n        /* \"evidence/evidence.sol\":527:555  IEvdence(factoryAddr).verify */\n      0xffffffffffffffffffffffffffffffffffffffff\n      and\n      0x63a9c3d7\n        /* \"evidence/evidence.sol\":556:563  _signer */\n      dup4\n        /* \"evidence/evidence.sol\":527:564  IEvdence(factoryAddr).verify(_signer) */\n      mload(0x40)\n      dup3\n      0xffffffff\n      and\n      0xe0\n      shl\n      dup2\n      mstore\n      0x04\n      add\n      tag_16\n      swap2\n      swap1\n      tag_14\n      jump\t// in\n    tag_16:\n      0x20\n      mload(0x40)\n      dup1\n      dup4\n      sub\n      dup2\n      dup7\n      dup1\n      extcodesize\n      iszero\n      dup1\n      iszero\n      tag_17\n      jumpi\n      0x00\n      dup1\n      revert\n    tag_17:\n      pop\n      gas\n      staticcall\n      iszero\n      dup1\n      iszero\n      tag_19\n      jumpi\n      returndatasize\n      0x00\n      dup1\n      returndatacopy\n      revert(0x00, returndatasize)\n    tag_19:\n      pop\n      pop\n      pop\n      pop\n      mload(0x40)\n      returndatasize\n      not(0x1f)\n      0x1f\n      dup3\n      add\n      and\n      dup3\n      add\n      dup1\n      0x40\n      mstore\n      pop\n      dup2\n      add\n      swap1\n      tag_20\n      swap2\n      swap1\n      tag_21\n      jump\t// in\n    tag_20:\n        /* \"evidence/evidence.sol\":520:564  return IEvdence(factoryAddr).verify(_signer) */\n      swap1\n      pop\n        /* \"evidence/evidence.sol\":447:572  function callVerify(address _signer) public view returns(bool){\r... */\n      swap2\n      swap1\n      pop\n      jump\t// out\n        /* \"evidence/evidence.sol\":390:416  address public factoryAddr */\n    tag_12:\n      0x02\n      0x00\n      swap1\n      sload\n      swap1\n      0x0100\n      exp\n      swap1\n      div\n      0xffffffffffffffffffffffffffffffffffffffff\n      and\n      dup2\n      jump\t// out\n        /* \"#utility.yul\":7:146   */\n    tag_23:\n        /* \"#utility.yul\":53:58   */\n      0x00\n        /* \"#utility.yul\":91:97   */\n      dup2\n        /* \"#utility.yul\":78:98   */\n      calldataload\n        /* \"#utility.yul\":69:98   */\n      swap1\n      pop\n        /* \"#utility.yul\":107:140   */\n      tag_25\n        /* \"#utility.yul\":134:139   */\n      dup2\n        /* \"#utility.yul\":107:140   */\n      tag_26\n      jump\t// in\n    tag_25:\n        /* \"#utility.yul\":7:146   */\n      swap3\n      swap2\n      pop\n      pop\n      jump\t// out\n        /* \"#utility.yul\":152:289   */\n    tag_27:\n        /* \"#utility.yul\":206:211   */\n      0x00\n        /* \"#utility.yul\":237:243   */\n      dup2\n        /* \"#utility.yul\":231:244   */\n      mload\n        /* \"#utility.yul\":222:244   */\n      swap1\n      pop\n        /* \"#utility.yul\":253:283   */\n      tag_29\n        /* \"#utility.yul\":277:282   */\n      dup2\n        /* \"#utility.yul\":253:283   */\n      tag_30\n      jump\t// in\n    tag_29:\n        /* \"#utility.yul\":152:289   */\n      swap3\n      swap2\n      pop\n      pop\n      jump\t// out\n        /* \"#utility.yul\":295:624   */\n    tag_7:\n        /* \"#utility.yul\":354:360   */\n      0x00\n        /* \"#utility.yul\":403:405   */\n      0x20\n        /* \"#utility.yul\":391:400   */\n      dup3\n        /* \"#utility.yul\":382:389   */\n      dup5\n        /* \"#utility.yul\":378:401   */\n      sub\n        /* \"#utility.yul\":374:406   */\n      slt\n        /* \"#utility.yul\":371:490   */\n      iszero\n      tag_32\n      jumpi\n        /* \"#utility.yul\":409:488   */\n      tag_33\n      tag_34\n      jump\t// in\n    tag_33:\n        /* \"#utility.yul\":371:490   */\n    tag_32:\n        /* \"#utility.yul\":529:530   */\n      0x00\n        /* \"#utility.yul\":554:607   */\n      tag_35\n        /* \"#utility.yul\":599:606   */\n      dup5\n        /* \"#utility.yul\":590:596   */\n      dup3\n        /* \"#utility.yul\":579:588   */\n      dup6\n        /* \"#utility.yul\":575:597   */\n      add\n        /* \"#utility.yul\":554:607   */\n      tag_23\n      jump\t// in\n    tag_35:\n        /* \"#utility.yul\":544:607   */\n      swap2\n      pop\n        /* \"#utility.yul\":500:617   */\n      pop\n        /* \"#utility.yul\":295:624   */\n      swap3\n      swap2\n      pop\n      pop\n      jump\t// out\n        /* \"#utility.yul\":630:975   */\n    tag_21:\n        /* \"#utility.yul\":697:703   */\n      0x00\n        /* \"#utility.yul\":746:748   */\n      0x20\n        /* \"#utility.yul\":734:743   */\n      dup3\n        /* \"#utility.yul\":725:732   */\n      dup5\n        /* \"#utility.yul\":721:744   */\n      sub\n        /* \"#utility.yul\":717:749   */\n      slt\n        /* \"#utility.yul\":714:833   */\n      iszero\n      tag_37\n      jumpi\n        /* \"#utility.yul\":752:831   */\n      tag_38\n      tag_34\n      jump\t// in\n    tag_38:\n        /* \"#utility.yul\":714:833   */\n    tag_37:\n        /* \"#utility.yul\":872:873   */\n      0x00\n        /* \"#utility.yul\":897:958   */\n      tag_39\n        /* \"#utility.yul\":950:957   */\n      dup5\n        /* \"#utility.yul\":941:947   */\n      dup3\n        /* \"#utility.yul\":930:939   */\n      dup6\n        /* \"#utility.yul\":926:948   */\n      add\n        /* \"#utility.yul\":897:958   */\n      tag_27\n      jump\t// in\n    tag_39:\n        /* \"#utility.yul\":887:958   */\n      swap2\n      pop\n        /* \"#utility.yul\":843:968   */\n      pop\n        /* \"#utility.yul\":630:975   */\n      swap3\n      swap2\n      pop\n      pop\n      jump\t// out\n        /* \"#utility.yul\":981:1099   */\n    tag_40:\n        /* \"#utility.yul\":1068:1092   */\n      tag_42\n        /* \"#utility.yul\":1086:1091   */\n      dup2\n        /* \"#utility.yul\":1068:1092   */\n      tag_43\n      jump\t// in\n    tag_42:\n        /* \"#utility.yul\":1063:1066   */\n      dup3\n        /* \"#utility.yul\":1056:1093   */\n      mstore\n        /* \"#utility.yul\":981:1099   */\n      pop\n      pop\n      jump\t// out\n        /* \"#utility.yul\":1105:1214   */\n    tag_44:\n        /* \"#utility.yul\":1186:1207   */\n      tag_46\n        /* \"#utility.yul\":1201:1206   */\n      dup2\n        /* \"#utility.yul\":1186:1207   */\n      tag_47\n      jump\t// in\n    tag_46:\n        /* \"#utility.yul\":1181:1184   */\n      dup3\n        /* \"#utility.yul\":1174:1208   */\n      mstore\n        /* \"#utility.yul\":1105:1214   */\n      pop\n      pop\n      jump\t// out\n        /* \"#utility.yul\":1220:1442   */\n    tag_14:\n        /* \"#utility.yul\":1313:1317   */\n      0x00\n        /* \"#utility.yul\":1351:1353   */\n      0x20\n        /* \"#utility.yul\":1340:1349   */\n      dup3\n        /* \"#utility.yul\":1336:1354   */\n      add\n        /* \"#utility.yul\":1328:1354   */\n      swap1\n      pop\n        /* \"#utility.yul\":1364:1435   */\n      tag_49\n        /* \"#utility.yul\":1432:1433   */\n      0x00\n        /* \"#utility.yul\":1421:1430   */\n      dup4\n        /* \"#utility.yul\":1417:1434   */\n      add\n        /* \"#utility.yul\":1408:1414   */\n      dup5\n        /* \"#utility.yul\":1364:1435   */\n      tag_40\n      jump\t// in\n    tag_49:\n        /* \"#utility.yul\":1220:1442   */\n      swap3\n      swap2\n      pop\n      pop\n      jump\t// out\n        /* \"#utility.yul\":1448:1658   */\n    tag_10:\n        /* \"#utility.yul\":1535:1539   */\n      0x00\n        /* \"#utility.yul\":1573:1575   */\n      0x20\n        /* \"#utility.yul\":1562:1571   */\n      dup3\n        /* \"#utility.yul\":1558:1576   */\n      add\n        /* \"#utility.yul\":1550:1576   */\n      swap1\n      pop\n        /* \"#utility.yul\":1586:1651   */\n      tag_51\n        /* \"#utility.yul\":1648:1649   */\n      0x00\n        /* \"#utility.yul\":1637:1646   */\n      dup4\n        /* \"#utility.yul\":1633:1650   */\n      add\n        /* \"#utility.yul\":1624:1630   */\n      dup5\n        /* \"#utility.yul\":1586:1651   */\n      tag_44\n      jump\t// in\n    tag_51:\n        /* \"#utility.yul\":1448:1658   */\n      swap3\n      swap2\n      pop\n      pop\n      jump\t// out\n        /* \"#utility.yul\":1745:1841   */\n    tag_43:\n        /* \"#utility.yul\":1782:1789   */\n      0x00\n        /* \"#utility.yul\":1811:1835   */\n      tag_55\n        /* \"#utility.yul\":1829:1834   */\n      dup3\n        /* \"#utility.yul\":1811:1835   */\n      tag_56\n      jump\t// in\n    tag_55:\n        /* \"#utility.yul\":1800:1835   */\n      swap1\n      pop\n        /* \"#utility.yul\":1745:1841   */\n      swap2\n      swap1\n      pop\n      jump\t// out\n        /* \"#utility.yul\":1847:1937   */\n    tag_47:\n        /* \"#utility.yul\":1881:1888   */\n      0x00\n        /* \"#utility.yul\":1924:1929   */\n      dup2\n        /* \"#utility.yul\":1917:1930   */\n      iszero\n        /* \"#utility.yul\":1910:1931   */\n      iszero\n        /* \"#utility.yul\":1899:1931   */\n      swap1\n      pop\n        /* \"#utility.yul\":1847:1937   */\n      swap2\n      swap1\n      pop\n      jump\t// out\n        /* \"#utility.yul\":1943:2069   */\n    tag_56:\n        /* \"#utility.yul\":1980:1987   */\n      0x00\n        /* \"#utility.yul\":2020:2062   */\n      0xffffffffffffffffffffffffffffffffffffffff\n        /* \"#utility.yul\":2013:2018   */\n      dup3\n        /* \"#utility.yul\":2009:2063   */\n      and\n        /* \"#utility.yul\":1998:2063   */\n      swap1\n      pop\n        /* \"#utility.yul\":1943:2069   */\n      swap2\n      swap1\n      pop\n      jump\t// out\n        /* \"#utility.yul\":2198:2315   */\n    tag_34:\n        /* \"#utility.yul\":2307:2308   */\n      0x00\n        /* \"#utility.yul\":2304:2305   */\n      dup1\n        /* \"#utility.yul\":2297:2309   */\n      revert\n        /* \"#utility.yul\":2321:2443   */\n    tag_26:\n        /* \"#utility.yul\":2394:2418   */\n      tag_63\n        /* \"#utility.yul\":2412:2417   */\n      dup2\n        /* \"#utility.yul\":2394:2418   */\n      tag_43\n      jump\t// in\n    tag_63:\n        /* \"#utility.yul\":2387:2392   */\n      dup2\n        /* \"#utility.yul\":2384:2419   */\n      eq\n        /* \"#utility.yul\":2374:2437   */\n      tag_64\n      jumpi\n        /* \"#utility.yul\":2433:2434   */\n      0x00\n        /* \"#utility.yul\":2430:2431   */\n      dup1\n        /* \"#utility.yul\":2423:2435   */\n      revert\n        /* \"#utility.yul\":2374:2437   */\n    tag_64:\n        /* \"#utility.yul\":2321:2443   */\n      pop\n      jump\t// out\n        /* \"#utility.yul\":2449:2565   */\n    tag_30:\n        /* \"#utility.yul\":2519:2540   */\n      tag_66\n        /* \"#utility.yul\":2534:2539   */\n      dup2\n        /* \"#utility.yul\":2519:2540   */\n      tag_47\n      jump\t// in\n    tag_66:\n        /* \"#utility.yul\":2512:2517   */\n      dup2\n        /* \"#utility.yul\":2509:2541   */\n      eq\n        /* \"#utility.yul\":2499:2559   */\n      tag_67\n      jumpi\n        /* \"#utility.yul\":2555:2556   */\n      0x00\n        /* \"#utility.yul\":2552:2553   */\n      dup1\n        /* \"#utility.yul\":2545:2557   */\n      revert\n        /* \"#utility.yul\":2499:2559   */\n    tag_67:\n        /* \"#utility.yul\":2449:2565   */\n      pop\n      jump\t// out\n\n    auxdata: 0xa26469706673582212209fe62e48071b5f058de8ecf13db74973b230ce4a10ba0fa3efef7ece740929db64736f6c63430008070033\n}\n",
				"bytecode": {
					"linkReferences": {},
					"object": "608060405234801561001057600080fd5b506040516106fe3803806106fe8339818101604052810190610032919061020d565b80600260006101000a81548173ffffffffffffffffffffffffffffffffffffffff021916908373ffffffffffffffffffffffffffffffffffffffff1602179055506100823261009260201b60201c565b61008b57600080fd5b505061040d565b6000600260009054906101000a900473ffffffffffffffffffffffffffffffffffffffff1673ffffffffffffffffffffffffffffffffffffffff166363a9c3d7836040518263ffffffff1660e01b81526004016100ef9190610278565b60206040518083038186803b15801561010757600080fd5b505afa15801561011b573d6000803e3d6000fd5b505050506040513d601f19601f8201168201806040525081019061013f91906101e0565b9050919050565b6000610159610154846102b8565b610293565b905082815260208101848484011115610175576101746103bf565b5b610180848285610327565b509392505050565b600081519050610197816103df565b92915050565b6000815190506101ac816103f6565b92915050565b600082601f8301126101c7576101c66103ba565b5b81516101d7848260208601610146565b91505092915050565b6000602082840312156101f6576101f56103c9565b5b60006102048482850161019d565b91505092915050565b60008060408385031215610224576102236103c9565b5b600083015167ffffffffffffffff811115610242576102416103c4565b5b61024e858286016101b2565b925050602061025f85828601610188565b9150509250929050565b610272816102e9565b82525050565b600060208201905061028d6000830184610269565b92915050565b600061029d6102ae565b90506102a9828261035a565b919050565b6000604051905090565b600067ffffffffffffffff8211156102d3576102d261038b565b5b6102dc826103ce565b9050602081019050919050565b60006102f482610307565b9050919050565b60008115159050919050565b600073ffffffffffffffffffffffffffffffffffffffff82169050919050565b60005b8381101561034557808201518184015260208101905061032a565b83811115610354576000848401525b50505050565b610363826103ce565b810181811067ffffffffffffffff821117156103825761038161038b565b5b80604052505050565b7f4e487b7100000000000000000000000000000000000000000000000000000000600052604160045260246000fd5b600080fd5b600080fd5b600080fd5b600080fd5b6000601f19601f8301169050919050565b6103e8816102e9565b81146103f357600080fd5b50565b6103ff816102fb565b811461040a57600080fd5b50565b6102e28061041c6000396000f3fe608060405234801561001057600080fd5b50600436106100365760003560e01c806350ca09281461003b578063963671be1461006b575b600080fd5b6100556004803603810190610050919061018d565b610089565b6040516100629190610220565b60405180910390f35b61007361013d565b6040516100809190610205565b60405180910390f35b6000600260009054906101000a900473ffffffffffffffffffffffffffffffffffffffff1673ffffffffffffffffffffffffffffffffffffffff166363a9c3d7836040518263ffffffff1660e01b81526004016100e69190610205565b60206040518083038186803b1580156100fe57600080fd5b505afa158015610112573d6000803e3d6000fd5b505050506040513d601f19601f8201168201806040525081019061013691906101ba565b9050919050565b600260009054906101000a900473ffffffffffffffffffffffffffffffffffffffff1681565b6000813590506101728161027e565b92915050565b60008151905061018781610295565b92915050565b6000602082840312156101a3576101a2610279565b5b60006101b184828501610163565b91505092915050565b6000602082840312156101d0576101cf610279565b5b60006101de84828501610178565b91505092915050565b6101f08161023b565b82525050565b6101ff8161024d565b82525050565b600060208201905061021a60008301846101e7565b92915050565b600060208201905061023560008301846101f6565b92915050565b600061024682610259565b9050919050565b60008115159050919050565b600073ffffffffffffffffffffffffffffffffffffffff82169050919050565b600080fd5b6102878161023b565b811461029257600080fd5b50565b61029e8161024d565b81146102a957600080fd5b5056fea26469706673582212209fe62e48071b5f058de8ecf13db74973b230ce4a10ba0fa3efef7ece740929db64736f6c63430008070033",
					"opcodes": "PUSH1 0x80 PUSH1 0x40 MSTORE CALLVALUE DUP1 ISZERO PUSH2 0x10 JUMPI PUSH1 0x0 DUP1 REVERT JUMPDEST POP PUSH1 0x40 MLOAD PUSH2 0x6FE CODESIZE SUB DUP1 PUSH2 0x6FE DUP4 CODECOPY DUP2 DUP2 ADD PUSH1 0x40 MSTORE DUP2 ADD SWAP1 PUSH2 0x32 SWAP2 SWAP1 PUSH2 0x20D JUMP JUMPDEST DUP1 PUSH1 0x2 PUSH1 0x0 PUSH2 0x100 EXP DUP2 SLOAD DUP2 PUSH20 0xFFFFFFFFFFFFFFFFFFFFFFFFFFFFFFFFFFFFFFFF MUL NOT AND SWAP1 DUP4 PUSH20 0xFFFFFFFFFFFFFFFFFFFFFFFFFFFFFFFFFFFFFFFF AND MUL OR SWAP1 SSTORE POP PUSH2 0x82 ORIGIN PUSH2 0x92 PUSH1 0x20 SHL PUSH1 0x20 SHR JUMP JUMPDEST PUSH2 0x8B JUMPI PUSH1 0x0 DUP1 REVERT JUMPDEST POP POP PUSH2 0x40D JUMP JUMPDEST PUSH1 0x0 PUSH1 0x2 PUSH1 0x0 SWAP1 SLOAD SWAP1 PUSH2 0x100 EXP SWAP1 DIV PUSH20 0xFFFFFFFFFFFFFFFFFFFFFFFFFFFFFFFFFFFFFFFF AND PUSH20 0xFFFFFFFFFFFFFFFFFFFFFFFFFFFFFFFFFFFFFFFF AND PUSH4 0x63A9C3D7 DUP4 PUSH1 0x40 MLOAD DUP3 PUSH4 0xFFFFFFFF AND PUSH1 0xE0 SHL DUP2 MSTORE PUSH1 0x4 ADD PUSH2 0xEF SWAP2 SWAP1 PUSH2 0x278 JUMP JUMPDEST PUSH1 0x20 PUSH1 0x40 MLOAD DUP1 DUP4 SUB DUP2 DUP7 DUP1 EXTCODESIZE ISZERO DUP1 ISZERO PUSH2 0x107 JUMPI PUSH1 0x0 DUP1 REVERT JUMPDEST POP GAS STATICCALL ISZERO DUP1 ISZERO PUSH2 0x11B JUMPI RETURNDATASIZE PUSH1 0x0 DUP1 RETURNDATACOPY RETURNDATASIZE PUSH1 0x0 REVERT JUMPDEST POP POP POP POP PUSH1 0x40 MLOAD RETURNDATASIZE PUSH1 0x1F NOT PUSH1 0x1F DUP3 ADD AND DUP3 ADD DUP1 PUSH1 0x40 MSTORE POP DUP2 ADD SWAP1 PUSH2 0x13F SWAP2 SWAP1 PUSH2 0x1E0 JUMP JUMPDEST SWAP1 POP SWAP2 SWAP1 POP JUMP JUMPDEST PUSH1 0x0 PUSH2 0x159 PUSH2 0x154 DUP5 PUSH2 0x2B8 JUMP JUMPDEST PUSH2 0x293 JUMP JUMPDEST SWAP1 POP DUP3 DUP2 MSTORE PUSH1 0x20 DUP2 ADD DUP5 DUP5 DUP5 ADD GT ISZERO PUSH2 0x175 JUMPI PUSH2 0x174 PUSH2 0x3BF JUMP JUMPDEST JUMPDEST PUSH2 0x180 DUP5 DUP3 DUP6 PUSH2 0x327 JUMP JUMPDEST POP SWAP4 SWAP3 POP POP POP JUMP JUMPDEST PUSH1 0x0 DUP2 MLOAD SWAP1 POP PUSH2 0x197 DUP2 PUSH2 0x3DF JUMP JUMPDEST SWAP3 SWAP2 POP POP JUMP JUMPDEST PUSH1 0x0 DUP2 MLOAD SWAP1 POP PUSH2 0x1AC DUP2 PUSH2 0x3F6 JUMP JUMPDEST SWAP3 SWAP2 POP POP JUMP JUMPDEST PUSH1 0x0 DUP3 PUSH1 0x1F DUP4 ADD SLT PUSH2 0x1C7 JUMPI PUSH2 0x1C6 PUSH2 0x3BA JUMP JUMPDEST JUMPDEST DUP2 MLOAD PUSH2 0x1D7 DUP5 DUP3 PUSH1 0x20 DUP7 ADD PUSH2 0x146 JUMP JUMPDEST SWAP2 POP POP SWAP3 SWAP2 POP POP JUMP JUMPDEST PUSH1 0x0 PUSH1 0x20 DUP3 DUP5 SUB SLT ISZERO PUSH2 0x1F6 JUMPI PUSH2 0x1F5 PUSH2 0x3C9 JUMP JUMPDEST JUMPDEST PUSH1 0x0 PUSH2 0x204 DUP5 DUP3 DUP6 ADD PUSH2 0x19D JUMP JUMPDEST SWAP2 POP POP SWAP3 SWAP2 POP POP JUMP JUMPDEST PUSH1 0x0 DUP1 PUSH1 0x40 DUP4 DUP6 SUB SLT ISZERO PUSH2 0x224 JUMPI PUSH2 0x223 PUSH2 0x3C9 JUMP JUMPDEST JUMPDEST PUSH1 0x0 DUP4 ADD MLOAD PUSH8 0xFFFFFFFFFFFFFFFF DUP2 GT ISZERO PUSH2 0x242 JUMPI PUSH2 0x241 PUSH2 0x3C4 JUMP JUMPDEST JUMPDEST PUSH2 0x24E DUP6 DUP3 DUP7 ADD PUSH2 0x1B2 JUMP JUMPDEST SWAP3 POP POP PUSH1 0x20 PUSH2 0x25F DUP6 DUP3 DUP7 ADD PUSH2 0x188 JUMP JUMPDEST SWAP2 POP POP SWAP3 POP SWAP3 SWAP1 POP JUMP JUMPDEST PUSH2 0x272 DUP2 PUSH2 0x2E9 JUMP JUMPDEST DUP3 MSTORE POP POP JUMP JUMPDEST PUSH1 0x0 PUSH1 0x20 DUP3 ADD SWAP1 POP PUSH2 0x28D PUSH1 0x0 DUP4 ADD DUP5 PUSH2 0x269 JUMP JUMPDEST SWAP3 SWAP2 POP POP JUMP JUMPDEST PUSH1 0x0 PUSH2 0x29D PUSH2 0x2AE JUMP JUMPDEST SWAP1 POP PUSH2 0x2A9 DUP3 DUP3 PUSH2 0x35A JUMP JUMPDEST SWAP2 SWAP1 POP JUMP JUMPDEST PUSH1 0x0 PUSH1 0x40 MLOAD SWAP1 POP SWAP1 JUMP JUMPDEST PUSH1 0x0 PUSH8 0xFFFFFFFFFFFFFFFF DUP3 GT ISZERO PUSH2 0x2D3 JUMPI PUSH2 0x2D2 PUSH2 0x38B JUMP JUMPDEST JUMPDEST PUSH2 0x2DC DUP3 PUSH2 0x3CE JUMP JUMPDEST SWAP1 POP PUSH1 0x20 DUP2 ADD SWAP1 POP SWAP2 SWAP1 POP JUMP JUMPDEST PUSH1 0x0 PUSH2 0x2F4 DUP3 PUSH2 0x307 JUMP JUMPDEST SWAP1 POP SWAP2 SWAP1 POP JUMP JUMPDEST PUSH1 0x0 DUP2 ISZERO ISZERO SWAP1 POP SWAP2 SWAP1 POP JUMP JUMPDEST PUSH1 0x0 PUSH20 0xFFFFFFFFFFFFFFFFFFFFFFFFFFFFFFFFFFFFFFFF DUP3 AND SWAP1 POP SWAP2 SWAP1 POP JUMP JUMPDEST PUSH1 0x0 JUMPDEST DUP4 DUP2 LT ISZERO PUSH2 0x345 JUMPI DUP1 DUP3 ADD MLOAD DUP2 DUP5 ADD MSTORE PUSH1 0x20 DUP2 ADD SWAP1 POP PUSH2 0x32A JUMP JUMPDEST DUP4 DUP2 GT ISZERO PUSH2 0x354 JUMPI PUSH1 0x0 DUP5 DUP5 ADD MSTORE JUMPDEST POP POP POP POP JUMP JUMPDEST PUSH2 0x363 DUP3 PUSH2 0x3CE JUMP JUMPDEST DUP2 ADD DUP2 DUP2 LT PUSH8 0xFFFFFFFFFFFFFFFF DUP3 GT OR ISZERO PUSH2 0x382 JUMPI PUSH2 0x381 PUSH2 0x38B JUMP JUMPDEST JUMPDEST DUP1 PUSH1 0x40 MSTORE POP POP POP JUMP JUMPDEST PUSH32 0x4E487B7100000000000000000000000000000000000000000000000000000000 PUSH1 0x0 MSTORE PUSH1 0x41 PUSH1 0x4 MSTORE PUSH1 0x24 PUSH1 0x0 REVERT JUMPDEST PUSH1 0x0 DUP1 REVERT JUMPDEST PUSH1 0x0 DUP1 REVERT JUMPDEST PUSH1 0x0 DUP1 REVERT JUMPDEST PUSH1 0x0 DUP1 REVERT JUMPDEST PUSH1 0x0 PUSH1 0x1F NOT PUSH1 0x1F DUP4 ADD AND SWAP1 POP SWAP2 SWAP1 POP JUMP JUMPDEST PUSH2 0x3E8 DUP2 PUSH2 0x2E9 JUMP JUMPDEST DUP2 EQ PUSH2 0x3F3 JUMPI PUSH1 0x0 DUP1 REVERT JUMPDEST POP JUMP JUMPDEST PUSH2 0x3FF DUP2 PUSH2 0x2FB JUMP JUMPDEST DUP2 EQ PUSH2 0x40A JUMPI PUSH1 0x0 DUP1 REVERT JUMPDEST POP JUMP JUMPDEST PUSH2 0x2E2 DUP1 PUSH2 0x41C PUSH1 0x0 CODECOPY PUSH1 0x0 RETURN INVALID PUSH1 0x80 PUSH1 0x40 MSTORE CALLVALUE DUP1 ISZERO PUSH2 0x10 JUMPI PUSH1 0x0 DUP1 REVERT JUMPDEST POP PUSH1 0x4 CALLDATASIZE LT PUSH2 0x36 JUMPI PUSH1 0x0 CALLDATALOAD PUSH1 0xE0 SHR DUP1 PUSH4 0x50CA0928 EQ PUSH2 0x3B JUMPI DUP1 PUSH4 0x963671BE EQ PUSH2 0x6B JUMPI JUMPDEST PUSH1 0x0 DUP1 REVERT JUMPDEST PUSH2 0x55 PUSH1 0x4 DUP1 CALLDATASIZE SUB DUP2 ADD SWAP1 PUSH2 0x50 SWAP2 SWAP1 PUSH2 0x18D JUMP JUMPDEST PUSH2 0x89 JUMP JUMPDEST PUSH1 0x40 MLOAD PUSH2 0x62 SWAP2 SWAP1 PUSH2 0x220 JUMP JUMPDEST PUSH1 0x40 MLOAD DUP1 SWAP2 SUB SWAP1 RETURN JUMPDEST PUSH2 0x73 PUSH2 0x13D JUMP JUMPDEST PUSH1 0x40 MLOAD PUSH2 0x80 SWAP2 SWAP1 PUSH2 0x205 JUMP JUMPDEST PUSH1 0x40 MLOAD DUP1 SWAP2 SUB SWAP1 RETURN JUMPDEST PUSH1 0x0 PUSH1 0x2 PUSH1 0x0 SWAP1 SLOAD SWAP1 PUSH2 0x100 EXP SWAP1 DIV PUSH20 0xFFFFFFFFFFFFFFFFFFFFFFFFFFFFFFFFFFFFFFFF AND PUSH20 0xFFFFFFFFFFFFFFFFFFFFFFFFFFFFFFFFFFFFFFFF AND PUSH4 0x63A9C3D7 DUP4 PUSH1 0x40 MLOAD DUP3 PUSH4 0xFFFFFFFF AND PUSH1 0xE0 SHL DUP2 MSTORE PUSH1 0x4 ADD PUSH2 0xE6 SWAP2 SWAP1 PUSH2 0x205 JUMP JUMPDEST PUSH1 0x20 PUSH1 0x40 MLOAD DUP1 DUP4 SUB DUP2 DUP7 DUP1 EXTCODESIZE ISZERO DUP1 ISZERO PUSH2 0xFE JUMPI PUSH1 0x0 DUP1 REVERT JUMPDEST POP GAS STATICCALL ISZERO DUP1 ISZERO PUSH2 0x112 JUMPI RETURNDATASIZE PUSH1 0x0 DUP1 RETURNDATACOPY RETURNDATASIZE PUSH1 0x0 REVERT JUMPDEST POP POP POP POP PUSH1 0x40 MLOAD RETURNDATASIZE PUSH1 0x1F NOT PUSH1 0x1F DUP3 ADD AND DUP3 ADD DUP1 PUSH1 0x40 MSTORE POP DUP2 ADD SWAP1 PUSH2 0x136 SWAP2 SWAP1 PUSH2 0x1BA JUMP JUMPDEST SWAP1 POP SWAP2 SWAP1 POP JUMP JUMPDEST PUSH1 0x2 PUSH1 0x0 SWAP1 SLOAD SWAP1 PUSH2 0x100 EXP SWAP1 DIV PUSH20 0xFFFFFFFFFFFFFFFFFFFFFFFFFFFFFFFFFFFFFFFF AND DUP2 JUMP JUMPDEST PUSH1 0x0 DUP2 CALLDATALOAD SWAP1 POP PUSH2 0x172 DUP2 PUSH2 0x27E JUMP JUMPDEST SWAP3 SWAP2 POP POP JUMP JUMPDEST PUSH1 0x0 DUP2 MLOAD SWAP1 POP PUSH2 0x187 DUP2 PUSH2 0x295 JUMP JUMPDEST SWAP3 SWAP2 POP POP JUMP JUMPDEST PUSH1 0x0 PUSH1 0x20 DUP3 DUP5 SUB SLT ISZERO PUSH2 0x1A3 JUMPI PUSH2 0x1A2 PUSH2 0x279 JUMP JUMPDEST JUMPDEST PUSH1 0x0 PUSH2 0x1B1 DUP5 DUP3 DUP6 ADD PUSH2 0x163 JUMP JUMPDEST SWAP2 POP POP SWAP3 SWAP2 POP POP JUMP JUMPDEST PUSH1 0x0 PUSH1 0x20 DUP3 DUP5 SUB SLT ISZERO PUSH2 0x1D0 JUMPI PUSH2 0x1CF PUSH2 0x279 JUMP JUMPDEST JUMPDEST PUSH1 0x0 PUSH2 0x1DE DUP5 DUP3 DUP6 ADD PUSH2 0x178 JUMP JUMPDEST SWAP2 POP POP SWAP3 SWAP2 POP POP JUMP JUMPDEST PUSH2 0x1F0 DUP2 PUSH2 0x23B JUMP JUMPDEST DUP3 MSTORE POP POP JUMP JUMPDEST PUSH2 0x1FF DUP2 PUSH2 0x24D JUMP JUMPDEST DUP3 MSTORE POP POP JUMP JUMPDEST PUSH1 0x0 PUSH1 0x20 DUP3 ADD SWAP1 POP PUSH2 0x21A PUSH1 0x0 DUP4 ADD DUP5 PUSH2 0x1E7 JUMP JUMPDEST SWAP3 SWAP2 POP POP JUMP JUMPDEST PUSH1 0x0 PUSH1 0x20 DUP3 ADD SWAP1 POP PUSH2 0x235 PUSH1 0x0 DUP4 ADD DUP5 PUSH2 0x1F6 JUMP JUMPDEST SWAP3 SWAP2 POP POP JUMP JUMPDEST PUSH1 0x0 PUSH2 0x246 DUP3 PUSH2 0x259 JUMP JUMPDEST SWAP1 POP SWAP2 SWAP1 POP JUMP JUMPDEST PUSH1 0x0 DUP2 ISZERO ISZERO SWAP1 POP SWAP2 SWAP1 POP JUMP JUMPDEST PUSH1 0x0 PUSH20 0xFFFFFFFFFFFFFFFFFFFFFFFFFFFFFFFFFFFFFFFF DUP3 AND SWAP1 POP SWAP2 SWAP1 POP JUMP JUMPDEST PUSH1 0x0 DUP1 REVERT JUMPDEST PUSH2 0x287 DUP2 PUSH2 0x23B JUMP JUMPDEST DUP2 EQ PUSH2 0x292 JUMPI PUSH1 0x0 DUP1 REVERT JUMPDEST POP JUMP JUMPDEST PUSH2 0x29E DUP2 PUSH2 0x24D JUMP JUMPDEST DUP2 EQ PUSH2 0x2A9 JUMPI PUSH1 0x0 DUP1 REVERT JUMPDEST POP JUMP INVALID LOG2 PUSH5 0x6970667358 0x22 SLT KECCAK256 SWAP16 0xE6 0x2E BASEFEE SMOD SHL 0x5F SDIV DUP14 0xE8 0xEC CALL RETURNDATASIZE 0xB7 0x49 PUSH20 0xB230CE4A10BA0FA3EFEF7ECE740929DB64736F6C PUSH4 0x43000807 STOP CALLER "
				},
				"gasEstimates": {
					"creation": {
						"codeDepositCost": "147600",
						"executionCost": "infinite",
						"totalCost": "infinite"
					},
					"external": {
						"callVerify(address)": "infinite",
						"factoryAddr()": "2514"
					}
				},
				"methodIdentifiers": {
					"callVerify(address)": "50ca0928",
					"factoryAddr()": "963671be"
				}
			},
			"storageLayout": {
				"storage": [
					{
						"astId": 23,
						"contract": "evidence/evidence.sol:Evidence",
						"label": "evidence",
						"offset": 0,
						"slot": "0",
						"type": "t_string_storage"
					},
					{
						"astId": 26,
						"contract": "evidence/evidence.sol:Evidence",
						"label": "signers",
						"offset": 0,
						"slot": "1",
						"type": "t_array(t_address)dyn_storage"
					},
					{
						"astId": 28,
						"contract": "evidence/evidence.sol:Evidence",
						"label": "factoryAddr",
						"offset": 0,
						"slot": "2",
						"type": "t_address"
					}
				],
				"types": {
					"t_address": {
						"encoding": "inplace",
						"label": "address",
						"numberOfBytes": "20"
					},
					"t_array(t_address)dyn_storage": {
						"base": "t_address",
						"encoding": "dynamic_array",
						"label": "address[]",
						"numberOfBytes": "32"
					},
					"t_string_storage": {
						"encoding": "bytes",
						"label": "string",
						"numberOfBytes": "32"
					}
				}
			},
			"userdoc": {
				"kind": "user",
				"methods": {},
				"version": 1
			}
		}
	}
}