{
	"evidence/factory.sol": {
		"EvidenceFactory": {
			"abi": [
				{
					"inputs": [
						{
							"internalType": "address[]",
							"name": "_signer",
							"type": "address[]"
						}
					],
					"stateMutability": "nonpayable",
					"type": "constructor"
				},
				{
					"inputs": [
						{
							"internalType": "uint256",
							"name": "_index",
							"type": "uint256"
						}
					],
					"name": "getSigner",
					"outputs": [
						{
							"internalType": "address",
							"name": "",
							"type": "address"
						}
					],
					"stateMutability": "view",
					"type": "function"
				},
				{
					"inputs": [],
					"name": "getSignersSize",
					"outputs": [
						{
							"internalType": "uint256",
							"name": "",
							"type": "uint256"
						}
					],
					"stateMutability": "view",
					"type": "function"
				},
				{
					"inputs": [
						{
							"internalType": "address",
							"name": "_signer",
							"type": "address"
						}
					],
					"name": "verify",
					"outputs": [
						{
							"internalType": "bool",
							"name": "",
							"type": "bool"
						}
					],
					"stateMutability": "view",
					"type": "function"
				}
			],
			"devdoc": {
				"kind": "dev",
				"methods": {},
				"version": 1
			},
			"evm": {
				"assembly": "    /* \"evidence/factory.sol\":54:696  contract EvidenceFactory is IEvdence{\r... */\n  mstore(0x40, 0x80)\n    /* \"evidence/factory.sol\":167:310  constructor(address[] memory _signer){\r... */\n  callvalue\n  dup1\n  iszero\n  tag_1\n  jumpi\n  0x00\n  dup1\n  revert\ntag_1:\n  pop\n  mload(0x40)\n  sub(codesize, bytecodeSize)\n  dup1\n  bytecodeSize\n  dup4\n  codecopy\n  dup2\n  dup2\n  add\n  0x40\n  mstore\n  dup2\n  add\n  swap1\n  tag_2\n  swap2\n  swap1\n  tag_3\n  jump\t// in\ntag_2:\n    /* \"evidence/factory.sol\":219:228  uint256 i */\n  0x00\n    /* \"evidence/factory.sol\":215:303  for(uint256 i=0;i<_signer.length;i++){\r... */\ntag_6:\n    /* \"evidence/factory.sol\":233:240  _signer */\n  dup2\n    /* \"evidence/factory.sol\":233:247  _signer.length */\n  mload\n    /* \"evidence/factory.sol\":231:232  i */\n  dup2\n    /* \"evidence/factory.sol\":231:247  i<_signer.length */\n  lt\n    /* \"evidence/factory.sol\":215:303  for(uint256 i=0;i<_signer.length;i++){\r... */\n  iszero\n  tag_7\n  jumpi\n    /* \"evidence/factory.sol\":267:274  signers */\n  0x00\n    /* \"evidence/factory.sol\":280:287  _signer */\n  dup3\n    /* \"evidence/factory.sol\":288:289  i */\n  dup3\n    /* \"evidence/factory.sol\":280:290  _signer[i] */\n  dup2\n  mload\n  dup2\n  lt\n  tag_9\n  jumpi\n  tag_10\n  tag_11\n  jump\t// in\ntag_10:\ntag_9:\n  0x20\n  mul\n  0x20\n  add\n  add\n  mload\n    /* \"evidence/factory.sol\":267:291  signers.push(_signer[i]) */\n  swap1\n  dup1\n  0x01\n  dup2\n  sload\n  add\n  dup1\n  dup3\n  sstore\n  dup1\n  swap2\n  pop\n  pop\n  0x01\n  swap1\n  sub\n  swap1\n  0x00\n  mstore\n  keccak256(0x00, 0x20)\n  add\n  0x00\n  swap1\n  swap2\n  swap1\n  swap2\n  swap1\n  swap2\n  0x0100\n  exp\n  dup2\n  sload\n  dup2\n  0xffffffffffffffffffffffffffffffffffffffff\n  mul\n  not\n  and\n  swap1\n  dup4\n  0xffffffffffffffffffffffffffffffffffffffff\n  and\n  mul\n  or\n  swap1\n  sstore\n  pop\n    /* \"evidence/factory.sol\":248:251  i++ */\n  dup1\n  dup1\n  tag_13\n  swap1\n  tag_14\n  jump\t// in\ntag_13:\n  swap2\n  pop\n  pop\n    /* \"evidence/factory.sol\":215:303  for(uint256 i=0;i<_signer.length;i++){\r... */\n  jump(tag_6)\ntag_7:\n  pop\n    /* \"evidence/factory.sol\":167:310  constructor(address[] memory _signer){\r... */\n  pop\n    /* \"evidence/factory.sol\":54:696  contract EvidenceFactory is IEvdence{\r... */\n  jump(tag_15)\n    /* \"#utility.yul\":24:768   */\ntag_17:\n    /* \"#utility.yul\":131:136   */\n  0x00\n    /* \"#utility.yul\":156:237   */\n  tag_19\n    /* \"#utility.yul\":172:236   */\n  tag_20\n    /* \"#utility.yul\":229:235   */\n  dup5\n    /* \"#utility.yul\":172:236   */\n  tag_21\n  jump\t// in\ntag_20:\n    /* \"#utility.yul\":156:237   */\n  tag_22\n  jump\t// in\ntag_19:\n    /* \"#utility.yul\":147:237   */\n  swap1\n  pop\n    /* \"#utility.yul\":257:262   */\n  dup1\n    /* \"#utility.yul\":286:292   */\n  dup4\n    /* \"#utility.yul\":279:284   */\n  dup3\n    /* \"#utility.yul\":272:293   */\n  mstore\n    /* \"#utility.yul\":320:324   */\n  0x20\n    /* \"#utility.yul\":313:318   */\n  dup3\n    /* \"#utility.yul\":309:325   */\n  add\n    /* \"#utility.yul\":302:325   */\n  swap1\n  pop\n    /* \"#utility.yul\":346:352   */\n  dup3\n    /* \"#utility.yul\":396:399   */\n  dup6\n    /* \"#utility.yul\":388:392   */\n  0x20\n    /* \"#utility.yul\":380:386   */\n  dup7\n    /* \"#utility.yul\":376:393   */\n  mul\n    /* \"#utility.yul\":371:374   */\n  dup3\n    /* \"#utility.yul\":367:394   */\n  add\n    /* \"#utility.yul\":364:400   */\n  gt\n    /* \"#utility.yul\":361:504   */\n  iszero\n  tag_23\n  jumpi\n    /* \"#utility.yul\":415:494   */\n  tag_24\n  tag_25\n  jump\t// in\ntag_24:\n    /* \"#utility.yul\":361:504   */\ntag_23:\n    /* \"#utility.yul\":528:529   */\n  0x00\n    /* \"#utility.yul\":513:762   */\ntag_26:\n    /* \"#utility.yul\":538:544   */\n  dup6\n    /* \"#utility.yul\":535:536   */\n  dup2\n    /* \"#utility.yul\":532:545   */\n  lt\n    /* \"#utility.yul\":513:762   */\n  iszero\n  tag_28\n  jumpi\n    /* \"#utility.yul\":606:609   */\n  dup2\n    /* \"#utility.yul\":635:683   */\n  tag_29\n    /* \"#utility.yul\":679:682   */\n  dup9\n    /* \"#utility.yul\":667:677   */\n  dup3\n    /* \"#utility.yul\":635:683   */\n  tag_30\n  jump\t// in\ntag_29:\n    /* \"#utility.yul\":630:633   */\n  dup5\n    /* \"#utility.yul\":623:684   */\n  mstore\n    /* \"#utility.yul\":713:717   */\n  0x20\n    /* \"#utility.yul\":708:711   */\n  dup5\n    /* \"#utility.yul\":704:718   */\n  add\n    /* \"#utility.yul\":697:718   */\n  swap4\n  pop\n    /* \"#utility.yul\":747:751   */\n  0x20\n    /* \"#utility.yul\":742:745   */\n  dup4\n    /* \"#utility.yul\":738:752   */\n  add\n    /* \"#utility.yul\":731:752   */\n  swap3\n  pop\n    /* \"#utility.yul\":573:762   */\n  pop\n    /* \"#utility.yul\":560:561   */\n  0x01\n    /* \"#utility.yul\":557:558   */\n  dup2\n    /* \"#utility.yul\":553:562   */\n  add\n    /* \"#utility.yul\":548:562   */\n  swap1\n  pop\n    /* \"#utility.yul\":513:762   */\n  jump(tag_26)\ntag_28:\n    /* \"#utility.yul\":517:531   */\n  pop\n    /* \"#utility.yul\":137:768   */\n  pop\n  pop\n    /* \"#utility.yul\":24:768   */\n  swap4\n  swap3\n  pop\n  pop\n  pop\n  jump\t// out\n    /* \"#utility.yul\":774:917   */\ntag_30:\n    /* \"#utility.yul\":831:836   */\n  0x00\n    /* \"#utility.yul\":862:868   */\n  dup2\n    /* \"#utility.yul\":856:869   */\n  mload\n    /* \"#utility.yul\":847:869   */\n  swap1\n  pop\n    /* \"#utility.yul\":878:911   */\n  tag_32\n    /* \"#utility.yul\":905:910   */\n  dup2\n    /* \"#utility.yul\":878:911   */\n  tag_33\n  jump\t// in\ntag_32:\n    /* \"#utility.yul\":774:917   */\n  swap3\n  swap2\n  pop\n  pop\n  jump\t// out\n    /* \"#utility.yul\":940:1325   */\ntag_34:\n    /* \"#utility.yul\":1022:1027   */\n  0x00\n    /* \"#utility.yul\":1071:1074   */\n  dup3\n    /* \"#utility.yul\":1064:1068   */\n  0x1f\n    /* \"#utility.yul\":1056:1062   */\n  dup4\n    /* \"#utility.yul\":1052:1069   */\n  add\n    /* \"#utility.yul\":1048:1075   */\n  slt\n    /* \"#utility.yul\":1038:1160   */\n  tag_36\n  jumpi\n    /* \"#utility.yul\":1079:1158   */\n  tag_37\n  tag_38\n  jump\t// in\ntag_37:\n    /* \"#utility.yul\":1038:1160   */\ntag_36:\n    /* \"#utility.yul\":1189:1195   */\n  dup2\n    /* \"#utility.yul\":1183:1196   */\n  mload\n    /* \"#utility.yul\":1214:1319   */\n  tag_39\n    /* \"#utility.yul\":1315:1318   */\n  dup5\n    /* \"#utility.yul\":1307:1313   */\n  dup3\n    /* \"#utility.yul\":1300:1304   */\n  0x20\n    /* \"#utility.yul\":1292:1298   */\n  dup7\n    /* \"#utility.yul\":1288:1305   */\n  add\n    /* \"#utility.yul\":1214:1319   */\n  tag_17\n  jump\t// in\ntag_39:\n    /* \"#utility.yul\":1205:1319   */\n  swap2\n  pop\n    /* \"#utility.yul\":1028:1325   */\n  pop\n    /* \"#utility.yul\":940:1325   */\n  swap3\n  swap2\n  pop\n  pop\n  jump\t// out\n    /* \"#utility.yul\":1331:1885   */\ntag_3:\n    /* \"#utility.yul\":1426:1432   */\n  0x00\n    /* \"#utility.yul\":1475:1477   */\n  0x20\n    /* \"#utility.yul\":1463:1472   */\n  dup3\n    /* \"#utility.yul\":1454:1461   */\n  dup5\n    /* \"#utility.yul\":1450:1473   */\n  sub\n    /* \"#utility.yul\":1446:1478   */\n  slt\n    /* \"#utility.yul\":1443:1562   */\n  iszero\n  tag_41\n  jumpi\n    /* \"#utility.yul\":1481:1560   */\n  tag_42\n  tag_43\n  jump\t// in\ntag_42:\n    /* \"#utility.yul\":1443:1562   */\ntag_41:\n    /* \"#utility.yul\":1622:1623   */\n  0x00\n    /* \"#utility.yul\":1611:1620   */\n  dup3\n    /* \"#utility.yul\":1607:1624   */\n  add\n    /* \"#utility.yul\":1601:1625   */\n  mload\n    /* \"#utility.yul\":1652:1670   */\n  0xffffffffffffffff\n    /* \"#utility.yul\":1644:1650   */\n  dup2\n    /* \"#utility.yul\":1641:1671   */\n  gt\n    /* \"#utility.yul\":1638:1755   */\n  iszero\n  tag_44\n  jumpi\n    /* \"#utility.yul\":1674:1753   */\n  tag_45\n  tag_46\n  jump\t// in\ntag_45:\n    /* \"#utility.yul\":1638:1755   */\ntag_44:\n    /* \"#utility.yul\":1779:1868   */\n  tag_47\n    /* \"#utility.yul\":1860:1867   */\n  dup5\n    /* \"#utility.yul\":1851:1857   */\n  dup3\n    /* \"#utility.yul\":1840:1849   */\n  dup6\n    /* \"#utility.yul\":1836:1858   */\n  add\n    /* \"#utility.yul\":1779:1868   */\n  tag_34\n  jump\t// in\ntag_47:\n    /* \"#utility.yul\":1769:1868   */\n  swap2\n  pop\n    /* \"#utility.yul\":1572:1878   */\n  pop\n    /* \"#utility.yul\":1331:1885   */\n  swap3\n  swap2\n  pop\n  pop\n  jump\t// out\n    /* \"#utility.yul\":1891:2020   */\ntag_22:\n    /* \"#utility.yul\":1925:1931   */\n  0x00\n    /* \"#utility.yul\":1952:1972   */\n  tag_49\n  tag_50\n  jump\t// in\ntag_49:\n    /* \"#utility.yul\":1942:1972   */\n  swap1\n  pop\n    /* \"#utility.yul\":1981:2014   */\n  tag_51\n    /* \"#utility.yul\":2009:2013   */\n  dup3\n    /* \"#utility.yul\":2001:2007   */\n  dup3\n    /* \"#utility.yul\":1981:2014   */\n  tag_52\n  jump\t// in\ntag_51:\n    /* \"#utility.yul\":1891:2020   */\n  swap2\n  swap1\n  pop\n  jump\t// out\n    /* \"#utility.yul\":2026:2101   */\ntag_50:\n    /* \"#utility.yul\":2059:2065   */\n  0x00\n    /* \"#utility.yul\":2092:2094   */\n  0x40\n    /* \"#utility.yul\":2086:2095   */\n  mload\n    /* \"#utility.yul\":2076:2095   */\n  swap1\n  pop\n    /* \"#utility.yul\":2026:2101   */\n  swap1\n  jump\t// out\n    /* \"#utility.yul\":2107:2418   */\ntag_21:\n    /* \"#utility.yul\":2184:2188   */\n  0x00\n    /* \"#utility.yul\":2274:2292   */\n  0xffffffffffffffff\n    /* \"#utility.yul\":2266:2272   */\n  dup3\n    /* \"#utility.yul\":2263:2293   */\n  gt\n    /* \"#utility.yul\":2260:2316   */\n  iszero\n  tag_55\n  jumpi\n    /* \"#utility.yul\":2296:2314   */\n  tag_56\n  tag_57\n  jump\t// in\ntag_56:\n    /* \"#utility.yul\":2260:2316   */\ntag_55:\n    /* \"#utility.yul\":2346:2350   */\n  0x20\n    /* \"#utility.yul\":2338:2344   */\n  dup3\n    /* \"#utility.yul\":2334:2351   */\n  mul\n    /* \"#utility.yul\":2326:2351   */\n  swap1\n  pop\n    /* \"#utility.yul\":2406:2410   */\n  0x20\n    /* \"#utility.yul\":2400:2404   */\n  dup2\n    /* \"#utility.yul\":2396:2411   */\n  add\n    /* \"#utility.yul\":2388:2411   */\n  swap1\n  pop\n    /* \"#utility.yul\":2107:2418   */\n  swap2\n  swap1\n  pop\n  jump\t// out\n    /* \"#utility.yul\":2424:2520   */\ntag_58:\n    /* \"#utility.yul\":2461:2468   */\n  0x00\n    /* \"#utility.yul\":2490:2514   */\n  tag_60\n    /* \"#utility.yul\":2508:2513   */\n  dup3\n    /* \"#utility.yul\":2490:2514   */\n  tag_61\n  jump\t// in\ntag_60:\n    /* \"#utility.yul\":2479:2514   */\n  swap1\n  pop\n    /* \"#utility.yul\":2424:2520   */\n  swap2\n  swap1\n  pop\n  jump\t// out\n    /* \"#utility.yul\":2526:2652   */\ntag_61:\n    /* \"#utility.yul\":2563:2570   */\n  0x00\n    /* \"#utility.yul\":2603:2645   */\n  0xffffffffffffffffffffffffffffffffffffffff\n    /* \"#utility.yul\":2596:2601   */\n  dup3\n    /* \"#utility.yul\":2592:2646   */\n  and\n    /* \"#utility.yul\":2581:2646   */\n  swap1\n  pop\n    /* \"#utility.yul\":2526:2652   */\n  swap2\n  swap1\n  pop\n  jump\t// out\n    /* \"#utility.yul\":2658:2735   */\ntag_63:\n    /* \"#utility.yul\":2695:2702   */\n  0x00\n    /* \"#utility.yul\":2724:2729   */\n  dup2\n    /* \"#utility.yul\":2713:2729   */\n  swap1\n  pop\n    /* \"#utility.yul\":2658:2735   */\n  swap2\n  swap1\n  pop\n  jump\t// out\n    /* \"#utility.yul\":2741:3022   */\ntag_52:\n    /* \"#utility.yul\":2824:2851   */\n  tag_66\n    /* \"#utility.yul\":2846:2850   */\n  dup3\n    /* \"#utility.yul\":2824:2851   */\n  tag_67\n  jump\t// in\ntag_66:\n    /* \"#utility.yul\":2816:2822   */\n  dup2\n    /* \"#utility.yul\":2812:2852   */\n  add\n    /* \"#utility.yul\":2954:2960   */\n  dup2\n    /* \"#utility.yul\":2942:2952   */\n  dup2\n    /* \"#utility.yul\":2939:2961   */\n  lt\n    /* \"#utility.yul\":2918:2936   */\n  0xffffffffffffffff\n    /* \"#utility.yul\":2906:2916   */\n  dup3\n    /* \"#utility.yul\":2903:2937   */\n  gt\n    /* \"#utility.yul\":2900:2962   */\n  or\n    /* \"#utility.yul\":2897:2985   */\n  iszero\n  tag_68\n  jumpi\n    /* \"#utility.yul\":2965:2983   */\n  tag_69\n  tag_57\n  jump\t// in\ntag_69:\n    /* \"#utility.yul\":2897:2985   */\ntag_68:\n    /* \"#utility.yul\":3005:3015   */\n  dup1\n    /* \"#utility.yul\":3001:3003   */\n  0x40\n    /* \"#utility.yul\":2994:3016   */\n  mstore\n    /* \"#utility.yul\":2784:3022   */\n  pop\n    /* \"#utility.yul\":2741:3022   */\n  pop\n  pop\n  jump\t// out\n    /* \"#utility.yul\":3028:3261   */\ntag_14:\n    /* \"#utility.yul\":3067:3070   */\n  0x00\n    /* \"#utility.yul\":3090:3114   */\n  tag_71\n    /* \"#utility.yul\":3108:3113   */\n  dup3\n    /* \"#utility.yul\":3090:3114   */\n  tag_63\n  jump\t// in\ntag_71:\n    /* \"#utility.yul\":3081:3114   */\n  swap2\n  pop\n    /* \"#utility.yul\":3136:3202   */\n  0xffffffffffffffffffffffffffffffffffffffffffffffffffffffffffffffff\n    /* \"#utility.yul\":3129:3134   */\n  dup3\n    /* \"#utility.yul\":3126:3203   */\n  eq\n    /* \"#utility.yul\":3123:3226   */\n  iszero\n  tag_72\n  jumpi\n    /* \"#utility.yul\":3206:3224   */\n  tag_73\n  tag_74\n  jump\t// in\ntag_73:\n    /* \"#utility.yul\":3123:3226   */\ntag_72:\n    /* \"#utility.yul\":3253:3254   */\n  0x01\n    /* \"#utility.yul\":3246:3251   */\n  dup3\n    /* \"#utility.yul\":3242:3255   */\n  add\n    /* \"#utility.yul\":3235:3255   */\n  swap1\n  pop\n    /* \"#utility.yul\":3028:3261   */\n  swap2\n  swap1\n  pop\n  jump\t// out\n    /* \"#utility.yul\":3267:3447   */\ntag_74:\n    /* \"#utility.yul\":3315:3392   */\n  0x4e487b7100000000000000000000000000000000000000000000000000000000\n    /* \"#utility.yul\":3312:3313   */\n  0x00\n    /* \"#utility.yul\":3305:3393   */\n  mstore\n    /* \"#utility.yul\":3412:3416   */\n  0x11\n    /* \"#utility.yul\":3409:3410   */\n  0x04\n    /* \"#utility.yul\":3402:3417   */\n  mstore\n    /* \"#utility.yul\":3436:3440   */\n  0x24\n    /* \"#utility.yul\":3433:3434   */\n  0x00\n    /* \"#utility.yul\":3426:3441   */\n  revert\n    /* \"#utility.yul\":3453:3633   */\ntag_11:\n    /* \"#utility.yul\":3501:3578   */\n  0x4e487b7100000000000000000000000000000000000000000000000000000000\n    /* \"#utility.yul\":3498:3499   */\n  0x00\n    /* \"#utility.yul\":3491:3579   */\n  mstore\n    /* \"#utility.yul\":3598:3602   */\n  0x32\n    /* \"#utility.yul\":3595:3596   */\n  0x04\n    /* \"#utility.yul\":3588:3603   */\n  mstore\n    /* \"#utility.yul\":3622:3626   */\n  0x24\n    /* \"#utility.yul\":3619:3620   */\n  0x00\n    /* \"#utility.yul\":3612:3627   */\n  revert\n    /* \"#utility.yul\":3639:3819   */\ntag_57:\n    /* \"#utility.yul\":3687:3764   */\n  0x4e487b7100000000000000000000000000000000000000000000000000000000\n    /* \"#utility.yul\":3684:3685   */\n  0x00\n    /* \"#utility.yul\":3677:3765   */\n  mstore\n    /* \"#utility.yul\":3784:3788   */\n  0x41\n    /* \"#utility.yul\":3781:3782   */\n  0x04\n    /* \"#utility.yul\":3774:3789   */\n  mstore\n    /* \"#utility.yul\":3808:3812   */\n  0x24\n    /* \"#utility.yul\":3805:3806   */\n  0x00\n    /* \"#utility.yul\":3798:3813   */\n  revert\n    /* \"#utility.yul\":3825:3942   */\ntag_38:\n    /* \"#utility.yul\":3934:3935   */\n  0x00\n    /* \"#utility.yul\":3931:3932   */\n  dup1\n    /* \"#utility.yul\":3924:3936   */\n  revert\n    /* \"#utility.yul\":3948:4065   */\ntag_25:\n    /* \"#utility.yul\":4057:4058   */\n  0x00\n    /* \"#utility.yul\":4054:4055   */\n  dup1\n    /* \"#utility.yul\":4047:4059   */\n  revert\n    /* \"#utility.yul\":4071:4188   */\ntag_46:\n    /* \"#utility.yul\":4180:4181   */\n  0x00\n    /* \"#utility.yul\":4177:4178   */\n  dup1\n    /* \"#utility.yul\":4170:4182   */\n  revert\n    /* \"#utility.yul\":4194:4311   */\ntag_43:\n    /* \"#utility.yul\":4303:4304   */\n  0x00\n    /* \"#utility.yul\":4300:4301   */\n  dup1\n    /* \"#utility.yul\":4293:4305   */\n  revert\n    /* \"#utility.yul\":4317:4419   */\ntag_67:\n    /* \"#utility.yul\":4358:4364   */\n  0x00\n    /* \"#utility.yul\":4409:4411   */\n  0x1f\n    /* \"#utility.yul\":4405:4412   */\n  not\n    /* \"#utility.yul\":4400:4402   */\n  0x1f\n    /* \"#utility.yul\":4393:4398   */\n  dup4\n    /* \"#utility.yul\":4389:4403   */\n  add\n    /* \"#utility.yul\":4385:4413   */\n  and\n    /* \"#utility.yul\":4375:4413   */\n  swap1\n  pop\n    /* \"#utility.yul\":4317:4419   */\n  swap2\n  swap1\n  pop\n  jump\t// out\n    /* \"#utility.yul\":4425:4547   */\ntag_33:\n    /* \"#utility.yul\":4498:4522   */\n  tag_84\n    /* \"#utility.yul\":4516:4521   */\n  dup2\n    /* \"#utility.yul\":4498:4522   */\n  tag_58\n  jump\t// in\ntag_84:\n    /* \"#utility.yul\":4491:4496   */\n  dup2\n    /* \"#utility.yul\":4488:4523   */\n  eq\n    /* \"#utility.yul\":4478:4541   */\n  tag_85\n  jumpi\n    /* \"#utility.yul\":4537:4538   */\n  0x00\n    /* \"#utility.yul\":4534:4535   */\n  dup1\n    /* \"#utility.yul\":4527:4539   */\n  revert\n    /* \"#utility.yul\":4478:4541   */\ntag_85:\n    /* \"#utility.yul\":4425:4547   */\n  pop\n  jump\t// out\n    /* \"evidence/factory.sol\":54:696  contract EvidenceFactory is IEvdence{\r... */\ntag_15:\n  dataSize(sub_0)\n  dup1\n  dataOffset(sub_0)\n  0x00\n  codecopy\n  0x00\n  return\nstop\n\nsub_0: assembly {\n        /* \"evidence/factory.sol\":54:696  contract EvidenceFactory is IEvdence{\r... */\n      mstore(0x40, 0x80)\n      callvalue\n      dup1\n      iszero\n      tag_1\n      jumpi\n      0x00\n      dup1\n      revert\n    tag_1:\n      pop\n      jumpi(tag_2, lt(calldatasize, 0x04))\n      shr(0xe0, calldataload(0x00))\n      dup1\n      0x3ffefe4e\n      eq\n      tag_3\n      jumpi\n      dup1\n      0x63a9c3d7\n      eq\n      tag_4\n      jumpi\n      dup1\n      0xfa69efbd\n      eq\n      tag_5\n      jumpi\n    tag_2:\n      0x00\n      dup1\n      revert\n        /* \"evidence/factory.sol\":515:609  function getSigner(uint256 _index) override external view returns(address){\r... */\n    tag_3:\n      tag_6\n      0x04\n      dup1\n      calldatasize\n      sub\n      dup2\n      add\n      swap1\n      tag_7\n      swap2\n      swap1\n      tag_8\n      jump\t// in\n    tag_7:\n      tag_9\n      jump\t// in\n    tag_6:\n      mload(0x40)\n      tag_10\n      swap2\n      swap1\n      tag_11\n      jump\t// in\n    tag_10:\n      mload(0x40)\n      dup1\n      swap2\n      sub\n      swap1\n      return\n        /* \"evidence/factory.sol\":318:509  function verify(address _signer) override external view returns (bool){\r... */\n    tag_4:\n      tag_12\n      0x04\n      dup1\n      calldatasize\n      sub\n      dup2\n      add\n      swap1\n      tag_13\n      swap2\n      swap1\n      tag_14\n      jump\t// in\n    tag_13:\n      tag_15\n      jump\t// in\n    tag_12:\n      mload(0x40)\n      tag_16\n      swap2\n      swap1\n      tag_17\n      jump\t// in\n    tag_16:\n      mload(0x40)\n      dup1\n      swap2\n      sub\n      swap1\n      return\n        /* \"evidence/factory.sol\":615:691  function getSignersSize() override external view returns (uint256){\r... */\n    tag_5:\n      tag_18\n      tag_19\n      jump\t// in\n    tag_18:\n      mload(0x40)\n      tag_20\n      swap2\n      swap1\n      tag_21\n      jump\t// in\n    tag_20:\n      mload(0x40)\n      dup1\n      swap2\n      sub\n      swap1\n      return\n        /* \"evidence/factory.sol\":515:609  function getSigner(uint256 _index) override external view returns(address){\r... */\n    tag_9:\n        /* \"evidence/factory.sol\":581:588  address */\n      0x00\n        /* \"evidence/factory.sol\":515:609  function getSigner(uint256 _index) override external view returns(address){\r... */\n      swap2\n      swap1\n      pop\n      jump\t// out\n        /* \"evidence/factory.sol\":318:509  function verify(address _signer) override external view returns (bool){\r... */\n    tag_15:\n        /* \"evidence/factory.sol\":383:387  bool */\n      0x00\n        /* \"evidence/factory.sol\":403:412  uint256 i */\n      dup1\n        /* \"evidence/factory.sol\":413:414  0 */\n      0x00\n        /* \"evidence/factory.sol\":403:414  uint256 i=0 */\n      swap1\n      pop\n        /* \"evidence/factory.sol\":417:424  signers */\n      0x00\n        /* \"evidence/factory.sol\":417:431  signers.length */\n      dup1\n      sload\n      swap1\n      pop\n        /* \"evidence/factory.sol\":415:416  i */\n      dup2\n        /* \"evidence/factory.sol\":415:431  i<signers.length */\n      lt\n        /* \"evidence/factory.sol\":399:474  for(uint256 i=0;i<signers.length;i++){\r... */\n      iszero\n      tag_25\n      jumpi\n        /* \"evidence/factory.sol\":458:462  true */\n      0x01\n        /* \"evidence/factory.sol\":451:462  return true */\n      swap2\n      pop\n      pop\n      jump(tag_23)\n        /* \"evidence/factory.sol\":399:474  for(uint256 i=0;i<signers.length;i++){\r... */\n    tag_25:\n      pop\n        /* \"evidence/factory.sol\":494:499  false */\n      0x00\n        /* \"evidence/factory.sol\":487:499  return false */\n      swap1\n      pop\n        /* \"evidence/factory.sol\":318:509  function verify(address _signer) override external view returns (bool){\r... */\n    tag_23:\n      swap2\n      swap1\n      pop\n      jump\t// out\n        /* \"evidence/factory.sol\":615:691  function getSignersSize() override external view returns (uint256){\r... */\n    tag_19:\n        /* \"evidence/factory.sol\":673:680  uint256 */\n      0x00\n        /* \"evidence/factory.sol\":615:691  function getSignersSize() override external view returns (uint256){\r... */\n      swap1\n      jump\t// out\n        /* \"#utility.yul\":7:146   */\n    tag_31:\n        /* \"#utility.yul\":53:58   */\n      0x00\n        /* \"#utility.yul\":91:97   */\n      dup2\n        /* \"#utility.yul\":78:98   */\n      calldataload\n        /* \"#utility.yul\":69:98   */\n      swap1\n      pop\n        /* \"#utility.yul\":107:140   */\n      tag_33\n        /* \"#utility.yul\":134:139   */\n      dup2\n        /* \"#utility.yul\":107:140   */\n      tag_34\n      jump\t// in\n    tag_33:\n        /* \"#utility.yul\":7:146   */\n      swap3\n      swap2\n      pop\n      pop\n      jump\t// out\n        /* \"#utility.yul\":152:291   */\n    tag_35:\n        /* \"#utility.yul\":198:203   */\n      0x00\n        /* \"#utility.yul\":236:242   */\n      dup2\n        /* \"#utility.yul\":223:243   */\n      calldataload\n        /* \"#utility.yul\":214:243   */\n      swap1\n      pop\n        /* \"#utility.yul\":252:285   */\n      tag_37\n        /* \"#utility.yul\":279:284   */\n      dup2\n        /* \"#utility.yul\":252:285   */\n      tag_38\n      jump\t// in\n    tag_37:\n        /* \"#utility.yul\":152:291   */\n      swap3\n      swap2\n      pop\n      pop\n      jump\t// out\n        /* \"#utility.yul\":297:626   */\n    tag_14:\n        /* \"#utility.yul\":356:362   */\n      0x00\n        /* \"#utility.yul\":405:407   */\n      0x20\n        /* \"#utility.yul\":393:402   */\n      dup3\n        /* \"#utility.yul\":384:391   */\n      dup5\n        /* \"#utility.yul\":380:403   */\n      sub\n        /* \"#utility.yul\":376:408   */\n      slt\n        /* \"#utility.yul\":373:492   */\n      iszero\n      tag_40\n      jumpi\n        /* \"#utility.yul\":411:490   */\n      tag_41\n      tag_42\n      jump\t// in\n    tag_41:\n        /* \"#utility.yul\":373:492   */\n    tag_40:\n        /* \"#utility.yul\":531:532   */\n      0x00\n        /* \"#utility.yul\":556:609   */\n      tag_43\n        /* \"#utility.yul\":601:608   */\n      dup5\n        /* \"#utility.yul\":592:598   */\n      dup3\n        /* \"#utility.yul\":581:590   */\n      dup6\n        /* \"#utility.yul\":577:599   */\n      add\n        /* \"#utility.yul\":556:609   */\n      tag_31\n      jump\t// in\n    tag_43:\n        /* \"#utility.yul\":546:609   */\n      swap2\n      pop\n        /* \"#utility.yul\":502:619   */\n      pop\n        /* \"#utility.yul\":297:626   */\n      swap3\n      swap2\n      pop\n      pop\n      jump\t// out\n        /* \"#utility.yul\":632:961   */\n    tag_8:\n        /* \"#utility.yul\":691:697   */\n      0x00\n        /* \"#utility.yul\":740:742   */\n      0x20\n        /* \"#utility.yul\":728:737   */\n      dup3\n        /* \"#utility.yul\":719:726   */\n      dup5\n        /* \"#utility.yul\":715:738   */\n      sub\n        /* \"#utility.yul\":711:743   */\n      slt\n        /* \"#utility.yul\":708:827   */\n      iszero\n      tag_45\n      jumpi\n        /* \"#utility.yul\":746:825   */\n      tag_46\n      tag_42\n      jump\t// in\n    tag_46:\n        /* \"#utility.yul\":708:827   */\n    tag_45:\n        /* \"#utility.yul\":866:867   */\n      0x00\n        /* \"#utility.yul\":891:944   */\n      tag_47\n        /* \"#utility.yul\":936:943   */\n      dup5\n        /* \"#utility.yul\":927:933   */\n      dup3\n        /* \"#utility.yul\":916:925   */\n      dup6\n        /* \"#utility.yul\":912:934   */\n      add\n        /* \"#utility.yul\":891:944   */\n      tag_35\n      jump\t// in\n    tag_47:\n        /* \"#utility.yul\":881:944   */\n      swap2\n      pop\n        /* \"#utility.yul\":837:954   */\n      pop\n        /* \"#utility.yul\":632:961   */\n      swap3\n      swap2\n      pop\n      pop\n      jump\t// out\n        /* \"#utility.yul\":967:1085   */\n    tag_48:\n        /* \"#utility.yul\":1054:1078   */\n      tag_50\n        /* \"#utility.yul\":1072:1077   */\n      dup2\n        /* \"#utility.yul\":1054:1078   */\n      tag_51\n      jump\t// in\n    tag_50:\n        /* \"#utility.yul\":1049:1052   */\n      dup3\n        /* \"#utility.yul\":1042:1079   */\n      mstore\n        /* \"#utility.yul\":967:1085   */\n      pop\n      pop\n      jump\t// out\n        /* \"#utility.yul\":1091:1200   */\n    tag_52:\n        /* \"#utility.yul\":1172:1193   */\n      tag_54\n        /* \"#utility.yul\":1187:1192   */\n      dup2\n        /* \"#utility.yul\":1172:1193   */\n      tag_55\n      jump\t// in\n    tag_54:\n        /* \"#utility.yul\":1167:1170   */\n      dup3\n        /* \"#utility.yul\":1160:1194   */\n      mstore\n        /* \"#utility.yul\":1091:1200   */\n      pop\n      pop\n      jump\t// out\n        /* \"#utility.yul\":1206:1324   */\n    tag_56:\n        /* \"#utility.yul\":1293:1317   */\n      tag_58\n        /* \"#utility.yul\":1311:1316   */\n      dup2\n        /* \"#utility.yul\":1293:1317   */\n      tag_59\n      jump\t// in\n    tag_58:\n        /* \"#utility.yul\":1288:1291   */\n      dup3\n        /* \"#utility.yul\":1281:1318   */\n      mstore\n        /* \"#utility.yul\":1206:1324   */\n      pop\n      pop\n      jump\t// out\n        /* \"#utility.yul\":1330:1552   */\n    tag_11:\n        /* \"#utility.yul\":1423:1427   */\n      0x00\n        /* \"#utility.yul\":1461:1463   */\n      0x20\n        /* \"#utility.yul\":1450:1459   */\n      dup3\n        /* \"#utility.yul\":1446:1464   */\n      add\n        /* \"#utility.yul\":1438:1464   */\n      swap1\n      pop\n        /* \"#utility.yul\":1474:1545   */\n      tag_61\n        /* \"#utility.yul\":1542:1543   */\n      0x00\n        /* \"#utility.yul\":1531:1540   */\n      dup4\n        /* \"#utility.yul\":1527:1544   */\n      add\n        /* \"#utility.yul\":1518:1524   */\n      dup5\n        /* \"#utility.yul\":1474:1545   */\n      tag_48\n      jump\t// in\n    tag_61:\n        /* \"#utility.yul\":1330:1552   */\n      swap3\n      swap2\n      pop\n      pop\n      jump\t// out\n        /* \"#utility.yul\":1558:1768   */\n    tag_17:\n        /* \"#utility.yul\":1645:1649   */\n      0x00\n        /* \"#utility.yul\":1683:1685   */\n      0x20\n        /* \"#utility.yul\":1672:1681   */\n      dup3\n        /* \"#utility.yul\":1668:1686   */\n      add\n        /* \"#utility.yul\":1660:1686   */\n      swap1\n      pop\n        /* \"#utility.yul\":1696:1761   */\n      tag_63\n        /* \"#utility.yul\":1758:1759   */\n      0x00\n        /* \"#utility.yul\":1747:1756   */\n      dup4\n        /* \"#utility.yul\":1743:1760   */\n      add\n        /* \"#utility.yul\":1734:1740   */\n      dup5\n        /* \"#utility.yul\":1696:1761   */\n      tag_52\n      jump\t// in\n    tag_63:\n        /* \"#utility.yul\":1558:1768   */\n      swap3\n      swap2\n      pop\n      pop\n      jump\t// out\n        /* \"#utility.yul\":1774:1996   */\n    tag_21:\n        /* \"#utility.yul\":1867:1871   */\n      0x00\n        /* \"#utility.yul\":1905:1907   */\n      0x20\n        /* \"#utility.yul\":1894:1903   */\n      dup3\n        /* \"#utility.yul\":1890:1908   */\n      add\n        /* \"#utility.yul\":1882:1908   */\n      swap1\n      pop\n        /* \"#utility.yul\":1918:1989   */\n      tag_65\n        /* \"#utility.yul\":1986:1987   */\n      0x00\n        /* \"#utility.yul\":1975:1984   */\n      dup4\n        /* \"#utility.yul\":1971:1988   */\n      add\n        /* \"#utility.yul\":1962:1968   */\n      dup5\n        /* \"#utility.yul\":1918:1989   */\n      tag_56\n      jump\t// in\n    tag_65:\n        /* \"#utility.yul\":1774:1996   */\n      swap3\n      swap2\n      pop\n      pop\n      jump\t// out\n        /* \"#utility.yul\":2083:2179   */\n    tag_51:\n        /* \"#utility.yul\":2120:2127   */\n      0x00\n        /* \"#utility.yul\":2149:2173   */\n      tag_69\n        /* \"#utility.yul\":2167:2172   */\n      dup3\n        /* \"#utility.yul\":2149:2173   */\n      tag_70\n      jump\t// in\n    tag_69:\n        /* \"#utility.yul\":2138:2173   */\n      swap1\n      pop\n        /* \"#utility.yul\":2083:2179   */\n      swap2\n      swap1\n      pop\n      jump\t// out\n        /* \"#utility.yul\":2185:2275   */\n    tag_55:\n        /* \"#utility.yul\":2219:2226   */\n      0x00\n        /* \"#utility.yul\":2262:2267   */\n      dup2\n        /* \"#utility.yul\":2255:2268   */\n      iszero\n        /* \"#utility.yul\":2248:2269   */\n      iszero\n        /* \"#utility.yul\":2237:2269   */\n      swap1\n      pop\n        /* \"#utility.yul\":2185:2275   */\n      swap2\n      swap1\n      pop\n      jump\t// out\n        /* \"#utility.yul\":2281:2407   */\n    tag_70:\n        /* \"#utility.yul\":2318:2325   */\n      0x00\n        /* \"#utility.yul\":2358:2400   */\n      0xffffffffffffffffffffffffffffffffffffffff\n        /* \"#utility.yul\":2351:2356   */\n      dup3\n        /* \"#utility.yul\":2347:2401   */\n      and\n        /* \"#utility.yul\":2336:2401   */\n      swap1\n      pop\n        /* \"#utility.yul\":2281:2407   */\n      swap2\n      swap1\n      pop\n      jump\t// out\n        /* \"#utility.yul\":2413:2490   */\n    tag_59:\n        /* \"#utility.yul\":2450:2457   */\n      0x00\n        /* \"#utility.yul\":2479:2484   */\n      dup2\n        /* \"#utility.yul\":2468:2484   */\n      swap1\n      pop\n        /* \"#utility.yul\":2413:2490   */\n      swap2\n      swap1\n      pop\n      jump\t// out\n        /* \"#utility.yul\":3044:3161   */\n    tag_42:\n        /* \"#utility.yul\":3153:3154   */\n      0x00\n        /* \"#utility.yul\":3150:3151   */\n      dup1\n        /* \"#utility.yul\":3143:3155   */\n      revert\n        /* \"#utility.yul\":3167:3289   */\n    tag_34:\n        /* \"#utility.yul\":3240:3264   */\n      tag_84\n        /* \"#utility.yul\":3258:3263   */\n      dup2\n        /* \"#utility.yul\":3240:3264   */\n      tag_51\n      jump\t// in\n    tag_84:\n        /* \"#utility.yul\":3233:3238   */\n      dup2\n        /* \"#utility.yul\":3230:3265   */\n      eq\n        /* \"#utility.yul\":3220:3283   */\n      tag_85\n      jumpi\n        /* \"#utility.yul\":3279:3280   */\n      0x00\n        /* \"#utility.yul\":3276:3277   */\n      dup1\n        /* \"#utility.yul\":3269:3281   */\n      revert\n        /* \"#utility.yul\":3220:3283   */\n    tag_85:\n        /* \"#utility.yul\":3167:3289   */\n      pop\n      jump\t// out\n        /* \"#utility.yul\":3295:3417   */\n    tag_38:\n        /* \"#utility.yul\":3368:3392   */\n      tag_87\n        /* \"#utility.yul\":3386:3391   */\n      dup2\n        /* \"#utility.yul\":3368:3392   */\n      tag_59\n      jump\t// in\n    tag_87:\n        /* \"#utility.yul\":3361:3366   */\n      dup2\n        /* \"#utility.yul\":3358:3393   */\n      eq\n        /* \"#utility.yul\":3348:3411   */\n      tag_88\n      jumpi\n        /* \"#utility.yul\":3407:3408   */\n      0x00\n        /* \"#utility.yul\":3404:3405   */\n      dup1\n        /* \"#utility.yul\":3397:3409   */\n      revert\n        /* \"#utility.yul\":3348:3411   */\n    tag_88:\n        /* \"#utility.yul\":3295:3417   */\n      pop\n      jump\t// out\n\n    auxdata: 0xa2646970667358221220c502f04e665e39dc08fb5dd48364e292d8f86d914317118796504694c9a00a8364736f6c63430008070033\n}\n",
				"bytecode": {
					"linkReferences": {},
					"object": "608060405234801561001057600080fd5b5060405161065c38038061065c83398181016040528101906100329190610188565b60005b81518110156100ce57600082828151811061005357610052610307565b5b60200260200101519080600181540180825580915050600190039060005260206000200160009091909190916101000a81548173ffffffffffffffffffffffffffffffffffffffff021916908373ffffffffffffffffffffffffffffffffffffffff16021790555080806100c69061028f565b915050610035565b50506103a1565b60006100e86100e3846101f6565b6101d1565b9050808382526020820190508285602086028201111561010b5761010a61036a565b5b60005b8581101561013b57816101218882610145565b84526020840193506020830192505060018101905061010e565b5050509392505050565b6000815190506101548161038a565b92915050565b600082601f83011261016f5761016e610365565b5b815161017f8482602086016100d5565b91505092915050565b60006020828403121561019e5761019d610374565b5b600082015167ffffffffffffffff8111156101bc576101bb61036f565b5b6101c88482850161015a565b91505092915050565b60006101db6101ec565b90506101e7828261025e565b919050565b6000604051905090565b600067ffffffffffffffff82111561021157610210610336565b5b602082029050602081019050919050565b600061022d82610234565b9050919050565b600073ffffffffffffffffffffffffffffffffffffffff82169050919050565b6000819050919050565b61026782610379565b810181811067ffffffffffffffff8211171561028657610285610336565b5b80604052505050565b600061029a82610254565b91507fffffffffffffffffffffffffffffffffffffffffffffffffffffffffffffffff8214156102cd576102cc6102d8565b5b600182019050919050565b7f4e487b7100000000000000000000000000000000000000000000000000000000600052601160045260246000fd5b7f4e487b7100000000000000000000000000000000000000000000000000000000600052603260045260246000fd5b7f4e487b7100000000000000000000000000000000000000000000000000000000600052604160045260246000fd5b600080fd5b600080fd5b600080fd5b600080fd5b6000601f19601f8301169050919050565b61039381610222565b811461039e57600080fd5b50565b6102ac806103b06000396000f3fe608060405234801561001057600080fd5b50600436106100415760003560e01c80633ffefe4e1461004657806363a9c3d714610076578063fa69efbd146100a6575b600080fd5b610060600480360381019061005b9190610150565b6100c4565b60405161006d91906101aa565b60405180910390f35b610090600480360381019061008b9190610123565b6100cb565b60405161009d91906101c5565b60405180910390f35b6100ae6100f4565b6040516100bb91906101e0565b60405180910390f35b6000919050565b600080600090506000805490508110156100e95760019150506100ef565b50600090505b919050565b600090565b60008135905061010881610248565b92915050565b60008135905061011d8161025f565b92915050565b60006020828403121561013957610138610243565b5b6000610147848285016100f9565b91505092915050565b60006020828403121561016657610165610243565b5b60006101748482850161010e565b91505092915050565b610186816101fb565b82525050565b6101958161020d565b82525050565b6101a481610239565b82525050565b60006020820190506101bf600083018461017d565b92915050565b60006020820190506101da600083018461018c565b92915050565b60006020820190506101f5600083018461019b565b92915050565b600061020682610219565b9050919050565b60008115159050919050565b600073ffffffffffffffffffffffffffffffffffffffff82169050919050565b6000819050919050565b600080fd5b610251816101fb565b811461025c57600080fd5b50565b61026881610239565b811461027357600080fd5b5056fea2646970667358221220c502f04e665e39dc08fb5dd48364e292d8f86d914317118796504694c9a00a8364736f6c63430008070033",
					"opcodes": "PUSH1 0x80 PUSH1 0x40 MSTORE CALLVALUE DUP1 ISZERO PUSH2 0x10 JUMPI PUSH1 0x0 DUP1 REVERT JUMPDEST POP PUSH1 0x40 MLOAD PUSH2 0x65C CODESIZE SUB DUP1 PUSH2 0x65C DUP4 CODECOPY DUP2 DUP2 ADD PUSH1 0x40 MSTORE DUP2 ADD SWAP1 PUSH2 0x32 SWAP2 SWAP1 PUSH2 0x188 JUMP JUMPDEST PUSH1 0x0 JUMPDEST DUP2 MLOAD DUP2 LT ISZERO PUSH2 0xCE JUMPI PUSH1 0x0 DUP3 DUP3 DUP2 MLOAD DUP2 LT PUSH2 0x53 JUMPI PUSH2 0x52 PUSH2 0x307 JUMP JUMPDEST JUMPDEST PUSH1 0x20 MUL PUSH1 0x20 ADD ADD MLOAD SWAP1 DUP1 PUSH1 0x1 DUP2 SLOAD ADD DUP1 DUP3 SSTORE DUP1 SWAP2 POP POP PUSH1 0x1 SWAP1 SUB SWAP1 PUSH1 0x0 MSTORE PUSH1 0x20 PUSH1 0x0 KECCAK256 ADD PUSH1 0x0 SWAP1 SWAP2 SWAP1 SWAP2 SWAP1 SWAP2 PUSH2 0x100 EXP DUP2 SLOAD DUP2 PUSH20 0xFFFFFFFFFFFFFFFFFFFFFFFFFFFFFFFFFFFFFFFF MUL NOT AND SWAP1 DUP4 PUSH20 0xFFFFFFFFFFFFFFFFFFFFFFFFFFFFFFFFFFFFFFFF AND MUL OR SWAP1 SSTORE POP DUP1 DUP1 PUSH2 0xC6 SWAP1 PUSH2 0x28F JUMP JUMPDEST SWAP2 POP POP PUSH2 0x35 JUMP JUMPDEST POP POP PUSH2 0x3A1 JUMP JUMPDEST PUSH1 0x0 PUSH2 0xE8 PUSH2 0xE3 DUP5 PUSH2 0x1F6 JUMP JUMPDEST PUSH2 0x1D1 JUMP JUMPDEST SWAP1 POP DUP1 DUP4 DUP3 MSTORE PUSH1 0x20 DUP3 ADD SWAP1 POP DUP3 DUP6 PUSH1 0x20 DUP7 MUL DUP3 ADD GT ISZERO PUSH2 0x10B JUMPI PUSH2 0x10A PUSH2 0x36A JUMP JUMPDEST JUMPDEST PUSH1 0x0 JUMPDEST DUP6 DUP2 LT ISZERO PUSH2 0x13B JUMPI DUP2 PUSH2 0x121 DUP9 DUP3 PUSH2 0x145 JUMP JUMPDEST DUP5 MSTORE PUSH1 0x20 DUP5 ADD SWAP4 POP PUSH1 0x20 DUP4 ADD SWAP3 POP POP PUSH1 0x1 DUP2 ADD SWAP1 POP PUSH2 0x10E JUMP JUMPDEST POP POP POP SWAP4 SWAP3 POP POP POP JUMP JUMPDEST PUSH1 0x0 DUP2 MLOAD SWAP1 POP PUSH2 0x154 DUP2 PUSH2 0x38A JUMP JUMPDEST SWAP3 SWAP2 POP POP JUMP JUMPDEST PUSH1 0x0 DUP3 PUSH1 0x1F DUP4 ADD SLT PUSH2 0x16F JUMPI PUSH2 0x16E PUSH2 0x365 JUMP JUMPDEST JUMPDEST DUP2 MLOAD PUSH2 0x17F DUP5 DUP3 PUSH1 0x20 DUP7 ADD PUSH2 0xD5 JUMP JUMPDEST SWAP2 POP POP SWAP3 SWAP2 POP POP JUMP JUMPDEST PUSH1 0x0 PUSH1 0x20 DUP3 DUP5 SUB SLT ISZERO PUSH2 0x19E JUMPI PUSH2 0x19D PUSH2 0x374 JUMP JUMPDEST JUMPDEST PUSH1 0x0 DUP3 ADD MLOAD PUSH8 0xFFFFFFFFFFFFFFFF DUP2 GT ISZERO PUSH2 0x1BC JUMPI PUSH2 0x1BB PUSH2 0x36F JUMP JUMPDEST JUMPDEST PUSH2 0x1C8 DUP5 DUP3 DUP6 ADD PUSH2 0x15A JUMP JUMPDEST SWAP2 POP POP SWAP3 SWAP2 POP POP JUMP JUMPDEST PUSH1 0x0 PUSH2 0x1DB PUSH2 0x1EC JUMP JUMPDEST SWAP1 POP PUSH2 0x1E7 DUP3 DUP3 PUSH2 0x25E JUMP JUMPDEST SWAP2 SWAP1 POP JUMP JUMPDEST PUSH1 0x0 PUSH1 0x40 MLOAD SWAP1 POP SWAP1 JUMP JUMPDEST PUSH1 0x0 PUSH8 0xFFFFFFFFFFFFFFFF DUP3 GT ISZERO PUSH2 0x211 JUMPI PUSH2 0x210 PUSH2 0x336 JUMP JUMPDEST JUMPDEST PUSH1 0x20 DUP3 MUL SWAP1 POP PUSH1 0x20 DUP2 ADD SWAP1 POP SWAP2 SWAP1 POP JUMP JUMPDEST PUSH1 0x0 PUSH2 0x22D DUP3 PUSH2 0x234 JUMP JUMPDEST SWAP1 POP SWAP2 SWAP1 POP JUMP JUMPDEST PUSH1 0x0 PUSH20 0xFFFFFFFFFFFFFFFFFFFFFFFFFFFFFFFFFFFFFFFF DUP3 AND SWAP1 POP SWAP2 SWAP1 POP JUMP JUMPDEST PUSH1 0x0 DUP2 SWAP1 POP SWAP2 SWAP1 POP JUMP JUMPDEST PUSH2 0x267 DUP3 PUSH2 0x379 JUMP JUMPDEST DUP2 ADD DUP2 DUP2 LT PUSH8 0xFFFFFFFFFFFFFFFF DUP3 GT OR ISZERO PUSH2 0x286 JUMPI PUSH2 0x285 PUSH2 0x336 JUMP JUMPDEST JUMPDEST DUP1 PUSH1 0x40 MSTORE POP POP POP JUMP JUMPDEST PUSH1 0x0 PUSH2 0x29A DUP3 PUSH2 0x254 JUMP JUMPDEST SWAP2 POP PUSH32 0xFFFFFFFFFFFFFFFFFFFFFFFFFFFFFFFFFFFFFFFFFFFFFFFFFFFFFFFFFFFFFFFF DUP3 EQ ISZERO PUSH2 0x2CD JUMPI PUSH2 0x2CC PUSH2 0x2D8 JUMP JUMPDEST JUMPDEST PUSH1 0x1 DUP3 ADD SWAP1 POP SWAP2 SWAP1 POP JUMP JUMPDEST PUSH32 0x4E487B7100000000000000000000000000000000000000000000000000000000 PUSH1 0x0 MSTORE PUSH1 0x11 PUSH1 0x4 MSTORE PUSH1 0x24 PUSH1 0x0 REVERT JUMPDEST PUSH32 0x4E487B7100000000000000000000000000000000000000000000000000000000 PUSH1 0x0 MSTORE PUSH1 0x32 PUSH1 0x4 MSTORE PUSH1 0x24 PUSH1 0x0 REVERT JUMPDEST PUSH32 0x4E487B7100000000000000000000000000000000000000000000000000000000 PUSH1 0x0 MSTORE PUSH1 0x41 PUSH1 0x4 MSTORE PUSH1 0x24 PUSH1 0x0 REVERT JUMPDEST PUSH1 0x0 DUP1 REVERT JUMPDEST PUSH1 0x0 DUP1 REVERT JUMPDEST PUSH1 0x0 DUP1 REVERT JUMPDEST PUSH1 0x0 DUP1 REVERT JUMPDEST PUSH1 0x0 PUSH1 0x1F NOT PUSH1 0x1F DUP4 ADD AND SWAP1 POP SWAP2 SWAP1 POP JUMP JUMPDEST PUSH2 0x393 DUP2 PUSH2 0x222 JUMP JUMPDEST DUP2 EQ PUSH2 0x39E JUMPI PUSH1 0x0 DUP1 REVERT JUMPDEST POP JUMP JUMPDEST PUSH2 0x2AC DUP1 PUSH2 0x3B0 PUSH1 0x0 CODECOPY PUSH1 0x0 RETURN INVALID PUSH1 0x80 PUSH1 0x40 MSTORE CALLVALUE DUP1 ISZERO PUSH2 0x10 JUMPI PUSH1 0x0 DUP1 REVERT JUMPDEST POP PUSH1 0x4 CALLDATASIZE LT PUSH2 0x41 JUMPI PUSH1 0x0 CALLDATALOAD PUSH1 0xE0 SHR DUP1 PUSH4 0x3FFEFE4E EQ PUSH2 0x46 JUMPI DUP1 PUSH4 0x63A9C3D7 EQ PUSH2 0x76 JUMPI DUP1 PUSH4 0xFA69EFBD EQ PUSH2 0xA6 JUMPI JUMPDEST PUSH1 0x0 DUP1 REVERT JUMPDEST PUSH2 0x60 PUSH1 0x4 DUP1 CALLDATASIZE SUB DUP2 ADD SWAP1 PUSH2 0x5B SWAP2 SWAP1 PUSH2 0x150 JUMP JUMPDEST PUSH2 0xC4 JUMP JUMPDEST PUSH1 0x40 MLOAD PUSH2 0x6D SWAP2 SWAP1 PUSH2 0x1AA JUMP JUMPDEST PUSH1 0x40 MLOAD DUP1 SWAP2 SUB SWAP1 RETURN JUMPDEST PUSH2 0x90 PUSH1 0x4 DUP1 CALLDATASIZE SUB DUP2 ADD SWAP1 PUSH2 0x8B SWAP2 SWAP1 PUSH2 0x123 JUMP JUMPDEST PUSH2 0xCB JUMP JUMPDEST PUSH1 0x40 MLOAD PUSH2 0x9D SWAP2 SWAP1 PUSH2 0x1C5 JUMP JUMPDEST PUSH1 0x40 MLOAD DUP1 SWAP2 SUB SWAP1 RETURN JUMPDEST PUSH2 0xAE PUSH2 0xF4 JUMP JUMPDEST PUSH1 0x40 MLOAD PUSH2 0xBB SWAP2 SWAP1 PUSH2 0x1E0 JUMP JUMPDEST PUSH1 0x40 MLOAD DUP1 SWAP2 SUB SWAP1 RETURN JUMPDEST PUSH1 0x0 SWAP2 SWAP1 POP JUMP JUMPDEST PUSH1 0x0 DUP1 PUSH1 0x0 SWAP1 POP PUSH1 0x0 DUP1 SLOAD SWAP1 POP DUP2 LT ISZERO PUSH2 0xE9 JUMPI PUSH1 0x1 SWAP2 POP POP PUSH2 0xEF JUMP JUMPDEST POP PUSH1 0x0 SWAP1 POP JUMPDEST SWAP2 SWAP1 POP JUMP JUMPDEST PUSH1 0x0 SWAP1 JUMP JUMPDEST PUSH1 0x0 DUP2 CALLDATALOAD SWAP1 POP PUSH2 0x108 DUP2 PUSH2 0x248 JUMP JUMPDEST SWAP3 SWAP2 POP POP JUMP JUMPDEST PUSH1 0x0 DUP2 CALLDATALOAD SWAP1 POP PUSH2 0x11D DUP2 PUSH2 0x25F JUMP JUMPDEST SWAP3 SWAP2 POP POP JUMP JUMPDEST PUSH1 0x0 PUSH1 0x20 DUP3 DUP5 SUB SLT ISZERO PUSH2 0x139 JUMPI PUSH2 0x138 PUSH2 0x243 JUMP JUMPDEST JUMPDEST PUSH1 0x0 PUSH2 0x147 DUP5 DUP3 DUP6 ADD PUSH2 0xF9 JUMP JUMPDEST SWAP2 POP POP SWAP3 SWAP2 POP POP JUMP JUMPDEST PUSH1 0x0 PUSH1 0x20 DUP3 DUP5 SUB SLT ISZERO PUSH2 0x166 JUMPI PUSH2 0x165 PUSH2 0x243 JUMP JUMPDEST JUMPDEST PUSH1 0x0 PUSH2 0x174 DUP5 DUP3 DUP6 ADD PUSH2 0x10E JUMP JUMPDEST SWAP2 POP POP SWAP3 SWAP2 POP POP JUMP JUMPDEST PUSH2 0x186 DUP2 PUSH2 0x1FB JUMP JUMPDEST DUP3 MSTORE POP POP JUMP JUMPDEST PUSH2 0x195 DUP2 PUSH2 0x20D JUMP JUMPDEST DUP3 MSTORE POP POP JUMP JUMPDEST PUSH2 0x1A4 DUP2 PUSH2 0x239 JUMP JUMPDEST DUP3 MSTORE POP POP JUMP JUMPDEST PUSH1 0x0 PUSH1 0x20 DUP3 ADD SWAP1 POP PUSH2 0x1BF PUSH1 0x0 DUP4 ADD DUP5 PUSH2 0x17D JUMP JUMPDEST SWAP3 SWAP2 POP POP JUMP JUMPDEST PUSH1 0x0 PUSH1 0x20 DUP3 ADD SWAP1 POP PUSH2 0x1DA PUSH1 0x0 DUP4 ADD DUP5 PUSH2 0x18C JUMP JUMPDEST SWAP3 SWAP2 POP POP JUMP JUMPDEST PUSH1 0x0 PUSH1 0x20 DUP3 ADD SWAP1 POP PUSH2 0x1F5 PUSH1 0x0 DUP4 ADD DUP5 PUSH2 0x19B JUMP JUMPDEST SWAP3 SWAP2 POP POP JUMP JUMPDEST PUSH1 0x0 PUSH2 0x206 DUP3 PUSH2 0x219 JUMP JUMPDEST SWAP1 POP SWAP2 SWAP1 POP JUMP JUMPDEST PUSH1 0x0 DUP2 ISZERO ISZERO SWAP1 POP SWAP2 SWAP1 POP JUMP JUMPDEST PUSH1 0x0 PUSH20 0xFFFFFFFFFFFFFFFFFFFFFFFFFFFFFFFFFFFFFFFF DUP3 AND SWAP1 POP SWAP2 SWAP1 POP JUMP JUMPDEST PUSH1 0x0 DUP2 SWAP1 POP SWAP2 SWAP1 POP JUMP JUMPDEST PUSH1 0x0 DUP1 REVERT JUMPDEST PUSH2 0x251 DUP2 PUSH2 0x1FB JUMP JUMPDEST DUP2 EQ PUSH2 0x25C JUMPI PUSH1 0x0 DUP1 REVERT JUMPDEST POP JUMP JUMPDEST PUSH2 0x268 DUP2 PUSH2 0x239 JUMP JUMPDEST DUP2 EQ PUSH2 0x273 JUMPI PUSH1 0x0 DUP1 REVERT JUMPDEST POP JUMP INVALID LOG2 PUSH5 0x6970667358 0x22 SLT KECCAK256 0xC5 MUL CREATE 0x4E PUSH7 0x5E39DC08FB5DD4 DUP4 PUSH5 0xE292D8F86D SWAP2 NUMBER OR GT DUP8 SWAP7 POP CHAINID SWAP5 0xC9 LOG0 EXP DUP4 PUSH5 0x736F6C6343 STOP ADDMOD SMOD STOP CALLER "
				},
				"gasEstimates": {
					"creation": {
						"codeDepositCost": "136800",
						"executionCost": "infinite",
						"totalCost": "infinite"
					},
					"external": {
						"getSigner(uint256)": "621",
						"getSignersSize()": "351",
						"verify(address)": "2815"
					}
				},
				"methodIdentifiers": {
					"getSigner(uint256)": "3ffefe4e",
					"getSignersSize()": "fa69efbd",
					"verify(address)": "63a9c3d7"
				}
			},
			"storageLayout": {
				"storage": [
					{
						"astId": 288,
						"contract": "evidence/factory.sol:EvidenceFactory",
						"label": "signers",
						"offset": 0,
						"slot": "0",
						"type": "t_array(t_address)dyn_storage"
					},
					{
						"astId": 292,
						"contract": "evidence/factory.sol:EvidenceFactory",
						"label": "evi_keys",
						"offset": 0,
						"slot": "1",
						"type": "t_mapping(t_string_memory_ptr,t_address)"
					}
				],
				"types": {
					"t_address": {
						"encoding": "inplace",
						"label": "address",
						"numberOfBytes": "20"
					},
					"t_array(t_address)dyn_storage": {
						"base": "t_address",
						"encoding": "dynamic_array",
						"label": "address[]",
						"numberOfBytes": "32"
					},
					"t_mapping(t_string_memory_ptr,t_address)": {
						"encoding": "mapping",
						"key": "t_string_memory_ptr",
						"label": "mapping(string => address)",
						"numberOfBytes": "32",
						"value": "t_address"
					},
					"t_string_memory_ptr": {
						"encoding": "bytes",
						"label": "string",
						"numberOfBytes": "32"
					}
				}
			},
			"userdoc": {
				"kind": "user",
				"methods": {},
				"version": 1
			}
		}
	}
}