{
	"evidence/evidence.sol": {
		"Evidence": {
			"abi": [
				{
					"inputs": [
						{
							"internalType": "string",
							"name": "_evi",
							"type": "string"
						},
						{
							"internalType": "address",
							"name": "_factory",
							"type": "address"
						}
					],
					"stateMutability": "nonpayable",
					"type": "constructor"
				},
				{
					"anonymous": false,
					"inputs": [
						{
							"indexed": false,
							"internalType": "string",
							"name": "_evi",
							"type": "string"
						},
						{
							"indexed": false,
							"internalType": "address",
							"name": "_sender",
							"type": "address"
						}
					],
					"name": "NewSignaturesEvidence",
					"type": "event"
				},
				{
					"inputs": [
						{
							"internalType": "address",
							"name": "_signer",
							"type": "address"
						}
					],
					"name": "callVerify",
					"outputs": [
						{
							"internalType": "bool",
							"name": "",
							"type": "bool"
						}
					],
					"stateMutability": "view",
					"type": "function"
				},
				{
					"inputs": [],
					"name": "factoryAddr",
					"outputs": [
						{
							"internalType": "address",
							"name": "",
							"type": "address"
						}
					],
					"stateMutability": "view",
					"type": "function"
				},
				{
					"inputs": [],
					"name": "getEvidence",
					"outputs": [
						{
							"internalType": "string",
							"name": "",
							"type": "string"
						},
						{
							"internalType": "address[]",
							"name": "",
							"type": "address[]"
						},
						{
							"internalType": "address[]",
							"name": "",
							"type": "address[]"
						}
					],
					"stateMutability": "view",
					"type": "function"
				}
			],
			"devdoc": {
				"kind": "dev",
				"methods": {},
				"version": 1
			},
			"evm": {
				"assembly": "    /* \"evidence/evidence.sol\":279:1361  contract Evidence {\r... */\n  mstore(0x40, 0x80)\n    /* \"evidence/evidence.sol\":680:947  constructor(string memory _evi,address _factory){\r... */\n  callvalue\n  dup1\n  iszero\n  tag_1\n  jumpi\n  0x00\n  dup1\n  revert\ntag_1:\n  pop\n  mload(0x40)\n  sub(codesize, bytecodeSize)\n  dup1\n  bytecodeSize\n  dup4\n  codecopy\n  dup2\n  dup2\n  add\n  0x40\n  mstore\n  dup2\n  add\n  swap1\n  tag_2\n  swap2\n  swap1\n  tag_3\n  jump\t// in\ntag_2:\n    /* \"evidence/evidence.sol\":753:761  _factory */\n  dup1\n    /* \"evidence/evidence.sol\":739:750  factoryAddr */\n  0x02\n  0x00\n    /* \"evidence/evidence.sol\":739:761  factoryAddr = _factory */\n  0x0100\n  exp\n  dup2\n  sload\n  dup2\n  0xffffffffffffffffffffffffffffffffffffffff\n  mul\n  not\n  and\n  swap1\n  dup4\n  0xffffffffffffffffffffffffffffffffffffffff\n  and\n  mul\n  or\n  swap1\n  sstore\n  pop\n    /* \"evidence/evidence.sol\":780:801  callVerify(tx.origin) */\n  tag_6\n    /* \"evidence/evidence.sol\":791:800  tx.origin */\n  origin\n    /* \"evidence/evidence.sol\":780:790  callVerify */\n  shl(0x20, tag_7)\n    /* \"evidence/evidence.sol\":780:801  callVerify(tx.origin) */\n  0x20\n  shr\n  jump\t// in\ntag_6:\n    /* \"evidence/evidence.sol\":772:825  require(callVerify(tx.origin),\"_signer is not valid\") */\n  tag_8\n  jumpi\n  mload(0x40)\n  0x08c379a000000000000000000000000000000000000000000000000000000000\n  dup2\n  mstore\n  0x04\n  add\n  tag_9\n  swap1\n  tag_10\n  jump\t// in\ntag_9:\n  mload(0x40)\n  dup1\n  swap2\n  sub\n  swap1\n  revert\ntag_8:\n    /* \"evidence/evidence.sol\":846:850  _evi */\n  dup2\n    /* \"evidence/evidence.sol\":836:844  evidence */\n  0x00\n    /* \"evidence/evidence.sol\":836:850  evidence= _evi */\n  swap1\n  dup1\n  mload\n  swap1\n  0x20\n  add\n  swap1\n  tag_11\n  swap3\n  swap2\n  swap1\n  tag_12\n  jump\t// in\ntag_11:\n  pop\n    /* \"evidence/evidence.sol\":861:868  signers */\n  0x01\n    /* \"evidence/evidence.sol\":874:883  tx.origin */\n  origin\n    /* \"evidence/evidence.sol\":861:884  signers.push(tx.origin) */\n  swap1\n  dup1\n  0x01\n  dup2\n  sload\n  add\n  dup1\n  dup3\n  sstore\n  dup1\n  swap2\n  pop\n  pop\n  0x01\n  swap1\n  sub\n  swap1\n  0x00\n  mstore\n  keccak256(0x00, 0x20)\n  add\n  0x00\n  swap1\n  swap2\n  swap1\n  swap2\n  swap1\n  swap2\n  0x0100\n  exp\n  dup2\n  sload\n  dup2\n  0xffffffffffffffffffffffffffffffffffffffff\n  mul\n  not\n  and\n  swap1\n  dup4\n  0xffffffffffffffffffffffffffffffffffffffff\n  and\n  mul\n  or\n  swap1\n  sstore\n  pop\n    /* \"evidence/evidence.sol\":902:939  NewSignaturesEvidence(_evi,tx.origin) */\n  0xa34d8f872132d193d2e62e18648026516cd6a9d599cb2f07eda0fd5ab16f1627\n    /* \"evidence/evidence.sol\":924:928  _evi */\n  dup3\n    /* \"evidence/evidence.sol\":929:938  tx.origin */\n  origin\n    /* \"evidence/evidence.sol\":902:939  NewSignaturesEvidence(_evi,tx.origin) */\n  mload(0x40)\n  tag_14\n  swap3\n  swap2\n  swap1\n  tag_15\n  jump\t// in\ntag_14:\n  mload(0x40)\n  dup1\n  swap2\n  sub\n  swap1\n  log1\n    /* \"evidence/evidence.sol\":680:947  constructor(string memory _evi,address _factory){\r... */\n  pop\n  pop\n    /* \"evidence/evidence.sol\":279:1361  contract Evidence {\r... */\n  jump(tag_16)\n    /* \"evidence/evidence.sol\":530:655  function callVerify(address _signer) public view returns(bool){\r... */\ntag_7:\n    /* \"evidence/evidence.sol\":587:591  bool */\n  0x00\n    /* \"evidence/evidence.sol\":619:630  factoryAddr */\n  0x02\n  0x00\n  swap1\n  sload\n  swap1\n  0x0100\n  exp\n  swap1\n  div\n  0xffffffffffffffffffffffffffffffffffffffff\n  and\n    /* \"evidence/evidence.sol\":610:638  IEvdence(factoryAddr).verify */\n  0xffffffffffffffffffffffffffffffffffffffff\n  and\n  0x63a9c3d7\n    /* \"evidence/evidence.sol\":639:646  _signer */\n  dup4\n    /* \"evidence/evidence.sol\":610:647  IEvdence(factoryAddr).verify(_signer) */\n  mload(0x40)\n  dup3\n  0xffffffff\n  and\n  0xe0\n  shl\n  dup2\n  mstore\n  0x04\n  add\n  tag_18\n  swap2\n  swap1\n  tag_19\n  jump\t// in\ntag_18:\n  0x20\n  mload(0x40)\n  dup1\n  dup4\n  sub\n  dup2\n  dup7\n  dup1\n  extcodesize\n  iszero\n  dup1\n  iszero\n  tag_20\n  jumpi\n  0x00\n  dup1\n  revert\ntag_20:\n  pop\n  gas\n  staticcall\n  iszero\n  dup1\n  iszero\n  tag_22\n  jumpi\n  returndatasize\n  0x00\n  dup1\n  returndatacopy\n  revert(0x00, returndatasize)\ntag_22:\n  pop\n  pop\n  pop\n  pop\n  mload(0x40)\n  returndatasize\n  not(0x1f)\n  0x1f\n  dup3\n  add\n  and\n  dup3\n  add\n  dup1\n  0x40\n  mstore\n  pop\n  dup2\n  add\n  swap1\n  tag_23\n  swap2\n  swap1\n  tag_24\n  jump\t// in\ntag_23:\n    /* \"evidence/evidence.sol\":603:647  return IEvdence(factoryAddr).verify(_signer) */\n  swap1\n  pop\n    /* \"evidence/evidence.sol\":530:655  function callVerify(address _signer) public view returns(bool){\r... */\n  swap2\n  swap1\n  pop\n  jump\t// out\n    /* \"evidence/evidence.sol\":279:1361  contract Evidence {\r... */\ntag_12:\n  dup3\n  dup1\n  sload\n  tag_25\n  swap1\n  tag_26\n  jump\t// in\ntag_25:\n  swap1\n  0x00\n  mstore\n  keccak256(0x00, 0x20)\n  swap1\n  0x1f\n  add\n  0x20\n  swap1\n  div\n  dup2\n  add\n  swap3\n  dup3\n  tag_28\n  jumpi\n  0x00\n  dup6\n  sstore\n  jump(tag_27)\ntag_28:\n  dup3\n  0x1f\n  lt\n  tag_29\n  jumpi\n  dup1\n  mload\n  not(0xff)\n  and\n  dup4\n  dup1\n  add\n  or\n  dup6\n  sstore\n  jump(tag_27)\ntag_29:\n  dup3\n  dup1\n  add\n  0x01\n  add\n  dup6\n  sstore\n  dup3\n  iszero\n  tag_27\n  jumpi\n  swap2\n  dup3\n  add\ntag_30:\n  dup3\n  dup2\n  gt\n  iszero\n  tag_31\n  jumpi\n  dup3\n  mload\n  dup3\n  sstore\n  swap2\n  0x20\n  add\n  swap2\n  swap1\n  0x01\n  add\n  swap1\n  jump(tag_30)\ntag_31:\ntag_27:\n  pop\n  swap1\n  pop\n  tag_32\n  swap2\n  swap1\n  tag_33\n  jump\t// in\ntag_32:\n  pop\n  swap1\n  jump\t// out\ntag_33:\ntag_34:\n  dup1\n  dup3\n  gt\n  iszero\n  tag_35\n  jumpi\n  0x00\n  dup2\n  0x00\n  swap1\n  sstore\n  pop\n  0x01\n  add\n  jump(tag_34)\ntag_35:\n  pop\n  swap1\n  jump\t// out\n    /* \"#utility.yul\":7:428   */\ntag_37:\n    /* \"#utility.yul\":96:101   */\n  0x00\n    /* \"#utility.yul\":121:187   */\n  tag_39\n    /* \"#utility.yul\":137:186   */\n  tag_40\n    /* \"#utility.yul\":179:185   */\n  dup5\n    /* \"#utility.yul\":137:186   */\n  tag_41\n  jump\t// in\ntag_40:\n    /* \"#utility.yul\":121:187   */\n  tag_42\n  jump\t// in\ntag_39:\n    /* \"#utility.yul\":112:187   */\n  swap1\n  pop\n    /* \"#utility.yul\":210:216   */\n  dup3\n    /* \"#utility.yul\":203:208   */\n  dup2\n    /* \"#utility.yul\":196:217   */\n  mstore\n    /* \"#utility.yul\":248:252   */\n  0x20\n    /* \"#utility.yul\":241:246   */\n  dup2\n    /* \"#utility.yul\":237:253   */\n  add\n    /* \"#utility.yul\":286:289   */\n  dup5\n    /* \"#utility.yul\":277:283   */\n  dup5\n    /* \"#utility.yul\":272:275   */\n  dup5\n    /* \"#utility.yul\":268:284   */\n  add\n    /* \"#utility.yul\":265:290   */\n  gt\n    /* \"#utility.yul\":262:374   */\n  iszero\n  tag_43\n  jumpi\n    /* \"#utility.yul\":293:372   */\n  tag_44\n  tag_45\n  jump\t// in\ntag_44:\n    /* \"#utility.yul\":262:374   */\ntag_43:\n    /* \"#utility.yul\":383:422   */\n  tag_46\n    /* \"#utility.yul\":415:421   */\n  dup5\n    /* \"#utility.yul\":410:413   */\n  dup3\n    /* \"#utility.yul\":405:408   */\n  dup6\n    /* \"#utility.yul\":383:422   */\n  tag_47\n  jump\t// in\ntag_46:\n    /* \"#utility.yul\":102:428   */\n  pop\n    /* \"#utility.yul\":7:428   */\n  swap4\n  swap3\n  pop\n  pop\n  pop\n  jump\t// out\n    /* \"#utility.yul\":434:577   */\ntag_48:\n    /* \"#utility.yul\":491:496   */\n  0x00\n    /* \"#utility.yul\":522:528   */\n  dup2\n    /* \"#utility.yul\":516:529   */\n  mload\n    /* \"#utility.yul\":507:529   */\n  swap1\n  pop\n    /* \"#utility.yul\":538:571   */\n  tag_50\n    /* \"#utility.yul\":565:570   */\n  dup2\n    /* \"#utility.yul\":538:571   */\n  tag_51\n  jump\t// in\ntag_50:\n    /* \"#utility.yul\":434:577   */\n  swap3\n  swap2\n  pop\n  pop\n  jump\t// out\n    /* \"#utility.yul\":583:720   */\ntag_52:\n    /* \"#utility.yul\":637:642   */\n  0x00\n    /* \"#utility.yul\":668:674   */\n  dup2\n    /* \"#utility.yul\":662:675   */\n  mload\n    /* \"#utility.yul\":653:675   */\n  swap1\n  pop\n    /* \"#utility.yul\":684:714   */\n  tag_54\n    /* \"#utility.yul\":708:713   */\n  dup2\n    /* \"#utility.yul\":684:714   */\n  tag_55\n  jump\t// in\ntag_54:\n    /* \"#utility.yul\":583:720   */\n  swap3\n  swap2\n  pop\n  pop\n  jump\t// out\n    /* \"#utility.yul\":740:1095   */\ntag_56:\n    /* \"#utility.yul\":807:812   */\n  0x00\n    /* \"#utility.yul\":856:859   */\n  dup3\n    /* \"#utility.yul\":849:853   */\n  0x1f\n    /* \"#utility.yul\":841:847   */\n  dup4\n    /* \"#utility.yul\":837:854   */\n  add\n    /* \"#utility.yul\":833:860   */\n  slt\n    /* \"#utility.yul\":823:945   */\n  tag_58\n  jumpi\n    /* \"#utility.yul\":864:943   */\n  tag_59\n  tag_60\n  jump\t// in\ntag_59:\n    /* \"#utility.yul\":823:945   */\ntag_58:\n    /* \"#utility.yul\":974:980   */\n  dup2\n    /* \"#utility.yul\":968:981   */\n  mload\n    /* \"#utility.yul\":999:1089   */\n  tag_61\n    /* \"#utility.yul\":1085:1088   */\n  dup5\n    /* \"#utility.yul\":1077:1083   */\n  dup3\n    /* \"#utility.yul\":1070:1074   */\n  0x20\n    /* \"#utility.yul\":1062:1068   */\n  dup7\n    /* \"#utility.yul\":1058:1075   */\n  add\n    /* \"#utility.yul\":999:1089   */\n  tag_37\n  jump\t// in\ntag_61:\n    /* \"#utility.yul\":990:1089   */\n  swap2\n  pop\n    /* \"#utility.yul\":813:1095   */\n  pop\n    /* \"#utility.yul\":740:1095   */\n  swap3\n  swap2\n  pop\n  pop\n  jump\t// out\n    /* \"#utility.yul\":1101:1446   */\ntag_24:\n    /* \"#utility.yul\":1168:1174   */\n  0x00\n    /* \"#utility.yul\":1217:1219   */\n  0x20\n    /* \"#utility.yul\":1205:1214   */\n  dup3\n    /* \"#utility.yul\":1196:1203   */\n  dup5\n    /* \"#utility.yul\":1192:1215   */\n  sub\n    /* \"#utility.yul\":1188:1220   */\n  slt\n    /* \"#utility.yul\":1185:1304   */\n  iszero\n  tag_63\n  jumpi\n    /* \"#utility.yul\":1223:1302   */\n  tag_64\n  tag_65\n  jump\t// in\ntag_64:\n    /* \"#utility.yul\":1185:1304   */\ntag_63:\n    /* \"#utility.yul\":1343:1344   */\n  0x00\n    /* \"#utility.yul\":1368:1429   */\n  tag_66\n    /* \"#utility.yul\":1421:1428   */\n  dup5\n    /* \"#utility.yul\":1412:1418   */\n  dup3\n    /* \"#utility.yul\":1401:1410   */\n  dup6\n    /* \"#utility.yul\":1397:1419   */\n  add\n    /* \"#utility.yul\":1368:1429   */\n  tag_52\n  jump\t// in\ntag_66:\n    /* \"#utility.yul\":1358:1429   */\n  swap2\n  pop\n    /* \"#utility.yul\":1314:1439   */\n  pop\n    /* \"#utility.yul\":1101:1446   */\n  swap3\n  swap2\n  pop\n  pop\n  jump\t// out\n    /* \"#utility.yul\":1452:2132   */\ntag_3:\n    /* \"#utility.yul\":1541:1547   */\n  0x00\n    /* \"#utility.yul\":1549:1555   */\n  dup1\n    /* \"#utility.yul\":1598:1600   */\n  0x40\n    /* \"#utility.yul\":1586:1595   */\n  dup4\n    /* \"#utility.yul\":1577:1584   */\n  dup6\n    /* \"#utility.yul\":1573:1596   */\n  sub\n    /* \"#utility.yul\":1569:1601   */\n  slt\n    /* \"#utility.yul\":1566:1685   */\n  iszero\n  tag_68\n  jumpi\n    /* \"#utility.yul\":1604:1683   */\n  tag_69\n  tag_65\n  jump\t// in\ntag_69:\n    /* \"#utility.yul\":1566:1685   */\ntag_68:\n    /* \"#utility.yul\":1745:1746   */\n  0x00\n    /* \"#utility.yul\":1734:1743   */\n  dup4\n    /* \"#utility.yul\":1730:1747   */\n  add\n    /* \"#utility.yul\":1724:1748   */\n  mload\n    /* \"#utility.yul\":1775:1793   */\n  0xffffffffffffffff\n    /* \"#utility.yul\":1767:1773   */\n  dup2\n    /* \"#utility.yul\":1764:1794   */\n  gt\n    /* \"#utility.yul\":1761:1878   */\n  iszero\n  tag_70\n  jumpi\n    /* \"#utility.yul\":1797:1876   */\n  tag_71\n  tag_72\n  jump\t// in\ntag_71:\n    /* \"#utility.yul\":1761:1878   */\ntag_70:\n    /* \"#utility.yul\":1902:1976   */\n  tag_73\n    /* \"#utility.yul\":1968:1975   */\n  dup6\n    /* \"#utility.yul\":1959:1965   */\n  dup3\n    /* \"#utility.yul\":1948:1957   */\n  dup7\n    /* \"#utility.yul\":1944:1966   */\n  add\n    /* \"#utility.yul\":1902:1976   */\n  tag_56\n  jump\t// in\ntag_73:\n    /* \"#utility.yul\":1892:1976   */\n  swap3\n  pop\n    /* \"#utility.yul\":1695:1986   */\n  pop\n    /* \"#utility.yul\":2025:2027   */\n  0x20\n    /* \"#utility.yul\":2051:2115   */\n  tag_74\n    /* \"#utility.yul\":2107:2114   */\n  dup6\n    /* \"#utility.yul\":2098:2104   */\n  dup3\n    /* \"#utility.yul\":2087:2096   */\n  dup7\n    /* \"#utility.yul\":2083:2105   */\n  add\n    /* \"#utility.yul\":2051:2115   */\n  tag_48\n  jump\t// in\ntag_74:\n    /* \"#utility.yul\":2041:2115   */\n  swap2\n  pop\n    /* \"#utility.yul\":1996:2125   */\n  pop\n    /* \"#utility.yul\":1452:2132   */\n  swap3\n  pop\n  swap3\n  swap1\n  pop\n  jump\t// out\n    /* \"#utility.yul\":2138:2256   */\ntag_75:\n    /* \"#utility.yul\":2225:2249   */\n  tag_77\n    /* \"#utility.yul\":2243:2248   */\n  dup2\n    /* \"#utility.yul\":2225:2249   */\n  tag_78\n  jump\t// in\ntag_77:\n    /* \"#utility.yul\":2220:2223   */\n  dup3\n    /* \"#utility.yul\":2213:2250   */\n  mstore\n    /* \"#utility.yul\":2138:2256   */\n  pop\n  pop\n  jump\t// out\n    /* \"#utility.yul\":2262:2626   */\ntag_79:\n    /* \"#utility.yul\":2350:2353   */\n  0x00\n    /* \"#utility.yul\":2378:2417   */\n  tag_81\n    /* \"#utility.yul\":2411:2416   */\n  dup3\n    /* \"#utility.yul\":2378:2417   */\n  tag_82\n  jump\t// in\ntag_81:\n    /* \"#utility.yul\":2433:2504   */\n  tag_83\n    /* \"#utility.yul\":2497:2503   */\n  dup2\n    /* \"#utility.yul\":2492:2495   */\n  dup6\n    /* \"#utility.yul\":2433:2504   */\n  tag_84\n  jump\t// in\ntag_83:\n    /* \"#utility.yul\":2426:2504   */\n  swap4\n  pop\n    /* \"#utility.yul\":2513:2565   */\n  tag_85\n    /* \"#utility.yul\":2558:2564   */\n  dup2\n    /* \"#utility.yul\":2553:2556   */\n  dup6\n    /* \"#utility.yul\":2546:2550   */\n  0x20\n    /* \"#utility.yul\":2539:2544   */\n  dup7\n    /* \"#utility.yul\":2535:2551   */\n  add\n    /* \"#utility.yul\":2513:2565   */\n  tag_47\n  jump\t// in\ntag_85:\n    /* \"#utility.yul\":2590:2619   */\n  tag_86\n    /* \"#utility.yul\":2612:2618   */\n  dup2\n    /* \"#utility.yul\":2590:2619   */\n  tag_87\n  jump\t// in\ntag_86:\n    /* \"#utility.yul\":2585:2588   */\n  dup5\n    /* \"#utility.yul\":2581:2620   */\n  add\n    /* \"#utility.yul\":2574:2620   */\n  swap2\n  pop\n    /* \"#utility.yul\":2354:2626   */\n  pop\n    /* \"#utility.yul\":2262:2626   */\n  swap3\n  swap2\n  pop\n  pop\n  jump\t// out\n    /* \"#utility.yul\":2632:2998   */\ntag_88:\n    /* \"#utility.yul\":2774:2777   */\n  0x00\n    /* \"#utility.yul\":2795:2862   */\n  tag_90\n    /* \"#utility.yul\":2859:2861   */\n  0x14\n    /* \"#utility.yul\":2854:2857   */\n  dup4\n    /* \"#utility.yul\":2795:2862   */\n  tag_84\n  jump\t// in\ntag_90:\n    /* \"#utility.yul\":2788:2862   */\n  swap2\n  pop\n    /* \"#utility.yul\":2871:2964   */\n  tag_91\n    /* \"#utility.yul\":2960:2963   */\n  dup3\n    /* \"#utility.yul\":2871:2964   */\n  tag_92\n  jump\t// in\ntag_91:\n    /* \"#utility.yul\":2989:2991   */\n  0x20\n    /* \"#utility.yul\":2984:2987   */\n  dup3\n    /* \"#utility.yul\":2980:2992   */\n  add\n    /* \"#utility.yul\":2973:2992   */\n  swap1\n  pop\n    /* \"#utility.yul\":2632:2998   */\n  swap2\n  swap1\n  pop\n  jump\t// out\n    /* \"#utility.yul\":3004:3226   */\ntag_19:\n    /* \"#utility.yul\":3097:3101   */\n  0x00\n    /* \"#utility.yul\":3135:3137   */\n  0x20\n    /* \"#utility.yul\":3124:3133   */\n  dup3\n    /* \"#utility.yul\":3120:3138   */\n  add\n    /* \"#utility.yul\":3112:3138   */\n  swap1\n  pop\n    /* \"#utility.yul\":3148:3219   */\n  tag_94\n    /* \"#utility.yul\":3216:3217   */\n  0x00\n    /* \"#utility.yul\":3205:3214   */\n  dup4\n    /* \"#utility.yul\":3201:3218   */\n  add\n    /* \"#utility.yul\":3192:3198   */\n  dup5\n    /* \"#utility.yul\":3148:3219   */\n  tag_75\n  jump\t// in\ntag_94:\n    /* \"#utility.yul\":3004:3226   */\n  swap3\n  swap2\n  pop\n  pop\n  jump\t// out\n    /* \"#utility.yul\":3232:3655   */\ntag_15:\n    /* \"#utility.yul\":3373:3377   */\n  0x00\n    /* \"#utility.yul\":3411:3413   */\n  0x40\n    /* \"#utility.yul\":3400:3409   */\n  dup3\n    /* \"#utility.yul\":3396:3414   */\n  add\n    /* \"#utility.yul\":3388:3414   */\n  swap1\n  pop\n    /* \"#utility.yul\":3460:3469   */\n  dup2\n    /* \"#utility.yul\":3454:3458   */\n  dup2\n    /* \"#utility.yul\":3450:3470   */\n  sub\n    /* \"#utility.yul\":3446:3447   */\n  0x00\n    /* \"#utility.yul\":3435:3444   */\n  dup4\n    /* \"#utility.yul\":3431:3448   */\n  add\n    /* \"#utility.yul\":3424:3471   */\n  mstore\n    /* \"#utility.yul\":3488:3566   */\n  tag_96\n    /* \"#utility.yul\":3561:3565   */\n  dup2\n    /* \"#utility.yul\":3552:3558   */\n  dup6\n    /* \"#utility.yul\":3488:3566   */\n  tag_79\n  jump\t// in\ntag_96:\n    /* \"#utility.yul\":3480:3566   */\n  swap1\n  pop\n    /* \"#utility.yul\":3576:3648   */\n  tag_97\n    /* \"#utility.yul\":3644:3646   */\n  0x20\n    /* \"#utility.yul\":3633:3642   */\n  dup4\n    /* \"#utility.yul\":3629:3647   */\n  add\n    /* \"#utility.yul\":3620:3626   */\n  dup5\n    /* \"#utility.yul\":3576:3648   */\n  tag_75\n  jump\t// in\ntag_97:\n    /* \"#utility.yul\":3232:3655   */\n  swap4\n  swap3\n  pop\n  pop\n  pop\n  jump\t// out\n    /* \"#utility.yul\":3661:4080   */\ntag_10:\n    /* \"#utility.yul\":3827:3831   */\n  0x00\n    /* \"#utility.yul\":3865:3867   */\n  0x20\n    /* \"#utility.yul\":3854:3863   */\n  dup3\n    /* \"#utility.yul\":3850:3868   */\n  add\n    /* \"#utility.yul\":3842:3868   */\n  swap1\n  pop\n    /* \"#utility.yul\":3914:3923   */\n  dup2\n    /* \"#utility.yul\":3908:3912   */\n  dup2\n    /* \"#utility.yul\":3904:3924   */\n  sub\n    /* \"#utility.yul\":3900:3901   */\n  0x00\n    /* \"#utility.yul\":3889:3898   */\n  dup4\n    /* \"#utility.yul\":3885:3902   */\n  add\n    /* \"#utility.yul\":3878:3925   */\n  mstore\n    /* \"#utility.yul\":3942:4073   */\n  tag_99\n    /* \"#utility.yul\":4068:4072   */\n  dup2\n    /* \"#utility.yul\":3942:4073   */\n  tag_88\n  jump\t// in\ntag_99:\n    /* \"#utility.yul\":3934:4073   */\n  swap1\n  pop\n    /* \"#utility.yul\":3661:4080   */\n  swap2\n  swap1\n  pop\n  jump\t// out\n    /* \"#utility.yul\":4086:4215   */\ntag_42:\n    /* \"#utility.yul\":4120:4126   */\n  0x00\n    /* \"#utility.yul\":4147:4167   */\n  tag_101\n  tag_102\n  jump\t// in\ntag_101:\n    /* \"#utility.yul\":4137:4167   */\n  swap1\n  pop\n    /* \"#utility.yul\":4176:4209   */\n  tag_103\n    /* \"#utility.yul\":4204:4208   */\n  dup3\n    /* \"#utility.yul\":4196:4202   */\n  dup3\n    /* \"#utility.yul\":4176:4209   */\n  tag_104\n  jump\t// in\ntag_103:\n    /* \"#utility.yul\":4086:4215   */\n  swap2\n  swap1\n  pop\n  jump\t// out\n    /* \"#utility.yul\":4221:4296   */\ntag_102:\n    /* \"#utility.yul\":4254:4260   */\n  0x00\n    /* \"#utility.yul\":4287:4289   */\n  0x40\n    /* \"#utility.yul\":4281:4290   */\n  mload\n    /* \"#utility.yul\":4271:4290   */\n  swap1\n  pop\n    /* \"#utility.yul\":4221:4296   */\n  swap1\n  jump\t// out\n    /* \"#utility.yul\":4302:4610   */\ntag_41:\n    /* \"#utility.yul\":4364:4368   */\n  0x00\n    /* \"#utility.yul\":4454:4472   */\n  0xffffffffffffffff\n    /* \"#utility.yul\":4446:4452   */\n  dup3\n    /* \"#utility.yul\":4443:4473   */\n  gt\n    /* \"#utility.yul\":4440:4496   */\n  iszero\n  tag_107\n  jumpi\n    /* \"#utility.yul\":4476:4494   */\n  tag_108\n  tag_109\n  jump\t// in\ntag_108:\n    /* \"#utility.yul\":4440:4496   */\ntag_107:\n    /* \"#utility.yul\":4514:4543   */\n  tag_110\n    /* \"#utility.yul\":4536:4542   */\n  dup3\n    /* \"#utility.yul\":4514:4543   */\n  tag_87\n  jump\t// in\ntag_110:\n    /* \"#utility.yul\":4506:4543   */\n  swap1\n  pop\n    /* \"#utility.yul\":4598:4602   */\n  0x20\n    /* \"#utility.yul\":4592:4596   */\n  dup2\n    /* \"#utility.yul\":4588:4603   */\n  add\n    /* \"#utility.yul\":4580:4603   */\n  swap1\n  pop\n    /* \"#utility.yul\":4302:4610   */\n  swap2\n  swap1\n  pop\n  jump\t// out\n    /* \"#utility.yul\":4616:4715   */\ntag_82:\n    /* \"#utility.yul\":4668:4674   */\n  0x00\n    /* \"#utility.yul\":4702:4707   */\n  dup2\n    /* \"#utility.yul\":4696:4708   */\n  mload\n    /* \"#utility.yul\":4686:4708   */\n  swap1\n  pop\n    /* \"#utility.yul\":4616:4715   */\n  swap2\n  swap1\n  pop\n  jump\t// out\n    /* \"#utility.yul\":4721:4890   */\ntag_84:\n    /* \"#utility.yul\":4805:4816   */\n  0x00\n    /* \"#utility.yul\":4839:4845   */\n  dup3\n    /* \"#utility.yul\":4834:4837   */\n  dup3\n    /* \"#utility.yul\":4827:4846   */\n  mstore\n    /* \"#utility.yul\":4879:4883   */\n  0x20\n    /* \"#utility.yul\":4874:4877   */\n  dup3\n    /* \"#utility.yul\":4870:4884   */\n  add\n    /* \"#utility.yul\":4855:4884   */\n  swap1\n  pop\n    /* \"#utility.yul\":4721:4890   */\n  swap3\n  swap2\n  pop\n  pop\n  jump\t// out\n    /* \"#utility.yul\":4896:4992   */\ntag_78:\n    /* \"#utility.yul\":4933:4940   */\n  0x00\n    /* \"#utility.yul\":4962:4986   */\n  tag_114\n    /* \"#utility.yul\":4980:4985   */\n  dup3\n    /* \"#utility.yul\":4962:4986   */\n  tag_115\n  jump\t// in\ntag_114:\n    /* \"#utility.yul\":4951:4986   */\n  swap1\n  pop\n    /* \"#utility.yul\":4896:4992   */\n  swap2\n  swap1\n  pop\n  jump\t// out\n    /* \"#utility.yul\":4998:5088   */\ntag_116:\n    /* \"#utility.yul\":5032:5039   */\n  0x00\n    /* \"#utility.yul\":5075:5080   */\n  dup2\n    /* \"#utility.yul\":5068:5081   */\n  iszero\n    /* \"#utility.yul\":5061:5082   */\n  iszero\n    /* \"#utility.yul\":5050:5082   */\n  swap1\n  pop\n    /* \"#utility.yul\":4998:5088   */\n  swap2\n  swap1\n  pop\n  jump\t// out\n    /* \"#utility.yul\":5094:5220   */\ntag_115:\n    /* \"#utility.yul\":5131:5138   */\n  0x00\n    /* \"#utility.yul\":5171:5213   */\n  0xffffffffffffffffffffffffffffffffffffffff\n    /* \"#utility.yul\":5164:5169   */\n  dup3\n    /* \"#utility.yul\":5160:5214   */\n  and\n    /* \"#utility.yul\":5149:5214   */\n  swap1\n  pop\n    /* \"#utility.yul\":5094:5220   */\n  swap2\n  swap1\n  pop\n  jump\t// out\n    /* \"#utility.yul\":5226:5533   */\ntag_47:\n    /* \"#utility.yul\":5294:5295   */\n  0x00\n    /* \"#utility.yul\":5304:5417   */\ntag_120:\n    /* \"#utility.yul\":5318:5324   */\n  dup4\n    /* \"#utility.yul\":5315:5316   */\n  dup2\n    /* \"#utility.yul\":5312:5325   */\n  lt\n    /* \"#utility.yul\":5304:5417   */\n  iszero\n  tag_122\n  jumpi\n    /* \"#utility.yul\":5403:5404   */\n  dup1\n    /* \"#utility.yul\":5398:5401   */\n  dup3\n    /* \"#utility.yul\":5394:5405   */\n  add\n    /* \"#utility.yul\":5388:5406   */\n  mload\n    /* \"#utility.yul\":5384:5385   */\n  dup2\n    /* \"#utility.yul\":5379:5382   */\n  dup5\n    /* \"#utility.yul\":5375:5386   */\n  add\n    /* \"#utility.yul\":5368:5407   */\n  mstore\n    /* \"#utility.yul\":5340:5342   */\n  0x20\n    /* \"#utility.yul\":5337:5338   */\n  dup2\n    /* \"#utility.yul\":5333:5343   */\n  add\n    /* \"#utility.yul\":5328:5343   */\n  swap1\n  pop\n    /* \"#utility.yul\":5304:5417   */\n  jump(tag_120)\ntag_122:\n    /* \"#utility.yul\":5435:5441   */\n  dup4\n    /* \"#utility.yul\":5432:5433   */\n  dup2\n    /* \"#utility.yul\":5429:5442   */\n  gt\n    /* \"#utility.yul\":5426:5527   */\n  iszero\n  tag_123\n  jumpi\n    /* \"#utility.yul\":5515:5516   */\n  0x00\n    /* \"#utility.yul\":5506:5512   */\n  dup5\n    /* \"#utility.yul\":5501:5504   */\n  dup5\n    /* \"#utility.yul\":5497:5513   */\n  add\n    /* \"#utility.yul\":5490:5517   */\n  mstore\n    /* \"#utility.yul\":5426:5527   */\ntag_123:\n    /* \"#utility.yul\":5275:5533   */\n  pop\n    /* \"#utility.yul\":5226:5533   */\n  pop\n  pop\n  pop\n  jump\t// out\n    /* \"#utility.yul\":5539:5859   */\ntag_26:\n    /* \"#utility.yul\":5583:5589   */\n  0x00\n    /* \"#utility.yul\":5620:5621   */\n  0x02\n    /* \"#utility.yul\":5614:5618   */\n  dup3\n    /* \"#utility.yul\":5610:5622   */\n  div\n    /* \"#utility.yul\":5600:5622   */\n  swap1\n  pop\n    /* \"#utility.yul\":5667:5668   */\n  0x01\n    /* \"#utility.yul\":5661:5665   */\n  dup3\n    /* \"#utility.yul\":5657:5669   */\n  and\n    /* \"#utility.yul\":5688:5706   */\n  dup1\n    /* \"#utility.yul\":5678:5759   */\n  tag_125\n  jumpi\n    /* \"#utility.yul\":5744:5748   */\n  0x7f\n    /* \"#utility.yul\":5736:5742   */\n  dup3\n    /* \"#utility.yul\":5732:5749   */\n  and\n    /* \"#utility.yul\":5722:5749   */\n  swap2\n  pop\n    /* \"#utility.yul\":5678:5759   */\ntag_125:\n    /* \"#utility.yul\":5806:5808   */\n  0x20\n    /* \"#utility.yul\":5798:5804   */\n  dup3\n    /* \"#utility.yul\":5795:5809   */\n  lt\n    /* \"#utility.yul\":5775:5793   */\n  dup2\n    /* \"#utility.yul\":5772:5810   */\n  eq\n    /* \"#utility.yul\":5769:5853   */\n  iszero\n  tag_126\n  jumpi\n    /* \"#utility.yul\":5825:5843   */\n  tag_127\n  tag_128\n  jump\t// in\ntag_127:\n    /* \"#utility.yul\":5769:5853   */\ntag_126:\n    /* \"#utility.yul\":5590:5859   */\n  pop\n    /* \"#utility.yul\":5539:5859   */\n  swap2\n  swap1\n  pop\n  jump\t// out\n    /* \"#utility.yul\":5865:6146   */\ntag_104:\n    /* \"#utility.yul\":5948:5975   */\n  tag_130\n    /* \"#utility.yul\":5970:5974   */\n  dup3\n    /* \"#utility.yul\":5948:5975   */\n  tag_87\n  jump\t// in\ntag_130:\n    /* \"#utility.yul\":5940:5946   */\n  dup2\n    /* \"#utility.yul\":5936:5976   */\n  add\n    /* \"#utility.yul\":6078:6084   */\n  dup2\n    /* \"#utility.yul\":6066:6076   */\n  dup2\n    /* \"#utility.yul\":6063:6085   */\n  lt\n    /* \"#utility.yul\":6042:6060   */\n  0xffffffffffffffff\n    /* \"#utility.yul\":6030:6040   */\n  dup3\n    /* \"#utility.yul\":6027:6061   */\n  gt\n    /* \"#utility.yul\":6024:6086   */\n  or\n    /* \"#utility.yul\":6021:6109   */\n  iszero\n  tag_131\n  jumpi\n    /* \"#utility.yul\":6089:6107   */\n  tag_132\n  tag_109\n  jump\t// in\ntag_132:\n    /* \"#utility.yul\":6021:6109   */\ntag_131:\n    /* \"#utility.yul\":6129:6139   */\n  dup1\n    /* \"#utility.yul\":6125:6127   */\n  0x40\n    /* \"#utility.yul\":6118:6140   */\n  mstore\n    /* \"#utility.yul\":5908:6146   */\n  pop\n    /* \"#utility.yul\":5865:6146   */\n  pop\n  pop\n  jump\t// out\n    /* \"#utility.yul\":6152:6332   */\ntag_128:\n    /* \"#utility.yul\":6200:6277   */\n  0x4e487b7100000000000000000000000000000000000000000000000000000000\n    /* \"#utility.yul\":6197:6198   */\n  0x00\n    /* \"#utility.yul\":6190:6278   */\n  mstore\n    /* \"#utility.yul\":6297:6301   */\n  0x22\n    /* \"#utility.yul\":6294:6295   */\n  0x04\n    /* \"#utility.yul\":6287:6302   */\n  mstore\n    /* \"#utility.yul\":6321:6325   */\n  0x24\n    /* \"#utility.yul\":6318:6319   */\n  0x00\n    /* \"#utility.yul\":6311:6326   */\n  revert\n    /* \"#utility.yul\":6338:6518   */\ntag_109:\n    /* \"#utility.yul\":6386:6463   */\n  0x4e487b7100000000000000000000000000000000000000000000000000000000\n    /* \"#utility.yul\":6383:6384   */\n  0x00\n    /* \"#utility.yul\":6376:6464   */\n  mstore\n    /* \"#utility.yul\":6483:6487   */\n  0x41\n    /* \"#utility.yul\":6480:6481   */\n  0x04\n    /* \"#utility.yul\":6473:6488   */\n  mstore\n    /* \"#utility.yul\":6507:6511   */\n  0x24\n    /* \"#utility.yul\":6504:6505   */\n  0x00\n    /* \"#utility.yul\":6497:6512   */\n  revert\n    /* \"#utility.yul\":6524:6641   */\ntag_60:\n    /* \"#utility.yul\":6633:6634   */\n  0x00\n    /* \"#utility.yul\":6630:6631   */\n  dup1\n    /* \"#utility.yul\":6623:6635   */\n  revert\n    /* \"#utility.yul\":6647:6764   */\ntag_45:\n    /* \"#utility.yul\":6756:6757   */\n  0x00\n    /* \"#utility.yul\":6753:6754   */\n  dup1\n    /* \"#utility.yul\":6746:6758   */\n  revert\n    /* \"#utility.yul\":6770:6887   */\ntag_72:\n    /* \"#utility.yul\":6879:6880   */\n  0x00\n    /* \"#utility.yul\":6876:6877   */\n  dup1\n    /* \"#utility.yul\":6869:6881   */\n  revert\n    /* \"#utility.yul\":6893:7010   */\ntag_65:\n    /* \"#utility.yul\":7002:7003   */\n  0x00\n    /* \"#utility.yul\":6999:7000   */\n  dup1\n    /* \"#utility.yul\":6992:7004   */\n  revert\n    /* \"#utility.yul\":7016:7118   */\ntag_87:\n    /* \"#utility.yul\":7057:7063   */\n  0x00\n    /* \"#utility.yul\":7108:7110   */\n  0x1f\n    /* \"#utility.yul\":7104:7111   */\n  not\n    /* \"#utility.yul\":7099:7101   */\n  0x1f\n    /* \"#utility.yul\":7092:7097   */\n  dup4\n    /* \"#utility.yul\":7088:7102   */\n  add\n    /* \"#utility.yul\":7084:7112   */\n  and\n    /* \"#utility.yul\":7074:7112   */\n  swap1\n  pop\n    /* \"#utility.yul\":7016:7118   */\n  swap2\n  swap1\n  pop\n  jump\t// out\n    /* \"#utility.yul\":7124:7294   */\ntag_92:\n    /* \"#utility.yul\":7264:7286   */\n  0x5f7369676e6572206973206e6f742076616c6964000000000000000000000000\n    /* \"#utility.yul\":7260:7261   */\n  0x00\n    /* \"#utility.yul\":7252:7258   */\n  dup3\n    /* \"#utility.yul\":7248:7262   */\n  add\n    /* \"#utility.yul\":7241:7287   */\n  mstore\n    /* \"#utility.yul\":7124:7294   */\n  pop\n  jump\t// out\n    /* \"#utility.yul\":7300:7422   */\ntag_51:\n    /* \"#utility.yul\":7373:7397   */\n  tag_142\n    /* \"#utility.yul\":7391:7396   */\n  dup2\n    /* \"#utility.yul\":7373:7397   */\n  tag_78\n  jump\t// in\ntag_142:\n    /* \"#utility.yul\":7366:7371   */\n  dup2\n    /* \"#utility.yul\":7363:7398   */\n  eq\n    /* \"#utility.yul\":7353:7416   */\n  tag_143\n  jumpi\n    /* \"#utility.yul\":7412:7413   */\n  0x00\n    /* \"#utility.yul\":7409:7410   */\n  dup1\n    /* \"#utility.yul\":7402:7414   */\n  revert\n    /* \"#utility.yul\":7353:7416   */\ntag_143:\n    /* \"#utility.yul\":7300:7422   */\n  pop\n  jump\t// out\n    /* \"#utility.yul\":7428:7544   */\ntag_55:\n    /* \"#utility.yul\":7498:7519   */\n  tag_145\n    /* \"#utility.yul\":7513:7518   */\n  dup2\n    /* \"#utility.yul\":7498:7519   */\n  tag_116\n  jump\t// in\ntag_145:\n    /* \"#utility.yul\":7491:7496   */\n  dup2\n    /* \"#utility.yul\":7488:7520   */\n  eq\n    /* \"#utility.yul\":7478:7538   */\n  tag_146\n  jumpi\n    /* \"#utility.yul\":7534:7535   */\n  0x00\n    /* \"#utility.yul\":7531:7532   */\n  dup1\n    /* \"#utility.yul\":7524:7536   */\n  revert\n    /* \"#utility.yul\":7478:7538   */\ntag_146:\n    /* \"#utility.yul\":7428:7544   */\n  pop\n  jump\t// out\n    /* \"evidence/evidence.sol\":279:1361  contract Evidence {\r... */\ntag_16:\n  dataSize(sub_0)\n  dup1\n  dataOffset(sub_0)\n  0x00\n  codecopy\n  0x00\n  return\nstop\n\nsub_0: assembly {\n        /* \"evidence/evidence.sol\":279:1361  contract Evidence {\r... */\n      mstore(0x40, 0x80)\n      callvalue\n      dup1\n      iszero\n      tag_1\n      jumpi\n      0x00\n      dup1\n      revert\n    tag_1:\n      pop\n      jumpi(tag_2, lt(calldatasize, 0x04))\n      shr(0xe0, calldataload(0x00))\n      dup1\n      0x50ca0928\n      eq\n      tag_3\n      jumpi\n      dup1\n      0x596f21f8\n      eq\n      tag_4\n      jumpi\n      dup1\n      0x963671be\n      eq\n      tag_5\n      jumpi\n    tag_2:\n      0x00\n      dup1\n      revert\n        /* \"evidence/evidence.sol\":530:655  function callVerify(address _signer) public view returns(bool){\r... */\n    tag_3:\n      tag_6\n      0x04\n      dup1\n      calldatasize\n      sub\n      dup2\n      add\n      swap1\n      tag_7\n      swap2\n      swap1\n      tag_8\n      jump\t// in\n    tag_7:\n      tag_9\n      jump\t// in\n    tag_6:\n      mload(0x40)\n      tag_10\n      swap2\n      swap1\n      tag_11\n      jump\t// in\n    tag_10:\n      mload(0x40)\n      dup1\n      swap2\n      sub\n      swap1\n      return\n        /* \"evidence/evidence.sol\":969:1358  function getEvidence() public view returns(string memory,address[] memory,address[] memory){\r... */\n    tag_4:\n      tag_12\n      tag_13\n      jump\t// in\n    tag_12:\n      mload(0x40)\n      tag_14\n      swap4\n      swap3\n      swap2\n      swap1\n      tag_15\n      jump\t// in\n    tag_14:\n      mload(0x40)\n      dup1\n      swap2\n      sub\n      swap1\n      return\n        /* \"evidence/evidence.sol\":390:416  address public factoryAddr */\n    tag_5:\n      tag_16\n      tag_17\n      jump\t// in\n    tag_16:\n      mload(0x40)\n      tag_18\n      swap2\n      swap1\n      tag_19\n      jump\t// in\n    tag_18:\n      mload(0x40)\n      dup1\n      swap2\n      sub\n      swap1\n      return\n        /* \"evidence/evidence.sol\":530:655  function callVerify(address _signer) public view returns(bool){\r... */\n    tag_9:\n        /* \"evidence/evidence.sol\":587:591  bool */\n      0x00\n        /* \"evidence/evidence.sol\":619:630  factoryAddr */\n      0x02\n      0x00\n      swap1\n      sload\n      swap1\n      0x0100\n      exp\n      swap1\n      div\n      0xffffffffffffffffffffffffffffffffffffffff\n      and\n        /* \"evidence/evidence.sol\":610:638  IEvdence(factoryAddr).verify */\n      0xffffffffffffffffffffffffffffffffffffffff\n      and\n      0x63a9c3d7\n        /* \"evidence/evidence.sol\":639:646  _signer */\n      dup4\n        /* \"evidence/evidence.sol\":610:647  IEvdence(factoryAddr).verify(_signer) */\n      mload(0x40)\n      dup3\n      0xffffffff\n      and\n      0xe0\n      shl\n      dup2\n      mstore\n      0x04\n      add\n      tag_21\n      swap2\n      swap1\n      tag_19\n      jump\t// in\n    tag_21:\n      0x20\n      mload(0x40)\n      dup1\n      dup4\n      sub\n      dup2\n      dup7\n      dup1\n      extcodesize\n      iszero\n      dup1\n      iszero\n      tag_22\n      jumpi\n      0x00\n      dup1\n      revert\n    tag_22:\n      pop\n      gas\n      staticcall\n      iszero\n      dup1\n      iszero\n      tag_24\n      jumpi\n      returndatasize\n      0x00\n      dup1\n      returndatacopy\n      revert(0x00, returndatasize)\n    tag_24:\n      pop\n      pop\n      pop\n      pop\n      mload(0x40)\n      returndatasize\n      not(0x1f)\n      0x1f\n      dup3\n      add\n      and\n      dup3\n      add\n      dup1\n      0x40\n      mstore\n      pop\n      dup2\n      add\n      swap1\n      tag_25\n      swap2\n      swap1\n      tag_26\n      jump\t// in\n    tag_25:\n        /* \"evidence/evidence.sol\":603:647  return IEvdence(factoryAddr).verify(_signer) */\n      swap1\n      pop\n        /* \"evidence/evidence.sol\":530:655  function callVerify(address _signer) public view returns(bool){\r... */\n      swap2\n      swap1\n      pop\n      jump\t// out\n        /* \"evidence/evidence.sol\":969:1358  function getEvidence() public view returns(string memory,address[] memory,address[] memory){\r... */\n    tag_13:\n        /* \"evidence/evidence.sol\":1012:1025  string memory */\n      0x60\n        /* \"evidence/evidence.sol\":1026:1042  address[] memory */\n      dup1\n        /* \"evidence/evidence.sol\":1043:1059  address[] memory */\n      0x60\n        /* \"evidence/evidence.sol\":1071:1084  uint256 iSize */\n      0x00\n        /* \"evidence/evidence.sol\":1096:1107  factoryAddr */\n      0x02\n      0x00\n      swap1\n      sload\n      swap1\n      0x0100\n      exp\n      swap1\n      div\n      0xffffffffffffffffffffffffffffffffffffffff\n      and\n        /* \"evidence/evidence.sol\":1087:1123  IEvdence(factoryAddr).getSignersSize */\n      0xffffffffffffffffffffffffffffffffffffffff\n      and\n      0xfa69efbd\n        /* \"evidence/evidence.sol\":1087:1125  IEvdence(factoryAddr).getSignersSize() */\n      mload(0x40)\n      dup2\n      0xffffffff\n      and\n      0xe0\n      shl\n      dup2\n      mstore\n      0x04\n      add\n      0x20\n      mload(0x40)\n      dup1\n      dup4\n      sub\n      dup2\n      dup7\n      dup1\n      extcodesize\n      iszero\n      dup1\n      iszero\n      tag_28\n      jumpi\n      0x00\n      dup1\n      revert\n    tag_28:\n      pop\n      gas\n      staticcall\n      iszero\n      dup1\n      iszero\n      tag_30\n      jumpi\n      returndatasize\n      0x00\n      dup1\n      returndatacopy\n      revert(0x00, returndatasize)\n    tag_30:\n      pop\n      pop\n      pop\n      pop\n      mload(0x40)\n      returndatasize\n      not(0x1f)\n      0x1f\n      dup3\n      add\n      and\n      dup3\n      add\n      dup1\n      0x40\n      mstore\n      pop\n      dup2\n      add\n      swap1\n      tag_31\n      swap2\n      swap1\n      tag_32\n      jump\t// in\n    tag_31:\n        /* \"evidence/evidence.sol\":1071:1125  uint256 iSize = IEvdence(factoryAddr).getSignersSize() */\n      swap1\n      pop\n        /* \"evidence/evidence.sol\":1136:1163  address[] memory signerList */\n      0x00\n        /* \"evidence/evidence.sol\":1180:1185  iSize */\n      dup2\n        /* \"evidence/evidence.sol\":1166:1186  new address[](iSize) */\n      0xffffffffffffffff\n      dup2\n      gt\n      iszero\n      tag_33\n      jumpi\n      tag_34\n      tag_35\n      jump\t// in\n    tag_34:\n    tag_33:\n      mload(0x40)\n      swap1\n      dup1\n      dup3\n      mstore\n      dup1\n      0x20\n      mul\n      0x20\n      add\n      dup3\n      add\n      0x40\n      mstore\n      dup1\n      iszero\n      tag_36\n      jumpi\n      dup2\n      0x20\n      add\n      0x20\n      dup3\n      mul\n      dup1\n      calldatasize\n      dup4\n      calldatacopy\n      dup1\n      dup3\n      add\n      swap2\n      pop\n      pop\n      swap1\n      pop\n    tag_36:\n      pop\n        /* \"evidence/evidence.sol\":1136:1186  address[] memory signerList = new address[](iSize) */\n      swap1\n      pop\n        /* \"evidence/evidence.sol\":1201:1208  uint8 i */\n      0x00\n        /* \"evidence/evidence.sol\":1197:1301  for(uint8 i =0;i<iSize;i++){\r... */\n    tag_37:\n        /* \"evidence/evidence.sol\":1214:1219  iSize */\n      dup3\n        /* \"evidence/evidence.sol\":1212:1213  i */\n      dup2\n        /* \"evidence/evidence.sol\":1212:1219  i<iSize */\n      0xff\n      and\n      lt\n        /* \"evidence/evidence.sol\":1197:1301  for(uint8 i =0;i<iSize;i++){\r... */\n      iszero\n      tag_38\n      jumpi\n        /* \"evidence/evidence.sol\":1264:1275  factoryAddr */\n      0x02\n      0x00\n      swap1\n      sload\n      swap1\n      0x0100\n      exp\n      swap1\n      div\n      0xffffffffffffffffffffffffffffffffffffffff\n      and\n        /* \"evidence/evidence.sol\":1255:1286  IEvdence(factoryAddr).getSigner */\n      0xffffffffffffffffffffffffffffffffffffffff\n      and\n      0x3ffefe4e\n        /* \"evidence/evidence.sol\":1287:1288  i */\n      dup3\n        /* \"evidence/evidence.sol\":1255:1289  IEvdence(factoryAddr).getSigner(i) */\n      mload(0x40)\n      dup3\n      0xffffffff\n      and\n      0xe0\n      shl\n      dup2\n      mstore\n      0x04\n      add\n      tag_40\n      swap2\n      swap1\n      tag_41\n      jump\t// in\n    tag_40:\n      0x20\n      mload(0x40)\n      dup1\n      dup4\n      sub\n      dup2\n      dup7\n      dup1\n      extcodesize\n      iszero\n      dup1\n      iszero\n      tag_42\n      jumpi\n      0x00\n      dup1\n      revert\n    tag_42:\n      pop\n      gas\n      staticcall\n      iszero\n      dup1\n      iszero\n      tag_44\n      jumpi\n      returndatasize\n      0x00\n      dup1\n      returndatacopy\n      revert(0x00, returndatasize)\n    tag_44:\n      pop\n      pop\n      pop\n      pop\n      mload(0x40)\n      returndatasize\n      not(0x1f)\n      0x1f\n      dup3\n      add\n      and\n      dup3\n      add\n      dup1\n      0x40\n      mstore\n      pop\n      dup2\n      add\n      swap1\n      tag_45\n      swap2\n      swap1\n      tag_46\n      jump\t// in\n    tag_45:\n        /* \"evidence/evidence.sol\":1239:1249  signerList */\n      dup3\n        /* \"evidence/evidence.sol\":1250:1251  i */\n      dup3\n        /* \"evidence/evidence.sol\":1239:1252  signerList[i] */\n      0xff\n      and\n      dup2\n      mload\n      dup2\n      lt\n      tag_47\n      jumpi\n      tag_48\n      tag_49\n      jump\t// in\n    tag_48:\n    tag_47:\n      0x20\n      mul\n      0x20\n      add\n      add\n        /* \"evidence/evidence.sol\":1239:1289  signerList[i] = IEvdence(factoryAddr).getSigner(i) */\n      swap1\n      0xffffffffffffffffffffffffffffffffffffffff\n      and\n      swap1\n      dup2\n      0xffffffffffffffffffffffffffffffffffffffff\n      and\n      dup2\n      mstore\n      pop\n      pop\n        /* \"evidence/evidence.sol\":1220:1223  i++ */\n      dup1\n      dup1\n      tag_50\n      swap1\n      tag_51\n      jump\t// in\n    tag_50:\n      swap2\n      pop\n      pop\n        /* \"evidence/evidence.sol\":1197:1301  for(uint8 i =0;i<iSize;i++){\r... */\n      jump(tag_37)\n    tag_38:\n      pop\n        /* \"evidence/evidence.sol\":1318:1326  evidence */\n      0x00\n        /* \"evidence/evidence.sol\":1327:1337  signerList */\n      dup2\n        /* \"evidence/evidence.sol\":1338:1345  signers */\n      0x01\n        /* \"evidence/evidence.sol\":1311:1346  return(evidence,signerList,signers) */\n      dup3\n      dup1\n      sload\n      tag_52\n      swap1\n      tag_53\n      jump\t// in\n    tag_52:\n      dup1\n      0x1f\n      add\n      0x20\n      dup1\n      swap2\n      div\n      mul\n      0x20\n      add\n      mload(0x40)\n      swap1\n      dup2\n      add\n      0x40\n      mstore\n      dup1\n      swap3\n      swap2\n      swap1\n      dup2\n      dup2\n      mstore\n      0x20\n      add\n      dup3\n      dup1\n      sload\n      tag_54\n      swap1\n      tag_53\n      jump\t// in\n    tag_54:\n      dup1\n      iszero\n      tag_55\n      jumpi\n      dup1\n      0x1f\n      lt\n      tag_56\n      jumpi\n      0x0100\n      dup1\n      dup4\n      sload\n      div\n      mul\n      dup4\n      mstore\n      swap2\n      0x20\n      add\n      swap2\n      jump(tag_55)\n    tag_56:\n      dup3\n      add\n      swap2\n      swap1\n      0x00\n      mstore\n      keccak256(0x00, 0x20)\n      swap1\n    tag_57:\n      dup2\n      sload\n      dup2\n      mstore\n      swap1\n      0x01\n      add\n      swap1\n      0x20\n      add\n      dup1\n      dup4\n      gt\n      tag_57\n      jumpi\n      dup3\n      swap1\n      sub\n      0x1f\n      and\n      dup3\n      add\n      swap2\n    tag_55:\n      pop\n      pop\n      pop\n      pop\n      pop\n      swap3\n      pop\n      dup1\n      dup1\n      sload\n      dup1\n      0x20\n      mul\n      0x20\n      add\n      mload(0x40)\n      swap1\n      dup2\n      add\n      0x40\n      mstore\n      dup1\n      swap3\n      swap2\n      swap1\n      dup2\n      dup2\n      mstore\n      0x20\n      add\n      dup3\n      dup1\n      sload\n      dup1\n      iszero\n      tag_58\n      jumpi\n      0x20\n      mul\n      dup3\n      add\n      swap2\n      swap1\n      0x00\n      mstore\n      keccak256(0x00, 0x20)\n      swap1\n    tag_59:\n      dup2\n      0x00\n      swap1\n      sload\n      swap1\n      0x0100\n      exp\n      swap1\n      div\n      0xffffffffffffffffffffffffffffffffffffffff\n      and\n      0xffffffffffffffffffffffffffffffffffffffff\n      and\n      dup2\n      mstore\n      0x20\n      add\n      swap1\n      0x01\n      add\n      swap1\n      dup1\n      dup4\n      gt\n      tag_59\n      jumpi\n    tag_58:\n      pop\n      pop\n      pop\n      pop\n      pop\n      swap1\n      pop\n      swap5\n      pop\n      swap5\n      pop\n      swap5\n      pop\n      pop\n      pop\n        /* \"evidence/evidence.sol\":969:1358  function getEvidence() public view returns(string memory,address[] memory,address[] memory){\r... */\n      swap1\n      swap2\n      swap3\n      jump\t// out\n        /* \"evidence/evidence.sol\":390:416  address public factoryAddr */\n    tag_17:\n      0x02\n      0x00\n      swap1\n      sload\n      swap1\n      0x0100\n      exp\n      swap1\n      div\n      0xffffffffffffffffffffffffffffffffffffffff\n      and\n      dup2\n      jump\t// out\n        /* \"#utility.yul\":7:146   */\n    tag_61:\n        /* \"#utility.yul\":53:58   */\n      0x00\n        /* \"#utility.yul\":91:97   */\n      dup2\n        /* \"#utility.yul\":78:98   */\n      calldataload\n        /* \"#utility.yul\":69:98   */\n      swap1\n      pop\n        /* \"#utility.yul\":107:140   */\n      tag_63\n        /* \"#utility.yul\":134:139   */\n      dup2\n        /* \"#utility.yul\":107:140   */\n      tag_64\n      jump\t// in\n    tag_63:\n        /* \"#utility.yul\":7:146   */\n      swap3\n      swap2\n      pop\n      pop\n      jump\t// out\n        /* \"#utility.yul\":152:295   */\n    tag_65:\n        /* \"#utility.yul\":209:214   */\n      0x00\n        /* \"#utility.yul\":240:246   */\n      dup2\n        /* \"#utility.yul\":234:247   */\n      mload\n        /* \"#utility.yul\":225:247   */\n      swap1\n      pop\n        /* \"#utility.yul\":256:289   */\n      tag_67\n        /* \"#utility.yul\":283:288   */\n      dup2\n        /* \"#utility.yul\":256:289   */\n      tag_64\n      jump\t// in\n    tag_67:\n        /* \"#utility.yul\":152:295   */\n      swap3\n      swap2\n      pop\n      pop\n      jump\t// out\n        /* \"#utility.yul\":301:438   */\n    tag_68:\n        /* \"#utility.yul\":355:360   */\n      0x00\n        /* \"#utility.yul\":386:392   */\n      dup2\n        /* \"#utility.yul\":380:393   */\n      mload\n        /* \"#utility.yul\":371:393   */\n      swap1\n      pop\n        /* \"#utility.yul\":402:432   */\n      tag_70\n        /* \"#utility.yul\":426:431   */\n      dup2\n        /* \"#utility.yul\":402:432   */\n      tag_71\n      jump\t// in\n    tag_70:\n        /* \"#utility.yul\":301:438   */\n      swap3\n      swap2\n      pop\n      pop\n      jump\t// out\n        /* \"#utility.yul\":444:587   */\n    tag_72:\n        /* \"#utility.yul\":501:506   */\n      0x00\n        /* \"#utility.yul\":532:538   */\n      dup2\n        /* \"#utility.yul\":526:539   */\n      mload\n        /* \"#utility.yul\":517:539   */\n      swap1\n      pop\n        /* \"#utility.yul\":548:581   */\n      tag_74\n        /* \"#utility.yul\":575:580   */\n      dup2\n        /* \"#utility.yul\":548:581   */\n      tag_75\n      jump\t// in\n    tag_74:\n        /* \"#utility.yul\":444:587   */\n      swap3\n      swap2\n      pop\n      pop\n      jump\t// out\n        /* \"#utility.yul\":593:922   */\n    tag_8:\n        /* \"#utility.yul\":652:658   */\n      0x00\n        /* \"#utility.yul\":701:703   */\n      0x20\n        /* \"#utility.yul\":689:698   */\n      dup3\n        /* \"#utility.yul\":680:687   */\n      dup5\n        /* \"#utility.yul\":676:699   */\n      sub\n        /* \"#utility.yul\":672:704   */\n      slt\n        /* \"#utility.yul\":669:788   */\n      iszero\n      tag_77\n      jumpi\n        /* \"#utility.yul\":707:786   */\n      tag_78\n      tag_79\n      jump\t// in\n    tag_78:\n        /* \"#utility.yul\":669:788   */\n    tag_77:\n        /* \"#utility.yul\":827:828   */\n      0x00\n        /* \"#utility.yul\":852:905   */\n      tag_80\n        /* \"#utility.yul\":897:904   */\n      dup5\n        /* \"#utility.yul\":888:894   */\n      dup3\n        /* \"#utility.yul\":877:886   */\n      dup6\n        /* \"#utility.yul\":873:895   */\n      add\n        /* \"#utility.yul\":852:905   */\n      tag_61\n      jump\t// in\n    tag_80:\n        /* \"#utility.yul\":842:905   */\n      swap2\n      pop\n        /* \"#utility.yul\":798:915   */\n      pop\n        /* \"#utility.yul\":593:922   */\n      swap3\n      swap2\n      pop\n      pop\n      jump\t// out\n        /* \"#utility.yul\":928:1279   */\n    tag_46:\n        /* \"#utility.yul\":998:1004   */\n      0x00\n        /* \"#utility.yul\":1047:1049   */\n      0x20\n        /* \"#utility.yul\":1035:1044   */\n      dup3\n        /* \"#utility.yul\":1026:1033   */\n      dup5\n        /* \"#utility.yul\":1022:1045   */\n      sub\n        /* \"#utility.yul\":1018:1050   */\n      slt\n        /* \"#utility.yul\":1015:1134   */\n      iszero\n      tag_82\n      jumpi\n        /* \"#utility.yul\":1053:1132   */\n      tag_83\n      tag_79\n      jump\t// in\n    tag_83:\n        /* \"#utility.yul\":1015:1134   */\n    tag_82:\n        /* \"#utility.yul\":1173:1174   */\n      0x00\n        /* \"#utility.yul\":1198:1262   */\n      tag_84\n        /* \"#utility.yul\":1254:1261   */\n      dup5\n        /* \"#utility.yul\":1245:1251   */\n      dup3\n        /* \"#utility.yul\":1234:1243   */\n      dup6\n        /* \"#utility.yul\":1230:1252   */\n      add\n        /* \"#utility.yul\":1198:1262   */\n      tag_65\n      jump\t// in\n    tag_84:\n        /* \"#utility.yul\":1188:1262   */\n      swap2\n      pop\n        /* \"#utility.yul\":1144:1272   */\n      pop\n        /* \"#utility.yul\":928:1279   */\n      swap3\n      swap2\n      pop\n      pop\n      jump\t// out\n        /* \"#utility.yul\":1285:1630   */\n    tag_26:\n        /* \"#utility.yul\":1352:1358   */\n      0x00\n        /* \"#utility.yul\":1401:1403   */\n      0x20\n        /* \"#utility.yul\":1389:1398   */\n      dup3\n        /* \"#utility.yul\":1380:1387   */\n      dup5\n        /* \"#utility.yul\":1376:1399   */\n      sub\n        /* \"#utility.yul\":1372:1404   */\n      slt\n        /* \"#utility.yul\":1369:1488   */\n      iszero\n      tag_86\n      jumpi\n        /* \"#utility.yul\":1407:1486   */\n      tag_87\n      tag_79\n      jump\t// in\n    tag_87:\n        /* \"#utility.yul\":1369:1488   */\n    tag_86:\n        /* \"#utility.yul\":1527:1528   */\n      0x00\n        /* \"#utility.yul\":1552:1613   */\n      tag_88\n        /* \"#utility.yul\":1605:1612   */\n      dup5\n        /* \"#utility.yul\":1596:1602   */\n      dup3\n        /* \"#utility.yul\":1585:1594   */\n      dup6\n        /* \"#utility.yul\":1581:1603   */\n      add\n        /* \"#utility.yul\":1552:1613   */\n      tag_68\n      jump\t// in\n    tag_88:\n        /* \"#utility.yul\":1542:1613   */\n      swap2\n      pop\n        /* \"#utility.yul\":1498:1623   */\n      pop\n        /* \"#utility.yul\":1285:1630   */\n      swap3\n      swap2\n      pop\n      pop\n      jump\t// out\n        /* \"#utility.yul\":1636:1987   */\n    tag_32:\n        /* \"#utility.yul\":1706:1712   */\n      0x00\n        /* \"#utility.yul\":1755:1757   */\n      0x20\n        /* \"#utility.yul\":1743:1752   */\n      dup3\n        /* \"#utility.yul\":1734:1741   */\n      dup5\n        /* \"#utility.yul\":1730:1753   */\n      sub\n        /* \"#utility.yul\":1726:1758   */\n      slt\n        /* \"#utility.yul\":1723:1842   */\n      iszero\n      tag_90\n      jumpi\n        /* \"#utility.yul\":1761:1840   */\n      tag_91\n      tag_79\n      jump\t// in\n    tag_91:\n        /* \"#utility.yul\":1723:1842   */\n    tag_90:\n        /* \"#utility.yul\":1881:1882   */\n      0x00\n        /* \"#utility.yul\":1906:1970   */\n      tag_92\n        /* \"#utility.yul\":1962:1969   */\n      dup5\n        /* \"#utility.yul\":1953:1959   */\n      dup3\n        /* \"#utility.yul\":1942:1951   */\n      dup6\n        /* \"#utility.yul\":1938:1960   */\n      add\n        /* \"#utility.yul\":1906:1970   */\n      tag_72\n      jump\t// in\n    tag_92:\n        /* \"#utility.yul\":1896:1970   */\n      swap2\n      pop\n        /* \"#utility.yul\":1852:1980   */\n      pop\n        /* \"#utility.yul\":1636:1987   */\n      swap3\n      swap2\n      pop\n      pop\n      jump\t// out\n        /* \"#utility.yul\":1993:2172   */\n    tag_93:\n        /* \"#utility.yul\":2062:2072   */\n      0x00\n        /* \"#utility.yul\":2083:2129   */\n      tag_95\n        /* \"#utility.yul\":2125:2128   */\n      dup4\n        /* \"#utility.yul\":2117:2123   */\n      dup4\n        /* \"#utility.yul\":2083:2129   */\n      tag_96\n      jump\t// in\n    tag_95:\n        /* \"#utility.yul\":2161:2165   */\n      0x20\n        /* \"#utility.yul\":2156:2159   */\n      dup4\n        /* \"#utility.yul\":2152:2166   */\n      add\n        /* \"#utility.yul\":2138:2166   */\n      swap1\n      pop\n        /* \"#utility.yul\":1993:2172   */\n      swap3\n      swap2\n      pop\n      pop\n      jump\t// out\n        /* \"#utility.yul\":2178:2286   */\n    tag_96:\n        /* \"#utility.yul\":2255:2279   */\n      tag_98\n        /* \"#utility.yul\":2273:2278   */\n      dup2\n        /* \"#utility.yul\":2255:2279   */\n      tag_99\n      jump\t// in\n    tag_98:\n        /* \"#utility.yul\":2250:2253   */\n      dup3\n        /* \"#utility.yul\":2243:2280   */\n      mstore\n        /* \"#utility.yul\":2178:2286   */\n      pop\n      pop\n      jump\t// out\n        /* \"#utility.yul\":2292:2410   */\n    tag_100:\n        /* \"#utility.yul\":2379:2403   */\n      tag_102\n        /* \"#utility.yul\":2397:2402   */\n      dup2\n        /* \"#utility.yul\":2379:2403   */\n      tag_99\n      jump\t// in\n    tag_102:\n        /* \"#utility.yul\":2374:2377   */\n      dup3\n        /* \"#utility.yul\":2367:2404   */\n      mstore\n        /* \"#utility.yul\":2292:2410   */\n      pop\n      pop\n      jump\t// out\n        /* \"#utility.yul\":2446:3178   */\n    tag_103:\n        /* \"#utility.yul\":2565:2568   */\n      0x00\n        /* \"#utility.yul\":2594:2648   */\n      tag_105\n        /* \"#utility.yul\":2642:2647   */\n      dup3\n        /* \"#utility.yul\":2594:2648   */\n      tag_106\n      jump\t// in\n    tag_105:\n        /* \"#utility.yul\":2664:2750   */\n      tag_107\n        /* \"#utility.yul\":2743:2749   */\n      dup2\n        /* \"#utility.yul\":2738:2741   */\n      dup6\n        /* \"#utility.yul\":2664:2750   */\n      tag_108\n      jump\t// in\n    tag_107:\n        /* \"#utility.yul\":2657:2750   */\n      swap4\n      pop\n        /* \"#utility.yul\":2774:2830   */\n      tag_109\n        /* \"#utility.yul\":2824:2829   */\n      dup4\n        /* \"#utility.yul\":2774:2830   */\n      tag_110\n      jump\t// in\n    tag_109:\n        /* \"#utility.yul\":2853:2860   */\n      dup1\n        /* \"#utility.yul\":2884:2885   */\n      0x00\n        /* \"#utility.yul\":2869:3153   */\n    tag_111:\n        /* \"#utility.yul\":2894:2900   */\n      dup4\n        /* \"#utility.yul\":2891:2892   */\n      dup2\n        /* \"#utility.yul\":2888:2901   */\n      lt\n        /* \"#utility.yul\":2869:3153   */\n      iszero\n      tag_113\n      jumpi\n        /* \"#utility.yul\":2970:2976   */\n      dup2\n        /* \"#utility.yul\":2964:2977   */\n      mload\n        /* \"#utility.yul\":2997:3060   */\n      tag_114\n        /* \"#utility.yul\":3056:3059   */\n      dup9\n        /* \"#utility.yul\":3041:3054   */\n      dup3\n        /* \"#utility.yul\":2997:3060   */\n      tag_93\n      jump\t// in\n    tag_114:\n        /* \"#utility.yul\":2990:3060   */\n      swap8\n      pop\n        /* \"#utility.yul\":3083:3143   */\n      tag_115\n        /* \"#utility.yul\":3136:3142   */\n      dup4\n        /* \"#utility.yul\":3083:3143   */\n      tag_116\n      jump\t// in\n    tag_115:\n        /* \"#utility.yul\":3073:3143   */\n      swap3\n      pop\n        /* \"#utility.yul\":2929:3153   */\n      pop\n        /* \"#utility.yul\":2916:2917   */\n      0x01\n        /* \"#utility.yul\":2913:2914   */\n      dup2\n        /* \"#utility.yul\":2909:2918   */\n      add\n        /* \"#utility.yul\":2904:2918   */\n      swap1\n      pop\n        /* \"#utility.yul\":2869:3153   */\n      jump(tag_111)\n    tag_113:\n        /* \"#utility.yul\":2873:2887   */\n      pop\n        /* \"#utility.yul\":3169:3172   */\n      dup6\n        /* \"#utility.yul\":3162:3172   */\n      swap4\n      pop\n        /* \"#utility.yul\":2570:3178   */\n      pop\n      pop\n      pop\n        /* \"#utility.yul\":2446:3178   */\n      swap3\n      swap2\n      pop\n      pop\n      jump\t// out\n        /* \"#utility.yul\":3184:3293   */\n    tag_117:\n        /* \"#utility.yul\":3265:3286   */\n      tag_119\n        /* \"#utility.yul\":3280:3285   */\n      dup2\n        /* \"#utility.yul\":3265:3286   */\n      tag_120\n      jump\t// in\n    tag_119:\n        /* \"#utility.yul\":3260:3263   */\n      dup3\n        /* \"#utility.yul\":3253:3287   */\n      mstore\n        /* \"#utility.yul\":3184:3293   */\n      pop\n      pop\n      jump\t// out\n        /* \"#utility.yul\":3299:3663   */\n    tag_121:\n        /* \"#utility.yul\":3387:3390   */\n      0x00\n        /* \"#utility.yul\":3415:3454   */\n      tag_123\n        /* \"#utility.yul\":3448:3453   */\n      dup3\n        /* \"#utility.yul\":3415:3454   */\n      tag_124\n      jump\t// in\n    tag_123:\n        /* \"#utility.yul\":3470:3541   */\n      tag_125\n        /* \"#utility.yul\":3534:3540   */\n      dup2\n        /* \"#utility.yul\":3529:3532   */\n      dup6\n        /* \"#utility.yul\":3470:3541   */\n      tag_126\n      jump\t// in\n    tag_125:\n        /* \"#utility.yul\":3463:3541   */\n      swap4\n      pop\n        /* \"#utility.yul\":3550:3602   */\n      tag_127\n        /* \"#utility.yul\":3595:3601   */\n      dup2\n        /* \"#utility.yul\":3590:3593   */\n      dup6\n        /* \"#utility.yul\":3583:3587   */\n      0x20\n        /* \"#utility.yul\":3576:3581   */\n      dup7\n        /* \"#utility.yul\":3572:3588   */\n      add\n        /* \"#utility.yul\":3550:3602   */\n      tag_128\n      jump\t// in\n    tag_127:\n        /* \"#utility.yul\":3627:3656   */\n      tag_129\n        /* \"#utility.yul\":3649:3655   */\n      dup2\n        /* \"#utility.yul\":3627:3656   */\n      tag_130\n      jump\t// in\n    tag_129:\n        /* \"#utility.yul\":3622:3625   */\n      dup5\n        /* \"#utility.yul\":3618:3657   */\n      add\n        /* \"#utility.yul\":3611:3657   */\n      swap2\n      pop\n        /* \"#utility.yul\":3391:3663   */\n      pop\n        /* \"#utility.yul\":3299:3663   */\n      swap3\n      swap2\n      pop\n      pop\n      jump\t// out\n        /* \"#utility.yul\":3669:3796   */\n    tag_131:\n        /* \"#utility.yul\":3754:3789   */\n      tag_133\n        /* \"#utility.yul\":3783:3788   */\n      dup2\n        /* \"#utility.yul\":3754:3789   */\n      tag_134\n      jump\t// in\n    tag_133:\n        /* \"#utility.yul\":3749:3752   */\n      dup3\n        /* \"#utility.yul\":3742:3790   */\n      mstore\n        /* \"#utility.yul\":3669:3796   */\n      pop\n      pop\n      jump\t// out\n        /* \"#utility.yul\":3802:4024   */\n    tag_19:\n        /* \"#utility.yul\":3895:3899   */\n      0x00\n        /* \"#utility.yul\":3933:3935   */\n      0x20\n        /* \"#utility.yul\":3922:3931   */\n      dup3\n        /* \"#utility.yul\":3918:3936   */\n      add\n        /* \"#utility.yul\":3910:3936   */\n      swap1\n      pop\n        /* \"#utility.yul\":3946:4017   */\n      tag_136\n        /* \"#utility.yul\":4014:4015   */\n      0x00\n        /* \"#utility.yul\":4003:4012   */\n      dup4\n        /* \"#utility.yul\":3999:4016   */\n      add\n        /* \"#utility.yul\":3990:3996   */\n      dup5\n        /* \"#utility.yul\":3946:4017   */\n      tag_100\n      jump\t// in\n    tag_136:\n        /* \"#utility.yul\":3802:4024   */\n      swap3\n      swap2\n      pop\n      pop\n      jump\t// out\n        /* \"#utility.yul\":4030:4240   */\n    tag_11:\n        /* \"#utility.yul\":4117:4121   */\n      0x00\n        /* \"#utility.yul\":4155:4157   */\n      0x20\n        /* \"#utility.yul\":4144:4153   */\n      dup3\n        /* \"#utility.yul\":4140:4158   */\n      add\n        /* \"#utility.yul\":4132:4158   */\n      swap1\n      pop\n        /* \"#utility.yul\":4168:4233   */\n      tag_138\n        /* \"#utility.yul\":4230:4231   */\n      0x00\n        /* \"#utility.yul\":4219:4228   */\n      dup4\n        /* \"#utility.yul\":4215:4232   */\n      add\n        /* \"#utility.yul\":4206:4212   */\n      dup5\n        /* \"#utility.yul\":4168:4233   */\n      tag_117\n      jump\t// in\n    tag_138:\n        /* \"#utility.yul\":4030:4240   */\n      swap3\n      swap2\n      pop\n      pop\n      jump\t// out\n        /* \"#utility.yul\":4246:5081   */\n    tag_15:\n        /* \"#utility.yul\":4515:4519   */\n      0x00\n        /* \"#utility.yul\":4553:4555   */\n      0x60\n        /* \"#utility.yul\":4542:4551   */\n      dup3\n        /* \"#utility.yul\":4538:4556   */\n      add\n        /* \"#utility.yul\":4530:4556   */\n      swap1\n      pop\n        /* \"#utility.yul\":4602:4611   */\n      dup2\n        /* \"#utility.yul\":4596:4600   */\n      dup2\n        /* \"#utility.yul\":4592:4612   */\n      sub\n        /* \"#utility.yul\":4588:4589   */\n      0x00\n        /* \"#utility.yul\":4577:4586   */\n      dup4\n        /* \"#utility.yul\":4573:4590   */\n      add\n        /* \"#utility.yul\":4566:4613   */\n      mstore\n        /* \"#utility.yul\":4630:4708   */\n      tag_140\n        /* \"#utility.yul\":4703:4707   */\n      dup2\n        /* \"#utility.yul\":4694:4700   */\n      dup7\n        /* \"#utility.yul\":4630:4708   */\n      tag_121\n      jump\t// in\n    tag_140:\n        /* \"#utility.yul\":4622:4708   */\n      swap1\n      pop\n        /* \"#utility.yul\":4755:4764   */\n      dup2\n        /* \"#utility.yul\":4749:4753   */\n      dup2\n        /* \"#utility.yul\":4745:4765   */\n      sub\n        /* \"#utility.yul\":4740:4742   */\n      0x20\n        /* \"#utility.yul\":4729:4738   */\n      dup4\n        /* \"#utility.yul\":4725:4743   */\n      add\n        /* \"#utility.yul\":4718:4766   */\n      mstore\n        /* \"#utility.yul\":4783:4891   */\n      tag_141\n        /* \"#utility.yul\":4886:4890   */\n      dup2\n        /* \"#utility.yul\":4877:4883   */\n      dup6\n        /* \"#utility.yul\":4783:4891   */\n      tag_103\n      jump\t// in\n    tag_141:\n        /* \"#utility.yul\":4775:4891   */\n      swap1\n      pop\n        /* \"#utility.yul\":4938:4947   */\n      dup2\n        /* \"#utility.yul\":4932:4936   */\n      dup2\n        /* \"#utility.yul\":4928:4948   */\n      sub\n        /* \"#utility.yul\":4923:4925   */\n      0x40\n        /* \"#utility.yul\":4912:4921   */\n      dup4\n        /* \"#utility.yul\":4908:4926   */\n      add\n        /* \"#utility.yul\":4901:4949   */\n      mstore\n        /* \"#utility.yul\":4966:5074   */\n      tag_142\n        /* \"#utility.yul\":5069:5073   */\n      dup2\n        /* \"#utility.yul\":5060:5066   */\n      dup5\n        /* \"#utility.yul\":4966:5074   */\n      tag_103\n      jump\t// in\n    tag_142:\n        /* \"#utility.yul\":4958:5074   */\n      swap1\n      pop\n        /* \"#utility.yul\":4246:5081   */\n      swap5\n      swap4\n      pop\n      pop\n      pop\n      pop\n      jump\t// out\n        /* \"#utility.yul\":5087:5305   */\n    tag_41:\n        /* \"#utility.yul\":5178:5182   */\n      0x00\n        /* \"#utility.yul\":5216:5218   */\n      0x20\n        /* \"#utility.yul\":5205:5214   */\n      dup3\n        /* \"#utility.yul\":5201:5219   */\n      add\n        /* \"#utility.yul\":5193:5219   */\n      swap1\n      pop\n        /* \"#utility.yul\":5229:5298   */\n      tag_144\n        /* \"#utility.yul\":5295:5296   */\n      0x00\n        /* \"#utility.yul\":5284:5293   */\n      dup4\n        /* \"#utility.yul\":5280:5297   */\n      add\n        /* \"#utility.yul\":5271:5277   */\n      dup5\n        /* \"#utility.yul\":5229:5298   */\n      tag_131\n      jump\t// in\n    tag_144:\n        /* \"#utility.yul\":5087:5305   */\n      swap3\n      swap2\n      pop\n      pop\n      jump\t// out\n        /* \"#utility.yul\":5392:5524   */\n    tag_110:\n        /* \"#utility.yul\":5459:5463   */\n      0x00\n        /* \"#utility.yul\":5482:5485   */\n      dup2\n        /* \"#utility.yul\":5474:5485   */\n      swap1\n      pop\n        /* \"#utility.yul\":5512:5516   */\n      0x20\n        /* \"#utility.yul\":5507:5510   */\n      dup3\n        /* \"#utility.yul\":5503:5517   */\n      add\n        /* \"#utility.yul\":5495:5517   */\n      swap1\n      pop\n        /* \"#utility.yul\":5392:5524   */\n      swap2\n      swap1\n      pop\n      jump\t// out\n        /* \"#utility.yul\":5530:5644   */\n    tag_106:\n        /* \"#utility.yul\":5597:5603   */\n      0x00\n        /* \"#utility.yul\":5631:5636   */\n      dup2\n        /* \"#utility.yul\":5625:5637   */\n      mload\n        /* \"#utility.yul\":5615:5637   */\n      swap1\n      pop\n        /* \"#utility.yul\":5530:5644   */\n      swap2\n      swap1\n      pop\n      jump\t// out\n        /* \"#utility.yul\":5650:5749   */\n    tag_124:\n        /* \"#utility.yul\":5702:5708   */\n      0x00\n        /* \"#utility.yul\":5736:5741   */\n      dup2\n        /* \"#utility.yul\":5730:5742   */\n      mload\n        /* \"#utility.yul\":5720:5742   */\n      swap1\n      pop\n        /* \"#utility.yul\":5650:5749   */\n      swap2\n      swap1\n      pop\n      jump\t// out\n        /* \"#utility.yul\":5755:5868   */\n    tag_116:\n        /* \"#utility.yul\":5825:5829   */\n      0x00\n        /* \"#utility.yul\":5857:5861   */\n      0x20\n        /* \"#utility.yul\":5852:5855   */\n      dup3\n        /* \"#utility.yul\":5848:5862   */\n      add\n        /* \"#utility.yul\":5840:5862   */\n      swap1\n      pop\n        /* \"#utility.yul\":5755:5868   */\n      swap2\n      swap1\n      pop\n      jump\t// out\n        /* \"#utility.yul\":5874:6058   */\n    tag_108:\n        /* \"#utility.yul\":5973:5984   */\n      0x00\n        /* \"#utility.yul\":6007:6013   */\n      dup3\n        /* \"#utility.yul\":6002:6005   */\n      dup3\n        /* \"#utility.yul\":5995:6014   */\n      mstore\n        /* \"#utility.yul\":6047:6051   */\n      0x20\n        /* \"#utility.yul\":6042:6045   */\n      dup3\n        /* \"#utility.yul\":6038:6052   */\n      add\n        /* \"#utility.yul\":6023:6052   */\n      swap1\n      pop\n        /* \"#utility.yul\":5874:6058   */\n      swap3\n      swap2\n      pop\n      pop\n      jump\t// out\n        /* \"#utility.yul\":6064:6233   */\n    tag_126:\n        /* \"#utility.yul\":6148:6159   */\n      0x00\n        /* \"#utility.yul\":6182:6188   */\n      dup3\n        /* \"#utility.yul\":6177:6180   */\n      dup3\n        /* \"#utility.yul\":6170:6189   */\n      mstore\n        /* \"#utility.yul\":6222:6226   */\n      0x20\n        /* \"#utility.yul\":6217:6220   */\n      dup3\n        /* \"#utility.yul\":6213:6227   */\n      add\n        /* \"#utility.yul\":6198:6227   */\n      swap1\n      pop\n        /* \"#utility.yul\":6064:6233   */\n      swap3\n      swap2\n      pop\n      pop\n      jump\t// out\n        /* \"#utility.yul\":6239:6335   */\n    tag_99:\n        /* \"#utility.yul\":6276:6283   */\n      0x00\n        /* \"#utility.yul\":6305:6329   */\n      tag_154\n        /* \"#utility.yul\":6323:6328   */\n      dup3\n        /* \"#utility.yul\":6305:6329   */\n      tag_155\n      jump\t// in\n    tag_154:\n        /* \"#utility.yul\":6294:6329   */\n      swap1\n      pop\n        /* \"#utility.yul\":6239:6335   */\n      swap2\n      swap1\n      pop\n      jump\t// out\n        /* \"#utility.yul\":6341:6431   */\n    tag_120:\n        /* \"#utility.yul\":6375:6382   */\n      0x00\n        /* \"#utility.yul\":6418:6423   */\n      dup2\n        /* \"#utility.yul\":6411:6424   */\n      iszero\n        /* \"#utility.yul\":6404:6425   */\n      iszero\n        /* \"#utility.yul\":6393:6425   */\n      swap1\n      pop\n        /* \"#utility.yul\":6341:6431   */\n      swap2\n      swap1\n      pop\n      jump\t// out\n        /* \"#utility.yul\":6437:6563   */\n    tag_155:\n        /* \"#utility.yul\":6474:6481   */\n      0x00\n        /* \"#utility.yul\":6514:6556   */\n      0xffffffffffffffffffffffffffffffffffffffff\n        /* \"#utility.yul\":6507:6512   */\n      dup3\n        /* \"#utility.yul\":6503:6557   */\n      and\n        /* \"#utility.yul\":6492:6557   */\n      swap1\n      pop\n        /* \"#utility.yul\":6437:6563   */\n      swap2\n      swap1\n      pop\n      jump\t// out\n        /* \"#utility.yul\":6569:6646   */\n    tag_158:\n        /* \"#utility.yul\":6606:6613   */\n      0x00\n        /* \"#utility.yul\":6635:6640   */\n      dup2\n        /* \"#utility.yul\":6624:6640   */\n      swap1\n      pop\n        /* \"#utility.yul\":6569:6646   */\n      swap2\n      swap1\n      pop\n      jump\t// out\n        /* \"#utility.yul\":6652:6738   */\n    tag_160:\n        /* \"#utility.yul\":6687:6694   */\n      0x00\n        /* \"#utility.yul\":6727:6731   */\n      0xff\n        /* \"#utility.yul\":6720:6725   */\n      dup3\n        /* \"#utility.yul\":6716:6732   */\n      and\n        /* \"#utility.yul\":6705:6732   */\n      swap1\n      pop\n        /* \"#utility.yul\":6652:6738   */\n      swap2\n      swap1\n      pop\n      jump\t// out\n        /* \"#utility.yul\":6744:6853   */\n    tag_134:\n        /* \"#utility.yul\":6792:6801   */\n      0x00\n        /* \"#utility.yul\":6825:6847   */\n      tag_163\n        /* \"#utility.yul\":6841:6846   */\n      dup3\n        /* \"#utility.yul\":6825:6847   */\n      tag_160\n      jump\t// in\n    tag_163:\n        /* \"#utility.yul\":6812:6847   */\n      swap1\n      pop\n        /* \"#utility.yul\":6744:6853   */\n      swap2\n      swap1\n      pop\n      jump\t// out\n        /* \"#utility.yul\":6859:7166   */\n    tag_128:\n        /* \"#utility.yul\":6927:6928   */\n      0x00\n        /* \"#utility.yul\":6937:7050   */\n    tag_165:\n        /* \"#utility.yul\":6951:6957   */\n      dup4\n        /* \"#utility.yul\":6948:6949   */\n      dup2\n        /* \"#utility.yul\":6945:6958   */\n      lt\n        /* \"#utility.yul\":6937:7050   */\n      iszero\n      tag_167\n      jumpi\n        /* \"#utility.yul\":7036:7037   */\n      dup1\n        /* \"#utility.yul\":7031:7034   */\n      dup3\n        /* \"#utility.yul\":7027:7038   */\n      add\n        /* \"#utility.yul\":7021:7039   */\n      mload\n        /* \"#utility.yul\":7017:7018   */\n      dup2\n        /* \"#utility.yul\":7012:7015   */\n      dup5\n        /* \"#utility.yul\":7008:7019   */\n      add\n        /* \"#utility.yul\":7001:7040   */\n      mstore\n        /* \"#utility.yul\":6973:6975   */\n      0x20\n        /* \"#utility.yul\":6970:6971   */\n      dup2\n        /* \"#utility.yul\":6966:6976   */\n      add\n        /* \"#utility.yul\":6961:6976   */\n      swap1\n      pop\n        /* \"#utility.yul\":6937:7050   */\n      jump(tag_165)\n    tag_167:\n        /* \"#utility.yul\":7068:7074   */\n      dup4\n        /* \"#utility.yul\":7065:7066   */\n      dup2\n        /* \"#utility.yul\":7062:7075   */\n      gt\n        /* \"#utility.yul\":7059:7160   */\n      iszero\n      tag_168\n      jumpi\n        /* \"#utility.yul\":7148:7149   */\n      0x00\n        /* \"#utility.yul\":7139:7145   */\n      dup5\n        /* \"#utility.yul\":7134:7137   */\n      dup5\n        /* \"#utility.yul\":7130:7146   */\n      add\n        /* \"#utility.yul\":7123:7150   */\n      mstore\n        /* \"#utility.yul\":7059:7160   */\n    tag_168:\n        /* \"#utility.yul\":6908:7166   */\n      pop\n        /* \"#utility.yul\":6859:7166   */\n      pop\n      pop\n      pop\n      jump\t// out\n        /* \"#utility.yul\":7172:7492   */\n    tag_53:\n        /* \"#utility.yul\":7216:7222   */\n      0x00\n        /* \"#utility.yul\":7253:7254   */\n      0x02\n        /* \"#utility.yul\":7247:7251   */\n      dup3\n        /* \"#utility.yul\":7243:7255   */\n      div\n        /* \"#utility.yul\":7233:7255   */\n      swap1\n      pop\n        /* \"#utility.yul\":7300:7301   */\n      0x01\n        /* \"#utility.yul\":7294:7298   */\n      dup3\n        /* \"#utility.yul\":7290:7302   */\n      and\n        /* \"#utility.yul\":7321:7339   */\n      dup1\n        /* \"#utility.yul\":7311:7392   */\n      tag_170\n      jumpi\n        /* \"#utility.yul\":7377:7381   */\n      0x7f\n        /* \"#utility.yul\":7369:7375   */\n      dup3\n        /* \"#utility.yul\":7365:7382   */\n      and\n        /* \"#utility.yul\":7355:7382   */\n      swap2\n      pop\n        /* \"#utility.yul\":7311:7392   */\n    tag_170:\n        /* \"#utility.yul\":7439:7441   */\n      0x20\n        /* \"#utility.yul\":7431:7437   */\n      dup3\n        /* \"#utility.yul\":7428:7442   */\n      lt\n        /* \"#utility.yul\":7408:7426   */\n      dup2\n        /* \"#utility.yul\":7405:7443   */\n      eq\n        /* \"#utility.yul\":7402:7486   */\n      iszero\n      tag_171\n      jumpi\n        /* \"#utility.yul\":7458:7476   */\n      tag_172\n      tag_173\n      jump\t// in\n    tag_172:\n        /* \"#utility.yul\":7402:7486   */\n    tag_171:\n        /* \"#utility.yul\":7223:7492   */\n      pop\n        /* \"#utility.yul\":7172:7492   */\n      swap2\n      swap1\n      pop\n      jump\t// out\n        /* \"#utility.yul\":7498:7665   */\n    tag_51:\n        /* \"#utility.yul\":7535:7538   */\n      0x00\n        /* \"#utility.yul\":7558:7580   */\n      tag_175\n        /* \"#utility.yul\":7574:7579   */\n      dup3\n        /* \"#utility.yul\":7558:7580   */\n      tag_160\n      jump\t// in\n    tag_175:\n        /* \"#utility.yul\":7549:7580   */\n      swap2\n      pop\n        /* \"#utility.yul\":7602:7606   */\n      0xff\n        /* \"#utility.yul\":7595:7600   */\n      dup3\n        /* \"#utility.yul\":7592:7607   */\n      eq\n        /* \"#utility.yul\":7589:7630   */\n      iszero\n      tag_176\n      jumpi\n        /* \"#utility.yul\":7610:7628   */\n      tag_177\n      tag_178\n      jump\t// in\n    tag_177:\n        /* \"#utility.yul\":7589:7630   */\n    tag_176:\n        /* \"#utility.yul\":7657:7658   */\n      0x01\n        /* \"#utility.yul\":7650:7655   */\n      dup3\n        /* \"#utility.yul\":7646:7659   */\n      add\n        /* \"#utility.yul\":7639:7659   */\n      swap1\n      pop\n        /* \"#utility.yul\":7498:7665   */\n      swap2\n      swap1\n      pop\n      jump\t// out\n        /* \"#utility.yul\":7671:7851   */\n    tag_178:\n        /* \"#utility.yul\":7719:7796   */\n      0x4e487b7100000000000000000000000000000000000000000000000000000000\n        /* \"#utility.yul\":7716:7717   */\n      0x00\n        /* \"#utility.yul\":7709:7797   */\n      mstore\n        /* \"#utility.yul\":7816:7820   */\n      0x11\n        /* \"#utility.yul\":7813:7814   */\n      0x04\n        /* \"#utility.yul\":7806:7821   */\n      mstore\n        /* \"#utility.yul\":7840:7844   */\n      0x24\n        /* \"#utility.yul\":7837:7838   */\n      0x00\n        /* \"#utility.yul\":7830:7845   */\n      revert\n        /* \"#utility.yul\":7857:8037   */\n    tag_173:\n        /* \"#utility.yul\":7905:7982   */\n      0x4e487b7100000000000000000000000000000000000000000000000000000000\n        /* \"#utility.yul\":7902:7903   */\n      0x00\n        /* \"#utility.yul\":7895:7983   */\n      mstore\n        /* \"#utility.yul\":8002:8006   */\n      0x22\n        /* \"#utility.yul\":7999:8000   */\n      0x04\n        /* \"#utility.yul\":7992:8007   */\n      mstore\n        /* \"#utility.yul\":8026:8030   */\n      0x24\n        /* \"#utility.yul\":8023:8024   */\n      0x00\n        /* \"#utility.yul\":8016:8031   */\n      revert\n        /* \"#utility.yul\":8043:8223   */\n    tag_49:\n        /* \"#utility.yul\":8091:8168   */\n      0x4e487b7100000000000000000000000000000000000000000000000000000000\n        /* \"#utility.yul\":8088:8089   */\n      0x00\n        /* \"#utility.yul\":8081:8169   */\n      mstore\n        /* \"#utility.yul\":8188:8192   */\n      0x32\n        /* \"#utility.yul\":8185:8186   */\n      0x04\n        /* \"#utility.yul\":8178:8193   */\n      mstore\n        /* \"#utility.yul\":8212:8216   */\n      0x24\n        /* \"#utility.yul\":8209:8210   */\n      0x00\n        /* \"#utility.yul\":8202:8217   */\n      revert\n        /* \"#utility.yul\":8229:8409   */\n    tag_35:\n        /* \"#utility.yul\":8277:8354   */\n      0x4e487b7100000000000000000000000000000000000000000000000000000000\n        /* \"#utility.yul\":8274:8275   */\n      0x00\n        /* \"#utility.yul\":8267:8355   */\n      mstore\n        /* \"#utility.yul\":8374:8378   */\n      0x41\n        /* \"#utility.yul\":8371:8372   */\n      0x04\n        /* \"#utility.yul\":8364:8379   */\n      mstore\n        /* \"#utility.yul\":8398:8402   */\n      0x24\n        /* \"#utility.yul\":8395:8396   */\n      0x00\n        /* \"#utility.yul\":8388:8403   */\n      revert\n        /* \"#utility.yul\":8538:8655   */\n    tag_79:\n        /* \"#utility.yul\":8647:8648   */\n      0x00\n        /* \"#utility.yul\":8644:8645   */\n      dup1\n        /* \"#utility.yul\":8637:8649   */\n      revert\n        /* \"#utility.yul\":8661:8763   */\n    tag_130:\n        /* \"#utility.yul\":8702:8708   */\n      0x00\n        /* \"#utility.yul\":8753:8755   */\n      0x1f\n        /* \"#utility.yul\":8749:8756   */\n      not\n        /* \"#utility.yul\":8744:8746   */\n      0x1f\n        /* \"#utility.yul\":8737:8742   */\n      dup4\n        /* \"#utility.yul\":8733:8747   */\n      add\n        /* \"#utility.yul\":8729:8757   */\n      and\n        /* \"#utility.yul\":8719:8757   */\n      swap1\n      pop\n        /* \"#utility.yul\":8661:8763   */\n      swap2\n      swap1\n      pop\n      jump\t// out\n        /* \"#utility.yul\":8769:8891   */\n    tag_64:\n        /* \"#utility.yul\":8842:8866   */\n      tag_188\n        /* \"#utility.yul\":8860:8865   */\n      dup2\n        /* \"#utility.yul\":8842:8866   */\n      tag_99\n      jump\t// in\n    tag_188:\n        /* \"#utility.yul\":8835:8840   */\n      dup2\n        /* \"#utility.yul\":8832:8867   */\n      eq\n        /* \"#utility.yul\":8822:8885   */\n      tag_189\n      jumpi\n        /* \"#utility.yul\":8881:8882   */\n      0x00\n        /* \"#utility.yul\":8878:8879   */\n      dup1\n        /* \"#utility.yul\":8871:8883   */\n      revert\n        /* \"#utility.yul\":8822:8885   */\n    tag_189:\n        /* \"#utility.yul\":8769:8891   */\n      pop\n      jump\t// out\n        /* \"#utility.yul\":8897:9013   */\n    tag_71:\n        /* \"#utility.yul\":8967:8988   */\n      tag_191\n        /* \"#utility.yul\":8982:8987   */\n      dup2\n        /* \"#utility.yul\":8967:8988   */\n      tag_120\n      jump\t// in\n    tag_191:\n        /* \"#utility.yul\":8960:8965   */\n      dup2\n        /* \"#utility.yul\":8957:8989   */\n      eq\n        /* \"#utility.yul\":8947:9007   */\n      tag_192\n      jumpi\n        /* \"#utility.yul\":9003:9004   */\n      0x00\n        /* \"#utility.yul\":9000:9001   */\n      dup1\n        /* \"#utility.yul\":8993:9005   */\n      revert\n        /* \"#utility.yul\":8947:9007   */\n    tag_192:\n        /* \"#utility.yul\":8897:9013   */\n      pop\n      jump\t// out\n        /* \"#utility.yul\":9019:9141   */\n    tag_75:\n        /* \"#utility.yul\":9092:9116   */\n      tag_194\n        /* \"#utility.yul\":9110:9115   */\n      dup2\n        /* \"#utility.yul\":9092:9116   */\n      tag_158\n      jump\t// in\n    tag_194:\n        /* \"#utility.yul\":9085:9090   */\n      dup2\n        /* \"#utility.yul\":9082:9117   */\n      eq\n        /* \"#utility.yul\":9072:9135   */\n      tag_195\n      jumpi\n        /* \"#utility.yul\":9131:9132   */\n      0x00\n        /* \"#utility.yul\":9128:9129   */\n      dup1\n        /* \"#utility.yul\":9121:9133   */\n      revert\n        /* \"#utility.yul\":9072:9135   */\n    tag_195:\n        /* \"#utility.yul\":9019:9141   */\n      pop\n      jump\t// out\n\n    auxdata: 0xa2646970667358221220324006a1d6a76aae3cf09a2a44fb2620ce21aa8305aef766fb51529f07a0741264736f6c63430008070033\n}\n",
				"bytecode": {
					"linkReferences": {},
					"object": "60806040523480156200001157600080fd5b5060405162001160380380620011608339818101604052810190620000379190620003d2565b80600260006101000a81548173ffffffffffffffffffffffffffffffffffffffff021916908373ffffffffffffffffffffffffffffffffffffffff16021790555062000089326200018a60201b60201c565b620000cb576040517f08c379a0000000000000000000000000000000000000000000000000000000008152600401620000c29062000502565b60405180910390fd5b8160009080519060200190620000e392919062000244565b506001329080600181540180825580915050600190039060005260206000200160009091909190916101000a81548173ffffffffffffffffffffffffffffffffffffffff021916908373ffffffffffffffffffffffffffffffffffffffff1602179055507fa34d8f872132d193d2e62e18648026516cd6a9d599cb2f07eda0fd5ab16f162782326040516200017a929190620004ce565b60405180910390a1505062000761565b6000600260009054906101000a900473ffffffffffffffffffffffffffffffffffffffff1673ffffffffffffffffffffffffffffffffffffffff166363a9c3d7836040518263ffffffff1660e01b8152600401620001e99190620004b1565b60206040518083038186803b1580156200020257600080fd5b505afa15801562000217573d6000803e3d6000fd5b505050506040513d601f19601f820116820180604052508101906200023d9190620003a0565b9050919050565b828054620002529062000615565b90600052602060002090601f016020900481019282620002765760008555620002c2565b82601f106200029157805160ff1916838001178555620002c2565b82800160010185558215620002c2579182015b82811115620002c1578251825591602001919060010190620002a4565b5b509050620002d19190620002d5565b5090565b5b80821115620002f0576000816000905550600101620002d6565b5090565b60006200030b62000305846200054d565b62000524565b9050828152602081018484840111156200032a5762000329620006e4565b5b62000337848285620005df565b509392505050565b60008151905062000350816200072d565b92915050565b600081519050620003678162000747565b92915050565b600082601f830112620003855762000384620006df565b5b815162000397848260208601620002f4565b91505092915050565b600060208284031215620003b957620003b8620006ee565b5b6000620003c98482850162000356565b91505092915050565b60008060408385031215620003ec57620003eb620006ee565b5b600083015167ffffffffffffffff8111156200040d576200040c620006e9565b5b6200041b858286016200036d565b92505060206200042e858286016200033f565b9150509250929050565b62000443816200059f565b82525050565b6000620004568262000583565b6200046281856200058e565b935062000474818560208601620005df565b6200047f81620006f3565b840191505092915050565b6000620004996014836200058e565b9150620004a68262000704565b602082019050919050565b6000602082019050620004c8600083018462000438565b92915050565b60006040820190508181036000830152620004ea818562000449565b9050620004fb602083018462000438565b9392505050565b600060208201905081810360008301526200051d816200048a565b9050919050565b60006200053062000543565b90506200053e82826200064b565b919050565b6000604051905090565b600067ffffffffffffffff8211156200056b576200056a620006b0565b5b6200057682620006f3565b9050602081019050919050565b600081519050919050565b600082825260208201905092915050565b6000620005ac82620005bf565b9050919050565b60008115159050919050565b600073ffffffffffffffffffffffffffffffffffffffff82169050919050565b60005b83811015620005ff578082015181840152602081019050620005e2565b838111156200060f576000848401525b50505050565b600060028204905060018216806200062e57607f821691505b6020821081141562000645576200064462000681565b5b50919050565b6200065682620006f3565b810181811067ffffffffffffffff82111715620006785762000677620006b0565b5b80604052505050565b7f4e487b7100000000000000000000000000000000000000000000000000000000600052602260045260246000fd5b7f4e487b7100000000000000000000000000000000000000000000000000000000600052604160045260246000fd5b600080fd5b600080fd5b600080fd5b600080fd5b6000601f19601f8301169050919050565b7f5f7369676e6572206973206e6f742076616c6964000000000000000000000000600082015250565b62000738816200059f565b81146200074457600080fd5b50565b6200075281620005b3565b81146200075e57600080fd5b50565b6109ef80620007716000396000f3fe608060405234801561001057600080fd5b50600436106100415760003560e01c806350ca092814610046578063596f21f814610076578063963671be14610096575b600080fd5b610060600480360381019061005b919061051b565b6100b4565b60405161006d91906106d5565b60405180910390f35b61007e610168565b60405161008d939291906106f0565b60405180910390f35b61009e6104a1565b6040516100ab91906106ba565b60405180910390f35b6000600260009054906101000a900473ffffffffffffffffffffffffffffffffffffffff1673ffffffffffffffffffffffffffffffffffffffff166363a9c3d7836040518263ffffffff1660e01b815260040161011191906106ba565b60206040518083038186803b15801561012957600080fd5b505afa15801561013d573d6000803e3d6000fd5b505050506040513d601f19601f820116820180604052508101906101619190610575565b9050919050565b60608060606000600260009054906101000a900473ffffffffffffffffffffffffffffffffffffffff1673ffffffffffffffffffffffffffffffffffffffff1663fa69efbd6040518163ffffffff1660e01b815260040160206040518083038186803b1580156101d757600080fd5b505afa1580156101eb573d6000803e3d6000fd5b505050506040513d601f19601f8201168201806040525081019061020f91906105a2565b905060008167ffffffffffffffff81111561022d5761022c61092f565b5b60405190808252806020026020018201604052801561025b5781602001602082028036833780820191505090505b50905060005b828160ff16101561037a57600260009054906101000a900473ffffffffffffffffffffffffffffffffffffffff1673ffffffffffffffffffffffffffffffffffffffff16633ffefe4e826040518263ffffffff1660e01b81526004016102c7919061073c565b60206040518083038186803b1580156102df57600080fd5b505afa1580156102f3573d6000803e3d6000fd5b505050506040513d601f19601f820116820180604052508101906103179190610548565b828260ff168151811061032d5761032c610900565b5b602002602001019073ffffffffffffffffffffffffffffffffffffffff16908173ffffffffffffffffffffffffffffffffffffffff1681525050808061037290610878565b915050610261565b50600081600182805461038c90610846565b80601f01602080910402602001604051908101604052809291908181526020018280546103b890610846565b80156104055780601f106103da57610100808354040283529160200191610405565b820191906000526020600020905b8154815290600101906020018083116103e857829003601f168201915b505050505092508080548060200260200160405190810160405280929190818152602001828054801561048d57602002820191906000526020600020905b8160009054906101000a900473ffffffffffffffffffffffffffffffffffffffff1673ffffffffffffffffffffffffffffffffffffffff1681526020019060010190808311610443575b505050505090509450945094505050909192565b600260009054906101000a900473ffffffffffffffffffffffffffffffffffffffff1681565b6000813590506104d681610974565b92915050565b6000815190506104eb81610974565b92915050565b6000815190506105008161098b565b92915050565b600081519050610515816109a2565b92915050565b6000602082840312156105315761053061095e565b5b600061053f848285016104c7565b91505092915050565b60006020828403121561055e5761055d61095e565b5b600061056c848285016104dc565b91505092915050565b60006020828403121561058b5761058a61095e565b5b6000610599848285016104f1565b91505092915050565b6000602082840312156105b8576105b761095e565b5b60006105c684828501610506565b91505092915050565b60006105db83836105e7565b60208301905092915050565b6105f0816107ac565b82525050565b6105ff816107ac565b82525050565b600061061082610767565b61061a818561078a565b935061062583610757565b8060005b8381101561065657815161063d88826105cf565b97506106488361077d565b925050600181019050610629565b5085935050505092915050565b61066c816107be565b82525050565b600061067d82610772565b610687818561079b565b9350610697818560208601610813565b6106a081610963565b840191505092915050565b6106b481610801565b82525050565b60006020820190506106cf60008301846105f6565b92915050565b60006020820190506106ea6000830184610663565b92915050565b6000606082019050818103600083015261070a8186610672565b9050818103602083015261071e8185610605565b905081810360408301526107328184610605565b9050949350505050565b600060208201905061075160008301846106ab565b92915050565b6000819050602082019050919050565b600081519050919050565b600081519050919050565b6000602082019050919050565b600082825260208201905092915050565b600082825260208201905092915050565b60006107b7826107ca565b9050919050565b60008115159050919050565b600073ffffffffffffffffffffffffffffffffffffffff82169050919050565b6000819050919050565b600060ff82169050919050565b600061080c826107f4565b9050919050565b60005b83811015610831578082015181840152602081019050610816565b83811115610840576000848401525b50505050565b6000600282049050600182168061085e57607f821691505b60208210811415610872576108716108d1565b5b50919050565b6000610883826107f4565b915060ff821415610897576108966108a2565b5b600182019050919050565b7f4e487b7100000000000000000000000000000000000000000000000000000000600052601160045260246000fd5b7f4e487b7100000000000000000000000000000000000000000000000000000000600052602260045260246000fd5b7f4e487b7100000000000000000000000000000000000000000000000000000000600052603260045260246000fd5b7f4e487b7100000000000000000000000000000000000000000000000000000000600052604160045260246000fd5b600080fd5b6000601f19601f8301169050919050565b61097d816107ac565b811461098857600080fd5b50565b610994816107be565b811461099f57600080fd5b50565b6109ab816107ea565b81146109b657600080fd5b5056fea2646970667358221220324006a1d6a76aae3cf09a2a44fb2620ce21aa8305aef766fb51529f07a0741264736f6c63430008070033",
					"opcodes": "PUSH1 0x80 PUSH1 0x40 MSTORE CALLVALUE DUP1 ISZERO PUSH3 0x11 JUMPI PUSH1 0x0 DUP1 REVERT JUMPDEST POP PUSH1 0x40 MLOAD PUSH3 0x1160 CODESIZE SUB DUP1 PUSH3 0x1160 DUP4 CODECOPY DUP2 DUP2 ADD PUSH1 0x40 MSTORE DUP2 ADD SWAP1 PUSH3 0x37 SWAP2 SWAP1 PUSH3 0x3D2 JUMP JUMPDEST DUP1 PUSH1 0x2 PUSH1 0x0 PUSH2 0x100 EXP DUP2 SLOAD DUP2 PUSH20 0xFFFFFFFFFFFFFFFFFFFFFFFFFFFFFFFFFFFFFFFF MUL NOT AND SWAP1 DUP4 PUSH20 0xFFFFFFFFFFFFFFFFFFFFFFFFFFFFFFFFFFFFFFFF AND MUL OR SWAP1 SSTORE POP PUSH3 0x89 ORIGIN PUSH3 0x18A PUSH1 0x20 SHL PUSH1 0x20 SHR JUMP JUMPDEST PUSH3 0xCB JUMPI PUSH1 0x40 MLOAD PUSH32 0x8C379A000000000000000000000000000000000000000000000000000000000 DUP2 MSTORE PUSH1 0x4 ADD PUSH3 0xC2 SWAP1 PUSH3 0x502 JUMP JUMPDEST PUSH1 0x40 MLOAD DUP1 SWAP2 SUB SWAP1 REVERT JUMPDEST DUP2 PUSH1 0x0 SWAP1 DUP1 MLOAD SWAP1 PUSH1 0x20 ADD SWAP1 PUSH3 0xE3 SWAP3 SWAP2 SWAP1 PUSH3 0x244 JUMP JUMPDEST POP PUSH1 0x1 ORIGIN SWAP1 DUP1 PUSH1 0x1 DUP2 SLOAD ADD DUP1 DUP3 SSTORE DUP1 SWAP2 POP POP PUSH1 0x1 SWAP1 SUB SWAP1 PUSH1 0x0 MSTORE PUSH1 0x20 PUSH1 0x0 KECCAK256 ADD PUSH1 0x0 SWAP1 SWAP2 SWAP1 SWAP2 SWAP1 SWAP2 PUSH2 0x100 EXP DUP2 SLOAD DUP2 PUSH20 0xFFFFFFFFFFFFFFFFFFFFFFFFFFFFFFFFFFFFFFFF MUL NOT AND SWAP1 DUP4 PUSH20 0xFFFFFFFFFFFFFFFFFFFFFFFFFFFFFFFFFFFFFFFF AND MUL OR SWAP1 SSTORE POP PUSH32 0xA34D8F872132D193D2E62E18648026516CD6A9D599CB2F07EDA0FD5AB16F1627 DUP3 ORIGIN PUSH1 0x40 MLOAD PUSH3 0x17A SWAP3 SWAP2 SWAP1 PUSH3 0x4CE JUMP JUMPDEST PUSH1 0x40 MLOAD DUP1 SWAP2 SUB SWAP1 LOG1 POP POP PUSH3 0x761 JUMP JUMPDEST PUSH1 0x0 PUSH1 0x2 PUSH1 0x0 SWAP1 SLOAD SWAP1 PUSH2 0x100 EXP SWAP1 DIV PUSH20 0xFFFFFFFFFFFFFFFFFFFFFFFFFFFFFFFFFFFFFFFF AND PUSH20 0xFFFFFFFFFFFFFFFFFFFFFFFFFFFFFFFFFFFFFFFF AND PUSH4 0x63A9C3D7 DUP4 PUSH1 0x40 MLOAD DUP3 PUSH4 0xFFFFFFFF AND PUSH1 0xE0 SHL DUP2 MSTORE PUSH1 0x4 ADD PUSH3 0x1E9 SWAP2 SWAP1 PUSH3 0x4B1 JUMP JUMPDEST PUSH1 0x20 PUSH1 0x40 MLOAD DUP1 DUP4 SUB DUP2 DUP7 DUP1 EXTCODESIZE ISZERO DUP1 ISZERO PUSH3 0x202 JUMPI PUSH1 0x0 DUP1 REVERT JUMPDEST POP GAS STATICCALL ISZERO DUP1 ISZERO PUSH3 0x217 JUMPI RETURNDATASIZE PUSH1 0x0 DUP1 RETURNDATACOPY RETURNDATASIZE PUSH1 0x0 REVERT JUMPDEST POP POP POP POP PUSH1 0x40 MLOAD RETURNDATASIZE PUSH1 0x1F NOT PUSH1 0x1F DUP3 ADD AND DUP3 ADD DUP1 PUSH1 0x40 MSTORE POP DUP2 ADD SWAP1 PUSH3 0x23D SWAP2 SWAP1 PUSH3 0x3A0 JUMP JUMPDEST SWAP1 POP SWAP2 SWAP1 POP JUMP JUMPDEST DUP3 DUP1 SLOAD PUSH3 0x252 SWAP1 PUSH3 0x615 JUMP JUMPDEST SWAP1 PUSH1 0x0 MSTORE PUSH1 0x20 PUSH1 0x0 KECCAK256 SWAP1 PUSH1 0x1F ADD PUSH1 0x20 SWAP1 DIV DUP2 ADD SWAP3 DUP3 PUSH3 0x276 JUMPI PUSH1 0x0 DUP6 SSTORE PUSH3 0x2C2 JUMP JUMPDEST DUP3 PUSH1 0x1F LT PUSH3 0x291 JUMPI DUP1 MLOAD PUSH1 0xFF NOT AND DUP4 DUP1 ADD OR DUP6 SSTORE PUSH3 0x2C2 JUMP JUMPDEST DUP3 DUP1 ADD PUSH1 0x1 ADD DUP6 SSTORE DUP3 ISZERO PUSH3 0x2C2 JUMPI SWAP2 DUP3 ADD JUMPDEST DUP3 DUP2 GT ISZERO PUSH3 0x2C1 JUMPI DUP3 MLOAD DUP3 SSTORE SWAP2 PUSH1 0x20 ADD SWAP2 SWAP1 PUSH1 0x1 ADD SWAP1 PUSH3 0x2A4 JUMP JUMPDEST JUMPDEST POP SWAP1 POP PUSH3 0x2D1 SWAP2 SWAP1 PUSH3 0x2D5 JUMP JUMPDEST POP SWAP1 JUMP JUMPDEST JUMPDEST DUP1 DUP3 GT ISZERO PUSH3 0x2F0 JUMPI PUSH1 0x0 DUP2 PUSH1 0x0 SWAP1 SSTORE POP PUSH1 0x1 ADD PUSH3 0x2D6 JUMP JUMPDEST POP SWAP1 JUMP JUMPDEST PUSH1 0x0 PUSH3 0x30B PUSH3 0x305 DUP5 PUSH3 0x54D JUMP JUMPDEST PUSH3 0x524 JUMP JUMPDEST SWAP1 POP DUP3 DUP2 MSTORE PUSH1 0x20 DUP2 ADD DUP5 DUP5 DUP5 ADD GT ISZERO PUSH3 0x32A JUMPI PUSH3 0x329 PUSH3 0x6E4 JUMP JUMPDEST JUMPDEST PUSH3 0x337 DUP5 DUP3 DUP6 PUSH3 0x5DF JUMP JUMPDEST POP SWAP4 SWAP3 POP POP POP JUMP JUMPDEST PUSH1 0x0 DUP2 MLOAD SWAP1 POP PUSH3 0x350 DUP2 PUSH3 0x72D JUMP JUMPDEST SWAP3 SWAP2 POP POP JUMP JUMPDEST PUSH1 0x0 DUP2 MLOAD SWAP1 POP PUSH3 0x367 DUP2 PUSH3 0x747 JUMP JUMPDEST SWAP3 SWAP2 POP POP JUMP JUMPDEST PUSH1 0x0 DUP3 PUSH1 0x1F DUP4 ADD SLT PUSH3 0x385 JUMPI PUSH3 0x384 PUSH3 0x6DF JUMP JUMPDEST JUMPDEST DUP2 MLOAD PUSH3 0x397 DUP5 DUP3 PUSH1 0x20 DUP7 ADD PUSH3 0x2F4 JUMP JUMPDEST SWAP2 POP POP SWAP3 SWAP2 POP POP JUMP JUMPDEST PUSH1 0x0 PUSH1 0x20 DUP3 DUP5 SUB SLT ISZERO PUSH3 0x3B9 JUMPI PUSH3 0x3B8 PUSH3 0x6EE JUMP JUMPDEST JUMPDEST PUSH1 0x0 PUSH3 0x3C9 DUP5 DUP3 DUP6 ADD PUSH3 0x356 JUMP JUMPDEST SWAP2 POP POP SWAP3 SWAP2 POP POP JUMP JUMPDEST PUSH1 0x0 DUP1 PUSH1 0x40 DUP4 DUP6 SUB SLT ISZERO PUSH3 0x3EC JUMPI PUSH3 0x3EB PUSH3 0x6EE JUMP JUMPDEST JUMPDEST PUSH1 0x0 DUP4 ADD MLOAD PUSH8 0xFFFFFFFFFFFFFFFF DUP2 GT ISZERO PUSH3 0x40D JUMPI PUSH3 0x40C PUSH3 0x6E9 JUMP JUMPDEST JUMPDEST PUSH3 0x41B DUP6 DUP3 DUP7 ADD PUSH3 0x36D JUMP JUMPDEST SWAP3 POP POP PUSH1 0x20 PUSH3 0x42E DUP6 DUP3 DUP7 ADD PUSH3 0x33F JUMP JUMPDEST SWAP2 POP POP SWAP3 POP SWAP3 SWAP1 POP JUMP JUMPDEST PUSH3 0x443 DUP2 PUSH3 0x59F JUMP JUMPDEST DUP3 MSTORE POP POP JUMP JUMPDEST PUSH1 0x0 PUSH3 0x456 DUP3 PUSH3 0x583 JUMP JUMPDEST PUSH3 0x462 DUP2 DUP6 PUSH3 0x58E JUMP JUMPDEST SWAP4 POP PUSH3 0x474 DUP2 DUP6 PUSH1 0x20 DUP7 ADD PUSH3 0x5DF JUMP JUMPDEST PUSH3 0x47F DUP2 PUSH3 0x6F3 JUMP JUMPDEST DUP5 ADD SWAP2 POP POP SWAP3 SWAP2 POP POP JUMP JUMPDEST PUSH1 0x0 PUSH3 0x499 PUSH1 0x14 DUP4 PUSH3 0x58E JUMP JUMPDEST SWAP2 POP PUSH3 0x4A6 DUP3 PUSH3 0x704 JUMP JUMPDEST PUSH1 0x20 DUP3 ADD SWAP1 POP SWAP2 SWAP1 POP JUMP JUMPDEST PUSH1 0x0 PUSH1 0x20 DUP3 ADD SWAP1 POP PUSH3 0x4C8 PUSH1 0x0 DUP4 ADD DUP5 PUSH3 0x438 JUMP JUMPDEST SWAP3 SWAP2 POP POP JUMP JUMPDEST PUSH1 0x0 PUSH1 0x40 DUP3 ADD SWAP1 POP DUP2 DUP2 SUB PUSH1 0x0 DUP4 ADD MSTORE PUSH3 0x4EA DUP2 DUP6 PUSH3 0x449 JUMP JUMPDEST SWAP1 POP PUSH3 0x4FB PUSH1 0x20 DUP4 ADD DUP5 PUSH3 0x438 JUMP JUMPDEST SWAP4 SWAP3 POP POP POP JUMP JUMPDEST PUSH1 0x0 PUSH1 0x20 DUP3 ADD SWAP1 POP DUP2 DUP2 SUB PUSH1 0x0 DUP4 ADD MSTORE PUSH3 0x51D DUP2 PUSH3 0x48A JUMP JUMPDEST SWAP1 POP SWAP2 SWAP1 POP JUMP JUMPDEST PUSH1 0x0 PUSH3 0x530 PUSH3 0x543 JUMP JUMPDEST SWAP1 POP PUSH3 0x53E DUP3 DUP3 PUSH3 0x64B JUMP JUMPDEST SWAP2 SWAP1 POP JUMP JUMPDEST PUSH1 0x0 PUSH1 0x40 MLOAD SWAP1 POP SWAP1 JUMP JUMPDEST PUSH1 0x0 PUSH8 0xFFFFFFFFFFFFFFFF DUP3 GT ISZERO PUSH3 0x56B JUMPI PUSH3 0x56A PUSH3 0x6B0 JUMP JUMPDEST JUMPDEST PUSH3 0x576 DUP3 PUSH3 0x6F3 JUMP JUMPDEST SWAP1 POP PUSH1 0x20 DUP2 ADD SWAP1 POP SWAP2 SWAP1 POP JUMP JUMPDEST PUSH1 0x0 DUP2 MLOAD SWAP1 POP SWAP2 SWAP1 POP JUMP JUMPDEST PUSH1 0x0 DUP3 DUP3 MSTORE PUSH1 0x20 DUP3 ADD SWAP1 POP SWAP3 SWAP2 POP POP JUMP JUMPDEST PUSH1 0x0 PUSH3 0x5AC DUP3 PUSH3 0x5BF JUMP JUMPDEST SWAP1 POP SWAP2 SWAP1 POP JUMP JUMPDEST PUSH1 0x0 DUP2 ISZERO ISZERO SWAP1 POP SWAP2 SWAP1 POP JUMP JUMPDEST PUSH1 0x0 PUSH20 0xFFFFFFFFFFFFFFFFFFFFFFFFFFFFFFFFFFFFFFFF DUP3 AND SWAP1 POP SWAP2 SWAP1 POP JUMP JUMPDEST PUSH1 0x0 JUMPDEST DUP4 DUP2 LT ISZERO PUSH3 0x5FF JUMPI DUP1 DUP3 ADD MLOAD DUP2 DUP5 ADD MSTORE PUSH1 0x20 DUP2 ADD SWAP1 POP PUSH3 0x5E2 JUMP JUMPDEST DUP4 DUP2 GT ISZERO PUSH3 0x60F JUMPI PUSH1 0x0 DUP5 DUP5 ADD MSTORE JUMPDEST POP POP POP POP JUMP JUMPDEST PUSH1 0x0 PUSH1 0x2 DUP3 DIV SWAP1 POP PUSH1 0x1 DUP3 AND DUP1 PUSH3 0x62E JUMPI PUSH1 0x7F DUP3 AND SWAP2 POP JUMPDEST PUSH1 0x20 DUP3 LT DUP2 EQ ISZERO PUSH3 0x645 JUMPI PUSH3 0x644 PUSH3 0x681 JUMP JUMPDEST JUMPDEST POP SWAP2 SWAP1 POP JUMP JUMPDEST PUSH3 0x656 DUP3 PUSH3 0x6F3 JUMP JUMPDEST DUP2 ADD DUP2 DUP2 LT PUSH8 0xFFFFFFFFFFFFFFFF DUP3 GT OR ISZERO PUSH3 0x678 JUMPI PUSH3 0x677 PUSH3 0x6B0 JUMP JUMPDEST JUMPDEST DUP1 PUSH1 0x40 MSTORE POP POP POP JUMP JUMPDEST PUSH32 0x4E487B7100000000000000000000000000000000000000000000000000000000 PUSH1 0x0 MSTORE PUSH1 0x22 PUSH1 0x4 MSTORE PUSH1 0x24 PUSH1 0x0 REVERT JUMPDEST PUSH32 0x4E487B7100000000000000000000000000000000000000000000000000000000 PUSH1 0x0 MSTORE PUSH1 0x41 PUSH1 0x4 MSTORE PUSH1 0x24 PUSH1 0x0 REVERT JUMPDEST PUSH1 0x0 DUP1 REVERT JUMPDEST PUSH1 0x0 DUP1 REVERT JUMPDEST PUSH1 0x0 DUP1 REVERT JUMPDEST PUSH1 0x0 DUP1 REVERT JUMPDEST PUSH1 0x0 PUSH1 0x1F NOT PUSH1 0x1F DUP4 ADD AND SWAP1 POP SWAP2 SWAP1 POP JUMP JUMPDEST PUSH32 0x5F7369676E6572206973206E6F742076616C6964000000000000000000000000 PUSH1 0x0 DUP3 ADD MSTORE POP JUMP JUMPDEST PUSH3 0x738 DUP2 PUSH3 0x59F JUMP JUMPDEST DUP2 EQ PUSH3 0x744 JUMPI PUSH1 0x0 DUP1 REVERT JUMPDEST POP JUMP JUMPDEST PUSH3 0x752 DUP2 PUSH3 0x5B3 JUMP JUMPDEST DUP2 EQ PUSH3 0x75E JUMPI PUSH1 0x0 DUP1 REVERT JUMPDEST POP JUMP JUMPDEST PUSH2 0x9EF DUP1 PUSH3 0x771 PUSH1 0x0 CODECOPY PUSH1 0x0 RETURN INVALID PUSH1 0x80 PUSH1 0x40 MSTORE CALLVALUE DUP1 ISZERO PUSH2 0x10 JUMPI PUSH1 0x0 DUP1 REVERT JUMPDEST POP PUSH1 0x4 CALLDATASIZE LT PUSH2 0x41 JUMPI PUSH1 0x0 CALLDATALOAD PUSH1 0xE0 SHR DUP1 PUSH4 0x50CA0928 EQ PUSH2 0x46 JUMPI DUP1 PUSH4 0x596F21F8 EQ PUSH2 0x76 JUMPI DUP1 PUSH4 0x963671BE EQ PUSH2 0x96 JUMPI JUMPDEST PUSH1 0x0 DUP1 REVERT JUMPDEST PUSH2 0x60 PUSH1 0x4 DUP1 CALLDATASIZE SUB DUP2 ADD SWAP1 PUSH2 0x5B SWAP2 SWAP1 PUSH2 0x51B JUMP JUMPDEST PUSH2 0xB4 JUMP JUMPDEST PUSH1 0x40 MLOAD PUSH2 0x6D SWAP2 SWAP1 PUSH2 0x6D5 JUMP JUMPDEST PUSH1 0x40 MLOAD DUP1 SWAP2 SUB SWAP1 RETURN JUMPDEST PUSH2 0x7E PUSH2 0x168 JUMP JUMPDEST PUSH1 0x40 MLOAD PUSH2 0x8D SWAP4 SWAP3 SWAP2 SWAP1 PUSH2 0x6F0 JUMP JUMPDEST PUSH1 0x40 MLOAD DUP1 SWAP2 SUB SWAP1 RETURN JUMPDEST PUSH2 0x9E PUSH2 0x4A1 JUMP JUMPDEST PUSH1 0x40 MLOAD PUSH2 0xAB SWAP2 SWAP1 PUSH2 0x6BA JUMP JUMPDEST PUSH1 0x40 MLOAD DUP1 SWAP2 SUB SWAP1 RETURN JUMPDEST PUSH1 0x0 PUSH1 0x2 PUSH1 0x0 SWAP1 SLOAD SWAP1 PUSH2 0x100 EXP SWAP1 DIV PUSH20 0xFFFFFFFFFFFFFFFFFFFFFFFFFFFFFFFFFFFFFFFF AND PUSH20 0xFFFFFFFFFFFFFFFFFFFFFFFFFFFFFFFFFFFFFFFF AND PUSH4 0x63A9C3D7 DUP4 PUSH1 0x40 MLOAD DUP3 PUSH4 0xFFFFFFFF AND PUSH1 0xE0 SHL DUP2 MSTORE PUSH1 0x4 ADD PUSH2 0x111 SWAP2 SWAP1 PUSH2 0x6BA JUMP JUMPDEST PUSH1 0x20 PUSH1 0x40 MLOAD DUP1 DUP4 SUB DUP2 DUP7 DUP1 EXTCODESIZE ISZERO DUP1 ISZERO PUSH2 0x129 JUMPI PUSH1 0x0 DUP1 REVERT JUMPDEST POP GAS STATICCALL ISZERO DUP1 ISZERO PUSH2 0x13D JUMPI RETURNDATASIZE PUSH1 0x0 DUP1 RETURNDATACOPY RETURNDATASIZE PUSH1 0x0 REVERT JUMPDEST POP POP POP POP PUSH1 0x40 MLOAD RETURNDATASIZE PUSH1 0x1F NOT PUSH1 0x1F DUP3 ADD AND DUP3 ADD DUP1 PUSH1 0x40 MSTORE POP DUP2 ADD SWAP1 PUSH2 0x161 SWAP2 SWAP1 PUSH2 0x575 JUMP JUMPDEST SWAP1 POP SWAP2 SWAP1 POP JUMP JUMPDEST PUSH1 0x60 DUP1 PUSH1 0x60 PUSH1 0x0 PUSH1 0x2 PUSH1 0x0 SWAP1 SLOAD SWAP1 PUSH2 0x100 EXP SWAP1 DIV PUSH20 0xFFFFFFFFFFFFFFFFFFFFFFFFFFFFFFFFFFFFFFFF AND PUSH20 0xFFFFFFFFFFFFFFFFFFFFFFFFFFFFFFFFFFFFFFFF AND PUSH4 0xFA69EFBD PUSH1 0x40 MLOAD DUP2 PUSH4 0xFFFFFFFF AND PUSH1 0xE0 SHL DUP2 MSTORE PUSH1 0x4 ADD PUSH1 0x20 PUSH1 0x40 MLOAD DUP1 DUP4 SUB DUP2 DUP7 DUP1 EXTCODESIZE ISZERO DUP1 ISZERO PUSH2 0x1D7 JUMPI PUSH1 0x0 DUP1 REVERT JUMPDEST POP GAS STATICCALL ISZERO DUP1 ISZERO PUSH2 0x1EB JUMPI RETURNDATASIZE PUSH1 0x0 DUP1 RETURNDATACOPY RETURNDATASIZE PUSH1 0x0 REVERT JUMPDEST POP POP POP POP PUSH1 0x40 MLOAD RETURNDATASIZE PUSH1 0x1F NOT PUSH1 0x1F DUP3 ADD AND DUP3 ADD DUP1 PUSH1 0x40 MSTORE POP DUP2 ADD SWAP1 PUSH2 0x20F SWAP2 SWAP1 PUSH2 0x5A2 JUMP JUMPDEST SWAP1 POP PUSH1 0x0 DUP2 PUSH8 0xFFFFFFFFFFFFFFFF DUP2 GT ISZERO PUSH2 0x22D JUMPI PUSH2 0x22C PUSH2 0x92F JUMP JUMPDEST JUMPDEST PUSH1 0x40 MLOAD SWAP1 DUP1 DUP3 MSTORE DUP1 PUSH1 0x20 MUL PUSH1 0x20 ADD DUP3 ADD PUSH1 0x40 MSTORE DUP1 ISZERO PUSH2 0x25B JUMPI DUP2 PUSH1 0x20 ADD PUSH1 0x20 DUP3 MUL DUP1 CALLDATASIZE DUP4 CALLDATACOPY DUP1 DUP3 ADD SWAP2 POP POP SWAP1 POP JUMPDEST POP SWAP1 POP PUSH1 0x0 JUMPDEST DUP3 DUP2 PUSH1 0xFF AND LT ISZERO PUSH2 0x37A JUMPI PUSH1 0x2 PUSH1 0x0 SWAP1 SLOAD SWAP1 PUSH2 0x100 EXP SWAP1 DIV PUSH20 0xFFFFFFFFFFFFFFFFFFFFFFFFFFFFFFFFFFFFFFFF AND PUSH20 0xFFFFFFFFFFFFFFFFFFFFFFFFFFFFFFFFFFFFFFFF AND PUSH4 0x3FFEFE4E DUP3 PUSH1 0x40 MLOAD DUP3 PUSH4 0xFFFFFFFF AND PUSH1 0xE0 SHL DUP2 MSTORE PUSH1 0x4 ADD PUSH2 0x2C7 SWAP2 SWAP1 PUSH2 0x73C JUMP JUMPDEST PUSH1 0x20 PUSH1 0x40 MLOAD DUP1 DUP4 SUB DUP2 DUP7 DUP1 EXTCODESIZE ISZERO DUP1 ISZERO PUSH2 0x2DF JUMPI PUSH1 0x0 DUP1 REVERT JUMPDEST POP GAS STATICCALL ISZERO DUP1 ISZERO PUSH2 0x2F3 JUMPI RETURNDATASIZE PUSH1 0x0 DUP1 RETURNDATACOPY RETURNDATASIZE PUSH1 0x0 REVERT JUMPDEST POP POP POP POP PUSH1 0x40 MLOAD RETURNDATASIZE PUSH1 0x1F NOT PUSH1 0x1F DUP3 ADD AND DUP3 ADD DUP1 PUSH1 0x40 MSTORE POP DUP2 ADD SWAP1 PUSH2 0x317 SWAP2 SWAP1 PUSH2 0x548 JUMP JUMPDEST DUP3 DUP3 PUSH1 0xFF AND DUP2 MLOAD DUP2 LT PUSH2 0x32D JUMPI PUSH2 0x32C PUSH2 0x900 JUMP JUMPDEST JUMPDEST PUSH1 0x20 MUL PUSH1 0x20 ADD ADD SWAP1 PUSH20 0xFFFFFFFFFFFFFFFFFFFFFFFFFFFFFFFFFFFFFFFF AND SWAP1 DUP2 PUSH20 0xFFFFFFFFFFFFFFFFFFFFFFFFFFFFFFFFFFFFFFFF AND DUP2 MSTORE POP POP DUP1 DUP1 PUSH2 0x372 SWAP1 PUSH2 0x878 JUMP JUMPDEST SWAP2 POP POP PUSH2 0x261 JUMP JUMPDEST POP PUSH1 0x0 DUP2 PUSH1 0x1 DUP3 DUP1 SLOAD PUSH2 0x38C SWAP1 PUSH2 0x846 JUMP JUMPDEST DUP1 PUSH1 0x1F ADD PUSH1 0x20 DUP1 SWAP2 DIV MUL PUSH1 0x20 ADD PUSH1 0x40 MLOAD SWAP1 DUP2 ADD PUSH1 0x40 MSTORE DUP1 SWAP3 SWAP2 SWAP1 DUP2 DUP2 MSTORE PUSH1 0x20 ADD DUP3 DUP1 SLOAD PUSH2 0x3B8 SWAP1 PUSH2 0x846 JUMP JUMPDEST DUP1 ISZERO PUSH2 0x405 JUMPI DUP1 PUSH1 0x1F LT PUSH2 0x3DA JUMPI PUSH2 0x100 DUP1 DUP4 SLOAD DIV MUL DUP4 MSTORE SWAP2 PUSH1 0x20 ADD SWAP2 PUSH2 0x405 JUMP JUMPDEST DUP3 ADD SWAP2 SWAP1 PUSH1 0x0 MSTORE PUSH1 0x20 PUSH1 0x0 KECCAK256 SWAP1 JUMPDEST DUP2 SLOAD DUP2 MSTORE SWAP1 PUSH1 0x1 ADD SWAP1 PUSH1 0x20 ADD DUP1 DUP4 GT PUSH2 0x3E8 JUMPI DUP3 SWAP1 SUB PUSH1 0x1F AND DUP3 ADD SWAP2 JUMPDEST POP POP POP POP POP SWAP3 POP DUP1 DUP1 SLOAD DUP1 PUSH1 0x20 MUL PUSH1 0x20 ADD PUSH1 0x40 MLOAD SWAP1 DUP2 ADD PUSH1 0x40 MSTORE DUP1 SWAP3 SWAP2 SWAP1 DUP2 DUP2 MSTORE PUSH1 0x20 ADD DUP3 DUP1 SLOAD DUP1 ISZERO PUSH2 0x48D JUMPI PUSH1 0x20 MUL DUP3 ADD SWAP2 SWAP1 PUSH1 0x0 MSTORE PUSH1 0x20 PUSH1 0x0 KECCAK256 SWAP1 JUMPDEST DUP2 PUSH1 0x0 SWAP1 SLOAD SWAP1 PUSH2 0x100 EXP SWAP1 DIV PUSH20 0xFFFFFFFFFFFFFFFFFFFFFFFFFFFFFFFFFFFFFFFF AND PUSH20 0xFFFFFFFFFFFFFFFFFFFFFFFFFFFFFFFFFFFFFFFF AND DUP2 MSTORE PUSH1 0x20 ADD SWAP1 PUSH1 0x1 ADD SWAP1 DUP1 DUP4 GT PUSH2 0x443 JUMPI JUMPDEST POP POP POP POP POP SWAP1 POP SWAP5 POP SWAP5 POP SWAP5 POP POP POP SWAP1 SWAP2 SWAP3 JUMP JUMPDEST PUSH1 0x2 PUSH1 0x0 SWAP1 SLOAD SWAP1 PUSH2 0x100 EXP SWAP1 DIV PUSH20 0xFFFFFFFFFFFFFFFFFFFFFFFFFFFFFFFFFFFFFFFF AND DUP2 JUMP JUMPDEST PUSH1 0x0 DUP2 CALLDATALOAD SWAP1 POP PUSH2 0x4D6 DUP2 PUSH2 0x974 JUMP JUMPDEST SWAP3 SWAP2 POP POP JUMP JUMPDEST PUSH1 0x0 DUP2 MLOAD SWAP1 POP PUSH2 0x4EB DUP2 PUSH2 0x974 JUMP JUMPDEST SWAP3 SWAP2 POP POP JUMP JUMPDEST PUSH1 0x0 DUP2 MLOAD SWAP1 POP PUSH2 0x500 DUP2 PUSH2 0x98B JUMP JUMPDEST SWAP3 SWAP2 POP POP JUMP JUMPDEST PUSH1 0x0 DUP2 MLOAD SWAP1 POP PUSH2 0x515 DUP2 PUSH2 0x9A2 JUMP JUMPDEST SWAP3 SWAP2 POP POP JUMP JUMPDEST PUSH1 0x0 PUSH1 0x20 DUP3 DUP5 SUB SLT ISZERO PUSH2 0x531 JUMPI PUSH2 0x530 PUSH2 0x95E JUMP JUMPDEST JUMPDEST PUSH1 0x0 PUSH2 0x53F DUP5 DUP3 DUP6 ADD PUSH2 0x4C7 JUMP JUMPDEST SWAP2 POP POP SWAP3 SWAP2 POP POP JUMP JUMPDEST PUSH1 0x0 PUSH1 0x20 DUP3 DUP5 SUB SLT ISZERO PUSH2 0x55E JUMPI PUSH2 0x55D PUSH2 0x95E JUMP JUMPDEST JUMPDEST PUSH1 0x0 PUSH2 0x56C DUP5 DUP3 DUP6 ADD PUSH2 0x4DC JUMP JUMPDEST SWAP2 POP POP SWAP3 SWAP2 POP POP JUMP JUMPDEST PUSH1 0x0 PUSH1 0x20 DUP3 DUP5 SUB SLT ISZERO PUSH2 0x58B JUMPI PUSH2 0x58A PUSH2 0x95E JUMP JUMPDEST JUMPDEST PUSH1 0x0 PUSH2 0x599 DUP5 DUP3 DUP6 ADD PUSH2 0x4F1 JUMP JUMPDEST SWAP2 POP POP SWAP3 SWAP2 POP POP JUMP JUMPDEST PUSH1 0x0 PUSH1 0x20 DUP3 DUP5 SUB SLT ISZERO PUSH2 0x5B8 JUMPI PUSH2 0x5B7 PUSH2 0x95E JUMP JUMPDEST JUMPDEST PUSH1 0x0 PUSH2 0x5C6 DUP5 DUP3 DUP6 ADD PUSH2 0x506 JUMP JUMPDEST SWAP2 POP POP SWAP3 SWAP2 POP POP JUMP JUMPDEST PUSH1 0x0 PUSH2 0x5DB DUP4 DUP4 PUSH2 0x5E7 JUMP JUMPDEST PUSH1 0x20 DUP4 ADD SWAP1 POP SWAP3 SWAP2 POP POP JUMP JUMPDEST PUSH2 0x5F0 DUP2 PUSH2 0x7AC JUMP JUMPDEST DUP3 MSTORE POP POP JUMP JUMPDEST PUSH2 0x5FF DUP2 PUSH2 0x7AC JUMP JUMPDEST DUP3 MSTORE POP POP JUMP JUMPDEST PUSH1 0x0 PUSH2 0x610 DUP3 PUSH2 0x767 JUMP JUMPDEST PUSH2 0x61A DUP2 DUP6 PUSH2 0x78A JUMP JUMPDEST SWAP4 POP PUSH2 0x625 DUP4 PUSH2 0x757 JUMP JUMPDEST DUP1 PUSH1 0x0 JUMPDEST DUP4 DUP2 LT ISZERO PUSH2 0x656 JUMPI DUP2 MLOAD PUSH2 0x63D DUP9 DUP3 PUSH2 0x5CF JUMP JUMPDEST SWAP8 POP PUSH2 0x648 DUP4 PUSH2 0x77D JUMP JUMPDEST SWAP3 POP POP PUSH1 0x1 DUP2 ADD SWAP1 POP PUSH2 0x629 JUMP JUMPDEST POP DUP6 SWAP4 POP POP POP POP SWAP3 SWAP2 POP POP JUMP JUMPDEST PUSH2 0x66C DUP2 PUSH2 0x7BE JUMP JUMPDEST DUP3 MSTORE POP POP JUMP JUMPDEST PUSH1 0x0 PUSH2 0x67D DUP3 PUSH2 0x772 JUMP JUMPDEST PUSH2 0x687 DUP2 DUP6 PUSH2 0x79B JUMP JUMPDEST SWAP4 POP PUSH2 0x697 DUP2 DUP6 PUSH1 0x20 DUP7 ADD PUSH2 0x813 JUMP JUMPDEST PUSH2 0x6A0 DUP2 PUSH2 0x963 JUMP JUMPDEST DUP5 ADD SWAP2 POP POP SWAP3 SWAP2 POP POP JUMP JUMPDEST PUSH2 0x6B4 DUP2 PUSH2 0x801 JUMP JUMPDEST DUP3 MSTORE POP POP JUMP JUMPDEST PUSH1 0x0 PUSH1 0x20 DUP3 ADD SWAP1 POP PUSH2 0x6CF PUSH1 0x0 DUP4 ADD DUP5 PUSH2 0x5F6 JUMP JUMPDEST SWAP3 SWAP2 POP POP JUMP JUMPDEST PUSH1 0x0 PUSH1 0x20 DUP3 ADD SWAP1 POP PUSH2 0x6EA PUSH1 0x0 DUP4 ADD DUP5 PUSH2 0x663 JUMP JUMPDEST SWAP3 SWAP2 POP POP JUMP JUMPDEST PUSH1 0x0 PUSH1 0x60 DUP3 ADD SWAP1 POP DUP2 DUP2 SUB PUSH1 0x0 DUP4 ADD MSTORE PUSH2 0x70A DUP2 DUP7 PUSH2 0x672 JUMP JUMPDEST SWAP1 POP DUP2 DUP2 SUB PUSH1 0x20 DUP4 ADD MSTORE PUSH2 0x71E DUP2 DUP6 PUSH2 0x605 JUMP JUMPDEST SWAP1 POP DUP2 DUP2 SUB PUSH1 0x40 DUP4 ADD MSTORE PUSH2 0x732 DUP2 DUP5 PUSH2 0x605 JUMP JUMPDEST SWAP1 POP SWAP5 SWAP4 POP POP POP POP JUMP JUMPDEST PUSH1 0x0 PUSH1 0x20 DUP3 ADD SWAP1 POP PUSH2 0x751 PUSH1 0x0 DUP4 ADD DUP5 PUSH2 0x6AB JUMP JUMPDEST SWAP3 SWAP2 POP POP JUMP JUMPDEST PUSH1 0x0 DUP2 SWAP1 POP PUSH1 0x20 DUP3 ADD SWAP1 POP SWAP2 SWAP1 POP JUMP JUMPDEST PUSH1 0x0 DUP2 MLOAD SWAP1 POP SWAP2 SWAP1 POP JUMP JUMPDEST PUSH1 0x0 DUP2 MLOAD SWAP1 POP SWAP2 SWAP1 POP JUMP JUMPDEST PUSH1 0x0 PUSH1 0x20 DUP3 ADD SWAP1 POP SWAP2 SWAP1 POP JUMP JUMPDEST PUSH1 0x0 DUP3 DUP3 MSTORE PUSH1 0x20 DUP3 ADD SWAP1 POP SWAP3 SWAP2 POP POP JUMP JUMPDEST PUSH1 0x0 DUP3 DUP3 MSTORE PUSH1 0x20 DUP3 ADD SWAP1 POP SWAP3 SWAP2 POP POP JUMP JUMPDEST PUSH1 0x0 PUSH2 0x7B7 DUP3 PUSH2 0x7CA JUMP JUMPDEST SWAP1 POP SWAP2 SWAP1 POP JUMP JUMPDEST PUSH1 0x0 DUP2 ISZERO ISZERO SWAP1 POP SWAP2 SWAP1 POP JUMP JUMPDEST PUSH1 0x0 PUSH20 0xFFFFFFFFFFFFFFFFFFFFFFFFFFFFFFFFFFFFFFFF DUP3 AND SWAP1 POP SWAP2 SWAP1 POP JUMP JUMPDEST PUSH1 0x0 DUP2 SWAP1 POP SWAP2 SWAP1 POP JUMP JUMPDEST PUSH1 0x0 PUSH1 0xFF DUP3 AND SWAP1 POP SWAP2 SWAP1 POP JUMP JUMPDEST PUSH1 0x0 PUSH2 0x80C DUP3 PUSH2 0x7F4 JUMP JUMPDEST SWAP1 POP SWAP2 SWAP1 POP JUMP JUMPDEST PUSH1 0x0 JUMPDEST DUP4 DUP2 LT ISZERO PUSH2 0x831 JUMPI DUP1 DUP3 ADD MLOAD DUP2 DUP5 ADD MSTORE PUSH1 0x20 DUP2 ADD SWAP1 POP PUSH2 0x816 JUMP JUMPDEST DUP4 DUP2 GT ISZERO PUSH2 0x840 JUMPI PUSH1 0x0 DUP5 DUP5 ADD MSTORE JUMPDEST POP POP POP POP JUMP JUMPDEST PUSH1 0x0 PUSH1 0x2 DUP3 DIV SWAP1 POP PUSH1 0x1 DUP3 AND DUP1 PUSH2 0x85E JUMPI PUSH1 0x7F DUP3 AND SWAP2 POP JUMPDEST PUSH1 0x20 DUP3 LT DUP2 EQ ISZERO PUSH2 0x872 JUMPI PUSH2 0x871 PUSH2 0x8D1 JUMP JUMPDEST JUMPDEST POP SWAP2 SWAP1 POP JUMP JUMPDEST PUSH1 0x0 PUSH2 0x883 DUP3 PUSH2 0x7F4 JUMP JUMPDEST SWAP2 POP PUSH1 0xFF DUP3 EQ ISZERO PUSH2 0x897 JUMPI PUSH2 0x896 PUSH2 0x8A2 JUMP JUMPDEST JUMPDEST PUSH1 0x1 DUP3 ADD SWAP1 POP SWAP2 SWAP1 POP JUMP JUMPDEST PUSH32 0x4E487B7100000000000000000000000000000000000000000000000000000000 PUSH1 0x0 MSTORE PUSH1 0x11 PUSH1 0x4 MSTORE PUSH1 0x24 PUSH1 0x0 REVERT JUMPDEST PUSH32 0x4E487B7100000000000000000000000000000000000000000000000000000000 PUSH1 0x0 MSTORE PUSH1 0x22 PUSH1 0x4 MSTORE PUSH1 0x24 PUSH1 0x0 REVERT JUMPDEST PUSH32 0x4E487B7100000000000000000000000000000000000000000000000000000000 PUSH1 0x0 MSTORE PUSH1 0x32 PUSH1 0x4 MSTORE PUSH1 0x24 PUSH1 0x0 REVERT JUMPDEST PUSH32 0x4E487B7100000000000000000000000000000000000000000000000000000000 PUSH1 0x0 MSTORE PUSH1 0x41 PUSH1 0x4 MSTORE PUSH1 0x24 PUSH1 0x0 REVERT JUMPDEST PUSH1 0x0 DUP1 REVERT JUMPDEST PUSH1 0x0 PUSH1 0x1F NOT PUSH1 0x1F DUP4 ADD AND SWAP1 POP SWAP2 SWAP1 POP JUMP JUMPDEST PUSH2 0x97D DUP2 PUSH2 0x7AC JUMP JUMPDEST DUP2 EQ PUSH2 0x988 JUMPI PUSH1 0x0 DUP1 REVERT JUMPDEST POP JUMP JUMPDEST PUSH2 0x994 DUP2 PUSH2 0x7BE JUMP JUMPDEST DUP2 EQ PUSH2 0x99F JUMPI PUSH1 0x0 DUP1 REVERT JUMPDEST POP JUMP JUMPDEST PUSH2 0x9AB DUP2 PUSH2 0x7EA JUMP JUMPDEST DUP2 EQ PUSH2 0x9B6 JUMPI PUSH1 0x0 DUP1 REVERT JUMPDEST POP JUMP INVALID LOG2 PUSH5 0x6970667358 0x22 SLT KECCAK256 ORIGIN BLOCKHASH MOD LOG1 0xD6 0xA7 PUSH11 0xAE3CF09A2A44FB2620CE21 0xAA DUP4 SDIV 0xAE 0xF7 PUSH7 0xFB51529F07A074 SLT PUSH5 0x736F6C6343 STOP ADDMOD SMOD STOP CALLER "
				},
				"gasEstimates": {
					"creation": {
						"codeDepositCost": "508600",
						"executionCost": "infinite",
						"totalCost": "infinite"
					},
					"external": {
						"callVerify(address)": "infinite",
						"factoryAddr()": "2536",
						"getEvidence()": "infinite"
					}
				},
				"methodIdentifiers": {
					"callVerify(address)": "50ca0928",
					"factoryAddr()": "963671be",
					"getEvidence()": "596f21f8"
				}
			},
			"storageLayout": {
				"storage": [
					{
						"astId": 23,
						"contract": "evidence/evidence.sol:Evidence",
						"label": "evidence",
						"offset": 0,
						"slot": "0",
						"type": "t_string_storage"
					},
					{
						"astId": 26,
						"contract": "evidence/evidence.sol:Evidence",
						"label": "signers",
						"offset": 0,
						"slot": "1",
						"type": "t_array(t_address)dyn_storage"
					},
					{
						"astId": 28,
						"contract": "evidence/evidence.sol:Evidence",
						"label": "factoryAddr",
						"offset": 0,
						"slot": "2",
						"type": "t_address"
					}
				],
				"types": {
					"t_address": {
						"encoding": "inplace",
						"label": "address",
						"numberOfBytes": "20"
					},
					"t_array(t_address)dyn_storage": {
						"base": "t_address",
						"encoding": "dynamic_array",
						"label": "address[]",
						"numberOfBytes": "32"
					},
					"t_string_storage": {
						"encoding": "bytes",
						"label": "string",
						"numberOfBytes": "32"
					}
				}
			},
			"userdoc": {
				"kind": "user",
				"methods": {},
				"version": 1
			}
		}
	}
}