{
	"evidence/evidence.sol": {
		"Evidence": {
			"abi": [
				{
					"inputs": [
						{
							"internalType": "string",
							"name": "_evi",
							"type": "string"
						},
						{
							"internalType": "address",
							"name": "_factory",
							"type": "address"
						}
					],
					"stateMutability": "nonpayable",
					"type": "constructor"
				},
				{
					"anonymous": false,
					"inputs": [
						{
							"indexed": false,
							"internalType": "string",
							"name": "_evi",
							"type": "string"
						},
						{
							"indexed": false,
							"internalType": "address",
							"name": "_sender",
							"type": "address"
						}
					],
					"name": "AddRepeatSignaturesEvidence",
					"type": "event"
				},
				{
					"anonymous": false,
					"inputs": [
						{
							"indexed": false,
							"internalType": "string",
							"name": "_evi",
							"type": "string"
						},
						{
							"indexed": false,
							"internalType": "address",
							"name": "_sender",
							"type": "address"
						}
					],
					"name": "AddSignaturesEvidence",
					"type": "event"
				},
				{
					"anonymous": false,
					"inputs": [
						{
							"indexed": false,
							"internalType": "string",
							"name": "_evi",
							"type": "string"
						},
						{
							"indexed": false,
							"internalType": "address",
							"name": "_sender",
							"type": "address"
						}
					],
					"name": "NewSignaturesEvidence",
					"type": "event"
				},
				{
					"inputs": [
						{
							"internalType": "address",
							"name": "_signer",
							"type": "address"
						}
					],
					"name": "callVerify",
					"outputs": [
						{
							"internalType": "bool",
							"name": "",
							"type": "bool"
						}
					],
					"stateMutability": "view",
					"type": "function"
				},
				{
					"inputs": [],
					"name": "factoryAddr",
					"outputs": [
						{
							"internalType": "address",
							"name": "",
							"type": "address"
						}
					],
					"stateMutability": "view",
					"type": "function"
				},
				{
					"inputs": [],
					"name": "getEvidence",
					"outputs": [
						{
							"internalType": "string",
							"name": "",
							"type": "string"
						},
						{
							"internalType": "address[]",
							"name": "",
							"type": "address[]"
						},
						{
							"internalType": "address[]",
							"name": "",
							"type": "address[]"
						}
					],
					"stateMutability": "view",
					"type": "function"
				},
				{
					"inputs": [],
					"name": "isAllSigned",
					"outputs": [
						{
							"internalType": "bool",
							"name": "",
							"type": "bool"
						},
						{
							"internalType": "string",
							"name": "",
							"type": "string"
						}
					],
					"stateMutability": "view",
					"type": "function"
				},
				{
					"inputs": [],
					"name": "sign",
					"outputs": [
						{
							"internalType": "bool",
							"name": "",
							"type": "bool"
						}
					],
					"stateMutability": "nonpayable",
					"type": "function"
				}
			],
			"devdoc": {
				"kind": "dev",
				"methods": {},
				"version": 1
			},
			"evm": {
				"assembly": "    /* \"evidence/evidence.sol\":279:2357  contract Evidence {\r... */\n  mstore(0x40, 0x80)\n    /* \"evidence/evidence.sol\":812:1079  constructor(string memory _evi,address _factory){\r... */\n  callvalue\n  dup1\n  iszero\n  tag_1\n  jumpi\n  0x00\n  dup1\n  revert\ntag_1:\n  pop\n  mload(0x40)\n  sub(codesize, bytecodeSize)\n  dup1\n  bytecodeSize\n  dup4\n  codecopy\n  dup2\n  dup2\n  add\n  0x40\n  mstore\n  dup2\n  add\n  swap1\n  tag_2\n  swap2\n  swap1\n  tag_3\n  jump\t// in\ntag_2:\n    /* \"evidence/evidence.sol\":885:893  _factory */\n  dup1\n    /* \"evidence/evidence.sol\":871:882  factoryAddr */\n  0x02\n  0x00\n    /* \"evidence/evidence.sol\":871:893  factoryAddr = _factory */\n  0x0100\n  exp\n  dup2\n  sload\n  dup2\n  0xffffffffffffffffffffffffffffffffffffffff\n  mul\n  not\n  and\n  swap1\n  dup4\n  0xffffffffffffffffffffffffffffffffffffffff\n  and\n  mul\n  or\n  swap1\n  sstore\n  pop\n    /* \"evidence/evidence.sol\":912:933  callVerify(tx.origin) */\n  tag_6\n    /* \"evidence/evidence.sol\":923:932  tx.origin */\n  origin\n    /* \"evidence/evidence.sol\":912:922  callVerify */\n  shl(0x20, tag_7)\n    /* \"evidence/evidence.sol\":912:933  callVerify(tx.origin) */\n  0x20\n  shr\n  jump\t// in\ntag_6:\n    /* \"evidence/evidence.sol\":904:957  require(callVerify(tx.origin),\"_signer is not valid\") */\n  tag_8\n  jumpi\n  mload(0x40)\n  0x08c379a000000000000000000000000000000000000000000000000000000000\n  dup2\n  mstore\n  0x04\n  add\n  tag_9\n  swap1\n  tag_10\n  jump\t// in\ntag_9:\n  mload(0x40)\n  dup1\n  swap2\n  sub\n  swap1\n  revert\ntag_8:\n    /* \"evidence/evidence.sol\":978:982  _evi */\n  dup2\n    /* \"evidence/evidence.sol\":968:976  evidence */\n  0x00\n    /* \"evidence/evidence.sol\":968:982  evidence= _evi */\n  swap1\n  dup1\n  mload\n  swap1\n  0x20\n  add\n  swap1\n  tag_11\n  swap3\n  swap2\n  swap1\n  tag_12\n  jump\t// in\ntag_11:\n  pop\n    /* \"evidence/evidence.sol\":993:1000  signers */\n  0x01\n    /* \"evidence/evidence.sol\":1006:1015  tx.origin */\n  origin\n    /* \"evidence/evidence.sol\":993:1016  signers.push(tx.origin) */\n  swap1\n  dup1\n  0x01\n  dup2\n  sload\n  add\n  dup1\n  dup3\n  sstore\n  dup1\n  swap2\n  pop\n  pop\n  0x01\n  swap1\n  sub\n  swap1\n  0x00\n  mstore\n  keccak256(0x00, 0x20)\n  add\n  0x00\n  swap1\n  swap2\n  swap1\n  swap2\n  swap1\n  swap2\n  0x0100\n  exp\n  dup2\n  sload\n  dup2\n  0xffffffffffffffffffffffffffffffffffffffff\n  mul\n  not\n  and\n  swap1\n  dup4\n  0xffffffffffffffffffffffffffffffffffffffff\n  and\n  mul\n  or\n  swap1\n  sstore\n  pop\n    /* \"evidence/evidence.sol\":1034:1071  NewSignaturesEvidence(_evi,tx.origin) */\n  0xa34d8f872132d193d2e62e18648026516cd6a9d599cb2f07eda0fd5ab16f1627\n    /* \"evidence/evidence.sol\":1056:1060  _evi */\n  dup3\n    /* \"evidence/evidence.sol\":1061:1070  tx.origin */\n  origin\n    /* \"evidence/evidence.sol\":1034:1071  NewSignaturesEvidence(_evi,tx.origin) */\n  mload(0x40)\n  tag_14\n  swap3\n  swap2\n  swap1\n  tag_15\n  jump\t// in\ntag_14:\n  mload(0x40)\n  dup1\n  swap2\n  sub\n  swap1\n  log1\n    /* \"evidence/evidence.sol\":812:1079  constructor(string memory _evi,address _factory){\r... */\n  pop\n  pop\n    /* \"evidence/evidence.sol\":279:2357  contract Evidence {\r... */\n  jump(tag_16)\n    /* \"evidence/evidence.sol\":662:787  function callVerify(address _signer) public view returns(bool){\r... */\ntag_7:\n    /* \"evidence/evidence.sol\":719:723  bool */\n  0x00\n    /* \"evidence/evidence.sol\":751:762  factoryAddr */\n  0x02\n  0x00\n  swap1\n  sload\n  swap1\n  0x0100\n  exp\n  swap1\n  div\n  0xffffffffffffffffffffffffffffffffffffffff\n  and\n    /* \"evidence/evidence.sol\":742:770  IEvdence(factoryAddr).verify */\n  0xffffffffffffffffffffffffffffffffffffffff\n  and\n  0x63a9c3d7\n    /* \"evidence/evidence.sol\":771:778  _signer */\n  dup4\n    /* \"evidence/evidence.sol\":742:779  IEvdence(factoryAddr).verify(_signer) */\n  mload(0x40)\n  dup3\n  0xffffffff\n  and\n  0xe0\n  shl\n  dup2\n  mstore\n  0x04\n  add\n  tag_18\n  swap2\n  swap1\n  tag_19\n  jump\t// in\ntag_18:\n  0x20\n  mload(0x40)\n  dup1\n  dup4\n  sub\n  dup2\n  dup7\n  dup1\n  extcodesize\n  iszero\n  dup1\n  iszero\n  tag_20\n  jumpi\n  0x00\n  dup1\n  revert\ntag_20:\n  pop\n  gas\n  staticcall\n  iszero\n  dup1\n  iszero\n  tag_22\n  jumpi\n  returndatasize\n  0x00\n  dup1\n  returndatacopy\n  revert(0x00, returndatasize)\ntag_22:\n  pop\n  pop\n  pop\n  pop\n  mload(0x40)\n  returndatasize\n  not(0x1f)\n  0x1f\n  dup3\n  add\n  and\n  dup3\n  add\n  dup1\n  0x40\n  mstore\n  pop\n  dup2\n  add\n  swap1\n  tag_23\n  swap2\n  swap1\n  tag_24\n  jump\t// in\ntag_23:\n    /* \"evidence/evidence.sol\":735:779  return IEvdence(factoryAddr).verify(_signer) */\n  swap1\n  pop\n    /* \"evidence/evidence.sol\":662:787  function callVerify(address _signer) public view returns(bool){\r... */\n  swap2\n  swap1\n  pop\n  jump\t// out\n    /* \"evidence/evidence.sol\":279:2357  contract Evidence {\r... */\ntag_12:\n  dup3\n  dup1\n  sload\n  tag_25\n  swap1\n  tag_26\n  jump\t// in\ntag_25:\n  swap1\n  0x00\n  mstore\n  keccak256(0x00, 0x20)\n  swap1\n  0x1f\n  add\n  0x20\n  swap1\n  div\n  dup2\n  add\n  swap3\n  dup3\n  tag_28\n  jumpi\n  0x00\n  dup6\n  sstore\n  jump(tag_27)\ntag_28:\n  dup3\n  0x1f\n  lt\n  tag_29\n  jumpi\n  dup1\n  mload\n  not(0xff)\n  and\n  dup4\n  dup1\n  add\n  or\n  dup6\n  sstore\n  jump(tag_27)\ntag_29:\n  dup3\n  dup1\n  add\n  0x01\n  add\n  dup6\n  sstore\n  dup3\n  iszero\n  tag_27\n  jumpi\n  swap2\n  dup3\n  add\ntag_30:\n  dup3\n  dup2\n  gt\n  iszero\n  tag_31\n  jumpi\n  dup3\n  mload\n  dup3\n  sstore\n  swap2\n  0x20\n  add\n  swap2\n  swap1\n  0x01\n  add\n  swap1\n  jump(tag_30)\ntag_31:\ntag_27:\n  pop\n  swap1\n  pop\n  tag_32\n  swap2\n  swap1\n  tag_33\n  jump\t// in\ntag_32:\n  pop\n  swap1\n  jump\t// out\ntag_33:\ntag_34:\n  dup1\n  dup3\n  gt\n  iszero\n  tag_35\n  jumpi\n  0x00\n  dup2\n  0x00\n  swap1\n  sstore\n  pop\n  0x01\n  add\n  jump(tag_34)\ntag_35:\n  pop\n  swap1\n  jump\t// out\n    /* \"#utility.yul\":7:428   */\ntag_37:\n    /* \"#utility.yul\":96:101   */\n  0x00\n    /* \"#utility.yul\":121:187   */\n  tag_39\n    /* \"#utility.yul\":137:186   */\n  tag_40\n    /* \"#utility.yul\":179:185   */\n  dup5\n    /* \"#utility.yul\":137:186   */\n  tag_41\n  jump\t// in\ntag_40:\n    /* \"#utility.yul\":121:187   */\n  tag_42\n  jump\t// in\ntag_39:\n    /* \"#utility.yul\":112:187   */\n  swap1\n  pop\n    /* \"#utility.yul\":210:216   */\n  dup3\n    /* \"#utility.yul\":203:208   */\n  dup2\n    /* \"#utility.yul\":196:217   */\n  mstore\n    /* \"#utility.yul\":248:252   */\n  0x20\n    /* \"#utility.yul\":241:246   */\n  dup2\n    /* \"#utility.yul\":237:253   */\n  add\n    /* \"#utility.yul\":286:289   */\n  dup5\n    /* \"#utility.yul\":277:283   */\n  dup5\n    /* \"#utility.yul\":272:275   */\n  dup5\n    /* \"#utility.yul\":268:284   */\n  add\n    /* \"#utility.yul\":265:290   */\n  gt\n    /* \"#utility.yul\":262:374   */\n  iszero\n  tag_43\n  jumpi\n    /* \"#utility.yul\":293:372   */\n  tag_44\n  tag_45\n  jump\t// in\ntag_44:\n    /* \"#utility.yul\":262:374   */\ntag_43:\n    /* \"#utility.yul\":383:422   */\n  tag_46\n    /* \"#utility.yul\":415:421   */\n  dup5\n    /* \"#utility.yul\":410:413   */\n  dup3\n    /* \"#utility.yul\":405:408   */\n  dup6\n    /* \"#utility.yul\":383:422   */\n  tag_47\n  jump\t// in\ntag_46:\n    /* \"#utility.yul\":102:428   */\n  pop\n    /* \"#utility.yul\":7:428   */\n  swap4\n  swap3\n  pop\n  pop\n  pop\n  jump\t// out\n    /* \"#utility.yul\":434:577   */\ntag_48:\n    /* \"#utility.yul\":491:496   */\n  0x00\n    /* \"#utility.yul\":522:528   */\n  dup2\n    /* \"#utility.yul\":516:529   */\n  mload\n    /* \"#utility.yul\":507:529   */\n  swap1\n  pop\n    /* \"#utility.yul\":538:571   */\n  tag_50\n    /* \"#utility.yul\":565:570   */\n  dup2\n    /* \"#utility.yul\":538:571   */\n  tag_51\n  jump\t// in\ntag_50:\n    /* \"#utility.yul\":434:577   */\n  swap3\n  swap2\n  pop\n  pop\n  jump\t// out\n    /* \"#utility.yul\":583:720   */\ntag_52:\n    /* \"#utility.yul\":637:642   */\n  0x00\n    /* \"#utility.yul\":668:674   */\n  dup2\n    /* \"#utility.yul\":662:675   */\n  mload\n    /* \"#utility.yul\":653:675   */\n  swap1\n  pop\n    /* \"#utility.yul\":684:714   */\n  tag_54\n    /* \"#utility.yul\":708:713   */\n  dup2\n    /* \"#utility.yul\":684:714   */\n  tag_55\n  jump\t// in\ntag_54:\n    /* \"#utility.yul\":583:720   */\n  swap3\n  swap2\n  pop\n  pop\n  jump\t// out\n    /* \"#utility.yul\":740:1095   */\ntag_56:\n    /* \"#utility.yul\":807:812   */\n  0x00\n    /* \"#utility.yul\":856:859   */\n  dup3\n    /* \"#utility.yul\":849:853   */\n  0x1f\n    /* \"#utility.yul\":841:847   */\n  dup4\n    /* \"#utility.yul\":837:854   */\n  add\n    /* \"#utility.yul\":833:860   */\n  slt\n    /* \"#utility.yul\":823:945   */\n  tag_58\n  jumpi\n    /* \"#utility.yul\":864:943   */\n  tag_59\n  tag_60\n  jump\t// in\ntag_59:\n    /* \"#utility.yul\":823:945   */\ntag_58:\n    /* \"#utility.yul\":974:980   */\n  dup2\n    /* \"#utility.yul\":968:981   */\n  mload\n    /* \"#utility.yul\":999:1089   */\n  tag_61\n    /* \"#utility.yul\":1085:1088   */\n  dup5\n    /* \"#utility.yul\":1077:1083   */\n  dup3\n    /* \"#utility.yul\":1070:1074   */\n  0x20\n    /* \"#utility.yul\":1062:1068   */\n  dup7\n    /* \"#utility.yul\":1058:1075   */\n  add\n    /* \"#utility.yul\":999:1089   */\n  tag_37\n  jump\t// in\ntag_61:\n    /* \"#utility.yul\":990:1089   */\n  swap2\n  pop\n    /* \"#utility.yul\":813:1095   */\n  pop\n    /* \"#utility.yul\":740:1095   */\n  swap3\n  swap2\n  pop\n  pop\n  jump\t// out\n    /* \"#utility.yul\":1101:1446   */\ntag_24:\n    /* \"#utility.yul\":1168:1174   */\n  0x00\n    /* \"#utility.yul\":1217:1219   */\n  0x20\n    /* \"#utility.yul\":1205:1214   */\n  dup3\n    /* \"#utility.yul\":1196:1203   */\n  dup5\n    /* \"#utility.yul\":1192:1215   */\n  sub\n    /* \"#utility.yul\":1188:1220   */\n  slt\n    /* \"#utility.yul\":1185:1304   */\n  iszero\n  tag_63\n  jumpi\n    /* \"#utility.yul\":1223:1302   */\n  tag_64\n  tag_65\n  jump\t// in\ntag_64:\n    /* \"#utility.yul\":1185:1304   */\ntag_63:\n    /* \"#utility.yul\":1343:1344   */\n  0x00\n    /* \"#utility.yul\":1368:1429   */\n  tag_66\n    /* \"#utility.yul\":1421:1428   */\n  dup5\n    /* \"#utility.yul\":1412:1418   */\n  dup3\n    /* \"#utility.yul\":1401:1410   */\n  dup6\n    /* \"#utility.yul\":1397:1419   */\n  add\n    /* \"#utility.yul\":1368:1429   */\n  tag_52\n  jump\t// in\ntag_66:\n    /* \"#utility.yul\":1358:1429   */\n  swap2\n  pop\n    /* \"#utility.yul\":1314:1439   */\n  pop\n    /* \"#utility.yul\":1101:1446   */\n  swap3\n  swap2\n  pop\n  pop\n  jump\t// out\n    /* \"#utility.yul\":1452:2132   */\ntag_3:\n    /* \"#utility.yul\":1541:1547   */\n  0x00\n    /* \"#utility.yul\":1549:1555   */\n  dup1\n    /* \"#utility.yul\":1598:1600   */\n  0x40\n    /* \"#utility.yul\":1586:1595   */\n  dup4\n    /* \"#utility.yul\":1577:1584   */\n  dup6\n    /* \"#utility.yul\":1573:1596   */\n  sub\n    /* \"#utility.yul\":1569:1601   */\n  slt\n    /* \"#utility.yul\":1566:1685   */\n  iszero\n  tag_68\n  jumpi\n    /* \"#utility.yul\":1604:1683   */\n  tag_69\n  tag_65\n  jump\t// in\ntag_69:\n    /* \"#utility.yul\":1566:1685   */\ntag_68:\n    /* \"#utility.yul\":1745:1746   */\n  0x00\n    /* \"#utility.yul\":1734:1743   */\n  dup4\n    /* \"#utility.yul\":1730:1747   */\n  add\n    /* \"#utility.yul\":1724:1748   */\n  mload\n    /* \"#utility.yul\":1775:1793   */\n  0xffffffffffffffff\n    /* \"#utility.yul\":1767:1773   */\n  dup2\n    /* \"#utility.yul\":1764:1794   */\n  gt\n    /* \"#utility.yul\":1761:1878   */\n  iszero\n  tag_70\n  jumpi\n    /* \"#utility.yul\":1797:1876   */\n  tag_71\n  tag_72\n  jump\t// in\ntag_71:\n    /* \"#utility.yul\":1761:1878   */\ntag_70:\n    /* \"#utility.yul\":1902:1976   */\n  tag_73\n    /* \"#utility.yul\":1968:1975   */\n  dup6\n    /* \"#utility.yul\":1959:1965   */\n  dup3\n    /* \"#utility.yul\":1948:1957   */\n  dup7\n    /* \"#utility.yul\":1944:1966   */\n  add\n    /* \"#utility.yul\":1902:1976   */\n  tag_56\n  jump\t// in\ntag_73:\n    /* \"#utility.yul\":1892:1976   */\n  swap3\n  pop\n    /* \"#utility.yul\":1695:1986   */\n  pop\n    /* \"#utility.yul\":2025:2027   */\n  0x20\n    /* \"#utility.yul\":2051:2115   */\n  tag_74\n    /* \"#utility.yul\":2107:2114   */\n  dup6\n    /* \"#utility.yul\":2098:2104   */\n  dup3\n    /* \"#utility.yul\":2087:2096   */\n  dup7\n    /* \"#utility.yul\":2083:2105   */\n  add\n    /* \"#utility.yul\":2051:2115   */\n  tag_48\n  jump\t// in\ntag_74:\n    /* \"#utility.yul\":2041:2115   */\n  swap2\n  pop\n    /* \"#utility.yul\":1996:2125   */\n  pop\n    /* \"#utility.yul\":1452:2132   */\n  swap3\n  pop\n  swap3\n  swap1\n  pop\n  jump\t// out\n    /* \"#utility.yul\":2138:2256   */\ntag_75:\n    /* \"#utility.yul\":2225:2249   */\n  tag_77\n    /* \"#utility.yul\":2243:2248   */\n  dup2\n    /* \"#utility.yul\":2225:2249   */\n  tag_78\n  jump\t// in\ntag_77:\n    /* \"#utility.yul\":2220:2223   */\n  dup3\n    /* \"#utility.yul\":2213:2250   */\n  mstore\n    /* \"#utility.yul\":2138:2256   */\n  pop\n  pop\n  jump\t// out\n    /* \"#utility.yul\":2262:2626   */\ntag_79:\n    /* \"#utility.yul\":2350:2353   */\n  0x00\n    /* \"#utility.yul\":2378:2417   */\n  tag_81\n    /* \"#utility.yul\":2411:2416   */\n  dup3\n    /* \"#utility.yul\":2378:2417   */\n  tag_82\n  jump\t// in\ntag_81:\n    /* \"#utility.yul\":2433:2504   */\n  tag_83\n    /* \"#utility.yul\":2497:2503   */\n  dup2\n    /* \"#utility.yul\":2492:2495   */\n  dup6\n    /* \"#utility.yul\":2433:2504   */\n  tag_84\n  jump\t// in\ntag_83:\n    /* \"#utility.yul\":2426:2504   */\n  swap4\n  pop\n    /* \"#utility.yul\":2513:2565   */\n  tag_85\n    /* \"#utility.yul\":2558:2564   */\n  dup2\n    /* \"#utility.yul\":2553:2556   */\n  dup6\n    /* \"#utility.yul\":2546:2550   */\n  0x20\n    /* \"#utility.yul\":2539:2544   */\n  dup7\n    /* \"#utility.yul\":2535:2551   */\n  add\n    /* \"#utility.yul\":2513:2565   */\n  tag_47\n  jump\t// in\ntag_85:\n    /* \"#utility.yul\":2590:2619   */\n  tag_86\n    /* \"#utility.yul\":2612:2618   */\n  dup2\n    /* \"#utility.yul\":2590:2619   */\n  tag_87\n  jump\t// in\ntag_86:\n    /* \"#utility.yul\":2585:2588   */\n  dup5\n    /* \"#utility.yul\":2581:2620   */\n  add\n    /* \"#utility.yul\":2574:2620   */\n  swap2\n  pop\n    /* \"#utility.yul\":2354:2626   */\n  pop\n    /* \"#utility.yul\":2262:2626   */\n  swap3\n  swap2\n  pop\n  pop\n  jump\t// out\n    /* \"#utility.yul\":2632:2998   */\ntag_88:\n    /* \"#utility.yul\":2774:2777   */\n  0x00\n    /* \"#utility.yul\":2795:2862   */\n  tag_90\n    /* \"#utility.yul\":2859:2861   */\n  0x14\n    /* \"#utility.yul\":2854:2857   */\n  dup4\n    /* \"#utility.yul\":2795:2862   */\n  tag_84\n  jump\t// in\ntag_90:\n    /* \"#utility.yul\":2788:2862   */\n  swap2\n  pop\n    /* \"#utility.yul\":2871:2964   */\n  tag_91\n    /* \"#utility.yul\":2960:2963   */\n  dup3\n    /* \"#utility.yul\":2871:2964   */\n  tag_92\n  jump\t// in\ntag_91:\n    /* \"#utility.yul\":2989:2991   */\n  0x20\n    /* \"#utility.yul\":2984:2987   */\n  dup3\n    /* \"#utility.yul\":2980:2992   */\n  add\n    /* \"#utility.yul\":2973:2992   */\n  swap1\n  pop\n    /* \"#utility.yul\":2632:2998   */\n  swap2\n  swap1\n  pop\n  jump\t// out\n    /* \"#utility.yul\":3004:3226   */\ntag_19:\n    /* \"#utility.yul\":3097:3101   */\n  0x00\n    /* \"#utility.yul\":3135:3137   */\n  0x20\n    /* \"#utility.yul\":3124:3133   */\n  dup3\n    /* \"#utility.yul\":3120:3138   */\n  add\n    /* \"#utility.yul\":3112:3138   */\n  swap1\n  pop\n    /* \"#utility.yul\":3148:3219   */\n  tag_94\n    /* \"#utility.yul\":3216:3217   */\n  0x00\n    /* \"#utility.yul\":3205:3214   */\n  dup4\n    /* \"#utility.yul\":3201:3218   */\n  add\n    /* \"#utility.yul\":3192:3198   */\n  dup5\n    /* \"#utility.yul\":3148:3219   */\n  tag_75\n  jump\t// in\ntag_94:\n    /* \"#utility.yul\":3004:3226   */\n  swap3\n  swap2\n  pop\n  pop\n  jump\t// out\n    /* \"#utility.yul\":3232:3655   */\ntag_15:\n    /* \"#utility.yul\":3373:3377   */\n  0x00\n    /* \"#utility.yul\":3411:3413   */\n  0x40\n    /* \"#utility.yul\":3400:3409   */\n  dup3\n    /* \"#utility.yul\":3396:3414   */\n  add\n    /* \"#utility.yul\":3388:3414   */\n  swap1\n  pop\n    /* \"#utility.yul\":3460:3469   */\n  dup2\n    /* \"#utility.yul\":3454:3458   */\n  dup2\n    /* \"#utility.yul\":3450:3470   */\n  sub\n    /* \"#utility.yul\":3446:3447   */\n  0x00\n    /* \"#utility.yul\":3435:3444   */\n  dup4\n    /* \"#utility.yul\":3431:3448   */\n  add\n    /* \"#utility.yul\":3424:3471   */\n  mstore\n    /* \"#utility.yul\":3488:3566   */\n  tag_96\n    /* \"#utility.yul\":3561:3565   */\n  dup2\n    /* \"#utility.yul\":3552:3558   */\n  dup6\n    /* \"#utility.yul\":3488:3566   */\n  tag_79\n  jump\t// in\ntag_96:\n    /* \"#utility.yul\":3480:3566   */\n  swap1\n  pop\n    /* \"#utility.yul\":3576:3648   */\n  tag_97\n    /* \"#utility.yul\":3644:3646   */\n  0x20\n    /* \"#utility.yul\":3633:3642   */\n  dup4\n    /* \"#utility.yul\":3629:3647   */\n  add\n    /* \"#utility.yul\":3620:3626   */\n  dup5\n    /* \"#utility.yul\":3576:3648   */\n  tag_75\n  jump\t// in\ntag_97:\n    /* \"#utility.yul\":3232:3655   */\n  swap4\n  swap3\n  pop\n  pop\n  pop\n  jump\t// out\n    /* \"#utility.yul\":3661:4080   */\ntag_10:\n    /* \"#utility.yul\":3827:3831   */\n  0x00\n    /* \"#utility.yul\":3865:3867   */\n  0x20\n    /* \"#utility.yul\":3854:3863   */\n  dup3\n    /* \"#utility.yul\":3850:3868   */\n  add\n    /* \"#utility.yul\":3842:3868   */\n  swap1\n  pop\n    /* \"#utility.yul\":3914:3923   */\n  dup2\n    /* \"#utility.yul\":3908:3912   */\n  dup2\n    /* \"#utility.yul\":3904:3924   */\n  sub\n    /* \"#utility.yul\":3900:3901   */\n  0x00\n    /* \"#utility.yul\":3889:3898   */\n  dup4\n    /* \"#utility.yul\":3885:3902   */\n  add\n    /* \"#utility.yul\":3878:3925   */\n  mstore\n    /* \"#utility.yul\":3942:4073   */\n  tag_99\n    /* \"#utility.yul\":4068:4072   */\n  dup2\n    /* \"#utility.yul\":3942:4073   */\n  tag_88\n  jump\t// in\ntag_99:\n    /* \"#utility.yul\":3934:4073   */\n  swap1\n  pop\n    /* \"#utility.yul\":3661:4080   */\n  swap2\n  swap1\n  pop\n  jump\t// out\n    /* \"#utility.yul\":4086:4215   */\ntag_42:\n    /* \"#utility.yul\":4120:4126   */\n  0x00\n    /* \"#utility.yul\":4147:4167   */\n  tag_101\n  tag_102\n  jump\t// in\ntag_101:\n    /* \"#utility.yul\":4137:4167   */\n  swap1\n  pop\n    /* \"#utility.yul\":4176:4209   */\n  tag_103\n    /* \"#utility.yul\":4204:4208   */\n  dup3\n    /* \"#utility.yul\":4196:4202   */\n  dup3\n    /* \"#utility.yul\":4176:4209   */\n  tag_104\n  jump\t// in\ntag_103:\n    /* \"#utility.yul\":4086:4215   */\n  swap2\n  swap1\n  pop\n  jump\t// out\n    /* \"#utility.yul\":4221:4296   */\ntag_102:\n    /* \"#utility.yul\":4254:4260   */\n  0x00\n    /* \"#utility.yul\":4287:4289   */\n  0x40\n    /* \"#utility.yul\":4281:4290   */\n  mload\n    /* \"#utility.yul\":4271:4290   */\n  swap1\n  pop\n    /* \"#utility.yul\":4221:4296   */\n  swap1\n  jump\t// out\n    /* \"#utility.yul\":4302:4610   */\ntag_41:\n    /* \"#utility.yul\":4364:4368   */\n  0x00\n    /* \"#utility.yul\":4454:4472   */\n  0xffffffffffffffff\n    /* \"#utility.yul\":4446:4452   */\n  dup3\n    /* \"#utility.yul\":4443:4473   */\n  gt\n    /* \"#utility.yul\":4440:4496   */\n  iszero\n  tag_107\n  jumpi\n    /* \"#utility.yul\":4476:4494   */\n  tag_108\n  tag_109\n  jump\t// in\ntag_108:\n    /* \"#utility.yul\":4440:4496   */\ntag_107:\n    /* \"#utility.yul\":4514:4543   */\n  tag_110\n    /* \"#utility.yul\":4536:4542   */\n  dup3\n    /* \"#utility.yul\":4514:4543   */\n  tag_87\n  jump\t// in\ntag_110:\n    /* \"#utility.yul\":4506:4543   */\n  swap1\n  pop\n    /* \"#utility.yul\":4598:4602   */\n  0x20\n    /* \"#utility.yul\":4592:4596   */\n  dup2\n    /* \"#utility.yul\":4588:4603   */\n  add\n    /* \"#utility.yul\":4580:4603   */\n  swap1\n  pop\n    /* \"#utility.yul\":4302:4610   */\n  swap2\n  swap1\n  pop\n  jump\t// out\n    /* \"#utility.yul\":4616:4715   */\ntag_82:\n    /* \"#utility.yul\":4668:4674   */\n  0x00\n    /* \"#utility.yul\":4702:4707   */\n  dup2\n    /* \"#utility.yul\":4696:4708   */\n  mload\n    /* \"#utility.yul\":4686:4708   */\n  swap1\n  pop\n    /* \"#utility.yul\":4616:4715   */\n  swap2\n  swap1\n  pop\n  jump\t// out\n    /* \"#utility.yul\":4721:4890   */\ntag_84:\n    /* \"#utility.yul\":4805:4816   */\n  0x00\n    /* \"#utility.yul\":4839:4845   */\n  dup3\n    /* \"#utility.yul\":4834:4837   */\n  dup3\n    /* \"#utility.yul\":4827:4846   */\n  mstore\n    /* \"#utility.yul\":4879:4883   */\n  0x20\n    /* \"#utility.yul\":4874:4877   */\n  dup3\n    /* \"#utility.yul\":4870:4884   */\n  add\n    /* \"#utility.yul\":4855:4884   */\n  swap1\n  pop\n    /* \"#utility.yul\":4721:4890   */\n  swap3\n  swap2\n  pop\n  pop\n  jump\t// out\n    /* \"#utility.yul\":4896:4992   */\ntag_78:\n    /* \"#utility.yul\":4933:4940   */\n  0x00\n    /* \"#utility.yul\":4962:4986   */\n  tag_114\n    /* \"#utility.yul\":4980:4985   */\n  dup3\n    /* \"#utility.yul\":4962:4986   */\n  tag_115\n  jump\t// in\ntag_114:\n    /* \"#utility.yul\":4951:4986   */\n  swap1\n  pop\n    /* \"#utility.yul\":4896:4992   */\n  swap2\n  swap1\n  pop\n  jump\t// out\n    /* \"#utility.yul\":4998:5088   */\ntag_116:\n    /* \"#utility.yul\":5032:5039   */\n  0x00\n    /* \"#utility.yul\":5075:5080   */\n  dup2\n    /* \"#utility.yul\":5068:5081   */\n  iszero\n    /* \"#utility.yul\":5061:5082   */\n  iszero\n    /* \"#utility.yul\":5050:5082   */\n  swap1\n  pop\n    /* \"#utility.yul\":4998:5088   */\n  swap2\n  swap1\n  pop\n  jump\t// out\n    /* \"#utility.yul\":5094:5220   */\ntag_115:\n    /* \"#utility.yul\":5131:5138   */\n  0x00\n    /* \"#utility.yul\":5171:5213   */\n  0xffffffffffffffffffffffffffffffffffffffff\n    /* \"#utility.yul\":5164:5169   */\n  dup3\n    /* \"#utility.yul\":5160:5214   */\n  and\n    /* \"#utility.yul\":5149:5214   */\n  swap1\n  pop\n    /* \"#utility.yul\":5094:5220   */\n  swap2\n  swap1\n  pop\n  jump\t// out\n    /* \"#utility.yul\":5226:5533   */\ntag_47:\n    /* \"#utility.yul\":5294:5295   */\n  0x00\n    /* \"#utility.yul\":5304:5417   */\ntag_120:\n    /* \"#utility.yul\":5318:5324   */\n  dup4\n    /* \"#utility.yul\":5315:5316   */\n  dup2\n    /* \"#utility.yul\":5312:5325   */\n  lt\n    /* \"#utility.yul\":5304:5417   */\n  iszero\n  tag_122\n  jumpi\n    /* \"#utility.yul\":5403:5404   */\n  dup1\n    /* \"#utility.yul\":5398:5401   */\n  dup3\n    /* \"#utility.yul\":5394:5405   */\n  add\n    /* \"#utility.yul\":5388:5406   */\n  mload\n    /* \"#utility.yul\":5384:5385   */\n  dup2\n    /* \"#utility.yul\":5379:5382   */\n  dup5\n    /* \"#utility.yul\":5375:5386   */\n  add\n    /* \"#utility.yul\":5368:5407   */\n  mstore\n    /* \"#utility.yul\":5340:5342   */\n  0x20\n    /* \"#utility.yul\":5337:5338   */\n  dup2\n    /* \"#utility.yul\":5333:5343   */\n  add\n    /* \"#utility.yul\":5328:5343   */\n  swap1\n  pop\n    /* \"#utility.yul\":5304:5417   */\n  jump(tag_120)\ntag_122:\n    /* \"#utility.yul\":5435:5441   */\n  dup4\n    /* \"#utility.yul\":5432:5433   */\n  dup2\n    /* \"#utility.yul\":5429:5442   */\n  gt\n    /* \"#utility.yul\":5426:5527   */\n  iszero\n  tag_123\n  jumpi\n    /* \"#utility.yul\":5515:5516   */\n  0x00\n    /* \"#utility.yul\":5506:5512   */\n  dup5\n    /* \"#utility.yul\":5501:5504   */\n  dup5\n    /* \"#utility.yul\":5497:5513   */\n  add\n    /* \"#utility.yul\":5490:5517   */\n  mstore\n    /* \"#utility.yul\":5426:5527   */\ntag_123:\n    /* \"#utility.yul\":5275:5533   */\n  pop\n    /* \"#utility.yul\":5226:5533   */\n  pop\n  pop\n  pop\n  jump\t// out\n    /* \"#utility.yul\":5539:5859   */\ntag_26:\n    /* \"#utility.yul\":5583:5589   */\n  0x00\n    /* \"#utility.yul\":5620:5621   */\n  0x02\n    /* \"#utility.yul\":5614:5618   */\n  dup3\n    /* \"#utility.yul\":5610:5622   */\n  div\n    /* \"#utility.yul\":5600:5622   */\n  swap1\n  pop\n    /* \"#utility.yul\":5667:5668   */\n  0x01\n    /* \"#utility.yul\":5661:5665   */\n  dup3\n    /* \"#utility.yul\":5657:5669   */\n  and\n    /* \"#utility.yul\":5688:5706   */\n  dup1\n    /* \"#utility.yul\":5678:5759   */\n  tag_125\n  jumpi\n    /* \"#utility.yul\":5744:5748   */\n  0x7f\n    /* \"#utility.yul\":5736:5742   */\n  dup3\n    /* \"#utility.yul\":5732:5749   */\n  and\n    /* \"#utility.yul\":5722:5749   */\n  swap2\n  pop\n    /* \"#utility.yul\":5678:5759   */\ntag_125:\n    /* \"#utility.yul\":5806:5808   */\n  0x20\n    /* \"#utility.yul\":5798:5804   */\n  dup3\n    /* \"#utility.yul\":5795:5809   */\n  lt\n    /* \"#utility.yul\":5775:5793   */\n  dup2\n    /* \"#utility.yul\":5772:5810   */\n  eq\n    /* \"#utility.yul\":5769:5853   */\n  iszero\n  tag_126\n  jumpi\n    /* \"#utility.yul\":5825:5843   */\n  tag_127\n  tag_128\n  jump\t// in\ntag_127:\n    /* \"#utility.yul\":5769:5853   */\ntag_126:\n    /* \"#utility.yul\":5590:5859   */\n  pop\n    /* \"#utility.yul\":5539:5859   */\n  swap2\n  swap1\n  pop\n  jump\t// out\n    /* \"#utility.yul\":5865:6146   */\ntag_104:\n    /* \"#utility.yul\":5948:5975   */\n  tag_130\n    /* \"#utility.yul\":5970:5974   */\n  dup3\n    /* \"#utility.yul\":5948:5975   */\n  tag_87\n  jump\t// in\ntag_130:\n    /* \"#utility.yul\":5940:5946   */\n  dup2\n    /* \"#utility.yul\":5936:5976   */\n  add\n    /* \"#utility.yul\":6078:6084   */\n  dup2\n    /* \"#utility.yul\":6066:6076   */\n  dup2\n    /* \"#utility.yul\":6063:6085   */\n  lt\n    /* \"#utility.yul\":6042:6060   */\n  0xffffffffffffffff\n    /* \"#utility.yul\":6030:6040   */\n  dup3\n    /* \"#utility.yul\":6027:6061   */\n  gt\n    /* \"#utility.yul\":6024:6086   */\n  or\n    /* \"#utility.yul\":6021:6109   */\n  iszero\n  tag_131\n  jumpi\n    /* \"#utility.yul\":6089:6107   */\n  tag_132\n  tag_109\n  jump\t// in\ntag_132:\n    /* \"#utility.yul\":6021:6109   */\ntag_131:\n    /* \"#utility.yul\":6129:6139   */\n  dup1\n    /* \"#utility.yul\":6125:6127   */\n  0x40\n    /* \"#utility.yul\":6118:6140   */\n  mstore\n    /* \"#utility.yul\":5908:6146   */\n  pop\n    /* \"#utility.yul\":5865:6146   */\n  pop\n  pop\n  jump\t// out\n    /* \"#utility.yul\":6152:6332   */\ntag_128:\n    /* \"#utility.yul\":6200:6277   */\n  0x4e487b7100000000000000000000000000000000000000000000000000000000\n    /* \"#utility.yul\":6197:6198   */\n  0x00\n    /* \"#utility.yul\":6190:6278   */\n  mstore\n    /* \"#utility.yul\":6297:6301   */\n  0x22\n    /* \"#utility.yul\":6294:6295   */\n  0x04\n    /* \"#utility.yul\":6287:6302   */\n  mstore\n    /* \"#utility.yul\":6321:6325   */\n  0x24\n    /* \"#utility.yul\":6318:6319   */\n  0x00\n    /* \"#utility.yul\":6311:6326   */\n  revert\n    /* \"#utility.yul\":6338:6518   */\ntag_109:\n    /* \"#utility.yul\":6386:6463   */\n  0x4e487b7100000000000000000000000000000000000000000000000000000000\n    /* \"#utility.yul\":6383:6384   */\n  0x00\n    /* \"#utility.yul\":6376:6464   */\n  mstore\n    /* \"#utility.yul\":6483:6487   */\n  0x41\n    /* \"#utility.yul\":6480:6481   */\n  0x04\n    /* \"#utility.yul\":6473:6488   */\n  mstore\n    /* \"#utility.yul\":6507:6511   */\n  0x24\n    /* \"#utility.yul\":6504:6505   */\n  0x00\n    /* \"#utility.yul\":6497:6512   */\n  revert\n    /* \"#utility.yul\":6524:6641   */\ntag_60:\n    /* \"#utility.yul\":6633:6634   */\n  0x00\n    /* \"#utility.yul\":6630:6631   */\n  dup1\n    /* \"#utility.yul\":6623:6635   */\n  revert\n    /* \"#utility.yul\":6647:6764   */\ntag_45:\n    /* \"#utility.yul\":6756:6757   */\n  0x00\n    /* \"#utility.yul\":6753:6754   */\n  dup1\n    /* \"#utility.yul\":6746:6758   */\n  revert\n    /* \"#utility.yul\":6770:6887   */\ntag_72:\n    /* \"#utility.yul\":6879:6880   */\n  0x00\n    /* \"#utility.yul\":6876:6877   */\n  dup1\n    /* \"#utility.yul\":6869:6881   */\n  revert\n    /* \"#utility.yul\":6893:7010   */\ntag_65:\n    /* \"#utility.yul\":7002:7003   */\n  0x00\n    /* \"#utility.yul\":6999:7000   */\n  dup1\n    /* \"#utility.yul\":6992:7004   */\n  revert\n    /* \"#utility.yul\":7016:7118   */\ntag_87:\n    /* \"#utility.yul\":7057:7063   */\n  0x00\n    /* \"#utility.yul\":7108:7110   */\n  0x1f\n    /* \"#utility.yul\":7104:7111   */\n  not\n    /* \"#utility.yul\":7099:7101   */\n  0x1f\n    /* \"#utility.yul\":7092:7097   */\n  dup4\n    /* \"#utility.yul\":7088:7102   */\n  add\n    /* \"#utility.yul\":7084:7112   */\n  and\n    /* \"#utility.yul\":7074:7112   */\n  swap1\n  pop\n    /* \"#utility.yul\":7016:7118   */\n  swap2\n  swap1\n  pop\n  jump\t// out\n    /* \"#utility.yul\":7124:7294   */\ntag_92:\n    /* \"#utility.yul\":7264:7286   */\n  0x5f7369676e6572206973206e6f742076616c6964000000000000000000000000\n    /* \"#utility.yul\":7260:7261   */\n  0x00\n    /* \"#utility.yul\":7252:7258   */\n  dup3\n    /* \"#utility.yul\":7248:7262   */\n  add\n    /* \"#utility.yul\":7241:7287   */\n  mstore\n    /* \"#utility.yul\":7124:7294   */\n  pop\n  jump\t// out\n    /* \"#utility.yul\":7300:7422   */\ntag_51:\n    /* \"#utility.yul\":7373:7397   */\n  tag_142\n    /* \"#utility.yul\":7391:7396   */\n  dup2\n    /* \"#utility.yul\":7373:7397   */\n  tag_78\n  jump\t// in\ntag_142:\n    /* \"#utility.yul\":7366:7371   */\n  dup2\n    /* \"#utility.yul\":7363:7398   */\n  eq\n    /* \"#utility.yul\":7353:7416   */\n  tag_143\n  jumpi\n    /* \"#utility.yul\":7412:7413   */\n  0x00\n    /* \"#utility.yul\":7409:7410   */\n  dup1\n    /* \"#utility.yul\":7402:7414   */\n  revert\n    /* \"#utility.yul\":7353:7416   */\ntag_143:\n    /* \"#utility.yul\":7300:7422   */\n  pop\n  jump\t// out\n    /* \"#utility.yul\":7428:7544   */\ntag_55:\n    /* \"#utility.yul\":7498:7519   */\n  tag_145\n    /* \"#utility.yul\":7513:7518   */\n  dup2\n    /* \"#utility.yul\":7498:7519   */\n  tag_116\n  jump\t// in\ntag_145:\n    /* \"#utility.yul\":7491:7496   */\n  dup2\n    /* \"#utility.yul\":7488:7520   */\n  eq\n    /* \"#utility.yul\":7478:7538   */\n  tag_146\n  jumpi\n    /* \"#utility.yul\":7534:7535   */\n  0x00\n    /* \"#utility.yul\":7531:7532   */\n  dup1\n    /* \"#utility.yul\":7524:7536   */\n  revert\n    /* \"#utility.yul\":7478:7538   */\ntag_146:\n    /* \"#utility.yul\":7428:7544   */\n  pop\n  jump\t// out\n    /* \"evidence/evidence.sol\":279:2357  contract Evidence {\r... */\ntag_16:\n  dataSize(sub_0)\n  dup1\n  dataOffset(sub_0)\n  0x00\n  codecopy\n  0x00\n  return\nstop\n\nsub_0: assembly {\n        /* \"evidence/evidence.sol\":279:2357  contract Evidence {\r... */\n      mstore(0x40, 0x80)\n      callvalue\n      dup1\n      iszero\n      tag_1\n      jumpi\n      0x00\n      dup1\n      revert\n    tag_1:\n      pop\n      jumpi(tag_2, lt(calldatasize, 0x04))\n      shr(0xe0, calldataload(0x00))\n      dup1\n      0x2ca15122\n      eq\n      tag_3\n      jumpi\n      dup1\n      0x3c68af3e\n      eq\n      tag_4\n      jumpi\n      dup1\n      0x50ca0928\n      eq\n      tag_5\n      jumpi\n      dup1\n      0x596f21f8\n      eq\n      tag_6\n      jumpi\n      dup1\n      0x963671be\n      eq\n      tag_7\n      jumpi\n    tag_2:\n      0x00\n      dup1\n      revert\n        /* \"evidence/evidence.sol\":1506:1865  function sign() public returns(bool){\r... */\n    tag_3:\n      tag_8\n      tag_9\n      jump\t// in\n    tag_8:\n      mload(0x40)\n      tag_10\n      swap2\n      swap1\n      tag_11\n      jump\t// in\n    tag_10:\n      mload(0x40)\n      dup1\n      swap2\n      sub\n      swap1\n      return\n        /* \"evidence/evidence.sol\":2145:2350  function isAllSigned() public view returns (bool,string memory){\r... */\n    tag_4:\n      tag_12\n      tag_13\n      jump\t// in\n    tag_12:\n      mload(0x40)\n      tag_14\n      swap3\n      swap2\n      swap1\n      tag_15\n      jump\t// in\n    tag_14:\n      mload(0x40)\n      dup1\n      swap2\n      sub\n      swap1\n      return\n        /* \"evidence/evidence.sol\":662:787  function callVerify(address _signer) public view returns(bool){\r... */\n    tag_5:\n      tag_16\n      0x04\n      dup1\n      calldatasize\n      sub\n      dup2\n      add\n      swap1\n      tag_17\n      swap2\n      swap1\n      tag_18\n      jump\t// in\n    tag_17:\n      tag_19\n      jump\t// in\n    tag_16:\n      mload(0x40)\n      tag_20\n      swap2\n      swap1\n      tag_11\n      jump\t// in\n    tag_20:\n      mload(0x40)\n      dup1\n      swap2\n      sub\n      swap1\n      return\n        /* \"evidence/evidence.sol\":1101:1488  function getEvidence() public view returns(string memory,address[] memory,address[] memory){\r... */\n    tag_6:\n      tag_21\n      tag_22\n      jump\t// in\n    tag_21:\n      mload(0x40)\n      tag_23\n      swap4\n      swap3\n      swap2\n      swap1\n      tag_24\n      jump\t// in\n    tag_23:\n      mload(0x40)\n      dup1\n      swap2\n      sub\n      swap1\n      return\n        /* \"evidence/evidence.sol\":390:416  address public factoryAddr */\n    tag_7:\n      tag_25\n      tag_26\n      jump\t// in\n    tag_25:\n      mload(0x40)\n      tag_27\n      swap2\n      swap1\n      tag_28\n      jump\t// in\n    tag_27:\n      mload(0x40)\n      dup1\n      swap2\n      sub\n      swap1\n      return\n        /* \"evidence/evidence.sol\":1506:1865  function sign() public returns(bool){\r... */\n    tag_9:\n        /* \"evidence/evidence.sol\":1537:1541  bool */\n      0x00\n        /* \"evidence/evidence.sol\":1561:1582  callVerify(tx.origin) */\n      tag_30\n        /* \"evidence/evidence.sol\":1572:1581  tx.origin */\n      origin\n        /* \"evidence/evidence.sol\":1561:1571  callVerify */\n      tag_19\n        /* \"evidence/evidence.sol\":1561:1582  callVerify(tx.origin) */\n      jump\t// in\n    tag_30:\n        /* \"evidence/evidence.sol\":1553:1606  require(callVerify(tx.origin),\"_signer is not valid\") */\n      tag_31\n      jumpi\n      mload(0x40)\n      0x08c379a000000000000000000000000000000000000000000000000000000000\n      dup2\n      mstore\n      0x04\n      add\n      tag_32\n      swap1\n      tag_33\n      jump\t// in\n    tag_32:\n      mload(0x40)\n      dup1\n      swap2\n      sub\n      swap1\n      revert\n    tag_31:\n        /* \"evidence/evidence.sol\":1620:1639  isSigned(tx.origin) */\n      tag_34\n        /* \"evidence/evidence.sol\":1629:1638  tx.origin */\n      origin\n        /* \"evidence/evidence.sol\":1620:1628  isSigned */\n      tag_35\n        /* \"evidence/evidence.sol\":1620:1639  isSigned(tx.origin) */\n      jump\t// in\n    tag_34:\n        /* \"evidence/evidence.sol\":1617:1745  if(isSigned(tx.origin)){\r... */\n      iszero\n      tag_36\n      jumpi\n        /* \"evidence/evidence.sol\":1660:1707  AddRepeatSignaturesEvidence(evidence,tx.origin) */\n      0x57bb3fead2451e6a3a5680e94e3dba9642a2ea6e850811bf18feccc94c5968a9\n        /* \"evidence/evidence.sol\":1688:1696  evidence */\n      0x00\n        /* \"evidence/evidence.sol\":1697:1706  tx.origin */\n      origin\n        /* \"evidence/evidence.sol\":1660:1707  AddRepeatSignaturesEvidence(evidence,tx.origin) */\n      mload(0x40)\n      tag_37\n      swap3\n      swap2\n      swap1\n      tag_38\n      jump\t// in\n    tag_37:\n      mload(0x40)\n      dup1\n      swap2\n      sub\n      swap1\n      log1\n        /* \"evidence/evidence.sol\":1729:1733  true */\n      0x01\n        /* \"evidence/evidence.sol\":1722:1733  return true */\n      swap1\n      pop\n      jump(tag_29)\n        /* \"evidence/evidence.sol\":1617:1745  if(isSigned(tx.origin)){\r... */\n    tag_36:\n        /* \"evidence/evidence.sol\":1755:1762  signers */\n      0x01\n        /* \"evidence/evidence.sol\":1768:1777  tx.origin */\n      origin\n        /* \"evidence/evidence.sol\":1755:1778  signers.push(tx.origin) */\n      swap1\n      dup1\n      0x01\n      dup2\n      sload\n      add\n      dup1\n      dup3\n      sstore\n      dup1\n      swap2\n      pop\n      pop\n      0x01\n      swap1\n      sub\n      swap1\n      0x00\n      mstore\n      keccak256(0x00, 0x20)\n      add\n      0x00\n      swap1\n      swap2\n      swap1\n      swap2\n      swap1\n      swap2\n      0x0100\n      exp\n      dup2\n      sload\n      dup2\n      0xffffffffffffffffffffffffffffffffffffffff\n      mul\n      not\n      and\n      swap1\n      dup4\n      0xffffffffffffffffffffffffffffffffffffffff\n      and\n      mul\n      or\n      swap1\n      sstore\n      pop\n        /* \"evidence/evidence.sol\":1794:1835  AddSignaturesEvidence(evidence,tx.origin) */\n      0xb05e84f77f10ca9cd0a42f11422685a81fb7997e8c2500733527f8c2ee56ab29\n        /* \"evidence/evidence.sol\":1816:1824  evidence */\n      0x00\n        /* \"evidence/evidence.sol\":1825:1834  tx.origin */\n      origin\n        /* \"evidence/evidence.sol\":1794:1835  AddSignaturesEvidence(evidence,tx.origin) */\n      mload(0x40)\n      tag_40\n      swap3\n      swap2\n      swap1\n      tag_38\n      jump\t// in\n    tag_40:\n      mload(0x40)\n      dup1\n      swap2\n      sub\n      swap1\n      log1\n        /* \"evidence/evidence.sol\":1853:1857  true */\n      0x01\n        /* \"evidence/evidence.sol\":1846:1857  return true */\n      swap1\n      pop\n        /* \"evidence/evidence.sol\":1506:1865  function sign() public returns(bool){\r... */\n    tag_29:\n      swap1\n      jump\t// out\n        /* \"evidence/evidence.sol\":2145:2350  function isAllSigned() public view returns (bool,string memory){\r... */\n    tag_13:\n        /* \"evidence/evidence.sol\":2189:2193  bool */\n      0x00\n        /* \"evidence/evidence.sol\":2194:2207  string memory */\n      0x60\n        /* \"evidence/evidence.sol\":2219:2232  uint256 iSize */\n      0x00\n        /* \"evidence/evidence.sol\":2244:2255  factoryAddr */\n      0x02\n      0x00\n      swap1\n      sload\n      swap1\n      0x0100\n      exp\n      swap1\n      div\n      0xffffffffffffffffffffffffffffffffffffffff\n      and\n        /* \"evidence/evidence.sol\":2235:2271  IEvdence(factoryAddr).getSignersSize */\n      0xffffffffffffffffffffffffffffffffffffffff\n      and\n      0xfa69efbd\n        /* \"evidence/evidence.sol\":2235:2273  IEvdence(factoryAddr).getSignersSize() */\n      mload(0x40)\n      dup2\n      0xffffffff\n      and\n      0xe0\n      shl\n      dup2\n      mstore\n      0x04\n      add\n      0x20\n      mload(0x40)\n      dup1\n      dup4\n      sub\n      dup2\n      dup7\n      dup1\n      extcodesize\n      iszero\n      dup1\n      iszero\n      tag_42\n      jumpi\n      0x00\n      dup1\n      revert\n    tag_42:\n      pop\n      gas\n      staticcall\n      iszero\n      dup1\n      iszero\n      tag_44\n      jumpi\n      returndatasize\n      0x00\n      dup1\n      returndatacopy\n      revert(0x00, returndatasize)\n    tag_44:\n      pop\n      pop\n      pop\n      pop\n      mload(0x40)\n      returndatasize\n      not(0x1f)\n      0x1f\n      dup3\n      add\n      and\n      dup3\n      add\n      dup1\n      0x40\n      mstore\n      pop\n      dup2\n      add\n      swap1\n      tag_45\n      swap2\n      swap1\n      tag_46\n      jump\t// in\n    tag_45:\n        /* \"evidence/evidence.sol\":2219:2273  uint256 iSize = IEvdence(factoryAddr).getSignersSize() */\n      swap1\n      pop\n        /* \"evidence/evidence.sol\":2288:2297  uint256 i */\n      0x00\n        /* \"evidence/evidence.sol\":2284:2339  for(uint256 i =0;i<iSize;i++){\r... */\n    tag_47:\n        /* \"evidence/evidence.sol\":2303:2308  iSize */\n      dup2\n        /* \"evidence/evidence.sol\":2301:2302  i */\n      dup2\n        /* \"evidence/evidence.sol\":2301:2308  i<iSize */\n      lt\n        /* \"evidence/evidence.sol\":2284:2339  for(uint256 i =0;i<iSize;i++){\r... */\n      iszero\n      tag_48\n      jumpi\n        /* \"evidence/evidence.sol\":2309:2312  i++ */\n      dup1\n      dup1\n      tag_50\n      swap1\n      tag_51\n      jump\t// in\n    tag_50:\n      swap2\n      pop\n      pop\n        /* \"evidence/evidence.sol\":2284:2339  for(uint256 i =0;i<iSize;i++){\r... */\n      jump(tag_47)\n    tag_48:\n      pop\n        /* \"evidence/evidence.sol\":2208:2350  {\r... */\n      pop\n        /* \"evidence/evidence.sol\":2145:2350  function isAllSigned() public view returns (bool,string memory){\r... */\n      swap1\n      swap2\n      jump\t// out\n        /* \"evidence/evidence.sol\":662:787  function callVerify(address _signer) public view returns(bool){\r... */\n    tag_19:\n        /* \"evidence/evidence.sol\":719:723  bool */\n      0x00\n        /* \"evidence/evidence.sol\":751:762  factoryAddr */\n      0x02\n      0x00\n      swap1\n      sload\n      swap1\n      0x0100\n      exp\n      swap1\n      div\n      0xffffffffffffffffffffffffffffffffffffffff\n      and\n        /* \"evidence/evidence.sol\":742:770  IEvdence(factoryAddr).verify */\n      0xffffffffffffffffffffffffffffffffffffffff\n      and\n      0x63a9c3d7\n        /* \"evidence/evidence.sol\":771:778  _signer */\n      dup4\n        /* \"evidence/evidence.sol\":742:779  IEvdence(factoryAddr).verify(_signer) */\n      mload(0x40)\n      dup3\n      0xffffffff\n      and\n      0xe0\n      shl\n      dup2\n      mstore\n      0x04\n      add\n      tag_53\n      swap2\n      swap1\n      tag_28\n      jump\t// in\n    tag_53:\n      0x20\n      mload(0x40)\n      dup1\n      dup4\n      sub\n      dup2\n      dup7\n      dup1\n      extcodesize\n      iszero\n      dup1\n      iszero\n      tag_54\n      jumpi\n      0x00\n      dup1\n      revert\n    tag_54:\n      pop\n      gas\n      staticcall\n      iszero\n      dup1\n      iszero\n      tag_56\n      jumpi\n      returndatasize\n      0x00\n      dup1\n      returndatacopy\n      revert(0x00, returndatasize)\n    tag_56:\n      pop\n      pop\n      pop\n      pop\n      mload(0x40)\n      returndatasize\n      not(0x1f)\n      0x1f\n      dup3\n      add\n      and\n      dup3\n      add\n      dup1\n      0x40\n      mstore\n      pop\n      dup2\n      add\n      swap1\n      tag_57\n      swap2\n      swap1\n      tag_58\n      jump\t// in\n    tag_57:\n        /* \"evidence/evidence.sol\":735:779  return IEvdence(factoryAddr).verify(_signer) */\n      swap1\n      pop\n        /* \"evidence/evidence.sol\":662:787  function callVerify(address _signer) public view returns(bool){\r... */\n      swap2\n      swap1\n      pop\n      jump\t// out\n        /* \"evidence/evidence.sol\":1101:1488  function getEvidence() public view returns(string memory,address[] memory,address[] memory){\r... */\n    tag_22:\n        /* \"evidence/evidence.sol\":1144:1157  string memory */\n      0x60\n        /* \"evidence/evidence.sol\":1158:1174  address[] memory */\n      dup1\n        /* \"evidence/evidence.sol\":1175:1191  address[] memory */\n      0x60\n        /* \"evidence/evidence.sol\":1203:1216  uint256 iSize */\n      0x00\n        /* \"evidence/evidence.sol\":1228:1239  factoryAddr */\n      0x02\n      0x00\n      swap1\n      sload\n      swap1\n      0x0100\n      exp\n      swap1\n      div\n      0xffffffffffffffffffffffffffffffffffffffff\n      and\n        /* \"evidence/evidence.sol\":1219:1255  IEvdence(factoryAddr).getSignersSize */\n      0xffffffffffffffffffffffffffffffffffffffff\n      and\n      0xfa69efbd\n        /* \"evidence/evidence.sol\":1219:1257  IEvdence(factoryAddr).getSignersSize() */\n      mload(0x40)\n      dup2\n      0xffffffff\n      and\n      0xe0\n      shl\n      dup2\n      mstore\n      0x04\n      add\n      0x20\n      mload(0x40)\n      dup1\n      dup4\n      sub\n      dup2\n      dup7\n      dup1\n      extcodesize\n      iszero\n      dup1\n      iszero\n      tag_60\n      jumpi\n      0x00\n      dup1\n      revert\n    tag_60:\n      pop\n      gas\n      staticcall\n      iszero\n      dup1\n      iszero\n      tag_62\n      jumpi\n      returndatasize\n      0x00\n      dup1\n      returndatacopy\n      revert(0x00, returndatasize)\n    tag_62:\n      pop\n      pop\n      pop\n      pop\n      mload(0x40)\n      returndatasize\n      not(0x1f)\n      0x1f\n      dup3\n      add\n      and\n      dup3\n      add\n      dup1\n      0x40\n      mstore\n      pop\n      dup2\n      add\n      swap1\n      tag_63\n      swap2\n      swap1\n      tag_46\n      jump\t// in\n    tag_63:\n        /* \"evidence/evidence.sol\":1203:1257  uint256 iSize = IEvdence(factoryAddr).getSignersSize() */\n      swap1\n      pop\n        /* \"evidence/evidence.sol\":1268:1295  address[] memory signerList */\n      0x00\n        /* \"evidence/evidence.sol\":1312:1317  iSize */\n      dup2\n        /* \"evidence/evidence.sol\":1298:1318  new address[](iSize) */\n      0xffffffffffffffff\n      dup2\n      gt\n      iszero\n      tag_64\n      jumpi\n      tag_65\n      tag_66\n      jump\t// in\n    tag_65:\n    tag_64:\n      mload(0x40)\n      swap1\n      dup1\n      dup3\n      mstore\n      dup1\n      0x20\n      mul\n      0x20\n      add\n      dup3\n      add\n      0x40\n      mstore\n      dup1\n      iszero\n      tag_67\n      jumpi\n      dup2\n      0x20\n      add\n      0x20\n      dup3\n      mul\n      dup1\n      calldatasize\n      dup4\n      calldatacopy\n      dup1\n      dup3\n      add\n      swap2\n      pop\n      pop\n      swap1\n      pop\n    tag_67:\n      pop\n        /* \"evidence/evidence.sol\":1268:1318  address[] memory signerList = new address[](iSize) */\n      swap1\n      pop\n        /* \"evidence/evidence.sol\":1333:1340  uint8 i */\n      0x00\n        /* \"evidence/evidence.sol\":1329:1433  for(uint8 i =0;i<iSize;i++){\r... */\n    tag_68:\n        /* \"evidence/evidence.sol\":1346:1351  iSize */\n      dup3\n        /* \"evidence/evidence.sol\":1344:1345  i */\n      dup2\n        /* \"evidence/evidence.sol\":1344:1351  i<iSize */\n      0xff\n      and\n      lt\n        /* \"evidence/evidence.sol\":1329:1433  for(uint8 i =0;i<iSize;i++){\r... */\n      iszero\n      tag_69\n      jumpi\n        /* \"evidence/evidence.sol\":1396:1407  factoryAddr */\n      0x02\n      0x00\n      swap1\n      sload\n      swap1\n      0x0100\n      exp\n      swap1\n      div\n      0xffffffffffffffffffffffffffffffffffffffff\n      and\n        /* \"evidence/evidence.sol\":1387:1418  IEvdence(factoryAddr).getSigner */\n      0xffffffffffffffffffffffffffffffffffffffff\n      and\n      0x3ffefe4e\n        /* \"evidence/evidence.sol\":1419:1420  i */\n      dup3\n        /* \"evidence/evidence.sol\":1387:1421  IEvdence(factoryAddr).getSigner(i) */\n      mload(0x40)\n      dup3\n      0xffffffff\n      and\n      0xe0\n      shl\n      dup2\n      mstore\n      0x04\n      add\n      tag_71\n      swap2\n      swap1\n      tag_72\n      jump\t// in\n    tag_71:\n      0x20\n      mload(0x40)\n      dup1\n      dup4\n      sub\n      dup2\n      dup7\n      dup1\n      extcodesize\n      iszero\n      dup1\n      iszero\n      tag_73\n      jumpi\n      0x00\n      dup1\n      revert\n    tag_73:\n      pop\n      gas\n      staticcall\n      iszero\n      dup1\n      iszero\n      tag_75\n      jumpi\n      returndatasize\n      0x00\n      dup1\n      returndatacopy\n      revert(0x00, returndatasize)\n    tag_75:\n      pop\n      pop\n      pop\n      pop\n      mload(0x40)\n      returndatasize\n      not(0x1f)\n      0x1f\n      dup3\n      add\n      and\n      dup3\n      add\n      dup1\n      0x40\n      mstore\n      pop\n      dup2\n      add\n      swap1\n      tag_76\n      swap2\n      swap1\n      tag_77\n      jump\t// in\n    tag_76:\n        /* \"evidence/evidence.sol\":1371:1381  signerList */\n      dup3\n        /* \"evidence/evidence.sol\":1382:1383  i */\n      dup3\n        /* \"evidence/evidence.sol\":1371:1384  signerList[i] */\n      0xff\n      and\n      dup2\n      mload\n      dup2\n      lt\n      tag_78\n      jumpi\n      tag_79\n      tag_80\n      jump\t// in\n    tag_79:\n    tag_78:\n      0x20\n      mul\n      0x20\n      add\n      add\n        /* \"evidence/evidence.sol\":1371:1421  signerList[i] = IEvdence(factoryAddr).getSigner(i) */\n      swap1\n      0xffffffffffffffffffffffffffffffffffffffff\n      and\n      swap1\n      dup2\n      0xffffffffffffffffffffffffffffffffffffffff\n      and\n      dup2\n      mstore\n      pop\n      pop\n        /* \"evidence/evidence.sol\":1352:1355  i++ */\n      dup1\n      dup1\n      tag_81\n      swap1\n      tag_82\n      jump\t// in\n    tag_81:\n      swap2\n      pop\n      pop\n        /* \"evidence/evidence.sol\":1329:1433  for(uint8 i =0;i<iSize;i++){\r... */\n      jump(tag_68)\n    tag_69:\n      pop\n        /* \"evidence/evidence.sol\":1450:1458  evidence */\n      0x00\n        /* \"evidence/evidence.sol\":1459:1469  signerList */\n      dup2\n        /* \"evidence/evidence.sol\":1470:1477  signers */\n      0x01\n        /* \"evidence/evidence.sol\":1443:1478  return(evidence,signerList,signers) */\n      dup3\n      dup1\n      sload\n      tag_83\n      swap1\n      tag_84\n      jump\t// in\n    tag_83:\n      dup1\n      0x1f\n      add\n      0x20\n      dup1\n      swap2\n      div\n      mul\n      0x20\n      add\n      mload(0x40)\n      swap1\n      dup2\n      add\n      0x40\n      mstore\n      dup1\n      swap3\n      swap2\n      swap1\n      dup2\n      dup2\n      mstore\n      0x20\n      add\n      dup3\n      dup1\n      sload\n      tag_85\n      swap1\n      tag_84\n      jump\t// in\n    tag_85:\n      dup1\n      iszero\n      tag_86\n      jumpi\n      dup1\n      0x1f\n      lt\n      tag_87\n      jumpi\n      0x0100\n      dup1\n      dup4\n      sload\n      div\n      mul\n      dup4\n      mstore\n      swap2\n      0x20\n      add\n      swap2\n      jump(tag_86)\n    tag_87:\n      dup3\n      add\n      swap2\n      swap1\n      0x00\n      mstore\n      keccak256(0x00, 0x20)\n      swap1\n    tag_88:\n      dup2\n      sload\n      dup2\n      mstore\n      swap1\n      0x01\n      add\n      swap1\n      0x20\n      add\n      dup1\n      dup4\n      gt\n      tag_88\n      jumpi\n      dup3\n      swap1\n      sub\n      0x1f\n      and\n      dup3\n      add\n      swap2\n    tag_86:\n      pop\n      pop\n      pop\n      pop\n      pop\n      swap3\n      pop\n      dup1\n      dup1\n      sload\n      dup1\n      0x20\n      mul\n      0x20\n      add\n      mload(0x40)\n      swap1\n      dup2\n      add\n      0x40\n      mstore\n      dup1\n      swap3\n      swap2\n      swap1\n      dup2\n      dup2\n      mstore\n      0x20\n      add\n      dup3\n      dup1\n      sload\n      dup1\n      iszero\n      tag_89\n      jumpi\n      0x20\n      mul\n      dup3\n      add\n      swap2\n      swap1\n      0x00\n      mstore\n      keccak256(0x00, 0x20)\n      swap1\n    tag_90:\n      dup2\n      0x00\n      swap1\n      sload\n      swap1\n      0x0100\n      exp\n      swap1\n      div\n      0xffffffffffffffffffffffffffffffffffffffff\n      and\n      0xffffffffffffffffffffffffffffffffffffffff\n      and\n      dup2\n      mstore\n      0x20\n      add\n      swap1\n      0x01\n      add\n      swap1\n      dup1\n      dup4\n      gt\n      tag_90\n      jumpi\n    tag_89:\n      pop\n      pop\n      pop\n      pop\n      pop\n      swap1\n      pop\n      swap5\n      pop\n      swap5\n      pop\n      swap5\n      pop\n      pop\n      pop\n        /* \"evidence/evidence.sol\":1101:1488  function getEvidence() public view returns(string memory,address[] memory,address[] memory){\r... */\n      swap1\n      swap2\n      swap3\n      jump\t// out\n        /* \"evidence/evidence.sol\":390:416  address public factoryAddr */\n    tag_26:\n      0x02\n      0x00\n      swap1\n      sload\n      swap1\n      0x0100\n      exp\n      swap1\n      div\n      0xffffffffffffffffffffffffffffffffffffffff\n      and\n      dup2\n      jump\t// out\n        /* \"evidence/evidence.sol\":1894:2136  function isSigned(address _signer) internal view returns(bool){\r... */\n    tag_35:\n        /* \"evidence/evidence.sol\":1951:1955  bool */\n      0x00\n        /* \"evidence/evidence.sol\":1971:1980  uint256 i */\n      dup1\n        /* \"evidence/evidence.sol\":1983:1984  0 */\n      0x00\n        /* \"evidence/evidence.sol\":1971:1984  uint256 i = 0 */\n      swap1\n      pop\n        /* \"evidence/evidence.sol\":1967:2104  for(uint256 i = 0;i<signers.length;i++){\r... */\n    tag_92:\n        /* \"evidence/evidence.sol\":1987:1994  signers */\n      0x01\n        /* \"evidence/evidence.sol\":1987:2001  signers.length */\n      dup1\n      sload\n      swap1\n      pop\n        /* \"evidence/evidence.sol\":1985:1986  i */\n      dup2\n        /* \"evidence/evidence.sol\":1985:2001  i<signers.length */\n      lt\n        /* \"evidence/evidence.sol\":1967:2104  for(uint256 i = 0;i<signers.length;i++){\r... */\n      iszero\n      tag_93\n      jumpi\n        /* \"evidence/evidence.sol\":2039:2046  _signer */\n      dup3\n        /* \"evidence/evidence.sol\":2025:2046  signers[i] == _signer */\n      0xffffffffffffffffffffffffffffffffffffffff\n      and\n        /* \"evidence/evidence.sol\":2025:2032  signers */\n      0x01\n        /* \"evidence/evidence.sol\":2033:2034  i */\n      dup3\n        /* \"evidence/evidence.sol\":2025:2035  signers[i] */\n      dup2\n      sload\n      dup2\n      lt\n      tag_95\n      jumpi\n      tag_96\n      tag_80\n      jump\t// in\n    tag_96:\n    tag_95:\n      swap1\n      0x00\n      mstore\n      keccak256(0x00, 0x20)\n      add\n      0x00\n      swap1\n      sload\n      swap1\n      0x0100\n      exp\n      swap1\n      div\n      0xffffffffffffffffffffffffffffffffffffffff\n      and\n        /* \"evidence/evidence.sol\":2025:2046  signers[i] == _signer */\n      0xffffffffffffffffffffffffffffffffffffffff\n      and\n      eq\n        /* \"evidence/evidence.sol\":2021:2093  if (signers[i] == _signer){\r... */\n      iszero\n      tag_98\n      jumpi\n        /* \"evidence/evidence.sol\":2073:2077  true */\n      0x01\n        /* \"evidence/evidence.sol\":2066:2077  return true */\n      swap2\n      pop\n      pop\n      jump(tag_91)\n        /* \"evidence/evidence.sol\":2021:2093  if (signers[i] == _signer){\r... */\n    tag_98:\n        /* \"evidence/evidence.sol\":2002:2005  i++ */\n      dup1\n      dup1\n      tag_99\n      swap1\n      tag_51\n      jump\t// in\n    tag_99:\n      swap2\n      pop\n      pop\n        /* \"evidence/evidence.sol\":1967:2104  for(uint256 i = 0;i<signers.length;i++){\r... */\n      jump(tag_92)\n    tag_93:\n      pop\n        /* \"evidence/evidence.sol\":2121:2126  false */\n      0x00\n        /* \"evidence/evidence.sol\":2114:2126  return false */\n      swap1\n      pop\n        /* \"evidence/evidence.sol\":1894:2136  function isSigned(address _signer) internal view returns(bool){\r... */\n    tag_91:\n      swap2\n      swap1\n      pop\n      jump\t// out\n        /* \"#utility.yul\":7:146   */\n    tag_101:\n        /* \"#utility.yul\":53:58   */\n      0x00\n        /* \"#utility.yul\":91:97   */\n      dup2\n        /* \"#utility.yul\":78:98   */\n      calldataload\n        /* \"#utility.yul\":69:98   */\n      swap1\n      pop\n        /* \"#utility.yul\":107:140   */\n      tag_103\n        /* \"#utility.yul\":134:139   */\n      dup2\n        /* \"#utility.yul\":107:140   */\n      tag_104\n      jump\t// in\n    tag_103:\n        /* \"#utility.yul\":7:146   */\n      swap3\n      swap2\n      pop\n      pop\n      jump\t// out\n        /* \"#utility.yul\":152:295   */\n    tag_105:\n        /* \"#utility.yul\":209:214   */\n      0x00\n        /* \"#utility.yul\":240:246   */\n      dup2\n        /* \"#utility.yul\":234:247   */\n      mload\n        /* \"#utility.yul\":225:247   */\n      swap1\n      pop\n        /* \"#utility.yul\":256:289   */\n      tag_107\n        /* \"#utility.yul\":283:288   */\n      dup2\n        /* \"#utility.yul\":256:289   */\n      tag_104\n      jump\t// in\n    tag_107:\n        /* \"#utility.yul\":152:295   */\n      swap3\n      swap2\n      pop\n      pop\n      jump\t// out\n        /* \"#utility.yul\":301:438   */\n    tag_108:\n        /* \"#utility.yul\":355:360   */\n      0x00\n        /* \"#utility.yul\":386:392   */\n      dup2\n        /* \"#utility.yul\":380:393   */\n      mload\n        /* \"#utility.yul\":371:393   */\n      swap1\n      pop\n        /* \"#utility.yul\":402:432   */\n      tag_110\n        /* \"#utility.yul\":426:431   */\n      dup2\n        /* \"#utility.yul\":402:432   */\n      tag_111\n      jump\t// in\n    tag_110:\n        /* \"#utility.yul\":301:438   */\n      swap3\n      swap2\n      pop\n      pop\n      jump\t// out\n        /* \"#utility.yul\":444:587   */\n    tag_112:\n        /* \"#utility.yul\":501:506   */\n      0x00\n        /* \"#utility.yul\":532:538   */\n      dup2\n        /* \"#utility.yul\":526:539   */\n      mload\n        /* \"#utility.yul\":517:539   */\n      swap1\n      pop\n        /* \"#utility.yul\":548:581   */\n      tag_114\n        /* \"#utility.yul\":575:580   */\n      dup2\n        /* \"#utility.yul\":548:581   */\n      tag_115\n      jump\t// in\n    tag_114:\n        /* \"#utility.yul\":444:587   */\n      swap3\n      swap2\n      pop\n      pop\n      jump\t// out\n        /* \"#utility.yul\":593:922   */\n    tag_18:\n        /* \"#utility.yul\":652:658   */\n      0x00\n        /* \"#utility.yul\":701:703   */\n      0x20\n        /* \"#utility.yul\":689:698   */\n      dup3\n        /* \"#utility.yul\":680:687   */\n      dup5\n        /* \"#utility.yul\":676:699   */\n      sub\n        /* \"#utility.yul\":672:704   */\n      slt\n        /* \"#utility.yul\":669:788   */\n      iszero\n      tag_117\n      jumpi\n        /* \"#utility.yul\":707:786   */\n      tag_118\n      tag_119\n      jump\t// in\n    tag_118:\n        /* \"#utility.yul\":669:788   */\n    tag_117:\n        /* \"#utility.yul\":827:828   */\n      0x00\n        /* \"#utility.yul\":852:905   */\n      tag_120\n        /* \"#utility.yul\":897:904   */\n      dup5\n        /* \"#utility.yul\":888:894   */\n      dup3\n        /* \"#utility.yul\":877:886   */\n      dup6\n        /* \"#utility.yul\":873:895   */\n      add\n        /* \"#utility.yul\":852:905   */\n      tag_101\n      jump\t// in\n    tag_120:\n        /* \"#utility.yul\":842:905   */\n      swap2\n      pop\n        /* \"#utility.yul\":798:915   */\n      pop\n        /* \"#utility.yul\":593:922   */\n      swap3\n      swap2\n      pop\n      pop\n      jump\t// out\n        /* \"#utility.yul\":928:1279   */\n    tag_77:\n        /* \"#utility.yul\":998:1004   */\n      0x00\n        /* \"#utility.yul\":1047:1049   */\n      0x20\n        /* \"#utility.yul\":1035:1044   */\n      dup3\n        /* \"#utility.yul\":1026:1033   */\n      dup5\n        /* \"#utility.yul\":1022:1045   */\n      sub\n        /* \"#utility.yul\":1018:1050   */\n      slt\n        /* \"#utility.yul\":1015:1134   */\n      iszero\n      tag_122\n      jumpi\n        /* \"#utility.yul\":1053:1132   */\n      tag_123\n      tag_119\n      jump\t// in\n    tag_123:\n        /* \"#utility.yul\":1015:1134   */\n    tag_122:\n        /* \"#utility.yul\":1173:1174   */\n      0x00\n        /* \"#utility.yul\":1198:1262   */\n      tag_124\n        /* \"#utility.yul\":1254:1261   */\n      dup5\n        /* \"#utility.yul\":1245:1251   */\n      dup3\n        /* \"#utility.yul\":1234:1243   */\n      dup6\n        /* \"#utility.yul\":1230:1252   */\n      add\n        /* \"#utility.yul\":1198:1262   */\n      tag_105\n      jump\t// in\n    tag_124:\n        /* \"#utility.yul\":1188:1262   */\n      swap2\n      pop\n        /* \"#utility.yul\":1144:1272   */\n      pop\n        /* \"#utility.yul\":928:1279   */\n      swap3\n      swap2\n      pop\n      pop\n      jump\t// out\n        /* \"#utility.yul\":1285:1630   */\n    tag_58:\n        /* \"#utility.yul\":1352:1358   */\n      0x00\n        /* \"#utility.yul\":1401:1403   */\n      0x20\n        /* \"#utility.yul\":1389:1398   */\n      dup3\n        /* \"#utility.yul\":1380:1387   */\n      dup5\n        /* \"#utility.yul\":1376:1399   */\n      sub\n        /* \"#utility.yul\":1372:1404   */\n      slt\n        /* \"#utility.yul\":1369:1488   */\n      iszero\n      tag_126\n      jumpi\n        /* \"#utility.yul\":1407:1486   */\n      tag_127\n      tag_119\n      jump\t// in\n    tag_127:\n        /* \"#utility.yul\":1369:1488   */\n    tag_126:\n        /* \"#utility.yul\":1527:1528   */\n      0x00\n        /* \"#utility.yul\":1552:1613   */\n      tag_128\n        /* \"#utility.yul\":1605:1612   */\n      dup5\n        /* \"#utility.yul\":1596:1602   */\n      dup3\n        /* \"#utility.yul\":1585:1594   */\n      dup6\n        /* \"#utility.yul\":1581:1603   */\n      add\n        /* \"#utility.yul\":1552:1613   */\n      tag_108\n      jump\t// in\n    tag_128:\n        /* \"#utility.yul\":1542:1613   */\n      swap2\n      pop\n        /* \"#utility.yul\":1498:1623   */\n      pop\n        /* \"#utility.yul\":1285:1630   */\n      swap3\n      swap2\n      pop\n      pop\n      jump\t// out\n        /* \"#utility.yul\":1636:1987   */\n    tag_46:\n        /* \"#utility.yul\":1706:1712   */\n      0x00\n        /* \"#utility.yul\":1755:1757   */\n      0x20\n        /* \"#utility.yul\":1743:1752   */\n      dup3\n        /* \"#utility.yul\":1734:1741   */\n      dup5\n        /* \"#utility.yul\":1730:1753   */\n      sub\n        /* \"#utility.yul\":1726:1758   */\n      slt\n        /* \"#utility.yul\":1723:1842   */\n      iszero\n      tag_130\n      jumpi\n        /* \"#utility.yul\":1761:1840   */\n      tag_131\n      tag_119\n      jump\t// in\n    tag_131:\n        /* \"#utility.yul\":1723:1842   */\n    tag_130:\n        /* \"#utility.yul\":1881:1882   */\n      0x00\n        /* \"#utility.yul\":1906:1970   */\n      tag_132\n        /* \"#utility.yul\":1962:1969   */\n      dup5\n        /* \"#utility.yul\":1953:1959   */\n      dup3\n        /* \"#utility.yul\":1942:1951   */\n      dup6\n        /* \"#utility.yul\":1938:1960   */\n      add\n        /* \"#utility.yul\":1906:1970   */\n      tag_112\n      jump\t// in\n    tag_132:\n        /* \"#utility.yul\":1896:1970   */\n      swap2\n      pop\n        /* \"#utility.yul\":1852:1980   */\n      pop\n        /* \"#utility.yul\":1636:1987   */\n      swap3\n      swap2\n      pop\n      pop\n      jump\t// out\n        /* \"#utility.yul\":1993:2172   */\n    tag_133:\n        /* \"#utility.yul\":2062:2072   */\n      0x00\n        /* \"#utility.yul\":2083:2129   */\n      tag_135\n        /* \"#utility.yul\":2125:2128   */\n      dup4\n        /* \"#utility.yul\":2117:2123   */\n      dup4\n        /* \"#utility.yul\":2083:2129   */\n      tag_136\n      jump\t// in\n    tag_135:\n        /* \"#utility.yul\":2161:2165   */\n      0x20\n        /* \"#utility.yul\":2156:2159   */\n      dup4\n        /* \"#utility.yul\":2152:2166   */\n      add\n        /* \"#utility.yul\":2138:2166   */\n      swap1\n      pop\n        /* \"#utility.yul\":1993:2172   */\n      swap3\n      swap2\n      pop\n      pop\n      jump\t// out\n        /* \"#utility.yul\":2178:2286   */\n    tag_136:\n        /* \"#utility.yul\":2255:2279   */\n      tag_138\n        /* \"#utility.yul\":2273:2278   */\n      dup2\n        /* \"#utility.yul\":2255:2279   */\n      tag_139\n      jump\t// in\n    tag_138:\n        /* \"#utility.yul\":2250:2253   */\n      dup3\n        /* \"#utility.yul\":2243:2280   */\n      mstore\n        /* \"#utility.yul\":2178:2286   */\n      pop\n      pop\n      jump\t// out\n        /* \"#utility.yul\":2292:2410   */\n    tag_140:\n        /* \"#utility.yul\":2379:2403   */\n      tag_142\n        /* \"#utility.yul\":2397:2402   */\n      dup2\n        /* \"#utility.yul\":2379:2403   */\n      tag_139\n      jump\t// in\n    tag_142:\n        /* \"#utility.yul\":2374:2377   */\n      dup3\n        /* \"#utility.yul\":2367:2404   */\n      mstore\n        /* \"#utility.yul\":2292:2410   */\n      pop\n      pop\n      jump\t// out\n        /* \"#utility.yul\":2446:3178   */\n    tag_143:\n        /* \"#utility.yul\":2565:2568   */\n      0x00\n        /* \"#utility.yul\":2594:2648   */\n      tag_145\n        /* \"#utility.yul\":2642:2647   */\n      dup3\n        /* \"#utility.yul\":2594:2648   */\n      tag_146\n      jump\t// in\n    tag_145:\n        /* \"#utility.yul\":2664:2750   */\n      tag_147\n        /* \"#utility.yul\":2743:2749   */\n      dup2\n        /* \"#utility.yul\":2738:2741   */\n      dup6\n        /* \"#utility.yul\":2664:2750   */\n      tag_148\n      jump\t// in\n    tag_147:\n        /* \"#utility.yul\":2657:2750   */\n      swap4\n      pop\n        /* \"#utility.yul\":2774:2830   */\n      tag_149\n        /* \"#utility.yul\":2824:2829   */\n      dup4\n        /* \"#utility.yul\":2774:2830   */\n      tag_150\n      jump\t// in\n    tag_149:\n        /* \"#utility.yul\":2853:2860   */\n      dup1\n        /* \"#utility.yul\":2884:2885   */\n      0x00\n        /* \"#utility.yul\":2869:3153   */\n    tag_151:\n        /* \"#utility.yul\":2894:2900   */\n      dup4\n        /* \"#utility.yul\":2891:2892   */\n      dup2\n        /* \"#utility.yul\":2888:2901   */\n      lt\n        /* \"#utility.yul\":2869:3153   */\n      iszero\n      tag_153\n      jumpi\n        /* \"#utility.yul\":2970:2976   */\n      dup2\n        /* \"#utility.yul\":2964:2977   */\n      mload\n        /* \"#utility.yul\":2997:3060   */\n      tag_154\n        /* \"#utility.yul\":3056:3059   */\n      dup9\n        /* \"#utility.yul\":3041:3054   */\n      dup3\n        /* \"#utility.yul\":2997:3060   */\n      tag_133\n      jump\t// in\n    tag_154:\n        /* \"#utility.yul\":2990:3060   */\n      swap8\n      pop\n        /* \"#utility.yul\":3083:3143   */\n      tag_155\n        /* \"#utility.yul\":3136:3142   */\n      dup4\n        /* \"#utility.yul\":3083:3143   */\n      tag_156\n      jump\t// in\n    tag_155:\n        /* \"#utility.yul\":3073:3143   */\n      swap3\n      pop\n        /* \"#utility.yul\":2929:3153   */\n      pop\n        /* \"#utility.yul\":2916:2917   */\n      0x01\n        /* \"#utility.yul\":2913:2914   */\n      dup2\n        /* \"#utility.yul\":2909:2918   */\n      add\n        /* \"#utility.yul\":2904:2918   */\n      swap1\n      pop\n        /* \"#utility.yul\":2869:3153   */\n      jump(tag_151)\n    tag_153:\n        /* \"#utility.yul\":2873:2887   */\n      pop\n        /* \"#utility.yul\":3169:3172   */\n      dup6\n        /* \"#utility.yul\":3162:3172   */\n      swap4\n      pop\n        /* \"#utility.yul\":2570:3178   */\n      pop\n      pop\n      pop\n        /* \"#utility.yul\":2446:3178   */\n      swap3\n      swap2\n      pop\n      pop\n      jump\t// out\n        /* \"#utility.yul\":3184:3293   */\n    tag_157:\n        /* \"#utility.yul\":3265:3286   */\n      tag_159\n        /* \"#utility.yul\":3280:3285   */\n      dup2\n        /* \"#utility.yul\":3265:3286   */\n      tag_160\n      jump\t// in\n    tag_159:\n        /* \"#utility.yul\":3260:3263   */\n      dup3\n        /* \"#utility.yul\":3253:3287   */\n      mstore\n        /* \"#utility.yul\":3184:3293   */\n      pop\n      pop\n      jump\t// out\n        /* \"#utility.yul\":3299:3663   */\n    tag_161:\n        /* \"#utility.yul\":3387:3390   */\n      0x00\n        /* \"#utility.yul\":3415:3454   */\n      tag_163\n        /* \"#utility.yul\":3448:3453   */\n      dup3\n        /* \"#utility.yul\":3415:3454   */\n      tag_164\n      jump\t// in\n    tag_163:\n        /* \"#utility.yul\":3470:3541   */\n      tag_165\n        /* \"#utility.yul\":3534:3540   */\n      dup2\n        /* \"#utility.yul\":3529:3532   */\n      dup6\n        /* \"#utility.yul\":3470:3541   */\n      tag_166\n      jump\t// in\n    tag_165:\n        /* \"#utility.yul\":3463:3541   */\n      swap4\n      pop\n        /* \"#utility.yul\":3550:3602   */\n      tag_167\n        /* \"#utility.yul\":3595:3601   */\n      dup2\n        /* \"#utility.yul\":3590:3593   */\n      dup6\n        /* \"#utility.yul\":3583:3587   */\n      0x20\n        /* \"#utility.yul\":3576:3581   */\n      dup7\n        /* \"#utility.yul\":3572:3588   */\n      add\n        /* \"#utility.yul\":3550:3602   */\n      tag_168\n      jump\t// in\n    tag_167:\n        /* \"#utility.yul\":3627:3656   */\n      tag_169\n        /* \"#utility.yul\":3649:3655   */\n      dup2\n        /* \"#utility.yul\":3627:3656   */\n      tag_170\n      jump\t// in\n    tag_169:\n        /* \"#utility.yul\":3622:3625   */\n      dup5\n        /* \"#utility.yul\":3618:3657   */\n      add\n        /* \"#utility.yul\":3611:3657   */\n      swap2\n      pop\n        /* \"#utility.yul\":3391:3663   */\n      pop\n        /* \"#utility.yul\":3299:3663   */\n      swap3\n      swap2\n      pop\n      pop\n      jump\t// out\n        /* \"#utility.yul\":3693:4495   */\n    tag_171:\n        /* \"#utility.yul\":3778:3781   */\n      0x00\n        /* \"#utility.yul\":3815:3820   */\n      dup2\n        /* \"#utility.yul\":3809:3821   */\n      sload\n        /* \"#utility.yul\":3844:3880   */\n      tag_173\n        /* \"#utility.yul\":3870:3879   */\n      dup2\n        /* \"#utility.yul\":3844:3880   */\n      tag_84\n      jump\t// in\n    tag_173:\n        /* \"#utility.yul\":3896:3967   */\n      tag_174\n        /* \"#utility.yul\":3960:3966   */\n      dup2\n        /* \"#utility.yul\":3955:3958   */\n      dup7\n        /* \"#utility.yul\":3896:3967   */\n      tag_166\n      jump\t// in\n    tag_174:\n        /* \"#utility.yul\":3889:3967   */\n      swap5\n      pop\n        /* \"#utility.yul\":3998:3999   */\n      0x01\n        /* \"#utility.yul\":3987:3996   */\n      dup3\n        /* \"#utility.yul\":3983:4000   */\n      and\n        /* \"#utility.yul\":4014:4015   */\n      0x00\n        /* \"#utility.yul\":4009:4144   */\n      dup2\n      eq\n      tag_176\n      jumpi\n        /* \"#utility.yul\":4158:4159   */\n      0x01\n        /* \"#utility.yul\":4153:4489   */\n      dup2\n      eq\n      tag_177\n      jumpi\n        /* \"#utility.yul\":3976:4489   */\n      jump(tag_175)\n        /* \"#utility.yul\":4009:4144   */\n    tag_176:\n        /* \"#utility.yul\":4093:4097   */\n      0xff\n        /* \"#utility.yul\":4089:4098   */\n      not\n        /* \"#utility.yul\":4078:4087   */\n      dup4\n        /* \"#utility.yul\":4074:4099   */\n      and\n        /* \"#utility.yul\":4069:4072   */\n      dup7\n        /* \"#utility.yul\":4062:4100   */\n      mstore\n        /* \"#utility.yul\":4129:4133   */\n      0x20\n        /* \"#utility.yul\":4124:4127   */\n      dup7\n        /* \"#utility.yul\":4120:4134   */\n      add\n        /* \"#utility.yul\":4113:4134   */\n      swap4\n      pop\n        /* \"#utility.yul\":4009:4144   */\n      jump(tag_175)\n        /* \"#utility.yul\":4153:4489   */\n    tag_177:\n        /* \"#utility.yul\":4220:4258   */\n      tag_178\n        /* \"#utility.yul\":4252:4257   */\n      dup6\n        /* \"#utility.yul\":4220:4258   */\n      tag_179\n      jump\t// in\n    tag_178:\n        /* \"#utility.yul\":4280:4281   */\n      0x00\n        /* \"#utility.yul\":4294:4448   */\n    tag_180:\n        /* \"#utility.yul\":4308:4314   */\n      dup4\n        /* \"#utility.yul\":4305:4306   */\n      dup2\n        /* \"#utility.yul\":4302:4315   */\n      lt\n        /* \"#utility.yul\":4294:4448   */\n      iszero\n      tag_182\n      jumpi\n        /* \"#utility.yul\":4382:4389   */\n      dup2\n        /* \"#utility.yul\":4376:4390   */\n      sload\n        /* \"#utility.yul\":4372:4373   */\n      dup2\n        /* \"#utility.yul\":4367:4370   */\n      dup10\n        /* \"#utility.yul\":4363:4374   */\n      add\n        /* \"#utility.yul\":4356:4391   */\n      mstore\n        /* \"#utility.yul\":4432:4433   */\n      0x01\n        /* \"#utility.yul\":4423:4430   */\n      dup3\n        /* \"#utility.yul\":4419:4434   */\n      add\n        /* \"#utility.yul\":4408:4434   */\n      swap2\n      pop\n        /* \"#utility.yul\":4330:4334   */\n      0x20\n        /* \"#utility.yul\":4327:4328   */\n      dup2\n        /* \"#utility.yul\":4323:4335   */\n      add\n        /* \"#utility.yul\":4318:4335   */\n      swap1\n      pop\n        /* \"#utility.yul\":4294:4448   */\n      jump(tag_180)\n    tag_182:\n        /* \"#utility.yul\":4477:4478   */\n      dup1\n        /* \"#utility.yul\":4472:4475   */\n      dup9\n        /* \"#utility.yul\":4468:4479   */\n      add\n        /* \"#utility.yul\":4461:4479   */\n      swap6\n      pop\n        /* \"#utility.yul\":4160:4489   */\n      pop\n      pop\n        /* \"#utility.yul\":3976:4489   */\n    tag_175:\n      pop\n        /* \"#utility.yul\":3782:4495   */\n      pop\n      pop\n        /* \"#utility.yul\":3693:4495   */\n      swap3\n      swap2\n      pop\n      pop\n      jump\t// out\n        /* \"#utility.yul\":4501:4867   */\n    tag_183:\n        /* \"#utility.yul\":4643:4646   */\n      0x00\n        /* \"#utility.yul\":4664:4731   */\n      tag_185\n        /* \"#utility.yul\":4728:4730   */\n      0x14\n        /* \"#utility.yul\":4723:4726   */\n      dup4\n        /* \"#utility.yul\":4664:4731   */\n      tag_166\n      jump\t// in\n    tag_185:\n        /* \"#utility.yul\":4657:4731   */\n      swap2\n      pop\n        /* \"#utility.yul\":4740:4833   */\n      tag_186\n        /* \"#utility.yul\":4829:4832   */\n      dup3\n        /* \"#utility.yul\":4740:4833   */\n      tag_187\n      jump\t// in\n    tag_186:\n        /* \"#utility.yul\":4858:4860   */\n      0x20\n        /* \"#utility.yul\":4853:4856   */\n      dup3\n        /* \"#utility.yul\":4849:4861   */\n      add\n        /* \"#utility.yul\":4842:4861   */\n      swap1\n      pop\n        /* \"#utility.yul\":4501:4867   */\n      swap2\n      swap1\n      pop\n      jump\t// out\n        /* \"#utility.yul\":4873:5000   */\n    tag_188:\n        /* \"#utility.yul\":4958:4993   */\n      tag_190\n        /* \"#utility.yul\":4987:4992   */\n      dup2\n        /* \"#utility.yul\":4958:4993   */\n      tag_191\n      jump\t// in\n    tag_190:\n        /* \"#utility.yul\":4953:4956   */\n      dup3\n        /* \"#utility.yul\":4946:4994   */\n      mstore\n        /* \"#utility.yul\":4873:5000   */\n      pop\n      pop\n      jump\t// out\n        /* \"#utility.yul\":5006:5228   */\n    tag_28:\n        /* \"#utility.yul\":5099:5103   */\n      0x00\n        /* \"#utility.yul\":5137:5139   */\n      0x20\n        /* \"#utility.yul\":5126:5135   */\n      dup3\n        /* \"#utility.yul\":5122:5140   */\n      add\n        /* \"#utility.yul\":5114:5140   */\n      swap1\n      pop\n        /* \"#utility.yul\":5150:5221   */\n      tag_193\n        /* \"#utility.yul\":5218:5219   */\n      0x00\n        /* \"#utility.yul\":5207:5216   */\n      dup4\n        /* \"#utility.yul\":5203:5220   */\n      add\n        /* \"#utility.yul\":5194:5200   */\n      dup5\n        /* \"#utility.yul\":5150:5221   */\n      tag_140\n      jump\t// in\n    tag_193:\n        /* \"#utility.yul\":5006:5228   */\n      swap3\n      swap2\n      pop\n      pop\n      jump\t// out\n        /* \"#utility.yul\":5234:5444   */\n    tag_11:\n        /* \"#utility.yul\":5321:5325   */\n      0x00\n        /* \"#utility.yul\":5359:5361   */\n      0x20\n        /* \"#utility.yul\":5348:5357   */\n      dup3\n        /* \"#utility.yul\":5344:5362   */\n      add\n        /* \"#utility.yul\":5336:5362   */\n      swap1\n      pop\n        /* \"#utility.yul\":5372:5437   */\n      tag_195\n        /* \"#utility.yul\":5434:5435   */\n      0x00\n        /* \"#utility.yul\":5423:5432   */\n      dup4\n        /* \"#utility.yul\":5419:5436   */\n      add\n        /* \"#utility.yul\":5410:5416   */\n      dup5\n        /* \"#utility.yul\":5372:5437   */\n      tag_157\n      jump\t// in\n    tag_195:\n        /* \"#utility.yul\":5234:5444   */\n      swap3\n      swap2\n      pop\n      pop\n      jump\t// out\n        /* \"#utility.yul\":5450:5861   */\n    tag_15:\n        /* \"#utility.yul\":5585:5589   */\n      0x00\n        /* \"#utility.yul\":5623:5625   */\n      0x40\n        /* \"#utility.yul\":5612:5621   */\n      dup3\n        /* \"#utility.yul\":5608:5626   */\n      add\n        /* \"#utility.yul\":5600:5626   */\n      swap1\n      pop\n        /* \"#utility.yul\":5636:5701   */\n      tag_197\n        /* \"#utility.yul\":5698:5699   */\n      0x00\n        /* \"#utility.yul\":5687:5696   */\n      dup4\n        /* \"#utility.yul\":5683:5700   */\n      add\n        /* \"#utility.yul\":5674:5680   */\n      dup6\n        /* \"#utility.yul\":5636:5701   */\n      tag_157\n      jump\t// in\n    tag_197:\n        /* \"#utility.yul\":5748:5757   */\n      dup2\n        /* \"#utility.yul\":5742:5746   */\n      dup2\n        /* \"#utility.yul\":5738:5758   */\n      sub\n        /* \"#utility.yul\":5733:5735   */\n      0x20\n        /* \"#utility.yul\":5722:5731   */\n      dup4\n        /* \"#utility.yul\":5718:5736   */\n      add\n        /* \"#utility.yul\":5711:5759   */\n      mstore\n        /* \"#utility.yul\":5776:5854   */\n      tag_198\n        /* \"#utility.yul\":5849:5853   */\n      dup2\n        /* \"#utility.yul\":5840:5846   */\n      dup5\n        /* \"#utility.yul\":5776:5854   */\n      tag_161\n      jump\t// in\n    tag_198:\n        /* \"#utility.yul\":5768:5854   */\n      swap1\n      pop\n        /* \"#utility.yul\":5450:5861   */\n      swap4\n      swap3\n      pop\n      pop\n      pop\n      jump\t// out\n        /* \"#utility.yul\":5867:6702   */\n    tag_24:\n        /* \"#utility.yul\":6136:6140   */\n      0x00\n        /* \"#utility.yul\":6174:6176   */\n      0x60\n        /* \"#utility.yul\":6163:6172   */\n      dup3\n        /* \"#utility.yul\":6159:6177   */\n      add\n        /* \"#utility.yul\":6151:6177   */\n      swap1\n      pop\n        /* \"#utility.yul\":6223:6232   */\n      dup2\n        /* \"#utility.yul\":6217:6221   */\n      dup2\n        /* \"#utility.yul\":6213:6233   */\n      sub\n        /* \"#utility.yul\":6209:6210   */\n      0x00\n        /* \"#utility.yul\":6198:6207   */\n      dup4\n        /* \"#utility.yul\":6194:6211   */\n      add\n        /* \"#utility.yul\":6187:6234   */\n      mstore\n        /* \"#utility.yul\":6251:6329   */\n      tag_200\n        /* \"#utility.yul\":6324:6328   */\n      dup2\n        /* \"#utility.yul\":6315:6321   */\n      dup7\n        /* \"#utility.yul\":6251:6329   */\n      tag_161\n      jump\t// in\n    tag_200:\n        /* \"#utility.yul\":6243:6329   */\n      swap1\n      pop\n        /* \"#utility.yul\":6376:6385   */\n      dup2\n        /* \"#utility.yul\":6370:6374   */\n      dup2\n        /* \"#utility.yul\":6366:6386   */\n      sub\n        /* \"#utility.yul\":6361:6363   */\n      0x20\n        /* \"#utility.yul\":6350:6359   */\n      dup4\n        /* \"#utility.yul\":6346:6364   */\n      add\n        /* \"#utility.yul\":6339:6387   */\n      mstore\n        /* \"#utility.yul\":6404:6512   */\n      tag_201\n        /* \"#utility.yul\":6507:6511   */\n      dup2\n        /* \"#utility.yul\":6498:6504   */\n      dup6\n        /* \"#utility.yul\":6404:6512   */\n      tag_143\n      jump\t// in\n    tag_201:\n        /* \"#utility.yul\":6396:6512   */\n      swap1\n      pop\n        /* \"#utility.yul\":6559:6568   */\n      dup2\n        /* \"#utility.yul\":6553:6557   */\n      dup2\n        /* \"#utility.yul\":6549:6569   */\n      sub\n        /* \"#utility.yul\":6544:6546   */\n      0x40\n        /* \"#utility.yul\":6533:6542   */\n      dup4\n        /* \"#utility.yul\":6529:6547   */\n      add\n        /* \"#utility.yul\":6522:6570   */\n      mstore\n        /* \"#utility.yul\":6587:6695   */\n      tag_202\n        /* \"#utility.yul\":6690:6694   */\n      dup2\n        /* \"#utility.yul\":6681:6687   */\n      dup5\n        /* \"#utility.yul\":6587:6695   */\n      tag_143\n      jump\t// in\n    tag_202:\n        /* \"#utility.yul\":6579:6695   */\n      swap1\n      pop\n        /* \"#utility.yul\":5867:6702   */\n      swap5\n      swap4\n      pop\n      pop\n      pop\n      pop\n      jump\t// out\n        /* \"#utility.yul\":6708:7125   */\n    tag_38:\n        /* \"#utility.yul\":6846:6850   */\n      0x00\n        /* \"#utility.yul\":6884:6886   */\n      0x40\n        /* \"#utility.yul\":6873:6882   */\n      dup3\n        /* \"#utility.yul\":6869:6887   */\n      add\n        /* \"#utility.yul\":6861:6887   */\n      swap1\n      pop\n        /* \"#utility.yul\":6933:6942   */\n      dup2\n        /* \"#utility.yul\":6927:6931   */\n      dup2\n        /* \"#utility.yul\":6923:6943   */\n      sub\n        /* \"#utility.yul\":6919:6920   */\n      0x00\n        /* \"#utility.yul\":6908:6917   */\n      dup4\n        /* \"#utility.yul\":6904:6921   */\n      add\n        /* \"#utility.yul\":6897:6944   */\n      mstore\n        /* \"#utility.yul\":6961:7036   */\n      tag_204\n        /* \"#utility.yul\":7031:7035   */\n      dup2\n        /* \"#utility.yul\":7022:7028   */\n      dup6\n        /* \"#utility.yul\":6961:7036   */\n      tag_171\n      jump\t// in\n    tag_204:\n        /* \"#utility.yul\":6953:7036   */\n      swap1\n      pop\n        /* \"#utility.yul\":7046:7118   */\n      tag_205\n        /* \"#utility.yul\":7114:7116   */\n      0x20\n        /* \"#utility.yul\":7103:7112   */\n      dup4\n        /* \"#utility.yul\":7099:7117   */\n      add\n        /* \"#utility.yul\":7090:7096   */\n      dup5\n        /* \"#utility.yul\":7046:7118   */\n      tag_140\n      jump\t// in\n    tag_205:\n        /* \"#utility.yul\":6708:7125   */\n      swap4\n      swap3\n      pop\n      pop\n      pop\n      jump\t// out\n        /* \"#utility.yul\":7131:7550   */\n    tag_33:\n        /* \"#utility.yul\":7297:7301   */\n      0x00\n        /* \"#utility.yul\":7335:7337   */\n      0x20\n        /* \"#utility.yul\":7324:7333   */\n      dup3\n        /* \"#utility.yul\":7320:7338   */\n      add\n        /* \"#utility.yul\":7312:7338   */\n      swap1\n      pop\n        /* \"#utility.yul\":7384:7393   */\n      dup2\n        /* \"#utility.yul\":7378:7382   */\n      dup2\n        /* \"#utility.yul\":7374:7394   */\n      sub\n        /* \"#utility.yul\":7370:7371   */\n      0x00\n        /* \"#utility.yul\":7359:7368   */\n      dup4\n        /* \"#utility.yul\":7355:7372   */\n      add\n        /* \"#utility.yul\":7348:7395   */\n      mstore\n        /* \"#utility.yul\":7412:7543   */\n      tag_207\n        /* \"#utility.yul\":7538:7542   */\n      dup2\n        /* \"#utility.yul\":7412:7543   */\n      tag_183\n      jump\t// in\n    tag_207:\n        /* \"#utility.yul\":7404:7543   */\n      swap1\n      pop\n        /* \"#utility.yul\":7131:7550   */\n      swap2\n      swap1\n      pop\n      jump\t// out\n        /* \"#utility.yul\":7556:7774   */\n    tag_72:\n        /* \"#utility.yul\":7647:7651   */\n      0x00\n        /* \"#utility.yul\":7685:7687   */\n      0x20\n        /* \"#utility.yul\":7674:7683   */\n      dup3\n        /* \"#utility.yul\":7670:7688   */\n      add\n        /* \"#utility.yul\":7662:7688   */\n      swap1\n      pop\n        /* \"#utility.yul\":7698:7767   */\n      tag_209\n        /* \"#utility.yul\":7764:7765   */\n      0x00\n        /* \"#utility.yul\":7753:7762   */\n      dup4\n        /* \"#utility.yul\":7749:7766   */\n      add\n        /* \"#utility.yul\":7740:7746   */\n      dup5\n        /* \"#utility.yul\":7698:7767   */\n      tag_188\n      jump\t// in\n    tag_209:\n        /* \"#utility.yul\":7556:7774   */\n      swap3\n      swap2\n      pop\n      pop\n      jump\t// out\n        /* \"#utility.yul\":7861:7993   */\n    tag_150:\n        /* \"#utility.yul\":7928:7932   */\n      0x00\n        /* \"#utility.yul\":7951:7954   */\n      dup2\n        /* \"#utility.yul\":7943:7954   */\n      swap1\n      pop\n        /* \"#utility.yul\":7981:7985   */\n      0x20\n        /* \"#utility.yul\":7976:7979   */\n      dup3\n        /* \"#utility.yul\":7972:7986   */\n      add\n        /* \"#utility.yul\":7964:7986   */\n      swap1\n      pop\n        /* \"#utility.yul\":7861:7993   */\n      swap2\n      swap1\n      pop\n      jump\t// out\n        /* \"#utility.yul\":7999:8140   */\n    tag_179:\n        /* \"#utility.yul\":8048:8052   */\n      0x00\n        /* \"#utility.yul\":8071:8074   */\n      dup2\n        /* \"#utility.yul\":8063:8074   */\n      swap1\n      pop\n        /* \"#utility.yul\":8094:8097   */\n      dup2\n        /* \"#utility.yul\":8091:8092   */\n      0x00\n        /* \"#utility.yul\":8084:8098   */\n      mstore\n        /* \"#utility.yul\":8128:8132   */\n      0x20\n        /* \"#utility.yul\":8125:8126   */\n      0x00\n        /* \"#utility.yul\":8115:8133   */\n      keccak256\n        /* \"#utility.yul\":8107:8133   */\n      swap1\n      pop\n        /* \"#utility.yul\":7999:8140   */\n      swap2\n      swap1\n      pop\n      jump\t// out\n        /* \"#utility.yul\":8146:8260   */\n    tag_146:\n        /* \"#utility.yul\":8213:8219   */\n      0x00\n        /* \"#utility.yul\":8247:8252   */\n      dup2\n        /* \"#utility.yul\":8241:8253   */\n      mload\n        /* \"#utility.yul\":8231:8253   */\n      swap1\n      pop\n        /* \"#utility.yul\":8146:8260   */\n      swap2\n      swap1\n      pop\n      jump\t// out\n        /* \"#utility.yul\":8266:8365   */\n    tag_164:\n        /* \"#utility.yul\":8318:8324   */\n      0x00\n        /* \"#utility.yul\":8352:8357   */\n      dup2\n        /* \"#utility.yul\":8346:8358   */\n      mload\n        /* \"#utility.yul\":8336:8358   */\n      swap1\n      pop\n        /* \"#utility.yul\":8266:8365   */\n      swap2\n      swap1\n      pop\n      jump\t// out\n        /* \"#utility.yul\":8371:8484   */\n    tag_156:\n        /* \"#utility.yul\":8441:8445   */\n      0x00\n        /* \"#utility.yul\":8473:8477   */\n      0x20\n        /* \"#utility.yul\":8468:8471   */\n      dup3\n        /* \"#utility.yul\":8464:8478   */\n      add\n        /* \"#utility.yul\":8456:8478   */\n      swap1\n      pop\n        /* \"#utility.yul\":8371:8484   */\n      swap2\n      swap1\n      pop\n      jump\t// out\n        /* \"#utility.yul\":8490:8674   */\n    tag_148:\n        /* \"#utility.yul\":8589:8600   */\n      0x00\n        /* \"#utility.yul\":8623:8629   */\n      dup3\n        /* \"#utility.yul\":8618:8621   */\n      dup3\n        /* \"#utility.yul\":8611:8630   */\n      mstore\n        /* \"#utility.yul\":8663:8667   */\n      0x20\n        /* \"#utility.yul\":8658:8661   */\n      dup3\n        /* \"#utility.yul\":8654:8668   */\n      add\n        /* \"#utility.yul\":8639:8668   */\n      swap1\n      pop\n        /* \"#utility.yul\":8490:8674   */\n      swap3\n      swap2\n      pop\n      pop\n      jump\t// out\n        /* \"#utility.yul\":8680:8849   */\n    tag_166:\n        /* \"#utility.yul\":8764:8775   */\n      0x00\n        /* \"#utility.yul\":8798:8804   */\n      dup3\n        /* \"#utility.yul\":8793:8796   */\n      dup3\n        /* \"#utility.yul\":8786:8805   */\n      mstore\n        /* \"#utility.yul\":8838:8842   */\n      0x20\n        /* \"#utility.yul\":8833:8836   */\n      dup3\n        /* \"#utility.yul\":8829:8843   */\n      add\n        /* \"#utility.yul\":8814:8843   */\n      swap1\n      pop\n        /* \"#utility.yul\":8680:8849   */\n      swap3\n      swap2\n      pop\n      pop\n      jump\t// out\n        /* \"#utility.yul\":8855:8951   */\n    tag_139:\n        /* \"#utility.yul\":8892:8899   */\n      0x00\n        /* \"#utility.yul\":8921:8945   */\n      tag_220\n        /* \"#utility.yul\":8939:8944   */\n      dup3\n        /* \"#utility.yul\":8921:8945   */\n      tag_221\n      jump\t// in\n    tag_220:\n        /* \"#utility.yul\":8910:8945   */\n      swap1\n      pop\n        /* \"#utility.yul\":8855:8951   */\n      swap2\n      swap1\n      pop\n      jump\t// out\n        /* \"#utility.yul\":8957:9047   */\n    tag_160:\n        /* \"#utility.yul\":8991:8998   */\n      0x00\n        /* \"#utility.yul\":9034:9039   */\n      dup2\n        /* \"#utility.yul\":9027:9040   */\n      iszero\n        /* \"#utility.yul\":9020:9041   */\n      iszero\n        /* \"#utility.yul\":9009:9041   */\n      swap1\n      pop\n        /* \"#utility.yul\":8957:9047   */\n      swap2\n      swap1\n      pop\n      jump\t// out\n        /* \"#utility.yul\":9053:9179   */\n    tag_221:\n        /* \"#utility.yul\":9090:9097   */\n      0x00\n        /* \"#utility.yul\":9130:9172   */\n      0xffffffffffffffffffffffffffffffffffffffff\n        /* \"#utility.yul\":9123:9128   */\n      dup3\n        /* \"#utility.yul\":9119:9173   */\n      and\n        /* \"#utility.yul\":9108:9173   */\n      swap1\n      pop\n        /* \"#utility.yul\":9053:9179   */\n      swap2\n      swap1\n      pop\n      jump\t// out\n        /* \"#utility.yul\":9185:9262   */\n    tag_224:\n        /* \"#utility.yul\":9222:9229   */\n      0x00\n        /* \"#utility.yul\":9251:9256   */\n      dup2\n        /* \"#utility.yul\":9240:9256   */\n      swap1\n      pop\n        /* \"#utility.yul\":9185:9262   */\n      swap2\n      swap1\n      pop\n      jump\t// out\n        /* \"#utility.yul\":9268:9354   */\n    tag_226:\n        /* \"#utility.yul\":9303:9310   */\n      0x00\n        /* \"#utility.yul\":9343:9347   */\n      0xff\n        /* \"#utility.yul\":9336:9341   */\n      dup3\n        /* \"#utility.yul\":9332:9348   */\n      and\n        /* \"#utility.yul\":9321:9348   */\n      swap1\n      pop\n        /* \"#utility.yul\":9268:9354   */\n      swap2\n      swap1\n      pop\n      jump\t// out\n        /* \"#utility.yul\":9360:9469   */\n    tag_191:\n        /* \"#utility.yul\":9408:9417   */\n      0x00\n        /* \"#utility.yul\":9441:9463   */\n      tag_229\n        /* \"#utility.yul\":9457:9462   */\n      dup3\n        /* \"#utility.yul\":9441:9463   */\n      tag_226\n      jump\t// in\n    tag_229:\n        /* \"#utility.yul\":9428:9463   */\n      swap1\n      pop\n        /* \"#utility.yul\":9360:9469   */\n      swap2\n      swap1\n      pop\n      jump\t// out\n        /* \"#utility.yul\":9475:9782   */\n    tag_168:\n        /* \"#utility.yul\":9543:9544   */\n      0x00\n        /* \"#utility.yul\":9553:9666   */\n    tag_231:\n        /* \"#utility.yul\":9567:9573   */\n      dup4\n        /* \"#utility.yul\":9564:9565   */\n      dup2\n        /* \"#utility.yul\":9561:9574   */\n      lt\n        /* \"#utility.yul\":9553:9666   */\n      iszero\n      tag_233\n      jumpi\n        /* \"#utility.yul\":9652:9653   */\n      dup1\n        /* \"#utility.yul\":9647:9650   */\n      dup3\n        /* \"#utility.yul\":9643:9654   */\n      add\n        /* \"#utility.yul\":9637:9655   */\n      mload\n        /* \"#utility.yul\":9633:9634   */\n      dup2\n        /* \"#utility.yul\":9628:9631   */\n      dup5\n        /* \"#utility.yul\":9624:9635   */\n      add\n        /* \"#utility.yul\":9617:9656   */\n      mstore\n        /* \"#utility.yul\":9589:9591   */\n      0x20\n        /* \"#utility.yul\":9586:9587   */\n      dup2\n        /* \"#utility.yul\":9582:9592   */\n      add\n        /* \"#utility.yul\":9577:9592   */\n      swap1\n      pop\n        /* \"#utility.yul\":9553:9666   */\n      jump(tag_231)\n    tag_233:\n        /* \"#utility.yul\":9684:9690   */\n      dup4\n        /* \"#utility.yul\":9681:9682   */\n      dup2\n        /* \"#utility.yul\":9678:9691   */\n      gt\n        /* \"#utility.yul\":9675:9776   */\n      iszero\n      tag_234\n      jumpi\n        /* \"#utility.yul\":9764:9765   */\n      0x00\n        /* \"#utility.yul\":9755:9761   */\n      dup5\n        /* \"#utility.yul\":9750:9753   */\n      dup5\n        /* \"#utility.yul\":9746:9762   */\n      add\n        /* \"#utility.yul\":9739:9766   */\n      mstore\n        /* \"#utility.yul\":9675:9776   */\n    tag_234:\n        /* \"#utility.yul\":9524:9782   */\n      pop\n        /* \"#utility.yul\":9475:9782   */\n      pop\n      pop\n      pop\n      jump\t// out\n        /* \"#utility.yul\":9788:10108   */\n    tag_84:\n        /* \"#utility.yul\":9832:9838   */\n      0x00\n        /* \"#utility.yul\":9869:9870   */\n      0x02\n        /* \"#utility.yul\":9863:9867   */\n      dup3\n        /* \"#utility.yul\":9859:9871   */\n      div\n        /* \"#utility.yul\":9849:9871   */\n      swap1\n      pop\n        /* \"#utility.yul\":9916:9917   */\n      0x01\n        /* \"#utility.yul\":9910:9914   */\n      dup3\n        /* \"#utility.yul\":9906:9918   */\n      and\n        /* \"#utility.yul\":9937:9955   */\n      dup1\n        /* \"#utility.yul\":9927:10008   */\n      tag_236\n      jumpi\n        /* \"#utility.yul\":9993:9997   */\n      0x7f\n        /* \"#utility.yul\":9985:9991   */\n      dup3\n        /* \"#utility.yul\":9981:9998   */\n      and\n        /* \"#utility.yul\":9971:9998   */\n      swap2\n      pop\n        /* \"#utility.yul\":9927:10008   */\n    tag_236:\n        /* \"#utility.yul\":10055:10057   */\n      0x20\n        /* \"#utility.yul\":10047:10053   */\n      dup3\n        /* \"#utility.yul\":10044:10058   */\n      lt\n        /* \"#utility.yul\":10024:10042   */\n      dup2\n        /* \"#utility.yul\":10021:10059   */\n      eq\n        /* \"#utility.yul\":10018:10102   */\n      iszero\n      tag_237\n      jumpi\n        /* \"#utility.yul\":10074:10092   */\n      tag_238\n      tag_239\n      jump\t// in\n    tag_238:\n        /* \"#utility.yul\":10018:10102   */\n    tag_237:\n        /* \"#utility.yul\":9839:10108   */\n      pop\n        /* \"#utility.yul\":9788:10108   */\n      swap2\n      swap1\n      pop\n      jump\t// out\n        /* \"#utility.yul\":10114:10347   */\n    tag_51:\n        /* \"#utility.yul\":10153:10156   */\n      0x00\n        /* \"#utility.yul\":10176:10200   */\n      tag_241\n        /* \"#utility.yul\":10194:10199   */\n      dup3\n        /* \"#utility.yul\":10176:10200   */\n      tag_224\n      jump\t// in\n    tag_241:\n        /* \"#utility.yul\":10167:10200   */\n      swap2\n      pop\n        /* \"#utility.yul\":10222:10288   */\n      0xffffffffffffffffffffffffffffffffffffffffffffffffffffffffffffffff\n        /* \"#utility.yul\":10215:10220   */\n      dup3\n        /* \"#utility.yul\":10212:10289   */\n      eq\n        /* \"#utility.yul\":10209:10312   */\n      iszero\n      tag_242\n      jumpi\n        /* \"#utility.yul\":10292:10310   */\n      tag_243\n      tag_244\n      jump\t// in\n    tag_243:\n        /* \"#utility.yul\":10209:10312   */\n    tag_242:\n        /* \"#utility.yul\":10339:10340   */\n      0x01\n        /* \"#utility.yul\":10332:10337   */\n      dup3\n        /* \"#utility.yul\":10328:10341   */\n      add\n        /* \"#utility.yul\":10321:10341   */\n      swap1\n      pop\n        /* \"#utility.yul\":10114:10347   */\n      swap2\n      swap1\n      pop\n      jump\t// out\n        /* \"#utility.yul\":10353:10520   */\n    tag_82:\n        /* \"#utility.yul\":10390:10393   */\n      0x00\n        /* \"#utility.yul\":10413:10435   */\n      tag_246\n        /* \"#utility.yul\":10429:10434   */\n      dup3\n        /* \"#utility.yul\":10413:10435   */\n      tag_226\n      jump\t// in\n    tag_246:\n        /* \"#utility.yul\":10404:10435   */\n      swap2\n      pop\n        /* \"#utility.yul\":10457:10461   */\n      0xff\n        /* \"#utility.yul\":10450:10455   */\n      dup3\n        /* \"#utility.yul\":10447:10462   */\n      eq\n        /* \"#utility.yul\":10444:10485   */\n      iszero\n      tag_247\n      jumpi\n        /* \"#utility.yul\":10465:10483   */\n      tag_248\n      tag_244\n      jump\t// in\n    tag_248:\n        /* \"#utility.yul\":10444:10485   */\n    tag_247:\n        /* \"#utility.yul\":10512:10513   */\n      0x01\n        /* \"#utility.yul\":10505:10510   */\n      dup3\n        /* \"#utility.yul\":10501:10514   */\n      add\n        /* \"#utility.yul\":10494:10514   */\n      swap1\n      pop\n        /* \"#utility.yul\":10353:10520   */\n      swap2\n      swap1\n      pop\n      jump\t// out\n        /* \"#utility.yul\":10526:10706   */\n    tag_244:\n        /* \"#utility.yul\":10574:10651   */\n      0x4e487b7100000000000000000000000000000000000000000000000000000000\n        /* \"#utility.yul\":10571:10572   */\n      0x00\n        /* \"#utility.yul\":10564:10652   */\n      mstore\n        /* \"#utility.yul\":10671:10675   */\n      0x11\n        /* \"#utility.yul\":10668:10669   */\n      0x04\n        /* \"#utility.yul\":10661:10676   */\n      mstore\n        /* \"#utility.yul\":10695:10699   */\n      0x24\n        /* \"#utility.yul\":10692:10693   */\n      0x00\n        /* \"#utility.yul\":10685:10700   */\n      revert\n        /* \"#utility.yul\":10712:10892   */\n    tag_239:\n        /* \"#utility.yul\":10760:10837   */\n      0x4e487b7100000000000000000000000000000000000000000000000000000000\n        /* \"#utility.yul\":10757:10758   */\n      0x00\n        /* \"#utility.yul\":10750:10838   */\n      mstore\n        /* \"#utility.yul\":10857:10861   */\n      0x22\n        /* \"#utility.yul\":10854:10855   */\n      0x04\n        /* \"#utility.yul\":10847:10862   */\n      mstore\n        /* \"#utility.yul\":10881:10885   */\n      0x24\n        /* \"#utility.yul\":10878:10879   */\n      0x00\n        /* \"#utility.yul\":10871:10886   */\n      revert\n        /* \"#utility.yul\":10898:11078   */\n    tag_80:\n        /* \"#utility.yul\":10946:11023   */\n      0x4e487b7100000000000000000000000000000000000000000000000000000000\n        /* \"#utility.yul\":10943:10944   */\n      0x00\n        /* \"#utility.yul\":10936:11024   */\n      mstore\n        /* \"#utility.yul\":11043:11047   */\n      0x32\n        /* \"#utility.yul\":11040:11041   */\n      0x04\n        /* \"#utility.yul\":11033:11048   */\n      mstore\n        /* \"#utility.yul\":11067:11071   */\n      0x24\n        /* \"#utility.yul\":11064:11065   */\n      0x00\n        /* \"#utility.yul\":11057:11072   */\n      revert\n        /* \"#utility.yul\":11084:11264   */\n    tag_66:\n        /* \"#utility.yul\":11132:11209   */\n      0x4e487b7100000000000000000000000000000000000000000000000000000000\n        /* \"#utility.yul\":11129:11130   */\n      0x00\n        /* \"#utility.yul\":11122:11210   */\n      mstore\n        /* \"#utility.yul\":11229:11233   */\n      0x41\n        /* \"#utility.yul\":11226:11227   */\n      0x04\n        /* \"#utility.yul\":11219:11234   */\n      mstore\n        /* \"#utility.yul\":11253:11257   */\n      0x24\n        /* \"#utility.yul\":11250:11251   */\n      0x00\n        /* \"#utility.yul\":11243:11258   */\n      revert\n        /* \"#utility.yul\":11393:11510   */\n    tag_119:\n        /* \"#utility.yul\":11502:11503   */\n      0x00\n        /* \"#utility.yul\":11499:11500   */\n      dup1\n        /* \"#utility.yul\":11492:11504   */\n      revert\n        /* \"#utility.yul\":11516:11618   */\n    tag_170:\n        /* \"#utility.yul\":11557:11563   */\n      0x00\n        /* \"#utility.yul\":11608:11610   */\n      0x1f\n        /* \"#utility.yul\":11604:11611   */\n      not\n        /* \"#utility.yul\":11599:11601   */\n      0x1f\n        /* \"#utility.yul\":11592:11597   */\n      dup4\n        /* \"#utility.yul\":11588:11602   */\n      add\n        /* \"#utility.yul\":11584:11612   */\n      and\n        /* \"#utility.yul\":11574:11612   */\n      swap1\n      pop\n        /* \"#utility.yul\":11516:11618   */\n      swap2\n      swap1\n      pop\n      jump\t// out\n        /* \"#utility.yul\":11624:11794   */\n    tag_187:\n        /* \"#utility.yul\":11764:11786   */\n      0x5f7369676e6572206973206e6f742076616c6964000000000000000000000000\n        /* \"#utility.yul\":11760:11761   */\n      0x00\n        /* \"#utility.yul\":11752:11758   */\n      dup3\n        /* \"#utility.yul\":11748:11762   */\n      add\n        /* \"#utility.yul\":11741:11787   */\n      mstore\n        /* \"#utility.yul\":11624:11794   */\n      pop\n      jump\t// out\n        /* \"#utility.yul\":11800:11922   */\n    tag_104:\n        /* \"#utility.yul\":11873:11897   */\n      tag_259\n        /* \"#utility.yul\":11891:11896   */\n      dup2\n        /* \"#utility.yul\":11873:11897   */\n      tag_139\n      jump\t// in\n    tag_259:\n        /* \"#utility.yul\":11866:11871   */\n      dup2\n        /* \"#utility.yul\":11863:11898   */\n      eq\n        /* \"#utility.yul\":11853:11916   */\n      tag_260\n      jumpi\n        /* \"#utility.yul\":11912:11913   */\n      0x00\n        /* \"#utility.yul\":11909:11910   */\n      dup1\n        /* \"#utility.yul\":11902:11914   */\n      revert\n        /* \"#utility.yul\":11853:11916   */\n    tag_260:\n        /* \"#utility.yul\":11800:11922   */\n      pop\n      jump\t// out\n        /* \"#utility.yul\":11928:12044   */\n    tag_111:\n        /* \"#utility.yul\":11998:12019   */\n      tag_262\n        /* \"#utility.yul\":12013:12018   */\n      dup2\n        /* \"#utility.yul\":11998:12019   */\n      tag_160\n      jump\t// in\n    tag_262:\n        /* \"#utility.yul\":11991:11996   */\n      dup2\n        /* \"#utility.yul\":11988:12020   */\n      eq\n        /* \"#utility.yul\":11978:12038   */\n      tag_263\n      jumpi\n        /* \"#utility.yul\":12034:12035   */\n      0x00\n        /* \"#utility.yul\":12031:12032   */\n      dup1\n        /* \"#utility.yul\":12024:12036   */\n      revert\n        /* \"#utility.yul\":11978:12038   */\n    tag_263:\n        /* \"#utility.yul\":11928:12044   */\n      pop\n      jump\t// out\n        /* \"#utility.yul\":12050:12172   */\n    tag_115:\n        /* \"#utility.yul\":12123:12147   */\n      tag_265\n        /* \"#utility.yul\":12141:12146   */\n      dup2\n        /* \"#utility.yul\":12123:12147   */\n      tag_224\n      jump\t// in\n    tag_265:\n        /* \"#utility.yul\":12116:12121   */\n      dup2\n        /* \"#utility.yul\":12113:12148   */\n      eq\n        /* \"#utility.yul\":12103:12166   */\n      tag_266\n      jumpi\n        /* \"#utility.yul\":12162:12163   */\n      0x00\n        /* \"#utility.yul\":12159:12160   */\n      dup1\n        /* \"#utility.yul\":12152:12164   */\n      revert\n        /* \"#utility.yul\":12103:12166   */\n    tag_266:\n        /* \"#utility.yul\":12050:12172   */\n      pop\n      jump\t// out\n\n    auxdata: 0xa2646970667358221220cde675e1e2583ed75240e2f053b8e3f178b9beaeb1075b8c9fd6bfd1f67e1a4a64736f6c63430008070033\n}\n",
				"bytecode": {
					"linkReferences": {},
					"object": "60806040523480156200001157600080fd5b5060405162001618380380620016188339818101604052810190620000379190620003d2565b80600260006101000a81548173ffffffffffffffffffffffffffffffffffffffff021916908373ffffffffffffffffffffffffffffffffffffffff16021790555062000089326200018a60201b60201c565b620000cb576040517f08c379a0000000000000000000000000000000000000000000000000000000008152600401620000c29062000502565b60405180910390fd5b8160009080519060200190620000e392919062000244565b506001329080600181540180825580915050600190039060005260206000200160009091909190916101000a81548173ffffffffffffffffffffffffffffffffffffffff021916908373ffffffffffffffffffffffffffffffffffffffff1602179055507fa34d8f872132d193d2e62e18648026516cd6a9d599cb2f07eda0fd5ab16f162782326040516200017a929190620004ce565b60405180910390a1505062000761565b6000600260009054906101000a900473ffffffffffffffffffffffffffffffffffffffff1673ffffffffffffffffffffffffffffffffffffffff166363a9c3d7836040518263ffffffff1660e01b8152600401620001e99190620004b1565b60206040518083038186803b1580156200020257600080fd5b505afa15801562000217573d6000803e3d6000fd5b505050506040513d601f19601f820116820180604052508101906200023d9190620003a0565b9050919050565b828054620002529062000615565b90600052602060002090601f016020900481019282620002765760008555620002c2565b82601f106200029157805160ff1916838001178555620002c2565b82800160010185558215620002c2579182015b82811115620002c1578251825591602001919060010190620002a4565b5b509050620002d19190620002d5565b5090565b5b80821115620002f0576000816000905550600101620002d6565b5090565b60006200030b62000305846200054d565b62000524565b9050828152602081018484840111156200032a5762000329620006e4565b5b62000337848285620005df565b509392505050565b60008151905062000350816200072d565b92915050565b600081519050620003678162000747565b92915050565b600082601f830112620003855762000384620006df565b5b815162000397848260208601620002f4565b91505092915050565b600060208284031215620003b957620003b8620006ee565b5b6000620003c98482850162000356565b91505092915050565b60008060408385031215620003ec57620003eb620006ee565b5b600083015167ffffffffffffffff8111156200040d576200040c620006e9565b5b6200041b858286016200036d565b92505060206200042e858286016200033f565b9150509250929050565b62000443816200059f565b82525050565b6000620004568262000583565b6200046281856200058e565b935062000474818560208601620005df565b6200047f81620006f3565b840191505092915050565b6000620004996014836200058e565b9150620004a68262000704565b602082019050919050565b6000602082019050620004c8600083018462000438565b92915050565b60006040820190508181036000830152620004ea818562000449565b9050620004fb602083018462000438565b9392505050565b600060208201905081810360008301526200051d816200048a565b9050919050565b60006200053062000543565b90506200053e82826200064b565b919050565b6000604051905090565b600067ffffffffffffffff8211156200056b576200056a620006b0565b5b6200057682620006f3565b9050602081019050919050565b600081519050919050565b600082825260208201905092915050565b6000620005ac82620005bf565b9050919050565b60008115159050919050565b600073ffffffffffffffffffffffffffffffffffffffff82169050919050565b60005b83811015620005ff578082015181840152602081019050620005e2565b838111156200060f576000848401525b50505050565b600060028204905060018216806200062e57607f821691505b6020821081141562000645576200064462000681565b5b50919050565b6200065682620006f3565b810181811067ffffffffffffffff82111715620006785762000677620006b0565b5b80604052505050565b7f4e487b7100000000000000000000000000000000000000000000000000000000600052602260045260246000fd5b7f4e487b7100000000000000000000000000000000000000000000000000000000600052604160045260246000fd5b600080fd5b600080fd5b600080fd5b600080fd5b6000601f19601f8301169050919050565b7f5f7369676e6572206973206e6f742076616c6964000000000000000000000000600082015250565b62000738816200059f565b81146200074457600080fd5b50565b6200075281620005b3565b81146200075e57600080fd5b50565b610ea780620007716000396000f3fe608060405234801561001057600080fd5b50600436106100575760003560e01c80632ca151221461005c5780633c68af3e1461007a57806350ca092814610099578063596f21f8146100c9578063963671be146100e9575b600080fd5b610064610107565b6040516100719190610a86565b60405180910390f35b610082610247565b604051610090929190610aa1565b60405180910390f35b6100b360048036038101906100ae9190610829565b610313565b6040516100c09190610a86565b60405180910390f35b6100d16103c7565b6040516100e093929190610ad1565b60405180910390f35b6100f1610700565b6040516100fe9190610a6b565b60405180910390f35b600061011232610313565b610151576040517f08c379a000000000000000000000000000000000000000000000000000000000815260040161014890610b4d565b60405180910390fd5b61015a32610726565b156101a2577f57bb3fead2451e6a3a5680e94e3dba9642a2ea6e850811bf18feccc94c5968a9600032604051610191929190610b1d565b60405180910390a160019050610244565b6001329080600181540180825580915050600190039060005260206000200160009091909190916101000a81548173ffffffffffffffffffffffffffffffffffffffff021916908373ffffffffffffffffffffffffffffffffffffffff1602179055507fb05e84f77f10ca9cd0a42f11422685a81fb7997e8c2500733527f8c2ee56ab29600032604051610237929190610b1d565b60405180910390a1600190505b90565b600060606000600260009054906101000a900473ffffffffffffffffffffffffffffffffffffffff1673ffffffffffffffffffffffffffffffffffffffff1663fa69efbd6040518163ffffffff1660e01b815260040160206040518083038186803b1580156102b557600080fd5b505afa1580156102c9573d6000803e3d6000fd5b505050506040513d601f19601f820116820180604052508101906102ed91906108b0565b905060005b8181101561030d57808061030590610cbe565b9150506102f2565b50509091565b6000600260009054906101000a900473ffffffffffffffffffffffffffffffffffffffff1673ffffffffffffffffffffffffffffffffffffffff166363a9c3d7836040518263ffffffff1660e01b81526004016103709190610a6b565b60206040518083038186803b15801561038857600080fd5b505afa15801561039c573d6000803e3d6000fd5b505050506040513d601f19601f820116820180604052508101906103c09190610883565b9050919050565b60608060606000600260009054906101000a900473ffffffffffffffffffffffffffffffffffffffff1673ffffffffffffffffffffffffffffffffffffffff1663fa69efbd6040518163ffffffff1660e01b815260040160206040518083038186803b15801561043657600080fd5b505afa15801561044a573d6000803e3d6000fd5b505050506040513d601f19601f8201168201806040525081019061046e91906108b0565b905060008167ffffffffffffffff81111561048c5761048b610dbe565b5b6040519080825280602002602001820160405280156104ba5781602001602082028036833780820191505090505b50905060005b828160ff1610156105d957600260009054906101000a900473ffffffffffffffffffffffffffffffffffffffff1673ffffffffffffffffffffffffffffffffffffffff16633ffefe4e826040518263ffffffff1660e01b81526004016105269190610b6d565b60206040518083038186803b15801561053e57600080fd5b505afa158015610552573d6000803e3d6000fd5b505050506040513d601f19601f820116820180604052508101906105769190610856565b828260ff168151811061058c5761058b610d8f565b5b602002602001019073ffffffffffffffffffffffffffffffffffffffff16908173ffffffffffffffffffffffffffffffffffffffff168152505080806105d190610d07565b9150506104c0565b5060008160018280546105eb90610c8c565b80601f016020809104026020016040519081016040528092919081815260200182805461061790610c8c565b80156106645780601f1061063957610100808354040283529160200191610664565b820191906000526020600020905b81548152906001019060200180831161064757829003601f168201915b50505050509250808054806020026020016040519081016040528092919081815260200182805480156106ec57602002820191906000526020600020905b8160009054906101000a900473ffffffffffffffffffffffffffffffffffffffff1673ffffffffffffffffffffffffffffffffffffffff16815260200190600101908083116106a2575b505050505090509450945094505050909192565b600260009054906101000a900473ffffffffffffffffffffffffffffffffffffffff1681565b600080600090505b6001805490508110156107ca578273ffffffffffffffffffffffffffffffffffffffff166001828154811061076657610765610d8f565b5b9060005260206000200160009054906101000a900473ffffffffffffffffffffffffffffffffffffffff1673ffffffffffffffffffffffffffffffffffffffff1614156107b75760019150506107d0565b80806107c290610cbe565b91505061072e565b50600090505b919050565b6000813590506107e481610e2c565b92915050565b6000815190506107f981610e2c565b92915050565b60008151905061080e81610e43565b92915050565b60008151905061082381610e5a565b92915050565b60006020828403121561083f5761083e610ded565b5b600061084d848285016107d5565b91505092915050565b60006020828403121561086c5761086b610ded565b5b600061087a848285016107ea565b91505092915050565b60006020828403121561089957610898610ded565b5b60006108a7848285016107ff565b91505092915050565b6000602082840312156108c6576108c5610ded565b5b60006108d484828501610814565b91505092915050565b60006108e983836108f5565b60208301905092915050565b6108fe81610bf2565b82525050565b61090d81610bf2565b82525050565b600061091e82610bad565b6109288185610bd0565b935061093383610b88565b8060005b8381101561096457815161094b88826108dd565b975061095683610bc3565b925050600181019050610937565b5085935050505092915050565b61097a81610c04565b82525050565b600061098b82610bb8565b6109958185610be1565b93506109a5818560208601610c59565b6109ae81610df2565b840191505092915050565b600081546109c681610c8c565b6109d08186610be1565b945060018216600081146109eb57600181146109fd57610a30565b60ff1983168652602086019350610a30565b610a0685610b98565b60005b83811015610a2857815481890152600182019150602081019050610a09565b808801955050505b50505092915050565b6000610a46601483610be1565b9150610a5182610e03565b602082019050919050565b610a6581610c47565b82525050565b6000602082019050610a806000830184610904565b92915050565b6000602082019050610a9b6000830184610971565b92915050565b6000604082019050610ab66000830185610971565b8181036020830152610ac88184610980565b90509392505050565b60006060820190508181036000830152610aeb8186610980565b90508181036020830152610aff8185610913565b90508181036040830152610b138184610913565b9050949350505050565b60006040820190508181036000830152610b3781856109b9565b9050610b466020830184610904565b9392505050565b60006020820190508181036000830152610b6681610a39565b9050919050565b6000602082019050610b826000830184610a5c565b92915050565b6000819050602082019050919050565b60008190508160005260206000209050919050565b600081519050919050565b600081519050919050565b6000602082019050919050565b600082825260208201905092915050565b600082825260208201905092915050565b6000610bfd82610c10565b9050919050565b60008115159050919050565b600073ffffffffffffffffffffffffffffffffffffffff82169050919050565b6000819050919050565b600060ff82169050919050565b6000610c5282610c3a565b9050919050565b60005b83811015610c77578082015181840152602081019050610c5c565b83811115610c86576000848401525b50505050565b60006002820490506001821680610ca457607f821691505b60208210811415610cb857610cb7610d60565b5b50919050565b6000610cc982610c30565b91507fffffffffffffffffffffffffffffffffffffffffffffffffffffffffffffffff821415610cfc57610cfb610d31565b5b600182019050919050565b6000610d1282610c3a565b915060ff821415610d2657610d25610d31565b5b600182019050919050565b7f4e487b7100000000000000000000000000000000000000000000000000000000600052601160045260246000fd5b7f4e487b7100000000000000000000000000000000000000000000000000000000600052602260045260246000fd5b7f4e487b7100000000000000000000000000000000000000000000000000000000600052603260045260246000fd5b7f4e487b7100000000000000000000000000000000000000000000000000000000600052604160045260246000fd5b600080fd5b6000601f19601f8301169050919050565b7f5f7369676e6572206973206e6f742076616c6964000000000000000000000000600082015250565b610e3581610bf2565b8114610e4057600080fd5b50565b610e4c81610c04565b8114610e5757600080fd5b50565b610e6381610c30565b8114610e6e57600080fd5b5056fea2646970667358221220cde675e1e2583ed75240e2f053b8e3f178b9beaeb1075b8c9fd6bfd1f67e1a4a64736f6c63430008070033",
					"opcodes": "PUSH1 0x80 PUSH1 0x40 MSTORE CALLVALUE DUP1 ISZERO PUSH3 0x11 JUMPI PUSH1 0x0 DUP1 REVERT JUMPDEST POP PUSH1 0x40 MLOAD PUSH3 0x1618 CODESIZE SUB DUP1 PUSH3 0x1618 DUP4 CODECOPY DUP2 DUP2 ADD PUSH1 0x40 MSTORE DUP2 ADD SWAP1 PUSH3 0x37 SWAP2 SWAP1 PUSH3 0x3D2 JUMP JUMPDEST DUP1 PUSH1 0x2 PUSH1 0x0 PUSH2 0x100 EXP DUP2 SLOAD DUP2 PUSH20 0xFFFFFFFFFFFFFFFFFFFFFFFFFFFFFFFFFFFFFFFF MUL NOT AND SWAP1 DUP4 PUSH20 0xFFFFFFFFFFFFFFFFFFFFFFFFFFFFFFFFFFFFFFFF AND MUL OR SWAP1 SSTORE POP PUSH3 0x89 ORIGIN PUSH3 0x18A PUSH1 0x20 SHL PUSH1 0x20 SHR JUMP JUMPDEST PUSH3 0xCB JUMPI PUSH1 0x40 MLOAD PUSH32 0x8C379A000000000000000000000000000000000000000000000000000000000 DUP2 MSTORE PUSH1 0x4 ADD PUSH3 0xC2 SWAP1 PUSH3 0x502 JUMP JUMPDEST PUSH1 0x40 MLOAD DUP1 SWAP2 SUB SWAP1 REVERT JUMPDEST DUP2 PUSH1 0x0 SWAP1 DUP1 MLOAD SWAP1 PUSH1 0x20 ADD SWAP1 PUSH3 0xE3 SWAP3 SWAP2 SWAP1 PUSH3 0x244 JUMP JUMPDEST POP PUSH1 0x1 ORIGIN SWAP1 DUP1 PUSH1 0x1 DUP2 SLOAD ADD DUP1 DUP3 SSTORE DUP1 SWAP2 POP POP PUSH1 0x1 SWAP1 SUB SWAP1 PUSH1 0x0 MSTORE PUSH1 0x20 PUSH1 0x0 KECCAK256 ADD PUSH1 0x0 SWAP1 SWAP2 SWAP1 SWAP2 SWAP1 SWAP2 PUSH2 0x100 EXP DUP2 SLOAD DUP2 PUSH20 0xFFFFFFFFFFFFFFFFFFFFFFFFFFFFFFFFFFFFFFFF MUL NOT AND SWAP1 DUP4 PUSH20 0xFFFFFFFFFFFFFFFFFFFFFFFFFFFFFFFFFFFFFFFF AND MUL OR SWAP1 SSTORE POP PUSH32 0xA34D8F872132D193D2E62E18648026516CD6A9D599CB2F07EDA0FD5AB16F1627 DUP3 ORIGIN PUSH1 0x40 MLOAD PUSH3 0x17A SWAP3 SWAP2 SWAP1 PUSH3 0x4CE JUMP JUMPDEST PUSH1 0x40 MLOAD DUP1 SWAP2 SUB SWAP1 LOG1 POP POP PUSH3 0x761 JUMP JUMPDEST PUSH1 0x0 PUSH1 0x2 PUSH1 0x0 SWAP1 SLOAD SWAP1 PUSH2 0x100 EXP SWAP1 DIV PUSH20 0xFFFFFFFFFFFFFFFFFFFFFFFFFFFFFFFFFFFFFFFF AND PUSH20 0xFFFFFFFFFFFFFFFFFFFFFFFFFFFFFFFFFFFFFFFF AND PUSH4 0x63A9C3D7 DUP4 PUSH1 0x40 MLOAD DUP3 PUSH4 0xFFFFFFFF AND PUSH1 0xE0 SHL DUP2 MSTORE PUSH1 0x4 ADD PUSH3 0x1E9 SWAP2 SWAP1 PUSH3 0x4B1 JUMP JUMPDEST PUSH1 0x20 PUSH1 0x40 MLOAD DUP1 DUP4 SUB DUP2 DUP7 DUP1 EXTCODESIZE ISZERO DUP1 ISZERO PUSH3 0x202 JUMPI PUSH1 0x0 DUP1 REVERT JUMPDEST POP GAS STATICCALL ISZERO DUP1 ISZERO PUSH3 0x217 JUMPI RETURNDATASIZE PUSH1 0x0 DUP1 RETURNDATACOPY RETURNDATASIZE PUSH1 0x0 REVERT JUMPDEST POP POP POP POP PUSH1 0x40 MLOAD RETURNDATASIZE PUSH1 0x1F NOT PUSH1 0x1F DUP3 ADD AND DUP3 ADD DUP1 PUSH1 0x40 MSTORE POP DUP2 ADD SWAP1 PUSH3 0x23D SWAP2 SWAP1 PUSH3 0x3A0 JUMP JUMPDEST SWAP1 POP SWAP2 SWAP1 POP JUMP JUMPDEST DUP3 DUP1 SLOAD PUSH3 0x252 SWAP1 PUSH3 0x615 JUMP JUMPDEST SWAP1 PUSH1 0x0 MSTORE PUSH1 0x20 PUSH1 0x0 KECCAK256 SWAP1 PUSH1 0x1F ADD PUSH1 0x20 SWAP1 DIV DUP2 ADD SWAP3 DUP3 PUSH3 0x276 JUMPI PUSH1 0x0 DUP6 SSTORE PUSH3 0x2C2 JUMP JUMPDEST DUP3 PUSH1 0x1F LT PUSH3 0x291 JUMPI DUP1 MLOAD PUSH1 0xFF NOT AND DUP4 DUP1 ADD OR DUP6 SSTORE PUSH3 0x2C2 JUMP JUMPDEST DUP3 DUP1 ADD PUSH1 0x1 ADD DUP6 SSTORE DUP3 ISZERO PUSH3 0x2C2 JUMPI SWAP2 DUP3 ADD JUMPDEST DUP3 DUP2 GT ISZERO PUSH3 0x2C1 JUMPI DUP3 MLOAD DUP3 SSTORE SWAP2 PUSH1 0x20 ADD SWAP2 SWAP1 PUSH1 0x1 ADD SWAP1 PUSH3 0x2A4 JUMP JUMPDEST JUMPDEST POP SWAP1 POP PUSH3 0x2D1 SWAP2 SWAP1 PUSH3 0x2D5 JUMP JUMPDEST POP SWAP1 JUMP JUMPDEST JUMPDEST DUP1 DUP3 GT ISZERO PUSH3 0x2F0 JUMPI PUSH1 0x0 DUP2 PUSH1 0x0 SWAP1 SSTORE POP PUSH1 0x1 ADD PUSH3 0x2D6 JUMP JUMPDEST POP SWAP1 JUMP JUMPDEST PUSH1 0x0 PUSH3 0x30B PUSH3 0x305 DUP5 PUSH3 0x54D JUMP JUMPDEST PUSH3 0x524 JUMP JUMPDEST SWAP1 POP DUP3 DUP2 MSTORE PUSH1 0x20 DUP2 ADD DUP5 DUP5 DUP5 ADD GT ISZERO PUSH3 0x32A JUMPI PUSH3 0x329 PUSH3 0x6E4 JUMP JUMPDEST JUMPDEST PUSH3 0x337 DUP5 DUP3 DUP6 PUSH3 0x5DF JUMP JUMPDEST POP SWAP4 SWAP3 POP POP POP JUMP JUMPDEST PUSH1 0x0 DUP2 MLOAD SWAP1 POP PUSH3 0x350 DUP2 PUSH3 0x72D JUMP JUMPDEST SWAP3 SWAP2 POP POP JUMP JUMPDEST PUSH1 0x0 DUP2 MLOAD SWAP1 POP PUSH3 0x367 DUP2 PUSH3 0x747 JUMP JUMPDEST SWAP3 SWAP2 POP POP JUMP JUMPDEST PUSH1 0x0 DUP3 PUSH1 0x1F DUP4 ADD SLT PUSH3 0x385 JUMPI PUSH3 0x384 PUSH3 0x6DF JUMP JUMPDEST JUMPDEST DUP2 MLOAD PUSH3 0x397 DUP5 DUP3 PUSH1 0x20 DUP7 ADD PUSH3 0x2F4 JUMP JUMPDEST SWAP2 POP POP SWAP3 SWAP2 POP POP JUMP JUMPDEST PUSH1 0x0 PUSH1 0x20 DUP3 DUP5 SUB SLT ISZERO PUSH3 0x3B9 JUMPI PUSH3 0x3B8 PUSH3 0x6EE JUMP JUMPDEST JUMPDEST PUSH1 0x0 PUSH3 0x3C9 DUP5 DUP3 DUP6 ADD PUSH3 0x356 JUMP JUMPDEST SWAP2 POP POP SWAP3 SWAP2 POP POP JUMP JUMPDEST PUSH1 0x0 DUP1 PUSH1 0x40 DUP4 DUP6 SUB SLT ISZERO PUSH3 0x3EC JUMPI PUSH3 0x3EB PUSH3 0x6EE JUMP JUMPDEST JUMPDEST PUSH1 0x0 DUP4 ADD MLOAD PUSH8 0xFFFFFFFFFFFFFFFF DUP2 GT ISZERO PUSH3 0x40D JUMPI PUSH3 0x40C PUSH3 0x6E9 JUMP JUMPDEST JUMPDEST PUSH3 0x41B DUP6 DUP3 DUP7 ADD PUSH3 0x36D JUMP JUMPDEST SWAP3 POP POP PUSH1 0x20 PUSH3 0x42E DUP6 DUP3 DUP7 ADD PUSH3 0x33F JUMP JUMPDEST SWAP2 POP POP SWAP3 POP SWAP3 SWAP1 POP JUMP JUMPDEST PUSH3 0x443 DUP2 PUSH3 0x59F JUMP JUMPDEST DUP3 MSTORE POP POP JUMP JUMPDEST PUSH1 0x0 PUSH3 0x456 DUP3 PUSH3 0x583 JUMP JUMPDEST PUSH3 0x462 DUP2 DUP6 PUSH3 0x58E JUMP JUMPDEST SWAP4 POP PUSH3 0x474 DUP2 DUP6 PUSH1 0x20 DUP7 ADD PUSH3 0x5DF JUMP JUMPDEST PUSH3 0x47F DUP2 PUSH3 0x6F3 JUMP JUMPDEST DUP5 ADD SWAP2 POP POP SWAP3 SWAP2 POP POP JUMP JUMPDEST PUSH1 0x0 PUSH3 0x499 PUSH1 0x14 DUP4 PUSH3 0x58E JUMP JUMPDEST SWAP2 POP PUSH3 0x4A6 DUP3 PUSH3 0x704 JUMP JUMPDEST PUSH1 0x20 DUP3 ADD SWAP1 POP SWAP2 SWAP1 POP JUMP JUMPDEST PUSH1 0x0 PUSH1 0x20 DUP3 ADD SWAP1 POP PUSH3 0x4C8 PUSH1 0x0 DUP4 ADD DUP5 PUSH3 0x438 JUMP JUMPDEST SWAP3 SWAP2 POP POP JUMP JUMPDEST PUSH1 0x0 PUSH1 0x40 DUP3 ADD SWAP1 POP DUP2 DUP2 SUB PUSH1 0x0 DUP4 ADD MSTORE PUSH3 0x4EA DUP2 DUP6 PUSH3 0x449 JUMP JUMPDEST SWAP1 POP PUSH3 0x4FB PUSH1 0x20 DUP4 ADD DUP5 PUSH3 0x438 JUMP JUMPDEST SWAP4 SWAP3 POP POP POP JUMP JUMPDEST PUSH1 0x0 PUSH1 0x20 DUP3 ADD SWAP1 POP DUP2 DUP2 SUB PUSH1 0x0 DUP4 ADD MSTORE PUSH3 0x51D DUP2 PUSH3 0x48A JUMP JUMPDEST SWAP1 POP SWAP2 SWAP1 POP JUMP JUMPDEST PUSH1 0x0 PUSH3 0x530 PUSH3 0x543 JUMP JUMPDEST SWAP1 POP PUSH3 0x53E DUP3 DUP3 PUSH3 0x64B JUMP JUMPDEST SWAP2 SWAP1 POP JUMP JUMPDEST PUSH1 0x0 PUSH1 0x40 MLOAD SWAP1 POP SWAP1 JUMP JUMPDEST PUSH1 0x0 PUSH8 0xFFFFFFFFFFFFFFFF DUP3 GT ISZERO PUSH3 0x56B JUMPI PUSH3 0x56A PUSH3 0x6B0 JUMP JUMPDEST JUMPDEST PUSH3 0x576 DUP3 PUSH3 0x6F3 JUMP JUMPDEST SWAP1 POP PUSH1 0x20 DUP2 ADD SWAP1 POP SWAP2 SWAP1 POP JUMP JUMPDEST PUSH1 0x0 DUP2 MLOAD SWAP1 POP SWAP2 SWAP1 POP JUMP JUMPDEST PUSH1 0x0 DUP3 DUP3 MSTORE PUSH1 0x20 DUP3 ADD SWAP1 POP SWAP3 SWAP2 POP POP JUMP JUMPDEST PUSH1 0x0 PUSH3 0x5AC DUP3 PUSH3 0x5BF JUMP JUMPDEST SWAP1 POP SWAP2 SWAP1 POP JUMP JUMPDEST PUSH1 0x0 DUP2 ISZERO ISZERO SWAP1 POP SWAP2 SWAP1 POP JUMP JUMPDEST PUSH1 0x0 PUSH20 0xFFFFFFFFFFFFFFFFFFFFFFFFFFFFFFFFFFFFFFFF DUP3 AND SWAP1 POP SWAP2 SWAP1 POP JUMP JUMPDEST PUSH1 0x0 JUMPDEST DUP4 DUP2 LT ISZERO PUSH3 0x5FF JUMPI DUP1 DUP3 ADD MLOAD DUP2 DUP5 ADD MSTORE PUSH1 0x20 DUP2 ADD SWAP1 POP PUSH3 0x5E2 JUMP JUMPDEST DUP4 DUP2 GT ISZERO PUSH3 0x60F JUMPI PUSH1 0x0 DUP5 DUP5 ADD MSTORE JUMPDEST POP POP POP POP JUMP JUMPDEST PUSH1 0x0 PUSH1 0x2 DUP3 DIV SWAP1 POP PUSH1 0x1 DUP3 AND DUP1 PUSH3 0x62E JUMPI PUSH1 0x7F DUP3 AND SWAP2 POP JUMPDEST PUSH1 0x20 DUP3 LT DUP2 EQ ISZERO PUSH3 0x645 JUMPI PUSH3 0x644 PUSH3 0x681 JUMP JUMPDEST JUMPDEST POP SWAP2 SWAP1 POP JUMP JUMPDEST PUSH3 0x656 DUP3 PUSH3 0x6F3 JUMP JUMPDEST DUP2 ADD DUP2 DUP2 LT PUSH8 0xFFFFFFFFFFFFFFFF DUP3 GT OR ISZERO PUSH3 0x678 JUMPI PUSH3 0x677 PUSH3 0x6B0 JUMP JUMPDEST JUMPDEST DUP1 PUSH1 0x40 MSTORE POP POP POP JUMP JUMPDEST PUSH32 0x4E487B7100000000000000000000000000000000000000000000000000000000 PUSH1 0x0 MSTORE PUSH1 0x22 PUSH1 0x4 MSTORE PUSH1 0x24 PUSH1 0x0 REVERT JUMPDEST PUSH32 0x4E487B7100000000000000000000000000000000000000000000000000000000 PUSH1 0x0 MSTORE PUSH1 0x41 PUSH1 0x4 MSTORE PUSH1 0x24 PUSH1 0x0 REVERT JUMPDEST PUSH1 0x0 DUP1 REVERT JUMPDEST PUSH1 0x0 DUP1 REVERT JUMPDEST PUSH1 0x0 DUP1 REVERT JUMPDEST PUSH1 0x0 DUP1 REVERT JUMPDEST PUSH1 0x0 PUSH1 0x1F NOT PUSH1 0x1F DUP4 ADD AND SWAP1 POP SWAP2 SWAP1 POP JUMP JUMPDEST PUSH32 0x5F7369676E6572206973206E6F742076616C6964000000000000000000000000 PUSH1 0x0 DUP3 ADD MSTORE POP JUMP JUMPDEST PUSH3 0x738 DUP2 PUSH3 0x59F JUMP JUMPDEST DUP2 EQ PUSH3 0x744 JUMPI PUSH1 0x0 DUP1 REVERT JUMPDEST POP JUMP JUMPDEST PUSH3 0x752 DUP2 PUSH3 0x5B3 JUMP JUMPDEST DUP2 EQ PUSH3 0x75E JUMPI PUSH1 0x0 DUP1 REVERT JUMPDEST POP JUMP JUMPDEST PUSH2 0xEA7 DUP1 PUSH3 0x771 PUSH1 0x0 CODECOPY PUSH1 0x0 RETURN INVALID PUSH1 0x80 PUSH1 0x40 MSTORE CALLVALUE DUP1 ISZERO PUSH2 0x10 JUMPI PUSH1 0x0 DUP1 REVERT JUMPDEST POP PUSH1 0x4 CALLDATASIZE LT PUSH2 0x57 JUMPI PUSH1 0x0 CALLDATALOAD PUSH1 0xE0 SHR DUP1 PUSH4 0x2CA15122 EQ PUSH2 0x5C JUMPI DUP1 PUSH4 0x3C68AF3E EQ PUSH2 0x7A JUMPI DUP1 PUSH4 0x50CA0928 EQ PUSH2 0x99 JUMPI DUP1 PUSH4 0x596F21F8 EQ PUSH2 0xC9 JUMPI DUP1 PUSH4 0x963671BE EQ PUSH2 0xE9 JUMPI JUMPDEST PUSH1 0x0 DUP1 REVERT JUMPDEST PUSH2 0x64 PUSH2 0x107 JUMP JUMPDEST PUSH1 0x40 MLOAD PUSH2 0x71 SWAP2 SWAP1 PUSH2 0xA86 JUMP JUMPDEST PUSH1 0x40 MLOAD DUP1 SWAP2 SUB SWAP1 RETURN JUMPDEST PUSH2 0x82 PUSH2 0x247 JUMP JUMPDEST PUSH1 0x40 MLOAD PUSH2 0x90 SWAP3 SWAP2 SWAP1 PUSH2 0xAA1 JUMP JUMPDEST PUSH1 0x40 MLOAD DUP1 SWAP2 SUB SWAP1 RETURN JUMPDEST PUSH2 0xB3 PUSH1 0x4 DUP1 CALLDATASIZE SUB DUP2 ADD SWAP1 PUSH2 0xAE SWAP2 SWAP1 PUSH2 0x829 JUMP JUMPDEST PUSH2 0x313 JUMP JUMPDEST PUSH1 0x40 MLOAD PUSH2 0xC0 SWAP2 SWAP1 PUSH2 0xA86 JUMP JUMPDEST PUSH1 0x40 MLOAD DUP1 SWAP2 SUB SWAP1 RETURN JUMPDEST PUSH2 0xD1 PUSH2 0x3C7 JUMP JUMPDEST PUSH1 0x40 MLOAD PUSH2 0xE0 SWAP4 SWAP3 SWAP2 SWAP1 PUSH2 0xAD1 JUMP JUMPDEST PUSH1 0x40 MLOAD DUP1 SWAP2 SUB SWAP1 RETURN JUMPDEST PUSH2 0xF1 PUSH2 0x700 JUMP JUMPDEST PUSH1 0x40 MLOAD PUSH2 0xFE SWAP2 SWAP1 PUSH2 0xA6B JUMP JUMPDEST PUSH1 0x40 MLOAD DUP1 SWAP2 SUB SWAP1 RETURN JUMPDEST PUSH1 0x0 PUSH2 0x112 ORIGIN PUSH2 0x313 JUMP JUMPDEST PUSH2 0x151 JUMPI PUSH1 0x40 MLOAD PUSH32 0x8C379A000000000000000000000000000000000000000000000000000000000 DUP2 MSTORE PUSH1 0x4 ADD PUSH2 0x148 SWAP1 PUSH2 0xB4D JUMP JUMPDEST PUSH1 0x40 MLOAD DUP1 SWAP2 SUB SWAP1 REVERT JUMPDEST PUSH2 0x15A ORIGIN PUSH2 0x726 JUMP JUMPDEST ISZERO PUSH2 0x1A2 JUMPI PUSH32 0x57BB3FEAD2451E6A3A5680E94E3DBA9642A2EA6E850811BF18FECCC94C5968A9 PUSH1 0x0 ORIGIN PUSH1 0x40 MLOAD PUSH2 0x191 SWAP3 SWAP2 SWAP1 PUSH2 0xB1D JUMP JUMPDEST PUSH1 0x40 MLOAD DUP1 SWAP2 SUB SWAP1 LOG1 PUSH1 0x1 SWAP1 POP PUSH2 0x244 JUMP JUMPDEST PUSH1 0x1 ORIGIN SWAP1 DUP1 PUSH1 0x1 DUP2 SLOAD ADD DUP1 DUP3 SSTORE DUP1 SWAP2 POP POP PUSH1 0x1 SWAP1 SUB SWAP1 PUSH1 0x0 MSTORE PUSH1 0x20 PUSH1 0x0 KECCAK256 ADD PUSH1 0x0 SWAP1 SWAP2 SWAP1 SWAP2 SWAP1 SWAP2 PUSH2 0x100 EXP DUP2 SLOAD DUP2 PUSH20 0xFFFFFFFFFFFFFFFFFFFFFFFFFFFFFFFFFFFFFFFF MUL NOT AND SWAP1 DUP4 PUSH20 0xFFFFFFFFFFFFFFFFFFFFFFFFFFFFFFFFFFFFFFFF AND MUL OR SWAP1 SSTORE POP PUSH32 0xB05E84F77F10CA9CD0A42F11422685A81FB7997E8C2500733527F8C2EE56AB29 PUSH1 0x0 ORIGIN PUSH1 0x40 MLOAD PUSH2 0x237 SWAP3 SWAP2 SWAP1 PUSH2 0xB1D JUMP JUMPDEST PUSH1 0x40 MLOAD DUP1 SWAP2 SUB SWAP1 LOG1 PUSH1 0x1 SWAP1 POP JUMPDEST SWAP1 JUMP JUMPDEST PUSH1 0x0 PUSH1 0x60 PUSH1 0x0 PUSH1 0x2 PUSH1 0x0 SWAP1 SLOAD SWAP1 PUSH2 0x100 EXP SWAP1 DIV PUSH20 0xFFFFFFFFFFFFFFFFFFFFFFFFFFFFFFFFFFFFFFFF AND PUSH20 0xFFFFFFFFFFFFFFFFFFFFFFFFFFFFFFFFFFFFFFFF AND PUSH4 0xFA69EFBD PUSH1 0x40 MLOAD DUP2 PUSH4 0xFFFFFFFF AND PUSH1 0xE0 SHL DUP2 MSTORE PUSH1 0x4 ADD PUSH1 0x20 PUSH1 0x40 MLOAD DUP1 DUP4 SUB DUP2 DUP7 DUP1 EXTCODESIZE ISZERO DUP1 ISZERO PUSH2 0x2B5 JUMPI PUSH1 0x0 DUP1 REVERT JUMPDEST POP GAS STATICCALL ISZERO DUP1 ISZERO PUSH2 0x2C9 JUMPI RETURNDATASIZE PUSH1 0x0 DUP1 RETURNDATACOPY RETURNDATASIZE PUSH1 0x0 REVERT JUMPDEST POP POP POP POP PUSH1 0x40 MLOAD RETURNDATASIZE PUSH1 0x1F NOT PUSH1 0x1F DUP3 ADD AND DUP3 ADD DUP1 PUSH1 0x40 MSTORE POP DUP2 ADD SWAP1 PUSH2 0x2ED SWAP2 SWAP1 PUSH2 0x8B0 JUMP JUMPDEST SWAP1 POP PUSH1 0x0 JUMPDEST DUP2 DUP2 LT ISZERO PUSH2 0x30D JUMPI DUP1 DUP1 PUSH2 0x305 SWAP1 PUSH2 0xCBE JUMP JUMPDEST SWAP2 POP POP PUSH2 0x2F2 JUMP JUMPDEST POP POP SWAP1 SWAP2 JUMP JUMPDEST PUSH1 0x0 PUSH1 0x2 PUSH1 0x0 SWAP1 SLOAD SWAP1 PUSH2 0x100 EXP SWAP1 DIV PUSH20 0xFFFFFFFFFFFFFFFFFFFFFFFFFFFFFFFFFFFFFFFF AND PUSH20 0xFFFFFFFFFFFFFFFFFFFFFFFFFFFFFFFFFFFFFFFF AND PUSH4 0x63A9C3D7 DUP4 PUSH1 0x40 MLOAD DUP3 PUSH4 0xFFFFFFFF AND PUSH1 0xE0 SHL DUP2 MSTORE PUSH1 0x4 ADD PUSH2 0x370 SWAP2 SWAP1 PUSH2 0xA6B JUMP JUMPDEST PUSH1 0x20 PUSH1 0x40 MLOAD DUP1 DUP4 SUB DUP2 DUP7 DUP1 EXTCODESIZE ISZERO DUP1 ISZERO PUSH2 0x388 JUMPI PUSH1 0x0 DUP1 REVERT JUMPDEST POP GAS STATICCALL ISZERO DUP1 ISZERO PUSH2 0x39C JUMPI RETURNDATASIZE PUSH1 0x0 DUP1 RETURNDATACOPY RETURNDATASIZE PUSH1 0x0 REVERT JUMPDEST POP POP POP POP PUSH1 0x40 MLOAD RETURNDATASIZE PUSH1 0x1F NOT PUSH1 0x1F DUP3 ADD AND DUP3 ADD DUP1 PUSH1 0x40 MSTORE POP DUP2 ADD SWAP1 PUSH2 0x3C0 SWAP2 SWAP1 PUSH2 0x883 JUMP JUMPDEST SWAP1 POP SWAP2 SWAP1 POP JUMP JUMPDEST PUSH1 0x60 DUP1 PUSH1 0x60 PUSH1 0x0 PUSH1 0x2 PUSH1 0x0 SWAP1 SLOAD SWAP1 PUSH2 0x100 EXP SWAP1 DIV PUSH20 0xFFFFFFFFFFFFFFFFFFFFFFFFFFFFFFFFFFFFFFFF AND PUSH20 0xFFFFFFFFFFFFFFFFFFFFFFFFFFFFFFFFFFFFFFFF AND PUSH4 0xFA69EFBD PUSH1 0x40 MLOAD DUP2 PUSH4 0xFFFFFFFF AND PUSH1 0xE0 SHL DUP2 MSTORE PUSH1 0x4 ADD PUSH1 0x20 PUSH1 0x40 MLOAD DUP1 DUP4 SUB DUP2 DUP7 DUP1 EXTCODESIZE ISZERO DUP1 ISZERO PUSH2 0x436 JUMPI PUSH1 0x0 DUP1 REVERT JUMPDEST POP GAS STATICCALL ISZERO DUP1 ISZERO PUSH2 0x44A JUMPI RETURNDATASIZE PUSH1 0x0 DUP1 RETURNDATACOPY RETURNDATASIZE PUSH1 0x0 REVERT JUMPDEST POP POP POP POP PUSH1 0x40 MLOAD RETURNDATASIZE PUSH1 0x1F NOT PUSH1 0x1F DUP3 ADD AND DUP3 ADD DUP1 PUSH1 0x40 MSTORE POP DUP2 ADD SWAP1 PUSH2 0x46E SWAP2 SWAP1 PUSH2 0x8B0 JUMP JUMPDEST SWAP1 POP PUSH1 0x0 DUP2 PUSH8 0xFFFFFFFFFFFFFFFF DUP2 GT ISZERO PUSH2 0x48C JUMPI PUSH2 0x48B PUSH2 0xDBE JUMP JUMPDEST JUMPDEST PUSH1 0x40 MLOAD SWAP1 DUP1 DUP3 MSTORE DUP1 PUSH1 0x20 MUL PUSH1 0x20 ADD DUP3 ADD PUSH1 0x40 MSTORE DUP1 ISZERO PUSH2 0x4BA JUMPI DUP2 PUSH1 0x20 ADD PUSH1 0x20 DUP3 MUL DUP1 CALLDATASIZE DUP4 CALLDATACOPY DUP1 DUP3 ADD SWAP2 POP POP SWAP1 POP JUMPDEST POP SWAP1 POP PUSH1 0x0 JUMPDEST DUP3 DUP2 PUSH1 0xFF AND LT ISZERO PUSH2 0x5D9 JUMPI PUSH1 0x2 PUSH1 0x0 SWAP1 SLOAD SWAP1 PUSH2 0x100 EXP SWAP1 DIV PUSH20 0xFFFFFFFFFFFFFFFFFFFFFFFFFFFFFFFFFFFFFFFF AND PUSH20 0xFFFFFFFFFFFFFFFFFFFFFFFFFFFFFFFFFFFFFFFF AND PUSH4 0x3FFEFE4E DUP3 PUSH1 0x40 MLOAD DUP3 PUSH4 0xFFFFFFFF AND PUSH1 0xE0 SHL DUP2 MSTORE PUSH1 0x4 ADD PUSH2 0x526 SWAP2 SWAP1 PUSH2 0xB6D JUMP JUMPDEST PUSH1 0x20 PUSH1 0x40 MLOAD DUP1 DUP4 SUB DUP2 DUP7 DUP1 EXTCODESIZE ISZERO DUP1 ISZERO PUSH2 0x53E JUMPI PUSH1 0x0 DUP1 REVERT JUMPDEST POP GAS STATICCALL ISZERO DUP1 ISZERO PUSH2 0x552 JUMPI RETURNDATASIZE PUSH1 0x0 DUP1 RETURNDATACOPY RETURNDATASIZE PUSH1 0x0 REVERT JUMPDEST POP POP POP POP PUSH1 0x40 MLOAD RETURNDATASIZE PUSH1 0x1F NOT PUSH1 0x1F DUP3 ADD AND DUP3 ADD DUP1 PUSH1 0x40 MSTORE POP DUP2 ADD SWAP1 PUSH2 0x576 SWAP2 SWAP1 PUSH2 0x856 JUMP JUMPDEST DUP3 DUP3 PUSH1 0xFF AND DUP2 MLOAD DUP2 LT PUSH2 0x58C JUMPI PUSH2 0x58B PUSH2 0xD8F JUMP JUMPDEST JUMPDEST PUSH1 0x20 MUL PUSH1 0x20 ADD ADD SWAP1 PUSH20 0xFFFFFFFFFFFFFFFFFFFFFFFFFFFFFFFFFFFFFFFF AND SWAP1 DUP2 PUSH20 0xFFFFFFFFFFFFFFFFFFFFFFFFFFFFFFFFFFFFFFFF AND DUP2 MSTORE POP POP DUP1 DUP1 PUSH2 0x5D1 SWAP1 PUSH2 0xD07 JUMP JUMPDEST SWAP2 POP POP PUSH2 0x4C0 JUMP JUMPDEST POP PUSH1 0x0 DUP2 PUSH1 0x1 DUP3 DUP1 SLOAD PUSH2 0x5EB SWAP1 PUSH2 0xC8C JUMP JUMPDEST DUP1 PUSH1 0x1F ADD PUSH1 0x20 DUP1 SWAP2 DIV MUL PUSH1 0x20 ADD PUSH1 0x40 MLOAD SWAP1 DUP2 ADD PUSH1 0x40 MSTORE DUP1 SWAP3 SWAP2 SWAP1 DUP2 DUP2 MSTORE PUSH1 0x20 ADD DUP3 DUP1 SLOAD PUSH2 0x617 SWAP1 PUSH2 0xC8C JUMP JUMPDEST DUP1 ISZERO PUSH2 0x664 JUMPI DUP1 PUSH1 0x1F LT PUSH2 0x639 JUMPI PUSH2 0x100 DUP1 DUP4 SLOAD DIV MUL DUP4 MSTORE SWAP2 PUSH1 0x20 ADD SWAP2 PUSH2 0x664 JUMP JUMPDEST DUP3 ADD SWAP2 SWAP1 PUSH1 0x0 MSTORE PUSH1 0x20 PUSH1 0x0 KECCAK256 SWAP1 JUMPDEST DUP2 SLOAD DUP2 MSTORE SWAP1 PUSH1 0x1 ADD SWAP1 PUSH1 0x20 ADD DUP1 DUP4 GT PUSH2 0x647 JUMPI DUP3 SWAP1 SUB PUSH1 0x1F AND DUP3 ADD SWAP2 JUMPDEST POP POP POP POP POP SWAP3 POP DUP1 DUP1 SLOAD DUP1 PUSH1 0x20 MUL PUSH1 0x20 ADD PUSH1 0x40 MLOAD SWAP1 DUP2 ADD PUSH1 0x40 MSTORE DUP1 SWAP3 SWAP2 SWAP1 DUP2 DUP2 MSTORE PUSH1 0x20 ADD DUP3 DUP1 SLOAD DUP1 ISZERO PUSH2 0x6EC JUMPI PUSH1 0x20 MUL DUP3 ADD SWAP2 SWAP1 PUSH1 0x0 MSTORE PUSH1 0x20 PUSH1 0x0 KECCAK256 SWAP1 JUMPDEST DUP2 PUSH1 0x0 SWAP1 SLOAD SWAP1 PUSH2 0x100 EXP SWAP1 DIV PUSH20 0xFFFFFFFFFFFFFFFFFFFFFFFFFFFFFFFFFFFFFFFF AND PUSH20 0xFFFFFFFFFFFFFFFFFFFFFFFFFFFFFFFFFFFFFFFF AND DUP2 MSTORE PUSH1 0x20 ADD SWAP1 PUSH1 0x1 ADD SWAP1 DUP1 DUP4 GT PUSH2 0x6A2 JUMPI JUMPDEST POP POP POP POP POP SWAP1 POP SWAP5 POP SWAP5 POP SWAP5 POP POP POP SWAP1 SWAP2 SWAP3 JUMP JUMPDEST PUSH1 0x2 PUSH1 0x0 SWAP1 SLOAD SWAP1 PUSH2 0x100 EXP SWAP1 DIV PUSH20 0xFFFFFFFFFFFFFFFFFFFFFFFFFFFFFFFFFFFFFFFF AND DUP2 JUMP JUMPDEST PUSH1 0x0 DUP1 PUSH1 0x0 SWAP1 POP JUMPDEST PUSH1 0x1 DUP1 SLOAD SWAP1 POP DUP2 LT ISZERO PUSH2 0x7CA JUMPI DUP3 PUSH20 0xFFFFFFFFFFFFFFFFFFFFFFFFFFFFFFFFFFFFFFFF AND PUSH1 0x1 DUP3 DUP2 SLOAD DUP2 LT PUSH2 0x766 JUMPI PUSH2 0x765 PUSH2 0xD8F JUMP JUMPDEST JUMPDEST SWAP1 PUSH1 0x0 MSTORE PUSH1 0x20 PUSH1 0x0 KECCAK256 ADD PUSH1 0x0 SWAP1 SLOAD SWAP1 PUSH2 0x100 EXP SWAP1 DIV PUSH20 0xFFFFFFFFFFFFFFFFFFFFFFFFFFFFFFFFFFFFFFFF AND PUSH20 0xFFFFFFFFFFFFFFFFFFFFFFFFFFFFFFFFFFFFFFFF AND EQ ISZERO PUSH2 0x7B7 JUMPI PUSH1 0x1 SWAP2 POP POP PUSH2 0x7D0 JUMP JUMPDEST DUP1 DUP1 PUSH2 0x7C2 SWAP1 PUSH2 0xCBE JUMP JUMPDEST SWAP2 POP POP PUSH2 0x72E JUMP JUMPDEST POP PUSH1 0x0 SWAP1 POP JUMPDEST SWAP2 SWAP1 POP JUMP JUMPDEST PUSH1 0x0 DUP2 CALLDATALOAD SWAP1 POP PUSH2 0x7E4 DUP2 PUSH2 0xE2C JUMP JUMPDEST SWAP3 SWAP2 POP POP JUMP JUMPDEST PUSH1 0x0 DUP2 MLOAD SWAP1 POP PUSH2 0x7F9 DUP2 PUSH2 0xE2C JUMP JUMPDEST SWAP3 SWAP2 POP POP JUMP JUMPDEST PUSH1 0x0 DUP2 MLOAD SWAP1 POP PUSH2 0x80E DUP2 PUSH2 0xE43 JUMP JUMPDEST SWAP3 SWAP2 POP POP JUMP JUMPDEST PUSH1 0x0 DUP2 MLOAD SWAP1 POP PUSH2 0x823 DUP2 PUSH2 0xE5A JUMP JUMPDEST SWAP3 SWAP2 POP POP JUMP JUMPDEST PUSH1 0x0 PUSH1 0x20 DUP3 DUP5 SUB SLT ISZERO PUSH2 0x83F JUMPI PUSH2 0x83E PUSH2 0xDED JUMP JUMPDEST JUMPDEST PUSH1 0x0 PUSH2 0x84D DUP5 DUP3 DUP6 ADD PUSH2 0x7D5 JUMP JUMPDEST SWAP2 POP POP SWAP3 SWAP2 POP POP JUMP JUMPDEST PUSH1 0x0 PUSH1 0x20 DUP3 DUP5 SUB SLT ISZERO PUSH2 0x86C JUMPI PUSH2 0x86B PUSH2 0xDED JUMP JUMPDEST JUMPDEST PUSH1 0x0 PUSH2 0x87A DUP5 DUP3 DUP6 ADD PUSH2 0x7EA JUMP JUMPDEST SWAP2 POP POP SWAP3 SWAP2 POP POP JUMP JUMPDEST PUSH1 0x0 PUSH1 0x20 DUP3 DUP5 SUB SLT ISZERO PUSH2 0x899 JUMPI PUSH2 0x898 PUSH2 0xDED JUMP JUMPDEST JUMPDEST PUSH1 0x0 PUSH2 0x8A7 DUP5 DUP3 DUP6 ADD PUSH2 0x7FF JUMP JUMPDEST SWAP2 POP POP SWAP3 SWAP2 POP POP JUMP JUMPDEST PUSH1 0x0 PUSH1 0x20 DUP3 DUP5 SUB SLT ISZERO PUSH2 0x8C6 JUMPI PUSH2 0x8C5 PUSH2 0xDED JUMP JUMPDEST JUMPDEST PUSH1 0x0 PUSH2 0x8D4 DUP5 DUP3 DUP6 ADD PUSH2 0x814 JUMP JUMPDEST SWAP2 POP POP SWAP3 SWAP2 POP POP JUMP JUMPDEST PUSH1 0x0 PUSH2 0x8E9 DUP4 DUP4 PUSH2 0x8F5 JUMP JUMPDEST PUSH1 0x20 DUP4 ADD SWAP1 POP SWAP3 SWAP2 POP POP JUMP JUMPDEST PUSH2 0x8FE DUP2 PUSH2 0xBF2 JUMP JUMPDEST DUP3 MSTORE POP POP JUMP JUMPDEST PUSH2 0x90D DUP2 PUSH2 0xBF2 JUMP JUMPDEST DUP3 MSTORE POP POP JUMP JUMPDEST PUSH1 0x0 PUSH2 0x91E DUP3 PUSH2 0xBAD JUMP JUMPDEST PUSH2 0x928 DUP2 DUP6 PUSH2 0xBD0 JUMP JUMPDEST SWAP4 POP PUSH2 0x933 DUP4 PUSH2 0xB88 JUMP JUMPDEST DUP1 PUSH1 0x0 JUMPDEST DUP4 DUP2 LT ISZERO PUSH2 0x964 JUMPI DUP2 MLOAD PUSH2 0x94B DUP9 DUP3 PUSH2 0x8DD JUMP JUMPDEST SWAP8 POP PUSH2 0x956 DUP4 PUSH2 0xBC3 JUMP JUMPDEST SWAP3 POP POP PUSH1 0x1 DUP2 ADD SWAP1 POP PUSH2 0x937 JUMP JUMPDEST POP DUP6 SWAP4 POP POP POP POP SWAP3 SWAP2 POP POP JUMP JUMPDEST PUSH2 0x97A DUP2 PUSH2 0xC04 JUMP JUMPDEST DUP3 MSTORE POP POP JUMP JUMPDEST PUSH1 0x0 PUSH2 0x98B DUP3 PUSH2 0xBB8 JUMP JUMPDEST PUSH2 0x995 DUP2 DUP6 PUSH2 0xBE1 JUMP JUMPDEST SWAP4 POP PUSH2 0x9A5 DUP2 DUP6 PUSH1 0x20 DUP7 ADD PUSH2 0xC59 JUMP JUMPDEST PUSH2 0x9AE DUP2 PUSH2 0xDF2 JUMP JUMPDEST DUP5 ADD SWAP2 POP POP SWAP3 SWAP2 POP POP JUMP JUMPDEST PUSH1 0x0 DUP2 SLOAD PUSH2 0x9C6 DUP2 PUSH2 0xC8C JUMP JUMPDEST PUSH2 0x9D0 DUP2 DUP7 PUSH2 0xBE1 JUMP JUMPDEST SWAP5 POP PUSH1 0x1 DUP3 AND PUSH1 0x0 DUP2 EQ PUSH2 0x9EB JUMPI PUSH1 0x1 DUP2 EQ PUSH2 0x9FD JUMPI PUSH2 0xA30 JUMP JUMPDEST PUSH1 0xFF NOT DUP4 AND DUP7 MSTORE PUSH1 0x20 DUP7 ADD SWAP4 POP PUSH2 0xA30 JUMP JUMPDEST PUSH2 0xA06 DUP6 PUSH2 0xB98 JUMP JUMPDEST PUSH1 0x0 JUMPDEST DUP4 DUP2 LT ISZERO PUSH2 0xA28 JUMPI DUP2 SLOAD DUP2 DUP10 ADD MSTORE PUSH1 0x1 DUP3 ADD SWAP2 POP PUSH1 0x20 DUP2 ADD SWAP1 POP PUSH2 0xA09 JUMP JUMPDEST DUP1 DUP9 ADD SWAP6 POP POP POP JUMPDEST POP POP POP SWAP3 SWAP2 POP POP JUMP JUMPDEST PUSH1 0x0 PUSH2 0xA46 PUSH1 0x14 DUP4 PUSH2 0xBE1 JUMP JUMPDEST SWAP2 POP PUSH2 0xA51 DUP3 PUSH2 0xE03 JUMP JUMPDEST PUSH1 0x20 DUP3 ADD SWAP1 POP SWAP2 SWAP1 POP JUMP JUMPDEST PUSH2 0xA65 DUP2 PUSH2 0xC47 JUMP JUMPDEST DUP3 MSTORE POP POP JUMP JUMPDEST PUSH1 0x0 PUSH1 0x20 DUP3 ADD SWAP1 POP PUSH2 0xA80 PUSH1 0x0 DUP4 ADD DUP5 PUSH2 0x904 JUMP JUMPDEST SWAP3 SWAP2 POP POP JUMP JUMPDEST PUSH1 0x0 PUSH1 0x20 DUP3 ADD SWAP1 POP PUSH2 0xA9B PUSH1 0x0 DUP4 ADD DUP5 PUSH2 0x971 JUMP JUMPDEST SWAP3 SWAP2 POP POP JUMP JUMPDEST PUSH1 0x0 PUSH1 0x40 DUP3 ADD SWAP1 POP PUSH2 0xAB6 PUSH1 0x0 DUP4 ADD DUP6 PUSH2 0x971 JUMP JUMPDEST DUP2 DUP2 SUB PUSH1 0x20 DUP4 ADD MSTORE PUSH2 0xAC8 DUP2 DUP5 PUSH2 0x980 JUMP JUMPDEST SWAP1 POP SWAP4 SWAP3 POP POP POP JUMP JUMPDEST PUSH1 0x0 PUSH1 0x60 DUP3 ADD SWAP1 POP DUP2 DUP2 SUB PUSH1 0x0 DUP4 ADD MSTORE PUSH2 0xAEB DUP2 DUP7 PUSH2 0x980 JUMP JUMPDEST SWAP1 POP DUP2 DUP2 SUB PUSH1 0x20 DUP4 ADD MSTORE PUSH2 0xAFF DUP2 DUP6 PUSH2 0x913 JUMP JUMPDEST SWAP1 POP DUP2 DUP2 SUB PUSH1 0x40 DUP4 ADD MSTORE PUSH2 0xB13 DUP2 DUP5 PUSH2 0x913 JUMP JUMPDEST SWAP1 POP SWAP5 SWAP4 POP POP POP POP JUMP JUMPDEST PUSH1 0x0 PUSH1 0x40 DUP3 ADD SWAP1 POP DUP2 DUP2 SUB PUSH1 0x0 DUP4 ADD MSTORE PUSH2 0xB37 DUP2 DUP6 PUSH2 0x9B9 JUMP JUMPDEST SWAP1 POP PUSH2 0xB46 PUSH1 0x20 DUP4 ADD DUP5 PUSH2 0x904 JUMP JUMPDEST SWAP4 SWAP3 POP POP POP JUMP JUMPDEST PUSH1 0x0 PUSH1 0x20 DUP3 ADD SWAP1 POP DUP2 DUP2 SUB PUSH1 0x0 DUP4 ADD MSTORE PUSH2 0xB66 DUP2 PUSH2 0xA39 JUMP JUMPDEST SWAP1 POP SWAP2 SWAP1 POP JUMP JUMPDEST PUSH1 0x0 PUSH1 0x20 DUP3 ADD SWAP1 POP PUSH2 0xB82 PUSH1 0x0 DUP4 ADD DUP5 PUSH2 0xA5C JUMP JUMPDEST SWAP3 SWAP2 POP POP JUMP JUMPDEST PUSH1 0x0 DUP2 SWAP1 POP PUSH1 0x20 DUP3 ADD SWAP1 POP SWAP2 SWAP1 POP JUMP JUMPDEST PUSH1 0x0 DUP2 SWAP1 POP DUP2 PUSH1 0x0 MSTORE PUSH1 0x20 PUSH1 0x0 KECCAK256 SWAP1 POP SWAP2 SWAP1 POP JUMP JUMPDEST PUSH1 0x0 DUP2 MLOAD SWAP1 POP SWAP2 SWAP1 POP JUMP JUMPDEST PUSH1 0x0 DUP2 MLOAD SWAP1 POP SWAP2 SWAP1 POP JUMP JUMPDEST PUSH1 0x0 PUSH1 0x20 DUP3 ADD SWAP1 POP SWAP2 SWAP1 POP JUMP JUMPDEST PUSH1 0x0 DUP3 DUP3 MSTORE PUSH1 0x20 DUP3 ADD SWAP1 POP SWAP3 SWAP2 POP POP JUMP JUMPDEST PUSH1 0x0 DUP3 DUP3 MSTORE PUSH1 0x20 DUP3 ADD SWAP1 POP SWAP3 SWAP2 POP POP JUMP JUMPDEST PUSH1 0x0 PUSH2 0xBFD DUP3 PUSH2 0xC10 JUMP JUMPDEST SWAP1 POP SWAP2 SWAP1 POP JUMP JUMPDEST PUSH1 0x0 DUP2 ISZERO ISZERO SWAP1 POP SWAP2 SWAP1 POP JUMP JUMPDEST PUSH1 0x0 PUSH20 0xFFFFFFFFFFFFFFFFFFFFFFFFFFFFFFFFFFFFFFFF DUP3 AND SWAP1 POP SWAP2 SWAP1 POP JUMP JUMPDEST PUSH1 0x0 DUP2 SWAP1 POP SWAP2 SWAP1 POP JUMP JUMPDEST PUSH1 0x0 PUSH1 0xFF DUP3 AND SWAP1 POP SWAP2 SWAP1 POP JUMP JUMPDEST PUSH1 0x0 PUSH2 0xC52 DUP3 PUSH2 0xC3A JUMP JUMPDEST SWAP1 POP SWAP2 SWAP1 POP JUMP JUMPDEST PUSH1 0x0 JUMPDEST DUP4 DUP2 LT ISZERO PUSH2 0xC77 JUMPI DUP1 DUP3 ADD MLOAD DUP2 DUP5 ADD MSTORE PUSH1 0x20 DUP2 ADD SWAP1 POP PUSH2 0xC5C JUMP JUMPDEST DUP4 DUP2 GT ISZERO PUSH2 0xC86 JUMPI PUSH1 0x0 DUP5 DUP5 ADD MSTORE JUMPDEST POP POP POP POP JUMP JUMPDEST PUSH1 0x0 PUSH1 0x2 DUP3 DIV SWAP1 POP PUSH1 0x1 DUP3 AND DUP1 PUSH2 0xCA4 JUMPI PUSH1 0x7F DUP3 AND SWAP2 POP JUMPDEST PUSH1 0x20 DUP3 LT DUP2 EQ ISZERO PUSH2 0xCB8 JUMPI PUSH2 0xCB7 PUSH2 0xD60 JUMP JUMPDEST JUMPDEST POP SWAP2 SWAP1 POP JUMP JUMPDEST PUSH1 0x0 PUSH2 0xCC9 DUP3 PUSH2 0xC30 JUMP JUMPDEST SWAP2 POP PUSH32 0xFFFFFFFFFFFFFFFFFFFFFFFFFFFFFFFFFFFFFFFFFFFFFFFFFFFFFFFFFFFFFFFF DUP3 EQ ISZERO PUSH2 0xCFC JUMPI PUSH2 0xCFB PUSH2 0xD31 JUMP JUMPDEST JUMPDEST PUSH1 0x1 DUP3 ADD SWAP1 POP SWAP2 SWAP1 POP JUMP JUMPDEST PUSH1 0x0 PUSH2 0xD12 DUP3 PUSH2 0xC3A JUMP JUMPDEST SWAP2 POP PUSH1 0xFF DUP3 EQ ISZERO PUSH2 0xD26 JUMPI PUSH2 0xD25 PUSH2 0xD31 JUMP JUMPDEST JUMPDEST PUSH1 0x1 DUP3 ADD SWAP1 POP SWAP2 SWAP1 POP JUMP JUMPDEST PUSH32 0x4E487B7100000000000000000000000000000000000000000000000000000000 PUSH1 0x0 MSTORE PUSH1 0x11 PUSH1 0x4 MSTORE PUSH1 0x24 PUSH1 0x0 REVERT JUMPDEST PUSH32 0x4E487B7100000000000000000000000000000000000000000000000000000000 PUSH1 0x0 MSTORE PUSH1 0x22 PUSH1 0x4 MSTORE PUSH1 0x24 PUSH1 0x0 REVERT JUMPDEST PUSH32 0x4E487B7100000000000000000000000000000000000000000000000000000000 PUSH1 0x0 MSTORE PUSH1 0x32 PUSH1 0x4 MSTORE PUSH1 0x24 PUSH1 0x0 REVERT JUMPDEST PUSH32 0x4E487B7100000000000000000000000000000000000000000000000000000000 PUSH1 0x0 MSTORE PUSH1 0x41 PUSH1 0x4 MSTORE PUSH1 0x24 PUSH1 0x0 REVERT JUMPDEST PUSH1 0x0 DUP1 REVERT JUMPDEST PUSH1 0x0 PUSH1 0x1F NOT PUSH1 0x1F DUP4 ADD AND SWAP1 POP SWAP2 SWAP1 POP JUMP JUMPDEST PUSH32 0x5F7369676E6572206973206E6F742076616C6964000000000000000000000000 PUSH1 0x0 DUP3 ADD MSTORE POP JUMP JUMPDEST PUSH2 0xE35 DUP2 PUSH2 0xBF2 JUMP JUMPDEST DUP2 EQ PUSH2 0xE40 JUMPI PUSH1 0x0 DUP1 REVERT JUMPDEST POP JUMP JUMPDEST PUSH2 0xE4C DUP2 PUSH2 0xC04 JUMP JUMPDEST DUP2 EQ PUSH2 0xE57 JUMPI PUSH1 0x0 DUP1 REVERT JUMPDEST POP JUMP JUMPDEST PUSH2 0xE63 DUP2 PUSH2 0xC30 JUMP JUMPDEST DUP2 EQ PUSH2 0xE6E JUMPI PUSH1 0x0 DUP1 REVERT JUMPDEST POP JUMP INVALID LOG2 PUSH5 0x6970667358 0x22 SLT KECCAK256 0xCD 0xE6 PUSH22 0xE1E2583ED75240E2F053B8E3F178B9BEAEB1075B8C9F 0xD6 0xBF 0xD1 0xF6 PUSH31 0x1A4A64736F6C63430008070033000000000000000000000000000000000000 "
				},
				"gasEstimates": {
					"creation": {
						"codeDepositCost": "750200",
						"executionCost": "infinite",
						"totalCost": "infinite"
					},
					"external": {
						"callVerify(address)": "infinite",
						"factoryAddr()": "2580",
						"getEvidence()": "infinite",
						"isAllSigned()": "infinite",
						"sign()": "infinite"
					},
					"internal": {
						"isSigned(address)": "infinite"
					}
				},
				"methodIdentifiers": {
					"callVerify(address)": "50ca0928",
					"factoryAddr()": "963671be",
					"getEvidence()": "596f21f8",
					"isAllSigned()": "3c68af3e",
					"sign()": "2ca15122"
				}
			},
			"storageLayout": {
				"storage": [
					{
						"astId": 23,
						"contract": "evidence/evidence.sol:Evidence",
						"label": "evidence",
						"offset": 0,
						"slot": "0",
						"type": "t_string_storage"
					},
					{
						"astId": 26,
						"contract": "evidence/evidence.sol:Evidence",
						"label": "signers",
						"offset": 0,
						"slot": "1",
						"type": "t_array(t_address)dyn_storage"
					},
					{
						"astId": 28,
						"contract": "evidence/evidence.sol:Evidence",
						"label": "factoryAddr",
						"offset": 0,
						"slot": "2",
						"type": "t_address"
					}
				],
				"types": {
					"t_address": {
						"encoding": "inplace",
						"label": "address",
						"numberOfBytes": "20"
					},
					"t_array(t_address)dyn_storage": {
						"base": "t_address",
						"encoding": "dynamic_array",
						"label": "address[]",
						"numberOfBytes": "32"
					},
					"t_string_storage": {
						"encoding": "bytes",
						"label": "string",
						"numberOfBytes": "32"
					}
				}
			},
			"userdoc": {
				"kind": "user",
				"methods": {},
				"version": 1
			}
		}
	}
}