{
	"data": {
		"bytecode": {
			"linkReferences": {},
			"object": "608060405234801561001057600080fd5b5061239a806100206000396000f3fe60806040523480156200001157600080fd5b5060043610620000525760003560e01c80630ba3b728146200005757806379d6348d146200008e5780639a95dcf814620000c4578063b16c6ee714620000fa575b600080fd5b6200007560048036038101906200006f91906200073a565b62000132565b6040516200008592919062000a76565b60405180910390f35b620000ac6004803603810190620000a691906200073a565b6200020b565b604051620000bb919062000a59565b60405180910390f35b620000e26004803603810190620000dc919062000844565b620002dd565b604051620000f1919062000a3c565b60405180910390f35b6200011860048036038101906200011291906200073a565b620003c7565b604051620001299392919062000aee565b60405180910390f35b600060606000808460405162000149919062000a23565b908152602001604051809103902060009054906101000a900473ffffffffffffffffffffffffffffffffffffffff1690508073ffffffffffffffffffffffffffffffffffffffff16633c68af3e6040518163ffffffff1660e01b815260040160006040518083038186803b158015620001c157600080fd5b505afa158015620001d6573d6000803e3d6000fd5b505050506040513d6000823e3d601f19601f82011682018060405250810190620002019190620006d4565b9250925050915091565b60008060008360405162000220919062000a23565b908152602001604051809103902060009054906101000a900473ffffffffffffffffffffffffffffffffffffffff1690508073ffffffffffffffffffffffffffffffffffffffff16632ca151226040518163ffffffff1660e01b8152600401602060405180830381600087803b1580156200029a57600080fd5b505af1158015620002af573d6000803e3d6000fd5b505050506040513d601f19601f82011682018060405250810190620002d59190620006a2565b915050919050565b600080858484604051620002f190620004a5565b620002ff9392919062000aaa565b604051809103906000f0801580156200031c573d6000803e3d6000fd5b5090508060008660405162000332919062000a23565b908152602001604051809103902060006101000a81548173ffffffffffffffffffffffffffffffffffffffff021916908373ffffffffffffffffffffffffffffffffffffffff1602179055507fb5c84afee52fa9df10abdc984d08d92b77189b82ce42c3d843623be2d05b9624868633604051620003b39392919062000b40565b60405180910390a180915050949350505050565b606080606060008085604051620003df919062000a23565b908152602001604051809103902060009054906101000a900473ffffffffffffffffffffffffffffffffffffffff1690508073ffffffffffffffffffffffffffffffffffffffff1663596f21f86040518163ffffffff1660e01b815260040160006040518083038186803b1580156200045757600080fd5b505afa1580156200046c573d6000803e3d6000fd5b505050506040513d6000823e3d601f19601f820116820180604052508101906200049791906200078b565b935093509350509193909250565b6115a38062000dc283390190565b6000620004ca620004c48462000bb4565b62000b8b565b90508083825260208201905082856020860282011115620004f057620004ef62000d68565b5b60005b85811015620005245781620005098882620005db565b845260208401935060208301925050600181019050620004f3565b5050509392505050565b6000620005456200053f8462000be3565b62000b8b565b90508281526020810184848401111562000564576200056362000d6d565b5b6200057184828562000cb9565b509392505050565b6000620005906200058a8462000be3565b62000b8b565b905082815260208101848484011115620005af57620005ae62000d6d565b5b620005bc84828562000cc8565b509392505050565b600081359050620005d58162000d8d565b92915050565b600081519050620005ec8162000d8d565b92915050565b600082601f8301126200060a576200060962000d63565b5b81516200061c848260208601620004b3565b91505092915050565b600081519050620006368162000da7565b92915050565b600082601f83011262000654576200065362000d63565b5b8135620006668482602086016200052e565b91505092915050565b600082601f83011262000687576200068662000d63565b5b81516200069984826020860162000579565b91505092915050565b600060208284031215620006bb57620006ba62000d77565b5b6000620006cb8482850162000625565b91505092915050565b60008060408385031215620006ee57620006ed62000d77565b5b6000620006fe8582860162000625565b925050602083015167ffffffffffffffff81111562000722576200072162000d72565b5b62000730858286016200066f565b9150509250929050565b60006020828403121562000753576200075262000d77565b5b600082013567ffffffffffffffff81111562000774576200077362000d72565b5b62000782848285016200063c565b91505092915050565b600080600060608486031215620007a757620007a662000d77565b5b600084015167ffffffffffffffff811115620007c857620007c762000d72565b5b620007d6868287016200066f565b935050602084015167ffffffffffffffff811115620007fa57620007f962000d72565b5b6200080886828701620005f2565b925050604084015167ffffffffffffffff8111156200082c576200082b62000d72565b5b6200083a86828701620005f2565b9150509250925092565b6000806000806080858703121562000861576200086062000d77565b5b600085013567ffffffffffffffff81111562000882576200088162000d72565b5b62000890878288016200063c565b945050602085013567ffffffffffffffff811115620008b457620008b362000d72565b5b620008c2878288016200063c565b9350506040620008d587828801620005c4565b9250506060620008e887828801620005c4565b91505092959194509250565b60006200090283836200090e565b60208301905092915050565b620009198162000c79565b82525050565b6200092a8162000c79565b82525050565b60006200093d8262000c29565b62000949818562000c4c565b9350620009568362000c19565b8060005b838110156200098d578151620009718882620008f4565b97506200097e8362000c3f565b9250506001810190506200095a565b5085935050505092915050565b620009a58162000c8d565b82525050565b6000620009b88262000c34565b620009c4818562000c5d565b9350620009d681856020860162000cc8565b620009e18162000d7c565b840191505092915050565b6000620009f98262000c34565b62000a05818562000c6e565b935062000a1781856020860162000cc8565b80840191505092915050565b600062000a318284620009ec565b915081905092915050565b600060208201905062000a5360008301846200091f565b92915050565b600060208201905062000a7060008301846200099a565b92915050565b600060408201905062000a8d60008301856200099a565b818103602083015262000aa18184620009ab565b90509392505050565b6000606082019050818103600083015262000ac68186620009ab565b905062000ad760208301856200091f565b62000ae660408301846200091f565b949350505050565b6000606082019050818103600083015262000b0a8186620009ab565b9050818103602083015262000b20818562000930565b9050818103604083015262000b36818462000930565b9050949350505050565b6000606082019050818103600083015262000b5c8186620009ab565b9050818103602083015262000b728185620009ab565b905062000b8360408301846200091f565b949350505050565b600062000b9762000baa565b905062000ba5828262000cfe565b919050565b6000604051905090565b600067ffffffffffffffff82111562000bd25762000bd162000d34565b5b602082029050602081019050919050565b600067ffffffffffffffff82111562000c015762000c0062000d34565b5b62000c0c8262000d7c565b9050602081019050919050565b6000819050602082019050919050565b600081519050919050565b600081519050919050565b6000602082019050919050565b600082825260208201905092915050565b600082825260208201905092915050565b600081905092915050565b600062000c868262000c99565b9050919050565b60008115159050919050565b600073ffffffffffffffffffffffffffffffffffffffff82169050919050565b82818337600083830152505050565b60005b8381101562000ce857808201518184015260208101905062000ccb565b8381111562000cf8576000848401525b50505050565b62000d098262000d7c565b810181811067ffffffffffffffff8211171562000d2b5762000d2a62000d34565b5b80604052505050565b7f4e487b7100000000000000000000000000000000000000000000000000000000600052604160045260246000fd5b600080fd5b600080fd5b600080fd5b600080fd5b600080fd5b6000601f19601f8301169050919050565b62000d988162000c79565b811462000da457600080fd5b50565b62000db28162000c8d565b811462000dbe57600080fd5b5056fe60806040523480156200001157600080fd5b50604051620015a3380380620015a3833981810160405281019062000037919062000533565b8173ffffffffffffffffffffffffffffffffffffffff16600073ffffffffffffffffffffffffffffffffffffffff161415620000aa576040517f08c379a0000000000000000000000000000000000000000000000000000000008152600401620000a19062000756565b60405180910390fd5b8073ffffffffffffffffffffffffffffffffffffffff16600073ffffffffffffffffffffffffffffffffffffffff1614156200011d576040517f08c379a00000000000000000000000000000000000000000000000000000000081526004016200011490620006f0565b60405180910390fd5b3273ffffffffffffffffffffffffffffffffffffffff168273ffffffffffffffffffffffffffffffffffffffff1614156200018f576040517f08c379a0000000000000000000000000000000000000000000000000000000008152600401620001869062000734565b60405180910390fd5b3273ffffffffffffffffffffffffffffffffffffffff168173ffffffffffffffffffffffffffffffffffffffff16141562000201576040517f08c379a0000000000000000000000000000000000000000000000000000000008152600401620001f89062000712565b60405180910390fd5b6001329080600181540180825580915050600190039060005260206000200160009091909190916101000a81548173ffffffffffffffffffffffffffffffffffffffff021916908373ffffffffffffffffffffffffffffffffffffffff1602179055506001829080600181540180825580915050600190039060005260206000200160009091909190916101000a81548173ffffffffffffffffffffffffffffffffffffffff021916908373ffffffffffffffffffffffffffffffffffffffff1602179055506001819080600181540180825580915050600190039060005260206000200160009091909190916101000a81548173ffffffffffffffffffffffffffffffffffffffff021916908373ffffffffffffffffffffffffffffffffffffffff1602179055506002329080600181540180825580915050600190039060005260206000200160009091909190916101000a81548173ffffffffffffffffffffffffffffffffffffffff021916908373ffffffffffffffffffffffffffffffffffffffff1602179055508260009080519060200190620003a5929190620003ee565b507f4c843084a6226eb2c3a056100c5d939cfe9708077c523e44f5a542711587ddbe83328484604051620003dd94939291906200069c565b60405180910390a150505062000a0a565b828054620003fc906200085d565b90600052602060002090601f0160209004810192826200042057600085556200046c565b82601f106200043b57805160ff19168380011785556200046c565b828001600101855582156200046c579182015b828111156200046b5782518255916020019190600101906200044e565b5b5090506200047b91906200047f565b5090565b5b808211156200049a57600081600090555060010162000480565b5090565b6000620004b5620004af84620007a1565b62000778565b905082815260208101848484011115620004d457620004d36200092c565b5b620004e184828562000827565b509392505050565b600081519050620004fa81620009f0565b92915050565b600082601f83011262000518576200051762000927565b5b81516200052a8482602086016200049e565b91505092915050565b6000806000606084860312156200054f576200054e62000936565b5b600084015167ffffffffffffffff81111562000570576200056f62000931565b5b6200057e8682870162000500565b93505060206200059186828701620004e9565b9250506040620005a486828701620004e9565b9150509250925092565b620005b981620007f3565b82525050565b6000620005cc82620007d7565b620005d88185620007e2565b9350620005ea81856020860162000827565b620005f5816200093b565b840191505092915050565b60006200060f601783620007e2565b91506200061c826200094c565b602082019050919050565b600062000636601383620007e2565b9150620006438262000975565b602082019050919050565b60006200065d601383620007e2565b91506200066a826200099e565b602082019050919050565b600062000684601783620007e2565b91506200069182620009c7565b602082019050919050565b60006080820190508181036000830152620006b88187620005bf565b9050620006c96020830186620005ae565b620006d86040830185620005ae565b620006e76060830184620005ae565b95945050505050565b600060208201905081810360008301526200070b8162000600565b9050919050565b600060208201905081810360008301526200072d8162000627565b9050919050565b600060208201905081810360008301526200074f816200064e565b9050919050565b60006020820190508181036000830152620007718162000675565b9050919050565b60006200078462000797565b905062000792828262000893565b919050565b6000604051905090565b600067ffffffffffffffff821115620007bf57620007be620008f8565b5b620007ca826200093b565b9050602081019050919050565b600081519050919050565b600082825260208201905092915050565b6000620008008262000807565b9050919050565b600073ffffffffffffffffffffffffffffffffffffffff82169050919050565b60005b83811015620008475780820151818401526020810190506200082a565b8381111562000857576000848401525b50505050565b600060028204905060018216806200087657607f821691505b602082108114156200088d576200088c620008c9565b5b50919050565b6200089e826200093b565b810181811067ffffffffffffffff82111715620008c057620008bf620008f8565b5b80604052505050565b7f4e487b7100000000000000000000000000000000000000000000000000000000600052602260045260246000fd5b7f4e487b7100000000000000000000000000000000000000000000000000000000600052604160045260246000fd5b600080fd5b600080fd5b600080fd5b600080fd5b6000601f19601f8301169050919050565b7f5f62206973206120696e76616c69642061646472657373000000000000000000600082015250565b7f5f622063616e206e6f7420766572696669657200000000000000000000000000600082015250565b7f5f612063616e206e6f7420766572696669657200000000000000000000000000600082015250565b7f5f61206973206120696e76616c69642061646472657373000000000000000000600082015250565b620009fb81620007f3565b811462000a0757600080fd5b50565b610b898062000a1a6000396000f3fe608060405234801561001057600080fd5b506004361061004c5760003560e01c80632ca15122146100515780633c68af3e1461006f578063596f21f81461008e57806363a9c3d7146100ae575b600080fd5b6100596100de565b6040516100669190610829565b60405180910390f35b61007761021e565b604051610085929190610844565b60405180910390f35b610096610346565b6040516100a593929190610874565b60405180910390f35b6100c860048036038101906100c3919061067d565b6104f8565b6040516100d59190610829565b60405180910390f35b60006100e93261050a565b610128576040517f08c379a000000000000000000000000000000000000000000000000000000000815260040161011f906108f0565b60405180910390fd5b610131326105b9565b15610179577f57bb3fead2451e6a3a5680e94e3dba9642a2ea6e850811bf18feccc94c5968a96000326040516101689291906108c0565b60405180910390a16001905061021b565b6002329080600181540180825580915050600190039060005260206000200160009091909190916101000a81548173ffffffffffffffffffffffffffffffffffffffff021916908373ffffffffffffffffffffffffffffffffffffffff1602179055507fb05e84f77f10ca9cd0a42f11422685a81fb7997e8c2500733527f8c2ee56ab2960003260405161020e9291906108c0565b60405180910390a1600190505b90565b6000606060005b6001805490508110156102ac576102796001828154811061024957610248610ace565b5b9060005260206000200160009054906101000a900473ffffffffffffffffffffffffffffffffffffffff166105b9565b610299576000604051806020016040528060008152509250925050610342565b80806102a490610a27565b915050610225565b50600160008080546102bd906109f5565b80601f01602080910402602001604051908101604052809291908181526020018280546102e9906109f5565b80156103365780601f1061030b57610100808354040283529160200191610336565b820191906000526020600020905b81548152906001019060200180831161031957829003601f168201915b50505050509050915091505b9091565b606080606060006001600282805461035d906109f5565b80601f0160208091040260200160405190810160405280929190818152602001828054610389906109f5565b80156103d65780601f106103ab576101008083540402835291602001916103d6565b820191906000526020600020905b8154815290600101906020018083116103b957829003601f168201915b505050505092508180548060200260200160405190810160405280929190818152602001828054801561045e57602002820191906000526020600020905b8160009054906101000a900473ffffffffffffffffffffffffffffffffffffffff1673ffffffffffffffffffffffffffffffffffffffff1681526020019060010190808311610414575b50505050509150808054806020026020016040519081016040528092919081815260200182805480156104e657602002820191906000526020600020905b8160009054906101000a900473ffffffffffffffffffffffffffffffffffffffff1673ffffffffffffffffffffffffffffffffffffffff168152602001906001019080831161049c575b50505050509050925092509250909192565b60006105038261050a565b9050919050565b600080600090505b6001805490508110156105ae578273ffffffffffffffffffffffffffffffffffffffff166001828154811061054a57610549610ace565b5b9060005260206000200160009054906101000a900473ffffffffffffffffffffffffffffffffffffffff1673ffffffffffffffffffffffffffffffffffffffff16141561059b5760019150506105b4565b80806105a690610a27565b915050610512565b50600090505b919050565b600080600090505b60028054905081101561065d578273ffffffffffffffffffffffffffffffffffffffff16600282815481106105f9576105f8610ace565b5b9060005260206000200160009054906101000a900473ffffffffffffffffffffffffffffffffffffffff1673ffffffffffffffffffffffffffffffffffffffff16141561064a576001915050610663565b808061065590610a27565b9150506105c1565b50600090505b919050565b60008135905061067781610b3c565b92915050565b60006020828403121561069357610692610afd565b5b60006106a184828501610668565b91505092915050565b60006106b683836106c2565b60208301905092915050565b6106cb8161097a565b82525050565b6106da8161097a565b82525050565b60006106eb82610935565b6106f58185610958565b935061070083610910565b8060005b8381101561073157815161071888826106aa565b97506107238361094b565b925050600181019050610704565b5085935050505092915050565b6107478161098c565b82525050565b600061075882610940565b6107628185610969565b93506107728185602086016109c2565b61077b81610b02565b840191505092915050565b60008154610793816109f5565b61079d8186610969565b945060018216600081146107b857600181146107ca576107fd565b60ff19831686526020860193506107fd565b6107d385610920565b60005b838110156107f5578154818901526001820191506020810190506107d6565b808801955050505b50505092915050565b6000610813601483610969565b915061081e82610b13565b602082019050919050565b600060208201905061083e600083018461073e565b92915050565b6000604082019050610859600083018561073e565b818103602083015261086b818461074d565b90509392505050565b6000606082019050818103600083015261088e818661074d565b905081810360208301526108a281856106e0565b905081810360408301526108b681846106e0565b9050949350505050565b600060408201905081810360008301526108da8185610786565b90506108e960208301846106d1565b9392505050565b6000602082019050818103600083015261090981610806565b9050919050565b6000819050602082019050919050565b60008190508160005260206000209050919050565b600081519050919050565b600081519050919050565b6000602082019050919050565b600082825260208201905092915050565b600082825260208201905092915050565b600061098582610998565b9050919050565b60008115159050919050565b600073ffffffffffffffffffffffffffffffffffffffff82169050919050565b6000819050919050565b60005b838110156109e05780820151818401526020810190506109c5565b838111156109ef576000848401525b50505050565b60006002820490506001821680610a0d57607f821691505b60208210811415610a2157610a20610a9f565b5b50919050565b6000610a32826109b8565b91507fffffffffffffffffffffffffffffffffffffffffffffffffffffffffffffffff821415610a6557610a64610a70565b5b600182019050919050565b7f4e487b7100000000000000000000000000000000000000000000000000000000600052601160045260246000fd5b7f4e487b7100000000000000000000000000000000000000000000000000000000600052602260045260246000fd5b7f4e487b7100000000000000000000000000000000000000000000000000000000600052603260045260246000fd5b600080fd5b6000601f19601f8301169050919050565b7f5f7369676e6572206973206e6f742076616c6964000000000000000000000000600082015250565b610b458161097a565b8114610b5057600080fd5b5056fea2646970667358221220dc39b950a7527fe6355f2c3042402253b10672eff9b5ff77457ad1f0627fb09364736f6c63430008070033a2646970667358221220c881bfe5d392a5b5c21684aca42a0666fe4c3ceff6222a3351a47ebb58e937a564736f6c63430008070033",
			"opcodes": "PUSH1 0x80 PUSH1 0x40 MSTORE CALLVALUE DUP1 ISZERO PUSH2 0x10 JUMPI PUSH1 0x0 DUP1 REVERT JUMPDEST POP PUSH2 0x239A DUP1 PUSH2 0x20 PUSH1 0x0 CODECOPY PUSH1 0x0 RETURN INVALID PUSH1 0x80 PUSH1 0x40 MSTORE CALLVALUE DUP1 ISZERO PUSH3 0x11 JUMPI PUSH1 0x0 DUP1 REVERT JUMPDEST POP PUSH1 0x4 CALLDATASIZE LT PUSH3 0x52 JUMPI PUSH1 0x0 CALLDATALOAD PUSH1 0xE0 SHR DUP1 PUSH4 0xBA3B728 EQ PUSH3 0x57 JUMPI DUP1 PUSH4 0x79D6348D EQ PUSH3 0x8E JUMPI DUP1 PUSH4 0x9A95DCF8 EQ PUSH3 0xC4 JUMPI DUP1 PUSH4 0xB16C6EE7 EQ PUSH3 0xFA JUMPI JUMPDEST PUSH1 0x0 DUP1 REVERT JUMPDEST PUSH3 0x75 PUSH1 0x4 DUP1 CALLDATASIZE SUB DUP2 ADD SWAP1 PUSH3 0x6F SWAP2 SWAP1 PUSH3 0x73A JUMP JUMPDEST PUSH3 0x132 JUMP JUMPDEST PUSH1 0x40 MLOAD PUSH3 0x85 SWAP3 SWAP2 SWAP1 PUSH3 0xA76 JUMP JUMPDEST PUSH1 0x40 MLOAD DUP1 SWAP2 SUB SWAP1 RETURN JUMPDEST PUSH3 0xAC PUSH1 0x4 DUP1 CALLDATASIZE SUB DUP2 ADD SWAP1 PUSH3 0xA6 SWAP2 SWAP1 PUSH3 0x73A JUMP JUMPDEST PUSH3 0x20B JUMP JUMPDEST PUSH1 0x40 MLOAD PUSH3 0xBB SWAP2 SWAP1 PUSH3 0xA59 JUMP JUMPDEST PUSH1 0x40 MLOAD DUP1 SWAP2 SUB SWAP1 RETURN JUMPDEST PUSH3 0xE2 PUSH1 0x4 DUP1 CALLDATASIZE SUB DUP2 ADD SWAP1 PUSH3 0xDC SWAP2 SWAP1 PUSH3 0x844 JUMP JUMPDEST PUSH3 0x2DD JUMP JUMPDEST PUSH1 0x40 MLOAD PUSH3 0xF1 SWAP2 SWAP1 PUSH3 0xA3C JUMP JUMPDEST PUSH1 0x40 MLOAD DUP1 SWAP2 SUB SWAP1 RETURN JUMPDEST PUSH3 0x118 PUSH1 0x4 DUP1 CALLDATASIZE SUB DUP2 ADD SWAP1 PUSH3 0x112 SWAP2 SWAP1 PUSH3 0x73A JUMP JUMPDEST PUSH3 0x3C7 JUMP JUMPDEST PUSH1 0x40 MLOAD PUSH3 0x129 SWAP4 SWAP3 SWAP2 SWAP1 PUSH3 0xAEE JUMP JUMPDEST PUSH1 0x40 MLOAD DUP1 SWAP2 SUB SWAP1 RETURN JUMPDEST PUSH1 0x0 PUSH1 0x60 PUSH1 0x0 DUP1 DUP5 PUSH1 0x40 MLOAD PUSH3 0x149 SWAP2 SWAP1 PUSH3 0xA23 JUMP JUMPDEST SWAP1 DUP2 MSTORE PUSH1 0x20 ADD PUSH1 0x40 MLOAD DUP1 SWAP2 SUB SWAP1 KECCAK256 PUSH1 0x0 SWAP1 SLOAD SWAP1 PUSH2 0x100 EXP SWAP1 DIV PUSH20 0xFFFFFFFFFFFFFFFFFFFFFFFFFFFFFFFFFFFFFFFF AND SWAP1 POP DUP1 PUSH20 0xFFFFFFFFFFFFFFFFFFFFFFFFFFFFFFFFFFFFFFFF AND PUSH4 0x3C68AF3E PUSH1 0x40 MLOAD DUP2 PUSH4 0xFFFFFFFF AND PUSH1 0xE0 SHL DUP2 MSTORE PUSH1 0x4 ADD PUSH1 0x0 PUSH1 0x40 MLOAD DUP1 DUP4 SUB DUP2 DUP7 DUP1 EXTCODESIZE ISZERO DUP1 ISZERO PUSH3 0x1C1 JUMPI PUSH1 0x0 DUP1 REVERT JUMPDEST POP GAS STATICCALL ISZERO DUP1 ISZERO PUSH3 0x1D6 JUMPI RETURNDATASIZE PUSH1 0x0 DUP1 RETURNDATACOPY RETURNDATASIZE PUSH1 0x0 REVERT JUMPDEST POP POP POP POP PUSH1 0x40 MLOAD RETURNDATASIZE PUSH1 0x0 DUP3 RETURNDATACOPY RETURNDATASIZE PUSH1 0x1F NOT PUSH1 0x1F DUP3 ADD AND DUP3 ADD DUP1 PUSH1 0x40 MSTORE POP DUP2 ADD SWAP1 PUSH3 0x201 SWAP2 SWAP1 PUSH3 0x6D4 JUMP JUMPDEST SWAP3 POP SWAP3 POP POP SWAP2 POP SWAP2 JUMP JUMPDEST PUSH1 0x0 DUP1 PUSH1 0x0 DUP4 PUSH1 0x40 MLOAD PUSH3 0x220 SWAP2 SWAP1 PUSH3 0xA23 JUMP JUMPDEST SWAP1 DUP2 MSTORE PUSH1 0x20 ADD PUSH1 0x40 MLOAD DUP1 SWAP2 SUB SWAP1 KECCAK256 PUSH1 0x0 SWAP1 SLOAD SWAP1 PUSH2 0x100 EXP SWAP1 DIV PUSH20 0xFFFFFFFFFFFFFFFFFFFFFFFFFFFFFFFFFFFFFFFF AND SWAP1 POP DUP1 PUSH20 0xFFFFFFFFFFFFFFFFFFFFFFFFFFFFFFFFFFFFFFFF AND PUSH4 0x2CA15122 PUSH1 0x40 MLOAD DUP2 PUSH4 0xFFFFFFFF AND PUSH1 0xE0 SHL DUP2 MSTORE PUSH1 0x4 ADD PUSH1 0x20 PUSH1 0x40 MLOAD DUP1 DUP4 SUB DUP2 PUSH1 0x0 DUP8 DUP1 EXTCODESIZE ISZERO DUP1 ISZERO PUSH3 0x29A JUMPI PUSH1 0x0 DUP1 REVERT JUMPDEST POP GAS CALL ISZERO DUP1 ISZERO PUSH3 0x2AF JUMPI RETURNDATASIZE PUSH1 0x0 DUP1 RETURNDATACOPY RETURNDATASIZE PUSH1 0x0 REVERT JUMPDEST POP POP POP POP PUSH1 0x40 MLOAD RETURNDATASIZE PUSH1 0x1F NOT PUSH1 0x1F DUP3 ADD AND DUP3 ADD DUP1 PUSH1 0x40 MSTORE POP DUP2 ADD SWAP1 PUSH3 0x2D5 SWAP2 SWAP1 PUSH3 0x6A2 JUMP JUMPDEST SWAP2 POP POP SWAP2 SWAP1 POP JUMP JUMPDEST PUSH1 0x0 DUP1 DUP6 DUP5 DUP5 PUSH1 0x40 MLOAD PUSH3 0x2F1 SWAP1 PUSH3 0x4A5 JUMP JUMPDEST PUSH3 0x2FF SWAP4 SWAP3 SWAP2 SWAP1 PUSH3 0xAAA JUMP JUMPDEST PUSH1 0x40 MLOAD DUP1 SWAP2 SUB SWAP1 PUSH1 0x0 CREATE DUP1 ISZERO DUP1 ISZERO PUSH3 0x31C JUMPI RETURNDATASIZE PUSH1 0x0 DUP1 RETURNDATACOPY RETURNDATASIZE PUSH1 0x0 REVERT JUMPDEST POP SWAP1 POP DUP1 PUSH1 0x0 DUP7 PUSH1 0x40 MLOAD PUSH3 0x332 SWAP2 SWAP1 PUSH3 0xA23 JUMP JUMPDEST SWAP1 DUP2 MSTORE PUSH1 0x20 ADD PUSH1 0x40 MLOAD DUP1 SWAP2 SUB SWAP1 KECCAK256 PUSH1 0x0 PUSH2 0x100 EXP DUP2 SLOAD DUP2 PUSH20 0xFFFFFFFFFFFFFFFFFFFFFFFFFFFFFFFFFFFFFFFF MUL NOT AND SWAP1 DUP4 PUSH20 0xFFFFFFFFFFFFFFFFFFFFFFFFFFFFFFFFFFFFFFFF AND MUL OR SWAP1 SSTORE POP PUSH32 0xB5C84AFEE52FA9DF10ABDC984D08D92B77189B82CE42C3D843623BE2D05B9624 DUP7 DUP7 CALLER PUSH1 0x40 MLOAD PUSH3 0x3B3 SWAP4 SWAP3 SWAP2 SWAP1 PUSH3 0xB40 JUMP JUMPDEST PUSH1 0x40 MLOAD DUP1 SWAP2 SUB SWAP1 LOG1 DUP1 SWAP2 POP POP SWAP5 SWAP4 POP POP POP POP JUMP JUMPDEST PUSH1 0x60 DUP1 PUSH1 0x60 PUSH1 0x0 DUP1 DUP6 PUSH1 0x40 MLOAD PUSH3 0x3DF SWAP2 SWAP1 PUSH3 0xA23 JUMP JUMPDEST SWAP1 DUP2 MSTORE PUSH1 0x20 ADD PUSH1 0x40 MLOAD DUP1 SWAP2 SUB SWAP1 KECCAK256 PUSH1 0x0 SWAP1 SLOAD SWAP1 PUSH2 0x100 EXP SWAP1 DIV PUSH20 0xFFFFFFFFFFFFFFFFFFFFFFFFFFFFFFFFFFFFFFFF AND SWAP1 POP DUP1 PUSH20 0xFFFFFFFFFFFFFFFFFFFFFFFFFFFFFFFFFFFFFFFF AND PUSH4 0x596F21F8 PUSH1 0x40 MLOAD DUP2 PUSH4 0xFFFFFFFF AND PUSH1 0xE0 SHL DUP2 MSTORE PUSH1 0x4 ADD PUSH1 0x0 PUSH1 0x40 MLOAD DUP1 DUP4 SUB DUP2 DUP7 DUP1 EXTCODESIZE ISZERO DUP1 ISZERO PUSH3 0x457 JUMPI PUSH1 0x0 DUP1 REVERT JUMPDEST POP GAS STATICCALL ISZERO DUP1 ISZERO PUSH3 0x46C JUMPI RETURNDATASIZE PUSH1 0x0 DUP1 RETURNDATACOPY RETURNDATASIZE PUSH1 0x0 REVERT JUMPDEST POP POP POP POP PUSH1 0x40 MLOAD RETURNDATASIZE PUSH1 0x0 DUP3 RETURNDATACOPY RETURNDATASIZE PUSH1 0x1F NOT PUSH1 0x1F DUP3 ADD AND DUP3 ADD DUP1 PUSH1 0x40 MSTORE POP DUP2 ADD SWAP1 PUSH3 0x497 SWAP2 SWAP1 PUSH3 0x78B JUMP JUMPDEST SWAP4 POP SWAP4 POP SWAP4 POP POP SWAP2 SWAP4 SWAP1 SWAP3 POP JUMP JUMPDEST PUSH2 0x15A3 DUP1 PUSH3 0xDC2 DUP4 CODECOPY ADD SWAP1 JUMP JUMPDEST PUSH1 0x0 PUSH3 0x4CA PUSH3 0x4C4 DUP5 PUSH3 0xBB4 JUMP JUMPDEST PUSH3 0xB8B JUMP JUMPDEST SWAP1 POP DUP1 DUP4 DUP3 MSTORE PUSH1 0x20 DUP3 ADD SWAP1 POP DUP3 DUP6 PUSH1 0x20 DUP7 MUL DUP3 ADD GT ISZERO PUSH3 0x4F0 JUMPI PUSH3 0x4EF PUSH3 0xD68 JUMP JUMPDEST JUMPDEST PUSH1 0x0 JUMPDEST DUP6 DUP2 LT ISZERO PUSH3 0x524 JUMPI DUP2 PUSH3 0x509 DUP9 DUP3 PUSH3 0x5DB JUMP JUMPDEST DUP5 MSTORE PUSH1 0x20 DUP5 ADD SWAP4 POP PUSH1 0x20 DUP4 ADD SWAP3 POP POP PUSH1 0x1 DUP2 ADD SWAP1 POP PUSH3 0x4F3 JUMP JUMPDEST POP POP POP SWAP4 SWAP3 POP POP POP JUMP JUMPDEST PUSH1 0x0 PUSH3 0x545 PUSH3 0x53F DUP5 PUSH3 0xBE3 JUMP JUMPDEST PUSH3 0xB8B JUMP JUMPDEST SWAP1 POP DUP3 DUP2 MSTORE PUSH1 0x20 DUP2 ADD DUP5 DUP5 DUP5 ADD GT ISZERO PUSH3 0x564 JUMPI PUSH3 0x563 PUSH3 0xD6D JUMP JUMPDEST JUMPDEST PUSH3 0x571 DUP5 DUP3 DUP6 PUSH3 0xCB9 JUMP JUMPDEST POP SWAP4 SWAP3 POP POP POP JUMP JUMPDEST PUSH1 0x0 PUSH3 0x590 PUSH3 0x58A DUP5 PUSH3 0xBE3 JUMP JUMPDEST PUSH3 0xB8B JUMP JUMPDEST SWAP1 POP DUP3 DUP2 MSTORE PUSH1 0x20 DUP2 ADD DUP5 DUP5 DUP5 ADD GT ISZERO PUSH3 0x5AF JUMPI PUSH3 0x5AE PUSH3 0xD6D JUMP JUMPDEST JUMPDEST PUSH3 0x5BC DUP5 DUP3 DUP6 PUSH3 0xCC8 JUMP JUMPDEST POP SWAP4 SWAP3 POP POP POP JUMP JUMPDEST PUSH1 0x0 DUP2 CALLDATALOAD SWAP1 POP PUSH3 0x5D5 DUP2 PUSH3 0xD8D JUMP JUMPDEST SWAP3 SWAP2 POP POP JUMP JUMPDEST PUSH1 0x0 DUP2 MLOAD SWAP1 POP PUSH3 0x5EC DUP2 PUSH3 0xD8D JUMP JUMPDEST SWAP3 SWAP2 POP POP JUMP JUMPDEST PUSH1 0x0 DUP3 PUSH1 0x1F DUP4 ADD SLT PUSH3 0x60A JUMPI PUSH3 0x609 PUSH3 0xD63 JUMP JUMPDEST JUMPDEST DUP2 MLOAD PUSH3 0x61C DUP5 DUP3 PUSH1 0x20 DUP7 ADD PUSH3 0x4B3 JUMP JUMPDEST SWAP2 POP POP SWAP3 SWAP2 POP POP JUMP JUMPDEST PUSH1 0x0 DUP2 MLOAD SWAP1 POP PUSH3 0x636 DUP2 PUSH3 0xDA7 JUMP JUMPDEST SWAP3 SWAP2 POP POP JUMP JUMPDEST PUSH1 0x0 DUP3 PUSH1 0x1F DUP4 ADD SLT PUSH3 0x654 JUMPI PUSH3 0x653 PUSH3 0xD63 JUMP JUMPDEST JUMPDEST DUP2 CALLDATALOAD PUSH3 0x666 DUP5 DUP3 PUSH1 0x20 DUP7 ADD PUSH3 0x52E JUMP JUMPDEST SWAP2 POP POP SWAP3 SWAP2 POP POP JUMP JUMPDEST PUSH1 0x0 DUP3 PUSH1 0x1F DUP4 ADD SLT PUSH3 0x687 JUMPI PUSH3 0x686 PUSH3 0xD63 JUMP JUMPDEST JUMPDEST DUP2 MLOAD PUSH3 0x699 DUP5 DUP3 PUSH1 0x20 DUP7 ADD PUSH3 0x579 JUMP JUMPDEST SWAP2 POP POP SWAP3 SWAP2 POP POP JUMP JUMPDEST PUSH1 0x0 PUSH1 0x20 DUP3 DUP5 SUB SLT ISZERO PUSH3 0x6BB JUMPI PUSH3 0x6BA PUSH3 0xD77 JUMP JUMPDEST JUMPDEST PUSH1 0x0 PUSH3 0x6CB DUP5 DUP3 DUP6 ADD PUSH3 0x625 JUMP JUMPDEST SWAP2 POP POP SWAP3 SWAP2 POP POP JUMP JUMPDEST PUSH1 0x0 DUP1 PUSH1 0x40 DUP4 DUP6 SUB SLT ISZERO PUSH3 0x6EE JUMPI PUSH3 0x6ED PUSH3 0xD77 JUMP JUMPDEST JUMPDEST PUSH1 0x0 PUSH3 0x6FE DUP6 DUP3 DUP7 ADD PUSH3 0x625 JUMP JUMPDEST SWAP3 POP POP PUSH1 0x20 DUP4 ADD MLOAD PUSH8 0xFFFFFFFFFFFFFFFF DUP2 GT ISZERO PUSH3 0x722 JUMPI PUSH3 0x721 PUSH3 0xD72 JUMP JUMPDEST JUMPDEST PUSH3 0x730 DUP6 DUP3 DUP7 ADD PUSH3 0x66F JUMP JUMPDEST SWAP2 POP POP SWAP3 POP SWAP3 SWAP1 POP JUMP JUMPDEST PUSH1 0x0 PUSH1 0x20 DUP3 DUP5 SUB SLT ISZERO PUSH3 0x753 JUMPI PUSH3 0x752 PUSH3 0xD77 JUMP JUMPDEST JUMPDEST PUSH1 0x0 DUP3 ADD CALLDATALOAD PUSH8 0xFFFFFFFFFFFFFFFF DUP2 GT ISZERO PUSH3 0x774 JUMPI PUSH3 0x773 PUSH3 0xD72 JUMP JUMPDEST JUMPDEST PUSH3 0x782 DUP5 DUP3 DUP6 ADD PUSH3 0x63C JUMP JUMPDEST SWAP2 POP POP SWAP3 SWAP2 POP POP JUMP JUMPDEST PUSH1 0x0 DUP1 PUSH1 0x0 PUSH1 0x60 DUP5 DUP7 SUB SLT ISZERO PUSH3 0x7A7 JUMPI PUSH3 0x7A6 PUSH3 0xD77 JUMP JUMPDEST JUMPDEST PUSH1 0x0 DUP5 ADD MLOAD PUSH8 0xFFFFFFFFFFFFFFFF DUP2 GT ISZERO PUSH3 0x7C8 JUMPI PUSH3 0x7C7 PUSH3 0xD72 JUMP JUMPDEST JUMPDEST PUSH3 0x7D6 DUP7 DUP3 DUP8 ADD PUSH3 0x66F JUMP JUMPDEST SWAP4 POP POP PUSH1 0x20 DUP5 ADD MLOAD PUSH8 0xFFFFFFFFFFFFFFFF DUP2 GT ISZERO PUSH3 0x7FA JUMPI PUSH3 0x7F9 PUSH3 0xD72 JUMP JUMPDEST JUMPDEST PUSH3 0x808 DUP7 DUP3 DUP8 ADD PUSH3 0x5F2 JUMP JUMPDEST SWAP3 POP POP PUSH1 0x40 DUP5 ADD MLOAD PUSH8 0xFFFFFFFFFFFFFFFF DUP2 GT ISZERO PUSH3 0x82C JUMPI PUSH3 0x82B PUSH3 0xD72 JUMP JUMPDEST JUMPDEST PUSH3 0x83A DUP7 DUP3 DUP8 ADD PUSH3 0x5F2 JUMP JUMPDEST SWAP2 POP POP SWAP3 POP SWAP3 POP SWAP3 JUMP JUMPDEST PUSH1 0x0 DUP1 PUSH1 0x0 DUP1 PUSH1 0x80 DUP6 DUP8 SUB SLT ISZERO PUSH3 0x861 JUMPI PUSH3 0x860 PUSH3 0xD77 JUMP JUMPDEST JUMPDEST PUSH1 0x0 DUP6 ADD CALLDATALOAD PUSH8 0xFFFFFFFFFFFFFFFF DUP2 GT ISZERO PUSH3 0x882 JUMPI PUSH3 0x881 PUSH3 0xD72 JUMP JUMPDEST JUMPDEST PUSH3 0x890 DUP8 DUP3 DUP9 ADD PUSH3 0x63C JUMP JUMPDEST SWAP5 POP POP PUSH1 0x20 DUP6 ADD CALLDATALOAD PUSH8 0xFFFFFFFFFFFFFFFF DUP2 GT ISZERO PUSH3 0x8B4 JUMPI PUSH3 0x8B3 PUSH3 0xD72 JUMP JUMPDEST JUMPDEST PUSH3 0x8C2 DUP8 DUP3 DUP9 ADD PUSH3 0x63C JUMP JUMPDEST SWAP4 POP POP PUSH1 0x40 PUSH3 0x8D5 DUP8 DUP3 DUP9 ADD PUSH3 0x5C4 JUMP JUMPDEST SWAP3 POP POP PUSH1 0x60 PUSH3 0x8E8 DUP8 DUP3 DUP9 ADD PUSH3 0x5C4 JUMP JUMPDEST SWAP2 POP POP SWAP3 SWAP6 SWAP2 SWAP5 POP SWAP3 POP JUMP JUMPDEST PUSH1 0x0 PUSH3 0x902 DUP4 DUP4 PUSH3 0x90E JUMP JUMPDEST PUSH1 0x20 DUP4 ADD SWAP1 POP SWAP3 SWAP2 POP POP JUMP JUMPDEST PUSH3 0x919 DUP2 PUSH3 0xC79 JUMP JUMPDEST DUP3 MSTORE POP POP JUMP JUMPDEST PUSH3 0x92A DUP2 PUSH3 0xC79 JUMP JUMPDEST DUP3 MSTORE POP POP JUMP JUMPDEST PUSH1 0x0 PUSH3 0x93D DUP3 PUSH3 0xC29 JUMP JUMPDEST PUSH3 0x949 DUP2 DUP6 PUSH3 0xC4C JUMP JUMPDEST SWAP4 POP PUSH3 0x956 DUP4 PUSH3 0xC19 JUMP JUMPDEST DUP1 PUSH1 0x0 JUMPDEST DUP4 DUP2 LT ISZERO PUSH3 0x98D JUMPI DUP2 MLOAD PUSH3 0x971 DUP9 DUP3 PUSH3 0x8F4 JUMP JUMPDEST SWAP8 POP PUSH3 0x97E DUP4 PUSH3 0xC3F JUMP JUMPDEST SWAP3 POP POP PUSH1 0x1 DUP2 ADD SWAP1 POP PUSH3 0x95A JUMP JUMPDEST POP DUP6 SWAP4 POP POP POP POP SWAP3 SWAP2 POP POP JUMP JUMPDEST PUSH3 0x9A5 DUP2 PUSH3 0xC8D JUMP JUMPDEST DUP3 MSTORE POP POP JUMP JUMPDEST PUSH1 0x0 PUSH3 0x9B8 DUP3 PUSH3 0xC34 JUMP JUMPDEST PUSH3 0x9C4 DUP2 DUP6 PUSH3 0xC5D JUMP JUMPDEST SWAP4 POP PUSH3 0x9D6 DUP2 DUP6 PUSH1 0x20 DUP7 ADD PUSH3 0xCC8 JUMP JUMPDEST PUSH3 0x9E1 DUP2 PUSH3 0xD7C JUMP JUMPDEST DUP5 ADD SWAP2 POP POP SWAP3 SWAP2 POP POP JUMP JUMPDEST PUSH1 0x0 PUSH3 0x9F9 DUP3 PUSH3 0xC34 JUMP JUMPDEST PUSH3 0xA05 DUP2 DUP6 PUSH3 0xC6E JUMP JUMPDEST SWAP4 POP PUSH3 0xA17 DUP2 DUP6 PUSH1 0x20 DUP7 ADD PUSH3 0xCC8 JUMP JUMPDEST DUP1 DUP5 ADD SWAP2 POP POP SWAP3 SWAP2 POP POP JUMP JUMPDEST PUSH1 0x0 PUSH3 0xA31 DUP3 DUP5 PUSH3 0x9EC JUMP JUMPDEST SWAP2 POP DUP2 SWAP1 POP SWAP3 SWAP2 POP POP JUMP JUMPDEST PUSH1 0x0 PUSH1 0x20 DUP3 ADD SWAP1 POP PUSH3 0xA53 PUSH1 0x0 DUP4 ADD DUP5 PUSH3 0x91F JUMP JUMPDEST SWAP3 SWAP2 POP POP JUMP JUMPDEST PUSH1 0x0 PUSH1 0x20 DUP3 ADD SWAP1 POP PUSH3 0xA70 PUSH1 0x0 DUP4 ADD DUP5 PUSH3 0x99A JUMP JUMPDEST SWAP3 SWAP2 POP POP JUMP JUMPDEST PUSH1 0x0 PUSH1 0x40 DUP3 ADD SWAP1 POP PUSH3 0xA8D PUSH1 0x0 DUP4 ADD DUP6 PUSH3 0x99A JUMP JUMPDEST DUP2 DUP2 SUB PUSH1 0x20 DUP4 ADD MSTORE PUSH3 0xAA1 DUP2 DUP5 PUSH3 0x9AB JUMP JUMPDEST SWAP1 POP SWAP4 SWAP3 POP POP POP JUMP JUMPDEST PUSH1 0x0 PUSH1 0x60 DUP3 ADD SWAP1 POP DUP2 DUP2 SUB PUSH1 0x0 DUP4 ADD MSTORE PUSH3 0xAC6 DUP2 DUP7 PUSH3 0x9AB JUMP JUMPDEST SWAP1 POP PUSH3 0xAD7 PUSH1 0x20 DUP4 ADD DUP6 PUSH3 0x91F JUMP JUMPDEST PUSH3 0xAE6 PUSH1 0x40 DUP4 ADD DUP5 PUSH3 0x91F JUMP JUMPDEST SWAP5 SWAP4 POP POP POP POP JUMP JUMPDEST PUSH1 0x0 PUSH1 0x60 DUP3 ADD SWAP1 POP DUP2 DUP2 SUB PUSH1 0x0 DUP4 ADD MSTORE PUSH3 0xB0A DUP2 DUP7 PUSH3 0x9AB JUMP JUMPDEST SWAP1 POP DUP2 DUP2 SUB PUSH1 0x20 DUP4 ADD MSTORE PUSH3 0xB20 DUP2 DUP6 PUSH3 0x930 JUMP JUMPDEST SWAP1 POP DUP2 DUP2 SUB PUSH1 0x40 DUP4 ADD MSTORE PUSH3 0xB36 DUP2 DUP5 PUSH3 0x930 JUMP JUMPDEST SWAP1 POP SWAP5 SWAP4 POP POP POP POP JUMP JUMPDEST PUSH1 0x0 PUSH1 0x60 DUP3 ADD SWAP1 POP DUP2 DUP2 SUB PUSH1 0x0 DUP4 ADD MSTORE PUSH3 0xB5C DUP2 DUP7 PUSH3 0x9AB JUMP JUMPDEST SWAP1 POP DUP2 DUP2 SUB PUSH1 0x20 DUP4 ADD MSTORE PUSH3 0xB72 DUP2 DUP6 PUSH3 0x9AB JUMP JUMPDEST SWAP1 POP PUSH3 0xB83 PUSH1 0x40 DUP4 ADD DUP5 PUSH3 0x91F JUMP JUMPDEST SWAP5 SWAP4 POP POP POP POP JUMP JUMPDEST PUSH1 0x0 PUSH3 0xB97 PUSH3 0xBAA JUMP JUMPDEST SWAP1 POP PUSH3 0xBA5 DUP3 DUP3 PUSH3 0xCFE JUMP JUMPDEST SWAP2 SWAP1 POP JUMP JUMPDEST PUSH1 0x0 PUSH1 0x40 MLOAD SWAP1 POP SWAP1 JUMP JUMPDEST PUSH1 0x0 PUSH8 0xFFFFFFFFFFFFFFFF DUP3 GT ISZERO PUSH3 0xBD2 JUMPI PUSH3 0xBD1 PUSH3 0xD34 JUMP JUMPDEST JUMPDEST PUSH1 0x20 DUP3 MUL SWAP1 POP PUSH1 0x20 DUP2 ADD SWAP1 POP SWAP2 SWAP1 POP JUMP JUMPDEST PUSH1 0x0 PUSH8 0xFFFFFFFFFFFFFFFF DUP3 GT ISZERO PUSH3 0xC01 JUMPI PUSH3 0xC00 PUSH3 0xD34 JUMP JUMPDEST JUMPDEST PUSH3 0xC0C DUP3 PUSH3 0xD7C JUMP JUMPDEST SWAP1 POP PUSH1 0x20 DUP2 ADD SWAP1 POP SWAP2 SWAP1 POP JUMP JUMPDEST PUSH1 0x0 DUP2 SWAP1 POP PUSH1 0x20 DUP3 ADD SWAP1 POP SWAP2 SWAP1 POP JUMP JUMPDEST PUSH1 0x0 DUP2 MLOAD SWAP1 POP SWAP2 SWAP1 POP JUMP JUMPDEST PUSH1 0x0 DUP2 MLOAD SWAP1 POP SWAP2 SWAP1 POP JUMP JUMPDEST PUSH1 0x0 PUSH1 0x20 DUP3 ADD SWAP1 POP SWAP2 SWAP1 POP JUMP JUMPDEST PUSH1 0x0 DUP3 DUP3 MSTORE PUSH1 0x20 DUP3 ADD SWAP1 POP SWAP3 SWAP2 POP POP JUMP JUMPDEST PUSH1 0x0 DUP3 DUP3 MSTORE PUSH1 0x20 DUP3 ADD SWAP1 POP SWAP3 SWAP2 POP POP JUMP JUMPDEST PUSH1 0x0 DUP2 SWAP1 POP SWAP3 SWAP2 POP POP JUMP JUMPDEST PUSH1 0x0 PUSH3 0xC86 DUP3 PUSH3 0xC99 JUMP JUMPDEST SWAP1 POP SWAP2 SWAP1 POP JUMP JUMPDEST PUSH1 0x0 DUP2 ISZERO ISZERO SWAP1 POP SWAP2 SWAP1 POP JUMP JUMPDEST PUSH1 0x0 PUSH20 0xFFFFFFFFFFFFFFFFFFFFFFFFFFFFFFFFFFFFFFFF DUP3 AND SWAP1 POP SWAP2 SWAP1 POP JUMP JUMPDEST DUP3 DUP2 DUP4 CALLDATACOPY PUSH1 0x0 DUP4 DUP4 ADD MSTORE POP POP POP JUMP JUMPDEST PUSH1 0x0 JUMPDEST DUP4 DUP2 LT ISZERO PUSH3 0xCE8 JUMPI DUP1 DUP3 ADD MLOAD DUP2 DUP5 ADD MSTORE PUSH1 0x20 DUP2 ADD SWAP1 POP PUSH3 0xCCB JUMP JUMPDEST DUP4 DUP2 GT ISZERO PUSH3 0xCF8 JUMPI PUSH1 0x0 DUP5 DUP5 ADD MSTORE JUMPDEST POP POP POP POP JUMP JUMPDEST PUSH3 0xD09 DUP3 PUSH3 0xD7C JUMP JUMPDEST DUP2 ADD DUP2 DUP2 LT PUSH8 0xFFFFFFFFFFFFFFFF DUP3 GT OR ISZERO PUSH3 0xD2B JUMPI PUSH3 0xD2A PUSH3 0xD34 JUMP JUMPDEST JUMPDEST DUP1 PUSH1 0x40 MSTORE POP POP POP JUMP JUMPDEST PUSH32 0x4E487B7100000000000000000000000000000000000000000000000000000000 PUSH1 0x0 MSTORE PUSH1 0x41 PUSH1 0x4 MSTORE PUSH1 0x24 PUSH1 0x0 REVERT JUMPDEST PUSH1 0x0 DUP1 REVERT JUMPDEST PUSH1 0x0 DUP1 REVERT JUMPDEST PUSH1 0x0 DUP1 REVERT JUMPDEST PUSH1 0x0 DUP1 REVERT JUMPDEST PUSH1 0x0 DUP1 REVERT JUMPDEST PUSH1 0x0 PUSH1 0x1F NOT PUSH1 0x1F DUP4 ADD AND SWAP1 POP SWAP2 SWAP1 POP JUMP JUMPDEST PUSH3 0xD98 DUP2 PUSH3 0xC79 JUMP JUMPDEST DUP2 EQ PUSH3 0xDA4 JUMPI PUSH1 0x0 DUP1 REVERT JUMPDEST POP JUMP JUMPDEST PUSH3 0xDB2 DUP2 PUSH3 0xC8D JUMP JUMPDEST DUP2 EQ PUSH3 0xDBE JUMPI PUSH1 0x0 DUP1 REVERT JUMPDEST POP JUMP INVALID PUSH1 0x80 PUSH1 0x40 MSTORE CALLVALUE DUP1 ISZERO PUSH3 0x11 JUMPI PUSH1 0x0 DUP1 REVERT JUMPDEST POP PUSH1 0x40 MLOAD PUSH3 0x15A3 CODESIZE SUB DUP1 PUSH3 0x15A3 DUP4 CODECOPY DUP2 DUP2 ADD PUSH1 0x40 MSTORE DUP2 ADD SWAP1 PUSH3 0x37 SWAP2 SWAP1 PUSH3 0x533 JUMP JUMPDEST DUP2 PUSH20 0xFFFFFFFFFFFFFFFFFFFFFFFFFFFFFFFFFFFFFFFF AND PUSH1 0x0 PUSH20 0xFFFFFFFFFFFFFFFFFFFFFFFFFFFFFFFFFFFFFFFF AND EQ ISZERO PUSH3 0xAA JUMPI PUSH1 0x40 MLOAD PUSH32 0x8C379A000000000000000000000000000000000000000000000000000000000 DUP2 MSTORE PUSH1 0x4 ADD PUSH3 0xA1 SWAP1 PUSH3 0x756 JUMP JUMPDEST PUSH1 0x40 MLOAD DUP1 SWAP2 SUB SWAP1 REVERT JUMPDEST DUP1 PUSH20 0xFFFFFFFFFFFFFFFFFFFFFFFFFFFFFFFFFFFFFFFF AND PUSH1 0x0 PUSH20 0xFFFFFFFFFFFFFFFFFFFFFFFFFFFFFFFFFFFFFFFF AND EQ ISZERO PUSH3 0x11D JUMPI PUSH1 0x40 MLOAD PUSH32 0x8C379A000000000000000000000000000000000000000000000000000000000 DUP2 MSTORE PUSH1 0x4 ADD PUSH3 0x114 SWAP1 PUSH3 0x6F0 JUMP JUMPDEST PUSH1 0x40 MLOAD DUP1 SWAP2 SUB SWAP1 REVERT JUMPDEST ORIGIN PUSH20 0xFFFFFFFFFFFFFFFFFFFFFFFFFFFFFFFFFFFFFFFF AND DUP3 PUSH20 0xFFFFFFFFFFFFFFFFFFFFFFFFFFFFFFFFFFFFFFFF AND EQ ISZERO PUSH3 0x18F JUMPI PUSH1 0x40 MLOAD PUSH32 0x8C379A000000000000000000000000000000000000000000000000000000000 DUP2 MSTORE PUSH1 0x4 ADD PUSH3 0x186 SWAP1 PUSH3 0x734 JUMP JUMPDEST PUSH1 0x40 MLOAD DUP1 SWAP2 SUB SWAP1 REVERT JUMPDEST ORIGIN PUSH20 0xFFFFFFFFFFFFFFFFFFFFFFFFFFFFFFFFFFFFFFFF AND DUP2 PUSH20 0xFFFFFFFFFFFFFFFFFFFFFFFFFFFFFFFFFFFFFFFF AND EQ ISZERO PUSH3 0x201 JUMPI PUSH1 0x40 MLOAD PUSH32 0x8C379A000000000000000000000000000000000000000000000000000000000 DUP2 MSTORE PUSH1 0x4 ADD PUSH3 0x1F8 SWAP1 PUSH3 0x712 JUMP JUMPDEST PUSH1 0x40 MLOAD DUP1 SWAP2 SUB SWAP1 REVERT JUMPDEST PUSH1 0x1 ORIGIN SWAP1 DUP1 PUSH1 0x1 DUP2 SLOAD ADD DUP1 DUP3 SSTORE DUP1 SWAP2 POP POP PUSH1 0x1 SWAP1 SUB SWAP1 PUSH1 0x0 MSTORE PUSH1 0x20 PUSH1 0x0 KECCAK256 ADD PUSH1 0x0 SWAP1 SWAP2 SWAP1 SWAP2 SWAP1 SWAP2 PUSH2 0x100 EXP DUP2 SLOAD DUP2 PUSH20 0xFFFFFFFFFFFFFFFFFFFFFFFFFFFFFFFFFFFFFFFF MUL NOT AND SWAP1 DUP4 PUSH20 0xFFFFFFFFFFFFFFFFFFFFFFFFFFFFFFFFFFFFFFFF AND MUL OR SWAP1 SSTORE POP PUSH1 0x1 DUP3 SWAP1 DUP1 PUSH1 0x1 DUP2 SLOAD ADD DUP1 DUP3 SSTORE DUP1 SWAP2 POP POP PUSH1 0x1 SWAP1 SUB SWAP1 PUSH1 0x0 MSTORE PUSH1 0x20 PUSH1 0x0 KECCAK256 ADD PUSH1 0x0 SWAP1 SWAP2 SWAP1 SWAP2 SWAP1 SWAP2 PUSH2 0x100 EXP DUP2 SLOAD DUP2 PUSH20 0xFFFFFFFFFFFFFFFFFFFFFFFFFFFFFFFFFFFFFFFF MUL NOT AND SWAP1 DUP4 PUSH20 0xFFFFFFFFFFFFFFFFFFFFFFFFFFFFFFFFFFFFFFFF AND MUL OR SWAP1 SSTORE POP PUSH1 0x1 DUP2 SWAP1 DUP1 PUSH1 0x1 DUP2 SLOAD ADD DUP1 DUP3 SSTORE DUP1 SWAP2 POP POP PUSH1 0x1 SWAP1 SUB SWAP1 PUSH1 0x0 MSTORE PUSH1 0x20 PUSH1 0x0 KECCAK256 ADD PUSH1 0x0 SWAP1 SWAP2 SWAP1 SWAP2 SWAP1 SWAP2 PUSH2 0x100 EXP DUP2 SLOAD DUP2 PUSH20 0xFFFFFFFFFFFFFFFFFFFFFFFFFFFFFFFFFFFFFFFF MUL NOT AND SWAP1 DUP4 PUSH20 0xFFFFFFFFFFFFFFFFFFFFFFFFFFFFFFFFFFFFFFFF AND MUL OR SWAP1 SSTORE POP PUSH1 0x2 ORIGIN SWAP1 DUP1 PUSH1 0x1 DUP2 SLOAD ADD DUP1 DUP3 SSTORE DUP1 SWAP2 POP POP PUSH1 0x1 SWAP1 SUB SWAP1 PUSH1 0x0 MSTORE PUSH1 0x20 PUSH1 0x0 KECCAK256 ADD PUSH1 0x0 SWAP1 SWAP2 SWAP1 SWAP2 SWAP1 SWAP2 PUSH2 0x100 EXP DUP2 SLOAD DUP2 PUSH20 0xFFFFFFFFFFFFFFFFFFFFFFFFFFFFFFFFFFFFFFFF MUL NOT AND SWAP1 DUP4 PUSH20 0xFFFFFFFFFFFFFFFFFFFFFFFFFFFFFFFFFFFFFFFF AND MUL OR SWAP1 SSTORE POP DUP3 PUSH1 0x0 SWAP1 DUP1 MLOAD SWAP1 PUSH1 0x20 ADD SWAP1 PUSH3 0x3A5 SWAP3 SWAP2 SWAP1 PUSH3 0x3EE JUMP JUMPDEST POP PUSH32 0x4C843084A6226EB2C3A056100C5D939CFE9708077C523E44F5A542711587DDBE DUP4 ORIGIN DUP5 DUP5 PUSH1 0x40 MLOAD PUSH3 0x3DD SWAP5 SWAP4 SWAP3 SWAP2 SWAP1 PUSH3 0x69C JUMP JUMPDEST PUSH1 0x40 MLOAD DUP1 SWAP2 SUB SWAP1 LOG1 POP POP POP PUSH3 0xA0A JUMP JUMPDEST DUP3 DUP1 SLOAD PUSH3 0x3FC SWAP1 PUSH3 0x85D JUMP JUMPDEST SWAP1 PUSH1 0x0 MSTORE PUSH1 0x20 PUSH1 0x0 KECCAK256 SWAP1 PUSH1 0x1F ADD PUSH1 0x20 SWAP1 DIV DUP2 ADD SWAP3 DUP3 PUSH3 0x420 JUMPI PUSH1 0x0 DUP6 SSTORE PUSH3 0x46C JUMP JUMPDEST DUP3 PUSH1 0x1F LT PUSH3 0x43B JUMPI DUP1 MLOAD PUSH1 0xFF NOT AND DUP4 DUP1 ADD OR DUP6 SSTORE PUSH3 0x46C JUMP JUMPDEST DUP3 DUP1 ADD PUSH1 0x1 ADD DUP6 SSTORE DUP3 ISZERO PUSH3 0x46C JUMPI SWAP2 DUP3 ADD JUMPDEST DUP3 DUP2 GT ISZERO PUSH3 0x46B JUMPI DUP3 MLOAD DUP3 SSTORE SWAP2 PUSH1 0x20 ADD SWAP2 SWAP1 PUSH1 0x1 ADD SWAP1 PUSH3 0x44E JUMP JUMPDEST JUMPDEST POP SWAP1 POP PUSH3 0x47B SWAP2 SWAP1 PUSH3 0x47F JUMP JUMPDEST POP SWAP1 JUMP JUMPDEST JUMPDEST DUP1 DUP3 GT ISZERO PUSH3 0x49A JUMPI PUSH1 0x0 DUP2 PUSH1 0x0 SWAP1 SSTORE POP PUSH1 0x1 ADD PUSH3 0x480 JUMP JUMPDEST POP SWAP1 JUMP JUMPDEST PUSH1 0x0 PUSH3 0x4B5 PUSH3 0x4AF DUP5 PUSH3 0x7A1 JUMP JUMPDEST PUSH3 0x778 JUMP JUMPDEST SWAP1 POP DUP3 DUP2 MSTORE PUSH1 0x20 DUP2 ADD DUP5 DUP5 DUP5 ADD GT ISZERO PUSH3 0x4D4 JUMPI PUSH3 0x4D3 PUSH3 0x92C JUMP JUMPDEST JUMPDEST PUSH3 0x4E1 DUP5 DUP3 DUP6 PUSH3 0x827 JUMP JUMPDEST POP SWAP4 SWAP3 POP POP POP JUMP JUMPDEST PUSH1 0x0 DUP2 MLOAD SWAP1 POP PUSH3 0x4FA DUP2 PUSH3 0x9F0 JUMP JUMPDEST SWAP3 SWAP2 POP POP JUMP JUMPDEST PUSH1 0x0 DUP3 PUSH1 0x1F DUP4 ADD SLT PUSH3 0x518 JUMPI PUSH3 0x517 PUSH3 0x927 JUMP JUMPDEST JUMPDEST DUP2 MLOAD PUSH3 0x52A DUP5 DUP3 PUSH1 0x20 DUP7 ADD PUSH3 0x49E JUMP JUMPDEST SWAP2 POP POP SWAP3 SWAP2 POP POP JUMP JUMPDEST PUSH1 0x0 DUP1 PUSH1 0x0 PUSH1 0x60 DUP5 DUP7 SUB SLT ISZERO PUSH3 0x54F JUMPI PUSH3 0x54E PUSH3 0x936 JUMP JUMPDEST JUMPDEST PUSH1 0x0 DUP5 ADD MLOAD PUSH8 0xFFFFFFFFFFFFFFFF DUP2 GT ISZERO PUSH3 0x570 JUMPI PUSH3 0x56F PUSH3 0x931 JUMP JUMPDEST JUMPDEST PUSH3 0x57E DUP7 DUP3 DUP8 ADD PUSH3 0x500 JUMP JUMPDEST SWAP4 POP POP PUSH1 0x20 PUSH3 0x591 DUP7 DUP3 DUP8 ADD PUSH3 0x4E9 JUMP JUMPDEST SWAP3 POP POP PUSH1 0x40 PUSH3 0x5A4 DUP7 DUP3 DUP8 ADD PUSH3 0x4E9 JUMP JUMPDEST SWAP2 POP POP SWAP3 POP SWAP3 POP SWAP3 JUMP JUMPDEST PUSH3 0x5B9 DUP2 PUSH3 0x7F3 JUMP JUMPDEST DUP3 MSTORE POP POP JUMP JUMPDEST PUSH1 0x0 PUSH3 0x5CC DUP3 PUSH3 0x7D7 JUMP JUMPDEST PUSH3 0x5D8 DUP2 DUP6 PUSH3 0x7E2 JUMP JUMPDEST SWAP4 POP PUSH3 0x5EA DUP2 DUP6 PUSH1 0x20 DUP7 ADD PUSH3 0x827 JUMP JUMPDEST PUSH3 0x5F5 DUP2 PUSH3 0x93B JUMP JUMPDEST DUP5 ADD SWAP2 POP POP SWAP3 SWAP2 POP POP JUMP JUMPDEST PUSH1 0x0 PUSH3 0x60F PUSH1 0x17 DUP4 PUSH3 0x7E2 JUMP JUMPDEST SWAP2 POP PUSH3 0x61C DUP3 PUSH3 0x94C JUMP JUMPDEST PUSH1 0x20 DUP3 ADD SWAP1 POP SWAP2 SWAP1 POP JUMP JUMPDEST PUSH1 0x0 PUSH3 0x636 PUSH1 0x13 DUP4 PUSH3 0x7E2 JUMP JUMPDEST SWAP2 POP PUSH3 0x643 DUP3 PUSH3 0x975 JUMP JUMPDEST PUSH1 0x20 DUP3 ADD SWAP1 POP SWAP2 SWAP1 POP JUMP JUMPDEST PUSH1 0x0 PUSH3 0x65D PUSH1 0x13 DUP4 PUSH3 0x7E2 JUMP JUMPDEST SWAP2 POP PUSH3 0x66A DUP3 PUSH3 0x99E JUMP JUMPDEST PUSH1 0x20 DUP3 ADD SWAP1 POP SWAP2 SWAP1 POP JUMP JUMPDEST PUSH1 0x0 PUSH3 0x684 PUSH1 0x17 DUP4 PUSH3 0x7E2 JUMP JUMPDEST SWAP2 POP PUSH3 0x691 DUP3 PUSH3 0x9C7 JUMP JUMPDEST PUSH1 0x20 DUP3 ADD SWAP1 POP SWAP2 SWAP1 POP JUMP JUMPDEST PUSH1 0x0 PUSH1 0x80 DUP3 ADD SWAP1 POP DUP2 DUP2 SUB PUSH1 0x0 DUP4 ADD MSTORE PUSH3 0x6B8 DUP2 DUP8 PUSH3 0x5BF JUMP JUMPDEST SWAP1 POP PUSH3 0x6C9 PUSH1 0x20 DUP4 ADD DUP7 PUSH3 0x5AE JUMP JUMPDEST PUSH3 0x6D8 PUSH1 0x40 DUP4 ADD DUP6 PUSH3 0x5AE JUMP JUMPDEST PUSH3 0x6E7 PUSH1 0x60 DUP4 ADD DUP5 PUSH3 0x5AE JUMP JUMPDEST SWAP6 SWAP5 POP POP POP POP POP JUMP JUMPDEST PUSH1 0x0 PUSH1 0x20 DUP3 ADD SWAP1 POP DUP2 DUP2 SUB PUSH1 0x0 DUP4 ADD MSTORE PUSH3 0x70B DUP2 PUSH3 0x600 JUMP JUMPDEST SWAP1 POP SWAP2 SWAP1 POP JUMP JUMPDEST PUSH1 0x0 PUSH1 0x20 DUP3 ADD SWAP1 POP DUP2 DUP2 SUB PUSH1 0x0 DUP4 ADD MSTORE PUSH3 0x72D DUP2 PUSH3 0x627 JUMP JUMPDEST SWAP1 POP SWAP2 SWAP1 POP JUMP JUMPDEST PUSH1 0x0 PUSH1 0x20 DUP3 ADD SWAP1 POP DUP2 DUP2 SUB PUSH1 0x0 DUP4 ADD MSTORE PUSH3 0x74F DUP2 PUSH3 0x64E JUMP JUMPDEST SWAP1 POP SWAP2 SWAP1 POP JUMP JUMPDEST PUSH1 0x0 PUSH1 0x20 DUP3 ADD SWAP1 POP DUP2 DUP2 SUB PUSH1 0x0 DUP4 ADD MSTORE PUSH3 0x771 DUP2 PUSH3 0x675 JUMP JUMPDEST SWAP1 POP SWAP2 SWAP1 POP JUMP JUMPDEST PUSH1 0x0 PUSH3 0x784 PUSH3 0x797 JUMP JUMPDEST SWAP1 POP PUSH3 0x792 DUP3 DUP3 PUSH3 0x893 JUMP JUMPDEST SWAP2 SWAP1 POP JUMP JUMPDEST PUSH1 0x0 PUSH1 0x40 MLOAD SWAP1 POP SWAP1 JUMP JUMPDEST PUSH1 0x0 PUSH8 0xFFFFFFFFFFFFFFFF DUP3 GT ISZERO PUSH3 0x7BF JUMPI PUSH3 0x7BE PUSH3 0x8F8 JUMP JUMPDEST JUMPDEST PUSH3 0x7CA DUP3 PUSH3 0x93B JUMP JUMPDEST SWAP1 POP PUSH1 0x20 DUP2 ADD SWAP1 POP SWAP2 SWAP1 POP JUMP JUMPDEST PUSH1 0x0 DUP2 MLOAD SWAP1 POP SWAP2 SWAP1 POP JUMP JUMPDEST PUSH1 0x0 DUP3 DUP3 MSTORE PUSH1 0x20 DUP3 ADD SWAP1 POP SWAP3 SWAP2 POP POP JUMP JUMPDEST PUSH1 0x0 PUSH3 0x800 DUP3 PUSH3 0x807 JUMP JUMPDEST SWAP1 POP SWAP2 SWAP1 POP JUMP JUMPDEST PUSH1 0x0 PUSH20 0xFFFFFFFFFFFFFFFFFFFFFFFFFFFFFFFFFFFFFFFF DUP3 AND SWAP1 POP SWAP2 SWAP1 POP JUMP JUMPDEST PUSH1 0x0 JUMPDEST DUP4 DUP2 LT ISZERO PUSH3 0x847 JUMPI DUP1 DUP3 ADD MLOAD DUP2 DUP5 ADD MSTORE PUSH1 0x20 DUP2 ADD SWAP1 POP PUSH3 0x82A JUMP JUMPDEST DUP4 DUP2 GT ISZERO PUSH3 0x857 JUMPI PUSH1 0x0 DUP5 DUP5 ADD MSTORE JUMPDEST POP POP POP POP JUMP JUMPDEST PUSH1 0x0 PUSH1 0x2 DUP3 DIV SWAP1 POP PUSH1 0x1 DUP3 AND DUP1 PUSH3 0x876 JUMPI PUSH1 0x7F DUP3 AND SWAP2 POP JUMPDEST PUSH1 0x20 DUP3 LT DUP2 EQ ISZERO PUSH3 0x88D JUMPI PUSH3 0x88C PUSH3 0x8C9 JUMP JUMPDEST JUMPDEST POP SWAP2 SWAP1 POP JUMP JUMPDEST PUSH3 0x89E DUP3 PUSH3 0x93B JUMP JUMPDEST DUP2 ADD DUP2 DUP2 LT PUSH8 0xFFFFFFFFFFFFFFFF DUP3 GT OR ISZERO PUSH3 0x8C0 JUMPI PUSH3 0x8BF PUSH3 0x8F8 JUMP JUMPDEST JUMPDEST DUP1 PUSH1 0x40 MSTORE POP POP POP JUMP JUMPDEST PUSH32 0x4E487B7100000000000000000000000000000000000000000000000000000000 PUSH1 0x0 MSTORE PUSH1 0x22 PUSH1 0x4 MSTORE PUSH1 0x24 PUSH1 0x0 REVERT JUMPDEST PUSH32 0x4E487B7100000000000000000000000000000000000000000000000000000000 PUSH1 0x0 MSTORE PUSH1 0x41 PUSH1 0x4 MSTORE PUSH1 0x24 PUSH1 0x0 REVERT JUMPDEST PUSH1 0x0 DUP1 REVERT JUMPDEST PUSH1 0x0 DUP1 REVERT JUMPDEST PUSH1 0x0 DUP1 REVERT JUMPDEST PUSH1 0x0 DUP1 REVERT JUMPDEST PUSH1 0x0 PUSH1 0x1F NOT PUSH1 0x1F DUP4 ADD AND SWAP1 POP SWAP2 SWAP1 POP JUMP JUMPDEST PUSH32 0x5F62206973206120696E76616C69642061646472657373000000000000000000 PUSH1 0x0 DUP3 ADD MSTORE POP JUMP JUMPDEST PUSH32 0x5F622063616E206E6F7420766572696669657200000000000000000000000000 PUSH1 0x0 DUP3 ADD MSTORE POP JUMP JUMPDEST PUSH32 0x5F612063616E206E6F7420766572696669657200000000000000000000000000 PUSH1 0x0 DUP3 ADD MSTORE POP JUMP JUMPDEST PUSH32 0x5F61206973206120696E76616C69642061646472657373000000000000000000 PUSH1 0x0 DUP3 ADD MSTORE POP JUMP JUMPDEST PUSH3 0x9FB DUP2 PUSH3 0x7F3 JUMP JUMPDEST DUP2 EQ PUSH3 0xA07 JUMPI PUSH1 0x0 DUP1 REVERT JUMPDEST POP JUMP JUMPDEST PUSH2 0xB89 DUP1 PUSH3 0xA1A PUSH1 0x0 CODECOPY PUSH1 0x0 RETURN INVALID PUSH1 0x80 PUSH1 0x40 MSTORE CALLVALUE DUP1 ISZERO PUSH2 0x10 JUMPI PUSH1 0x0 DUP1 REVERT JUMPDEST POP PUSH1 0x4 CALLDATASIZE LT PUSH2 0x4C JUMPI PUSH1 0x0 CALLDATALOAD PUSH1 0xE0 SHR DUP1 PUSH4 0x2CA15122 EQ PUSH2 0x51 JUMPI DUP1 PUSH4 0x3C68AF3E EQ PUSH2 0x6F JUMPI DUP1 PUSH4 0x596F21F8 EQ PUSH2 0x8E JUMPI DUP1 PUSH4 0x63A9C3D7 EQ PUSH2 0xAE JUMPI JUMPDEST PUSH1 0x0 DUP1 REVERT JUMPDEST PUSH2 0x59 PUSH2 0xDE JUMP JUMPDEST PUSH1 0x40 MLOAD PUSH2 0x66 SWAP2 SWAP1 PUSH2 0x829 JUMP JUMPDEST PUSH1 0x40 MLOAD DUP1 SWAP2 SUB SWAP1 RETURN JUMPDEST PUSH2 0x77 PUSH2 0x21E JUMP JUMPDEST PUSH1 0x40 MLOAD PUSH2 0x85 SWAP3 SWAP2 SWAP1 PUSH2 0x844 JUMP JUMPDEST PUSH1 0x40 MLOAD DUP1 SWAP2 SUB SWAP1 RETURN JUMPDEST PUSH2 0x96 PUSH2 0x346 JUMP JUMPDEST PUSH1 0x40 MLOAD PUSH2 0xA5 SWAP4 SWAP3 SWAP2 SWAP1 PUSH2 0x874 JUMP JUMPDEST PUSH1 0x40 MLOAD DUP1 SWAP2 SUB SWAP1 RETURN JUMPDEST PUSH2 0xC8 PUSH1 0x4 DUP1 CALLDATASIZE SUB DUP2 ADD SWAP1 PUSH2 0xC3 SWAP2 SWAP1 PUSH2 0x67D JUMP JUMPDEST PUSH2 0x4F8 JUMP JUMPDEST PUSH1 0x40 MLOAD PUSH2 0xD5 SWAP2 SWAP1 PUSH2 0x829 JUMP JUMPDEST PUSH1 0x40 MLOAD DUP1 SWAP2 SUB SWAP1 RETURN JUMPDEST PUSH1 0x0 PUSH2 0xE9 ORIGIN PUSH2 0x50A JUMP JUMPDEST PUSH2 0x128 JUMPI PUSH1 0x40 MLOAD PUSH32 0x8C379A000000000000000000000000000000000000000000000000000000000 DUP2 MSTORE PUSH1 0x4 ADD PUSH2 0x11F SWAP1 PUSH2 0x8F0 JUMP JUMPDEST PUSH1 0x40 MLOAD DUP1 SWAP2 SUB SWAP1 REVERT JUMPDEST PUSH2 0x131 ORIGIN PUSH2 0x5B9 JUMP JUMPDEST ISZERO PUSH2 0x179 JUMPI PUSH32 0x57BB3FEAD2451E6A3A5680E94E3DBA9642A2EA6E850811BF18FECCC94C5968A9 PUSH1 0x0 ORIGIN PUSH1 0x40 MLOAD PUSH2 0x168 SWAP3 SWAP2 SWAP1 PUSH2 0x8C0 JUMP JUMPDEST PUSH1 0x40 MLOAD DUP1 SWAP2 SUB SWAP1 LOG1 PUSH1 0x1 SWAP1 POP PUSH2 0x21B JUMP JUMPDEST PUSH1 0x2 ORIGIN SWAP1 DUP1 PUSH1 0x1 DUP2 SLOAD ADD DUP1 DUP3 SSTORE DUP1 SWAP2 POP POP PUSH1 0x1 SWAP1 SUB SWAP1 PUSH1 0x0 MSTORE PUSH1 0x20 PUSH1 0x0 KECCAK256 ADD PUSH1 0x0 SWAP1 SWAP2 SWAP1 SWAP2 SWAP1 SWAP2 PUSH2 0x100 EXP DUP2 SLOAD DUP2 PUSH20 0xFFFFFFFFFFFFFFFFFFFFFFFFFFFFFFFFFFFFFFFF MUL NOT AND SWAP1 DUP4 PUSH20 0xFFFFFFFFFFFFFFFFFFFFFFFFFFFFFFFFFFFFFFFF AND MUL OR SWAP1 SSTORE POP PUSH32 0xB05E84F77F10CA9CD0A42F11422685A81FB7997E8C2500733527F8C2EE56AB29 PUSH1 0x0 ORIGIN PUSH1 0x40 MLOAD PUSH2 0x20E SWAP3 SWAP2 SWAP1 PUSH2 0x8C0 JUMP JUMPDEST PUSH1 0x40 MLOAD DUP1 SWAP2 SUB SWAP1 LOG1 PUSH1 0x1 SWAP1 POP JUMPDEST SWAP1 JUMP JUMPDEST PUSH1 0x0 PUSH1 0x60 PUSH1 0x0 JUMPDEST PUSH1 0x1 DUP1 SLOAD SWAP1 POP DUP2 LT ISZERO PUSH2 0x2AC JUMPI PUSH2 0x279 PUSH1 0x1 DUP3 DUP2 SLOAD DUP2 LT PUSH2 0x249 JUMPI PUSH2 0x248 PUSH2 0xACE JUMP JUMPDEST JUMPDEST SWAP1 PUSH1 0x0 MSTORE PUSH1 0x20 PUSH1 0x0 KECCAK256 ADD PUSH1 0x0 SWAP1 SLOAD SWAP1 PUSH2 0x100 EXP SWAP1 DIV PUSH20 0xFFFFFFFFFFFFFFFFFFFFFFFFFFFFFFFFFFFFFFFF AND PUSH2 0x5B9 JUMP JUMPDEST PUSH2 0x299 JUMPI PUSH1 0x0 PUSH1 0x40 MLOAD DUP1 PUSH1 0x20 ADD PUSH1 0x40 MSTORE DUP1 PUSH1 0x0 DUP2 MSTORE POP SWAP3 POP SWAP3 POP POP PUSH2 0x342 JUMP JUMPDEST DUP1 DUP1 PUSH2 0x2A4 SWAP1 PUSH2 0xA27 JUMP JUMPDEST SWAP2 POP POP PUSH2 0x225 JUMP JUMPDEST POP PUSH1 0x1 PUSH1 0x0 DUP1 DUP1 SLOAD PUSH2 0x2BD SWAP1 PUSH2 0x9F5 JUMP JUMPDEST DUP1 PUSH1 0x1F ADD PUSH1 0x20 DUP1 SWAP2 DIV MUL PUSH1 0x20 ADD PUSH1 0x40 MLOAD SWAP1 DUP2 ADD PUSH1 0x40 MSTORE DUP1 SWAP3 SWAP2 SWAP1 DUP2 DUP2 MSTORE PUSH1 0x20 ADD DUP3 DUP1 SLOAD PUSH2 0x2E9 SWAP1 PUSH2 0x9F5 JUMP JUMPDEST DUP1 ISZERO PUSH2 0x336 JUMPI DUP1 PUSH1 0x1F LT PUSH2 0x30B JUMPI PUSH2 0x100 DUP1 DUP4 SLOAD DIV MUL DUP4 MSTORE SWAP2 PUSH1 0x20 ADD SWAP2 PUSH2 0x336 JUMP JUMPDEST DUP3 ADD SWAP2 SWAP1 PUSH1 0x0 MSTORE PUSH1 0x20 PUSH1 0x0 KECCAK256 SWAP1 JUMPDEST DUP2 SLOAD DUP2 MSTORE SWAP1 PUSH1 0x1 ADD SWAP1 PUSH1 0x20 ADD DUP1 DUP4 GT PUSH2 0x319 JUMPI DUP3 SWAP1 SUB PUSH1 0x1F AND DUP3 ADD SWAP2 JUMPDEST POP POP POP POP POP SWAP1 POP SWAP2 POP SWAP2 POP JUMPDEST SWAP1 SWAP2 JUMP JUMPDEST PUSH1 0x60 DUP1 PUSH1 0x60 PUSH1 0x0 PUSH1 0x1 PUSH1 0x2 DUP3 DUP1 SLOAD PUSH2 0x35D SWAP1 PUSH2 0x9F5 JUMP JUMPDEST DUP1 PUSH1 0x1F ADD PUSH1 0x20 DUP1 SWAP2 DIV MUL PUSH1 0x20 ADD PUSH1 0x40 MLOAD SWAP1 DUP2 ADD PUSH1 0x40 MSTORE DUP1 SWAP3 SWAP2 SWAP1 DUP2 DUP2 MSTORE PUSH1 0x20 ADD DUP3 DUP1 SLOAD PUSH2 0x389 SWAP1 PUSH2 0x9F5 JUMP JUMPDEST DUP1 ISZERO PUSH2 0x3D6 JUMPI DUP1 PUSH1 0x1F LT PUSH2 0x3AB JUMPI PUSH2 0x100 DUP1 DUP4 SLOAD DIV MUL DUP4 MSTORE SWAP2 PUSH1 0x20 ADD SWAP2 PUSH2 0x3D6 JUMP JUMPDEST DUP3 ADD SWAP2 SWAP1 PUSH1 0x0 MSTORE PUSH1 0x20 PUSH1 0x0 KECCAK256 SWAP1 JUMPDEST DUP2 SLOAD DUP2 MSTORE SWAP1 PUSH1 0x1 ADD SWAP1 PUSH1 0x20 ADD DUP1 DUP4 GT PUSH2 0x3B9 JUMPI DUP3 SWAP1 SUB PUSH1 0x1F AND DUP3 ADD SWAP2 JUMPDEST POP POP POP POP POP SWAP3 POP DUP2 DUP1 SLOAD DUP1 PUSH1 0x20 MUL PUSH1 0x20 ADD PUSH1 0x40 MLOAD SWAP1 DUP2 ADD PUSH1 0x40 MSTORE DUP1 SWAP3 SWAP2 SWAP1 DUP2 DUP2 MSTORE PUSH1 0x20 ADD DUP3 DUP1 SLOAD DUP1 ISZERO PUSH2 0x45E JUMPI PUSH1 0x20 MUL DUP3 ADD SWAP2 SWAP1 PUSH1 0x0 MSTORE PUSH1 0x20 PUSH1 0x0 KECCAK256 SWAP1 JUMPDEST DUP2 PUSH1 0x0 SWAP1 SLOAD SWAP1 PUSH2 0x100 EXP SWAP1 DIV PUSH20 0xFFFFFFFFFFFFFFFFFFFFFFFFFFFFFFFFFFFFFFFF AND PUSH20 0xFFFFFFFFFFFFFFFFFFFFFFFFFFFFFFFFFFFFFFFF AND DUP2 MSTORE PUSH1 0x20 ADD SWAP1 PUSH1 0x1 ADD SWAP1 DUP1 DUP4 GT PUSH2 0x414 JUMPI JUMPDEST POP POP POP POP POP SWAP2 POP DUP1 DUP1 SLOAD DUP1 PUSH1 0x20 MUL PUSH1 0x20 ADD PUSH1 0x40 MLOAD SWAP1 DUP2 ADD PUSH1 0x40 MSTORE DUP1 SWAP3 SWAP2 SWAP1 DUP2 DUP2 MSTORE PUSH1 0x20 ADD DUP3 DUP1 SLOAD DUP1 ISZERO PUSH2 0x4E6 JUMPI PUSH1 0x20 MUL DUP3 ADD SWAP2 SWAP1 PUSH1 0x0 MSTORE PUSH1 0x20 PUSH1 0x0 KECCAK256 SWAP1 JUMPDEST DUP2 PUSH1 0x0 SWAP1 SLOAD SWAP1 PUSH2 0x100 EXP SWAP1 DIV PUSH20 0xFFFFFFFFFFFFFFFFFFFFFFFFFFFFFFFFFFFFFFFF AND PUSH20 0xFFFFFFFFFFFFFFFFFFFFFFFFFFFFFFFFFFFFFFFF AND DUP2 MSTORE PUSH1 0x20 ADD SWAP1 PUSH1 0x1 ADD SWAP1 DUP1 DUP4 GT PUSH2 0x49C JUMPI JUMPDEST POP POP POP POP POP SWAP1 POP SWAP3 POP SWAP3 POP SWAP3 POP SWAP1 SWAP2 SWAP3 JUMP JUMPDEST PUSH1 0x0 PUSH2 0x503 DUP3 PUSH2 0x50A JUMP JUMPDEST SWAP1 POP SWAP2 SWAP1 POP JUMP JUMPDEST PUSH1 0x0 DUP1 PUSH1 0x0 SWAP1 POP JUMPDEST PUSH1 0x1 DUP1 SLOAD SWAP1 POP DUP2 LT ISZERO PUSH2 0x5AE JUMPI DUP3 PUSH20 0xFFFFFFFFFFFFFFFFFFFFFFFFFFFFFFFFFFFFFFFF AND PUSH1 0x1 DUP3 DUP2 SLOAD DUP2 LT PUSH2 0x54A JUMPI PUSH2 0x549 PUSH2 0xACE JUMP JUMPDEST JUMPDEST SWAP1 PUSH1 0x0 MSTORE PUSH1 0x20 PUSH1 0x0 KECCAK256 ADD PUSH1 0x0 SWAP1 SLOAD SWAP1 PUSH2 0x100 EXP SWAP1 DIV PUSH20 0xFFFFFFFFFFFFFFFFFFFFFFFFFFFFFFFFFFFFFFFF AND PUSH20 0xFFFFFFFFFFFFFFFFFFFFFFFFFFFFFFFFFFFFFFFF AND EQ ISZERO PUSH2 0x59B JUMPI PUSH1 0x1 SWAP2 POP POP PUSH2 0x5B4 JUMP JUMPDEST DUP1 DUP1 PUSH2 0x5A6 SWAP1 PUSH2 0xA27 JUMP JUMPDEST SWAP2 POP POP PUSH2 0x512 JUMP JUMPDEST POP PUSH1 0x0 SWAP1 POP JUMPDEST SWAP2 SWAP1 POP JUMP JUMPDEST PUSH1 0x0 DUP1 PUSH1 0x0 SWAP1 POP JUMPDEST PUSH1 0x2 DUP1 SLOAD SWAP1 POP DUP2 LT ISZERO PUSH2 0x65D JUMPI DUP3 PUSH20 0xFFFFFFFFFFFFFFFFFFFFFFFFFFFFFFFFFFFFFFFF AND PUSH1 0x2 DUP3 DUP2 SLOAD DUP2 LT PUSH2 0x5F9 JUMPI PUSH2 0x5F8 PUSH2 0xACE JUMP JUMPDEST JUMPDEST SWAP1 PUSH1 0x0 MSTORE PUSH1 0x20 PUSH1 0x0 KECCAK256 ADD PUSH1 0x0 SWAP1 SLOAD SWAP1 PUSH2 0x100 EXP SWAP1 DIV PUSH20 0xFFFFFFFFFFFFFFFFFFFFFFFFFFFFFFFFFFFFFFFF AND PUSH20 0xFFFFFFFFFFFFFFFFFFFFFFFFFFFFFFFFFFFFFFFF AND EQ ISZERO PUSH2 0x64A JUMPI PUSH1 0x1 SWAP2 POP POP PUSH2 0x663 JUMP JUMPDEST DUP1 DUP1 PUSH2 0x655 SWAP1 PUSH2 0xA27 JUMP JUMPDEST SWAP2 POP POP PUSH2 0x5C1 JUMP JUMPDEST POP PUSH1 0x0 SWAP1 POP JUMPDEST SWAP2 SWAP1 POP JUMP JUMPDEST PUSH1 0x0 DUP2 CALLDATALOAD SWAP1 POP PUSH2 0x677 DUP2 PUSH2 0xB3C JUMP JUMPDEST SWAP3 SWAP2 POP POP JUMP JUMPDEST PUSH1 0x0 PUSH1 0x20 DUP3 DUP5 SUB SLT ISZERO PUSH2 0x693 JUMPI PUSH2 0x692 PUSH2 0xAFD JUMP JUMPDEST JUMPDEST PUSH1 0x0 PUSH2 0x6A1 DUP5 DUP3 DUP6 ADD PUSH2 0x668 JUMP JUMPDEST SWAP2 POP POP SWAP3 SWAP2 POP POP JUMP JUMPDEST PUSH1 0x0 PUSH2 0x6B6 DUP4 DUP4 PUSH2 0x6C2 JUMP JUMPDEST PUSH1 0x20 DUP4 ADD SWAP1 POP SWAP3 SWAP2 POP POP JUMP JUMPDEST PUSH2 0x6CB DUP2 PUSH2 0x97A JUMP JUMPDEST DUP3 MSTORE POP POP JUMP JUMPDEST PUSH2 0x6DA DUP2 PUSH2 0x97A JUMP JUMPDEST DUP3 MSTORE POP POP JUMP JUMPDEST PUSH1 0x0 PUSH2 0x6EB DUP3 PUSH2 0x935 JUMP JUMPDEST PUSH2 0x6F5 DUP2 DUP6 PUSH2 0x958 JUMP JUMPDEST SWAP4 POP PUSH2 0x700 DUP4 PUSH2 0x910 JUMP JUMPDEST DUP1 PUSH1 0x0 JUMPDEST DUP4 DUP2 LT ISZERO PUSH2 0x731 JUMPI DUP2 MLOAD PUSH2 0x718 DUP9 DUP3 PUSH2 0x6AA JUMP JUMPDEST SWAP8 POP PUSH2 0x723 DUP4 PUSH2 0x94B JUMP JUMPDEST SWAP3 POP POP PUSH1 0x1 DUP2 ADD SWAP1 POP PUSH2 0x704 JUMP JUMPDEST POP DUP6 SWAP4 POP POP POP POP SWAP3 SWAP2 POP POP JUMP JUMPDEST PUSH2 0x747 DUP2 PUSH2 0x98C JUMP JUMPDEST DUP3 MSTORE POP POP JUMP JUMPDEST PUSH1 0x0 PUSH2 0x758 DUP3 PUSH2 0x940 JUMP JUMPDEST PUSH2 0x762 DUP2 DUP6 PUSH2 0x969 JUMP JUMPDEST SWAP4 POP PUSH2 0x772 DUP2 DUP6 PUSH1 0x20 DUP7 ADD PUSH2 0x9C2 JUMP JUMPDEST PUSH2 0x77B DUP2 PUSH2 0xB02 JUMP JUMPDEST DUP5 ADD SWAP2 POP POP SWAP3 SWAP2 POP POP JUMP JUMPDEST PUSH1 0x0 DUP2 SLOAD PUSH2 0x793 DUP2 PUSH2 0x9F5 JUMP JUMPDEST PUSH2 0x79D DUP2 DUP7 PUSH2 0x969 JUMP JUMPDEST SWAP5 POP PUSH1 0x1 DUP3 AND PUSH1 0x0 DUP2 EQ PUSH2 0x7B8 JUMPI PUSH1 0x1 DUP2 EQ PUSH2 0x7CA JUMPI PUSH2 0x7FD JUMP JUMPDEST PUSH1 0xFF NOT DUP4 AND DUP7 MSTORE PUSH1 0x20 DUP7 ADD SWAP4 POP PUSH2 0x7FD JUMP JUMPDEST PUSH2 0x7D3 DUP6 PUSH2 0x920 JUMP JUMPDEST PUSH1 0x0 JUMPDEST DUP4 DUP2 LT ISZERO PUSH2 0x7F5 JUMPI DUP2 SLOAD DUP2 DUP10 ADD MSTORE PUSH1 0x1 DUP3 ADD SWAP2 POP PUSH1 0x20 DUP2 ADD SWAP1 POP PUSH2 0x7D6 JUMP JUMPDEST DUP1 DUP9 ADD SWAP6 POP POP POP JUMPDEST POP POP POP SWAP3 SWAP2 POP POP JUMP JUMPDEST PUSH1 0x0 PUSH2 0x813 PUSH1 0x14 DUP4 PUSH2 0x969 JUMP JUMPDEST SWAP2 POP PUSH2 0x81E DUP3 PUSH2 0xB13 JUMP JUMPDEST PUSH1 0x20 DUP3 ADD SWAP1 POP SWAP2 SWAP1 POP JUMP JUMPDEST PUSH1 0x0 PUSH1 0x20 DUP3 ADD SWAP1 POP PUSH2 0x83E PUSH1 0x0 DUP4 ADD DUP5 PUSH2 0x73E JUMP JUMPDEST SWAP3 SWAP2 POP POP JUMP JUMPDEST PUSH1 0x0 PUSH1 0x40 DUP3 ADD SWAP1 POP PUSH2 0x859 PUSH1 0x0 DUP4 ADD DUP6 PUSH2 0x73E JUMP JUMPDEST DUP2 DUP2 SUB PUSH1 0x20 DUP4 ADD MSTORE PUSH2 0x86B DUP2 DUP5 PUSH2 0x74D JUMP JUMPDEST SWAP1 POP SWAP4 SWAP3 POP POP POP JUMP JUMPDEST PUSH1 0x0 PUSH1 0x60 DUP3 ADD SWAP1 POP DUP2 DUP2 SUB PUSH1 0x0 DUP4 ADD MSTORE PUSH2 0x88E DUP2 DUP7 PUSH2 0x74D JUMP JUMPDEST SWAP1 POP DUP2 DUP2 SUB PUSH1 0x20 DUP4 ADD MSTORE PUSH2 0x8A2 DUP2 DUP6 PUSH2 0x6E0 JUMP JUMPDEST SWAP1 POP DUP2 DUP2 SUB PUSH1 0x40 DUP4 ADD MSTORE PUSH2 0x8B6 DUP2 DUP5 PUSH2 0x6E0 JUMP JUMPDEST SWAP1 POP SWAP5 SWAP4 POP POP POP POP JUMP JUMPDEST PUSH1 0x0 PUSH1 0x40 DUP3 ADD SWAP1 POP DUP2 DUP2 SUB PUSH1 0x0 DUP4 ADD MSTORE PUSH2 0x8DA DUP2 DUP6 PUSH2 0x786 JUMP JUMPDEST SWAP1 POP PUSH2 0x8E9 PUSH1 0x20 DUP4 ADD DUP5 PUSH2 0x6D1 JUMP JUMPDEST SWAP4 SWAP3 POP POP POP JUMP JUMPDEST PUSH1 0x0 PUSH1 0x20 DUP3 ADD SWAP1 POP DUP2 DUP2 SUB PUSH1 0x0 DUP4 ADD MSTORE PUSH2 0x909 DUP2 PUSH2 0x806 JUMP JUMPDEST SWAP1 POP SWAP2 SWAP1 POP JUMP JUMPDEST PUSH1 0x0 DUP2 SWAP1 POP PUSH1 0x20 DUP3 ADD SWAP1 POP SWAP2 SWAP1 POP JUMP JUMPDEST PUSH1 0x0 DUP2 SWAP1 POP DUP2 PUSH1 0x0 MSTORE PUSH1 0x20 PUSH1 0x0 KECCAK256 SWAP1 POP SWAP2 SWAP1 POP JUMP JUMPDEST PUSH1 0x0 DUP2 MLOAD SWAP1 POP SWAP2 SWAP1 POP JUMP JUMPDEST PUSH1 0x0 DUP2 MLOAD SWAP1 POP SWAP2 SWAP1 POP JUMP JUMPDEST PUSH1 0x0 PUSH1 0x20 DUP3 ADD SWAP1 POP SWAP2 SWAP1 POP JUMP JUMPDEST PUSH1 0x0 DUP3 DUP3 MSTORE PUSH1 0x20 DUP3 ADD SWAP1 POP SWAP3 SWAP2 POP POP JUMP JUMPDEST PUSH1 0x0 DUP3 DUP3 MSTORE PUSH1 0x20 DUP3 ADD SWAP1 POP SWAP3 SWAP2 POP POP JUMP JUMPDEST PUSH1 0x0 PUSH2 0x985 DUP3 PUSH2 0x998 JUMP JUMPDEST SWAP1 POP SWAP2 SWAP1 POP JUMP JUMPDEST PUSH1 0x0 DUP2 ISZERO ISZERO SWAP1 POP SWAP2 SWAP1 POP JUMP JUMPDEST PUSH1 0x0 PUSH20 0xFFFFFFFFFFFFFFFFFFFFFFFFFFFFFFFFFFFFFFFF DUP3 AND SWAP1 POP SWAP2 SWAP1 POP JUMP JUMPDEST PUSH1 0x0 DUP2 SWAP1 POP SWAP2 SWAP1 POP JUMP JUMPDEST PUSH1 0x0 JUMPDEST DUP4 DUP2 LT ISZERO PUSH2 0x9E0 JUMPI DUP1 DUP3 ADD MLOAD DUP2 DUP5 ADD MSTORE PUSH1 0x20 DUP2 ADD SWAP1 POP PUSH2 0x9C5 JUMP JUMPDEST DUP4 DUP2 GT ISZERO PUSH2 0x9EF JUMPI PUSH1 0x0 DUP5 DUP5 ADD MSTORE JUMPDEST POP POP POP POP JUMP JUMPDEST PUSH1 0x0 PUSH1 0x2 DUP3 DIV SWAP1 POP PUSH1 0x1 DUP3 AND DUP1 PUSH2 0xA0D JUMPI PUSH1 0x7F DUP3 AND SWAP2 POP JUMPDEST PUSH1 0x20 DUP3 LT DUP2 EQ ISZERO PUSH2 0xA21 JUMPI PUSH2 0xA20 PUSH2 0xA9F JUMP JUMPDEST JUMPDEST POP SWAP2 SWAP1 POP JUMP JUMPDEST PUSH1 0x0 PUSH2 0xA32 DUP3 PUSH2 0x9B8 JUMP JUMPDEST SWAP2 POP PUSH32 0xFFFFFFFFFFFFFFFFFFFFFFFFFFFFFFFFFFFFFFFFFFFFFFFFFFFFFFFFFFFFFFFF DUP3 EQ ISZERO PUSH2 0xA65 JUMPI PUSH2 0xA64 PUSH2 0xA70 JUMP JUMPDEST JUMPDEST PUSH1 0x1 DUP3 ADD SWAP1 POP SWAP2 SWAP1 POP JUMP JUMPDEST PUSH32 0x4E487B7100000000000000000000000000000000000000000000000000000000 PUSH1 0x0 MSTORE PUSH1 0x11 PUSH1 0x4 MSTORE PUSH1 0x24 PUSH1 0x0 REVERT JUMPDEST PUSH32 0x4E487B7100000000000000000000000000000000000000000000000000000000 PUSH1 0x0 MSTORE PUSH1 0x22 PUSH1 0x4 MSTORE PUSH1 0x24 PUSH1 0x0 REVERT JUMPDEST PUSH32 0x4E487B7100000000000000000000000000000000000000000000000000000000 PUSH1 0x0 MSTORE PUSH1 0x32 PUSH1 0x4 MSTORE PUSH1 0x24 PUSH1 0x0 REVERT JUMPDEST PUSH1 0x0 DUP1 REVERT JUMPDEST PUSH1 0x0 PUSH1 0x1F NOT PUSH1 0x1F DUP4 ADD AND SWAP1 POP SWAP2 SWAP1 POP JUMP JUMPDEST PUSH32 0x5F7369676E6572206973206E6F742076616C6964000000000000000000000000 PUSH1 0x0 DUP3 ADD MSTORE POP JUMP JUMPDEST PUSH2 0xB45 DUP2 PUSH2 0x97A JUMP JUMPDEST DUP2 EQ PUSH2 0xB50 JUMPI PUSH1 0x0 DUP1 REVERT JUMPDEST POP JUMP INVALID LOG2 PUSH5 0x6970667358 0x22 SLT KECCAK256 0xDC CODECOPY 0xB9 POP 0xA7 MSTORE PUSH32 0xE6355F2C3042402253B10672EFF9B5FF77457AD1F0627FB09364736F6C634300 ADDMOD SMOD STOP CALLER LOG2 PUSH5 0x6970667358 0x22 SLT KECCAK256 0xC8 DUP2 0xBF 0xE5 0xD3 SWAP3 0xA5 0xB5 0xC2 AND DUP5 0xAC LOG4 0x2A MOD PUSH7 0xFE4C3CEFF6222A CALLER MLOAD LOG4 PUSH31 0xBB58E937A564736F6C63430008070033000000000000000000000000000000 "
		},
		"gasEstimates": {
			"creation": {
				"codeDepositCost": "1822800",
				"executionCost": "1919",
				"totalCost": "1824719"
			},
			"external": {
				"getEvidence(string)": "infinite",
				"isAllSigned(string)": "infinite",
				"newMarriageEvidence(string,string,address,address)": "infinite",
				"sign(string)": "infinite"
			}
		},
		"methodIdentifiers": {
			"getEvidence(string)": "b16c6ee7",
			"isAllSigned(string)": "0ba3b728",
			"newMarriageEvidence(string,string,address,address)": "9a95dcf8",
			"sign(string)": "79d6348d"
		}
	},
	"abi": [
		{
			"anonymous": false,
			"inputs": [
				{
					"indexed": false,
					"internalType": "string",
					"name": "_evi",
					"type": "string"
				},
				{
					"indexed": false,
					"internalType": "string",
					"name": "_key",
					"type": "string"
				},
				{
					"indexed": false,
					"internalType": "address",
					"name": "_sender",
					"type": "address"
				}
			],
			"name": "NewEvidence",
			"type": "event"
		},
		{
			"inputs": [
				{
					"internalType": "string",
					"name": "_key",
					"type": "string"
				}
			],
			"name": "getEvidence",
			"outputs": [
				{
					"internalType": "string",
					"name": "",
					"type": "string"
				},
				{
					"internalType": "address[]",
					"name": "",
					"type": "address[]"
				},
				{
					"internalType": "address[]",
					"name": "",
					"type": "address[]"
				}
			],
			"stateMutability": "view",
			"type": "function"
		},
		{
			"inputs": [
				{
					"internalType": "string",
					"name": "_key",
					"type": "string"
				}
			],
			"name": "isAllSigned",
			"outputs": [
				{
					"internalType": "bool",
					"name": "",
					"type": "bool"
				},
				{
					"internalType": "string",
					"name": "",
					"type": "string"
				}
			],
			"stateMutability": "view",
			"type": "function"
		},
		{
			"inputs": [
				{
					"internalType": "string",
					"name": "_evi",
					"type": "string"
				},
				{
					"internalType": "string",
					"name": "_key",
					"type": "string"
				},
				{
					"internalType": "address",
					"name": "_a",
					"type": "address"
				},
				{
					"internalType": "address",
					"name": "_b",
					"type": "address"
				}
			],
			"name": "newMarriageEvidence",
			"outputs": [
				{
					"internalType": "address",
					"name": "",
					"type": "address"
				}
			],
			"stateMutability": "nonpayable",
			"type": "function"
		},
		{
			"inputs": [
				{
					"internalType": "string",
					"name": "_key",
					"type": "string"
				}
			],
			"name": "sign",
			"outputs": [
				{
					"internalType": "bool",
					"name": "",
					"type": "bool"
				}
			],
			"stateMutability": "nonpayable",
			"type": "function"
		}
	]
}