{
	"trace/category.sol": {
		"Category": {
			"abi": [
				{
					"inputs": [
						{
							"internalType": "bytes32",
							"name": "_category",
							"type": "bytes32"
						}
					],
					"stateMutability": "nonpayable",
					"type": "constructor"
				},
				{
					"anonymous": false,
					"inputs": [
						{
							"indexed": false,
							"internalType": "uint256",
							"name": "_goodsID",
							"type": "uint256"
						},
						{
							"indexed": false,
							"internalType": "address",
							"name": "_operator",
							"type": "address"
						}
					],
					"name": "NewGoods",
					"type": "event"
				},
				{
					"inputs": [
						{
							"internalType": "uint256",
							"name": "_goodsID",
							"type": "uint256"
						},
						{
							"internalType": "uint8",
							"name": "_status",
							"type": "uint8"
						},
						{
							"internalType": "string",
							"name": "_remark",
							"type": "string"
						}
					],
					"name": "changeStatus",
					"outputs": [
						{
							"internalType": "bool",
							"name": "",
							"type": "bool"
						}
					],
					"stateMutability": "nonpayable",
					"type": "function"
				},
				{
					"inputs": [
						{
							"internalType": "uint256",
							"name": "_goodsID",
							"type": "uint256"
						}
					],
					"name": "createGoods",
					"outputs": [
						{
							"internalType": "contract Goods",
							"name": "",
							"type": "address"
						}
					],
					"stateMutability": "nonpayable",
					"type": "function"
				},
				{
					"inputs": [
						{
							"internalType": "uint256",
							"name": "_goodsID",
							"type": "uint256"
						}
					],
					"name": "getGoods",
					"outputs": [
						{
							"internalType": "contract Goods",
							"name": "",
							"type": "address"
						}
					],
					"stateMutability": "view",
					"type": "function"
				},
				{
					"inputs": [
						{
							"internalType": "uint256",
							"name": "_goodsID",
							"type": "uint256"
						}
					],
					"name": "getStatus",
					"outputs": [
						{
							"internalType": "uint8",
							"name": "",
							"type": "uint8"
						}
					],
					"stateMutability": "view",
					"type": "function"
				}
			],
			"devdoc": {
				"kind": "dev",
				"methods": {},
				"version": 1
			},
			"evm": {
				"assembly": "    /* \"trace/category.sol\":47:1340  contract Category{... */\n  mstore(0x40, 0x80)\n    /* \"trace/category.sol\":296:370  constructor(bytes32 _category){... */\n  callvalue\n  dup1\n  iszero\n  tag_1\n  jumpi\n  0x00\n  dup1\n  revert\ntag_1:\n  pop\n  mload(0x40)\n  sub(codesize, bytecodeSize)\n  dup1\n  bytecodeSize\n  dup4\n  codecopy\n  dup2\n  dup2\n  add\n  0x40\n  mstore\n  dup2\n  add\n  swap1\n  tag_2\n  swap2\n  swap1\n  tag_3\n  jump\t// in\ntag_2:\n    /* \"trace/category.sol\":354:363  _category */\n  dup1\n    /* \"trace/category.sol\":336:351  currentCategory */\n  0x00\n    /* \"trace/category.sol\":336:363  currentCategory = _category */\n  dup2\n  swap1\n  sstore\n  pop\n    /* \"trace/category.sol\":296:370  constructor(bytes32 _category){... */\n  pop\n    /* \"trace/category.sol\":47:1340  contract Category{... */\n  jump(tag_6)\n    /* \"#utility.yul\":7:150   */\ntag_8:\n    /* \"#utility.yul\":64:69   */\n  0x00\n    /* \"#utility.yul\":95:101   */\n  dup2\n    /* \"#utility.yul\":89:102   */\n  mload\n    /* \"#utility.yul\":80:102   */\n  swap1\n  pop\n    /* \"#utility.yul\":111:144   */\n  tag_10\n    /* \"#utility.yul\":138:143   */\n  dup2\n    /* \"#utility.yul\":111:144   */\n  tag_11\n  jump\t// in\ntag_10:\n    /* \"#utility.yul\":7:150   */\n  swap3\n  swap2\n  pop\n  pop\n  jump\t// out\n    /* \"#utility.yul\":156:507   */\ntag_3:\n    /* \"#utility.yul\":226:232   */\n  0x00\n    /* \"#utility.yul\":275:277   */\n  0x20\n    /* \"#utility.yul\":263:272   */\n  dup3\n    /* \"#utility.yul\":254:261   */\n  dup5\n    /* \"#utility.yul\":250:273   */\n  sub\n    /* \"#utility.yul\":246:278   */\n  slt\n    /* \"#utility.yul\":243:362   */\n  iszero\n  tag_13\n  jumpi\n    /* \"#utility.yul\":281:360   */\n  tag_14\n  tag_15\n  jump\t// in\ntag_14:\n    /* \"#utility.yul\":243:362   */\ntag_13:\n    /* \"#utility.yul\":401:402   */\n  0x00\n    /* \"#utility.yul\":426:490   */\n  tag_16\n    /* \"#utility.yul\":482:489   */\n  dup5\n    /* \"#utility.yul\":473:479   */\n  dup3\n    /* \"#utility.yul\":462:471   */\n  dup6\n    /* \"#utility.yul\":458:480   */\n  add\n    /* \"#utility.yul\":426:490   */\n  tag_8\n  jump\t// in\ntag_16:\n    /* \"#utility.yul\":416:490   */\n  swap2\n  pop\n    /* \"#utility.yul\":372:500   */\n  pop\n    /* \"#utility.yul\":156:507   */\n  swap3\n  swap2\n  pop\n  pop\n  jump\t// out\n    /* \"#utility.yul\":594:671   */\ntag_19:\n    /* \"#utility.yul\":631:638   */\n  0x00\n    /* \"#utility.yul\":660:665   */\n  dup2\n    /* \"#utility.yul\":649:665   */\n  swap1\n  pop\n    /* \"#utility.yul\":594:671   */\n  swap2\n  swap1\n  pop\n  jump\t// out\n    /* \"#utility.yul\":800:917   */\ntag_15:\n    /* \"#utility.yul\":909:910   */\n  0x00\n    /* \"#utility.yul\":906:907   */\n  dup1\n    /* \"#utility.yul\":899:911   */\n  revert\n    /* \"#utility.yul\":923:1045   */\ntag_11:\n    /* \"#utility.yul\":996:1020   */\n  tag_25\n    /* \"#utility.yul\":1014:1019   */\n  dup2\n    /* \"#utility.yul\":996:1020   */\n  tag_19\n  jump\t// in\ntag_25:\n    /* \"#utility.yul\":989:994   */\n  dup2\n    /* \"#utility.yul\":986:1021   */\n  eq\n    /* \"#utility.yul\":976:1039   */\n  tag_26\n  jumpi\n    /* \"#utility.yul\":1035:1036   */\n  0x00\n    /* \"#utility.yul\":1032:1033   */\n  dup1\n    /* \"#utility.yul\":1025:1037   */\n  revert\n    /* \"#utility.yul\":976:1039   */\ntag_26:\n    /* \"#utility.yul\":923:1045   */\n  pop\n  jump\t// out\n    /* \"trace/category.sol\":47:1340  contract Category{... */\ntag_6:\n  dataSize(sub_0)\n  dup1\n  dataOffset(sub_0)\n  0x00\n  codecopy\n  0x00\n  return\nstop\n\nsub_0: assembly {\n        /* \"trace/category.sol\":47:1340  contract Category{... */\n      mstore(0x40, 0x80)\n      callvalue\n      dup1\n      iszero\n      tag_1\n      jumpi\n      0x00\n      dup1\n      revert\n    tag_1:\n      pop\n      jumpi(tag_2, lt(calldatasize, 0x04))\n      shr(0xe0, calldataload(0x00))\n      dup1\n      0x5a35dc9f\n      eq\n      tag_3\n      jumpi\n      dup1\n      0x5c622a0e\n      eq\n      tag_4\n      jumpi\n      dup1\n      0xa2a8578d\n      eq\n      tag_5\n      jumpi\n      dup1\n      0xb2590033\n      eq\n      tag_6\n      jumpi\n    tag_2:\n      0x00\n      dup1\n      revert\n        /* \"trace/category.sol\":376:707  function createGoods(uint256 _goodsID) public returns (Goods){... */\n    tag_3:\n      tag_7\n      0x04\n      dup1\n      calldatasize\n      sub\n      dup2\n      add\n      swap1\n      tag_8\n      swap2\n      swap1\n      tag_9\n      jump\t// in\n    tag_8:\n      tag_10\n      jump\t// in\n    tag_7:\n      mload(0x40)\n      tag_11\n      swap2\n      swap1\n      tag_12\n      jump\t// in\n    tag_11:\n      mload(0x40)\n      dup1\n      swap2\n      sub\n      swap1\n      return\n        /* \"trace/category.sol\":713:902  function getStatus(uint256 _goodsID) public view returns (uint8){... */\n    tag_4:\n      tag_13\n      0x04\n      dup1\n      calldatasize\n      sub\n      dup2\n      add\n      swap1\n      tag_14\n      swap2\n      swap1\n      tag_9\n      jump\t// in\n    tag_14:\n      tag_15\n      jump\t// in\n    tag_13:\n      mload(0x40)\n      tag_16\n      swap2\n      swap1\n      tag_17\n      jump\t// in\n    tag_16:\n      mload(0x40)\n      dup1\n      swap2\n      sub\n      swap1\n      return\n        /* \"trace/category.sol\":908:1151  function changeStatus(uint256 _goodsID, uint8 _status, string memory _remark) public returns (bool){... */\n    tag_5:\n      tag_18\n      0x04\n      dup1\n      calldatasize\n      sub\n      dup2\n      add\n      swap1\n      tag_19\n      swap2\n      swap1\n      tag_20\n      jump\t// in\n    tag_19:\n      tag_21\n      jump\t// in\n    tag_18:\n      mload(0x40)\n      tag_22\n      swap2\n      swap1\n      tag_23\n      jump\t// in\n    tag_22:\n      mload(0x40)\n      dup1\n      swap2\n      sub\n      swap1\n      return\n        /* \"trace/category.sol\":1157:1333  function getGoods(uint256 _goodsID) public view returns (Goods){... */\n    tag_6:\n      tag_24\n      0x04\n      dup1\n      calldatasize\n      sub\n      dup2\n      add\n      swap1\n      tag_25\n      swap2\n      swap1\n      tag_9\n      jump\t// in\n    tag_25:\n      tag_26\n      jump\t// in\n    tag_24:\n      mload(0x40)\n      tag_27\n      swap2\n      swap1\n      tag_12\n      jump\t// in\n    tag_27:\n      mload(0x40)\n      dup1\n      swap2\n      sub\n      swap1\n      return\n        /* \"trace/category.sol\":376:707  function createGoods(uint256 _goodsID) public returns (Goods){... */\n    tag_10:\n        /* \"trace/category.sol\":431:436  Goods */\n      0x00\n        /* \"trace/category.sol\":456:461  goods */\n      0x01\n        /* \"trace/category.sol\":456:471  goods[_goodsID] */\n      0x00\n        /* \"trace/category.sol\":462:470  _goodsID */\n      dup4\n        /* \"trace/category.sol\":456:471  goods[_goodsID] */\n      dup2\n      mstore\n      0x20\n      add\n      swap1\n      dup2\n      mstore\n      0x20\n      add\n      0x00\n      keccak256\n        /* \"trace/category.sol\":456:479  goods[_goodsID].isExist */\n      0x00\n      add\n      0x14\n      swap1\n      sload\n      swap1\n      0x0100\n      exp\n      swap1\n      div\n      0xff\n      and\n        /* \"trace/category.sol\":455:479  !goods[_goodsID].isExist */\n      iszero\n        /* \"trace/category.sol\":447:498  require(!goods[_goodsID].isExist, \"goods is exist\") */\n      tag_29\n      jumpi\n      mload(0x40)\n      0x08c379a000000000000000000000000000000000000000000000000000000000\n      dup2\n      mstore\n      0x04\n      add\n      tag_30\n      swap1\n      tag_31\n      jump\t// in\n    tag_30:\n      mload(0x40)\n      dup1\n      swap2\n      sub\n      swap1\n      revert\n    tag_29:\n        /* \"trace/category.sol\":534:538  true */\n      0x01\n        /* \"trace/category.sol\":508:513  goods */\n      dup1\n        /* \"trace/category.sol\":508:523  goods[_goodsID] */\n      0x00\n        /* \"trace/category.sol\":514:522  _goodsID */\n      dup5\n        /* \"trace/category.sol\":508:523  goods[_goodsID] */\n      dup2\n      mstore\n      0x20\n      add\n      swap1\n      dup2\n      mstore\n      0x20\n      add\n      0x00\n      keccak256\n        /* \"trace/category.sol\":508:531  goods[_goodsID].isExist */\n      0x00\n      add\n      0x14\n        /* \"trace/category.sol\":508:538  goods[_goodsID].isExist = true */\n      0x0100\n      exp\n      dup2\n      sload\n      dup2\n      0xff\n      mul\n      not\n      and\n      swap1\n      dup4\n      iszero\n      iszero\n      mul\n      or\n      swap1\n      sstore\n      pop\n        /* \"trace/category.sol\":548:562  Goods newgoods */\n      0x00\n        /* \"trace/category.sol\":575:583  _goodsID */\n      dup3\n        /* \"trace/category.sol\":565:584  new Goods(_goodsID) */\n      mload(0x40)\n      tag_32\n      swap1\n      tag_33\n      jump\t// in\n    tag_32:\n      tag_34\n      swap2\n      swap1\n      tag_35\n      jump\t// in\n    tag_34:\n      mload(0x40)\n      dup1\n      swap2\n      sub\n      swap1\n      0x00\n      create\n      dup1\n      iszero\n      dup1\n      iszero\n      tag_36\n      jumpi\n      returndatasize\n      0x00\n      dup1\n      returndatacopy\n      revert(0x00, returndatasize)\n    tag_36:\n      pop\n        /* \"trace/category.sol\":548:584  Goods newgoods = new Goods(_goodsID) */\n      swap1\n      pop\n        /* \"trace/category.sol\":622:630  newgoods */\n      dup1\n        /* \"trace/category.sol\":594:599  goods */\n      0x01\n        /* \"trace/category.sol\":594:609  goods[_goodsID] */\n      0x00\n        /* \"trace/category.sol\":600:608  _goodsID */\n      dup6\n        /* \"trace/category.sol\":594:609  goods[_goodsID] */\n      dup2\n      mstore\n      0x20\n      add\n      swap1\n      dup2\n      mstore\n      0x20\n      add\n      0x00\n      keccak256\n        /* \"trace/category.sol\":594:619  goods[_goodsID].traceData */\n      0x00\n      add\n      0x00\n        /* \"trace/category.sol\":594:630  goods[_goodsID].traceData = newgoods */\n      0x0100\n      exp\n      dup2\n      sload\n      dup2\n      0xffffffffffffffffffffffffffffffffffffffff\n      mul\n      not\n      and\n      swap1\n      dup4\n      0xffffffffffffffffffffffffffffffffffffffff\n      and\n      mul\n      or\n      swap1\n      sstore\n      pop\n        /* \"trace/category.sol\":645:675  NewGoods(_goodsID, msg.sender) */\n      0x574a7b24a1c457e7870bcda06bb53bf1658e3eb9b79dc62630bd1045a0defcd2\n        /* \"trace/category.sol\":654:662  _goodsID */\n      dup4\n        /* \"trace/category.sol\":664:674  msg.sender */\n      caller\n        /* \"trace/category.sol\":645:675  NewGoods(_goodsID, msg.sender) */\n      mload(0x40)\n      tag_37\n      swap3\n      swap2\n      swap1\n      tag_38\n      jump\t// in\n    tag_37:\n      mload(0x40)\n      dup1\n      swap2\n      sub\n      swap1\n      log1\n        /* \"trace/category.sol\":692:700  newgoods */\n      dup1\n        /* \"trace/category.sol\":685:700  return newgoods */\n      swap2\n      pop\n      pop\n        /* \"trace/category.sol\":376:707  function createGoods(uint256 _goodsID) public returns (Goods){... */\n      swap2\n      swap1\n      pop\n      jump\t// out\n        /* \"trace/category.sol\":713:902  function getStatus(uint256 _goodsID) public view returns (uint8){... */\n    tag_15:\n        /* \"trace/category.sol\":771:776  uint8 */\n      0x00\n        /* \"trace/category.sol\":795:800  goods */\n      0x01\n        /* \"trace/category.sol\":795:810  goods[_goodsID] */\n      0x00\n        /* \"trace/category.sol\":801:809  _goodsID */\n      dup4\n        /* \"trace/category.sol\":795:810  goods[_goodsID] */\n      dup2\n      mstore\n      0x20\n      add\n      swap1\n      dup2\n      mstore\n      0x20\n      add\n      0x00\n      keccak256\n        /* \"trace/category.sol\":795:818  goods[_goodsID].isExist */\n      0x00\n      add\n      0x14\n      swap1\n      sload\n      swap1\n      0x0100\n      exp\n      swap1\n      div\n      0xff\n      and\n        /* \"trace/category.sol\":787:841  require(goods[_goodsID].isExist, \"goods is not exist\") */\n      tag_40\n      jumpi\n      mload(0x40)\n      0x08c379a000000000000000000000000000000000000000000000000000000000\n      dup2\n      mstore\n      0x04\n      add\n      tag_41\n      swap1\n      tag_42\n      jump\t// in\n    tag_41:\n      mload(0x40)\n      dup1\n      swap2\n      sub\n      swap1\n      revert\n    tag_40:\n        /* \"trace/category.sol\":858:863  goods */\n      0x01\n        /* \"trace/category.sol\":858:873  goods[_goodsID] */\n      0x00\n        /* \"trace/category.sol\":864:872  _goodsID */\n      dup4\n        /* \"trace/category.sol\":858:873  goods[_goodsID] */\n      dup2\n      mstore\n      0x20\n      add\n      swap1\n      dup2\n      mstore\n      0x20\n      add\n      0x00\n      keccak256\n        /* \"trace/category.sol\":858:883  goods[_goodsID].traceData */\n      0x00\n      add\n      0x00\n      swap1\n      sload\n      swap1\n      0x0100\n      exp\n      swap1\n      div\n      0xffffffffffffffffffffffffffffffffffffffff\n      and\n        /* \"trace/category.sol\":858:893  goods[_goodsID].traceData.getStatus */\n      0xffffffffffffffffffffffffffffffffffffffff\n      and\n      0x4e69d560\n        /* \"trace/category.sol\":858:895  goods[_goodsID].traceData.getStatus() */\n      mload(0x40)\n      dup2\n      0xffffffff\n      and\n      0xe0\n      shl\n      dup2\n      mstore\n      0x04\n      add\n      0x20\n      mload(0x40)\n      dup1\n      dup4\n      sub\n      dup2\n      dup7\n      dup1\n      extcodesize\n      iszero\n      dup1\n      iszero\n      tag_43\n      jumpi\n      0x00\n      dup1\n      revert\n    tag_43:\n      pop\n      gas\n      staticcall\n      iszero\n      dup1\n      iszero\n      tag_45\n      jumpi\n      returndatasize\n      0x00\n      dup1\n      returndatacopy\n      revert(0x00, returndatasize)\n    tag_45:\n      pop\n      pop\n      pop\n      pop\n      mload(0x40)\n      returndatasize\n      not(0x1f)\n      0x1f\n      dup3\n      add\n      and\n      dup3\n      add\n      dup1\n      0x40\n      mstore\n      pop\n      dup2\n      add\n      swap1\n      tag_46\n      swap2\n      swap1\n      tag_47\n      jump\t// in\n    tag_46:\n        /* \"trace/category.sol\":851:895  return goods[_goodsID].traceData.getStatus() */\n      swap1\n      pop\n        /* \"trace/category.sol\":713:902  function getStatus(uint256 _goodsID) public view returns (uint8){... */\n      swap2\n      swap1\n      pop\n      jump\t// out\n        /* \"trace/category.sol\":908:1151  function changeStatus(uint256 _goodsID, uint8 _status, string memory _remark) public returns (bool){... */\n    tag_21:\n        /* \"trace/category.sol\":1002:1006  bool */\n      0x00\n        /* \"trace/category.sol\":1025:1030  goods */\n      0x01\n        /* \"trace/category.sol\":1025:1040  goods[_goodsID] */\n      0x00\n        /* \"trace/category.sol\":1031:1039  _goodsID */\n      dup6\n        /* \"trace/category.sol\":1025:1040  goods[_goodsID] */\n      dup2\n      mstore\n      0x20\n      add\n      swap1\n      dup2\n      mstore\n      0x20\n      add\n      0x00\n      keccak256\n        /* \"trace/category.sol\":1025:1048  goods[_goodsID].isExist */\n      0x00\n      add\n      0x14\n      swap1\n      sload\n      swap1\n      0x0100\n      exp\n      swap1\n      div\n      0xff\n      and\n        /* \"trace/category.sol\":1017:1071  require(goods[_goodsID].isExist, \"goods is not exist\") */\n      tag_49\n      jumpi\n      mload(0x40)\n      0x08c379a000000000000000000000000000000000000000000000000000000000\n      dup2\n      mstore\n      0x04\n      add\n      tag_50\n      swap1\n      tag_42\n      jump\t// in\n    tag_50:\n      mload(0x40)\n      dup1\n      swap2\n      sub\n      swap1\n      revert\n    tag_49:\n        /* \"trace/category.sol\":1088:1093  goods */\n      0x01\n        /* \"trace/category.sol\":1088:1103  goods[_goodsID] */\n      0x00\n        /* \"trace/category.sol\":1094:1102  _goodsID */\n      dup6\n        /* \"trace/category.sol\":1088:1103  goods[_goodsID] */\n      dup2\n      mstore\n      0x20\n      add\n      swap1\n      dup2\n      mstore\n      0x20\n      add\n      0x00\n      keccak256\n        /* \"trace/category.sol\":1088:1113  goods[_goodsID].traceData */\n      0x00\n      add\n      0x00\n      swap1\n      sload\n      swap1\n      0x0100\n      exp\n      swap1\n      div\n      0xffffffffffffffffffffffffffffffffffffffff\n      and\n        /* \"trace/category.sol\":1088:1126  goods[_goodsID].traceData.changeStatus */\n      0xffffffffffffffffffffffffffffffffffffffff\n      and\n      0x173d773d\n        /* \"trace/category.sol\":1127:1134  _status */\n      dup5\n        /* \"trace/category.sol\":1136:1143  _remark */\n      dup5\n        /* \"trace/category.sol\":1088:1144  goods[_goodsID].traceData.changeStatus(_status, _remark) */\n      mload(0x40)\n      dup4\n      0xffffffff\n      and\n      0xe0\n      shl\n      dup2\n      mstore\n      0x04\n      add\n      tag_51\n      swap3\n      swap2\n      swap1\n      tag_52\n      jump\t// in\n    tag_51:\n      0x20\n      mload(0x40)\n      dup1\n      dup4\n      sub\n      dup2\n      0x00\n      dup8\n      dup1\n      extcodesize\n      iszero\n      dup1\n      iszero\n      tag_53\n      jumpi\n      0x00\n      dup1\n      revert\n    tag_53:\n      pop\n      gas\n      call\n      iszero\n      dup1\n      iszero\n      tag_55\n      jumpi\n      returndatasize\n      0x00\n      dup1\n      returndatacopy\n      revert(0x00, returndatasize)\n    tag_55:\n      pop\n      pop\n      pop\n      pop\n      mload(0x40)\n      returndatasize\n      not(0x1f)\n      0x1f\n      dup3\n      add\n      and\n      dup3\n      add\n      dup1\n      0x40\n      mstore\n      pop\n      dup2\n      add\n      swap1\n      tag_56\n      swap2\n      swap1\n      tag_57\n      jump\t// in\n    tag_56:\n        /* \"trace/category.sol\":1081:1144  return goods[_goodsID].traceData.changeStatus(_status, _remark) */\n      swap1\n      pop\n        /* \"trace/category.sol\":908:1151  function changeStatus(uint256 _goodsID, uint8 _status, string memory _remark) public returns (bool){... */\n      swap4\n      swap3\n      pop\n      pop\n      pop\n      jump\t// out\n        /* \"trace/category.sol\":1157:1333  function getGoods(uint256 _goodsID) public view returns (Goods){... */\n    tag_26:\n        /* \"trace/category.sol\":1214:1219  Goods */\n      0x00\n        /* \"trace/category.sol\":1238:1243  goods */\n      0x01\n        /* \"trace/category.sol\":1238:1253  goods[_goodsID] */\n      0x00\n        /* \"trace/category.sol\":1244:1252  _goodsID */\n      dup4\n        /* \"trace/category.sol\":1238:1253  goods[_goodsID] */\n      dup2\n      mstore\n      0x20\n      add\n      swap1\n      dup2\n      mstore\n      0x20\n      add\n      0x00\n      keccak256\n        /* \"trace/category.sol\":1238:1261  goods[_goodsID].isExist */\n      0x00\n      add\n      0x14\n      swap1\n      sload\n      swap1\n      0x0100\n      exp\n      swap1\n      div\n      0xff\n      and\n        /* \"trace/category.sol\":1230:1284  require(goods[_goodsID].isExist, \"goods is not exist\") */\n      tag_59\n      jumpi\n      mload(0x40)\n      0x08c379a000000000000000000000000000000000000000000000000000000000\n      dup2\n      mstore\n      0x04\n      add\n      tag_60\n      swap1\n      tag_42\n      jump\t// in\n    tag_60:\n      mload(0x40)\n      dup1\n      swap2\n      sub\n      swap1\n      revert\n    tag_59:\n        /* \"trace/category.sol\":1301:1306  goods */\n      0x01\n        /* \"trace/category.sol\":1301:1316  goods[_goodsID] */\n      0x00\n        /* \"trace/category.sol\":1307:1315  _goodsID */\n      dup4\n        /* \"trace/category.sol\":1301:1316  goods[_goodsID] */\n      dup2\n      mstore\n      0x20\n      add\n      swap1\n      dup2\n      mstore\n      0x20\n      add\n      0x00\n      keccak256\n        /* \"trace/category.sol\":1301:1326  goods[_goodsID].traceData */\n      0x00\n      add\n      0x00\n      swap1\n      sload\n      swap1\n      0x0100\n      exp\n      swap1\n      div\n      0xffffffffffffffffffffffffffffffffffffffff\n      and\n        /* \"trace/category.sol\":1294:1326  return goods[_goodsID].traceData */\n      swap1\n      pop\n        /* \"trace/category.sol\":1157:1333  function getGoods(uint256 _goodsID) public view returns (Goods){... */\n      swap2\n      swap1\n      pop\n      jump\t// out\n    tag_33:\n      dataSize(sub_0)\n      dup1\n      dataOffset(sub_0)\n      dup4\n      codecopy\n      add\n      swap1\n      jump\t// out\n        /* \"#utility.yul\":7:419   */\n    tag_62:\n        /* \"#utility.yul\":85:90   */\n      0x00\n        /* \"#utility.yul\":110:176   */\n      tag_64\n        /* \"#utility.yul\":126:175   */\n      tag_65\n        /* \"#utility.yul\":168:174   */\n      dup5\n        /* \"#utility.yul\":126:175   */\n      tag_66\n      jump\t// in\n    tag_65:\n        /* \"#utility.yul\":110:176   */\n      tag_67\n      jump\t// in\n    tag_64:\n        /* \"#utility.yul\":101:176   */\n      swap1\n      pop\n        /* \"#utility.yul\":199:205   */\n      dup3\n        /* \"#utility.yul\":192:197   */\n      dup2\n        /* \"#utility.yul\":185:206   */\n      mstore\n        /* \"#utility.yul\":237:241   */\n      0x20\n        /* \"#utility.yul\":230:235   */\n      dup2\n        /* \"#utility.yul\":226:242   */\n      add\n        /* \"#utility.yul\":275:278   */\n      dup5\n        /* \"#utility.yul\":266:272   */\n      dup5\n        /* \"#utility.yul\":261:264   */\n      dup5\n        /* \"#utility.yul\":257:273   */\n      add\n        /* \"#utility.yul\":254:279   */\n      gt\n        /* \"#utility.yul\":251:363   */\n      iszero\n      tag_68\n      jumpi\n        /* \"#utility.yul\":282:361   */\n      tag_69\n      tag_70\n      jump\t// in\n    tag_69:\n        /* \"#utility.yul\":251:363   */\n    tag_68:\n        /* \"#utility.yul\":372:413   */\n      tag_71\n        /* \"#utility.yul\":406:412   */\n      dup5\n        /* \"#utility.yul\":401:404   */\n      dup3\n        /* \"#utility.yul\":396:399   */\n      dup6\n        /* \"#utility.yul\":372:413   */\n      tag_72\n      jump\t// in\n    tag_71:\n        /* \"#utility.yul\":91:419   */\n      pop\n        /* \"#utility.yul\":7:419   */\n      swap4\n      swap3\n      pop\n      pop\n      pop\n      jump\t// out\n        /* \"#utility.yul\":425:562   */\n    tag_73:\n        /* \"#utility.yul\":479:484   */\n      0x00\n        /* \"#utility.yul\":510:516   */\n      dup2\n        /* \"#utility.yul\":504:517   */\n      mload\n        /* \"#utility.yul\":495:517   */\n      swap1\n      pop\n        /* \"#utility.yul\":526:556   */\n      tag_75\n        /* \"#utility.yul\":550:555   */\n      dup2\n        /* \"#utility.yul\":526:556   */\n      tag_76\n      jump\t// in\n    tag_75:\n        /* \"#utility.yul\":425:562   */\n      swap3\n      swap2\n      pop\n      pop\n      jump\t// out\n        /* \"#utility.yul\":582:922   */\n    tag_77:\n        /* \"#utility.yul\":638:643   */\n      0x00\n        /* \"#utility.yul\":687:690   */\n      dup3\n        /* \"#utility.yul\":680:684   */\n      0x1f\n        /* \"#utility.yul\":672:678   */\n      dup4\n        /* \"#utility.yul\":668:685   */\n      add\n        /* \"#utility.yul\":664:691   */\n      slt\n        /* \"#utility.yul\":654:776   */\n      tag_79\n      jumpi\n        /* \"#utility.yul\":695:774   */\n      tag_80\n      tag_81\n      jump\t// in\n    tag_80:\n        /* \"#utility.yul\":654:776   */\n    tag_79:\n        /* \"#utility.yul\":812:818   */\n      dup2\n        /* \"#utility.yul\":799:819   */\n      calldataload\n        /* \"#utility.yul\":837:916   */\n      tag_82\n        /* \"#utility.yul\":912:915   */\n      dup5\n        /* \"#utility.yul\":904:910   */\n      dup3\n        /* \"#utility.yul\":897:901   */\n      0x20\n        /* \"#utility.yul\":889:895   */\n      dup7\n        /* \"#utility.yul\":885:902   */\n      add\n        /* \"#utility.yul\":837:916   */\n      tag_62\n      jump\t// in\n    tag_82:\n        /* \"#utility.yul\":828:916   */\n      swap2\n      pop\n        /* \"#utility.yul\":644:922   */\n      pop\n        /* \"#utility.yul\":582:922   */\n      swap3\n      swap2\n      pop\n      pop\n      jump\t// out\n        /* \"#utility.yul\":928:1067   */\n    tag_83:\n        /* \"#utility.yul\":974:979   */\n      0x00\n        /* \"#utility.yul\":1012:1018   */\n      dup2\n        /* \"#utility.yul\":999:1019   */\n      calldataload\n        /* \"#utility.yul\":990:1019   */\n      swap1\n      pop\n        /* \"#utility.yul\":1028:1061   */\n      tag_85\n        /* \"#utility.yul\":1055:1060   */\n      dup2\n        /* \"#utility.yul\":1028:1061   */\n      tag_86\n      jump\t// in\n    tag_85:\n        /* \"#utility.yul\":928:1067   */\n      swap3\n      swap2\n      pop\n      pop\n      jump\t// out\n        /* \"#utility.yul\":1073:1208   */\n    tag_87:\n        /* \"#utility.yul\":1117:1122   */\n      0x00\n        /* \"#utility.yul\":1155:1161   */\n      dup2\n        /* \"#utility.yul\":1142:1162   */\n      calldataload\n        /* \"#utility.yul\":1133:1162   */\n      swap1\n      pop\n        /* \"#utility.yul\":1171:1202   */\n      tag_89\n        /* \"#utility.yul\":1196:1201   */\n      dup2\n        /* \"#utility.yul\":1171:1202   */\n      tag_90\n      jump\t// in\n    tag_89:\n        /* \"#utility.yul\":1073:1208   */\n      swap3\n      swap2\n      pop\n      pop\n      jump\t// out\n        /* \"#utility.yul\":1214:1353   */\n    tag_91:\n        /* \"#utility.yul\":1269:1274   */\n      0x00\n        /* \"#utility.yul\":1300:1306   */\n      dup2\n        /* \"#utility.yul\":1294:1307   */\n      mload\n        /* \"#utility.yul\":1285:1307   */\n      swap1\n      pop\n        /* \"#utility.yul\":1316:1347   */\n      tag_93\n        /* \"#utility.yul\":1341:1346   */\n      dup2\n        /* \"#utility.yul\":1316:1347   */\n      tag_90\n      jump\t// in\n    tag_93:\n        /* \"#utility.yul\":1214:1353   */\n      swap3\n      swap2\n      pop\n      pop\n      jump\t// out\n        /* \"#utility.yul\":1359:1704   */\n    tag_57:\n        /* \"#utility.yul\":1426:1432   */\n      0x00\n        /* \"#utility.yul\":1475:1477   */\n      0x20\n        /* \"#utility.yul\":1463:1472   */\n      dup3\n        /* \"#utility.yul\":1454:1461   */\n      dup5\n        /* \"#utility.yul\":1450:1473   */\n      sub\n        /* \"#utility.yul\":1446:1478   */\n      slt\n        /* \"#utility.yul\":1443:1562   */\n      iszero\n      tag_95\n      jumpi\n        /* \"#utility.yul\":1481:1560   */\n      tag_96\n      tag_97\n      jump\t// in\n    tag_96:\n        /* \"#utility.yul\":1443:1562   */\n    tag_95:\n        /* \"#utility.yul\":1601:1602   */\n      0x00\n        /* \"#utility.yul\":1626:1687   */\n      tag_98\n        /* \"#utility.yul\":1679:1686   */\n      dup5\n        /* \"#utility.yul\":1670:1676   */\n      dup3\n        /* \"#utility.yul\":1659:1668   */\n      dup6\n        /* \"#utility.yul\":1655:1677   */\n      add\n        /* \"#utility.yul\":1626:1687   */\n      tag_73\n      jump\t// in\n    tag_98:\n        /* \"#utility.yul\":1616:1687   */\n      swap2\n      pop\n        /* \"#utility.yul\":1572:1697   */\n      pop\n        /* \"#utility.yul\":1359:1704   */\n      swap3\n      swap2\n      pop\n      pop\n      jump\t// out\n        /* \"#utility.yul\":1710:2039   */\n    tag_9:\n        /* \"#utility.yul\":1769:1775   */\n      0x00\n        /* \"#utility.yul\":1818:1820   */\n      0x20\n        /* \"#utility.yul\":1806:1815   */\n      dup3\n        /* \"#utility.yul\":1797:1804   */\n      dup5\n        /* \"#utility.yul\":1793:1816   */\n      sub\n        /* \"#utility.yul\":1789:1821   */\n      slt\n        /* \"#utility.yul\":1786:1905   */\n      iszero\n      tag_100\n      jumpi\n        /* \"#utility.yul\":1824:1903   */\n      tag_101\n      tag_97\n      jump\t// in\n    tag_101:\n        /* \"#utility.yul\":1786:1905   */\n    tag_100:\n        /* \"#utility.yul\":1944:1945   */\n      0x00\n        /* \"#utility.yul\":1969:2022   */\n      tag_102\n        /* \"#utility.yul\":2014:2021   */\n      dup5\n        /* \"#utility.yul\":2005:2011   */\n      dup3\n        /* \"#utility.yul\":1994:2003   */\n      dup6\n        /* \"#utility.yul\":1990:2012   */\n      add\n        /* \"#utility.yul\":1969:2022   */\n      tag_83\n      jump\t// in\n    tag_102:\n        /* \"#utility.yul\":1959:2022   */\n      swap2\n      pop\n        /* \"#utility.yul\":1915:2032   */\n      pop\n        /* \"#utility.yul\":1710:2039   */\n      swap3\n      swap2\n      pop\n      pop\n      jump\t// out\n        /* \"#utility.yul\":2045:2840   */\n    tag_20:\n        /* \"#utility.yul\":2130:2136   */\n      0x00\n        /* \"#utility.yul\":2138:2144   */\n      dup1\n        /* \"#utility.yul\":2146:2152   */\n      0x00\n        /* \"#utility.yul\":2195:2197   */\n      0x60\n        /* \"#utility.yul\":2183:2192   */\n      dup5\n        /* \"#utility.yul\":2174:2181   */\n      dup7\n        /* \"#utility.yul\":2170:2193   */\n      sub\n        /* \"#utility.yul\":2166:2198   */\n      slt\n        /* \"#utility.yul\":2163:2282   */\n      iszero\n      tag_104\n      jumpi\n        /* \"#utility.yul\":2201:2280   */\n      tag_105\n      tag_97\n      jump\t// in\n    tag_105:\n        /* \"#utility.yul\":2163:2282   */\n    tag_104:\n        /* \"#utility.yul\":2321:2322   */\n      0x00\n        /* \"#utility.yul\":2346:2399   */\n      tag_106\n        /* \"#utility.yul\":2391:2398   */\n      dup7\n        /* \"#utility.yul\":2382:2388   */\n      dup3\n        /* \"#utility.yul\":2371:2380   */\n      dup8\n        /* \"#utility.yul\":2367:2389   */\n      add\n        /* \"#utility.yul\":2346:2399   */\n      tag_83\n      jump\t// in\n    tag_106:\n        /* \"#utility.yul\":2336:2399   */\n      swap4\n      pop\n        /* \"#utility.yul\":2292:2409   */\n      pop\n        /* \"#utility.yul\":2448:2450   */\n      0x20\n        /* \"#utility.yul\":2474:2525   */\n      tag_107\n        /* \"#utility.yul\":2517:2524   */\n      dup7\n        /* \"#utility.yul\":2508:2514   */\n      dup3\n        /* \"#utility.yul\":2497:2506   */\n      dup8\n        /* \"#utility.yul\":2493:2515   */\n      add\n        /* \"#utility.yul\":2474:2525   */\n      tag_87\n      jump\t// in\n    tag_107:\n        /* \"#utility.yul\":2464:2525   */\n      swap3\n      pop\n        /* \"#utility.yul\":2419:2535   */\n      pop\n        /* \"#utility.yul\":2602:2604   */\n      0x40\n        /* \"#utility.yul\":2591:2600   */\n      dup5\n        /* \"#utility.yul\":2587:2605   */\n      add\n        /* \"#utility.yul\":2574:2606   */\n      calldataload\n        /* \"#utility.yul\":2633:2651   */\n      0xffffffffffffffff\n        /* \"#utility.yul\":2625:2631   */\n      dup2\n        /* \"#utility.yul\":2622:2652   */\n      gt\n        /* \"#utility.yul\":2619:2736   */\n      iszero\n      tag_108\n      jumpi\n        /* \"#utility.yul\":2655:2734   */\n      tag_109\n      tag_110\n      jump\t// in\n    tag_109:\n        /* \"#utility.yul\":2619:2736   */\n    tag_108:\n        /* \"#utility.yul\":2760:2823   */\n      tag_111\n        /* \"#utility.yul\":2815:2822   */\n      dup7\n        /* \"#utility.yul\":2806:2812   */\n      dup3\n        /* \"#utility.yul\":2795:2804   */\n      dup8\n        /* \"#utility.yul\":2791:2813   */\n      add\n        /* \"#utility.yul\":2760:2823   */\n      tag_77\n      jump\t// in\n    tag_111:\n        /* \"#utility.yul\":2750:2823   */\n      swap2\n      pop\n        /* \"#utility.yul\":2545:2833   */\n      pop\n        /* \"#utility.yul\":2045:2840   */\n      swap3\n      pop\n      swap3\n      pop\n      swap3\n      jump\t// out\n        /* \"#utility.yul\":2846:3193   */\n    tag_47:\n        /* \"#utility.yul\":2914:2920   */\n      0x00\n        /* \"#utility.yul\":2963:2965   */\n      0x20\n        /* \"#utility.yul\":2951:2960   */\n      dup3\n        /* \"#utility.yul\":2942:2949   */\n      dup5\n        /* \"#utility.yul\":2938:2961   */\n      sub\n        /* \"#utility.yul\":2934:2966   */\n      slt\n        /* \"#utility.yul\":2931:3050   */\n      iszero\n      tag_113\n      jumpi\n        /* \"#utility.yul\":2969:3048   */\n      tag_114\n      tag_97\n      jump\t// in\n    tag_114:\n        /* \"#utility.yul\":2931:3050   */\n    tag_113:\n        /* \"#utility.yul\":3089:3090   */\n      0x00\n        /* \"#utility.yul\":3114:3176   */\n      tag_115\n        /* \"#utility.yul\":3168:3175   */\n      dup5\n        /* \"#utility.yul\":3159:3165   */\n      dup3\n        /* \"#utility.yul\":3148:3157   */\n      dup6\n        /* \"#utility.yul\":3144:3166   */\n      add\n        /* \"#utility.yul\":3114:3176   */\n      tag_91\n      jump\t// in\n    tag_115:\n        /* \"#utility.yul\":3104:3176   */\n      swap2\n      pop\n        /* \"#utility.yul\":3060:3186   */\n      pop\n        /* \"#utility.yul\":2846:3193   */\n      swap3\n      swap2\n      pop\n      pop\n      jump\t// out\n        /* \"#utility.yul\":3199:3317   */\n    tag_116:\n        /* \"#utility.yul\":3286:3310   */\n      tag_118\n        /* \"#utility.yul\":3304:3309   */\n      dup2\n        /* \"#utility.yul\":3286:3310   */\n      tag_119\n      jump\t// in\n    tag_118:\n        /* \"#utility.yul\":3281:3284   */\n      dup3\n        /* \"#utility.yul\":3274:3311   */\n      mstore\n        /* \"#utility.yul\":3199:3317   */\n      pop\n      pop\n      jump\t// out\n        /* \"#utility.yul\":3323:3432   */\n    tag_120:\n        /* \"#utility.yul\":3404:3425   */\n      tag_122\n        /* \"#utility.yul\":3419:3424   */\n      dup2\n        /* \"#utility.yul\":3404:3425   */\n      tag_123\n      jump\t// in\n    tag_122:\n        /* \"#utility.yul\":3399:3402   */\n      dup3\n        /* \"#utility.yul\":3392:3426   */\n      mstore\n        /* \"#utility.yul\":3323:3432   */\n      pop\n      pop\n      jump\t// out\n        /* \"#utility.yul\":3438:3595   */\n    tag_124:\n        /* \"#utility.yul\":3538:3588   */\n      tag_126\n        /* \"#utility.yul\":3582:3587   */\n      dup2\n        /* \"#utility.yul\":3538:3588   */\n      tag_127\n      jump\t// in\n    tag_126:\n        /* \"#utility.yul\":3533:3536   */\n      dup3\n        /* \"#utility.yul\":3526:3589   */\n      mstore\n        /* \"#utility.yul\":3438:3595   */\n      pop\n      pop\n      jump\t// out\n        /* \"#utility.yul\":3601:3965   */\n    tag_128:\n        /* \"#utility.yul\":3689:3692   */\n      0x00\n        /* \"#utility.yul\":3717:3756   */\n      tag_130\n        /* \"#utility.yul\":3750:3755   */\n      dup3\n        /* \"#utility.yul\":3717:3756   */\n      tag_131\n      jump\t// in\n    tag_130:\n        /* \"#utility.yul\":3772:3843   */\n      tag_132\n        /* \"#utility.yul\":3836:3842   */\n      dup2\n        /* \"#utility.yul\":3831:3834   */\n      dup6\n        /* \"#utility.yul\":3772:3843   */\n      tag_133\n      jump\t// in\n    tag_132:\n        /* \"#utility.yul\":3765:3843   */\n      swap4\n      pop\n        /* \"#utility.yul\":3852:3904   */\n      tag_134\n        /* \"#utility.yul\":3897:3903   */\n      dup2\n        /* \"#utility.yul\":3892:3895   */\n      dup6\n        /* \"#utility.yul\":3885:3889   */\n      0x20\n        /* \"#utility.yul\":3878:3883   */\n      dup7\n        /* \"#utility.yul\":3874:3890   */\n      add\n        /* \"#utility.yul\":3852:3904   */\n      tag_135\n      jump\t// in\n    tag_134:\n        /* \"#utility.yul\":3929:3958   */\n      tag_136\n        /* \"#utility.yul\":3951:3957   */\n      dup2\n        /* \"#utility.yul\":3929:3958   */\n      tag_137\n      jump\t// in\n    tag_136:\n        /* \"#utility.yul\":3924:3927   */\n      dup5\n        /* \"#utility.yul\":3920:3959   */\n      add\n        /* \"#utility.yul\":3913:3959   */\n      swap2\n      pop\n        /* \"#utility.yul\":3693:3965   */\n      pop\n        /* \"#utility.yul\":3601:3965   */\n      swap3\n      swap2\n      pop\n      pop\n      jump\t// out\n        /* \"#utility.yul\":3971:4337   */\n    tag_138:\n        /* \"#utility.yul\":4113:4116   */\n      0x00\n        /* \"#utility.yul\":4134:4201   */\n      tag_140\n        /* \"#utility.yul\":4198:4200   */\n      0x0e\n        /* \"#utility.yul\":4193:4196   */\n      dup4\n        /* \"#utility.yul\":4134:4201   */\n      tag_133\n      jump\t// in\n    tag_140:\n        /* \"#utility.yul\":4127:4201   */\n      swap2\n      pop\n        /* \"#utility.yul\":4210:4303   */\n      tag_141\n        /* \"#utility.yul\":4299:4302   */\n      dup3\n        /* \"#utility.yul\":4210:4303   */\n      tag_142\n      jump\t// in\n    tag_141:\n        /* \"#utility.yul\":4328:4330   */\n      0x20\n        /* \"#utility.yul\":4323:4326   */\n      dup3\n        /* \"#utility.yul\":4319:4331   */\n      add\n        /* \"#utility.yul\":4312:4331   */\n      swap1\n      pop\n        /* \"#utility.yul\":3971:4337   */\n      swap2\n      swap1\n      pop\n      jump\t// out\n        /* \"#utility.yul\":4343:4709   */\n    tag_143:\n        /* \"#utility.yul\":4485:4488   */\n      0x00\n        /* \"#utility.yul\":4506:4573   */\n      tag_145\n        /* \"#utility.yul\":4570:4572   */\n      0x12\n        /* \"#utility.yul\":4565:4568   */\n      dup4\n        /* \"#utility.yul\":4506:4573   */\n      tag_133\n      jump\t// in\n    tag_145:\n        /* \"#utility.yul\":4499:4573   */\n      swap2\n      pop\n        /* \"#utility.yul\":4582:4675   */\n      tag_146\n        /* \"#utility.yul\":4671:4674   */\n      dup3\n        /* \"#utility.yul\":4582:4675   */\n      tag_147\n      jump\t// in\n    tag_146:\n        /* \"#utility.yul\":4700:4702   */\n      0x20\n        /* \"#utility.yul\":4695:4698   */\n      dup3\n        /* \"#utility.yul\":4691:4703   */\n      add\n        /* \"#utility.yul\":4684:4703   */\n      swap1\n      pop\n        /* \"#utility.yul\":4343:4709   */\n      swap2\n      swap1\n      pop\n      jump\t// out\n        /* \"#utility.yul\":4715:4833   */\n    tag_148:\n        /* \"#utility.yul\":4802:4826   */\n      tag_150\n        /* \"#utility.yul\":4820:4825   */\n      dup2\n        /* \"#utility.yul\":4802:4826   */\n      tag_151\n      jump\t// in\n    tag_150:\n        /* \"#utility.yul\":4797:4800   */\n      dup3\n        /* \"#utility.yul\":4790:4827   */\n      mstore\n        /* \"#utility.yul\":4715:4833   */\n      pop\n      pop\n      jump\t// out\n        /* \"#utility.yul\":4839:4951   */\n    tag_152:\n        /* \"#utility.yul\":4922:4944   */\n      tag_154\n        /* \"#utility.yul\":4938:4943   */\n      dup2\n        /* \"#utility.yul\":4922:4944   */\n      tag_155\n      jump\t// in\n    tag_154:\n        /* \"#utility.yul\":4917:4920   */\n      dup3\n        /* \"#utility.yul\":4910:4945   */\n      mstore\n        /* \"#utility.yul\":4839:4951   */\n      pop\n      pop\n      jump\t// out\n        /* \"#utility.yul\":4957:5167   */\n    tag_23:\n        /* \"#utility.yul\":5044:5048   */\n      0x00\n        /* \"#utility.yul\":5082:5084   */\n      0x20\n        /* \"#utility.yul\":5071:5080   */\n      dup3\n        /* \"#utility.yul\":5067:5085   */\n      add\n        /* \"#utility.yul\":5059:5085   */\n      swap1\n      pop\n        /* \"#utility.yul\":5095:5160   */\n      tag_157\n        /* \"#utility.yul\":5157:5158   */\n      0x00\n        /* \"#utility.yul\":5146:5155   */\n      dup4\n        /* \"#utility.yul\":5142:5159   */\n      add\n        /* \"#utility.yul\":5133:5139   */\n      dup5\n        /* \"#utility.yul\":5095:5160   */\n      tag_120\n      jump\t// in\n    tag_157:\n        /* \"#utility.yul\":4957:5167   */\n      swap3\n      swap2\n      pop\n      pop\n      jump\t// out\n        /* \"#utility.yul\":5173:5421   */\n    tag_12:\n        /* \"#utility.yul\":5279:5283   */\n      0x00\n        /* \"#utility.yul\":5317:5319   */\n      0x20\n        /* \"#utility.yul\":5306:5315   */\n      dup3\n        /* \"#utility.yul\":5302:5320   */\n      add\n        /* \"#utility.yul\":5294:5320   */\n      swap1\n      pop\n        /* \"#utility.yul\":5330:5414   */\n      tag_159\n        /* \"#utility.yul\":5411:5412   */\n      0x00\n        /* \"#utility.yul\":5400:5409   */\n      dup4\n        /* \"#utility.yul\":5396:5413   */\n      add\n        /* \"#utility.yul\":5387:5393   */\n      dup5\n        /* \"#utility.yul\":5330:5414   */\n      tag_124\n      jump\t// in\n    tag_159:\n        /* \"#utility.yul\":5173:5421   */\n      swap3\n      swap2\n      pop\n      pop\n      jump\t// out\n        /* \"#utility.yul\":5427:5846   */\n    tag_31:\n        /* \"#utility.yul\":5593:5597   */\n      0x00\n        /* \"#utility.yul\":5631:5633   */\n      0x20\n        /* \"#utility.yul\":5620:5629   */\n      dup3\n        /* \"#utility.yul\":5616:5634   */\n      add\n        /* \"#utility.yul\":5608:5634   */\n      swap1\n      pop\n        /* \"#utility.yul\":5680:5689   */\n      dup2\n        /* \"#utility.yul\":5674:5678   */\n      dup2\n        /* \"#utility.yul\":5670:5690   */\n      sub\n        /* \"#utility.yul\":5666:5667   */\n      0x00\n        /* \"#utility.yul\":5655:5664   */\n      dup4\n        /* \"#utility.yul\":5651:5668   */\n      add\n        /* \"#utility.yul\":5644:5691   */\n      mstore\n        /* \"#utility.yul\":5708:5839   */\n      tag_161\n        /* \"#utility.yul\":5834:5838   */\n      dup2\n        /* \"#utility.yul\":5708:5839   */\n      tag_138\n      jump\t// in\n    tag_161:\n        /* \"#utility.yul\":5700:5839   */\n      swap1\n      pop\n        /* \"#utility.yul\":5427:5846   */\n      swap2\n      swap1\n      pop\n      jump\t// out\n        /* \"#utility.yul\":5852:6271   */\n    tag_42:\n        /* \"#utility.yul\":6018:6022   */\n      0x00\n        /* \"#utility.yul\":6056:6058   */\n      0x20\n        /* \"#utility.yul\":6045:6054   */\n      dup3\n        /* \"#utility.yul\":6041:6059   */\n      add\n        /* \"#utility.yul\":6033:6059   */\n      swap1\n      pop\n        /* \"#utility.yul\":6105:6114   */\n      dup2\n        /* \"#utility.yul\":6099:6103   */\n      dup2\n        /* \"#utility.yul\":6095:6115   */\n      sub\n        /* \"#utility.yul\":6091:6092   */\n      0x00\n        /* \"#utility.yul\":6080:6089   */\n      dup4\n        /* \"#utility.yul\":6076:6093   */\n      add\n        /* \"#utility.yul\":6069:6116   */\n      mstore\n        /* \"#utility.yul\":6133:6264   */\n      tag_163\n        /* \"#utility.yul\":6259:6263   */\n      dup2\n        /* \"#utility.yul\":6133:6264   */\n      tag_143\n      jump\t// in\n    tag_163:\n        /* \"#utility.yul\":6125:6264   */\n      swap1\n      pop\n        /* \"#utility.yul\":5852:6271   */\n      swap2\n      swap1\n      pop\n      jump\t// out\n        /* \"#utility.yul\":6277:6499   */\n    tag_35:\n        /* \"#utility.yul\":6370:6374   */\n      0x00\n        /* \"#utility.yul\":6408:6410   */\n      0x20\n        /* \"#utility.yul\":6397:6406   */\n      dup3\n        /* \"#utility.yul\":6393:6411   */\n      add\n        /* \"#utility.yul\":6385:6411   */\n      swap1\n      pop\n        /* \"#utility.yul\":6421:6492   */\n      tag_165\n        /* \"#utility.yul\":6489:6490   */\n      0x00\n        /* \"#utility.yul\":6478:6487   */\n      dup4\n        /* \"#utility.yul\":6474:6491   */\n      add\n        /* \"#utility.yul\":6465:6471   */\n      dup5\n        /* \"#utility.yul\":6421:6492   */\n      tag_148\n      jump\t// in\n    tag_165:\n        /* \"#utility.yul\":6277:6499   */\n      swap3\n      swap2\n      pop\n      pop\n      jump\t// out\n        /* \"#utility.yul\":6505:6837   */\n    tag_38:\n        /* \"#utility.yul\":6626:6630   */\n      0x00\n        /* \"#utility.yul\":6664:6666   */\n      0x40\n        /* \"#utility.yul\":6653:6662   */\n      dup3\n        /* \"#utility.yul\":6649:6667   */\n      add\n        /* \"#utility.yul\":6641:6667   */\n      swap1\n      pop\n        /* \"#utility.yul\":6677:6748   */\n      tag_167\n        /* \"#utility.yul\":6745:6746   */\n      0x00\n        /* \"#utility.yul\":6734:6743   */\n      dup4\n        /* \"#utility.yul\":6730:6747   */\n      add\n        /* \"#utility.yul\":6721:6727   */\n      dup6\n        /* \"#utility.yul\":6677:6748   */\n      tag_148\n      jump\t// in\n    tag_167:\n        /* \"#utility.yul\":6758:6830   */\n      tag_168\n        /* \"#utility.yul\":6826:6828   */\n      0x20\n        /* \"#utility.yul\":6815:6824   */\n      dup4\n        /* \"#utility.yul\":6811:6829   */\n      add\n        /* \"#utility.yul\":6802:6808   */\n      dup5\n        /* \"#utility.yul\":6758:6830   */\n      tag_116\n      jump\t// in\n    tag_168:\n        /* \"#utility.yul\":6505:6837   */\n      swap4\n      swap3\n      pop\n      pop\n      pop\n      jump\t// out\n        /* \"#utility.yul\":6843:7057   */\n    tag_17:\n        /* \"#utility.yul\":6932:6936   */\n      0x00\n        /* \"#utility.yul\":6970:6972   */\n      0x20\n        /* \"#utility.yul\":6959:6968   */\n      dup3\n        /* \"#utility.yul\":6955:6973   */\n      add\n        /* \"#utility.yul\":6947:6973   */\n      swap1\n      pop\n        /* \"#utility.yul\":6983:7050   */\n      tag_170\n        /* \"#utility.yul\":7047:7048   */\n      0x00\n        /* \"#utility.yul\":7036:7045   */\n      dup4\n        /* \"#utility.yul\":7032:7049   */\n      add\n        /* \"#utility.yul\":7023:7029   */\n      dup5\n        /* \"#utility.yul\":6983:7050   */\n      tag_152\n      jump\t// in\n    tag_170:\n        /* \"#utility.yul\":6843:7057   */\n      swap3\n      swap2\n      pop\n      pop\n      jump\t// out\n        /* \"#utility.yul\":7063:7478   */\n    tag_52:\n        /* \"#utility.yul\":7200:7204   */\n      0x00\n        /* \"#utility.yul\":7238:7240   */\n      0x40\n        /* \"#utility.yul\":7227:7236   */\n      dup3\n        /* \"#utility.yul\":7223:7241   */\n      add\n        /* \"#utility.yul\":7215:7241   */\n      swap1\n      pop\n        /* \"#utility.yul\":7251:7318   */\n      tag_172\n        /* \"#utility.yul\":7315:7316   */\n      0x00\n        /* \"#utility.yul\":7304:7313   */\n      dup4\n        /* \"#utility.yul\":7300:7317   */\n      add\n        /* \"#utility.yul\":7291:7297   */\n      dup6\n        /* \"#utility.yul\":7251:7318   */\n      tag_152\n      jump\t// in\n    tag_172:\n        /* \"#utility.yul\":7365:7374   */\n      dup2\n        /* \"#utility.yul\":7359:7363   */\n      dup2\n        /* \"#utility.yul\":7355:7375   */\n      sub\n        /* \"#utility.yul\":7350:7352   */\n      0x20\n        /* \"#utility.yul\":7339:7348   */\n      dup4\n        /* \"#utility.yul\":7335:7353   */\n      add\n        /* \"#utility.yul\":7328:7376   */\n      mstore\n        /* \"#utility.yul\":7393:7471   */\n      tag_173\n        /* \"#utility.yul\":7466:7470   */\n      dup2\n        /* \"#utility.yul\":7457:7463   */\n      dup5\n        /* \"#utility.yul\":7393:7471   */\n      tag_128\n      jump\t// in\n    tag_173:\n        /* \"#utility.yul\":7385:7471   */\n      swap1\n      pop\n        /* \"#utility.yul\":7063:7478   */\n      swap4\n      swap3\n      pop\n      pop\n      pop\n      jump\t// out\n        /* \"#utility.yul\":7484:7613   */\n    tag_67:\n        /* \"#utility.yul\":7518:7524   */\n      0x00\n        /* \"#utility.yul\":7545:7565   */\n      tag_175\n      tag_176\n      jump\t// in\n    tag_175:\n        /* \"#utility.yul\":7535:7565   */\n      swap1\n      pop\n        /* \"#utility.yul\":7574:7607   */\n      tag_177\n        /* \"#utility.yul\":7602:7606   */\n      dup3\n        /* \"#utility.yul\":7594:7600   */\n      dup3\n        /* \"#utility.yul\":7574:7607   */\n      tag_178\n      jump\t// in\n    tag_177:\n        /* \"#utility.yul\":7484:7613   */\n      swap2\n      swap1\n      pop\n      jump\t// out\n        /* \"#utility.yul\":7619:7694   */\n    tag_176:\n        /* \"#utility.yul\":7652:7658   */\n      0x00\n        /* \"#utility.yul\":7685:7687   */\n      0x40\n        /* \"#utility.yul\":7679:7688   */\n      mload\n        /* \"#utility.yul\":7669:7688   */\n      swap1\n      pop\n        /* \"#utility.yul\":7619:7694   */\n      swap1\n      jump\t// out\n        /* \"#utility.yul\":7700:8008   */\n    tag_66:\n        /* \"#utility.yul\":7762:7766   */\n      0x00\n        /* \"#utility.yul\":7852:7870   */\n      0xffffffffffffffff\n        /* \"#utility.yul\":7844:7850   */\n      dup3\n        /* \"#utility.yul\":7841:7871   */\n      gt\n        /* \"#utility.yul\":7838:7894   */\n      iszero\n      tag_181\n      jumpi\n        /* \"#utility.yul\":7874:7892   */\n      tag_182\n      tag_183\n      jump\t// in\n    tag_182:\n        /* \"#utility.yul\":7838:7894   */\n    tag_181:\n        /* \"#utility.yul\":7912:7941   */\n      tag_184\n        /* \"#utility.yul\":7934:7940   */\n      dup3\n        /* \"#utility.yul\":7912:7941   */\n      tag_137\n      jump\t// in\n    tag_184:\n        /* \"#utility.yul\":7904:7941   */\n      swap1\n      pop\n        /* \"#utility.yul\":7996:8000   */\n      0x20\n        /* \"#utility.yul\":7990:7994   */\n      dup2\n        /* \"#utility.yul\":7986:8001   */\n      add\n        /* \"#utility.yul\":7978:8001   */\n      swap1\n      pop\n        /* \"#utility.yul\":7700:8008   */\n      swap2\n      swap1\n      pop\n      jump\t// out\n        /* \"#utility.yul\":8014:8113   */\n    tag_131:\n        /* \"#utility.yul\":8066:8072   */\n      0x00\n        /* \"#utility.yul\":8100:8105   */\n      dup2\n        /* \"#utility.yul\":8094:8106   */\n      mload\n        /* \"#utility.yul\":8084:8106   */\n      swap1\n      pop\n        /* \"#utility.yul\":8014:8113   */\n      swap2\n      swap1\n      pop\n      jump\t// out\n        /* \"#utility.yul\":8119:8288   */\n    tag_133:\n        /* \"#utility.yul\":8203:8214   */\n      0x00\n        /* \"#utility.yul\":8237:8243   */\n      dup3\n        /* \"#utility.yul\":8232:8235   */\n      dup3\n        /* \"#utility.yul\":8225:8244   */\n      mstore\n        /* \"#utility.yul\":8277:8281   */\n      0x20\n        /* \"#utility.yul\":8272:8275   */\n      dup3\n        /* \"#utility.yul\":8268:8282   */\n      add\n        /* \"#utility.yul\":8253:8282   */\n      swap1\n      pop\n        /* \"#utility.yul\":8119:8288   */\n      swap3\n      swap2\n      pop\n      pop\n      jump\t// out\n        /* \"#utility.yul\":8294:8390   */\n    tag_119:\n        /* \"#utility.yul\":8331:8338   */\n      0x00\n        /* \"#utility.yul\":8360:8384   */\n      tag_188\n        /* \"#utility.yul\":8378:8383   */\n      dup3\n        /* \"#utility.yul\":8360:8384   */\n      tag_189\n      jump\t// in\n    tag_188:\n        /* \"#utility.yul\":8349:8384   */\n      swap1\n      pop\n        /* \"#utility.yul\":8294:8390   */\n      swap2\n      swap1\n      pop\n      jump\t// out\n        /* \"#utility.yul\":8396:8486   */\n    tag_123:\n        /* \"#utility.yul\":8430:8437   */\n      0x00\n        /* \"#utility.yul\":8473:8478   */\n      dup2\n        /* \"#utility.yul\":8466:8479   */\n      iszero\n        /* \"#utility.yul\":8459:8480   */\n      iszero\n        /* \"#utility.yul\":8448:8480   */\n      swap1\n      pop\n        /* \"#utility.yul\":8396:8486   */\n      swap2\n      swap1\n      pop\n      jump\t// out\n        /* \"#utility.yul\":8492:8618   */\n    tag_189:\n        /* \"#utility.yul\":8529:8536   */\n      0x00\n        /* \"#utility.yul\":8569:8611   */\n      0xffffffffffffffffffffffffffffffffffffffff\n        /* \"#utility.yul\":8562:8567   */\n      dup3\n        /* \"#utility.yul\":8558:8612   */\n      and\n        /* \"#utility.yul\":8547:8612   */\n      swap1\n      pop\n        /* \"#utility.yul\":8492:8618   */\n      swap2\n      swap1\n      pop\n      jump\t// out\n        /* \"#utility.yul\":8624:8701   */\n    tag_151:\n        /* \"#utility.yul\":8661:8668   */\n      0x00\n        /* \"#utility.yul\":8690:8695   */\n      dup2\n        /* \"#utility.yul\":8679:8695   */\n      swap1\n      pop\n        /* \"#utility.yul\":8624:8701   */\n      swap2\n      swap1\n      pop\n      jump\t// out\n        /* \"#utility.yul\":8707:8793   */\n    tag_155:\n        /* \"#utility.yul\":8742:8749   */\n      0x00\n        /* \"#utility.yul\":8782:8786   */\n      0xff\n        /* \"#utility.yul\":8775:8780   */\n      dup3\n        /* \"#utility.yul\":8771:8787   */\n      and\n        /* \"#utility.yul\":8760:8787   */\n      swap1\n      pop\n        /* \"#utility.yul\":8707:8793   */\n      swap2\n      swap1\n      pop\n      jump\t// out\n        /* \"#utility.yul\":8799:8938   */\n    tag_127:\n        /* \"#utility.yul\":8862:8871   */\n      0x00\n        /* \"#utility.yul\":8895:8932   */\n      tag_195\n        /* \"#utility.yul\":8926:8931   */\n      dup3\n        /* \"#utility.yul\":8895:8932   */\n      tag_196\n      jump\t// in\n    tag_195:\n        /* \"#utility.yul\":8882:8932   */\n      swap1\n      pop\n        /* \"#utility.yul\":8799:8938   */\n      swap2\n      swap1\n      pop\n      jump\t// out\n        /* \"#utility.yul\":8944:9070   */\n    tag_196:\n        /* \"#utility.yul\":8994:9003   */\n      0x00\n        /* \"#utility.yul\":9027:9064   */\n      tag_198\n        /* \"#utility.yul\":9058:9063   */\n      dup3\n        /* \"#utility.yul\":9027:9064   */\n      tag_199\n      jump\t// in\n    tag_198:\n        /* \"#utility.yul\":9014:9064   */\n      swap1\n      pop\n        /* \"#utility.yul\":8944:9070   */\n      swap2\n      swap1\n      pop\n      jump\t// out\n        /* \"#utility.yul\":9076:9189   */\n    tag_199:\n        /* \"#utility.yul\":9126:9135   */\n      0x00\n        /* \"#utility.yul\":9159:9183   */\n      tag_201\n        /* \"#utility.yul\":9177:9182   */\n      dup3\n        /* \"#utility.yul\":9159:9183   */\n      tag_189\n      jump\t// in\n    tag_201:\n        /* \"#utility.yul\":9146:9183   */\n      swap1\n      pop\n        /* \"#utility.yul\":9076:9189   */\n      swap2\n      swap1\n      pop\n      jump\t// out\n        /* \"#utility.yul\":9195:9349   */\n    tag_72:\n        /* \"#utility.yul\":9279:9285   */\n      dup3\n        /* \"#utility.yul\":9274:9277   */\n      dup2\n        /* \"#utility.yul\":9269:9272   */\n      dup4\n        /* \"#utility.yul\":9256:9286   */\n      calldatacopy\n        /* \"#utility.yul\":9341:9342   */\n      0x00\n        /* \"#utility.yul\":9332:9338   */\n      dup4\n        /* \"#utility.yul\":9327:9330   */\n      dup4\n        /* \"#utility.yul\":9323:9339   */\n      add\n        /* \"#utility.yul\":9316:9343   */\n      mstore\n        /* \"#utility.yul\":9195:9349   */\n      pop\n      pop\n      pop\n      jump\t// out\n        /* \"#utility.yul\":9355:9662   */\n    tag_135:\n        /* \"#utility.yul\":9423:9424   */\n      0x00\n        /* \"#utility.yul\":9433:9546   */\n    tag_204:\n        /* \"#utility.yul\":9447:9453   */\n      dup4\n        /* \"#utility.yul\":9444:9445   */\n      dup2\n        /* \"#utility.yul\":9441:9454   */\n      lt\n        /* \"#utility.yul\":9433:9546   */\n      iszero\n      tag_206\n      jumpi\n        /* \"#utility.yul\":9532:9533   */\n      dup1\n        /* \"#utility.yul\":9527:9530   */\n      dup3\n        /* \"#utility.yul\":9523:9534   */\n      add\n        /* \"#utility.yul\":9517:9535   */\n      mload\n        /* \"#utility.yul\":9513:9514   */\n      dup2\n        /* \"#utility.yul\":9508:9511   */\n      dup5\n        /* \"#utility.yul\":9504:9515   */\n      add\n        /* \"#utility.yul\":9497:9536   */\n      mstore\n        /* \"#utility.yul\":9469:9471   */\n      0x20\n        /* \"#utility.yul\":9466:9467   */\n      dup2\n        /* \"#utility.yul\":9462:9472   */\n      add\n        /* \"#utility.yul\":9457:9472   */\n      swap1\n      pop\n        /* \"#utility.yul\":9433:9546   */\n      jump(tag_204)\n    tag_206:\n        /* \"#utility.yul\":9564:9570   */\n      dup4\n        /* \"#utility.yul\":9561:9562   */\n      dup2\n        /* \"#utility.yul\":9558:9571   */\n      gt\n        /* \"#utility.yul\":9555:9656   */\n      iszero\n      tag_207\n      jumpi\n        /* \"#utility.yul\":9644:9645   */\n      0x00\n        /* \"#utility.yul\":9635:9641   */\n      dup5\n        /* \"#utility.yul\":9630:9633   */\n      dup5\n        /* \"#utility.yul\":9626:9642   */\n      add\n        /* \"#utility.yul\":9619:9646   */\n      mstore\n        /* \"#utility.yul\":9555:9656   */\n    tag_207:\n        /* \"#utility.yul\":9404:9662   */\n      pop\n        /* \"#utility.yul\":9355:9662   */\n      pop\n      pop\n      pop\n      jump\t// out\n        /* \"#utility.yul\":9668:9949   */\n    tag_178:\n        /* \"#utility.yul\":9751:9778   */\n      tag_209\n        /* \"#utility.yul\":9773:9777   */\n      dup3\n        /* \"#utility.yul\":9751:9778   */\n      tag_137\n      jump\t// in\n    tag_209:\n        /* \"#utility.yul\":9743:9749   */\n      dup2\n        /* \"#utility.yul\":9739:9779   */\n      add\n        /* \"#utility.yul\":9881:9887   */\n      dup2\n        /* \"#utility.yul\":9869:9879   */\n      dup2\n        /* \"#utility.yul\":9866:9888   */\n      lt\n        /* \"#utility.yul\":9845:9863   */\n      0xffffffffffffffff\n        /* \"#utility.yul\":9833:9843   */\n      dup3\n        /* \"#utility.yul\":9830:9864   */\n      gt\n        /* \"#utility.yul\":9827:9889   */\n      or\n        /* \"#utility.yul\":9824:9912   */\n      iszero\n      tag_210\n      jumpi\n        /* \"#utility.yul\":9892:9910   */\n      tag_211\n      tag_183\n      jump\t// in\n    tag_211:\n        /* \"#utility.yul\":9824:9912   */\n    tag_210:\n        /* \"#utility.yul\":9932:9942   */\n      dup1\n        /* \"#utility.yul\":9928:9930   */\n      0x40\n        /* \"#utility.yul\":9921:9943   */\n      mstore\n        /* \"#utility.yul\":9711:9949   */\n      pop\n        /* \"#utility.yul\":9668:9949   */\n      pop\n      pop\n      jump\t// out\n        /* \"#utility.yul\":9955:10135   */\n    tag_183:\n        /* \"#utility.yul\":10003:10080   */\n      0x4e487b7100000000000000000000000000000000000000000000000000000000\n        /* \"#utility.yul\":10000:10001   */\n      0x00\n        /* \"#utility.yul\":9993:10081   */\n      mstore\n        /* \"#utility.yul\":10100:10104   */\n      0x41\n        /* \"#utility.yul\":10097:10098   */\n      0x04\n        /* \"#utility.yul\":10090:10105   */\n      mstore\n        /* \"#utility.yul\":10124:10128   */\n      0x24\n        /* \"#utility.yul\":10121:10122   */\n      0x00\n        /* \"#utility.yul\":10114:10129   */\n      revert\n        /* \"#utility.yul\":10141:10258   */\n    tag_81:\n        /* \"#utility.yul\":10250:10251   */\n      0x00\n        /* \"#utility.yul\":10247:10248   */\n      dup1\n        /* \"#utility.yul\":10240:10252   */\n      revert\n        /* \"#utility.yul\":10264:10381   */\n    tag_70:\n        /* \"#utility.yul\":10373:10374   */\n      0x00\n        /* \"#utility.yul\":10370:10371   */\n      dup1\n        /* \"#utility.yul\":10363:10375   */\n      revert\n        /* \"#utility.yul\":10387:10504   */\n    tag_110:\n        /* \"#utility.yul\":10496:10497   */\n      0x00\n        /* \"#utility.yul\":10493:10494   */\n      dup1\n        /* \"#utility.yul\":10486:10498   */\n      revert\n        /* \"#utility.yul\":10510:10627   */\n    tag_97:\n        /* \"#utility.yul\":10619:10620   */\n      0x00\n        /* \"#utility.yul\":10616:10617   */\n      dup1\n        /* \"#utility.yul\":10609:10621   */\n      revert\n        /* \"#utility.yul\":10633:10735   */\n    tag_137:\n        /* \"#utility.yul\":10674:10680   */\n      0x00\n        /* \"#utility.yul\":10725:10727   */\n      0x1f\n        /* \"#utility.yul\":10721:10728   */\n      not\n        /* \"#utility.yul\":10716:10718   */\n      0x1f\n        /* \"#utility.yul\":10709:10714   */\n      dup4\n        /* \"#utility.yul\":10705:10719   */\n      add\n        /* \"#utility.yul\":10701:10729   */\n      and\n        /* \"#utility.yul\":10691:10729   */\n      swap1\n      pop\n        /* \"#utility.yul\":10633:10735   */\n      swap2\n      swap1\n      pop\n      jump\t// out\n        /* \"#utility.yul\":10741:10905   */\n    tag_142:\n        /* \"#utility.yul\":10881:10897   */\n      0x676f6f6473206973206578697374000000000000000000000000000000000000\n        /* \"#utility.yul\":10877:10878   */\n      0x00\n        /* \"#utility.yul\":10869:10875   */\n      dup3\n        /* \"#utility.yul\":10865:10879   */\n      add\n        /* \"#utility.yul\":10858:10898   */\n      mstore\n        /* \"#utility.yul\":10741:10905   */\n      pop\n      jump\t// out\n        /* \"#utility.yul\":10911:11079   */\n    tag_147:\n        /* \"#utility.yul\":11051:11071   */\n      0x676f6f6473206973206e6f742065786973740000000000000000000000000000\n        /* \"#utility.yul\":11047:11048   */\n      0x00\n        /* \"#utility.yul\":11039:11045   */\n      dup3\n        /* \"#utility.yul\":11035:11049   */\n      add\n        /* \"#utility.yul\":11028:11072   */\n      mstore\n        /* \"#utility.yul\":10911:11079   */\n      pop\n      jump\t// out\n        /* \"#utility.yul\":11085:11201   */\n    tag_76:\n        /* \"#utility.yul\":11155:11176   */\n      tag_221\n        /* \"#utility.yul\":11170:11175   */\n      dup2\n        /* \"#utility.yul\":11155:11176   */\n      tag_123\n      jump\t// in\n    tag_221:\n        /* \"#utility.yul\":11148:11153   */\n      dup2\n        /* \"#utility.yul\":11145:11177   */\n      eq\n        /* \"#utility.yul\":11135:11195   */\n      tag_222\n      jumpi\n        /* \"#utility.yul\":11191:11192   */\n      0x00\n        /* \"#utility.yul\":11188:11189   */\n      dup1\n        /* \"#utility.yul\":11181:11193   */\n      revert\n        /* \"#utility.yul\":11135:11195   */\n    tag_222:\n        /* \"#utility.yul\":11085:11201   */\n      pop\n      jump\t// out\n        /* \"#utility.yul\":11207:11329   */\n    tag_86:\n        /* \"#utility.yul\":11280:11304   */\n      tag_224\n        /* \"#utility.yul\":11298:11303   */\n      dup2\n        /* \"#utility.yul\":11280:11304   */\n      tag_151\n      jump\t// in\n    tag_224:\n        /* \"#utility.yul\":11273:11278   */\n      dup2\n        /* \"#utility.yul\":11270:11305   */\n      eq\n        /* \"#utility.yul\":11260:11323   */\n      tag_225\n      jumpi\n        /* \"#utility.yul\":11319:11320   */\n      0x00\n        /* \"#utility.yul\":11316:11317   */\n      dup1\n        /* \"#utility.yul\":11309:11321   */\n      revert\n        /* \"#utility.yul\":11260:11323   */\n    tag_225:\n        /* \"#utility.yul\":11207:11329   */\n      pop\n      jump\t// out\n        /* \"#utility.yul\":11335:11453   */\n    tag_90:\n        /* \"#utility.yul\":11406:11428   */\n      tag_227\n        /* \"#utility.yul\":11422:11427   */\n      dup2\n        /* \"#utility.yul\":11406:11428   */\n      tag_155\n      jump\t// in\n    tag_227:\n        /* \"#utility.yul\":11399:11404   */\n      dup2\n        /* \"#utility.yul\":11396:11429   */\n      eq\n        /* \"#utility.yul\":11386:11447   */\n      tag_228\n      jumpi\n        /* \"#utility.yul\":11443:11444   */\n      0x00\n        /* \"#utility.yul\":11440:11441   */\n      dup1\n        /* \"#utility.yul\":11433:11445   */\n      revert\n        /* \"#utility.yul\":11386:11447   */\n    tag_228:\n        /* \"#utility.yul\":11335:11453   */\n      pop\n      jump\t// out\n    stop\n\n    sub_0: assembly {\n            /* \"trace/goods.sol\":26:1234  contract Goods{\r... */\n          mstore(0x40, 0x80)\n            /* \"trace/goods.sol\":443:716  constructor(uint256 _goodID){\r... */\n          callvalue\n          dup1\n          iszero\n          tag_1\n          jumpi\n          0x00\n          dup1\n          revert\n        tag_1:\n          pop\n          mload(0x40)\n          sub(codesize, bytecodeSize)\n          dup1\n          bytecodeSize\n          dup4\n          codecopy\n          dup2\n          dup2\n          add\n          0x40\n          mstore\n          dup2\n          add\n          swap1\n          tag_2\n          swap2\n          swap1\n          tag_3\n          jump\t// in\n        tag_2:\n            /* \"trace/goods.sol\":492:499  _goodID */\n          dup1\n            /* \"trace/goods.sol\":482:489  goodsID */\n          0x00\n            /* \"trace/goods.sol\":482:499  goodsID = _goodID */\n          dup2\n          swap1\n          sstore\n          pop\n            /* \"trace/goods.sol\":510:520  traceDatas */\n          0x02\n            /* \"trace/goods.sol\":526:588  TraceData(msg.sender,STATUS_CREATE, block.timestamp, \"create\") */\n          mload(0x40)\n          dup1\n          0x80\n          add\n          0x40\n          mstore\n          dup1\n            /* \"trace/goods.sol\":536:546  msg.sender */\n          caller\n            /* \"trace/goods.sol\":526:588  TraceData(msg.sender,STATUS_CREATE, block.timestamp, \"create\") */\n          0xffffffffffffffffffffffffffffffffffffffff\n          and\n          dup2\n          mstore\n          0x20\n          add\n            /* \"trace/goods.sol\":339:340  0 */\n          0x00\n            /* \"trace/goods.sol\":526:588  TraceData(msg.sender,STATUS_CREATE, block.timestamp, \"create\") */\n          0xff\n          and\n          dup2\n          mstore\n          0x20\n          add\n            /* \"trace/goods.sol\":562:577  block.timestamp */\n          timestamp\n            /* \"trace/goods.sol\":526:588  TraceData(msg.sender,STATUS_CREATE, block.timestamp, \"create\") */\n          dup2\n          mstore\n          0x20\n          add\n          mload(0x40)\n          dup1\n          0x40\n          add\n          0x40\n          mstore\n          dup1\n          0x06\n          dup2\n          mstore\n          0x20\n          add\n          0x6372656174650000000000000000000000000000000000000000000000000000\n          dup2\n          mstore\n          pop\n          dup2\n          mstore\n          pop\n            /* \"trace/goods.sol\":510:589  traceDatas.push(TraceData(msg.sender,STATUS_CREATE, block.timestamp, \"create\")) */\n          swap1\n          dup1\n          0x01\n          dup2\n          sload\n          add\n          dup1\n          dup3\n          sstore\n          dup1\n          swap2\n          pop\n          pop\n          0x01\n          swap1\n          sub\n          swap1\n          0x00\n          mstore\n          keccak256(0x00, 0x20)\n          swap1\n          0x03\n          mul\n          add\n          0x00\n          swap1\n          swap2\n          swap1\n          swap2\n          swap1\n          swap2\n          pop\n          0x00\n          dup3\n          add\n          mload\n          dup2\n          0x00\n          add\n          exp(0x0100, 0x00)\n          dup2\n          sload\n          dup2\n          0xffffffffffffffffffffffffffffffffffffffff\n          mul\n          not\n          and\n          swap1\n          dup4\n          0xffffffffffffffffffffffffffffffffffffffff\n          and\n          mul\n          or\n          swap1\n          sstore\n          pop\n          0x20\n          dup3\n          add\n          mload\n          dup2\n          0x00\n          add\n          exp(0x0100, 0x14)\n          dup2\n          sload\n          dup2\n          0xff\n          mul\n          not\n          and\n          swap1\n          dup4\n          0xff\n          and\n          mul\n          or\n          swap1\n          sstore\n          pop\n          0x40\n          dup3\n          add\n          mload\n          dup2\n          0x01\n          add\n          sstore\n          0x60\n          dup3\n          add\n          mload\n          dup2\n          0x02\n          add\n          swap1\n          dup1\n          mload\n          swap1\n          0x20\n          add\n          swap1\n          tag_7\n          swap3\n          swap2\n          swap1\n          tag_8\n          jump\t// in\n        tag_7:\n          pop\n          pop\n          pop\n            /* \"trace/goods.sol\":339:340  0 */\n          0x00\n            /* \"trace/goods.sol\":600:613  currentStatus */\n          0x01\n          0x00\n            /* \"trace/goods.sol\":600:629  currentStatus = STATUS_CREATE */\n          0x0100\n          exp\n          dup2\n          sload\n          dup2\n          0xff\n          mul\n          not\n          and\n          swap1\n          dup4\n          0xff\n          and\n          mul\n          or\n          swap1\n          sstore\n          pop\n            /* \"trace/goods.sol\":645:708  NewStatus(msg.sender, STATUS_CREATE, block.timestamp, \"create\") */\n          0x38930409e72d179a853c881163fcee8ed63d42ec95ee4599fc17e0421e1303d8\n            /* \"trace/goods.sol\":655:665  msg.sender */\n          caller\n            /* \"trace/goods.sol\":339:340  0 */\n          0x00\n            /* \"trace/goods.sol\":682:697  block.timestamp */\n          timestamp\n            /* \"trace/goods.sol\":645:708  NewStatus(msg.sender, STATUS_CREATE, block.timestamp, \"create\") */\n          mload(0x40)\n          tag_9\n          swap4\n          swap3\n          swap2\n          swap1\n          tag_10\n          jump\t// in\n        tag_9:\n          mload(0x40)\n          dup1\n          swap2\n          sub\n          swap1\n          log1\n            /* \"trace/goods.sol\":443:716  constructor(uint256 _goodID){\r... */\n          pop\n            /* \"trace/goods.sol\":26:1234  contract Goods{\r... */\n          jump(tag_11)\n        tag_8:\n          dup3\n          dup1\n          sload\n          tag_12\n          swap1\n          tag_13\n          jump\t// in\n        tag_12:\n          swap1\n          0x00\n          mstore\n          keccak256(0x00, 0x20)\n          swap1\n          0x1f\n          add\n          0x20\n          swap1\n          div\n          dup2\n          add\n          swap3\n          dup3\n          tag_15\n          jumpi\n          0x00\n          dup6\n          sstore\n          jump(tag_14)\n        tag_15:\n          dup3\n          0x1f\n          lt\n          tag_16\n          jumpi\n          dup1\n          mload\n          not(0xff)\n          and\n          dup4\n          dup1\n          add\n          or\n          dup6\n          sstore\n          jump(tag_14)\n        tag_16:\n          dup3\n          dup1\n          add\n          0x01\n          add\n          dup6\n          sstore\n          dup3\n          iszero\n          tag_14\n          jumpi\n          swap2\n          dup3\n          add\n        tag_17:\n          dup3\n          dup2\n          gt\n          iszero\n          tag_18\n          jumpi\n          dup3\n          mload\n          dup3\n          sstore\n          swap2\n          0x20\n          add\n          swap2\n          swap1\n          0x01\n          add\n          swap1\n          jump(tag_17)\n        tag_18:\n        tag_14:\n          pop\n          swap1\n          pop\n          tag_19\n          swap2\n          swap1\n          tag_20\n          jump\t// in\n        tag_19:\n          pop\n          swap1\n          jump\t// out\n        tag_20:\n        tag_21:\n          dup1\n          dup3\n          gt\n          iszero\n          tag_22\n          jumpi\n          0x00\n          dup2\n          0x00\n          swap1\n          sstore\n          pop\n          0x01\n          add\n          jump(tag_21)\n        tag_22:\n          pop\n          swap1\n          jump\t// out\n            /* \"#utility.yul\":7:150   */\n        tag_24:\n            /* \"#utility.yul\":64:69   */\n          0x00\n            /* \"#utility.yul\":95:101   */\n          dup2\n            /* \"#utility.yul\":89:102   */\n          mload\n            /* \"#utility.yul\":80:102   */\n          swap1\n          pop\n            /* \"#utility.yul\":111:144   */\n          tag_26\n            /* \"#utility.yul\":138:143   */\n          dup2\n            /* \"#utility.yul\":111:144   */\n          tag_27\n          jump\t// in\n        tag_26:\n            /* \"#utility.yul\":7:150   */\n          swap3\n          swap2\n          pop\n          pop\n          jump\t// out\n            /* \"#utility.yul\":156:507   */\n        tag_3:\n            /* \"#utility.yul\":226:232   */\n          0x00\n            /* \"#utility.yul\":275:277   */\n          0x20\n            /* \"#utility.yul\":263:272   */\n          dup3\n            /* \"#utility.yul\":254:261   */\n          dup5\n            /* \"#utility.yul\":250:273   */\n          sub\n            /* \"#utility.yul\":246:278   */\n          slt\n            /* \"#utility.yul\":243:362   */\n          iszero\n          tag_29\n          jumpi\n            /* \"#utility.yul\":281:360   */\n          tag_30\n          tag_31\n          jump\t// in\n        tag_30:\n            /* \"#utility.yul\":243:362   */\n        tag_29:\n            /* \"#utility.yul\":401:402   */\n          0x00\n            /* \"#utility.yul\":426:490   */\n          tag_32\n            /* \"#utility.yul\":482:489   */\n          dup5\n            /* \"#utility.yul\":473:479   */\n          dup3\n            /* \"#utility.yul\":462:471   */\n          dup6\n            /* \"#utility.yul\":458:480   */\n          add\n            /* \"#utility.yul\":426:490   */\n          tag_24\n          jump\t// in\n        tag_32:\n            /* \"#utility.yul\":416:490   */\n          swap2\n          pop\n            /* \"#utility.yul\":372:500   */\n          pop\n            /* \"#utility.yul\":156:507   */\n          swap3\n          swap2\n          pop\n          pop\n          jump\t// out\n            /* \"#utility.yul\":513:631   */\n        tag_33:\n            /* \"#utility.yul\":600:624   */\n          tag_35\n            /* \"#utility.yul\":618:623   */\n          dup2\n            /* \"#utility.yul\":600:624   */\n          tag_36\n          jump\t// in\n        tag_35:\n            /* \"#utility.yul\":595:598   */\n          dup3\n            /* \"#utility.yul\":588:625   */\n          mstore\n            /* \"#utility.yul\":513:631   */\n          pop\n          pop\n          jump\t// out\n            /* \"#utility.yul\":637:1002   */\n        tag_37:\n            /* \"#utility.yul\":779:782   */\n          0x00\n            /* \"#utility.yul\":800:866   */\n          tag_39\n            /* \"#utility.yul\":864:865   */\n          0x06\n            /* \"#utility.yul\":859:862   */\n          dup4\n            /* \"#utility.yul\":800:866   */\n          tag_40\n          jump\t// in\n        tag_39:\n            /* \"#utility.yul\":793:866   */\n          swap2\n          pop\n            /* \"#utility.yul\":875:968   */\n          tag_41\n            /* \"#utility.yul\":964:967   */\n          dup3\n            /* \"#utility.yul\":875:968   */\n          tag_42\n          jump\t// in\n        tag_41:\n            /* \"#utility.yul\":993:995   */\n          0x20\n            /* \"#utility.yul\":988:991   */\n          dup3\n            /* \"#utility.yul\":984:996   */\n          add\n            /* \"#utility.yul\":977:996   */\n          swap1\n          pop\n            /* \"#utility.yul\":637:1002   */\n          swap2\n          swap1\n          pop\n          jump\t// out\n            /* \"#utility.yul\":1008:1126   */\n        tag_43:\n            /* \"#utility.yul\":1095:1119   */\n          tag_45\n            /* \"#utility.yul\":1113:1118   */\n          dup2\n            /* \"#utility.yul\":1095:1119   */\n          tag_46\n          jump\t// in\n        tag_45:\n            /* \"#utility.yul\":1090:1093   */\n          dup3\n            /* \"#utility.yul\":1083:1120   */\n          mstore\n            /* \"#utility.yul\":1008:1126   */\n          pop\n          pop\n          jump\t// out\n            /* \"#utility.yul\":1132:1244   */\n        tag_47:\n            /* \"#utility.yul\":1215:1237   */\n          tag_49\n            /* \"#utility.yul\":1231:1236   */\n          dup2\n            /* \"#utility.yul\":1215:1237   */\n          tag_50\n          jump\t// in\n        tag_49:\n            /* \"#utility.yul\":1210:1213   */\n          dup3\n            /* \"#utility.yul\":1203:1238   */\n          mstore\n            /* \"#utility.yul\":1132:1244   */\n          pop\n          pop\n          jump\t// out\n            /* \"#utility.yul\":1250:1992   */\n        tag_10:\n            /* \"#utility.yul\":1496:1500   */\n          0x00\n            /* \"#utility.yul\":1534:1537   */\n          0x80\n            /* \"#utility.yul\":1523:1532   */\n          dup3\n            /* \"#utility.yul\":1519:1538   */\n          add\n            /* \"#utility.yul\":1511:1538   */\n          swap1\n          pop\n            /* \"#utility.yul\":1548:1619   */\n          tag_52\n            /* \"#utility.yul\":1616:1617   */\n          0x00\n            /* \"#utility.yul\":1605:1614   */\n          dup4\n            /* \"#utility.yul\":1601:1618   */\n          add\n            /* \"#utility.yul\":1592:1598   */\n          dup7\n            /* \"#utility.yul\":1548:1619   */\n          tag_33\n          jump\t// in\n        tag_52:\n            /* \"#utility.yul\":1629:1697   */\n          tag_53\n            /* \"#utility.yul\":1693:1695   */\n          0x20\n            /* \"#utility.yul\":1682:1691   */\n          dup4\n            /* \"#utility.yul\":1678:1696   */\n          add\n            /* \"#utility.yul\":1669:1675   */\n          dup6\n            /* \"#utility.yul\":1629:1697   */\n          tag_47\n          jump\t// in\n        tag_53:\n            /* \"#utility.yul\":1707:1779   */\n          tag_54\n            /* \"#utility.yul\":1775:1777   */\n          0x40\n            /* \"#utility.yul\":1764:1773   */\n          dup4\n            /* \"#utility.yul\":1760:1778   */\n          add\n            /* \"#utility.yul\":1751:1757   */\n          dup5\n            /* \"#utility.yul\":1707:1779   */\n          tag_43\n          jump\t// in\n        tag_54:\n            /* \"#utility.yul\":1826:1835   */\n          dup2\n            /* \"#utility.yul\":1820:1824   */\n          dup2\n            /* \"#utility.yul\":1816:1836   */\n          sub\n            /* \"#utility.yul\":1811:1813   */\n          0x60\n            /* \"#utility.yul\":1800:1809   */\n          dup4\n            /* \"#utility.yul\":1796:1814   */\n          add\n            /* \"#utility.yul\":1789:1837   */\n          mstore\n            /* \"#utility.yul\":1854:1985   */\n          tag_55\n            /* \"#utility.yul\":1980:1984   */\n          dup2\n            /* \"#utility.yul\":1854:1985   */\n          tag_37\n          jump\t// in\n        tag_55:\n            /* \"#utility.yul\":1846:1985   */\n          swap1\n          pop\n            /* \"#utility.yul\":1250:1992   */\n          swap5\n          swap4\n          pop\n          pop\n          pop\n          pop\n          jump\t// out\n            /* \"#utility.yul\":2079:2248   */\n        tag_40:\n            /* \"#utility.yul\":2163:2174   */\n          0x00\n            /* \"#utility.yul\":2197:2203   */\n          dup3\n            /* \"#utility.yul\":2192:2195   */\n          dup3\n            /* \"#utility.yul\":2185:2204   */\n          mstore\n            /* \"#utility.yul\":2237:2241   */\n          0x20\n            /* \"#utility.yul\":2232:2235   */\n          dup3\n            /* \"#utility.yul\":2228:2242   */\n          add\n            /* \"#utility.yul\":2213:2242   */\n          swap1\n          pop\n            /* \"#utility.yul\":2079:2248   */\n          swap3\n          swap2\n          pop\n          pop\n          jump\t// out\n            /* \"#utility.yul\":2254:2350   */\n        tag_36:\n            /* \"#utility.yul\":2291:2298   */\n          0x00\n            /* \"#utility.yul\":2320:2344   */\n          tag_60\n            /* \"#utility.yul\":2338:2343   */\n          dup3\n            /* \"#utility.yul\":2320:2344   */\n          tag_61\n          jump\t// in\n        tag_60:\n            /* \"#utility.yul\":2309:2344   */\n          swap1\n          pop\n            /* \"#utility.yul\":2254:2350   */\n          swap2\n          swap1\n          pop\n          jump\t// out\n            /* \"#utility.yul\":2356:2482   */\n        tag_61:\n            /* \"#utility.yul\":2393:2400   */\n          0x00\n            /* \"#utility.yul\":2433:2475   */\n          0xffffffffffffffffffffffffffffffffffffffff\n            /* \"#utility.yul\":2426:2431   */\n          dup3\n            /* \"#utility.yul\":2422:2476   */\n          and\n            /* \"#utility.yul\":2411:2476   */\n          swap1\n          pop\n            /* \"#utility.yul\":2356:2482   */\n          swap2\n          swap1\n          pop\n          jump\t// out\n            /* \"#utility.yul\":2488:2565   */\n        tag_46:\n            /* \"#utility.yul\":2525:2532   */\n          0x00\n            /* \"#utility.yul\":2554:2559   */\n          dup2\n            /* \"#utility.yul\":2543:2559   */\n          swap1\n          pop\n            /* \"#utility.yul\":2488:2565   */\n          swap2\n          swap1\n          pop\n          jump\t// out\n            /* \"#utility.yul\":2571:2657   */\n        tag_50:\n            /* \"#utility.yul\":2606:2613   */\n          0x00\n            /* \"#utility.yul\":2646:2650   */\n          0xff\n            /* \"#utility.yul\":2639:2644   */\n          dup3\n            /* \"#utility.yul\":2635:2651   */\n          and\n            /* \"#utility.yul\":2624:2651   */\n          swap1\n          pop\n            /* \"#utility.yul\":2571:2657   */\n          swap2\n          swap1\n          pop\n          jump\t// out\n            /* \"#utility.yul\":2663:2983   */\n        tag_13:\n            /* \"#utility.yul\":2707:2713   */\n          0x00\n            /* \"#utility.yul\":2744:2745   */\n          0x02\n            /* \"#utility.yul\":2738:2742   */\n          dup3\n            /* \"#utility.yul\":2734:2746   */\n          div\n            /* \"#utility.yul\":2724:2746   */\n          swap1\n          pop\n            /* \"#utility.yul\":2791:2792   */\n          0x01\n            /* \"#utility.yul\":2785:2789   */\n          dup3\n            /* \"#utility.yul\":2781:2793   */\n          and\n            /* \"#utility.yul\":2812:2830   */\n          dup1\n            /* \"#utility.yul\":2802:2883   */\n          tag_66\n          jumpi\n            /* \"#utility.yul\":2868:2872   */\n          0x7f\n            /* \"#utility.yul\":2860:2866   */\n          dup3\n            /* \"#utility.yul\":2856:2873   */\n          and\n            /* \"#utility.yul\":2846:2873   */\n          swap2\n          pop\n            /* \"#utility.yul\":2802:2883   */\n        tag_66:\n            /* \"#utility.yul\":2930:2932   */\n          0x20\n            /* \"#utility.yul\":2922:2928   */\n          dup3\n            /* \"#utility.yul\":2919:2933   */\n          lt\n            /* \"#utility.yul\":2899:2917   */\n          dup2\n            /* \"#utility.yul\":2896:2934   */\n          eq\n            /* \"#utility.yul\":2893:2977   */\n          iszero\n          tag_67\n          jumpi\n            /* \"#utility.yul\":2949:2967   */\n          tag_68\n          tag_69\n          jump\t// in\n        tag_68:\n            /* \"#utility.yul\":2893:2977   */\n        tag_67:\n            /* \"#utility.yul\":2714:2983   */\n          pop\n            /* \"#utility.yul\":2663:2983   */\n          swap2\n          swap1\n          pop\n          jump\t// out\n            /* \"#utility.yul\":2989:3169   */\n        tag_69:\n            /* \"#utility.yul\":3037:3114   */\n          0x4e487b7100000000000000000000000000000000000000000000000000000000\n            /* \"#utility.yul\":3034:3035   */\n          0x00\n            /* \"#utility.yul\":3027:3115   */\n          mstore\n            /* \"#utility.yul\":3134:3138   */\n          0x22\n            /* \"#utility.yul\":3131:3132   */\n          0x04\n            /* \"#utility.yul\":3124:3139   */\n          mstore\n            /* \"#utility.yul\":3158:3162   */\n          0x24\n            /* \"#utility.yul\":3155:3156   */\n          0x00\n            /* \"#utility.yul\":3148:3163   */\n          revert\n            /* \"#utility.yul\":3298:3415   */\n        tag_31:\n            /* \"#utility.yul\":3407:3408   */\n          0x00\n            /* \"#utility.yul\":3404:3405   */\n          dup1\n            /* \"#utility.yul\":3397:3409   */\n          revert\n            /* \"#utility.yul\":3421:3577   */\n        tag_42:\n            /* \"#utility.yul\":3561:3569   */\n          0x6372656174650000000000000000000000000000000000000000000000000000\n            /* \"#utility.yul\":3557:3558   */\n          0x00\n            /* \"#utility.yul\":3549:3555   */\n          dup3\n            /* \"#utility.yul\":3545:3559   */\n          add\n            /* \"#utility.yul\":3538:3570   */\n          mstore\n            /* \"#utility.yul\":3421:3577   */\n          pop\n          jump\t// out\n            /* \"#utility.yul\":3583:3705   */\n        tag_27:\n            /* \"#utility.yul\":3656:3680   */\n          tag_76\n            /* \"#utility.yul\":3674:3679   */\n          dup2\n            /* \"#utility.yul\":3656:3680   */\n          tag_46\n          jump\t// in\n        tag_76:\n            /* \"#utility.yul\":3649:3654   */\n          dup2\n            /* \"#utility.yul\":3646:3681   */\n          eq\n            /* \"#utility.yul\":3636:3699   */\n          tag_77\n          jumpi\n            /* \"#utility.yul\":3695:3696   */\n          0x00\n            /* \"#utility.yul\":3692:3693   */\n          dup1\n            /* \"#utility.yul\":3685:3697   */\n          revert\n            /* \"#utility.yul\":3636:3699   */\n        tag_77:\n            /* \"#utility.yul\":3583:3705   */\n          pop\n          jump\t// out\n            /* \"trace/goods.sol\":26:1234  contract Goods{\r... */\n        tag_11:\n          dataSize(sub_0)\n          dup1\n          dataOffset(sub_0)\n          0x00\n          codecopy\n          0x00\n          return\n        stop\n\n        sub_0: assembly {\n                /* \"trace/goods.sol\":26:1234  contract Goods{\r... */\n              mstore(0x40, 0x80)\n              callvalue\n              dup1\n              iszero\n              tag_1\n              jumpi\n              0x00\n              dup1\n              revert\n            tag_1:\n              pop\n              jumpi(tag_2, lt(calldatasize, 0x04))\n              shr(0xe0, calldataload(0x00))\n              dup1\n              0x173d773d\n              eq\n              tag_3\n              jumpi\n              dup1\n              0x4e69d560\n              eq\n              tag_4\n              jumpi\n              dup1\n              0x799cf246\n              eq\n              tag_5\n              jumpi\n            tag_2:\n              0x00\n              dup1\n              revert\n                /* \"trace/goods.sol\":724:1025  function changeStatus(uint8 _status, string memory _remark) public returns (bool){\r... */\n            tag_3:\n              tag_6\n              0x04\n              dup1\n              calldatasize\n              sub\n              dup2\n              add\n              swap1\n              tag_7\n              swap2\n              swap1\n              tag_8\n              jump\t// in\n            tag_7:\n              tag_9\n              jump\t// in\n            tag_6:\n              mload(0x40)\n              tag_10\n              swap2\n              swap1\n              tag_11\n              jump\t// in\n            tag_10:\n              mload(0x40)\n              dup1\n              swap2\n              sub\n              swap1\n              return\n                /* \"trace/goods.sol\":1033:1120  function getStatus() public view returns (uint8){\r... */\n            tag_4:\n              tag_12\n              tag_13\n              jump\t// in\n            tag_12:\n              mload(0x40)\n              tag_14\n              swap2\n              swap1\n              tag_15\n              jump\t// in\n            tag_14:\n              mload(0x40)\n              dup1\n              swap2\n              sub\n              swap1\n              return\n                /* \"trace/goods.sol\":1128:1229  function getTranceInfo() public view returns (TraceData[] memory){\r... */\n            tag_5:\n              tag_16\n              tag_17\n              jump\t// in\n            tag_16:\n              mload(0x40)\n              tag_18\n              swap2\n              swap1\n              tag_19\n              jump\t// in\n            tag_18:\n              mload(0x40)\n              dup1\n              swap2\n              sub\n              swap1\n              return\n                /* \"trace/goods.sol\":724:1025  function changeStatus(uint8 _status, string memory _remark) public returns (bool){\r... */\n            tag_9:\n                /* \"trace/goods.sol\":800:804  bool */\n              0x00\n                /* \"trace/goods.sol\":832:839  _status */\n              dup3\n                /* \"trace/goods.sol\":816:829  currentStatus */\n              0x01\n              0x00\n                /* \"trace/goods.sol\":816:839  currentStatus = _status */\n              0x0100\n              exp\n              dup2\n              sload\n              dup2\n              0xff\n              mul\n              not\n              and\n              swap1\n              dup4\n              0xff\n              and\n              mul\n              or\n              swap1\n              sstore\n              pop\n                /* \"trace/goods.sol\":850:860  traceDatas */\n              0x02\n                /* \"trace/goods.sol\":866:922  TraceData(msg.sender, _status, block.timestamp, _remark) */\n              mload(0x40)\n              dup1\n              0x80\n              add\n              0x40\n              mstore\n              dup1\n                /* \"trace/goods.sol\":876:886  msg.sender */\n              caller\n                /* \"trace/goods.sol\":866:922  TraceData(msg.sender, _status, block.timestamp, _remark) */\n              0xffffffffffffffffffffffffffffffffffffffff\n              and\n              dup2\n              mstore\n              0x20\n              add\n                /* \"trace/goods.sol\":888:895  _status */\n              dup6\n                /* \"trace/goods.sol\":866:922  TraceData(msg.sender, _status, block.timestamp, _remark) */\n              0xff\n              and\n              dup2\n              mstore\n              0x20\n              add\n                /* \"trace/goods.sol\":897:912  block.timestamp */\n              timestamp\n                /* \"trace/goods.sol\":866:922  TraceData(msg.sender, _status, block.timestamp, _remark) */\n              dup2\n              mstore\n              0x20\n              add\n                /* \"trace/goods.sol\":914:921  _remark */\n              dup5\n                /* \"trace/goods.sol\":866:922  TraceData(msg.sender, _status, block.timestamp, _remark) */\n              dup2\n              mstore\n              pop\n                /* \"trace/goods.sol\":850:923  traceDatas.push(TraceData(msg.sender, _status, block.timestamp, _remark)) */\n              swap1\n              dup1\n              0x01\n              dup2\n              sload\n              add\n              dup1\n              dup3\n              sstore\n              dup1\n              swap2\n              pop\n              pop\n              0x01\n              swap1\n              sub\n              swap1\n              0x00\n              mstore\n              keccak256(0x00, 0x20)\n              swap1\n              0x03\n              mul\n              add\n              0x00\n              swap1\n              swap2\n              swap1\n              swap2\n              swap1\n              swap2\n              pop\n              0x00\n              dup3\n              add\n              mload\n              dup2\n              0x00\n              add\n              exp(0x0100, 0x00)\n              dup2\n              sload\n              dup2\n              0xffffffffffffffffffffffffffffffffffffffff\n              mul\n              not\n              and\n              swap1\n              dup4\n              0xffffffffffffffffffffffffffffffffffffffff\n              and\n              mul\n              or\n              swap1\n              sstore\n              pop\n              0x20\n              dup3\n              add\n              mload\n              dup2\n              0x00\n              add\n              exp(0x0100, 0x14)\n              dup2\n              sload\n              dup2\n              0xff\n              mul\n              not\n              and\n              swap1\n              dup4\n              0xff\n              and\n              mul\n              or\n              swap1\n              sstore\n              pop\n              0x40\n              dup3\n              add\n              mload\n              dup2\n              0x01\n              add\n              sstore\n              0x60\n              dup3\n              add\n              mload\n              dup2\n              0x02\n              add\n              swap1\n              dup1\n              mload\n              swap1\n              0x20\n              add\n              swap1\n              tag_22\n              swap3\n              swap2\n              swap1\n              tag_23\n              jump\t// in\n            tag_22:\n              pop\n              pop\n              pop\n                /* \"trace/goods.sol\":939:995  NewStatus(msg.sender, _status, block.timestamp, _remark) */\n              0x38930409e72d179a853c881163fcee8ed63d42ec95ee4599fc17e0421e1303d8\n                /* \"trace/goods.sol\":949:959  msg.sender */\n              caller\n                /* \"trace/goods.sol\":961:968  _status */\n              dup5\n                /* \"trace/goods.sol\":970:985  block.timestamp */\n              timestamp\n                /* \"trace/goods.sol\":987:994  _remark */\n              dup6\n                /* \"trace/goods.sol\":939:995  NewStatus(msg.sender, _status, block.timestamp, _remark) */\n              mload(0x40)\n              tag_24\n              swap5\n              swap4\n              swap3\n              swap2\n              swap1\n              tag_25\n              jump\t// in\n            tag_24:\n              mload(0x40)\n              dup1\n              swap2\n              sub\n              swap1\n              log1\n                /* \"trace/goods.sol\":1013:1017  true */\n              0x01\n                /* \"trace/goods.sol\":1006:1017  return true */\n              swap1\n              pop\n                /* \"trace/goods.sol\":724:1025  function changeStatus(uint8 _status, string memory _remark) public returns (bool){\r... */\n              swap3\n              swap2\n              pop\n              pop\n              jump\t// out\n                /* \"trace/goods.sol\":1033:1120  function getStatus() public view returns (uint8){\r... */\n            tag_13:\n                /* \"trace/goods.sol\":1075:1080  uint8 */\n              0x00\n                /* \"trace/goods.sol\":1099:1112  currentStatus */\n              0x01\n              0x00\n              swap1\n              sload\n              swap1\n              0x0100\n              exp\n              swap1\n              div\n              0xff\n              and\n                /* \"trace/goods.sol\":1092:1112  return currentStatus */\n              swap1\n              pop\n                /* \"trace/goods.sol\":1033:1120  function getStatus() public view returns (uint8){\r... */\n              swap1\n              jump\t// out\n                /* \"trace/goods.sol\":1128:1229  function getTranceInfo() public view returns (TraceData[] memory){\r... */\n            tag_17:\n                /* \"trace/goods.sol\":1174:1192  TraceData[] memory */\n              0x60\n                /* \"trace/goods.sol\":1211:1221  traceDatas */\n              0x02\n                /* \"trace/goods.sol\":1204:1221  return traceDatas */\n              dup1\n              sload\n              dup1\n              0x20\n              mul\n              0x20\n              add\n              mload(0x40)\n              swap1\n              dup2\n              add\n              0x40\n              mstore\n              dup1\n              swap3\n              swap2\n              swap1\n              dup2\n              dup2\n              mstore\n              0x20\n              add\n              0x00\n              swap1\n            tag_28:\n              dup3\n              dup3\n              lt\n              iszero\n              tag_29\n              jumpi\n              dup4\n              dup3\n              swap1\n              0x00\n              mstore\n              keccak256(0x00, 0x20)\n              swap1\n              0x03\n              mul\n              add\n              mload(0x40)\n              dup1\n              0x80\n              add\n              0x40\n              mstore\n              swap1\n              dup2\n              0x00\n              dup3\n              add\n              0x00\n              swap1\n              sload\n              swap1\n              0x0100\n              exp\n              swap1\n              div\n              0xffffffffffffffffffffffffffffffffffffffff\n              and\n              0xffffffffffffffffffffffffffffffffffffffff\n              and\n              0xffffffffffffffffffffffffffffffffffffffff\n              and\n              dup2\n              mstore\n              0x20\n              add\n              0x00\n              dup3\n              add\n              0x14\n              swap1\n              sload\n              swap1\n              0x0100\n              exp\n              swap1\n              div\n              0xff\n              and\n              0xff\n              and\n              0xff\n              and\n              dup2\n              mstore\n              0x20\n              add\n              0x01\n              dup3\n              add\n              sload\n              dup2\n              mstore\n              0x20\n              add\n              0x02\n              dup3\n              add\n              dup1\n              sload\n              tag_31\n              swap1\n              tag_32\n              jump\t// in\n            tag_31:\n              dup1\n              0x1f\n              add\n              0x20\n              dup1\n              swap2\n              div\n              mul\n              0x20\n              add\n              mload(0x40)\n              swap1\n              dup2\n              add\n              0x40\n              mstore\n              dup1\n              swap3\n              swap2\n              swap1\n              dup2\n              dup2\n              mstore\n              0x20\n              add\n              dup3\n              dup1\n              sload\n              tag_33\n              swap1\n              tag_32\n              jump\t// in\n            tag_33:\n              dup1\n              iszero\n              tag_34\n              jumpi\n              dup1\n              0x1f\n              lt\n              tag_35\n              jumpi\n              0x0100\n              dup1\n              dup4\n              sload\n              div\n              mul\n              dup4\n              mstore\n              swap2\n              0x20\n              add\n              swap2\n              jump(tag_34)\n            tag_35:\n              dup3\n              add\n              swap2\n              swap1\n              0x00\n              mstore\n              keccak256(0x00, 0x20)\n              swap1\n            tag_36:\n              dup2\n              sload\n              dup2\n              mstore\n              swap1\n              0x01\n              add\n              swap1\n              0x20\n              add\n              dup1\n              dup4\n              gt\n              tag_36\n              jumpi\n              dup3\n              swap1\n              sub\n              0x1f\n              and\n              dup3\n              add\n              swap2\n            tag_34:\n              pop\n              pop\n              pop\n              pop\n              pop\n              dup2\n              mstore\n              pop\n              pop\n              dup2\n              mstore\n              0x20\n              add\n              swap1\n              0x01\n              add\n              swap1\n              jump(tag_28)\n            tag_29:\n              pop\n              pop\n              pop\n              pop\n              swap1\n              pop\n                /* \"trace/goods.sol\":1128:1229  function getTranceInfo() public view returns (TraceData[] memory){\r... */\n              swap1\n              jump\t// out\n            tag_23:\n              dup3\n              dup1\n              sload\n              tag_37\n              swap1\n              tag_32\n              jump\t// in\n            tag_37:\n              swap1\n              0x00\n              mstore\n              keccak256(0x00, 0x20)\n              swap1\n              0x1f\n              add\n              0x20\n              swap1\n              div\n              dup2\n              add\n              swap3\n              dup3\n              tag_39\n              jumpi\n              0x00\n              dup6\n              sstore\n              jump(tag_38)\n            tag_39:\n              dup3\n              0x1f\n              lt\n              tag_40\n              jumpi\n              dup1\n              mload\n              not(0xff)\n              and\n              dup4\n              dup1\n              add\n              or\n              dup6\n              sstore\n              jump(tag_38)\n            tag_40:\n              dup3\n              dup1\n              add\n              0x01\n              add\n              dup6\n              sstore\n              dup3\n              iszero\n              tag_38\n              jumpi\n              swap2\n              dup3\n              add\n            tag_41:\n              dup3\n              dup2\n              gt\n              iszero\n              tag_42\n              jumpi\n              dup3\n              mload\n              dup3\n              sstore\n              swap2\n              0x20\n              add\n              swap2\n              swap1\n              0x01\n              add\n              swap1\n              jump(tag_41)\n            tag_42:\n            tag_38:\n              pop\n              swap1\n              pop\n              tag_43\n              swap2\n              swap1\n              tag_44\n              jump\t// in\n            tag_43:\n              pop\n              swap1\n              jump\t// out\n            tag_44:\n            tag_45:\n              dup1\n              dup3\n              gt\n              iszero\n              tag_46\n              jumpi\n              0x00\n              dup2\n              0x00\n              swap1\n              sstore\n              pop\n              0x01\n              add\n              jump(tag_45)\n            tag_46:\n              pop\n              swap1\n              jump\t// out\n                /* \"#utility.yul\":7:419   */\n            tag_48:\n                /* \"#utility.yul\":85:90   */\n              0x00\n                /* \"#utility.yul\":110:176   */\n              tag_50\n                /* \"#utility.yul\":126:175   */\n              tag_51\n                /* \"#utility.yul\":168:174   */\n              dup5\n                /* \"#utility.yul\":126:175   */\n              tag_52\n              jump\t// in\n            tag_51:\n                /* \"#utility.yul\":110:176   */\n              tag_53\n              jump\t// in\n            tag_50:\n                /* \"#utility.yul\":101:176   */\n              swap1\n              pop\n                /* \"#utility.yul\":199:205   */\n              dup3\n                /* \"#utility.yul\":192:197   */\n              dup2\n                /* \"#utility.yul\":185:206   */\n              mstore\n                /* \"#utility.yul\":237:241   */\n              0x20\n                /* \"#utility.yul\":230:235   */\n              dup2\n                /* \"#utility.yul\":226:242   */\n              add\n                /* \"#utility.yul\":275:278   */\n              dup5\n                /* \"#utility.yul\":266:272   */\n              dup5\n                /* \"#utility.yul\":261:264   */\n              dup5\n                /* \"#utility.yul\":257:273   */\n              add\n                /* \"#utility.yul\":254:279   */\n              gt\n                /* \"#utility.yul\":251:363   */\n              iszero\n              tag_54\n              jumpi\n                /* \"#utility.yul\":282:361   */\n              tag_55\n              tag_56\n              jump\t// in\n            tag_55:\n                /* \"#utility.yul\":251:363   */\n            tag_54:\n                /* \"#utility.yul\":372:413   */\n              tag_57\n                /* \"#utility.yul\":406:412   */\n              dup5\n                /* \"#utility.yul\":401:404   */\n              dup3\n                /* \"#utility.yul\":396:399   */\n              dup6\n                /* \"#utility.yul\":372:413   */\n              tag_58\n              jump\t// in\n            tag_57:\n                /* \"#utility.yul\":91:419   */\n              pop\n                /* \"#utility.yul\":7:419   */\n              swap4\n              swap3\n              pop\n              pop\n              pop\n              jump\t// out\n                /* \"#utility.yul\":439:779   */\n            tag_59:\n                /* \"#utility.yul\":495:500   */\n              0x00\n                /* \"#utility.yul\":544:547   */\n              dup3\n                /* \"#utility.yul\":537:541   */\n              0x1f\n                /* \"#utility.yul\":529:535   */\n              dup4\n                /* \"#utility.yul\":525:542   */\n              add\n                /* \"#utility.yul\":521:548   */\n              slt\n                /* \"#utility.yul\":511:633   */\n              tag_61\n              jumpi\n                /* \"#utility.yul\":552:631   */\n              tag_62\n              tag_63\n              jump\t// in\n            tag_62:\n                /* \"#utility.yul\":511:633   */\n            tag_61:\n                /* \"#utility.yul\":669:675   */\n              dup2\n                /* \"#utility.yul\":656:676   */\n              calldataload\n                /* \"#utility.yul\":694:773   */\n              tag_64\n                /* \"#utility.yul\":769:772   */\n              dup5\n                /* \"#utility.yul\":761:767   */\n              dup3\n                /* \"#utility.yul\":754:758   */\n              0x20\n                /* \"#utility.yul\":746:752   */\n              dup7\n                /* \"#utility.yul\":742:759   */\n              add\n                /* \"#utility.yul\":694:773   */\n              tag_48\n              jump\t// in\n            tag_64:\n                /* \"#utility.yul\":685:773   */\n              swap2\n              pop\n                /* \"#utility.yul\":501:779   */\n              pop\n                /* \"#utility.yul\":439:779   */\n              swap3\n              swap2\n              pop\n              pop\n              jump\t// out\n                /* \"#utility.yul\":785:920   */\n            tag_65:\n                /* \"#utility.yul\":829:834   */\n              0x00\n                /* \"#utility.yul\":867:873   */\n              dup2\n                /* \"#utility.yul\":854:874   */\n              calldataload\n                /* \"#utility.yul\":845:874   */\n              swap1\n              pop\n                /* \"#utility.yul\":883:914   */\n              tag_67\n                /* \"#utility.yul\":908:913   */\n              dup2\n                /* \"#utility.yul\":883:914   */\n              tag_68\n              jump\t// in\n            tag_67:\n                /* \"#utility.yul\":785:920   */\n              swap3\n              swap2\n              pop\n              pop\n              jump\t// out\n                /* \"#utility.yul\":926:1576   */\n            tag_8:\n                /* \"#utility.yul\":1002:1008   */\n              0x00\n                /* \"#utility.yul\":1010:1016   */\n              dup1\n                /* \"#utility.yul\":1059:1061   */\n              0x40\n                /* \"#utility.yul\":1047:1056   */\n              dup4\n                /* \"#utility.yul\":1038:1045   */\n              dup6\n                /* \"#utility.yul\":1034:1057   */\n              sub\n                /* \"#utility.yul\":1030:1062   */\n              slt\n                /* \"#utility.yul\":1027:1146   */\n              iszero\n              tag_70\n              jumpi\n                /* \"#utility.yul\":1065:1144   */\n              tag_71\n              tag_72\n              jump\t// in\n            tag_71:\n                /* \"#utility.yul\":1027:1146   */\n            tag_70:\n                /* \"#utility.yul\":1185:1186   */\n              0x00\n                /* \"#utility.yul\":1210:1261   */\n              tag_73\n                /* \"#utility.yul\":1253:1260   */\n              dup6\n                /* \"#utility.yul\":1244:1250   */\n              dup3\n                /* \"#utility.yul\":1233:1242   */\n              dup7\n                /* \"#utility.yul\":1229:1251   */\n              add\n                /* \"#utility.yul\":1210:1261   */\n              tag_65\n              jump\t// in\n            tag_73:\n                /* \"#utility.yul\":1200:1261   */\n              swap3\n              pop\n                /* \"#utility.yul\":1156:1271   */\n              pop\n                /* \"#utility.yul\":1338:1340   */\n              0x20\n                /* \"#utility.yul\":1327:1336   */\n              dup4\n                /* \"#utility.yul\":1323:1341   */\n              add\n                /* \"#utility.yul\":1310:1342   */\n              calldataload\n                /* \"#utility.yul\":1369:1387   */\n              0xffffffffffffffff\n                /* \"#utility.yul\":1361:1367   */\n              dup2\n                /* \"#utility.yul\":1358:1388   */\n              gt\n                /* \"#utility.yul\":1355:1472   */\n              iszero\n              tag_74\n              jumpi\n                /* \"#utility.yul\":1391:1470   */\n              tag_75\n              tag_76\n              jump\t// in\n            tag_75:\n                /* \"#utility.yul\":1355:1472   */\n            tag_74:\n                /* \"#utility.yul\":1496:1559   */\n              tag_77\n                /* \"#utility.yul\":1551:1558   */\n              dup6\n                /* \"#utility.yul\":1542:1548   */\n              dup3\n                /* \"#utility.yul\":1531:1540   */\n              dup7\n                /* \"#utility.yul\":1527:1549   */\n              add\n                /* \"#utility.yul\":1496:1559   */\n              tag_59\n              jump\t// in\n            tag_77:\n                /* \"#utility.yul\":1486:1559   */\n              swap2\n              pop\n                /* \"#utility.yul\":1281:1569   */\n              pop\n                /* \"#utility.yul\":926:1576   */\n              swap3\n              pop\n              swap3\n              swap1\n              pop\n              jump\t// out\n                /* \"#utility.yul\":1582:1842   */\n            tag_78:\n                /* \"#utility.yul\":1703:1713   */\n              0x00\n                /* \"#utility.yul\":1738:1836   */\n              tag_80\n                /* \"#utility.yul\":1832:1835   */\n              dup4\n                /* \"#utility.yul\":1824:1830   */\n              dup4\n                /* \"#utility.yul\":1738:1836   */\n              tag_81\n              jump\t// in\n            tag_80:\n                /* \"#utility.yul\":1724:1836   */\n              swap1\n              pop\n                /* \"#utility.yul\":1582:1842   */\n              swap3\n              swap2\n              pop\n              pop\n              jump\t// out\n                /* \"#utility.yul\":1848:1956   */\n            tag_82:\n                /* \"#utility.yul\":1925:1949   */\n              tag_84\n                /* \"#utility.yul\":1943:1948   */\n              dup2\n                /* \"#utility.yul\":1925:1949   */\n              tag_85\n              jump\t// in\n            tag_84:\n                /* \"#utility.yul\":1920:1923   */\n              dup3\n                /* \"#utility.yul\":1913:1950   */\n              mstore\n                /* \"#utility.yul\":1848:1956   */\n              pop\n              pop\n              jump\t// out\n                /* \"#utility.yul\":1962:2080   */\n            tag_86:\n                /* \"#utility.yul\":2049:2073   */\n              tag_88\n                /* \"#utility.yul\":2067:2072   */\n              dup2\n                /* \"#utility.yul\":2049:2073   */\n              tag_85\n              jump\t// in\n            tag_88:\n                /* \"#utility.yul\":2044:2047   */\n              dup3\n                /* \"#utility.yul\":2037:2074   */\n              mstore\n                /* \"#utility.yul\":1962:2080   */\n              pop\n              pop\n              jump\t// out\n                /* \"#utility.yul\":2146:3265   */\n            tag_89:\n                /* \"#utility.yul\":2317:2320   */\n              0x00\n                /* \"#utility.yul\":2346:2426   */\n              tag_91\n                /* \"#utility.yul\":2420:2425   */\n              dup3\n                /* \"#utility.yul\":2346:2426   */\n              tag_92\n              jump\t// in\n            tag_91:\n                /* \"#utility.yul\":2442:2554   */\n              tag_93\n                /* \"#utility.yul\":2547:2553   */\n              dup2\n                /* \"#utility.yul\":2542:2545   */\n              dup6\n                /* \"#utility.yul\":2442:2554   */\n              tag_94\n              jump\t// in\n            tag_93:\n                /* \"#utility.yul\":2435:2554   */\n              swap4\n              pop\n                /* \"#utility.yul\":2580:2583   */\n              dup4\n                /* \"#utility.yul\":2625:2629   */\n              0x20\n                /* \"#utility.yul\":2617:2623   */\n              dup3\n                /* \"#utility.yul\":2613:2630   */\n              mul\n                /* \"#utility.yul\":2608:2611   */\n              dup6\n                /* \"#utility.yul\":2604:2631   */\n              add\n                /* \"#utility.yul\":2655:2737   */\n              tag_95\n                /* \"#utility.yul\":2731:2736   */\n              dup6\n                /* \"#utility.yul\":2655:2737   */\n              tag_96\n              jump\t// in\n            tag_95:\n                /* \"#utility.yul\":2760:2767   */\n              dup1\n                /* \"#utility.yul\":2791:2792   */\n              0x00\n                /* \"#utility.yul\":2776:3220   */\n            tag_97:\n                /* \"#utility.yul\":2801:2807   */\n              dup6\n                /* \"#utility.yul\":2798:2799   */\n              dup2\n                /* \"#utility.yul\":2795:2808   */\n              lt\n                /* \"#utility.yul\":2776:3220   */\n              iszero\n              tag_99\n              jumpi\n                /* \"#utility.yul\":2872:2881   */\n              dup5\n                /* \"#utility.yul\":2866:2870   */\n              dup5\n                /* \"#utility.yul\":2862:2882   */\n              sub\n                /* \"#utility.yul\":2857:2860   */\n              dup10\n                /* \"#utility.yul\":2850:2883   */\n              mstore\n                /* \"#utility.yul\":2923:2929   */\n              dup2\n                /* \"#utility.yul\":2917:2930   */\n              mload\n                /* \"#utility.yul\":2951:3067   */\n              tag_100\n                /* \"#utility.yul\":3062:3066   */\n              dup6\n                /* \"#utility.yul\":3047:3060   */\n              dup3\n                /* \"#utility.yul\":2951:3067   */\n              tag_78\n              jump\t// in\n            tag_100:\n                /* \"#utility.yul\":2943:3067   */\n              swap5\n              pop\n                /* \"#utility.yul\":3090:3176   */\n              tag_101\n                /* \"#utility.yul\":3169:3175   */\n              dup4\n                /* \"#utility.yul\":3090:3176   */\n              tag_102\n              jump\t// in\n            tag_101:\n                /* \"#utility.yul\":3080:3176   */\n              swap3\n              pop\n                /* \"#utility.yul\":3205:3209   */\n              0x20\n                /* \"#utility.yul\":3200:3203   */\n              dup11\n                /* \"#utility.yul\":3196:3210   */\n              add\n                /* \"#utility.yul\":3189:3210   */\n              swap10\n              pop\n                /* \"#utility.yul\":2836:3220   */\n              pop\n                /* \"#utility.yul\":2823:2824   */\n              0x01\n                /* \"#utility.yul\":2820:2821   */\n              dup2\n                /* \"#utility.yul\":2816:2825   */\n              add\n                /* \"#utility.yul\":2811:2825   */\n              swap1\n              pop\n                /* \"#utility.yul\":2776:3220   */\n              jump(tag_97)\n            tag_99:\n                /* \"#utility.yul\":2780:2794   */\n              pop\n                /* \"#utility.yul\":3236:3240   */\n              dup3\n                /* \"#utility.yul\":3229:3240   */\n              swap8\n              pop\n                /* \"#utility.yul\":3256:3259   */\n              dup8\n                /* \"#utility.yul\":3249:3259   */\n              swap6\n              pop\n                /* \"#utility.yul\":2322:3265   */\n              pop\n              pop\n              pop\n              pop\n              pop\n                /* \"#utility.yul\":2146:3265   */\n              swap3\n              swap2\n              pop\n              pop\n              jump\t// out\n                /* \"#utility.yul\":3271:3380   */\n            tag_103:\n                /* \"#utility.yul\":3352:3373   */\n              tag_105\n                /* \"#utility.yul\":3367:3372   */\n              dup2\n                /* \"#utility.yul\":3352:3373   */\n              tag_106\n              jump\t// in\n            tag_105:\n                /* \"#utility.yul\":3347:3350   */\n              dup3\n                /* \"#utility.yul\":3340:3374   */\n              mstore\n                /* \"#utility.yul\":3271:3380   */\n              pop\n              pop\n              jump\t// out\n                /* \"#utility.yul\":3386:3730   */\n            tag_107:\n                /* \"#utility.yul\":3464:3467   */\n              0x00\n                /* \"#utility.yul\":3492:3531   */\n              tag_109\n                /* \"#utility.yul\":3525:3530   */\n              dup3\n                /* \"#utility.yul\":3492:3531   */\n              tag_110\n              jump\t// in\n            tag_109:\n                /* \"#utility.yul\":3547:3608   */\n              tag_111\n                /* \"#utility.yul\":3601:3607   */\n              dup2\n                /* \"#utility.yul\":3596:3599   */\n              dup6\n                /* \"#utility.yul\":3547:3608   */\n              tag_112\n              jump\t// in\n            tag_111:\n                /* \"#utility.yul\":3540:3608   */\n              swap4\n              pop\n                /* \"#utility.yul\":3617:3669   */\n              tag_113\n                /* \"#utility.yul\":3662:3668   */\n              dup2\n                /* \"#utility.yul\":3657:3660   */\n              dup6\n                /* \"#utility.yul\":3650:3654   */\n              0x20\n                /* \"#utility.yul\":3643:3648   */\n              dup7\n                /* \"#utility.yul\":3639:3655   */\n              add\n                /* \"#utility.yul\":3617:3669   */\n              tag_114\n              jump\t// in\n            tag_113:\n                /* \"#utility.yul\":3694:3723   */\n              tag_115\n                /* \"#utility.yul\":3716:3722   */\n              dup2\n                /* \"#utility.yul\":3694:3723   */\n              tag_116\n              jump\t// in\n            tag_115:\n                /* \"#utility.yul\":3689:3692   */\n              dup5\n                /* \"#utility.yul\":3685:3724   */\n              add\n                /* \"#utility.yul\":3678:3724   */\n              swap2\n              pop\n                /* \"#utility.yul\":3468:3730   */\n              pop\n                /* \"#utility.yul\":3386:3730   */\n              swap3\n              swap2\n              pop\n              pop\n              jump\t// out\n                /* \"#utility.yul\":3736:4100   */\n            tag_117:\n                /* \"#utility.yul\":3824:3827   */\n              0x00\n                /* \"#utility.yul\":3852:3891   */\n              tag_119\n                /* \"#utility.yul\":3885:3890   */\n              dup3\n                /* \"#utility.yul\":3852:3891   */\n              tag_110\n              jump\t// in\n            tag_119:\n                /* \"#utility.yul\":3907:3978   */\n              tag_120\n                /* \"#utility.yul\":3971:3977   */\n              dup2\n                /* \"#utility.yul\":3966:3969   */\n              dup6\n                /* \"#utility.yul\":3907:3978   */\n              tag_121\n              jump\t// in\n            tag_120:\n                /* \"#utility.yul\":3900:3978   */\n              swap4\n              pop\n                /* \"#utility.yul\":3987:4039   */\n              tag_122\n                /* \"#utility.yul\":4032:4038   */\n              dup2\n                /* \"#utility.yul\":4027:4030   */\n              dup6\n                /* \"#utility.yul\":4020:4024   */\n              0x20\n                /* \"#utility.yul\":4013:4018   */\n              dup7\n                /* \"#utility.yul\":4009:4025   */\n              add\n                /* \"#utility.yul\":3987:4039   */\n              tag_114\n              jump\t// in\n            tag_122:\n                /* \"#utility.yul\":4064:4093   */\n              tag_123\n                /* \"#utility.yul\":4086:4092   */\n              dup2\n                /* \"#utility.yul\":4064:4093   */\n              tag_116\n              jump\t// in\n            tag_123:\n                /* \"#utility.yul\":4059:4062   */\n              dup5\n                /* \"#utility.yul\":4055:4094   */\n              add\n                /* \"#utility.yul\":4048:4094   */\n              swap2\n              pop\n                /* \"#utility.yul\":3828:4100   */\n              pop\n                /* \"#utility.yul\":3736:4100   */\n              swap3\n              swap2\n              pop\n              pop\n              jump\t// out\n                /* \"#utility.yul\":4162:5117   */\n            tag_81:\n                /* \"#utility.yul\":4273:4276   */\n              0x00\n                /* \"#utility.yul\":4309:4313   */\n              0x80\n                /* \"#utility.yul\":4304:4307   */\n              dup4\n                /* \"#utility.yul\":4300:4314   */\n              add\n                /* \"#utility.yul\":4400:4404   */\n              0x00\n                /* \"#utility.yul\":4393:4398   */\n              dup4\n                /* \"#utility.yul\":4389:4405   */\n              add\n                /* \"#utility.yul\":4383:4406   */\n              mload\n                /* \"#utility.yul\":4419:4482   */\n              tag_125\n                /* \"#utility.yul\":4476:4480   */\n              0x00\n                /* \"#utility.yul\":4471:4474   */\n              dup7\n                /* \"#utility.yul\":4467:4481   */\n              add\n                /* \"#utility.yul\":4453:4465   */\n              dup3\n                /* \"#utility.yul\":4419:4482   */\n              tag_82\n              jump\t// in\n            tag_125:\n                /* \"#utility.yul\":4324:4492   */\n              pop\n                /* \"#utility.yul\":4576:4580   */\n              0x20\n                /* \"#utility.yul\":4569:4574   */\n              dup4\n                /* \"#utility.yul\":4565:4581   */\n              add\n                /* \"#utility.yul\":4559:4582   */\n              mload\n                /* \"#utility.yul\":4595:4654   */\n              tag_126\n                /* \"#utility.yul\":4648:4652   */\n              0x20\n                /* \"#utility.yul\":4643:4646   */\n              dup7\n                /* \"#utility.yul\":4639:4653   */\n              add\n                /* \"#utility.yul\":4625:4637   */\n              dup3\n                /* \"#utility.yul\":4595:4654   */\n              tag_127\n              jump\t// in\n            tag_126:\n                /* \"#utility.yul\":4502:4664   */\n              pop\n                /* \"#utility.yul\":4751:4755   */\n              0x40\n                /* \"#utility.yul\":4744:4749   */\n              dup4\n                /* \"#utility.yul\":4740:4756   */\n              add\n                /* \"#utility.yul\":4734:4757   */\n              mload\n                /* \"#utility.yul\":4770:4833   */\n              tag_128\n                /* \"#utility.yul\":4827:4831   */\n              0x40\n                /* \"#utility.yul\":4822:4825   */\n              dup7\n                /* \"#utility.yul\":4818:4832   */\n              add\n                /* \"#utility.yul\":4804:4816   */\n              dup3\n                /* \"#utility.yul\":4770:4833   */\n              tag_129\n              jump\t// in\n            tag_128:\n                /* \"#utility.yul\":4674:4843   */\n              pop\n                /* \"#utility.yul\":4927:4931   */\n              0x60\n                /* \"#utility.yul\":4920:4925   */\n              dup4\n                /* \"#utility.yul\":4916:4932   */\n              add\n                /* \"#utility.yul\":4910:4933   */\n              mload\n                /* \"#utility.yul\":4980:4983   */\n              dup5\n                /* \"#utility.yul\":4974:4978   */\n              dup3\n                /* \"#utility.yul\":4970:4984   */\n              sub\n                /* \"#utility.yul\":4963:4967   */\n              0x60\n                /* \"#utility.yul\":4958:4961   */\n              dup7\n                /* \"#utility.yul\":4954:4968   */\n              add\n                /* \"#utility.yul\":4947:4985   */\n              mstore\n                /* \"#utility.yul\":5006:5079   */\n              tag_130\n                /* \"#utility.yul\":5074:5078   */\n              dup3\n                /* \"#utility.yul\":5060:5072   */\n              dup3\n                /* \"#utility.yul\":5006:5079   */\n              tag_107\n              jump\t// in\n            tag_130:\n                /* \"#utility.yul\":4998:5079   */\n              swap2\n              pop\n                /* \"#utility.yul\":4853:5090   */\n              pop\n                /* \"#utility.yul\":5107:5111   */\n              dup1\n                /* \"#utility.yul\":5100:5111   */\n              swap2\n              pop\n                /* \"#utility.yul\":4278:5117   */\n              pop\n                /* \"#utility.yul\":4162:5117   */\n              swap3\n              swap2\n              pop\n              pop\n              jump\t// out\n                /* \"#utility.yul\":5123:5231   */\n            tag_129:\n                /* \"#utility.yul\":5200:5224   */\n              tag_132\n                /* \"#utility.yul\":5218:5223   */\n              dup2\n                /* \"#utility.yul\":5200:5224   */\n              tag_133\n              jump\t// in\n            tag_132:\n                /* \"#utility.yul\":5195:5198   */\n              dup3\n                /* \"#utility.yul\":5188:5225   */\n              mstore\n                /* \"#utility.yul\":5123:5231   */\n              pop\n              pop\n              jump\t// out\n                /* \"#utility.yul\":5237:5355   */\n            tag_134:\n                /* \"#utility.yul\":5324:5348   */\n              tag_136\n                /* \"#utility.yul\":5342:5347   */\n              dup2\n                /* \"#utility.yul\":5324:5348   */\n              tag_133\n              jump\t// in\n            tag_136:\n                /* \"#utility.yul\":5319:5322   */\n              dup3\n                /* \"#utility.yul\":5312:5349   */\n              mstore\n                /* \"#utility.yul\":5237:5355   */\n              pop\n              pop\n              jump\t// out\n                /* \"#utility.yul\":5361:5463   */\n            tag_127:\n                /* \"#utility.yul\":5434:5456   */\n              tag_138\n                /* \"#utility.yul\":5450:5455   */\n              dup2\n                /* \"#utility.yul\":5434:5456   */\n              tag_139\n              jump\t// in\n            tag_138:\n                /* \"#utility.yul\":5429:5432   */\n              dup3\n                /* \"#utility.yul\":5422:5457   */\n              mstore\n                /* \"#utility.yul\":5361:5463   */\n              pop\n              pop\n              jump\t// out\n                /* \"#utility.yul\":5469:5581   */\n            tag_140:\n                /* \"#utility.yul\":5552:5574   */\n              tag_142\n                /* \"#utility.yul\":5568:5573   */\n              dup2\n                /* \"#utility.yul\":5552:5574   */\n              tag_139\n              jump\t// in\n            tag_142:\n                /* \"#utility.yul\":5547:5550   */\n              dup3\n                /* \"#utility.yul\":5540:5575   */\n              mstore\n                /* \"#utility.yul\":5469:5581   */\n              pop\n              pop\n              jump\t// out\n                /* \"#utility.yul\":5587:6223   */\n            tag_25:\n                /* \"#utility.yul\":5780:5784   */\n              0x00\n                /* \"#utility.yul\":5818:5821   */\n              0x80\n                /* \"#utility.yul\":5807:5816   */\n              dup3\n                /* \"#utility.yul\":5803:5822   */\n              add\n                /* \"#utility.yul\":5795:5822   */\n              swap1\n              pop\n                /* \"#utility.yul\":5832:5903   */\n              tag_144\n                /* \"#utility.yul\":5900:5901   */\n              0x00\n                /* \"#utility.yul\":5889:5898   */\n              dup4\n                /* \"#utility.yul\":5885:5902   */\n              add\n                /* \"#utility.yul\":5876:5882   */\n              dup8\n                /* \"#utility.yul\":5832:5903   */\n              tag_86\n              jump\t// in\n            tag_144:\n                /* \"#utility.yul\":5913:5981   */\n              tag_145\n                /* \"#utility.yul\":5977:5979   */\n              0x20\n                /* \"#utility.yul\":5966:5975   */\n              dup4\n                /* \"#utility.yul\":5962:5980   */\n              add\n                /* \"#utility.yul\":5953:5959   */\n              dup7\n                /* \"#utility.yul\":5913:5981   */\n              tag_140\n              jump\t// in\n            tag_145:\n                /* \"#utility.yul\":5991:6063   */\n              tag_146\n                /* \"#utility.yul\":6059:6061   */\n              0x40\n                /* \"#utility.yul\":6048:6057   */\n              dup4\n                /* \"#utility.yul\":6044:6062   */\n              add\n                /* \"#utility.yul\":6035:6041   */\n              dup6\n                /* \"#utility.yul\":5991:6063   */\n              tag_134\n              jump\t// in\n            tag_146:\n                /* \"#utility.yul\":6110:6119   */\n              dup2\n                /* \"#utility.yul\":6104:6108   */\n              dup2\n                /* \"#utility.yul\":6100:6120   */\n              sub\n                /* \"#utility.yul\":6095:6097   */\n              0x60\n                /* \"#utility.yul\":6084:6093   */\n              dup4\n                /* \"#utility.yul\":6080:6098   */\n              add\n                /* \"#utility.yul\":6073:6121   */\n              mstore\n                /* \"#utility.yul\":6138:6216   */\n              tag_147\n                /* \"#utility.yul\":6211:6215   */\n              dup2\n                /* \"#utility.yul\":6202:6208   */\n              dup5\n                /* \"#utility.yul\":6138:6216   */\n              tag_117\n              jump\t// in\n            tag_147:\n                /* \"#utility.yul\":6130:6216   */\n              swap1\n              pop\n                /* \"#utility.yul\":5587:6223   */\n              swap6\n              swap5\n              pop\n              pop\n              pop\n              pop\n              pop\n              jump\t// out\n                /* \"#utility.yul\":6229:6706   */\n            tag_19:\n                /* \"#utility.yul\":6424:6428   */\n              0x00\n                /* \"#utility.yul\":6462:6464   */\n              0x20\n                /* \"#utility.yul\":6451:6460   */\n              dup3\n                /* \"#utility.yul\":6447:6465   */\n              add\n                /* \"#utility.yul\":6439:6465   */\n              swap1\n              pop\n                /* \"#utility.yul\":6511:6520   */\n              dup2\n                /* \"#utility.yul\":6505:6509   */\n              dup2\n                /* \"#utility.yul\":6501:6521   */\n              sub\n                /* \"#utility.yul\":6497:6498   */\n              0x00\n                /* \"#utility.yul\":6486:6495   */\n              dup4\n                /* \"#utility.yul\":6482:6499   */\n              add\n                /* \"#utility.yul\":6475:6522   */\n              mstore\n                /* \"#utility.yul\":6539:6699   */\n              tag_149\n                /* \"#utility.yul\":6694:6698   */\n              dup2\n                /* \"#utility.yul\":6685:6691   */\n              dup5\n                /* \"#utility.yul\":6539:6699   */\n              tag_89\n              jump\t// in\n            tag_149:\n                /* \"#utility.yul\":6531:6699   */\n              swap1\n              pop\n                /* \"#utility.yul\":6229:6706   */\n              swap3\n              swap2\n              pop\n              pop\n              jump\t// out\n                /* \"#utility.yul\":6712:6922   */\n            tag_11:\n                /* \"#utility.yul\":6799:6803   */\n              0x00\n                /* \"#utility.yul\":6837:6839   */\n              0x20\n                /* \"#utility.yul\":6826:6835   */\n              dup3\n                /* \"#utility.yul\":6822:6840   */\n              add\n                /* \"#utility.yul\":6814:6840   */\n              swap1\n              pop\n                /* \"#utility.yul\":6850:6915   */\n              tag_151\n                /* \"#utility.yul\":6912:6913   */\n              0x00\n                /* \"#utility.yul\":6901:6910   */\n              dup4\n                /* \"#utility.yul\":6897:6914   */\n              add\n                /* \"#utility.yul\":6888:6894   */\n              dup5\n                /* \"#utility.yul\":6850:6915   */\n              tag_103\n              jump\t// in\n            tag_151:\n                /* \"#utility.yul\":6712:6922   */\n              swap3\n              swap2\n              pop\n              pop\n              jump\t// out\n                /* \"#utility.yul\":6928:7142   */\n            tag_15:\n                /* \"#utility.yul\":7017:7021   */\n              0x00\n                /* \"#utility.yul\":7055:7057   */\n              0x20\n                /* \"#utility.yul\":7044:7053   */\n              dup3\n                /* \"#utility.yul\":7040:7058   */\n              add\n                /* \"#utility.yul\":7032:7058   */\n              swap1\n              pop\n                /* \"#utility.yul\":7068:7135   */\n              tag_153\n                /* \"#utility.yul\":7132:7133   */\n              0x00\n                /* \"#utility.yul\":7121:7130   */\n              dup4\n                /* \"#utility.yul\":7117:7134   */\n              add\n                /* \"#utility.yul\":7108:7114   */\n              dup5\n                /* \"#utility.yul\":7068:7135   */\n              tag_140\n              jump\t// in\n            tag_153:\n                /* \"#utility.yul\":6928:7142   */\n              swap3\n              swap2\n              pop\n              pop\n              jump\t// out\n                /* \"#utility.yul\":7148:7277   */\n            tag_53:\n                /* \"#utility.yul\":7182:7188   */\n              0x00\n                /* \"#utility.yul\":7209:7229   */\n              tag_155\n              tag_156\n              jump\t// in\n            tag_155:\n                /* \"#utility.yul\":7199:7229   */\n              swap1\n              pop\n                /* \"#utility.yul\":7238:7271   */\n              tag_157\n                /* \"#utility.yul\":7266:7270   */\n              dup3\n                /* \"#utility.yul\":7258:7264   */\n              dup3\n                /* \"#utility.yul\":7238:7271   */\n              tag_158\n              jump\t// in\n            tag_157:\n                /* \"#utility.yul\":7148:7277   */\n              swap2\n              swap1\n              pop\n              jump\t// out\n                /* \"#utility.yul\":7283:7358   */\n            tag_156:\n                /* \"#utility.yul\":7316:7322   */\n              0x00\n                /* \"#utility.yul\":7349:7351   */\n              0x40\n                /* \"#utility.yul\":7343:7352   */\n              mload\n                /* \"#utility.yul\":7333:7352   */\n              swap1\n              pop\n                /* \"#utility.yul\":7283:7358   */\n              swap1\n              jump\t// out\n                /* \"#utility.yul\":7364:7672   */\n            tag_52:\n                /* \"#utility.yul\":7426:7430   */\n              0x00\n                /* \"#utility.yul\":7516:7534   */\n              0xffffffffffffffff\n                /* \"#utility.yul\":7508:7514   */\n              dup3\n                /* \"#utility.yul\":7505:7535   */\n              gt\n                /* \"#utility.yul\":7502:7558   */\n              iszero\n              tag_161\n              jumpi\n                /* \"#utility.yul\":7538:7556   */\n              tag_162\n              tag_163\n              jump\t// in\n            tag_162:\n                /* \"#utility.yul\":7502:7558   */\n            tag_161:\n                /* \"#utility.yul\":7576:7605   */\n              tag_164\n                /* \"#utility.yul\":7598:7604   */\n              dup3\n                /* \"#utility.yul\":7576:7605   */\n              tag_116\n              jump\t// in\n            tag_164:\n                /* \"#utility.yul\":7568:7605   */\n              swap1\n              pop\n                /* \"#utility.yul\":7660:7664   */\n              0x20\n                /* \"#utility.yul\":7654:7658   */\n              dup2\n                /* \"#utility.yul\":7650:7665   */\n              add\n                /* \"#utility.yul\":7642:7665   */\n              swap1\n              pop\n                /* \"#utility.yul\":7364:7672   */\n              swap2\n              swap1\n              pop\n              jump\t// out\n                /* \"#utility.yul\":7678:7836   */\n            tag_96:\n                /* \"#utility.yul\":7771:7775   */\n              0x00\n                /* \"#utility.yul\":7794:7797   */\n              dup2\n                /* \"#utility.yul\":7786:7797   */\n              swap1\n              pop\n                /* \"#utility.yul\":7824:7828   */\n              0x20\n                /* \"#utility.yul\":7819:7822   */\n              dup3\n                /* \"#utility.yul\":7815:7829   */\n              add\n                /* \"#utility.yul\":7807:7829   */\n              swap1\n              pop\n                /* \"#utility.yul\":7678:7836   */\n              swap2\n              swap1\n              pop\n              jump\t// out\n                /* \"#utility.yul\":7842:7982   */\n            tag_92:\n                /* \"#utility.yul\":7935:7941   */\n              0x00\n                /* \"#utility.yul\":7969:7974   */\n              dup2\n                /* \"#utility.yul\":7963:7975   */\n              mload\n                /* \"#utility.yul\":7953:7975   */\n              swap1\n              pop\n                /* \"#utility.yul\":7842:7982   */\n              swap2\n              swap1\n              pop\n              jump\t// out\n                /* \"#utility.yul\":7988:8087   */\n            tag_110:\n                /* \"#utility.yul\":8040:8046   */\n              0x00\n                /* \"#utility.yul\":8074:8079   */\n              dup2\n                /* \"#utility.yul\":8068:8080   */\n              mload\n                /* \"#utility.yul\":8058:8080   */\n              swap1\n              pop\n                /* \"#utility.yul\":7988:8087   */\n              swap2\n              swap1\n              pop\n              jump\t// out\n                /* \"#utility.yul\":8093:8232   */\n            tag_102:\n                /* \"#utility.yul\":8189:8193   */\n              0x00\n                /* \"#utility.yul\":8221:8225   */\n              0x20\n                /* \"#utility.yul\":8216:8219   */\n              dup3\n                /* \"#utility.yul\":8212:8226   */\n              add\n                /* \"#utility.yul\":8204:8226   */\n              swap1\n              pop\n                /* \"#utility.yul\":8093:8232   */\n              swap2\n              swap1\n              pop\n              jump\t// out\n                /* \"#utility.yul\":8238:8448   */\n            tag_94:\n                /* \"#utility.yul\":8363:8374   */\n              0x00\n                /* \"#utility.yul\":8397:8403   */\n              dup3\n                /* \"#utility.yul\":8392:8395   */\n              dup3\n                /* \"#utility.yul\":8385:8404   */\n              mstore\n                /* \"#utility.yul\":8437:8441   */\n              0x20\n                /* \"#utility.yul\":8432:8435   */\n              dup3\n                /* \"#utility.yul\":8428:8442   */\n              add\n                /* \"#utility.yul\":8413:8442   */\n              swap1\n              pop\n                /* \"#utility.yul\":8238:8448   */\n              swap3\n              swap2\n              pop\n              pop\n              jump\t// out\n                /* \"#utility.yul\":8454:8613   */\n            tag_112:\n                /* \"#utility.yul\":8528:8539   */\n              0x00\n                /* \"#utility.yul\":8562:8568   */\n              dup3\n                /* \"#utility.yul\":8557:8560   */\n              dup3\n                /* \"#utility.yul\":8550:8569   */\n              mstore\n                /* \"#utility.yul\":8602:8606   */\n              0x20\n                /* \"#utility.yul\":8597:8600   */\n              dup3\n                /* \"#utility.yul\":8593:8607   */\n              add\n                /* \"#utility.yul\":8578:8607   */\n              swap1\n              pop\n                /* \"#utility.yul\":8454:8613   */\n              swap3\n              swap2\n              pop\n              pop\n              jump\t// out\n                /* \"#utility.yul\":8619:8788   */\n            tag_121:\n                /* \"#utility.yul\":8703:8714   */\n              0x00\n                /* \"#utility.yul\":8737:8743   */\n              dup3\n                /* \"#utility.yul\":8732:8735   */\n              dup3\n                /* \"#utility.yul\":8725:8744   */\n              mstore\n                /* \"#utility.yul\":8777:8781   */\n              0x20\n                /* \"#utility.yul\":8772:8775   */\n              dup3\n                /* \"#utility.yul\":8768:8782   */\n              add\n                /* \"#utility.yul\":8753:8782   */\n              swap1\n              pop\n                /* \"#utility.yul\":8619:8788   */\n              swap3\n              swap2\n              pop\n              pop\n              jump\t// out\n                /* \"#utility.yul\":8794:8890   */\n            tag_85:\n                /* \"#utility.yul\":8831:8838   */\n              0x00\n                /* \"#utility.yul\":8860:8884   */\n              tag_173\n                /* \"#utility.yul\":8878:8883   */\n              dup3\n                /* \"#utility.yul\":8860:8884   */\n              tag_174\n              jump\t// in\n            tag_173:\n                /* \"#utility.yul\":8849:8884   */\n              swap1\n              pop\n                /* \"#utility.yul\":8794:8890   */\n              swap2\n              swap1\n              pop\n              jump\t// out\n                /* \"#utility.yul\":8896:8986   */\n            tag_106:\n                /* \"#utility.yul\":8930:8937   */\n              0x00\n                /* \"#utility.yul\":8973:8978   */\n              dup2\n                /* \"#utility.yul\":8966:8979   */\n              iszero\n                /* \"#utility.yul\":8959:8980   */\n              iszero\n                /* \"#utility.yul\":8948:8980   */\n              swap1\n              pop\n                /* \"#utility.yul\":8896:8986   */\n              swap2\n              swap1\n              pop\n              jump\t// out\n                /* \"#utility.yul\":8992:9118   */\n            tag_174:\n                /* \"#utility.yul\":9029:9036   */\n              0x00\n                /* \"#utility.yul\":9069:9111   */\n              0xffffffffffffffffffffffffffffffffffffffff\n                /* \"#utility.yul\":9062:9067   */\n              dup3\n                /* \"#utility.yul\":9058:9112   */\n              and\n                /* \"#utility.yul\":9047:9112   */\n              swap1\n              pop\n                /* \"#utility.yul\":8992:9118   */\n              swap2\n              swap1\n              pop\n              jump\t// out\n                /* \"#utility.yul\":9124:9201   */\n            tag_133:\n                /* \"#utility.yul\":9161:9168   */\n              0x00\n                /* \"#utility.yul\":9190:9195   */\n              dup2\n                /* \"#utility.yul\":9179:9195   */\n              swap1\n              pop\n                /* \"#utility.yul\":9124:9201   */\n              swap2\n              swap1\n              pop\n              jump\t// out\n                /* \"#utility.yul\":9207:9293   */\n            tag_139:\n                /* \"#utility.yul\":9242:9249   */\n              0x00\n                /* \"#utility.yul\":9282:9286   */\n              0xff\n                /* \"#utility.yul\":9275:9280   */\n              dup3\n                /* \"#utility.yul\":9271:9287   */\n              and\n                /* \"#utility.yul\":9260:9287   */\n              swap1\n              pop\n                /* \"#utility.yul\":9207:9293   */\n              swap2\n              swap1\n              pop\n              jump\t// out\n                /* \"#utility.yul\":9299:9453   */\n            tag_58:\n                /* \"#utility.yul\":9383:9389   */\n              dup3\n                /* \"#utility.yul\":9378:9381   */\n              dup2\n                /* \"#utility.yul\":9373:9376   */\n              dup4\n                /* \"#utility.yul\":9360:9390   */\n              calldatacopy\n                /* \"#utility.yul\":9445:9446   */\n              0x00\n                /* \"#utility.yul\":9436:9442   */\n              dup4\n                /* \"#utility.yul\":9431:9434   */\n              dup4\n                /* \"#utility.yul\":9427:9443   */\n              add\n                /* \"#utility.yul\":9420:9447   */\n              mstore\n                /* \"#utility.yul\":9299:9453   */\n              pop\n              pop\n              pop\n              jump\t// out\n                /* \"#utility.yul\":9459:9766   */\n            tag_114:\n                /* \"#utility.yul\":9527:9528   */\n              0x00\n                /* \"#utility.yul\":9537:9650   */\n            tag_181:\n                /* \"#utility.yul\":9551:9557   */\n              dup4\n                /* \"#utility.yul\":9548:9549   */\n              dup2\n                /* \"#utility.yul\":9545:9558   */\n              lt\n                /* \"#utility.yul\":9537:9650   */\n              iszero\n              tag_183\n              jumpi\n                /* \"#utility.yul\":9636:9637   */\n              dup1\n                /* \"#utility.yul\":9631:9634   */\n              dup3\n                /* \"#utility.yul\":9627:9638   */\n              add\n                /* \"#utility.yul\":9621:9639   */\n              mload\n                /* \"#utility.yul\":9617:9618   */\n              dup2\n                /* \"#utility.yul\":9612:9615   */\n              dup5\n                /* \"#utility.yul\":9608:9619   */\n              add\n                /* \"#utility.yul\":9601:9640   */\n              mstore\n                /* \"#utility.yul\":9573:9575   */\n              0x20\n                /* \"#utility.yul\":9570:9571   */\n              dup2\n                /* \"#utility.yul\":9566:9576   */\n              add\n                /* \"#utility.yul\":9561:9576   */\n              swap1\n              pop\n                /* \"#utility.yul\":9537:9650   */\n              jump(tag_181)\n            tag_183:\n                /* \"#utility.yul\":9668:9674   */\n              dup4\n                /* \"#utility.yul\":9665:9666   */\n              dup2\n                /* \"#utility.yul\":9662:9675   */\n              gt\n                /* \"#utility.yul\":9659:9760   */\n              iszero\n              tag_184\n              jumpi\n                /* \"#utility.yul\":9748:9749   */\n              0x00\n                /* \"#utility.yul\":9739:9745   */\n              dup5\n                /* \"#utility.yul\":9734:9737   */\n              dup5\n                /* \"#utility.yul\":9730:9746   */\n              add\n                /* \"#utility.yul\":9723:9750   */\n              mstore\n                /* \"#utility.yul\":9659:9760   */\n            tag_184:\n                /* \"#utility.yul\":9508:9766   */\n              pop\n                /* \"#utility.yul\":9459:9766   */\n              pop\n              pop\n              pop\n              jump\t// out\n                /* \"#utility.yul\":9772:10092   */\n            tag_32:\n                /* \"#utility.yul\":9816:9822   */\n              0x00\n                /* \"#utility.yul\":9853:9854   */\n              0x02\n                /* \"#utility.yul\":9847:9851   */\n              dup3\n                /* \"#utility.yul\":9843:9855   */\n              div\n                /* \"#utility.yul\":9833:9855   */\n              swap1\n              pop\n                /* \"#utility.yul\":9900:9901   */\n              0x01\n                /* \"#utility.yul\":9894:9898   */\n              dup3\n                /* \"#utility.yul\":9890:9902   */\n              and\n                /* \"#utility.yul\":9921:9939   */\n              dup1\n                /* \"#utility.yul\":9911:9992   */\n              tag_186\n              jumpi\n                /* \"#utility.yul\":9977:9981   */\n              0x7f\n                /* \"#utility.yul\":9969:9975   */\n              dup3\n                /* \"#utility.yul\":9965:9982   */\n              and\n                /* \"#utility.yul\":9955:9982   */\n              swap2\n              pop\n                /* \"#utility.yul\":9911:9992   */\n            tag_186:\n                /* \"#utility.yul\":10039:10041   */\n              0x20\n                /* \"#utility.yul\":10031:10037   */\n              dup3\n                /* \"#utility.yul\":10028:10042   */\n              lt\n                /* \"#utility.yul\":10008:10026   */\n              dup2\n                /* \"#utility.yul\":10005:10043   */\n              eq\n                /* \"#utility.yul\":10002:10086   */\n              iszero\n              tag_187\n              jumpi\n                /* \"#utility.yul\":10058:10076   */\n              tag_188\n              tag_189\n              jump\t// in\n            tag_188:\n                /* \"#utility.yul\":10002:10086   */\n            tag_187:\n                /* \"#utility.yul\":9823:10092   */\n              pop\n                /* \"#utility.yul\":9772:10092   */\n              swap2\n              swap1\n              pop\n              jump\t// out\n                /* \"#utility.yul\":10098:10379   */\n            tag_158:\n                /* \"#utility.yul\":10181:10208   */\n              tag_191\n                /* \"#utility.yul\":10203:10207   */\n              dup3\n                /* \"#utility.yul\":10181:10208   */\n              tag_116\n              jump\t// in\n            tag_191:\n                /* \"#utility.yul\":10173:10179   */\n              dup2\n                /* \"#utility.yul\":10169:10209   */\n              add\n                /* \"#utility.yul\":10311:10317   */\n              dup2\n                /* \"#utility.yul\":10299:10309   */\n              dup2\n                /* \"#utility.yul\":10296:10318   */\n              lt\n                /* \"#utility.yul\":10275:10293   */\n              0xffffffffffffffff\n                /* \"#utility.yul\":10263:10273   */\n              dup3\n                /* \"#utility.yul\":10260:10294   */\n              gt\n                /* \"#utility.yul\":10257:10319   */\n              or\n                /* \"#utility.yul\":10254:10342   */\n              iszero\n              tag_192\n              jumpi\n                /* \"#utility.yul\":10322:10340   */\n              tag_193\n              tag_163\n              jump\t// in\n            tag_193:\n                /* \"#utility.yul\":10254:10342   */\n            tag_192:\n                /* \"#utility.yul\":10362:10372   */\n              dup1\n                /* \"#utility.yul\":10358:10360   */\n              0x40\n                /* \"#utility.yul\":10351:10373   */\n              mstore\n                /* \"#utility.yul\":10141:10379   */\n              pop\n                /* \"#utility.yul\":10098:10379   */\n              pop\n              pop\n              jump\t// out\n                /* \"#utility.yul\":10385:10565   */\n            tag_189:\n                /* \"#utility.yul\":10433:10510   */\n              0x4e487b7100000000000000000000000000000000000000000000000000000000\n                /* \"#utility.yul\":10430:10431   */\n              0x00\n                /* \"#utility.yul\":10423:10511   */\n              mstore\n                /* \"#utility.yul\":10530:10534   */\n              0x22\n                /* \"#utility.yul\":10527:10528   */\n              0x04\n                /* \"#utility.yul\":10520:10535   */\n              mstore\n                /* \"#utility.yul\":10554:10558   */\n              0x24\n                /* \"#utility.yul\":10551:10552   */\n              0x00\n                /* \"#utility.yul\":10544:10559   */\n              revert\n                /* \"#utility.yul\":10571:10751   */\n            tag_163:\n                /* \"#utility.yul\":10619:10696   */\n              0x4e487b7100000000000000000000000000000000000000000000000000000000\n                /* \"#utility.yul\":10616:10617   */\n              0x00\n                /* \"#utility.yul\":10609:10697   */\n              mstore\n                /* \"#utility.yul\":10716:10720   */\n              0x41\n                /* \"#utility.yul\":10713:10714   */\n              0x04\n                /* \"#utility.yul\":10706:10721   */\n              mstore\n                /* \"#utility.yul\":10740:10744   */\n              0x24\n                /* \"#utility.yul\":10737:10738   */\n              0x00\n                /* \"#utility.yul\":10730:10745   */\n              revert\n                /* \"#utility.yul\":10757:10874   */\n            tag_63:\n                /* \"#utility.yul\":10866:10867   */\n              0x00\n                /* \"#utility.yul\":10863:10864   */\n              dup1\n                /* \"#utility.yul\":10856:10868   */\n              revert\n                /* \"#utility.yul\":10880:10997   */\n            tag_56:\n                /* \"#utility.yul\":10989:10990   */\n              0x00\n                /* \"#utility.yul\":10986:10987   */\n              dup1\n                /* \"#utility.yul\":10979:10991   */\n              revert\n                /* \"#utility.yul\":11003:11120   */\n            tag_76:\n                /* \"#utility.yul\":11112:11113   */\n              0x00\n                /* \"#utility.yul\":11109:11110   */\n              dup1\n                /* \"#utility.yul\":11102:11114   */\n              revert\n                /* \"#utility.yul\":11126:11243   */\n            tag_72:\n                /* \"#utility.yul\":11235:11236   */\n              0x00\n                /* \"#utility.yul\":11232:11233   */\n              dup1\n                /* \"#utility.yul\":11225:11237   */\n              revert\n                /* \"#utility.yul\":11249:11351   */\n            tag_116:\n                /* \"#utility.yul\":11290:11296   */\n              0x00\n                /* \"#utility.yul\":11341:11343   */\n              0x1f\n                /* \"#utility.yul\":11337:11344   */\n              not\n                /* \"#utility.yul\":11332:11334   */\n              0x1f\n                /* \"#utility.yul\":11325:11330   */\n              dup4\n                /* \"#utility.yul\":11321:11335   */\n              add\n                /* \"#utility.yul\":11317:11345   */\n              and\n                /* \"#utility.yul\":11307:11345   */\n              swap1\n              pop\n                /* \"#utility.yul\":11249:11351   */\n              swap2\n              swap1\n              pop\n              jump\t// out\n                /* \"#utility.yul\":11357:11475   */\n            tag_68:\n                /* \"#utility.yul\":11428:11450   */\n              tag_202\n                /* \"#utility.yul\":11444:11449   */\n              dup2\n                /* \"#utility.yul\":11428:11450   */\n              tag_139\n              jump\t// in\n            tag_202:\n                /* \"#utility.yul\":11421:11426   */\n              dup2\n                /* \"#utility.yul\":11418:11451   */\n              eq\n                /* \"#utility.yul\":11408:11469   */\n              tag_203\n              jumpi\n                /* \"#utility.yul\":11465:11466   */\n              0x00\n                /* \"#utility.yul\":11462:11463   */\n              dup1\n                /* \"#utility.yul\":11455:11467   */\n              revert\n                /* \"#utility.yul\":11408:11469   */\n            tag_203:\n                /* \"#utility.yul\":11357:11475   */\n              pop\n              jump\t// out\n\n            auxdata: 0xa26469706673582212207fbc86115f704e8f12b1b2aea27599e2c160aec5d2db67f01d0cde4d623dc29b64736f6c63430008070033\n        }\n    }\n\n    auxdata: 0xa2646970667358221220aa1cdfc9647fffca98261b78927b849e60a482341df8e65fb67cf164470b8e6264736f6c63430008070033\n}\n",
				"bytecode": {
					"linkReferences": {},
					"object": "608060405234801561001057600080fd5b50604051611b93380380611b9383398181016040528101906100329190610054565b80600081905550506100a7565b60008151905061004e81610090565b92915050565b60006020828403121561006a5761006961008b565b5b60006100788482850161003f565b91505092915050565b6000819050919050565b600080fd5b61009981610081565b81146100a457600080fd5b50565b611add806100b66000396000f3fe60806040523480156200001157600080fd5b5060043610620000525760003560e01c80635a35dc9f14620000575780635c622a0e146200008d578063a2a8578d14620000c3578063b259003314620000f9575b600080fd5b6200007560048036038101906200006f9190620006bd565b6200012f565b6040516200008491906200089d565b60405180910390f35b620000ab6004803603810190620000a59190620006bd565b6200029c565b604051620000ba919062000948565b60405180910390f35b620000e16004803603810190620000db9190620006ef565b620003c3565b604051620000f0919062000880565b60405180910390f35b620001176004803603810190620001119190620006bd565b620004fd565b6040516200012691906200089d565b60405180910390f35b60006001600083815260200190815260200160002060000160149054906101000a900460ff161562000198576040517f08c379a00000000000000000000000000000000000000000000000000000000081526004016200018f90620008ba565b60405180910390fd5b600180600084815260200190815260200160002060000160146101000a81548160ff021916908315150217905550600082604051620001d790620005a3565b620001e39190620008fe565b604051809103906000f08015801562000200573d6000803e3d6000fd5b509050806001600085815260200190815260200160002060000160006101000a81548173ffffffffffffffffffffffffffffffffffffffff021916908373ffffffffffffffffffffffffffffffffffffffff1602179055507f574a7b24a1c457e7870bcda06bb53bf1658e3eb9b79dc62630bd1045a0defcd283336040516200028b9291906200091b565b60405180910390a180915050919050565b60006001600083815260200190815260200160002060000160149054906101000a900460ff1662000304576040517f08c379a0000000000000000000000000000000000000000000000000000000008152600401620002fb90620008dc565b60405180910390fd5b6001600083815260200190815260200160002060000160009054906101000a900473ffffffffffffffffffffffffffffffffffffffff1673ffffffffffffffffffffffffffffffffffffffff16634e69d5606040518163ffffffff1660e01b815260040160206040518083038186803b1580156200038157600080fd5b505afa15801562000396573d6000803e3d6000fd5b505050506040513d601f19601f82011682018060405250810190620003bc91906200076a565b9050919050565b60006001600085815260200190815260200160002060000160149054906101000a900460ff166200042b576040517f08c379a00000000000000000000000000000000000000000000000000000000081526004016200042290620008dc565b60405180910390fd5b6001600085815260200190815260200160002060000160009054906101000a900473ffffffffffffffffffffffffffffffffffffffff1673ffffffffffffffffffffffffffffffffffffffff1663173d773d84846040518363ffffffff1660e01b81526004016200049e92919062000965565b602060405180830381600087803b158015620004b957600080fd5b505af1158015620004ce573d6000803e3d6000fd5b505050506040513d601f19601f82011682018060405250810190620004f491906200068b565b90509392505050565b60006001600083815260200190815260200160002060000160149054906101000a900460ff1662000565576040517f08c379a00000000000000000000000000000000000000000000000000000000081526004016200055c90620008dc565b60405180910390fd5b6001600083815260200190815260200160002060000160009054906101000a900473ffffffffffffffffffffffffffffffffffffffff169050919050565b610e918062000c1783390190565b6000620005c8620005c284620009c2565b62000999565b905082815260208101848484011115620005e757620005e662000b56565b5b620005f484828562000aa7565b509392505050565b6000815190506200060d8162000bc8565b92915050565b600082601f8301126200062b576200062a62000b51565b5b81356200063d848260208601620005b1565b91505092915050565b600081359050620006578162000be2565b92915050565b6000813590506200066e8162000bfc565b92915050565b600081519050620006858162000bfc565b92915050565b600060208284031215620006a457620006a362000b60565b5b6000620006b484828501620005fc565b91505092915050565b600060208284031215620006d657620006d562000b60565b5b6000620006e68482850162000646565b91505092915050565b6000806000606084860312156200070b576200070a62000b60565b5b60006200071b8682870162000646565b93505060206200072e868287016200065d565b925050604084013567ffffffffffffffff81111562000752576200075162000b5b565b5b620007608682870162000613565b9150509250925092565b60006020828403121562000783576200078262000b60565b5b6000620007938482850162000674565b91505092915050565b620007a78162000a14565b82525050565b620007b88162000a28565b82525050565b620007c98162000a6b565b82525050565b6000620007dc82620009f8565b620007e8818562000a03565b9350620007fa81856020860162000ab6565b620008058162000b65565b840191505092915050565b60006200081f600e8362000a03565b91506200082c8262000b76565b602082019050919050565b60006200084660128362000a03565b9150620008538262000b9f565b602082019050919050565b620008698162000a54565b82525050565b6200087a8162000a5e565b82525050565b6000602082019050620008976000830184620007ad565b92915050565b6000602082019050620008b46000830184620007be565b92915050565b60006020820190508181036000830152620008d58162000810565b9050919050565b60006020820190508181036000830152620008f78162000837565b9050919050565b60006020820190506200091560008301846200085e565b92915050565b60006040820190506200093260008301856200085e565b6200094160208301846200079c565b9392505050565b60006020820190506200095f60008301846200086f565b92915050565b60006040820190506200097c60008301856200086f565b8181036020830152620009908184620007cf565b90509392505050565b6000620009a5620009b8565b9050620009b3828262000aec565b919050565b6000604051905090565b600067ffffffffffffffff821115620009e057620009df62000b22565b5b620009eb8262000b65565b9050602081019050919050565b600081519050919050565b600082825260208201905092915050565b600062000a218262000a34565b9050919050565b60008115159050919050565b600073ffffffffffffffffffffffffffffffffffffffff82169050919050565b6000819050919050565b600060ff82169050919050565b600062000a788262000a7f565b9050919050565b600062000a8c8262000a93565b9050919050565b600062000aa08262000a34565b9050919050565b82818337600083830152505050565b60005b8381101562000ad657808201518184015260208101905062000ab9565b8381111562000ae6576000848401525b50505050565b62000af78262000b65565b810181811067ffffffffffffffff8211171562000b195762000b1862000b22565b5b80604052505050565b7f4e487b7100000000000000000000000000000000000000000000000000000000600052604160045260246000fd5b600080fd5b600080fd5b600080fd5b600080fd5b6000601f19601f8301169050919050565b7f676f6f6473206973206578697374000000000000000000000000000000000000600082015250565b7f676f6f6473206973206e6f742065786973740000000000000000000000000000600082015250565b62000bd38162000a28565b811462000bdf57600080fd5b50565b62000bed8162000a54565b811462000bf957600080fd5b50565b62000c078162000a5e565b811462000c1357600080fd5b5056fe60806040523480156200001157600080fd5b5060405162000e9138038062000e91833981810160405281019062000037919062000294565b80600081905550600260405180608001604052803373ffffffffffffffffffffffffffffffffffffffff168152602001600060ff1681526020014281526020016040518060400160405280600681526020017f6372656174650000000000000000000000000000000000000000000000000000815250815250908060018154018082558091505060019003906000526020600020906003020160009091909190915060008201518160000160006101000a81548173ffffffffffffffffffffffffffffffffffffffff021916908373ffffffffffffffffffffffffffffffffffffffff16021790555060208201518160000160146101000a81548160ff021916908360ff16021790555060408201518160010155606082015181600201908051906020019062000169929190620001cd565b5050506000600160006101000a81548160ff021916908360ff1602179055507f38930409e72d179a853c881163fcee8ed63d42ec95ee4599fc17e0421e1303d833600042604051620001be9392919062000320565b60405180910390a1506200047b565b828054620001db90620003ce565b90600052602060002090601f016020900481019282620001ff57600085556200024b565b82601f106200021a57805160ff19168380011785556200024b565b828001600101855582156200024b579182015b828111156200024a5782518255916020019190600101906200022d565b5b5090506200025a91906200025e565b5090565b5b80821115620002795760008160009055506001016200025f565b5090565b6000815190506200028e8162000461565b92915050565b600060208284031215620002ad57620002ac62000433565b5b6000620002bd848285016200027d565b91505092915050565b620002d18162000383565b82525050565b6000620002e660068362000372565b9150620002f38262000438565b602082019050919050565b6200030981620003b7565b82525050565b6200031a81620003c1565b82525050565b6000608082019050620003376000830186620002c6565b6200034660208301856200030f565b620003556040830184620002fe565b81810360608301526200036881620002d7565b9050949350505050565b600082825260208201905092915050565b6000620003908262000397565b9050919050565b600073ffffffffffffffffffffffffffffffffffffffff82169050919050565b6000819050919050565b600060ff82169050919050565b60006002820490506001821680620003e757607f821691505b60208210811415620003fe57620003fd62000404565b5b50919050565b7f4e487b7100000000000000000000000000000000000000000000000000000000600052602260045260246000fd5b600080fd5b7f6372656174650000000000000000000000000000000000000000000000000000600082015250565b6200046c81620003b7565b81146200047857600080fd5b50565b610a06806200048b6000396000f3fe608060405234801561001057600080fd5b50600436106100415760003560e01c8063173d773d146100465780634e69d56014610076578063799cf24614610094575b600080fd5b610060600480360381019061005b91906104b9565b6100b2565b60405161006d919061074a565b60405180910390f35b61007e61020c565b60405161008b9190610765565b60405180910390f35b61009c610223565b6040516100a99190610728565b60405180910390f35b600082600160006101000a81548160ff021916908360ff160217905550600260405180608001604052803373ffffffffffffffffffffffffffffffffffffffff1681526020018560ff16815260200142815260200184815250908060018154018082558091505060019003906000526020600020906003020160009091909190915060008201518160000160006101000a81548173ffffffffffffffffffffffffffffffffffffffff021916908373ffffffffffffffffffffffffffffffffffffffff16021790555060208201518160000160146101000a81548160ff021916908360ff1602179055506040820151816001015560608201518160020190805190602001906101c2929190610391565b5050507f38930409e72d179a853c881163fcee8ed63d42ec95ee4599fc17e0421e1303d8338442856040516101fa94939291906106dc565b60405180910390a16001905092915050565b6000600160009054906101000a900460ff16905090565b60606002805480602002602001604051908101604052809291908181526020016000905b8282101561038857838290600052602060002090600302016040518060800160405290816000820160009054906101000a900473ffffffffffffffffffffffffffffffffffffffff1673ffffffffffffffffffffffffffffffffffffffff1673ffffffffffffffffffffffffffffffffffffffff1681526020016000820160149054906101000a900460ff1660ff1660ff168152602001600182015481526020016002820180546102f7906108d3565b80601f0160208091040260200160405190810160405280929190818152602001828054610323906108d3565b80156103705780601f1061034557610100808354040283529160200191610370565b820191906000526020600020905b81548152906001019060200180831161035357829003601f168201915b50505050508152505081526020019060010190610247565b50505050905090565b82805461039d906108d3565b90600052602060002090601f0160209004810192826103bf5760008555610406565b82601f106103d857805160ff1916838001178555610406565b82800160010185558215610406579182015b828111156104055782518255916020019190600101906103ea565b5b5090506104139190610417565b5090565b5b80821115610430576000816000905550600101610418565b5090565b6000610447610442846107a5565b610780565b90508281526020810184848401111561046357610462610999565b5b61046e848285610891565b509392505050565b600082601f83011261048b5761048a610994565b5b813561049b848260208601610434565b91505092915050565b6000813590506104b3816109b9565b92915050565b600080604083850312156104d0576104cf6109a3565b5b60006104de858286016104a4565b925050602083013567ffffffffffffffff8111156104ff576104fe61099e565b5b61050b85828601610476565b9150509250929050565b6000610521838361063d565b905092915050565b6105328161083c565b82525050565b6105418161083c565b82525050565b6000610552826107e6565b61055c8185610809565b93508360208202850161056e856107d6565b8060005b858110156105aa578484038952815161058b8582610515565b9450610596836107fc565b925060208a01995050600181019050610572565b50829750879550505050505092915050565b6105c58161084e565b82525050565b60006105d6826107f1565b6105e0818561081a565b93506105f08185602086016108a0565b6105f9816109a8565b840191505092915050565b600061060f826107f1565b610619818561082b565b93506106298185602086016108a0565b610632816109a8565b840191505092915050565b60006080830160008301516106556000860182610529565b50602083015161066860208601826106be565b50604083015161067b60408601826106a0565b506060830151848203606086015261069382826105cb565b9150508091505092915050565b6106a98161087a565b82525050565b6106b88161087a565b82525050565b6106c781610884565b82525050565b6106d681610884565b82525050565b60006080820190506106f16000830187610538565b6106fe60208301866106cd565b61070b60408301856106af565b818103606083015261071d8184610604565b905095945050505050565b600060208201905081810360008301526107428184610547565b905092915050565b600060208201905061075f60008301846105bc565b92915050565b600060208201905061077a60008301846106cd565b92915050565b600061078a61079b565b90506107968282610905565b919050565b6000604051905090565b600067ffffffffffffffff8211156107c0576107bf610965565b5b6107c9826109a8565b9050602081019050919050565b6000819050602082019050919050565b600081519050919050565b600081519050919050565b6000602082019050919050565b600082825260208201905092915050565b600082825260208201905092915050565b600082825260208201905092915050565b60006108478261085a565b9050919050565b60008115159050919050565b600073ffffffffffffffffffffffffffffffffffffffff82169050919050565b6000819050919050565b600060ff82169050919050565b82818337600083830152505050565b60005b838110156108be5780820151818401526020810190506108a3565b838111156108cd576000848401525b50505050565b600060028204905060018216806108eb57607f821691505b602082108114156108ff576108fe610936565b5b50919050565b61090e826109a8565b810181811067ffffffffffffffff8211171561092d5761092c610965565b5b80604052505050565b7f4e487b7100000000000000000000000000000000000000000000000000000000600052602260045260246000fd5b7f4e487b7100000000000000000000000000000000000000000000000000000000600052604160045260246000fd5b600080fd5b600080fd5b600080fd5b600080fd5b6000601f19601f8301169050919050565b6109c281610884565b81146109cd57600080fd5b5056fea26469706673582212207fbc86115f704e8f12b1b2aea27599e2c160aec5d2db67f01d0cde4d623dc29b64736f6c63430008070033a2646970667358221220aa1cdfc9647fffca98261b78927b849e60a482341df8e65fb67cf164470b8e6264736f6c63430008070033",
					"opcodes": "PUSH1 0x80 PUSH1 0x40 MSTORE CALLVALUE DUP1 ISZERO PUSH2 0x10 JUMPI PUSH1 0x0 DUP1 REVERT JUMPDEST POP PUSH1 0x40 MLOAD PUSH2 0x1B93 CODESIZE SUB DUP1 PUSH2 0x1B93 DUP4 CODECOPY DUP2 DUP2 ADD PUSH1 0x40 MSTORE DUP2 ADD SWAP1 PUSH2 0x32 SWAP2 SWAP1 PUSH2 0x54 JUMP JUMPDEST DUP1 PUSH1 0x0 DUP2 SWAP1 SSTORE POP POP PUSH2 0xA7 JUMP JUMPDEST PUSH1 0x0 DUP2 MLOAD SWAP1 POP PUSH2 0x4E DUP2 PUSH2 0x90 JUMP JUMPDEST SWAP3 SWAP2 POP POP JUMP JUMPDEST PUSH1 0x0 PUSH1 0x20 DUP3 DUP5 SUB SLT ISZERO PUSH2 0x6A JUMPI PUSH2 0x69 PUSH2 0x8B JUMP JUMPDEST JUMPDEST PUSH1 0x0 PUSH2 0x78 DUP5 DUP3 DUP6 ADD PUSH2 0x3F JUMP JUMPDEST SWAP2 POP POP SWAP3 SWAP2 POP POP JUMP JUMPDEST PUSH1 0x0 DUP2 SWAP1 POP SWAP2 SWAP1 POP JUMP JUMPDEST PUSH1 0x0 DUP1 REVERT JUMPDEST PUSH2 0x99 DUP2 PUSH2 0x81 JUMP JUMPDEST DUP2 EQ PUSH2 0xA4 JUMPI PUSH1 0x0 DUP1 REVERT JUMPDEST POP JUMP JUMPDEST PUSH2 0x1ADD DUP1 PUSH2 0xB6 PUSH1 0x0 CODECOPY PUSH1 0x0 RETURN INVALID PUSH1 0x80 PUSH1 0x40 MSTORE CALLVALUE DUP1 ISZERO PUSH3 0x11 JUMPI PUSH1 0x0 DUP1 REVERT JUMPDEST POP PUSH1 0x4 CALLDATASIZE LT PUSH3 0x52 JUMPI PUSH1 0x0 CALLDATALOAD PUSH1 0xE0 SHR DUP1 PUSH4 0x5A35DC9F EQ PUSH3 0x57 JUMPI DUP1 PUSH4 0x5C622A0E EQ PUSH3 0x8D JUMPI DUP1 PUSH4 0xA2A8578D EQ PUSH3 0xC3 JUMPI DUP1 PUSH4 0xB2590033 EQ PUSH3 0xF9 JUMPI JUMPDEST PUSH1 0x0 DUP1 REVERT JUMPDEST PUSH3 0x75 PUSH1 0x4 DUP1 CALLDATASIZE SUB DUP2 ADD SWAP1 PUSH3 0x6F SWAP2 SWAP1 PUSH3 0x6BD JUMP JUMPDEST PUSH3 0x12F JUMP JUMPDEST PUSH1 0x40 MLOAD PUSH3 0x84 SWAP2 SWAP1 PUSH3 0x89D JUMP JUMPDEST PUSH1 0x40 MLOAD DUP1 SWAP2 SUB SWAP1 RETURN JUMPDEST PUSH3 0xAB PUSH1 0x4 DUP1 CALLDATASIZE SUB DUP2 ADD SWAP1 PUSH3 0xA5 SWAP2 SWAP1 PUSH3 0x6BD JUMP JUMPDEST PUSH3 0x29C JUMP JUMPDEST PUSH1 0x40 MLOAD PUSH3 0xBA SWAP2 SWAP1 PUSH3 0x948 JUMP JUMPDEST PUSH1 0x40 MLOAD DUP1 SWAP2 SUB SWAP1 RETURN JUMPDEST PUSH3 0xE1 PUSH1 0x4 DUP1 CALLDATASIZE SUB DUP2 ADD SWAP1 PUSH3 0xDB SWAP2 SWAP1 PUSH3 0x6EF JUMP JUMPDEST PUSH3 0x3C3 JUMP JUMPDEST PUSH1 0x40 MLOAD PUSH3 0xF0 SWAP2 SWAP1 PUSH3 0x880 JUMP JUMPDEST PUSH1 0x40 MLOAD DUP1 SWAP2 SUB SWAP1 RETURN JUMPDEST PUSH3 0x117 PUSH1 0x4 DUP1 CALLDATASIZE SUB DUP2 ADD SWAP1 PUSH3 0x111 SWAP2 SWAP1 PUSH3 0x6BD JUMP JUMPDEST PUSH3 0x4FD JUMP JUMPDEST PUSH1 0x40 MLOAD PUSH3 0x126 SWAP2 SWAP1 PUSH3 0x89D JUMP JUMPDEST PUSH1 0x40 MLOAD DUP1 SWAP2 SUB SWAP1 RETURN JUMPDEST PUSH1 0x0 PUSH1 0x1 PUSH1 0x0 DUP4 DUP2 MSTORE PUSH1 0x20 ADD SWAP1 DUP2 MSTORE PUSH1 0x20 ADD PUSH1 0x0 KECCAK256 PUSH1 0x0 ADD PUSH1 0x14 SWAP1 SLOAD SWAP1 PUSH2 0x100 EXP SWAP1 DIV PUSH1 0xFF AND ISZERO PUSH3 0x198 JUMPI PUSH1 0x40 MLOAD PUSH32 0x8C379A000000000000000000000000000000000000000000000000000000000 DUP2 MSTORE PUSH1 0x4 ADD PUSH3 0x18F SWAP1 PUSH3 0x8BA JUMP JUMPDEST PUSH1 0x40 MLOAD DUP1 SWAP2 SUB SWAP1 REVERT JUMPDEST PUSH1 0x1 DUP1 PUSH1 0x0 DUP5 DUP2 MSTORE PUSH1 0x20 ADD SWAP1 DUP2 MSTORE PUSH1 0x20 ADD PUSH1 0x0 KECCAK256 PUSH1 0x0 ADD PUSH1 0x14 PUSH2 0x100 EXP DUP2 SLOAD DUP2 PUSH1 0xFF MUL NOT AND SWAP1 DUP4 ISZERO ISZERO MUL OR SWAP1 SSTORE POP PUSH1 0x0 DUP3 PUSH1 0x40 MLOAD PUSH3 0x1D7 SWAP1 PUSH3 0x5A3 JUMP JUMPDEST PUSH3 0x1E3 SWAP2 SWAP1 PUSH3 0x8FE JUMP JUMPDEST PUSH1 0x40 MLOAD DUP1 SWAP2 SUB SWAP1 PUSH1 0x0 CREATE DUP1 ISZERO DUP1 ISZERO PUSH3 0x200 JUMPI RETURNDATASIZE PUSH1 0x0 DUP1 RETURNDATACOPY RETURNDATASIZE PUSH1 0x0 REVERT JUMPDEST POP SWAP1 POP DUP1 PUSH1 0x1 PUSH1 0x0 DUP6 DUP2 MSTORE PUSH1 0x20 ADD SWAP1 DUP2 MSTORE PUSH1 0x20 ADD PUSH1 0x0 KECCAK256 PUSH1 0x0 ADD PUSH1 0x0 PUSH2 0x100 EXP DUP2 SLOAD DUP2 PUSH20 0xFFFFFFFFFFFFFFFFFFFFFFFFFFFFFFFFFFFFFFFF MUL NOT AND SWAP1 DUP4 PUSH20 0xFFFFFFFFFFFFFFFFFFFFFFFFFFFFFFFFFFFFFFFF AND MUL OR SWAP1 SSTORE POP PUSH32 0x574A7B24A1C457E7870BCDA06BB53BF1658E3EB9B79DC62630BD1045A0DEFCD2 DUP4 CALLER PUSH1 0x40 MLOAD PUSH3 0x28B SWAP3 SWAP2 SWAP1 PUSH3 0x91B JUMP JUMPDEST PUSH1 0x40 MLOAD DUP1 SWAP2 SUB SWAP1 LOG1 DUP1 SWAP2 POP POP SWAP2 SWAP1 POP JUMP JUMPDEST PUSH1 0x0 PUSH1 0x1 PUSH1 0x0 DUP4 DUP2 MSTORE PUSH1 0x20 ADD SWAP1 DUP2 MSTORE PUSH1 0x20 ADD PUSH1 0x0 KECCAK256 PUSH1 0x0 ADD PUSH1 0x14 SWAP1 SLOAD SWAP1 PUSH2 0x100 EXP SWAP1 DIV PUSH1 0xFF AND PUSH3 0x304 JUMPI PUSH1 0x40 MLOAD PUSH32 0x8C379A000000000000000000000000000000000000000000000000000000000 DUP2 MSTORE PUSH1 0x4 ADD PUSH3 0x2FB SWAP1 PUSH3 0x8DC JUMP JUMPDEST PUSH1 0x40 MLOAD DUP1 SWAP2 SUB SWAP1 REVERT JUMPDEST PUSH1 0x1 PUSH1 0x0 DUP4 DUP2 MSTORE PUSH1 0x20 ADD SWAP1 DUP2 MSTORE PUSH1 0x20 ADD PUSH1 0x0 KECCAK256 PUSH1 0x0 ADD PUSH1 0x0 SWAP1 SLOAD SWAP1 PUSH2 0x100 EXP SWAP1 DIV PUSH20 0xFFFFFFFFFFFFFFFFFFFFFFFFFFFFFFFFFFFFFFFF AND PUSH20 0xFFFFFFFFFFFFFFFFFFFFFFFFFFFFFFFFFFFFFFFF AND PUSH4 0x4E69D560 PUSH1 0x40 MLOAD DUP2 PUSH4 0xFFFFFFFF AND PUSH1 0xE0 SHL DUP2 MSTORE PUSH1 0x4 ADD PUSH1 0x20 PUSH1 0x40 MLOAD DUP1 DUP4 SUB DUP2 DUP7 DUP1 EXTCODESIZE ISZERO DUP1 ISZERO PUSH3 0x381 JUMPI PUSH1 0x0 DUP1 REVERT JUMPDEST POP GAS STATICCALL ISZERO DUP1 ISZERO PUSH3 0x396 JUMPI RETURNDATASIZE PUSH1 0x0 DUP1 RETURNDATACOPY RETURNDATASIZE PUSH1 0x0 REVERT JUMPDEST POP POP POP POP PUSH1 0x40 MLOAD RETURNDATASIZE PUSH1 0x1F NOT PUSH1 0x1F DUP3 ADD AND DUP3 ADD DUP1 PUSH1 0x40 MSTORE POP DUP2 ADD SWAP1 PUSH3 0x3BC SWAP2 SWAP1 PUSH3 0x76A JUMP JUMPDEST SWAP1 POP SWAP2 SWAP1 POP JUMP JUMPDEST PUSH1 0x0 PUSH1 0x1 PUSH1 0x0 DUP6 DUP2 MSTORE PUSH1 0x20 ADD SWAP1 DUP2 MSTORE PUSH1 0x20 ADD PUSH1 0x0 KECCAK256 PUSH1 0x0 ADD PUSH1 0x14 SWAP1 SLOAD SWAP1 PUSH2 0x100 EXP SWAP1 DIV PUSH1 0xFF AND PUSH3 0x42B JUMPI PUSH1 0x40 MLOAD PUSH32 0x8C379A000000000000000000000000000000000000000000000000000000000 DUP2 MSTORE PUSH1 0x4 ADD PUSH3 0x422 SWAP1 PUSH3 0x8DC JUMP JUMPDEST PUSH1 0x40 MLOAD DUP1 SWAP2 SUB SWAP1 REVERT JUMPDEST PUSH1 0x1 PUSH1 0x0 DUP6 DUP2 MSTORE PUSH1 0x20 ADD SWAP1 DUP2 MSTORE PUSH1 0x20 ADD PUSH1 0x0 KECCAK256 PUSH1 0x0 ADD PUSH1 0x0 SWAP1 SLOAD SWAP1 PUSH2 0x100 EXP SWAP1 DIV PUSH20 0xFFFFFFFFFFFFFFFFFFFFFFFFFFFFFFFFFFFFFFFF AND PUSH20 0xFFFFFFFFFFFFFFFFFFFFFFFFFFFFFFFFFFFFFFFF AND PUSH4 0x173D773D DUP5 DUP5 PUSH1 0x40 MLOAD DUP4 PUSH4 0xFFFFFFFF AND PUSH1 0xE0 SHL DUP2 MSTORE PUSH1 0x4 ADD PUSH3 0x49E SWAP3 SWAP2 SWAP1 PUSH3 0x965 JUMP JUMPDEST PUSH1 0x20 PUSH1 0x40 MLOAD DUP1 DUP4 SUB DUP2 PUSH1 0x0 DUP8 DUP1 EXTCODESIZE ISZERO DUP1 ISZERO PUSH3 0x4B9 JUMPI PUSH1 0x0 DUP1 REVERT JUMPDEST POP GAS CALL ISZERO DUP1 ISZERO PUSH3 0x4CE JUMPI RETURNDATASIZE PUSH1 0x0 DUP1 RETURNDATACOPY RETURNDATASIZE PUSH1 0x0 REVERT JUMPDEST POP POP POP POP PUSH1 0x40 MLOAD RETURNDATASIZE PUSH1 0x1F NOT PUSH1 0x1F DUP3 ADD AND DUP3 ADD DUP1 PUSH1 0x40 MSTORE POP DUP2 ADD SWAP1 PUSH3 0x4F4 SWAP2 SWAP1 PUSH3 0x68B JUMP JUMPDEST SWAP1 POP SWAP4 SWAP3 POP POP POP JUMP JUMPDEST PUSH1 0x0 PUSH1 0x1 PUSH1 0x0 DUP4 DUP2 MSTORE PUSH1 0x20 ADD SWAP1 DUP2 MSTORE PUSH1 0x20 ADD PUSH1 0x0 KECCAK256 PUSH1 0x0 ADD PUSH1 0x14 SWAP1 SLOAD SWAP1 PUSH2 0x100 EXP SWAP1 DIV PUSH1 0xFF AND PUSH3 0x565 JUMPI PUSH1 0x40 MLOAD PUSH32 0x8C379A000000000000000000000000000000000000000000000000000000000 DUP2 MSTORE PUSH1 0x4 ADD PUSH3 0x55C SWAP1 PUSH3 0x8DC JUMP JUMPDEST PUSH1 0x40 MLOAD DUP1 SWAP2 SUB SWAP1 REVERT JUMPDEST PUSH1 0x1 PUSH1 0x0 DUP4 DUP2 MSTORE PUSH1 0x20 ADD SWAP1 DUP2 MSTORE PUSH1 0x20 ADD PUSH1 0x0 KECCAK256 PUSH1 0x0 ADD PUSH1 0x0 SWAP1 SLOAD SWAP1 PUSH2 0x100 EXP SWAP1 DIV PUSH20 0xFFFFFFFFFFFFFFFFFFFFFFFFFFFFFFFFFFFFFFFF AND SWAP1 POP SWAP2 SWAP1 POP JUMP JUMPDEST PUSH2 0xE91 DUP1 PUSH3 0xC17 DUP4 CODECOPY ADD SWAP1 JUMP JUMPDEST PUSH1 0x0 PUSH3 0x5C8 PUSH3 0x5C2 DUP5 PUSH3 0x9C2 JUMP JUMPDEST PUSH3 0x999 JUMP JUMPDEST SWAP1 POP DUP3 DUP2 MSTORE PUSH1 0x20 DUP2 ADD DUP5 DUP5 DUP5 ADD GT ISZERO PUSH3 0x5E7 JUMPI PUSH3 0x5E6 PUSH3 0xB56 JUMP JUMPDEST JUMPDEST PUSH3 0x5F4 DUP5 DUP3 DUP6 PUSH3 0xAA7 JUMP JUMPDEST POP SWAP4 SWAP3 POP POP POP JUMP JUMPDEST PUSH1 0x0 DUP2 MLOAD SWAP1 POP PUSH3 0x60D DUP2 PUSH3 0xBC8 JUMP JUMPDEST SWAP3 SWAP2 POP POP JUMP JUMPDEST PUSH1 0x0 DUP3 PUSH1 0x1F DUP4 ADD SLT PUSH3 0x62B JUMPI PUSH3 0x62A PUSH3 0xB51 JUMP JUMPDEST JUMPDEST DUP2 CALLDATALOAD PUSH3 0x63D DUP5 DUP3 PUSH1 0x20 DUP7 ADD PUSH3 0x5B1 JUMP JUMPDEST SWAP2 POP POP SWAP3 SWAP2 POP POP JUMP JUMPDEST PUSH1 0x0 DUP2 CALLDATALOAD SWAP1 POP PUSH3 0x657 DUP2 PUSH3 0xBE2 JUMP JUMPDEST SWAP3 SWAP2 POP POP JUMP JUMPDEST PUSH1 0x0 DUP2 CALLDATALOAD SWAP1 POP PUSH3 0x66E DUP2 PUSH3 0xBFC JUMP JUMPDEST SWAP3 SWAP2 POP POP JUMP JUMPDEST PUSH1 0x0 DUP2 MLOAD SWAP1 POP PUSH3 0x685 DUP2 PUSH3 0xBFC JUMP JUMPDEST SWAP3 SWAP2 POP POP JUMP JUMPDEST PUSH1 0x0 PUSH1 0x20 DUP3 DUP5 SUB SLT ISZERO PUSH3 0x6A4 JUMPI PUSH3 0x6A3 PUSH3 0xB60 JUMP JUMPDEST JUMPDEST PUSH1 0x0 PUSH3 0x6B4 DUP5 DUP3 DUP6 ADD PUSH3 0x5FC JUMP JUMPDEST SWAP2 POP POP SWAP3 SWAP2 POP POP JUMP JUMPDEST PUSH1 0x0 PUSH1 0x20 DUP3 DUP5 SUB SLT ISZERO PUSH3 0x6D6 JUMPI PUSH3 0x6D5 PUSH3 0xB60 JUMP JUMPDEST JUMPDEST PUSH1 0x0 PUSH3 0x6E6 DUP5 DUP3 DUP6 ADD PUSH3 0x646 JUMP JUMPDEST SWAP2 POP POP SWAP3 SWAP2 POP POP JUMP JUMPDEST PUSH1 0x0 DUP1 PUSH1 0x0 PUSH1 0x60 DUP5 DUP7 SUB SLT ISZERO PUSH3 0x70B JUMPI PUSH3 0x70A PUSH3 0xB60 JUMP JUMPDEST JUMPDEST PUSH1 0x0 PUSH3 0x71B DUP7 DUP3 DUP8 ADD PUSH3 0x646 JUMP JUMPDEST SWAP4 POP POP PUSH1 0x20 PUSH3 0x72E DUP7 DUP3 DUP8 ADD PUSH3 0x65D JUMP JUMPDEST SWAP3 POP POP PUSH1 0x40 DUP5 ADD CALLDATALOAD PUSH8 0xFFFFFFFFFFFFFFFF DUP2 GT ISZERO PUSH3 0x752 JUMPI PUSH3 0x751 PUSH3 0xB5B JUMP JUMPDEST JUMPDEST PUSH3 0x760 DUP7 DUP3 DUP8 ADD PUSH3 0x613 JUMP JUMPDEST SWAP2 POP POP SWAP3 POP SWAP3 POP SWAP3 JUMP JUMPDEST PUSH1 0x0 PUSH1 0x20 DUP3 DUP5 SUB SLT ISZERO PUSH3 0x783 JUMPI PUSH3 0x782 PUSH3 0xB60 JUMP JUMPDEST JUMPDEST PUSH1 0x0 PUSH3 0x793 DUP5 DUP3 DUP6 ADD PUSH3 0x674 JUMP JUMPDEST SWAP2 POP POP SWAP3 SWAP2 POP POP JUMP JUMPDEST PUSH3 0x7A7 DUP2 PUSH3 0xA14 JUMP JUMPDEST DUP3 MSTORE POP POP JUMP JUMPDEST PUSH3 0x7B8 DUP2 PUSH3 0xA28 JUMP JUMPDEST DUP3 MSTORE POP POP JUMP JUMPDEST PUSH3 0x7C9 DUP2 PUSH3 0xA6B JUMP JUMPDEST DUP3 MSTORE POP POP JUMP JUMPDEST PUSH1 0x0 PUSH3 0x7DC DUP3 PUSH3 0x9F8 JUMP JUMPDEST PUSH3 0x7E8 DUP2 DUP6 PUSH3 0xA03 JUMP JUMPDEST SWAP4 POP PUSH3 0x7FA DUP2 DUP6 PUSH1 0x20 DUP7 ADD PUSH3 0xAB6 JUMP JUMPDEST PUSH3 0x805 DUP2 PUSH3 0xB65 JUMP JUMPDEST DUP5 ADD SWAP2 POP POP SWAP3 SWAP2 POP POP JUMP JUMPDEST PUSH1 0x0 PUSH3 0x81F PUSH1 0xE DUP4 PUSH3 0xA03 JUMP JUMPDEST SWAP2 POP PUSH3 0x82C DUP3 PUSH3 0xB76 JUMP JUMPDEST PUSH1 0x20 DUP3 ADD SWAP1 POP SWAP2 SWAP1 POP JUMP JUMPDEST PUSH1 0x0 PUSH3 0x846 PUSH1 0x12 DUP4 PUSH3 0xA03 JUMP JUMPDEST SWAP2 POP PUSH3 0x853 DUP3 PUSH3 0xB9F JUMP JUMPDEST PUSH1 0x20 DUP3 ADD SWAP1 POP SWAP2 SWAP1 POP JUMP JUMPDEST PUSH3 0x869 DUP2 PUSH3 0xA54 JUMP JUMPDEST DUP3 MSTORE POP POP JUMP JUMPDEST PUSH3 0x87A DUP2 PUSH3 0xA5E JUMP JUMPDEST DUP3 MSTORE POP POP JUMP JUMPDEST PUSH1 0x0 PUSH1 0x20 DUP3 ADD SWAP1 POP PUSH3 0x897 PUSH1 0x0 DUP4 ADD DUP5 PUSH3 0x7AD JUMP JUMPDEST SWAP3 SWAP2 POP POP JUMP JUMPDEST PUSH1 0x0 PUSH1 0x20 DUP3 ADD SWAP1 POP PUSH3 0x8B4 PUSH1 0x0 DUP4 ADD DUP5 PUSH3 0x7BE JUMP JUMPDEST SWAP3 SWAP2 POP POP JUMP JUMPDEST PUSH1 0x0 PUSH1 0x20 DUP3 ADD SWAP1 POP DUP2 DUP2 SUB PUSH1 0x0 DUP4 ADD MSTORE PUSH3 0x8D5 DUP2 PUSH3 0x810 JUMP JUMPDEST SWAP1 POP SWAP2 SWAP1 POP JUMP JUMPDEST PUSH1 0x0 PUSH1 0x20 DUP3 ADD SWAP1 POP DUP2 DUP2 SUB PUSH1 0x0 DUP4 ADD MSTORE PUSH3 0x8F7 DUP2 PUSH3 0x837 JUMP JUMPDEST SWAP1 POP SWAP2 SWAP1 POP JUMP JUMPDEST PUSH1 0x0 PUSH1 0x20 DUP3 ADD SWAP1 POP PUSH3 0x915 PUSH1 0x0 DUP4 ADD DUP5 PUSH3 0x85E JUMP JUMPDEST SWAP3 SWAP2 POP POP JUMP JUMPDEST PUSH1 0x0 PUSH1 0x40 DUP3 ADD SWAP1 POP PUSH3 0x932 PUSH1 0x0 DUP4 ADD DUP6 PUSH3 0x85E JUMP JUMPDEST PUSH3 0x941 PUSH1 0x20 DUP4 ADD DUP5 PUSH3 0x79C JUMP JUMPDEST SWAP4 SWAP3 POP POP POP JUMP JUMPDEST PUSH1 0x0 PUSH1 0x20 DUP3 ADD SWAP1 POP PUSH3 0x95F PUSH1 0x0 DUP4 ADD DUP5 PUSH3 0x86F JUMP JUMPDEST SWAP3 SWAP2 POP POP JUMP JUMPDEST PUSH1 0x0 PUSH1 0x40 DUP3 ADD SWAP1 POP PUSH3 0x97C PUSH1 0x0 DUP4 ADD DUP6 PUSH3 0x86F JUMP JUMPDEST DUP2 DUP2 SUB PUSH1 0x20 DUP4 ADD MSTORE PUSH3 0x990 DUP2 DUP5 PUSH3 0x7CF JUMP JUMPDEST SWAP1 POP SWAP4 SWAP3 POP POP POP JUMP JUMPDEST PUSH1 0x0 PUSH3 0x9A5 PUSH3 0x9B8 JUMP JUMPDEST SWAP1 POP PUSH3 0x9B3 DUP3 DUP3 PUSH3 0xAEC JUMP JUMPDEST SWAP2 SWAP1 POP JUMP JUMPDEST PUSH1 0x0 PUSH1 0x40 MLOAD SWAP1 POP SWAP1 JUMP JUMPDEST PUSH1 0x0 PUSH8 0xFFFFFFFFFFFFFFFF DUP3 GT ISZERO PUSH3 0x9E0 JUMPI PUSH3 0x9DF PUSH3 0xB22 JUMP JUMPDEST JUMPDEST PUSH3 0x9EB DUP3 PUSH3 0xB65 JUMP JUMPDEST SWAP1 POP PUSH1 0x20 DUP2 ADD SWAP1 POP SWAP2 SWAP1 POP JUMP JUMPDEST PUSH1 0x0 DUP2 MLOAD SWAP1 POP SWAP2 SWAP1 POP JUMP JUMPDEST PUSH1 0x0 DUP3 DUP3 MSTORE PUSH1 0x20 DUP3 ADD SWAP1 POP SWAP3 SWAP2 POP POP JUMP JUMPDEST PUSH1 0x0 PUSH3 0xA21 DUP3 PUSH3 0xA34 JUMP JUMPDEST SWAP1 POP SWAP2 SWAP1 POP JUMP JUMPDEST PUSH1 0x0 DUP2 ISZERO ISZERO SWAP1 POP SWAP2 SWAP1 POP JUMP JUMPDEST PUSH1 0x0 PUSH20 0xFFFFFFFFFFFFFFFFFFFFFFFFFFFFFFFFFFFFFFFF DUP3 AND SWAP1 POP SWAP2 SWAP1 POP JUMP JUMPDEST PUSH1 0x0 DUP2 SWAP1 POP SWAP2 SWAP1 POP JUMP JUMPDEST PUSH1 0x0 PUSH1 0xFF DUP3 AND SWAP1 POP SWAP2 SWAP1 POP JUMP JUMPDEST PUSH1 0x0 PUSH3 0xA78 DUP3 PUSH3 0xA7F JUMP JUMPDEST SWAP1 POP SWAP2 SWAP1 POP JUMP JUMPDEST PUSH1 0x0 PUSH3 0xA8C DUP3 PUSH3 0xA93 JUMP JUMPDEST SWAP1 POP SWAP2 SWAP1 POP JUMP JUMPDEST PUSH1 0x0 PUSH3 0xAA0 DUP3 PUSH3 0xA34 JUMP JUMPDEST SWAP1 POP SWAP2 SWAP1 POP JUMP JUMPDEST DUP3 DUP2 DUP4 CALLDATACOPY PUSH1 0x0 DUP4 DUP4 ADD MSTORE POP POP POP JUMP JUMPDEST PUSH1 0x0 JUMPDEST DUP4 DUP2 LT ISZERO PUSH3 0xAD6 JUMPI DUP1 DUP3 ADD MLOAD DUP2 DUP5 ADD MSTORE PUSH1 0x20 DUP2 ADD SWAP1 POP PUSH3 0xAB9 JUMP JUMPDEST DUP4 DUP2 GT ISZERO PUSH3 0xAE6 JUMPI PUSH1 0x0 DUP5 DUP5 ADD MSTORE JUMPDEST POP POP POP POP JUMP JUMPDEST PUSH3 0xAF7 DUP3 PUSH3 0xB65 JUMP JUMPDEST DUP2 ADD DUP2 DUP2 LT PUSH8 0xFFFFFFFFFFFFFFFF DUP3 GT OR ISZERO PUSH3 0xB19 JUMPI PUSH3 0xB18 PUSH3 0xB22 JUMP JUMPDEST JUMPDEST DUP1 PUSH1 0x40 MSTORE POP POP POP JUMP JUMPDEST PUSH32 0x4E487B7100000000000000000000000000000000000000000000000000000000 PUSH1 0x0 MSTORE PUSH1 0x41 PUSH1 0x4 MSTORE PUSH1 0x24 PUSH1 0x0 REVERT JUMPDEST PUSH1 0x0 DUP1 REVERT JUMPDEST PUSH1 0x0 DUP1 REVERT JUMPDEST PUSH1 0x0 DUP1 REVERT JUMPDEST PUSH1 0x0 DUP1 REVERT JUMPDEST PUSH1 0x0 PUSH1 0x1F NOT PUSH1 0x1F DUP4 ADD AND SWAP1 POP SWAP2 SWAP1 POP JUMP JUMPDEST PUSH32 0x676F6F6473206973206578697374000000000000000000000000000000000000 PUSH1 0x0 DUP3 ADD MSTORE POP JUMP JUMPDEST PUSH32 0x676F6F6473206973206E6F742065786973740000000000000000000000000000 PUSH1 0x0 DUP3 ADD MSTORE POP JUMP JUMPDEST PUSH3 0xBD3 DUP2 PUSH3 0xA28 JUMP JUMPDEST DUP2 EQ PUSH3 0xBDF JUMPI PUSH1 0x0 DUP1 REVERT JUMPDEST POP JUMP JUMPDEST PUSH3 0xBED DUP2 PUSH3 0xA54 JUMP JUMPDEST DUP2 EQ PUSH3 0xBF9 JUMPI PUSH1 0x0 DUP1 REVERT JUMPDEST POP JUMP JUMPDEST PUSH3 0xC07 DUP2 PUSH3 0xA5E JUMP JUMPDEST DUP2 EQ PUSH3 0xC13 JUMPI PUSH1 0x0 DUP1 REVERT JUMPDEST POP JUMP INVALID PUSH1 0x80 PUSH1 0x40 MSTORE CALLVALUE DUP1 ISZERO PUSH3 0x11 JUMPI PUSH1 0x0 DUP1 REVERT JUMPDEST POP PUSH1 0x40 MLOAD PUSH3 0xE91 CODESIZE SUB DUP1 PUSH3 0xE91 DUP4 CODECOPY DUP2 DUP2 ADD PUSH1 0x40 MSTORE DUP2 ADD SWAP1 PUSH3 0x37 SWAP2 SWAP1 PUSH3 0x294 JUMP JUMPDEST DUP1 PUSH1 0x0 DUP2 SWAP1 SSTORE POP PUSH1 0x2 PUSH1 0x40 MLOAD DUP1 PUSH1 0x80 ADD PUSH1 0x40 MSTORE DUP1 CALLER PUSH20 0xFFFFFFFFFFFFFFFFFFFFFFFFFFFFFFFFFFFFFFFF AND DUP2 MSTORE PUSH1 0x20 ADD PUSH1 0x0 PUSH1 0xFF AND DUP2 MSTORE PUSH1 0x20 ADD TIMESTAMP DUP2 MSTORE PUSH1 0x20 ADD PUSH1 0x40 MLOAD DUP1 PUSH1 0x40 ADD PUSH1 0x40 MSTORE DUP1 PUSH1 0x6 DUP2 MSTORE PUSH1 0x20 ADD PUSH32 0x6372656174650000000000000000000000000000000000000000000000000000 DUP2 MSTORE POP DUP2 MSTORE POP SWAP1 DUP1 PUSH1 0x1 DUP2 SLOAD ADD DUP1 DUP3 SSTORE DUP1 SWAP2 POP POP PUSH1 0x1 SWAP1 SUB SWAP1 PUSH1 0x0 MSTORE PUSH1 0x20 PUSH1 0x0 KECCAK256 SWAP1 PUSH1 0x3 MUL ADD PUSH1 0x0 SWAP1 SWAP2 SWAP1 SWAP2 SWAP1 SWAP2 POP PUSH1 0x0 DUP3 ADD MLOAD DUP2 PUSH1 0x0 ADD PUSH1 0x0 PUSH2 0x100 EXP DUP2 SLOAD DUP2 PUSH20 0xFFFFFFFFFFFFFFFFFFFFFFFFFFFFFFFFFFFFFFFF MUL NOT AND SWAP1 DUP4 PUSH20 0xFFFFFFFFFFFFFFFFFFFFFFFFFFFFFFFFFFFFFFFF AND MUL OR SWAP1 SSTORE POP PUSH1 0x20 DUP3 ADD MLOAD DUP2 PUSH1 0x0 ADD PUSH1 0x14 PUSH2 0x100 EXP DUP2 SLOAD DUP2 PUSH1 0xFF MUL NOT AND SWAP1 DUP4 PUSH1 0xFF AND MUL OR SWAP1 SSTORE POP PUSH1 0x40 DUP3 ADD MLOAD DUP2 PUSH1 0x1 ADD SSTORE PUSH1 0x60 DUP3 ADD MLOAD DUP2 PUSH1 0x2 ADD SWAP1 DUP1 MLOAD SWAP1 PUSH1 0x20 ADD SWAP1 PUSH3 0x169 SWAP3 SWAP2 SWAP1 PUSH3 0x1CD JUMP JUMPDEST POP POP POP PUSH1 0x0 PUSH1 0x1 PUSH1 0x0 PUSH2 0x100 EXP DUP2 SLOAD DUP2 PUSH1 0xFF MUL NOT AND SWAP1 DUP4 PUSH1 0xFF AND MUL OR SWAP1 SSTORE POP PUSH32 0x38930409E72D179A853C881163FCEE8ED63D42EC95EE4599FC17E0421E1303D8 CALLER PUSH1 0x0 TIMESTAMP PUSH1 0x40 MLOAD PUSH3 0x1BE SWAP4 SWAP3 SWAP2 SWAP1 PUSH3 0x320 JUMP JUMPDEST PUSH1 0x40 MLOAD DUP1 SWAP2 SUB SWAP1 LOG1 POP PUSH3 0x47B JUMP JUMPDEST DUP3 DUP1 SLOAD PUSH3 0x1DB SWAP1 PUSH3 0x3CE JUMP JUMPDEST SWAP1 PUSH1 0x0 MSTORE PUSH1 0x20 PUSH1 0x0 KECCAK256 SWAP1 PUSH1 0x1F ADD PUSH1 0x20 SWAP1 DIV DUP2 ADD SWAP3 DUP3 PUSH3 0x1FF JUMPI PUSH1 0x0 DUP6 SSTORE PUSH3 0x24B JUMP JUMPDEST DUP3 PUSH1 0x1F LT PUSH3 0x21A JUMPI DUP1 MLOAD PUSH1 0xFF NOT AND DUP4 DUP1 ADD OR DUP6 SSTORE PUSH3 0x24B JUMP JUMPDEST DUP3 DUP1 ADD PUSH1 0x1 ADD DUP6 SSTORE DUP3 ISZERO PUSH3 0x24B JUMPI SWAP2 DUP3 ADD JUMPDEST DUP3 DUP2 GT ISZERO PUSH3 0x24A JUMPI DUP3 MLOAD DUP3 SSTORE SWAP2 PUSH1 0x20 ADD SWAP2 SWAP1 PUSH1 0x1 ADD SWAP1 PUSH3 0x22D JUMP JUMPDEST JUMPDEST POP SWAP1 POP PUSH3 0x25A SWAP2 SWAP1 PUSH3 0x25E JUMP JUMPDEST POP SWAP1 JUMP JUMPDEST JUMPDEST DUP1 DUP3 GT ISZERO PUSH3 0x279 JUMPI PUSH1 0x0 DUP2 PUSH1 0x0 SWAP1 SSTORE POP PUSH1 0x1 ADD PUSH3 0x25F JUMP JUMPDEST POP SWAP1 JUMP JUMPDEST PUSH1 0x0 DUP2 MLOAD SWAP1 POP PUSH3 0x28E DUP2 PUSH3 0x461 JUMP JUMPDEST SWAP3 SWAP2 POP POP JUMP JUMPDEST PUSH1 0x0 PUSH1 0x20 DUP3 DUP5 SUB SLT ISZERO PUSH3 0x2AD JUMPI PUSH3 0x2AC PUSH3 0x433 JUMP JUMPDEST JUMPDEST PUSH1 0x0 PUSH3 0x2BD DUP5 DUP3 DUP6 ADD PUSH3 0x27D JUMP JUMPDEST SWAP2 POP POP SWAP3 SWAP2 POP POP JUMP JUMPDEST PUSH3 0x2D1 DUP2 PUSH3 0x383 JUMP JUMPDEST DUP3 MSTORE POP POP JUMP JUMPDEST PUSH1 0x0 PUSH3 0x2E6 PUSH1 0x6 DUP4 PUSH3 0x372 JUMP JUMPDEST SWAP2 POP PUSH3 0x2F3 DUP3 PUSH3 0x438 JUMP JUMPDEST PUSH1 0x20 DUP3 ADD SWAP1 POP SWAP2 SWAP1 POP JUMP JUMPDEST PUSH3 0x309 DUP2 PUSH3 0x3B7 JUMP JUMPDEST DUP3 MSTORE POP POP JUMP JUMPDEST PUSH3 0x31A DUP2 PUSH3 0x3C1 JUMP JUMPDEST DUP3 MSTORE POP POP JUMP JUMPDEST PUSH1 0x0 PUSH1 0x80 DUP3 ADD SWAP1 POP PUSH3 0x337 PUSH1 0x0 DUP4 ADD DUP7 PUSH3 0x2C6 JUMP JUMPDEST PUSH3 0x346 PUSH1 0x20 DUP4 ADD DUP6 PUSH3 0x30F JUMP JUMPDEST PUSH3 0x355 PUSH1 0x40 DUP4 ADD DUP5 PUSH3 0x2FE JUMP JUMPDEST DUP2 DUP2 SUB PUSH1 0x60 DUP4 ADD MSTORE PUSH3 0x368 DUP2 PUSH3 0x2D7 JUMP JUMPDEST SWAP1 POP SWAP5 SWAP4 POP POP POP POP JUMP JUMPDEST PUSH1 0x0 DUP3 DUP3 MSTORE PUSH1 0x20 DUP3 ADD SWAP1 POP SWAP3 SWAP2 POP POP JUMP JUMPDEST PUSH1 0x0 PUSH3 0x390 DUP3 PUSH3 0x397 JUMP JUMPDEST SWAP1 POP SWAP2 SWAP1 POP JUMP JUMPDEST PUSH1 0x0 PUSH20 0xFFFFFFFFFFFFFFFFFFFFFFFFFFFFFFFFFFFFFFFF DUP3 AND SWAP1 POP SWAP2 SWAP1 POP JUMP JUMPDEST PUSH1 0x0 DUP2 SWAP1 POP SWAP2 SWAP1 POP JUMP JUMPDEST PUSH1 0x0 PUSH1 0xFF DUP3 AND SWAP1 POP SWAP2 SWAP1 POP JUMP JUMPDEST PUSH1 0x0 PUSH1 0x2 DUP3 DIV SWAP1 POP PUSH1 0x1 DUP3 AND DUP1 PUSH3 0x3E7 JUMPI PUSH1 0x7F DUP3 AND SWAP2 POP JUMPDEST PUSH1 0x20 DUP3 LT DUP2 EQ ISZERO PUSH3 0x3FE JUMPI PUSH3 0x3FD PUSH3 0x404 JUMP JUMPDEST JUMPDEST POP SWAP2 SWAP1 POP JUMP JUMPDEST PUSH32 0x4E487B7100000000000000000000000000000000000000000000000000000000 PUSH1 0x0 MSTORE PUSH1 0x22 PUSH1 0x4 MSTORE PUSH1 0x24 PUSH1 0x0 REVERT JUMPDEST PUSH1 0x0 DUP1 REVERT JUMPDEST PUSH32 0x6372656174650000000000000000000000000000000000000000000000000000 PUSH1 0x0 DUP3 ADD MSTORE POP JUMP JUMPDEST PUSH3 0x46C DUP2 PUSH3 0x3B7 JUMP JUMPDEST DUP2 EQ PUSH3 0x478 JUMPI PUSH1 0x0 DUP1 REVERT JUMPDEST POP JUMP JUMPDEST PUSH2 0xA06 DUP1 PUSH3 0x48B PUSH1 0x0 CODECOPY PUSH1 0x0 RETURN INVALID PUSH1 0x80 PUSH1 0x40 MSTORE CALLVALUE DUP1 ISZERO PUSH2 0x10 JUMPI PUSH1 0x0 DUP1 REVERT JUMPDEST POP PUSH1 0x4 CALLDATASIZE LT PUSH2 0x41 JUMPI PUSH1 0x0 CALLDATALOAD PUSH1 0xE0 SHR DUP1 PUSH4 0x173D773D EQ PUSH2 0x46 JUMPI DUP1 PUSH4 0x4E69D560 EQ PUSH2 0x76 JUMPI DUP1 PUSH4 0x799CF246 EQ PUSH2 0x94 JUMPI JUMPDEST PUSH1 0x0 DUP1 REVERT JUMPDEST PUSH2 0x60 PUSH1 0x4 DUP1 CALLDATASIZE SUB DUP2 ADD SWAP1 PUSH2 0x5B SWAP2 SWAP1 PUSH2 0x4B9 JUMP JUMPDEST PUSH2 0xB2 JUMP JUMPDEST PUSH1 0x40 MLOAD PUSH2 0x6D SWAP2 SWAP1 PUSH2 0x74A JUMP JUMPDEST PUSH1 0x40 MLOAD DUP1 SWAP2 SUB SWAP1 RETURN JUMPDEST PUSH2 0x7E PUSH2 0x20C JUMP JUMPDEST PUSH1 0x40 MLOAD PUSH2 0x8B SWAP2 SWAP1 PUSH2 0x765 JUMP JUMPDEST PUSH1 0x40 MLOAD DUP1 SWAP2 SUB SWAP1 RETURN JUMPDEST PUSH2 0x9C PUSH2 0x223 JUMP JUMPDEST PUSH1 0x40 MLOAD PUSH2 0xA9 SWAP2 SWAP1 PUSH2 0x728 JUMP JUMPDEST PUSH1 0x40 MLOAD DUP1 SWAP2 SUB SWAP1 RETURN JUMPDEST PUSH1 0x0 DUP3 PUSH1 0x1 PUSH1 0x0 PUSH2 0x100 EXP DUP2 SLOAD DUP2 PUSH1 0xFF MUL NOT AND SWAP1 DUP4 PUSH1 0xFF AND MUL OR SWAP1 SSTORE POP PUSH1 0x2 PUSH1 0x40 MLOAD DUP1 PUSH1 0x80 ADD PUSH1 0x40 MSTORE DUP1 CALLER PUSH20 0xFFFFFFFFFFFFFFFFFFFFFFFFFFFFFFFFFFFFFFFF AND DUP2 MSTORE PUSH1 0x20 ADD DUP6 PUSH1 0xFF AND DUP2 MSTORE PUSH1 0x20 ADD TIMESTAMP DUP2 MSTORE PUSH1 0x20 ADD DUP5 DUP2 MSTORE POP SWAP1 DUP1 PUSH1 0x1 DUP2 SLOAD ADD DUP1 DUP3 SSTORE DUP1 SWAP2 POP POP PUSH1 0x1 SWAP1 SUB SWAP1 PUSH1 0x0 MSTORE PUSH1 0x20 PUSH1 0x0 KECCAK256 SWAP1 PUSH1 0x3 MUL ADD PUSH1 0x0 SWAP1 SWAP2 SWAP1 SWAP2 SWAP1 SWAP2 POP PUSH1 0x0 DUP3 ADD MLOAD DUP2 PUSH1 0x0 ADD PUSH1 0x0 PUSH2 0x100 EXP DUP2 SLOAD DUP2 PUSH20 0xFFFFFFFFFFFFFFFFFFFFFFFFFFFFFFFFFFFFFFFF MUL NOT AND SWAP1 DUP4 PUSH20 0xFFFFFFFFFFFFFFFFFFFFFFFFFFFFFFFFFFFFFFFF AND MUL OR SWAP1 SSTORE POP PUSH1 0x20 DUP3 ADD MLOAD DUP2 PUSH1 0x0 ADD PUSH1 0x14 PUSH2 0x100 EXP DUP2 SLOAD DUP2 PUSH1 0xFF MUL NOT AND SWAP1 DUP4 PUSH1 0xFF AND MUL OR SWAP1 SSTORE POP PUSH1 0x40 DUP3 ADD MLOAD DUP2 PUSH1 0x1 ADD SSTORE PUSH1 0x60 DUP3 ADD MLOAD DUP2 PUSH1 0x2 ADD SWAP1 DUP1 MLOAD SWAP1 PUSH1 0x20 ADD SWAP1 PUSH2 0x1C2 SWAP3 SWAP2 SWAP1 PUSH2 0x391 JUMP JUMPDEST POP POP POP PUSH32 0x38930409E72D179A853C881163FCEE8ED63D42EC95EE4599FC17E0421E1303D8 CALLER DUP5 TIMESTAMP DUP6 PUSH1 0x40 MLOAD PUSH2 0x1FA SWAP5 SWAP4 SWAP3 SWAP2 SWAP1 PUSH2 0x6DC JUMP JUMPDEST PUSH1 0x40 MLOAD DUP1 SWAP2 SUB SWAP1 LOG1 PUSH1 0x1 SWAP1 POP SWAP3 SWAP2 POP POP JUMP JUMPDEST PUSH1 0x0 PUSH1 0x1 PUSH1 0x0 SWAP1 SLOAD SWAP1 PUSH2 0x100 EXP SWAP1 DIV PUSH1 0xFF AND SWAP1 POP SWAP1 JUMP JUMPDEST PUSH1 0x60 PUSH1 0x2 DUP1 SLOAD DUP1 PUSH1 0x20 MUL PUSH1 0x20 ADD PUSH1 0x40 MLOAD SWAP1 DUP2 ADD PUSH1 0x40 MSTORE DUP1 SWAP3 SWAP2 SWAP1 DUP2 DUP2 MSTORE PUSH1 0x20 ADD PUSH1 0x0 SWAP1 JUMPDEST DUP3 DUP3 LT ISZERO PUSH2 0x388 JUMPI DUP4 DUP3 SWAP1 PUSH1 0x0 MSTORE PUSH1 0x20 PUSH1 0x0 KECCAK256 SWAP1 PUSH1 0x3 MUL ADD PUSH1 0x40 MLOAD DUP1 PUSH1 0x80 ADD PUSH1 0x40 MSTORE SWAP1 DUP2 PUSH1 0x0 DUP3 ADD PUSH1 0x0 SWAP1 SLOAD SWAP1 PUSH2 0x100 EXP SWAP1 DIV PUSH20 0xFFFFFFFFFFFFFFFFFFFFFFFFFFFFFFFFFFFFFFFF AND PUSH20 0xFFFFFFFFFFFFFFFFFFFFFFFFFFFFFFFFFFFFFFFF AND PUSH20 0xFFFFFFFFFFFFFFFFFFFFFFFFFFFFFFFFFFFFFFFF AND DUP2 MSTORE PUSH1 0x20 ADD PUSH1 0x0 DUP3 ADD PUSH1 0x14 SWAP1 SLOAD SWAP1 PUSH2 0x100 EXP SWAP1 DIV PUSH1 0xFF AND PUSH1 0xFF AND PUSH1 0xFF AND DUP2 MSTORE PUSH1 0x20 ADD PUSH1 0x1 DUP3 ADD SLOAD DUP2 MSTORE PUSH1 0x20 ADD PUSH1 0x2 DUP3 ADD DUP1 SLOAD PUSH2 0x2F7 SWAP1 PUSH2 0x8D3 JUMP JUMPDEST DUP1 PUSH1 0x1F ADD PUSH1 0x20 DUP1 SWAP2 DIV MUL PUSH1 0x20 ADD PUSH1 0x40 MLOAD SWAP1 DUP2 ADD PUSH1 0x40 MSTORE DUP1 SWAP3 SWAP2 SWAP1 DUP2 DUP2 MSTORE PUSH1 0x20 ADD DUP3 DUP1 SLOAD PUSH2 0x323 SWAP1 PUSH2 0x8D3 JUMP JUMPDEST DUP1 ISZERO PUSH2 0x370 JUMPI DUP1 PUSH1 0x1F LT PUSH2 0x345 JUMPI PUSH2 0x100 DUP1 DUP4 SLOAD DIV MUL DUP4 MSTORE SWAP2 PUSH1 0x20 ADD SWAP2 PUSH2 0x370 JUMP JUMPDEST DUP3 ADD SWAP2 SWAP1 PUSH1 0x0 MSTORE PUSH1 0x20 PUSH1 0x0 KECCAK256 SWAP1 JUMPDEST DUP2 SLOAD DUP2 MSTORE SWAP1 PUSH1 0x1 ADD SWAP1 PUSH1 0x20 ADD DUP1 DUP4 GT PUSH2 0x353 JUMPI DUP3 SWAP1 SUB PUSH1 0x1F AND DUP3 ADD SWAP2 JUMPDEST POP POP POP POP POP DUP2 MSTORE POP POP DUP2 MSTORE PUSH1 0x20 ADD SWAP1 PUSH1 0x1 ADD SWAP1 PUSH2 0x247 JUMP JUMPDEST POP POP POP POP SWAP1 POP SWAP1 JUMP JUMPDEST DUP3 DUP1 SLOAD PUSH2 0x39D SWAP1 PUSH2 0x8D3 JUMP JUMPDEST SWAP1 PUSH1 0x0 MSTORE PUSH1 0x20 PUSH1 0x0 KECCAK256 SWAP1 PUSH1 0x1F ADD PUSH1 0x20 SWAP1 DIV DUP2 ADD SWAP3 DUP3 PUSH2 0x3BF JUMPI PUSH1 0x0 DUP6 SSTORE PUSH2 0x406 JUMP JUMPDEST DUP3 PUSH1 0x1F LT PUSH2 0x3D8 JUMPI DUP1 MLOAD PUSH1 0xFF NOT AND DUP4 DUP1 ADD OR DUP6 SSTORE PUSH2 0x406 JUMP JUMPDEST DUP3 DUP1 ADD PUSH1 0x1 ADD DUP6 SSTORE DUP3 ISZERO PUSH2 0x406 JUMPI SWAP2 DUP3 ADD JUMPDEST DUP3 DUP2 GT ISZERO PUSH2 0x405 JUMPI DUP3 MLOAD DUP3 SSTORE SWAP2 PUSH1 0x20 ADD SWAP2 SWAP1 PUSH1 0x1 ADD SWAP1 PUSH2 0x3EA JUMP JUMPDEST JUMPDEST POP SWAP1 POP PUSH2 0x413 SWAP2 SWAP1 PUSH2 0x417 JUMP JUMPDEST POP SWAP1 JUMP JUMPDEST JUMPDEST DUP1 DUP3 GT ISZERO PUSH2 0x430 JUMPI PUSH1 0x0 DUP2 PUSH1 0x0 SWAP1 SSTORE POP PUSH1 0x1 ADD PUSH2 0x418 JUMP JUMPDEST POP SWAP1 JUMP JUMPDEST PUSH1 0x0 PUSH2 0x447 PUSH2 0x442 DUP5 PUSH2 0x7A5 JUMP JUMPDEST PUSH2 0x780 JUMP JUMPDEST SWAP1 POP DUP3 DUP2 MSTORE PUSH1 0x20 DUP2 ADD DUP5 DUP5 DUP5 ADD GT ISZERO PUSH2 0x463 JUMPI PUSH2 0x462 PUSH2 0x999 JUMP JUMPDEST JUMPDEST PUSH2 0x46E DUP5 DUP3 DUP6 PUSH2 0x891 JUMP JUMPDEST POP SWAP4 SWAP3 POP POP POP JUMP JUMPDEST PUSH1 0x0 DUP3 PUSH1 0x1F DUP4 ADD SLT PUSH2 0x48B JUMPI PUSH2 0x48A PUSH2 0x994 JUMP JUMPDEST JUMPDEST DUP2 CALLDATALOAD PUSH2 0x49B DUP5 DUP3 PUSH1 0x20 DUP7 ADD PUSH2 0x434 JUMP JUMPDEST SWAP2 POP POP SWAP3 SWAP2 POP POP JUMP JUMPDEST PUSH1 0x0 DUP2 CALLDATALOAD SWAP1 POP PUSH2 0x4B3 DUP2 PUSH2 0x9B9 JUMP JUMPDEST SWAP3 SWAP2 POP POP JUMP JUMPDEST PUSH1 0x0 DUP1 PUSH1 0x40 DUP4 DUP6 SUB SLT ISZERO PUSH2 0x4D0 JUMPI PUSH2 0x4CF PUSH2 0x9A3 JUMP JUMPDEST JUMPDEST PUSH1 0x0 PUSH2 0x4DE DUP6 DUP3 DUP7 ADD PUSH2 0x4A4 JUMP JUMPDEST SWAP3 POP POP PUSH1 0x20 DUP4 ADD CALLDATALOAD PUSH8 0xFFFFFFFFFFFFFFFF DUP2 GT ISZERO PUSH2 0x4FF JUMPI PUSH2 0x4FE PUSH2 0x99E JUMP JUMPDEST JUMPDEST PUSH2 0x50B DUP6 DUP3 DUP7 ADD PUSH2 0x476 JUMP JUMPDEST SWAP2 POP POP SWAP3 POP SWAP3 SWAP1 POP JUMP JUMPDEST PUSH1 0x0 PUSH2 0x521 DUP4 DUP4 PUSH2 0x63D JUMP JUMPDEST SWAP1 POP SWAP3 SWAP2 POP POP JUMP JUMPDEST PUSH2 0x532 DUP2 PUSH2 0x83C JUMP JUMPDEST DUP3 MSTORE POP POP JUMP JUMPDEST PUSH2 0x541 DUP2 PUSH2 0x83C JUMP JUMPDEST DUP3 MSTORE POP POP JUMP JUMPDEST PUSH1 0x0 PUSH2 0x552 DUP3 PUSH2 0x7E6 JUMP JUMPDEST PUSH2 0x55C DUP2 DUP6 PUSH2 0x809 JUMP JUMPDEST SWAP4 POP DUP4 PUSH1 0x20 DUP3 MUL DUP6 ADD PUSH2 0x56E DUP6 PUSH2 0x7D6 JUMP JUMPDEST DUP1 PUSH1 0x0 JUMPDEST DUP6 DUP2 LT ISZERO PUSH2 0x5AA JUMPI DUP5 DUP5 SUB DUP10 MSTORE DUP2 MLOAD PUSH2 0x58B DUP6 DUP3 PUSH2 0x515 JUMP JUMPDEST SWAP5 POP PUSH2 0x596 DUP4 PUSH2 0x7FC JUMP JUMPDEST SWAP3 POP PUSH1 0x20 DUP11 ADD SWAP10 POP POP PUSH1 0x1 DUP2 ADD SWAP1 POP PUSH2 0x572 JUMP JUMPDEST POP DUP3 SWAP8 POP DUP8 SWAP6 POP POP POP POP POP POP SWAP3 SWAP2 POP POP JUMP JUMPDEST PUSH2 0x5C5 DUP2 PUSH2 0x84E JUMP JUMPDEST DUP3 MSTORE POP POP JUMP JUMPDEST PUSH1 0x0 PUSH2 0x5D6 DUP3 PUSH2 0x7F1 JUMP JUMPDEST PUSH2 0x5E0 DUP2 DUP6 PUSH2 0x81A JUMP JUMPDEST SWAP4 POP PUSH2 0x5F0 DUP2 DUP6 PUSH1 0x20 DUP7 ADD PUSH2 0x8A0 JUMP JUMPDEST PUSH2 0x5F9 DUP2 PUSH2 0x9A8 JUMP JUMPDEST DUP5 ADD SWAP2 POP POP SWAP3 SWAP2 POP POP JUMP JUMPDEST PUSH1 0x0 PUSH2 0x60F DUP3 PUSH2 0x7F1 JUMP JUMPDEST PUSH2 0x619 DUP2 DUP6 PUSH2 0x82B JUMP JUMPDEST SWAP4 POP PUSH2 0x629 DUP2 DUP6 PUSH1 0x20 DUP7 ADD PUSH2 0x8A0 JUMP JUMPDEST PUSH2 0x632 DUP2 PUSH2 0x9A8 JUMP JUMPDEST DUP5 ADD SWAP2 POP POP SWAP3 SWAP2 POP POP JUMP JUMPDEST PUSH1 0x0 PUSH1 0x80 DUP4 ADD PUSH1 0x0 DUP4 ADD MLOAD PUSH2 0x655 PUSH1 0x0 DUP7 ADD DUP3 PUSH2 0x529 JUMP JUMPDEST POP PUSH1 0x20 DUP4 ADD MLOAD PUSH2 0x668 PUSH1 0x20 DUP7 ADD DUP3 PUSH2 0x6BE JUMP JUMPDEST POP PUSH1 0x40 DUP4 ADD MLOAD PUSH2 0x67B PUSH1 0x40 DUP7 ADD DUP3 PUSH2 0x6A0 JUMP JUMPDEST POP PUSH1 0x60 DUP4 ADD MLOAD DUP5 DUP3 SUB PUSH1 0x60 DUP7 ADD MSTORE PUSH2 0x693 DUP3 DUP3 PUSH2 0x5CB JUMP JUMPDEST SWAP2 POP POP DUP1 SWAP2 POP POP SWAP3 SWAP2 POP POP JUMP JUMPDEST PUSH2 0x6A9 DUP2 PUSH2 0x87A JUMP JUMPDEST DUP3 MSTORE POP POP JUMP JUMPDEST PUSH2 0x6B8 DUP2 PUSH2 0x87A JUMP JUMPDEST DUP3 MSTORE POP POP JUMP JUMPDEST PUSH2 0x6C7 DUP2 PUSH2 0x884 JUMP JUMPDEST DUP3 MSTORE POP POP JUMP JUMPDEST PUSH2 0x6D6 DUP2 PUSH2 0x884 JUMP JUMPDEST DUP3 MSTORE POP POP JUMP JUMPDEST PUSH1 0x0 PUSH1 0x80 DUP3 ADD SWAP1 POP PUSH2 0x6F1 PUSH1 0x0 DUP4 ADD DUP8 PUSH2 0x538 JUMP JUMPDEST PUSH2 0x6FE PUSH1 0x20 DUP4 ADD DUP7 PUSH2 0x6CD JUMP JUMPDEST PUSH2 0x70B PUSH1 0x40 DUP4 ADD DUP6 PUSH2 0x6AF JUMP JUMPDEST DUP2 DUP2 SUB PUSH1 0x60 DUP4 ADD MSTORE PUSH2 0x71D DUP2 DUP5 PUSH2 0x604 JUMP JUMPDEST SWAP1 POP SWAP6 SWAP5 POP POP POP POP POP JUMP JUMPDEST PUSH1 0x0 PUSH1 0x20 DUP3 ADD SWAP1 POP DUP2 DUP2 SUB PUSH1 0x0 DUP4 ADD MSTORE PUSH2 0x742 DUP2 DUP5 PUSH2 0x547 JUMP JUMPDEST SWAP1 POP SWAP3 SWAP2 POP POP JUMP JUMPDEST PUSH1 0x0 PUSH1 0x20 DUP3 ADD SWAP1 POP PUSH2 0x75F PUSH1 0x0 DUP4 ADD DUP5 PUSH2 0x5BC JUMP JUMPDEST SWAP3 SWAP2 POP POP JUMP JUMPDEST PUSH1 0x0 PUSH1 0x20 DUP3 ADD SWAP1 POP PUSH2 0x77A PUSH1 0x0 DUP4 ADD DUP5 PUSH2 0x6CD JUMP JUMPDEST SWAP3 SWAP2 POP POP JUMP JUMPDEST PUSH1 0x0 PUSH2 0x78A PUSH2 0x79B JUMP JUMPDEST SWAP1 POP PUSH2 0x796 DUP3 DUP3 PUSH2 0x905 JUMP JUMPDEST SWAP2 SWAP1 POP JUMP JUMPDEST PUSH1 0x0 PUSH1 0x40 MLOAD SWAP1 POP SWAP1 JUMP JUMPDEST PUSH1 0x0 PUSH8 0xFFFFFFFFFFFFFFFF DUP3 GT ISZERO PUSH2 0x7C0 JUMPI PUSH2 0x7BF PUSH2 0x965 JUMP JUMPDEST JUMPDEST PUSH2 0x7C9 DUP3 PUSH2 0x9A8 JUMP JUMPDEST SWAP1 POP PUSH1 0x20 DUP2 ADD SWAP1 POP SWAP2 SWAP1 POP JUMP JUMPDEST PUSH1 0x0 DUP2 SWAP1 POP PUSH1 0x20 DUP3 ADD SWAP1 POP SWAP2 SWAP1 POP JUMP JUMPDEST PUSH1 0x0 DUP2 MLOAD SWAP1 POP SWAP2 SWAP1 POP JUMP JUMPDEST PUSH1 0x0 DUP2 MLOAD SWAP1 POP SWAP2 SWAP1 POP JUMP JUMPDEST PUSH1 0x0 PUSH1 0x20 DUP3 ADD SWAP1 POP SWAP2 SWAP1 POP JUMP JUMPDEST PUSH1 0x0 DUP3 DUP3 MSTORE PUSH1 0x20 DUP3 ADD SWAP1 POP SWAP3 SWAP2 POP POP JUMP JUMPDEST PUSH1 0x0 DUP3 DUP3 MSTORE PUSH1 0x20 DUP3 ADD SWAP1 POP SWAP3 SWAP2 POP POP JUMP JUMPDEST PUSH1 0x0 DUP3 DUP3 MSTORE PUSH1 0x20 DUP3 ADD SWAP1 POP SWAP3 SWAP2 POP POP JUMP JUMPDEST PUSH1 0x0 PUSH2 0x847 DUP3 PUSH2 0x85A JUMP JUMPDEST SWAP1 POP SWAP2 SWAP1 POP JUMP JUMPDEST PUSH1 0x0 DUP2 ISZERO ISZERO SWAP1 POP SWAP2 SWAP1 POP JUMP JUMPDEST PUSH1 0x0 PUSH20 0xFFFFFFFFFFFFFFFFFFFFFFFFFFFFFFFFFFFFFFFF DUP3 AND SWAP1 POP SWAP2 SWAP1 POP JUMP JUMPDEST PUSH1 0x0 DUP2 SWAP1 POP SWAP2 SWAP1 POP JUMP JUMPDEST PUSH1 0x0 PUSH1 0xFF DUP3 AND SWAP1 POP SWAP2 SWAP1 POP JUMP JUMPDEST DUP3 DUP2 DUP4 CALLDATACOPY PUSH1 0x0 DUP4 DUP4 ADD MSTORE POP POP POP JUMP JUMPDEST PUSH1 0x0 JUMPDEST DUP4 DUP2 LT ISZERO PUSH2 0x8BE JUMPI DUP1 DUP3 ADD MLOAD DUP2 DUP5 ADD MSTORE PUSH1 0x20 DUP2 ADD SWAP1 POP PUSH2 0x8A3 JUMP JUMPDEST DUP4 DUP2 GT ISZERO PUSH2 0x8CD JUMPI PUSH1 0x0 DUP5 DUP5 ADD MSTORE JUMPDEST POP POP POP POP JUMP JUMPDEST PUSH1 0x0 PUSH1 0x2 DUP3 DIV SWAP1 POP PUSH1 0x1 DUP3 AND DUP1 PUSH2 0x8EB JUMPI PUSH1 0x7F DUP3 AND SWAP2 POP JUMPDEST PUSH1 0x20 DUP3 LT DUP2 EQ ISZERO PUSH2 0x8FF JUMPI PUSH2 0x8FE PUSH2 0x936 JUMP JUMPDEST JUMPDEST POP SWAP2 SWAP1 POP JUMP JUMPDEST PUSH2 0x90E DUP3 PUSH2 0x9A8 JUMP JUMPDEST DUP2 ADD DUP2 DUP2 LT PUSH8 0xFFFFFFFFFFFFFFFF DUP3 GT OR ISZERO PUSH2 0x92D JUMPI PUSH2 0x92C PUSH2 0x965 JUMP JUMPDEST JUMPDEST DUP1 PUSH1 0x40 MSTORE POP POP POP JUMP JUMPDEST PUSH32 0x4E487B7100000000000000000000000000000000000000000000000000000000 PUSH1 0x0 MSTORE PUSH1 0x22 PUSH1 0x4 MSTORE PUSH1 0x24 PUSH1 0x0 REVERT JUMPDEST PUSH32 0x4E487B7100000000000000000000000000000000000000000000000000000000 PUSH1 0x0 MSTORE PUSH1 0x41 PUSH1 0x4 MSTORE PUSH1 0x24 PUSH1 0x0 REVERT JUMPDEST PUSH1 0x0 DUP1 REVERT JUMPDEST PUSH1 0x0 DUP1 REVERT JUMPDEST PUSH1 0x0 DUP1 REVERT JUMPDEST PUSH1 0x0 DUP1 REVERT JUMPDEST PUSH1 0x0 PUSH1 0x1F NOT PUSH1 0x1F DUP4 ADD AND SWAP1 POP SWAP2 SWAP1 POP JUMP JUMPDEST PUSH2 0x9C2 DUP2 PUSH2 0x884 JUMP JUMPDEST DUP2 EQ PUSH2 0x9CD JUMPI PUSH1 0x0 DUP1 REVERT JUMPDEST POP JUMP INVALID LOG2 PUSH5 0x6970667358 0x22 SLT KECCAK256 PUSH32 0xBC86115F704E8F12B1B2AEA27599E2C160AEC5D2DB67F01D0CDE4D623DC29B64 PUSH20 0x6F6C63430008070033A2646970667358221220AA SHR 0xDF 0xC9 PUSH5 0x7FFFCA9826 SHL PUSH25 0x927B849E60A482341DF8E65FB67CF164470B8E6264736F6C63 NUMBER STOP ADDMOD SMOD STOP CALLER "
				},
				"gasEstimates": {
					"creation": {
						"codeDepositCost": "1375400",
						"executionCost": "infinite",
						"totalCost": "infinite"
					},
					"external": {
						"changeStatus(uint256,uint8,string)": "infinite",
						"createGoods(uint256)": "infinite",
						"getGoods(uint256)": "5288",
						"getStatus(uint256)": "infinite"
					}
				},
				"methodIdentifiers": {
					"changeStatus(uint256,uint8,string)": "a2a8578d",
					"createGoods(uint256)": "5a35dc9f",
					"getGoods(uint256)": "b2590033",
					"getStatus(uint256)": "5c622a0e"
				}
			},
			"storageLayout": {
				"storage": [
					{
						"astId": 4,
						"contract": "trace/category.sol:Category",
						"label": "currentCategory",
						"offset": 0,
						"slot": "0",
						"type": "t_bytes32"
					},
					{
						"astId": 15,
						"contract": "trace/category.sol:Category",
						"label": "goods",
						"offset": 0,
						"slot": "1",
						"type": "t_mapping(t_uint256,t_struct(GoodsData)10_storage)"
					}
				],
				"types": {
					"t_bool": {
						"encoding": "inplace",
						"label": "bool",
						"numberOfBytes": "1"
					},
					"t_bytes32": {
						"encoding": "inplace",
						"label": "bytes32",
						"numberOfBytes": "32"
					},
					"t_contract(Goods)280": {
						"encoding": "inplace",
						"label": "contract Goods",
						"numberOfBytes": "20"
					},
					"t_mapping(t_uint256,t_struct(GoodsData)10_storage)": {
						"encoding": "mapping",
						"key": "t_uint256",
						"label": "mapping(uint256 => struct Category.GoodsData)",
						"numberOfBytes": "32",
						"value": "t_struct(GoodsData)10_storage"
					},
					"t_struct(GoodsData)10_storage": {
						"encoding": "inplace",
						"label": "struct Category.GoodsData",
						"members": [
							{
								"astId": 7,
								"contract": "trace/category.sol:Category",
								"label": "traceData",
								"offset": 0,
								"slot": "0",
								"type": "t_contract(Goods)280"
							},
							{
								"astId": 9,
								"contract": "trace/category.sol:Category",
								"label": "isExist",
								"offset": 20,
								"slot": "0",
								"type": "t_bool"
							}
						],
						"numberOfBytes": "32"
					},
					"t_uint256": {
						"encoding": "inplace",
						"label": "uint256",
						"numberOfBytes": "32"
					}
				}
			},
			"userdoc": {
				"kind": "user",
				"methods": {},
				"version": 1
			}
		}
	}
}