{
	"trace/goods.sol": {
		"Goods": {
			"abi": [
				{
					"inputs": [
						{
							"internalType": "uint256",
							"name": "_goodID",
							"type": "uint256"
						}
					],
					"stateMutability": "nonpayable",
					"type": "constructor"
				},
				{
					"anonymous": false,
					"inputs": [
						{
							"indexed": false,
							"internalType": "address",
							"name": "_operator",
							"type": "address"
						},
						{
							"indexed": false,
							"internalType": "uint8",
							"name": "_status",
							"type": "uint8"
						},
						{
							"indexed": false,
							"internalType": "uint256",
							"name": "_timestamp",
							"type": "uint256"
						},
						{
							"indexed": false,
							"internalType": "string",
							"name": "_remark",
							"type": "string"
						}
					],
					"name": "NewStatus",
					"type": "event"
				},
				{
					"inputs": [
						{
							"internalType": "uint8",
							"name": "_status",
							"type": "uint8"
						},
						{
							"internalType": "string",
							"name": "_remark",
							"type": "string"
						}
					],
					"name": "changeStatus",
					"outputs": [
						{
							"internalType": "bool",
							"name": "",
							"type": "bool"
						}
					],
					"stateMutability": "nonpayable",
					"type": "function"
				},
				{
					"inputs": [],
					"name": "getStatus",
					"outputs": [
						{
							"internalType": "uint8",
							"name": "",
							"type": "uint8"
						}
					],
					"stateMutability": "view",
					"type": "function"
				},
				{
					"inputs": [],
					"name": "getTranceInfo",
					"outputs": [
						{
							"components": [
								{
									"internalType": "address",
									"name": "operator",
									"type": "address"
								},
								{
									"internalType": "uint8",
									"name": "status",
									"type": "uint8"
								},
								{
									"internalType": "uint256",
									"name": "timestamp",
									"type": "uint256"
								},
								{
									"internalType": "string",
									"name": "remark",
									"type": "string"
								}
							],
							"internalType": "struct Goods.TraceData[]",
							"name": "",
							"type": "tuple[]"
						}
					],
					"stateMutability": "view",
					"type": "function"
				}
			],
			"devdoc": {
				"kind": "dev",
				"methods": {},
				"version": 1
			},
			"evm": {
				"assembly": "    /* \"trace/goods.sol\":26:1234  contract Goods{\r... */\n  mstore(0x40, 0x80)\n    /* \"trace/goods.sol\":443:716  constructor(uint256 _goodID){\r... */\n  callvalue\n  dup1\n  iszero\n  tag_1\n  jumpi\n  0x00\n  dup1\n  revert\ntag_1:\n  pop\n  mload(0x40)\n  sub(codesize, bytecodeSize)\n  dup1\n  bytecodeSize\n  dup4\n  codecopy\n  dup2\n  dup2\n  add\n  0x40\n  mstore\n  dup2\n  add\n  swap1\n  tag_2\n  swap2\n  swap1\n  tag_3\n  jump\t// in\ntag_2:\n    /* \"trace/goods.sol\":492:499  _goodID */\n  dup1\n    /* \"trace/goods.sol\":482:489  goodsID */\n  0x00\n    /* \"trace/goods.sol\":482:499  goodsID = _goodID */\n  dup2\n  swap1\n  sstore\n  pop\n    /* \"trace/goods.sol\":510:520  traceDatas */\n  0x02\n    /* \"trace/goods.sol\":526:588  TraceData(msg.sender,STATUS_CREATE, block.timestamp, \"create\") */\n  mload(0x40)\n  dup1\n  0x80\n  add\n  0x40\n  mstore\n  dup1\n    /* \"trace/goods.sol\":536:546  msg.sender */\n  caller\n    /* \"trace/goods.sol\":526:588  TraceData(msg.sender,STATUS_CREATE, block.timestamp, \"create\") */\n  0xffffffffffffffffffffffffffffffffffffffff\n  and\n  dup2\n  mstore\n  0x20\n  add\n    /* \"trace/goods.sol\":339:340  0 */\n  0x00\n    /* \"trace/goods.sol\":526:588  TraceData(msg.sender,STATUS_CREATE, block.timestamp, \"create\") */\n  0xff\n  and\n  dup2\n  mstore\n  0x20\n  add\n    /* \"trace/goods.sol\":562:577  block.timestamp */\n  timestamp\n    /* \"trace/goods.sol\":526:588  TraceData(msg.sender,STATUS_CREATE, block.timestamp, \"create\") */\n  dup2\n  mstore\n  0x20\n  add\n  mload(0x40)\n  dup1\n  0x40\n  add\n  0x40\n  mstore\n  dup1\n  0x06\n  dup2\n  mstore\n  0x20\n  add\n  0x6372656174650000000000000000000000000000000000000000000000000000\n  dup2\n  mstore\n  pop\n  dup2\n  mstore\n  pop\n    /* \"trace/goods.sol\":510:589  traceDatas.push(TraceData(msg.sender,STATUS_CREATE, block.timestamp, \"create\")) */\n  swap1\n  dup1\n  0x01\n  dup2\n  sload\n  add\n  dup1\n  dup3\n  sstore\n  dup1\n  swap2\n  pop\n  pop\n  0x01\n  swap1\n  sub\n  swap1\n  0x00\n  mstore\n  keccak256(0x00, 0x20)\n  swap1\n  0x03\n  mul\n  add\n  0x00\n  swap1\n  swap2\n  swap1\n  swap2\n  swap1\n  swap2\n  pop\n  0x00\n  dup3\n  add\n  mload\n  dup2\n  0x00\n  add\n  exp(0x0100, 0x00)\n  dup2\n  sload\n  dup2\n  0xffffffffffffffffffffffffffffffffffffffff\n  mul\n  not\n  and\n  swap1\n  dup4\n  0xffffffffffffffffffffffffffffffffffffffff\n  and\n  mul\n  or\n  swap1\n  sstore\n  pop\n  0x20\n  dup3\n  add\n  mload\n  dup2\n  0x00\n  add\n  exp(0x0100, 0x14)\n  dup2\n  sload\n  dup2\n  0xff\n  mul\n  not\n  and\n  swap1\n  dup4\n  0xff\n  and\n  mul\n  or\n  swap1\n  sstore\n  pop\n  0x40\n  dup3\n  add\n  mload\n  dup2\n  0x01\n  add\n  sstore\n  0x60\n  dup3\n  add\n  mload\n  dup2\n  0x02\n  add\n  swap1\n  dup1\n  mload\n  swap1\n  0x20\n  add\n  swap1\n  tag_7\n  swap3\n  swap2\n  swap1\n  tag_8\n  jump\t// in\ntag_7:\n  pop\n  pop\n  pop\n    /* \"trace/goods.sol\":339:340  0 */\n  0x00\n    /* \"trace/goods.sol\":600:613  currentStatus */\n  0x01\n  0x00\n    /* \"trace/goods.sol\":600:629  currentStatus = STATUS_CREATE */\n  0x0100\n  exp\n  dup2\n  sload\n  dup2\n  0xff\n  mul\n  not\n  and\n  swap1\n  dup4\n  0xff\n  and\n  mul\n  or\n  swap1\n  sstore\n  pop\n    /* \"trace/goods.sol\":645:708  NewStatus(msg.sender, STATUS_CREATE, block.timestamp, \"create\") */\n  0x38930409e72d179a853c881163fcee8ed63d42ec95ee4599fc17e0421e1303d8\n    /* \"trace/goods.sol\":655:665  msg.sender */\n  caller\n    /* \"trace/goods.sol\":339:340  0 */\n  0x00\n    /* \"trace/goods.sol\":682:697  block.timestamp */\n  timestamp\n    /* \"trace/goods.sol\":645:708  NewStatus(msg.sender, STATUS_CREATE, block.timestamp, \"create\") */\n  mload(0x40)\n  tag_9\n  swap4\n  swap3\n  swap2\n  swap1\n  tag_10\n  jump\t// in\ntag_9:\n  mload(0x40)\n  dup1\n  swap2\n  sub\n  swap1\n  log1\n    /* \"trace/goods.sol\":443:716  constructor(uint256 _goodID){\r... */\n  pop\n    /* \"trace/goods.sol\":26:1234  contract Goods{\r... */\n  jump(tag_11)\ntag_8:\n  dup3\n  dup1\n  sload\n  tag_12\n  swap1\n  tag_13\n  jump\t// in\ntag_12:\n  swap1\n  0x00\n  mstore\n  keccak256(0x00, 0x20)\n  swap1\n  0x1f\n  add\n  0x20\n  swap1\n  div\n  dup2\n  add\n  swap3\n  dup3\n  tag_15\n  jumpi\n  0x00\n  dup6\n  sstore\n  jump(tag_14)\ntag_15:\n  dup3\n  0x1f\n  lt\n  tag_16\n  jumpi\n  dup1\n  mload\n  not(0xff)\n  and\n  dup4\n  dup1\n  add\n  or\n  dup6\n  sstore\n  jump(tag_14)\ntag_16:\n  dup3\n  dup1\n  add\n  0x01\n  add\n  dup6\n  sstore\n  dup3\n  iszero\n  tag_14\n  jumpi\n  swap2\n  dup3\n  add\ntag_17:\n  dup3\n  dup2\n  gt\n  iszero\n  tag_18\n  jumpi\n  dup3\n  mload\n  dup3\n  sstore\n  swap2\n  0x20\n  add\n  swap2\n  swap1\n  0x01\n  add\n  swap1\n  jump(tag_17)\ntag_18:\ntag_14:\n  pop\n  swap1\n  pop\n  tag_19\n  swap2\n  swap1\n  tag_20\n  jump\t// in\ntag_19:\n  pop\n  swap1\n  jump\t// out\ntag_20:\ntag_21:\n  dup1\n  dup3\n  gt\n  iszero\n  tag_22\n  jumpi\n  0x00\n  dup2\n  0x00\n  swap1\n  sstore\n  pop\n  0x01\n  add\n  jump(tag_21)\ntag_22:\n  pop\n  swap1\n  jump\t// out\n    /* \"#utility.yul\":7:150   */\ntag_24:\n    /* \"#utility.yul\":64:69   */\n  0x00\n    /* \"#utility.yul\":95:101   */\n  dup2\n    /* \"#utility.yul\":89:102   */\n  mload\n    /* \"#utility.yul\":80:102   */\n  swap1\n  pop\n    /* \"#utility.yul\":111:144   */\n  tag_26\n    /* \"#utility.yul\":138:143   */\n  dup2\n    /* \"#utility.yul\":111:144   */\n  tag_27\n  jump\t// in\ntag_26:\n    /* \"#utility.yul\":7:150   */\n  swap3\n  swap2\n  pop\n  pop\n  jump\t// out\n    /* \"#utility.yul\":156:507   */\ntag_3:\n    /* \"#utility.yul\":226:232   */\n  0x00\n    /* \"#utility.yul\":275:277   */\n  0x20\n    /* \"#utility.yul\":263:272   */\n  dup3\n    /* \"#utility.yul\":254:261   */\n  dup5\n    /* \"#utility.yul\":250:273   */\n  sub\n    /* \"#utility.yul\":246:278   */\n  slt\n    /* \"#utility.yul\":243:362   */\n  iszero\n  tag_29\n  jumpi\n    /* \"#utility.yul\":281:360   */\n  tag_30\n  tag_31\n  jump\t// in\ntag_30:\n    /* \"#utility.yul\":243:362   */\ntag_29:\n    /* \"#utility.yul\":401:402   */\n  0x00\n    /* \"#utility.yul\":426:490   */\n  tag_32\n    /* \"#utility.yul\":482:489   */\n  dup5\n    /* \"#utility.yul\":473:479   */\n  dup3\n    /* \"#utility.yul\":462:471   */\n  dup6\n    /* \"#utility.yul\":458:480   */\n  add\n    /* \"#utility.yul\":426:490   */\n  tag_24\n  jump\t// in\ntag_32:\n    /* \"#utility.yul\":416:490   */\n  swap2\n  pop\n    /* \"#utility.yul\":372:500   */\n  pop\n    /* \"#utility.yul\":156:507   */\n  swap3\n  swap2\n  pop\n  pop\n  jump\t// out\n    /* \"#utility.yul\":513:631   */\ntag_33:\n    /* \"#utility.yul\":600:624   */\n  tag_35\n    /* \"#utility.yul\":618:623   */\n  dup2\n    /* \"#utility.yul\":600:624   */\n  tag_36\n  jump\t// in\ntag_35:\n    /* \"#utility.yul\":595:598   */\n  dup3\n    /* \"#utility.yul\":588:625   */\n  mstore\n    /* \"#utility.yul\":513:631   */\n  pop\n  pop\n  jump\t// out\n    /* \"#utility.yul\":637:1002   */\ntag_37:\n    /* \"#utility.yul\":779:782   */\n  0x00\n    /* \"#utility.yul\":800:866   */\n  tag_39\n    /* \"#utility.yul\":864:865   */\n  0x06\n    /* \"#utility.yul\":859:862   */\n  dup4\n    /* \"#utility.yul\":800:866   */\n  tag_40\n  jump\t// in\ntag_39:\n    /* \"#utility.yul\":793:866   */\n  swap2\n  pop\n    /* \"#utility.yul\":875:968   */\n  tag_41\n    /* \"#utility.yul\":964:967   */\n  dup3\n    /* \"#utility.yul\":875:968   */\n  tag_42\n  jump\t// in\ntag_41:\n    /* \"#utility.yul\":993:995   */\n  0x20\n    /* \"#utility.yul\":988:991   */\n  dup3\n    /* \"#utility.yul\":984:996   */\n  add\n    /* \"#utility.yul\":977:996   */\n  swap1\n  pop\n    /* \"#utility.yul\":637:1002   */\n  swap2\n  swap1\n  pop\n  jump\t// out\n    /* \"#utility.yul\":1008:1126   */\ntag_43:\n    /* \"#utility.yul\":1095:1119   */\n  tag_45\n    /* \"#utility.yul\":1113:1118   */\n  dup2\n    /* \"#utility.yul\":1095:1119   */\n  tag_46\n  jump\t// in\ntag_45:\n    /* \"#utility.yul\":1090:1093   */\n  dup3\n    /* \"#utility.yul\":1083:1120   */\n  mstore\n    /* \"#utility.yul\":1008:1126   */\n  pop\n  pop\n  jump\t// out\n    /* \"#utility.yul\":1132:1244   */\ntag_47:\n    /* \"#utility.yul\":1215:1237   */\n  tag_49\n    /* \"#utility.yul\":1231:1236   */\n  dup2\n    /* \"#utility.yul\":1215:1237   */\n  tag_50\n  jump\t// in\ntag_49:\n    /* \"#utility.yul\":1210:1213   */\n  dup3\n    /* \"#utility.yul\":1203:1238   */\n  mstore\n    /* \"#utility.yul\":1132:1244   */\n  pop\n  pop\n  jump\t// out\n    /* \"#utility.yul\":1250:1992   */\ntag_10:\n    /* \"#utility.yul\":1496:1500   */\n  0x00\n    /* \"#utility.yul\":1534:1537   */\n  0x80\n    /* \"#utility.yul\":1523:1532   */\n  dup3\n    /* \"#utility.yul\":1519:1538   */\n  add\n    /* \"#utility.yul\":1511:1538   */\n  swap1\n  pop\n    /* \"#utility.yul\":1548:1619   */\n  tag_52\n    /* \"#utility.yul\":1616:1617   */\n  0x00\n    /* \"#utility.yul\":1605:1614   */\n  dup4\n    /* \"#utility.yul\":1601:1618   */\n  add\n    /* \"#utility.yul\":1592:1598   */\n  dup7\n    /* \"#utility.yul\":1548:1619   */\n  tag_33\n  jump\t// in\ntag_52:\n    /* \"#utility.yul\":1629:1697   */\n  tag_53\n    /* \"#utility.yul\":1693:1695   */\n  0x20\n    /* \"#utility.yul\":1682:1691   */\n  dup4\n    /* \"#utility.yul\":1678:1696   */\n  add\n    /* \"#utility.yul\":1669:1675   */\n  dup6\n    /* \"#utility.yul\":1629:1697   */\n  tag_47\n  jump\t// in\ntag_53:\n    /* \"#utility.yul\":1707:1779   */\n  tag_54\n    /* \"#utility.yul\":1775:1777   */\n  0x40\n    /* \"#utility.yul\":1764:1773   */\n  dup4\n    /* \"#utility.yul\":1760:1778   */\n  add\n    /* \"#utility.yul\":1751:1757   */\n  dup5\n    /* \"#utility.yul\":1707:1779   */\n  tag_43\n  jump\t// in\ntag_54:\n    /* \"#utility.yul\":1826:1835   */\n  dup2\n    /* \"#utility.yul\":1820:1824   */\n  dup2\n    /* \"#utility.yul\":1816:1836   */\n  sub\n    /* \"#utility.yul\":1811:1813   */\n  0x60\n    /* \"#utility.yul\":1800:1809   */\n  dup4\n    /* \"#utility.yul\":1796:1814   */\n  add\n    /* \"#utility.yul\":1789:1837   */\n  mstore\n    /* \"#utility.yul\":1854:1985   */\n  tag_55\n    /* \"#utility.yul\":1980:1984   */\n  dup2\n    /* \"#utility.yul\":1854:1985   */\n  tag_37\n  jump\t// in\ntag_55:\n    /* \"#utility.yul\":1846:1985   */\n  swap1\n  pop\n    /* \"#utility.yul\":1250:1992   */\n  swap5\n  swap4\n  pop\n  pop\n  pop\n  pop\n  jump\t// out\n    /* \"#utility.yul\":2079:2248   */\ntag_40:\n    /* \"#utility.yul\":2163:2174   */\n  0x00\n    /* \"#utility.yul\":2197:2203   */\n  dup3\n    /* \"#utility.yul\":2192:2195   */\n  dup3\n    /* \"#utility.yul\":2185:2204   */\n  mstore\n    /* \"#utility.yul\":2237:2241   */\n  0x20\n    /* \"#utility.yul\":2232:2235   */\n  dup3\n    /* \"#utility.yul\":2228:2242   */\n  add\n    /* \"#utility.yul\":2213:2242   */\n  swap1\n  pop\n    /* \"#utility.yul\":2079:2248   */\n  swap3\n  swap2\n  pop\n  pop\n  jump\t// out\n    /* \"#utility.yul\":2254:2350   */\ntag_36:\n    /* \"#utility.yul\":2291:2298   */\n  0x00\n    /* \"#utility.yul\":2320:2344   */\n  tag_60\n    /* \"#utility.yul\":2338:2343   */\n  dup3\n    /* \"#utility.yul\":2320:2344   */\n  tag_61\n  jump\t// in\ntag_60:\n    /* \"#utility.yul\":2309:2344   */\n  swap1\n  pop\n    /* \"#utility.yul\":2254:2350   */\n  swap2\n  swap1\n  pop\n  jump\t// out\n    /* \"#utility.yul\":2356:2482   */\ntag_61:\n    /* \"#utility.yul\":2393:2400   */\n  0x00\n    /* \"#utility.yul\":2433:2475   */\n  0xffffffffffffffffffffffffffffffffffffffff\n    /* \"#utility.yul\":2426:2431   */\n  dup3\n    /* \"#utility.yul\":2422:2476   */\n  and\n    /* \"#utility.yul\":2411:2476   */\n  swap1\n  pop\n    /* \"#utility.yul\":2356:2482   */\n  swap2\n  swap1\n  pop\n  jump\t// out\n    /* \"#utility.yul\":2488:2565   */\ntag_46:\n    /* \"#utility.yul\":2525:2532   */\n  0x00\n    /* \"#utility.yul\":2554:2559   */\n  dup2\n    /* \"#utility.yul\":2543:2559   */\n  swap1\n  pop\n    /* \"#utility.yul\":2488:2565   */\n  swap2\n  swap1\n  pop\n  jump\t// out\n    /* \"#utility.yul\":2571:2657   */\ntag_50:\n    /* \"#utility.yul\":2606:2613   */\n  0x00\n    /* \"#utility.yul\":2646:2650   */\n  0xff\n    /* \"#utility.yul\":2639:2644   */\n  dup3\n    /* \"#utility.yul\":2635:2651   */\n  and\n    /* \"#utility.yul\":2624:2651   */\n  swap1\n  pop\n    /* \"#utility.yul\":2571:2657   */\n  swap2\n  swap1\n  pop\n  jump\t// out\n    /* \"#utility.yul\":2663:2983   */\ntag_13:\n    /* \"#utility.yul\":2707:2713   */\n  0x00\n    /* \"#utility.yul\":2744:2745   */\n  0x02\n    /* \"#utility.yul\":2738:2742   */\n  dup3\n    /* \"#utility.yul\":2734:2746   */\n  div\n    /* \"#utility.yul\":2724:2746   */\n  swap1\n  pop\n    /* \"#utility.yul\":2791:2792   */\n  0x01\n    /* \"#utility.yul\":2785:2789   */\n  dup3\n    /* \"#utility.yul\":2781:2793   */\n  and\n    /* \"#utility.yul\":2812:2830   */\n  dup1\n    /* \"#utility.yul\":2802:2883   */\n  tag_66\n  jumpi\n    /* \"#utility.yul\":2868:2872   */\n  0x7f\n    /* \"#utility.yul\":2860:2866   */\n  dup3\n    /* \"#utility.yul\":2856:2873   */\n  and\n    /* \"#utility.yul\":2846:2873   */\n  swap2\n  pop\n    /* \"#utility.yul\":2802:2883   */\ntag_66:\n    /* \"#utility.yul\":2930:2932   */\n  0x20\n    /* \"#utility.yul\":2922:2928   */\n  dup3\n    /* \"#utility.yul\":2919:2933   */\n  lt\n    /* \"#utility.yul\":2899:2917   */\n  dup2\n    /* \"#utility.yul\":2896:2934   */\n  eq\n    /* \"#utility.yul\":2893:2977   */\n  iszero\n  tag_67\n  jumpi\n    /* \"#utility.yul\":2949:2967   */\n  tag_68\n  tag_69\n  jump\t// in\ntag_68:\n    /* \"#utility.yul\":2893:2977   */\ntag_67:\n    /* \"#utility.yul\":2714:2983   */\n  pop\n    /* \"#utility.yul\":2663:2983   */\n  swap2\n  swap1\n  pop\n  jump\t// out\n    /* \"#utility.yul\":2989:3169   */\ntag_69:\n    /* \"#utility.yul\":3037:3114   */\n  0x4e487b7100000000000000000000000000000000000000000000000000000000\n    /* \"#utility.yul\":3034:3035   */\n  0x00\n    /* \"#utility.yul\":3027:3115   */\n  mstore\n    /* \"#utility.yul\":3134:3138   */\n  0x22\n    /* \"#utility.yul\":3131:3132   */\n  0x04\n    /* \"#utility.yul\":3124:3139   */\n  mstore\n    /* \"#utility.yul\":3158:3162   */\n  0x24\n    /* \"#utility.yul\":3155:3156   */\n  0x00\n    /* \"#utility.yul\":3148:3163   */\n  revert\n    /* \"#utility.yul\":3298:3415   */\ntag_31:\n    /* \"#utility.yul\":3407:3408   */\n  0x00\n    /* \"#utility.yul\":3404:3405   */\n  dup1\n    /* \"#utility.yul\":3397:3409   */\n  revert\n    /* \"#utility.yul\":3421:3577   */\ntag_42:\n    /* \"#utility.yul\":3561:3569   */\n  0x6372656174650000000000000000000000000000000000000000000000000000\n    /* \"#utility.yul\":3557:3558   */\n  0x00\n    /* \"#utility.yul\":3549:3555   */\n  dup3\n    /* \"#utility.yul\":3545:3559   */\n  add\n    /* \"#utility.yul\":3538:3570   */\n  mstore\n    /* \"#utility.yul\":3421:3577   */\n  pop\n  jump\t// out\n    /* \"#utility.yul\":3583:3705   */\ntag_27:\n    /* \"#utility.yul\":3656:3680   */\n  tag_76\n    /* \"#utility.yul\":3674:3679   */\n  dup2\n    /* \"#utility.yul\":3656:3680   */\n  tag_46\n  jump\t// in\ntag_76:\n    /* \"#utility.yul\":3649:3654   */\n  dup2\n    /* \"#utility.yul\":3646:3681   */\n  eq\n    /* \"#utility.yul\":3636:3699   */\n  tag_77\n  jumpi\n    /* \"#utility.yul\":3695:3696   */\n  0x00\n    /* \"#utility.yul\":3692:3693   */\n  dup1\n    /* \"#utility.yul\":3685:3697   */\n  revert\n    /* \"#utility.yul\":3636:3699   */\ntag_77:\n    /* \"#utility.yul\":3583:3705   */\n  pop\n  jump\t// out\n    /* \"trace/goods.sol\":26:1234  contract Goods{\r... */\ntag_11:\n  dataSize(sub_0)\n  dup1\n  dataOffset(sub_0)\n  0x00\n  codecopy\n  0x00\n  return\nstop\n\nsub_0: assembly {\n        /* \"trace/goods.sol\":26:1234  contract Goods{\r... */\n      mstore(0x40, 0x80)\n      callvalue\n      dup1\n      iszero\n      tag_1\n      jumpi\n      0x00\n      dup1\n      revert\n    tag_1:\n      pop\n      jumpi(tag_2, lt(calldatasize, 0x04))\n      shr(0xe0, calldataload(0x00))\n      dup1\n      0x173d773d\n      eq\n      tag_3\n      jumpi\n      dup1\n      0x4e69d560\n      eq\n      tag_4\n      jumpi\n      dup1\n      0x799cf246\n      eq\n      tag_5\n      jumpi\n    tag_2:\n      0x00\n      dup1\n      revert\n        /* \"trace/goods.sol\":724:1025  function changeStatus(uint8 _status, string memory _remark) public returns (bool){\r... */\n    tag_3:\n      tag_6\n      0x04\n      dup1\n      calldatasize\n      sub\n      dup2\n      add\n      swap1\n      tag_7\n      swap2\n      swap1\n      tag_8\n      jump\t// in\n    tag_7:\n      tag_9\n      jump\t// in\n    tag_6:\n      mload(0x40)\n      tag_10\n      swap2\n      swap1\n      tag_11\n      jump\t// in\n    tag_10:\n      mload(0x40)\n      dup1\n      swap2\n      sub\n      swap1\n      return\n        /* \"trace/goods.sol\":1033:1120  function getStatus() public view returns (uint8){\r... */\n    tag_4:\n      tag_12\n      tag_13\n      jump\t// in\n    tag_12:\n      mload(0x40)\n      tag_14\n      swap2\n      swap1\n      tag_15\n      jump\t// in\n    tag_14:\n      mload(0x40)\n      dup1\n      swap2\n      sub\n      swap1\n      return\n        /* \"trace/goods.sol\":1128:1229  function getTranceInfo() public view returns (TraceData[] memory){\r... */\n    tag_5:\n      tag_16\n      tag_17\n      jump\t// in\n    tag_16:\n      mload(0x40)\n      tag_18\n      swap2\n      swap1\n      tag_19\n      jump\t// in\n    tag_18:\n      mload(0x40)\n      dup1\n      swap2\n      sub\n      swap1\n      return\n        /* \"trace/goods.sol\":724:1025  function changeStatus(uint8 _status, string memory _remark) public returns (bool){\r... */\n    tag_9:\n        /* \"trace/goods.sol\":800:804  bool */\n      0x00\n        /* \"trace/goods.sol\":832:839  _status */\n      dup3\n        /* \"trace/goods.sol\":816:829  currentStatus */\n      0x01\n      0x00\n        /* \"trace/goods.sol\":816:839  currentStatus = _status */\n      0x0100\n      exp\n      dup2\n      sload\n      dup2\n      0xff\n      mul\n      not\n      and\n      swap1\n      dup4\n      0xff\n      and\n      mul\n      or\n      swap1\n      sstore\n      pop\n        /* \"trace/goods.sol\":850:860  traceDatas */\n      0x02\n        /* \"trace/goods.sol\":866:922  TraceData(msg.sender, _status, block.timestamp, _remark) */\n      mload(0x40)\n      dup1\n      0x80\n      add\n      0x40\n      mstore\n      dup1\n        /* \"trace/goods.sol\":876:886  msg.sender */\n      caller\n        /* \"trace/goods.sol\":866:922  TraceData(msg.sender, _status, block.timestamp, _remark) */\n      0xffffffffffffffffffffffffffffffffffffffff\n      and\n      dup2\n      mstore\n      0x20\n      add\n        /* \"trace/goods.sol\":888:895  _status */\n      dup6\n        /* \"trace/goods.sol\":866:922  TraceData(msg.sender, _status, block.timestamp, _remark) */\n      0xff\n      and\n      dup2\n      mstore\n      0x20\n      add\n        /* \"trace/goods.sol\":897:912  block.timestamp */\n      timestamp\n        /* \"trace/goods.sol\":866:922  TraceData(msg.sender, _status, block.timestamp, _remark) */\n      dup2\n      mstore\n      0x20\n      add\n        /* \"trace/goods.sol\":914:921  _remark */\n      dup5\n        /* \"trace/goods.sol\":866:922  TraceData(msg.sender, _status, block.timestamp, _remark) */\n      dup2\n      mstore\n      pop\n        /* \"trace/goods.sol\":850:923  traceDatas.push(TraceData(msg.sender, _status, block.timestamp, _remark)) */\n      swap1\n      dup1\n      0x01\n      dup2\n      sload\n      add\n      dup1\n      dup3\n      sstore\n      dup1\n      swap2\n      pop\n      pop\n      0x01\n      swap1\n      sub\n      swap1\n      0x00\n      mstore\n      keccak256(0x00, 0x20)\n      swap1\n      0x03\n      mul\n      add\n      0x00\n      swap1\n      swap2\n      swap1\n      swap2\n      swap1\n      swap2\n      pop\n      0x00\n      dup3\n      add\n      mload\n      dup2\n      0x00\n      add\n      exp(0x0100, 0x00)\n      dup2\n      sload\n      dup2\n      0xffffffffffffffffffffffffffffffffffffffff\n      mul\n      not\n      and\n      swap1\n      dup4\n      0xffffffffffffffffffffffffffffffffffffffff\n      and\n      mul\n      or\n      swap1\n      sstore\n      pop\n      0x20\n      dup3\n      add\n      mload\n      dup2\n      0x00\n      add\n      exp(0x0100, 0x14)\n      dup2\n      sload\n      dup2\n      0xff\n      mul\n      not\n      and\n      swap1\n      dup4\n      0xff\n      and\n      mul\n      or\n      swap1\n      sstore\n      pop\n      0x40\n      dup3\n      add\n      mload\n      dup2\n      0x01\n      add\n      sstore\n      0x60\n      dup3\n      add\n      mload\n      dup2\n      0x02\n      add\n      swap1\n      dup1\n      mload\n      swap1\n      0x20\n      add\n      swap1\n      tag_22\n      swap3\n      swap2\n      swap1\n      tag_23\n      jump\t// in\n    tag_22:\n      pop\n      pop\n      pop\n        /* \"trace/goods.sol\":939:995  NewStatus(msg.sender, _status, block.timestamp, _remark) */\n      0x38930409e72d179a853c881163fcee8ed63d42ec95ee4599fc17e0421e1303d8\n        /* \"trace/goods.sol\":949:959  msg.sender */\n      caller\n        /* \"trace/goods.sol\":961:968  _status */\n      dup5\n        /* \"trace/goods.sol\":970:985  block.timestamp */\n      timestamp\n        /* \"trace/goods.sol\":987:994  _remark */\n      dup6\n        /* \"trace/goods.sol\":939:995  NewStatus(msg.sender, _status, block.timestamp, _remark) */\n      mload(0x40)\n      tag_24\n      swap5\n      swap4\n      swap3\n      swap2\n      swap1\n      tag_25\n      jump\t// in\n    tag_24:\n      mload(0x40)\n      dup1\n      swap2\n      sub\n      swap1\n      log1\n        /* \"trace/goods.sol\":1013:1017  true */\n      0x01\n        /* \"trace/goods.sol\":1006:1017  return true */\n      swap1\n      pop\n        /* \"trace/goods.sol\":724:1025  function changeStatus(uint8 _status, string memory _remark) public returns (bool){\r... */\n      swap3\n      swap2\n      pop\n      pop\n      jump\t// out\n        /* \"trace/goods.sol\":1033:1120  function getStatus() public view returns (uint8){\r... */\n    tag_13:\n        /* \"trace/goods.sol\":1075:1080  uint8 */\n      0x00\n        /* \"trace/goods.sol\":1099:1112  currentStatus */\n      0x01\n      0x00\n      swap1\n      sload\n      swap1\n      0x0100\n      exp\n      swap1\n      div\n      0xff\n      and\n        /* \"trace/goods.sol\":1092:1112  return currentStatus */\n      swap1\n      pop\n        /* \"trace/goods.sol\":1033:1120  function getStatus() public view returns (uint8){\r... */\n      swap1\n      jump\t// out\n        /* \"trace/goods.sol\":1128:1229  function getTranceInfo() public view returns (TraceData[] memory){\r... */\n    tag_17:\n        /* \"trace/goods.sol\":1174:1192  TraceData[] memory */\n      0x60\n        /* \"trace/goods.sol\":1211:1221  traceDatas */\n      0x02\n        /* \"trace/goods.sol\":1204:1221  return traceDatas */\n      dup1\n      sload\n      dup1\n      0x20\n      mul\n      0x20\n      add\n      mload(0x40)\n      swap1\n      dup2\n      add\n      0x40\n      mstore\n      dup1\n      swap3\n      swap2\n      swap1\n      dup2\n      dup2\n      mstore\n      0x20\n      add\n      0x00\n      swap1\n    tag_28:\n      dup3\n      dup3\n      lt\n      iszero\n      tag_29\n      jumpi\n      dup4\n      dup3\n      swap1\n      0x00\n      mstore\n      keccak256(0x00, 0x20)\n      swap1\n      0x03\n      mul\n      add\n      mload(0x40)\n      dup1\n      0x80\n      add\n      0x40\n      mstore\n      swap1\n      dup2\n      0x00\n      dup3\n      add\n      0x00\n      swap1\n      sload\n      swap1\n      0x0100\n      exp\n      swap1\n      div\n      0xffffffffffffffffffffffffffffffffffffffff\n      and\n      0xffffffffffffffffffffffffffffffffffffffff\n      and\n      0xffffffffffffffffffffffffffffffffffffffff\n      and\n      dup2\n      mstore\n      0x20\n      add\n      0x00\n      dup3\n      add\n      0x14\n      swap1\n      sload\n      swap1\n      0x0100\n      exp\n      swap1\n      div\n      0xff\n      and\n      0xff\n      and\n      0xff\n      and\n      dup2\n      mstore\n      0x20\n      add\n      0x01\n      dup3\n      add\n      sload\n      dup2\n      mstore\n      0x20\n      add\n      0x02\n      dup3\n      add\n      dup1\n      sload\n      tag_31\n      swap1\n      tag_32\n      jump\t// in\n    tag_31:\n      dup1\n      0x1f\n      add\n      0x20\n      dup1\n      swap2\n      div\n      mul\n      0x20\n      add\n      mload(0x40)\n      swap1\n      dup2\n      add\n      0x40\n      mstore\n      dup1\n      swap3\n      swap2\n      swap1\n      dup2\n      dup2\n      mstore\n      0x20\n      add\n      dup3\n      dup1\n      sload\n      tag_33\n      swap1\n      tag_32\n      jump\t// in\n    tag_33:\n      dup1\n      iszero\n      tag_34\n      jumpi\n      dup1\n      0x1f\n      lt\n      tag_35\n      jumpi\n      0x0100\n      dup1\n      dup4\n      sload\n      div\n      mul\n      dup4\n      mstore\n      swap2\n      0x20\n      add\n      swap2\n      jump(tag_34)\n    tag_35:\n      dup3\n      add\n      swap2\n      swap1\n      0x00\n      mstore\n      keccak256(0x00, 0x20)\n      swap1\n    tag_36:\n      dup2\n      sload\n      dup2\n      mstore\n      swap1\n      0x01\n      add\n      swap1\n      0x20\n      add\n      dup1\n      dup4\n      gt\n      tag_36\n      jumpi\n      dup3\n      swap1\n      sub\n      0x1f\n      and\n      dup3\n      add\n      swap2\n    tag_34:\n      pop\n      pop\n      pop\n      pop\n      pop\n      dup2\n      mstore\n      pop\n      pop\n      dup2\n      mstore\n      0x20\n      add\n      swap1\n      0x01\n      add\n      swap1\n      jump(tag_28)\n    tag_29:\n      pop\n      pop\n      pop\n      pop\n      swap1\n      pop\n        /* \"trace/goods.sol\":1128:1229  function getTranceInfo() public view returns (TraceData[] memory){\r... */\n      swap1\n      jump\t// out\n    tag_23:\n      dup3\n      dup1\n      sload\n      tag_37\n      swap1\n      tag_32\n      jump\t// in\n    tag_37:\n      swap1\n      0x00\n      mstore\n      keccak256(0x00, 0x20)\n      swap1\n      0x1f\n      add\n      0x20\n      swap1\n      div\n      dup2\n      add\n      swap3\n      dup3\n      tag_39\n      jumpi\n      0x00\n      dup6\n      sstore\n      jump(tag_38)\n    tag_39:\n      dup3\n      0x1f\n      lt\n      tag_40\n      jumpi\n      dup1\n      mload\n      not(0xff)\n      and\n      dup4\n      dup1\n      add\n      or\n      dup6\n      sstore\n      jump(tag_38)\n    tag_40:\n      dup3\n      dup1\n      add\n      0x01\n      add\n      dup6\n      sstore\n      dup3\n      iszero\n      tag_38\n      jumpi\n      swap2\n      dup3\n      add\n    tag_41:\n      dup3\n      dup2\n      gt\n      iszero\n      tag_42\n      jumpi\n      dup3\n      mload\n      dup3\n      sstore\n      swap2\n      0x20\n      add\n      swap2\n      swap1\n      0x01\n      add\n      swap1\n      jump(tag_41)\n    tag_42:\n    tag_38:\n      pop\n      swap1\n      pop\n      tag_43\n      swap2\n      swap1\n      tag_44\n      jump\t// in\n    tag_43:\n      pop\n      swap1\n      jump\t// out\n    tag_44:\n    tag_45:\n      dup1\n      dup3\n      gt\n      iszero\n      tag_46\n      jumpi\n      0x00\n      dup2\n      0x00\n      swap1\n      sstore\n      pop\n      0x01\n      add\n      jump(tag_45)\n    tag_46:\n      pop\n      swap1\n      jump\t// out\n        /* \"#utility.yul\":7:419   */\n    tag_48:\n        /* \"#utility.yul\":85:90   */\n      0x00\n        /* \"#utility.yul\":110:176   */\n      tag_50\n        /* \"#utility.yul\":126:175   */\n      tag_51\n        /* \"#utility.yul\":168:174   */\n      dup5\n        /* \"#utility.yul\":126:175   */\n      tag_52\n      jump\t// in\n    tag_51:\n        /* \"#utility.yul\":110:176   */\n      tag_53\n      jump\t// in\n    tag_50:\n        /* \"#utility.yul\":101:176   */\n      swap1\n      pop\n        /* \"#utility.yul\":199:205   */\n      dup3\n        /* \"#utility.yul\":192:197   */\n      dup2\n        /* \"#utility.yul\":185:206   */\n      mstore\n        /* \"#utility.yul\":237:241   */\n      0x20\n        /* \"#utility.yul\":230:235   */\n      dup2\n        /* \"#utility.yul\":226:242   */\n      add\n        /* \"#utility.yul\":275:278   */\n      dup5\n        /* \"#utility.yul\":266:272   */\n      dup5\n        /* \"#utility.yul\":261:264   */\n      dup5\n        /* \"#utility.yul\":257:273   */\n      add\n        /* \"#utility.yul\":254:279   */\n      gt\n        /* \"#utility.yul\":251:363   */\n      iszero\n      tag_54\n      jumpi\n        /* \"#utility.yul\":282:361   */\n      tag_55\n      tag_56\n      jump\t// in\n    tag_55:\n        /* \"#utility.yul\":251:363   */\n    tag_54:\n        /* \"#utility.yul\":372:413   */\n      tag_57\n        /* \"#utility.yul\":406:412   */\n      dup5\n        /* \"#utility.yul\":401:404   */\n      dup3\n        /* \"#utility.yul\":396:399   */\n      dup6\n        /* \"#utility.yul\":372:413   */\n      tag_58\n      jump\t// in\n    tag_57:\n        /* \"#utility.yul\":91:419   */\n      pop\n        /* \"#utility.yul\":7:419   */\n      swap4\n      swap3\n      pop\n      pop\n      pop\n      jump\t// out\n        /* \"#utility.yul\":439:779   */\n    tag_59:\n        /* \"#utility.yul\":495:500   */\n      0x00\n        /* \"#utility.yul\":544:547   */\n      dup3\n        /* \"#utility.yul\":537:541   */\n      0x1f\n        /* \"#utility.yul\":529:535   */\n      dup4\n        /* \"#utility.yul\":525:542   */\n      add\n        /* \"#utility.yul\":521:548   */\n      slt\n        /* \"#utility.yul\":511:633   */\n      tag_61\n      jumpi\n        /* \"#utility.yul\":552:631   */\n      tag_62\n      tag_63\n      jump\t// in\n    tag_62:\n        /* \"#utility.yul\":511:633   */\n    tag_61:\n        /* \"#utility.yul\":669:675   */\n      dup2\n        /* \"#utility.yul\":656:676   */\n      calldataload\n        /* \"#utility.yul\":694:773   */\n      tag_64\n        /* \"#utility.yul\":769:772   */\n      dup5\n        /* \"#utility.yul\":761:767   */\n      dup3\n        /* \"#utility.yul\":754:758   */\n      0x20\n        /* \"#utility.yul\":746:752   */\n      dup7\n        /* \"#utility.yul\":742:759   */\n      add\n        /* \"#utility.yul\":694:773   */\n      tag_48\n      jump\t// in\n    tag_64:\n        /* \"#utility.yul\":685:773   */\n      swap2\n      pop\n        /* \"#utility.yul\":501:779   */\n      pop\n        /* \"#utility.yul\":439:779   */\n      swap3\n      swap2\n      pop\n      pop\n      jump\t// out\n        /* \"#utility.yul\":785:920   */\n    tag_65:\n        /* \"#utility.yul\":829:834   */\n      0x00\n        /* \"#utility.yul\":867:873   */\n      dup2\n        /* \"#utility.yul\":854:874   */\n      calldataload\n        /* \"#utility.yul\":845:874   */\n      swap1\n      pop\n        /* \"#utility.yul\":883:914   */\n      tag_67\n        /* \"#utility.yul\":908:913   */\n      dup2\n        /* \"#utility.yul\":883:914   */\n      tag_68\n      jump\t// in\n    tag_67:\n        /* \"#utility.yul\":785:920   */\n      swap3\n      swap2\n      pop\n      pop\n      jump\t// out\n        /* \"#utility.yul\":926:1576   */\n    tag_8:\n        /* \"#utility.yul\":1002:1008   */\n      0x00\n        /* \"#utility.yul\":1010:1016   */\n      dup1\n        /* \"#utility.yul\":1059:1061   */\n      0x40\n        /* \"#utility.yul\":1047:1056   */\n      dup4\n        /* \"#utility.yul\":1038:1045   */\n      dup6\n        /* \"#utility.yul\":1034:1057   */\n      sub\n        /* \"#utility.yul\":1030:1062   */\n      slt\n        /* \"#utility.yul\":1027:1146   */\n      iszero\n      tag_70\n      jumpi\n        /* \"#utility.yul\":1065:1144   */\n      tag_71\n      tag_72\n      jump\t// in\n    tag_71:\n        /* \"#utility.yul\":1027:1146   */\n    tag_70:\n        /* \"#utility.yul\":1185:1186   */\n      0x00\n        /* \"#utility.yul\":1210:1261   */\n      tag_73\n        /* \"#utility.yul\":1253:1260   */\n      dup6\n        /* \"#utility.yul\":1244:1250   */\n      dup3\n        /* \"#utility.yul\":1233:1242   */\n      dup7\n        /* \"#utility.yul\":1229:1251   */\n      add\n        /* \"#utility.yul\":1210:1261   */\n      tag_65\n      jump\t// in\n    tag_73:\n        /* \"#utility.yul\":1200:1261   */\n      swap3\n      pop\n        /* \"#utility.yul\":1156:1271   */\n      pop\n        /* \"#utility.yul\":1338:1340   */\n      0x20\n        /* \"#utility.yul\":1327:1336   */\n      dup4\n        /* \"#utility.yul\":1323:1341   */\n      add\n        /* \"#utility.yul\":1310:1342   */\n      calldataload\n        /* \"#utility.yul\":1369:1387   */\n      0xffffffffffffffff\n        /* \"#utility.yul\":1361:1367   */\n      dup2\n        /* \"#utility.yul\":1358:1388   */\n      gt\n        /* \"#utility.yul\":1355:1472   */\n      iszero\n      tag_74\n      jumpi\n        /* \"#utility.yul\":1391:1470   */\n      tag_75\n      tag_76\n      jump\t// in\n    tag_75:\n        /* \"#utility.yul\":1355:1472   */\n    tag_74:\n        /* \"#utility.yul\":1496:1559   */\n      tag_77\n        /* \"#utility.yul\":1551:1558   */\n      dup6\n        /* \"#utility.yul\":1542:1548   */\n      dup3\n        /* \"#utility.yul\":1531:1540   */\n      dup7\n        /* \"#utility.yul\":1527:1549   */\n      add\n        /* \"#utility.yul\":1496:1559   */\n      tag_59\n      jump\t// in\n    tag_77:\n        /* \"#utility.yul\":1486:1559   */\n      swap2\n      pop\n        /* \"#utility.yul\":1281:1569   */\n      pop\n        /* \"#utility.yul\":926:1576   */\n      swap3\n      pop\n      swap3\n      swap1\n      pop\n      jump\t// out\n        /* \"#utility.yul\":1582:1838   */\n    tag_78:\n        /* \"#utility.yul\":1701:1711   */\n      0x00\n        /* \"#utility.yul\":1736:1832   */\n      tag_80\n        /* \"#utility.yul\":1828:1831   */\n      dup4\n        /* \"#utility.yul\":1820:1826   */\n      dup4\n        /* \"#utility.yul\":1736:1832   */\n      tag_81\n      jump\t// in\n    tag_80:\n        /* \"#utility.yul\":1722:1832   */\n      swap1\n      pop\n        /* \"#utility.yul\":1582:1838   */\n      swap3\n      swap2\n      pop\n      pop\n      jump\t// out\n        /* \"#utility.yul\":1844:1952   */\n    tag_82:\n        /* \"#utility.yul\":1921:1945   */\n      tag_84\n        /* \"#utility.yul\":1939:1944   */\n      dup2\n        /* \"#utility.yul\":1921:1945   */\n      tag_85\n      jump\t// in\n    tag_84:\n        /* \"#utility.yul\":1916:1919   */\n      dup3\n        /* \"#utility.yul\":1909:1946   */\n      mstore\n        /* \"#utility.yul\":1844:1952   */\n      pop\n      pop\n      jump\t// out\n        /* \"#utility.yul\":1958:2076   */\n    tag_86:\n        /* \"#utility.yul\":2045:2069   */\n      tag_88\n        /* \"#utility.yul\":2063:2068   */\n      dup2\n        /* \"#utility.yul\":2045:2069   */\n      tag_85\n      jump\t// in\n    tag_88:\n        /* \"#utility.yul\":2040:2043   */\n      dup3\n        /* \"#utility.yul\":2033:2070   */\n      mstore\n        /* \"#utility.yul\":1958:2076   */\n      pop\n      pop\n      jump\t// out\n        /* \"#utility.yul\":2142:3253   */\n    tag_89:\n        /* \"#utility.yul\":2311:2314   */\n      0x00\n        /* \"#utility.yul\":2340:2419   */\n      tag_91\n        /* \"#utility.yul\":2413:2418   */\n      dup3\n        /* \"#utility.yul\":2340:2419   */\n      tag_92\n      jump\t// in\n    tag_91:\n        /* \"#utility.yul\":2435:2546   */\n      tag_93\n        /* \"#utility.yul\":2539:2545   */\n      dup2\n        /* \"#utility.yul\":2534:2537   */\n      dup6\n        /* \"#utility.yul\":2435:2546   */\n      tag_94\n      jump\t// in\n    tag_93:\n        /* \"#utility.yul\":2428:2546   */\n      swap4\n      pop\n        /* \"#utility.yul\":2572:2575   */\n      dup4\n        /* \"#utility.yul\":2617:2621   */\n      0x20\n        /* \"#utility.yul\":2609:2615   */\n      dup3\n        /* \"#utility.yul\":2605:2622   */\n      mul\n        /* \"#utility.yul\":2600:2603   */\n      dup6\n        /* \"#utility.yul\":2596:2623   */\n      add\n        /* \"#utility.yul\":2647:2728   */\n      tag_95\n        /* \"#utility.yul\":2722:2727   */\n      dup6\n        /* \"#utility.yul\":2647:2728   */\n      tag_96\n      jump\t// in\n    tag_95:\n        /* \"#utility.yul\":2751:2758   */\n      dup1\n        /* \"#utility.yul\":2782:2783   */\n      0x00\n        /* \"#utility.yul\":2767:3208   */\n    tag_97:\n        /* \"#utility.yul\":2792:2798   */\n      dup6\n        /* \"#utility.yul\":2789:2790   */\n      dup2\n        /* \"#utility.yul\":2786:2799   */\n      lt\n        /* \"#utility.yul\":2767:3208   */\n      iszero\n      tag_99\n      jumpi\n        /* \"#utility.yul\":2863:2872   */\n      dup5\n        /* \"#utility.yul\":2857:2861   */\n      dup5\n        /* \"#utility.yul\":2853:2873   */\n      sub\n        /* \"#utility.yul\":2848:2851   */\n      dup10\n        /* \"#utility.yul\":2841:2874   */\n      mstore\n        /* \"#utility.yul\":2914:2920   */\n      dup2\n        /* \"#utility.yul\":2908:2921   */\n      mload\n        /* \"#utility.yul\":2942:3056   */\n      tag_100\n        /* \"#utility.yul\":3051:3055   */\n      dup6\n        /* \"#utility.yul\":3036:3049   */\n      dup3\n        /* \"#utility.yul\":2942:3056   */\n      tag_78\n      jump\t// in\n    tag_100:\n        /* \"#utility.yul\":2934:3056   */\n      swap5\n      pop\n        /* \"#utility.yul\":3079:3164   */\n      tag_101\n        /* \"#utility.yul\":3157:3163   */\n      dup4\n        /* \"#utility.yul\":3079:3164   */\n      tag_102\n      jump\t// in\n    tag_101:\n        /* \"#utility.yul\":3069:3164   */\n      swap3\n      pop\n        /* \"#utility.yul\":3193:3197   */\n      0x20\n        /* \"#utility.yul\":3188:3191   */\n      dup11\n        /* \"#utility.yul\":3184:3198   */\n      add\n        /* \"#utility.yul\":3177:3198   */\n      swap10\n      pop\n        /* \"#utility.yul\":2827:3208   */\n      pop\n        /* \"#utility.yul\":2814:2815   */\n      0x01\n        /* \"#utility.yul\":2811:2812   */\n      dup2\n        /* \"#utility.yul\":2807:2816   */\n      add\n        /* \"#utility.yul\":2802:2816   */\n      swap1\n      pop\n        /* \"#utility.yul\":2767:3208   */\n      jump(tag_97)\n    tag_99:\n        /* \"#utility.yul\":2771:2785   */\n      pop\n        /* \"#utility.yul\":3224:3228   */\n      dup3\n        /* \"#utility.yul\":3217:3228   */\n      swap8\n      pop\n        /* \"#utility.yul\":3244:3247   */\n      dup8\n        /* \"#utility.yul\":3237:3247   */\n      swap6\n      pop\n        /* \"#utility.yul\":2316:3253   */\n      pop\n      pop\n      pop\n      pop\n      pop\n        /* \"#utility.yul\":2142:3253   */\n      swap3\n      swap2\n      pop\n      pop\n      jump\t// out\n        /* \"#utility.yul\":3259:3368   */\n    tag_103:\n        /* \"#utility.yul\":3340:3361   */\n      tag_105\n        /* \"#utility.yul\":3355:3360   */\n      dup2\n        /* \"#utility.yul\":3340:3361   */\n      tag_106\n      jump\t// in\n    tag_105:\n        /* \"#utility.yul\":3335:3338   */\n      dup3\n        /* \"#utility.yul\":3328:3362   */\n      mstore\n        /* \"#utility.yul\":3259:3368   */\n      pop\n      pop\n      jump\t// out\n        /* \"#utility.yul\":3374:3718   */\n    tag_107:\n        /* \"#utility.yul\":3452:3455   */\n      0x00\n        /* \"#utility.yul\":3480:3519   */\n      tag_109\n        /* \"#utility.yul\":3513:3518   */\n      dup3\n        /* \"#utility.yul\":3480:3519   */\n      tag_110\n      jump\t// in\n    tag_109:\n        /* \"#utility.yul\":3535:3596   */\n      tag_111\n        /* \"#utility.yul\":3589:3595   */\n      dup2\n        /* \"#utility.yul\":3584:3587   */\n      dup6\n        /* \"#utility.yul\":3535:3596   */\n      tag_112\n      jump\t// in\n    tag_111:\n        /* \"#utility.yul\":3528:3596   */\n      swap4\n      pop\n        /* \"#utility.yul\":3605:3657   */\n      tag_113\n        /* \"#utility.yul\":3650:3656   */\n      dup2\n        /* \"#utility.yul\":3645:3648   */\n      dup6\n        /* \"#utility.yul\":3638:3642   */\n      0x20\n        /* \"#utility.yul\":3631:3636   */\n      dup7\n        /* \"#utility.yul\":3627:3643   */\n      add\n        /* \"#utility.yul\":3605:3657   */\n      tag_114\n      jump\t// in\n    tag_113:\n        /* \"#utility.yul\":3682:3711   */\n      tag_115\n        /* \"#utility.yul\":3704:3710   */\n      dup2\n        /* \"#utility.yul\":3682:3711   */\n      tag_116\n      jump\t// in\n    tag_115:\n        /* \"#utility.yul\":3677:3680   */\n      dup5\n        /* \"#utility.yul\":3673:3712   */\n      add\n        /* \"#utility.yul\":3666:3712   */\n      swap2\n      pop\n        /* \"#utility.yul\":3456:3718   */\n      pop\n        /* \"#utility.yul\":3374:3718   */\n      swap3\n      swap2\n      pop\n      pop\n      jump\t// out\n        /* \"#utility.yul\":3724:4088   */\n    tag_117:\n        /* \"#utility.yul\":3812:3815   */\n      0x00\n        /* \"#utility.yul\":3840:3879   */\n      tag_119\n        /* \"#utility.yul\":3873:3878   */\n      dup3\n        /* \"#utility.yul\":3840:3879   */\n      tag_110\n      jump\t// in\n    tag_119:\n        /* \"#utility.yul\":3895:3966   */\n      tag_120\n        /* \"#utility.yul\":3959:3965   */\n      dup2\n        /* \"#utility.yul\":3954:3957   */\n      dup6\n        /* \"#utility.yul\":3895:3966   */\n      tag_121\n      jump\t// in\n    tag_120:\n        /* \"#utility.yul\":3888:3966   */\n      swap4\n      pop\n        /* \"#utility.yul\":3975:4027   */\n      tag_122\n        /* \"#utility.yul\":4020:4026   */\n      dup2\n        /* \"#utility.yul\":4015:4018   */\n      dup6\n        /* \"#utility.yul\":4008:4012   */\n      0x20\n        /* \"#utility.yul\":4001:4006   */\n      dup7\n        /* \"#utility.yul\":3997:4013   */\n      add\n        /* \"#utility.yul\":3975:4027   */\n      tag_114\n      jump\t// in\n    tag_122:\n        /* \"#utility.yul\":4052:4081   */\n      tag_123\n        /* \"#utility.yul\":4074:4080   */\n      dup2\n        /* \"#utility.yul\":4052:4081   */\n      tag_116\n      jump\t// in\n    tag_123:\n        /* \"#utility.yul\":4047:4050   */\n      dup5\n        /* \"#utility.yul\":4043:4082   */\n      add\n        /* \"#utility.yul\":4036:4082   */\n      swap2\n      pop\n        /* \"#utility.yul\":3816:4088   */\n      pop\n        /* \"#utility.yul\":3724:4088   */\n      swap3\n      swap2\n      pop\n      pop\n      jump\t// out\n        /* \"#utility.yul\":4150:5103   */\n    tag_81:\n        /* \"#utility.yul\":4259:4262   */\n      0x00\n        /* \"#utility.yul\":4295:4299   */\n      0x80\n        /* \"#utility.yul\":4290:4293   */\n      dup4\n        /* \"#utility.yul\":4286:4300   */\n      add\n        /* \"#utility.yul\":4386:4390   */\n      0x00\n        /* \"#utility.yul\":4379:4384   */\n      dup4\n        /* \"#utility.yul\":4375:4391   */\n      add\n        /* \"#utility.yul\":4369:4392   */\n      mload\n        /* \"#utility.yul\":4405:4468   */\n      tag_125\n        /* \"#utility.yul\":4462:4466   */\n      0x00\n        /* \"#utility.yul\":4457:4460   */\n      dup7\n        /* \"#utility.yul\":4453:4467   */\n      add\n        /* \"#utility.yul\":4439:4451   */\n      dup3\n        /* \"#utility.yul\":4405:4468   */\n      tag_82\n      jump\t// in\n    tag_125:\n        /* \"#utility.yul\":4310:4478   */\n      pop\n        /* \"#utility.yul\":4562:4566   */\n      0x20\n        /* \"#utility.yul\":4555:4560   */\n      dup4\n        /* \"#utility.yul\":4551:4567   */\n      add\n        /* \"#utility.yul\":4545:4568   */\n      mload\n        /* \"#utility.yul\":4581:4640   */\n      tag_126\n        /* \"#utility.yul\":4634:4638   */\n      0x20\n        /* \"#utility.yul\":4629:4632   */\n      dup7\n        /* \"#utility.yul\":4625:4639   */\n      add\n        /* \"#utility.yul\":4611:4623   */\n      dup3\n        /* \"#utility.yul\":4581:4640   */\n      tag_127\n      jump\t// in\n    tag_126:\n        /* \"#utility.yul\":4488:4650   */\n      pop\n        /* \"#utility.yul\":4737:4741   */\n      0x40\n        /* \"#utility.yul\":4730:4735   */\n      dup4\n        /* \"#utility.yul\":4726:4742   */\n      add\n        /* \"#utility.yul\":4720:4743   */\n      mload\n        /* \"#utility.yul\":4756:4819   */\n      tag_128\n        /* \"#utility.yul\":4813:4817   */\n      0x40\n        /* \"#utility.yul\":4808:4811   */\n      dup7\n        /* \"#utility.yul\":4804:4818   */\n      add\n        /* \"#utility.yul\":4790:4802   */\n      dup3\n        /* \"#utility.yul\":4756:4819   */\n      tag_129\n      jump\t// in\n    tag_128:\n        /* \"#utility.yul\":4660:4829   */\n      pop\n        /* \"#utility.yul\":4913:4917   */\n      0x60\n        /* \"#utility.yul\":4906:4911   */\n      dup4\n        /* \"#utility.yul\":4902:4918   */\n      add\n        /* \"#utility.yul\":4896:4919   */\n      mload\n        /* \"#utility.yul\":4966:4969   */\n      dup5\n        /* \"#utility.yul\":4960:4964   */\n      dup3\n        /* \"#utility.yul\":4956:4970   */\n      sub\n        /* \"#utility.yul\":4949:4953   */\n      0x60\n        /* \"#utility.yul\":4944:4947   */\n      dup7\n        /* \"#utility.yul\":4940:4954   */\n      add\n        /* \"#utility.yul\":4933:4971   */\n      mstore\n        /* \"#utility.yul\":4992:5065   */\n      tag_130\n        /* \"#utility.yul\":5060:5064   */\n      dup3\n        /* \"#utility.yul\":5046:5058   */\n      dup3\n        /* \"#utility.yul\":4992:5065   */\n      tag_107\n      jump\t// in\n    tag_130:\n        /* \"#utility.yul\":4984:5065   */\n      swap2\n      pop\n        /* \"#utility.yul\":4839:5076   */\n      pop\n        /* \"#utility.yul\":5093:5097   */\n      dup1\n        /* \"#utility.yul\":5086:5097   */\n      swap2\n      pop\n        /* \"#utility.yul\":4264:5103   */\n      pop\n        /* \"#utility.yul\":4150:5103   */\n      swap3\n      swap2\n      pop\n      pop\n      jump\t// out\n        /* \"#utility.yul\":5109:5217   */\n    tag_129:\n        /* \"#utility.yul\":5186:5210   */\n      tag_132\n        /* \"#utility.yul\":5204:5209   */\n      dup2\n        /* \"#utility.yul\":5186:5210   */\n      tag_133\n      jump\t// in\n    tag_132:\n        /* \"#utility.yul\":5181:5184   */\n      dup3\n        /* \"#utility.yul\":5174:5211   */\n      mstore\n        /* \"#utility.yul\":5109:5217   */\n      pop\n      pop\n      jump\t// out\n        /* \"#utility.yul\":5223:5341   */\n    tag_134:\n        /* \"#utility.yul\":5310:5334   */\n      tag_136\n        /* \"#utility.yul\":5328:5333   */\n      dup2\n        /* \"#utility.yul\":5310:5334   */\n      tag_133\n      jump\t// in\n    tag_136:\n        /* \"#utility.yul\":5305:5308   */\n      dup3\n        /* \"#utility.yul\":5298:5335   */\n      mstore\n        /* \"#utility.yul\":5223:5341   */\n      pop\n      pop\n      jump\t// out\n        /* \"#utility.yul\":5347:5449   */\n    tag_127:\n        /* \"#utility.yul\":5420:5442   */\n      tag_138\n        /* \"#utility.yul\":5436:5441   */\n      dup2\n        /* \"#utility.yul\":5420:5442   */\n      tag_139\n      jump\t// in\n    tag_138:\n        /* \"#utility.yul\":5415:5418   */\n      dup3\n        /* \"#utility.yul\":5408:5443   */\n      mstore\n        /* \"#utility.yul\":5347:5449   */\n      pop\n      pop\n      jump\t// out\n        /* \"#utility.yul\":5455:5567   */\n    tag_140:\n        /* \"#utility.yul\":5538:5560   */\n      tag_142\n        /* \"#utility.yul\":5554:5559   */\n      dup2\n        /* \"#utility.yul\":5538:5560   */\n      tag_139\n      jump\t// in\n    tag_142:\n        /* \"#utility.yul\":5533:5536   */\n      dup3\n        /* \"#utility.yul\":5526:5561   */\n      mstore\n        /* \"#utility.yul\":5455:5567   */\n      pop\n      pop\n      jump\t// out\n        /* \"#utility.yul\":5573:6209   */\n    tag_25:\n        /* \"#utility.yul\":5766:5770   */\n      0x00\n        /* \"#utility.yul\":5804:5807   */\n      0x80\n        /* \"#utility.yul\":5793:5802   */\n      dup3\n        /* \"#utility.yul\":5789:5808   */\n      add\n        /* \"#utility.yul\":5781:5808   */\n      swap1\n      pop\n        /* \"#utility.yul\":5818:5889   */\n      tag_144\n        /* \"#utility.yul\":5886:5887   */\n      0x00\n        /* \"#utility.yul\":5875:5884   */\n      dup4\n        /* \"#utility.yul\":5871:5888   */\n      add\n        /* \"#utility.yul\":5862:5868   */\n      dup8\n        /* \"#utility.yul\":5818:5889   */\n      tag_86\n      jump\t// in\n    tag_144:\n        /* \"#utility.yul\":5899:5967   */\n      tag_145\n        /* \"#utility.yul\":5963:5965   */\n      0x20\n        /* \"#utility.yul\":5952:5961   */\n      dup4\n        /* \"#utility.yul\":5948:5966   */\n      add\n        /* \"#utility.yul\":5939:5945   */\n      dup7\n        /* \"#utility.yul\":5899:5967   */\n      tag_140\n      jump\t// in\n    tag_145:\n        /* \"#utility.yul\":5977:6049   */\n      tag_146\n        /* \"#utility.yul\":6045:6047   */\n      0x40\n        /* \"#utility.yul\":6034:6043   */\n      dup4\n        /* \"#utility.yul\":6030:6048   */\n      add\n        /* \"#utility.yul\":6021:6027   */\n      dup6\n        /* \"#utility.yul\":5977:6049   */\n      tag_134\n      jump\t// in\n    tag_146:\n        /* \"#utility.yul\":6096:6105   */\n      dup2\n        /* \"#utility.yul\":6090:6094   */\n      dup2\n        /* \"#utility.yul\":6086:6106   */\n      sub\n        /* \"#utility.yul\":6081:6083   */\n      0x60\n        /* \"#utility.yul\":6070:6079   */\n      dup4\n        /* \"#utility.yul\":6066:6084   */\n      add\n        /* \"#utility.yul\":6059:6107   */\n      mstore\n        /* \"#utility.yul\":6124:6202   */\n      tag_147\n        /* \"#utility.yul\":6197:6201   */\n      dup2\n        /* \"#utility.yul\":6188:6194   */\n      dup5\n        /* \"#utility.yul\":6124:6202   */\n      tag_117\n      jump\t// in\n    tag_147:\n        /* \"#utility.yul\":6116:6202   */\n      swap1\n      pop\n        /* \"#utility.yul\":5573:6209   */\n      swap6\n      swap5\n      pop\n      pop\n      pop\n      pop\n      pop\n      jump\t// out\n        /* \"#utility.yul\":6215:6688   */\n    tag_19:\n        /* \"#utility.yul\":6408:6412   */\n      0x00\n        /* \"#utility.yul\":6446:6448   */\n      0x20\n        /* \"#utility.yul\":6435:6444   */\n      dup3\n        /* \"#utility.yul\":6431:6449   */\n      add\n        /* \"#utility.yul\":6423:6449   */\n      swap1\n      pop\n        /* \"#utility.yul\":6495:6504   */\n      dup2\n        /* \"#utility.yul\":6489:6493   */\n      dup2\n        /* \"#utility.yul\":6485:6505   */\n      sub\n        /* \"#utility.yul\":6481:6482   */\n      0x00\n        /* \"#utility.yul\":6470:6479   */\n      dup4\n        /* \"#utility.yul\":6466:6483   */\n      add\n        /* \"#utility.yul\":6459:6506   */\n      mstore\n        /* \"#utility.yul\":6523:6681   */\n      tag_149\n        /* \"#utility.yul\":6676:6680   */\n      dup2\n        /* \"#utility.yul\":6667:6673   */\n      dup5\n        /* \"#utility.yul\":6523:6681   */\n      tag_89\n      jump\t// in\n    tag_149:\n        /* \"#utility.yul\":6515:6681   */\n      swap1\n      pop\n        /* \"#utility.yul\":6215:6688   */\n      swap3\n      swap2\n      pop\n      pop\n      jump\t// out\n        /* \"#utility.yul\":6694:6904   */\n    tag_11:\n        /* \"#utility.yul\":6781:6785   */\n      0x00\n        /* \"#utility.yul\":6819:6821   */\n      0x20\n        /* \"#utility.yul\":6808:6817   */\n      dup3\n        /* \"#utility.yul\":6804:6822   */\n      add\n        /* \"#utility.yul\":6796:6822   */\n      swap1\n      pop\n        /* \"#utility.yul\":6832:6897   */\n      tag_151\n        /* \"#utility.yul\":6894:6895   */\n      0x00\n        /* \"#utility.yul\":6883:6892   */\n      dup4\n        /* \"#utility.yul\":6879:6896   */\n      add\n        /* \"#utility.yul\":6870:6876   */\n      dup5\n        /* \"#utility.yul\":6832:6897   */\n      tag_103\n      jump\t// in\n    tag_151:\n        /* \"#utility.yul\":6694:6904   */\n      swap3\n      swap2\n      pop\n      pop\n      jump\t// out\n        /* \"#utility.yul\":6910:7124   */\n    tag_15:\n        /* \"#utility.yul\":6999:7003   */\n      0x00\n        /* \"#utility.yul\":7037:7039   */\n      0x20\n        /* \"#utility.yul\":7026:7035   */\n      dup3\n        /* \"#utility.yul\":7022:7040   */\n      add\n        /* \"#utility.yul\":7014:7040   */\n      swap1\n      pop\n        /* \"#utility.yul\":7050:7117   */\n      tag_153\n        /* \"#utility.yul\":7114:7115   */\n      0x00\n        /* \"#utility.yul\":7103:7112   */\n      dup4\n        /* \"#utility.yul\":7099:7116   */\n      add\n        /* \"#utility.yul\":7090:7096   */\n      dup5\n        /* \"#utility.yul\":7050:7117   */\n      tag_140\n      jump\t// in\n    tag_153:\n        /* \"#utility.yul\":6910:7124   */\n      swap3\n      swap2\n      pop\n      pop\n      jump\t// out\n        /* \"#utility.yul\":7130:7259   */\n    tag_53:\n        /* \"#utility.yul\":7164:7170   */\n      0x00\n        /* \"#utility.yul\":7191:7211   */\n      tag_155\n      tag_156\n      jump\t// in\n    tag_155:\n        /* \"#utility.yul\":7181:7211   */\n      swap1\n      pop\n        /* \"#utility.yul\":7220:7253   */\n      tag_157\n        /* \"#utility.yul\":7248:7252   */\n      dup3\n        /* \"#utility.yul\":7240:7246   */\n      dup3\n        /* \"#utility.yul\":7220:7253   */\n      tag_158\n      jump\t// in\n    tag_157:\n        /* \"#utility.yul\":7130:7259   */\n      swap2\n      swap1\n      pop\n      jump\t// out\n        /* \"#utility.yul\":7265:7340   */\n    tag_156:\n        /* \"#utility.yul\":7298:7304   */\n      0x00\n        /* \"#utility.yul\":7331:7333   */\n      0x40\n        /* \"#utility.yul\":7325:7334   */\n      mload\n        /* \"#utility.yul\":7315:7334   */\n      swap1\n      pop\n        /* \"#utility.yul\":7265:7340   */\n      swap1\n      jump\t// out\n        /* \"#utility.yul\":7346:7654   */\n    tag_52:\n        /* \"#utility.yul\":7408:7412   */\n      0x00\n        /* \"#utility.yul\":7498:7516   */\n      0xffffffffffffffff\n        /* \"#utility.yul\":7490:7496   */\n      dup3\n        /* \"#utility.yul\":7487:7517   */\n      gt\n        /* \"#utility.yul\":7484:7540   */\n      iszero\n      tag_161\n      jumpi\n        /* \"#utility.yul\":7520:7538   */\n      tag_162\n      tag_163\n      jump\t// in\n    tag_162:\n        /* \"#utility.yul\":7484:7540   */\n    tag_161:\n        /* \"#utility.yul\":7558:7587   */\n      tag_164\n        /* \"#utility.yul\":7580:7586   */\n      dup3\n        /* \"#utility.yul\":7558:7587   */\n      tag_116\n      jump\t// in\n    tag_164:\n        /* \"#utility.yul\":7550:7587   */\n      swap1\n      pop\n        /* \"#utility.yul\":7642:7646   */\n      0x20\n        /* \"#utility.yul\":7636:7640   */\n      dup2\n        /* \"#utility.yul\":7632:7647   */\n      add\n        /* \"#utility.yul\":7624:7647   */\n      swap1\n      pop\n        /* \"#utility.yul\":7346:7654   */\n      swap2\n      swap1\n      pop\n      jump\t// out\n        /* \"#utility.yul\":7660:7817   */\n    tag_96:\n        /* \"#utility.yul\":7752:7756   */\n      0x00\n        /* \"#utility.yul\":7775:7778   */\n      dup2\n        /* \"#utility.yul\":7767:7778   */\n      swap1\n      pop\n        /* \"#utility.yul\":7805:7809   */\n      0x20\n        /* \"#utility.yul\":7800:7803   */\n      dup3\n        /* \"#utility.yul\":7796:7810   */\n      add\n        /* \"#utility.yul\":7788:7810   */\n      swap1\n      pop\n        /* \"#utility.yul\":7660:7817   */\n      swap2\n      swap1\n      pop\n      jump\t// out\n        /* \"#utility.yul\":7823:7962   */\n    tag_92:\n        /* \"#utility.yul\":7915:7921   */\n      0x00\n        /* \"#utility.yul\":7949:7954   */\n      dup2\n        /* \"#utility.yul\":7943:7955   */\n      mload\n        /* \"#utility.yul\":7933:7955   */\n      swap1\n      pop\n        /* \"#utility.yul\":7823:7962   */\n      swap2\n      swap1\n      pop\n      jump\t// out\n        /* \"#utility.yul\":7968:8067   */\n    tag_110:\n        /* \"#utility.yul\":8020:8026   */\n      0x00\n        /* \"#utility.yul\":8054:8059   */\n      dup2\n        /* \"#utility.yul\":8048:8060   */\n      mload\n        /* \"#utility.yul\":8038:8060   */\n      swap1\n      pop\n        /* \"#utility.yul\":7968:8067   */\n      swap2\n      swap1\n      pop\n      jump\t// out\n        /* \"#utility.yul\":8073:8211   */\n    tag_102:\n        /* \"#utility.yul\":8168:8172   */\n      0x00\n        /* \"#utility.yul\":8200:8204   */\n      0x20\n        /* \"#utility.yul\":8195:8198   */\n      dup3\n        /* \"#utility.yul\":8191:8205   */\n      add\n        /* \"#utility.yul\":8183:8205   */\n      swap1\n      pop\n        /* \"#utility.yul\":8073:8211   */\n      swap2\n      swap1\n      pop\n      jump\t// out\n        /* \"#utility.yul\":8217:8426   */\n    tag_94:\n        /* \"#utility.yul\":8341:8352   */\n      0x00\n        /* \"#utility.yul\":8375:8381   */\n      dup3\n        /* \"#utility.yul\":8370:8373   */\n      dup3\n        /* \"#utility.yul\":8363:8382   */\n      mstore\n        /* \"#utility.yul\":8415:8419   */\n      0x20\n        /* \"#utility.yul\":8410:8413   */\n      dup3\n        /* \"#utility.yul\":8406:8420   */\n      add\n        /* \"#utility.yul\":8391:8420   */\n      swap1\n      pop\n        /* \"#utility.yul\":8217:8426   */\n      swap3\n      swap2\n      pop\n      pop\n      jump\t// out\n        /* \"#utility.yul\":8432:8591   */\n    tag_112:\n        /* \"#utility.yul\":8506:8517   */\n      0x00\n        /* \"#utility.yul\":8540:8546   */\n      dup3\n        /* \"#utility.yul\":8535:8538   */\n      dup3\n        /* \"#utility.yul\":8528:8547   */\n      mstore\n        /* \"#utility.yul\":8580:8584   */\n      0x20\n        /* \"#utility.yul\":8575:8578   */\n      dup3\n        /* \"#utility.yul\":8571:8585   */\n      add\n        /* \"#utility.yul\":8556:8585   */\n      swap1\n      pop\n        /* \"#utility.yul\":8432:8591   */\n      swap3\n      swap2\n      pop\n      pop\n      jump\t// out\n        /* \"#utility.yul\":8597:8766   */\n    tag_121:\n        /* \"#utility.yul\":8681:8692   */\n      0x00\n        /* \"#utility.yul\":8715:8721   */\n      dup3\n        /* \"#utility.yul\":8710:8713   */\n      dup3\n        /* \"#utility.yul\":8703:8722   */\n      mstore\n        /* \"#utility.yul\":8755:8759   */\n      0x20\n        /* \"#utility.yul\":8750:8753   */\n      dup3\n        /* \"#utility.yul\":8746:8760   */\n      add\n        /* \"#utility.yul\":8731:8760   */\n      swap1\n      pop\n        /* \"#utility.yul\":8597:8766   */\n      swap3\n      swap2\n      pop\n      pop\n      jump\t// out\n        /* \"#utility.yul\":8772:8868   */\n    tag_85:\n        /* \"#utility.yul\":8809:8816   */\n      0x00\n        /* \"#utility.yul\":8838:8862   */\n      tag_173\n        /* \"#utility.yul\":8856:8861   */\n      dup3\n        /* \"#utility.yul\":8838:8862   */\n      tag_174\n      jump\t// in\n    tag_173:\n        /* \"#utility.yul\":8827:8862   */\n      swap1\n      pop\n        /* \"#utility.yul\":8772:8868   */\n      swap2\n      swap1\n      pop\n      jump\t// out\n        /* \"#utility.yul\":8874:8964   */\n    tag_106:\n        /* \"#utility.yul\":8908:8915   */\n      0x00\n        /* \"#utility.yul\":8951:8956   */\n      dup2\n        /* \"#utility.yul\":8944:8957   */\n      iszero\n        /* \"#utility.yul\":8937:8958   */\n      iszero\n        /* \"#utility.yul\":8926:8958   */\n      swap1\n      pop\n        /* \"#utility.yul\":8874:8964   */\n      swap2\n      swap1\n      pop\n      jump\t// out\n        /* \"#utility.yul\":8970:9096   */\n    tag_174:\n        /* \"#utility.yul\":9007:9014   */\n      0x00\n        /* \"#utility.yul\":9047:9089   */\n      0xffffffffffffffffffffffffffffffffffffffff\n        /* \"#utility.yul\":9040:9045   */\n      dup3\n        /* \"#utility.yul\":9036:9090   */\n      and\n        /* \"#utility.yul\":9025:9090   */\n      swap1\n      pop\n        /* \"#utility.yul\":8970:9096   */\n      swap2\n      swap1\n      pop\n      jump\t// out\n        /* \"#utility.yul\":9102:9179   */\n    tag_133:\n        /* \"#utility.yul\":9139:9146   */\n      0x00\n        /* \"#utility.yul\":9168:9173   */\n      dup2\n        /* \"#utility.yul\":9157:9173   */\n      swap1\n      pop\n        /* \"#utility.yul\":9102:9179   */\n      swap2\n      swap1\n      pop\n      jump\t// out\n        /* \"#utility.yul\":9185:9271   */\n    tag_139:\n        /* \"#utility.yul\":9220:9227   */\n      0x00\n        /* \"#utility.yul\":9260:9264   */\n      0xff\n        /* \"#utility.yul\":9253:9258   */\n      dup3\n        /* \"#utility.yul\":9249:9265   */\n      and\n        /* \"#utility.yul\":9238:9265   */\n      swap1\n      pop\n        /* \"#utility.yul\":9185:9271   */\n      swap2\n      swap1\n      pop\n      jump\t// out\n        /* \"#utility.yul\":9277:9431   */\n    tag_58:\n        /* \"#utility.yul\":9361:9367   */\n      dup3\n        /* \"#utility.yul\":9356:9359   */\n      dup2\n        /* \"#utility.yul\":9351:9354   */\n      dup4\n        /* \"#utility.yul\":9338:9368   */\n      calldatacopy\n        /* \"#utility.yul\":9423:9424   */\n      0x00\n        /* \"#utility.yul\":9414:9420   */\n      dup4\n        /* \"#utility.yul\":9409:9412   */\n      dup4\n        /* \"#utility.yul\":9405:9421   */\n      add\n        /* \"#utility.yul\":9398:9425   */\n      mstore\n        /* \"#utility.yul\":9277:9431   */\n      pop\n      pop\n      pop\n      jump\t// out\n        /* \"#utility.yul\":9437:9744   */\n    tag_114:\n        /* \"#utility.yul\":9505:9506   */\n      0x00\n        /* \"#utility.yul\":9515:9628   */\n    tag_181:\n        /* \"#utility.yul\":9529:9535   */\n      dup4\n        /* \"#utility.yul\":9526:9527   */\n      dup2\n        /* \"#utility.yul\":9523:9536   */\n      lt\n        /* \"#utility.yul\":9515:9628   */\n      iszero\n      tag_183\n      jumpi\n        /* \"#utility.yul\":9614:9615   */\n      dup1\n        /* \"#utility.yul\":9609:9612   */\n      dup3\n        /* \"#utility.yul\":9605:9616   */\n      add\n        /* \"#utility.yul\":9599:9617   */\n      mload\n        /* \"#utility.yul\":9595:9596   */\n      dup2\n        /* \"#utility.yul\":9590:9593   */\n      dup5\n        /* \"#utility.yul\":9586:9597   */\n      add\n        /* \"#utility.yul\":9579:9618   */\n      mstore\n        /* \"#utility.yul\":9551:9553   */\n      0x20\n        /* \"#utility.yul\":9548:9549   */\n      dup2\n        /* \"#utility.yul\":9544:9554   */\n      add\n        /* \"#utility.yul\":9539:9554   */\n      swap1\n      pop\n        /* \"#utility.yul\":9515:9628   */\n      jump(tag_181)\n    tag_183:\n        /* \"#utility.yul\":9646:9652   */\n      dup4\n        /* \"#utility.yul\":9643:9644   */\n      dup2\n        /* \"#utility.yul\":9640:9653   */\n      gt\n        /* \"#utility.yul\":9637:9738   */\n      iszero\n      tag_184\n      jumpi\n        /* \"#utility.yul\":9726:9727   */\n      0x00\n        /* \"#utility.yul\":9717:9723   */\n      dup5\n        /* \"#utility.yul\":9712:9715   */\n      dup5\n        /* \"#utility.yul\":9708:9724   */\n      add\n        /* \"#utility.yul\":9701:9728   */\n      mstore\n        /* \"#utility.yul\":9637:9738   */\n    tag_184:\n        /* \"#utility.yul\":9486:9744   */\n      pop\n        /* \"#utility.yul\":9437:9744   */\n      pop\n      pop\n      pop\n      jump\t// out\n        /* \"#utility.yul\":9750:10070   */\n    tag_32:\n        /* \"#utility.yul\":9794:9800   */\n      0x00\n        /* \"#utility.yul\":9831:9832   */\n      0x02\n        /* \"#utility.yul\":9825:9829   */\n      dup3\n        /* \"#utility.yul\":9821:9833   */\n      div\n        /* \"#utility.yul\":9811:9833   */\n      swap1\n      pop\n        /* \"#utility.yul\":9878:9879   */\n      0x01\n        /* \"#utility.yul\":9872:9876   */\n      dup3\n        /* \"#utility.yul\":9868:9880   */\n      and\n        /* \"#utility.yul\":9899:9917   */\n      dup1\n        /* \"#utility.yul\":9889:9970   */\n      tag_186\n      jumpi\n        /* \"#utility.yul\":9955:9959   */\n      0x7f\n        /* \"#utility.yul\":9947:9953   */\n      dup3\n        /* \"#utility.yul\":9943:9960   */\n      and\n        /* \"#utility.yul\":9933:9960   */\n      swap2\n      pop\n        /* \"#utility.yul\":9889:9970   */\n    tag_186:\n        /* \"#utility.yul\":10017:10019   */\n      0x20\n        /* \"#utility.yul\":10009:10015   */\n      dup3\n        /* \"#utility.yul\":10006:10020   */\n      lt\n        /* \"#utility.yul\":9986:10004   */\n      dup2\n        /* \"#utility.yul\":9983:10021   */\n      eq\n        /* \"#utility.yul\":9980:10064   */\n      iszero\n      tag_187\n      jumpi\n        /* \"#utility.yul\":10036:10054   */\n      tag_188\n      tag_189\n      jump\t// in\n    tag_188:\n        /* \"#utility.yul\":9980:10064   */\n    tag_187:\n        /* \"#utility.yul\":9801:10070   */\n      pop\n        /* \"#utility.yul\":9750:10070   */\n      swap2\n      swap1\n      pop\n      jump\t// out\n        /* \"#utility.yul\":10076:10357   */\n    tag_158:\n        /* \"#utility.yul\":10159:10186   */\n      tag_191\n        /* \"#utility.yul\":10181:10185   */\n      dup3\n        /* \"#utility.yul\":10159:10186   */\n      tag_116\n      jump\t// in\n    tag_191:\n        /* \"#utility.yul\":10151:10157   */\n      dup2\n        /* \"#utility.yul\":10147:10187   */\n      add\n        /* \"#utility.yul\":10289:10295   */\n      dup2\n        /* \"#utility.yul\":10277:10287   */\n      dup2\n        /* \"#utility.yul\":10274:10296   */\n      lt\n        /* \"#utility.yul\":10253:10271   */\n      0xffffffffffffffff\n        /* \"#utility.yul\":10241:10251   */\n      dup3\n        /* \"#utility.yul\":10238:10272   */\n      gt\n        /* \"#utility.yul\":10235:10297   */\n      or\n        /* \"#utility.yul\":10232:10320   */\n      iszero\n      tag_192\n      jumpi\n        /* \"#utility.yul\":10300:10318   */\n      tag_193\n      tag_163\n      jump\t// in\n    tag_193:\n        /* \"#utility.yul\":10232:10320   */\n    tag_192:\n        /* \"#utility.yul\":10340:10350   */\n      dup1\n        /* \"#utility.yul\":10336:10338   */\n      0x40\n        /* \"#utility.yul\":10329:10351   */\n      mstore\n        /* \"#utility.yul\":10119:10357   */\n      pop\n        /* \"#utility.yul\":10076:10357   */\n      pop\n      pop\n      jump\t// out\n        /* \"#utility.yul\":10363:10543   */\n    tag_189:\n        /* \"#utility.yul\":10411:10488   */\n      0x4e487b7100000000000000000000000000000000000000000000000000000000\n        /* \"#utility.yul\":10408:10409   */\n      0x00\n        /* \"#utility.yul\":10401:10489   */\n      mstore\n        /* \"#utility.yul\":10508:10512   */\n      0x22\n        /* \"#utility.yul\":10505:10506   */\n      0x04\n        /* \"#utility.yul\":10498:10513   */\n      mstore\n        /* \"#utility.yul\":10532:10536   */\n      0x24\n        /* \"#utility.yul\":10529:10530   */\n      0x00\n        /* \"#utility.yul\":10522:10537   */\n      revert\n        /* \"#utility.yul\":10549:10729   */\n    tag_163:\n        /* \"#utility.yul\":10597:10674   */\n      0x4e487b7100000000000000000000000000000000000000000000000000000000\n        /* \"#utility.yul\":10594:10595   */\n      0x00\n        /* \"#utility.yul\":10587:10675   */\n      mstore\n        /* \"#utility.yul\":10694:10698   */\n      0x41\n        /* \"#utility.yul\":10691:10692   */\n      0x04\n        /* \"#utility.yul\":10684:10699   */\n      mstore\n        /* \"#utility.yul\":10718:10722   */\n      0x24\n        /* \"#utility.yul\":10715:10716   */\n      0x00\n        /* \"#utility.yul\":10708:10723   */\n      revert\n        /* \"#utility.yul\":10735:10852   */\n    tag_63:\n        /* \"#utility.yul\":10844:10845   */\n      0x00\n        /* \"#utility.yul\":10841:10842   */\n      dup1\n        /* \"#utility.yul\":10834:10846   */\n      revert\n        /* \"#utility.yul\":10858:10975   */\n    tag_56:\n        /* \"#utility.yul\":10967:10968   */\n      0x00\n        /* \"#utility.yul\":10964:10965   */\n      dup1\n        /* \"#utility.yul\":10957:10969   */\n      revert\n        /* \"#utility.yul\":10981:11098   */\n    tag_76:\n        /* \"#utility.yul\":11090:11091   */\n      0x00\n        /* \"#utility.yul\":11087:11088   */\n      dup1\n        /* \"#utility.yul\":11080:11092   */\n      revert\n        /* \"#utility.yul\":11104:11221   */\n    tag_72:\n        /* \"#utility.yul\":11213:11214   */\n      0x00\n        /* \"#utility.yul\":11210:11211   */\n      dup1\n        /* \"#utility.yul\":11203:11215   */\n      revert\n        /* \"#utility.yul\":11227:11329   */\n    tag_116:\n        /* \"#utility.yul\":11268:11274   */\n      0x00\n        /* \"#utility.yul\":11319:11321   */\n      0x1f\n        /* \"#utility.yul\":11315:11322   */\n      not\n        /* \"#utility.yul\":11310:11312   */\n      0x1f\n        /* \"#utility.yul\":11303:11308   */\n      dup4\n        /* \"#utility.yul\":11299:11313   */\n      add\n        /* \"#utility.yul\":11295:11323   */\n      and\n        /* \"#utility.yul\":11285:11323   */\n      swap1\n      pop\n        /* \"#utility.yul\":11227:11329   */\n      swap2\n      swap1\n      pop\n      jump\t// out\n        /* \"#utility.yul\":11335:11453   */\n    tag_68:\n        /* \"#utility.yul\":11406:11428   */\n      tag_202\n        /* \"#utility.yul\":11422:11427   */\n      dup2\n        /* \"#utility.yul\":11406:11428   */\n      tag_139\n      jump\t// in\n    tag_202:\n        /* \"#utility.yul\":11399:11404   */\n      dup2\n        /* \"#utility.yul\":11396:11429   */\n      eq\n        /* \"#utility.yul\":11386:11447   */\n      tag_203\n      jumpi\n        /* \"#utility.yul\":11443:11444   */\n      0x00\n        /* \"#utility.yul\":11440:11441   */\n      dup1\n        /* \"#utility.yul\":11433:11445   */\n      revert\n        /* \"#utility.yul\":11386:11447   */\n    tag_203:\n        /* \"#utility.yul\":11335:11453   */\n      pop\n      jump\t// out\n\n    auxdata: 0xa26469706673582212207fbc86115f704e8f12b1b2aea27599e2c160aec5d2db67f01d0cde4d623dc29b64736f6c63430008070033\n}\n",
				"bytecode": {
					"linkReferences": {},
					"object": "60806040523480156200001157600080fd5b5060405162000e9138038062000e91833981810160405281019062000037919062000294565b80600081905550600260405180608001604052803373ffffffffffffffffffffffffffffffffffffffff168152602001600060ff1681526020014281526020016040518060400160405280600681526020017f6372656174650000000000000000000000000000000000000000000000000000815250815250908060018154018082558091505060019003906000526020600020906003020160009091909190915060008201518160000160006101000a81548173ffffffffffffffffffffffffffffffffffffffff021916908373ffffffffffffffffffffffffffffffffffffffff16021790555060208201518160000160146101000a81548160ff021916908360ff16021790555060408201518160010155606082015181600201908051906020019062000169929190620001cd565b5050506000600160006101000a81548160ff021916908360ff1602179055507f38930409e72d179a853c881163fcee8ed63d42ec95ee4599fc17e0421e1303d833600042604051620001be9392919062000320565b60405180910390a1506200047b565b828054620001db90620003ce565b90600052602060002090601f016020900481019282620001ff57600085556200024b565b82601f106200021a57805160ff19168380011785556200024b565b828001600101855582156200024b579182015b828111156200024a5782518255916020019190600101906200022d565b5b5090506200025a91906200025e565b5090565b5b80821115620002795760008160009055506001016200025f565b5090565b6000815190506200028e8162000461565b92915050565b600060208284031215620002ad57620002ac62000433565b5b6000620002bd848285016200027d565b91505092915050565b620002d18162000383565b82525050565b6000620002e660068362000372565b9150620002f38262000438565b602082019050919050565b6200030981620003b7565b82525050565b6200031a81620003c1565b82525050565b6000608082019050620003376000830186620002c6565b6200034660208301856200030f565b620003556040830184620002fe565b81810360608301526200036881620002d7565b9050949350505050565b600082825260208201905092915050565b6000620003908262000397565b9050919050565b600073ffffffffffffffffffffffffffffffffffffffff82169050919050565b6000819050919050565b600060ff82169050919050565b60006002820490506001821680620003e757607f821691505b60208210811415620003fe57620003fd62000404565b5b50919050565b7f4e487b7100000000000000000000000000000000000000000000000000000000600052602260045260246000fd5b600080fd5b7f6372656174650000000000000000000000000000000000000000000000000000600082015250565b6200046c81620003b7565b81146200047857600080fd5b50565b610a06806200048b6000396000f3fe608060405234801561001057600080fd5b50600436106100415760003560e01c8063173d773d146100465780634e69d56014610076578063799cf24614610094575b600080fd5b610060600480360381019061005b91906104b9565b6100b2565b60405161006d919061074a565b60405180910390f35b61007e61020c565b60405161008b9190610765565b60405180910390f35b61009c610223565b6040516100a99190610728565b60405180910390f35b600082600160006101000a81548160ff021916908360ff160217905550600260405180608001604052803373ffffffffffffffffffffffffffffffffffffffff1681526020018560ff16815260200142815260200184815250908060018154018082558091505060019003906000526020600020906003020160009091909190915060008201518160000160006101000a81548173ffffffffffffffffffffffffffffffffffffffff021916908373ffffffffffffffffffffffffffffffffffffffff16021790555060208201518160000160146101000a81548160ff021916908360ff1602179055506040820151816001015560608201518160020190805190602001906101c2929190610391565b5050507f38930409e72d179a853c881163fcee8ed63d42ec95ee4599fc17e0421e1303d8338442856040516101fa94939291906106dc565b60405180910390a16001905092915050565b6000600160009054906101000a900460ff16905090565b60606002805480602002602001604051908101604052809291908181526020016000905b8282101561038857838290600052602060002090600302016040518060800160405290816000820160009054906101000a900473ffffffffffffffffffffffffffffffffffffffff1673ffffffffffffffffffffffffffffffffffffffff1673ffffffffffffffffffffffffffffffffffffffff1681526020016000820160149054906101000a900460ff1660ff1660ff168152602001600182015481526020016002820180546102f7906108d3565b80601f0160208091040260200160405190810160405280929190818152602001828054610323906108d3565b80156103705780601f1061034557610100808354040283529160200191610370565b820191906000526020600020905b81548152906001019060200180831161035357829003601f168201915b50505050508152505081526020019060010190610247565b50505050905090565b82805461039d906108d3565b90600052602060002090601f0160209004810192826103bf5760008555610406565b82601f106103d857805160ff1916838001178555610406565b82800160010185558215610406579182015b828111156104055782518255916020019190600101906103ea565b5b5090506104139190610417565b5090565b5b80821115610430576000816000905550600101610418565b5090565b6000610447610442846107a5565b610780565b90508281526020810184848401111561046357610462610999565b5b61046e848285610891565b509392505050565b600082601f83011261048b5761048a610994565b5b813561049b848260208601610434565b91505092915050565b6000813590506104b3816109b9565b92915050565b600080604083850312156104d0576104cf6109a3565b5b60006104de858286016104a4565b925050602083013567ffffffffffffffff8111156104ff576104fe61099e565b5b61050b85828601610476565b9150509250929050565b6000610521838361063d565b905092915050565b6105328161083c565b82525050565b6105418161083c565b82525050565b6000610552826107e6565b61055c8185610809565b93508360208202850161056e856107d6565b8060005b858110156105aa578484038952815161058b8582610515565b9450610596836107fc565b925060208a01995050600181019050610572565b50829750879550505050505092915050565b6105c58161084e565b82525050565b60006105d6826107f1565b6105e0818561081a565b93506105f08185602086016108a0565b6105f9816109a8565b840191505092915050565b600061060f826107f1565b610619818561082b565b93506106298185602086016108a0565b610632816109a8565b840191505092915050565b60006080830160008301516106556000860182610529565b50602083015161066860208601826106be565b50604083015161067b60408601826106a0565b506060830151848203606086015261069382826105cb565b9150508091505092915050565b6106a98161087a565b82525050565b6106b88161087a565b82525050565b6106c781610884565b82525050565b6106d681610884565b82525050565b60006080820190506106f16000830187610538565b6106fe60208301866106cd565b61070b60408301856106af565b818103606083015261071d8184610604565b905095945050505050565b600060208201905081810360008301526107428184610547565b905092915050565b600060208201905061075f60008301846105bc565b92915050565b600060208201905061077a60008301846106cd565b92915050565b600061078a61079b565b90506107968282610905565b919050565b6000604051905090565b600067ffffffffffffffff8211156107c0576107bf610965565b5b6107c9826109a8565b9050602081019050919050565b6000819050602082019050919050565b600081519050919050565b600081519050919050565b6000602082019050919050565b600082825260208201905092915050565b600082825260208201905092915050565b600082825260208201905092915050565b60006108478261085a565b9050919050565b60008115159050919050565b600073ffffffffffffffffffffffffffffffffffffffff82169050919050565b6000819050919050565b600060ff82169050919050565b82818337600083830152505050565b60005b838110156108be5780820151818401526020810190506108a3565b838111156108cd576000848401525b50505050565b600060028204905060018216806108eb57607f821691505b602082108114156108ff576108fe610936565b5b50919050565b61090e826109a8565b810181811067ffffffffffffffff8211171561092d5761092c610965565b5b80604052505050565b7f4e487b7100000000000000000000000000000000000000000000000000000000600052602260045260246000fd5b7f4e487b7100000000000000000000000000000000000000000000000000000000600052604160045260246000fd5b600080fd5b600080fd5b600080fd5b600080fd5b6000601f19601f8301169050919050565b6109c281610884565b81146109cd57600080fd5b5056fea26469706673582212207fbc86115f704e8f12b1b2aea27599e2c160aec5d2db67f01d0cde4d623dc29b64736f6c63430008070033",
					"opcodes": "PUSH1 0x80 PUSH1 0x40 MSTORE CALLVALUE DUP1 ISZERO PUSH3 0x11 JUMPI PUSH1 0x0 DUP1 REVERT JUMPDEST POP PUSH1 0x40 MLOAD PUSH3 0xE91 CODESIZE SUB DUP1 PUSH3 0xE91 DUP4 CODECOPY DUP2 DUP2 ADD PUSH1 0x40 MSTORE DUP2 ADD SWAP1 PUSH3 0x37 SWAP2 SWAP1 PUSH3 0x294 JUMP JUMPDEST DUP1 PUSH1 0x0 DUP2 SWAP1 SSTORE POP PUSH1 0x2 PUSH1 0x40 MLOAD DUP1 PUSH1 0x80 ADD PUSH1 0x40 MSTORE DUP1 CALLER PUSH20 0xFFFFFFFFFFFFFFFFFFFFFFFFFFFFFFFFFFFFFFFF AND DUP2 MSTORE PUSH1 0x20 ADD PUSH1 0x0 PUSH1 0xFF AND DUP2 MSTORE PUSH1 0x20 ADD TIMESTAMP DUP2 MSTORE PUSH1 0x20 ADD PUSH1 0x40 MLOAD DUP1 PUSH1 0x40 ADD PUSH1 0x40 MSTORE DUP1 PUSH1 0x6 DUP2 MSTORE PUSH1 0x20 ADD PUSH32 0x6372656174650000000000000000000000000000000000000000000000000000 DUP2 MSTORE POP DUP2 MSTORE POP SWAP1 DUP1 PUSH1 0x1 DUP2 SLOAD ADD DUP1 DUP3 SSTORE DUP1 SWAP2 POP POP PUSH1 0x1 SWAP1 SUB SWAP1 PUSH1 0x0 MSTORE PUSH1 0x20 PUSH1 0x0 KECCAK256 SWAP1 PUSH1 0x3 MUL ADD PUSH1 0x0 SWAP1 SWAP2 SWAP1 SWAP2 SWAP1 SWAP2 POP PUSH1 0x0 DUP3 ADD MLOAD DUP2 PUSH1 0x0 ADD PUSH1 0x0 PUSH2 0x100 EXP DUP2 SLOAD DUP2 PUSH20 0xFFFFFFFFFFFFFFFFFFFFFFFFFFFFFFFFFFFFFFFF MUL NOT AND SWAP1 DUP4 PUSH20 0xFFFFFFFFFFFFFFFFFFFFFFFFFFFFFFFFFFFFFFFF AND MUL OR SWAP1 SSTORE POP PUSH1 0x20 DUP3 ADD MLOAD DUP2 PUSH1 0x0 ADD PUSH1 0x14 PUSH2 0x100 EXP DUP2 SLOAD DUP2 PUSH1 0xFF MUL NOT AND SWAP1 DUP4 PUSH1 0xFF AND MUL OR SWAP1 SSTORE POP PUSH1 0x40 DUP3 ADD MLOAD DUP2 PUSH1 0x1 ADD SSTORE PUSH1 0x60 DUP3 ADD MLOAD DUP2 PUSH1 0x2 ADD SWAP1 DUP1 MLOAD SWAP1 PUSH1 0x20 ADD SWAP1 PUSH3 0x169 SWAP3 SWAP2 SWAP1 PUSH3 0x1CD JUMP JUMPDEST POP POP POP PUSH1 0x0 PUSH1 0x1 PUSH1 0x0 PUSH2 0x100 EXP DUP2 SLOAD DUP2 PUSH1 0xFF MUL NOT AND SWAP1 DUP4 PUSH1 0xFF AND MUL OR SWAP1 SSTORE POP PUSH32 0x38930409E72D179A853C881163FCEE8ED63D42EC95EE4599FC17E0421E1303D8 CALLER PUSH1 0x0 TIMESTAMP PUSH1 0x40 MLOAD PUSH3 0x1BE SWAP4 SWAP3 SWAP2 SWAP1 PUSH3 0x320 JUMP JUMPDEST PUSH1 0x40 MLOAD DUP1 SWAP2 SUB SWAP1 LOG1 POP PUSH3 0x47B JUMP JUMPDEST DUP3 DUP1 SLOAD PUSH3 0x1DB SWAP1 PUSH3 0x3CE JUMP JUMPDEST SWAP1 PUSH1 0x0 MSTORE PUSH1 0x20 PUSH1 0x0 KECCAK256 SWAP1 PUSH1 0x1F ADD PUSH1 0x20 SWAP1 DIV DUP2 ADD SWAP3 DUP3 PUSH3 0x1FF JUMPI PUSH1 0x0 DUP6 SSTORE PUSH3 0x24B JUMP JUMPDEST DUP3 PUSH1 0x1F LT PUSH3 0x21A JUMPI DUP1 MLOAD PUSH1 0xFF NOT AND DUP4 DUP1 ADD OR DUP6 SSTORE PUSH3 0x24B JUMP JUMPDEST DUP3 DUP1 ADD PUSH1 0x1 ADD DUP6 SSTORE DUP3 ISZERO PUSH3 0x24B JUMPI SWAP2 DUP3 ADD JUMPDEST DUP3 DUP2 GT ISZERO PUSH3 0x24A JUMPI DUP3 MLOAD DUP3 SSTORE SWAP2 PUSH1 0x20 ADD SWAP2 SWAP1 PUSH1 0x1 ADD SWAP1 PUSH3 0x22D JUMP JUMPDEST JUMPDEST POP SWAP1 POP PUSH3 0x25A SWAP2 SWAP1 PUSH3 0x25E JUMP JUMPDEST POP SWAP1 JUMP JUMPDEST JUMPDEST DUP1 DUP3 GT ISZERO PUSH3 0x279 JUMPI PUSH1 0x0 DUP2 PUSH1 0x0 SWAP1 SSTORE POP PUSH1 0x1 ADD PUSH3 0x25F JUMP JUMPDEST POP SWAP1 JUMP JUMPDEST PUSH1 0x0 DUP2 MLOAD SWAP1 POP PUSH3 0x28E DUP2 PUSH3 0x461 JUMP JUMPDEST SWAP3 SWAP2 POP POP JUMP JUMPDEST PUSH1 0x0 PUSH1 0x20 DUP3 DUP5 SUB SLT ISZERO PUSH3 0x2AD JUMPI PUSH3 0x2AC PUSH3 0x433 JUMP JUMPDEST JUMPDEST PUSH1 0x0 PUSH3 0x2BD DUP5 DUP3 DUP6 ADD PUSH3 0x27D JUMP JUMPDEST SWAP2 POP POP SWAP3 SWAP2 POP POP JUMP JUMPDEST PUSH3 0x2D1 DUP2 PUSH3 0x383 JUMP JUMPDEST DUP3 MSTORE POP POP JUMP JUMPDEST PUSH1 0x0 PUSH3 0x2E6 PUSH1 0x6 DUP4 PUSH3 0x372 JUMP JUMPDEST SWAP2 POP PUSH3 0x2F3 DUP3 PUSH3 0x438 JUMP JUMPDEST PUSH1 0x20 DUP3 ADD SWAP1 POP SWAP2 SWAP1 POP JUMP JUMPDEST PUSH3 0x309 DUP2 PUSH3 0x3B7 JUMP JUMPDEST DUP3 MSTORE POP POP JUMP JUMPDEST PUSH3 0x31A DUP2 PUSH3 0x3C1 JUMP JUMPDEST DUP3 MSTORE POP POP JUMP JUMPDEST PUSH1 0x0 PUSH1 0x80 DUP3 ADD SWAP1 POP PUSH3 0x337 PUSH1 0x0 DUP4 ADD DUP7 PUSH3 0x2C6 JUMP JUMPDEST PUSH3 0x346 PUSH1 0x20 DUP4 ADD DUP6 PUSH3 0x30F JUMP JUMPDEST PUSH3 0x355 PUSH1 0x40 DUP4 ADD DUP5 PUSH3 0x2FE JUMP JUMPDEST DUP2 DUP2 SUB PUSH1 0x60 DUP4 ADD MSTORE PUSH3 0x368 DUP2 PUSH3 0x2D7 JUMP JUMPDEST SWAP1 POP SWAP5 SWAP4 POP POP POP POP JUMP JUMPDEST PUSH1 0x0 DUP3 DUP3 MSTORE PUSH1 0x20 DUP3 ADD SWAP1 POP SWAP3 SWAP2 POP POP JUMP JUMPDEST PUSH1 0x0 PUSH3 0x390 DUP3 PUSH3 0x397 JUMP JUMPDEST SWAP1 POP SWAP2 SWAP1 POP JUMP JUMPDEST PUSH1 0x0 PUSH20 0xFFFFFFFFFFFFFFFFFFFFFFFFFFFFFFFFFFFFFFFF DUP3 AND SWAP1 POP SWAP2 SWAP1 POP JUMP JUMPDEST PUSH1 0x0 DUP2 SWAP1 POP SWAP2 SWAP1 POP JUMP JUMPDEST PUSH1 0x0 PUSH1 0xFF DUP3 AND SWAP1 POP SWAP2 SWAP1 POP JUMP JUMPDEST PUSH1 0x0 PUSH1 0x2 DUP3 DIV SWAP1 POP PUSH1 0x1 DUP3 AND DUP1 PUSH3 0x3E7 JUMPI PUSH1 0x7F DUP3 AND SWAP2 POP JUMPDEST PUSH1 0x20 DUP3 LT DUP2 EQ ISZERO PUSH3 0x3FE JUMPI PUSH3 0x3FD PUSH3 0x404 JUMP JUMPDEST JUMPDEST POP SWAP2 SWAP1 POP JUMP JUMPDEST PUSH32 0x4E487B7100000000000000000000000000000000000000000000000000000000 PUSH1 0x0 MSTORE PUSH1 0x22 PUSH1 0x4 MSTORE PUSH1 0x24 PUSH1 0x0 REVERT JUMPDEST PUSH1 0x0 DUP1 REVERT JUMPDEST PUSH32 0x6372656174650000000000000000000000000000000000000000000000000000 PUSH1 0x0 DUP3 ADD MSTORE POP JUMP JUMPDEST PUSH3 0x46C DUP2 PUSH3 0x3B7 JUMP JUMPDEST DUP2 EQ PUSH3 0x478 JUMPI PUSH1 0x0 DUP1 REVERT JUMPDEST POP JUMP JUMPDEST PUSH2 0xA06 DUP1 PUSH3 0x48B PUSH1 0x0 CODECOPY PUSH1 0x0 RETURN INVALID PUSH1 0x80 PUSH1 0x40 MSTORE CALLVALUE DUP1 ISZERO PUSH2 0x10 JUMPI PUSH1 0x0 DUP1 REVERT JUMPDEST POP PUSH1 0x4 CALLDATASIZE LT PUSH2 0x41 JUMPI PUSH1 0x0 CALLDATALOAD PUSH1 0xE0 SHR DUP1 PUSH4 0x173D773D EQ PUSH2 0x46 JUMPI DUP1 PUSH4 0x4E69D560 EQ PUSH2 0x76 JUMPI DUP1 PUSH4 0x799CF246 EQ PUSH2 0x94 JUMPI JUMPDEST PUSH1 0x0 DUP1 REVERT JUMPDEST PUSH2 0x60 PUSH1 0x4 DUP1 CALLDATASIZE SUB DUP2 ADD SWAP1 PUSH2 0x5B SWAP2 SWAP1 PUSH2 0x4B9 JUMP JUMPDEST PUSH2 0xB2 JUMP JUMPDEST PUSH1 0x40 MLOAD PUSH2 0x6D SWAP2 SWAP1 PUSH2 0x74A JUMP JUMPDEST PUSH1 0x40 MLOAD DUP1 SWAP2 SUB SWAP1 RETURN JUMPDEST PUSH2 0x7E PUSH2 0x20C JUMP JUMPDEST PUSH1 0x40 MLOAD PUSH2 0x8B SWAP2 SWAP1 PUSH2 0x765 JUMP JUMPDEST PUSH1 0x40 MLOAD DUP1 SWAP2 SUB SWAP1 RETURN JUMPDEST PUSH2 0x9C PUSH2 0x223 JUMP JUMPDEST PUSH1 0x40 MLOAD PUSH2 0xA9 SWAP2 SWAP1 PUSH2 0x728 JUMP JUMPDEST PUSH1 0x40 MLOAD DUP1 SWAP2 SUB SWAP1 RETURN JUMPDEST PUSH1 0x0 DUP3 PUSH1 0x1 PUSH1 0x0 PUSH2 0x100 EXP DUP2 SLOAD DUP2 PUSH1 0xFF MUL NOT AND SWAP1 DUP4 PUSH1 0xFF AND MUL OR SWAP1 SSTORE POP PUSH1 0x2 PUSH1 0x40 MLOAD DUP1 PUSH1 0x80 ADD PUSH1 0x40 MSTORE DUP1 CALLER PUSH20 0xFFFFFFFFFFFFFFFFFFFFFFFFFFFFFFFFFFFFFFFF AND DUP2 MSTORE PUSH1 0x20 ADD DUP6 PUSH1 0xFF AND DUP2 MSTORE PUSH1 0x20 ADD TIMESTAMP DUP2 MSTORE PUSH1 0x20 ADD DUP5 DUP2 MSTORE POP SWAP1 DUP1 PUSH1 0x1 DUP2 SLOAD ADD DUP1 DUP3 SSTORE DUP1 SWAP2 POP POP PUSH1 0x1 SWAP1 SUB SWAP1 PUSH1 0x0 MSTORE PUSH1 0x20 PUSH1 0x0 KECCAK256 SWAP1 PUSH1 0x3 MUL ADD PUSH1 0x0 SWAP1 SWAP2 SWAP1 SWAP2 SWAP1 SWAP2 POP PUSH1 0x0 DUP3 ADD MLOAD DUP2 PUSH1 0x0 ADD PUSH1 0x0 PUSH2 0x100 EXP DUP2 SLOAD DUP2 PUSH20 0xFFFFFFFFFFFFFFFFFFFFFFFFFFFFFFFFFFFFFFFF MUL NOT AND SWAP1 DUP4 PUSH20 0xFFFFFFFFFFFFFFFFFFFFFFFFFFFFFFFFFFFFFFFF AND MUL OR SWAP1 SSTORE POP PUSH1 0x20 DUP3 ADD MLOAD DUP2 PUSH1 0x0 ADD PUSH1 0x14 PUSH2 0x100 EXP DUP2 SLOAD DUP2 PUSH1 0xFF MUL NOT AND SWAP1 DUP4 PUSH1 0xFF AND MUL OR SWAP1 SSTORE POP PUSH1 0x40 DUP3 ADD MLOAD DUP2 PUSH1 0x1 ADD SSTORE PUSH1 0x60 DUP3 ADD MLOAD DUP2 PUSH1 0x2 ADD SWAP1 DUP1 MLOAD SWAP1 PUSH1 0x20 ADD SWAP1 PUSH2 0x1C2 SWAP3 SWAP2 SWAP1 PUSH2 0x391 JUMP JUMPDEST POP POP POP PUSH32 0x38930409E72D179A853C881163FCEE8ED63D42EC95EE4599FC17E0421E1303D8 CALLER DUP5 TIMESTAMP DUP6 PUSH1 0x40 MLOAD PUSH2 0x1FA SWAP5 SWAP4 SWAP3 SWAP2 SWAP1 PUSH2 0x6DC JUMP JUMPDEST PUSH1 0x40 MLOAD DUP1 SWAP2 SUB SWAP1 LOG1 PUSH1 0x1 SWAP1 POP SWAP3 SWAP2 POP POP JUMP JUMPDEST PUSH1 0x0 PUSH1 0x1 PUSH1 0x0 SWAP1 SLOAD SWAP1 PUSH2 0x100 EXP SWAP1 DIV PUSH1 0xFF AND SWAP1 POP SWAP1 JUMP JUMPDEST PUSH1 0x60 PUSH1 0x2 DUP1 SLOAD DUP1 PUSH1 0x20 MUL PUSH1 0x20 ADD PUSH1 0x40 MLOAD SWAP1 DUP2 ADD PUSH1 0x40 MSTORE DUP1 SWAP3 SWAP2 SWAP1 DUP2 DUP2 MSTORE PUSH1 0x20 ADD PUSH1 0x0 SWAP1 JUMPDEST DUP3 DUP3 LT ISZERO PUSH2 0x388 JUMPI DUP4 DUP3 SWAP1 PUSH1 0x0 MSTORE PUSH1 0x20 PUSH1 0x0 KECCAK256 SWAP1 PUSH1 0x3 MUL ADD PUSH1 0x40 MLOAD DUP1 PUSH1 0x80 ADD PUSH1 0x40 MSTORE SWAP1 DUP2 PUSH1 0x0 DUP3 ADD PUSH1 0x0 SWAP1 SLOAD SWAP1 PUSH2 0x100 EXP SWAP1 DIV PUSH20 0xFFFFFFFFFFFFFFFFFFFFFFFFFFFFFFFFFFFFFFFF AND PUSH20 0xFFFFFFFFFFFFFFFFFFFFFFFFFFFFFFFFFFFFFFFF AND PUSH20 0xFFFFFFFFFFFFFFFFFFFFFFFFFFFFFFFFFFFFFFFF AND DUP2 MSTORE PUSH1 0x20 ADD PUSH1 0x0 DUP3 ADD PUSH1 0x14 SWAP1 SLOAD SWAP1 PUSH2 0x100 EXP SWAP1 DIV PUSH1 0xFF AND PUSH1 0xFF AND PUSH1 0xFF AND DUP2 MSTORE PUSH1 0x20 ADD PUSH1 0x1 DUP3 ADD SLOAD DUP2 MSTORE PUSH1 0x20 ADD PUSH1 0x2 DUP3 ADD DUP1 SLOAD PUSH2 0x2F7 SWAP1 PUSH2 0x8D3 JUMP JUMPDEST DUP1 PUSH1 0x1F ADD PUSH1 0x20 DUP1 SWAP2 DIV MUL PUSH1 0x20 ADD PUSH1 0x40 MLOAD SWAP1 DUP2 ADD PUSH1 0x40 MSTORE DUP1 SWAP3 SWAP2 SWAP1 DUP2 DUP2 MSTORE PUSH1 0x20 ADD DUP3 DUP1 SLOAD PUSH2 0x323 SWAP1 PUSH2 0x8D3 JUMP JUMPDEST DUP1 ISZERO PUSH2 0x370 JUMPI DUP1 PUSH1 0x1F LT PUSH2 0x345 JUMPI PUSH2 0x100 DUP1 DUP4 SLOAD DIV MUL DUP4 MSTORE SWAP2 PUSH1 0x20 ADD SWAP2 PUSH2 0x370 JUMP JUMPDEST DUP3 ADD SWAP2 SWAP1 PUSH1 0x0 MSTORE PUSH1 0x20 PUSH1 0x0 KECCAK256 SWAP1 JUMPDEST DUP2 SLOAD DUP2 MSTORE SWAP1 PUSH1 0x1 ADD SWAP1 PUSH1 0x20 ADD DUP1 DUP4 GT PUSH2 0x353 JUMPI DUP3 SWAP1 SUB PUSH1 0x1F AND DUP3 ADD SWAP2 JUMPDEST POP POP POP POP POP DUP2 MSTORE POP POP DUP2 MSTORE PUSH1 0x20 ADD SWAP1 PUSH1 0x1 ADD SWAP1 PUSH2 0x247 JUMP JUMPDEST POP POP POP POP SWAP1 POP SWAP1 JUMP JUMPDEST DUP3 DUP1 SLOAD PUSH2 0x39D SWAP1 PUSH2 0x8D3 JUMP JUMPDEST SWAP1 PUSH1 0x0 MSTORE PUSH1 0x20 PUSH1 0x0 KECCAK256 SWAP1 PUSH1 0x1F ADD PUSH1 0x20 SWAP1 DIV DUP2 ADD SWAP3 DUP3 PUSH2 0x3BF JUMPI PUSH1 0x0 DUP6 SSTORE PUSH2 0x406 JUMP JUMPDEST DUP3 PUSH1 0x1F LT PUSH2 0x3D8 JUMPI DUP1 MLOAD PUSH1 0xFF NOT AND DUP4 DUP1 ADD OR DUP6 SSTORE PUSH2 0x406 JUMP JUMPDEST DUP3 DUP1 ADD PUSH1 0x1 ADD DUP6 SSTORE DUP3 ISZERO PUSH2 0x406 JUMPI SWAP2 DUP3 ADD JUMPDEST DUP3 DUP2 GT ISZERO PUSH2 0x405 JUMPI DUP3 MLOAD DUP3 SSTORE SWAP2 PUSH1 0x20 ADD SWAP2 SWAP1 PUSH1 0x1 ADD SWAP1 PUSH2 0x3EA JUMP JUMPDEST JUMPDEST POP SWAP1 POP PUSH2 0x413 SWAP2 SWAP1 PUSH2 0x417 JUMP JUMPDEST POP SWAP1 JUMP JUMPDEST JUMPDEST DUP1 DUP3 GT ISZERO PUSH2 0x430 JUMPI PUSH1 0x0 DUP2 PUSH1 0x0 SWAP1 SSTORE POP PUSH1 0x1 ADD PUSH2 0x418 JUMP JUMPDEST POP SWAP1 JUMP JUMPDEST PUSH1 0x0 PUSH2 0x447 PUSH2 0x442 DUP5 PUSH2 0x7A5 JUMP JUMPDEST PUSH2 0x780 JUMP JUMPDEST SWAP1 POP DUP3 DUP2 MSTORE PUSH1 0x20 DUP2 ADD DUP5 DUP5 DUP5 ADD GT ISZERO PUSH2 0x463 JUMPI PUSH2 0x462 PUSH2 0x999 JUMP JUMPDEST JUMPDEST PUSH2 0x46E DUP5 DUP3 DUP6 PUSH2 0x891 JUMP JUMPDEST POP SWAP4 SWAP3 POP POP POP JUMP JUMPDEST PUSH1 0x0 DUP3 PUSH1 0x1F DUP4 ADD SLT PUSH2 0x48B JUMPI PUSH2 0x48A PUSH2 0x994 JUMP JUMPDEST JUMPDEST DUP2 CALLDATALOAD PUSH2 0x49B DUP5 DUP3 PUSH1 0x20 DUP7 ADD PUSH2 0x434 JUMP JUMPDEST SWAP2 POP POP SWAP3 SWAP2 POP POP JUMP JUMPDEST PUSH1 0x0 DUP2 CALLDATALOAD SWAP1 POP PUSH2 0x4B3 DUP2 PUSH2 0x9B9 JUMP JUMPDEST SWAP3 SWAP2 POP POP JUMP JUMPDEST PUSH1 0x0 DUP1 PUSH1 0x40 DUP4 DUP6 SUB SLT ISZERO PUSH2 0x4D0 JUMPI PUSH2 0x4CF PUSH2 0x9A3 JUMP JUMPDEST JUMPDEST PUSH1 0x0 PUSH2 0x4DE DUP6 DUP3 DUP7 ADD PUSH2 0x4A4 JUMP JUMPDEST SWAP3 POP POP PUSH1 0x20 DUP4 ADD CALLDATALOAD PUSH8 0xFFFFFFFFFFFFFFFF DUP2 GT ISZERO PUSH2 0x4FF JUMPI PUSH2 0x4FE PUSH2 0x99E JUMP JUMPDEST JUMPDEST PUSH2 0x50B DUP6 DUP3 DUP7 ADD PUSH2 0x476 JUMP JUMPDEST SWAP2 POP POP SWAP3 POP SWAP3 SWAP1 POP JUMP JUMPDEST PUSH1 0x0 PUSH2 0x521 DUP4 DUP4 PUSH2 0x63D JUMP JUMPDEST SWAP1 POP SWAP3 SWAP2 POP POP JUMP JUMPDEST PUSH2 0x532 DUP2 PUSH2 0x83C JUMP JUMPDEST DUP3 MSTORE POP POP JUMP JUMPDEST PUSH2 0x541 DUP2 PUSH2 0x83C JUMP JUMPDEST DUP3 MSTORE POP POP JUMP JUMPDEST PUSH1 0x0 PUSH2 0x552 DUP3 PUSH2 0x7E6 JUMP JUMPDEST PUSH2 0x55C DUP2 DUP6 PUSH2 0x809 JUMP JUMPDEST SWAP4 POP DUP4 PUSH1 0x20 DUP3 MUL DUP6 ADD PUSH2 0x56E DUP6 PUSH2 0x7D6 JUMP JUMPDEST DUP1 PUSH1 0x0 JUMPDEST DUP6 DUP2 LT ISZERO PUSH2 0x5AA JUMPI DUP5 DUP5 SUB DUP10 MSTORE DUP2 MLOAD PUSH2 0x58B DUP6 DUP3 PUSH2 0x515 JUMP JUMPDEST SWAP5 POP PUSH2 0x596 DUP4 PUSH2 0x7FC JUMP JUMPDEST SWAP3 POP PUSH1 0x20 DUP11 ADD SWAP10 POP POP PUSH1 0x1 DUP2 ADD SWAP1 POP PUSH2 0x572 JUMP JUMPDEST POP DUP3 SWAP8 POP DUP8 SWAP6 POP POP POP POP POP POP SWAP3 SWAP2 POP POP JUMP JUMPDEST PUSH2 0x5C5 DUP2 PUSH2 0x84E JUMP JUMPDEST DUP3 MSTORE POP POP JUMP JUMPDEST PUSH1 0x0 PUSH2 0x5D6 DUP3 PUSH2 0x7F1 JUMP JUMPDEST PUSH2 0x5E0 DUP2 DUP6 PUSH2 0x81A JUMP JUMPDEST SWAP4 POP PUSH2 0x5F0 DUP2 DUP6 PUSH1 0x20 DUP7 ADD PUSH2 0x8A0 JUMP JUMPDEST PUSH2 0x5F9 DUP2 PUSH2 0x9A8 JUMP JUMPDEST DUP5 ADD SWAP2 POP POP SWAP3 SWAP2 POP POP JUMP JUMPDEST PUSH1 0x0 PUSH2 0x60F DUP3 PUSH2 0x7F1 JUMP JUMPDEST PUSH2 0x619 DUP2 DUP6 PUSH2 0x82B JUMP JUMPDEST SWAP4 POP PUSH2 0x629 DUP2 DUP6 PUSH1 0x20 DUP7 ADD PUSH2 0x8A0 JUMP JUMPDEST PUSH2 0x632 DUP2 PUSH2 0x9A8 JUMP JUMPDEST DUP5 ADD SWAP2 POP POP SWAP3 SWAP2 POP POP JUMP JUMPDEST PUSH1 0x0 PUSH1 0x80 DUP4 ADD PUSH1 0x0 DUP4 ADD MLOAD PUSH2 0x655 PUSH1 0x0 DUP7 ADD DUP3 PUSH2 0x529 JUMP JUMPDEST POP PUSH1 0x20 DUP4 ADD MLOAD PUSH2 0x668 PUSH1 0x20 DUP7 ADD DUP3 PUSH2 0x6BE JUMP JUMPDEST POP PUSH1 0x40 DUP4 ADD MLOAD PUSH2 0x67B PUSH1 0x40 DUP7 ADD DUP3 PUSH2 0x6A0 JUMP JUMPDEST POP PUSH1 0x60 DUP4 ADD MLOAD DUP5 DUP3 SUB PUSH1 0x60 DUP7 ADD MSTORE PUSH2 0x693 DUP3 DUP3 PUSH2 0x5CB JUMP JUMPDEST SWAP2 POP POP DUP1 SWAP2 POP POP SWAP3 SWAP2 POP POP JUMP JUMPDEST PUSH2 0x6A9 DUP2 PUSH2 0x87A JUMP JUMPDEST DUP3 MSTORE POP POP JUMP JUMPDEST PUSH2 0x6B8 DUP2 PUSH2 0x87A JUMP JUMPDEST DUP3 MSTORE POP POP JUMP JUMPDEST PUSH2 0x6C7 DUP2 PUSH2 0x884 JUMP JUMPDEST DUP3 MSTORE POP POP JUMP JUMPDEST PUSH2 0x6D6 DUP2 PUSH2 0x884 JUMP JUMPDEST DUP3 MSTORE POP POP JUMP JUMPDEST PUSH1 0x0 PUSH1 0x80 DUP3 ADD SWAP1 POP PUSH2 0x6F1 PUSH1 0x0 DUP4 ADD DUP8 PUSH2 0x538 JUMP JUMPDEST PUSH2 0x6FE PUSH1 0x20 DUP4 ADD DUP7 PUSH2 0x6CD JUMP JUMPDEST PUSH2 0x70B PUSH1 0x40 DUP4 ADD DUP6 PUSH2 0x6AF JUMP JUMPDEST DUP2 DUP2 SUB PUSH1 0x60 DUP4 ADD MSTORE PUSH2 0x71D DUP2 DUP5 PUSH2 0x604 JUMP JUMPDEST SWAP1 POP SWAP6 SWAP5 POP POP POP POP POP JUMP JUMPDEST PUSH1 0x0 PUSH1 0x20 DUP3 ADD SWAP1 POP DUP2 DUP2 SUB PUSH1 0x0 DUP4 ADD MSTORE PUSH2 0x742 DUP2 DUP5 PUSH2 0x547 JUMP JUMPDEST SWAP1 POP SWAP3 SWAP2 POP POP JUMP JUMPDEST PUSH1 0x0 PUSH1 0x20 DUP3 ADD SWAP1 POP PUSH2 0x75F PUSH1 0x0 DUP4 ADD DUP5 PUSH2 0x5BC JUMP JUMPDEST SWAP3 SWAP2 POP POP JUMP JUMPDEST PUSH1 0x0 PUSH1 0x20 DUP3 ADD SWAP1 POP PUSH2 0x77A PUSH1 0x0 DUP4 ADD DUP5 PUSH2 0x6CD JUMP JUMPDEST SWAP3 SWAP2 POP POP JUMP JUMPDEST PUSH1 0x0 PUSH2 0x78A PUSH2 0x79B JUMP JUMPDEST SWAP1 POP PUSH2 0x796 DUP3 DUP3 PUSH2 0x905 JUMP JUMPDEST SWAP2 SWAP1 POP JUMP JUMPDEST PUSH1 0x0 PUSH1 0x40 MLOAD SWAP1 POP SWAP1 JUMP JUMPDEST PUSH1 0x0 PUSH8 0xFFFFFFFFFFFFFFFF DUP3 GT ISZERO PUSH2 0x7C0 JUMPI PUSH2 0x7BF PUSH2 0x965 JUMP JUMPDEST JUMPDEST PUSH2 0x7C9 DUP3 PUSH2 0x9A8 JUMP JUMPDEST SWAP1 POP PUSH1 0x20 DUP2 ADD SWAP1 POP SWAP2 SWAP1 POP JUMP JUMPDEST PUSH1 0x0 DUP2 SWAP1 POP PUSH1 0x20 DUP3 ADD SWAP1 POP SWAP2 SWAP1 POP JUMP JUMPDEST PUSH1 0x0 DUP2 MLOAD SWAP1 POP SWAP2 SWAP1 POP JUMP JUMPDEST PUSH1 0x0 DUP2 MLOAD SWAP1 POP SWAP2 SWAP1 POP JUMP JUMPDEST PUSH1 0x0 PUSH1 0x20 DUP3 ADD SWAP1 POP SWAP2 SWAP1 POP JUMP JUMPDEST PUSH1 0x0 DUP3 DUP3 MSTORE PUSH1 0x20 DUP3 ADD SWAP1 POP SWAP3 SWAP2 POP POP JUMP JUMPDEST PUSH1 0x0 DUP3 DUP3 MSTORE PUSH1 0x20 DUP3 ADD SWAP1 POP SWAP3 SWAP2 POP POP JUMP JUMPDEST PUSH1 0x0 DUP3 DUP3 MSTORE PUSH1 0x20 DUP3 ADD SWAP1 POP SWAP3 SWAP2 POP POP JUMP JUMPDEST PUSH1 0x0 PUSH2 0x847 DUP3 PUSH2 0x85A JUMP JUMPDEST SWAP1 POP SWAP2 SWAP1 POP JUMP JUMPDEST PUSH1 0x0 DUP2 ISZERO ISZERO SWAP1 POP SWAP2 SWAP1 POP JUMP JUMPDEST PUSH1 0x0 PUSH20 0xFFFFFFFFFFFFFFFFFFFFFFFFFFFFFFFFFFFFFFFF DUP3 AND SWAP1 POP SWAP2 SWAP1 POP JUMP JUMPDEST PUSH1 0x0 DUP2 SWAP1 POP SWAP2 SWAP1 POP JUMP JUMPDEST PUSH1 0x0 PUSH1 0xFF DUP3 AND SWAP1 POP SWAP2 SWAP1 POP JUMP JUMPDEST DUP3 DUP2 DUP4 CALLDATACOPY PUSH1 0x0 DUP4 DUP4 ADD MSTORE POP POP POP JUMP JUMPDEST PUSH1 0x0 JUMPDEST DUP4 DUP2 LT ISZERO PUSH2 0x8BE JUMPI DUP1 DUP3 ADD MLOAD DUP2 DUP5 ADD MSTORE PUSH1 0x20 DUP2 ADD SWAP1 POP PUSH2 0x8A3 JUMP JUMPDEST DUP4 DUP2 GT ISZERO PUSH2 0x8CD JUMPI PUSH1 0x0 DUP5 DUP5 ADD MSTORE JUMPDEST POP POP POP POP JUMP JUMPDEST PUSH1 0x0 PUSH1 0x2 DUP3 DIV SWAP1 POP PUSH1 0x1 DUP3 AND DUP1 PUSH2 0x8EB JUMPI PUSH1 0x7F DUP3 AND SWAP2 POP JUMPDEST PUSH1 0x20 DUP3 LT DUP2 EQ ISZERO PUSH2 0x8FF JUMPI PUSH2 0x8FE PUSH2 0x936 JUMP JUMPDEST JUMPDEST POP SWAP2 SWAP1 POP JUMP JUMPDEST PUSH2 0x90E DUP3 PUSH2 0x9A8 JUMP JUMPDEST DUP2 ADD DUP2 DUP2 LT PUSH8 0xFFFFFFFFFFFFFFFF DUP3 GT OR ISZERO PUSH2 0x92D JUMPI PUSH2 0x92C PUSH2 0x965 JUMP JUMPDEST JUMPDEST DUP1 PUSH1 0x40 MSTORE POP POP POP JUMP JUMPDEST PUSH32 0x4E487B7100000000000000000000000000000000000000000000000000000000 PUSH1 0x0 MSTORE PUSH1 0x22 PUSH1 0x4 MSTORE PUSH1 0x24 PUSH1 0x0 REVERT JUMPDEST PUSH32 0x4E487B7100000000000000000000000000000000000000000000000000000000 PUSH1 0x0 MSTORE PUSH1 0x41 PUSH1 0x4 MSTORE PUSH1 0x24 PUSH1 0x0 REVERT JUMPDEST PUSH1 0x0 DUP1 REVERT JUMPDEST PUSH1 0x0 DUP1 REVERT JUMPDEST PUSH1 0x0 DUP1 REVERT JUMPDEST PUSH1 0x0 DUP1 REVERT JUMPDEST PUSH1 0x0 PUSH1 0x1F NOT PUSH1 0x1F DUP4 ADD AND SWAP1 POP SWAP2 SWAP1 POP JUMP JUMPDEST PUSH2 0x9C2 DUP2 PUSH2 0x884 JUMP JUMPDEST DUP2 EQ PUSH2 0x9CD JUMPI PUSH1 0x0 DUP1 REVERT JUMPDEST POP JUMP INVALID LOG2 PUSH5 0x6970667358 0x22 SLT KECCAK256 PUSH32 0xBC86115F704E8F12B1B2AEA27599E2C160AEC5D2DB67F01D0CDE4D623DC29B64 PUSH20 0x6F6C634300080700330000000000000000000000 "
				},
				"gasEstimates": {
					"creation": {
						"codeDepositCost": "513200",
						"executionCost": "infinite",
						"totalCost": "infinite"
					},
					"external": {
						"changeStatus(uint8,string)": "infinite",
						"getStatus()": "2479",
						"getTranceInfo()": "infinite"
					}
				},
				"methodIdentifiers": {
					"changeStatus(uint8,string)": "173d773d",
					"getStatus()": "4e69d560",
					"getTranceInfo()": "799cf246"
				}
			},
			"storageLayout": {
				"storage": [
					{
						"astId": 12,
						"contract": "trace/goods.sol:Goods",
						"label": "goodsID",
						"offset": 0,
						"slot": "0",
						"type": "t_uint256"
					},
					{
						"astId": 14,
						"contract": "trace/goods.sol:Goods",
						"label": "currentStatus",
						"offset": 0,
						"slot": "1",
						"type": "t_uint8"
					},
					{
						"astId": 18,
						"contract": "trace/goods.sol:Goods",
						"label": "traceDatas",
						"offset": 0,
						"slot": "2",
						"type": "t_array(t_struct(TraceData)10_storage)dyn_storage"
					}
				],
				"types": {
					"t_address": {
						"encoding": "inplace",
						"label": "address",
						"numberOfBytes": "20"
					},
					"t_array(t_struct(TraceData)10_storage)dyn_storage": {
						"base": "t_struct(TraceData)10_storage",
						"encoding": "dynamic_array",
						"label": "struct Goods.TraceData[]",
						"numberOfBytes": "32"
					},
					"t_string_storage": {
						"encoding": "bytes",
						"label": "string",
						"numberOfBytes": "32"
					},
					"t_struct(TraceData)10_storage": {
						"encoding": "inplace",
						"label": "struct Goods.TraceData",
						"members": [
							{
								"astId": 3,
								"contract": "trace/goods.sol:Goods",
								"label": "operator",
								"offset": 0,
								"slot": "0",
								"type": "t_address"
							},
							{
								"astId": 5,
								"contract": "trace/goods.sol:Goods",
								"label": "status",
								"offset": 20,
								"slot": "0",
								"type": "t_uint8"
							},
							{
								"astId": 7,
								"contract": "trace/goods.sol:Goods",
								"label": "timestamp",
								"offset": 0,
								"slot": "1",
								"type": "t_uint256"
							},
							{
								"astId": 9,
								"contract": "trace/goods.sol:Goods",
								"label": "remark",
								"offset": 0,
								"slot": "2",
								"type": "t_string_storage"
							}
						],
						"numberOfBytes": "96"
					},
					"t_uint256": {
						"encoding": "inplace",
						"label": "uint256",
						"numberOfBytes": "32"
					},
					"t_uint8": {
						"encoding": "inplace",
						"label": "uint8",
						"numberOfBytes": "1"
					}
				}
			},
			"userdoc": {
				"kind": "user",
				"methods": {},
				"version": 1
			}
		}
	}
}